{"abi":[{"type":"constructor","inputs":[],"stateMutability":"nonpayable"},{"type":"function","name":"DEFAULT_ADMIN_ROLE","inputs":[],"outputs":[{"name":"","type":"bytes32","internalType":"bytes32"}],"stateMutability":"view"},{"type":"function","name":"EMERGENCY_ROLE","inputs":[],"outputs":[{"name":"","type":"bytes32","internalType":"bytes32"}],"stateMutability":"view"},{"type":"function","name":"MAX_ATTESTATION_AGE","inputs":[],"outputs":[{"name":"","type":"uint256","internalType":"uint256"}],"stateMutability":"view"},{"type":"function","name":"MIN_ATTESTATION_GAP","inputs":[],"outputs":[{"name":"","type":"uint256","internalType":"uint256"}],"stateMutability":"view"},{"type":"function","name":"RELAYER_ROLE","inputs":[],"outputs":[{"name":"","type":"bytes32","internalType":"bytes32"}],"stateMutability":"view"},{"type":"function","name":"UNPAUSE_DELAY","inputs":[],"outputs":[{"name":"","type":"uint256","internalType":"uint256"}],"stateMutability":"view"},{"type":"function","name":"UPGRADE_INTERFACE_VERSION","inputs":[],"outputs":[{"name":"","type":"string","internalType":"string"}],"stateMutability":"view"},{"type":"function","name":"VALIDATOR_ROLE","inputs":[],"outputs":[{"name":"","type":"bytes32","internalType":"bytes32"}],"stateMutability":"view"},{"type":"function","name":"attestedCantonAssets","inputs":[],"outputs":[{"name":"","type":"uint256","internalType":"uint256"}],"stateMutability":"view"},{"type":"function","name":"calculateSupplyCap","inputs":[{"name":"_assets","type":"uint256","internalType":"uint256"}],"outputs":[{"name":"","type":"uint256","internalType":"uint256"}],"stateMutability":"view"},{"type":"function","name":"collateralRatioBps","inputs":[],"outputs":[{"name":"","type":"uint256","internalType":"uint256"}],"stateMutability":"view"},{"type":"function","name":"currentNonce","inputs":[],"outputs":[{"name":"","type":"uint256","internalType":"uint256"}],"stateMutability":"view"},{"type":"function","name":"dailyCapDecreased","inputs":[],"outputs":[{"name":"","type":"uint256","internalType":"uint256"}],"stateMutability":"view"},{"type":"function","name":"dailyCapIncreaseLimit","inputs":[],"outputs":[{"name":"","type":"uint256","internalType":"uint256"}],"stateMutability":"view"},{"type":"function","name":"dailyCapIncreased","inputs":[],"outputs":[{"name":"","type":"uint256","internalType":"uint256"}],"stateMutability":"view"},{"type":"function","name":"emergencyReduceCap","inputs":[{"name":"_newCap","type":"uint256","internalType":"uint256"},{"name":"_reason","type":"string","internalType":"string"}],"outputs":[],"stateMutability":"nonpayable"},{"type":"function","name":"executeUnpause","inputs":[],"outputs":[],"stateMutability":"nonpayable"},{"type":"function","name":"forceUpdateNonce","inputs":[{"name":"_newNonce","type":"uint256","internalType":"uint256"},{"name":"_reason","type":"string","internalType":"string"}],"outputs":[],"stateMutability":"nonpayable"},{"type":"function","name":"getCurrentSupplyCap","inputs":[],"outputs":[{"name":"","type":"uint256","internalType":"uint256"}],"stateMutability":"view"},{"type":"function","name":"getHealthRatio","inputs":[],"outputs":[{"name":"ratioBps","type":"uint256","internalType":"uint256"}],"stateMutability":"view"},{"type":"function","name":"getNetDailyCapIncrease","inputs":[],"outputs":[{"name":"","type":"uint256","internalType":"uint256"}],"stateMutability":"view"},{"type":"function","name":"getRemainingDailyCapLimit","inputs":[],"outputs":[{"name":"","type":"uint256","internalType":"uint256"}],"stateMutability":"view"},{"type":"function","name":"getRemainingMintable","inputs":[],"outputs":[{"name":"","type":"uint256","internalType":"uint256"}],"stateMutability":"view"},{"type":"function","name":"getRoleAdmin","inputs":[{"name":"role","type":"bytes32","internalType":"bytes32"}],"outputs":[{"name":"","type":"bytes32","internalType":"bytes32"}],"stateMutability":"view"},{"type":"function","name":"grantRole","inputs":[{"name":"role","type":"bytes32","internalType":"bytes32"},{"name":"account","type":"address","internalType":"address"}],"outputs":[],"stateMutability":"nonpayable"},{"type":"function","name":"hasRole","inputs":[{"name":"role","type":"bytes32","internalType":"bytes32"},{"name":"account","type":"address","internalType":"address"}],"outputs":[{"name":"","type":"bool","internalType":"bool"}],"stateMutability":"view"},{"type":"function","name":"initialize","inputs":[{"name":"_minSigs","type":"uint256","internalType":"uint256"},{"name":"_musdToken","type":"address","internalType":"address"},{"name":"_collateralRatioBps","type":"uint256","internalType":"uint256"},{"name":"_dailyCapIncreaseLimit","type":"uint256","internalType":"uint256"},{"name":"_timelock","type":"address","internalType":"address"}],"outputs":[],"stateMutability":"nonpayable"},{"type":"function","name":"invalidateAttestationId","inputs":[{"name":"_attestationId","type":"bytes32","internalType":"bytes32"},{"name":"_reason","type":"string","internalType":"string"}],"outputs":[],"stateMutability":"nonpayable"},{"type":"function","name":"lastAttestationTime","inputs":[],"outputs":[{"name":"","type":"uint256","internalType":"uint256"}],"stateMutability":"view"},{"type":"function","name":"lastRateLimitReset","inputs":[],"outputs":[{"name":"","type":"uint256","internalType":"uint256"}],"stateMutability":"view"},{"type":"function","name":"lastRatioChangeTime","inputs":[],"outputs":[{"name":"","type":"uint256","internalType":"uint256"}],"stateMutability":"view"},{"type":"function","name":"migrateUsedAttestations","inputs":[{"name":"attestationIds","type":"bytes32[]","internalType":"bytes32[]"},{"name":"previousBridge","type":"address","internalType":"address"}],"outputs":[],"stateMutability":"nonpayable"},{"type":"function","name":"minSignatures","inputs":[],"outputs":[{"name":"","type":"uint256","internalType":"uint256"}],"stateMutability":"view"},{"type":"function","name":"musdToken","inputs":[],"outputs":[{"name":"","type":"address","internalType":"contract IMUSD"}],"stateMutability":"view"},{"type":"function","name":"pause","inputs":[],"outputs":[],"stateMutability":"nonpayable"},{"type":"function","name":"paused","inputs":[],"outputs":[{"name":"","type":"bool","internalType":"bool"}],"stateMutability":"view"},{"type":"function","name":"processAttestation","inputs":[{"name":"att","type":"tuple","internalType":"struct BLEBridgeV9.Attestation","components":[{"name":"id","type":"bytes32","internalType":"bytes32"},{"name":"cantonAssets","type":"uint256","internalType":"uint256"},{"name":"nonce","type":"uint256","internalType":"uint256"},{"name":"timestamp","type":"uint256","internalType":"uint256"}]},{"name":"signatures","type":"bytes[]","internalType":"bytes[]"}],"outputs":[],"stateMutability":"nonpayable"},{"type":"function","name":"proxiableUUID","inputs":[],"outputs":[{"name":"","type":"bytes32","internalType":"bytes32"}],"stateMutability":"view"},{"type":"function","name":"renounceRole","inputs":[{"name":"role","type":"bytes32","internalType":"bytes32"},{"name":"callerConfirmation","type":"address","internalType":"address"}],"outputs":[],"stateMutability":"nonpayable"},{"type":"function","name":"requestUnpause","inputs":[],"outputs":[],"stateMutability":"nonpayable"},{"type":"function","name":"revokeRole","inputs":[{"name":"role","type":"bytes32","internalType":"bytes32"},{"name":"account","type":"address","internalType":"address"}],"outputs":[],"stateMutability":"nonpayable"},{"type":"function","name":"setCollateralRatio","inputs":[{"name":"_ratioBps","type":"uint256","internalType":"uint256"}],"outputs":[],"stateMutability":"nonpayable"},{"type":"function","name":"setDailyCapIncreaseLimit","inputs":[{"name":"_limit","type":"uint256","internalType":"uint256"}],"outputs":[],"stateMutability":"nonpayable"},{"type":"function","name":"setMUSDToken","inputs":[{"name":"_musdToken","type":"address","internalType":"address"}],"outputs":[],"stateMutability":"nonpayable"},{"type":"function","name":"setMinSignatures","inputs":[{"name":"_minSigs","type":"uint256","internalType":"uint256"}],"outputs":[],"stateMutability":"nonpayable"},{"type":"function","name":"setTimelock","inputs":[{"name":"_timelock","type":"address","internalType":"address"}],"outputs":[],"stateMutability":"nonpayable"},{"type":"function","name":"supportsInterface","inputs":[{"name":"interfaceId","type":"bytes4","internalType":"bytes4"}],"outputs":[{"name":"","type":"bool","internalType":"bool"}],"stateMutability":"view"},{"type":"function","name":"timelock","inputs":[],"outputs":[{"name":"","type":"address","internalType":"address"}],"stateMutability":"view"},{"type":"function","name":"unpause","inputs":[],"outputs":[],"stateMutability":"view"},{"type":"function","name":"unpauseRequestTime","inputs":[],"outputs":[{"name":"","type":"uint256","internalType":"uint256"}],"stateMutability":"view"},{"type":"function","name":"upgradeToAndCall","inputs":[{"name":"newImplementation","type":"address","internalType":"address"},{"name":"data","type":"bytes","internalType":"bytes"}],"outputs":[],"stateMutability":"payable"},{"type":"function","name":"usedAttestationIds","inputs":[{"name":"","type":"bytes32","internalType":"bytes32"}],"outputs":[{"name":"","type":"bool","internalType":"bool"}],"stateMutability":"view"},{"type":"event","name":"AttestationInvalidated","inputs":[{"name":"attestationId","type":"bytes32","indexed":true,"internalType":"bytes32"},{"name":"reason","type":"string","indexed":false,"internalType":"string"}],"anonymous":false},{"type":"event","name":"AttestationReceived","inputs":[{"name":"id","type":"bytes32","indexed":true,"internalType":"bytes32"},{"name":"cantonAssets","type":"uint256","indexed":false,"internalType":"uint256"},{"name":"newSupplyCap","type":"uint256","indexed":false,"internalType":"uint256"},{"name":"nonce","type":"uint256","indexed":false,"internalType":"uint256"},{"name":"timestamp","type":"uint256","indexed":false,"internalType":"uint256"}],"anonymous":false},{"type":"event","name":"AttestationsMigrated","inputs":[{"name":"count","type":"uint256","indexed":false,"internalType":"uint256"},{"name":"fromBridge","type":"address","indexed":true,"internalType":"address"}],"anonymous":false},{"type":"event","name":"CollateralRatioUpdated","inputs":[{"name":"oldRatio","type":"uint256","indexed":false,"internalType":"uint256"},{"name":"newRatio","type":"uint256","indexed":false,"internalType":"uint256"}],"anonymous":false},{"type":"event","name":"DailyCapIncreaseLimitUpdated","inputs":[{"name":"oldLimit","type":"uint256","indexed":false,"internalType":"uint256"},{"name":"newLimit","type":"uint256","indexed":false,"internalType":"uint256"}],"anonymous":false},{"type":"event","name":"EmergencyCapReduction","inputs":[{"name":"oldCap","type":"uint256","indexed":false,"internalType":"uint256"},{"name":"newCap","type":"uint256","indexed":false,"internalType":"uint256"},{"name":"reason","type":"string","indexed":false,"internalType":"string"}],"anonymous":false},{"type":"event","name":"Initialized","inputs":[{"name":"version","type":"uint64","indexed":false,"internalType":"uint64"}],"anonymous":false},{"type":"event","name":"MUSDTokenUpdated","inputs":[{"name":"oldToken","type":"address","indexed":true,"internalType":"address"},{"name":"newToken","type":"address","indexed":true,"internalType":"address"}],"anonymous":false},{"type":"event","name":"MinSignaturesUpdated","inputs":[{"name":"oldMinSigs","type":"uint256","indexed":false,"internalType":"uint256"},{"name":"newMinSigs","type":"uint256","indexed":false,"internalType":"uint256"}],"anonymous":false},{"type":"event","name":"NonceForceUpdated","inputs":[{"name":"oldNonce","type":"uint256","indexed":false,"internalType":"uint256"},{"name":"newNonce","type":"uint256","indexed":false,"internalType":"uint256"},{"name":"reason","type":"string","indexed":false,"internalType":"string"}],"anonymous":false},{"type":"event","name":"Paused","inputs":[{"name":"account","type":"address","indexed":false,"internalType":"address"}],"anonymous":false},{"type":"event","name":"RateLimitReset","inputs":[{"name":"timestamp","type":"uint256","indexed":false,"internalType":"uint256"}],"anonymous":false},{"type":"event","name":"RateLimitedCapIncrease","inputs":[{"name":"requestedIncrease","type":"uint256","indexed":false,"internalType":"uint256"},{"name":"allowedIncrease","type":"uint256","indexed":false,"internalType":"uint256"},{"name":"remainingLimit","type":"uint256","indexed":false,"internalType":"uint256"}],"anonymous":false},{"type":"event","name":"RoleAdminChanged","inputs":[{"name":"role","type":"bytes32","indexed":true,"internalType":"bytes32"},{"name":"previousAdminRole","type":"bytes32","indexed":true,"internalType":"bytes32"},{"name":"newAdminRole","type":"bytes32","indexed":true,"internalType":"bytes32"}],"anonymous":false},{"type":"event","name":"RoleGranted","inputs":[{"name":"role","type":"bytes32","indexed":true,"internalType":"bytes32"},{"name":"account","type":"address","indexed":true,"internalType":"address"},{"name":"sender","type":"address","indexed":true,"internalType":"address"}],"anonymous":false},{"type":"event","name":"RoleRevoked","inputs":[{"name":"role","type":"bytes32","indexed":true,"internalType":"bytes32"},{"name":"account","type":"address","indexed":true,"internalType":"address"},{"name":"sender","type":"address","indexed":true,"internalType":"address"}],"anonymous":false},{"type":"event","name":"SupplyCapUpdated","inputs":[{"name":"oldCap","type":"uint256","indexed":false,"internalType":"uint256"},{"name":"newCap","type":"uint256","indexed":false,"internalType":"uint256"},{"name":"attestedAssets","type":"uint256","indexed":false,"internalType":"uint256"}],"anonymous":false},{"type":"event","name":"TimelockUpdated","inputs":[{"name":"oldTimelock","type":"address","indexed":true,"internalType":"address"},{"name":"newTimelock","type":"address","indexed":true,"internalType":"address"}],"anonymous":false},{"type":"event","name":"UnpauseCancelled","inputs":[],"anonymous":false},{"type":"event","name":"UnpauseRequested","inputs":[{"name":"requestTime","type":"uint256","indexed":false,"internalType":"uint256"},{"name":"executeAfter","type":"uint256","indexed":false,"internalType":"uint256"}],"anonymous":false},{"type":"event","name":"Unpaused","inputs":[{"name":"account","type":"address","indexed":false,"internalType":"address"}],"anonymous":false},{"type":"event","name":"Upgraded","inputs":[{"name":"implementation","type":"address","indexed":true,"internalType":"address"}],"anonymous":false},{"type":"error","name":"AccessControlBadConfirmation","inputs":[]},{"type":"error","name":"AccessControlUnauthorizedAccount","inputs":[{"name":"account","type":"address","internalType":"address"},{"name":"neededRole","type":"bytes32","internalType":"bytes32"}]},{"type":"error","name":"AddressEmptyCode","inputs":[{"name":"target","type":"address","internalType":"address"}]},{"type":"error","name":"ECDSAInvalidSignature","inputs":[]},{"type":"error","name":"ECDSAInvalidSignatureLength","inputs":[{"name":"length","type":"uint256","internalType":"uint256"}]},{"type":"error","name":"ECDSAInvalidSignatureS","inputs":[{"name":"s","type":"bytes32","internalType":"bytes32"}]},{"type":"error","name":"ERC1967InvalidImplementation","inputs":[{"name":"implementation","type":"address","internalType":"address"}]},{"type":"error","name":"ERC1967NonPayable","inputs":[]},{"type":"error","name":"EnforcedPause","inputs":[]},{"type":"error","name":"ExpectedPause","inputs":[]},{"type":"error","name":"FailedCall","inputs":[]},{"type":"error","name":"InvalidInitialization","inputs":[]},{"type":"error","name":"NotInitializing","inputs":[]},{"type":"error","name":"OnlyTimelock","inputs":[]},{"type":"error","name":"ReentrancyGuardReentrantCall","inputs":[]},{"type":"error","name":"UUPSUnauthorizedCallContext","inputs":[]},{"type":"error","name":"UUPSUnsupportedProxiableUUID","inputs":[{"name":"slot","type":"bytes32","internalType":"bytes32"}]},{"type":"error","name":"ZeroTimelock","inputs":[]}],"bytecode":{"object":"0x60a060405230608052348015610013575f80fd5b5061001c610021565b6100d3565b7ff0c57e16840df040f15088dc2f81fe391c3923bec73e23a9662efc9c229c6a00805468010000000000000000900460ff16156100715760405163f92ee8a960e01b815260040160405180910390fd5b80546001600160401b03908116146100d05780546001600160401b0319166001600160401b0390811782556040519081527fc7f505b2f371ae2175ee4913f4499e1f2633a7b5936321eed1cdaeb6115181d29060200160405180910390a15b50565b6080516133d06100f95f395f81816122220152818161224b01526123ea01526133d05ff3fe6080604052600436106102f3575f3560e01c80638456cb5911610189578063bca8c7eb116100d8578063d547741f11610092578063ecdff91a1161006d578063ecdff91a1461085f578063efb59e9e14610873578063f21d64a614610892578063f86dd9dc146108a7575f80fd5b8063d547741f1461080d578063dd344ba11461082c578063ddd3b81d1461084b575f80fd5b8063bca8c7eb1461074a578063bdacb30314610769578063c49baebe14610788578063c8be18b6146107bb578063cd3d8687146107da578063d33219b4146107f9575f80fd5b8063a217fddf11610143578063b43ccab61161011e578063b43ccab6146106d2578063b7c36b36146106f1578063b9cbb07d14610707578063b9f7bb8d14610735575f80fd5b8063a217fddf1461066d578063ad3cb1cc14610680578063adb610a3146106bd575f80fd5b80638456cb591461059e57806391d14854146105b2578063926d7d7f146105d15780639b7bff4a146106045780639bdfce98146106235780639d78d46b14610637575f80fd5b80633eaa2a8b11610245578063593855a0116101ff5780636060663e116101da5780636060663e146105425780636629a2d6146105615780636f97e31c146105765780637914334f1461058a575f80fd5b8063593855a0146104eb5780635a546098146105005780635c975abb1461051f575f80fd5b80633eaa2a8b146104675780633f4ba83a1461047c5780634b8fd35c146104905780634f1ef286146104a557806352d1902d146104b857806357575a26146104cc575f80fd5b806324fe722e116102b05780632f2ff15d1161028b5780632f2ff15d146103f557806336568abe1461041457806339cd92f7146104335780633a08af6d14610448575f80fd5b806324fe722e146103b557806327413d90146103cb5780632d44d1ea146103e0575f80fd5b806301ffc9a7146102f7578063046e8b471461032b578063196143d01461034d57806320df435914610361578063238acaa214610381578063248a9ca314610396575b5f80fd5b348015610302575f80fd5b50610316610311366004612de9565b6108bc565b60405190151581526020015b60405180910390f35b348015610336575f80fd5b5061033f6108f2565b604051908152602001610322565b348015610358575f80fd5b5061033f603c81565b34801561036c575f80fd5b5061033f5f805160206132fb83398151915281565b34801561038c575f80fd5b5061033f60045481565b3480156103a1575f80fd5b5061033f6103b0366004612e10565b61096b565b3480156103c0575f80fd5b506103c961098b565b005b3480156103d6575f80fd5b5061033f60095481565b3480156103eb575f80fd5b5061033f60075481565b348015610400575f80fd5b506103c961040f366004612e42565b610a36565b34801561041f575f80fd5b506103c961042e366004612e42565b610a58565b34801561043e575f80fd5b5061033f60015481565b348015610453575f80fd5b506103c9610462366004612eb1565b610a90565b348015610472575f80fd5b5061033f60065481565b348015610487575f80fd5b506103c9610cec565b34801561049b575f80fd5b5061033f60055481565b6103c96104b3366004612f0d565b610d4c565b3480156104c3575f80fd5b5061033f610d6b565b3480156104d7575f80fd5b506103c96104e6366004613012565b610d86565b3480156104f6575f80fd5b5061033f60025481565b34801561050b575f80fd5b506103c961051a366004612e10565b610ea7565b34801561052a575f80fd5b505f8051602061337b8339815191525460ff16610316565b34801561054d575f80fd5b506103c961055c366004612e10565b610fa8565b34801561056c575f80fd5b5061033f600a5481565b348015610581575f80fd5b5061033f611151565b348015610595575f80fd5b5061033f611252565b3480156105a9575f80fd5b506103c96112ef565b3480156105bd575f80fd5b506103166105cc366004612e42565b611347565b3480156105dc575f80fd5b5061033f7fe2b7fb3b832174769106daebcfd6d1970523240dda11281102db9363b83b0dc481565b34801561060f575f80fd5b506103c961061e366004612e10565b61137d565b34801561062e575f80fd5b506103c9611434565b348015610642575f80fd5b505f54610655906001600160a01b031681565b6040516001600160a01b039091168152602001610322565b348015610678575f80fd5b5061033f5f81565b34801561068b575f80fd5b506106b0604051806040016040528060058152602001640352e302e360dc1b81525081565b6040516103229190613062565b3480156106c8575f80fd5b5061033f60035481565b3480156106dd575f80fd5b5061033f6106ec366004612e10565b611532565b3480156106fc575f80fd5b5061033f6201518081565b348015610712575f80fd5b50610316610721366004612e10565b600c6020525f908152604090205460ff1681565b348015610740575f80fd5b5061033f61546081565b348015610755575f80fd5b506103c9610764366004613097565b61154d565b348015610774575f80fd5b506103c96107833660046130e0565b611a4f565b348015610793575f80fd5b5061033f7f21702c8af46127c7fa207f89d0b0a8441bb32959a0ac7df790e9ab1a25c9892681565b3480156107c6575f80fd5b506103c96107d53660046130e0565b611b13565b3480156107e5575f80fd5b506103c96107f43660046130f9565b611be1565b348015610804575f80fd5b50610655611e70565b348015610818575f80fd5b506103c9610827366004612e42565b611e8f565b348015610837575f80fd5b506103c9610846366004612eb1565b611eab565b348015610856575f80fd5b5061033f611f86565b34801561086a575f80fd5b5061033f611fed565b34801561087e575f80fd5b506103c961088d366004612eb1565b61202a565b34801561089d575f80fd5b5061033f600b5481565b3480156108b2575f80fd5b5061033f60085481565b5f6001600160e01b03198216637965db0b60e01b14806108ec57506301ffc9a760e01b6001600160e01b03198316145b92915050565b5f805f9054906101000a90046001600160a01b03166001600160a01b0316638f770ad06040518163ffffffff1660e01b8152600401602060405180830381865afa158015610942573d5f803e3d5ffd5b505050506040513d601f19601f820116820180604052508101906109669190613145565b905090565b5f9081525f8051602061335b833981519152602052604090206001015490565b5f610995816120ec565b5f8051602061337b8339815191525460ff166109e55760405162461bcd60e51b815260206004820152600a6024820152691393d517d4105554d15160b21b60448201526064015b60405180910390fd5b42600b8190557f5e873705f3fc98998a135c06b05718cc58f60099dc572cbd1954fa4d15a228c790610a1a6201518082613170565b604080519283526020830191909152015b60405180910390a150565b610a3f8261096b565b610a48816120ec565b610a5283836120f6565b50505050565b6001600160a01b0381163314610a815760405163334bd91960e11b815260040160405180910390fd5b610a8b828261219e565b505050565b5f805160206132fb833981519152610aa7816120ec565b81610ac45760405162461bcd60e51b81526004016109dc90613183565b5f805f9054906101000a90046001600160a01b03166001600160a01b0316638f770ad06040518163ffffffff1660e01b8152600401602060405180830381865afa158015610b14573d5f803e3d5ffd5b505050506040513d601f19601f82011682018060405250810190610b389190613145565b9050808510610b7b5760405162461bcd60e51b815260206004820152600f60248201526e2727aa2fa0afa922a22aa1aa24a7a760891b60448201526064016109dc565b5f805f9054906101000a90046001600160a01b03166001600160a01b03166318160ddd6040518163ffffffff1660e01b8152600401602060405180830381865afa158015610bcb573d5f803e3d5ffd5b505050506040513d601f19601f82011682018060405250810190610bef9190613145565b905080861015610c4f57610c035f33611347565b610c4f5760405162461bcd60e51b815260206004820152601d60248201527f5355425f535550504c595f4341505f52455155495245535f41444d494e00000060448201526064016109dc565b5f54604051635b51facd60e11b8152600481018890526001600160a01b039091169063b6a3f59a906024015f604051808303815f87803b158015610c91575f80fd5b505af1158015610ca3573d5f803e3d5ffd5b505050507f3f31f7726c877b6506fbd0861daaf82005e0a5454b74c34de7bfcadd599a686d82878787604051610cdc94939291906131d4565b60405180910390a1505050505050565b5f610cf6816120ec565b60405162461bcd60e51b815260206004820152602560248201527f5553455f72657175657374556e70617573655f414e445f65786563757465556e604482015264706175736560d81b60648201526084016109dc565b610d54612217565b610d5d826122a7565b610d678282612323565b5050565b5f610d746123df565b505f8051602061333b83398151915290565b5f8051602061331b833981519152546001600160a01b03163314610dbd57604051630e05f48560e11b815260040160405180910390fd5b6001600160a01b038116610e135760405162461bcd60e51b815260206004820152601760248201527f494e56414c49445f50524556494f55535f42524944474500000000000000000060448201526064016109dc565b5f5b82811015610e63576001600c5f868685818110610e3457610e346131fd565b602090810292909201358352508101919091526040015f20805460ff1916911515919091179055600101610e15565b506040518281526001600160a01b038216907fb0961eed1222cf9fa2c892ea3cbf10b522786d90b41c3d96e7cca8554464f2e69060200160405180910390a2505050565b5f8051602061331b833981519152546001600160a01b03163314610ede57604051630e05f48560e11b815260040160405180910390fd5b6002811015610f225760405162461bcd60e51b815260206004820152601060248201526f4d494e5f534947535f544f4f5f4c4f5760801b60448201526064016109dc565b600a811115610f675760405162461bcd60e51b815260206004820152601160248201527009a929cbea6928ea6bea89e9ebe90928e9607b1b60448201526064016109dc565b60045460408051918252602082018390527ff50b1bca865ce9f85d7e9fd03667bd1611269e652e55ec9cc2e2c1b1ac34d2f1910160405180910390a1600455565b5f8051602061331b833981519152546001600160a01b03163314610fdf57604051630e05f48560e11b815260040160405180910390fd5b600654610fef9062015180613170565b4210156110365760405162461bcd60e51b81526020600482015260156024820152742920aa24a7afa1a420a723a2afa1a7a7a62227aba760591b60448201526064016109dc565b6127108110156110825760405162461bcd60e51b81526020600482015260176024820152761490551253d7d0915313d5d7cc4c0c17d4115490d15395604a1b60448201526064016109dc565b6002545f81831161109c576110978383613211565b6110a6565b6110a68284613211565b90506103e88111156110f35760405162461bcd60e51b8152602060048201526016602482015275524154494f5f4348414e47455f544f4f5f4c4152474560501b60448201526064016109dc565b600283905560408051838152602081018590527fea851fc89ebccda62380b76fc8e8317f0bcd4d75ea908cf501bd2ebc6ac1c8f2910160405180910390a160015415611148576111466001546001612428565b505b50504260065550565b5f8054604080516308f770ad60e41b8152905183926001600160a01b031691638f770ad09160048083019260209291908290030181865afa158015611198573d5f803e3d5ffd5b505050506040513d601f19601f820116820180604052508101906111bc9190613145565b90505f805f9054906101000a90046001600160a01b03166001600160a01b03166318160ddd6040518163ffffffff1660e01b8152600401602060405180830381865afa15801561120e573d5f803e3d5ffd5b505050506040513d601f19601f820116820180604052508101906112329190613145565b9050808211611241575f61124b565b61124b8183613211565b9250505090565b5f8054604080516318160ddd60e01b8152905183926001600160a01b0316916318160ddd9160048083019260209291908290030181865afa158015611299573d5f803e3d5ffd5b505050506040513d601f19601f820116820180604052508101906112bd9190613145565b9050805f036112ce575f1991505090565b806001546127106112df9190613224565b6112e9919061323b565b91505090565b5f805160206132fb833981519152611306816120ec565b61130e6125d8565b600b5415611344575f600b8190556040517f110dfb7da906b51ec01755bf5c21893865a1e16151c051dd1f0ba88f18dc49989190a15b50565b5f9182525f8051602061335b833981519152602090815260408084206001600160a01b0393909316845291905290205460ff1690565b5f8051602061331b833981519152546001600160a01b031633146113b457604051630e05f48560e11b815260040160405180910390fd5b5f81116113f35760405162461bcd60e51b815260206004820152600d60248201526c1253959053125117d312535255609a1b60448201526064016109dc565b60075460408051918252602082018390527f1f83e62151c2846f65f3849a21b21022f44fc4ac357f8a7e30d63e4c36f57fa1910160405180910390a1600755565b5f61143e816120ec565b5f8051602061337b8339815191525460ff166114895760405162461bcd60e51b815260206004820152600a6024820152691393d517d4105554d15160b21b60448201526064016109dc565b5f600b54116114cf5760405162461bcd60e51b81526020600482015260126024820152711393d7d55394105554d157d49154555154d560721b60448201526064016109dc565b62015180600b546114e09190613170565b4210156115265760405162461bcd60e51b8152602060048201526014602482015273151253515313d0d2d7d393d517d153105414d15160621b60448201526064016109dc565b5f600b55611344612634565b6002545f9061154383612710613224565b6108ec919061323b565b611555612679565b61155d6126c3565b7fe2b7fb3b832174769106daebcfd6d1970523240dda11281102db9363b83b0dc4611587816120ec565b6004548210156115d95760405162461bcd60e51b815260206004820152601760248201527f494e53554646494349454e545f5349474e41545552455300000000000000000060448201526064016109dc565b6003546115e7906001613170565b8460400135146116295760405162461bcd60e51b815260206004820152600d60248201526c494e56414c49445f4e4f4e434560981b60448201526064016109dc565b83355f908152600c602052604090205460ff161561167e5760405162461bcd60e51b81526020600482015260126024820152711055151154d510551253d397d4915554d15160721b60448201526064016109dc565b5f8460200135116116bf5760405162461bcd60e51b815260206004820152600b60248201526a5a45524f5f41535345545360a81b60448201526064016109dc565b42846060013511156117065760405162461bcd60e51b815260206004820152601060248201526f04655545552455f54494d455354414d560841b60448201526064016109dc565b603c6005546117159190613170565b846060013510156117605760405162461bcd60e51b81526020600482015260156024820152744154544553544154494f4e5f544f4f5f434c4f534560581b60448201526064016109dc565b615460611771606086013542613211565b11156117b55760405162461bcd60e51b81526020600482015260136024820152721055151154d510551253d397d513d3d7d3d311606a1b60448201526064016109dc565b6040805185356020808301919091528087013582840152868301356060808401919091528088013560808401524660a084015230901b6bffffffffffffffffffffffff191660c0830152825180830360b401815260d490920190925280519101207f19457468657265756d205369676e6564204d6573736167653a0a3332000000005f908152601c829052603c812090805b85811015611980575f6118b3888884818110611865576118656131fd565b9050602002810190611877919061325a565b8080601f0160208091040260200160405190810160405280939291908181526020018383808284375f9201919091525088939250506126f39050565b90506118df7f21702c8af46127c7fa207f89d0b0a8441bb32959a0ac7df790e9ab1a25c9892682611347565b61191f5760405162461bcd60e51b815260206004820152601160248201527024a72b20a624a22fab20a624a220aa27a960791b60448201526064016109dc565b826001600160a01b0316816001600160a01b0316116119765760405162461bcd60e51b8152602060048201526013602482015272554e534f525445445f5349474e41545552455360681b60448201526064016109dc565b9150600101611847565b5086355f908152600c60205260408120805460ff1916600117905560038054916119a98361329d565b90915550506060870135600555602087013560018190555f906119cc9082612428565b6040805160208b810135825281018390528a820135818301526060808c01359082015290519192508935917f9ba6bfccbc37e7ffaa2e0a544b51e5583affef6ab7fc5ac15e05659365977d2e9181900360800190a25050505050610a8b60017f9b779b17422d0df92223018b32b4d1fa46e071723d6817e2486d003becc55f0055565b5f8051602061331b833981519152546001600160a01b03163314611a8657604051630e05f48560e11b815260040160405180910390fd5b6001600160a01b038116611aad576040516350c0eb2960e11b815260040160405180910390fd5b5f8051602061331b83398151915280546040516001600160a01b038481169216907fae97011a27b5efe7b1d76fe38e75cc498fd64cc24e407a9c6b2185d27f611f7e905f90a380546001600160a01b0319166001600160a01b0392909216919091179055565b5f8051602061331b833981519152546001600160a01b03163314611b4a57604051630e05f48560e11b815260040160405180910390fd5b6001600160a01b038116611b925760405162461bcd60e51b815260206004820152600f60248201526e494e56414c49445f4144445245535360881b60448201526064016109dc565b5f80546001600160a01b038381166001600160a01b0319831681178455604051919092169283917f1c572079e9d71d989666f649c51257eba9db08985bf06f5803b556ca0f7be7f99190a35050565b5f611bea612741565b805490915060ff600160401b820416159067ffffffffffffffff165f81158015611c115750825b90505f8267ffffffffffffffff166001148015611c2d5750303b155b905081158015611c3b575080155b15611c595760405163f92ee8a960e01b815260040160405180910390fd5b845467ffffffffffffffff191660011785558315611c8357845460ff60401b1916600160401b1785555b611c8b612769565b611c93612769565b611c9b612771565b611ca3612769565b60028a1015611ce75760405162461bcd60e51b815260206004820152601060248201526f4d494e5f534947535f544f4f5f4c4f5760801b60448201526064016109dc565b6001600160a01b038916611d345760405162461bcd60e51b8152602060048201526014602482015273494e56414c49445f4d5553445f4144445245535360601b60448201526064016109dc565b612710881015611d805760405162461bcd60e51b81526020600482015260176024820152761490551253d7d0915313d5d7cc4c0c17d4115490d15395604a1b60448201526064016109dc565b5f8711611dc55760405162461bcd60e51b81526020600482015260136024820152721253959053125117d11052531657d312535255606a1b60448201526064016109dc565b611dce86612781565b611dd85f336120f6565b50611df05f805160206132fb833981519152336120f6565b5060048a90555f80546001600160a01b0319166001600160a01b038b161790556002889055600787905542600a558315611e6457845460ff60401b19168555604051600181527fc7f505b2f371ae2175ee4913f4499e1f2633a7b5936321eed1cdaeb6115181d29060200160405180910390a15b50505050505050505050565b5f5f8051602061331b8339815191525b546001600160a01b0316919050565b611e988261096b565b611ea1816120ec565b610a52838361219e565b5f805160206132fb833981519152611ec2816120ec565b5f848152600c602052604090205460ff1615611f0f5760405162461bcd60e51b815260206004820152600c60248201526b1053149150511657d554d15160a21b60448201526064016109dc565b81611f2c5760405162461bcd60e51b81526004016109dc90613183565b5f848152600c602052604090819020805460ff191660011790555184907f0f4c29edcea0680b5aa566b248ba9e4417994559c9b5761420403aec016371db90611f7890869086906132b5565b60405180910390a250505050565b5f600a5462015180611f989190613170565b4210611fa5575060075490565b5f60095460085411611fb7575f611fc7565b600954600854611fc79190613211565b9050600754811015611fe65780600754611fe19190613211565b6112e9565b5f91505090565b5f600a5462015180611fff9190613170565b421061200a57505f90565b6009546008541161201a57505f90565b6009546008546109669190613211565b5f805160206132fb833981519152612041816120ec565b8161205e5760405162461bcd60e51b81526004016109dc90613183565b60035484116120a55760405162461bcd60e51b81526020600482015260136024820152724e4f4e43455f4d5553545f494e43524541534560681b60448201526064016109dc565b7fcefe750ba825c7c311fce7adeecc27e12427ad470b6193edd89082fbea0ff6686003548585856040516120dc94939291906131d4565b60405180910390a1505050600355565b61134481336127ff565b5f5f8051602061335b83398151915261210f8484611347565b61218e575f848152602082815260408083206001600160a01b03871684529091529020805460ff191660011790556121443390565b6001600160a01b0316836001600160a01b0316857f2f8788117e7eff1d82e926ec794901d17c78024a50270940304540a733656f0d60405160405180910390a460019150506108ec565b5f9150506108ec565b5092915050565b5f5f8051602061335b8339815191526121b78484611347565b1561218e575f848152602082815260408083206001600160a01b0387168085529252808320805460ff1916905551339287917ff6391f5c32d9c69d2a47ea670b442974b53935d1edc7fd64eb21e047a839171b9190a460019150506108ec565b306001600160a01b037f000000000000000000000000000000000000000000000000000000000000000016148061228757507f00000000000000000000000000000000000000000000000000000000000000006001600160a01b031661227b612838565b6001600160a01b031614155b156122a55760405163703e46dd60e11b815260040160405180910390fd5b565b5f8051602061331b833981519152546001600160a01b031633146122de57604051630e05f48560e11b815260040160405180910390fd5b6001600160a01b0381166113445760405162461bcd60e51b815260206004820152600c60248201526b5a45524f5f4144445245535360a01b60448201526064016109dc565b816001600160a01b03166352d1902d6040518163ffffffff1660e01b8152600401602060405180830381865afa92505050801561237d575060408051601f3d908101601f1916820190925261237a91810190613145565b60015b6123a557604051634c9c8ce360e01b81526001600160a01b03831660048201526024016109dc565b5f8051602061333b83398151915281146123d557604051632a87526960e21b8152600481018290526024016109dc565b610a8b838361284c565b306001600160a01b037f000000000000000000000000000000000000000000000000000000000000000016146122a55760405163703e46dd60e11b815260040160405180910390fd5b6002545f9061243984612710613224565b612443919061323b565b90505f805f9054906101000a90046001600160a01b03166001600160a01b0316638f770ad06040518163ffffffff1660e01b8152600401602060405180830381865afa158015612495573d5f803e3d5ffd5b505050506040513d601f19601f820116820180604052508101906124b99190613145565b905080821461219757808211156125255782156124fd576124d86128a1565b6124e28183613211565b60085f8282546124f29190613170565b909155506125379050565b5f6125088284613211565b9050612513816128fb565b61251d9083613170565b925050612537565b6125376125328383613211565b612a0f565b5f54604051635b51facd60e11b8152600481018490526001600160a01b039091169063b6a3f59a906024015f604051808303815f87803b158015612579575f80fd5b505af115801561258b573d5f803e3d5ffd5b505060408051848152602081018690529081018790527fcaa0e97f9fe323a4de2e9d815de4f7f3c527c0c07607e968d758c30d17998a829250606001905060405180910390a15092915050565b6125e06126c3565b5f8051602061337b833981519152805460ff191660011781557f62e78cea01bee320cd4e420270b5ea74000d11b0c9f74754ebdbfc544b05a258335b6040516001600160a01b039091168152602001610a2b565b61263c612a30565b5f8051602061337b833981519152805460ff191681557f5db9ee0a495bf2e6ff9c91a7834c1ba4fdd244a5e8aa4e537bd38aeae4b073aa3361261c565b7f9b779b17422d0df92223018b32b4d1fa46e071723d6817e2486d003becc55f008054600119016126bd57604051633ee5aeb560e01b815260040160405180910390fd5b60029055565b5f8051602061337b8339815191525460ff16156122a55760405163d93c066560e01b815260040160405180910390fd5b5f805f806127018686612a5f565b9250925092506127118282612aa8565b5090949350505050565b60017f9b779b17422d0df92223018b32b4d1fa46e071723d6817e2486d003becc55f0055565b5f807ff0c57e16840df040f15088dc2f81fe391c3923bec73e23a9662efc9c229c6a006108ec565b6122a5612b60565b612779612b60565b6122a5612b85565b6001600160a01b0381166127a8576040516350c0eb2960e11b815260040160405180910390fd5b5f8051602061331b83398151915280546001600160a01b0319166001600160a01b03831690811782556040515f907fae97011a27b5efe7b1d76fe38e75cc498fd64cc24e407a9c6b2185d27f611f7e908290a35050565b6128098282611347565b610d675760405163e2517d3f60e01b81526001600160a01b0382166004820152602481018390526044016109dc565b5f5f8051602061333b833981519152611e80565b61285582612b8d565b6040516001600160a01b038316907fbc7cd75a20ee27fd9adebab32041f755214dbc6bffa90cc0225b39da2e5c2d3b905f90a280511561289957610a8b8282612bf0565b610d67612c62565b600a546128b19062015180613170565b42106122a5575f600881905560095542600a8190556040519081527feb8851ffe677ee59cfd62362b04c2d5bd85d047caeb4426256021c22e58616949060200160405180910390a1565b5f6129046128a1565b5f60095460085411612916575f612926565b6009546008546129269190613211565b90505f8160075411612938575f612946565b816007546129469190613211565b90505f81116129975760405162461bcd60e51b815260206004820152601960248201527f4441494c595f4341505f4c494d49545f4558484155535445440000000000000060448201526064016109dc565b8084116129a457836129a6565b805b92508260085f8282546129b99190613170565b909155505083831015612a085760408051858152602081018590529081018290527ffd6ec57e8bac6ad5c7a061343d370b927217dd6cd0e06f035d9084e04d3118439060600160405180910390a15b5050919050565b612a176128a1565b8060095f828254612a289190613170565b909155505050565b5f8051602061337b8339815191525460ff166122a557604051638dfc202b60e01b815260040160405180910390fd5b5f805f8351604103612a96576020840151604085015160608601515f1a612a8888828585612c81565b955095509550505050612aa1565b505081515f91506002905b9250925092565b5f826003811115612abb57612abb6132d0565b03612ac4575050565b6001826003811115612ad857612ad86132d0565b03612af65760405163f645eedf60e01b815260040160405180910390fd5b6002826003811115612b0a57612b0a6132d0565b03612b2b5760405163fce698f760e01b8152600481018290526024016109dc565b6003826003811115612b3f57612b3f6132d0565b03610d67576040516335e2f38360e21b8152600481018290526024016109dc565b612b68612d49565b6122a557604051631afcd79f60e31b815260040160405180910390fd5b61271b612b60565b806001600160a01b03163b5f03612bc257604051634c9c8ce360e01b81526001600160a01b03821660048201526024016109dc565b5f8051602061333b83398151915280546001600160a01b0319166001600160a01b0392909216919091179055565b60605f80846001600160a01b031684604051612c0c91906132e4565b5f60405180830381855af49150503d805f8114612c44576040519150601f19603f3d011682016040523d82523d5f602084013e612c49565b606091505b5091509150612c59858383612d62565b95945050505050565b34156122a55760405163b398979f60e01b815260040160405180910390fd5b5f80807f7fffffffffffffffffffffffffffffff5d576e7357a4501ddfe92f46681b20a0841115612cba57505f91506003905082612d3f565b604080515f808252602082018084528a905260ff891692820192909252606081018790526080810186905260019060a0016020604051602081039080840390855afa158015612d0b573d5f803e3d5ffd5b5050604051601f1901519150506001600160a01b038116612d3657505f925060019150829050612d3f565b92505f91508190505b9450945094915050565b5f612d52612741565b54600160401b900460ff16919050565b606082612d7757612d7282612dc1565b612dba565b8151158015612d8e57506001600160a01b0384163b155b15612db757604051639996b31560e01b81526001600160a01b03851660048201526024016109dc565b50805b9392505050565b805115612dd057805160208201fd5b60405163d6bda27560e01b815260040160405180910390fd5b5f60208284031215612df9575f80fd5b81356001600160e01b031981168114612dba575f80fd5b5f60208284031215612e20575f80fd5b5035919050565b80356001600160a01b0381168114612e3d575f80fd5b919050565b5f8060408385031215612e53575f80fd5b82359150612e6360208401612e27565b90509250929050565b5f8083601f840112612e7c575f80fd5b50813567ffffffffffffffff811115612e93575f80fd5b602083019150836020828501011115612eaa575f80fd5b9250929050565b5f805f60408486031215612ec3575f80fd5b83359250602084013567ffffffffffffffff811115612ee0575f80fd5b612eec86828701612e6c565b9497909650939450505050565b634e487b7160e01b5f52604160045260245ffd5b5f8060408385031215612f1e575f80fd5b612f2783612e27565b9150602083013567ffffffffffffffff811115612f42575f80fd5b8301601f81018513612f52575f80fd5b803567ffffffffffffffff811115612f6c57612f6c612ef9565b604051601f8201601f19908116603f0116810167ffffffffffffffff81118282101715612f9b57612f9b612ef9565b604052818152828201602001871015612fb2575f80fd5b816020840160208301375f602083830101528093505050509250929050565b5f8083601f840112612fe1575f80fd5b50813567ffffffffffffffff811115612ff8575f80fd5b6020830191508360208260051b8501011115612eaa575f80fd5b5f805f60408486031215613024575f80fd5b833567ffffffffffffffff81111561303a575f80fd5b61304686828701612fd1565b9094509250613059905060208501612e27565b90509250925092565b602081525f82518060208401528060208501604085015e5f604082850101526040601f19601f83011684010191505092915050565b5f805f83850360a08112156130aa575f80fd5b60808112156130b7575f80fd5b50839250608084013567ffffffffffffffff8111156130d4575f80fd5b612eec86828701612fd1565b5f602082840312156130f0575f80fd5b612dba82612e27565b5f805f805f60a0868803121561310d575f80fd5b8535945061311d60208701612e27565b9350604086013592506060860135915061313960808701612e27565b90509295509295909350565b5f60208284031215613155575f80fd5b5051919050565b634e487b7160e01b5f52601160045260245ffd5b808201808211156108ec576108ec61315c565b6020808252600f908201526e14915054d3d397d491545552549151608a1b604082015260600190565b81835281816020850137505f828201602090810191909152601f909101601f19169091010190565b848152836020820152606060408201525f6131f36060830184866131ac565b9695505050505050565b634e487b7160e01b5f52603260045260245ffd5b818103818111156108ec576108ec61315c565b80820281158282048414176108ec576108ec61315c565b5f8261325557634e487b7160e01b5f52601260045260245ffd5b500490565b5f808335601e1984360301811261326f575f80fd5b83018035915067ffffffffffffffff821115613289575f80fd5b602001915036819003821315612eaa575f80fd5b5f600182016132ae576132ae61315c565b5060010190565b602081525f6132c86020830184866131ac565b949350505050565b634e487b7160e01b5f52602160045260245ffd5b5f82518060208501845e5f92019182525091905056febf233dd2aafeb4d50879c4aa5c81e96d92f6e6945c906a58f9f2d1c1631b4b2696ec2584f13cbcbf2926bb7c7d24b036ddd15a8842ae5726c96f4a4a3e97cc00360894a13ba1a3210667c828492db98dca3e2076cc3735a920a3ca505d382bbc02dd7bc7dec4dceedda775e58dd541e08a116c6c53815c0bd028192f7b626800cd5ed15c6e187e77e9aee88184c21f4f2182ab5827cb3b7e07fbedcd63f03300a26469706673582212201d21b554033113211347d37d2f6c33313e12b1b507242475d64694511326cab364736f6c634300081a0033","linkReferences":{}},"methodIdentifiers":{"DEFAULT_ADMIN_ROLE()":"a217fddf","EMERGENCY_ROLE()":"20df4359","MAX_ATTESTATION_AGE()":"b9f7bb8d","MIN_ATTESTATION_GAP()":"196143d0","RELAYER_ROLE()":"926d7d7f","UNPAUSE_DELAY()":"b7c36b36","UPGRADE_INTERFACE_VERSION()":"ad3cb1cc","VALIDATOR_ROLE()":"c49baebe","attestedCantonAssets()":"39cd92f7","calculateSupplyCap(uint256)":"b43ccab6","collateralRatioBps()":"593855a0","currentNonce()":"adb610a3","dailyCapDecreased()":"27413d90","dailyCapIncreaseLimit()":"2d44d1ea","dailyCapIncreased()":"f86dd9dc","emergencyReduceCap(uint256,string)":"3a08af6d","executeUnpause()":"9bdfce98","forceUpdateNonce(uint256,string)":"efb59e9e","getCurrentSupplyCap()":"046e8b47","getHealthRatio()":"7914334f","getNetDailyCapIncrease()":"ecdff91a","getRemainingDailyCapLimit()":"ddd3b81d","getRemainingMintable()":"6f97e31c","getRoleAdmin(bytes32)":"248a9ca3","grantRole(bytes32,address)":"2f2ff15d","hasRole(bytes32,address)":"91d14854","initialize(uint256,address,uint256,uint256,address)":"cd3d8687","invalidateAttestationId(bytes32,string)":"dd344ba1","lastAttestationTime()":"4b8fd35c","lastRateLimitReset()":"6629a2d6","lastRatioChangeTime()":"3eaa2a8b","migrateUsedAttestations(bytes32[],address)":"57575a26","minSignatures()":"238acaa2","musdToken()":"9d78d46b","pause()":"8456cb59","paused()":"5c975abb","processAttestation((bytes32,uint256,uint256,uint256),bytes[])":"bca8c7eb","proxiableUUID()":"52d1902d","renounceRole(bytes32,address)":"36568abe","requestUnpause()":"24fe722e","revokeRole(bytes32,address)":"d547741f","setCollateralRatio(uint256)":"6060663e","setDailyCapIncreaseLimit(uint256)":"9b7bff4a","setMUSDToken(address)":"c8be18b6","setMinSignatures(uint256)":"5a546098","setTimelock(address)":"bdacb303","supportsInterface(bytes4)":"01ffc9a7","timelock()":"d33219b4","unpause()":"3f4ba83a","unpauseRequestTime()":"f21d64a6","upgradeToAndCall(address,bytes)":"4f1ef286","usedAttestationIds(bytes32)":"b9cbb07d"},"id":0}