{"abi":[{"type":"constructor","inputs":[],"stateMutability":"nonpayable"},{"type":"function","name":"DEFAULT_ADMIN_ROLE","inputs":[],"outputs":[{"name":"","type":"bytes32","internalType":"bytes32"}],"stateMutability":"view"},{"type":"function","name":"EMERGENCY_ROLE","inputs":[],"outputs":[{"name":"","type":"bytes32","internalType":"bytes32"}],"stateMutability":"view"},{"type":"function","name":"MAX_ATTESTATION_AGE","inputs":[],"outputs":[{"name":"","type":"uint256","internalType":"uint256"}],"stateMutability":"view"},{"type":"function","name":"MIN_ATTESTATION_GAP","inputs":[],"outputs":[{"name":"","type":"uint256","internalType":"uint256"}],"stateMutability":"view"},{"type":"function","name":"RELAYER_ROLE","inputs":[],"outputs":[{"name":"","type":"bytes32","internalType":"bytes32"}],"stateMutability":"view"},{"type":"function","name":"UNPAUSE_DELAY","inputs":[],"outputs":[{"name":"","type":"uint256","internalType":"uint256"}],"stateMutability":"view"},{"type":"function","name":"UPGRADE_DELAY","inputs":[],"outputs":[{"name":"","type":"uint256","internalType":"uint256"}],"stateMutability":"view"},{"type":"function","name":"UPGRADE_INTERFACE_VERSION","inputs":[],"outputs":[{"name":"","type":"string","internalType":"string"}],"stateMutability":"view"},{"type":"function","name":"VALIDATOR_ROLE","inputs":[],"outputs":[{"name":"","type":"bytes32","internalType":"bytes32"}],"stateMutability":"view"},{"type":"function","name":"attestedCantonAssets","inputs":[],"outputs":[{"name":"","type":"uint256","internalType":"uint256"}],"stateMutability":"view"},{"type":"function","name":"calculateSupplyCap","inputs":[{"name":"_assets","type":"uint256","internalType":"uint256"}],"outputs":[{"name":"","type":"uint256","internalType":"uint256"}],"stateMutability":"view"},{"type":"function","name":"cancelSetMUSDToken","inputs":[],"outputs":[],"stateMutability":"nonpayable"},{"type":"function","name":"cancelUpgrade","inputs":[],"outputs":[],"stateMutability":"nonpayable"},{"type":"function","name":"collateralRatioBps","inputs":[],"outputs":[{"name":"","type":"uint256","internalType":"uint256"}],"stateMutability":"view"},{"type":"function","name":"currentNonce","inputs":[],"outputs":[{"name":"","type":"uint256","internalType":"uint256"}],"stateMutability":"view"},{"type":"function","name":"dailyCapDecreased","inputs":[],"outputs":[{"name":"","type":"uint256","internalType":"uint256"}],"stateMutability":"view"},{"type":"function","name":"dailyCapIncreaseLimit","inputs":[],"outputs":[{"name":"","type":"uint256","internalType":"uint256"}],"stateMutability":"view"},{"type":"function","name":"dailyCapIncreased","inputs":[],"outputs":[{"name":"","type":"uint256","internalType":"uint256"}],"stateMutability":"view"},{"type":"function","name":"emergencyReduceCap","inputs":[{"name":"_newCap","type":"uint256","internalType":"uint256"},{"name":"_reason","type":"string","internalType":"string"}],"outputs":[],"stateMutability":"nonpayable"},{"type":"function","name":"executeSetMUSDToken","inputs":[],"outputs":[],"stateMutability":"nonpayable"},{"type":"function","name":"executeUnpause","inputs":[],"outputs":[],"stateMutability":"nonpayable"},{"type":"function","name":"forceUpdateNonce","inputs":[{"name":"_newNonce","type":"uint256","internalType":"uint256"},{"name":"_reason","type":"string","internalType":"string"}],"outputs":[],"stateMutability":"nonpayable"},{"type":"function","name":"getCurrentSupplyCap","inputs":[],"outputs":[{"name":"","type":"uint256","internalType":"uint256"}],"stateMutability":"view"},{"type":"function","name":"getHealthRatio","inputs":[],"outputs":[{"name":"ratioBps","type":"uint256","internalType":"uint256"}],"stateMutability":"view"},{"type":"function","name":"getNetDailyCapIncrease","inputs":[],"outputs":[{"name":"","type":"uint256","internalType":"uint256"}],"stateMutability":"view"},{"type":"function","name":"getRemainingDailyCapLimit","inputs":[],"outputs":[{"name":"","type":"uint256","internalType":"uint256"}],"stateMutability":"view"},{"type":"function","name":"getRemainingMintable","inputs":[],"outputs":[{"name":"","type":"uint256","internalType":"uint256"}],"stateMutability":"view"},{"type":"function","name":"getRoleAdmin","inputs":[{"name":"role","type":"bytes32","internalType":"bytes32"}],"outputs":[{"name":"","type":"bytes32","internalType":"bytes32"}],"stateMutability":"view"},{"type":"function","name":"grantRole","inputs":[{"name":"role","type":"bytes32","internalType":"bytes32"},{"name":"account","type":"address","internalType":"address"}],"outputs":[],"stateMutability":"nonpayable"},{"type":"function","name":"hasRole","inputs":[{"name":"role","type":"bytes32","internalType":"bytes32"},{"name":"account","type":"address","internalType":"address"}],"outputs":[{"name":"","type":"bool","internalType":"bool"}],"stateMutability":"view"},{"type":"function","name":"initialize","inputs":[{"name":"_minSigs","type":"uint256","internalType":"uint256"},{"name":"_musdToken","type":"address","internalType":"address"},{"name":"_collateralRatioBps","type":"uint256","internalType":"uint256"},{"name":"_dailyCapIncreaseLimit","type":"uint256","internalType":"uint256"}],"outputs":[],"stateMutability":"nonpayable"},{"type":"function","name":"invalidateAttestationId","inputs":[{"name":"_attestationId","type":"bytes32","internalType":"bytes32"},{"name":"_reason","type":"string","internalType":"string"}],"outputs":[],"stateMutability":"nonpayable"},{"type":"function","name":"lastAttestationTime","inputs":[],"outputs":[{"name":"","type":"uint256","internalType":"uint256"}],"stateMutability":"view"},{"type":"function","name":"lastRateLimitReset","inputs":[],"outputs":[{"name":"","type":"uint256","internalType":"uint256"}],"stateMutability":"view"},{"type":"function","name":"lastRatioChangeTime","inputs":[],"outputs":[{"name":"","type":"uint256","internalType":"uint256"}],"stateMutability":"view"},{"type":"function","name":"migrateUsedAttestations","inputs":[{"name":"attestationIds","type":"bytes32[]","internalType":"bytes32[]"},{"name":"previousBridge","type":"address","internalType":"address"}],"outputs":[],"stateMutability":"nonpayable"},{"type":"function","name":"minSignatures","inputs":[],"outputs":[{"name":"","type":"uint256","internalType":"uint256"}],"stateMutability":"view"},{"type":"function","name":"musdToken","inputs":[],"outputs":[{"name":"","type":"address","internalType":"contract IMUSD"}],"stateMutability":"view"},{"type":"function","name":"musdTokenChangeRequestTime","inputs":[],"outputs":[{"name":"","type":"uint256","internalType":"uint256"}],"stateMutability":"view"},{"type":"function","name":"pause","inputs":[],"outputs":[],"stateMutability":"nonpayable"},{"type":"function","name":"paused","inputs":[],"outputs":[{"name":"","type":"bool","internalType":"bool"}],"stateMutability":"view"},{"type":"function","name":"pendingImplementation","inputs":[],"outputs":[{"name":"","type":"address","internalType":"address"}],"stateMutability":"view"},{"type":"function","name":"pendingMUSDToken","inputs":[],"outputs":[{"name":"","type":"address","internalType":"address"}],"stateMutability":"view"},{"type":"function","name":"processAttestation","inputs":[{"name":"att","type":"tuple","internalType":"struct BLEBridgeV9.Attestation","components":[{"name":"id","type":"bytes32","internalType":"bytes32"},{"name":"cantonAssets","type":"uint256","internalType":"uint256"},{"name":"nonce","type":"uint256","internalType":"uint256"},{"name":"timestamp","type":"uint256","internalType":"uint256"}]},{"name":"signatures","type":"bytes[]","internalType":"bytes[]"}],"outputs":[],"stateMutability":"nonpayable"},{"type":"function","name":"proxiableUUID","inputs":[],"outputs":[{"name":"","type":"bytes32","internalType":"bytes32"}],"stateMutability":"view"},{"type":"function","name":"renounceRole","inputs":[{"name":"role","type":"bytes32","internalType":"bytes32"},{"name":"callerConfirmation","type":"address","internalType":"address"}],"outputs":[],"stateMutability":"nonpayable"},{"type":"function","name":"requestSetMUSDToken","inputs":[{"name":"_musdToken","type":"address","internalType":"address"}],"outputs":[],"stateMutability":"nonpayable"},{"type":"function","name":"requestUnpause","inputs":[],"outputs":[],"stateMutability":"nonpayable"},{"type":"function","name":"requestUpgrade","inputs":[{"name":"newImplementation","type":"address","internalType":"address"}],"outputs":[],"stateMutability":"nonpayable"},{"type":"function","name":"revokeRole","inputs":[{"name":"role","type":"bytes32","internalType":"bytes32"},{"name":"account","type":"address","internalType":"address"}],"outputs":[],"stateMutability":"nonpayable"},{"type":"function","name":"setCollateralRatio","inputs":[{"name":"_ratioBps","type":"uint256","internalType":"uint256"}],"outputs":[],"stateMutability":"nonpayable"},{"type":"function","name":"setDailyCapIncreaseLimit","inputs":[{"name":"_limit","type":"uint256","internalType":"uint256"}],"outputs":[],"stateMutability":"nonpayable"},{"type":"function","name":"setMinSignatures","inputs":[{"name":"_minSigs","type":"uint256","internalType":"uint256"}],"outputs":[],"stateMutability":"nonpayable"},{"type":"function","name":"supportsInterface","inputs":[{"name":"interfaceId","type":"bytes4","internalType":"bytes4"}],"outputs":[{"name":"","type":"bool","internalType":"bool"}],"stateMutability":"view"},{"type":"function","name":"unpause","inputs":[],"outputs":[],"stateMutability":"view"},{"type":"function","name":"unpauseRequestTime","inputs":[],"outputs":[{"name":"","type":"uint256","internalType":"uint256"}],"stateMutability":"view"},{"type":"function","name":"upgradeRequestTime","inputs":[],"outputs":[{"name":"","type":"uint256","internalType":"uint256"}],"stateMutability":"view"},{"type":"function","name":"upgradeToAndCall","inputs":[{"name":"newImplementation","type":"address","internalType":"address"},{"name":"data","type":"bytes","internalType":"bytes"}],"outputs":[],"stateMutability":"payable"},{"type":"function","name":"usedAttestationIds","inputs":[{"name":"","type":"bytes32","internalType":"bytes32"}],"outputs":[{"name":"","type":"bool","internalType":"bool"}],"stateMutability":"view"},{"type":"event","name":"AttestationInvalidated","inputs":[{"name":"attestationId","type":"bytes32","indexed":true,"internalType":"bytes32"},{"name":"reason","type":"string","indexed":false,"internalType":"string"}],"anonymous":false},{"type":"event","name":"AttestationReceived","inputs":[{"name":"id","type":"bytes32","indexed":true,"internalType":"bytes32"},{"name":"cantonAssets","type":"uint256","indexed":false,"internalType":"uint256"},{"name":"newSupplyCap","type":"uint256","indexed":false,"internalType":"uint256"},{"name":"nonce","type":"uint256","indexed":false,"internalType":"uint256"},{"name":"timestamp","type":"uint256","indexed":false,"internalType":"uint256"}],"anonymous":false},{"type":"event","name":"AttestationsMigrated","inputs":[{"name":"count","type":"uint256","indexed":false,"internalType":"uint256"},{"name":"fromBridge","type":"address","indexed":true,"internalType":"address"}],"anonymous":false},{"type":"event","name":"CollateralRatioUpdated","inputs":[{"name":"oldRatio","type":"uint256","indexed":false,"internalType":"uint256"},{"name":"newRatio","type":"uint256","indexed":false,"internalType":"uint256"}],"anonymous":false},{"type":"event","name":"DailyCapIncreaseLimitUpdated","inputs":[{"name":"oldLimit","type":"uint256","indexed":false,"internalType":"uint256"},{"name":"newLimit","type":"uint256","indexed":false,"internalType":"uint256"}],"anonymous":false},{"type":"event","name":"EmergencyCapReduction","inputs":[{"name":"oldCap","type":"uint256","indexed":false,"internalType":"uint256"},{"name":"newCap","type":"uint256","indexed":false,"internalType":"uint256"},{"name":"reason","type":"string","indexed":false,"internalType":"string"}],"anonymous":false},{"type":"event","name":"Initialized","inputs":[{"name":"version","type":"uint64","indexed":false,"internalType":"uint64"}],"anonymous":false},{"type":"event","name":"MUSDTokenChangeCancelled","inputs":[{"name":"cancelledToken","type":"address","indexed":true,"internalType":"address"}],"anonymous":false},{"type":"event","name":"MUSDTokenChangeRequested","inputs":[{"name":"newToken","type":"address","indexed":true,"internalType":"address"},{"name":"executeAfter","type":"uint256","indexed":false,"internalType":"uint256"}],"anonymous":false},{"type":"event","name":"MUSDTokenUpdated","inputs":[{"name":"oldToken","type":"address","indexed":true,"internalType":"address"},{"name":"newToken","type":"address","indexed":true,"internalType":"address"}],"anonymous":false},{"type":"event","name":"MinSignaturesUpdated","inputs":[{"name":"oldMinSigs","type":"uint256","indexed":false,"internalType":"uint256"},{"name":"newMinSigs","type":"uint256","indexed":false,"internalType":"uint256"}],"anonymous":false},{"type":"event","name":"NonceForceUpdated","inputs":[{"name":"oldNonce","type":"uint256","indexed":false,"internalType":"uint256"},{"name":"newNonce","type":"uint256","indexed":false,"internalType":"uint256"},{"name":"reason","type":"string","indexed":false,"internalType":"string"}],"anonymous":false},{"type":"event","name":"Paused","inputs":[{"name":"account","type":"address","indexed":false,"internalType":"address"}],"anonymous":false},{"type":"event","name":"RateLimitReset","inputs":[{"name":"timestamp","type":"uint256","indexed":false,"internalType":"uint256"}],"anonymous":false},{"type":"event","name":"RateLimitedCapIncrease","inputs":[{"name":"requestedIncrease","type":"uint256","indexed":false,"internalType":"uint256"},{"name":"allowedIncrease","type":"uint256","indexed":false,"internalType":"uint256"},{"name":"remainingLimit","type":"uint256","indexed":false,"internalType":"uint256"}],"anonymous":false},{"type":"event","name":"RoleAdminChanged","inputs":[{"name":"role","type":"bytes32","indexed":true,"internalType":"bytes32"},{"name":"previousAdminRole","type":"bytes32","indexed":true,"internalType":"bytes32"},{"name":"newAdminRole","type":"bytes32","indexed":true,"internalType":"bytes32"}],"anonymous":false},{"type":"event","name":"RoleGranted","inputs":[{"name":"role","type":"bytes32","indexed":true,"internalType":"bytes32"},{"name":"account","type":"address","indexed":true,"internalType":"address"},{"name":"sender","type":"address","indexed":true,"internalType":"address"}],"anonymous":false},{"type":"event","name":"RoleRevoked","inputs":[{"name":"role","type":"bytes32","indexed":true,"internalType":"bytes32"},{"name":"account","type":"address","indexed":true,"internalType":"address"},{"name":"sender","type":"address","indexed":true,"internalType":"address"}],"anonymous":false},{"type":"event","name":"SupplyCapUpdated","inputs":[{"name":"oldCap","type":"uint256","indexed":false,"internalType":"uint256"},{"name":"newCap","type":"uint256","indexed":false,"internalType":"uint256"},{"name":"attestedAssets","type":"uint256","indexed":false,"internalType":"uint256"}],"anonymous":false},{"type":"event","name":"UnpauseCancelled","inputs":[],"anonymous":false},{"type":"event","name":"UnpauseRequested","inputs":[{"name":"requestTime","type":"uint256","indexed":false,"internalType":"uint256"},{"name":"executeAfter","type":"uint256","indexed":false,"internalType":"uint256"}],"anonymous":false},{"type":"event","name":"Unpaused","inputs":[{"name":"account","type":"address","indexed":false,"internalType":"address"}],"anonymous":false},{"type":"event","name":"UpgradeCancelled","inputs":[{"name":"cancelledImplementation","type":"address","indexed":true,"internalType":"address"}],"anonymous":false},{"type":"event","name":"UpgradeRequested","inputs":[{"name":"newImplementation","type":"address","indexed":true,"internalType":"address"},{"name":"executeAfter","type":"uint256","indexed":false,"internalType":"uint256"}],"anonymous":false},{"type":"event","name":"Upgraded","inputs":[{"name":"implementation","type":"address","indexed":true,"internalType":"address"}],"anonymous":false},{"type":"error","name":"AccessControlBadConfirmation","inputs":[]},{"type":"error","name":"AccessControlUnauthorizedAccount","inputs":[{"name":"account","type":"address","internalType":"address"},{"name":"neededRole","type":"bytes32","internalType":"bytes32"}]},{"type":"error","name":"AddressEmptyCode","inputs":[{"name":"target","type":"address","internalType":"address"}]},{"type":"error","name":"ECDSAInvalidSignature","inputs":[]},{"type":"error","name":"ECDSAInvalidSignatureLength","inputs":[{"name":"length","type":"uint256","internalType":"uint256"}]},{"type":"error","name":"ECDSAInvalidSignatureS","inputs":[{"name":"s","type":"bytes32","internalType":"bytes32"}]},{"type":"error","name":"ERC1967InvalidImplementation","inputs":[{"name":"implementation","type":"address","internalType":"address"}]},{"type":"error","name":"ERC1967NonPayable","inputs":[]},{"type":"error","name":"EnforcedPause","inputs":[]},{"type":"error","name":"ExpectedPause","inputs":[]},{"type":"error","name":"FailedCall","inputs":[]},{"type":"error","name":"InvalidInitialization","inputs":[]},{"type":"error","name":"NotInitializing","inputs":[]},{"type":"error","name":"ReentrancyGuardReentrantCall","inputs":[]},{"type":"error","name":"UUPSUnauthorizedCallContext","inputs":[]},{"type":"error","name":"UUPSUnsupportedProxiableUUID","inputs":[{"name":"slot","type":"bytes32","internalType":"bytes32"}]}],"bytecode":{"object":"0x60a060405230608052348015610013575f80fd5b5061001c610021565b6100d3565b7ff0c57e16840df040f15088dc2f81fe391c3923bec73e23a9662efc9c229c6a00805468010000000000000000900460ff16156100715760405163f92ee8a960e01b815260040160405180910390fd5b80546001600160401b03908116146100d05780546001600160401b0319166001600160401b0390811782556040519081527fc7f505b2f371ae2175ee4913f4499e1f2633a7b5936321eed1cdaeb6115181d29060200160405180910390a15b50565b6080516135f96100f95f395f81816124a0015281816124c901526126d901526135f95ff3fe60806040526004361061037c575f3560e01c80636b7b9864116101d3578063adb610a3116100fd578063c49baebe1161009d578063ecdff91a1161006d578063ecdff91a1461098e578063efb59e9e146109a2578063f21d64a6146109c1578063f86dd9dc146109d6575f80fd5b8063c49baebe14610909578063d547741f1461093c578063dd344ba11461095b578063ddd3b81d1461097a575f80fd5b8063b7c36b36116100d8578063b7c36b3614610891578063b9cbb07d146108a7578063b9f7bb8d146108d5578063bca8c7eb146108ea575f80fd5b8063adb610a31461083e578063ae4a452514610853578063b43ccab614610872575f80fd5b806391d14854116101735780639d78d46b116101435780639d78d46b146107bb578063a217fddf146107d9578063ac9e42c1146107ec578063ad3cb1cc14610801575f80fd5b806391d1485414610736578063926d7d7f146107555780639b7bff4a146107885780639bdfce98146107a7575f80fd5b80636f97e31c116101ae5780636f97e31c146106e55780637914334f146106f95780638456cb591461070d57806390235ac914610721575f80fd5b80636b7b9864146106935780636b9f97ef146106a75780636c6e663e146106c6575f80fd5b806339cd92f7116102b457806352d1902d116102545780635a546098116102245780635a5460981461061d5780635c975abb1461063c5780636060663e1461065f5780636629a2d61461067e575f80fd5b806352d1902d146105c157806355f29166146105d557806357575a26146105e9578063593855a014610608575f80fd5b80633f4ba83a1161028f5780633f4ba83a1461056f57806347fe8b1d146105835780634b8fd35c146105995780634f1ef286146105ae575f80fd5b806339cd92f7146105265780633a08af6d1461053b5780633eaa2a8b1461055a575f80fd5b806324fe722e1161031f5780632f2ff15d116102fa5780632f2ff15d14610492578063351b6514146104b157806336568abe146104d0578063396f7b23146104ef575f80fd5b806324fe722e1461045457806327413d90146104685780632d44d1ea1461047d575f80fd5b8063196143d01161035a578063196143d0146103ec57806320df435914610400578063238acaa214610420578063248a9ca314610435575f80fd5b806301ffc9a714610380578063046e8b47146103b457806313ce742c146103d6575b5f80fd5b34801561038b575f80fd5b5061039f61039a366004613046565b6109eb565b60405190151581526020015b60405180910390f35b3480156103bf575f80fd5b506103c8610a21565b6040519081526020016103ab565b3480156103e1575f80fd5b506103ea610a9a565b005b3480156103f7575f80fd5b506103c8603c81565b34801561040b575f80fd5b506103c85f8051602061354483398151915281565b34801561042b575f80fd5b506103c860045481565b348015610440575f80fd5b506103c861044f36600461306d565b610af4565b34801561045f575f80fd5b506103ea610b14565b348015610473575f80fd5b506103c860095481565b348015610488575f80fd5b506103c860075481565b34801561049d575f80fd5b506103ea6104ac36600461309f565b610bbf565b3480156104bc575f80fd5b506103ea6104cb3660046130c9565b610be1565b3480156104db575f80fd5b506103ea6104ea36600461309f565b610cee565b3480156104fa575f80fd5b50600f5461050e906001600160a01b031681565b6040516001600160a01b0390911681526020016103ab565b348015610531575f80fd5b506103c860015481565b348015610546575f80fd5b506103ea610555366004613127565b610d26565b348015610565575f80fd5b506103c860065481565b34801561057a575f80fd5b506103ea610f82565b34801561058e575f80fd5b506103c86202a30081565b3480156105a4575f80fd5b506103c860055481565b6103ea6105bc366004613183565b610fe2565b3480156105cc575f80fd5b506103c8611001565b3480156105e0575f80fd5b506103ea61101c565b3480156105f4575f80fd5b506103ea610603366004613288565b611076565b348015610613575f80fd5b506103c860025481565b348015610628575f80fd5b506103ea61063736600461306d565b61116c565b348015610647575f80fd5b505f805160206135a48339815191525460ff1661039f565b34801561066a575f80fd5b506103ea61067936600461306d565b611241565b348015610689575f80fd5b506103c8600a5481565b34801561069e575f80fd5b506103ea6113be565b3480156106b2575f80fd5b506103ea6106c13660046130c9565b6114c8565b3480156106d1575f80fd5b50600d5461050e906001600160a01b031681565b3480156106f0575f80fd5b506103c86115c4565b348015610704575f80fd5b506103c86116c5565b348015610718575f80fd5b506103ea611762565b34801561072c575f80fd5b506103c8600e5481565b348015610741575f80fd5b5061039f61075036600461309f565b6117ba565b348015610760575f80fd5b506103c87fe2b7fb3b832174769106daebcfd6d1970523240dda11281102db9363b83b0dc481565b348015610793575f80fd5b506103ea6107a236600461306d565b6117f0565b3480156107b2575f80fd5b506103ea61187b565b3480156107c6575f80fd5b505f5461050e906001600160a01b031681565b3480156107e4575f80fd5b506103c85f81565b3480156107f7575f80fd5b506103c860105481565b34801561080c575f80fd5b50610831604051806040016040528060058152602001640352e302e360dc1b81525081565b6040516103ab91906132d8565b348015610849575f80fd5b506103c860035481565b34801561085e575f80fd5b506103ea61086d36600461330d565b611979565b34801561087d575f80fd5b506103c861088c36600461306d565b611bfe565b34801561089c575f80fd5b506103c86201518081565b3480156108b2575f80fd5b5061039f6108c136600461306d565b600c6020525f908152604090205460ff1681565b3480156108e0575f80fd5b506103c861546081565b3480156108f5575f80fd5b506103ea610904366004613345565b611c19565b348015610914575f80fd5b506103c87f21702c8af46127c7fa207f89d0b0a8441bb32959a0ac7df790e9ab1a25c9892681565b348015610947575f80fd5b506103ea61095636600461309f565b61211b565b348015610966575f80fd5b506103ea610975366004613127565b612137565b348015610985575f80fd5b506103c8612204565b348015610999575f80fd5b506103c861226b565b3480156109ad575f80fd5b506103ea6109bc366004613127565b6122a8565b3480156109cc575f80fd5b506103c8600b5481565b3480156109e1575f80fd5b506103c860085481565b5f6001600160e01b03198216637965db0b60e01b1480610a1b57506301ffc9a760e01b6001600160e01b03198316145b92915050565b5f805f9054906101000a90046001600160a01b03166001600160a01b0316638f770ad06040518163ffffffff1660e01b8152600401602060405180830381865afa158015610a71573d5f803e3d5ffd5b505050506040513d601f19601f82011682018060405250810190610a95919061338e565b905090565b5f610aa48161236a565b600d80546001600160a01b031981169091555f600e8190556040516001600160a01b039092169182917f0dfb0eb37394c5532e49f68a865e407f7f808cc06df77f38334a1fdee6b4187291a25050565b5f9081525f80516020613584833981519152602052604090206001015490565b5f610b1e8161236a565b5f805160206135a48339815191525460ff16610b6e5760405162461bcd60e51b815260206004820152600a6024820152691393d517d4105554d15160b21b60448201526064015b60405180910390fd5b42600b8190557f5e873705f3fc98998a135c06b05718cc58f60099dc572cbd1954fa4d15a228c790610ba362015180826133b9565b604080519283526020830191909152015b60405180910390a150565b610bc882610af4565b610bd18161236a565b610bdb8383612374565b50505050565b5f610beb8161236a565b6001600160a01b038216610c335760405162461bcd60e51b815260206004820152600f60248201526e494e56414c49445f4144445245535360881b6044820152606401610b65565b600d546001600160a01b031615610c855760405162461bcd60e51b81526020600482015260166024820152754348414e47455f414c52454144595f50454e44494e4760501b6044820152606401610b65565b600d80546001600160a01b0319166001600160a01b03841690811790915542600e8190557f50775af95abef0bfdbd6ec99010ceed6602b827f9a617bb737ea461297f40c0390610cd9906202a300906133b9565b60405190815260200160405180910390a25050565b6001600160a01b0381163314610d175760405163334bd91960e11b815260040160405180910390fd5b610d21828261241c565b505050565b5f80516020613544833981519152610d3d8161236a565b81610d5a5760405162461bcd60e51b8152600401610b65906133cc565b5f805f9054906101000a90046001600160a01b03166001600160a01b0316638f770ad06040518163ffffffff1660e01b8152600401602060405180830381865afa158015610daa573d5f803e3d5ffd5b505050506040513d601f19601f82011682018060405250810190610dce919061338e565b9050808510610e115760405162461bcd60e51b815260206004820152600f60248201526e2727aa2fa0afa922a22aa1aa24a7a760891b6044820152606401610b65565b5f805f9054906101000a90046001600160a01b03166001600160a01b03166318160ddd6040518163ffffffff1660e01b8152600401602060405180830381865afa158015610e61573d5f803e3d5ffd5b505050506040513d601f19601f82011682018060405250810190610e85919061338e565b905080861015610ee557610e995f336117ba565b610ee55760405162461bcd60e51b815260206004820152601d60248201527f5355425f535550504c595f4341505f52455155495245535f41444d494e0000006044820152606401610b65565b5f54604051635b51facd60e11b8152600481018890526001600160a01b039091169063b6a3f59a906024015f604051808303815f87803b158015610f27575f80fd5b505af1158015610f39573d5f803e3d5ffd5b505050507f3f31f7726c877b6506fbd0861daaf82005e0a5454b74c34de7bfcadd599a686d82878787604051610f72949392919061341d565b60405180910390a1505050505050565b5f610f8c8161236a565b60405162461bcd60e51b815260206004820152602560248201527f5553455f72657175657374556e70617573655f414e445f65786563757465556e604482015264706175736560d81b6064820152608401610b65565b610fea612495565b610ff38261253b565b610ffd8282612612565b5050565b5f61100a6126ce565b505f8051602061356483398151915290565b5f6110268161236a565b600f80546001600160a01b031981169091555f60108190556040516001600160a01b039092169182917f3198dc80249fcfedbd0d06e1ff49a7695a51b006592328ce0b127cdeab77e93691a25050565b5f6110808161236a565b6001600160a01b0382166110d65760405162461bcd60e51b815260206004820152601760248201527f494e56414c49445f50524556494f55535f4252494447450000000000000000006044820152606401610b65565b5f5b83811015611126576001600c5f8787858181106110f7576110f7613446565b602090810292909201358352508101919091526040015f20805460ff19169115159190911790556001016110d8565b506040518381526001600160a01b038316907fb0961eed1222cf9fa2c892ea3cbf10b522786d90b41c3d96e7cca8554464f2e6906020015b60405180910390a250505050565b5f6111768161236a565b60028210156111ba5760405162461bcd60e51b815260206004820152601060248201526f4d494e5f534947535f544f4f5f4c4f5760801b6044820152606401610b65565b600a8211156111ff5760405162461bcd60e51b815260206004820152601160248201527009a929cbea6928ea6bea89e9ebe90928e9607b1b6044820152606401610b65565b60045460408051918252602082018490527ff50b1bca865ce9f85d7e9fd03667bd1611269e652e55ec9cc2e2c1b1ac34d2f1910160405180910390a150600455565b5f61124b8161236a565b60065461125b90620151806133b9565b4210156112a25760405162461bcd60e51b81526020600482015260156024820152742920aa24a7afa1a420a723a2afa1a7a7a62227aba760591b6044820152606401610b65565b6127108210156112ee5760405162461bcd60e51b81526020600482015260176024820152761490551253d7d0915313d5d7cc4c0c17d4115490d15395604a1b6044820152606401610b65565b6002545f81841161130857611303848361345a565b611312565b611312828561345a565b90506103e881111561135f5760405162461bcd60e51b8152602060048201526016602482015275524154494f5f4348414e47455f544f4f5f4c4152474560501b6044820152606401610b65565b600284905560408051838152602081018690527fea851fc89ebccda62380b76fc8e8317f0bcd4d75ea908cf501bd2ebc6ac1c8f2910160405180910390a1600154156113b4576113b26001546001612717565b505b5050426006555050565b5f6113c88161236a565b600d546001600160a01b03166114145760405162461bcd60e51b81526020600482015260116024820152704e4f5f50454e44494e475f4348414e474560781b6044820152606401610b65565b6202a300600e5461142591906133b9565b4210156114665760405162461bcd60e51b815260206004820152600f60248201526e54494d454c4f434b5f41435449564560881b6044820152606401610b65565b5f8054600d80546001600160a01b0319808216909255600e8490559082166001600160a01b0391821690811784556040519190921692829184917f1c572079e9d71d989666f649c51257eba9db08985bf06f5803b556ca0f7be7f991a3505050565b5f6114d28161236a565b6001600160a01b0382166115175760405162461bcd60e51b815260206004820152600c60248201526b5a45524f5f4144445245535360a01b6044820152606401610b65565b600f546001600160a01b0316156115705760405162461bcd60e51b815260206004820152601760248201527f555047524144455f414c52454144595f50454e44494e470000000000000000006044820152606401610b65565b600f80546001600160a01b0319166001600160a01b0384169081179091554260108190557f7d4df661563fb5b6b245267960bdc1f0ce81d7027ea6996f19718930dc3cf53790610cd9906202a300906133b9565b5f8054604080516308f770ad60e41b8152905183926001600160a01b031691638f770ad09160048083019260209291908290030181865afa15801561160b573d5f803e3d5ffd5b505050506040513d601f19601f8201168201806040525081019061162f919061338e565b90505f805f9054906101000a90046001600160a01b03166001600160a01b03166318160ddd6040518163ffffffff1660e01b8152600401602060405180830381865afa158015611681573d5f803e3d5ffd5b505050506040513d601f19601f820116820180604052508101906116a5919061338e565b90508082116116b4575f6116be565b6116be818361345a565b9250505090565b5f8054604080516318160ddd60e01b8152905183926001600160a01b0316916318160ddd9160048083019260209291908290030181865afa15801561170c573d5f803e3d5ffd5b505050506040513d601f19601f82011682018060405250810190611730919061338e565b9050805f03611741575f1991505090565b80600154612710611752919061346d565b61175c9190613484565b91505090565b5f805160206135448339815191526117798161236a565b6117816128c7565b600b54156117b7575f600b8190556040517f110dfb7da906b51ec01755bf5c21893865a1e16151c051dd1f0ba88f18dc49989190a15b50565b5f9182525f80516020613584833981519152602090815260408084206001600160a01b0393909316845291905290205460ff1690565b5f6117fa8161236a565b5f82116118395760405162461bcd60e51b815260206004820152600d60248201526c1253959053125117d312535255609a1b6044820152606401610b65565b60075460408051918252602082018490527f1f83e62151c2846f65f3849a21b21022f44fc4ac357f8a7e30d63e4c36f57fa1910160405180910390a150600755565b5f6118858161236a565b5f805160206135a48339815191525460ff166118d05760405162461bcd60e51b815260206004820152600a6024820152691393d517d4105554d15160b21b6044820152606401610b65565b5f600b54116119165760405162461bcd60e51b81526020600482015260126024820152711393d7d55394105554d157d49154555154d560721b6044820152606401610b65565b62015180600b5461192791906133b9565b42101561196d5760405162461bcd60e51b8152602060048201526014602482015273151253515313d0d2d7d393d517d153105414d15160621b6044820152606401610b65565b5f600b556117b7612923565b5f611982612968565b805490915060ff600160401b820416159067ffffffffffffffff165f811580156119a95750825b90505f8267ffffffffffffffff1660011480156119c55750303b155b9050811580156119d3575080155b156119f15760405163f92ee8a960e01b815260040160405180910390fd5b845467ffffffffffffffff191660011785558315611a1b57845460ff60401b1916600160401b1785555b611a23612990565b611a2b612990565b611a33612998565b611a3b612990565b6002891015611a7f5760405162461bcd60e51b815260206004820152601060248201526f4d494e5f534947535f544f4f5f4c4f5760801b6044820152606401610b65565b6001600160a01b038816611acc5760405162461bcd60e51b8152602060048201526014602482015273494e56414c49445f4d5553445f4144445245535360601b6044820152606401610b65565b612710871015611b185760405162461bcd60e51b81526020600482015260176024820152761490551253d7d0915313d5d7cc4c0c17d4115490d15395604a1b6044820152606401610b65565b5f8611611b5d5760405162461bcd60e51b81526020600482015260136024820152721253959053125117d11052531657d312535255606a1b6044820152606401610b65565b611b675f33612374565b50611b7f5f8051602061354483398151915233612374565b5060048990555f80546001600160a01b0319166001600160a01b038a161790556002879055600786905542600a558315611bf357845460ff60401b19168555604051600181527fc7f505b2f371ae2175ee4913f4499e1f2633a7b5936321eed1cdaeb6115181d29060200160405180910390a15b505050505050505050565b6002545f90611c0f8361271061346d565b610a1b9190613484565b611c216129a8565b611c296129f2565b7fe2b7fb3b832174769106daebcfd6d1970523240dda11281102db9363b83b0dc4611c538161236a565b600454821015611ca55760405162461bcd60e51b815260206004820152601760248201527f494e53554646494349454e545f5349474e4154555245530000000000000000006044820152606401610b65565b600354611cb39060016133b9565b846040013514611cf55760405162461bcd60e51b815260206004820152600d60248201526c494e56414c49445f4e4f4e434560981b6044820152606401610b65565b83355f908152600c602052604090205460ff1615611d4a5760405162461bcd60e51b81526020600482015260126024820152711055151154d510551253d397d4915554d15160721b6044820152606401610b65565b5f846020013511611d8b5760405162461bcd60e51b815260206004820152600b60248201526a5a45524f5f41535345545360a81b6044820152606401610b65565b4284606001351115611dd25760405162461bcd60e51b815260206004820152601060248201526f04655545552455f54494d455354414d560841b6044820152606401610b65565b603c600554611de191906133b9565b84606001351015611e2c5760405162461bcd60e51b81526020600482015260156024820152744154544553544154494f4e5f544f4f5f434c4f534560581b6044820152606401610b65565b615460611e3d60608601354261345a565b1115611e815760405162461bcd60e51b81526020600482015260136024820152721055151154d510551253d397d513d3d7d3d311606a1b6044820152606401610b65565b6040805185356020808301919091528087013582840152868301356060808401919091528088013560808401524660a084015230901b6bffffffffffffffffffffffff191660c0830152825180830360b401815260d490920190925280519101207f19457468657265756d205369676e6564204d6573736167653a0a3332000000005f908152601c829052603c812090805b8581101561204c575f611f7f888884818110611f3157611f31613446565b9050602002810190611f4391906134a3565b8080601f0160208091040260200160405190810160405280939291908181526020018383808284375f920191909152508893925050612a229050565b9050611fab7f21702c8af46127c7fa207f89d0b0a8441bb32959a0ac7df790e9ab1a25c98926826117ba565b611feb5760405162461bcd60e51b815260206004820152601160248201527024a72b20a624a22fab20a624a220aa27a960791b6044820152606401610b65565b826001600160a01b0316816001600160a01b0316116120425760405162461bcd60e51b8152602060048201526013602482015272554e534f525445445f5349474e41545552455360681b6044820152606401610b65565b9150600101611f13565b5086355f908152600c60205260408120805460ff191660011790556003805491612075836134e6565b90915550506060870135600555602087013560018190555f906120989082612717565b6040805160208b810135825281018390528a820135818301526060808c01359082015290519192508935917f9ba6bfccbc37e7ffaa2e0a544b51e5583affef6ab7fc5ac15e05659365977d2e9181900360800190a25050505050610d2160017f9b779b17422d0df92223018b32b4d1fa46e071723d6817e2486d003becc55f0055565b61212482610af4565b61212d8161236a565b610bdb838361241c565b5f8051602061354483398151915261214e8161236a565b5f848152600c602052604090205460ff161561219b5760405162461bcd60e51b815260206004820152600c60248201526b1053149150511657d554d15160a21b6044820152606401610b65565b816121b85760405162461bcd60e51b8152600401610b65906133cc565b5f848152600c602052604090819020805460ff191660011790555184907f0f4c29edcea0680b5aa566b248ba9e4417994559c9b5761420403aec016371db9061115e90869086906134fe565b5f600a546201518061221691906133b9565b4210612223575060075490565b5f60095460085411612235575f612245565b600954600854612245919061345a565b9050600754811015612264578060075461225f919061345a565b61175c565b5f91505090565b5f600a546201518061227d91906133b9565b421061228857505f90565b6009546008541161229857505f90565b600954600854610a95919061345a565b5f805160206135448339815191526122bf8161236a565b816122dc5760405162461bcd60e51b8152600401610b65906133cc565b60035484116123235760405162461bcd60e51b81526020600482015260136024820152724e4f4e43455f4d5553545f494e43524541534560681b6044820152606401610b65565b7fcefe750ba825c7c311fce7adeecc27e12427ad470b6193edd89082fbea0ff66860035485858560405161235a949392919061341d565b60405180910390a1505050600355565b6117b78133612a70565b5f5f8051602061358483398151915261238d84846117ba565b61240c575f848152602082815260408083206001600160a01b03871684529091529020805460ff191660011790556123c23390565b6001600160a01b0316836001600160a01b0316857f2f8788117e7eff1d82e926ec794901d17c78024a50270940304540a733656f0d60405160405180910390a46001915050610a1b565b5f915050610a1b565b5092915050565b5f5f8051602061358483398151915261243584846117ba565b1561240c575f848152602082815260408083206001600160a01b0387168085529252808320805460ff1916905551339287917ff6391f5c32d9c69d2a47ea670b442974b53935d1edc7fd64eb21e047a839171b9190a46001915050610a1b565b306001600160a01b037f000000000000000000000000000000000000000000000000000000000000000016148061251b57507f00000000000000000000000000000000000000000000000000000000000000006001600160a01b031661250f5f80516020613564833981519152546001600160a01b031690565b6001600160a01b031614155b156125395760405163703e46dd60e11b815260040160405180910390fd5b565b5f6125458161236a565b600f546001600160a01b0383811691161461259a5760405162461bcd60e51b8152602060048201526015602482015274155411d490511157d393d517d49154555154d51151605a1b6044820152606401610b65565b6202a3006010546125ab91906133b9565b4210156125fa5760405162461bcd60e51b815260206004820152601760248201527f555047524144455f54494d454c4f434b5f4143544956450000000000000000006044820152606401610b65565b5050600f80546001600160a01b03191690555f601055565b816001600160a01b03166352d1902d6040518163ffffffff1660e01b8152600401602060405180830381865afa92505050801561266c575060408051601f3d908101601f191682019092526126699181019061338e565b60015b61269457604051634c9c8ce360e01b81526001600160a01b0383166004820152602401610b65565b5f8051602061356483398151915281146126c457604051632a87526960e21b815260048101829052602401610b65565b610d218383612aa9565b306001600160a01b037f000000000000000000000000000000000000000000000000000000000000000016146125395760405163703e46dd60e11b815260040160405180910390fd5b6002545f906127288461271061346d565b6127329190613484565b90505f805f9054906101000a90046001600160a01b03166001600160a01b0316638f770ad06040518163ffffffff1660e01b8152600401602060405180830381865afa158015612784573d5f803e3d5ffd5b505050506040513d601f19601f820116820180604052508101906127a8919061338e565b905080821461241557808211156128145782156127ec576127c7612afe565b6127d1818361345a565b60085f8282546127e191906133b9565b909155506128269050565b5f6127f7828461345a565b905061280281612b58565b61280c90836133b9565b925050612826565b612826612821838361345a565b612c6c565b5f54604051635b51facd60e11b8152600481018490526001600160a01b039091169063b6a3f59a906024015f604051808303815f87803b158015612868575f80fd5b505af115801561287a573d5f803e3d5ffd5b505060408051848152602081018690529081018790527fcaa0e97f9fe323a4de2e9d815de4f7f3c527c0c07607e968d758c30d17998a829250606001905060405180910390a15092915050565b6128cf6129f2565b5f805160206135a4833981519152805460ff191660011781557f62e78cea01bee320cd4e420270b5ea74000d11b0c9f74754ebdbfc544b05a258335b6040516001600160a01b039091168152602001610bb4565b61292b612c8d565b5f805160206135a4833981519152805460ff191681557f5db9ee0a495bf2e6ff9c91a7834c1ba4fdd244a5e8aa4e537bd38aeae4b073aa3361290b565b5f807ff0c57e16840df040f15088dc2f81fe391c3923bec73e23a9662efc9c229c6a00610a1b565b612539612cbc565b6129a0612cbc565b612539612ce1565b7f9b779b17422d0df92223018b32b4d1fa46e071723d6817e2486d003becc55f008054600119016129ec57604051633ee5aeb560e01b815260040160405180910390fd5b60029055565b5f805160206135a48339815191525460ff16156125395760405163d93c066560e01b815260040160405180910390fd5b5f805f80612a308686612ce9565b925092509250612a408282612d32565b5090949350505050565b60017f9b779b17422d0df92223018b32b4d1fa46e071723d6817e2486d003becc55f0055565b612a7a82826117ba565b610ffd5760405163e2517d3f60e01b81526001600160a01b038216600482015260248101839052604401610b65565b612ab282612dea565b6040516001600160a01b038316907fbc7cd75a20ee27fd9adebab32041f755214dbc6bffa90cc0225b39da2e5c2d3b905f90a2805115612af657610d218282612e4d565b610ffd612ebf565b600a54612b0e90620151806133b9565b4210612539575f600881905560095542600a8190556040519081527feb8851ffe677ee59cfd62362b04c2d5bd85d047caeb4426256021c22e58616949060200160405180910390a1565b5f612b61612afe565b5f60095460085411612b73575f612b83565b600954600854612b83919061345a565b90505f8160075411612b95575f612ba3565b81600754612ba3919061345a565b90505f8111612bf45760405162461bcd60e51b815260206004820152601960248201527f4441494c595f4341505f4c494d49545f455848415553544544000000000000006044820152606401610b65565b808411612c015783612c03565b805b92508260085f828254612c1691906133b9565b909155505083831015612c655760408051858152602081018590529081018290527ffd6ec57e8bac6ad5c7a061343d370b927217dd6cd0e06f035d9084e04d3118439060600160405180910390a15b5050919050565b612c74612afe565b8060095f828254612c8591906133b9565b909155505050565b5f805160206135a48339815191525460ff1661253957604051638dfc202b60e01b815260040160405180910390fd5b612cc4612ede565b61253957604051631afcd79f60e31b815260040160405180910390fd5b612a4a612cbc565b5f805f8351604103612d20576020840151604085015160608601515f1a612d1288828585612ef7565b955095509550505050612d2b565b505081515f91506002905b9250925092565b5f826003811115612d4557612d45613519565b03612d4e575050565b6001826003811115612d6257612d62613519565b03612d805760405163f645eedf60e01b815260040160405180910390fd5b6002826003811115612d9457612d94613519565b03612db55760405163fce698f760e01b815260048101829052602401610b65565b6003826003811115612dc957612dc9613519565b03610ffd576040516335e2f38360e21b815260048101829052602401610b65565b806001600160a01b03163b5f03612e1f57604051634c9c8ce360e01b81526001600160a01b0382166004820152602401610b65565b5f8051602061356483398151915280546001600160a01b0319166001600160a01b0392909216919091179055565b60605f80846001600160a01b031684604051612e69919061352d565b5f60405180830381855af49150503d805f8114612ea1576040519150601f19603f3d011682016040523d82523d5f602084013e612ea6565b606091505b5091509150612eb6858383612fbf565b95945050505050565b34156125395760405163b398979f60e01b815260040160405180910390fd5b5f612ee7612968565b54600160401b900460ff16919050565b5f80807f7fffffffffffffffffffffffffffffff5d576e7357a4501ddfe92f46681b20a0841115612f3057505f91506003905082612fb5565b604080515f808252602082018084528a905260ff891692820192909252606081018790526080810186905260019060a0016020604051602081039080840390855afa158015612f81573d5f803e3d5ffd5b5050604051601f1901519150506001600160a01b038116612fac57505f925060019150829050612fb5565b92505f91508190505b9450945094915050565b606082612fd457612fcf8261301e565b613017565b8151158015612feb57506001600160a01b0384163b155b1561301457604051639996b31560e01b81526001600160a01b0385166004820152602401610b65565b50805b9392505050565b80511561302d57805160208201fd5b60405163d6bda27560e01b815260040160405180910390fd5b5f60208284031215613056575f80fd5b81356001600160e01b031981168114613017575f80fd5b5f6020828403121561307d575f80fd5b5035919050565b80356001600160a01b038116811461309a575f80fd5b919050565b5f80604083850312156130b0575f80fd5b823591506130c060208401613084565b90509250929050565b5f602082840312156130d9575f80fd5b61301782613084565b5f8083601f8401126130f2575f80fd5b50813567ffffffffffffffff811115613109575f80fd5b602083019150836020828501011115613120575f80fd5b9250929050565b5f805f60408486031215613139575f80fd5b83359250602084013567ffffffffffffffff811115613156575f80fd5b613162868287016130e2565b9497909650939450505050565b634e487b7160e01b5f52604160045260245ffd5b5f8060408385031215613194575f80fd5b61319d83613084565b9150602083013567ffffffffffffffff8111156131b8575f80fd5b8301601f810185136131c8575f80fd5b803567ffffffffffffffff8111156131e2576131e261316f565b604051601f8201601f19908116603f0116810167ffffffffffffffff811182821017156132115761321161316f565b604052818152828201602001871015613228575f80fd5b816020840160208301375f602083830101528093505050509250929050565b5f8083601f840112613257575f80fd5b50813567ffffffffffffffff81111561326e575f80fd5b6020830191508360208260051b8501011115613120575f80fd5b5f805f6040848603121561329a575f80fd5b833567ffffffffffffffff8111156132b0575f80fd5b6132bc86828701613247565b90945092506132cf905060208501613084565b90509250925092565b602081525f82518060208401528060208501604085015e5f604082850101526040601f19601f83011684010191505092915050565b5f805f8060808587031215613320575f80fd5b8435935061333060208601613084565b93969395505050506040820135916060013590565b5f805f83850360a0811215613358575f80fd5b6080811215613365575f80fd5b50839250608084013567ffffffffffffffff811115613382575f80fd5b61316286828701613247565b5f6020828403121561339e575f80fd5b5051919050565b634e487b7160e01b5f52601160045260245ffd5b80820180821115610a1b57610a1b6133a5565b6020808252600f908201526e14915054d3d397d491545552549151608a1b604082015260600190565b81835281816020850137505f828201602090810191909152601f909101601f19169091010190565b848152836020820152606060408201525f61343c6060830184866133f5565b9695505050505050565b634e487b7160e01b5f52603260045260245ffd5b81810381811115610a1b57610a1b6133a5565b8082028115828204841417610a1b57610a1b6133a5565b5f8261349e57634e487b7160e01b5f52601260045260245ffd5b500490565b5f808335601e198436030181126134b8575f80fd5b83018035915067ffffffffffffffff8211156134d2575f80fd5b602001915036819003821315613120575f80fd5b5f600182016134f7576134f76133a5565b5060010190565b602081525f6135116020830184866133f5565b949350505050565b634e487b7160e01b5f52602160045260245ffd5b5f82518060208501845e5f92019182525091905056febf233dd2aafeb4d50879c4aa5c81e96d92f6e6945c906a58f9f2d1c1631b4b26360894a13ba1a3210667c828492db98dca3e2076cc3735a920a3ca505d382bbc02dd7bc7dec4dceedda775e58dd541e08a116c6c53815c0bd028192f7b626800cd5ed15c6e187e77e9aee88184c21f4f2182ab5827cb3b7e07fbedcd63f03300a2646970667358221220095df8ed216ca54599ff1638eb77f183d2ffd694c4cbf644c1a10b10b974e89a64736f6c634300081a0033","linkReferences":{}},"methodIdentifiers":{"DEFAULT_ADMIN_ROLE()":"a217fddf","EMERGENCY_ROLE()":"20df4359","MAX_ATTESTATION_AGE()":"b9f7bb8d","MIN_ATTESTATION_GAP()":"196143d0","RELAYER_ROLE()":"926d7d7f","UNPAUSE_DELAY()":"b7c36b36","UPGRADE_DELAY()":"47fe8b1d","UPGRADE_INTERFACE_VERSION()":"ad3cb1cc","VALIDATOR_ROLE()":"c49baebe","attestedCantonAssets()":"39cd92f7","calculateSupplyCap(uint256)":"b43ccab6","cancelSetMUSDToken()":"13ce742c","cancelUpgrade()":"55f29166","collateralRatioBps()":"593855a0","currentNonce()":"adb610a3","dailyCapDecreased()":"27413d90","dailyCapIncreaseLimit()":"2d44d1ea","dailyCapIncreased()":"f86dd9dc","emergencyReduceCap(uint256,string)":"3a08af6d","executeSetMUSDToken()":"6b7b9864","executeUnpause()":"9bdfce98","forceUpdateNonce(uint256,string)":"efb59e9e","getCurrentSupplyCap()":"046e8b47","getHealthRatio()":"7914334f","getNetDailyCapIncrease()":"ecdff91a","getRemainingDailyCapLimit()":"ddd3b81d","getRemainingMintable()":"6f97e31c","getRoleAdmin(bytes32)":"248a9ca3","grantRole(bytes32,address)":"2f2ff15d","hasRole(bytes32,address)":"91d14854","initialize(uint256,address,uint256,uint256)":"ae4a4525","invalidateAttestationId(bytes32,string)":"dd344ba1","lastAttestationTime()":"4b8fd35c","lastRateLimitReset()":"6629a2d6","lastRatioChangeTime()":"3eaa2a8b","migrateUsedAttestations(bytes32[],address)":"57575a26","minSignatures()":"238acaa2","musdToken()":"9d78d46b","musdTokenChangeRequestTime()":"90235ac9","pause()":"8456cb59","paused()":"5c975abb","pendingImplementation()":"396f7b23","pendingMUSDToken()":"6c6e663e","processAttestation((bytes32,uint256,uint256,uint256),bytes[])":"bca8c7eb","proxiableUUID()":"52d1902d","renounceRole(bytes32,address)":"36568abe","requestSetMUSDToken(address)":"351b6514","requestUnpause()":"24fe722e","requestUpgrade(address)":"6b9f97ef","revokeRole(bytes32,address)":"d547741f","setCollateralRatio(uint256)":"6060663e","setDailyCapIncreaseLimit(uint256)":"9b7bff4a","setMinSignatures(uint256)":"5a546098","supportsInterface(bytes4)":"01ffc9a7","unpause()":"3f4ba83a","unpauseRequestTime()":"f21d64a6","upgradeRequestTime()":"ac9e42c1","upgradeToAndCall(address,bytes)":"4f1ef286","usedAttestationIds(bytes32)":"b9cbb07d"},"id":0}