{"abi":[{"type":"constructor","inputs":[],"stateMutability":"nonpayable"},{"type":"function","name":"DEFAULT_ADMIN_ROLE","inputs":[],"outputs":[{"name":"","type":"bytes32","internalType":"bytes32"}],"stateMutability":"view"},{"type":"function","name":"EMERGENCY_ROLE","inputs":[],"outputs":[{"name":"","type":"bytes32","internalType":"bytes32"}],"stateMutability":"view"},{"type":"function","name":"MAX_ATTESTATION_AGE","inputs":[],"outputs":[{"name":"","type":"uint256","internalType":"uint256"}],"stateMutability":"view"},{"type":"function","name":"MIN_ATTESTATION_GAP","inputs":[],"outputs":[{"name":"","type":"uint256","internalType":"uint256"}],"stateMutability":"view"},{"type":"function","name":"RELAYER_ROLE","inputs":[],"outputs":[{"name":"","type":"bytes32","internalType":"bytes32"}],"stateMutability":"view"},{"type":"function","name":"UNPAUSE_DELAY","inputs":[],"outputs":[{"name":"","type":"uint256","internalType":"uint256"}],"stateMutability":"view"},{"type":"function","name":"UPGRADE_INTERFACE_VERSION","inputs":[],"outputs":[{"name":"","type":"string","internalType":"string"}],"stateMutability":"view"},{"type":"function","name":"VALIDATOR_ROLE","inputs":[],"outputs":[{"name":"","type":"bytes32","internalType":"bytes32"}],"stateMutability":"view"},{"type":"function","name":"attestedCantonAssets","inputs":[],"outputs":[{"name":"","type":"uint256","internalType":"uint256"}],"stateMutability":"view"},{"type":"function","name":"calculateSupplyCap","inputs":[{"name":"_assets","type":"uint256","internalType":"uint256"}],"outputs":[{"name":"","type":"uint256","internalType":"uint256"}],"stateMutability":"view"},{"type":"function","name":"collateralRatioBps","inputs":[],"outputs":[{"name":"","type":"uint256","internalType":"uint256"}],"stateMutability":"view"},{"type":"function","name":"currentNonce","inputs":[],"outputs":[{"name":"","type":"uint256","internalType":"uint256"}],"stateMutability":"view"},{"type":"function","name":"dailyCapDecreased","inputs":[],"outputs":[{"name":"","type":"uint256","internalType":"uint256"}],"stateMutability":"view"},{"type":"function","name":"dailyCapIncreaseLimit","inputs":[],"outputs":[{"name":"","type":"uint256","internalType":"uint256"}],"stateMutability":"view"},{"type":"function","name":"dailyCapIncreased","inputs":[],"outputs":[{"name":"","type":"uint256","internalType":"uint256"}],"stateMutability":"view"},{"type":"function","name":"emergencyReduceCap","inputs":[{"name":"_newCap","type":"uint256","internalType":"uint256"},{"name":"_reason","type":"string","internalType":"string"}],"outputs":[],"stateMutability":"nonpayable"},{"type":"function","name":"executeUnpause","inputs":[],"outputs":[],"stateMutability":"nonpayable"},{"type":"function","name":"forceUpdateNonce","inputs":[{"name":"_newNonce","type":"uint256","internalType":"uint256"},{"name":"_reason","type":"string","internalType":"string"}],"outputs":[],"stateMutability":"nonpayable"},{"type":"function","name":"getCurrentSupplyCap","inputs":[],"outputs":[{"name":"","type":"uint256","internalType":"uint256"}],"stateMutability":"view"},{"type":"function","name":"getHealthRatio","inputs":[],"outputs":[{"name":"ratioBps","type":"uint256","internalType":"uint256"}],"stateMutability":"view"},{"type":"function","name":"getNetDailyCapIncrease","inputs":[],"outputs":[{"name":"","type":"uint256","internalType":"uint256"}],"stateMutability":"view"},{"type":"function","name":"getRemainingDailyCapLimit","inputs":[],"outputs":[{"name":"","type":"uint256","internalType":"uint256"}],"stateMutability":"view"},{"type":"function","name":"getRemainingMintable","inputs":[],"outputs":[{"name":"","type":"uint256","internalType":"uint256"}],"stateMutability":"view"},{"type":"function","name":"getRoleAdmin","inputs":[{"name":"role","type":"bytes32","internalType":"bytes32"}],"outputs":[{"name":"","type":"bytes32","internalType":"bytes32"}],"stateMutability":"view"},{"type":"function","name":"grantRole","inputs":[{"name":"role","type":"bytes32","internalType":"bytes32"},{"name":"account","type":"address","internalType":"address"}],"outputs":[],"stateMutability":"nonpayable"},{"type":"function","name":"hasRole","inputs":[{"name":"role","type":"bytes32","internalType":"bytes32"},{"name":"account","type":"address","internalType":"address"}],"outputs":[{"name":"","type":"bool","internalType":"bool"}],"stateMutability":"view"},{"type":"function","name":"initialize","inputs":[{"name":"_minSigs","type":"uint256","internalType":"uint256"},{"name":"_musdToken","type":"address","internalType":"address"},{"name":"_collateralRatioBps","type":"uint256","internalType":"uint256"},{"name":"_dailyCapIncreaseLimit","type":"uint256","internalType":"uint256"},{"name":"_timelock","type":"address","internalType":"address"}],"outputs":[],"stateMutability":"nonpayable"},{"type":"function","name":"invalidateAttestationId","inputs":[{"name":"_attestationId","type":"bytes32","internalType":"bytes32"},{"name":"_reason","type":"string","internalType":"string"}],"outputs":[],"stateMutability":"nonpayable"},{"type":"function","name":"lastAttestationTime","inputs":[],"outputs":[{"name":"","type":"uint256","internalType":"uint256"}],"stateMutability":"view"},{"type":"function","name":"lastRateLimitReset","inputs":[],"outputs":[{"name":"","type":"uint256","internalType":"uint256"}],"stateMutability":"view"},{"type":"function","name":"lastRatioChangeTime","inputs":[],"outputs":[{"name":"","type":"uint256","internalType":"uint256"}],"stateMutability":"view"},{"type":"function","name":"migrateUsedAttestations","inputs":[{"name":"attestationIds","type":"bytes32[]","internalType":"bytes32[]"},{"name":"previousBridge","type":"address","internalType":"address"}],"outputs":[],"stateMutability":"nonpayable"},{"type":"function","name":"minSignatures","inputs":[],"outputs":[{"name":"","type":"uint256","internalType":"uint256"}],"stateMutability":"view"},{"type":"function","name":"musdToken","inputs":[],"outputs":[{"name":"","type":"address","internalType":"contract IMUSD"}],"stateMutability":"view"},{"type":"function","name":"pause","inputs":[],"outputs":[],"stateMutability":"nonpayable"},{"type":"function","name":"paused","inputs":[],"outputs":[{"name":"","type":"bool","internalType":"bool"}],"stateMutability":"view"},{"type":"function","name":"processAttestation","inputs":[{"name":"att","type":"tuple","internalType":"struct BLEBridgeV9.Attestation","components":[{"name":"id","type":"bytes32","internalType":"bytes32"},{"name":"cantonAssets","type":"uint256","internalType":"uint256"},{"name":"nonce","type":"uint256","internalType":"uint256"},{"name":"timestamp","type":"uint256","internalType":"uint256"}]},{"name":"signatures","type":"bytes[]","internalType":"bytes[]"}],"outputs":[],"stateMutability":"nonpayable"},{"type":"function","name":"proxiableUUID","inputs":[],"outputs":[{"name":"","type":"bytes32","internalType":"bytes32"}],"stateMutability":"view"},{"type":"function","name":"renounceRole","inputs":[{"name":"role","type":"bytes32","internalType":"bytes32"},{"name":"callerConfirmation","type":"address","internalType":"address"}],"outputs":[],"stateMutability":"nonpayable"},{"type":"function","name":"requestUnpause","inputs":[],"outputs":[],"stateMutability":"nonpayable"},{"type":"function","name":"revokeRole","inputs":[{"name":"role","type":"bytes32","internalType":"bytes32"},{"name":"account","type":"address","internalType":"address"}],"outputs":[],"stateMutability":"nonpayable"},{"type":"function","name":"setCollateralRatio","inputs":[{"name":"_ratioBps","type":"uint256","internalType":"uint256"}],"outputs":[],"stateMutability":"nonpayable"},{"type":"function","name":"setDailyCapIncreaseLimit","inputs":[{"name":"_limit","type":"uint256","internalType":"uint256"}],"outputs":[],"stateMutability":"nonpayable"},{"type":"function","name":"setMUSDToken","inputs":[{"name":"_musdToken","type":"address","internalType":"address"}],"outputs":[],"stateMutability":"nonpayable"},{"type":"function","name":"setMinSignatures","inputs":[{"name":"_minSigs","type":"uint256","internalType":"uint256"}],"outputs":[],"stateMutability":"nonpayable"},{"type":"function","name":"setTimelock","inputs":[{"name":"_timelock","type":"address","internalType":"address"}],"outputs":[],"stateMutability":"nonpayable"},{"type":"function","name":"supportsInterface","inputs":[{"name":"interfaceId","type":"bytes4","internalType":"bytes4"}],"outputs":[{"name":"","type":"bool","internalType":"bool"}],"stateMutability":"view"},{"type":"function","name":"timelock","inputs":[],"outputs":[{"name":"","type":"address","internalType":"address"}],"stateMutability":"view"},{"type":"function","name":"unpause","inputs":[],"outputs":[],"stateMutability":"view"},{"type":"function","name":"unpauseRequestTime","inputs":[],"outputs":[{"name":"","type":"uint256","internalType":"uint256"}],"stateMutability":"view"},{"type":"function","name":"upgradeToAndCall","inputs":[{"name":"newImplementation","type":"address","internalType":"address"},{"name":"data","type":"bytes","internalType":"bytes"}],"outputs":[],"stateMutability":"payable"},{"type":"function","name":"usedAttestationIds","inputs":[{"name":"","type":"bytes32","internalType":"bytes32"}],"outputs":[{"name":"","type":"bool","internalType":"bool"}],"stateMutability":"view"},{"type":"event","name":"AttestationInvalidated","inputs":[{"name":"attestationId","type":"bytes32","indexed":true,"internalType":"bytes32"},{"name":"reason","type":"string","indexed":false,"internalType":"string"}],"anonymous":false},{"type":"event","name":"AttestationReceived","inputs":[{"name":"id","type":"bytes32","indexed":true,"internalType":"bytes32"},{"name":"cantonAssets","type":"uint256","indexed":false,"internalType":"uint256"},{"name":"newSupplyCap","type":"uint256","indexed":false,"internalType":"uint256"},{"name":"nonce","type":"uint256","indexed":false,"internalType":"uint256"},{"name":"timestamp","type":"uint256","indexed":false,"internalType":"uint256"}],"anonymous":false},{"type":"event","name":"AttestationsMigrated","inputs":[{"name":"count","type":"uint256","indexed":false,"internalType":"uint256"},{"name":"fromBridge","type":"address","indexed":true,"internalType":"address"}],"anonymous":false},{"type":"event","name":"CollateralRatioUpdated","inputs":[{"name":"oldRatio","type":"uint256","indexed":false,"internalType":"uint256"},{"name":"newRatio","type":"uint256","indexed":false,"internalType":"uint256"}],"anonymous":false},{"type":"event","name":"DailyCapIncreaseLimitUpdated","inputs":[{"name":"oldLimit","type":"uint256","indexed":false,"internalType":"uint256"},{"name":"newLimit","type":"uint256","indexed":false,"internalType":"uint256"}],"anonymous":false},{"type":"event","name":"EmergencyCapReduction","inputs":[{"name":"oldCap","type":"uint256","indexed":false,"internalType":"uint256"},{"name":"newCap","type":"uint256","indexed":false,"internalType":"uint256"},{"name":"reason","type":"string","indexed":false,"internalType":"string"}],"anonymous":false},{"type":"event","name":"Initialized","inputs":[{"name":"version","type":"uint64","indexed":false,"internalType":"uint64"}],"anonymous":false},{"type":"event","name":"MUSDTokenUpdated","inputs":[{"name":"oldToken","type":"address","indexed":true,"internalType":"address"},{"name":"newToken","type":"address","indexed":true,"internalType":"address"}],"anonymous":false},{"type":"event","name":"MinSignaturesUpdated","inputs":[{"name":"oldMinSigs","type":"uint256","indexed":false,"internalType":"uint256"},{"name":"newMinSigs","type":"uint256","indexed":false,"internalType":"uint256"}],"anonymous":false},{"type":"event","name":"NonceForceUpdated","inputs":[{"name":"oldNonce","type":"uint256","indexed":false,"internalType":"uint256"},{"name":"newNonce","type":"uint256","indexed":false,"internalType":"uint256"},{"name":"reason","type":"string","indexed":false,"internalType":"string"}],"anonymous":false},{"type":"event","name":"Paused","inputs":[{"name":"account","type":"address","indexed":false,"internalType":"address"}],"anonymous":false},{"type":"event","name":"RateLimitReset","inputs":[{"name":"timestamp","type":"uint256","indexed":false,"internalType":"uint256"}],"anonymous":false},{"type":"event","name":"RateLimitedCapIncrease","inputs":[{"name":"requestedIncrease","type":"uint256","indexed":false,"internalType":"uint256"},{"name":"allowedIncrease","type":"uint256","indexed":false,"internalType":"uint256"},{"name":"remainingLimit","type":"uint256","indexed":false,"internalType":"uint256"}],"anonymous":false},{"type":"event","name":"RoleAdminChanged","inputs":[{"name":"role","type":"bytes32","indexed":true,"internalType":"bytes32"},{"name":"previousAdminRole","type":"bytes32","indexed":true,"internalType":"bytes32"},{"name":"newAdminRole","type":"bytes32","indexed":true,"internalType":"bytes32"}],"anonymous":false},{"type":"event","name":"RoleGranted","inputs":[{"name":"role","type":"bytes32","indexed":true,"internalType":"bytes32"},{"name":"account","type":"address","indexed":true,"internalType":"address"},{"name":"sender","type":"address","indexed":true,"internalType":"address"}],"anonymous":false},{"type":"event","name":"RoleRevoked","inputs":[{"name":"role","type":"bytes32","indexed":true,"internalType":"bytes32"},{"name":"account","type":"address","indexed":true,"internalType":"address"},{"name":"sender","type":"address","indexed":true,"internalType":"address"}],"anonymous":false},{"type":"event","name":"SupplyCapUpdated","inputs":[{"name":"oldCap","type":"uint256","indexed":false,"internalType":"uint256"},{"name":"newCap","type":"uint256","indexed":false,"internalType":"uint256"},{"name":"attestedAssets","type":"uint256","indexed":false,"internalType":"uint256"}],"anonymous":false},{"type":"event","name":"TimelockUpdated","inputs":[{"name":"oldTimelock","type":"address","indexed":true,"internalType":"address"},{"name":"newTimelock","type":"address","indexed":true,"internalType":"address"}],"anonymous":false},{"type":"event","name":"UnpauseCancelled","inputs":[],"anonymous":false},{"type":"event","name":"UnpauseRequested","inputs":[{"name":"requestTime","type":"uint256","indexed":false,"internalType":"uint256"},{"name":"executeAfter","type":"uint256","indexed":false,"internalType":"uint256"}],"anonymous":false},{"type":"event","name":"Unpaused","inputs":[{"name":"account","type":"address","indexed":false,"internalType":"address"}],"anonymous":false},{"type":"event","name":"Upgraded","inputs":[{"name":"implementation","type":"address","indexed":true,"internalType":"address"}],"anonymous":false},{"type":"error","name":"AccessControlBadConfirmation","inputs":[]},{"type":"error","name":"AccessControlUnauthorizedAccount","inputs":[{"name":"account","type":"address","internalType":"address"},{"name":"neededRole","type":"bytes32","internalType":"bytes32"}]},{"type":"error","name":"AddressEmptyCode","inputs":[{"name":"target","type":"address","internalType":"address"}]},{"type":"error","name":"ECDSAInvalidSignature","inputs":[]},{"type":"error","name":"ECDSAInvalidSignatureLength","inputs":[{"name":"length","type":"uint256","internalType":"uint256"}]},{"type":"error","name":"ECDSAInvalidSignatureS","inputs":[{"name":"s","type":"bytes32","internalType":"bytes32"}]},{"type":"error","name":"ERC1967InvalidImplementation","inputs":[{"name":"implementation","type":"address","internalType":"address"}]},{"type":"error","name":"ERC1967NonPayable","inputs":[]},{"type":"error","name":"EnforcedPause","inputs":[]},{"type":"error","name":"ExpectedPause","inputs":[]},{"type":"error","name":"FailedCall","inputs":[]},{"type":"error","name":"InvalidInitialization","inputs":[]},{"type":"error","name":"NotInitializing","inputs":[]},{"type":"error","name":"OnlyTimelock","inputs":[]},{"type":"error","name":"ReentrancyGuardReentrantCall","inputs":[]},{"type":"error","name":"UUPSUnauthorizedCallContext","inputs":[]},{"type":"error","name":"UUPSUnsupportedProxiableUUID","inputs":[{"name":"slot","type":"bytes32","internalType":"bytes32"}]},{"type":"error","name":"ZeroTimelock","inputs":[]}],"bytecode":{"object":"0x60a060405230608052348015610013575f80fd5b5061001c610021565b6100d3565b7ff0c57e16840df040f15088dc2f81fe391c3923bec73e23a9662efc9c229c6a00805468010000000000000000900460ff16156100715760405163f92ee8a960e01b815260040160405180910390fd5b80546001600160401b03908116146100d05780546001600160401b0319166001600160401b0390811782556040519081527fc7f505b2f371ae2175ee4913f4499e1f2633a7b5936321eed1cdaeb6115181d29060200160405180910390a15b50565b60805161332b6100f95f395f81816121b3015281816121dc0152612384015261332b5ff3fe6080604052600436106102f3575f3560e01c80638456cb5911610189578063bca8c7eb116100d8578063d547741f11610092578063ecdff91a1161006d578063ecdff91a1461086a578063efb59e9e1461087e578063f21d64a61461089d578063f86dd9dc146108b2575f80fd5b8063d547741f14610818578063dd344ba114610837578063ddd3b81d14610856575f80fd5b8063bca8c7eb1461074b578063bdacb3031461076a578063c49baebe14610789578063c8be18b6146107bc578063cd3d8687146107db578063d33219b4146107fa575f80fd5b8063a217fddf11610143578063b43ccab61161011e578063b43ccab6146106d3578063b7c36b36146106f2578063b9cbb07d14610708578063b9f7bb8d14610736575f80fd5b8063a217fddf1461066e578063ad3cb1cc14610681578063adb610a3146106be575f80fd5b80638456cb591461059e57806391d14854146105b2578063926d7d7f146105d15780639b7bff4a146106045780639bdfce98146106235780639d78d46b14610637575f80fd5b80633eaa2a8b11610245578063593855a0116101ff5780636060663e116101da5780636060663e146105425780636629a2d6146105615780636f97e31c146105765780637914334f1461058a575f80fd5b8063593855a0146104eb5780635a546098146105005780635c975abb1461051f575f80fd5b80633eaa2a8b146104675780633f4ba83a1461047c5780634b8fd35c146104905780634f1ef286146104a557806352d1902d146104b857806357575a26146104cc575f80fd5b806324fe722e116102b05780632f2ff15d1161028b5780632f2ff15d146103f557806336568abe1461041457806339cd92f7146104335780633a08af6d14610448575f80fd5b806324fe722e146103b557806327413d90146103cb5780632d44d1ea146103e0575f80fd5b806301ffc9a7146102f7578063046e8b471461032b578063196143d01461034d57806320df435914610361578063238acaa214610381578063248a9ca314610396575b5f80fd5b348015610302575f80fd5b50610316610311366004612d64565b6108c7565b60405190151581526020015b60405180910390f35b348015610336575f80fd5b5061033f6108fd565b604051908152602001610322565b348015610358575f80fd5b5061033f603c81565b34801561036c575f80fd5b5061033f5f8051602061327683398151915281565b34801561038c575f80fd5b5061033f60055481565b3480156103a1575f80fd5b5061033f6103b0366004612d8b565b61096d565b3480156103c0575f80fd5b506103c961098d565b005b3480156103d6575f80fd5b5061033f600a5481565b3480156103eb575f80fd5b5061033f60085481565b348015610400575f80fd5b506103c961040f366004612dbd565b610a38565b34801561041f575f80fd5b506103c961042e366004612dbd565b610a5a565b34801561043e575f80fd5b5061033f60025481565b348015610453575f80fd5b506103c9610462366004612e2c565b610a92565b348015610472575f80fd5b5061033f60075481565b348015610487575f80fd5b506103c9610cdd565b34801561049b575f80fd5b5061033f60065481565b6103c96104b3366004612e88565b610d3d565b3480156104c3575f80fd5b5061033f610d5c565b3480156104d7575f80fd5b506103c96104e6366004612f8d565b610d77565b3480156104f6575f80fd5b5061033f60035481565b34801561050b575f80fd5b506103c961051a366004612d8b565b610e8b565b34801561052a575f80fd5b505f805160206132d68339815191525460ff16610316565b34801561054d575f80fd5b506103c961055c366004612d8b565b610f7f565b34801561056c575f80fd5b5061033f600b5481565b348015610581575f80fd5b5061033f61111b565b348015610595575f80fd5b5061033f611228565b3480156105a9575f80fd5b506103c96112d0565b3480156105bd575f80fd5b506103166105cc366004612dbd565b611328565b3480156105dc575f80fd5b5061033f7fe2b7fb3b832174769106daebcfd6d1970523240dda11281102db9363b83b0dc481565b34801561060f575f80fd5b506103c961061e366004612d8b565b61135e565b34801561062e575f80fd5b506103c9611408565b348015610642575f80fd5b50600154610656906001600160a01b031681565b6040516001600160a01b039091168152602001610322565b348015610679575f80fd5b5061033f5f81565b34801561068c575f80fd5b506106b1604051806040016040528060058152602001640352e302e360dc1b81525081565b6040516103229190612fdd565b3480156106c9575f80fd5b5061033f60045481565b3480156106de575f80fd5b5061033f6106ed366004612d8b565b611506565b3480156106fd575f80fd5b5061033f6201518081565b348015610713575f80fd5b50610316610722366004612d8b565b600d6020525f908152604090205460ff1681565b348015610741575f80fd5b5061033f61546081565b348015610756575f80fd5b506103c9610765366004613012565b611521565b348015610775575f80fd5b506103c961078436600461305b565b611a23565b348015610794575f80fd5b5061033f7f21702c8af46127c7fa207f89d0b0a8441bb32959a0ac7df790e9ab1a25c9892681565b3480156107c7575f80fd5b506103c96107d636600461305b565b611acd565b3480156107e6575f80fd5b506103c96107f5366004613074565b611b90565b348015610805575f80fd5b505f54610656906001600160a01b031681565b348015610823575f80fd5b506103c9610832366004612dbd565b611e20565b348015610842575f80fd5b506103c9610851366004612e2c565b611e3c565b348015610861575f80fd5b5061033f611f17565b348015610875575f80fd5b5061033f611f7e565b348015610889575f80fd5b506103c9610898366004612e2c565b611fbb565b3480156108a8575f80fd5b5061033f600c5481565b3480156108bd575f80fd5b5061033f60095481565b5f6001600160e01b03198216637965db0b60e01b14806108f757506301ffc9a760e01b6001600160e01b03198316145b92915050565b600154604080516308f770ad60e41b815290515f926001600160a01b031691638f770ad09160048083019260209291908290030181865afa158015610944573d5f803e3d5ffd5b505050506040513d601f19601f8201168201806040525081019061096891906130c0565b905090565b5f9081525f805160206132b6833981519152602052604090206001015490565b5f6109978161207d565b5f805160206132d68339815191525460ff166109e75760405162461bcd60e51b815260206004820152600a6024820152691393d517d4105554d15160b21b60448201526064015b60405180910390fd5b42600c8190557f5e873705f3fc98998a135c06b05718cc58f60099dc572cbd1954fa4d15a228c790610a1c62015180826130eb565b604080519283526020830191909152015b60405180910390a150565b610a418261096d565b610a4a8161207d565b610a548383612087565b50505050565b6001600160a01b0381163314610a835760405163334bd91960e11b815260040160405180910390fd5b610a8d828261212f565b505050565b5f80516020613276833981519152610aa98161207d565b81610ac65760405162461bcd60e51b81526004016109de906130fe565b600154604080516308f770ad60e41b815290515f926001600160a01b031691638f770ad09160048083019260209291908290030181865afa158015610b0d573d5f803e3d5ffd5b505050506040513d601f19601f82011682018060405250810190610b3191906130c0565b9050808510610b745760405162461bcd60e51b815260206004820152600f60248201526e2727aa2fa0afa922a22aa1aa24a7a760891b60448201526064016109de565b600154604080516318160ddd60e01b815290515f926001600160a01b0316916318160ddd9160048083019260209291908290030181865afa158015610bbb573d5f803e3d5ffd5b505050506040513d601f19601f82011682018060405250810190610bdf91906130c0565b905080861015610c3f57610bf35f33611328565b610c3f5760405162461bcd60e51b815260206004820152601d60248201527f5355425f535550504c595f4341505f52455155495245535f41444d494e00000060448201526064016109de565b600154604051635b51facd60e11b8152600481018890526001600160a01b039091169063b6a3f59a906024015f604051808303815f87803b158015610c82575f80fd5b505af1158015610c94573d5f803e3d5ffd5b505050507f3f31f7726c877b6506fbd0861daaf82005e0a5454b74c34de7bfcadd599a686d82878787604051610ccd949392919061314f565b60405180910390a1505050505050565b5f610ce78161207d565b60405162461bcd60e51b815260206004820152602560248201527f5553455f72657175657374556e70617573655f414e445f65786563757465556e604482015264706175736560d81b60648201526084016109de565b610d456121a8565b610d4e8261224e565b610d5882826122bd565b5050565b5f610d65612379565b505f8051602061329683398151915290565b5f546001600160a01b03163314610da157604051630e05f48560e11b815260040160405180910390fd5b6001600160a01b038116610df75760405162461bcd60e51b815260206004820152601760248201527f494e56414c49445f50524556494f55535f42524944474500000000000000000060448201526064016109de565b5f5b82811015610e47576001600d5f868685818110610e1857610e18613178565b602090810292909201358352508101919091526040015f20805460ff1916911515919091179055600101610df9565b506040518281526001600160a01b038216907fb0961eed1222cf9fa2c892ea3cbf10b522786d90b41c3d96e7cca8554464f2e69060200160405180910390a2505050565b5f546001600160a01b03163314610eb557604051630e05f48560e11b815260040160405180910390fd5b6002811015610ef95760405162461bcd60e51b815260206004820152601060248201526f4d494e5f534947535f544f4f5f4c4f5760801b60448201526064016109de565b600a811115610f3e5760405162461bcd60e51b815260206004820152601160248201527009a929cbea6928ea6bea89e9ebe90928e9607b1b60448201526064016109de565b60055460408051918252602082018390527ff50b1bca865ce9f85d7e9fd03667bd1611269e652e55ec9cc2e2c1b1ac34d2f1910160405180910390a1600555565b5f546001600160a01b03163314610fa957604051630e05f48560e11b815260040160405180910390fd5b600754610fb990620151806130eb565b4210156110005760405162461bcd60e51b81526020600482015260156024820152742920aa24a7afa1a420a723a2afa1a7a7a62227aba760591b60448201526064016109de565b61271081101561104c5760405162461bcd60e51b81526020600482015260176024820152761490551253d7d0915313d5d7cc4c0c17d4115490d15395604a1b60448201526064016109de565b6003545f81831161106657611061838361318c565b611070565b611070828461318c565b90506103e88111156110bd5760405162461bcd60e51b8152602060048201526016602482015275524154494f5f4348414e47455f544f4f5f4c4152474560501b60448201526064016109de565b600383905560408051838152602081018590527fea851fc89ebccda62380b76fc8e8317f0bcd4d75ea908cf501bd2ebc6ac1c8f2910160405180910390a1600254156111125761111060025460016123c2565b505b50504260075550565b5f8060015f9054906101000a90046001600160a01b03166001600160a01b0316638f770ad06040518163ffffffff1660e01b8152600401602060405180830381865afa15801561116d573d5f803e3d5ffd5b505050506040513d601f19601f8201168201806040525081019061119191906130c0565b90505f60015f9054906101000a90046001600160a01b03166001600160a01b03166318160ddd6040518163ffffffff1660e01b8152600401602060405180830381865afa1580156111e4573d5f803e3d5ffd5b505050506040513d601f19601f8201168201806040525081019061120891906130c0565b9050808211611217575f611221565b611221818361318c565b9250505090565b5f8060015f9054906101000a90046001600160a01b03166001600160a01b03166318160ddd6040518163ffffffff1660e01b8152600401602060405180830381865afa15801561127a573d5f803e3d5ffd5b505050506040513d601f19601f8201168201806040525081019061129e91906130c0565b9050805f036112af575f1991505090565b806002546127106112c0919061319f565b6112ca91906131b6565b91505090565b5f805160206132768339815191526112e78161207d565b6112ef612574565b600c5415611325575f600c8190556040517f110dfb7da906b51ec01755bf5c21893865a1e16151c051dd1f0ba88f18dc49989190a15b50565b5f9182525f805160206132b6833981519152602090815260408084206001600160a01b0393909316845291905290205460ff1690565b5f546001600160a01b0316331461138857604051630e05f48560e11b815260040160405180910390fd5b5f81116113c75760405162461bcd60e51b815260206004820152600d60248201526c1253959053125117d312535255609a1b60448201526064016109de565b60085460408051918252602082018390527f1f83e62151c2846f65f3849a21b21022f44fc4ac357f8a7e30d63e4c36f57fa1910160405180910390a1600855565b5f6114128161207d565b5f805160206132d68339815191525460ff1661145d5760405162461bcd60e51b815260206004820152600a6024820152691393d517d4105554d15160b21b60448201526064016109de565b5f600c54116114a35760405162461bcd60e51b81526020600482015260126024820152711393d7d55394105554d157d49154555154d560721b60448201526064016109de565b62015180600c546114b491906130eb565b4210156114fa5760405162461bcd60e51b8152602060048201526014602482015273151253515313d0d2d7d393d517d153105414d15160621b60448201526064016109de565b5f600c556113256125d0565b6003545f906115178361271061319f565b6108f791906131b6565b611529612615565b61153161265f565b7fe2b7fb3b832174769106daebcfd6d1970523240dda11281102db9363b83b0dc461155b8161207d565b6005548210156115ad5760405162461bcd60e51b815260206004820152601760248201527f494e53554646494349454e545f5349474e41545552455300000000000000000060448201526064016109de565b6004546115bb9060016130eb565b8460400135146115fd5760405162461bcd60e51b815260206004820152600d60248201526c494e56414c49445f4e4f4e434560981b60448201526064016109de565b83355f908152600d602052604090205460ff16156116525760405162461bcd60e51b81526020600482015260126024820152711055151154d510551253d397d4915554d15160721b60448201526064016109de565b5f8460200135116116935760405162461bcd60e51b815260206004820152600b60248201526a5a45524f5f41535345545360a81b60448201526064016109de565b42846060013511156116da5760405162461bcd60e51b815260206004820152601060248201526f04655545552455f54494d455354414d560841b60448201526064016109de565b603c6006546116e991906130eb565b846060013510156117345760405162461bcd60e51b81526020600482015260156024820152744154544553544154494f4e5f544f4f5f434c4f534560581b60448201526064016109de565b61546061174560608601354261318c565b11156117895760405162461bcd60e51b81526020600482015260136024820152721055151154d510551253d397d513d3d7d3d311606a1b60448201526064016109de565b6040805185356020808301919091528087013582840152868301356060808401919091528088013560808401524660a084015230901b6bffffffffffffffffffffffff191660c0830152825180830360b401815260d490920190925280519101207f19457468657265756d205369676e6564204d6573736167653a0a3332000000005f908152601c829052603c812090805b85811015611954575f61188788888481811061183957611839613178565b905060200281019061184b91906131d5565b8080601f0160208091040260200160405190810160405280939291908181526020018383808284375f92019190915250889392505061268f9050565b90506118b37f21702c8af46127c7fa207f89d0b0a8441bb32959a0ac7df790e9ab1a25c9892682611328565b6118f35760405162461bcd60e51b815260206004820152601160248201527024a72b20a624a22fab20a624a220aa27a960791b60448201526064016109de565b826001600160a01b0316816001600160a01b03161161194a5760405162461bcd60e51b8152602060048201526013602482015272554e534f525445445f5349474e41545552455360681b60448201526064016109de565b915060010161181b565b5086355f908152600d60205260408120805460ff19166001179055600480549161197d83613218565b90915550506060870135600655602087013560028190555f906119a090826123c2565b6040805160208b810135825281018390528a820135818301526060808c01359082015290519192508935917f9ba6bfccbc37e7ffaa2e0a544b51e5583affef6ab7fc5ac15e05659365977d2e9181900360800190a25050505050610a8d60017f9b779b17422d0df92223018b32b4d1fa46e071723d6817e2486d003becc55f0055565b5f546001600160a01b03163314611a4d57604051630e05f48560e11b815260040160405180910390fd5b6001600160a01b038116611a74576040516350c0eb2960e11b815260040160405180910390fd5b5f80546040516001600160a01b03808516939216917fae97011a27b5efe7b1d76fe38e75cc498fd64cc24e407a9c6b2185d27f611f7e91a35f80546001600160a01b0319166001600160a01b0392909216919091179055565b5f546001600160a01b03163314611af757604051630e05f48560e11b815260040160405180910390fd5b6001600160a01b038116611b3f5760405162461bcd60e51b815260206004820152600f60248201526e494e56414c49445f4144445245535360881b60448201526064016109de565b600180546001600160a01b038381166001600160a01b0319831681179093556040519116919082907f1c572079e9d71d989666f649c51257eba9db08985bf06f5803b556ca0f7be7f9905f90a35050565b5f611b996126dd565b805490915060ff600160401b820416159067ffffffffffffffff165f81158015611bc05750825b90505f8267ffffffffffffffff166001148015611bdc5750303b155b905081158015611bea575080155b15611c085760405163f92ee8a960e01b815260040160405180910390fd5b845467ffffffffffffffff191660011785558315611c3257845460ff60401b1916600160401b1785555b611c3a612705565b611c42612705565b611c4a61270d565b611c52612705565b60028a1015611c965760405162461bcd60e51b815260206004820152601060248201526f4d494e5f534947535f544f4f5f4c4f5760801b60448201526064016109de565b6001600160a01b038916611ce35760405162461bcd60e51b8152602060048201526014602482015273494e56414c49445f4d5553445f4144445245535360601b60448201526064016109de565b612710881015611d2f5760405162461bcd60e51b81526020600482015260176024820152761490551253d7d0915313d5d7cc4c0c17d4115490d15395604a1b60448201526064016109de565b5f8711611d745760405162461bcd60e51b81526020600482015260136024820152721253959053125117d11052531657d312535255606a1b60448201526064016109de565b611d7d8661271d565b611d875f33612087565b50611d9f5f8051602061327683398151915233612087565b5060058a9055600180546001600160a01b0319166001600160a01b038b161790556003889055600887905542600b558315611e1457845460ff60401b19168555604051600181527fc7f505b2f371ae2175ee4913f4499e1f2633a7b5936321eed1cdaeb6115181d29060200160405180910390a15b50505050505050505050565b611e298261096d565b611e328161207d565b610a54838361212f565b5f80516020613276833981519152611e538161207d565b5f848152600d602052604090205460ff1615611ea05760405162461bcd60e51b815260206004820152600c60248201526b1053149150511657d554d15160a21b60448201526064016109de565b81611ebd5760405162461bcd60e51b81526004016109de906130fe565b5f848152600d602052604090819020805460ff191660011790555184907f0f4c29edcea0680b5aa566b248ba9e4417994559c9b5761420403aec016371db90611f099086908690613230565b60405180910390a250505050565b5f600b5462015180611f2991906130eb565b4210611f36575060085490565b5f600a5460095411611f48575f611f58565b600a54600954611f58919061318c565b9050600854811015611f775780600854611f72919061318c565b6112ca565b5f91505090565b5f600b5462015180611f9091906130eb565b4210611f9b57505f90565b600a5460095411611fab57505f90565b600a54600954610968919061318c565b5f80516020613276833981519152611fd28161207d565b81611fef5760405162461bcd60e51b81526004016109de906130fe565b60045484116120365760405162461bcd60e51b81526020600482015260136024820152724e4f4e43455f4d5553545f494e43524541534560681b60448201526064016109de565b7fcefe750ba825c7c311fce7adeecc27e12427ad470b6193edd89082fbea0ff66860045485858560405161206d949392919061314f565b60405180910390a1505050600455565b611325813361278e565b5f5f805160206132b68339815191526120a08484611328565b61211f575f848152602082815260408083206001600160a01b03871684529091529020805460ff191660011790556120d53390565b6001600160a01b0316836001600160a01b0316857f2f8788117e7eff1d82e926ec794901d17c78024a50270940304540a733656f0d60405160405180910390a460019150506108f7565b5f9150506108f7565b5092915050565b5f5f805160206132b68339815191526121488484611328565b1561211f575f848152602082815260408083206001600160a01b0387168085529252808320805460ff1916905551339287917ff6391f5c32d9c69d2a47ea670b442974b53935d1edc7fd64eb21e047a839171b9190a460019150506108f7565b306001600160a01b037f000000000000000000000000000000000000000000000000000000000000000016148061222e57507f00000000000000000000000000000000000000000000000000000000000000006001600160a01b03166122225f80516020613296833981519152546001600160a01b031690565b6001600160a01b031614155b1561224c5760405163703e46dd60e11b815260040160405180910390fd5b565b5f546001600160a01b0316331461227857604051630e05f48560e11b815260040160405180910390fd5b6001600160a01b0381166113255760405162461bcd60e51b815260206004820152600c60248201526b5a45524f5f4144445245535360a01b60448201526064016109de565b816001600160a01b03166352d1902d6040518163ffffffff1660e01b8152600401602060405180830381865afa925050508015612317575060408051601f3d908101601f19168201909252612314918101906130c0565b60015b61233f57604051634c9c8ce360e01b81526001600160a01b03831660048201526024016109de565b5f80516020613296833981519152811461236f57604051632a87526960e21b8152600481018290526024016109de565b610a8d83836127c7565b306001600160a01b037f0000000000000000000000000000000000000000000000000000000000000000161461224c5760405163703e46dd60e11b815260040160405180910390fd5b6003545f906123d38461271061319f565b6123dd91906131b6565b90505f60015f9054906101000a90046001600160a01b03166001600160a01b0316638f770ad06040518163ffffffff1660e01b8152600401602060405180830381865afa158015612430573d5f803e3d5ffd5b505050506040513d601f19601f8201168201806040525081019061245491906130c0565b905080821461212857808211156124c05782156124985761247361281c565b61247d818361318c565b60095f82825461248d91906130eb565b909155506124d29050565b5f6124a3828461318c565b90506124ae81612876565b6124b890836130eb565b9250506124d2565b6124d26124cd838361318c565b61298a565b600154604051635b51facd60e11b8152600481018490526001600160a01b039091169063b6a3f59a906024015f604051808303815f87803b158015612515575f80fd5b505af1158015612527573d5f803e3d5ffd5b505060408051848152602081018690529081018790527fcaa0e97f9fe323a4de2e9d815de4f7f3c527c0c07607e968d758c30d17998a829250606001905060405180910390a15092915050565b61257c61265f565b5f805160206132d6833981519152805460ff191660011781557f62e78cea01bee320cd4e420270b5ea74000d11b0c9f74754ebdbfc544b05a258335b6040516001600160a01b039091168152602001610a2d565b6125d86129ab565b5f805160206132d6833981519152805460ff191681557f5db9ee0a495bf2e6ff9c91a7834c1ba4fdd244a5e8aa4e537bd38aeae4b073aa336125b8565b7f9b779b17422d0df92223018b32b4d1fa46e071723d6817e2486d003becc55f0080546001190161265957604051633ee5aeb560e01b815260040160405180910390fd5b60029055565b5f805160206132d68339815191525460ff161561224c5760405163d93c066560e01b815260040160405180910390fd5b5f805f8061269d86866129da565b9250925092506126ad8282612a23565b5090949350505050565b60017f9b779b17422d0df92223018b32b4d1fa46e071723d6817e2486d003becc55f0055565b5f807ff0c57e16840df040f15088dc2f81fe391c3923bec73e23a9662efc9c229c6a006108f7565b61224c612adb565b612715612adb565b61224c612b00565b6001600160a01b038116612744576040516350c0eb2960e11b815260040160405180910390fd5b5f80546001600160a01b0319166001600160a01b03831690811782556040519091907fae97011a27b5efe7b1d76fe38e75cc498fd64cc24e407a9c6b2185d27f611f7e908290a350565b6127988282611328565b610d585760405163e2517d3f60e01b81526001600160a01b0382166004820152602481018390526044016109de565b6127d082612b08565b6040516001600160a01b038316907fbc7cd75a20ee27fd9adebab32041f755214dbc6bffa90cc0225b39da2e5c2d3b905f90a280511561281457610a8d8282612b6b565b610d58612bdd565b600b5461282c90620151806130eb565b421061224c575f6009819055600a5542600b8190556040519081527feb8851ffe677ee59cfd62362b04c2d5bd85d047caeb4426256021c22e58616949060200160405180910390a1565b5f61287f61281c565b5f600a5460095411612891575f6128a1565b600a546009546128a1919061318c565b90505f81600854116128b3575f6128c1565b816008546128c1919061318c565b90505f81116129125760405162461bcd60e51b815260206004820152601960248201527f4441494c595f4341505f4c494d49545f4558484155535445440000000000000060448201526064016109de565b80841161291f5783612921565b805b92508260095f82825461293491906130eb565b9091555050838310156129835760408051858152602081018590529081018290527ffd6ec57e8bac6ad5c7a061343d370b927217dd6cd0e06f035d9084e04d3118439060600160405180910390a15b5050919050565b61299261281c565b80600a5f8282546129a391906130eb565b909155505050565b5f805160206132d68339815191525460ff1661224c57604051638dfc202b60e01b815260040160405180910390fd5b5f805f8351604103612a11576020840151604085015160608601515f1a612a0388828585612bfc565b955095509550505050612a1c565b505081515f91506002905b9250925092565b5f826003811115612a3657612a3661324b565b03612a3f575050565b6001826003811115612a5357612a5361324b565b03612a715760405163f645eedf60e01b815260040160405180910390fd5b6002826003811115612a8557612a8561324b565b03612aa65760405163fce698f760e01b8152600481018290526024016109de565b6003826003811115612aba57612aba61324b565b03610d58576040516335e2f38360e21b8152600481018290526024016109de565b612ae3612cc4565b61224c57604051631afcd79f60e31b815260040160405180910390fd5b6126b7612adb565b806001600160a01b03163b5f03612b3d57604051634c9c8ce360e01b81526001600160a01b03821660048201526024016109de565b5f8051602061329683398151915280546001600160a01b0319166001600160a01b0392909216919091179055565b60605f80846001600160a01b031684604051612b87919061325f565b5f60405180830381855af49150503d805f8114612bbf576040519150601f19603f3d011682016040523d82523d5f602084013e612bc4565b606091505b5091509150612bd4858383612cdd565b95945050505050565b341561224c5760405163b398979f60e01b815260040160405180910390fd5b5f80807f7fffffffffffffffffffffffffffffff5d576e7357a4501ddfe92f46681b20a0841115612c3557505f91506003905082612cba565b604080515f808252602082018084528a905260ff891692820192909252606081018790526080810186905260019060a0016020604051602081039080840390855afa158015612c86573d5f803e3d5ffd5b5050604051601f1901519150506001600160a01b038116612cb157505f925060019150829050612cba565b92505f91508190505b9450945094915050565b5f612ccd6126dd565b54600160401b900460ff16919050565b606082612cf257612ced82612d3c565b612d35565b8151158015612d0957506001600160a01b0384163b155b15612d3257604051639996b31560e01b81526001600160a01b03851660048201526024016109de565b50805b9392505050565b805115612d4b57805160208201fd5b60405163d6bda27560e01b815260040160405180910390fd5b5f60208284031215612d74575f80fd5b81356001600160e01b031981168114612d35575f80fd5b5f60208284031215612d9b575f80fd5b5035919050565b80356001600160a01b0381168114612db8575f80fd5b919050565b5f8060408385031215612dce575f80fd5b82359150612dde60208401612da2565b90509250929050565b5f8083601f840112612df7575f80fd5b50813567ffffffffffffffff811115612e0e575f80fd5b602083019150836020828501011115612e25575f80fd5b9250929050565b5f805f60408486031215612e3e575f80fd5b83359250602084013567ffffffffffffffff811115612e5b575f80fd5b612e6786828701612de7565b9497909650939450505050565b634e487b7160e01b5f52604160045260245ffd5b5f8060408385031215612e99575f80fd5b612ea283612da2565b9150602083013567ffffffffffffffff811115612ebd575f80fd5b8301601f81018513612ecd575f80fd5b803567ffffffffffffffff811115612ee757612ee7612e74565b604051601f8201601f19908116603f0116810167ffffffffffffffff81118282101715612f1657612f16612e74565b604052818152828201602001871015612f2d575f80fd5b816020840160208301375f602083830101528093505050509250929050565b5f8083601f840112612f5c575f80fd5b50813567ffffffffffffffff811115612f73575f80fd5b6020830191508360208260051b8501011115612e25575f80fd5b5f805f60408486031215612f9f575f80fd5b833567ffffffffffffffff811115612fb5575f80fd5b612fc186828701612f4c565b9094509250612fd4905060208501612da2565b90509250925092565b602081525f82518060208401528060208501604085015e5f604082850101526040601f19601f83011684010191505092915050565b5f805f83850360a0811215613025575f80fd5b6080811215613032575f80fd5b50839250608084013567ffffffffffffffff81111561304f575f80fd5b612e6786828701612f4c565b5f6020828403121561306b575f80fd5b612d3582612da2565b5f805f805f60a08688031215613088575f80fd5b8535945061309860208701612da2565b935060408601359250606086013591506130b460808701612da2565b90509295509295909350565b5f602082840312156130d0575f80fd5b5051919050565b634e487b7160e01b5f52601160045260245ffd5b808201808211156108f7576108f76130d7565b6020808252600f908201526e14915054d3d397d491545552549151608a1b604082015260600190565b81835281816020850137505f828201602090810191909152601f909101601f19169091010190565b848152836020820152606060408201525f61316e606083018486613127565b9695505050505050565b634e487b7160e01b5f52603260045260245ffd5b818103818111156108f7576108f76130d7565b80820281158282048414176108f7576108f76130d7565b5f826131d057634e487b7160e01b5f52601260045260245ffd5b500490565b5f808335601e198436030181126131ea575f80fd5b83018035915067ffffffffffffffff821115613204575f80fd5b602001915036819003821315612e25575f80fd5b5f60018201613229576132296130d7565b5060010190565b602081525f613243602083018486613127565b949350505050565b634e487b7160e01b5f52602160045260245ffd5b5f82518060208501845e5f92019182525091905056febf233dd2aafeb4d50879c4aa5c81e96d92f6e6945c906a58f9f2d1c1631b4b26360894a13ba1a3210667c828492db98dca3e2076cc3735a920a3ca505d382bbc02dd7bc7dec4dceedda775e58dd541e08a116c6c53815c0bd028192f7b626800cd5ed15c6e187e77e9aee88184c21f4f2182ab5827cb3b7e07fbedcd63f03300a2646970667358221220b52ec54d1154277005269a8ac90ca14b0fc3cfe7a995b906fdaa3c10e2b7c4f064736f6c634300081a0033","linkReferences":{}},"methodIdentifiers":{"DEFAULT_ADMIN_ROLE()":"a217fddf","EMERGENCY_ROLE()":"20df4359","MAX_ATTESTATION_AGE()":"b9f7bb8d","MIN_ATTESTATION_GAP()":"196143d0","RELAYER_ROLE()":"926d7d7f","UNPAUSE_DELAY()":"b7c36b36","UPGRADE_INTERFACE_VERSION()":"ad3cb1cc","VALIDATOR_ROLE()":"c49baebe","attestedCantonAssets()":"39cd92f7","calculateSupplyCap(uint256)":"b43ccab6","collateralRatioBps()":"593855a0","currentNonce()":"adb610a3","dailyCapDecreased()":"27413d90","dailyCapIncreaseLimit()":"2d44d1ea","dailyCapIncreased()":"f86dd9dc","emergencyReduceCap(uint256,string)":"3a08af6d","executeUnpause()":"9bdfce98","forceUpdateNonce(uint256,string)":"efb59e9e","getCurrentSupplyCap()":"046e8b47","getHealthRatio()":"7914334f","getNetDailyCapIncrease()":"ecdff91a","getRemainingDailyCapLimit()":"ddd3b81d","getRemainingMintable()":"6f97e31c","getRoleAdmin(bytes32)":"248a9ca3","grantRole(bytes32,address)":"2f2ff15d","hasRole(bytes32,address)":"91d14854","initialize(uint256,address,uint256,uint256,address)":"cd3d8687","invalidateAttestationId(bytes32,string)":"dd344ba1","lastAttestationTime()":"4b8fd35c","lastRateLimitReset()":"6629a2d6","lastRatioChangeTime()":"3eaa2a8b","migrateUsedAttestations(bytes32[],address)":"57575a26","minSignatures()":"238acaa2","musdToken()":"9d78d46b","pause()":"8456cb59","paused()":"5c975abb","processAttestation((bytes32,uint256,uint256,uint256),bytes[])":"bca8c7eb","proxiableUUID()":"52d1902d","renounceRole(bytes32,address)":"36568abe","requestUnpause()":"24fe722e","revokeRole(bytes32,address)":"d547741f","setCollateralRatio(uint256)":"6060663e","setDailyCapIncreaseLimit(uint256)":"9b7bff4a","setMUSDToken(address)":"c8be18b6","setMinSignatures(uint256)":"5a546098","setTimelock(address)":"bdacb303","supportsInterface(bytes4)":"01ffc9a7","timelock()":"d33219b4","unpause()":"3f4ba83a","unpauseRequestTime()":"f21d64a6","upgradeToAndCall(address,bytes)":"4f1ef286","usedAttestationIds(bytes32)":"b9cbb07d"},"storageLayout":{"storage":[{"astId":1326,"contract":"contracts/BLEBridgeV9.sol:BLEBridgeV9","label":"timelock","offset":0,"slot":"0","type":"t_address"},{"astId":46,"contract":"contracts/BLEBridgeV9.sol:BLEBridgeV9","label":"musdToken","offset":0,"slot":"1","type":"t_contract(IMUSD)1475"},{"astId":48,"contract":"contracts/BLEBridgeV9.sol:BLEBridgeV9","label":"attestedCantonAssets","offset":0,"slot":"2","type":"t_uint256"},{"astId":50,"contract":"contracts/BLEBridgeV9.sol:BLEBridgeV9","label":"collateralRatioBps","offset":0,"slot":"3","type":"t_uint256"},{"astId":52,"contract":"contracts/BLEBridgeV9.sol:BLEBridgeV9","label":"currentNonce","offset":0,"slot":"4","type":"t_uint256"},{"astId":54,"contract":"contracts/BLEBridgeV9.sol:BLEBridgeV9","label":"minSignatures","offset":0,"slot":"5","type":"t_uint256"},{"astId":56,"contract":"contracts/BLEBridgeV9.sol:BLEBridgeV9","label":"lastAttestationTime","offset":0,"slot":"6","type":"t_uint256"},{"astId":58,"contract":"contracts/BLEBridgeV9.sol:BLEBridgeV9","label":"lastRatioChangeTime","offset":0,"slot":"7","type":"t_uint256"},{"astId":60,"contract":"contracts/BLEBridgeV9.sol:BLEBridgeV9","label":"dailyCapIncreaseLimit","offset":0,"slot":"8","type":"t_uint256"},{"astId":62,"contract":"contracts/BLEBridgeV9.sol:BLEBridgeV9","label":"dailyCapIncreased","offset":0,"slot":"9","type":"t_uint256"},{"astId":64,"contract":"contracts/BLEBridgeV9.sol:BLEBridgeV9","label":"dailyCapDecreased","offset":0,"slot":"10","type":"t_uint256"},{"astId":66,"contract":"contracts/BLEBridgeV9.sol:BLEBridgeV9","label":"lastRateLimitReset","offset":0,"slot":"11","type":"t_uint256"},{"astId":68,"contract":"contracts/BLEBridgeV9.sol:BLEBridgeV9","label":"unpauseRequestTime","offset":0,"slot":"12","type":"t_uint256"},{"astId":80,"contract":"contracts/BLEBridgeV9.sol:BLEBridgeV9","label":"usedAttestationIds","offset":0,"slot":"13","type":"t_mapping(t_bytes32,t_bool)"},{"astId":1319,"contract":"contracts/BLEBridgeV9.sol:BLEBridgeV9","label":"__gap","offset":0,"slot":"14","type":"t_array(t_uint256)34_storage"}],"types":{"t_address":{"encoding":"inplace","label":"address","numberOfBytes":"20"},"t_array(t_uint256)34_storage":{"encoding":"inplace","label":"uint256[34]","numberOfBytes":"1088","base":"t_uint256"},"t_bool":{"encoding":"inplace","label":"bool","numberOfBytes":"1"},"t_bytes32":{"encoding":"inplace","label":"bytes32","numberOfBytes":"32"},"t_contract(IMUSD)1475":{"encoding":"inplace","label":"contract IMUSD","numberOfBytes":"20"},"t_mapping(t_bytes32,t_bool)":{"encoding":"mapping","key":"t_bytes32","label":"mapping(bytes32 => bool)","numberOfBytes":"32","value":"t_bool"},"t_uint256":{"encoding":"inplace","label":"uint256","numberOfBytes":"32"}}},"id":0}