{"abi":[{"type":"constructor","inputs":[{"name":"_usdc","type":"address","internalType":"address"}],"stateMutability":"nonpayable"},{"type":"function","name":"activeMarketId","inputs":[],"outputs":[{"name":"","type":"bytes32","internalType":"bytes32"}],"stateMutability":"view"},{"type":"function","name":"borrow","inputs":[{"name":"","type":"tuple","internalType":"struct MockMorphoBlue.MarketParams","components":[{"name":"loanToken","type":"address","internalType":"address"},{"name":"collateralToken","type":"address","internalType":"address"},{"name":"oracle","type":"address","internalType":"address"},{"name":"irm","type":"address","internalType":"address"},{"name":"lltv","type":"uint256","internalType":"uint256"}]},{"name":"assets","type":"uint256","internalType":"uint256"},{"name":"","type":"uint256","internalType":"uint256"},{"name":"onBehalf","type":"address","internalType":"address"},{"name":"receiver","type":"address","internalType":"address"}],"outputs":[{"name":"assetsBorrowed","type":"uint256","internalType":"uint256"},{"name":"sharesBorrowed","type":"uint256","internalType":"uint256"}],"stateMutability":"nonpayable"},{"type":"function","name":"idToMarketParams","inputs":[{"name":"id","type":"bytes32","internalType":"bytes32"}],"outputs":[{"name":"","type":"tuple","internalType":"struct MockMorphoBlue.MarketParams","components":[{"name":"loanToken","type":"address","internalType":"address"},{"name":"collateralToken","type":"address","internalType":"address"},{"name":"oracle","type":"address","internalType":"address"},{"name":"irm","type":"address","internalType":"address"},{"name":"lltv","type":"uint256","internalType":"uint256"}]}],"stateMutability":"view"},{"type":"function","name":"market","inputs":[{"name":"","type":"bytes32","internalType":"bytes32"}],"outputs":[{"name":"","type":"uint128","internalType":"uint128"},{"name":"","type":"uint128","internalType":"uint128"},{"name":"","type":"uint128","internalType":"uint128"},{"name":"","type":"uint128","internalType":"uint128"},{"name":"","type":"uint128","internalType":"uint128"},{"name":"","type":"uint128","internalType":"uint128"}],"stateMutability":"view"},{"type":"function","name":"marketParams","inputs":[{"name":"","type":"bytes32","internalType":"bytes32"}],"outputs":[{"name":"loanToken","type":"address","internalType":"address"},{"name":"collateralToken","type":"address","internalType":"address"},{"name":"oracle","type":"address","internalType":"address"},{"name":"irm","type":"address","internalType":"address"},{"name":"lltv","type":"uint256","internalType":"uint256"}],"stateMutability":"view"},{"type":"function","name":"position","inputs":[{"name":"id","type":"bytes32","internalType":"bytes32"},{"name":"user","type":"address","internalType":"address"}],"outputs":[{"name":"","type":"tuple","internalType":"struct MockMorphoBlue.Position","components":[{"name":"supplyShares","type":"uint256","internalType":"uint256"},{"name":"borrowShares","type":"uint128","internalType":"uint128"},{"name":"collateral","type":"uint128","internalType":"uint128"}]}],"stateMutability":"view"},{"type":"function","name":"positions","inputs":[{"name":"","type":"bytes32","internalType":"bytes32"},{"name":"","type":"address","internalType":"address"}],"outputs":[{"name":"supplyShares","type":"uint256","internalType":"uint256"},{"name":"borrowShares","type":"uint128","internalType":"uint128"},{"name":"collateral","type":"uint128","internalType":"uint128"}],"stateMutability":"view"},{"type":"function","name":"repay","inputs":[{"name":"","type":"tuple","internalType":"struct MockMorphoBlue.MarketParams","components":[{"name":"loanToken","type":"address","internalType":"address"},{"name":"collateralToken","type":"address","internalType":"address"},{"name":"oracle","type":"address","internalType":"address"},{"name":"irm","type":"address","internalType":"address"},{"name":"lltv","type":"uint256","internalType":"uint256"}]},{"name":"assets","type":"uint256","internalType":"uint256"},{"name":"","type":"uint256","internalType":"uint256"},{"name":"onBehalf","type":"address","internalType":"address"},{"name":"","type":"bytes","internalType":"bytes"}],"outputs":[{"name":"assetsRepaid","type":"uint256","internalType":"uint256"},{"name":"sharesRepaid","type":"uint256","internalType":"uint256"}],"stateMutability":"nonpayable"},{"type":"function","name":"seedLiquidity","inputs":[{"name":"amount","type":"uint256","internalType":"uint256"}],"outputs":[],"stateMutability":"nonpayable"},{"type":"function","name":"setMarketParams","inputs":[{"name":"marketId","type":"bytes32","internalType":"bytes32"},{"name":"loanToken","type":"address","internalType":"address"},{"name":"collateralToken","type":"address","internalType":"address"},{"name":"oracle","type":"address","internalType":"address"},{"name":"irm","type":"address","internalType":"address"},{"name":"lltv","type":"uint256","internalType":"uint256"}],"outputs":[],"stateMutability":"nonpayable"},{"type":"function","name":"supply","inputs":[{"name":"","type":"tuple","internalType":"struct MockMorphoBlue.MarketParams","components":[{"name":"loanToken","type":"address","internalType":"address"},{"name":"collateralToken","type":"address","internalType":"address"},{"name":"oracle","type":"address","internalType":"address"},{"name":"irm","type":"address","internalType":"address"},{"name":"lltv","type":"uint256","internalType":"uint256"}]},{"name":"assets","type":"uint256","internalType":"uint256"},{"name":"","type":"uint256","internalType":"uint256"},{"name":"onBehalf","type":"address","internalType":"address"},{"name":"","type":"bytes","internalType":"bytes"}],"outputs":[{"name":"assetsSupplied","type":"uint256","internalType":"uint256"},{"name":"sharesSupplied","type":"uint256","internalType":"uint256"}],"stateMutability":"nonpayable"},{"type":"function","name":"supplyCollateral","inputs":[{"name":"","type":"tuple","internalType":"struct MockMorphoBlue.MarketParams","components":[{"name":"loanToken","type":"address","internalType":"address"},{"name":"collateralToken","type":"address","internalType":"address"},{"name":"oracle","type":"address","internalType":"address"},{"name":"irm","type":"address","internalType":"address"},{"name":"lltv","type":"uint256","internalType":"uint256"}]},{"name":"assets","type":"uint256","internalType":"uint256"},{"name":"onBehalf","type":"address","internalType":"address"},{"name":"","type":"bytes","internalType":"bytes"}],"outputs":[],"stateMutability":"nonpayable"},{"type":"function","name":"totalBorrowAssets","inputs":[],"outputs":[{"name":"","type":"uint128","internalType":"uint128"}],"stateMutability":"view"},{"type":"function","name":"totalBorrowShares","inputs":[],"outputs":[{"name":"","type":"uint128","internalType":"uint128"}],"stateMutability":"view"},{"type":"function","name":"totalSupplyAssets","inputs":[],"outputs":[{"name":"","type":"uint128","internalType":"uint128"}],"stateMutability":"view"},{"type":"function","name":"totalSupplyShares","inputs":[],"outputs":[{"name":"","type":"uint128","internalType":"uint128"}],"stateMutability":"view"},{"type":"function","name":"usdc","inputs":[],"outputs":[{"name":"","type":"address","internalType":"contract IERC20"}],"stateMutability":"view"},{"type":"function","name":"withdraw","inputs":[{"name":"","type":"tuple","internalType":"struct MockMorphoBlue.MarketParams","components":[{"name":"loanToken","type":"address","internalType":"address"},{"name":"collateralToken","type":"address","internalType":"address"},{"name":"oracle","type":"address","internalType":"address"},{"name":"irm","type":"address","internalType":"address"},{"name":"lltv","type":"uint256","internalType":"uint256"}]},{"name":"assets","type":"uint256","internalType":"uint256"},{"name":"","type":"uint256","internalType":"uint256"},{"name":"onBehalf","type":"address","internalType":"address"},{"name":"receiver","type":"address","internalType":"address"}],"outputs":[{"name":"assetsWithdrawn","type":"uint256","internalType":"uint256"},{"name":"sharesWithdrawn","type":"uint256","internalType":"uint256"}],"stateMutability":"nonpayable"},{"type":"function","name":"withdrawCollateral","inputs":[{"name":"","type":"tuple","internalType":"struct MockMorphoBlue.MarketParams","components":[{"name":"loanToken","type":"address","internalType":"address"},{"name":"collateralToken","type":"address","internalType":"address"},{"name":"oracle","type":"address","internalType":"address"},{"name":"irm","type":"address","internalType":"address"},{"name":"lltv","type":"uint256","internalType":"uint256"}]},{"name":"assets","type":"uint256","internalType":"uint256"},{"name":"onBehalf","type":"address","internalType":"address"},{"name":"receiver","type":"address","internalType":"address"}],"outputs":[],"stateMutability":"nonpayable"},{"type":"error","name":"SafeERC20FailedOperation","inputs":[{"name":"token","type":"address","internalType":"address"}]}],"bytecode":{"object":"0x6080604052348015600e575f80fd5b50604051611264380380611264833981016040819052602b916083565b600480546001600160a01b0319166001600160a01b0392909216919091179055755af3107a4000000000000000000000005af3107a4000600255752d79883d2000000000000000000000002d79883d200060035560ae565b5f602082840312156092575f80fd5b81516001600160a01b038116811460a7575f80fd5b9392505050565b6111a9806100bb5f395ff3fe608060405234801561000f575f80fd5b506004361061011c575f3560e01c80635c2bea49116100a957806393c520621161006e57806393c520621461052757806394877fc41461056d578063a99aad8914610580578063ba7bde5514610593578063c57fed13146105ad575f80fd5b80635c2bea49146103e45780635c60e39a146103f7578063619f42d1146104755780637fd065f91461048c5780638720316d14610514575f80fd5b806329d88594116100ef57806329d88594146101a75780632c3c91571461020e5780633e413bee146102f15780634f7e26a91461031c57806350d8cd4b146103d1575f80fd5b8063136cf1f7146101205780631aad44c21461015757806320b76e811461016a578063238d657914610192575b5f80fd5b60035461013a90600160801b90046001600160801b031681565b6040516001600160801b0390911681526020015b60405180910390f35b60035461013a906001600160801b031681565b61017d610178366004610ede565b6105c0565b6040805192835260208301919091520161014e565b6101a56101a0366004610f4e565b610759565b005b6101e96101b5366004610fb4565b600160208181525f9384526040808520909152918352912080549101546001600160801b0380821691600160801b90041683565b604080519384526001600160801b03928316602085015291169082015260600161014e565b6102a261021c366004610fde565b6040805160a0810182525f80825260208201819052918101829052606081018290526080810191909152505f9081526020818152604091829020825160a08101845281546001600160a01b039081168252600183015481169382019390935260028201548316938101939093526003810154909116606083015260040154608082015290565b60405161014e919081516001600160a01b039081168252602080840151821690830152604080840151821690830152606080840151909116908201526080918201519181019190915260a00190565b600454610304906001600160a01b031681565b6040516001600160a01b03909116815260200161014e565b6101a561032a366004610ff5565b6040805160a0810182526001600160a01b039687168152948616602080870191825294871686830190815293871660608701908152608087019384525f8981529586905291909420945185546001600160a01b03199081169188169190911786559351600186018054861691881691909117905591516002850180548516918716919091179055905160038401805490931694169390931790559051600490910155600555565b61017d6103df366004611059565b6107e4565b61017d6103f2366004611059565b6108fb565b610433610405366004610fde565b506002546003546001600160801b0380831693600160801b9384900482169382841693049091169042905f90565b604080516001600160801b03978816815295871660208701529386169385019390935290841660608401528316608083015290911660a082015260c00161014e565b61047e60055481565b60405190815260200161014e565b6104d961049a366004610fde565b5f60208190529081526040902080546001820154600283015460038401546004909401546001600160a01b039384169492841693918216929091169085565b604080516001600160a01b0396871681529486166020860152928516928401929092529092166060820152608081019190915260a00161014e565b6101a56105223660046110af565b610a0a565b61053a610535366004610fb4565b610b19565b60408051825181526020808401516001600160801b0390811691830191909152928201519092169082015260600161014e565b60025461013a906001600160801b031681565b61017d61058e366004610ede565b610b8a565b60025461013a90600160801b90046001600160801b031681565b6101a56105bb366004610fde565b610c78565b6004545f9081906105dc906001600160a01b0316333089610c93565b6005545f9081526001602081815260408084206001600160a01b0389168552909152909120015486906001600160801b03908116908216111561064b57506005545f9081526001602081815260408084206001600160a01b038916855290915290912001546001600160801b03165b6005545f9081526001602081815260408084206001600160a01b038a16855290915282200180548392906106899084906001600160801b031661110f565b92506101000a8154816001600160801b0302191690836001600160801b031602179055508660035f8282829054906101000a90046001600160801b03166106d0919061110f565b92506101000a8154816001600160801b0302191690836001600160801b0316021790555080600360108282829054906101000a90046001600160801b0316610718919061110f565b92506101000a8154816001600160801b0302191690836001600160801b031602179055508681806001600160801b0316905092509250509550959350505050565b600454610771906001600160a01b0316333086610c93565b6005545f9081526001602081815260408084206001600160a01b03871685529091529091200180548491906010906107ba908490600160801b90046001600160801b031661112e565b92506101000a8154816001600160801b0302191690836001600160801b0316021790555050505050565b6005545f9081526001602081815260408084206001600160a01b038716855290915282200180548291879183906108259084906001600160801b031661112e565b92506101000a8154816001600160801b0302191690836001600160801b031602179055508560035f8282829054906101000a90046001600160801b031661086c919061112e565b92506101000a8154816001600160801b0302191690836001600160801b0316021790555085600360108282829054906101000a90046001600160801b03166108b4919061112e565b82546001600160801b039182166101009390930a9283029190920219909116179055506004546108ee906001600160a01b03168488610cfa565b5093958695509350505050565b6005545f9081526001602090815260408083206001600160a01b0386168452909152812054819086111561096c5760405162461bcd60e51b8152602060048201526013602482015272496e73756666696369656e7420737570706c7960681b60448201526064015b60405180910390fd5b6005545f9081526001602090815260408083206001600160a01b0388168452909152812080548892906109a090849061114d565b9091555050600280548791905f906109c29084906001600160801b031661110f565b92506101000a8154816001600160801b0302191690836001600160801b0316021790555085600260108282829054906101000a90046001600160801b03166108b4919061110f565b6005545f9081526001602081815260408084206001600160a01b03871685529091529091200154600160801b90046001600160801b0316831115610a905760405162461bcd60e51b815260206004820152601760248201527f496e73756666696369656e7420636f6c6c61746572616c0000000000000000006044820152606401610963565b6005545f9081526001602081815260408084206001600160a01b0387168552909152909120018054849190601090610ad9908490600160801b90046001600160801b031661110f565b82546001600160801b039182166101009390930a928302919092021990911617905550600454610b13906001600160a01b03168285610cfa565b50505050565b60408051606080820183525f808352602080840182905292840181905285815260018084528482206001600160a01b0387168352845290849020845192830185528054835201546001600160801b0380821693830193909352600160801b9004909116918101919091525b92915050565b6004545f908190610ba6906001600160a01b0316333089610c93565b6005545f9081526001602090815260408083206001600160a01b038816845290915281208054889290610bda908490611160565b9091555050600280548791905f90610bfc9084906001600160801b031661112e565b92506101000a8154816001600160801b0302191690836001600160801b0316021790555085600260108282829054906101000a90046001600160801b0316610c44919061112e565b92506101000a8154816001600160801b0302191690836001600160801b031602179055508586915091509550959350505050565b600454610c90906001600160a01b0316333084610c93565b50565b6040516001600160a01b038481166024830152838116604483015260648201839052610b139186918216906323b872dd906084015b604051602081830303815290604052915060e01b6020820180516001600160e01b038381831617835250505050610d30565b6040516001600160a01b03838116602483015260448201839052610d2b91859182169063a9059cbb90606401610cc8565b505050565b5f8060205f8451602086015f885af180610d4f576040513d5f823e3d81fd5b50505f513d91508115610d66578060011415610d73565b6001600160a01b0384163b155b15610b1357604051635274afe760e01b81526001600160a01b0385166004820152602401610963565b634e487b7160e01b5f52604160045260245ffd5b80356001600160a01b0381168114610dc6575f80fd5b919050565b5f60a08284031215610ddb575f80fd5b60405160a0810167ffffffffffffffff81118282101715610dfe57610dfe610d9c565b604052905080610e0d83610db0565b8152610e1b60208401610db0565b6020820152610e2c60408401610db0565b6040820152610e3d60608401610db0565b6060820152608092830135920191909152919050565b5f82601f830112610e62575f80fd5b813567ffffffffffffffff811115610e7c57610e7c610d9c565b604051601f8201601f19908116603f0116810167ffffffffffffffff81118282101715610eab57610eab610d9c565b604052818152838201602001851015610ec2575f80fd5b816020850160208301375f918101602001919091529392505050565b5f805f805f6101208688031215610ef3575f80fd5b610efd8787610dcb565b945060a0860135935060c08601359250610f1960e08701610db0565b915061010086013567ffffffffffffffff811115610f35575f80fd5b610f4188828901610e53565b9150509295509295909350565b5f805f806101008587031215610f62575f80fd5b610f6c8686610dcb565b935060a08501359250610f8160c08601610db0565b915060e085013567ffffffffffffffff811115610f9c575f80fd5b610fa887828801610e53565b91505092959194509250565b5f8060408385031215610fc5575f80fd5b82359150610fd560208401610db0565b90509250929050565b5f60208284031215610fee575f80fd5b5035919050565b5f805f805f8060c0878903121561100a575f80fd5b8635955061101a60208801610db0565b945061102860408801610db0565b935061103660608801610db0565b925061104460808801610db0565b9598949750929591949360a090920135925050565b5f805f805f610120868803121561106e575f80fd5b6110788787610dcb565b945060a0860135935060c0860135925061109460e08701610db0565b91506110a36101008701610db0565b90509295509295909350565b5f805f8061010085870312156110c3575f80fd5b6110cd8686610dcb565b935060a085013592506110e260c08601610db0565b91506110f060e08601610db0565b905092959194509250565b634e487b7160e01b5f52601160045260245ffd5b6001600160801b038281168282160390811115610b8457610b846110fb565b6001600160801b038181168382160190811115610b8457610b846110fb565b81810381811115610b8457610b846110fb565b80820180821115610b8457610b846110fb56fea26469706673582212205fd0d49b94cc2b82bf15d8d40e3d43068dc043987466e7a5f4faa82d1f94210a64736f6c634300081a0033","linkReferences":{}},"methodIdentifiers":{"activeMarketId()":"619f42d1","borrow((address,address,address,address,uint256),uint256,uint256,address,address)":"50d8cd4b","idToMarketParams(bytes32)":"2c3c9157","market(bytes32)":"5c60e39a","marketParams(bytes32)":"7fd065f9","position(bytes32,address)":"93c52062","positions(bytes32,address)":"29d88594","repay((address,address,address,address,uint256),uint256,uint256,address,bytes)":"20b76e81","seedLiquidity(uint256)":"c57fed13","setMarketParams(bytes32,address,address,address,address,uint256)":"4f7e26a9","supply((address,address,address,address,uint256),uint256,uint256,address,bytes)":"a99aad89","supplyCollateral((address,address,address,address,uint256),uint256,address,bytes)":"238d6579","totalBorrowAssets()":"1aad44c2","totalBorrowShares()":"136cf1f7","totalSupplyAssets()":"94877fc4","totalSupplyShares()":"ba7bde55","usdc()":"3e413bee","withdraw((address,address,address,address,uint256),uint256,uint256,address,address)":"5c2bea49","withdrawCollateral((address,address,address,address,uint256),uint256,address,address)":"8720316d"},"id":47}