{"abi":[{"type":"constructor","inputs":[{"name":"decimals_","type":"uint8","internalType":"uint8"},{"name":"initialAnswer","type":"int256","internalType":"int256"}],"stateMutability":"nonpayable"},{"type":"function","name":"decimals","inputs":[],"outputs":[{"name":"","type":"uint8","internalType":"uint8"}],"stateMutability":"view"},{"type":"function","name":"latestRoundData","inputs":[],"outputs":[{"name":"roundId","type":"uint80","internalType":"uint80"},{"name":"answer","type":"int256","internalType":"int256"},{"name":"startedAt","type":"uint256","internalType":"uint256"},{"name":"updatedAt","type":"uint256","internalType":"uint256"},{"name":"answeredInRound","type":"uint80","internalType":"uint80"}],"stateMutability":"view"},{"type":"function","name":"setAnswer","inputs":[{"name":"answer","type":"int256","internalType":"int256"}],"outputs":[],"stateMutability":"nonpayable"},{"type":"function","name":"setDecimals","inputs":[{"name":"decimals_","type":"uint8","internalType":"uint8"}],"outputs":[],"stateMutability":"nonpayable"},{"type":"function","name":"setUpdatedAt","inputs":[{"name":"timestamp","type":"uint256","internalType":"uint256"}],"outputs":[],"stateMutability":"nonpayable"}],"bytecode":{"object":"0x6080604052348015600e575f80fd5b50604051610285380380610285833981016040819052602b91605f565b5f805460ff191660ff9390931692909217909155600190815542600255600380546001600160501b0319169091179055608e565b5f8060408385031215606f575f80fd5b825160ff81168114607e575f80fd5b6020939093015192949293505050565b6101ea8061009b5f395ff3fe608060405234801561000f575f80fd5b5060043610610055575f3560e01c80631ecc7d8814610059578063313ce5671461006e5780637a1395aa1461008757806399213cd8146100aa578063feaf968c146100bd575b5f80fd5b61006c610067366004610140565b600255565b005b5f5460405160ff90911681526020015b60405180910390f35b61006c610095366004610157565b5f805460ff191660ff92909216919091179055565b61006c6100b8366004610140565b6100f7565b600354600154600254604080516001600160501b03909416808552602085019390935283018190526060830152608082015260a00161007e565b600181905542600255600380546001600160501b0316905f6101188361017e565b91906101000a8154816001600160501b0302191690836001600160501b031602179055505050565b5f60208284031215610150575f80fd5b5035919050565b5f60208284031215610167575f80fd5b813560ff81168114610177575f80fd5b9392505050565b5f6001600160501b0382166001600160501b0381036101ab57634e487b7160e01b5f52601160045260245ffd5b6001019291505056fea264697066735822122079c23a9019b521382fff4b17ef741263ecebecfc0bfb64a68ac26e20c3827be764736f6c634300081a0033","linkReferences":{}},"methodIdentifiers":{"decimals()":"313ce567","latestRoundData()":"feaf968c","setAnswer(int256)":"99213cd8","setDecimals(uint8)":"7a1395aa","setUpdatedAt(uint256)":"1ecc7d88"},"id":16}