{"abi":[{"type":"constructor","inputs":[],"stateMutability":"nonpayable"},{"type":"function","name":"ALLOCATOR_ROLE","inputs":[],"outputs":[{"name":"","type":"bytes32","internalType":"bytes32"}],"stateMutability":"view"},{"type":"function","name":"BPS","inputs":[],"outputs":[{"name":"","type":"uint256","internalType":"uint256"}],"stateMutability":"view"},{"type":"function","name":"DEFAULT_ADMIN_ROLE","inputs":[],"outputs":[{"name":"","type":"bytes32","internalType":"bytes32"}],"stateMutability":"view"},{"type":"function","name":"GUARDIAN_ROLE","inputs":[],"outputs":[{"name":"","type":"bytes32","internalType":"bytes32"}],"stateMutability":"view"},{"type":"function","name":"MAX_STRATEGIES","inputs":[],"outputs":[{"name":"","type":"uint256","internalType":"uint256"}],"stateMutability":"view"},{"type":"function","name":"MAX_YIELD_PER_ACCRUAL_BPS","inputs":[],"outputs":[{"name":"","type":"uint256","internalType":"uint256"}],"stateMutability":"view"},{"type":"function","name":"MIN_ACCRUAL_INTERVAL","inputs":[],"outputs":[{"name":"","type":"uint256","internalType":"uint256"}],"stateMutability":"view"},{"type":"function","name":"STRATEGIST_ROLE","inputs":[],"outputs":[{"name":"","type":"bytes32","internalType":"bytes32"}],"stateMutability":"view"},{"type":"function","name":"UPGRADE_INTERFACE_VERSION","inputs":[],"outputs":[{"name":"","type":"string","internalType":"string"}],"stateMutability":"view"},{"type":"function","name":"VAULT_ROLE","inputs":[],"outputs":[{"name":"","type":"bytes32","internalType":"bytes32"}],"stateMutability":"view"},{"type":"function","name":"accrueFees","inputs":[],"outputs":[],"stateMutability":"nonpayable"},{"type":"function","name":"addStrategy","inputs":[{"name":"strategy","type":"address","internalType":"address"},{"name":"targetBps","type":"uint256","internalType":"uint256"},{"name":"minBps","type":"uint256","internalType":"uint256"},{"name":"maxBps","type":"uint256","internalType":"uint256"},{"name":"autoAllocate","type":"bool","internalType":"bool"}],"outputs":[],"stateMutability":"nonpayable"},{"type":"function","name":"asset","inputs":[],"outputs":[{"name":"","type":"address","internalType":"contract IERC20"}],"stateMutability":"view"},{"type":"function","name":"availableReserves","inputs":[],"outputs":[{"name":"","type":"uint256","internalType":"uint256"}],"stateMutability":"view"},{"type":"function","name":"claimFees","inputs":[],"outputs":[],"stateMutability":"nonpayable"},{"type":"function","name":"deposit","inputs":[{"name":"from","type":"address","internalType":"address"},{"name":"amount","type":"uint256","internalType":"uint256"}],"outputs":[],"stateMutability":"nonpayable"},{"type":"function","name":"depositFromVault","inputs":[{"name":"amount","type":"uint256","internalType":"uint256"}],"outputs":[{"name":"allocations","type":"uint256[]","internalType":"uint256[]"}],"stateMutability":"nonpayable"},{"type":"function","name":"emergencyWithdrawAll","inputs":[],"outputs":[],"stateMutability":"nonpayable"},{"type":"function","name":"fees","inputs":[],"outputs":[{"name":"performanceFeeBps","type":"uint256","internalType":"uint256"},{"name":"accruedFees","type":"uint256","internalType":"uint256"},{"name":"feeRecipient","type":"address","internalType":"address"}],"stateMutability":"view"},{"type":"function","name":"getAllStrategies","inputs":[],"outputs":[{"name":"","type":"tuple[]","internalType":"struct TreasuryV2.StrategyConfig[]","components":[{"name":"strategy","type":"address","internalType":"address"},{"name":"targetBps","type":"uint256","internalType":"uint256"},{"name":"minBps","type":"uint256","internalType":"uint256"},{"name":"maxBps","type":"uint256","internalType":"uint256"},{"name":"active","type":"bool","internalType":"bool"},{"name":"autoAllocate","type":"bool","internalType":"bool"}]}],"stateMutability":"view"},{"type":"function","name":"getCurrentAllocations","inputs":[],"outputs":[{"name":"strategyAddresses","type":"address[]","internalType":"address[]"},{"name":"currentBps","type":"uint256[]","internalType":"uint256[]"},{"name":"_targetBps","type":"uint256[]","internalType":"uint256[]"}],"stateMutability":"view"},{"type":"function","name":"getRoleAdmin","inputs":[{"name":"role","type":"bytes32","internalType":"bytes32"}],"outputs":[{"name":"","type":"bytes32","internalType":"bytes32"}],"stateMutability":"view"},{"type":"function","name":"grantRole","inputs":[{"name":"role","type":"bytes32","internalType":"bytes32"},{"name":"account","type":"address","internalType":"address"}],"outputs":[],"stateMutability":"nonpayable"},{"type":"function","name":"hasRole","inputs":[{"name":"role","type":"bytes32","internalType":"bytes32"},{"name":"account","type":"address","internalType":"address"}],"outputs":[{"name":"","type":"bool","internalType":"bool"}],"stateMutability":"view"},{"type":"function","name":"initialize","inputs":[{"name":"_asset","type":"address","internalType":"address"},{"name":"_vault","type":"address","internalType":"address"},{"name":"_admin","type":"address","internalType":"address"},{"name":"_feeRecipient","type":"address","internalType":"address"},{"name":"_timelock","type":"address","internalType":"address"}],"outputs":[],"stateMutability":"nonpayable"},{"type":"function","name":"isStrategy","inputs":[{"name":"","type":"address","internalType":"address"}],"outputs":[{"name":"","type":"bool","internalType":"bool"}],"stateMutability":"view"},{"type":"function","name":"lastFeeAccrual","inputs":[],"outputs":[{"name":"","type":"uint256","internalType":"uint256"}],"stateMutability":"view"},{"type":"function","name":"lastRecordedValue","inputs":[],"outputs":[{"name":"","type":"uint256","internalType":"uint256"}],"stateMutability":"view"},{"type":"function","name":"minAutoAllocateAmount","inputs":[],"outputs":[{"name":"","type":"uint256","internalType":"uint256"}],"stateMutability":"view"},{"type":"function","name":"pause","inputs":[],"outputs":[],"stateMutability":"nonpayable"},{"type":"function","name":"paused","inputs":[],"outputs":[{"name":"","type":"bool","internalType":"bool"}],"stateMutability":"view"},{"type":"function","name":"peakRecordedValue","inputs":[],"outputs":[{"name":"","type":"uint256","internalType":"uint256"}],"stateMutability":"view"},{"type":"function","name":"pendingFees","inputs":[],"outputs":[{"name":"","type":"uint256","internalType":"uint256"}],"stateMutability":"view"},{"type":"function","name":"proxiableUUID","inputs":[],"outputs":[{"name":"","type":"bytes32","internalType":"bytes32"}],"stateMutability":"view"},{"type":"function","name":"rebalance","inputs":[],"outputs":[],"stateMutability":"nonpayable"},{"type":"function","name":"recoverToken","inputs":[{"name":"token","type":"address","internalType":"address"},{"name":"amount","type":"uint256","internalType":"uint256"}],"outputs":[],"stateMutability":"nonpayable"},{"type":"function","name":"removeStrategy","inputs":[{"name":"strategy","type":"address","internalType":"address"}],"outputs":[],"stateMutability":"nonpayable"},{"type":"function","name":"renounceRole","inputs":[{"name":"role","type":"bytes32","internalType":"bytes32"},{"name":"callerConfirmation","type":"address","internalType":"address"}],"outputs":[],"stateMutability":"nonpayable"},{"type":"function","name":"reserveBalance","inputs":[],"outputs":[{"name":"","type":"uint256","internalType":"uint256"}],"stateMutability":"view"},{"type":"function","name":"reserveBps","inputs":[],"outputs":[{"name":"","type":"uint256","internalType":"uint256"}],"stateMutability":"view"},{"type":"function","name":"revokeRole","inputs":[{"name":"role","type":"bytes32","internalType":"bytes32"},{"name":"account","type":"address","internalType":"address"}],"outputs":[],"stateMutability":"nonpayable"},{"type":"function","name":"setFeeConfig","inputs":[{"name":"_performanceFeeBps","type":"uint256","internalType":"uint256"},{"name":"_feeRecipient","type":"address","internalType":"address"}],"outputs":[],"stateMutability":"nonpayable"},{"type":"function","name":"setMinAutoAllocate","inputs":[{"name":"_minAmount","type":"uint256","internalType":"uint256"}],"outputs":[],"stateMutability":"nonpayable"},{"type":"function","name":"setReserveBps","inputs":[{"name":"_reserveBps","type":"uint256","internalType":"uint256"}],"outputs":[],"stateMutability":"nonpayable"},{"type":"function","name":"setTimelock","inputs":[{"name":"_timelock","type":"address","internalType":"address"}],"outputs":[],"stateMutability":"nonpayable"},{"type":"function","name":"setVault","inputs":[{"name":"_vault","type":"address","internalType":"address"}],"outputs":[],"stateMutability":"nonpayable"},{"type":"function","name":"strategies","inputs":[{"name":"","type":"uint256","internalType":"uint256"}],"outputs":[{"name":"strategy","type":"address","internalType":"address"},{"name":"targetBps","type":"uint256","internalType":"uint256"},{"name":"minBps","type":"uint256","internalType":"uint256"},{"name":"maxBps","type":"uint256","internalType":"uint256"},{"name":"active","type":"bool","internalType":"bool"},{"name":"autoAllocate","type":"bool","internalType":"bool"}],"stateMutability":"view"},{"type":"function","name":"strategyCount","inputs":[],"outputs":[{"name":"","type":"uint256","internalType":"uint256"}],"stateMutability":"view"},{"type":"function","name":"strategyIndex","inputs":[{"name":"","type":"address","internalType":"address"}],"outputs":[{"name":"","type":"uint256","internalType":"uint256"}],"stateMutability":"view"},{"type":"function","name":"supportsInterface","inputs":[{"name":"interfaceId","type":"bytes4","internalType":"bytes4"}],"outputs":[{"name":"","type":"bool","internalType":"bool"}],"stateMutability":"view"},{"type":"function","name":"targetReserve","inputs":[],"outputs":[{"name":"","type":"uint256","internalType":"uint256"}],"stateMutability":"view"},{"type":"function","name":"timelock","inputs":[],"outputs":[{"name":"","type":"address","internalType":"address"}],"stateMutability":"view"},{"type":"function","name":"totalBacking","inputs":[],"outputs":[{"name":"","type":"uint256","internalType":"uint256"}],"stateMutability":"view"},{"type":"function","name":"totalValue","inputs":[],"outputs":[{"name":"","type":"uint256","internalType":"uint256"}],"stateMutability":"view"},{"type":"function","name":"totalValueNet","inputs":[],"outputs":[{"name":"","type":"uint256","internalType":"uint256"}],"stateMutability":"view"},{"type":"function","name":"unpause","inputs":[],"outputs":[],"stateMutability":"nonpayable"},{"type":"function","name":"updateStrategy","inputs":[{"name":"strategy","type":"address","internalType":"address"},{"name":"targetBps","type":"uint256","internalType":"uint256"},{"name":"minBps","type":"uint256","internalType":"uint256"},{"name":"maxBps","type":"uint256","internalType":"uint256"},{"name":"autoAllocate","type":"bool","internalType":"bool"}],"outputs":[],"stateMutability":"nonpayable"},{"type":"function","name":"upgradeToAndCall","inputs":[{"name":"newImplementation","type":"address","internalType":"address"},{"name":"data","type":"bytes","internalType":"bytes"}],"outputs":[],"stateMutability":"payable"},{"type":"function","name":"vault","inputs":[],"outputs":[{"name":"","type":"address","internalType":"address"}],"stateMutability":"view"},{"type":"function","name":"withdraw","inputs":[{"name":"to","type":"address","internalType":"address"},{"name":"amount","type":"uint256","internalType":"uint256"}],"outputs":[],"stateMutability":"nonpayable"},{"type":"function","name":"withdrawToVault","inputs":[{"name":"amount","type":"uint256","internalType":"uint256"}],"outputs":[{"name":"actualAmount","type":"uint256","internalType":"uint256"}],"stateMutability":"nonpayable"},{"type":"event","name":"Deposited","inputs":[{"name":"from","type":"address","indexed":true,"internalType":"address"},{"name":"amount","type":"uint256","indexed":false,"internalType":"uint256"},{"name":"allocations","type":"uint256[]","indexed":false,"internalType":"uint256[]"}],"anonymous":false},{"type":"event","name":"EmergencyWithdraw","inputs":[{"name":"amount","type":"uint256","indexed":false,"internalType":"uint256"}],"anonymous":false},{"type":"event","name":"FeeConfigUpdated","inputs":[{"name":"performanceFeeBps","type":"uint256","indexed":false,"internalType":"uint256"},{"name":"feeRecipient","type":"address","indexed":false,"internalType":"address"}],"anonymous":false},{"type":"event","name":"FeesAccrued","inputs":[{"name":"yield_","type":"uint256","indexed":false,"internalType":"uint256"},{"name":"protocolFee","type":"uint256","indexed":false,"internalType":"uint256"}],"anonymous":false},{"type":"event","name":"FeesClaimed","inputs":[{"name":"recipient","type":"address","indexed":true,"internalType":"address"},{"name":"amount","type":"uint256","indexed":false,"internalType":"uint256"}],"anonymous":false},{"type":"event","name":"Initialized","inputs":[{"name":"version","type":"uint64","indexed":false,"internalType":"uint64"}],"anonymous":false},{"type":"event","name":"MinAutoAllocateUpdated","inputs":[{"name":"oldAmount","type":"uint256","indexed":false,"internalType":"uint256"},{"name":"newAmount","type":"uint256","indexed":false,"internalType":"uint256"}],"anonymous":false},{"type":"event","name":"Paused","inputs":[{"name":"account","type":"address","indexed":false,"internalType":"address"}],"anonymous":false},{"type":"event","name":"RebalanceDepositFailed","inputs":[{"name":"strategy","type":"address","indexed":true,"internalType":"address"},{"name":"amount","type":"uint256","indexed":false,"internalType":"uint256"}],"anonymous":false},{"type":"event","name":"RebalanceWithdrawFailed","inputs":[{"name":"strategy","type":"address","indexed":true,"internalType":"address"},{"name":"amount","type":"uint256","indexed":false,"internalType":"uint256"}],"anonymous":false},{"type":"event","name":"Rebalanced","inputs":[{"name":"totalValue","type":"uint256","indexed":false,"internalType":"uint256"}],"anonymous":false},{"type":"event","name":"ReserveBpsUpdated","inputs":[{"name":"oldReserveBps","type":"uint256","indexed":false,"internalType":"uint256"},{"name":"newReserveBps","type":"uint256","indexed":false,"internalType":"uint256"}],"anonymous":false},{"type":"event","name":"RoleAdminChanged","inputs":[{"name":"role","type":"bytes32","indexed":true,"internalType":"bytes32"},{"name":"previousAdminRole","type":"bytes32","indexed":true,"internalType":"bytes32"},{"name":"newAdminRole","type":"bytes32","indexed":true,"internalType":"bytes32"}],"anonymous":false},{"type":"event","name":"RoleGranted","inputs":[{"name":"role","type":"bytes32","indexed":true,"internalType":"bytes32"},{"name":"account","type":"address","indexed":true,"internalType":"address"},{"name":"sender","type":"address","indexed":true,"internalType":"address"}],"anonymous":false},{"type":"event","name":"RoleRevoked","inputs":[{"name":"role","type":"bytes32","indexed":true,"internalType":"bytes32"},{"name":"account","type":"address","indexed":true,"internalType":"address"},{"name":"sender","type":"address","indexed":true,"internalType":"address"}],"anonymous":false},{"type":"event","name":"StrategyAdded","inputs":[{"name":"strategy","type":"address","indexed":true,"internalType":"address"},{"name":"targetBps","type":"uint256","indexed":false,"internalType":"uint256"}],"anonymous":false},{"type":"event","name":"StrategyDepositFailed","inputs":[{"name":"strategy","type":"address","indexed":true,"internalType":"address"},{"name":"amount","type":"uint256","indexed":false,"internalType":"uint256"},{"name":"reason","type":"bytes","indexed":false,"internalType":"bytes"}],"anonymous":false},{"type":"event","name":"StrategyForceDeactivated","inputs":[{"name":"strategy","type":"address","indexed":true,"internalType":"address"},{"name":"strandedValue","type":"uint256","indexed":false,"internalType":"uint256"},{"name":"reason","type":"bytes","indexed":false,"internalType":"bytes"}],"anonymous":false},{"type":"event","name":"StrategyRecoveryDetected","inputs":[{"name":"previousValue","type":"uint256","indexed":false,"internalType":"uint256"},{"name":"currentValue","type":"uint256","indexed":false,"internalType":"uint256"},{"name":"increase","type":"uint256","indexed":false,"internalType":"uint256"}],"anonymous":false},{"type":"event","name":"StrategyRemoved","inputs":[{"name":"strategy","type":"address","indexed":true,"internalType":"address"}],"anonymous":false},{"type":"event","name":"StrategyUpdated","inputs":[{"name":"strategy","type":"address","indexed":true,"internalType":"address"},{"name":"newTargetBps","type":"uint256","indexed":false,"internalType":"uint256"}],"anonymous":false},{"type":"event","name":"StrategyValueQueryFailed","inputs":[{"name":"strategy","type":"address","indexed":true,"internalType":"address"}],"anonymous":false},{"type":"event","name":"StrategyWithdrawFailed","inputs":[{"name":"strategy","type":"address","indexed":true,"internalType":"address"},{"name":"amount","type":"uint256","indexed":false,"internalType":"uint256"},{"name":"reason","type":"bytes","indexed":false,"internalType":"bytes"}],"anonymous":false},{"type":"event","name":"StrategyWithdrawn","inputs":[{"name":"strategy","type":"address","indexed":true,"internalType":"address"},{"name":"amount","type":"uint256","indexed":false,"internalType":"uint256"}],"anonymous":false},{"type":"event","name":"TimelockUpdated","inputs":[{"name":"oldTimelock","type":"address","indexed":true,"internalType":"address"},{"name":"newTimelock","type":"address","indexed":true,"internalType":"address"}],"anonymous":false},{"type":"event","name":"Unpaused","inputs":[{"name":"account","type":"address","indexed":false,"internalType":"address"}],"anonymous":false},{"type":"event","name":"Upgraded","inputs":[{"name":"implementation","type":"address","indexed":true,"internalType":"address"}],"anonymous":false},{"type":"event","name":"VaultChanged","inputs":[{"name":"oldVault","type":"address","indexed":true,"internalType":"address"},{"name":"newVault","type":"address","indexed":true,"internalType":"address"}],"anonymous":false},{"type":"event","name":"Withdrawn","inputs":[{"name":"to","type":"address","indexed":true,"internalType":"address"},{"name":"amount","type":"uint256","indexed":false,"internalType":"uint256"}],"anonymous":false},{"type":"error","name":"AccessControlBadConfirmation","inputs":[]},{"type":"error","name":"AccessControlUnauthorizedAccount","inputs":[{"name":"account","type":"address","internalType":"address"},{"name":"neededRole","type":"bytes32","internalType":"bytes32"}]},{"type":"error","name":"AddressEmptyCode","inputs":[{"name":"target","type":"address","internalType":"address"}]},{"type":"error","name":"AllocationExceedsLimit","inputs":[]},{"type":"error","name":"ERC1967InvalidImplementation","inputs":[{"name":"implementation","type":"address","internalType":"address"}]},{"type":"error","name":"ERC1967NonPayable","inputs":[]},{"type":"error","name":"EnforcedPause","inputs":[]},{"type":"error","name":"ExpectedPause","inputs":[]},{"type":"error","name":"FailedCall","inputs":[]},{"type":"error","name":"InsufficientBalance","inputs":[]},{"type":"error","name":"InvalidInitialization","inputs":[]},{"type":"error","name":"MaxStrategiesReached","inputs":[]},{"type":"error","name":"NotInitializing","inputs":[]},{"type":"error","name":"OnlyTimelock","inputs":[]},{"type":"error","name":"OnlyVault","inputs":[]},{"type":"error","name":"ReentrancyGuardReentrantCall","inputs":[]},{"type":"error","name":"SafeERC20FailedOperation","inputs":[{"name":"token","type":"address","internalType":"address"}]},{"type":"error","name":"StrategyExists","inputs":[]},{"type":"error","name":"StrategyNotFound","inputs":[]},{"type":"error","name":"TotalAllocationInvalid","inputs":[]},{"type":"error","name":"UUPSUnauthorizedCallContext","inputs":[]},{"type":"error","name":"UUPSUnsupportedProxiableUUID","inputs":[{"name":"slot","type":"bytes32","internalType":"bytes32"}]},{"type":"error","name":"ZeroAddress","inputs":[]},{"type":"error","name":"ZeroAmount","inputs":[]},{"type":"error","name":"ZeroTimelock","inputs":[]}],"bytecode":{"object":"0x60a060405230608052348015610013575f80fd5b5061001c610021565b6100d3565b7ff0c57e16840df040f15088dc2f81fe391c3923bec73e23a9662efc9c229c6a00805468010000000000000000900460ff16156100715760405163f92ee8a960e01b815260040160405180910390fd5b80546001600160401b03908116146100d05780546001600160401b0319166001600160401b0390811782556040519081527fc7f505b2f371ae2175ee4913f4499e1f2633a7b5936321eed1cdaeb6115181d29060200160405180910390a15b50565b6080516148e06100f95f395f8181613a0a01528181613a330152613bd901526148e05ff3fe608060405260043610610392575f3560e01c8063767f06ae116101de578063bdacb30311610108578063d4c3eea01161009d578063e9308c251161006d578063e9308c2514610a7a578063eb2cd25814610a99578063f3fef3a314610aad578063fbfa77cf14610acc575f80fd5b8063d4c3eea0146109d9578063d547741f146109ed578063d574ea3d14610a0c578063dd19171914610a66575f80fd5b8063ce8c42e8116100d8578063ce8c42e814610969578063d294f09314610988578063d2d4b36b1461099c578063d33219b4146109bb575f80fd5b8063bdacb303146108f5578063c3b2886414610914578063c81cbaa114610935578063cd33f2bd14610955575f80fd5b8063a10954fe1161017e578063ad3cb1cc1161014e578063ad3cb1cc1461086f578063b29a8140146108ac578063bc0bdf50146108cb578063bd39cbb8146108e0575f80fd5b8063a10954fe14610800578063a217fddf14610814578063a378a32414610827578063aad931161461085a575f80fd5b80638d9e9012116101b95780638d9e90121461075757806391d148541461077657806398c4f1ac146107955780639af1d35a146107b5575f80fd5b8063767f06ae1461071b5780637d7c2a1c1461072f5780638456cb5914610743575f80fd5b806337a4e834116102bf5780634f1ef2861161025f5780636468af341161022f5780636468af341461069c5780636817031b146106bb5780636edd9259146106da5780637184188214610706575f80fd5b80634f1ef2861461063357806352d1902d1461064657806358c98c161461065a5780635c975abb14610679575f80fd5b80633f4ba83a1161029a5780633f4ba83a146105c857806341826c2d146105dc57806347e7ef24146105ff5780634a165cd91461061e575f80fd5b806337a4e83414610568578063389254491461057c57806338d52e0f14610591575f80fd5b8063224438d1116103355780632e8ebaae116103055780632e8ebaae146104e85780632f2ff15d1461051657806334365d9a1461053557806336568abe14610549575f80fd5b8063224438d114610480578063248a9ca314610494578063249d39e9146104b357806324ea54f4146104c8575f80fd5b8063175188e811610370578063175188e8146104245780631ef90fb0146104435780631fa7c6681461045857806322068b441461046c575f80fd5b806301ffc9a71461039657806311451526146103ca5780631459457a14610403575b5f80fd5b3480156103a1575f80fd5b506103b56103b0366004614300565b610aeb565b60405190151581526020015b60405180910390f35b3480156103d5575f80fd5b506103f56103e436600461433d565b60046020525f908152604090205481565b6040519081526020016103c1565b34801561040e575f80fd5b5061042261041d366004614356565b610b21565b005b34801561042f575f80fd5b5061042261043e36600461433d565b610d90565b34801561044e575f80fd5b506103f5610e1081565b348015610463575f80fd5b506103f5611110565b348015610477575f80fd5b506003546103f5565b34801561048b575f80fd5b506103f561111e565b34801561049f575f80fd5b506103f56104ae3660046143b7565b611127565b3480156104be575f80fd5b506103f561271081565b3480156104d3575f80fd5b506103f55f8051602061488b83398151915281565b3480156104f3575f80fd5b506103b561050236600461433d565b60056020525f908152604090205460ff1681565b348015610521575f80fd5b506104226105303660046143ce565b611147565b348015610540575f80fd5b506103f5611169565b348015610554575f80fd5b506104226105633660046143ce565b61119e565b348015610573575f80fd5b506104226111d6565b348015610587575f80fd5b506103f560065481565b34801561059c575f80fd5b506001546105b0906001600160a01b031681565b6040516001600160a01b0390911681526020016103c1565b3480156105d3575f80fd5b506104226111f8565b3480156105e7575f80fd5b506105f061120a565b6040516103c193929190614432565b34801561060a575f80fd5b5061042261061936600461449d565b6114c4565b348015610629575f80fd5b506103f5600a5481565b6104226106413660046144d9565b6115b8565b348015610651575f80fd5b506103f56115d3565b348015610665575f80fd5b506104226106743660046143b7565b6115ee565b348015610684575f80fd5b505f8051602061484b8339815191525460ff166103b5565b3480156106a7575f80fd5b506104226106b63660046143ce565b6116a4565b3480156106c6575f80fd5b506104226106d536600461433d565b6117bb565b3480156106e5575f80fd5b506106f96106f43660046143b7565b6118a7565b6040516103c1919061459d565b348015610711575f80fd5b506103f5600c5481565b348015610726575f80fd5b506103f5600a81565b34801561073a575f80fd5b506104226119d4565b34801561074e575f80fd5b50610422611f23565b348015610762575f80fd5b506104226107713660046145af565b611f42565b348015610781575f80fd5b506103b56107903660046143ce565b6122d9565b3480156107a0575f80fd5b506103f55f8051602061480b83398151915281565b3480156107c0575f80fd5b506007546008546009546107dc9291906001600160a01b031683565b6040805193845260208401929092526001600160a01b0316908201526060016103c1565b34801561080b575f80fd5b506103f561230f565b34801561081f575f80fd5b506103f55f81565b348015610832575f80fd5b506103f57f17a8e30262c1f919c33056d877a3c22b95c2f5e4dac44683c1c2323cd79fbdb081565b348015610865575f80fd5b506103f5600d5481565b34801561087a575f80fd5b5061089f604051806040016040528060058152602001640352e302e360dc1b81525081565b6040516103c19190614631565b3480156108b7575f80fd5b506104226108c636600461449d565b612379565b3480156108d6575f80fd5b506103f5600b5481565b3480156108eb575f80fd5b506103f56107d081565b348015610900575f80fd5b5061042261090f36600461433d565b61240c565b34801561091f575f80fd5b506109286124b6565b6040516103c19190614643565b348015610940575f80fd5b506103f55f805160206147cb83398151915281565b348015610960575f80fd5b506103f561255d565b348015610974575f80fd5b506103f56109833660046143b7565b612580565b348015610993575f80fd5b506104226126fb565b3480156109a7575f80fd5b506104226109b63660046145af565b61281c565b3480156109c6575f80fd5b505f546105b0906001600160a01b031681565b3480156109e4575f80fd5b506103f5612a35565b3480156109f8575f80fd5b50610422610a073660046143ce565b612b1d565b348015610a17575f80fd5b50610a2b610a263660046143b7565b612b39565b604080516001600160a01b039097168752602087019590955293850192909252606084015215156080830152151560a082015260c0016103c1565b348015610a71575f80fd5b50610422612b8e565b348015610a85575f80fd5b50610422610a943660046143b7565b612d38565b348015610aa4575f80fd5b506103f5612de5565b348015610ab8575f80fd5b50610422610ac736600461449d565b612dee565b348015610ad7575f80fd5b506002546105b0906001600160a01b031681565b5f6001600160e01b03198216637965db0b60e01b1480610b1b57506301ffc9a760e01b6001600160e01b03198316145b92915050565b5f610b2a612f35565b805490915060ff600160401b820416159067ffffffffffffffff165f81158015610b515750825b90505f8267ffffffffffffffff166001148015610b6d5750303b155b905081158015610b7b575080155b15610b995760405163f92ee8a960e01b815260040160405180910390fd5b845467ffffffffffffffff191660011785558315610bc357845460ff60401b1916600160401b1785555b6001600160a01b038a161580610be057506001600160a01b038916155b80610bf257506001600160a01b038816155b80610c0457506001600160a01b038716155b15610c225760405163d92e233d60e01b815260040160405180910390fd5b610c2a612f5d565b610c32612f65565b610c3a612f5d565b610c42612f5d565b610c4b86612f75565b600180546001600160a01b03808d166001600160a01b031992831617909255600280548c841690831617905560408051606081018252610fa08082525f60208301819052948c16919092018190526007919091556008839055600980549092161790556103e8600655633b9aca00600c55610cc69089612fe6565b50610cde5f805160206147cb83398151915289612fe6565b50610d097f17a8e30262c1f919c33056d877a3c22b95c2f5e4dac44683c1c2323cd79fbdb089612fe6565b50610d215f8051602061488b83398151915289612fe6565b50610d395f8051602061480b8339815191528a612fe6565b5042600b558315610d8457845460ff60401b19168555604051600181527fc7f505b2f371ae2175ee4913f4499e1f2633a7b5936321eed1cdaeb6115181d29060200160405180910390a15b50505050505050505050565b5f546001600160a01b03163314610dba57604051630e05f48560e11b815260040160405180910390fd5b6001600160a01b0381165f9081526005602052604090205460ff16610df257604051632df15a4160e11b815260040160405180910390fd5b6001600160a01b0381165f908152600460205260409020546003805482908110610e1e57610e1e6146c9565b5f91825260209091206004600590920201015460ff1615611041575f826001600160a01b031663d4c3eea06040518163ffffffff1660e01b8152600401602060405180830381865afa925050508015610e94575060408051601f3d908101601f19168201909252610e91918101906146dd565b60015b610e9f57505f610ea2565b90505b801561103f57826001600160a01b031663853828b66040518163ffffffff1660e01b81526004016020604051808303815f875af1925050508015610f03575060408051601f3d908101601f19168201909252610f00918101906146dd565b60015b610f7f573d808015610f30576040519150601f19603f3d011682016040523d82523d5f602084013e610f35565b606091505b50836001600160a01b03167f2dc4845fc8e1bc578ad810a4b7169617ea8bec54516442796fa66620795fc9938383604051610f719291906146f4565b60405180910390a25061103f565b5f6064610f8d84605f614728565b610f97919061473f565b9050808210610fe857846001600160a01b03167f47a0288289f9248f1cc731abd5fcd916c55fa1577b883cf69bff73382853523683604051610fdb91815260200190565b60405180910390a261103c565b6001600160a01b0385167f2dc4845fc8e1bc578ad810a4b7169617ea8bec54516442796fa66620795fc99361101d848661475e565b60408051918252602082018190525f9082015260600160405180910390a25b50505b505b5f60038281548110611055576110556146c9565b5f9182526020822060059190910201600401805460ff191692151592909217909155600380548390811061108b5761108b6146c9565b5f91825260208083206005928302016001908101949094556001600160a01b0386811684529181526040808420805460ff191690556004909152822082905591546110d99216908490613087565b6040516001600160a01b038316907f09a1db4b80c32706328728508c941a6b954f31eb5affd32f236c1fd405f8fea4905f90a25050565b5f61111961230f565b905090565b5f611119613144565b5f9081525f8051602061482b833981519152602052604090206001015490565b61115082611127565b6111598161323e565b6111638383612fe6565b50505050565b5f80611173612a35565b90505f61117e613144565b905080821161118d575f611197565b611197818361475e565b9250505090565b6001600160a01b03811633146111c75760405163334bd91960e11b815260040160405180910390fd5b6111d18282613248565b505050565b5f805160206147cb8339815191526111ed8161323e565b6111f56132c1565b50565b5f6112028161323e565b6111f56134c6565b60608060605f611218612a35565b6003549091508067ffffffffffffffff811115611237576112376144c5565b604051908082528060200260200182016040528015611260578160200160208202803683370190505b5094508067ffffffffffffffff81111561127c5761127c6144c5565b6040519080825280602002602001820160405280156112a5578160200160208202803683370190505b5093508067ffffffffffffffff8111156112c1576112c16144c5565b6040519080825280602002602001820160405280156112ea578160200160208202803683370190505b5092505f5b818110156114bc576003818154811061130a5761130a6146c9565b5f91825260209091206005909102015486516001600160a01b039091169087908390811061133a5761133a6146c9565b60200260200101906001600160a01b031690816001600160a01b0316815250506003818154811061136d5761136d6146c9565b905f5260205f2090600502016001015484828151811061138f5761138f6146c9565b6020026020010181815250505f831180156113cf5750600381815481106113b8576113b86146c9565b5f91825260209091206004600590920201015460ff165b156114b457600381815481106113e7576113e76146c9565b5f91825260209182902060059091020154604080516306a61f7560e51b815290516001600160a01b039092169263d4c3eea0926004808401938290030181865afa925050508015611455575060408051601f3d908101601f19168201909252611452918101906146dd565b60015b61147d575f85828151811061146c5761146c6146c9565b6020026020010181815250506114b4565b8361148a61271083614728565b611494919061473f565b8683815181106114a6576114a66146c9565b602002602001018181525050505b6001016112ef565b505050909192565b6114cc61351f565b6114d4613556565b5f8051602061480b8339815191526114eb8161323e565b815f0361150b57604051631f2a200560e01b815260040160405180910390fd5b6115136132c1565b60015461152b906001600160a01b0316843085613586565b600c54821061153f5761153d826135bf565b505b611547612a35565b600a55604080515f81526020810191829052906001600160a01b038516907fecbade292b10449eeda5afeeebdad84b3e2c5d56548642714fb25876646a15c4906115949086908590614771565b60405180910390a250506115b460015f8051602061486b83398151915255565b5050565b6115c06139ff565b6115c982613aa3565b6115b48282613b12565b5f6115dc613bce565b505f805160206147eb83398151915290565b5f546001600160a01b0316331461161857604051630e05f48560e11b815260040160405180910390fd5b5f811161165e5760405162461bcd60e51b815260206004820152600f60248201526e16915493d7d3525397d05353d55395608a1b60448201526064015b60405180910390fd5b600c80549082905560408051828152602081018490527f42ad410c029ee3f46ac78f4c8e1d479cc0a85334db57ab6c802d7098f828a0d491015b60405180910390a15050565b5f546001600160a01b031633146116ce57604051630e05f48560e11b815260040160405180910390fd5b61138882111561170f5760405162461bcd60e51b815260206004820152600c60248201526b08ccaca40e8dede40d0d2ced60a31b6044820152606401611655565b6001600160a01b0381166117595760405162461bcd60e51b8152602060048201526011602482015270125b9d985b1a59081c9958da5c1a595b9d607a1b6044820152606401611655565b6117616132c1565b6007829055600980546001600160a01b0319166001600160a01b0383169081179091556040805184815260208101929092527fe125ae54d7ba2b06e6f44852861516acb2dd2692cf41fb127fa03252f15b334e9101611698565b5f546001600160a01b031633146117e557604051630e05f48560e11b815260040160405180910390fd5b6001600160a01b03811661180c5760405163d92e233d60e01b815260040160405180910390fd5b6002546001600160a01b031661182f5f8051602061480b83398151915282613248565b50600280546001600160a01b0319166001600160a01b0384161790556118625f8051602061480b83398151915283612fe6565b50816001600160a01b0316816001600160a01b03167f16e2accad9173abff57b295b56993ec5d86b3cbf791fea02f02a6616463754ea60405160405180910390a35050565b60606118b161351f565b6118b9613556565b5f8051602061480b8339815191526118d08161323e565b825f036118f057604051631f2a200560e01b815260040160405180910390fd5b6118f86132c1565b600154611910906001600160a01b0316333086613586565b600c54831061192957611922836135bf565b9150611971565b60035467ffffffffffffffff811115611944576119446144c5565b60405190808252806020026020018201604052801561196d578160200160208202803683370190505b5091505b611979612a35565b600a5560405133907fecbade292b10449eeda5afeeebdad84b3e2c5d56548642714fb25876646a15c4906119b09086908690614771565b60405180910390a2506119cf60015f8051602061486b83398151915255565b919050565b6119dc61351f565b5f805160206147cb8339815191526119f38161323e565b6119fb6132c1565b5f611a04612a35565b9050805f03611a135750611f0a565b5f5b600354811015611c355760038181548110611a3257611a326146c9565b5f91825260209091206004600590920201015460ff1615611c2d575f60038281548110611a6157611a616146c9565b5f9182526020808320600590920290910154604080516306a61f7560e51b815290516001600160a01b039092169450849263d4c3eea0926004808401938290030181865afa925050508015611ad3575060408051601f3d908101601f19168201909252611ad0918101906146dd565b60015b611b2157816001600160a01b03167f0826265688fdd8c6da68999eb7941fc0a77b0a70392ca5c3912c4cb57cfa2d235f604051611b1291815260200190565b60405180910390a25050611c2d565b90505f61271060038581548110611b3a57611b3a6146c9565b905f5260205f2090600502016001015486611b559190614728565b611b5f919061473f565b905080821115611c29575f611b74828461475e565b604051632e1a7d4d60e01b8152600481018290529091506001600160a01b03851690632e1a7d4d906024016020604051808303815f875af1925050508015611bd9575060408051601f3d908101601f19168201909252611bd6918101906146dd565b60015b611c2557836001600160a01b03167f0826265688fdd8c6da68999eb7941fc0a77b0a70392ca5c3912c4cb57cfa2d2382604051611c1891815260200190565b60405180910390a2611c27565b505b505b5050505b600101611a15565b50611c3e612a35565b90505f611c4961230f565b90505f61271060065484611c5d9190614728565b611c67919061473f565b90505f818311611c77575f611c81565b611c81828461475e565b90505f5b60035481108015611c9557505f82115b15611ec45760038181548110611cad57611cad6146c9565b5f91825260209091206004600590920201015460ff1615611eb2575f60038281548110611cdc57611cdc6146c9565b5f9182526020808320600590920290910154604080516306a61f7560e51b815290516001600160a01b039092169450849263d4c3eea0926004808401938290030181865afa925050508015611d4e575060408051601f3d908101601f19168201909252611d4b918101906146dd565b60015b611d59575050611eb2565b90505f61271060038581548110611d7257611d726146c9565b905f5260205f2090600502016001015489611d8d9190614728565b611d97919061473f565b905080821015611eae575f611dac838361475e565b90505f868210611dbc5786611dbe565b815b600154909150611dd8906001600160a01b03168683613087565b60405163b6b55f2560e01b8152600481018290526001600160a01b0386169063b6b55f25906024016020604051808303815f875af1925050508015611e3a575060408051601f3d908101601f19168201909252611e37918101906146dd565b60015b611e9d57846001600160a01b03167fcb5c63317d75df911a08340e9ac3d0423a6d861f8205d37d1be0142b2922da8b82604051611e7991815260200190565b60405180910390a2600154611e98906001600160a01b0316865f613087565b611eab565b611ea7818961475e565b9750505b50505b5050505b80611ebc81614789565b915050611c85565b50611ecd612a35565b600a8190556040519081527fc306af072396b02bf3a9782c10065cc7ff4aa842934a43f0b76f997b291237c89060200160405180910390a1505050505b50611f2160015f8051602061486b83398151915255565b565b5f8051602061488b833981519152611f3a8161323e565b6111f5613c17565b5f546001600160a01b03163314611f6c57604051630e05f48560e11b815260040160405180910390fd5b6001600160a01b038516611f935760405163d92e233d60e01b815260040160405180910390fd5b6001600160a01b0385165f9081526005602052604090205460ff1615611fcc576040516325a2934b60e21b815260040160405180910390fd5b5f805b60035481101561201d5760038181548110611fec57611fec6146c9565b5f91825260209091206004600590920201015460ff1615612015578161201181614789565b9250505b600101611fcf565b50600a811061203f57604051631f62ca4f60e21b815260040160405180910390fd5b8285118061204c57508484115b1561206a57604051632615e83760e11b815260040160405180910390fd5b5f6006548661207991906147a1565b90505f5b6003548110156120ee576003818154811061209a5761209a6146c9565b5f91825260209091206004600590920201015460ff16156120e657600381815481106120c8576120c86146c9565b905f5260205f20906005020160010154826120e391906147a1565b91505b60010161207d565b5061271081111561211257604051631f15009160e11b815260040160405180910390fd5b6040805160c0810182526001600160a01b038981168252602082018981529282018881526060830188815260016080850181815289151560a087019081526003805480850182555f82905297517fc2575a0e9e593c00f959f8c92f12db2869c3395a3b0502d05e2516446f71f85b600590990298890180546001600160a01b031916919098161790965596517fc2575a0e9e593c00f959f8c92f12db2869c3395a3b0502d05e2516446f71f85c87015592517fc2575a0e9e593c00f959f8c92f12db2869c3395a3b0502d05e2516446f71f85d86015590517fc2575a0e9e593c00f959f8c92f12db2869c3395a3b0502d05e2516446f71f85e85015590517fc2575a0e9e593c00f959f8c92f12db2869c3395a3b0502d05e2516446f71f85f9093018054945161ffff1990951693151561ff00191693909317610100941515949094029390931790915554612267919061475e565b6001600160a01b0388165f8181526004602090815260408083209490945560059052829020805460ff1916600117905590517f2f564a83158ad1831793ad3e69257b52f39ece5d49cb0d8746708ecb9ef964da906122c89089815260200190565b60405180910390a250505050505050565b5f9182525f8051602061482b833981519152602090815260408084206001600160a01b0393909316845291905290205460ff1690565b6001546040516370a0823160e01b81523060048201525f916001600160a01b0316906370a0823190602401602060405180830381865afa158015612355573d5f803e3d5ffd5b505050506040513d601f19601f8201168201806040525081019061111991906146dd565b5f546001600160a01b031633146123a357604051630e05f48560e11b815260040160405180910390fd5b6001546001600160a01b03908116908316036123f85760405162461bcd60e51b815260206004820152601460248201527310d0539393d517d49150d3d5915497d054d4d15560621b6044820152606401611655565b6115b46001600160a01b0383163383613c5f565b5f546001600160a01b0316331461243657604051630e05f48560e11b815260040160405180910390fd5b6001600160a01b03811661245d576040516350c0eb2960e11b815260040160405180910390fd5b5f80546040516001600160a01b03808516939216917fae97011a27b5efe7b1d76fe38e75cc498fd64cc24e407a9c6b2185d27f611f7e91a35f80546001600160a01b0319166001600160a01b0392909216919091179055565b60606003805480602002602001604051908101604052809291908181526020015f905b82821015612554575f8481526020908190206040805160c0810182526005860290920180546001600160a01b0316835260018082015484860152600282015492840192909252600381015460608401526004015460ff8082161515608085015261010090910416151560a083015290835290920191016124d9565b50505050905090565b5f61271060065461256c612a35565b6125769190614728565b611119919061473f565b5f61258961351f565b612591613556565b5f8051602061480b8339815191526125a88161323e565b825f036125c857604051631f2a200560e01b815260040160405180910390fd5b6125d06132c1565b5f6125d961230f565b9050838110612607576002546001546125ff916001600160a01b03918216911686613c5f565b8392506126a1565b5f612612828661475e565b90505f61261e82613c90565b905061262a81846147a1565b945085851115612638578594505b858510156126815760405162461bcd60e51b8152602060048201526016602482015275494e53554646494349454e545f4c495155494449545960501b6044820152606401611655565b60025460015461269e916001600160a01b03918216911687613c5f565b50505b6002546040518481526001600160a01b03909116907f7084f5476618d8e60b11ef0d7d3f06914655adb8793e28ff7f018d4c76d505d59060200160405180910390a250506119cf60015f8051602061486b83398151915255565b61270361351f565b5f546001600160a01b0316331461272d57604051630e05f48560e11b815260040160405180910390fd5b6127356132c1565b6008545f8190036127465750612806565b5f61274f61230f565b90508181101561276d5761276b612766828461475e565b613c90565b505b5f61277661230f565b90505f8382106127865783612788565b815b9050612794818561475e565b6008556009546001546127b4916001600160a01b03918216911683613c5f565b6127bc612a35565b600a556009546040518281526001600160a01b03909116907f9493e5bbe4e8e0ac67284469a2d677403d0378a85a59e341d3abc433d0d9a2099060200160405180910390a2505050505b611f2160015f8051602061486b83398151915255565b5f546001600160a01b0316331461284657604051630e05f48560e11b815260040160405180910390fd5b6001600160a01b0385165f9081526005602052604090205460ff1661287e57604051632df15a4160e11b815260040160405180910390fd5b6001600160a01b0385165f908152600460205260408120546006549091906128a690876147a1565b90505f5b600354811015612927578281141580156128e95750600381815481106128d2576128d26146c9565b5f91825260209091206004600590920201015460ff165b1561291f5760038181548110612901576129016146c9565b905f5260205f209060050201600101548261291c91906147a1565b91505b6001016128aa565b5061271081111561294b57604051631f15009160e11b815260040160405180910390fd5b856003838154811061295f5761295f6146c9565b905f5260205f209060050201600101819055508460038381548110612986576129866146c9565b905f5260205f2090600502016002018190555083600383815481106129ad576129ad6146c9565b905f5260205f2090600502016003018190555082600383815481106129d4576129d46146c9565b905f5260205f20906005020160040160016101000a81548160ff021916908315150217905550866001600160a01b03167fe2d9b7f1e07c794d9c19cb81343399f288c6d5a7ba85b73669b438836de8c2e3876040516122c891815260200190565b5f80612a3f61230f565b90505f5b600354811015612b175760038181548110612a6057612a606146c9565b5f91825260209091206004600590920201015460ff1615612b0f5760038181548110612a8e57612a8e6146c9565b5f91825260209182902060059091020154604080516306a61f7560e51b815290516001600160a01b039092169263d4c3eea0926004808401938290030181865afa925050508015612afc575060408051601f3d908101601f19168201909252612af9918101906146dd565b60015b15612b0f57612b0b81846147a1565b9250505b600101612a43565b50919050565b612b2682611127565b612b2f8161323e565b6111638383613248565b60038181548110612b48575f80fd5b5f918252602090912060059091020180546001820154600283015460038401546004909401546001600160a01b0390931694509092909160ff8082169161010090041686565b5f8051602061488b833981519152612ba58161323e565b5f5b600354811015612cf95760038181548110612bc457612bc46146c9565b5f91825260209091206004600590920201015460ff1615612cf1575f60038281548110612bf357612bf36146c9565b905f5260205f2090600502015f015f9054906101000a90046001600160a01b03169050806001600160a01b031663853828b66040518163ffffffff1660e01b81526004016020604051808303815f875af1925050508015612c71575060408051601f3d908101601f19168201909252612c6e918101906146dd565b60015b612ced573d808015612c9e576040519150601f19603f3d011682016040523d82523d5f602084013e612ca3565b606091505b50816001600160a01b03167f57b4619e49aca895c9a58348cf426a29b8c67dbfbe0e07785d21b715658cdb905f83604051612cdf9291906146f4565b60405180910390a250612cef565b505b505b600101612ba7565b507f99d7f8b71cfb9126984f7a5eed3a40e64a8959e9b0e442221546fb04ec6a489c612d2361230f565b6040519081526020015b60405180910390a150565b5f546001600160a01b03163314612d6257604051630e05f48560e11b815260040160405180910390fd5b610bb8811115612da75760405162461bcd60e51b815260206004820152601060248201526f0a4cae6cae4ecca40e8dede40d0d2ced60831b6044820152606401611655565b600680549082905560408051828152602081018490527fa0e245298634d40c599ec17ea427d106a12b20c9766dd9a7fcc90ac00cb193689101611698565b5f611119612a35565b612df661351f565b612dfe613556565b5f8051602061480b833981519152612e158161323e565b815f03612e3557604051631f2a200560e01b815260040160405180910390fd5b612e3d6132c1565b5f612e4661230f565b905082811015612e69575f612e5b828561475e565b9050612e6681613c90565b50505b5f612e7261230f565b905083811015612ebc5760405162461bcd60e51b8152602060048201526015602482015274494e53554646494349454e545f524553455256455360581b6044820152606401611655565b600154612ed3906001600160a01b03168686613c5f565b612edb612a35565b600a556040518481526001600160a01b038616907f7084f5476618d8e60b11ef0d7d3f06914655adb8793e28ff7f018d4c76d505d59060200160405180910390a25050506115b460015f8051602061486b83398151915255565b5f807ff0c57e16840df040f15088dc2f81fe391c3923bec73e23a9662efc9c229c6a00610b1b565b611f21613fcd565b612f6d613fcd565b611f21613ff2565b6001600160a01b038116612f9c576040516350c0eb2960e11b815260040160405180910390fd5b5f80546001600160a01b0319166001600160a01b03831690811782556040519091907fae97011a27b5efe7b1d76fe38e75cc498fd64cc24e407a9c6b2185d27f611f7e908290a350565b5f5f8051602061482b833981519152612fff84846122d9565b61307e575f848152602082815260408083206001600160a01b03871684529091529020805460ff191660011790556130343390565b6001600160a01b0316836001600160a01b0316857f2f8788117e7eff1d82e926ec794901d17c78024a50270940304540a733656f0d60405160405180910390a46001915050610b1b565b5f915050610b1b565b604080516001600160a01b038416602482015260448082018490528251808303909101815260649091019091526020810180516001600160e01b031663095ea7b360e01b1790526130d88482613ffa565b611163576040516001600160a01b0384811660248301525f604483015261313a91869182169063095ea7b3906064015b604051602081830303815290604052915060e01b6020820180516001600160e01b038381831617835250505050614043565b6111638482614043565b5f8061314e612a35565b9050600a54811161316157505060085490565b5f600a5482613170919061475e565b90505f6127106107d0600a546131869190614728565b613190919061473f565b905080821180156131a257505f600a54115b156131b257505060085492915050565b5f600d541180156131c55750600d548311155b156131d557505060085492915050565b5f80600d541180156131ea5750600d54600a54105b1561320357600d546131fc908561475e565b9050613206565b50815b6007545f90612710906132199084614728565b613223919061473f565b6008549091506132349082906147a1565b9550505050505090565b6111f581336140af565b5f5f8051602061482b83398151915261326184846122d9565b1561307e575f848152602082815260408083206001600160a01b0387168085529252808320805460ff1916905551339287917ff6391f5c32d9c69d2a47ea670b442974b53935d1edc7fd64eb21e047a839171b9190a46001915050610b1b565b610e10600b546132d191906147a1565b4210156132da57565b5f6132e3612a35565b9050600a548111156134aa575f600a54826132fe919061475e565b90505f6127106107d0600a546133149190614728565b61331e919061473f565b9050808211801561333057505f600a54115b1561339657600a54604080519182526020820185905281018390527fad34850f006014559b664088d7c14222870df21076d1b9213e8ca5ef623222249060600160405180910390a1600a839055600d5483111561338d57600d8390555b505042600b5550565b5f600d541180156133a95750600d548311155b156133fc57600a54604080519182526020820185905281018390527fad34850f006014559b664088d7c14222870df21076d1b9213e8ca5ef623222249060600160405180910390a15050600a5542600b55565b5f80600d541180156134115750600d54600a54105b1561342a57600d54613423908561475e565b905061342d565b50815b80156134a6576007545f90612710906134469084614728565b613450919061473f565b90508060076001015f82825461346691906147a1565b909155505060408051838152602081018390527f49086fb5fbe3012e87f1afd31e52bfcb81e75a7804f59744a6eee012b59cd0a0910160405180910390a1505b5050505b600a819055600d548111156134bf57600d8190555b5042600b55565b6134ce6140e8565b5f8051602061484b833981519152805460ff191681557f5db9ee0a495bf2e6ff9c91a7834c1ba4fdd244a5e8aa4e537bd38aeae4b073aa335b6040516001600160a01b039091168152602001612d2d565b5f8051602061486b83398151915280546001190161355057604051633ee5aeb560e01b815260040160405180910390fd5b60029055565b5f8051602061484b8339815191525460ff1615611f215760405163d93c066560e01b815260040160405180910390fd5b6040516001600160a01b0384811660248301528381166044830152606482018390526111639186918216906323b872dd90608401613108565b60035460609067ffffffffffffffff8111156135dd576135dd6144c5565b604051908082528060200260200182016040528015613606578160200160208202803683370190505b5090505f6127106006548461361b9190614728565b613625919061473f565b90505f613632828561475e565b90505f805b6003548110156136e05760038181548110613654576136546146c9565b5f91825260209091206004600590920201015460ff1680156136a2575060038181548110613684576136846146c9565b905f5260205f20906005020160040160019054906101000a900460ff165b156136d857600381815481106136ba576136ba6146c9565b905f5260205f20906005020160010154826136d591906147a1565b91505b600101613637565b50805f036136f057505050919050565b5f5f19815b6003548110156137715760038181548110613712576137126146c9565b5f91825260209091206004600590920201015460ff168015613760575060038181548110613742576137426146c9565b905f5260205f20906005020160040160019054906101000a900460ff165b15613769578091505b6001016136f5565b505f5b6003548110156139e15760038181548110613791576137916146c9565b5f91825260209091206004600590920201015460ff1615806137e05750600381815481106137c1576137c16146c9565b905f5260205f20906005020160040160019054906101000a900460ff16155b6139d9575f8282036137fd576137f6848761475e565b9050613839565b8460038381548110613811576138116146c9565b905f5260205f209060050201600101548761382c9190614728565b613836919061473f565b90505b80156139d75761384981856147a1565b93505f6003838154811061385f5761385f6146c9565b5f9182526020909120600590910201546001546001600160a01b03918216925061388b91168284613087565b60405163b6b55f2560e01b8152600481018390526001600160a01b0382169063b6b55f25906024016020604051808303815f875af19250505080156138ed575060408051601f3d908101601f191682019092526138ea918101906146dd565b60015b61399e573d80801561391a576040519150601f19603f3d011682016040523d82523d5f602084013e61391f565b606091505b505f8a8581518110613933576139336146c9565b6020908102919091010152600154613955906001600160a01b0316835f613087565b816001600160a01b03167f70a7bb346d6e67bc583bd557a8f610e563d78af302b6e62d1a2d074be1fa469a84836040516139909291906146f4565b60405180910390a2506139d5565b808a85815181106139b1576139b16146c9565b60209081029190910101526001546139d3906001600160a01b0316835f613087565b505b505b505b600101613774565b505050505050919050565b60015f8051602061486b83398151915255565b306001600160a01b037f0000000000000000000000000000000000000000000000000000000000000000161480613a8557507f00000000000000000000000000000000000000000000000000000000000000006001600160a01b0316613a795f805160206147eb833981519152546001600160a01b031690565b6001600160a01b031614155b15611f215760405163703e46dd60e11b815260040160405180910390fd5b5f546001600160a01b03163314613acd57604051630e05f48560e11b815260040160405180910390fd5b6001600160a01b0381166111f55760405162461bcd60e51b815260206004820152600c60248201526b5a45524f5f4144445245535360a01b6044820152606401611655565b816001600160a01b03166352d1902d6040518163ffffffff1660e01b8152600401602060405180830381865afa925050508015613b6c575060408051601f3d908101601f19168201909252613b69918101906146dd565b60015b613b9457604051634c9c8ce360e01b81526001600160a01b0383166004820152602401611655565b5f805160206147eb8339815191528114613bc457604051632a87526960e21b815260048101829052602401611655565b6111d18383614117565b306001600160a01b037f00000000000000000000000000000000000000000000000000000000000000001614611f215760405163703e46dd60e11b815260040160405180910390fd5b613c1f613556565b5f8051602061484b833981519152805460ff191660011781557f62e78cea01bee320cd4e420270b5ea74000d11b0c9f74754ebdbfc544b05a25833613507565b6040516001600160a01b038381166024830152604482018390526111d191859182169063a9059cbb90606401613108565b5f81815f19815b600354811015613d6e5760038181548110613cb457613cb46146c9565b5f91825260209091206004600590920201015460ff1615613d665760038181548110613ce257613ce26146c9565b5f91825260209182902060059091020154604080516306a61f7560e51b815290516001600160a01b039092169263d4c3eea0926004808401938290030181865afa925050508015613d50575060408051601f3d908101601f19168201909252613d4d918101906146dd565b60015b15613d6657613d5f81856147a1565b9350819250505b600101613c97565b50815f03613d8057505f949350505050565b5f5b60035481108015613d9257505f84115b15613fc45760038181548110613daa57613daa6146c9565b5f91825260209091206004600590920201015460ff1615613fb2575f60038281548110613dd957613dd96146c9565b5f9182526020808320600590920290910154604080516306a61f7560e51b815290516001600160a01b039092169450849263d4c3eea0926004808401938290030181865afa925050508015613e4b575060408051601f3d908101601f19168201909252613e48918101906146dd565b60015b613e56575050613fb2565b9050805f03613e66575050613fb2565b5f848403613e75575085613e8d565b85613e80838b614728565b613e8a919061473f565b90505b86811115613e985750855b81811115613ea35750805b8015613fae57604051632e1a7d4d60e01b8152600481018290526001600160a01b03841690632e1a7d4d906024016020604051808303815f875af1925050508015613f0b575060408051601f3d908101601f19168201909252613f08918101906146dd565b60015b613f87573d808015613f38576040519150601f19603f3d011682016040523d82523d5f602084013e613f3d565b606091505b50836001600160a01b03167f57b4619e49aca895c9a58348cf426a29b8c67dbfbe0e07785d21b715658cdb908383604051613f799291906146f4565b60405180910390a250613fae565b613f91818a6147a1565b9850808811613fa0575f613faa565b613faa818961475e565b9750505b5050505b80613fbc81614789565b915050613d82565b50505050919050565b613fd561416c565b611f2157604051631afcd79f60e31b815260040160405180910390fd5b6139ec613fcd565b5f805f8060205f8651602088015f8a5af192503d91505f5190508280156140395750811561402b5780600114614039565b5f866001600160a01b03163b115b9695505050505050565b5f8060205f8451602086015f885af180614062576040513d5f823e3d81fd5b50505f513d91508115614079578060011415614086565b6001600160a01b0384163b155b1561116357604051635274afe760e01b81526001600160a01b0385166004820152602401611655565b6140b982826122d9565b6115b45760405163e2517d3f60e01b81526001600160a01b038216600482015260248101839052604401611655565b5f8051602061484b8339815191525460ff16611f2157604051638dfc202b60e01b815260040160405180910390fd5b61412082614185565b6040516001600160a01b038316907fbc7cd75a20ee27fd9adebab32041f755214dbc6bffa90cc0225b39da2e5c2d3b905f90a2805115614164576111d182826141e8565b6115b461425a565b5f614175612f35565b54600160401b900460ff16919050565b806001600160a01b03163b5f036141ba57604051634c9c8ce360e01b81526001600160a01b0382166004820152602401611655565b5f805160206147eb83398151915280546001600160a01b0319166001600160a01b0392909216919091179055565b60605f80846001600160a01b03168460405161420491906147b4565b5f60405180830381855af49150503d805f811461423c576040519150601f19603f3d011682016040523d82523d5f602084013e614241565b606091505b5091509150614251858383614279565b95945050505050565b3415611f215760405163b398979f60e01b815260040160405180910390fd5b60608261428e57614289826142d8565b6142d1565b81511580156142a557506001600160a01b0384163b155b156142ce57604051639996b31560e01b81526001600160a01b0385166004820152602401611655565b50805b9392505050565b8051156142e757805160208201fd5b60405163d6bda27560e01b815260040160405180910390fd5b5f60208284031215614310575f80fd5b81356001600160e01b0319811681146142d1575f80fd5b80356001600160a01b03811681146119cf575f80fd5b5f6020828403121561434d575f80fd5b6142d182614327565b5f805f805f60a0868803121561436a575f80fd5b61437386614327565b945061438160208701614327565b935061438f60408701614327565b925061439d60608701614327565b91506143ab60808701614327565b90509295509295909350565b5f602082840312156143c7575f80fd5b5035919050565b5f80604083850312156143df575f80fd5b823591506143ef60208401614327565b90509250929050565b5f8151808452602084019350602083015f5b8281101561442857815186526020958601959091019060010161440a565b5093949350505050565b606080825284519082018190525f9060208601906080840190835b818110156144745783516001600160a01b031683526020938401939092019160010161444d565b5050838103602085015261448881876143f8565b915050828103604084015261403981856143f8565b5f80604083850312156144ae575f80fd5b6144b783614327565b946020939093013593505050565b634e487b7160e01b5f52604160045260245ffd5b5f80604083850312156144ea575f80fd5b6144f383614327565b9150602083013567ffffffffffffffff81111561450e575f80fd5b8301601f8101851361451e575f80fd5b803567ffffffffffffffff811115614538576145386144c5565b604051601f8201601f19908116603f0116810167ffffffffffffffff81118282101715614567576145676144c5565b60405281815282820160200187101561457e575f80fd5b816020840160208301375f602083830101528093505050509250929050565b602081525f6142d160208301846143f8565b5f805f805f60a086880312156145c3575f80fd5b6145cc86614327565b9450602086013593506040860135925060608601359150608086013580151581146145f5575f80fd5b809150509295509295909350565b5f81518084528060208401602086015e5f602082860101526020601f19601f83011685010191505092915050565b602081525f6142d16020830184614603565b602080825282518282018190525f918401906040840190835b818110156146be57835180516001600160a01b0316845260208082015181860152604080830151908601526060808301519086015260808083015115159086015260a0918201511515918501919091529093019260c09092019160010161465c565b509095945050505050565b634e487b7160e01b5f52603260045260245ffd5b5f602082840312156146ed575f80fd5b5051919050565b828152604060208201525f61470c6040830184614603565b949350505050565b634e487b7160e01b5f52601160045260245ffd5b8082028115828204841417610b1b57610b1b614714565b5f8261475957634e487b7160e01b5f52601260045260245ffd5b500490565b81810381811115610b1b57610b1b614714565b828152604060208201525f61470c60408301846143f8565b5f6001820161479a5761479a614714565b5060010190565b80820180821115610b1b57610b1b614714565b5f82518060208501845e5f92019182525091905056fe68bf109b95a5c15fb2bb99041323c27d15f8675e11bf7420a1cd6ad64c394f46360894a13ba1a3210667c828492db98dca3e2076cc3735a920a3ca505d382bbc31e0210044b4f6757ce6aa31f9c6e8d4896d24a755014887391a926c5224d95902dd7bc7dec4dceedda775e58dd541e08a116c6c53815c0bd028192f7b626800cd5ed15c6e187e77e9aee88184c21f4f2182ab5827cb3b7e07fbedcd63f033009b779b17422d0df92223018b32b4d1fa46e071723d6817e2486d003becc55f0055435dd261a4b9b3364963f7738a7a662ad9c84396d64be3365284bb7f0a5041a2646970667358221220b7c6cc47cadce562515867dea49350005136144ae07c56be9ecc46cabb8a235564736f6c634300081a0033","linkReferences":{}},"methodIdentifiers":{"ALLOCATOR_ROLE()":"c81cbaa1","BPS()":"249d39e9","DEFAULT_ADMIN_ROLE()":"a217fddf","GUARDIAN_ROLE()":"24ea54f4","MAX_STRATEGIES()":"767f06ae","MAX_YIELD_PER_ACCRUAL_BPS()":"bd39cbb8","MIN_ACCRUAL_INTERVAL()":"1ef90fb0","STRATEGIST_ROLE()":"a378a324","UPGRADE_INTERFACE_VERSION()":"ad3cb1cc","VAULT_ROLE()":"98c4f1ac","accrueFees()":"37a4e834","addStrategy(address,uint256,uint256,uint256,bool)":"8d9e9012","asset()":"38d52e0f","availableReserves()":"1fa7c668","claimFees()":"d294f093","deposit(address,uint256)":"47e7ef24","depositFromVault(uint256)":"6edd9259","emergencyWithdrawAll()":"dd191719","fees()":"9af1d35a","getAllStrategies()":"c3b28864","getCurrentAllocations()":"41826c2d","getRoleAdmin(bytes32)":"248a9ca3","grantRole(bytes32,address)":"2f2ff15d","hasRole(bytes32,address)":"91d14854","initialize(address,address,address,address,address)":"1459457a","isStrategy(address)":"2e8ebaae","lastFeeAccrual()":"bc0bdf50","lastRecordedValue()":"4a165cd9","minAutoAllocateAmount()":"71841882","pause()":"8456cb59","paused()":"5c975abb","peakRecordedValue()":"aad93116","pendingFees()":"224438d1","proxiableUUID()":"52d1902d","rebalance()":"7d7c2a1c","recoverToken(address,uint256)":"b29a8140","removeStrategy(address)":"175188e8","renounceRole(bytes32,address)":"36568abe","reserveBalance()":"a10954fe","reserveBps()":"38925449","revokeRole(bytes32,address)":"d547741f","setFeeConfig(uint256,address)":"6468af34","setMinAutoAllocate(uint256)":"58c98c16","setReserveBps(uint256)":"e9308c25","setTimelock(address)":"bdacb303","setVault(address)":"6817031b","strategies(uint256)":"d574ea3d","strategyCount()":"22068b44","strategyIndex(address)":"11451526","supportsInterface(bytes4)":"01ffc9a7","targetReserve()":"cd33f2bd","timelock()":"d33219b4","totalBacking()":"eb2cd258","totalValue()":"d4c3eea0","totalValueNet()":"34365d9a","unpause()":"3f4ba83a","updateStrategy(address,uint256,uint256,uint256,bool)":"d2d4b36b","upgradeToAndCall(address,bytes)":"4f1ef286","vault()":"fbfa77cf","withdraw(address,uint256)":"f3fef3a3","withdrawToVault(uint256)":"ce8c42e8"},"id":15}