{"abi":[{"type":"constructor","inputs":[],"stateMutability":"nonpayable"},{"type":"function","name":"ALLOCATOR_ROLE","inputs":[],"outputs":[{"name":"","type":"bytes32","internalType":"bytes32"}],"stateMutability":"view"},{"type":"function","name":"BPS","inputs":[],"outputs":[{"name":"","type":"uint256","internalType":"uint256"}],"stateMutability":"view"},{"type":"function","name":"DEFAULT_ADMIN_ROLE","inputs":[],"outputs":[{"name":"","type":"bytes32","internalType":"bytes32"}],"stateMutability":"view"},{"type":"function","name":"GUARDIAN_ROLE","inputs":[],"outputs":[{"name":"","type":"bytes32","internalType":"bytes32"}],"stateMutability":"view"},{"type":"function","name":"MAX_STRATEGIES","inputs":[],"outputs":[{"name":"","type":"uint256","internalType":"uint256"}],"stateMutability":"view"},{"type":"function","name":"MIN_ACCRUAL_INTERVAL","inputs":[],"outputs":[{"name":"","type":"uint256","internalType":"uint256"}],"stateMutability":"view"},{"type":"function","name":"STRATEGIST_ROLE","inputs":[],"outputs":[{"name":"","type":"bytes32","internalType":"bytes32"}],"stateMutability":"view"},{"type":"function","name":"UPGRADE_INTERFACE_VERSION","inputs":[],"outputs":[{"name":"","type":"string","internalType":"string"}],"stateMutability":"view"},{"type":"function","name":"VAULT_ROLE","inputs":[],"outputs":[{"name":"","type":"bytes32","internalType":"bytes32"}],"stateMutability":"view"},{"type":"function","name":"accrueFees","inputs":[],"outputs":[],"stateMutability":"nonpayable"},{"type":"function","name":"addStrategy","inputs":[{"name":"strategy","type":"address","internalType":"address"},{"name":"targetBps","type":"uint256","internalType":"uint256"},{"name":"minBps","type":"uint256","internalType":"uint256"},{"name":"maxBps","type":"uint256","internalType":"uint256"},{"name":"autoAllocate","type":"bool","internalType":"bool"}],"outputs":[],"stateMutability":"nonpayable"},{"type":"function","name":"asset","inputs":[],"outputs":[{"name":"","type":"address","internalType":"contract IERC20"}],"stateMutability":"view"},{"type":"function","name":"availableReserves","inputs":[],"outputs":[{"name":"","type":"uint256","internalType":"uint256"}],"stateMutability":"view"},{"type":"function","name":"claimFees","inputs":[],"outputs":[],"stateMutability":"nonpayable"},{"type":"function","name":"deposit","inputs":[{"name":"from","type":"address","internalType":"address"},{"name":"amount","type":"uint256","internalType":"uint256"}],"outputs":[],"stateMutability":"nonpayable"},{"type":"function","name":"depositFromVault","inputs":[{"name":"amount","type":"uint256","internalType":"uint256"}],"outputs":[{"name":"allocations","type":"uint256[]","internalType":"uint256[]"}],"stateMutability":"nonpayable"},{"type":"function","name":"emergencyWithdrawAll","inputs":[],"outputs":[],"stateMutability":"nonpayable"},{"type":"function","name":"fees","inputs":[],"outputs":[{"name":"performanceFeeBps","type":"uint256","internalType":"uint256"},{"name":"accruedFees","type":"uint256","internalType":"uint256"},{"name":"feeRecipient","type":"address","internalType":"address"}],"stateMutability":"view"},{"type":"function","name":"getAllStrategies","inputs":[],"outputs":[{"name":"","type":"tuple[]","internalType":"struct TreasuryV2.StrategyConfig[]","components":[{"name":"strategy","type":"address","internalType":"address"},{"name":"targetBps","type":"uint256","internalType":"uint256"},{"name":"minBps","type":"uint256","internalType":"uint256"},{"name":"maxBps","type":"uint256","internalType":"uint256"},{"name":"active","type":"bool","internalType":"bool"},{"name":"autoAllocate","type":"bool","internalType":"bool"}]}],"stateMutability":"view"},{"type":"function","name":"getCurrentAllocations","inputs":[],"outputs":[{"name":"strategyAddresses","type":"address[]","internalType":"address[]"},{"name":"currentBps","type":"uint256[]","internalType":"uint256[]"},{"name":"_targetBps","type":"uint256[]","internalType":"uint256[]"}],"stateMutability":"view"},{"type":"function","name":"getRoleAdmin","inputs":[{"name":"role","type":"bytes32","internalType":"bytes32"}],"outputs":[{"name":"","type":"bytes32","internalType":"bytes32"}],"stateMutability":"view"},{"type":"function","name":"grantRole","inputs":[{"name":"role","type":"bytes32","internalType":"bytes32"},{"name":"account","type":"address","internalType":"address"}],"outputs":[],"stateMutability":"nonpayable"},{"type":"function","name":"hasRole","inputs":[{"name":"role","type":"bytes32","internalType":"bytes32"},{"name":"account","type":"address","internalType":"address"}],"outputs":[{"name":"","type":"bool","internalType":"bool"}],"stateMutability":"view"},{"type":"function","name":"initialize","inputs":[{"name":"_asset","type":"address","internalType":"address"},{"name":"_vault","type":"address","internalType":"address"},{"name":"_admin","type":"address","internalType":"address"},{"name":"_feeRecipient","type":"address","internalType":"address"}],"outputs":[],"stateMutability":"nonpayable"},{"type":"function","name":"isStrategy","inputs":[{"name":"","type":"address","internalType":"address"}],"outputs":[{"name":"","type":"bool","internalType":"bool"}],"stateMutability":"view"},{"type":"function","name":"lastFeeAccrual","inputs":[],"outputs":[{"name":"","type":"uint256","internalType":"uint256"}],"stateMutability":"view"},{"type":"function","name":"lastRecordedValue","inputs":[],"outputs":[{"name":"","type":"uint256","internalType":"uint256"}],"stateMutability":"view"},{"type":"function","name":"minAutoAllocateAmount","inputs":[],"outputs":[{"name":"","type":"uint256","internalType":"uint256"}],"stateMutability":"view"},{"type":"function","name":"pause","inputs":[],"outputs":[],"stateMutability":"nonpayable"},{"type":"function","name":"paused","inputs":[],"outputs":[{"name":"","type":"bool","internalType":"bool"}],"stateMutability":"view"},{"type":"function","name":"pendingFees","inputs":[],"outputs":[{"name":"","type":"uint256","internalType":"uint256"}],"stateMutability":"view"},{"type":"function","name":"proxiableUUID","inputs":[],"outputs":[{"name":"","type":"bytes32","internalType":"bytes32"}],"stateMutability":"view"},{"type":"function","name":"rebalance","inputs":[],"outputs":[],"stateMutability":"nonpayable"},{"type":"function","name":"recoverToken","inputs":[{"name":"token","type":"address","internalType":"address"},{"name":"amount","type":"uint256","internalType":"uint256"}],"outputs":[],"stateMutability":"nonpayable"},{"type":"function","name":"removeStrategy","inputs":[{"name":"strategy","type":"address","internalType":"address"}],"outputs":[],"stateMutability":"nonpayable"},{"type":"function","name":"renounceRole","inputs":[{"name":"role","type":"bytes32","internalType":"bytes32"},{"name":"callerConfirmation","type":"address","internalType":"address"}],"outputs":[],"stateMutability":"nonpayable"},{"type":"function","name":"reserveBalance","inputs":[],"outputs":[{"name":"","type":"uint256","internalType":"uint256"}],"stateMutability":"view"},{"type":"function","name":"reserveBps","inputs":[],"outputs":[{"name":"","type":"uint256","internalType":"uint256"}],"stateMutability":"view"},{"type":"function","name":"revokeRole","inputs":[{"name":"role","type":"bytes32","internalType":"bytes32"},{"name":"account","type":"address","internalType":"address"}],"outputs":[],"stateMutability":"nonpayable"},{"type":"function","name":"setFeeConfig","inputs":[{"name":"_performanceFeeBps","type":"uint256","internalType":"uint256"},{"name":"_feeRecipient","type":"address","internalType":"address"}],"outputs":[],"stateMutability":"nonpayable"},{"type":"function","name":"setMinAutoAllocate","inputs":[{"name":"_minAmount","type":"uint256","internalType":"uint256"}],"outputs":[],"stateMutability":"nonpayable"},{"type":"function","name":"setReserveBps","inputs":[{"name":"_reserveBps","type":"uint256","internalType":"uint256"}],"outputs":[],"stateMutability":"nonpayable"},{"type":"function","name":"setVault","inputs":[{"name":"_vault","type":"address","internalType":"address"}],"outputs":[],"stateMutability":"nonpayable"},{"type":"function","name":"strategies","inputs":[{"name":"","type":"uint256","internalType":"uint256"}],"outputs":[{"name":"strategy","type":"address","internalType":"address"},{"name":"targetBps","type":"uint256","internalType":"uint256"},{"name":"minBps","type":"uint256","internalType":"uint256"},{"name":"maxBps","type":"uint256","internalType":"uint256"},{"name":"active","type":"bool","internalType":"bool"},{"name":"autoAllocate","type":"bool","internalType":"bool"}],"stateMutability":"view"},{"type":"function","name":"strategyCount","inputs":[],"outputs":[{"name":"","type":"uint256","internalType":"uint256"}],"stateMutability":"view"},{"type":"function","name":"strategyIndex","inputs":[{"name":"","type":"address","internalType":"address"}],"outputs":[{"name":"","type":"uint256","internalType":"uint256"}],"stateMutability":"view"},{"type":"function","name":"supportsInterface","inputs":[{"name":"interfaceId","type":"bytes4","internalType":"bytes4"}],"outputs":[{"name":"","type":"bool","internalType":"bool"}],"stateMutability":"view"},{"type":"function","name":"targetReserve","inputs":[],"outputs":[{"name":"","type":"uint256","internalType":"uint256"}],"stateMutability":"view"},{"type":"function","name":"totalBacking","inputs":[],"outputs":[{"name":"","type":"uint256","internalType":"uint256"}],"stateMutability":"view"},{"type":"function","name":"totalValue","inputs":[],"outputs":[{"name":"","type":"uint256","internalType":"uint256"}],"stateMutability":"view"},{"type":"function","name":"totalValueNet","inputs":[],"outputs":[{"name":"","type":"uint256","internalType":"uint256"}],"stateMutability":"view"},{"type":"function","name":"unpause","inputs":[],"outputs":[],"stateMutability":"nonpayable"},{"type":"function","name":"updateStrategy","inputs":[{"name":"strategy","type":"address","internalType":"address"},{"name":"targetBps","type":"uint256","internalType":"uint256"},{"name":"minBps","type":"uint256","internalType":"uint256"},{"name":"maxBps","type":"uint256","internalType":"uint256"},{"name":"autoAllocate","type":"bool","internalType":"bool"}],"outputs":[],"stateMutability":"nonpayable"},{"type":"function","name":"upgradeToAndCall","inputs":[{"name":"newImplementation","type":"address","internalType":"address"},{"name":"data","type":"bytes","internalType":"bytes"}],"outputs":[],"stateMutability":"payable"},{"type":"function","name":"vault","inputs":[],"outputs":[{"name":"","type":"address","internalType":"address"}],"stateMutability":"view"},{"type":"function","name":"withdraw","inputs":[{"name":"to","type":"address","internalType":"address"},{"name":"amount","type":"uint256","internalType":"uint256"}],"outputs":[],"stateMutability":"nonpayable"},{"type":"function","name":"withdrawToVault","inputs":[{"name":"amount","type":"uint256","internalType":"uint256"}],"outputs":[{"name":"actualAmount","type":"uint256","internalType":"uint256"}],"stateMutability":"nonpayable"},{"type":"event","name":"Deposited","inputs":[{"name":"from","type":"address","indexed":true,"internalType":"address"},{"name":"amount","type":"uint256","indexed":false,"internalType":"uint256"},{"name":"allocations","type":"uint256[]","indexed":false,"internalType":"uint256[]"}],"anonymous":false},{"type":"event","name":"EmergencyWithdraw","inputs":[{"name":"amount","type":"uint256","indexed":false,"internalType":"uint256"}],"anonymous":false},{"type":"event","name":"FeeConfigUpdated","inputs":[{"name":"performanceFeeBps","type":"uint256","indexed":false,"internalType":"uint256"},{"name":"feeRecipient","type":"address","indexed":false,"internalType":"address"}],"anonymous":false},{"type":"event","name":"FeesAccrued","inputs":[{"name":"yield_","type":"uint256","indexed":false,"internalType":"uint256"},{"name":"protocolFee","type":"uint256","indexed":false,"internalType":"uint256"}],"anonymous":false},{"type":"event","name":"FeesClaimed","inputs":[{"name":"recipient","type":"address","indexed":true,"internalType":"address"},{"name":"amount","type":"uint256","indexed":false,"internalType":"uint256"}],"anonymous":false},{"type":"event","name":"Initialized","inputs":[{"name":"version","type":"uint64","indexed":false,"internalType":"uint64"}],"anonymous":false},{"type":"event","name":"MinAutoAllocateUpdated","inputs":[{"name":"oldAmount","type":"uint256","indexed":false,"internalType":"uint256"},{"name":"newAmount","type":"uint256","indexed":false,"internalType":"uint256"}],"anonymous":false},{"type":"event","name":"Paused","inputs":[{"name":"account","type":"address","indexed":false,"internalType":"address"}],"anonymous":false},{"type":"event","name":"RebalanceDepositFailed","inputs":[{"name":"strategy","type":"address","indexed":true,"internalType":"address"},{"name":"amount","type":"uint256","indexed":false,"internalType":"uint256"}],"anonymous":false},{"type":"event","name":"RebalanceWithdrawFailed","inputs":[{"name":"strategy","type":"address","indexed":true,"internalType":"address"},{"name":"amount","type":"uint256","indexed":false,"internalType":"uint256"}],"anonymous":false},{"type":"event","name":"Rebalanced","inputs":[{"name":"totalValue","type":"uint256","indexed":false,"internalType":"uint256"}],"anonymous":false},{"type":"event","name":"ReserveBpsUpdated","inputs":[{"name":"oldReserveBps","type":"uint256","indexed":false,"internalType":"uint256"},{"name":"newReserveBps","type":"uint256","indexed":false,"internalType":"uint256"}],"anonymous":false},{"type":"event","name":"RoleAdminChanged","inputs":[{"name":"role","type":"bytes32","indexed":true,"internalType":"bytes32"},{"name":"previousAdminRole","type":"bytes32","indexed":true,"internalType":"bytes32"},{"name":"newAdminRole","type":"bytes32","indexed":true,"internalType":"bytes32"}],"anonymous":false},{"type":"event","name":"RoleGranted","inputs":[{"name":"role","type":"bytes32","indexed":true,"internalType":"bytes32"},{"name":"account","type":"address","indexed":true,"internalType":"address"},{"name":"sender","type":"address","indexed":true,"internalType":"address"}],"anonymous":false},{"type":"event","name":"RoleRevoked","inputs":[{"name":"role","type":"bytes32","indexed":true,"internalType":"bytes32"},{"name":"account","type":"address","indexed":true,"internalType":"address"},{"name":"sender","type":"address","indexed":true,"internalType":"address"}],"anonymous":false},{"type":"event","name":"StrategyAdded","inputs":[{"name":"strategy","type":"address","indexed":true,"internalType":"address"},{"name":"targetBps","type":"uint256","indexed":false,"internalType":"uint256"}],"anonymous":false},{"type":"event","name":"StrategyDepositFailed","inputs":[{"name":"strategy","type":"address","indexed":true,"internalType":"address"},{"name":"amount","type":"uint256","indexed":false,"internalType":"uint256"},{"name":"reason","type":"bytes","indexed":false,"internalType":"bytes"}],"anonymous":false},{"type":"event","name":"StrategyForceDeactivated","inputs":[{"name":"strategy","type":"address","indexed":true,"internalType":"address"},{"name":"strandedValue","type":"uint256","indexed":false,"internalType":"uint256"},{"name":"reason","type":"bytes","indexed":false,"internalType":"bytes"}],"anonymous":false},{"type":"event","name":"StrategyRemoved","inputs":[{"name":"strategy","type":"address","indexed":true,"internalType":"address"}],"anonymous":false},{"type":"event","name":"StrategyUpdated","inputs":[{"name":"strategy","type":"address","indexed":true,"internalType":"address"},{"name":"newTargetBps","type":"uint256","indexed":false,"internalType":"uint256"}],"anonymous":false},{"type":"event","name":"StrategyValueQueryFailed","inputs":[{"name":"strategy","type":"address","indexed":true,"internalType":"address"}],"anonymous":false},{"type":"event","name":"StrategyWithdrawFailed","inputs":[{"name":"strategy","type":"address","indexed":true,"internalType":"address"},{"name":"amount","type":"uint256","indexed":false,"internalType":"uint256"},{"name":"reason","type":"bytes","indexed":false,"internalType":"bytes"}],"anonymous":false},{"type":"event","name":"StrategyWithdrawn","inputs":[{"name":"strategy","type":"address","indexed":true,"internalType":"address"},{"name":"amount","type":"uint256","indexed":false,"internalType":"uint256"}],"anonymous":false},{"type":"event","name":"Unpaused","inputs":[{"name":"account","type":"address","indexed":false,"internalType":"address"}],"anonymous":false},{"type":"event","name":"Upgraded","inputs":[{"name":"implementation","type":"address","indexed":true,"internalType":"address"}],"anonymous":false},{"type":"event","name":"Withdrawn","inputs":[{"name":"to","type":"address","indexed":true,"internalType":"address"},{"name":"amount","type":"uint256","indexed":false,"internalType":"uint256"}],"anonymous":false},{"type":"error","name":"AccessControlBadConfirmation","inputs":[]},{"type":"error","name":"AccessControlUnauthorizedAccount","inputs":[{"name":"account","type":"address","internalType":"address"},{"name":"neededRole","type":"bytes32","internalType":"bytes32"}]},{"type":"error","name":"AddressEmptyCode","inputs":[{"name":"target","type":"address","internalType":"address"}]},{"type":"error","name":"AllocationExceedsLimit","inputs":[]},{"type":"error","name":"ERC1967InvalidImplementation","inputs":[{"name":"implementation","type":"address","internalType":"address"}]},{"type":"error","name":"ERC1967NonPayable","inputs":[]},{"type":"error","name":"EnforcedPause","inputs":[]},{"type":"error","name":"ExpectedPause","inputs":[]},{"type":"error","name":"FailedCall","inputs":[]},{"type":"error","name":"InsufficientBalance","inputs":[]},{"type":"error","name":"InvalidInitialization","inputs":[]},{"type":"error","name":"MaxStrategiesReached","inputs":[]},{"type":"error","name":"NotInitializing","inputs":[]},{"type":"error","name":"OnlyVault","inputs":[]},{"type":"error","name":"ReentrancyGuardReentrantCall","inputs":[]},{"type":"error","name":"SafeERC20FailedOperation","inputs":[{"name":"token","type":"address","internalType":"address"}]},{"type":"error","name":"StrategyExists","inputs":[]},{"type":"error","name":"StrategyNotFound","inputs":[]},{"type":"error","name":"TotalAllocationInvalid","inputs":[]},{"type":"error","name":"UUPSUnauthorizedCallContext","inputs":[]},{"type":"error","name":"UUPSUnsupportedProxiableUUID","inputs":[{"name":"slot","type":"bytes32","internalType":"bytes32"}]},{"type":"error","name":"ZeroAddress","inputs":[]},{"type":"error","name":"ZeroAmount","inputs":[]}],"bytecode":{"object":"0x60a060405230608052348015610013575f80fd5b5061001c610021565b6100d3565b7ff0c57e16840df040f15088dc2f81fe391c3923bec73e23a9662efc9c229c6a00805468010000000000000000900460ff16156100715760405163f92ee8a960e01b815260040160405180910390fd5b80546001600160401b03908116146100d05780546001600160401b0319166001600160401b0390811782556040519081527fc7f505b2f371ae2175ee4913f4499e1f2633a7b5936321eed1cdaeb6115181d29060200160405180910390a15b50565b60805161434a6100f95f395f8181613489015281816134b201526135f3015261434a5ff3fe608060405260043610610366575f3560e01c806371841882116101c8578063c3b28864116100fd578063d547741f1161009d578063eb2cd2581161006d578063eb2cd258146109d3578063f3fef3a3146109e7578063f8c8765e14610a06578063fbfa77cf14610a25575f80fd5b8063d547741f14610927578063d574ea3d14610946578063dd191719146109a0578063e9308c25146109b4575f80fd5b8063ce8c42e8116100d8578063ce8c42e8146108c1578063d294f093146108e0578063d2d4b36b146108f4578063d4c3eea014610913575f80fd5b8063c3b288641461086c578063c81cbaa11461088d578063cd33f2bd146108ad575f80fd5b80639af1d35a11610168578063a378a32411610143578063a378a324146107db578063ad3cb1cc146107fb578063b29a814014610838578063bc0bdf5014610857575f80fd5b80639af1d35a14610769578063a10954fe146107b4578063a217fddf146107c8575f80fd5b80638456cb59116101a35780638456cb59146106f75780638d9e90121461070b57806391d148541461072a57806398c4f1ac14610749575f80fd5b806371841882146106ba578063767f06ae146106cf5780637d7c2a1c146106e3575f80fd5b806337a4e8341161029e5780634f1ef2861161023e5780635c975abb116102195780635c975abb1461062d5780636468af34146106505780636817031b1461066f5780636edd92591461068e575f80fd5b80634f1ef286146105e757806352d1902d146105fa57806358c98c161461060e575f80fd5b80633f4ba83a116102795780633f4ba83a1461057c57806341826c2d1461059057806347e7ef24146105b35780634a165cd9146105d2575f80fd5b806337a4e8341461051d578063389254491461053157806338d52e0f14610546575f80fd5b8063248a9ca3116103095780632e8ebaae116102e45780632e8ebaae1461049d5780632f2ff15d146104cb57806334365d9a146104ea57806336568abe146104fe575f80fd5b8063248a9ca314610449578063249d39e91461046857806324ea54f41461047d575f80fd5b80631ef90fb0116103445780631ef90fb0146103f85780631fa7c6681461040d57806322068b4414610421578063224438d114610435575f80fd5b806301ffc9a71461036a578063114515261461039e578063175188e8146103d7575b5f80fd5b348015610375575f80fd5b50610389610384366004613d5a565b610a44565b60405190151581526020015b60405180910390f35b3480156103a9575f80fd5b506103c96103b8366004613d97565b60036020525f908152604090205481565b604051908152602001610395565b3480156103e2575f80fd5b506103f66103f1366004613d97565b610a7a565b005b348015610403575f80fd5b506103c9610e1081565b348015610418575f80fd5b506103c9610deb565b34801561042c575f80fd5b506002546103c9565b348015610440575f80fd5b506103c9610df9565b348015610454575f80fd5b506103c9610463366004613db0565b610e02565b348015610473575f80fd5b506103c961271081565b348015610488575f80fd5b506103c95f805160206142f583398151915281565b3480156104a8575f80fd5b506103896104b7366004613d97565b60046020525f908152604090205460ff1681565b3480156104d6575f80fd5b506103f66104e5366004613dc7565b610e22565b3480156104f5575f80fd5b506103c9610e44565b348015610509575f80fd5b506103f6610518366004613dc7565b610e79565b348015610528575f80fd5b506103f6610eb1565b34801561053c575f80fd5b506103c960055481565b348015610551575f80fd5b505f54610564906001600160a01b031681565b6040516001600160a01b039091168152602001610395565b348015610587575f80fd5b506103f6610ed3565b34801561059b575f80fd5b506105a4610ee5565b60405161039593929190613e2b565b3480156105be575f80fd5b506103f66105cd366004613e96565b61119f565b3480156105dd575f80fd5b506103c960095481565b6103f66105f5366004613ed2565b6112e8565b348015610605575f80fd5b506103c9611303565b348015610619575f80fd5b506103f6610628366004613db0565b61131e565b348015610638575f80fd5b505f805160206142958339815191525460ff16610389565b34801561065b575f80fd5b506103f661066a366004613dc7565b6113b0565b34801561067a575f80fd5b506103f6610689366004613d97565b6114a7565b348015610699575f80fd5b506106ad6106a8366004613db0565b61152f565b6040516103959190613f96565b3480156106c5575f80fd5b506103c9600b5481565b3480156106da575f80fd5b506103c9600a81565b3480156106ee575f80fd5b506103f661165b565b348015610702575f80fd5b506103f6611b5f565b348015610716575f80fd5b506103f6610725366004613fa8565b611b7e565b348015610735575f80fd5b50610389610744366004613dc7565b611eb2565b348015610754575f80fd5b506103c95f8051602061425583398151915281565b348015610774575f80fd5b506006546007546008546107909291906001600160a01b031683565b6040805193845260208401929092526001600160a01b031690820152606001610395565b3480156107bf575f80fd5b506103c9611ee8565b3480156107d3575f80fd5b506103c95f81565b3480156107e6575f80fd5b506103c95f805160206142b583398151915281565b348015610806575f80fd5b5061082b604051806040016040528060058152602001640352e302e360dc1b81525081565b604051610395919061402a565b348015610843575f80fd5b506103f6610852366004613e96565b611f52565b348015610862575f80fd5b506103c9600a5481565b348015610877575f80fd5b50610880611fc4565b604051610395919061403c565b348015610898575f80fd5b506103c95f8051602061421583398151915281565b3480156108b8575f80fd5b506103c961206b565b3480156108cc575f80fd5b506103c96108db366004613db0565b61208e565b3480156108eb575f80fd5b506103f6612207565b3480156108ff575f80fd5b506103f661090e366004613fa8565b612307565b34801561091e575f80fd5b506103c961251f565b348015610932575f80fd5b506103f6610941366004613dc7565b612607565b348015610951575f80fd5b50610965610960366004613db0565b612623565b604080516001600160a01b039097168752602087019590955293850192909252606084015215156080830152151560a082015260c001610395565b3480156109ab575f80fd5b506103f6612678565b3480156109bf575f80fd5b506103f66109ce366004613db0565b61282d565b3480156109de575f80fd5b506103c96128ba565b3480156109f2575f80fd5b506103f6610a01366004613e96565b6128c3565b348015610a11575f80fd5b506103f6610a203660046140c2565b612a03565b348015610a30575f80fd5b50600154610564906001600160a01b031681565b5f6001600160e01b03198216637965db0b60e01b1480610a7457506301ffc9a760e01b6001600160e01b03198316145b92915050565b5f805160206142b5833981519152610a9181612c3e565b6001600160a01b0382165f9081526004602052604090205460ff16610ac957604051632df15a4160e11b815260040160405180910390fd5b6001600160a01b0382165f908152600360205260409020546002805482908110610af557610af5614113565b5f91825260209091206004600590920201015460ff1615610d18575f836001600160a01b031663d4c3eea06040518163ffffffff1660e01b8152600401602060405180830381865afa925050508015610b6b575060408051601f3d908101601f19168201909252610b6891810190614127565b60015b610b7657505f610b79565b90505b8015610d1657836001600160a01b031663853828b66040518163ffffffff1660e01b81526004016020604051808303815f875af1925050508015610bda575060408051601f3d908101601f19168201909252610bd791810190614127565b60015b610c56573d808015610c07576040519150601f19603f3d011682016040523d82523d5f602084013e610c0c565b606091505b50846001600160a01b03167f2dc4845fc8e1bc578ad810a4b7169617ea8bec54516442796fa66620795fc9938383604051610c4892919061413e565b60405180910390a250610d16565b5f6064610c6484605f614172565b610c6e9190614189565b9050808210610cbf57856001600160a01b03167f47a0288289f9248f1cc731abd5fcd916c55fa1577b883cf69bff73382853523683604051610cb291815260200190565b60405180910390a2610d13565b6001600160a01b0386167f2dc4845fc8e1bc578ad810a4b7169617ea8bec54516442796fa66620795fc993610cf484866141a8565b60408051918252602082018190525f9082015260600160405180910390a25b50505b505b5f60028281548110610d2c57610d2c614113565b5f9182526020822060059190910201600401805460ff1916921515929092179091556002805483908110610d6257610d62614113565b5f9182526020808320600160059093020191909101929092556001600160a01b038086168252600483526040808320805460ff1916905560039093529181208190558054610db39216908590612c48565b6040516001600160a01b038416907f09a1db4b80c32706328728508c941a6b954f31eb5affd32f236c1fd405f8fea4905f90a2505050565b5f610df4611ee8565b905090565b5f610df4612d05565b5f9081525f80516020614275833981519152602052604090206001015490565b610e2b82610e02565b610e3481612c3e565b610e3e8383612d6a565b50505050565b5f80610e4e61251f565b90505f610e59612d05565b9050808211610e68575f610e72565b610e7281836141a8565b9250505090565b6001600160a01b0381163314610ea25760405163334bd91960e11b815260040160405180910390fd5b610eac8282612e0b565b505050565b5f80516020614215833981519152610ec881612c3e565b610ed0612e84565b50565b5f610edd81612c3e565b610ed0612f41565b60608060605f610ef361251f565b6002549091508067ffffffffffffffff811115610f1257610f12613ebe565b604051908082528060200260200182016040528015610f3b578160200160208202803683370190505b5094508067ffffffffffffffff811115610f5757610f57613ebe565b604051908082528060200260200182016040528015610f80578160200160208202803683370190505b5093508067ffffffffffffffff811115610f9c57610f9c613ebe565b604051908082528060200260200182016040528015610fc5578160200160208202803683370190505b5092505f5b818110156111975760028181548110610fe557610fe5614113565b5f91825260209091206005909102015486516001600160a01b039091169087908390811061101557611015614113565b60200260200101906001600160a01b031690816001600160a01b0316815250506002818154811061104857611048614113565b905f5260205f2090600502016001015484828151811061106a5761106a614113565b6020026020010181815250505f831180156110aa57506002818154811061109357611093614113565b5f91825260209091206004600590920201015460ff165b1561118f57600281815481106110c2576110c2614113565b5f91825260209182902060059091020154604080516306a61f7560e51b815290516001600160a01b039092169263d4c3eea0926004808401938290030181865afa925050508015611130575060408051601f3d908101601f1916820190925261112d91810190614127565b60015b611158575f85828151811061114757611147614113565b60200260200101818152505061118f565b8361116561271083614172565b61116f9190614189565b86838151811061118157611181614113565b602002602001018181525050505b600101610fca565b505050909192565b6111a7612f9a565b6111af612fd1565b5f805160206142558339815191526111c681612c3e565b815f036111e657604051631f2a200560e01b815260040160405180910390fd5b6001600160a01b038316331461123c5760405162461bcd60e51b81526020600482015260166024820152754d5553545f4445504f5349545f4f574e5f46554e445360501b60448201526064015b60405180910390fd5b611244612e84565b5f5461125b906001600160a01b0316843085613001565b600b54821061126f5761126d8261303a565b505b61127761251f565b600955604080515f81526020810191829052906001600160a01b038516907fecbade292b10449eeda5afeeebdad84b3e2c5d56548642714fb25876646a15c4906112c490869085906141bb565b60405180910390a250506112e460015f805160206142d583398151915255565b5050565b6112f061347e565b6112f982613522565b6112e4828261352c565b5f61130c6135e8565b505f8051602061423583398151915290565b5f61132881612c3e565b5f82116113695760405162461bcd60e51b815260206004820152600f60248201526e16915493d7d3525397d05353d55395608a1b6044820152606401611233565b600b80549083905560408051828152602081018590527f42ad410c029ee3f46ac78f4c8e1d479cc0a85334db57ab6c802d7098f828a0d491015b60405180910390a1505050565b5f6113ba81612c3e565b6113888311156113fb5760405162461bcd60e51b815260206004820152600c60248201526b08ccaca40e8dede40d0d2ced60a31b6044820152606401611233565b6001600160a01b0382166114455760405162461bcd60e51b8152602060048201526011602482015270125b9d985b1a59081c9958da5c1a595b9d607a1b6044820152606401611233565b61144d612e84565b6006839055600880546001600160a01b0319166001600160a01b0384169081179091556040805185815260208101929092527fe125ae54d7ba2b06e6f44852861516acb2dd2692cf41fb127fa03252f15b334e91016113a3565b5f6114b181612c3e565b6001600160a01b0382166114d85760405163d92e233d60e01b815260040160405180910390fd5b6001546114fc905f80516020614255833981519152906001600160a01b0316612e0b565b50600180546001600160a01b0319166001600160a01b038416179055610eac5f8051602061425583398151915283612d6a565b6060611539612f9a565b611541612fd1565b5f8051602061425583398151915261155881612c3e565b825f0361157857604051631f2a200560e01b815260040160405180910390fd5b611580612e84565b5f54611597906001600160a01b0316333086613001565b600b5483106115b0576115a98361303a565b91506115f8565b60025467ffffffffffffffff8111156115cb576115cb613ebe565b6040519080825280602002602001820160405280156115f4578160200160208202803683370190505b5091505b61160061251f565b60095560405133907fecbade292b10449eeda5afeeebdad84b3e2c5d56548642714fb25876646a15c49061163790869086906141bb565b60405180910390a25061165660015f805160206142d583398151915255565b919050565b611663612f9a565b5f8051602061421583398151915261167a81612c3e565b611682612e84565b5f61168b61251f565b9050805f0361169a5750611b46565b5f5b60025481101561187457600281815481106116b9576116b9614113565b5f91825260209091206004600590920201015460ff161561186c575f600282815481106116e8576116e8614113565b5f9182526020808320600590920290910154604080516306a61f7560e51b815290516001600160a01b039092169450849263d4c3eea0926004808401938290030181865afa15801561173c573d5f803e3d5ffd5b505050506040513d601f19601f820116820180604052508101906117609190614127565b90505f6127106002858154811061177957611779614113565b905f5260205f20906005020160010154866117949190614172565b61179e9190614189565b905080821115611868575f6117b382846141a8565b604051632e1a7d4d60e01b8152600481018290529091506001600160a01b03851690632e1a7d4d906024016020604051808303815f875af1925050508015611818575060408051601f3d908101601f1916820190925261181591810190614127565b60015b61186457836001600160a01b03167f0826265688fdd8c6da68999eb7941fc0a77b0a70392ca5c3912c4cb57cfa2d238260405161185791815260200190565b60405180910390a2611866565b505b505b5050505b60010161169c565b5061187d61251f565b90505f611888611ee8565b90505f6127106005548461189c9190614172565b6118a69190614189565b90505f8183116118b6575f6118c0565b6118c082846141a8565b90505f5b600254811080156118d457505f82115b15611b0057600281815481106118ec576118ec614113565b5f91825260209091206004600590920201015460ff1615611aee575f6002828154811061191b5761191b614113565b5f9182526020808320600590920290910154604080516306a61f7560e51b815290516001600160a01b039092169450849263d4c3eea0926004808401938290030181865afa15801561196f573d5f803e3d5ffd5b505050506040513d601f19601f820116820180604052508101906119939190614127565b90505f612710600285815481106119ac576119ac614113565b905f5260205f20906005020160010154896119c79190614172565b6119d19190614189565b905080821015611aea575f6119e683836141a8565b90505f8682106119f657866119f8565b815b5f54909150611a11906001600160a01b03168683612c48565b60405163b6b55f2560e01b8152600481018290526001600160a01b0386169063b6b55f25906024016020604051808303815f875af1925050508015611a73575060408051601f3d908101601f19168201909252611a7091810190614127565b60015b611ad957846001600160a01b03167fcb5c63317d75df911a08340e9ac3d0423a6d861f8205d37d1be0142b2922da8b82604051611ab291815260200190565b60405180910390a25f8054611ad4916001600160a01b03909116908790612c48565b611ae7565b611ae381896141a8565b9750505b50505b5050505b80611af8816141d3565b9150506118c4565b50611b0961251f565b60098190556040519081527fc306af072396b02bf3a9782c10065cc7ff4aa842934a43f0b76f997b291237c89060200160405180910390a1505050505b50611b5d60015f805160206142d583398151915255565b565b5f805160206142f5833981519152611b7681612c3e565b610ed0613631565b5f805160206142b5833981519152611b9581612c3e565b6001600160a01b038616611bbc5760405163d92e233d60e01b815260040160405180910390fd5b6001600160a01b0386165f9081526004602052604090205460ff1615611bf5576040516325a2934b60e21b815260040160405180910390fd5b600254600a11611c1857604051631f62ca4f60e21b815260040160405180910390fd5b82851180611c2557508484115b15611c4357604051632615e83760e11b815260040160405180910390fd5b5f60055486611c5291906141eb565b90505f5b600254811015611cc75760028181548110611c7357611c73614113565b5f91825260209091206004600590920201015460ff1615611cbf5760028181548110611ca157611ca1614113565b905f5260205f2090600502016001015482611cbc91906141eb565b91505b600101611c56565b50612710811115611ceb57604051631f15009160e11b815260040160405180910390fd5b6040805160c0810182526001600160a01b038981168252602082018981529282018881526060830188815260016080850181815289151560a087019081526002805480850182555f82905297517f405787fa12a823e0f2b7631cc41b3ba8828b3321ca811111fa75cd3aa3bb5ace600590990298890180546001600160a01b031916919098161790965596517f405787fa12a823e0f2b7631cc41b3ba8828b3321ca811111fa75cd3aa3bb5acf87015592517f405787fa12a823e0f2b7631cc41b3ba8828b3321ca811111fa75cd3aa3bb5ad086015590517f405787fa12a823e0f2b7631cc41b3ba8828b3321ca811111fa75cd3aa3bb5ad185015590517f405787fa12a823e0f2b7631cc41b3ba8828b3321ca811111fa75cd3aa3bb5ad29093018054945161ffff1990951693151561ff00191693909317610100941515949094029390931790915554611e4091906141a8565b6001600160a01b0388165f8181526003602090815260408083209490945560049052829020805460ff1916600117905590517f2f564a83158ad1831793ad3e69257b52f39ece5d49cb0d8746708ecb9ef964da90611ea19089815260200190565b60405180910390a250505050505050565b5f9182525f80516020614275833981519152602090815260408084206001600160a01b0393909316845291905290205460ff1690565b5f80546040516370a0823160e01b81523060048201526001600160a01b03909116906370a0823190602401602060405180830381865afa158015611f2e573d5f803e3d5ffd5b505050506040513d601f19601f82011682018060405250810190610df49190614127565b5f611f5c81612c3e565b5f546001600160a01b0390811690841603611fb05760405162461bcd60e51b815260206004820152601460248201527310d0539393d517d49150d3d5915497d054d4d15560621b6044820152606401611233565b610eac6001600160a01b0384163384613679565b60606002805480602002602001604051908101604052809291908181526020015f905b82821015612062575f8481526020908190206040805160c0810182526005860290920180546001600160a01b0316835260018082015484860152600282015492840192909252600381015460608401526004015460ff8082161515608085015261010090910416151560a08301529083529092019101611fe7565b50505050905090565b5f61271060055461207a61251f565b6120849190614172565b610df49190614189565b5f612097612f9a565b61209f612fd1565b5f805160206142558339815191526120b681612c3e565b825f036120d657604051631f2a200560e01b815260040160405180910390fd5b6120de612e84565b5f6120e7611ee8565b9050838110612114576001545f5461210c916001600160a01b03918216911686613679565b8392506121ad565b5f61211f82866141a8565b90505f61212b826136aa565b905061213781846141eb565b945085851115612145578594505b8585101561218e5760405162461bcd60e51b8152602060048201526016602482015275494e53554646494349454e545f4c495155494449545960501b6044820152606401611233565b6001545f546121aa916001600160a01b03918216911687613679565b50505b6001546040518481526001600160a01b03909116907f7084f5476618d8e60b11ef0d7d3f06914655adb8793e28ff7f018d4c76d505d59060200160405180910390a2505061165660015f805160206142d583398151915255565b61220f612f9a565b5f61221981612c3e565b612221612e84565b6007545f8190036122325750611b46565b5f61223b611ee8565b9050818110156122595761225761225282846141a8565b6136aa565b505b5f612262611ee8565b90505f8382106122725783612274565b815b905061228081856141a8565b6007556008545f5461229f916001600160a01b03918216911683613679565b6122a761251f565b6009556008546040518281526001600160a01b03909116907f9493e5bbe4e8e0ac67284469a2d677403d0378a85a59e341d3abc433d0d9a2099060200160405180910390a25050505050611b5d60015f805160206142d583398151915255565b5f8051602061421583398151915261231e81612c3e565b6001600160a01b0386165f9081526004602052604090205460ff1661235657604051632df15a4160e11b815260040160405180910390fd5b6001600160a01b0386165f9081526003602052604081205460055490919061237e90886141eb565b90505f5b6002548110156123ff578281141580156123c15750600281815481106123aa576123aa614113565b5f91825260209091206004600590920201015460ff165b156123f757600281815481106123d9576123d9614113565b905f5260205f20906005020160010154826123f491906141eb565b91505b600101612382565b5061271081111561242357604051631f15009160e11b815260040160405180910390fd5b866002838154811061243757612437614113565b905f5260205f20906005020160010181905550856002838154811061245e5761245e614113565b905f5260205f20906005020160020181905550846002838154811061248557612485614113565b905f5260205f2090600502016003018190555083600283815481106124ac576124ac614113565b905f5260205f20906005020160040160016101000a81548160ff021916908315150217905550876001600160a01b03167fe2d9b7f1e07c794d9c19cb81343399f288c6d5a7ba85b73669b438836de8c2e38860405161250d91815260200190565b60405180910390a25050505050505050565b5f80612529611ee8565b90505f5b600254811015612601576002818154811061254a5761254a614113565b5f91825260209091206004600590920201015460ff16156125f9576002818154811061257857612578614113565b5f91825260209182902060059091020154604080516306a61f7560e51b815290516001600160a01b039092169263d4c3eea0926004808401938290030181865afa9250505080156125e6575060408051601f3d908101601f191682019092526125e391810190614127565b60015b156125f9576125f581846141eb565b9250505b60010161252d565b50919050565b61261082610e02565b61261981612c3e565b610e3e8383612e0b565b60028181548110612632575f80fd5b5f918252602090912060059091020180546001820154600283015460038401546004909401546001600160a01b0390931694509092909160ff8082169161010090041686565b5f805160206142f583398151915261268f81612c3e565b5f5b6002548110156127e357600281815481106126ae576126ae614113565b5f91825260209091206004600590920201015460ff16156127db575f600282815481106126dd576126dd614113565b905f5260205f2090600502015f015f9054906101000a90046001600160a01b03169050806001600160a01b031663853828b66040518163ffffffff1660e01b81526004016020604051808303815f875af192505050801561275b575060408051601f3d908101601f1916820190925261275891810190614127565b60015b6127d7573d808015612788576040519150601f19603f3d011682016040523d82523d5f602084013e61278d565b606091505b50816001600160a01b03167f57b4619e49aca895c9a58348cf426a29b8c67dbfbe0e07785d21b715658cdb905f836040516127c992919061413e565b60405180910390a2506127d9565b505b505b600101612691565b506127ec61251f565b6009557f99d7f8b71cfb9126984f7a5eed3a40e64a8959e9b0e442221546fb04ec6a489c612818611ee8565b6040519081526020015b60405180910390a150565b5f61283781612c3e565b610bb882111561287c5760405162461bcd60e51b815260206004820152601060248201526f0a4cae6cae4ecca40e8dede40d0d2ced60831b6044820152606401611233565b600580549083905560408051828152602081018590527fa0e245298634d40c599ec17ea427d106a12b20c9766dd9a7fcc90ac00cb1936891016113a3565b5f610df461251f565b6128cb612f9a565b6128d3612fd1565b5f805160206142558339815191526128ea81612c3e565b815f0361290a57604051631f2a200560e01b815260040160405180910390fd5b612912612e84565b5f61291b611ee8565b90508281101561293e575f61293082856141a8565b905061293b816136aa565b50505b5f612947611ee8565b9050838110156129915760405162461bcd60e51b8152602060048201526015602482015274494e53554646494349454e545f524553455256455360581b6044820152606401611233565b5f546129a7906001600160a01b03168686613679565b846001600160a01b03167f7084f5476618d8e60b11ef0d7d3f06914655adb8793e28ff7f018d4c76d505d5856040516129e291815260200190565b60405180910390a25050506112e460015f805160206142d583398151915255565b5f612a0c6139e7565b805490915060ff600160401b820416159067ffffffffffffffff165f81158015612a335750825b90505f8267ffffffffffffffff166001148015612a4f5750303b155b905081158015612a5d575080155b15612a7b5760405163f92ee8a960e01b815260040160405180910390fd5b845467ffffffffffffffff191660011785558315612aa557845460ff60401b1916600160401b1785555b6001600160a01b0389161580612ac257506001600160a01b038816155b80612ad457506001600160a01b038716155b15612af25760405163d92e233d60e01b815260040160405180910390fd5b612afa613a0f565b612b02613a17565b612b0a613a0f565b612b12613a0f565b5f80546001600160a01b03808c166001600160a01b0319928316178355600180548c831690841617905560408051606081018252610fa080825260208201869052928b1691018190526006919091556007839055600880549092161790556103e8600555633b9aca00600b55612b889088612d6a565b50612ba05f8051602061421583398151915288612d6a565b50612bb85f805160206142b583398151915288612d6a565b50612bd05f805160206142f583398151915288612d6a565b50612be85f8051602061425583398151915289612d6a565b5042600a558315612c3357845460ff60401b19168555604051600181527fc7f505b2f371ae2175ee4913f4499e1f2633a7b5936321eed1cdaeb6115181d29060200160405180910390a15b505050505050505050565b610ed08133613a27565b604080516001600160a01b038416602482015260448082018490528251808303909101815260649091019091526020810180516001600160e01b031663095ea7b360e01b179052612c998482613a60565b610e3e576040516001600160a01b0384811660248301525f6044830152612cfb91869182169063095ea7b3906064015b604051602081830303815290604052915060e01b6020820180516001600160e01b038381831617835250505050613aa9565b610e3e8482613aa9565b5f80612d0f61251f565b90506009548111612d2257505060075490565b5f60095482612d3191906141a8565b90505f61271060065f015483612d479190614172565b612d519190614189565b600754909150612d629082906141eb565b935050505090565b5f5f80516020614275833981519152612d838484611eb2565b612e02575f848152602082815260408083206001600160a01b03871684529091529020805460ff19166001179055612db83390565b6001600160a01b0316836001600160a01b0316857f2f8788117e7eff1d82e926ec794901d17c78024a50270940304540a733656f0d60405160405180910390a46001915050610a74565b5f915050610a74565b5f5f80516020614275833981519152612e248484611eb2565b15612e02575f848152602082815260408083206001600160a01b0387168085529252808320805460ff1916905551339287917ff6391f5c32d9c69d2a47ea670b442974b53935d1edc7fd64eb21e047a839171b9190a46001915050610a74565b610e10600a54612e9491906141eb565b421015612e9d57565b5f612ea661251f565b9050600954811115612f38575f60095482612ec191906141a8565b90505f61271060065f015483612ed79190614172565b612ee19190614189565b90508060066001015f828254612ef791906141eb565b909155505060408051838152602081018390527f49086fb5fbe3012e87f1afd31e52bfcb81e75a7804f59744a6eee012b59cd0a0910160405180910390a150505b60095542600a55565b612f49613b15565b5f80516020614295833981519152805460ff191681557f5db9ee0a495bf2e6ff9c91a7834c1ba4fdd244a5e8aa4e537bd38aeae4b073aa335b6040516001600160a01b039091168152602001612822565b5f805160206142d5833981519152805460011901612fcb57604051633ee5aeb560e01b815260040160405180910390fd5b60029055565b5f805160206142958339815191525460ff1615611b5d5760405163d93c066560e01b815260040160405180910390fd5b6040516001600160a01b038481166024830152838116604483015260648201839052610e3e9186918216906323b872dd90608401612cc9565b60025460609067ffffffffffffffff81111561305857613058613ebe565b604051908082528060200260200182016040528015613081578160200160208202803683370190505b5090505f612710600554846130969190614172565b6130a09190614189565b90505f6130ad82856141a8565b90505f805b60025481101561315b57600281815481106130cf576130cf614113565b5f91825260209091206004600590920201015460ff16801561311d5750600281815481106130ff576130ff614113565b905f5260205f20906005020160040160019054906101000a900460ff165b15613153576002818154811061313557613135614113565b905f5260205f209060050201600101548261315091906141eb565b91505b6001016130b2565b50805f0361316b57505050919050565b5f5f19815b6002548110156131ec576002818154811061318d5761318d614113565b5f91825260209091206004600590920201015460ff1680156131db5750600281815481106131bd576131bd614113565b905f5260205f20906005020160040160019054906101000a900460ff165b156131e4578091505b600101613170565b505f5b600254811015613460576002818154811061320c5761320c614113565b5f91825260209091206004600590920201015460ff16158061325b57506002818154811061323c5761323c614113565b905f5260205f20906005020160040160019054906101000a900460ff16155b613458575f8282036132785761327184876141a8565b90506132b4565b846002838154811061328c5761328c614113565b905f5260205f20906005020160010154876132a79190614172565b6132b19190614189565b90505b8015613456576132c481856141eb565b93505f600283815481106132da576132da614113565b5f918252602082206005909102015490546001600160a01b03918216925061330491168284612c48565b60405163b6b55f2560e01b8152600481018390526001600160a01b0382169063b6b55f25906024016020604051808303815f875af1925050508015613366575060408051601f3d908101601f1916820190925261336391810190614127565b60015b61341a573d808015613393576040519150601f19603f3d011682016040523d82523d5f602084013e613398565b606091505b505f8a85815181106133ac576133ac614113565b60209081029190910101525f80546133d1916001600160a01b03909116908490612c48565b816001600160a01b03167f70a7bb346d6e67bc583bd557a8f610e563d78af302b6e62d1a2d074be1fa469a848360405161340c92919061413e565b60405180910390a250613454565b808a858151811061342d5761342d614113565b60209081029190910101525f8054613452916001600160a01b03909116908490612c48565b505b505b505b6001016131ef565b505050505050919050565b60015f805160206142d583398151915255565b306001600160a01b037f000000000000000000000000000000000000000000000000000000000000000016148061350457507f00000000000000000000000000000000000000000000000000000000000000006001600160a01b03166134f85f80516020614235833981519152546001600160a01b031690565b6001600160a01b031614155b15611b5d5760405163703e46dd60e11b815260040160405180910390fd5b5f6112e481612c3e565b816001600160a01b03166352d1902d6040518163ffffffff1660e01b8152600401602060405180830381865afa925050508015613586575060408051601f3d908101601f1916820190925261358391810190614127565b60015b6135ae57604051634c9c8ce360e01b81526001600160a01b0383166004820152602401611233565b5f8051602061423583398151915281146135de57604051632a87526960e21b815260048101829052602401611233565b610eac8383613b44565b306001600160a01b037f00000000000000000000000000000000000000000000000000000000000000001614611b5d5760405163703e46dd60e11b815260040160405180910390fd5b613639612fd1565b5f80516020614295833981519152805460ff191660011781557f62e78cea01bee320cd4e420270b5ea74000d11b0c9f74754ebdbfc544b05a25833612f82565b6040516001600160a01b03838116602483015260448201839052610eac91859182169063a9059cbb90606401612cc9565b5f81815f19815b60025481101561378857600281815481106136ce576136ce614113565b5f91825260209091206004600590920201015460ff161561378057600281815481106136fc576136fc614113565b5f91825260209182902060059091020154604080516306a61f7560e51b815290516001600160a01b039092169263d4c3eea0926004808401938290030181865afa92505050801561376a575060408051601f3d908101601f1916820190925261376791810190614127565b60015b156137805761377981856141eb565b9350819250505b6001016136b1565b50815f0361379a57505f949350505050565b5f5b600254811080156137ac57505f84115b156139de57600281815481106137c4576137c4614113565b5f91825260209091206004600590920201015460ff16156139cc575f600282815481106137f3576137f3614113565b5f9182526020808320600590920290910154604080516306a61f7560e51b815290516001600160a01b039092169450849263d4c3eea0926004808401938290030181865afa925050508015613865575060408051601f3d908101601f1916820190925261386291810190614127565b60015b6138705750506139cc565b9050805f036138805750506139cc565b5f84840361388f5750856138a7565b8561389a838b614172565b6138a49190614189565b90505b868111156138b25750855b818111156138bd5750805b80156139c857604051632e1a7d4d60e01b8152600481018290526001600160a01b03841690632e1a7d4d906024016020604051808303815f875af1925050508015613925575060408051601f3d908101601f1916820190925261392291810190614127565b60015b6139a1573d808015613952576040519150601f19603f3d011682016040523d82523d5f602084013e613957565b606091505b50836001600160a01b03167f57b4619e49aca895c9a58348cf426a29b8c67dbfbe0e07785d21b715658cdb90838360405161399392919061413e565b60405180910390a2506139c8565b6139ab818a6141eb565b98508088116139ba575f6139c4565b6139c481896141a8565b9750505b5050505b806139d6816141d3565b91505061379c565b50505050919050565b5f807ff0c57e16840df040f15088dc2f81fe391c3923bec73e23a9662efc9c229c6a00610a74565b611b5d613b99565b613a1f613b99565b611b5d613bbe565b613a318282611eb2565b6112e45760405163e2517d3f60e01b81526001600160a01b038216600482015260248101839052604401611233565b5f805f8060205f8651602088015f8a5af192503d91505f519050828015613a9f57508115613a915780600114613a9f565b5f866001600160a01b03163b115b9695505050505050565b5f8060205f8451602086015f885af180613ac8576040513d5f823e3d81fd5b50505f513d91508115613adf578060011415613aec565b6001600160a01b0384163b155b15610e3e57604051635274afe760e01b81526001600160a01b0385166004820152602401611233565b5f805160206142958339815191525460ff16611b5d57604051638dfc202b60e01b815260040160405180910390fd5b613b4d82613bc6565b6040516001600160a01b038316907fbc7cd75a20ee27fd9adebab32041f755214dbc6bffa90cc0225b39da2e5c2d3b905f90a2805115613b9157610eac8282613c29565b6112e4613c9b565b613ba1613cba565b611b5d57604051631afcd79f60e31b815260040160405180910390fd5b61346b613b99565b806001600160a01b03163b5f03613bfb57604051634c9c8ce360e01b81526001600160a01b0382166004820152602401611233565b5f8051602061423583398151915280546001600160a01b0319166001600160a01b0392909216919091179055565b60605f80846001600160a01b031684604051613c4591906141fe565b5f60405180830381855af49150503d805f8114613c7d576040519150601f19603f3d011682016040523d82523d5f602084013e613c82565b606091505b5091509150613c92858383613cd3565b95945050505050565b3415611b5d5760405163b398979f60e01b815260040160405180910390fd5b5f613cc36139e7565b54600160401b900460ff16919050565b606082613ce857613ce382613d32565b613d2b565b8151158015613cff57506001600160a01b0384163b155b15613d2857604051639996b31560e01b81526001600160a01b0385166004820152602401611233565b50805b9392505050565b805115613d4157805160208201fd5b60405163d6bda27560e01b815260040160405180910390fd5b5f60208284031215613d6a575f80fd5b81356001600160e01b031981168114613d2b575f80fd5b80356001600160a01b0381168114611656575f80fd5b5f60208284031215613da7575f80fd5b613d2b82613d81565b5f60208284031215613dc0575f80fd5b5035919050565b5f8060408385031215613dd8575f80fd5b82359150613de860208401613d81565b90509250929050565b5f8151808452602084019350602083015f5b82811015613e21578151865260209586019590910190600101613e03565b5093949350505050565b606080825284519082018190525f9060208601906080840190835b81811015613e6d5783516001600160a01b0316835260209384019390920191600101613e46565b50508381036020850152613e818187613df1565b9150508281036040840152613a9f8185613df1565b5f8060408385031215613ea7575f80fd5b613eb083613d81565b946020939093013593505050565b634e487b7160e01b5f52604160045260245ffd5b5f8060408385031215613ee3575f80fd5b613eec83613d81565b9150602083013567ffffffffffffffff811115613f07575f80fd5b8301601f81018513613f17575f80fd5b803567ffffffffffffffff811115613f3157613f31613ebe565b604051601f8201601f19908116603f0116810167ffffffffffffffff81118282101715613f6057613f60613ebe565b604052818152828201602001871015613f77575f80fd5b816020840160208301375f602083830101528093505050509250929050565b602081525f613d2b6020830184613df1565b5f805f805f60a08688031215613fbc575f80fd5b613fc586613d81565b945060208601359350604086013592506060860135915060808601358015158114613fee575f80fd5b809150509295509295909350565b5f81518084528060208401602086015e5f602082860101526020601f19601f83011685010191505092915050565b602081525f613d2b6020830184613ffc565b602080825282518282018190525f918401906040840190835b818110156140b757835180516001600160a01b0316845260208082015181860152604080830151908601526060808301519086015260808083015115159086015260a0918201511515918501919091529093019260c090920191600101614055565b509095945050505050565b5f805f80608085870312156140d5575f80fd5b6140de85613d81565b93506140ec60208601613d81565b92506140fa60408601613d81565b915061410860608601613d81565b905092959194509250565b634e487b7160e01b5f52603260045260245ffd5b5f60208284031215614137575f80fd5b5051919050565b828152604060208201525f6141566040830184613ffc565b949350505050565b634e487b7160e01b5f52601160045260245ffd5b8082028115828204841417610a7457610a7461415e565b5f826141a357634e487b7160e01b5f52601260045260245ffd5b500490565b81810381811115610a7457610a7461415e565b828152604060208201525f6141566040830184613df1565b5f600182016141e4576141e461415e565b5060010190565b80820180821115610a7457610a7461415e565b5f82518060208501845e5f92019182525091905056fe68bf109b95a5c15fb2bb99041323c27d15f8675e11bf7420a1cd6ad64c394f46360894a13ba1a3210667c828492db98dca3e2076cc3735a920a3ca505d382bbc31e0210044b4f6757ce6aa31f9c6e8d4896d24a755014887391a926c5224d95902dd7bc7dec4dceedda775e58dd541e08a116c6c53815c0bd028192f7b626800cd5ed15c6e187e77e9aee88184c21f4f2182ab5827cb3b7e07fbedcd63f0330017a8e30262c1f919c33056d877a3c22b95c2f5e4dac44683c1c2323cd79fbdb09b779b17422d0df92223018b32b4d1fa46e071723d6817e2486d003becc55f0055435dd261a4b9b3364963f7738a7a662ad9c84396d64be3365284bb7f0a5041a2646970667358221220adb15bad90c8a76a89808e33ccbedef3eafcea88c60ce13ad18919316d5298b864736f6c634300081a0033","linkReferences":{}},"methodIdentifiers":{"ALLOCATOR_ROLE()":"c81cbaa1","BPS()":"249d39e9","DEFAULT_ADMIN_ROLE()":"a217fddf","GUARDIAN_ROLE()":"24ea54f4","MAX_STRATEGIES()":"767f06ae","MIN_ACCRUAL_INTERVAL()":"1ef90fb0","STRATEGIST_ROLE()":"a378a324","UPGRADE_INTERFACE_VERSION()":"ad3cb1cc","VAULT_ROLE()":"98c4f1ac","accrueFees()":"37a4e834","addStrategy(address,uint256,uint256,uint256,bool)":"8d9e9012","asset()":"38d52e0f","availableReserves()":"1fa7c668","claimFees()":"d294f093","deposit(address,uint256)":"47e7ef24","depositFromVault(uint256)":"6edd9259","emergencyWithdrawAll()":"dd191719","fees()":"9af1d35a","getAllStrategies()":"c3b28864","getCurrentAllocations()":"41826c2d","getRoleAdmin(bytes32)":"248a9ca3","grantRole(bytes32,address)":"2f2ff15d","hasRole(bytes32,address)":"91d14854","initialize(address,address,address,address)":"f8c8765e","isStrategy(address)":"2e8ebaae","lastFeeAccrual()":"bc0bdf50","lastRecordedValue()":"4a165cd9","minAutoAllocateAmount()":"71841882","pause()":"8456cb59","paused()":"5c975abb","pendingFees()":"224438d1","proxiableUUID()":"52d1902d","rebalance()":"7d7c2a1c","recoverToken(address,uint256)":"b29a8140","removeStrategy(address)":"175188e8","renounceRole(bytes32,address)":"36568abe","reserveBalance()":"a10954fe","reserveBps()":"38925449","revokeRole(bytes32,address)":"d547741f","setFeeConfig(uint256,address)":"6468af34","setMinAutoAllocate(uint256)":"58c98c16","setReserveBps(uint256)":"e9308c25","setVault(address)":"6817031b","strategies(uint256)":"d574ea3d","strategyCount()":"22068b44","strategyIndex(address)":"11451526","supportsInterface(bytes4)":"01ffc9a7","targetReserve()":"cd33f2bd","totalBacking()":"eb2cd258","totalValue()":"d4c3eea0","totalValueNet()":"34365d9a","unpause()":"3f4ba83a","updateStrategy(address,uint256,uint256,uint256,bool)":"d2d4b36b","upgradeToAndCall(address,bytes)":"4f1ef286","vault()":"fbfa77cf","withdraw(address,uint256)":"f3fef3a3","withdrawToVault(uint256)":"ce8c42e8"},"id":16}