{"abi":[{"type":"constructor","inputs":[],"stateMutability":"nonpayable"},{"type":"function","name":"ALLOCATOR_ROLE","inputs":[],"outputs":[{"name":"","type":"bytes32","internalType":"bytes32"}],"stateMutability":"view"},{"type":"function","name":"BPS","inputs":[],"outputs":[{"name":"","type":"uint256","internalType":"uint256"}],"stateMutability":"view"},{"type":"function","name":"DEFAULT_ADMIN_ROLE","inputs":[],"outputs":[{"name":"","type":"bytes32","internalType":"bytes32"}],"stateMutability":"view"},{"type":"function","name":"GUARDIAN_ROLE","inputs":[],"outputs":[{"name":"","type":"bytes32","internalType":"bytes32"}],"stateMutability":"view"},{"type":"function","name":"MAX_STRATEGIES","inputs":[],"outputs":[{"name":"","type":"uint256","internalType":"uint256"}],"stateMutability":"view"},{"type":"function","name":"MAX_YIELD_PER_ACCRUAL_BPS","inputs":[],"outputs":[{"name":"","type":"uint256","internalType":"uint256"}],"stateMutability":"view"},{"type":"function","name":"MIN_ACCRUAL_INTERVAL","inputs":[],"outputs":[{"name":"","type":"uint256","internalType":"uint256"}],"stateMutability":"view"},{"type":"function","name":"STRATEGIST_ROLE","inputs":[],"outputs":[{"name":"","type":"bytes32","internalType":"bytes32"}],"stateMutability":"view"},{"type":"function","name":"UPGRADE_DELAY","inputs":[],"outputs":[{"name":"","type":"uint256","internalType":"uint256"}],"stateMutability":"view"},{"type":"function","name":"UPGRADE_INTERFACE_VERSION","inputs":[],"outputs":[{"name":"","type":"string","internalType":"string"}],"stateMutability":"view"},{"type":"function","name":"VAULT_ROLE","inputs":[],"outputs":[{"name":"","type":"bytes32","internalType":"bytes32"}],"stateMutability":"view"},{"type":"function","name":"accrueFees","inputs":[],"outputs":[],"stateMutability":"nonpayable"},{"type":"function","name":"asset","inputs":[],"outputs":[{"name":"","type":"address","internalType":"contract IERC20"}],"stateMutability":"view"},{"type":"function","name":"availableReserves","inputs":[],"outputs":[{"name":"","type":"uint256","internalType":"uint256"}],"stateMutability":"view"},{"type":"function","name":"cancelAddStrategy","inputs":[],"outputs":[],"stateMutability":"nonpayable"},{"type":"function","name":"cancelFeeConfig","inputs":[],"outputs":[],"stateMutability":"nonpayable"},{"type":"function","name":"cancelRemoveStrategy","inputs":[],"outputs":[],"stateMutability":"nonpayable"},{"type":"function","name":"cancelReserveBps","inputs":[],"outputs":[],"stateMutability":"nonpayable"},{"type":"function","name":"cancelUpdateStrategy","inputs":[],"outputs":[],"stateMutability":"nonpayable"},{"type":"function","name":"cancelUpgrade","inputs":[],"outputs":[],"stateMutability":"nonpayable"},{"type":"function","name":"cancelVaultChange","inputs":[],"outputs":[],"stateMutability":"nonpayable"},{"type":"function","name":"claimFees","inputs":[],"outputs":[],"stateMutability":"nonpayable"},{"type":"function","name":"deposit","inputs":[{"name":"from","type":"address","internalType":"address"},{"name":"amount","type":"uint256","internalType":"uint256"}],"outputs":[],"stateMutability":"nonpayable"},{"type":"function","name":"depositFromVault","inputs":[{"name":"amount","type":"uint256","internalType":"uint256"}],"outputs":[{"name":"allocations","type":"uint256[]","internalType":"uint256[]"}],"stateMutability":"nonpayable"},{"type":"function","name":"emergencyWithdrawAll","inputs":[],"outputs":[],"stateMutability":"nonpayable"},{"type":"function","name":"executeAddStrategy","inputs":[],"outputs":[],"stateMutability":"nonpayable"},{"type":"function","name":"executeFeeConfig","inputs":[],"outputs":[],"stateMutability":"nonpayable"},{"type":"function","name":"executeRemoveStrategy","inputs":[],"outputs":[],"stateMutability":"nonpayable"},{"type":"function","name":"executeReserveBps","inputs":[],"outputs":[],"stateMutability":"nonpayable"},{"type":"function","name":"executeUpdateStrategy","inputs":[],"outputs":[],"stateMutability":"nonpayable"},{"type":"function","name":"executeVaultChange","inputs":[],"outputs":[],"stateMutability":"nonpayable"},{"type":"function","name":"fees","inputs":[],"outputs":[{"name":"performanceFeeBps","type":"uint256","internalType":"uint256"},{"name":"accruedFees","type":"uint256","internalType":"uint256"},{"name":"feeRecipient","type":"address","internalType":"address"}],"stateMutability":"view"},{"type":"function","name":"getAllStrategies","inputs":[],"outputs":[{"name":"","type":"tuple[]","internalType":"struct TreasuryV2.StrategyConfig[]","components":[{"name":"strategy","type":"address","internalType":"address"},{"name":"targetBps","type":"uint256","internalType":"uint256"},{"name":"minBps","type":"uint256","internalType":"uint256"},{"name":"maxBps","type":"uint256","internalType":"uint256"},{"name":"active","type":"bool","internalType":"bool"},{"name":"autoAllocate","type":"bool","internalType":"bool"}]}],"stateMutability":"view"},{"type":"function","name":"getCurrentAllocations","inputs":[],"outputs":[{"name":"strategyAddresses","type":"address[]","internalType":"address[]"},{"name":"currentBps","type":"uint256[]","internalType":"uint256[]"},{"name":"_targetBps","type":"uint256[]","internalType":"uint256[]"}],"stateMutability":"view"},{"type":"function","name":"getRoleAdmin","inputs":[{"name":"role","type":"bytes32","internalType":"bytes32"}],"outputs":[{"name":"","type":"bytes32","internalType":"bytes32"}],"stateMutability":"view"},{"type":"function","name":"grantRole","inputs":[{"name":"role","type":"bytes32","internalType":"bytes32"},{"name":"account","type":"address","internalType":"address"}],"outputs":[],"stateMutability":"nonpayable"},{"type":"function","name":"hasRole","inputs":[{"name":"role","type":"bytes32","internalType":"bytes32"},{"name":"account","type":"address","internalType":"address"}],"outputs":[{"name":"","type":"bool","internalType":"bool"}],"stateMutability":"view"},{"type":"function","name":"initialize","inputs":[{"name":"_asset","type":"address","internalType":"address"},{"name":"_vault","type":"address","internalType":"address"},{"name":"_admin","type":"address","internalType":"address"},{"name":"_feeRecipient","type":"address","internalType":"address"}],"outputs":[],"stateMutability":"nonpayable"},{"type":"function","name":"isStrategy","inputs":[{"name":"","type":"address","internalType":"address"}],"outputs":[{"name":"","type":"bool","internalType":"bool"}],"stateMutability":"view"},{"type":"function","name":"lastFeeAccrual","inputs":[],"outputs":[{"name":"","type":"uint256","internalType":"uint256"}],"stateMutability":"view"},{"type":"function","name":"lastRecordedValue","inputs":[],"outputs":[{"name":"","type":"uint256","internalType":"uint256"}],"stateMutability":"view"},{"type":"function","name":"minAutoAllocateAmount","inputs":[],"outputs":[{"name":"","type":"uint256","internalType":"uint256"}],"stateMutability":"view"},{"type":"function","name":"pause","inputs":[],"outputs":[],"stateMutability":"nonpayable"},{"type":"function","name":"paused","inputs":[],"outputs":[{"name":"","type":"bool","internalType":"bool"}],"stateMutability":"view"},{"type":"function","name":"peakRecordedValue","inputs":[],"outputs":[{"name":"","type":"uint256","internalType":"uint256"}],"stateMutability":"view"},{"type":"function","name":"pendingAddStrategy","inputs":[],"outputs":[{"name":"strategy","type":"address","internalType":"address"},{"name":"targetBps","type":"uint256","internalType":"uint256"},{"name":"minBps","type":"uint256","internalType":"uint256"},{"name":"maxBps","type":"uint256","internalType":"uint256"},{"name":"autoAllocate","type":"bool","internalType":"bool"},{"name":"requestTime","type":"uint256","internalType":"uint256"}],"stateMutability":"view"},{"type":"function","name":"pendingFeeConfigBps","inputs":[],"outputs":[{"name":"","type":"uint256","internalType":"uint256"}],"stateMutability":"view"},{"type":"function","name":"pendingFeeConfigRecipient","inputs":[],"outputs":[{"name":"","type":"address","internalType":"address"}],"stateMutability":"view"},{"type":"function","name":"pendingFeeConfigTime","inputs":[],"outputs":[{"name":"","type":"uint256","internalType":"uint256"}],"stateMutability":"view"},{"type":"function","name":"pendingFees","inputs":[],"outputs":[{"name":"","type":"uint256","internalType":"uint256"}],"stateMutability":"view"},{"type":"function","name":"pendingImplementation","inputs":[],"outputs":[{"name":"","type":"address","internalType":"address"}],"stateMutability":"view"},{"type":"function","name":"pendingRemoveStrategy","inputs":[],"outputs":[{"name":"","type":"address","internalType":"address"}],"stateMutability":"view"},{"type":"function","name":"pendingRemoveStrategyTime","inputs":[],"outputs":[{"name":"","type":"uint256","internalType":"uint256"}],"stateMutability":"view"},{"type":"function","name":"pendingReserveBps","inputs":[],"outputs":[{"name":"","type":"uint256","internalType":"uint256"}],"stateMutability":"view"},{"type":"function","name":"pendingReserveBpsSet","inputs":[],"outputs":[{"name":"","type":"bool","internalType":"bool"}],"stateMutability":"view"},{"type":"function","name":"pendingReserveBpsTime","inputs":[],"outputs":[{"name":"","type":"uint256","internalType":"uint256"}],"stateMutability":"view"},{"type":"function","name":"pendingStrategyUpdate","inputs":[],"outputs":[{"name":"strategy","type":"address","internalType":"address"},{"name":"targetBps","type":"uint256","internalType":"uint256"},{"name":"minBps","type":"uint256","internalType":"uint256"},{"name":"maxBps","type":"uint256","internalType":"uint256"},{"name":"autoAllocate","type":"bool","internalType":"bool"},{"name":"requestTime","type":"uint256","internalType":"uint256"}],"stateMutability":"view"},{"type":"function","name":"pendingVault","inputs":[],"outputs":[{"name":"","type":"address","internalType":"address"}],"stateMutability":"view"},{"type":"function","name":"proxiableUUID","inputs":[],"outputs":[{"name":"","type":"bytes32","internalType":"bytes32"}],"stateMutability":"view"},{"type":"function","name":"rebalance","inputs":[],"outputs":[],"stateMutability":"nonpayable"},{"type":"function","name":"recoverToken","inputs":[{"name":"token","type":"address","internalType":"address"},{"name":"amount","type":"uint256","internalType":"uint256"}],"outputs":[],"stateMutability":"nonpayable"},{"type":"function","name":"renounceRole","inputs":[{"name":"role","type":"bytes32","internalType":"bytes32"},{"name":"callerConfirmation","type":"address","internalType":"address"}],"outputs":[],"stateMutability":"nonpayable"},{"type":"function","name":"requestAddStrategy","inputs":[{"name":"strategy","type":"address","internalType":"address"},{"name":"targetBps","type":"uint256","internalType":"uint256"},{"name":"minBps","type":"uint256","internalType":"uint256"},{"name":"maxBps","type":"uint256","internalType":"uint256"},{"name":"autoAllocate","type":"bool","internalType":"bool"}],"outputs":[],"stateMutability":"nonpayable"},{"type":"function","name":"requestFeeConfig","inputs":[{"name":"_performanceFeeBps","type":"uint256","internalType":"uint256"},{"name":"_feeRecipient","type":"address","internalType":"address"}],"outputs":[],"stateMutability":"nonpayable"},{"type":"function","name":"requestRemoveStrategy","inputs":[{"name":"strategy","type":"address","internalType":"address"}],"outputs":[],"stateMutability":"nonpayable"},{"type":"function","name":"requestReserveBps","inputs":[{"name":"_reserveBps","type":"uint256","internalType":"uint256"}],"outputs":[],"stateMutability":"nonpayable"},{"type":"function","name":"requestUpdateStrategy","inputs":[{"name":"strategy","type":"address","internalType":"address"},{"name":"targetBps","type":"uint256","internalType":"uint256"},{"name":"minBps","type":"uint256","internalType":"uint256"},{"name":"maxBps","type":"uint256","internalType":"uint256"},{"name":"autoAllocate","type":"bool","internalType":"bool"}],"outputs":[],"stateMutability":"nonpayable"},{"type":"function","name":"requestUpgrade","inputs":[{"name":"newImplementation","type":"address","internalType":"address"}],"outputs":[],"stateMutability":"nonpayable"},{"type":"function","name":"requestVaultChange","inputs":[{"name":"_vault","type":"address","internalType":"address"}],"outputs":[],"stateMutability":"nonpayable"},{"type":"function","name":"reserveBalance","inputs":[],"outputs":[{"name":"","type":"uint256","internalType":"uint256"}],"stateMutability":"view"},{"type":"function","name":"reserveBps","inputs":[],"outputs":[{"name":"","type":"uint256","internalType":"uint256"}],"stateMutability":"view"},{"type":"function","name":"revokeRole","inputs":[{"name":"role","type":"bytes32","internalType":"bytes32"},{"name":"account","type":"address","internalType":"address"}],"outputs":[],"stateMutability":"nonpayable"},{"type":"function","name":"setMinAutoAllocate","inputs":[{"name":"_minAmount","type":"uint256","internalType":"uint256"}],"outputs":[],"stateMutability":"nonpayable"},{"type":"function","name":"strategies","inputs":[{"name":"","type":"uint256","internalType":"uint256"}],"outputs":[{"name":"strategy","type":"address","internalType":"address"},{"name":"targetBps","type":"uint256","internalType":"uint256"},{"name":"minBps","type":"uint256","internalType":"uint256"},{"name":"maxBps","type":"uint256","internalType":"uint256"},{"name":"active","type":"bool","internalType":"bool"},{"name":"autoAllocate","type":"bool","internalType":"bool"}],"stateMutability":"view"},{"type":"function","name":"strategyCount","inputs":[],"outputs":[{"name":"","type":"uint256","internalType":"uint256"}],"stateMutability":"view"},{"type":"function","name":"strategyIndex","inputs":[{"name":"","type":"address","internalType":"address"}],"outputs":[{"name":"","type":"uint256","internalType":"uint256"}],"stateMutability":"view"},{"type":"function","name":"supportsInterface","inputs":[{"name":"interfaceId","type":"bytes4","internalType":"bytes4"}],"outputs":[{"name":"","type":"bool","internalType":"bool"}],"stateMutability":"view"},{"type":"function","name":"targetReserve","inputs":[],"outputs":[{"name":"","type":"uint256","internalType":"uint256"}],"stateMutability":"view"},{"type":"function","name":"totalBacking","inputs":[],"outputs":[{"name":"","type":"uint256","internalType":"uint256"}],"stateMutability":"view"},{"type":"function","name":"totalValue","inputs":[],"outputs":[{"name":"","type":"uint256","internalType":"uint256"}],"stateMutability":"view"},{"type":"function","name":"totalValueNet","inputs":[],"outputs":[{"name":"","type":"uint256","internalType":"uint256"}],"stateMutability":"view"},{"type":"function","name":"unpause","inputs":[],"outputs":[],"stateMutability":"nonpayable"},{"type":"function","name":"updateStrategy","inputs":[{"name":"strategy","type":"address","internalType":"address"},{"name":"targetBps","type":"uint256","internalType":"uint256"},{"name":"minBps","type":"uint256","internalType":"uint256"},{"name":"maxBps","type":"uint256","internalType":"uint256"},{"name":"autoAllocate","type":"bool","internalType":"bool"}],"outputs":[],"stateMutability":"nonpayable"},{"type":"function","name":"upgradeRequestTime","inputs":[],"outputs":[{"name":"","type":"uint256","internalType":"uint256"}],"stateMutability":"view"},{"type":"function","name":"upgradeToAndCall","inputs":[{"name":"newImplementation","type":"address","internalType":"address"},{"name":"data","type":"bytes","internalType":"bytes"}],"outputs":[],"stateMutability":"payable"},{"type":"function","name":"vault","inputs":[],"outputs":[{"name":"","type":"address","internalType":"address"}],"stateMutability":"view"},{"type":"function","name":"vaultChangeRequestTime","inputs":[],"outputs":[{"name":"","type":"uint256","internalType":"uint256"}],"stateMutability":"view"},{"type":"function","name":"withdraw","inputs":[{"name":"to","type":"address","internalType":"address"},{"name":"amount","type":"uint256","internalType":"uint256"}],"outputs":[],"stateMutability":"nonpayable"},{"type":"function","name":"withdrawToVault","inputs":[{"name":"amount","type":"uint256","internalType":"uint256"}],"outputs":[{"name":"actualAmount","type":"uint256","internalType":"uint256"}],"stateMutability":"nonpayable"},{"type":"event","name":"Deposited","inputs":[{"name":"from","type":"address","indexed":true,"internalType":"address"},{"name":"amount","type":"uint256","indexed":false,"internalType":"uint256"},{"name":"allocations","type":"uint256[]","indexed":false,"internalType":"uint256[]"}],"anonymous":false},{"type":"event","name":"EmergencyWithdraw","inputs":[{"name":"amount","type":"uint256","indexed":false,"internalType":"uint256"}],"anonymous":false},{"type":"event","name":"FeeConfigChangeCancelled","inputs":[],"anonymous":false},{"type":"event","name":"FeeConfigChangeRequested","inputs":[{"name":"feeBps","type":"uint256","indexed":false,"internalType":"uint256"},{"name":"recipient","type":"address","indexed":false,"internalType":"address"},{"name":"readyAt","type":"uint256","indexed":false,"internalType":"uint256"}],"anonymous":false},{"type":"event","name":"FeeConfigUpdated","inputs":[{"name":"performanceFeeBps","type":"uint256","indexed":false,"internalType":"uint256"},{"name":"feeRecipient","type":"address","indexed":false,"internalType":"address"}],"anonymous":false},{"type":"event","name":"FeesAccrued","inputs":[{"name":"yield_","type":"uint256","indexed":false,"internalType":"uint256"},{"name":"protocolFee","type":"uint256","indexed":false,"internalType":"uint256"}],"anonymous":false},{"type":"event","name":"FeesClaimed","inputs":[{"name":"recipient","type":"address","indexed":true,"internalType":"address"},{"name":"amount","type":"uint256","indexed":false,"internalType":"uint256"}],"anonymous":false},{"type":"event","name":"Initialized","inputs":[{"name":"version","type":"uint64","indexed":false,"internalType":"uint64"}],"anonymous":false},{"type":"event","name":"MinAutoAllocateUpdated","inputs":[{"name":"oldAmount","type":"uint256","indexed":false,"internalType":"uint256"},{"name":"newAmount","type":"uint256","indexed":false,"internalType":"uint256"}],"anonymous":false},{"type":"event","name":"Paused","inputs":[{"name":"account","type":"address","indexed":false,"internalType":"address"}],"anonymous":false},{"type":"event","name":"RebalanceDepositFailed","inputs":[{"name":"strategy","type":"address","indexed":true,"internalType":"address"},{"name":"amount","type":"uint256","indexed":false,"internalType":"uint256"}],"anonymous":false},{"type":"event","name":"RebalanceWithdrawFailed","inputs":[{"name":"strategy","type":"address","indexed":true,"internalType":"address"},{"name":"amount","type":"uint256","indexed":false,"internalType":"uint256"}],"anonymous":false},{"type":"event","name":"Rebalanced","inputs":[{"name":"totalValue","type":"uint256","indexed":false,"internalType":"uint256"}],"anonymous":false},{"type":"event","name":"ReserveBpsChangeCancelled","inputs":[{"name":"bps","type":"uint256","indexed":false,"internalType":"uint256"}],"anonymous":false},{"type":"event","name":"ReserveBpsChangeRequested","inputs":[{"name":"bps","type":"uint256","indexed":false,"internalType":"uint256"},{"name":"readyAt","type":"uint256","indexed":false,"internalType":"uint256"}],"anonymous":false},{"type":"event","name":"ReserveBpsUpdated","inputs":[{"name":"oldReserveBps","type":"uint256","indexed":false,"internalType":"uint256"},{"name":"newReserveBps","type":"uint256","indexed":false,"internalType":"uint256"}],"anonymous":false},{"type":"event","name":"RoleAdminChanged","inputs":[{"name":"role","type":"bytes32","indexed":true,"internalType":"bytes32"},{"name":"previousAdminRole","type":"bytes32","indexed":true,"internalType":"bytes32"},{"name":"newAdminRole","type":"bytes32","indexed":true,"internalType":"bytes32"}],"anonymous":false},{"type":"event","name":"RoleGranted","inputs":[{"name":"role","type":"bytes32","indexed":true,"internalType":"bytes32"},{"name":"account","type":"address","indexed":true,"internalType":"address"},{"name":"sender","type":"address","indexed":true,"internalType":"address"}],"anonymous":false},{"type":"event","name":"RoleRevoked","inputs":[{"name":"role","type":"bytes32","indexed":true,"internalType":"bytes32"},{"name":"account","type":"address","indexed":true,"internalType":"address"},{"name":"sender","type":"address","indexed":true,"internalType":"address"}],"anonymous":false},{"type":"event","name":"StrategyAddCancelled","inputs":[{"name":"strategy","type":"address","indexed":true,"internalType":"address"}],"anonymous":false},{"type":"event","name":"StrategyAddRequested","inputs":[{"name":"strategy","type":"address","indexed":true,"internalType":"address"},{"name":"targetBps","type":"uint256","indexed":false,"internalType":"uint256"},{"name":"readyAt","type":"uint256","indexed":false,"internalType":"uint256"}],"anonymous":false},{"type":"event","name":"StrategyAdded","inputs":[{"name":"strategy","type":"address","indexed":true,"internalType":"address"},{"name":"targetBps","type":"uint256","indexed":false,"internalType":"uint256"}],"anonymous":false},{"type":"event","name":"StrategyDepositFailed","inputs":[{"name":"strategy","type":"address","indexed":true,"internalType":"address"},{"name":"amount","type":"uint256","indexed":false,"internalType":"uint256"},{"name":"reason","type":"bytes","indexed":false,"internalType":"bytes"}],"anonymous":false},{"type":"event","name":"StrategyForceDeactivated","inputs":[{"name":"strategy","type":"address","indexed":true,"internalType":"address"},{"name":"strandedValue","type":"uint256","indexed":false,"internalType":"uint256"},{"name":"reason","type":"bytes","indexed":false,"internalType":"bytes"}],"anonymous":false},{"type":"event","name":"StrategyRecoveryDetected","inputs":[{"name":"previousValue","type":"uint256","indexed":false,"internalType":"uint256"},{"name":"currentValue","type":"uint256","indexed":false,"internalType":"uint256"},{"name":"increase","type":"uint256","indexed":false,"internalType":"uint256"}],"anonymous":false},{"type":"event","name":"StrategyRemoveCancelled","inputs":[{"name":"strategy","type":"address","indexed":true,"internalType":"address"}],"anonymous":false},{"type":"event","name":"StrategyRemoveRequested","inputs":[{"name":"strategy","type":"address","indexed":true,"internalType":"address"},{"name":"readyAt","type":"uint256","indexed":false,"internalType":"uint256"}],"anonymous":false},{"type":"event","name":"StrategyRemoved","inputs":[{"name":"strategy","type":"address","indexed":true,"internalType":"address"}],"anonymous":false},{"type":"event","name":"StrategyUpdateCancelled","inputs":[{"name":"strategy","type":"address","indexed":true,"internalType":"address"}],"anonymous":false},{"type":"event","name":"StrategyUpdateRequested","inputs":[{"name":"strategy","type":"address","indexed":true,"internalType":"address"},{"name":"targetBps","type":"uint256","indexed":false,"internalType":"uint256"},{"name":"readyAt","type":"uint256","indexed":false,"internalType":"uint256"}],"anonymous":false},{"type":"event","name":"StrategyUpdated","inputs":[{"name":"strategy","type":"address","indexed":true,"internalType":"address"},{"name":"newTargetBps","type":"uint256","indexed":false,"internalType":"uint256"}],"anonymous":false},{"type":"event","name":"StrategyValueQueryFailed","inputs":[{"name":"strategy","type":"address","indexed":true,"internalType":"address"}],"anonymous":false},{"type":"event","name":"StrategyWithdrawFailed","inputs":[{"name":"strategy","type":"address","indexed":true,"internalType":"address"},{"name":"amount","type":"uint256","indexed":false,"internalType":"uint256"},{"name":"reason","type":"bytes","indexed":false,"internalType":"bytes"}],"anonymous":false},{"type":"event","name":"StrategyWithdrawn","inputs":[{"name":"strategy","type":"address","indexed":true,"internalType":"address"},{"name":"amount","type":"uint256","indexed":false,"internalType":"uint256"}],"anonymous":false},{"type":"event","name":"Unpaused","inputs":[{"name":"account","type":"address","indexed":false,"internalType":"address"}],"anonymous":false},{"type":"event","name":"UpgradeCancelled","inputs":[{"name":"cancelledImplementation","type":"address","indexed":true,"internalType":"address"}],"anonymous":false},{"type":"event","name":"UpgradeRequested","inputs":[{"name":"newImplementation","type":"address","indexed":true,"internalType":"address"},{"name":"readyAt","type":"uint256","indexed":false,"internalType":"uint256"}],"anonymous":false},{"type":"event","name":"Upgraded","inputs":[{"name":"implementation","type":"address","indexed":true,"internalType":"address"}],"anonymous":false},{"type":"event","name":"VaultChangeCancelled","inputs":[{"name":"cancelledVault","type":"address","indexed":true,"internalType":"address"}],"anonymous":false},{"type":"event","name":"VaultChangeRequested","inputs":[{"name":"newVault","type":"address","indexed":true,"internalType":"address"},{"name":"readyAt","type":"uint256","indexed":false,"internalType":"uint256"}],"anonymous":false},{"type":"event","name":"VaultChanged","inputs":[{"name":"oldVault","type":"address","indexed":true,"internalType":"address"},{"name":"newVault","type":"address","indexed":true,"internalType":"address"}],"anonymous":false},{"type":"event","name":"Withdrawn","inputs":[{"name":"to","type":"address","indexed":true,"internalType":"address"},{"name":"amount","type":"uint256","indexed":false,"internalType":"uint256"}],"anonymous":false},{"type":"error","name":"AccessControlBadConfirmation","inputs":[]},{"type":"error","name":"AccessControlUnauthorizedAccount","inputs":[{"name":"account","type":"address","internalType":"address"},{"name":"neededRole","type":"bytes32","internalType":"bytes32"}]},{"type":"error","name":"AddressEmptyCode","inputs":[{"name":"target","type":"address","internalType":"address"}]},{"type":"error","name":"AllocationExceedsLimit","inputs":[]},{"type":"error","name":"ERC1967InvalidImplementation","inputs":[{"name":"implementation","type":"address","internalType":"address"}]},{"type":"error","name":"ERC1967NonPayable","inputs":[]},{"type":"error","name":"EnforcedPause","inputs":[]},{"type":"error","name":"ExpectedPause","inputs":[]},{"type":"error","name":"FailedCall","inputs":[]},{"type":"error","name":"InsufficientBalance","inputs":[]},{"type":"error","name":"InvalidInitialization","inputs":[]},{"type":"error","name":"MaxStrategiesReached","inputs":[]},{"type":"error","name":"NotInitializing","inputs":[]},{"type":"error","name":"OnlyVault","inputs":[]},{"type":"error","name":"ReentrancyGuardReentrantCall","inputs":[]},{"type":"error","name":"SafeERC20FailedOperation","inputs":[{"name":"token","type":"address","internalType":"address"}]},{"type":"error","name":"StrategyExists","inputs":[]},{"type":"error","name":"StrategyNotFound","inputs":[]},{"type":"error","name":"TotalAllocationInvalid","inputs":[]},{"type":"error","name":"UUPSUnauthorizedCallContext","inputs":[]},{"type":"error","name":"UUPSUnsupportedProxiableUUID","inputs":[{"name":"slot","type":"bytes32","internalType":"bytes32"}]},{"type":"error","name":"ZeroAddress","inputs":[]},{"type":"error","name":"ZeroAmount","inputs":[]}],"bytecode":{"object":"0x60a060405230608052348015610013575f80fd5b5061001c610021565b6100d3565b7ff0c57e16840df040f15088dc2f81fe391c3923bec73e23a9662efc9c229c6a00805468010000000000000000900460ff16156100715760405163f92ee8a960e01b815260040160405180910390fd5b80546001600160401b03908116146100d05780546001600160401b0319166001600160401b0390811782556040519081527fc7f505b2f371ae2175ee4913f4499e1f2633a7b5936321eed1cdaeb6115181d29060200160405180910390a15b50565b608051615ac76100f95f395f8181614a5d01528181614a860152614c940152615ac75ff3fe6080604052600436106104c6575f3560e01c80637d7c2a1c11610278578063c81cbaa111610155578063d547741f116100c9578063f3fef3a311610083578063f3fef3a314610e2c578063f8c8765e14610e4b578063f940a7c114610e6a578063f9d4653a14610e7f578063fbfa77cf14610e9e578063fcad399014610ebd575f80fd5b8063d547741f14610d53578063d574ea3d14610d72578063dd19171914610dcc578063ea70464814610de0578063eb2cd25814610df9578063f16c168414610e0d575f80fd5b8063d1d4ed711161011a578063d1d4ed7114610c69578063d294f09314610c7e578063d2d4b36b14610c92578063d499be3714610cb1578063d4c3eea014610d20578063d4cf0d0314610d34575f80fd5b8063c81cbaa114610be3578063cd2f477714610c03578063cd33f2bd14610c22578063ce8c42e814610c36578063cf23aa0114610c55575f80fd5b8063a775945d116101ec578063b29a8140116101b1578063b29a814014610b46578063b82b845114610b65578063bc0bdf5014610b79578063bd39cbb814610b8e578063c3b2886414610ba3578063c7abc9b414610bc4575f80fd5b8063a775945d14610ab7578063a9772f0314610acb578063aad9311614610adf578063ac9e42c114610af4578063ad3cb1cc14610b09575f80fd5b806398c4f1ac1161023d57806398c4f1ac146109f15780639af1d35a14610a11578063a10954fe14610a5c578063a217fddf14610a70578063a30c68cd14610a83578063a378a32414610a97575f80fd5b80637d7c2a1c146109815780638456cb59146109955780638af171cd146109a957806391d14854146109be57806397fa38c8146109dd575f80fd5b8063396f7b23116103a657806352d1902d1161031a57806368d691ad116102df57806368d691ad146108e55780636b9f97ef146108f95780636eb6f5db146109185780636edd92591461092c5780637184188214610958578063767f06ae1461096d575f80fd5b806352d1902d1461086757806355c919581461087b57806355f291661461088f57806358c98c16146108a35780635c975abb146108c2575f80fd5b8063432202551161036b57806343220255146107d657806347e7ef24146107eb57806347fe8b1d1461080a5780634a165cd9146108205780634f1ef2861461083557806352113ba714610848575f80fd5b8063396f7b231461074d5780633c7f78d51461076c5780633f4ba83a1461078b57806341826c2d1461079f578063427c802d146107c2575f80fd5b806324ea54f41161043d5780632fcdf59c116104025780632fcdf59c1461069c57806334365d9a146106bb57806336568abe146106cf57806337a4e834146106ee578063389254491461070257806338d52e0f14610717575f80fd5b806324ea54f4146105fc5780632a4984241461061c5780632af53d4e1461063b5780632e8ebaae1461064f5780632f2ff15d1461067d575f80fd5b80631ef90fb01161048e5780631ef90fb0146105775780631fa7c6681461058c57806322068b44146105a0578063224438d1146105b4578063248a9ca3146105c8578063249d39e9146105e7575f80fd5b806301ffc9a7146104ca57806304353d9a146104fe578063114515261461052157806318888f881461054c5780631bd7b1d314610561575b5f80fd5b3480156104d5575f80fd5b506104e96104e436600461548a565b610ef3565b60405190151581526020015b60405180910390f35b348015610509575f80fd5b50610513601a5481565b6040519081526020016104f5565b34801561052c575f80fd5b5061051361053b3660046154c7565b60036020525f908152604090205481565b348015610557575f80fd5b50610513600f5481565b34801561056c575f80fd5b50610575610f29565b005b348015610582575f80fd5b50610513610e1081565b348015610597575f80fd5b50610513610fa9565b3480156105ab575f80fd5b50600254610513565b3480156105bf575f80fd5b50610513610fb7565b3480156105d3575f80fd5b506105136105e23660046154e0565b610fc0565b3480156105f2575f80fd5b5061051361271081565b348015610607575f80fd5b506105135f80516020615a7283398151915281565b348015610627575f80fd5b506105756106363660046154c7565b610fe0565b348015610646575f80fd5b5061057561107a565b34801561065a575f80fd5b506104e96106693660046154c7565b60046020525f908152604090205460ff1681565b348015610688575f80fd5b506105756106973660046154f7565b6110fa565b3480156106a7575f80fd5b506105756106b6366004615521565b61111c565b3480156106c6575f80fd5b50610513611286565b3480156106da575f80fd5b506105756106e93660046154f7565b6112bb565b3480156106f9575f80fd5b506105756112f3565b34801561070d575f80fd5b5061051360055481565b348015610722575f80fd5b505f54610735906001600160a01b031681565b6040516001600160a01b0390911681526020016104f5565b348015610758575f80fd5b50600c54610735906001600160a01b031681565b348015610777575f80fd5b506105756107863660046154f7565b611315565b348015610796575f80fd5b50610575611430565b3480156107aa575f80fd5b506107b3611442565b6040516104f5939291906155af565b3480156107cd575f80fd5b506105756116fc565b3480156107e1575f80fd5b50610513601c5481565b3480156107f6575f80fd5b5061057561080536600461561a565b6119f2565b348015610815575f80fd5b506105136202a30081565b34801561082b575f80fd5b5061051360095481565b610575610843366004615656565b611ae5565b348015610853575f80fd5b50600e54610735906001600160a01b031681565b348015610872575f80fd5b50610513611b00565b348015610886575f80fd5b50610575611b1b565b34801561089a575f80fd5b50610575611b76565b3480156108ae575f80fd5b506105756108bd3660046154e0565b611bd0565b3480156108cd575f80fd5b505f80516020615a128339815191525460ff166104e9565b3480156108f0575f80fd5b50610575611c59565b348015610904575f80fd5b506105756109133660046154c7565b612037565b348015610923575f80fd5b50610575612133565b348015610937575f80fd5b5061094b6109463660046154e0565b612541565b6040516104f5919061571a565b348015610963575f80fd5b50610513600b5481565b348015610978575f80fd5b50610513600a81565b34801561098c575f80fd5b5061057561266d565b3480156109a0575f80fd5b50610575612bbe565b3480156109b4575f80fd5b50610513601b5481565b3480156109c9575f80fd5b506104e96109d83660046154f7565b612bdd565b3480156109e8575f80fd5b50610575612c13565b3480156109fc575f80fd5b506105135f805160206159d283398151915281565b348015610a1c575f80fd5b50600654600754600854610a389291906001600160a01b031683565b6040805193845260208401929092526001600160a01b0316908201526060016104f5565b348015610a67575f80fd5b50610513612c62565b348015610a7b575f80fd5b506105135f81565b348015610a8e575f80fd5b50610575612ccc565b348015610aa2575f80fd5b506105135f80516020615a3283398151915281565b348015610ac2575f80fd5b50610575612d7f565b348015610ad6575f80fd5b50610575612ee2565b348015610aea575f80fd5b5061051360245481565b348015610aff575f80fd5b50610513600d5481565b348015610b14575f80fd5b50610b39604051806040016040528060058152602001640352e302e360dc1b81525081565b6040516104f5919061575a565b348015610b51575f80fd5b50610575610b6036600461561a565b612f3c565b348015610b70575f80fd5b50610575612fae565b348015610b84575f80fd5b50610513600a5481565b348015610b99575f80fd5b506105136107d081565b348015610bae575f80fd5b50610bb7613015565b6040516104f5919061576c565b348015610bcf575f80fd5b50601954610735906001600160a01b031681565b348015610bee575f80fd5b506105135f8051602061599283398151915281565b348015610c0e575f80fd5b50610575610c1d3660046154c7565b6130bc565b348015610c2d575f80fd5b506105136131b1565b348015610c41575f80fd5b50610513610c503660046154e0565b6131d4565b348015610c60575f80fd5b5061057561334d565b348015610c74575f80fd5b5061051360185481565b348015610c89575f80fd5b50610575613444565b348015610c9d575f80fd5b50610575610cac366004615521565b613544565b348015610cbc575f80fd5b50601054601154601254601354601454601554610ce7956001600160a01b03169493929160ff169086565b604080516001600160a01b03909716875260208701959095529385019290925260608401521515608083015260a082015260c0016104f5565b348015610d2b575f80fd5b5061051361374f565b348015610d3f575f80fd5b50601654610735906001600160a01b031681565b348015610d5e575f80fd5b50610575610d6d3660046154f7565b613837565b348015610d7d575f80fd5b50610d91610d8c3660046154e0565b613853565b604080516001600160a01b039097168752602087019590955293850192909252606084015215156080830152151560a082015260c0016104f5565b348015610dd7575f80fd5b506105756138a8565b348015610deb575f80fd5b50601d546104e99060ff1681565b348015610e04575f80fd5b50610513613a52565b348015610e18575f80fd5b50610575610e27366004615521565b613a5b565b348015610e37575f80fd5b50610575610e4636600461561a565b613c83565b348015610e56575f80fd5b50610575610e653660046157f2565b613dc9565b348015610e75575f80fd5b5061051360175481565b348015610e8a575f80fd5b50610575610e993660046154e0565b614016565b348015610ea9575f80fd5b50600154610735906001600160a01b031681565b348015610ec8575f80fd5b50601e54601f54602054602154602254602354610ce7956001600160a01b03169493929160ff169086565b5f6001600160e01b03198216637965db0b60e01b1480610f2357506301ffc9a760e01b6001600160e01b03198316145b92915050565b5f80516020615a32833981519152610f40816140c4565b601080546001600160a01b031981169091555f6011819055601281905560138190556014805460ff1916905560158190556040516001600160a01b039092169182917f151ee60aa3e46bd1371937e28b5cd7fe2d6e83a867753ac2d45fd944b00bb23091a25050565b5f610fb2612c62565b905090565b5f610fb26140ce565b5f9081525f805160206159f2833981519152602052604090206001015490565b5f610fea816140c4565b6001600160a01b0382166110115760405163d92e233d60e01b815260040160405180910390fd5b600e80546001600160a01b0319166001600160a01b03841690811790915542600f8190557f72eb03c6c20ca76c28b3c7998b1970c01c5e7932f9c63ad8d7f39a4392c419d590611065906202a30090615857565b60405190815260200160405180910390a25050565b5f80516020615992833981519152611091816140c4565b601e80546001600160a01b031981169091555f601f819055602081905560218190556022805460ff1916905560238190556040516001600160a01b039092169182917fbcc4ea6498b528b24c3d15aa20d281f8c4ab8abd699bce6ace909a180957eb4d91a25050565b61110382610fc0565b61110c816140c4565b61111683836141c8565b50505050565b5f80516020615992833981519152611133816140c4565b6001600160a01b0386165f9081526004602052604090205460ff1661116b57604051632df15a4160e11b815260040160405180910390fd5b601e546001600160a01b0316156111c25760405162461bcd60e51b81526020600482015260166024820152755550444154455f414c52454144595f50454e44494e4760501b60448201526064015b60405180910390fd5b6040805160c0810182526001600160a01b038816808252602080830189905292820187905260608201869052841515608083018190524260a0909301839052601e80546001600160a01b03191683179055601f8990559287905560218690556022805460ff191690931790925560238190557faa09f6547ad153615c502f2a569f55a5ac5a04fcda2ec6fd094b6c43eaeafc38908790611266906202a30090615857565b6040805192835260208301919091520160405180910390a2505050505050565b5f8061129061374f565b90505f61129b6140ce565b90508082116112aa575f6112b4565b6112b4818361586a565b9250505090565b6001600160a01b03811633146112e45760405163334bd91960e11b815260040160405180910390fd5b6112ee8282614269565b505050565b5f8051602061599283398151915261130a816140c4565b6113126142e2565b50565b5f61131f816140c4565b6113888311156113605760405162461bcd60e51b815260206004820152600c60248201526b08ccaca40e8dede40d0d2ced60a31b60448201526064016111b9565b6001600160a01b0382166113aa5760405162461bcd60e51b8152602060048201526011602482015270125b9d985b1a59081c9958da5c1a595b9d607a1b60448201526064016111b9565b6018839055601980546001600160a01b0319166001600160a01b03841617905542601a8190557fe9e7932bebc60e3ff4bdbe4a9b123bcb9645dd7d9aa37607edd0b3bfde45f7ec9084908490611404906202a30090615857565b604080519384526001600160a01b039092166020840152908201526060015b60405180910390a1505050565b5f61143a816140c4565b6113126144e7565b60608060605f61145061374f565b6002549091508067ffffffffffffffff81111561146f5761146f615642565b604051908082528060200260200182016040528015611498578160200160208202803683370190505b5094508067ffffffffffffffff8111156114b4576114b4615642565b6040519080825280602002602001820160405280156114dd578160200160208202803683370190505b5093508067ffffffffffffffff8111156114f9576114f9615642565b604051908082528060200260200182016040528015611522578160200160208202803683370190505b5092505f5b818110156116f457600281815481106115425761154261587d565b5f91825260209091206005909102015486516001600160a01b03909116908790839081106115725761157261587d565b60200260200101906001600160a01b031690816001600160a01b031681525050600281815481106115a5576115a561587d565b905f5260205f209060050201600101548482815181106115c7576115c761587d565b6020026020010181815250505f831180156116075750600281815481106115f0576115f061587d565b5f91825260209091206004600590920201015460ff165b156116ec576002818154811061161f5761161f61587d565b5f91825260209182902060059091020154604080516306a61f7560e51b815290516001600160a01b039092169263d4c3eea0926004808401938290030181865afa92505050801561168d575060408051601f3d908101601f1916820190925261168a91810190615891565b60015b6116b5575f8582815181106116a4576116a461587d565b6020026020010181815250506116ec565b836116c2612710836158a8565b6116cc91906158bf565b8683815181106116de576116de61587d565b602002602001018181525050505b600101611527565b505050909192565b5f80516020615992833981519152611713816140c4565b6040805160c081018252601e546001600160a01b0316808252601f546020808401919091525492820192909252602154606082015260225460ff161515608082015260235460a08201529061177a5760405162461bcd60e51b81526004016111b9906158de565b6202a3008160a0015161178d9190615857565b4210156117ac5760405162461bcd60e51b81526004016111b990615902565b80516001600160a01b03165f9081526004602052604090205460ff166117e557604051632df15a4160e11b815260040160405180910390fd5b80516001600160a01b03165f9081526003602090815260408220546005549184015190929161181391615857565b90505f5b6002548110156118945782811415801561185657506002818154811061183f5761183f61587d565b5f91825260209091206004600590920201015460ff165b1561188c576002818154811061186e5761186e61587d565b905f5260205f20906005020160010154826118899190615857565b91505b600101611817565b506127108111156118b857604051631f15009160e11b815260040160405180910390fd5b8260200151600283815481106118d0576118d061587d565b905f5260205f209060050201600101819055508260400151600283815481106118fb576118fb61587d565b905f5260205f209060050201600201819055508260600151600283815481106119265761192661587d565b905f5260205f209060050201600301819055508260800151600283815481106119515761195161587d565b5f9182526020808320600592909202909101600401805461ff0019166101009415159490940293909317909255601e80546001600160a01b0319169055601f81905580825560218190556022805460ff191690556023558351848201516040519081526001600160a01b03909116917fe2d9b7f1e07c794d9c19cb81343399f288c6d5a7ba85b73669b438836de8c2e391015b60405180910390a250505050565b6119fa614540565b611a02614577565b5f805160206159d2833981519152611a19816140c4565b815f03611a3957604051631f2a200560e01b815260040160405180910390fd5b611a416142e2565b5f54611a58906001600160a01b03168430856145a7565b600b548210611a6c57611a6a8261460e565b505b611a7461374f565b600955604080515f81526020810191829052906001600160a01b038516907fecbade292b10449eeda5afeeebdad84b3e2c5d56548642714fb25876646a15c490611ac1908690859061592b565b60405180910390a25050611ae160015f80516020615a5283398151915255565b5050565b611aed614a52565b611af682614af6565b611ae18282614bcd565b5f611b09614c89565b505f805160206159b283398151915290565b5f611b25816140c4565b601b80545f91829055601c91909155601d805460ff191690556040518181527fc6d3c3418c45ae8e08cd49a93d158a4a608788db874225039fef2d0877311f95906020015b60405180910390a15050565b5f611b80816140c4565b600c80546001600160a01b031981169091555f600d8190556040516001600160a01b039092169182917f3198dc80249fcfedbd0d06e1ff49a7695a51b006592328ce0b127cdeab77e93691a25050565b5f611bda816140c4565b5f8211611c1b5760405162461bcd60e51b815260206004820152600f60248201526e16915493d7d3525397d05353d55395608a1b60448201526064016111b9565b600b80549083905560408051828152602081018590527f42ad410c029ee3f46ac78f4c8e1d479cc0a85334db57ab6c802d7098f828a0d49101611423565b5f80516020615a32833981519152611c70816140c4565b6016546001600160a01b031680611c995760405162461bcd60e51b81526004016111b9906158de565b6202a300601754611caa9190615857565b421015611cc95760405162461bcd60e51b81526004016111b990615902565b6001600160a01b0381165f9081526004602052604090205460ff16611d0157604051632df15a4160e11b815260040160405180910390fd5b601680546001600160a01b03191690555f60178190556001600160a01b0382168152600360205260409020546002805482908110611d4157611d4161587d565b5f91825260209091206004600590920201015460ff1615611f64575f826001600160a01b031663d4c3eea06040518163ffffffff1660e01b8152600401602060405180830381865afa925050508015611db7575060408051601f3d908101601f19168201909252611db491810190615891565b60015b611dc257505f611dc5565b90505b8015611f6257826001600160a01b031663853828b66040518163ffffffff1660e01b81526004016020604051808303815f875af1925050508015611e26575060408051601f3d908101601f19168201909252611e2391810190615891565b60015b611ea2573d808015611e53576040519150601f19603f3d011682016040523d82523d5f602084013e611e58565b606091505b50836001600160a01b03167f2dc4845fc8e1bc578ad810a4b7169617ea8bec54516442796fa66620795fc9938383604051611e9492919061594b565b60405180910390a250611f62565b5f6064611eb084605f6158a8565b611eba91906158bf565b9050808210611f0b57846001600160a01b03167f47a0288289f9248f1cc731abd5fcd916c55fa1577b883cf69bff73382853523683604051611efe91815260200190565b60405180910390a2611f5f565b6001600160a01b0385167f2dc4845fc8e1bc578ad810a4b7169617ea8bec54516442796fa66620795fc993611f40848661586a565b60408051918252602082018190525f9082015260600160405180910390a25b50505b505b5f60028281548110611f7857611f7861587d565b5f9182526020822060059190910201600401805460ff1916921515929092179091556002805483908110611fae57611fae61587d565b5f9182526020808320600160059093020191909101929092556001600160a01b038085168252600483526040808320805460ff1916905560039093529181208190558054611fff9216908490614cd2565b6040516001600160a01b038316907f09a1db4b80c32706328728508c941a6b954f31eb5affd32f236c1fd405f8fea4905f90a2505050565b5f612041816140c4565b6001600160a01b0382166120865760405162461bcd60e51b815260206004820152600c60248201526b5a45524f5f4144445245535360a01b60448201526064016111b9565b600c546001600160a01b0316156120df5760405162461bcd60e51b815260206004820152601760248201527f555047524144455f414c52454144595f50454e44494e4700000000000000000060448201526064016111b9565b600c80546001600160a01b0319166001600160a01b03841690811790915542600d8190557f7d4df661563fb5b6b245267960bdc1f0ce81d7027ea6996f19718930dc3cf53790611065906202a30090615857565b5f80516020615a3283398151915261214a816140c4565b6040805160c0810182526010546001600160a01b0316808252601154602083015260125492820192909252601354606082015260145460ff161515608082015260155460a0820152906121af5760405162461bcd60e51b81526004016111b9906158de565b6202a3008160a001516121c29190615857565b4210156121e15760405162461bcd60e51b81526004016111b990615902565b80516001600160a01b03165f9081526004602052604090205460ff161561221b576040516325a2934b60e21b815260040160405180910390fd5b5f805b60025481101561226c576002818154811061223b5761223b61587d565b5f91825260209091206004600590920201015460ff1615612264578161226081615963565b9250505b60010161221e565b50600a811061228e57604051631f62ca4f60e21b815260040160405180910390fd5b5f60055483602001516122a19190615857565b90505f5b60025481101561231657600281815481106122c2576122c261587d565b5f91825260209091206004600590920201015460ff161561230e57600281815481106122f0576122f061587d565b905f5260205f209060050201600101548261230b9190615857565b91505b6001016122a5565b5061271081111561233a57604051631f15009160e11b815260040160405180910390fd5b6040805160c08101825284516001600160a01b0390811682526020808701519083019081528684015193830193845260608088015190840190815260016080808601828152908a0151151560a087019081526002805480850182555f82905297517f405787fa12a823e0f2b7631cc41b3ba8828b3321ca811111fa75cd3aa3bb5ace600590990298890180546001600160a01b031916919098161790965593517f405787fa12a823e0f2b7631cc41b3ba8828b3321ca811111fa75cd3aa3bb5acf87015595517f405787fa12a823e0f2b7631cc41b3ba8828b3321ca811111fa75cd3aa3bb5ad086015590517f405787fa12a823e0f2b7631cc41b3ba8828b3321ca811111fa75cd3aa3bb5ad185015593517f405787fa12a823e0f2b7631cc41b3ba8828b3321ca811111fa75cd3aa3bb5ad29093018054915161ffff1990921693151561ff001916939093176101009115159190910217909155546124a0919061586a565b83516001600160a01b039081165f90815260036020908152604080832094909455865183168252600481528382208054600160ff1991821617909155601080546001600160a01b03191690556011839055601283905560138390556014805490911690556015919091558551818701519351938452909116917f2f564a83158ad1831793ad3e69257b52f39ece5d49cb0d8746708ecb9ef964da91016119e4565b606061254b614540565b612553614577565b5f805160206159d283398151915261256a816140c4565b825f0361258a57604051631f2a200560e01b815260040160405180910390fd5b6125926142e2565b5f546125a9906001600160a01b03163330866145a7565b600b5483106125c2576125bb8361460e565b915061260a565b60025467ffffffffffffffff8111156125dd576125dd615642565b604051908082528060200260200182016040528015612606578160200160208202803683370190505b5091505b61261261374f565b60095560405133907fecbade292b10449eeda5afeeebdad84b3e2c5d56548642714fb25876646a15c490612649908690869061592b565b60405180910390a25061266860015f80516020615a5283398151915255565b919050565b612675614540565b5f8051602061599283398151915261268c816140c4565b6126946142e2565b5f61269d61374f565b9050805f036126ac5750612ba5565b5f5b6002548110156128ce57600281815481106126cb576126cb61587d565b5f91825260209091206004600590920201015460ff16156128c6575f600282815481106126fa576126fa61587d565b5f9182526020808320600590920290910154604080516306a61f7560e51b815290516001600160a01b039092169450849263d4c3eea0926004808401938290030181865afa92505050801561276c575060408051601f3d908101601f1916820190925261276991810190615891565b60015b6127ba57816001600160a01b03167f0826265688fdd8c6da68999eb7941fc0a77b0a70392ca5c3912c4cb57cfa2d235f6040516127ab91815260200190565b60405180910390a250506128c6565b90505f612710600285815481106127d3576127d361587d565b905f5260205f20906005020160010154866127ee91906158a8565b6127f891906158bf565b9050808211156128c2575f61280d828461586a565b604051632e1a7d4d60e01b8152600481018290529091506001600160a01b03851690632e1a7d4d906024016020604051808303815f875af1925050508015612872575060408051601f3d908101601f1916820190925261286f91810190615891565b60015b6128be57836001600160a01b03167f0826265688fdd8c6da68999eb7941fc0a77b0a70392ca5c3912c4cb57cfa2d23826040516128b191815260200190565b60405180910390a26128c0565b505b505b5050505b6001016126ae565b506128d761374f565b90505f6128e2612c62565b90505f612710600554846128f691906158a8565b61290091906158bf565b90505f818311612910575f61291a565b61291a828461586a565b90505f5b6002548110801561292e57505f82115b15612b5f57600281815481106129465761294661587d565b5f91825260209091206004600590920201015460ff1615612b4d575f600282815481106129755761297561587d565b5f9182526020808320600590920290910154604080516306a61f7560e51b815290516001600160a01b039092169450849263d4c3eea0926004808401938290030181865afa9250505080156129e7575060408051601f3d908101601f191682019092526129e491810190615891565b60015b6129f2575050612b4d565b90505f61271060028581548110612a0b57612a0b61587d565b905f5260205f2090600502016001015489612a2691906158a8565b612a3091906158bf565b905080821015612b49575f612a45838361586a565b90505f868210612a555786612a57565b815b5f54909150612a70906001600160a01b03168683614cd2565b60405163b6b55f2560e01b8152600481018290526001600160a01b0386169063b6b55f25906024016020604051808303815f875af1925050508015612ad2575060408051601f3d908101601f19168201909252612acf91810190615891565b60015b612b3857846001600160a01b03167fcb5c63317d75df911a08340e9ac3d0423a6d861f8205d37d1be0142b2922da8b82604051612b1191815260200190565b60405180910390a25f8054612b33916001600160a01b03909116908790614cd2565b612b46565b612b42818961586a565b9750505b50505b5050505b80612b5781615963565b91505061291e565b50612b6861374f565b60098190556040519081527fc306af072396b02bf3a9782c10065cc7ff4aa842934a43f0b76f997b291237c89060200160405180910390a1505050505b50612bbc60015f80516020615a5283398151915255565b565b5f80516020615a72833981519152612bd5816140c4565b611312614d61565b5f9182525f805160206159f2833981519152602090815260408084206001600160a01b0393909316845291905290205460ff1690565b5f612c1d816140c4565b5f6018819055601980546001600160a01b0319169055601a8190556040517feef1efbc34a259e59ee79197ed267c9c75b839ea68c56b9ab9e2d08f648f85fc9190a150565b5f80546040516370a0823160e01b81523060048201526001600160a01b03909116906370a0823190602401602060405180830381865afa158015612ca8573d5f803e3d5ffd5b505050506040513d601f19601f82011682018060405250810190610fb29190615891565b5f612cd6816140c4565b601d5460ff16612cf85760405162461bcd60e51b81526004016111b9906158de565b6202a300601c54612d099190615857565b421015612d285760405162461bcd60e51b81526004016111b990615902565b60058054601b8054928390555f90819055601c55601d805460ff1916905560405190917fa0e245298634d40c599ec17ea427d106a12b20c9766dd9a7fcc90ac00cb1936891611b6a91848252602082015260400190565b5f612d89816140c4565b600e546001600160a01b0316612dd45760405162461bcd60e51b815260206004820152601060248201526f1393d7d4115391125391d7d59055531560821b60448201526064016111b9565b6202a300600f54612de59190615857565b421015612e2c5760405162461bcd60e51b81526020600482015260156024820152745641554c545f54494d454c4f434b5f41435449564560581b60448201526064016111b9565b600154600e80546001600160a01b031981169091555f600f556001600160a01b039182169116612e695f805160206159d283398151915283614269565b50600180546001600160a01b0319166001600160a01b038316179055612e9c5f805160206159d2833981519152826141c8565b50806001600160a01b0316826001600160a01b03167f16e2accad9173abff57b295b56993ec5d86b3cbf791fea02f02a6616463754ea60405160405180910390a3505050565b5f612eec816140c4565b600e80546001600160a01b031981169091555f600f8190556040516001600160a01b039092169182917feca9e043ca99733866846a513df3841b2b4ab913b3383fd4610c922b2688e94791a25050565b5f612f46816140c4565b5f546001600160a01b0390811690841603612f9a5760405162461bcd60e51b815260206004820152601460248201527310d0539393d517d49150d3d5915497d054d4d15560621b60448201526064016111b9565b6112ee6001600160a01b0384163384614da9565b5f80516020615a32833981519152612fc5816140c4565b601680546001600160a01b031981169091555f60178190556040516001600160a01b039092169182917f6e98e948e1dcb182fa828f67706393ec1d7cb2b9987b224073c2ff4a1ef2c51b91a25050565b60606002805480602002602001604051908101604052809291908181526020015f905b828210156130b3575f8481526020908190206040805160c0810182526005860290920180546001600160a01b0316835260018082015484860152600282015492840192909252600381015460608401526004015460ff8082161515608085015261010090910416151560a08301529083529092019101613038565b50505050905090565b5f80516020615a328339815191526130d3816140c4565b6001600160a01b0382165f9081526004602052604090205460ff1661310b57604051632df15a4160e11b815260040160405180910390fd5b6016546001600160a01b03161561315d5760405162461bcd60e51b815260206004820152601660248201527552454d4f56455f414c52454144595f50454e44494e4760501b60448201526064016111b9565b601680546001600160a01b0319166001600160a01b0384169081179091554260178190557f96f873eedced44396d149232063acd4d0d2ac9c015cdbc9b975b994a5527ed1090611065906202a30090615857565b5f6127106005546131c061374f565b6131ca91906158a8565b610fb291906158bf565b5f6131dd614540565b6131e5614577565b5f805160206159d28339815191526131fc816140c4565b825f0361321c57604051631f2a200560e01b815260040160405180910390fd5b6132246142e2565b5f61322d612c62565b905083811061325a576001545f54613252916001600160a01b03918216911686614da9565b8392506132f3565b5f613265828661586a565b90505f61327182614dda565b905061327d8184615857565b94508585111561328b578594505b858510156132d45760405162461bcd60e51b8152602060048201526016602482015275494e53554646494349454e545f4c495155494449545960501b60448201526064016111b9565b6001545f546132f0916001600160a01b03918216911687614da9565b50505b6001546040518481526001600160a01b03909116907f7084f5476618d8e60b11ef0d7d3f06914655adb8793e28ff7f018d4c76d505d59060200160405180910390a2505061266860015f80516020615a5283398151915255565b5f613357816140c4565b6019546001600160a01b031661337f5760405162461bcd60e51b81526004016111b9906158de565b6202a300601a546133909190615857565b4210156133af5760405162461bcd60e51b81526004016111b990615902565b6133b76142e2565b6018546006819055601954600880546001600160a01b0319166001600160a01b0390921691821790556040517fe125ae54d7ba2b06e6f44852861516acb2dd2692cf41fb127fa03252f15b334e92613420929082526001600160a01b0316602082015260400190565b60405180910390a1505f6018819055601980546001600160a01b0319169055601a55565b61344c614540565b5f613456816140c4565b61345e6142e2565b6007545f81900361346f5750612ba5565b5f613478612c62565b9050818110156134965761349461348f828461586a565b614dda565b505b5f61349f612c62565b90505f8382106134af57836134b1565b815b90506134bd818561586a565b6007556008545f546134dc916001600160a01b03918216911683614da9565b6134e461374f565b6009556008546040518281526001600160a01b03909116907f9493e5bbe4e8e0ac67284469a2d677403d0378a85a59e341d3abc433d0d9a2099060200160405180910390a25050505050612bbc60015f80516020615a5283398151915255565b5f61354e816140c4565b6001600160a01b0386165f9081526004602052604090205460ff1661358657604051632df15a4160e11b815260040160405180910390fd5b6001600160a01b0386165f908152600360205260408120546005549091906135ae9088615857565b90505f5b60025481101561362f578281141580156135f15750600281815481106135da576135da61587d565b5f91825260209091206004600590920201015460ff165b1561362757600281815481106136095761360961587d565b905f5260205f20906005020160010154826136249190615857565b91505b6001016135b2565b5061271081111561365357604051631f15009160e11b815260040160405180910390fd5b86600283815481106136675761366761587d565b905f5260205f20906005020160010181905550856002838154811061368e5761368e61587d565b905f5260205f2090600502016002018190555084600283815481106136b5576136b561587d565b905f5260205f2090600502016003018190555083600283815481106136dc576136dc61587d565b905f5260205f20906005020160040160016101000a81548160ff021916908315150217905550876001600160a01b03167fe2d9b7f1e07c794d9c19cb81343399f288c6d5a7ba85b73669b438836de8c2e38860405161373d91815260200190565b60405180910390a25050505050505050565b5f80613759612c62565b90505f5b600254811015613831576002818154811061377a5761377a61587d565b5f91825260209091206004600590920201015460ff161561382957600281815481106137a8576137a861587d565b5f91825260209182902060059091020154604080516306a61f7560e51b815290516001600160a01b039092169263d4c3eea0926004808401938290030181865afa925050508015613816575060408051601f3d908101601f1916820190925261381391810190615891565b60015b15613829576138258184615857565b9250505b60010161375d565b50919050565b61384082610fc0565b613849816140c4565b6111168383614269565b60028181548110613862575f80fd5b5f918252602090912060059091020180546001820154600283015460038401546004909401546001600160a01b0390931694509092909160ff8082169161010090041686565b5f80516020615a728339815191526138bf816140c4565b5f5b600254811015613a1357600281815481106138de576138de61587d565b5f91825260209091206004600590920201015460ff1615613a0b575f6002828154811061390d5761390d61587d565b905f5260205f2090600502015f015f9054906101000a90046001600160a01b03169050806001600160a01b031663853828b66040518163ffffffff1660e01b81526004016020604051808303815f875af192505050801561398b575060408051601f3d908101601f1916820190925261398891810190615891565b60015b613a07573d8080156139b8576040519150601f19603f3d011682016040523d82523d5f602084013e6139bd565b606091505b50816001600160a01b03167f57b4619e49aca895c9a58348cf426a29b8c67dbfbe0e07785d21b715658cdb905f836040516139f992919061594b565b60405180910390a250613a09565b505b505b6001016138c1565b507f99d7f8b71cfb9126984f7a5eed3a40e64a8959e9b0e442221546fb04ec6a489c613a3d612c62565b6040519081526020015b60405180910390a150565b5f610fb261374f565b5f80516020615a32833981519152613a72816140c4565b6001600160a01b038616613a995760405163d92e233d60e01b815260040160405180910390fd5b6001600160a01b0386165f9081526004602052604090205460ff1615613ad2576040516325a2934b60e21b815260040160405180910390fd5b6010546001600160a01b031615613b215760405162461bcd60e51b81526020600482015260136024820152724144445f414c52454144595f50454e44494e4760681b60448201526064016111b9565b5f805b600254811015613b725760028181548110613b4157613b4161587d565b5f91825260209091206004600590920201015460ff1615613b6a5781613b6681615963565b9250505b600101613b24565b50600a8110613b9457604051631f62ca4f60e21b815260040160405180910390fd5b83861180613ba157508585115b15613bbf57604051632615e83760e11b815260040160405180910390fd5b6040805160c0810182526001600160a01b0389168082526020820189905291810187905260608101869052841515608082018190524260a0909201829052601080546001600160a01b031916841790556011899055601288905560138790556014805460ff1916909117905560158190557fb87a5974310ed34a6989a8efcd1544c29eb90317def94fcba02049b54acfc96a908890613c62906202a30090615857565b6040805192835260208301919091520160405180910390a250505050505050565b613c8b614540565b613c93614577565b5f805160206159d2833981519152613caa816140c4565b815f03613cca57604051631f2a200560e01b815260040160405180910390fd5b613cd26142e2565b5f613cdb612c62565b905082811015613cfe575f613cf0828561586a565b9050613cfb81614dda565b50505b5f613d07612c62565b905083811015613d515760405162461bcd60e51b8152602060048201526015602482015274494e53554646494349454e545f524553455256455360581b60448201526064016111b9565b5f54613d67906001600160a01b03168686614da9565b613d6f61374f565b6009556040518481526001600160a01b038616907f7084f5476618d8e60b11ef0d7d3f06914655adb8793e28ff7f018d4c76d505d59060200160405180910390a2505050611ae160015f80516020615a5283398151915255565b5f613dd2615117565b805490915060ff600160401b820416159067ffffffffffffffff165f81158015613df95750825b90505f8267ffffffffffffffff166001148015613e155750303b155b905081158015613e23575080155b15613e415760405163f92ee8a960e01b815260040160405180910390fd5b845467ffffffffffffffff191660011785558315613e6b57845460ff60401b1916600160401b1785555b6001600160a01b0389161580613e8857506001600160a01b038816155b80613e9a57506001600160a01b038716155b80613eac57506001600160a01b038616155b15613eca5760405163d92e233d60e01b815260040160405180910390fd5b613ed261513f565b613eda615147565b613ee261513f565b613eea61513f565b5f80546001600160a01b03808c166001600160a01b0319928316178355600180548c831690841617905560408051606081018252610fa080825260208201869052928b1691018190526006919091556007839055600880549092161790556103e8600555633b9aca00600b55613f6090886141c8565b50613f785f80516020615992833981519152886141c8565b50613f905f80516020615a32833981519152886141c8565b50613fa85f80516020615a72833981519152886141c8565b50613fc05f805160206159d2833981519152896141c8565b5042600a55831561400b57845460ff60401b19168555604051600181527fc7f505b2f371ae2175ee4913f4499e1f2633a7b5936321eed1cdaeb6115181d29060200160405180910390a15b505050505050505050565b5f614020816140c4565b610bb88211156140655760405162461bcd60e51b815260206004820152601060248201526f0a4cae6cae4ecca40e8dede40d0d2ced60831b60448201526064016111b9565b601b82905542601c819055601d805460ff191660011790557f8be982c6c3e9c20b750b63d229f55338dd41803913d6abac00bb5d6f7456f6c69083906140af906202a30090615857565b60408051928352602083019190915201611b6a565b6113128133615157565b5f806140d861374f565b905060095481116140eb57505060075490565b5f600954826140fa919061586a565b90505f6127106107d060095461411091906158a8565b61411a91906158bf565b9050808211801561412c57505f600954115b1561413c57505060075492915050565b5f60245411801561414f57506024548311155b1561415f57505060075492915050565b5f806024541180156141745750602454600954105b1561418d57602454614186908561586a565b9050614190565b50815b6006545f90612710906141a390846158a8565b6141ad91906158bf565b6007549091506141be908290615857565b9550505050505090565b5f5f805160206159f28339815191526141e18484612bdd565b614260575f848152602082815260408083206001600160a01b03871684529091529020805460ff191660011790556142163390565b6001600160a01b0316836001600160a01b0316857f2f8788117e7eff1d82e926ec794901d17c78024a50270940304540a733656f0d60405160405180910390a46001915050610f23565b5f915050610f23565b5f5f805160206159f28339815191526142828484612bdd565b15614260575f848152602082815260408083206001600160a01b0387168085529252808320805460ff1916905551339287917ff6391f5c32d9c69d2a47ea670b442974b53935d1edc7fd64eb21e047a839171b9190a46001915050610f23565b610e10600a546142f29190615857565b4210156142fb57565b5f61430461374f565b90506009548111156144cb575f6009548261431f919061586a565b90505f6127106107d060095461433591906158a8565b61433f91906158bf565b9050808211801561435157505f600954115b156143b757600954604080519182526020820185905281018390527fad34850f006014559b664088d7c14222870df21076d1b9213e8ca5ef623222249060600160405180910390a160098390556024548311156143ae5760248390555b505042600a5550565b5f6024541180156143ca57506024548311155b1561441d57600954604080519182526020820185905281018390527fad34850f006014559b664088d7c14222870df21076d1b9213e8ca5ef623222249060600160405180910390a1505060095542600a55565b5f806024541180156144325750602454600954105b1561444b57602454614444908561586a565b905061444e565b50815b80156144c7576006545f906127109061446790846158a8565b61447191906158bf565b90508060066001015f8282546144879190615857565b909155505060408051838152602081018390527f49086fb5fbe3012e87f1afd31e52bfcb81e75a7804f59744a6eee012b59cd0a0910160405180910390a1505b5050505b60098190556024548111156144e05760248190555b5042600a55565b6144ef615190565b5f80516020615a12833981519152805460ff191681557f5db9ee0a495bf2e6ff9c91a7834c1ba4fdd244a5e8aa4e537bd38aeae4b073aa335b6040516001600160a01b039091168152602001613a47565b5f80516020615a5283398151915280546001190161457157604051633ee5aeb560e01b815260040160405180910390fd5b60029055565b5f80516020615a128339815191525460ff1615612bbc5760405163d93c066560e01b815260040160405180910390fd5b6040516001600160a01b0384811660248301528381166044830152606482018390526111169186918216906323b872dd906084015b604051602081830303815290604052915060e01b6020820180516001600160e01b0383818316178352505050506151bf565b60025460609067ffffffffffffffff81111561462c5761462c615642565b604051908082528060200260200182016040528015614655578160200160208202803683370190505b5090505f6127106005548461466a91906158a8565b61467491906158bf565b90505f614681828561586a565b90505f805b60025481101561472f57600281815481106146a3576146a361587d565b5f91825260209091206004600590920201015460ff1680156146f15750600281815481106146d3576146d361587d565b905f5260205f20906005020160040160019054906101000a900460ff165b1561472757600281815481106147095761470961587d565b905f5260205f20906005020160010154826147249190615857565b91505b600101614686565b50805f0361473f57505050919050565b5f5f19815b6002548110156147c057600281815481106147615761476161587d565b5f91825260209091206004600590920201015460ff1680156147af5750600281815481106147915761479161587d565b905f5260205f20906005020160040160019054906101000a900460ff165b156147b8578091505b600101614744565b505f5b600254811015614a3457600281815481106147e0576147e061587d565b5f91825260209091206004600590920201015460ff16158061482f5750600281815481106148105761481061587d565b905f5260205f20906005020160040160019054906101000a900460ff16155b614a2c575f82820361484c57614845848761586a565b9050614888565b84600283815481106148605761486061587d565b905f5260205f209060050201600101548761487b91906158a8565b61488591906158bf565b90505b8015614a2a576148988185615857565b93505f600283815481106148ae576148ae61587d565b5f918252602082206005909102015490546001600160a01b0391821692506148d891168284614cd2565b60405163b6b55f2560e01b8152600481018390526001600160a01b0382169063b6b55f25906024016020604051808303815f875af192505050801561493a575060408051601f3d908101601f1916820190925261493791810190615891565b60015b6149ee573d808015614967576040519150601f19603f3d011682016040523d82523d5f602084013e61496c565b606091505b505f8a85815181106149805761498061587d565b60209081029190910101525f80546149a5916001600160a01b03909116908490614cd2565b816001600160a01b03167f70a7bb346d6e67bc583bd557a8f610e563d78af302b6e62d1a2d074be1fa469a84836040516149e092919061594b565b60405180910390a250614a28565b808a8581518110614a0157614a0161587d565b60209081029190910101525f8054614a26916001600160a01b03909116908490614cd2565b505b505b505b6001016147c3565b505050505050919050565b60015f80516020615a5283398151915255565b306001600160a01b037f0000000000000000000000000000000000000000000000000000000000000000161480614ad857507f00000000000000000000000000000000000000000000000000000000000000006001600160a01b0316614acc5f805160206159b2833981519152546001600160a01b031690565b6001600160a01b031614155b15612bbc5760405163703e46dd60e11b815260040160405180910390fd5b5f614b00816140c4565b600c546001600160a01b03838116911614614b555760405162461bcd60e51b8152602060048201526015602482015274155411d490511157d393d517d49154555154d51151605a1b60448201526064016111b9565b6202a300600d54614b669190615857565b421015614bb55760405162461bcd60e51b815260206004820152601760248201527f555047524144455f54494d454c4f434b5f41435449564500000000000000000060448201526064016111b9565b5050600c80546001600160a01b03191690555f600d55565b816001600160a01b03166352d1902d6040518163ffffffff1660e01b8152600401602060405180830381865afa925050508015614c27575060408051601f3d908101601f19168201909252614c2491810190615891565b60015b614c4f57604051634c9c8ce360e01b81526001600160a01b03831660048201526024016111b9565b5f805160206159b28339815191528114614c7f57604051632a87526960e21b8152600481018290526024016111b9565b6112ee838361522b565b306001600160a01b037f00000000000000000000000000000000000000000000000000000000000000001614612bbc5760405163703e46dd60e11b815260040160405180910390fd5b604080516001600160a01b038416602482015260448082018490528251808303909101815260649091019091526020810180516001600160e01b031663095ea7b360e01b179052614d238482615280565b611116576040516001600160a01b0384811660248301525f6044830152614d5791869182169063095ea7b3906064016145dc565b61111684826151bf565b614d69614577565b5f80516020615a12833981519152805460ff191660011781557f62e78cea01bee320cd4e420270b5ea74000d11b0c9f74754ebdbfc544b05a25833614528565b6040516001600160a01b038381166024830152604482018390526112ee91859182169063a9059cbb906064016145dc565b5f81815f19815b600254811015614eb85760028181548110614dfe57614dfe61587d565b5f91825260209091206004600590920201015460ff1615614eb05760028181548110614e2c57614e2c61587d565b5f91825260209182902060059091020154604080516306a61f7560e51b815290516001600160a01b039092169263d4c3eea0926004808401938290030181865afa925050508015614e9a575060408051601f3d908101601f19168201909252614e9791810190615891565b60015b15614eb057614ea98185615857565b9350819250505b600101614de1565b50815f03614eca57505f949350505050565b5f5b60025481108015614edc57505f84115b1561510e5760028181548110614ef457614ef461587d565b5f91825260209091206004600590920201015460ff16156150fc575f60028281548110614f2357614f2361587d565b5f9182526020808320600590920290910154604080516306a61f7560e51b815290516001600160a01b039092169450849263d4c3eea0926004808401938290030181865afa925050508015614f95575060408051601f3d908101601f19168201909252614f9291810190615891565b60015b614fa05750506150fc565b9050805f03614fb05750506150fc565b5f848403614fbf575085614fd7565b85614fca838b6158a8565b614fd491906158bf565b90505b86811115614fe25750855b81811115614fed5750805b80156150f857604051632e1a7d4d60e01b8152600481018290526001600160a01b03841690632e1a7d4d906024016020604051808303815f875af1925050508015615055575060408051601f3d908101601f1916820190925261505291810190615891565b60015b6150d1573d808015615082576040519150601f19603f3d011682016040523d82523d5f602084013e615087565b606091505b50836001600160a01b03167f57b4619e49aca895c9a58348cf426a29b8c67dbfbe0e07785d21b715658cdb9083836040516150c392919061594b565b60405180910390a2506150f8565b6150db818a615857565b98508088116150ea575f6150f4565b6150f4818961586a565b9750505b5050505b8061510681615963565b915050614ecc565b50505050919050565b5f807ff0c57e16840df040f15088dc2f81fe391c3923bec73e23a9662efc9c229c6a00610f23565b612bbc6152c9565b61514f6152c9565b612bbc6152ee565b6151618282612bdd565b611ae15760405163e2517d3f60e01b81526001600160a01b0382166004820152602481018390526044016111b9565b5f80516020615a128339815191525460ff16612bbc57604051638dfc202b60e01b815260040160405180910390fd5b5f8060205f8451602086015f885af1806151de576040513d5f823e3d81fd5b50505f513d915081156151f5578060011415615202565b6001600160a01b0384163b155b1561111657604051635274afe760e01b81526001600160a01b03851660048201526024016111b9565b615234826152f6565b6040516001600160a01b038316907fbc7cd75a20ee27fd9adebab32041f755214dbc6bffa90cc0225b39da2e5c2d3b905f90a2805115615278576112ee8282615359565b611ae16153cb565b5f805f8060205f8651602088015f8a5af192503d91505f5190508280156152bf575081156152b157806001146152bf565b5f866001600160a01b03163b115b9695505050505050565b6152d16153ea565b612bbc57604051631afcd79f60e31b815260040160405180910390fd5b614a3f6152c9565b806001600160a01b03163b5f0361532b57604051634c9c8ce360e01b81526001600160a01b03821660048201526024016111b9565b5f805160206159b283398151915280546001600160a01b0319166001600160a01b0392909216919091179055565b60605f80846001600160a01b031684604051615375919061597b565b5f60405180830381855af49150503d805f81146153ad576040519150601f19603f3d011682016040523d82523d5f602084013e6153b2565b606091505b50915091506153c2858383615403565b95945050505050565b3415612bbc5760405163b398979f60e01b815260040160405180910390fd5b5f6153f3615117565b54600160401b900460ff16919050565b6060826154185761541382615462565b61545b565b815115801561542f57506001600160a01b0384163b155b1561545857604051639996b31560e01b81526001600160a01b03851660048201526024016111b9565b50805b9392505050565b80511561547157805160208201fd5b60405163d6bda27560e01b815260040160405180910390fd5b5f6020828403121561549a575f80fd5b81356001600160e01b03198116811461545b575f80fd5b80356001600160a01b0381168114612668575f80fd5b5f602082840312156154d7575f80fd5b61545b826154b1565b5f602082840312156154f0575f80fd5b5035919050565b5f8060408385031215615508575f80fd5b82359150615518602084016154b1565b90509250929050565b5f805f805f60a08688031215615535575f80fd5b61553e866154b1565b945060208601359350604086013592506060860135915060808601358015158114615567575f80fd5b809150509295509295909350565b5f8151808452602084019350602083015f5b828110156155a5578151865260209586019590910190600101615587565b5093949350505050565b606080825284519082018190525f9060208601906080840190835b818110156155f15783516001600160a01b03168352602093840193909201916001016155ca565b505083810360208501526156058187615575565b91505082810360408401526152bf8185615575565b5f806040838503121561562b575f80fd5b615634836154b1565b946020939093013593505050565b634e487b7160e01b5f52604160045260245ffd5b5f8060408385031215615667575f80fd5b615670836154b1565b9150602083013567ffffffffffffffff81111561568b575f80fd5b8301601f8101851361569b575f80fd5b803567ffffffffffffffff8111156156b5576156b5615642565b604051601f8201601f19908116603f0116810167ffffffffffffffff811182821017156156e4576156e4615642565b6040528181528282016020018710156156fb575f80fd5b816020840160208301375f602083830101528093505050509250929050565b602081525f61545b6020830184615575565b5f81518084528060208401602086015e5f602082860101526020601f19601f83011685010191505092915050565b602081525f61545b602083018461572c565b602080825282518282018190525f918401906040840190835b818110156157e757835180516001600160a01b0316845260208082015181860152604080830151908601526060808301519086015260808083015115159086015260a0918201511515918501919091529093019260c090920191600101615785565b509095945050505050565b5f805f8060808587031215615805575f80fd5b61580e856154b1565b935061581c602086016154b1565b925061582a604086016154b1565b9150615838606086016154b1565b905092959194509250565b634e487b7160e01b5f52601160045260245ffd5b80820180821115610f2357610f23615843565b81810381811115610f2357610f23615843565b634e487b7160e01b5f52603260045260245ffd5b5f602082840312156158a1575f80fd5b5051919050565b8082028115828204841417610f2357610f23615843565b5f826158d957634e487b7160e01b5f52601260045260245ffd5b500490565b6020808252600a90820152694e4f5f50454e44494e4760b01b604082015260600190565b6020808252600f908201526e54494d454c4f434b5f41435449564560881b604082015260600190565b828152604060208201525f6159436040830184615575565b949350505050565b828152604060208201525f615943604083018461572c565b5f6001820161597457615974615843565b5060010190565b5f82518060208501845e5f92019182525091905056fe68bf109b95a5c15fb2bb99041323c27d15f8675e11bf7420a1cd6ad64c394f46360894a13ba1a3210667c828492db98dca3e2076cc3735a920a3ca505d382bbc31e0210044b4f6757ce6aa31f9c6e8d4896d24a755014887391a926c5224d95902dd7bc7dec4dceedda775e58dd541e08a116c6c53815c0bd028192f7b626800cd5ed15c6e187e77e9aee88184c21f4f2182ab5827cb3b7e07fbedcd63f0330017a8e30262c1f919c33056d877a3c22b95c2f5e4dac44683c1c2323cd79fbdb09b779b17422d0df92223018b32b4d1fa46e071723d6817e2486d003becc55f0055435dd261a4b9b3364963f7738a7a662ad9c84396d64be3365284bb7f0a5041a26469706673582212206320e2c8c903e38a001380133c569b393e2d48ca047acb9e14b0a4ce7193a00564736f6c634300081a0033","linkReferences":{}},"methodIdentifiers":{"ALLOCATOR_ROLE()":"c81cbaa1","BPS()":"249d39e9","DEFAULT_ADMIN_ROLE()":"a217fddf","GUARDIAN_ROLE()":"24ea54f4","MAX_STRATEGIES()":"767f06ae","MAX_YIELD_PER_ACCRUAL_BPS()":"bd39cbb8","MIN_ACCRUAL_INTERVAL()":"1ef90fb0","STRATEGIST_ROLE()":"a378a324","UPGRADE_DELAY()":"47fe8b1d","UPGRADE_INTERFACE_VERSION()":"ad3cb1cc","VAULT_ROLE()":"98c4f1ac","accrueFees()":"37a4e834","asset()":"38d52e0f","availableReserves()":"1fa7c668","cancelAddStrategy()":"1bd7b1d3","cancelFeeConfig()":"97fa38c8","cancelRemoveStrategy()":"b82b8451","cancelReserveBps()":"55c91958","cancelUpdateStrategy()":"2af53d4e","cancelUpgrade()":"55f29166","cancelVaultChange()":"a9772f03","claimFees()":"d294f093","deposit(address,uint256)":"47e7ef24","depositFromVault(uint256)":"6edd9259","emergencyWithdrawAll()":"dd191719","executeAddStrategy()":"6eb6f5db","executeFeeConfig()":"cf23aa01","executeRemoveStrategy()":"68d691ad","executeReserveBps()":"a30c68cd","executeUpdateStrategy()":"427c802d","executeVaultChange()":"a775945d","fees()":"9af1d35a","getAllStrategies()":"c3b28864","getCurrentAllocations()":"41826c2d","getRoleAdmin(bytes32)":"248a9ca3","grantRole(bytes32,address)":"2f2ff15d","hasRole(bytes32,address)":"91d14854","initialize(address,address,address,address)":"f8c8765e","isStrategy(address)":"2e8ebaae","lastFeeAccrual()":"bc0bdf50","lastRecordedValue()":"4a165cd9","minAutoAllocateAmount()":"71841882","pause()":"8456cb59","paused()":"5c975abb","peakRecordedValue()":"aad93116","pendingAddStrategy()":"d499be37","pendingFeeConfigBps()":"d1d4ed71","pendingFeeConfigRecipient()":"c7abc9b4","pendingFeeConfigTime()":"04353d9a","pendingFees()":"224438d1","pendingImplementation()":"396f7b23","pendingRemoveStrategy()":"d4cf0d03","pendingRemoveStrategyTime()":"f940a7c1","pendingReserveBps()":"8af171cd","pendingReserveBpsSet()":"ea704648","pendingReserveBpsTime()":"43220255","pendingStrategyUpdate()":"fcad3990","pendingVault()":"52113ba7","proxiableUUID()":"52d1902d","rebalance()":"7d7c2a1c","recoverToken(address,uint256)":"b29a8140","renounceRole(bytes32,address)":"36568abe","requestAddStrategy(address,uint256,uint256,uint256,bool)":"f16c1684","requestFeeConfig(uint256,address)":"3c7f78d5","requestRemoveStrategy(address)":"cd2f4777","requestReserveBps(uint256)":"f9d4653a","requestUpdateStrategy(address,uint256,uint256,uint256,bool)":"2fcdf59c","requestUpgrade(address)":"6b9f97ef","requestVaultChange(address)":"2a498424","reserveBalance()":"a10954fe","reserveBps()":"38925449","revokeRole(bytes32,address)":"d547741f","setMinAutoAllocate(uint256)":"58c98c16","strategies(uint256)":"d574ea3d","strategyCount()":"22068b44","strategyIndex(address)":"11451526","supportsInterface(bytes4)":"01ffc9a7","targetReserve()":"cd33f2bd","totalBacking()":"eb2cd258","totalValue()":"d4c3eea0","totalValueNet()":"34365d9a","unpause()":"3f4ba83a","updateStrategy(address,uint256,uint256,uint256,bool)":"d2d4b36b","upgradeRequestTime()":"ac9e42c1","upgradeToAndCall(address,bytes)":"4f1ef286","vault()":"fbfa77cf","vaultChangeRequestTime()":"18888f88","withdraw(address,uint256)":"f3fef3a3","withdrawToVault(uint256)":"ce8c42e8"},"id":15}