{"abi":[{"type":"constructor","inputs":[],"stateMutability":"nonpayable"},{"type":"function","name":"BPS","inputs":[],"outputs":[{"name":"","type":"uint256","internalType":"uint256"}],"stateMutability":"view"},{"type":"function","name":"DEFAULT_ADMIN_ROLE","inputs":[],"outputs":[{"name":"","type":"bytes32","internalType":"bytes32"}],"stateMutability":"view"},{"type":"function","name":"MARKET_ADMIN_ROLE","inputs":[],"outputs":[{"name":"","type":"bytes32","internalType":"bytes32"}],"stateMutability":"view"},{"type":"function","name":"MAX_WHITELISTED_MARKETS","inputs":[],"outputs":[{"name":"","type":"uint256","internalType":"uint256"}],"stateMutability":"view"},{"type":"function","name":"PARAMS_ADMIN_ROLE","inputs":[],"outputs":[{"name":"","type":"bytes32","internalType":"bytes32"}],"stateMutability":"view"},{"type":"function","name":"PENDLE_ORACLE","inputs":[],"outputs":[{"name":"","type":"address","internalType":"address"}],"stateMutability":"view"},{"type":"function","name":"SECONDS_PER_YEAR","inputs":[],"outputs":[{"name":"","type":"uint256","internalType":"uint256"}],"stateMutability":"view"},{"type":"function","name":"TWAP_DURATION","inputs":[],"outputs":[{"name":"","type":"uint32","internalType":"uint32"}],"stateMutability":"view"},{"type":"function","name":"UPGRADE_DELAY","inputs":[],"outputs":[{"name":"","type":"uint256","internalType":"uint256"}],"stateMutability":"view"},{"type":"function","name":"UPGRADE_INTERFACE_VERSION","inputs":[],"outputs":[{"name":"","type":"string","internalType":"string"}],"stateMutability":"view"},{"type":"function","name":"apyWeight","inputs":[],"outputs":[{"name":"","type":"uint256","internalType":"uint256"}],"stateMutability":"view"},{"type":"function","name":"cancelUpgrade","inputs":[],"outputs":[],"stateMutability":"nonpayable"},{"type":"function","name":"getMarketInfo","inputs":[{"name":"market","type":"address","internalType":"address"}],"outputs":[{"name":"info","type":"tuple","internalType":"struct PendleMarketSelector.MarketInfo","components":[{"name":"market","type":"address","internalType":"address"},{"name":"sy","type":"address","internalType":"address"},{"name":"pt","type":"address","internalType":"address"},{"name":"expiry","type":"uint256","internalType":"uint256"},{"name":"timeToExpiry","type":"uint256","internalType":"uint256"},{"name":"totalPt","type":"uint256","internalType":"uint256"},{"name":"totalSy","type":"uint256","internalType":"uint256"},{"name":"tvlSy","type":"uint256","internalType":"uint256"},{"name":"impliedRate","type":"uint256","internalType":"uint256"},{"name":"impliedAPY","type":"uint256","internalType":"uint256"},{"name":"score","type":"uint256","internalType":"uint256"}]}],"stateMutability":"view"},{"type":"function","name":"getRoleAdmin","inputs":[{"name":"role","type":"bytes32","internalType":"bytes32"}],"outputs":[{"name":"","type":"bytes32","internalType":"bytes32"}],"stateMutability":"view"},{"type":"function","name":"getValidMarkets","inputs":[{"name":"category","type":"string","internalType":"string"}],"outputs":[{"name":"markets","type":"tuple[]","internalType":"struct PendleMarketSelector.MarketInfo[]","components":[{"name":"market","type":"address","internalType":"address"},{"name":"sy","type":"address","internalType":"address"},{"name":"pt","type":"address","internalType":"address"},{"name":"expiry","type":"uint256","internalType":"uint256"},{"name":"timeToExpiry","type":"uint256","internalType":"uint256"},{"name":"totalPt","type":"uint256","internalType":"uint256"},{"name":"totalSy","type":"uint256","internalType":"uint256"},{"name":"tvlSy","type":"uint256","internalType":"uint256"},{"name":"impliedRate","type":"uint256","internalType":"uint256"},{"name":"impliedAPY","type":"uint256","internalType":"uint256"},{"name":"score","type":"uint256","internalType":"uint256"}]}],"stateMutability":"view"},{"type":"function","name":"getWhitelistedMarkets","inputs":[],"outputs":[{"name":"","type":"address[]","internalType":"address[]"}],"stateMutability":"view"},{"type":"function","name":"grantRole","inputs":[{"name":"role","type":"bytes32","internalType":"bytes32"},{"name":"account","type":"address","internalType":"address"}],"outputs":[],"stateMutability":"nonpayable"},{"type":"function","name":"hasRole","inputs":[{"name":"role","type":"bytes32","internalType":"bytes32"},{"name":"account","type":"address","internalType":"address"}],"outputs":[{"name":"","type":"bool","internalType":"bool"}],"stateMutability":"view"},{"type":"function","name":"initialize","inputs":[{"name":"_admin","type":"address","internalType":"address"}],"outputs":[],"stateMutability":"nonpayable"},{"type":"function","name":"isWhitelisted","inputs":[{"name":"","type":"address","internalType":"address"}],"outputs":[{"name":"","type":"bool","internalType":"bool"}],"stateMutability":"view"},{"type":"function","name":"marketCategory","inputs":[{"name":"","type":"address","internalType":"address"}],"outputs":[{"name":"","type":"string","internalType":"string"}],"stateMutability":"view"},{"type":"function","name":"minApyBps","inputs":[],"outputs":[{"name":"","type":"uint256","internalType":"uint256"}],"stateMutability":"view"},{"type":"function","name":"minTimeToExpiry","inputs":[],"outputs":[{"name":"","type":"uint256","internalType":"uint256"}],"stateMutability":"view"},{"type":"function","name":"minTvlUsd","inputs":[],"outputs":[{"name":"","type":"uint256","internalType":"uint256"}],"stateMutability":"view"},{"type":"function","name":"pendingImplementation","inputs":[],"outputs":[{"name":"","type":"address","internalType":"address"}],"stateMutability":"view"},{"type":"function","name":"proxiableUUID","inputs":[],"outputs":[{"name":"","type":"bytes32","internalType":"bytes32"}],"stateMutability":"view"},{"type":"function","name":"removeMarket","inputs":[{"name":"market","type":"address","internalType":"address"}],"outputs":[],"stateMutability":"nonpayable"},{"type":"function","name":"renounceRole","inputs":[{"name":"role","type":"bytes32","internalType":"bytes32"},{"name":"callerConfirmation","type":"address","internalType":"address"}],"outputs":[],"stateMutability":"nonpayable"},{"type":"function","name":"requestUpgrade","inputs":[{"name":"newImplementation","type":"address","internalType":"address"}],"outputs":[],"stateMutability":"nonpayable"},{"type":"function","name":"revokeRole","inputs":[{"name":"role","type":"bytes32","internalType":"bytes32"},{"name":"account","type":"address","internalType":"address"}],"outputs":[],"stateMutability":"nonpayable"},{"type":"function","name":"selectBestMarket","inputs":[{"name":"category","type":"string","internalType":"string"}],"outputs":[{"name":"bestMarket","type":"address","internalType":"address"},{"name":"info","type":"tuple","internalType":"struct PendleMarketSelector.MarketInfo","components":[{"name":"market","type":"address","internalType":"address"},{"name":"sy","type":"address","internalType":"address"},{"name":"pt","type":"address","internalType":"address"},{"name":"expiry","type":"uint256","internalType":"uint256"},{"name":"timeToExpiry","type":"uint256","internalType":"uint256"},{"name":"totalPt","type":"uint256","internalType":"uint256"},{"name":"totalSy","type":"uint256","internalType":"uint256"},{"name":"tvlSy","type":"uint256","internalType":"uint256"},{"name":"impliedRate","type":"uint256","internalType":"uint256"},{"name":"impliedAPY","type":"uint256","internalType":"uint256"},{"name":"score","type":"uint256","internalType":"uint256"}]}],"stateMutability":"view"},{"type":"function","name":"setParams","inputs":[{"name":"_minTimeToExpiry","type":"uint256","internalType":"uint256"},{"name":"_minTvlUsd","type":"uint256","internalType":"uint256"},{"name":"_minApyBps","type":"uint256","internalType":"uint256"},{"name":"_tvlWeight","type":"uint256","internalType":"uint256"},{"name":"_apyWeight","type":"uint256","internalType":"uint256"}],"outputs":[],"stateMutability":"nonpayable"},{"type":"function","name":"supportsInterface","inputs":[{"name":"interfaceId","type":"bytes4","internalType":"bytes4"}],"outputs":[{"name":"","type":"bool","internalType":"bool"}],"stateMutability":"view"},{"type":"function","name":"tvlWeight","inputs":[],"outputs":[{"name":"","type":"uint256","internalType":"uint256"}],"stateMutability":"view"},{"type":"function","name":"upgradeRequestTime","inputs":[],"outputs":[{"name":"","type":"uint256","internalType":"uint256"}],"stateMutability":"view"},{"type":"function","name":"upgradeToAndCall","inputs":[{"name":"newImplementation","type":"address","internalType":"address"},{"name":"data","type":"bytes","internalType":"bytes"}],"outputs":[],"stateMutability":"payable"},{"type":"function","name":"whitelistMarket","inputs":[{"name":"market","type":"address","internalType":"address"},{"name":"category","type":"string","internalType":"string"}],"outputs":[],"stateMutability":"nonpayable"},{"type":"function","name":"whitelistMarkets","inputs":[{"name":"markets","type":"address[]","internalType":"address[]"},{"name":"categories","type":"string[]","internalType":"string[]"}],"outputs":[],"stateMutability":"nonpayable"},{"type":"function","name":"whitelistedCount","inputs":[],"outputs":[{"name":"","type":"uint256","internalType":"uint256"}],"stateMutability":"view"},{"type":"function","name":"whitelistedMarkets","inputs":[{"name":"","type":"uint256","internalType":"uint256"}],"outputs":[{"name":"","type":"address","internalType":"address"}],"stateMutability":"view"},{"type":"event","name":"BestMarketSelected","inputs":[{"name":"market","type":"address","indexed":true,"internalType":"address"},{"name":"tvl","type":"uint256","indexed":false,"internalType":"uint256"},{"name":"impliedAPY","type":"uint256","indexed":false,"internalType":"uint256"},{"name":"score","type":"uint256","indexed":false,"internalType":"uint256"}],"anonymous":false},{"type":"event","name":"Initialized","inputs":[{"name":"version","type":"uint64","indexed":false,"internalType":"uint64"}],"anonymous":false},{"type":"event","name":"MarketRemoved","inputs":[{"name":"market","type":"address","indexed":true,"internalType":"address"}],"anonymous":false},{"type":"event","name":"MarketWhitelisted","inputs":[{"name":"market","type":"address","indexed":true,"internalType":"address"},{"name":"category","type":"string","indexed":false,"internalType":"string"}],"anonymous":false},{"type":"event","name":"ParamsUpdated","inputs":[{"name":"minTimeToExpiry","type":"uint256","indexed":false,"internalType":"uint256"},{"name":"minTvlUsd","type":"uint256","indexed":false,"internalType":"uint256"},{"name":"minApyBps","type":"uint256","indexed":false,"internalType":"uint256"},{"name":"tvlWeight","type":"uint256","indexed":false,"internalType":"uint256"},{"name":"apyWeight","type":"uint256","indexed":false,"internalType":"uint256"}],"anonymous":false},{"type":"event","name":"RoleAdminChanged","inputs":[{"name":"role","type":"bytes32","indexed":true,"internalType":"bytes32"},{"name":"previousAdminRole","type":"bytes32","indexed":true,"internalType":"bytes32"},{"name":"newAdminRole","type":"bytes32","indexed":true,"internalType":"bytes32"}],"anonymous":false},{"type":"event","name":"RoleGranted","inputs":[{"name":"role","type":"bytes32","indexed":true,"internalType":"bytes32"},{"name":"account","type":"address","indexed":true,"internalType":"address"},{"name":"sender","type":"address","indexed":true,"internalType":"address"}],"anonymous":false},{"type":"event","name":"RoleRevoked","inputs":[{"name":"role","type":"bytes32","indexed":true,"internalType":"bytes32"},{"name":"account","type":"address","indexed":true,"internalType":"address"},{"name":"sender","type":"address","indexed":true,"internalType":"address"}],"anonymous":false},{"type":"event","name":"UpgradeCancelled","inputs":[{"name":"cancelledImplementation","type":"address","indexed":true,"internalType":"address"}],"anonymous":false},{"type":"event","name":"UpgradeRequested","inputs":[{"name":"newImplementation","type":"address","indexed":true,"internalType":"address"},{"name":"executeAfter","type":"uint256","indexed":false,"internalType":"uint256"}],"anonymous":false},{"type":"event","name":"Upgraded","inputs":[{"name":"implementation","type":"address","indexed":true,"internalType":"address"}],"anonymous":false},{"type":"error","name":"AccessControlBadConfirmation","inputs":[]},{"type":"error","name":"AccessControlUnauthorizedAccount","inputs":[{"name":"account","type":"address","internalType":"address"},{"name":"neededRole","type":"bytes32","internalType":"bytes32"}]},{"type":"error","name":"AddressEmptyCode","inputs":[{"name":"target","type":"address","internalType":"address"}]},{"type":"error","name":"ERC1967InvalidImplementation","inputs":[{"name":"implementation","type":"address","internalType":"address"}]},{"type":"error","name":"ERC1967NonPayable","inputs":[]},{"type":"error","name":"FailedCall","inputs":[]},{"type":"error","name":"InvalidInitialization","inputs":[]},{"type":"error","name":"InvalidWeights","inputs":[]},{"type":"error","name":"MarketNotWhitelisted","inputs":[]},{"type":"error","name":"NoValidMarkets","inputs":[]},{"type":"error","name":"NotInitializing","inputs":[]},{"type":"error","name":"UUPSUnauthorizedCallContext","inputs":[]},{"type":"error","name":"UUPSUnsupportedProxiableUUID","inputs":[{"name":"slot","type":"bytes32","internalType":"bytes32"}]}],"bytecode":{"object":"0x60a060405230608052348015610013575f80fd5b5061001c610021565b6100d3565b7ff0c57e16840df040f15088dc2f81fe391c3923bec73e23a9662efc9c229c6a00805468010000000000000000900460ff16156100715760405163f92ee8a960e01b815260040160405180910390fd5b80546001600160401b03908116146100d05780546001600160401b0319166001600160401b0390811782556040519081527fc7f505b2f371ae2175ee4913f4499e1f2633a7b5936321eed1cdaeb6115181d29060200160405180910390a15b50565b608051612d9b6100f95f395f8181611c8501528181611cae0152611ebe0152612d9b5ff3fe608060405260043610610233575f3560e01c80637ba8153711610129578063b2a1de22116100a8578063d828bb881161006d578063d828bb88146106a6578063db913236146106c5578063e6a69ab8146106e4578063e7651fe6146106fb578063f50f4b8f1461071a575f80fd5b8063b2a1de2214610620578063c4167dae14610633578063c4d66de814610648578063d547741f14610667578063d6f0d39f14610686575f80fd5b8063a217fddf116100ee578063a217fddf1461055c578063ac9e42c11461056f578063ad3cb1cc14610584578063b016941c146105c1578063b15d20da146105ed575f80fd5b80637ba81537146104ae578063879ac8f8146104cd57806391d14854146104f757806394389632146105165780639c977cf014610535575f80fd5b8063396f7b23116101b557806352d1902d1161017a57806352d1902d1461043d57806355931d331461045157806355f29166146104665780636a74e7a41461047a5780636b9f97ef1461048f575f80fd5b8063396f7b23146103b35780633af32abf146103d257806347fe8b1d146104005780634a1dbf3c146104165780634f1ef2861461042a575f80fd5b80631f700658116101fb5780631f70065814610308578063248a9ca31461033f578063249d39e91461035e5780632f2ff15d1461037357806336568abe14610394575f80fd5b806301ffc9a7146102375780630a72690d1461026b5780630cf85bcc1461028e57806312df8d06146102ba578063136cc1c3146102db575b5f80fd5b348015610242575f80fd5b5061025661025136600461241e565b61072f565b60405190151581526020015b60405180910390f35b348015610276575f80fd5b5061028060065481565b604051908152602001610262565b348015610299575f80fd5b506102ad6102a8366004612459565b610765565b6040516102629190612511565b3480156102c5575f80fd5b506102ce610776565b6040516102629190612520565b3480156102e6575f80fd5b506102fa6102f53660046125a8565b6107d5565b6040516102629291906125e6565b348015610313575f80fd5b50610327610322366004612604565b6108b3565b6040516001600160a01b039091168152602001610262565b34801561034a575f80fd5b50610280610359366004612604565b6108da565b348015610369575f80fd5b5061028061271081565b34801561037e575f80fd5b5061039261038d36600461261b565b6108fa565b005b34801561039f575f80fd5b506103926103ae36600461261b565b61091c565b3480156103be575f80fd5b50600854610327906001600160a01b031681565b3480156103dd575f80fd5b506102566103ec366004612459565b60016020525f908152604090205460ff1681565b34801561040b575f80fd5b506102806202a30081565b348015610421575f80fd5b50610280606481565b61039261043836600461265d565b610954565b348015610448575f80fd5b50610280610973565b34801561045c575f80fd5b5061028060035481565b348015610471575f80fd5b5061039261098e565b348015610485575f80fd5b5061028060045481565b34801561049a575f80fd5b506103926104a9366004612459565b6109e8565b3480156104b9575f80fd5b506103926104c8366004612760565b610ae3565b3480156104d8575f80fd5b506104e261038481565b60405163ffffffff9091168152602001610262565b348015610502575f80fd5b5061025661051136600461261b565b610e22565b348015610521575f80fd5b506103926105303660046127ca565b610e58565b348015610540575f80fd5b50610327739a9fa8338dd5e5b2188006f1cd2ef26d921650c281565b348015610567575f80fd5b506102805f81565b34801561057a575f80fd5b5061028060095481565b34801561058f575f80fd5b506105b4604051806040016040528060058152602001640352e302e360dc1b81525081565b604051610262919061281a565b3480156105cc575f80fd5b506105e06105db3660046125a8565b610fc9565b604051610262919061284f565b3480156105f8575f80fd5b506102807fb9d69e0ca90be54a40811e436234a7f7908b87ff2bec27e64f878b166da8e8e581565b34801561062b575f80fd5b505f54610280565b34801561063e575f80fd5b5061028060055481565b348015610653575f80fd5b50610392610662366004612459565b611379565b348015610672575f80fd5b5061039261068136600461261b565b61152b565b348015610691575f80fd5b506102805f80516020612d0683398151915281565b3480156106b1575f80fd5b506103926106c0366004612892565b611547565b3480156106d0575f80fd5b506103926106df366004612459565b611601565b3480156106ef575f80fd5b506102806301e1338081565b348015610706575f80fd5b506105b4610715366004612459565b6117a5565b348015610725575f80fd5b5061028060075481565b5f6001600160e01b03198216637965db0b60e01b148061075f57506301ffc9a760e01b6001600160e01b03198316145b92915050565b61076d61236a565b61075f8261183c565b60605f8054806020026020016040519081016040528092919081815260200182805480156107cb57602002820191905f5260205f20905b81546001600160a01b031681526001909101906020018083116107ad575b5050505050905090565b5f6107de61236a565b5f6107e98585610fc9565b905080515f0361080c57604051636cc2c6b560e01b815260040160405180910390fd5b5f805f5b835181101561086c578284828151811061082c5761082c6128c9565b60200260200101516101400151111561086457838181518110610851576108516128c9565b6020026020010151610140015192508091505b600101610810565b5082818151811061087f5761087f6128c9565b60200260200101515f015183828151811061089c5761089c6128c9565b6020026020010151945094505050505b9250929050565b5f81815481106108c1575f80fd5b5f918252602090912001546001600160a01b0316905081565b5f9081525f80516020612d46833981519152602052604090206001015490565b610903826108da565b61090c81611b53565b6109168383611b60565b50505050565b6001600160a01b03811633146109455760405163334bd91960e11b815260040160405180910390fd5b61094f8282611c01565b505050565b61095c611c7a565b61096582611d20565b61096f8282611df7565b5050565b5f61097c611eb3565b505f80516020612d2683398151915290565b5f61099881611b53565b600880546001600160a01b031981169091555f60098190556040516001600160a01b039092169182917f3198dc80249fcfedbd0d06e1ff49a7695a51b006592328ce0b127cdeab77e93691a25050565b5f6109f281611b53565b6001600160a01b038216610a215760405162461bcd60e51b8152600401610a18906128dd565b60405180910390fd5b6008546001600160a01b031615610a7a5760405162461bcd60e51b815260206004820152601760248201527f555047524144455f414c52454144595f50454e44494e470000000000000000006044820152606401610a18565b600880546001600160a01b0319166001600160a01b0384169081179091554260098190557f7d4df661563fb5b6b245267960bdc1f0ce81d7027ea6996f19718930dc3cf53790610ace906202a30090612917565b60405190815260200160405180910390a25050565b5f80516020612d06833981519152610afa81611b53565b838214610b3b5760405162461bcd60e51b815260206004820152600f60248201526e098cadccee8d040dad2e6dac2e8c6d608b1b6044820152606401610a18565b6032841115610b7e5760405162461bcd60e51b815260206004820152600f60248201526e42415443485f544f4f5f4c4152474560881b6044820152606401610a18565b5f5b84811015610e1a575f868683818110610b9b57610b9b6128c9565b9050602002016020810190610bb09190612459565b6001600160a01b031603610bd65760405162461bcd60e51b8152600401610a18906128dd565b60015f878784818110610beb57610beb6128c9565b9050602002016020810190610c009190612459565b6001600160a01b0316815260208101919091526040015f205460ff16610d14575f54606411610c675760405162461bcd60e51b815260206004820152601360248201527213505617d3505492d15514d7d4915050d21151606a1b6044820152606401610a18565b5f868683818110610c7a57610c7a6128c9565b9050602002016020810190610c8f9190612459565b8154600180820184555f9384526020842090910180546001600160a01b0319166001600160a01b039390931692909217909155908190888885818110610cd757610cd76128c9565b9050602002016020810190610cec9190612459565b6001600160a01b0316815260208101919091526040015f20805460ff19169115159190911790555b838382818110610d2657610d266128c9565b9050602002810190610d38919061292a565b60025f898986818110610d4d57610d4d6128c9565b9050602002016020810190610d629190612459565b6001600160a01b0316815260208101919091526040015f2091610d869190836129ef565b50858582818110610d9957610d996128c9565b9050602002016020810190610dae9190612459565b6001600160a01b03167fbdf27f8b56dc4e92c2fb92492681e2f282b3d10967c477ca684b2c4964bfa63d858584818110610dea57610dea6128c9565b9050602002810190610dfc919061292a565b604051610e0a929190612aa8565b60405180910390a2600101610b80565b505050505050565b5f9182525f80516020612d46833981519152602090815260408084206001600160a01b0393909316845291905290205460ff1690565b5f80516020612d06833981519152610e6f81611b53565b6001600160a01b038416610e955760405162461bcd60e51b8152600401610a18906128dd565b6001600160a01b0384165f9081526001602052604090205460ff16610f5d575f54606411610efb5760405162461bcd60e51b815260206004820152601360248201527213505617d3505492d15514d7d4915050d21151606a1b6044820152606401610a18565b5f8054600180820183557f290decd9548b62a8d60345a988386fc84ba6bc95484008f6362f93160ef3e56390910180546001600160a01b0319166001600160a01b038816908117909155825260208190526040909120805460ff191690911790555b6001600160a01b0384165f908152600260205260409020610f7f8385836129ef565b50836001600160a01b03167fbdf27f8b56dc4e92c2fb92492681e2f282b3d10967c477ca684b2c4964bfa63d8484604051610fbb929190612aa8565b60405180910390a250505050565b5f8054606091816001600160401b03811115610fe757610fe7612649565b60405190808252806020026020018201604052801561102057816020015b61100d61236a565b8152602001906001900390816110055790505b5090505f826001600160401b0381111561103c5761103c612649565b604051908082528060200260200182016040528015611065578160200160208202803683370190505b5090505f805b84811015611291575f808281548110611086576110866128c9565b5f9182526020808320909101546001600160a01b0316808352600190915260409091205490915060ff166110ba5750611289565b88886040516110ca929190612ad6565b604080519182900382206001600160a01b0384165f90815260026020529190912090916110f79190612ae5565b60405180910390201461110a5750611289565b5f819050806001600160a01b0316632f13b60c6040518163ffffffff1660e01b8152600401602060405180830381865afa15801561114a573d5f803e3d5ffd5b505050506040513d601f19601f8201168201806040525081019061116e9190612b56565b1561117a575050611289565b5f816001600160a01b031663e184c9be6040518163ffffffff1660e01b8152600401602060405180830381865afa1580156111b7573d5f803e3d5ffd5b505050506040513d601f19601f820116820180604052508101906111db9190612b75565b9050600354426111eb9190612917565b8110156111fa57505050611289565b5f6112048461183c565b90506004548160e00151101561121d5750505050611289565b60055481610120015110156112355750505050611289565b80888681518110611248576112486128c9565b60200260200101819052506001878681518110611267576112676128c9565b911515602092830291909101909101528561128181612b8c565b965050505050505b60010161106b565b50806001600160401b038111156112aa576112aa612649565b6040519080825280602002602001820160405280156112e357816020015b6112d061236a565b8152602001906001900390816112c85790505b5094505f805b8581101561135e57838181518110611303576113036128c9565b60200260200101511561135657848181518110611322576113226128c9565b602002602001015187838151811061133c5761133c6128c9565b6020026020010181905250818061135290612b8c565b9250505b6001016112e9565b50811561136e5761136e86611efc565b505050505092915050565b5f6113826120a1565b805490915060ff600160401b82041615906001600160401b03165f811580156113a85750825b90505f826001600160401b031660011480156113c35750303b155b9050811580156113d1575080155b156113ef5760405163f92ee8a960e01b815260040160405180910390fd5b845467ffffffffffffffff19166001178555831561141957845460ff60401b1916600160401b1785555b6001600160a01b03861661145c5760405162461bcd60e51b815260206004820152600a6024820152692d22a927afa0a226a4a760b11b6044820152606401610a18565b6114646120c9565b61146c6120c9565b6114765f87611b60565b5061148e5f80516020612d0683398151915287611b60565b506114b97fb9d69e0ca90be54a40811e436234a7f7908b87ff2bec27e64f878b166da8e8e587611b60565b5062278d006003556509184e72a000600455610384600555610fa06006556117706007558315610e1a57845460ff60401b19168555604051600181527fc7f505b2f371ae2175ee4913f4499e1f2633a7b5936321eed1cdaeb6115181d2906020015b60405180910390a1505050505050565b611534826108da565b61153d81611b53565b6109168383611c01565b7fb9d69e0ca90be54a40811e436234a7f7908b87ff2bec27e64f878b166da8e8e561157181611b53565b61271061157e8385612917565b1461159c5760405163108cef9d60e31b815260040160405180910390fd5b60038690556004859055600584905560068390556007829055604080518781526020810187905290810185905260608101849052608081018390527f3004c51189ca28b9e3d1bfbc25fad1a40a49c68f6586da5b733459686020498b9060a00161151b565b5f80516020612d0683398151915261161881611b53565b6001600160a01b0382165f9081526001602052604090205460ff1661164f576040516280923760e31b815260040160405180910390fd5b6001600160a01b0382165f908152600160209081526040808320805460ff1916905560029091528120611681916123d4565b5f5b5f5481101561176d57826001600160a01b03165f82815481106116a8576116a86128c9565b5f918252602090912001546001600160a01b031603611765575f80546116d090600190612ba4565b815481106116e0576116e06128c9565b5f91825260208220015481546001600160a01b03909116919083908110611709576117096128c9565b5f918252602082200180546001600160a01b0319166001600160a01b03939093169290921790915580548061174057611740612bb7565b5f8281526020902081015f1990810180546001600160a01b031916905501905561176d565b600101611683565b506040516001600160a01b038316907f59d7b1e52008dc342c9421dadfc773114b914a65682a4e4b53cf60a970df0d77905f90a25050565b60026020525f9081526040902080546117bd9061296c565b80601f01602080910402602001604051908101604052809291908181526020018280546117e99061296c565b80156118345780601f1061180b57610100808354040283529160200191611834565b820191905f5260205f20905b81548152906001019060200180831161181757829003601f168201915b505050505081565b61184461236a565b5f8290505f80826001600160a01b0316632c8ce6bc6040518163ffffffff1660e01b8152600401606060405180830381865afa158015611886573d5f803e3d5ffd5b505050506040513d601f19601f820116820180604052508101906118aa9190612bcb565b50915091505f805f856001600160a01b031663c3fb90d66040518163ffffffff1660e01b815260040160c060405180830381865afa1580156118ee573d5f803e3d5ffd5b505050506040513d601f19601f820116820180604052508101906119129190612c3c565b5050509250925092505f866001600160a01b031663e184c9be6040518163ffffffff1660e01b8152600401602060405180830381865afa158015611958573d5f803e3d5ffd5b505050506040513d601f19601f8201168201806040525081019061197c9190612b75565b90505f42821161198c575f611996565b6119964283612ba4565b60405163a31426d160e01b81526001600160a01b038c16600482015261038460248201529091505f90739a9fa8338dd5e5b2188006f1cd2ef26d921650c29063a31426d190604401602060405180830381865afa1580156119f9573d5f803e3d5ffd5b505050506040513d601f19601f82011682018060405250810190611a1d9190612b75565b90505f670de0b6b3a7640000825f89600f0b1215611a3b575f611a46565b886001600160801b03165b611a509190612cb9565b611a5a9190612cd0565b90505f8087600f0b1215611a6e575f611a79565b866001600160801b03165b611a839083612917565b90505f611a99876001600160601b0316866120d1565b90506040518061016001604052808f6001600160a01b031681526020018c6001600160a01b031681526020018b6001600160a01b031681526020018781526020018681526020015f8b600f0b1215611af1575f611afc565b8a6001600160801b03165b81526020015f8a600f0b1215611b12575f611b1d565b896001600160801b03165b815260208101939093526001600160601b03909716604083015260608201525f60809091015250929a9950505050505050505050565b611b5d8133612123565b50565b5f5f80516020612d46833981519152611b798484610e22565b611bf8575f848152602082815260408083206001600160a01b03871684529091529020805460ff19166001179055611bae3390565b6001600160a01b0316836001600160a01b0316857f2f8788117e7eff1d82e926ec794901d17c78024a50270940304540a733656f0d60405160405180910390a4600191505061075f565b5f91505061075f565b5f5f80516020612d46833981519152611c1a8484610e22565b15611bf8575f848152602082815260408083206001600160a01b0387168085529252808320805460ff1916905551339287917ff6391f5c32d9c69d2a47ea670b442974b53935d1edc7fd64eb21e047a839171b9190a4600191505061075f565b306001600160a01b037f0000000000000000000000000000000000000000000000000000000000000000161480611d0057507f00000000000000000000000000000000000000000000000000000000000000006001600160a01b0316611cf45f80516020612d26833981519152546001600160a01b031690565b6001600160a01b031614155b15611d1e5760405163703e46dd60e11b815260040160405180910390fd5b565b5f611d2a81611b53565b6008546001600160a01b03838116911614611d7f5760405162461bcd60e51b8152602060048201526015602482015274155411d490511157d393d517d49154555154d51151605a1b6044820152606401610a18565b6202a300600954611d909190612917565b421015611ddf5760405162461bcd60e51b815260206004820152601760248201527f555047524144455f54494d454c4f434b5f4143544956450000000000000000006044820152606401610a18565b5050600880546001600160a01b03191690555f600955565b816001600160a01b03166352d1902d6040518163ffffffff1660e01b8152600401602060405180830381865afa925050508015611e51575060408051601f3d908101601f19168201909252611e4e91810190612b75565b60015b611e7957604051634c9c8ce360e01b81526001600160a01b0383166004820152602401610a18565b5f80516020612d268339815191528114611ea957604051632a87526960e21b815260048101829052602401610a18565b61094f838361215c565b306001600160a01b037f00000000000000000000000000000000000000000000000000000000000000001614611d1e5760405163703e46dd60e11b815260040160405180910390fd5b80515f03611f075750565b5f805f5b8351811015611faa5782848281518110611f2757611f276128c9565b602002602001015160e001511115611f5a57838181518110611f4b57611f4b6128c9565b602002602001015160e0015192505b81848281518110611f6d57611f6d6128c9565b602002602001015161012001511115611fa257838181518110611f9257611f926128c9565b6020026020010151610120015191505b600101611f0b565b505f5b8351811015610916575f808411611fc4575f611ffa565b83612710868481518110611fda57611fda6128c9565b602002602001015160e00151611ff09190612cb9565b611ffa9190612cd0565b90505f80841161200a575f612041565b83612710878581518110612020576120206128c9565b602002602001015161012001516120379190612cb9565b6120419190612cd0565b9050612710600754826120549190612cb9565b6006546120619085612cb9565b61206b9190612917565b6120759190612cd0565b868481518110612087576120876128c9565b602090810291909101015161014001525050600101611fad565b5f807ff0c57e16840df040f15088dc2f81fe391c3923bec73e23a9662efc9c229c6a0061075f565b611d1e6121b1565b5f815f036120e057505f61075f565b5f826120f06301e1338086612cb9565b6120fa9190612cd0565b9050670de0b6b3a764000061211161271083612cb9565b61211b9190612cd0565b949350505050565b61212d8282610e22565b61096f5760405163e2517d3f60e01b81526001600160a01b038216600482015260248101839052604401610a18565b612165826121d6565b6040516001600160a01b038316907fbc7cd75a20ee27fd9adebab32041f755214dbc6bffa90cc0225b39da2e5c2d3b905f90a28051156121a95761094f8282612239565b61096f6122ab565b6121b96122ca565b611d1e57604051631afcd79f60e31b815260040160405180910390fd5b806001600160a01b03163b5f0361220b57604051634c9c8ce360e01b81526001600160a01b0382166004820152602401610a18565b5f80516020612d2683398151915280546001600160a01b0319166001600160a01b0392909216919091179055565b60605f80846001600160a01b0316846040516122559190612cef565b5f60405180830381855af49150503d805f811461228d576040519150601f19603f3d011682016040523d82523d5f602084013e612292565b606091505b50915091506122a28583836122e3565b95945050505050565b3415611d1e5760405163b398979f60e01b815260040160405180910390fd5b5f6122d36120a1565b54600160401b900460ff16919050565b6060826122f8576122f382612342565b61233b565b815115801561230f57506001600160a01b0384163b155b1561233857604051639996b31560e01b81526001600160a01b0385166004820152602401610a18565b50805b9392505050565b80511561235157805160208201fd5b60405163d6bda27560e01b815260040160405180910390fd5b6040518061016001604052805f6001600160a01b031681526020015f6001600160a01b031681526020015f6001600160a01b031681526020015f81526020015f81526020015f81526020015f81526020015f81526020015f81526020015f81526020015f81525090565b5080546123e09061296c565b5f825580601f106123ef575050565b601f0160209004905f5260205f2090810190611b5d91905b8082111561241a575f8155600101612407565b5090565b5f6020828403121561242e575f80fd5b81356001600160e01b03198116811461233b575f80fd5b6001600160a01b0381168114611b5d575f80fd5b5f60208284031215612469575f80fd5b813561233b81612445565b80516001600160a01b03168252602081015161249b60208401826001600160a01b03169052565b5060408101516124b660408401826001600160a01b03169052565b50606081015160608301526080810151608083015260a081015160a083015260c081015160c083015260e081015160e08301526101008101516101008301526101208101516101208301526101408101516101408301525050565b610160810161075f8284612474565b602080825282518282018190525f918401906040840190835b818110156125605783516001600160a01b0316835260209384019390920191600101612539565b509095945050505050565b5f8083601f84011261257b575f80fd5b5081356001600160401b03811115612591575f80fd5b6020830191508360208285010111156108ac575f80fd5b5f80602083850312156125b9575f80fd5b82356001600160401b038111156125ce575f80fd5b6125da8582860161256b565b90969095509350505050565b6001600160a01b0383168152610180810161233b6020830184612474565b5f60208284031215612614575f80fd5b5035919050565b5f806040838503121561262c575f80fd5b82359150602083013561263e81612445565b809150509250929050565b634e487b7160e01b5f52604160045260245ffd5b5f806040838503121561266e575f80fd5b823561267981612445565b915060208301356001600160401b03811115612693575f80fd5b8301601f810185136126a3575f80fd5b80356001600160401b038111156126bc576126bc612649565b604051601f8201601f19908116603f011681016001600160401b03811182821017156126ea576126ea612649565b604052818152828201602001871015612701575f80fd5b816020840160208301375f602083830101528093505050509250929050565b5f8083601f840112612730575f80fd5b5081356001600160401b03811115612746575f80fd5b6020830191508360208260051b85010111156108ac575f80fd5b5f805f8060408587031215612773575f80fd5b84356001600160401b03811115612788575f80fd5b61279487828801612720565b90955093505060208501356001600160401b038111156127b2575f80fd5b6127be87828801612720565b95989497509550505050565b5f805f604084860312156127dc575f80fd5b83356127e781612445565b925060208401356001600160401b03811115612801575f80fd5b61280d8682870161256b565b9497909650939450505050565b602081525f82518060208401528060208501604085015e5f604082850101526040601f19601f83011684010191505092915050565b602080825282518282018190525f918401906040840190835b818110156125605761287b838551612474565b602093909301926101609290920191600101612868565b5f805f805f60a086880312156128a6575f80fd5b505083359560208501359550604085013594606081013594506080013592509050565b634e487b7160e01b5f52603260045260245ffd5b6020808252600c908201526b5a45524f5f4144445245535360a01b604082015260600190565b634e487b7160e01b5f52601160045260245ffd5b8082018082111561075f5761075f612903565b5f808335601e1984360301811261293f575f80fd5b8301803591506001600160401b03821115612958575f80fd5b6020019150368190038213156108ac575f80fd5b600181811c9082168061298057607f821691505b60208210810361299e57634e487b7160e01b5f52602260045260245ffd5b50919050565b601f82111561094f57805f5260205f20601f840160051c810160208510156129c95750805b601f840160051c820191505b818110156129e8575f81556001016129d5565b5050505050565b6001600160401b03831115612a0657612a06612649565b612a1a83612a14835461296c565b836129a4565b5f601f841160018114612a4b575f8515612a345750838201355b5f19600387901b1c1916600186901b1783556129e8565b5f83815260208120601f198716915b82811015612a7a5786850135825560209485019460019092019101612a5a565b5086821015612a96575f1960f88860031b161c19848701351681555b505060018560011b0183555050505050565b60208152816020820152818360408301375f818301604090810191909152601f909201601f19160101919050565b818382375f9101908152919050565b5f808354612af28161296c565b600182168015612b095760018114612b1e57612b4b565b60ff1983168652811515820286019350612b4b565b865f5260205f205f5b83811015612b4357815488820152600190910190602001612b27565b505081860193505b509195945050505050565b5f60208284031215612b66575f80fd5b8151801515811461233b575f80fd5b5f60208284031215612b85575f80fd5b5051919050565b5f60018201612b9d57612b9d612903565b5060010190565b8181038181111561075f5761075f612903565b634e487b7160e01b5f52603160045260245ffd5b5f805f60608486031215612bdd575f80fd5b8351612be881612445565b6020850151909350612bf981612445565b6040850151909250612c0a81612445565b809150509250925092565b8051600f81900b8114612c26575f80fd5b919050565b805161ffff81168114612c26575f80fd5b5f805f805f8060c08789031215612c51575f80fd5b612c5a87612c15565b9550612c6860208801612c15565b945060408701516001600160601b0381168114612c83575f80fd5b9350612c9160608801612c2b565b9250612c9f60808801612c2b565b9150612cad60a08801612c2b565b90509295509295509295565b808202811582820484141761075f5761075f612903565b5f82612cea57634e487b7160e01b5f52601260045260245ffd5b500490565b5f82518060208501845e5f92019182525091905056fe3fb0aaa9e8051cfc6c234a5d843bed33910f70c647055f27247c10144c7552e1360894a13ba1a3210667c828492db98dca3e2076cc3735a920a3ca505d382bbc02dd7bc7dec4dceedda775e58dd541e08a116c6c53815c0bd028192f7b626800a26469706673582212201bd1883a9056efd97192808ac94476671c1312b6f8baede96695d7ed8b6a44c964736f6c634300081a0033","linkReferences":{}},"methodIdentifiers":{"BPS()":"249d39e9","DEFAULT_ADMIN_ROLE()":"a217fddf","MARKET_ADMIN_ROLE()":"d6f0d39f","MAX_WHITELISTED_MARKETS()":"4a1dbf3c","PARAMS_ADMIN_ROLE()":"b15d20da","PENDLE_ORACLE()":"9c977cf0","SECONDS_PER_YEAR()":"e6a69ab8","TWAP_DURATION()":"879ac8f8","UPGRADE_DELAY()":"47fe8b1d","UPGRADE_INTERFACE_VERSION()":"ad3cb1cc","apyWeight()":"f50f4b8f","cancelUpgrade()":"55f29166","getMarketInfo(address)":"0cf85bcc","getRoleAdmin(bytes32)":"248a9ca3","getValidMarkets(string)":"b016941c","getWhitelistedMarkets()":"12df8d06","grantRole(bytes32,address)":"2f2ff15d","hasRole(bytes32,address)":"91d14854","initialize(address)":"c4d66de8","isWhitelisted(address)":"3af32abf","marketCategory(address)":"e7651fe6","minApyBps()":"c4167dae","minTimeToExpiry()":"55931d33","minTvlUsd()":"6a74e7a4","pendingImplementation()":"396f7b23","proxiableUUID()":"52d1902d","removeMarket(address)":"db913236","renounceRole(bytes32,address)":"36568abe","requestUpgrade(address)":"6b9f97ef","revokeRole(bytes32,address)":"d547741f","selectBestMarket(string)":"136cc1c3","setParams(uint256,uint256,uint256,uint256,uint256)":"d828bb88","supportsInterface(bytes4)":"01ffc9a7","tvlWeight()":"0a72690d","upgradeRequestTime()":"ac9e42c1","upgradeToAndCall(address,bytes)":"4f1ef286","whitelistMarket(address,string)":"94389632","whitelistMarkets(address[],string[])":"7ba81537","whitelistedCount()":"b2a1de22","whitelistedMarkets(uint256)":"1f700658"},"id":10}