{"abi":[{"type":"constructor","inputs":[],"stateMutability":"nonpayable"},{"type":"function","name":"BPS","inputs":[],"outputs":[{"name":"","type":"uint256","internalType":"uint256"}],"stateMutability":"view"},{"type":"function","name":"DEFAULT_ADMIN_ROLE","inputs":[],"outputs":[{"name":"","type":"bytes32","internalType":"bytes32"}],"stateMutability":"view"},{"type":"function","name":"MARKET_ADMIN_ROLE","inputs":[],"outputs":[{"name":"","type":"bytes32","internalType":"bytes32"}],"stateMutability":"view"},{"type":"function","name":"MAX_WHITELISTED_MARKETS","inputs":[],"outputs":[{"name":"","type":"uint256","internalType":"uint256"}],"stateMutability":"view"},{"type":"function","name":"PARAMS_ADMIN_ROLE","inputs":[],"outputs":[{"name":"","type":"bytes32","internalType":"bytes32"}],"stateMutability":"view"},{"type":"function","name":"PENDLE_ORACLE","inputs":[],"outputs":[{"name":"","type":"address","internalType":"address"}],"stateMutability":"view"},{"type":"function","name":"SECONDS_PER_YEAR","inputs":[],"outputs":[{"name":"","type":"uint256","internalType":"uint256"}],"stateMutability":"view"},{"type":"function","name":"TWAP_DURATION","inputs":[],"outputs":[{"name":"","type":"uint32","internalType":"uint32"}],"stateMutability":"view"},{"type":"function","name":"UPGRADE_INTERFACE_VERSION","inputs":[],"outputs":[{"name":"","type":"string","internalType":"string"}],"stateMutability":"view"},{"type":"function","name":"apyWeight","inputs":[],"outputs":[{"name":"","type":"uint256","internalType":"uint256"}],"stateMutability":"view"},{"type":"function","name":"getMarketInfo","inputs":[{"name":"market","type":"address","internalType":"address"}],"outputs":[{"name":"info","type":"tuple","internalType":"struct PendleMarketSelector.MarketInfo","components":[{"name":"market","type":"address","internalType":"address"},{"name":"sy","type":"address","internalType":"address"},{"name":"pt","type":"address","internalType":"address"},{"name":"expiry","type":"uint256","internalType":"uint256"},{"name":"timeToExpiry","type":"uint256","internalType":"uint256"},{"name":"totalPt","type":"uint256","internalType":"uint256"},{"name":"totalSy","type":"uint256","internalType":"uint256"},{"name":"tvlSy","type":"uint256","internalType":"uint256"},{"name":"impliedRate","type":"uint256","internalType":"uint256"},{"name":"impliedAPY","type":"uint256","internalType":"uint256"},{"name":"score","type":"uint256","internalType":"uint256"}]}],"stateMutability":"view"},{"type":"function","name":"getRoleAdmin","inputs":[{"name":"role","type":"bytes32","internalType":"bytes32"}],"outputs":[{"name":"","type":"bytes32","internalType":"bytes32"}],"stateMutability":"view"},{"type":"function","name":"getValidMarkets","inputs":[{"name":"category","type":"string","internalType":"string"}],"outputs":[{"name":"markets","type":"tuple[]","internalType":"struct PendleMarketSelector.MarketInfo[]","components":[{"name":"market","type":"address","internalType":"address"},{"name":"sy","type":"address","internalType":"address"},{"name":"pt","type":"address","internalType":"address"},{"name":"expiry","type":"uint256","internalType":"uint256"},{"name":"timeToExpiry","type":"uint256","internalType":"uint256"},{"name":"totalPt","type":"uint256","internalType":"uint256"},{"name":"totalSy","type":"uint256","internalType":"uint256"},{"name":"tvlSy","type":"uint256","internalType":"uint256"},{"name":"impliedRate","type":"uint256","internalType":"uint256"},{"name":"impliedAPY","type":"uint256","internalType":"uint256"},{"name":"score","type":"uint256","internalType":"uint256"}]}],"stateMutability":"view"},{"type":"function","name":"getWhitelistedMarkets","inputs":[],"outputs":[{"name":"","type":"address[]","internalType":"address[]"}],"stateMutability":"view"},{"type":"function","name":"grantRole","inputs":[{"name":"role","type":"bytes32","internalType":"bytes32"},{"name":"account","type":"address","internalType":"address"}],"outputs":[],"stateMutability":"nonpayable"},{"type":"function","name":"hasRole","inputs":[{"name":"role","type":"bytes32","internalType":"bytes32"},{"name":"account","type":"address","internalType":"address"}],"outputs":[{"name":"","type":"bool","internalType":"bool"}],"stateMutability":"view"},{"type":"function","name":"initialize","inputs":[{"name":"_admin","type":"address","internalType":"address"},{"name":"_timelock","type":"address","internalType":"address"}],"outputs":[],"stateMutability":"nonpayable"},{"type":"function","name":"isWhitelisted","inputs":[{"name":"","type":"address","internalType":"address"}],"outputs":[{"name":"","type":"bool","internalType":"bool"}],"stateMutability":"view"},{"type":"function","name":"marketCategory","inputs":[{"name":"","type":"address","internalType":"address"}],"outputs":[{"name":"","type":"string","internalType":"string"}],"stateMutability":"view"},{"type":"function","name":"minApyBps","inputs":[],"outputs":[{"name":"","type":"uint256","internalType":"uint256"}],"stateMutability":"view"},{"type":"function","name":"minTimeToExpiry","inputs":[],"outputs":[{"name":"","type":"uint256","internalType":"uint256"}],"stateMutability":"view"},{"type":"function","name":"minTvlUsd","inputs":[],"outputs":[{"name":"","type":"uint256","internalType":"uint256"}],"stateMutability":"view"},{"type":"function","name":"proxiableUUID","inputs":[],"outputs":[{"name":"","type":"bytes32","internalType":"bytes32"}],"stateMutability":"view"},{"type":"function","name":"removeMarket","inputs":[{"name":"market","type":"address","internalType":"address"}],"outputs":[],"stateMutability":"nonpayable"},{"type":"function","name":"renounceRole","inputs":[{"name":"role","type":"bytes32","internalType":"bytes32"},{"name":"callerConfirmation","type":"address","internalType":"address"}],"outputs":[],"stateMutability":"nonpayable"},{"type":"function","name":"revokeRole","inputs":[{"name":"role","type":"bytes32","internalType":"bytes32"},{"name":"account","type":"address","internalType":"address"}],"outputs":[],"stateMutability":"nonpayable"},{"type":"function","name":"selectBestMarket","inputs":[{"name":"category","type":"string","internalType":"string"}],"outputs":[{"name":"bestMarket","type":"address","internalType":"address"},{"name":"info","type":"tuple","internalType":"struct PendleMarketSelector.MarketInfo","components":[{"name":"market","type":"address","internalType":"address"},{"name":"sy","type":"address","internalType":"address"},{"name":"pt","type":"address","internalType":"address"},{"name":"expiry","type":"uint256","internalType":"uint256"},{"name":"timeToExpiry","type":"uint256","internalType":"uint256"},{"name":"totalPt","type":"uint256","internalType":"uint256"},{"name":"totalSy","type":"uint256","internalType":"uint256"},{"name":"tvlSy","type":"uint256","internalType":"uint256"},{"name":"impliedRate","type":"uint256","internalType":"uint256"},{"name":"impliedAPY","type":"uint256","internalType":"uint256"},{"name":"score","type":"uint256","internalType":"uint256"}]}],"stateMutability":"view"},{"type":"function","name":"setParams","inputs":[{"name":"_minTimeToExpiry","type":"uint256","internalType":"uint256"},{"name":"_minTvlUsd","type":"uint256","internalType":"uint256"},{"name":"_minApyBps","type":"uint256","internalType":"uint256"},{"name":"_tvlWeight","type":"uint256","internalType":"uint256"},{"name":"_apyWeight","type":"uint256","internalType":"uint256"}],"outputs":[],"stateMutability":"nonpayable"},{"type":"function","name":"setTimelock","inputs":[{"name":"_timelock","type":"address","internalType":"address"}],"outputs":[],"stateMutability":"nonpayable"},{"type":"function","name":"supportsInterface","inputs":[{"name":"interfaceId","type":"bytes4","internalType":"bytes4"}],"outputs":[{"name":"","type":"bool","internalType":"bool"}],"stateMutability":"view"},{"type":"function","name":"timelock","inputs":[],"outputs":[{"name":"","type":"address","internalType":"address"}],"stateMutability":"view"},{"type":"function","name":"tvlWeight","inputs":[],"outputs":[{"name":"","type":"uint256","internalType":"uint256"}],"stateMutability":"view"},{"type":"function","name":"upgradeToAndCall","inputs":[{"name":"newImplementation","type":"address","internalType":"address"},{"name":"data","type":"bytes","internalType":"bytes"}],"outputs":[],"stateMutability":"payable"},{"type":"function","name":"whitelistMarket","inputs":[{"name":"market","type":"address","internalType":"address"},{"name":"category","type":"string","internalType":"string"}],"outputs":[],"stateMutability":"nonpayable"},{"type":"function","name":"whitelistMarkets","inputs":[{"name":"markets","type":"address[]","internalType":"address[]"},{"name":"categories","type":"string[]","internalType":"string[]"}],"outputs":[],"stateMutability":"nonpayable"},{"type":"function","name":"whitelistedCount","inputs":[],"outputs":[{"name":"","type":"uint256","internalType":"uint256"}],"stateMutability":"view"},{"type":"function","name":"whitelistedMarkets","inputs":[{"name":"","type":"uint256","internalType":"uint256"}],"outputs":[{"name":"","type":"address","internalType":"address"}],"stateMutability":"view"},{"type":"event","name":"BestMarketSelected","inputs":[{"name":"market","type":"address","indexed":true,"internalType":"address"},{"name":"tvl","type":"uint256","indexed":false,"internalType":"uint256"},{"name":"impliedAPY","type":"uint256","indexed":false,"internalType":"uint256"},{"name":"score","type":"uint256","indexed":false,"internalType":"uint256"}],"anonymous":false},{"type":"event","name":"Initialized","inputs":[{"name":"version","type":"uint64","indexed":false,"internalType":"uint64"}],"anonymous":false},{"type":"event","name":"MarketRemoved","inputs":[{"name":"market","type":"address","indexed":true,"internalType":"address"}],"anonymous":false},{"type":"event","name":"MarketWhitelisted","inputs":[{"name":"market","type":"address","indexed":true,"internalType":"address"},{"name":"category","type":"string","indexed":false,"internalType":"string"}],"anonymous":false},{"type":"event","name":"ParamsUpdated","inputs":[{"name":"minTimeToExpiry","type":"uint256","indexed":false,"internalType":"uint256"},{"name":"minTvlUsd","type":"uint256","indexed":false,"internalType":"uint256"},{"name":"minApyBps","type":"uint256","indexed":false,"internalType":"uint256"},{"name":"tvlWeight","type":"uint256","indexed":false,"internalType":"uint256"},{"name":"apyWeight","type":"uint256","indexed":false,"internalType":"uint256"}],"anonymous":false},{"type":"event","name":"RoleAdminChanged","inputs":[{"name":"role","type":"bytes32","indexed":true,"internalType":"bytes32"},{"name":"previousAdminRole","type":"bytes32","indexed":true,"internalType":"bytes32"},{"name":"newAdminRole","type":"bytes32","indexed":true,"internalType":"bytes32"}],"anonymous":false},{"type":"event","name":"RoleGranted","inputs":[{"name":"role","type":"bytes32","indexed":true,"internalType":"bytes32"},{"name":"account","type":"address","indexed":true,"internalType":"address"},{"name":"sender","type":"address","indexed":true,"internalType":"address"}],"anonymous":false},{"type":"event","name":"RoleRevoked","inputs":[{"name":"role","type":"bytes32","indexed":true,"internalType":"bytes32"},{"name":"account","type":"address","indexed":true,"internalType":"address"},{"name":"sender","type":"address","indexed":true,"internalType":"address"}],"anonymous":false},{"type":"event","name":"TimelockUpdated","inputs":[{"name":"oldTimelock","type":"address","indexed":true,"internalType":"address"},{"name":"newTimelock","type":"address","indexed":true,"internalType":"address"}],"anonymous":false},{"type":"event","name":"Upgraded","inputs":[{"name":"implementation","type":"address","indexed":true,"internalType":"address"}],"anonymous":false},{"type":"error","name":"AccessControlBadConfirmation","inputs":[]},{"type":"error","name":"AccessControlUnauthorizedAccount","inputs":[{"name":"account","type":"address","internalType":"address"},{"name":"neededRole","type":"bytes32","internalType":"bytes32"}]},{"type":"error","name":"AddressEmptyCode","inputs":[{"name":"target","type":"address","internalType":"address"}]},{"type":"error","name":"ERC1967InvalidImplementation","inputs":[{"name":"implementation","type":"address","internalType":"address"}]},{"type":"error","name":"ERC1967NonPayable","inputs":[]},{"type":"error","name":"FailedCall","inputs":[]},{"type":"error","name":"InvalidInitialization","inputs":[]},{"type":"error","name":"InvalidWeights","inputs":[]},{"type":"error","name":"MarketNotWhitelisted","inputs":[]},{"type":"error","name":"NoValidMarkets","inputs":[]},{"type":"error","name":"NotInitializing","inputs":[]},{"type":"error","name":"OnlyTimelock","inputs":[]},{"type":"error","name":"UUPSUnauthorizedCallContext","inputs":[]},{"type":"error","name":"UUPSUnsupportedProxiableUUID","inputs":[{"name":"slot","type":"bytes32","internalType":"bytes32"}]},{"type":"error","name":"ZeroTimelock","inputs":[]}],"bytecode":{"object":"0x60a060405230608052348015610013575f80fd5b5061001c610021565b6100d3565b7ff0c57e16840df040f15088dc2f81fe391c3923bec73e23a9662efc9c229c6a00805468010000000000000000900460ff16156100715760405163f92ee8a960e01b815260040160405180910390fd5b80546001600160401b03908116146100d05780546001600160401b0319166001600160401b0390811782556040519081527fc7f505b2f371ae2175ee4913f4499e1f2633a7b5936321eed1cdaeb6115181d29060200160405180910390a15b50565b608051612d266100f95f395f8181611c7201528181611c9b0152611e190152612d265ff3fe608060405260043610610212575f3560e01c8063879ac8f81161011e578063bdacb303116100a8578063d828bb881161006d578063d828bb881461063b578063db9132361461065a578063e6a69ab814610679578063e7651fe614610690578063f50f4b8f146106af575f80fd5b8063bdacb303146105b4578063c4167dae146105d3578063d33219b4146105e8578063d547741f146105fc578063d6f0d39f1461061b575f80fd5b8063a217fddf116100ee578063a217fddf146104f2578063ad3cb1cc14610505578063b016941c14610542578063b15d20da1461056e578063b2a1de22146105a1575f80fd5b8063879ac8f81461046357806391d148541461048d57806394389632146104ac5780639c977cf0146104cb575f80fd5b806336568abe1161019f5780634f1ef2861161016f5780634f1ef286146103f357806352d1902d1461040657806355931d331461041a5780636a74e7a41461042f5780637ba8153714610444575f80fd5b806336568abe146103735780633af32abf14610392578063485cc955146103c05780634a1dbf3c146103df575f80fd5b8063136cc1c3116101e5578063136cc1c3146102ba5780631f700658146102e7578063248a9ca31461031e578063249d39e91461033d5780632f2ff15d14610352575f80fd5b806301ffc9a7146102165780630a72690d1461024a5780630cf85bcc1461026d57806312df8d0614610299575b5f80fd5b348015610221575f80fd5b5061023561023036600461235d565b6106c4565b60405190151581526020015b60405180910390f35b348015610255575f80fd5b5061025f60065481565b604051908152602001610241565b348015610278575f80fd5b5061028c610287366004612398565b6106fa565b6040516102419190612450565b3480156102a4575f80fd5b506102ad61070b565b604051610241919061245f565b3480156102c5575f80fd5b506102d96102d43660046124e7565b61076a565b604051610241929190612525565b3480156102f2575f80fd5b50610306610301366004612543565b610848565b6040516001600160a01b039091168152602001610241565b348015610329575f80fd5b5061025f610338366004612543565b61086f565b348015610348575f80fd5b5061025f61271081565b34801561035d575f80fd5b5061037161036c36600461255a565b61088f565b005b34801561037e575f80fd5b5061037161038d36600461255a565b6108b1565b34801561039d575f80fd5b506102356103ac366004612398565b60016020525f908152604090205460ff1681565b3480156103cb575f80fd5b506103716103da366004612588565b6108e9565b3480156103ea575f80fd5b5061025f606481565b6103716104013660046125c8565b610aaa565b348015610411575f80fd5b5061025f610ac9565b348015610425575f80fd5b5061025f60035481565b34801561043a575f80fd5b5061025f60045481565b34801561044f575f80fd5b5061037161045e3660046126cb565b610ae4565b34801561046e575f80fd5b5061047861038481565b60405163ffffffff9091168152602001610241565b348015610498575f80fd5b506102356104a736600461255a565b610e23565b3480156104b7575f80fd5b506103716104c6366004612735565b610e59565b3480156104d6575f80fd5b50610306739a9fa8338dd5e5b2188006f1cd2ef26d921650c281565b3480156104fd575f80fd5b5061025f5f81565b348015610510575f80fd5b50610535604051806040016040528060058152602001640352e302e360dc1b81525081565b6040516102419190612785565b34801561054d575f80fd5b5061056161055c3660046124e7565b610fca565b60405161024191906127ba565b348015610579575f80fd5b5061025f7fb9d69e0ca90be54a40811e436234a7f7908b87ff2bec27e64f878b166da8e8e581565b3480156105ac575f80fd5b505f5461025f565b3480156105bf575f80fd5b506103716105ce366004612398565b61137a565b3480156105de575f80fd5b5061025f60055481565b3480156105f3575f80fd5b5061030661143e565b348015610607575f80fd5b5061037161061636600461255a565b61145d565b348015610626575f80fd5b5061025f5f80516020612c7183398151915281565b348015610646575f80fd5b506103716106553660046127fd565b611479565b348015610665575f80fd5b50610371610674366004612398565b61153e565b348015610684575f80fd5b5061025f6301e1338081565b34801561069b575f80fd5b506105356106aa366004612398565b6116e2565b3480156106ba575f80fd5b5061025f60075481565b5f6001600160e01b03198216637965db0b60e01b14806106f457506301ffc9a760e01b6001600160e01b03198316145b92915050565b6107026122a9565b6106f482611779565b60605f80548060200260200160405190810160405280929190818152602001828054801561076057602002820191905f5260205f20905b81546001600160a01b03168152600190910190602001808311610742575b5050505050905090565b5f6107736122a9565b5f61077e8585610fca565b905080515f036107a157604051636cc2c6b560e01b815260040160405180910390fd5b5f805f5b835181101561080157828482815181106107c1576107c1612834565b6020026020010151610140015111156107f9578381815181106107e6576107e6612834565b6020026020010151610140015192508091505b6001016107a5565b5082818151811061081457610814612834565b60200260200101515f015183828151811061083157610831612834565b6020026020010151945094505050505b9250929050565b5f8181548110610856575f80fd5b5f918252602090912001546001600160a01b0316905081565b5f9081525f80516020612cd1833981519152602052604090206001015490565b6108988261086f565b6108a181611a90565b6108ab8383611a9d565b50505050565b6001600160a01b03811633146108da5760405163334bd91960e11b815260040160405180910390fd5b6108e48282611b3e565b505050565b5f6108f2611bb7565b805490915060ff600160401b82041615906001600160401b03165f811580156109185750825b90505f826001600160401b031660011480156109335750303b155b905081158015610941575080155b1561095f5760405163f92ee8a960e01b815260040160405180910390fd5b845467ffffffffffffffff19166001178555831561098957845460ff60401b1916600160401b1785555b6001600160a01b0387166109d15760405162461bcd60e51b815260206004820152600a6024820152692d22a927afa0a226a4a760b11b60448201526064015b60405180910390fd5b6109d9611bdf565b6109e1611bdf565b6109ea86611be9565b6109f45f88611a9d565b50610a0c5f80516020612c7183398151915288611a9d565b50610a377fb9d69e0ca90be54a40811e436234a7f7908b87ff2bec27e64f878b166da8e8e588611a9d565b5062278d006003556509184e72a000600455610384600555610fa06006556117706007558315610aa157845460ff60401b19168555604051600181527fc7f505b2f371ae2175ee4913f4499e1f2633a7b5936321eed1cdaeb6115181d29060200160405180910390a15b50505050505050565b610ab2611c67565b610abb82611cf5565b610ac58282611d52565b5050565b5f610ad2611e0e565b505f80516020612cb183398151915290565b5f80516020612c71833981519152610afb81611a90565b838214610b3c5760405162461bcd60e51b815260206004820152600f60248201526e098cadccee8d040dad2e6dac2e8c6d608b1b60448201526064016109c8565b6032841115610b7f5760405162461bcd60e51b815260206004820152600f60248201526e42415443485f544f4f5f4c4152474560881b60448201526064016109c8565b5f5b84811015610e1b575f868683818110610b9c57610b9c612834565b9050602002016020810190610bb19190612398565b6001600160a01b031603610bd75760405162461bcd60e51b81526004016109c890612848565b60015f878784818110610bec57610bec612834565b9050602002016020810190610c019190612398565b6001600160a01b0316815260208101919091526040015f205460ff16610d15575f54606411610c685760405162461bcd60e51b815260206004820152601360248201527213505617d3505492d15514d7d4915050d21151606a1b60448201526064016109c8565b5f868683818110610c7b57610c7b612834565b9050602002016020810190610c909190612398565b8154600180820184555f9384526020842090910180546001600160a01b0319166001600160a01b039390931692909217909155908190888885818110610cd857610cd8612834565b9050602002016020810190610ced9190612398565b6001600160a01b0316815260208101919091526040015f20805460ff19169115159190911790555b838382818110610d2757610d27612834565b9050602002810190610d39919061286e565b60025f898986818110610d4e57610d4e612834565b9050602002016020810190610d639190612398565b6001600160a01b0316815260208101919091526040015f2091610d87919083612933565b50858582818110610d9a57610d9a612834565b9050602002016020810190610daf9190612398565b6001600160a01b03167fbdf27f8b56dc4e92c2fb92492681e2f282b3d10967c477ca684b2c4964bfa63d858584818110610deb57610deb612834565b9050602002810190610dfd919061286e565b604051610e0b9291906129ec565b60405180910390a2600101610b81565b505050505050565b5f9182525f80516020612cd1833981519152602090815260408084206001600160a01b0393909316845291905290205460ff1690565b5f80516020612c71833981519152610e7081611a90565b6001600160a01b038416610e965760405162461bcd60e51b81526004016109c890612848565b6001600160a01b0384165f9081526001602052604090205460ff16610f5e575f54606411610efc5760405162461bcd60e51b815260206004820152601360248201527213505617d3505492d15514d7d4915050d21151606a1b60448201526064016109c8565b5f8054600180820183557f290decd9548b62a8d60345a988386fc84ba6bc95484008f6362f93160ef3e56390910180546001600160a01b0319166001600160a01b038816908117909155825260208190526040909120805460ff191690911790555b6001600160a01b0384165f908152600260205260409020610f80838583612933565b50836001600160a01b03167fbdf27f8b56dc4e92c2fb92492681e2f282b3d10967c477ca684b2c4964bfa63d8484604051610fbc9291906129ec565b60405180910390a250505050565b5f8054606091816001600160401b03811115610fe857610fe86125b4565b60405190808252806020026020018201604052801561102157816020015b61100e6122a9565b8152602001906001900390816110065790505b5090505f826001600160401b0381111561103d5761103d6125b4565b604051908082528060200260200182016040528015611066578160200160208202803683370190505b5090505f805b84811015611292575f80828154811061108757611087612834565b5f9182526020808320909101546001600160a01b0316808352600190915260409091205490915060ff166110bb575061128a565b88886040516110cb929190612a1a565b604080519182900382206001600160a01b0384165f90815260026020529190912090916110f89190612a29565b60405180910390201461110b575061128a565b5f819050806001600160a01b0316632f13b60c6040518163ffffffff1660e01b8152600401602060405180830381865afa15801561114b573d5f803e3d5ffd5b505050506040513d601f19601f8201168201806040525081019061116f9190612a9a565b1561117b57505061128a565b5f816001600160a01b031663e184c9be6040518163ffffffff1660e01b8152600401602060405180830381865afa1580156111b8573d5f803e3d5ffd5b505050506040513d601f19601f820116820180604052508101906111dc9190612ab9565b9050600354426111ec9190612ae4565b8110156111fb5750505061128a565b5f61120584611779565b90506004548160e00151101561121e575050505061128a565b6005548161012001511015611236575050505061128a565b8088868151811061124957611249612834565b6020026020010181905250600187868151811061126857611268612834565b911515602092830291909101909101528561128281612af7565b965050505050505b60010161106c565b50806001600160401b038111156112ab576112ab6125b4565b6040519080825280602002602001820160405280156112e457816020015b6112d16122a9565b8152602001906001900390816112c95790505b5094505f805b8581101561135f5783818151811061130457611304612834565b6020026020010151156113575784818151811061132357611323612834565b602002602001015187838151811061133d5761133d612834565b6020026020010181905250818061135390612af7565b9250505b6001016112ea565b50811561136f5761136f86611e57565b505050505092915050565b5f80516020612c91833981519152546001600160a01b031633146113b157604051630e05f48560e11b815260040160405180910390fd5b6001600160a01b0381166113d8576040516350c0eb2960e11b815260040160405180910390fd5b5f80516020612c9183398151915280546040516001600160a01b038481169216907fae97011a27b5efe7b1d76fe38e75cc498fd64cc24e407a9c6b2185d27f611f7e905f90a380546001600160a01b0319166001600160a01b0392909216919091179055565b5f5f80516020612c918339815191525b546001600160a01b0316919050565b6114668261086f565b61146f81611a90565b6108ab8383611b3e565b7fb9d69e0ca90be54a40811e436234a7f7908b87ff2bec27e64f878b166da8e8e56114a381611a90565b6127106114b08385612ae4565b146114ce5760405163108cef9d60e31b815260040160405180910390fd5b60038690556004859055600584905560068390556007829055604080518781526020810187905290810185905260608101849052608081018390527f3004c51189ca28b9e3d1bfbc25fad1a40a49c68f6586da5b733459686020498b9060a00160405180910390a1505050505050565b5f80516020612c7183398151915261155581611a90565b6001600160a01b0382165f9081526001602052604090205460ff1661158c576040516280923760e31b815260040160405180910390fd5b6001600160a01b0382165f908152600160209081526040808320805460ff19169055600290915281206115be91612313565b5f5b5f548110156116aa57826001600160a01b03165f82815481106115e5576115e5612834565b5f918252602090912001546001600160a01b0316036116a2575f805461160d90600190612b0f565b8154811061161d5761161d612834565b5f91825260208220015481546001600160a01b0390911691908390811061164657611646612834565b5f918252602082200180546001600160a01b0319166001600160a01b03939093169290921790915580548061167d5761167d612b22565b5f8281526020902081015f1990810180546001600160a01b03191690550190556116aa565b6001016115c0565b506040516001600160a01b038316907f59d7b1e52008dc342c9421dadfc773114b914a65682a4e4b53cf60a970df0d77905f90a25050565b60026020525f9081526040902080546116fa906128b0565b80601f0160208091040260200160405190810160405280929190818152602001828054611726906128b0565b80156117715780601f1061174857610100808354040283529160200191611771565b820191905f5260205f20905b81548152906001019060200180831161175457829003601f168201915b505050505081565b6117816122a9565b5f8290505f80826001600160a01b0316632c8ce6bc6040518163ffffffff1660e01b8152600401606060405180830381865afa1580156117c3573d5f803e3d5ffd5b505050506040513d601f19601f820116820180604052508101906117e79190612b36565b50915091505f805f856001600160a01b031663c3fb90d66040518163ffffffff1660e01b815260040160c060405180830381865afa15801561182b573d5f803e3d5ffd5b505050506040513d601f19601f8201168201806040525081019061184f9190612ba7565b5050509250925092505f866001600160a01b031663e184c9be6040518163ffffffff1660e01b8152600401602060405180830381865afa158015611895573d5f803e3d5ffd5b505050506040513d601f19601f820116820180604052508101906118b99190612ab9565b90505f4282116118c9575f6118d3565b6118d34283612b0f565b60405163a31426d160e01b81526001600160a01b038c16600482015261038460248201529091505f90739a9fa8338dd5e5b2188006f1cd2ef26d921650c29063a31426d190604401602060405180830381865afa158015611936573d5f803e3d5ffd5b505050506040513d601f19601f8201168201806040525081019061195a9190612ab9565b90505f670de0b6b3a7640000825f89600f0b1215611978575f611983565b886001600160801b03165b61198d9190612c24565b6119979190612c3b565b90505f8087600f0b12156119ab575f6119b6565b866001600160801b03165b6119c09083612ae4565b90505f6119d6876001600160601b031686611ffc565b90506040518061016001604052808f6001600160a01b031681526020018c6001600160a01b031681526020018b6001600160a01b031681526020018781526020018681526020015f8b600f0b1215611a2e575f611a39565b8a6001600160801b03165b81526020015f8a600f0b1215611a4f575f611a5a565b896001600160801b03165b815260208101939093526001600160601b03909716604083015260608201525f60809091015250929a9950505050505050505050565b611a9a813361204e565b50565b5f5f80516020612cd1833981519152611ab68484610e23565b611b35575f848152602082815260408083206001600160a01b03871684529091529020805460ff19166001179055611aeb3390565b6001600160a01b0316836001600160a01b0316857f2f8788117e7eff1d82e926ec794901d17c78024a50270940304540a733656f0d60405160405180910390a460019150506106f4565b5f9150506106f4565b5f5f80516020612cd1833981519152611b578484610e23565b15611b35575f848152602082815260408083206001600160a01b0387168085529252808320805460ff1916905551339287917ff6391f5c32d9c69d2a47ea670b442974b53935d1edc7fd64eb21e047a839171b9190a460019150506106f4565b5f807ff0c57e16840df040f15088dc2f81fe391c3923bec73e23a9662efc9c229c6a006106f4565b611be7612087565b565b6001600160a01b038116611c10576040516350c0eb2960e11b815260040160405180910390fd5b5f80516020612c9183398151915280546001600160a01b0319166001600160a01b03831690811782556040515f907fae97011a27b5efe7b1d76fe38e75cc498fd64cc24e407a9c6b2185d27f611f7e908290a35050565b306001600160a01b037f0000000000000000000000000000000000000000000000000000000000000000161480611cd757507f00000000000000000000000000000000000000000000000000000000000000006001600160a01b0316611ccb6120ac565b6001600160a01b031614155b15611be75760405163703e46dd60e11b815260040160405180910390fd5b5f80516020612c91833981519152546001600160a01b03163314611d2c57604051630e05f48560e11b815260040160405180910390fd5b6001600160a01b038116611a9a5760405162461bcd60e51b81526004016109c890612848565b816001600160a01b03166352d1902d6040518163ffffffff1660e01b8152600401602060405180830381865afa925050508015611dac575060408051601f3d908101601f19168201909252611da991810190612ab9565b60015b611dd457604051634c9c8ce360e01b81526001600160a01b03831660048201526024016109c8565b5f80516020612cb18339815191528114611e0457604051632a87526960e21b8152600481018290526024016109c8565b6108e483836120c0565b306001600160a01b037f00000000000000000000000000000000000000000000000000000000000000001614611be75760405163703e46dd60e11b815260040160405180910390fd5b80515f03611e625750565b5f805f5b8351811015611f055782848281518110611e8257611e82612834565b602002602001015160e001511115611eb557838181518110611ea657611ea6612834565b602002602001015160e0015192505b81848281518110611ec857611ec8612834565b602002602001015161012001511115611efd57838181518110611eed57611eed612834565b6020026020010151610120015191505b600101611e66565b505f5b83518110156108ab575f808411611f1f575f611f55565b83612710868481518110611f3557611f35612834565b602002602001015160e00151611f4b9190612c24565b611f559190612c3b565b90505f808411611f65575f611f9c565b83612710878581518110611f7b57611f7b612834565b60200260200101516101200151611f929190612c24565b611f9c9190612c3b565b905061271060075482611faf9190612c24565b600654611fbc9085612c24565b611fc69190612ae4565b611fd09190612c3b565b868481518110611fe257611fe2612834565b602090810291909101015161014001525050600101611f08565b5f815f0361200b57505f6106f4565b5f8261201b6301e1338086612c24565b6120259190612c3b565b9050670de0b6b3a764000061203c61271083612c24565b6120469190612c3b565b949350505050565b6120588282610e23565b610ac55760405163e2517d3f60e01b81526001600160a01b0382166004820152602481018390526044016109c8565b61208f612115565b611be757604051631afcd79f60e31b815260040160405180910390fd5b5f5f80516020612cb183398151915261144e565b6120c98261212e565b6040516001600160a01b038316907fbc7cd75a20ee27fd9adebab32041f755214dbc6bffa90cc0225b39da2e5c2d3b905f90a280511561210d576108e48282612191565b610ac5612203565b5f61211e611bb7565b54600160401b900460ff16919050565b806001600160a01b03163b5f0361216357604051634c9c8ce360e01b81526001600160a01b03821660048201526024016109c8565b5f80516020612cb183398151915280546001600160a01b0319166001600160a01b0392909216919091179055565b60605f80846001600160a01b0316846040516121ad9190612c5a565b5f60405180830381855af49150503d805f81146121e5576040519150601f19603f3d011682016040523d82523d5f602084013e6121ea565b606091505b50915091506121fa858383612222565b95945050505050565b3415611be75760405163b398979f60e01b815260040160405180910390fd5b6060826122375761223282612281565b61227a565b815115801561224e57506001600160a01b0384163b155b1561227757604051639996b31560e01b81526001600160a01b03851660048201526024016109c8565b50805b9392505050565b80511561229057805160208201fd5b60405163d6bda27560e01b815260040160405180910390fd5b6040518061016001604052805f6001600160a01b031681526020015f6001600160a01b031681526020015f6001600160a01b031681526020015f81526020015f81526020015f81526020015f81526020015f81526020015f81526020015f81526020015f81525090565b50805461231f906128b0565b5f825580601f1061232e575050565b601f0160209004905f5260205f2090810190611a9a91905b80821115612359575f8155600101612346565b5090565b5f6020828403121561236d575f80fd5b81356001600160e01b03198116811461227a575f80fd5b6001600160a01b0381168114611a9a575f80fd5b5f602082840312156123a8575f80fd5b813561227a81612384565b80516001600160a01b0316825260208101516123da60208401826001600160a01b03169052565b5060408101516123f560408401826001600160a01b03169052565b50606081015160608301526080810151608083015260a081015160a083015260c081015160c083015260e081015160e08301526101008101516101008301526101208101516101208301526101408101516101408301525050565b61016081016106f482846123b3565b602080825282518282018190525f918401906040840190835b8181101561249f5783516001600160a01b0316835260209384019390920191600101612478565b509095945050505050565b5f8083601f8401126124ba575f80fd5b5081356001600160401b038111156124d0575f80fd5b602083019150836020828501011115610841575f80fd5b5f80602083850312156124f8575f80fd5b82356001600160401b0381111561250d575f80fd5b612519858286016124aa565b90969095509350505050565b6001600160a01b0383168152610180810161227a60208301846123b3565b5f60208284031215612553575f80fd5b5035919050565b5f806040838503121561256b575f80fd5b82359150602083013561257d81612384565b809150509250929050565b5f8060408385031215612599575f80fd5b82356125a481612384565b9150602083013561257d81612384565b634e487b7160e01b5f52604160045260245ffd5b5f80604083850312156125d9575f80fd5b82356125e481612384565b915060208301356001600160401b038111156125fe575f80fd5b8301601f8101851361260e575f80fd5b80356001600160401b03811115612627576126276125b4565b604051601f8201601f19908116603f011681016001600160401b0381118282101715612655576126556125b4565b60405281815282820160200187101561266c575f80fd5b816020840160208301375f602083830101528093505050509250929050565b5f8083601f84011261269b575f80fd5b5081356001600160401b038111156126b1575f80fd5b6020830191508360208260051b8501011115610841575f80fd5b5f805f80604085870312156126de575f80fd5b84356001600160401b038111156126f3575f80fd5b6126ff8782880161268b565b90955093505060208501356001600160401b0381111561271d575f80fd5b6127298782880161268b565b95989497509550505050565b5f805f60408486031215612747575f80fd5b833561275281612384565b925060208401356001600160401b0381111561276c575f80fd5b612778868287016124aa565b9497909650939450505050565b602081525f82518060208401528060208501604085015e5f604082850101526040601f19601f83011684010191505092915050565b602080825282518282018190525f918401906040840190835b8181101561249f576127e68385516123b3565b6020939093019261016092909201916001016127d3565b5f805f805f60a08688031215612811575f80fd5b505083359560208501359550604085013594606081013594506080013592509050565b634e487b7160e01b5f52603260045260245ffd5b6020808252600c908201526b5a45524f5f4144445245535360a01b604082015260600190565b5f808335601e19843603018112612883575f80fd5b8301803591506001600160401b0382111561289c575f80fd5b602001915036819003821315610841575f80fd5b600181811c908216806128c457607f821691505b6020821081036128e257634e487b7160e01b5f52602260045260245ffd5b50919050565b601f8211156108e457805f5260205f20601f840160051c8101602085101561290d5750805b601f840160051c820191505b8181101561292c575f8155600101612919565b5050505050565b6001600160401b0383111561294a5761294a6125b4565b61295e8361295883546128b0565b836128e8565b5f601f84116001811461298f575f85156129785750838201355b5f19600387901b1c1916600186901b17835561292c565b5f83815260208120601f198716915b828110156129be578685013582556020948501946001909201910161299e565b50868210156129da575f1960f88860031b161c19848701351681555b505060018560011b0183555050505050565b60208152816020820152818360408301375f818301604090810191909152601f909201601f19160101919050565b818382375f9101908152919050565b5f808354612a36816128b0565b600182168015612a4d5760018114612a6257612a8f565b60ff1983168652811515820286019350612a8f565b865f5260205f205f5b83811015612a8757815488820152600190910190602001612a6b565b505081860193505b509195945050505050565b5f60208284031215612aaa575f80fd5b8151801515811461227a575f80fd5b5f60208284031215612ac9575f80fd5b5051919050565b634e487b7160e01b5f52601160045260245ffd5b808201808211156106f4576106f4612ad0565b5f60018201612b0857612b08612ad0565b5060010190565b818103818111156106f4576106f4612ad0565b634e487b7160e01b5f52603160045260245ffd5b5f805f60608486031215612b48575f80fd5b8351612b5381612384565b6020850151909350612b6481612384565b6040850151909250612b7581612384565b809150509250925092565b8051600f81900b8114612b91575f80fd5b919050565b805161ffff81168114612b91575f80fd5b5f805f805f8060c08789031215612bbc575f80fd5b612bc587612b80565b9550612bd360208801612b80565b945060408701516001600160601b0381168114612bee575f80fd5b9350612bfc60608801612b96565b9250612c0a60808801612b96565b9150612c1860a08801612b96565b90509295509295509295565b80820281158282048414176106f4576106f4612ad0565b5f82612c5557634e487b7160e01b5f52601260045260245ffd5b500490565b5f82518060208501845e5f92019182525091905056fe3fb0aaa9e8051cfc6c234a5d843bed33910f70c647055f27247c10144c7552e196ec2584f13cbcbf2926bb7c7d24b036ddd15a8842ae5726c96f4a4a3e97cc00360894a13ba1a3210667c828492db98dca3e2076cc3735a920a3ca505d382bbc02dd7bc7dec4dceedda775e58dd541e08a116c6c53815c0bd028192f7b626800a26469706673582212205f01f72cbdc4679b9721cd2c102f71ad8caee7e282d1afe4276f41074dd5773964736f6c634300081a0033","linkReferences":{}},"methodIdentifiers":{"BPS()":"249d39e9","DEFAULT_ADMIN_ROLE()":"a217fddf","MARKET_ADMIN_ROLE()":"d6f0d39f","MAX_WHITELISTED_MARKETS()":"4a1dbf3c","PARAMS_ADMIN_ROLE()":"b15d20da","PENDLE_ORACLE()":"9c977cf0","SECONDS_PER_YEAR()":"e6a69ab8","TWAP_DURATION()":"879ac8f8","UPGRADE_INTERFACE_VERSION()":"ad3cb1cc","apyWeight()":"f50f4b8f","getMarketInfo(address)":"0cf85bcc","getRoleAdmin(bytes32)":"248a9ca3","getValidMarkets(string)":"b016941c","getWhitelistedMarkets()":"12df8d06","grantRole(bytes32,address)":"2f2ff15d","hasRole(bytes32,address)":"91d14854","initialize(address,address)":"485cc955","isWhitelisted(address)":"3af32abf","marketCategory(address)":"e7651fe6","minApyBps()":"c4167dae","minTimeToExpiry()":"55931d33","minTvlUsd()":"6a74e7a4","proxiableUUID()":"52d1902d","removeMarket(address)":"db913236","renounceRole(bytes32,address)":"36568abe","revokeRole(bytes32,address)":"d547741f","selectBestMarket(string)":"136cc1c3","setParams(uint256,uint256,uint256,uint256,uint256)":"d828bb88","setTimelock(address)":"bdacb303","supportsInterface(bytes4)":"01ffc9a7","timelock()":"d33219b4","tvlWeight()":"0a72690d","upgradeToAndCall(address,bytes)":"4f1ef286","whitelistMarket(address,string)":"94389632","whitelistMarkets(address[],string[])":"7ba81537","whitelistedCount()":"b2a1de22","whitelistedMarkets(uint256)":"1f700658"},"id":10}