{"abi":[{"type":"function","name":"invalidReason","inputs":[],"outputs":[{"name":"","type":"string","internalType":"string"}],"stateMutability":"view"},{"type":"function","name":"parseAndVerifyVM","inputs":[{"name":"","type":"bytes","internalType":"bytes"}],"outputs":[{"name":"vm","type":"tuple","internalType":"struct MockWormhole.VM","components":[{"name":"version","type":"uint8","internalType":"uint8"},{"name":"timestamp","type":"uint32","internalType":"uint32"},{"name":"nonce","type":"uint32","internalType":"uint32"},{"name":"emitterChainId","type":"uint16","internalType":"uint16"},{"name":"emitterAddress","type":"bytes32","internalType":"bytes32"},{"name":"sequence","type":"uint64","internalType":"uint64"},{"name":"consistencyLevel","type":"uint8","internalType":"uint8"},{"name":"payload","type":"bytes","internalType":"bytes"},{"name":"guardianSetIndex","type":"uint32","internalType":"uint32"},{"name":"signatures","type":"bytes","internalType":"bytes"},{"name":"hash","type":"bytes32","internalType":"bytes32"}]},{"name":"valid","type":"bool","internalType":"bool"},{"name":"reason","type":"string","internalType":"string"}],"stateMutability":"view"},{"type":"function","name":"setInvalidReason","inputs":[{"name":"_reason","type":"string","internalType":"string"}],"outputs":[],"stateMutability":"nonpayable"},{"type":"function","name":"setMockVM","inputs":[{"name":"emitterChainId","type":"uint16","internalType":"uint16"},{"name":"emitterAddress","type":"bytes32","internalType":"bytes32"},{"name":"payload","type":"bytes","internalType":"bytes"},{"name":"hash","type":"bytes32","internalType":"bytes32"}],"outputs":[],"stateMutability":"nonpayable"},{"type":"function","name":"setShouldValidate","inputs":[{"name":"_shouldValidate","type":"bool","internalType":"bool"}],"outputs":[],"stateMutability":"nonpayable"},{"type":"function","name":"shouldValidate","inputs":[],"outputs":[{"name":"","type":"bool","internalType":"bool"}],"stateMutability":"view"}],"bytecode":{"object":"0x5f805460ff19166001908117825560a060405260809182529061002290826100cc565b5034801561002e575f80fd5b50610186565b634e487b7160e01b5f52604160045260245ffd5b600181811c9082168061005c57607f821691505b60208210810361007a57634e487b7160e01b5f52602260045260245ffd5b50919050565b601f8211156100c757805f5260205f20601f840160051c810160208510156100a55750805b601f840160051c820191505b818110156100c4575f81556001016100b1565b50505b505050565b81516001600160401b038111156100e5576100e5610034565b6100f9816100f38454610048565b84610080565b6020601f82116001811461012b575f83156101145750848201515b5f19600385901b1c1916600184901b1784556100c4565b5f84815260208120601f198516915b8281101561015a578785015182556020948501946001909201910161013a565b508482101561017757868401515f19600387901b60f8161c191681555b50505050600190811b01905550565b610a78806101935f395ff3fe608060405234801561000f575f80fd5b5060043610610060575f3560e01c80636873088f14610064578063b6b5277b14610082578063c0fd8bde1461009e578063c1b6963c146100c0578063f61f60c0146100d5578063fd5f9f41146100e8575b5f80fd5b61006c610108565b6040516100799190610601565b60405180910390f35b5f5461008e9060ff1681565b6040519015158152602001610079565b6100b16100ac36600461061a565b610194565b60405161007993929190610688565b6100d36100ce366004610821565b61044c565b005b6100d36100e336600461086e565b610465565b6100d36100f63660046108e4565b5f805460ff1916911515919091179055565b6001805461011590610903565b80601f016020809104026020016040519081016040528092919081815260200182805461014190610903565b801561018c5780601f106101635761010080835404028352916020019161018c565b820191905f5260205f20905b81548152906001019060200180831161016f57829003601f168201915b505050505081565b60408051610160810182525f8082526020820181905291810182905260608082018390526080820183905260a0820183905260c0820183905260e0820181905261010082018390526101208201526101408101919091525f805460408051610160810182526002805460ff818116845263ffffffff610100830481166020860152650100000000008304169484019490945261ffff600160481b90910416606083810191909152600354608084015260045467ffffffffffffffff811660a0850152600160401b9004841660c08401526005805491959294909216926001929091859160e084019161028590610903565b80601f01602080910402602001604051908101604052809291908181526020018280546102b190610903565b80156102fc5780601f106102d3576101008083540402835291602001916102fc565b820191905f5260205f20905b8154815290600101906020018083116102df57829003601f168201915b5050509183525050600482015463ffffffff16602082015260058201805460409092019161032990610903565b80601f016020809104026020016040519081016040528092919081815260200182805461035590610903565b80156103a05780601f10610377576101008083540402835291602001916103a0565b820191905f5260205f20905b81548152906001019060200180831161038357829003601f168201915b5050505050815260200160068201548152505092508080546103c190610903565b80601f01602080910402602001604051908101604052809291908181526020018280546103ed90610903565b80156104385780601f1061040f57610100808354040283529160200191610438565b820191905f5260205f20905b81548152906001019060200180831161041b57829003601f168201915b505050505090509250925092509250925092565b60016104588282610987565b50505f805460ff19169055565b6040805161016081018252600180825263ffffffff42811660208085019182525f85870181815261ffff808d1660608901908152608089018d815260a08a0189815260c08b01998a5260e08b018e8152610100808d018890528d51988901909d529587526101208b01969096526101408a018c9052895160028054985195519351909416600160481b026affff00000000000000000019938a166501000000000002939093166affffffffffff00000000001995909916909b0264ffffffffff1990971660ff9b8c1617969096179290921695909517178455915160035551600480549451909616600160401b0268ffffffffffffffffff1990941667ffffffffffffffff919091161792909217909355519091906005906105879082610987565b5061010082015160048201805463ffffffff191663ffffffff90921691909117905561012082015160058201906105be9082610987565b50610140820151816006015590505050505050565b5f81518084528060208401602086015e5f602082860101526020601f19601f83011685010191505092915050565b602081525f61061360208301846105d3565b9392505050565b5f806020838503121561062b575f80fd5b823567ffffffffffffffff811115610641575f80fd5b8301601f81018513610651575f80fd5b803567ffffffffffffffff811115610667575f80fd5b856020828401011115610678575f80fd5b6020919091019590945092505050565b6060815261069c60608201855160ff169052565b5f60208501516106b4608084018263ffffffff169052565b50604085015163ffffffff811660a084015250606085015161ffff811660c084015250608085015160e083015260a085015167ffffffffffffffff81166101008401525060c085015160ff81166101208401525060e08501516101606101408401526107246101c08401826105d3565b905061010086015161073f61016085018263ffffffff169052565b50610120860151838203605f190161018085015261075d82826105d3565b9150506101408601516101a084015261077a602084018615159052565b828103604084015261078c81856105d3565b9695505050505050565b634e487b7160e01b5f52604160045260245ffd5b5f8067ffffffffffffffff8411156107c4576107c4610796565b50604051601f19601f85018116603f0116810181811067ffffffffffffffff821117156107f3576107f3610796565b60405283815290508082840185101561080a575f80fd5b838360208301375f60208583010152509392505050565b5f60208284031215610831575f80fd5b813567ffffffffffffffff811115610847575f80fd5b8201601f81018413610857575f80fd5b610866848235602084016107aa565b949350505050565b5f805f8060808587031215610881575f80fd5b843561ffff81168114610892575f80fd5b935060208501359250604085013567ffffffffffffffff8111156108b4575f80fd5b8501601f810187136108c4575f80fd5b6108d3878235602084016107aa565b949793965093946060013593505050565b5f602082840312156108f4575f80fd5b81358015158114610613575f80fd5b600181811c9082168061091757607f821691505b60208210810361093557634e487b7160e01b5f52602260045260245ffd5b50919050565b601f82111561098257805f5260205f20601f840160051c810160208510156109605750805b601f840160051c820191505b8181101561097f575f815560010161096c565b50505b505050565b815167ffffffffffffffff8111156109a1576109a1610796565b6109b5816109af8454610903565b8461093b565b6020601f8211600181146109e7575f83156109d05750848201515b5f19600385901b1c1916600184901b17845561097f565b5f84815260208120601f198516915b82811015610a1657878501518255602094850194600190920191016109f6565b5084821015610a3357868401515f19600387901b60f8161c191681555b50505050600190811b0190555056fea26469706673582212207b1fe8bb620994feccd88a399e04bdb5f5c8076467170fd41ecdd34c56a8a73a64736f6c634300081a0033","linkReferences":{}},"methodIdentifiers":{"invalidReason()":"6873088f","parseAndVerifyVM(bytes)":"c0fd8bde","setInvalidReason(string)":"c1b6963c","setMockVM(uint16,bytes32,bytes,bytes32)":"f61f60c0","setShouldValidate(bool)":"fd5f9f41","shouldValidate()":"b6b5277b"},"id":57}