{"abi":[{"type":"constructor","inputs":[{"name":"_usdc","type":"address","internalType":"address"},{"name":"_usds","type":"address","internalType":"address"}],"stateMutability":"nonpayable"},{"type":"function","name":"SCALING","inputs":[],"outputs":[{"name":"","type":"uint256","internalType":"uint256"}],"stateMutability":"view"},{"type":"function","name":"buyGem","inputs":[{"name":"usr","type":"address","internalType":"address"},{"name":"gemAmt","type":"uint256","internalType":"uint256"}],"outputs":[],"stateMutability":"nonpayable"},{"type":"function","name":"sellGem","inputs":[{"name":"usr","type":"address","internalType":"address"},{"name":"gemAmt","type":"uint256","internalType":"uint256"}],"outputs":[],"stateMutability":"nonpayable"},{"type":"function","name":"setFees","inputs":[{"name":"_tin","type":"uint256","internalType":"uint256"},{"name":"_tout","type":"uint256","internalType":"uint256"}],"outputs":[],"stateMutability":"nonpayable"},{"type":"function","name":"tin","inputs":[],"outputs":[{"name":"","type":"uint256","internalType":"uint256"}],"stateMutability":"view"},{"type":"function","name":"tinFee","inputs":[],"outputs":[{"name":"","type":"uint256","internalType":"uint256"}],"stateMutability":"view"},{"type":"function","name":"tout","inputs":[],"outputs":[{"name":"","type":"uint256","internalType":"uint256"}],"stateMutability":"view"},{"type":"function","name":"toutFee","inputs":[],"outputs":[{"name":"","type":"uint256","internalType":"uint256"}],"stateMutability":"view"},{"type":"function","name":"usdc","inputs":[],"outputs":[{"name":"","type":"address","internalType":"contract IERC20"}],"stateMutability":"view"},{"type":"function","name":"usds","inputs":[],"outputs":[{"name":"","type":"address","internalType":"contract IERC20"}],"stateMutability":"view"},{"type":"error","name":"SafeERC20FailedOperation","inputs":[{"name":"token","type":"address","internalType":"address"}]}],"bytecode":{"object":"0x60c0604052348015600e575f80fd5b50604051610504380380610504833981016040819052602b91605b565b6001600160a01b039182166080521660a0526087565b80516001600160a01b03811681146056575f80fd5b919050565b5f8060408385031215606b575f80fd5b6072836041565b9150607e602084016041565b90509250929050565b60805160a0516104416100c35f395f8181610121015281816101a3015261025801525f818160e2015281816101d8015261021101526104415ff3fe608060405234801561000f575f80fd5b506004361061009b575f3560e01c8063568d4b6f11610063578063568d4b6f1461014357806361d815fc1461014a5780638d7ef9bb146101565780639599127614610169578063fae036d51461017c575f80fd5b80630b78f9c01461009f5780631fcf3bde146100b95780632a4e1f04146100d45780633e413bee146100dd5780634cf282fb1461011c575b5f80fd5b6100b76100ad36600461038d565b5f91909155600155565b005b6100c15f5481565b6040519081526020015b60405180910390f35b6100c160015481565b6101047f000000000000000000000000000000000000000000000000000000000000000081565b6040516001600160a01b0390911681526020016100cb565b6101047f000000000000000000000000000000000000000000000000000000000000000081565b5f546100c1565b6100c164e8d4a5100081565b6100b76101643660046103ad565b610184565b6100b76101773660046103ad565b610204565b6001546100c1565b5f61019464e8d4a51000836103e2565b90506101cb6001600160a01b037f00000000000000000000000000000000000000000000000000000000000000001633308461027f565b6101ff6001600160a01b037f00000000000000000000000000000000000000000000000000000000000000001684846102ec565b505050565b6102396001600160a01b037f00000000000000000000000000000000000000000000000000000000000000001633308461027f565b5f61024964e8d4a51000836103e2565b90506101ff6001600160a01b037f00000000000000000000000000000000000000000000000000000000000000001684836102ec565b6040516001600160a01b0384811660248301528381166044830152606482018390526102e69186918216906323b872dd906084015b604051602081830303815290604052915060e01b6020820180516001600160e01b03838183161783525050505061031d565b50505050565b6040516001600160a01b038381166024830152604482018390526101ff91859182169063a9059cbb906064016102b4565b5f8060205f8451602086015f885af18061033c576040513d5f823e3d81fd5b50505f513d91508115610353578060011415610360565b6001600160a01b0384163b155b156102e657604051635274afe760e01b81526001600160a01b038516600482015260240160405180910390fd5b5f806040838503121561039e575f80fd5b50508035926020909101359150565b5f80604083850312156103be575f80fd5b82356001600160a01b03811681146103d4575f80fd5b946020939093013593505050565b808202811582820484141761040557634e487b7160e01b5f52601160045260245ffd5b9291505056fea26469706673582212203c363973f468166637d83e329d3e7c2b2d991e5084a42334875b23817fd0341d64736f6c634300081a0033","linkReferences":{}},"methodIdentifiers":{"SCALING()":"61d815fc","buyGem(address,uint256)":"8d7ef9bb","sellGem(address,uint256)":"95991276","setFees(uint256,uint256)":"0b78f9c0","tin()":"568d4b6f","tinFee()":"1fcf3bde","tout()":"fae036d5","toutFee()":"2a4e1f04","usdc()":"3e413bee","usds()":"4cf282fb"},"id":54}