{"abi":[{"type":"constructor","inputs":[],"stateMutability":"nonpayable"},{"type":"function","name":"DEFAULT_ADMIN_ROLE","inputs":[],"outputs":[{"name":"","type":"bytes32","internalType":"bytes32"}],"stateMutability":"view"},{"type":"function","name":"ENGINE_ADMIN_ROLE","inputs":[],"outputs":[{"name":"","type":"bytes32","internalType":"bytes32"}],"stateMutability":"view"},{"type":"function","name":"MIN_LIQUIDATION_AMOUNT","inputs":[],"outputs":[{"name":"","type":"uint256","internalType":"uint256"}],"stateMutability":"view"},{"type":"function","name":"PAUSER_ROLE","inputs":[],"outputs":[{"name":"","type":"bytes32","internalType":"bytes32"}],"stateMutability":"view"},{"type":"function","name":"TIMELOCK_ROLE","inputs":[],"outputs":[{"name":"","type":"bytes32","internalType":"bytes32"}],"stateMutability":"view"},{"type":"function","name":"UPGRADE_INTERFACE_VERSION","inputs":[],"outputs":[{"name":"","type":"string","internalType":"string"}],"stateMutability":"view"},{"type":"function","name":"borrowModule","inputs":[],"outputs":[{"name":"","type":"address","internalType":"contract IBorrowModule"}],"stateMutability":"view"},{"type":"function","name":"closeFactorBps","inputs":[],"outputs":[{"name":"","type":"uint256","internalType":"uint256"}],"stateMutability":"view"},{"type":"function","name":"estimateSeize","inputs":[{"name":"borrower","type":"address","internalType":"address"},{"name":"collateralToken","type":"address","internalType":"address"},{"name":"debtToRepay","type":"uint256","internalType":"uint256"}],"outputs":[{"name":"collateralAmount","type":"uint256","internalType":"uint256"}],"stateMutability":"view"},{"type":"function","name":"fullLiquidationThreshold","inputs":[],"outputs":[{"name":"","type":"uint256","internalType":"uint256"}],"stateMutability":"view"},{"type":"function","name":"getRoleAdmin","inputs":[{"name":"role","type":"bytes32","internalType":"bytes32"}],"outputs":[{"name":"","type":"bytes32","internalType":"bytes32"}],"stateMutability":"view"},{"type":"function","name":"grantRole","inputs":[{"name":"role","type":"bytes32","internalType":"bytes32"},{"name":"account","type":"address","internalType":"address"}],"outputs":[],"stateMutability":"nonpayable"},{"type":"function","name":"hasRole","inputs":[{"name":"role","type":"bytes32","internalType":"bytes32"},{"name":"account","type":"address","internalType":"address"}],"outputs":[{"name":"","type":"bool","internalType":"bool"}],"stateMutability":"view"},{"type":"function","name":"initialize","inputs":[{"name":"_vault","type":"address","internalType":"address"},{"name":"_borrowModule","type":"address","internalType":"address"},{"name":"_oracle","type":"address","internalType":"address"},{"name":"_musd","type":"address","internalType":"address"},{"name":"_closeFactorBps","type":"uint256","internalType":"uint256"},{"name":"_timelockController","type":"address","internalType":"address"}],"outputs":[],"stateMutability":"nonpayable"},{"type":"function","name":"isLiquidatable","inputs":[{"name":"borrower","type":"address","internalType":"address"}],"outputs":[{"name":"","type":"bool","internalType":"bool"}],"stateMutability":"view"},{"type":"function","name":"liquidate","inputs":[{"name":"borrower","type":"address","internalType":"address"},{"name":"collateralToken","type":"address","internalType":"address"},{"name":"debtToRepay","type":"uint256","internalType":"uint256"}],"outputs":[],"stateMutability":"nonpayable"},{"type":"function","name":"musd","inputs":[],"outputs":[{"name":"","type":"address","internalType":"contract IMUSD"}],"stateMutability":"view"},{"type":"function","name":"oracle","inputs":[],"outputs":[{"name":"","type":"address","internalType":"contract IPriceOracle"}],"stateMutability":"view"},{"type":"function","name":"pause","inputs":[],"outputs":[],"stateMutability":"nonpayable"},{"type":"function","name":"paused","inputs":[],"outputs":[{"name":"","type":"bool","internalType":"bool"}],"stateMutability":"view"},{"type":"function","name":"proxiableUUID","inputs":[],"outputs":[{"name":"","type":"bytes32","internalType":"bytes32"}],"stateMutability":"view"},{"type":"function","name":"renounceRole","inputs":[{"name":"role","type":"bytes32","internalType":"bytes32"},{"name":"callerConfirmation","type":"address","internalType":"address"}],"outputs":[],"stateMutability":"nonpayable"},{"type":"function","name":"revokeRole","inputs":[{"name":"role","type":"bytes32","internalType":"bytes32"},{"name":"account","type":"address","internalType":"address"}],"outputs":[],"stateMutability":"nonpayable"},{"type":"function","name":"setCloseFactor","inputs":[{"name":"_bps","type":"uint256","internalType":"uint256"}],"outputs":[],"stateMutability":"nonpayable"},{"type":"function","name":"setFullLiquidationThreshold","inputs":[{"name":"_bps","type":"uint256","internalType":"uint256"}],"outputs":[],"stateMutability":"nonpayable"},{"type":"function","name":"supportsInterface","inputs":[{"name":"interfaceId","type":"bytes4","internalType":"bytes4"}],"outputs":[{"name":"","type":"bool","internalType":"bool"}],"stateMutability":"view"},{"type":"function","name":"unpause","inputs":[],"outputs":[],"stateMutability":"nonpayable"},{"type":"function","name":"upgradeToAndCall","inputs":[{"name":"newImplementation","type":"address","internalType":"address"},{"name":"data","type":"bytes","internalType":"bytes"}],"outputs":[],"stateMutability":"payable"},{"type":"function","name":"vault","inputs":[],"outputs":[{"name":"","type":"address","internalType":"contract ICollateralVault"}],"stateMutability":"view"},{"type":"event","name":"BadDebtDetected","inputs":[{"name":"borrower","type":"address","indexed":true,"internalType":"address"},{"name":"residualDebt","type":"uint256","indexed":false,"internalType":"uint256"},{"name":"debtRepaid","type":"uint256","indexed":false,"internalType":"uint256"},{"name":"collateralSeized","type":"uint256","indexed":false,"internalType":"uint256"}],"anonymous":false},{"type":"event","name":"CloseFactorUpdated","inputs":[{"name":"oldFactor","type":"uint256","indexed":false,"internalType":"uint256"},{"name":"newFactor","type":"uint256","indexed":false,"internalType":"uint256"}],"anonymous":false},{"type":"event","name":"FullLiquidationThresholdUpdated","inputs":[{"name":"oldThreshold","type":"uint256","indexed":false,"internalType":"uint256"},{"name":"newThreshold","type":"uint256","indexed":false,"internalType":"uint256"}],"anonymous":false},{"type":"event","name":"Initialized","inputs":[{"name":"version","type":"uint64","indexed":false,"internalType":"uint64"}],"anonymous":false},{"type":"event","name":"Liquidation","inputs":[{"name":"liquidator","type":"address","indexed":true,"internalType":"address"},{"name":"borrower","type":"address","indexed":true,"internalType":"address"},{"name":"collateralToken","type":"address","indexed":true,"internalType":"address"},{"name":"debtRepaid","type":"uint256","indexed":false,"internalType":"uint256"},{"name":"collateralSeized","type":"uint256","indexed":false,"internalType":"uint256"}],"anonymous":false},{"type":"event","name":"Paused","inputs":[{"name":"account","type":"address","indexed":false,"internalType":"address"}],"anonymous":false},{"type":"event","name":"RoleAdminChanged","inputs":[{"name":"role","type":"bytes32","indexed":true,"internalType":"bytes32"},{"name":"previousAdminRole","type":"bytes32","indexed":true,"internalType":"bytes32"},{"name":"newAdminRole","type":"bytes32","indexed":true,"internalType":"bytes32"}],"anonymous":false},{"type":"event","name":"RoleGranted","inputs":[{"name":"role","type":"bytes32","indexed":true,"internalType":"bytes32"},{"name":"account","type":"address","indexed":true,"internalType":"address"},{"name":"sender","type":"address","indexed":true,"internalType":"address"}],"anonymous":false},{"type":"event","name":"RoleRevoked","inputs":[{"name":"role","type":"bytes32","indexed":true,"internalType":"bytes32"},{"name":"account","type":"address","indexed":true,"internalType":"address"},{"name":"sender","type":"address","indexed":true,"internalType":"address"}],"anonymous":false},{"type":"event","name":"Unpaused","inputs":[{"name":"account","type":"address","indexed":false,"internalType":"address"}],"anonymous":false},{"type":"event","name":"Upgraded","inputs":[{"name":"implementation","type":"address","indexed":true,"internalType":"address"}],"anonymous":false},{"type":"error","name":"AccessControlBadConfirmation","inputs":[]},{"type":"error","name":"AccessControlUnauthorizedAccount","inputs":[{"name":"account","type":"address","internalType":"address"},{"name":"neededRole","type":"bytes32","internalType":"bytes32"}]},{"type":"error","name":"AddressEmptyCode","inputs":[{"name":"target","type":"address","internalType":"address"}]},{"type":"error","name":"ERC1967InvalidImplementation","inputs":[{"name":"implementation","type":"address","internalType":"address"}]},{"type":"error","name":"ERC1967NonPayable","inputs":[]},{"type":"error","name":"EnforcedPause","inputs":[]},{"type":"error","name":"ExpectedPause","inputs":[]},{"type":"error","name":"FailedCall","inputs":[]},{"type":"error","name":"InvalidInitialization","inputs":[]},{"type":"error","name":"NotInitializing","inputs":[]},{"type":"error","name":"ReentrancyGuardReentrantCall","inputs":[]},{"type":"error","name":"SafeERC20FailedOperation","inputs":[{"name":"token","type":"address","internalType":"address"}]},{"type":"error","name":"UUPSUnauthorizedCallContext","inputs":[]},{"type":"error","name":"UUPSUnsupportedProxiableUUID","inputs":[{"name":"slot","type":"bytes32","internalType":"bytes32"}]}],"bytecode":{"object":"0x60a060405230608052348015610013575f80fd5b5061001c610021565b6100d3565b7ff0c57e16840df040f15088dc2f81fe391c3923bec73e23a9662efc9c229c6a00805468010000000000000000900460ff16156100715760405163f92ee8a960e01b815260040160405180910390fd5b80546001600160401b03908116146100d05780546001600160401b0319166001600160401b0390811782556040519081527fc7f505b2f371ae2175ee4913f4499e1f2633a7b5936321eed1cdaeb6115181d29060200160405180910390a15b50565b60805161264e6100f95f395f8181611b6201528181611b8b0152611cd9015261264e5ff3fe6080604052600436106101ba575f3560e01c806353c425c1116100f2578063ad3cb1cc11610092578063e63ab1e911610062578063e63ab1e9146104f2578063f288a2e214610525578063fbfa77cf14610545578063fcc2602a14610563575f80fd5b8063ad3cb1cc14610458578063b564e1ba14610495578063cab666d0146104b4578063d547741f146104d3575f80fd5b80637dc0d1d0116100cd5780637dc0d1d0146103f35780638456cb591461041257806391d1485414610426578063a217fddf14610445575f80fd5b806353c425c11461039257806359aefc9e146103b15780635c975abb146103d0575f80fd5b80632f2ff15d1161015d5780633f4ba83a116101385780633f4ba83a146103425780634654440b146103565780634f1ef2861461036b57806352d1902d1461037e575f80fd5b80632f2ff15d146102e857806336568abe146103075780633957b2e614610326575f80fd5b8063248a9ca311610198578063248a9ca31461023257806325384fd81461025f57806326c013031461029657806328e58601146102b5575f80fd5b806301ffc9a7146101be578063042e02cf146101f257806312348e9614610211575b5f80fd5b3480156101c9575f80fd5b506101dd6101d8366004612086565b610578565b60405190151581526020015b60405180910390f35b3480156101fd575f80fd5b506101dd61020c3660046120c1565b6105ae565b34801561021c575f80fd5b5061023061022b3660046120dc565b6106a4565b005b34801561023d575f80fd5b5061025161024c3660046120dc565b61075b565b6040519081526020016101e9565b34801561026a575f80fd5b5060015461027e906001600160a01b031681565b6040516001600160a01b0390911681526020016101e9565b3480156102a1575f80fd5b506102306102b03660046120f3565b61077b565b3480156102c0575f80fd5b506102517f63969a580f710a0b87a9a89ed03da3ab3878a3f881ea24ec39d5e06a54f156e581565b3480156102f3575f80fd5b50610230610302366004612131565b610f0d565b348015610312575f80fd5b50610230610321366004612131565b610f2f565b348015610331575f80fd5b5061025168056bc75e2d6310000081565b34801561034d575f80fd5b50610230610f62565b348015610361575f80fd5b5061025160045481565b6102306103793660046121a4565b610f77565b348015610389575f80fd5b50610251610f96565b34801561039d575f80fd5b506102306103ac36600461224b565b610fb1565b3480156103bc575f80fd5b506102306103cb3660046120dc565b611321565b3480156103db575f80fd5b505f805160206125f98339815191525460ff166101dd565b3480156103fe575f80fd5b5060025461027e906001600160a01b031681565b34801561041d575f80fd5b506102306113c7565b348015610431575f80fd5b506101dd610440366004612131565b6113f9565b348015610450575f80fd5b506102515f81565b348015610463575f80fd5b50610488604051806040016040528060058152602001640352e302e360dc1b81525081565b6040516101e991906122c0565b3480156104a0575f80fd5b506102516104af3660046120f3565b61142f565b3480156104bf575f80fd5b5060035461027e906001600160a01b031681565b3480156104de575f80fd5b506102306104ed366004612131565b611656565b3480156104fd575f80fd5b506102517f65d7a28e3265b37a6474929f336521b332c1681b933f6cb9f3376673440d862a81565b348015610530575f80fd5b506102515f8051602061259983398151915281565b348015610550575f80fd5b505f5461027e906001600160a01b031681565b34801561056e575f80fd5b5061025160055481565b5f6001600160e01b03198216637965db0b60e01b14806105a857506301ffc9a760e01b6001600160e01b03198316145b92915050565b600154604051631ff517ff60e01b81526001600160a01b0383811660048301525f928392911690631ff517ff90602401602060405180830381865afa1580156105f9573d5f803e3d5ffd5b505050506040513d601f19601f8201168201806040525081019061061d91906122f5565b9050805f0361062e57505f92915050565b600154604051634474a77b60e11b81526001600160a01b0385811660048301526127109216906388e94ef690602401602060405180830381865afa158015610678573d5f803e3d5ffd5b505050506040513d601f19601f8201168201806040525081019061069c91906122f5565b109392505050565b5f805160206125998339815191526106bb81611672565b5f821180156106cc57506127108211155b6107145760405162461bcd60e51b815260206004820152601460248201527324a72b20a624a22fa1a627a9a2afa320a1aa27a960611b60448201526064015b60405180910390fd5b600480549083905560408051828152602081018590527f9513087cf6a295ac6bc4dd929e6d065efed0b89b0def991a2d20701415243ecc91015b60405180910390a1505050565b5f9081525f805160206125d9833981519152602052604090206001015490565b61078361167c565b61078b6116c6565b336001600160a01b038416036107db5760405162461bcd60e51b815260206004820152601560248201527443414e4e4f545f53454c465f4c495155494441544560581b604482015260640161070b565b5f811161081b5760405162461bcd60e51b815260206004820152600e60248201526d1253959053125117d05353d5539560921b604482015260640161070b565b68056bc75e2d631000008110156108675760405162461bcd60e51b815260206004820152601060248201526f222aa9aa2fa624a8aaa4a220aa24a7a760811b604482015260640161070b565b600154604051634474a77b60e11b81526001600160a01b0385811660048301525f9216906388e94ef690602401602060405180830381865afa1580156108af573d5f803e3d5ffd5b505050506040513d601f19601f820116820180604052508101906108d391906122f5565b905061271081106109195760405162461bcd60e51b815260206004820152601060248201526f504f534954494f4e5f4845414c54485960801b604482015260640161070b565b600154604051631ff517ff60e01b81526001600160a01b0386811660048301525f921690631ff517ff90602401602060405180830381865afa158015610961573d5f803e3d5ffd5b505050506040513d601f19601f8201168201806040525081019061098591906122f5565b90505f6005548310156109995750806109b7565b612710600454836109aa9190612320565b6109b49190612337565b90505b5f8185116109c557846109c7565b815b5f805460405163e48a5f7b60e01b81526001600160a01b038a811660048301529394509192169063e48a5f7b90602401608060405180830381865afa158015610a12573d5f803e3d5ffd5b505050506040513d601f19601f82011682018060405250810190610a369190612356565b60025460405163f989568d60e01b81526001600160a01b038d811660048301529296505f95509116925063f989568d9150602401602060405180830381865afa158015610a85573d5f803e3d5ffd5b505050506040513d601f19601f82011682018060405250810190610aa991906122f5565b90505f8111610aea5760405162461bcd60e51b815260206004820152600d60248201526c494e56414c49445f505249434560981b604482015260640161070b565b5f886001600160a01b031663313ce5676040518163ffffffff1660e01b8152600401602060405180830381865afa158015610b27573d5f803e3d5ffd5b505050506040513d601f19601f82011682018060405250810190610b4b9190612396565b90505f610b5a83612710612320565b610b6583600a612499565b610b71866127106124a7565b610b7b9088612320565b610b859190612320565b610b8f9190612337565b5f80546040516347b00fb360e11b81526001600160a01b038f811660048301528e8116602483015293945091921690638f601f6690604401602060405180830381865afa158015610be2573d5f803e3d5ffd5b505050506040513d601f19601f82011682018060405250810190610c0691906122f5565b905080821115610cb057600254604051637206c22b60e01b81526001600160a01b038d811660048301526024820184905292935083925f921690637206c22b90604401602060405180830381865afa158015610c64573d5f803e3d5ffd5b505050506040513d601f19601f82011682018060405250810190610c8891906122f5565b9050610c96866127106124a7565b610ca282612710612320565b610cac9190612337565b9650505b5f8211610cf25760405162461bcd60e51b815260206004820152601060248201526f4e4f5448494e475f544f5f5345495a4560801b604482015260640161070b565b600354610d0a906001600160a01b03163330896116f8565b600354604051632770a7eb60e21b8152306004820152602481018890526001600160a01b0390911690639dc29fac906044015f604051808303815f87803b158015610d53575f80fd5b505af1158015610d65573d5f803e3d5ffd5b50505f54604051631461023960e31b81526001600160a01b03909116925063a30811c89150610dc4908f908f90879033906004016001600160a01b03948516815292841660208401526040830191909152909116606082015260800190565b5f604051808303815f87803b158015610ddb575f80fd5b505af1158015610ded573d5f803e3d5ffd5b505060015460405163807d3f1d60e01b81526001600160a01b03909116925063807d3f1d9150610e37908f908a906004016001600160a01b03929092168252602082015260400190565b5f604051808303815f87803b158015610e4e575f80fd5b505af1158015610e60573d5f803e3d5ffd5b505050508a6001600160a01b03168c6001600160a01b0316336001600160a01b03167fd58706648644be277f6999c826f65f98128c29c6846a892b929a304a7f19e3eb8986604051610ebc929190918252602082015260400190565b60405180910390a4808203610ed657610ed68c8784611752565b505050505050505050610f0860017f9b779b17422d0df92223018b32b4d1fa46e071723d6817e2486d003becc55f0055565b505050565b610f168261075b565b610f1f81611672565b610f2983836119de565b50505050565b6001600160a01b0381163314610f585760405163334bd91960e11b815260040160405180910390fd5b610f088282611a7f565b5f610f6c81611672565b610f74611af8565b50565b610f7f611b57565b610f8882611bfb565b610f928282611c12565b5050565b5f610f9f611cce565b505f805160206125b983398151915290565b5f610fba611d17565b805490915060ff600160401b820416159067ffffffffffffffff165f81158015610fe15750825b90505f8267ffffffffffffffff166001148015610ffd5750303b155b90508115801561100b575080155b156110295760405163f92ee8a960e01b815260040160405180910390fd5b845467ffffffffffffffff19166001178555831561105357845460ff60401b1916600160401b1785555b6001600160a01b038b166110995760405162461bcd60e51b815260206004820152600d60248201526c1253959053125117d590555315609a1b604482015260640161070b565b6001600160a01b038a166110e75760405162461bcd60e51b8152602060048201526015602482015274494e56414c49445f424f52524f575f4d4f44554c4560581b604482015260640161070b565b6001600160a01b03891661112e5760405162461bcd60e51b815260206004820152600e60248201526d494e56414c49445f4f5241434c4560901b604482015260640161070b565b6001600160a01b0388166111735760405162461bcd60e51b815260206004820152600c60248201526b1253959053125117d35554d160a21b604482015260640161070b565b5f8711801561118457506127108711155b6111c75760405162461bcd60e51b815260206004820152601460248201527324a72b20a624a22fa1a627a9a2afa320a1aa27a960611b604482015260640161070b565b6001600160a01b0386166112105760405162461bcd60e51b815260206004820152601060248201526f494e56414c49445f54494d454c4f434b60801b604482015260640161070b565b611218611d3f565b611220611d47565b611228611d3f565b611230611d3f565b5f80546001600160a01b03808e166001600160a01b0319928316178355600180548e8316908416179055600280548d831690841617905560038054918c1691909216179055600488905561138860055561128a90336119de565b506112b57f63969a580f710a0b87a9a89ed03da3ab3878a3f881ea24ec39d5e06a54f156e5336119de565b506112cd5f80516020612599833981519152876119de565b50831561131457845460ff60401b19168555604051600181527fc7f505b2f371ae2175ee4913f4499e1f2633a7b5936321eed1cdaeb6115181d29060200160405180910390a15b5050505050505050505050565b5f8051602061259983398151915261133881611672565b5f8211801561134957506127108211155b6113895760405162461bcd60e51b81526020600482015260116024820152701253959053125117d512149154d213d311607a1b604482015260640161070b565b600580549083905560408051828152602081018590527fd4512c8fc0416d1af5dcff0a86560e415c67211fe021027b22b4c2ec07d08b14910161074e565b7f65d7a28e3265b37a6474929f336521b332c1681b933f6cb9f3376673440d862a6113f181611672565b610f74611d57565b5f9182525f805160206125d9833981519152602090815260408084206001600160a01b0393909316845291905290205460ff1690565b5f805460405163e48a5f7b60e01b81526001600160a01b0385811660048301528392169063e48a5f7b90602401608060405180830381865afa158015611477573d5f803e3d5ffd5b505050506040513d601f19601f8201168201806040525081019061149b9190612356565b60025460405163f989568d60e01b81526001600160a01b038a811660048301529296505f95509116925063f989568d9150602401602060405180830381865afa1580156114ea573d5f803e3d5ffd5b505050506040513d601f19601f8201168201806040525081019061150e91906122f5565b9050805f03611521575f9250505061164f565b5f856001600160a01b031663313ce5676040518163ffffffff1660e01b8152600401602060405180830381865afa15801561155e573d5f803e3d5ffd5b505050506040513d601f19601f820116820180604052508101906115829190612396565b905061159082612710612320565b61159b82600a612499565b6115a7856127106124a7565b6115b19088612320565b6115bb9190612320565b6115c59190612337565b5f80546040516347b00fb360e11b81526001600160a01b038b811660048301528a8116602483015293975091921690638f601f6690604401602060405180830381865afa158015611618573d5f803e3d5ffd5b505050506040513d601f19601f8201168201806040525081019061163c91906122f5565b90508085111561164a578094505b505050505b9392505050565b61165f8261075b565b61166881611672565b610f298383611a7f565b610f748133611d9f565b7f9b779b17422d0df92223018b32b4d1fa46e071723d6817e2486d003becc55f008054600119016116c057604051633ee5aeb560e01b815260040160405180910390fd5b60029055565b5f805160206125f98339815191525460ff16156116f65760405163d93c066560e01b815260040160405180910390fd5b565b604080516001600160a01b0385811660248301528416604482015260648082018490528251808303909101815260849091019091526020810180516001600160e01b03166323b872dd60e01b179052610f29908590611dd8565b600154604051631ff517ff60e01b81526001600160a01b0385811660048301525f921690631ff517ff90602401602060405180830381865afa15801561179a573d5f803e3d5ffd5b505050506040513d601f19601f820116820180604052508101906117be91906122f5565b9050805f036117cd5750505050565b5f805f9054906101000a90046001600160a01b03166001600160a01b031663d3c7c2c76040518163ffffffff1660e01b81526004015f60405180830381865afa15801561181c573d5f803e3d5ffd5b505050506040513d5f823e601f3d908101601f1916820160405261184391908101906124ba565b90505f5b815181101561190a575f805483516001600160a01b0390911690638f601f6690899086908690811061187b5761187b61256e565b60200260200101516040518363ffffffff1660e01b81526004016118b59291906001600160a01b0392831681529116602082015260400190565b602060405180830381865afa1580156118d0573d5f803e3d5ffd5b505050506040513d601f19601f820116820180604052508101906118f491906122f5565b111561190257505050505050565b600101611847565b5060408051838152602081018690529081018490526001600160a01b038616907f7a3801d8b8e541abc95a3a8dd65329e6c81a31c5289ca299eca17315505fd0f29060600160405180910390a260015460405163122b3c7160e01b81526001600160a01b0387811660048301529091169063122b3c71906024015f604051808303815f87803b15801561199b575f80fd5b505af11580156119ad573d5f803e3d5ffd5b505050505050505050565b60017f9b779b17422d0df92223018b32b4d1fa46e071723d6817e2486d003becc55f0055565b5f5f805160206125d98339815191526119f784846113f9565b611a76575f848152602082815260408083206001600160a01b03871684529091529020805460ff19166001179055611a2c3390565b6001600160a01b0316836001600160a01b0316857f2f8788117e7eff1d82e926ec794901d17c78024a50270940304540a733656f0d60405160405180910390a460019150506105a8565b5f9150506105a8565b5f5f805160206125d9833981519152611a9884846113f9565b15611a76575f848152602082815260408083206001600160a01b0387168085529252808320805460ff1916905551339287917ff6391f5c32d9c69d2a47ea670b442974b53935d1edc7fd64eb21e047a839171b9190a460019150506105a8565b611b00611e44565b5f805160206125f9833981519152805460ff191681557f5db9ee0a495bf2e6ff9c91a7834c1ba4fdd244a5e8aa4e537bd38aeae4b073aa335b6040516001600160a01b03909116815260200160405180910390a150565b306001600160a01b037f0000000000000000000000000000000000000000000000000000000000000000161480611bdd57507f00000000000000000000000000000000000000000000000000000000000000006001600160a01b0316611bd15f805160206125b9833981519152546001600160a01b031690565b6001600160a01b031614155b156116f65760405163703e46dd60e11b815260040160405180910390fd5b5f80516020612599833981519152610f9281611672565b816001600160a01b03166352d1902d6040518163ffffffff1660e01b8152600401602060405180830381865afa925050508015611c6c575060408051601f3d908101601f19168201909252611c69918101906122f5565b60015b611c9457604051634c9c8ce360e01b81526001600160a01b038316600482015260240161070b565b5f805160206125b98339815191528114611cc457604051632a87526960e21b81526004810182905260240161070b565b610f088383611e73565b306001600160a01b037f000000000000000000000000000000000000000000000000000000000000000016146116f65760405163703e46dd60e11b815260040160405180910390fd5b5f807ff0c57e16840df040f15088dc2f81fe391c3923bec73e23a9662efc9c229c6a006105a8565b6116f6611ec8565b611d4f611ec8565b6116f6611eed565b611d5f6116c6565b5f805160206125f9833981519152805460ff191660011781557f62e78cea01bee320cd4e420270b5ea74000d11b0c9f74754ebdbfc544b05a25833611b39565b611da982826113f9565b610f925760405163e2517d3f60e01b81526001600160a01b03821660048201526024810183905260440161070b565b5f8060205f8451602086015f885af180611df7576040513d5f823e3d81fd5b50505f513d91508115611e0e578060011415611e1b565b6001600160a01b0384163b155b15610f2957604051635274afe760e01b81526001600160a01b038516600482015260240161070b565b5f805160206125f98339815191525460ff166116f657604051638dfc202b60e01b815260040160405180910390fd5b611e7c82611ef5565b6040516001600160a01b038316907fbc7cd75a20ee27fd9adebab32041f755214dbc6bffa90cc0225b39da2e5c2d3b905f90a2805115611ec057610f088282611f58565b610f92611fca565b611ed0611fe9565b6116f657604051631afcd79f60e31b815260040160405180910390fd5b6119b8611ec8565b806001600160a01b03163b5f03611f2a57604051634c9c8ce360e01b81526001600160a01b038216600482015260240161070b565b5f805160206125b983398151915280546001600160a01b0319166001600160a01b0392909216919091179055565b60605f80846001600160a01b031684604051611f749190612582565b5f60405180830381855af49150503d805f8114611fac576040519150601f19603f3d011682016040523d82523d5f602084013e611fb1565b606091505b5091509150611fc1858383612002565b95945050505050565b34156116f65760405163b398979f60e01b815260040160405180910390fd5b5f611ff2611d17565b54600160401b900460ff16919050565b606082612017576120128261205e565b61164f565b815115801561202e57506001600160a01b0384163b155b1561205757604051639996b31560e01b81526001600160a01b038516600482015260240161070b565b508061164f565b80511561206d57805160208201fd5b60405163d6bda27560e01b815260040160405180910390fd5b5f60208284031215612096575f80fd5b81356001600160e01b03198116811461164f575f80fd5b6001600160a01b0381168114610f74575f80fd5b5f602082840312156120d1575f80fd5b813561164f816120ad565b5f602082840312156120ec575f80fd5b5035919050565b5f805f60608486031215612105575f80fd5b8335612110816120ad565b92506020840135612120816120ad565b929592945050506040919091013590565b5f8060408385031215612142575f80fd5b823591506020830135612154816120ad565b809150509250929050565b634e487b7160e01b5f52604160045260245ffd5b604051601f8201601f1916810167ffffffffffffffff8111828210171561219c5761219c61215f565b604052919050565b5f80604083850312156121b5575f80fd5b82356121c0816120ad565b9150602083013567ffffffffffffffff8111156121db575f80fd5b8301601f810185136121eb575f80fd5b803567ffffffffffffffff8111156122055761220561215f565b612218601f8201601f1916602001612173565b81815286602083850101111561222c575f80fd5b816020840160208301375f602083830101528093505050509250929050565b5f805f805f8060c08789031215612260575f80fd5b863561226b816120ad565b9550602087013561227b816120ad565b9450604087013561228b816120ad565b9350606087013561229b816120ad565b92506080870135915060a08701356122b2816120ad565b809150509295509295509295565b602081525f82518060208401528060208501604085015e5f604082850101526040601f19601f83011684010191505092915050565b5f60208284031215612305575f80fd5b5051919050565b634e487b7160e01b5f52601160045260245ffd5b80820281158282048414176105a8576105a861230c565b5f8261235157634e487b7160e01b5f52601260045260245ffd5b500490565b5f805f8060808587031215612369575f80fd5b84518015158114612378575f80fd5b60208601516040870151606090970151919890975090945092505050565b5f602082840312156123a6575f80fd5b815160ff8116811461164f575f80fd5b6001815b60018411156123f1578085048111156123d5576123d561230c565b60018416156123e357908102905b60019390931c9280026123ba565b935093915050565b5f82612407575060016105a8565b8161241357505f6105a8565b816001811461242957600281146124335761244f565b60019150506105a8565b60ff8411156124445761244461230c565b50506001821b6105a8565b5060208310610133831016604e8410600b8410161715612472575081810a6105a8565b61247e5f1984846123b6565b805f19048211156124915761249161230c565b029392505050565b5f61164f60ff8416836123f9565b808201808211156105a8576105a861230c565b5f602082840312156124ca575f80fd5b815167ffffffffffffffff8111156124e0575f80fd5b8201601f810184136124f0575f80fd5b805167ffffffffffffffff81111561250a5761250a61215f565b8060051b61251a60208201612173565b91825260208184018101929081019087841115612535575f80fd5b6020850194505b838510156125635784519250612551836120ad565b8282526020948501949091019061253c565b979650505050505050565b634e487b7160e01b5f52603260045260245ffd5b5f82518060208501845e5f92019182525091905056fef66846415d2bf9eabda9e84793ff9c0ea96d87f50fc41e66aa16469c6a442f05360894a13ba1a3210667c828492db98dca3e2076cc3735a920a3ca505d382bbc02dd7bc7dec4dceedda775e58dd541e08a116c6c53815c0bd028192f7b626800cd5ed15c6e187e77e9aee88184c21f4f2182ab5827cb3b7e07fbedcd63f03300a2646970667358221220d9f3bbd46ce29bcde43ed3a6d2f9260424ea03ee2eed479a92c35b012f9525a464736f6c634300081a0033","linkReferences":{}},"methodIdentifiers":{"DEFAULT_ADMIN_ROLE()":"a217fddf","ENGINE_ADMIN_ROLE()":"28e58601","MIN_LIQUIDATION_AMOUNT()":"3957b2e6","PAUSER_ROLE()":"e63ab1e9","TIMELOCK_ROLE()":"f288a2e2","UPGRADE_INTERFACE_VERSION()":"ad3cb1cc","borrowModule()":"25384fd8","closeFactorBps()":"4654440b","estimateSeize(address,address,uint256)":"b564e1ba","fullLiquidationThreshold()":"fcc2602a","getRoleAdmin(bytes32)":"248a9ca3","grantRole(bytes32,address)":"2f2ff15d","hasRole(bytes32,address)":"91d14854","initialize(address,address,address,address,uint256,address)":"53c425c1","isLiquidatable(address)":"042e02cf","liquidate(address,address,uint256)":"26c01303","musd()":"cab666d0","oracle()":"7dc0d1d0","pause()":"8456cb59","paused()":"5c975abb","proxiableUUID()":"52d1902d","renounceRole(bytes32,address)":"36568abe","revokeRole(bytes32,address)":"d547741f","setCloseFactor(uint256)":"12348e96","setFullLiquidationThreshold(uint256)":"59aefc9e","supportsInterface(bytes4)":"01ffc9a7","unpause()":"3f4ba83a","upgradeToAndCall(address,bytes)":"4f1ef286","vault()":"fbfa77cf"},"id":66}