{"abi":[{"type":"constructor","inputs":[],"stateMutability":"nonpayable"},{"type":"function","name":"DEFAULT_ADMIN_ROLE","inputs":[],"outputs":[{"name":"","type":"bytes32","internalType":"bytes32"}],"stateMutability":"view"},{"type":"function","name":"ENGINE_ADMIN_ROLE","inputs":[],"outputs":[{"name":"","type":"bytes32","internalType":"bytes32"}],"stateMutability":"view"},{"type":"function","name":"MIN_LIQUIDATION_AMOUNT","inputs":[],"outputs":[{"name":"","type":"uint256","internalType":"uint256"}],"stateMutability":"view"},{"type":"function","name":"PAUSER_ROLE","inputs":[],"outputs":[{"name":"","type":"bytes32","internalType":"bytes32"}],"stateMutability":"view"},{"type":"function","name":"TIMELOCK_ROLE","inputs":[],"outputs":[{"name":"","type":"bytes32","internalType":"bytes32"}],"stateMutability":"view"},{"type":"function","name":"UPGRADE_INTERFACE_VERSION","inputs":[],"outputs":[{"name":"","type":"string","internalType":"string"}],"stateMutability":"view"},{"type":"function","name":"borrowModule","inputs":[],"outputs":[{"name":"","type":"address","internalType":"contract IBorrowModule"}],"stateMutability":"view"},{"type":"function","name":"closeFactorBps","inputs":[],"outputs":[{"name":"","type":"uint256","internalType":"uint256"}],"stateMutability":"view"},{"type":"function","name":"fullLiquidationThreshold","inputs":[],"outputs":[{"name":"","type":"uint256","internalType":"uint256"}],"stateMutability":"view"},{"type":"function","name":"getRoleAdmin","inputs":[{"name":"role","type":"bytes32","internalType":"bytes32"}],"outputs":[{"name":"","type":"bytes32","internalType":"bytes32"}],"stateMutability":"view"},{"type":"function","name":"grantRole","inputs":[{"name":"role","type":"bytes32","internalType":"bytes32"},{"name":"account","type":"address","internalType":"address"}],"outputs":[],"stateMutability":"nonpayable"},{"type":"function","name":"hasRole","inputs":[{"name":"role","type":"bytes32","internalType":"bytes32"},{"name":"account","type":"address","internalType":"address"}],"outputs":[{"name":"","type":"bool","internalType":"bool"}],"stateMutability":"view"},{"type":"function","name":"initialize","inputs":[{"name":"_vault","type":"address","internalType":"address"},{"name":"_borrowModule","type":"address","internalType":"address"},{"name":"_oracle","type":"address","internalType":"address"},{"name":"_musd","type":"address","internalType":"address"},{"name":"_closeFactorBps","type":"uint256","internalType":"uint256"},{"name":"_timelockController","type":"address","internalType":"address"}],"outputs":[],"stateMutability":"nonpayable"},{"type":"function","name":"musd","inputs":[],"outputs":[{"name":"","type":"address","internalType":"contract IMUSD"}],"stateMutability":"view"},{"type":"function","name":"oracle","inputs":[],"outputs":[{"name":"","type":"address","internalType":"contract IPriceOracle"}],"stateMutability":"view"},{"type":"function","name":"pause","inputs":[],"outputs":[],"stateMutability":"nonpayable"},{"type":"function","name":"paused","inputs":[],"outputs":[{"name":"","type":"bool","internalType":"bool"}],"stateMutability":"view"},{"type":"function","name":"proxiableUUID","inputs":[],"outputs":[{"name":"","type":"bytes32","internalType":"bytes32"}],"stateMutability":"view"},{"type":"function","name":"renounceRole","inputs":[{"name":"role","type":"bytes32","internalType":"bytes32"},{"name":"callerConfirmation","type":"address","internalType":"address"}],"outputs":[],"stateMutability":"nonpayable"},{"type":"function","name":"revokeRole","inputs":[{"name":"role","type":"bytes32","internalType":"bytes32"},{"name":"account","type":"address","internalType":"address"}],"outputs":[],"stateMutability":"nonpayable"},{"type":"function","name":"setCloseFactor","inputs":[{"name":"_bps","type":"uint256","internalType":"uint256"}],"outputs":[],"stateMutability":"nonpayable"},{"type":"function","name":"setFullLiquidationThreshold","inputs":[{"name":"_bps","type":"uint256","internalType":"uint256"}],"outputs":[],"stateMutability":"nonpayable"},{"type":"function","name":"supportsInterface","inputs":[{"name":"interfaceId","type":"bytes4","internalType":"bytes4"}],"outputs":[{"name":"","type":"bool","internalType":"bool"}],"stateMutability":"view"},{"type":"function","name":"unpause","inputs":[],"outputs":[],"stateMutability":"nonpayable"},{"type":"function","name":"upgradeToAndCall","inputs":[{"name":"newImplementation","type":"address","internalType":"address"},{"name":"data","type":"bytes","internalType":"bytes"}],"outputs":[],"stateMutability":"payable"},{"type":"function","name":"vault","inputs":[],"outputs":[{"name":"","type":"address","internalType":"contract ICollateralVault"}],"stateMutability":"view"},{"type":"event","name":"BadDebtDetected","inputs":[{"name":"borrower","type":"address","indexed":true,"internalType":"address"},{"name":"residualDebt","type":"uint256","indexed":false,"internalType":"uint256"},{"name":"debtRepaid","type":"uint256","indexed":false,"internalType":"uint256"},{"name":"collateralSeized","type":"uint256","indexed":false,"internalType":"uint256"}],"anonymous":false},{"type":"event","name":"CloseFactorUpdated","inputs":[{"name":"oldFactor","type":"uint256","indexed":false,"internalType":"uint256"},{"name":"newFactor","type":"uint256","indexed":false,"internalType":"uint256"}],"anonymous":false},{"type":"event","name":"FullLiquidationThresholdUpdated","inputs":[{"name":"oldThreshold","type":"uint256","indexed":false,"internalType":"uint256"},{"name":"newThreshold","type":"uint256","indexed":false,"internalType":"uint256"}],"anonymous":false},{"type":"event","name":"Initialized","inputs":[{"name":"version","type":"uint64","indexed":false,"internalType":"uint64"}],"anonymous":false},{"type":"event","name":"Liquidation","inputs":[{"name":"liquidator","type":"address","indexed":true,"internalType":"address"},{"name":"borrower","type":"address","indexed":true,"internalType":"address"},{"name":"collateralToken","type":"address","indexed":true,"internalType":"address"},{"name":"debtRepaid","type":"uint256","indexed":false,"internalType":"uint256"},{"name":"collateralSeized","type":"uint256","indexed":false,"internalType":"uint256"}],"anonymous":false},{"type":"event","name":"Paused","inputs":[{"name":"account","type":"address","indexed":false,"internalType":"address"}],"anonymous":false},{"type":"event","name":"RoleAdminChanged","inputs":[{"name":"role","type":"bytes32","indexed":true,"internalType":"bytes32"},{"name":"previousAdminRole","type":"bytes32","indexed":true,"internalType":"bytes32"},{"name":"newAdminRole","type":"bytes32","indexed":true,"internalType":"bytes32"}],"anonymous":false},{"type":"event","name":"RoleGranted","inputs":[{"name":"role","type":"bytes32","indexed":true,"internalType":"bytes32"},{"name":"account","type":"address","indexed":true,"internalType":"address"},{"name":"sender","type":"address","indexed":true,"internalType":"address"}],"anonymous":false},{"type":"event","name":"RoleRevoked","inputs":[{"name":"role","type":"bytes32","indexed":true,"internalType":"bytes32"},{"name":"account","type":"address","indexed":true,"internalType":"address"},{"name":"sender","type":"address","indexed":true,"internalType":"address"}],"anonymous":false},{"type":"event","name":"Unpaused","inputs":[{"name":"account","type":"address","indexed":false,"internalType":"address"}],"anonymous":false},{"type":"event","name":"Upgraded","inputs":[{"name":"implementation","type":"address","indexed":true,"internalType":"address"}],"anonymous":false},{"type":"error","name":"AccessControlBadConfirmation","inputs":[]},{"type":"error","name":"AccessControlUnauthorizedAccount","inputs":[{"name":"account","type":"address","internalType":"address"},{"name":"neededRole","type":"bytes32","internalType":"bytes32"}]},{"type":"error","name":"AddressEmptyCode","inputs":[{"name":"target","type":"address","internalType":"address"}]},{"type":"error","name":"ERC1967InvalidImplementation","inputs":[{"name":"implementation","type":"address","internalType":"address"}]},{"type":"error","name":"ERC1967NonPayable","inputs":[]},{"type":"error","name":"EnforcedPause","inputs":[]},{"type":"error","name":"ExpectedPause","inputs":[]},{"type":"error","name":"FailedCall","inputs":[]},{"type":"error","name":"InvalidInitialization","inputs":[]},{"type":"error","name":"NotInitializing","inputs":[]},{"type":"error","name":"ReentrancyGuardReentrantCall","inputs":[]},{"type":"error","name":"UUPSUnauthorizedCallContext","inputs":[]},{"type":"error","name":"UUPSUnsupportedProxiableUUID","inputs":[{"name":"slot","type":"bytes32","internalType":"bytes32"}]}],"bytecode":{"object":"0x60a060405230608052348015610013575f80fd5b5061001c610021565b6100d3565b7ff0c57e16840df040f15088dc2f81fe391c3923bec73e23a9662efc9c229c6a00805468010000000000000000900460ff16156100715760405163f92ee8a960e01b815260040160405180910390fd5b80546001600160401b03908116146100d05780546001600160401b0319166001600160401b0390811782556040519081527fc7f505b2f371ae2175ee4913f4499e1f2633a7b5936321eed1cdaeb6115181d29060200160405180910390a15b50565b6080516114a96100f95f395f8181610cba01528181610ce30152610e3301526114a95ff3fe60806040526004361061017b575f3560e01c806359aefc9e116100cd578063ad3cb1cc11610087578063e63ab1e911610062578063e63ab1e914610456578063f288a2e214610489578063fbfa77cf146104a9578063fcc2602a146104c7575f80fd5b8063ad3cb1cc146103db578063cab666d014610418578063d547741f14610437575f80fd5b806359aefc9e146103345780635c975abb146103535780637dc0d1d0146103765780638456cb591461039557806391d14854146103a9578063a217fddf146103c8575f80fd5b806336568abe116101385780634654440b116101135780634654440b146102d95780634f1ef286146102ee57806352d1902d1461030157806353c425c114610315575f80fd5b806336568abe1461028a5780633957b2e6146102a95780633f4ba83a146102c5575f80fd5b806301ffc9a71461017f57806312348e96146101b3578063248a9ca3146101d457806325384fd81461020157806328e58601146102385780632f2ff15d1461026b575b5f80fd5b34801561018a575f80fd5b5061019e6101993660046111cd565b6104dc565b60405190151581526020015b60405180910390f35b3480156101be575f80fd5b506101d26101cd3660046111f4565b610512565b005b3480156101df575f80fd5b506101f36101ee3660046111f4565b6105c9565b6040519081526020016101aa565b34801561020c575f80fd5b50600154610220906001600160a01b031681565b6040516001600160a01b0390911681526020016101aa565b348015610243575f80fd5b506101f37f63969a580f710a0b87a9a89ed03da3ab3878a3f881ea24ec39d5e06a54f156e581565b348015610276575f80fd5b506101d2610285366004611226565b6105e9565b348015610295575f80fd5b506101d26102a4366004611226565b61060b565b3480156102b4575f80fd5b506101f368056bc75e2d6310000081565b3480156102d0575f80fd5b506101d2610643565b3480156102e4575f80fd5b506101f360045481565b6101d26102fc366004611264565b610658565b34801561030c575f80fd5b506101f3610677565b348015610320575f80fd5b506101d261032f366004611328565b610692565b34801561033f575f80fd5b506101d261034e3660046111f4565b610a02565b34801561035e575f80fd5b505f805160206114548339815191525460ff1661019e565b348015610381575f80fd5b50600254610220906001600160a01b031681565b3480156103a0575f80fd5b506101d2610aa8565b3480156103b4575f80fd5b5061019e6103c3366004611226565b610ada565b3480156103d3575f80fd5b506101f35f81565b3480156103e6575f80fd5b5061040b604051806040016040528060058152602001640352e302e360dc1b81525081565b6040516101aa9190611391565b348015610423575f80fd5b50600354610220906001600160a01b031681565b348015610442575f80fd5b506101d2610451366004611226565b610b10565b348015610461575f80fd5b506101f37f65d7a28e3265b37a6474929f336521b332c1681b933f6cb9f3376673440d862a81565b348015610494575f80fd5b506101f35f805160206113f483398151915281565b3480156104b4575f80fd5b505f54610220906001600160a01b031681565b3480156104d2575f80fd5b506101f360055481565b5f6001600160e01b03198216637965db0b60e01b148061050c57506301ffc9a760e01b6001600160e01b03198316145b92915050565b5f805160206113f483398151915261052981610b2c565b5f8211801561053a57506127108211155b6105825760405162461bcd60e51b815260206004820152601460248201527324a72b20a624a22fa1a627a9a2afa320a1aa27a960611b60448201526064015b60405180910390fd5b600480549083905560408051828152602081018590527f9513087cf6a295ac6bc4dd929e6d065efed0b89b0def991a2d20701415243ecc91015b60405180910390a1505050565b5f9081525f80516020611434833981519152602052604090206001015490565b6105f2826105c9565b6105fb81610b2c565b6106058383610b36565b50505050565b6001600160a01b03811633146106345760405163334bd91960e11b815260040160405180910390fd5b61063e8282610bd7565b505050565b5f61064d81610b2c565b610655610c50565b50565b610660610caf565b61066982610d55565b6106738282610d6c565b5050565b5f610680610e28565b505f8051602061141483398151915290565b5f61069b610e71565b805490915060ff600160401b820416159067ffffffffffffffff165f811580156106c25750825b90505f8267ffffffffffffffff1660011480156106de5750303b155b9050811580156106ec575080155b1561070a5760405163f92ee8a960e01b815260040160405180910390fd5b845467ffffffffffffffff19166001178555831561073457845460ff60401b1916600160401b1785555b6001600160a01b038b1661077a5760405162461bcd60e51b815260206004820152600d60248201526c1253959053125117d590555315609a1b6044820152606401610579565b6001600160a01b038a166107c85760405162461bcd60e51b8152602060048201526015602482015274494e56414c49445f424f52524f575f4d4f44554c4560581b6044820152606401610579565b6001600160a01b03891661080f5760405162461bcd60e51b815260206004820152600e60248201526d494e56414c49445f4f5241434c4560901b6044820152606401610579565b6001600160a01b0388166108545760405162461bcd60e51b815260206004820152600c60248201526b1253959053125117d35554d160a21b6044820152606401610579565b5f8711801561086557506127108711155b6108a85760405162461bcd60e51b815260206004820152601460248201527324a72b20a624a22fa1a627a9a2afa320a1aa27a960611b6044820152606401610579565b6001600160a01b0386166108f15760405162461bcd60e51b815260206004820152601060248201526f494e56414c49445f54494d454c4f434b60801b6044820152606401610579565b6108f9610e99565b610901610ea1565b610909610e99565b610911610e99565b5f80546001600160a01b03808e166001600160a01b0319928316178355600180548e8316908416179055600280548d831690841617905560038054918c1691909216179055600488905561138860055561096b9033610b36565b506109967f63969a580f710a0b87a9a89ed03da3ab3878a3f881ea24ec39d5e06a54f156e533610b36565b506109ae5f805160206113f483398151915287610b36565b5083156109f557845460ff60401b19168555604051600181527fc7f505b2f371ae2175ee4913f4499e1f2633a7b5936321eed1cdaeb6115181d29060200160405180910390a15b5050505050505050505050565b5f805160206113f4833981519152610a1981610b2c565b5f82118015610a2a57506127108211155b610a6a5760405162461bcd60e51b81526020600482015260116024820152701253959053125117d512149154d213d311607a1b6044820152606401610579565b600580549083905560408051828152602081018590527fd4512c8fc0416d1af5dcff0a86560e415c67211fe021027b22b4c2ec07d08b1491016105bc565b7f65d7a28e3265b37a6474929f336521b332c1681b933f6cb9f3376673440d862a610ad281610b2c565b610655610eb1565b5f9182525f80516020611434833981519152602090815260408084206001600160a01b0393909316845291905290205460ff1690565b610b19826105c9565b610b2281610b2c565b6106058383610bd7565b6106558133610ef9565b5f5f80516020611434833981519152610b4f8484610ada565b610bce575f848152602082815260408083206001600160a01b03871684529091529020805460ff19166001179055610b843390565b6001600160a01b0316836001600160a01b0316857f2f8788117e7eff1d82e926ec794901d17c78024a50270940304540a733656f0d60405160405180910390a4600191505061050c565b5f91505061050c565b5f5f80516020611434833981519152610bf08484610ada565b15610bce575f848152602082815260408083206001600160a01b0387168085529252808320805460ff1916905551339287917ff6391f5c32d9c69d2a47ea670b442974b53935d1edc7fd64eb21e047a839171b9190a4600191505061050c565b610c58610f32565b5f80516020611454833981519152805460ff191681557f5db9ee0a495bf2e6ff9c91a7834c1ba4fdd244a5e8aa4e537bd38aeae4b073aa335b6040516001600160a01b03909116815260200160405180910390a150565b306001600160a01b037f0000000000000000000000000000000000000000000000000000000000000000161480610d3557507f00000000000000000000000000000000000000000000000000000000000000006001600160a01b0316610d295f80516020611414833981519152546001600160a01b031690565b6001600160a01b031614155b15610d535760405163703e46dd60e11b815260040160405180910390fd5b565b5f805160206113f483398151915261067381610b2c565b816001600160a01b03166352d1902d6040518163ffffffff1660e01b8152600401602060405180830381865afa925050508015610dc6575060408051601f3d908101601f19168201909252610dc3918101906113c6565b60015b610dee57604051634c9c8ce360e01b81526001600160a01b0383166004820152602401610579565b5f805160206114148339815191528114610e1e57604051632a87526960e21b815260048101829052602401610579565b61063e8383610f61565b306001600160a01b037f00000000000000000000000000000000000000000000000000000000000000001614610d535760405163703e46dd60e11b815260040160405180910390fd5b5f807ff0c57e16840df040f15088dc2f81fe391c3923bec73e23a9662efc9c229c6a0061050c565b610d53610fb6565b610ea9610fb6565b610d53610fdb565b610eb9611009565b5f80516020611454833981519152805460ff191660011781557f62e78cea01bee320cd4e420270b5ea74000d11b0c9f74754ebdbfc544b05a25833610c91565b610f038282610ada565b6106735760405163e2517d3f60e01b81526001600160a01b038216600482015260248101839052604401610579565b5f805160206114548339815191525460ff16610d5357604051638dfc202b60e01b815260040160405180910390fd5b610f6a82611039565b6040516001600160a01b038316907fbc7cd75a20ee27fd9adebab32041f755214dbc6bffa90cc0225b39da2e5c2d3b905f90a2805115610fae5761063e828261109c565b61067361110e565b610fbe61112d565b610d5357604051631afcd79f60e31b815260040160405180910390fd5b610fe3610fb6565b60017f9b779b17422d0df92223018b32b4d1fa46e071723d6817e2486d003becc55f0055565b5f805160206114548339815191525460ff1615610d535760405163d93c066560e01b815260040160405180910390fd5b806001600160a01b03163b5f0361106e57604051634c9c8ce360e01b81526001600160a01b0382166004820152602401610579565b5f8051602061141483398151915280546001600160a01b0319166001600160a01b0392909216919091179055565b60605f80846001600160a01b0316846040516110b891906113dd565b5f60405180830381855af49150503d805f81146110f0576040519150601f19603f3d011682016040523d82523d5f602084013e6110f5565b606091505b5091509150611105858383611146565b95945050505050565b3415610d535760405163b398979f60e01b815260040160405180910390fd5b5f611136610e71565b54600160401b900460ff16919050565b60608261115b57611156826111a5565b61119e565b815115801561117257506001600160a01b0384163b155b1561119b57604051639996b31560e01b81526001600160a01b0385166004820152602401610579565b50805b9392505050565b8051156111b457805160208201fd5b60405163d6bda27560e01b815260040160405180910390fd5b5f602082840312156111dd575f80fd5b81356001600160e01b03198116811461119e575f80fd5b5f60208284031215611204575f80fd5b5035919050565b80356001600160a01b0381168114611221575f80fd5b919050565b5f8060408385031215611237575f80fd5b823591506112476020840161120b565b90509250929050565b634e487b7160e01b5f52604160045260245ffd5b5f8060408385031215611275575f80fd5b61127e8361120b565b9150602083013567ffffffffffffffff811115611299575f80fd5b8301601f810185136112a9575f80fd5b803567ffffffffffffffff8111156112c3576112c3611250565b604051601f8201601f19908116603f0116810167ffffffffffffffff811182821017156112f2576112f2611250565b604052818152828201602001871015611309575f80fd5b816020840160208301375f602083830101528093505050509250929050565b5f805f805f8060c0878903121561133d575f80fd5b6113468761120b565b95506113546020880161120b565b94506113626040880161120b565b93506113706060880161120b565b92506080870135915061138560a0880161120b565b90509295509295509295565b602081525f82518060208401528060208501604085015e5f604082850101526040601f19601f83011684010191505092915050565b5f602082840312156113d6575f80fd5b5051919050565b5f82518060208501845e5f92019182525091905056fef66846415d2bf9eabda9e84793ff9c0ea96d87f50fc41e66aa16469c6a442f05360894a13ba1a3210667c828492db98dca3e2076cc3735a920a3ca505d382bbc02dd7bc7dec4dceedda775e58dd541e08a116c6c53815c0bd028192f7b626800cd5ed15c6e187e77e9aee88184c21f4f2182ab5827cb3b7e07fbedcd63f03300a2646970667358221220c42085ffa17bf3ef236340c2473ae28263dd8eccc8ff8866fc364f96b16e7ec564736f6c634300081a0033","linkReferences":{}},"methodIdentifiers":{"DEFAULT_ADMIN_ROLE()":"a217fddf","ENGINE_ADMIN_ROLE()":"28e58601","MIN_LIQUIDATION_AMOUNT()":"3957b2e6","PAUSER_ROLE()":"e63ab1e9","TIMELOCK_ROLE()":"f288a2e2","UPGRADE_INTERFACE_VERSION()":"ad3cb1cc","borrowModule()":"25384fd8","closeFactorBps()":"4654440b","fullLiquidationThreshold()":"fcc2602a","getRoleAdmin(bytes32)":"248a9ca3","grantRole(bytes32,address)":"2f2ff15d","hasRole(bytes32,address)":"91d14854","initialize(address,address,address,address,uint256,address)":"53c425c1","musd()":"cab666d0","oracle()":"7dc0d1d0","pause()":"8456cb59","paused()":"5c975abb","proxiableUUID()":"52d1902d","renounceRole(bytes32,address)":"36568abe","revokeRole(bytes32,address)":"d547741f","setCloseFactor(uint256)":"12348e96","setFullLiquidationThreshold(uint256)":"59aefc9e","supportsInterface(bytes4)":"01ffc9a7","unpause()":"3f4ba83a","upgradeToAndCall(address,bytes)":"4f1ef286","vault()":"fbfa77cf"},"id":66}