{"abi":[{"type":"constructor","inputs":[],"stateMutability":"nonpayable"},{"type":"function","name":"ADMIN_DELAY","inputs":[],"outputs":[{"name":"","type":"uint256","internalType":"uint256"}],"stateMutability":"view"},{"type":"function","name":"DEFAULT_ADMIN_ROLE","inputs":[],"outputs":[{"name":"","type":"bytes32","internalType":"bytes32"}],"stateMutability":"view"},{"type":"function","name":"ENGINE_ADMIN_ROLE","inputs":[],"outputs":[{"name":"","type":"bytes32","internalType":"bytes32"}],"stateMutability":"view"},{"type":"function","name":"MIN_LIQUIDATION_AMOUNT","inputs":[],"outputs":[{"name":"","type":"uint256","internalType":"uint256"}],"stateMutability":"view"},{"type":"function","name":"PAUSER_ROLE","inputs":[],"outputs":[{"name":"","type":"bytes32","internalType":"bytes32"}],"stateMutability":"view"},{"type":"function","name":"UPGRADE_INTERFACE_VERSION","inputs":[],"outputs":[{"name":"","type":"string","internalType":"string"}],"stateMutability":"view"},{"type":"function","name":"borrowModule","inputs":[],"outputs":[{"name":"","type":"address","internalType":"contract IBorrowModule"}],"stateMutability":"view"},{"type":"function","name":"cancelCloseFactor","inputs":[],"outputs":[],"stateMutability":"nonpayable"},{"type":"function","name":"cancelFullLiquidationThreshold","inputs":[],"outputs":[],"stateMutability":"nonpayable"},{"type":"function","name":"closeFactorBps","inputs":[],"outputs":[{"name":"","type":"uint256","internalType":"uint256"}],"stateMutability":"view"},{"type":"function","name":"executeCloseFactor","inputs":[],"outputs":[],"stateMutability":"nonpayable"},{"type":"function","name":"executeFullLiquidationThreshold","inputs":[],"outputs":[],"stateMutability":"nonpayable"},{"type":"function","name":"fullLiquidationThreshold","inputs":[],"outputs":[{"name":"","type":"uint256","internalType":"uint256"}],"stateMutability":"view"},{"type":"function","name":"getRoleAdmin","inputs":[{"name":"role","type":"bytes32","internalType":"bytes32"}],"outputs":[{"name":"","type":"bytes32","internalType":"bytes32"}],"stateMutability":"view"},{"type":"function","name":"grantRole","inputs":[{"name":"role","type":"bytes32","internalType":"bytes32"},{"name":"account","type":"address","internalType":"address"}],"outputs":[],"stateMutability":"nonpayable"},{"type":"function","name":"hasRole","inputs":[{"name":"role","type":"bytes32","internalType":"bytes32"},{"name":"account","type":"address","internalType":"address"}],"outputs":[{"name":"","type":"bool","internalType":"bool"}],"stateMutability":"view"},{"type":"function","name":"initialize","inputs":[{"name":"_vault","type":"address","internalType":"address"},{"name":"_borrowModule","type":"address","internalType":"address"},{"name":"_oracle","type":"address","internalType":"address"},{"name":"_musd","type":"address","internalType":"address"},{"name":"_closeFactorBps","type":"uint256","internalType":"uint256"}],"outputs":[],"stateMutability":"nonpayable"},{"type":"function","name":"musd","inputs":[],"outputs":[{"name":"","type":"address","internalType":"contract IMUSD"}],"stateMutability":"view"},{"type":"function","name":"oracle","inputs":[],"outputs":[{"name":"","type":"address","internalType":"contract IPriceOracle"}],"stateMutability":"view"},{"type":"function","name":"pause","inputs":[],"outputs":[],"stateMutability":"nonpayable"},{"type":"function","name":"paused","inputs":[],"outputs":[{"name":"","type":"bool","internalType":"bool"}],"stateMutability":"view"},{"type":"function","name":"pendingCloseFactor","inputs":[],"outputs":[{"name":"","type":"uint256","internalType":"uint256"}],"stateMutability":"view"},{"type":"function","name":"pendingCloseFactorTime","inputs":[],"outputs":[{"name":"","type":"uint256","internalType":"uint256"}],"stateMutability":"view"},{"type":"function","name":"pendingFullLiqThreshold","inputs":[],"outputs":[{"name":"","type":"uint256","internalType":"uint256"}],"stateMutability":"view"},{"type":"function","name":"pendingFullLiqThresholdTime","inputs":[],"outputs":[{"name":"","type":"uint256","internalType":"uint256"}],"stateMutability":"view"},{"type":"function","name":"proxiableUUID","inputs":[],"outputs":[{"name":"","type":"bytes32","internalType":"bytes32"}],"stateMutability":"view"},{"type":"function","name":"renounceRole","inputs":[{"name":"role","type":"bytes32","internalType":"bytes32"},{"name":"callerConfirmation","type":"address","internalType":"address"}],"outputs":[],"stateMutability":"nonpayable"},{"type":"function","name":"requestCloseFactor","inputs":[{"name":"_bps","type":"uint256","internalType":"uint256"}],"outputs":[],"stateMutability":"nonpayable"},{"type":"function","name":"requestFullLiquidationThreshold","inputs":[{"name":"_bps","type":"uint256","internalType":"uint256"}],"outputs":[],"stateMutability":"nonpayable"},{"type":"function","name":"revokeRole","inputs":[{"name":"role","type":"bytes32","internalType":"bytes32"},{"name":"account","type":"address","internalType":"address"}],"outputs":[],"stateMutability":"nonpayable"},{"type":"function","name":"supportsInterface","inputs":[{"name":"interfaceId","type":"bytes4","internalType":"bytes4"}],"outputs":[{"name":"","type":"bool","internalType":"bool"}],"stateMutability":"view"},{"type":"function","name":"unpause","inputs":[],"outputs":[],"stateMutability":"nonpayable"},{"type":"function","name":"upgradeToAndCall","inputs":[{"name":"newImplementation","type":"address","internalType":"address"},{"name":"data","type":"bytes","internalType":"bytes"}],"outputs":[],"stateMutability":"payable"},{"type":"function","name":"vault","inputs":[],"outputs":[{"name":"","type":"address","internalType":"contract ICollateralVault"}],"stateMutability":"view"},{"type":"event","name":"BadDebtDetected","inputs":[{"name":"borrower","type":"address","indexed":true,"internalType":"address"},{"name":"residualDebt","type":"uint256","indexed":false,"internalType":"uint256"},{"name":"debtRepaid","type":"uint256","indexed":false,"internalType":"uint256"},{"name":"collateralSeized","type":"uint256","indexed":false,"internalType":"uint256"}],"anonymous":false},{"type":"event","name":"CloseFactorChangeCancelled","inputs":[{"name":"bps","type":"uint256","indexed":false,"internalType":"uint256"}],"anonymous":false},{"type":"event","name":"CloseFactorChangeRequested","inputs":[{"name":"bps","type":"uint256","indexed":false,"internalType":"uint256"},{"name":"readyAt","type":"uint256","indexed":false,"internalType":"uint256"}],"anonymous":false},{"type":"event","name":"CloseFactorUpdated","inputs":[{"name":"oldFactor","type":"uint256","indexed":false,"internalType":"uint256"},{"name":"newFactor","type":"uint256","indexed":false,"internalType":"uint256"}],"anonymous":false},{"type":"event","name":"FullLiqThresholdChangeCancelled","inputs":[{"name":"bps","type":"uint256","indexed":false,"internalType":"uint256"}],"anonymous":false},{"type":"event","name":"FullLiqThresholdChangeRequested","inputs":[{"name":"bps","type":"uint256","indexed":false,"internalType":"uint256"},{"name":"readyAt","type":"uint256","indexed":false,"internalType":"uint256"}],"anonymous":false},{"type":"event","name":"FullLiquidationThresholdUpdated","inputs":[{"name":"oldThreshold","type":"uint256","indexed":false,"internalType":"uint256"},{"name":"newThreshold","type":"uint256","indexed":false,"internalType":"uint256"}],"anonymous":false},{"type":"event","name":"Initialized","inputs":[{"name":"version","type":"uint64","indexed":false,"internalType":"uint64"}],"anonymous":false},{"type":"event","name":"Liquidation","inputs":[{"name":"liquidator","type":"address","indexed":true,"internalType":"address"},{"name":"borrower","type":"address","indexed":true,"internalType":"address"},{"name":"collateralToken","type":"address","indexed":true,"internalType":"address"},{"name":"debtRepaid","type":"uint256","indexed":false,"internalType":"uint256"},{"name":"collateralSeized","type":"uint256","indexed":false,"internalType":"uint256"}],"anonymous":false},{"type":"event","name":"Paused","inputs":[{"name":"account","type":"address","indexed":false,"internalType":"address"}],"anonymous":false},{"type":"event","name":"RoleAdminChanged","inputs":[{"name":"role","type":"bytes32","indexed":true,"internalType":"bytes32"},{"name":"previousAdminRole","type":"bytes32","indexed":true,"internalType":"bytes32"},{"name":"newAdminRole","type":"bytes32","indexed":true,"internalType":"bytes32"}],"anonymous":false},{"type":"event","name":"RoleGranted","inputs":[{"name":"role","type":"bytes32","indexed":true,"internalType":"bytes32"},{"name":"account","type":"address","indexed":true,"internalType":"address"},{"name":"sender","type":"address","indexed":true,"internalType":"address"}],"anonymous":false},{"type":"event","name":"RoleRevoked","inputs":[{"name":"role","type":"bytes32","indexed":true,"internalType":"bytes32"},{"name":"account","type":"address","indexed":true,"internalType":"address"},{"name":"sender","type":"address","indexed":true,"internalType":"address"}],"anonymous":false},{"type":"event","name":"Unpaused","inputs":[{"name":"account","type":"address","indexed":false,"internalType":"address"}],"anonymous":false},{"type":"event","name":"Upgraded","inputs":[{"name":"implementation","type":"address","indexed":true,"internalType":"address"}],"anonymous":false},{"type":"error","name":"AccessControlBadConfirmation","inputs":[]},{"type":"error","name":"AccessControlUnauthorizedAccount","inputs":[{"name":"account","type":"address","internalType":"address"},{"name":"neededRole","type":"bytes32","internalType":"bytes32"}]},{"type":"error","name":"AddressEmptyCode","inputs":[{"name":"target","type":"address","internalType":"address"}]},{"type":"error","name":"ERC1967InvalidImplementation","inputs":[{"name":"implementation","type":"address","internalType":"address"}]},{"type":"error","name":"ERC1967NonPayable","inputs":[]},{"type":"error","name":"EnforcedPause","inputs":[]},{"type":"error","name":"ExpectedPause","inputs":[]},{"type":"error","name":"FailedCall","inputs":[]},{"type":"error","name":"InvalidInitialization","inputs":[]},{"type":"error","name":"NotInitializing","inputs":[]},{"type":"error","name":"ReentrancyGuardReentrantCall","inputs":[]},{"type":"error","name":"UUPSUnauthorizedCallContext","inputs":[]},{"type":"error","name":"UUPSUnsupportedProxiableUUID","inputs":[{"name":"slot","type":"bytes32","internalType":"bytes32"}]}],"bytecode":{"object":"0x60a060405230608052348015610013575f80fd5b5061001c610021565b6100d3565b7ff0c57e16840df040f15088dc2f81fe391c3923bec73e23a9662efc9c229c6a00805468010000000000000000900460ff16156100715760405163f92ee8a960e01b815260040160405180910390fd5b80546001600160401b03908116146100d05780546001600160401b0319166001600160401b0390811782556040519081527fc7f505b2f371ae2175ee4913f4499e1f2633a7b5936321eed1cdaeb6115181d29060200160405180910390a15b50565b60805161187e6100f95f395f818161108e015281816110b701526111fa015261187e5ff3fe6080604052600436106101f1575f3560e01c80638456cb5911610108578063ad3cb1cc1161009d578063d89150821161006d578063d891508214610540578063e63ab1e914610554578063f7013ef614610587578063fbfa77cf146105a6578063fcc2602a146105c4575f80fd5b8063ad3cb1cc146104b0578063cab666d0146104ed578063ce699b311461050c578063d547741f14610521575f80fd5b80639c2c61e6116100d85780639c2c61e614610454578063a217fddf14610469578063a76a5f831461047c578063a8f6e9ee14610491575f80fd5b80638456cb59146103f757806391d148541461040b578063921a39261461042a57806392ffacac1461043e575f80fd5b80633e1f2223116101895780634f1ef286116101595780634f1ef2861461037a57806352d1902d1461038d5780635c975abb146103a157806371ebcdc5146103c45780637dc0d1d0146103d8575f80fd5b80633e1f22231461031e5780633f4ba83a1461033d5780634095a46e146103515780634654440b14610365575f80fd5b806328e58601116101c457806328e58601146102a25780632f2ff15d146102c257806336568abe146102e35780633957b2e614610302575f80fd5b806301ffc9a7146101f55780631158416f14610229578063248a9ca31461024c57806325384fd81461026b575b5f80fd5b348015610200575f80fd5b5061021461020f366004611594565b6105d9565b60405190151581526020015b60405180910390f35b348015610234575f80fd5b5061023e60095481565b604051908152602001610220565b348015610257575f80fd5b5061023e6102663660046115bb565b61060f565b348015610276575f80fd5b5060015461028a906001600160a01b031681565b6040516001600160a01b039091168152602001610220565b3480156102ad575f80fd5b5061023e5f805160206117c983398151915281565b3480156102cd575f80fd5b506102e16102dc3660046115ed565b61062f565b005b3480156102ee575f80fd5b506102e16102fd3660046115ed565b610651565b34801561030d575f80fd5b5061023e68056bc75e2d6310000081565b348015610329575f80fd5b506102e16103383660046115bb565b610689565b348015610348575f80fd5b506102e1610799565b34801561035c575f80fd5b506102e16107ae565b348015610370575f80fd5b5061023e60045481565b6102e161038836600461162b565b6108ac565b348015610398575f80fd5b5061023e6108cb565b3480156103ac575f80fd5b505f805160206118298339815191525460ff16610214565b3480156103cf575f80fd5b506102e16108e6565b3480156103e3575f80fd5b5060025461028a906001600160a01b031681565b348015610402575f80fd5b506102e16109e4565b348015610416575f80fd5b506102146104253660046115ed565b610a16565b348015610435575f80fd5b506102e1610a4c565b348015610449575f80fd5b5061023e6202a30081565b34801561045f575f80fd5b5061023e60085481565b348015610474575f80fd5b5061023e5f81565b348015610487575f80fd5b5061023e60065481565b34801561049c575f80fd5b506102e16104ab3660046115bb565b610aa2565b3480156104bb575f80fd5b506104e0604051806040016040528060058152602001640352e302e360dc1b81525081565b60405161022091906116ef565b3480156104f8575f80fd5b5060035461028a906001600160a01b031681565b348015610517575f80fd5b5061023e60075481565b34801561052c575f80fd5b506102e161053b3660046115ed565b610b93565b34801561054b575f80fd5b506102e1610baf565b34801561055f575f80fd5b5061023e7f65d7a28e3265b37a6474929f336521b332c1681b933f6cb9f3376673440d862a81565b348015610592575f80fd5b506102e16105a1366004611724565b610c05565b3480156105b1575f80fd5b505f5461028a906001600160a01b031681565b3480156105cf575f80fd5b5061023e60055481565b5f6001600160e01b03198216637965db0b60e01b148061060957506301ffc9a760e01b6001600160e01b03198316145b92915050565b5f9081525f80516020611809833981519152602052604090206001015490565b6106388261060f565b61064181610f00565b61064b8383610f0a565b50505050565b6001600160a01b038116331461067a5760405163334bd91960e11b815260040160405180910390fd5b6106848282610fab565b505050565b5f805160206117c98339815191526106a081610f00565b5f821180156106b157506127108211155b6106f65760405162461bcd60e51b81526020600482015260116024820152701253959053125117d512149154d213d311607a1b60448201526064015b60405180910390fd5b6008541561073f5760405162461bcd60e51b81526020600482015260166024820152754348414e47455f414c52454144595f50454e44494e4760501b60448201526064016106ed565b60088290554260098190557f6bd095d4d2a2fedc55285b3d61ae6f3fb3c26281bb61d2ab05febb1c86b8537c90839061077c906202a3009061177c565b604080519283526020830191909152015b60405180910390a15050565b5f6107a381610f00565b6107ab611024565b50565b5f805160206117c98339815191526107c581610f00565b5f600654116108085760405162461bcd60e51b815260206004820152600f60248201526e4e4f5448494e475f50454e44494e4760881b60448201526064016106ed565b6202a300600754610819919061177c565b42101561085f5760405162461bcd60e51b8152602060048201526014602482015273151253515313d0d2d7d393d517d153105414d15160621b60448201526064016106ed565b6004805460068054928390555f9081905560075560405190917f9513087cf6a295ac6bc4dd929e6d065efed0b89b0def991a2d20701415243ecc9161078d91848252602082015260400190565b6108b4611083565b6108bd82611129565b6108c78282611133565b5050565b5f6108d46111ef565b505f805160206117e983398151915290565b5f805160206117c98339815191526108fd81610f00565b5f600854116109405760405162461bcd60e51b815260206004820152600f60248201526e4e4f5448494e475f50454e44494e4760881b60448201526064016106ed565b6202a300600954610951919061177c565b4210156109975760405162461bcd60e51b8152602060048201526014602482015273151253515313d0d2d7d393d517d153105414d15160621b60448201526064016106ed565b6005805460088054928390555f9081905560095560405190917fd4512c8fc0416d1af5dcff0a86560e415c67211fe021027b22b4c2ec07d08b149161078d91848252602082015260400190565b7f65d7a28e3265b37a6474929f336521b332c1681b933f6cb9f3376673440d862a610a0e81610f00565b6107ab611238565b5f9182525f80516020611809833981519152602090815260408084206001600160a01b0393909316845291905290205460ff1690565b5f805160206117c9833981519152610a6381610f00565b600880545f918290556009919091556040518181527f193c03efccfa7ece4d78cee8b1e5f1868a16be38575956d77a5b9678252c0f4b9060200161078d565b5f805160206117c9833981519152610ab981610f00565b5f82118015610aca57506127108211155b610b0d5760405162461bcd60e51b815260206004820152601460248201527324a72b20a624a22fa1a627a9a2afa320a1aa27a960611b60448201526064016106ed565b60065415610b565760405162461bcd60e51b81526020600482015260166024820152754348414e47455f414c52454144595f50454e44494e4760501b60448201526064016106ed565b60068290554260078190557f0d525c7eed2b8166b2083e2abae4eee27977f80d88e1b39129dae240a25e74fe90839061077c906202a3009061177c565b610b9c8261060f565b610ba581610f00565b61064b8383610fab565b5f805160206117c9833981519152610bc681610f00565b600680545f918290556007919091556040518181527f58e68fa992fcdcc8eb171045fa63630d2272399e34efbae71f86ab5eb47253fd9060200161078d565b5f610c0e611280565b805490915060ff600160401b820416159067ffffffffffffffff165f81158015610c355750825b90505f8267ffffffffffffffff166001148015610c515750303b155b905081158015610c5f575080155b15610c7d5760405163f92ee8a960e01b815260040160405180910390fd5b845467ffffffffffffffff191660011785558315610ca757845460ff60401b1916600160401b1785555b6001600160a01b038a16610ced5760405162461bcd60e51b815260206004820152600d60248201526c1253959053125117d590555315609a1b60448201526064016106ed565b6001600160a01b038916610d3b5760405162461bcd60e51b8152602060048201526015602482015274494e56414c49445f424f52524f575f4d4f44554c4560581b60448201526064016106ed565b6001600160a01b038816610d825760405162461bcd60e51b815260206004820152600e60248201526d494e56414c49445f4f5241434c4560901b60448201526064016106ed565b6001600160a01b038716610dc75760405162461bcd60e51b815260206004820152600c60248201526b1253959053125117d35554d160a21b60448201526064016106ed565b5f86118015610dd857506127108611155b610e1b5760405162461bcd60e51b815260206004820152601460248201527324a72b20a624a22fa1a627a9a2afa320a1aa27a960611b60448201526064016106ed565b610e236112a8565b610e2b6112b0565b610e336112a8565b610e3b6112a8565b5f80546001600160a01b03808d166001600160a01b0319928316178355600180548d8316908416179055600280548c831690841617905560038054918b16919092161790556004879055611388600555610e959033610f0a565b50610ead5f805160206117c983398151915233610f0a565b508315610ef457845460ff60401b19168555604051600181527fc7f505b2f371ae2175ee4913f4499e1f2633a7b5936321eed1cdaeb6115181d29060200160405180910390a15b50505050505050505050565b6107ab81336112c0565b5f5f80516020611809833981519152610f238484610a16565b610fa2575f848152602082815260408083206001600160a01b03871684529091529020805460ff19166001179055610f583390565b6001600160a01b0316836001600160a01b0316857f2f8788117e7eff1d82e926ec794901d17c78024a50270940304540a733656f0d60405160405180910390a46001915050610609565b5f915050610609565b5f5f80516020611809833981519152610fc48484610a16565b15610fa2575f848152602082815260408083206001600160a01b0387168085529252808320805460ff1916905551339287917ff6391f5c32d9c69d2a47ea670b442974b53935d1edc7fd64eb21e047a839171b9190a46001915050610609565b61102c6112f9565b5f80516020611829833981519152805460ff191681557f5db9ee0a495bf2e6ff9c91a7834c1ba4fdd244a5e8aa4e537bd38aeae4b073aa335b6040516001600160a01b03909116815260200160405180910390a150565b306001600160a01b037f000000000000000000000000000000000000000000000000000000000000000016148061110957507f00000000000000000000000000000000000000000000000000000000000000006001600160a01b03166110fd5f805160206117e9833981519152546001600160a01b031690565b6001600160a01b031614155b156111275760405163703e46dd60e11b815260040160405180910390fd5b565b5f6108c781610f00565b816001600160a01b03166352d1902d6040518163ffffffff1660e01b8152600401602060405180830381865afa92505050801561118d575060408051601f3d908101601f1916820190925261118a9181019061179b565b60015b6111b557604051634c9c8ce360e01b81526001600160a01b03831660048201526024016106ed565b5f805160206117e983398151915281146111e557604051632a87526960e21b8152600481018290526024016106ed565b6106848383611328565b306001600160a01b037f000000000000000000000000000000000000000000000000000000000000000016146111275760405163703e46dd60e11b815260040160405180910390fd5b61124061137d565b5f80516020611829833981519152805460ff191660011781557f62e78cea01bee320cd4e420270b5ea74000d11b0c9f74754ebdbfc544b05a25833611065565b5f807ff0c57e16840df040f15088dc2f81fe391c3923bec73e23a9662efc9c229c6a00610609565b6111276113ad565b6112b86113ad565b6111276113d2565b6112ca8282610a16565b6108c75760405163e2517d3f60e01b81526001600160a01b0382166004820152602481018390526044016106ed565b5f805160206118298339815191525460ff1661112757604051638dfc202b60e01b815260040160405180910390fd5b61133182611400565b6040516001600160a01b038316907fbc7cd75a20ee27fd9adebab32041f755214dbc6bffa90cc0225b39da2e5c2d3b905f90a2805115611375576106848282611463565b6108c76114d5565b5f805160206118298339815191525460ff16156111275760405163d93c066560e01b815260040160405180910390fd5b6113b56114f4565b61112757604051631afcd79f60e31b815260040160405180910390fd5b6113da6113ad565b60017f9b779b17422d0df92223018b32b4d1fa46e071723d6817e2486d003becc55f0055565b806001600160a01b03163b5f0361143557604051634c9c8ce360e01b81526001600160a01b03821660048201526024016106ed565b5f805160206117e983398151915280546001600160a01b0319166001600160a01b0392909216919091179055565b60605f80846001600160a01b03168460405161147f91906117b2565b5f60405180830381855af49150503d805f81146114b7576040519150601f19603f3d011682016040523d82523d5f602084013e6114bc565b606091505b50915091506114cc85838361150d565b95945050505050565b34156111275760405163b398979f60e01b815260040160405180910390fd5b5f6114fd611280565b54600160401b900460ff16919050565b6060826115225761151d8261156c565b611565565b815115801561153957506001600160a01b0384163b155b1561156257604051639996b31560e01b81526001600160a01b03851660048201526024016106ed565b50805b9392505050565b80511561157b57805160208201fd5b60405163d6bda27560e01b815260040160405180910390fd5b5f602082840312156115a4575f80fd5b81356001600160e01b031981168114611565575f80fd5b5f602082840312156115cb575f80fd5b5035919050565b80356001600160a01b03811681146115e8575f80fd5b919050565b5f80604083850312156115fe575f80fd5b8235915061160e602084016115d2565b90509250929050565b634e487b7160e01b5f52604160045260245ffd5b5f806040838503121561163c575f80fd5b611645836115d2565b9150602083013567ffffffffffffffff811115611660575f80fd5b8301601f81018513611670575f80fd5b803567ffffffffffffffff81111561168a5761168a611617565b604051601f8201601f19908116603f0116810167ffffffffffffffff811182821017156116b9576116b9611617565b6040528181528282016020018710156116d0575f80fd5b816020840160208301375f602083830101528093505050509250929050565b602081525f82518060208401528060208501604085015e5f604082850101526040601f19601f83011684010191505092915050565b5f805f805f60a08688031215611738575f80fd5b611741866115d2565b945061174f602087016115d2565b935061175d604087016115d2565b925061176b606087016115d2565b949793965091946080013592915050565b8082018082111561060957634e487b7160e01b5f52601160045260245ffd5b5f602082840312156117ab575f80fd5b5051919050565b5f82518060208501845e5f92019182525091905056fe63969a580f710a0b87a9a89ed03da3ab3878a3f881ea24ec39d5e06a54f156e5360894a13ba1a3210667c828492db98dca3e2076cc3735a920a3ca505d382bbc02dd7bc7dec4dceedda775e58dd541e08a116c6c53815c0bd028192f7b626800cd5ed15c6e187e77e9aee88184c21f4f2182ab5827cb3b7e07fbedcd63f03300a26469706673582212208f4c13cef8a1d2b48d756a72b3aa6994e669ca418d502c26e2482bedd19f641664736f6c634300081a0033","linkReferences":{}},"methodIdentifiers":{"ADMIN_DELAY()":"92ffacac","DEFAULT_ADMIN_ROLE()":"a217fddf","ENGINE_ADMIN_ROLE()":"28e58601","MIN_LIQUIDATION_AMOUNT()":"3957b2e6","PAUSER_ROLE()":"e63ab1e9","UPGRADE_INTERFACE_VERSION()":"ad3cb1cc","borrowModule()":"25384fd8","cancelCloseFactor()":"d8915082","cancelFullLiquidationThreshold()":"921a3926","closeFactorBps()":"4654440b","executeCloseFactor()":"4095a46e","executeFullLiquidationThreshold()":"71ebcdc5","fullLiquidationThreshold()":"fcc2602a","getRoleAdmin(bytes32)":"248a9ca3","grantRole(bytes32,address)":"2f2ff15d","hasRole(bytes32,address)":"91d14854","initialize(address,address,address,address,uint256)":"f7013ef6","musd()":"cab666d0","oracle()":"7dc0d1d0","pause()":"8456cb59","paused()":"5c975abb","pendingCloseFactor()":"a76a5f83","pendingCloseFactorTime()":"ce699b31","pendingFullLiqThreshold()":"9c2c61e6","pendingFullLiqThresholdTime()":"1158416f","proxiableUUID()":"52d1902d","renounceRole(bytes32,address)":"36568abe","requestCloseFactor(uint256)":"a8f6e9ee","requestFullLiquidationThreshold(uint256)":"3e1f2223","revokeRole(bytes32,address)":"d547741f","supportsInterface(bytes4)":"01ffc9a7","unpause()":"3f4ba83a","upgradeToAndCall(address,bytes)":"4f1ef286","vault()":"fbfa77cf"},"id":51}