{"abi":[{"type":"constructor","inputs":[],"stateMutability":"nonpayable"},{"type":"function","name":"DEFAULT_ADMIN_ROLE","inputs":[],"outputs":[{"name":"","type":"bytes32","internalType":"bytes32"}],"stateMutability":"view"},{"type":"function","name":"LEVERAGE_ADMIN_ROLE","inputs":[],"outputs":[{"name":"","type":"bytes32","internalType":"bytes32"}],"stateMutability":"view"},{"type":"function","name":"PAUSER_ROLE","inputs":[],"outputs":[{"name":"","type":"bytes32","internalType":"bytes32"}],"stateMutability":"view"},{"type":"function","name":"TIMELOCK_ROLE","inputs":[],"outputs":[{"name":"","type":"bytes32","internalType":"bytes32"}],"stateMutability":"view"},{"type":"function","name":"UPGRADE_INTERFACE_VERSION","inputs":[],"outputs":[{"name":"","type":"string","internalType":"string"}],"stateMutability":"view"},{"type":"function","name":"borrowModule","inputs":[],"outputs":[{"name":"","type":"address","internalType":"contract IBorrowModule"}],"stateMutability":"view"},{"type":"function","name":"closeLeveragedPosition","inputs":[{"name":"minCollateralOut","type":"uint256","internalType":"uint256"},{"name":"userMaxSlippageBps","type":"uint256","internalType":"uint256"},{"name":"swapDeadline","type":"uint256","internalType":"uint256"}],"outputs":[{"name":"collateralReturned","type":"uint256","internalType":"uint256"}],"stateMutability":"nonpayable"},{"type":"function","name":"closeLeveragedPositionWithMusd","inputs":[{"name":"musdAmount","type":"uint256","internalType":"uint256"}],"outputs":[{"name":"collateralReturned","type":"uint256","internalType":"uint256"}],"stateMutability":"nonpayable"},{"type":"function","name":"collateralVault","inputs":[],"outputs":[{"name":"","type":"address","internalType":"contract ICollateralVault"}],"stateMutability":"view"},{"type":"function","name":"defaultPoolFee","inputs":[],"outputs":[{"name":"","type":"uint24","internalType":"uint24"}],"stateMutability":"view"},{"type":"function","name":"disableToken","inputs":[{"name":"token","type":"address","internalType":"address"}],"outputs":[],"stateMutability":"nonpayable"},{"type":"function","name":"emergencyClosePosition","inputs":[{"name":"user","type":"address","internalType":"address"},{"name":"emergencySlippageBps","type":"uint256","internalType":"uint256"}],"outputs":[],"stateMutability":"nonpayable"},{"type":"function","name":"emergencyWithdraw","inputs":[{"name":"token","type":"address","internalType":"address"},{"name":"amount","type":"uint256","internalType":"uint256"},{"name":"recipient","type":"address","internalType":"address"}],"outputs":[],"stateMutability":"nonpayable"},{"type":"function","name":"enableToken","inputs":[{"name":"token","type":"address","internalType":"address"},{"name":"poolFee","type":"uint24","internalType":"uint24"}],"outputs":[],"stateMutability":"nonpayable"},{"type":"function","name":"estimateLoops","inputs":[{"name":"collateralToken","type":"address","internalType":"address"},{"name":"initialAmount","type":"uint256","internalType":"uint256"},{"name":"targetLeverageX10","type":"uint256","internalType":"uint256"}],"outputs":[{"name":"estimatedLoops","type":"uint256","internalType":"uint256"},{"name":"estimatedDebt","type":"uint256","internalType":"uint256"}],"stateMutability":"view"},{"type":"function","name":"getEffectiveLeverage","inputs":[{"name":"user","type":"address","internalType":"address"}],"outputs":[{"name":"leverageX10","type":"uint256","internalType":"uint256"}],"stateMutability":"view"},{"type":"function","name":"getMusdNeededToClose","inputs":[{"name":"user","type":"address","internalType":"address"}],"outputs":[{"name":"musdNeeded","type":"uint256","internalType":"uint256"}],"stateMutability":"view"},{"type":"function","name":"getPosition","inputs":[{"name":"user","type":"address","internalType":"address"}],"outputs":[{"name":"","type":"tuple","internalType":"struct LeverageVaultUpgradeable.LeveragePosition","components":[{"name":"collateralToken","type":"address","internalType":"address"},{"name":"initialDeposit","type":"uint256","internalType":"uint256"},{"name":"totalCollateral","type":"uint256","internalType":"uint256"},{"name":"totalDebt","type":"uint256","internalType":"uint256"},{"name":"loopsExecuted","type":"uint256","internalType":"uint256"},{"name":"targetLeverageX10","type":"uint256","internalType":"uint256"},{"name":"openedAt","type":"uint256","internalType":"uint256"}]}],"stateMutability":"view"},{"type":"function","name":"getRoleAdmin","inputs":[{"name":"role","type":"bytes32","internalType":"bytes32"}],"outputs":[{"name":"","type":"bytes32","internalType":"bytes32"}],"stateMutability":"view"},{"type":"function","name":"grantRole","inputs":[{"name":"role","type":"bytes32","internalType":"bytes32"},{"name":"account","type":"address","internalType":"address"}],"outputs":[],"stateMutability":"nonpayable"},{"type":"function","name":"hasRole","inputs":[{"name":"role","type":"bytes32","internalType":"bytes32"},{"name":"account","type":"address","internalType":"address"}],"outputs":[{"name":"","type":"bool","internalType":"bool"}],"stateMutability":"view"},{"type":"function","name":"initialize","inputs":[{"name":"_swapRouter","type":"address","internalType":"address"},{"name":"_collateralVault","type":"address","internalType":"address"},{"name":"_borrowModule","type":"address","internalType":"address"},{"name":"_priceOracle","type":"address","internalType":"address"},{"name":"_musd","type":"address","internalType":"address"},{"name":"_admin","type":"address","internalType":"address"},{"name":"_timelockController","type":"address","internalType":"address"}],"outputs":[],"stateMutability":"nonpayable"},{"type":"function","name":"leverageEnabled","inputs":[{"name":"","type":"address","internalType":"address"}],"outputs":[{"name":"","type":"bool","internalType":"bool"}],"stateMutability":"view"},{"type":"function","name":"maxLeverageX10","inputs":[],"outputs":[{"name":"","type":"uint256","internalType":"uint256"}],"stateMutability":"view"},{"type":"function","name":"maxLoops","inputs":[],"outputs":[{"name":"","type":"uint256","internalType":"uint256"}],"stateMutability":"view"},{"type":"function","name":"maxSlippageBps","inputs":[],"outputs":[{"name":"","type":"uint256","internalType":"uint256"}],"stateMutability":"view"},{"type":"function","name":"minBorrowPerLoop","inputs":[],"outputs":[{"name":"","type":"uint256","internalType":"uint256"}],"stateMutability":"view"},{"type":"function","name":"musd","inputs":[],"outputs":[{"name":"","type":"address","internalType":"contract IERC20"}],"stateMutability":"view"},{"type":"function","name":"openLeveragedPosition","inputs":[{"name":"collateralToken","type":"address","internalType":"address"},{"name":"initialAmount","type":"uint256","internalType":"uint256"},{"name":"targetLeverageX10","type":"uint256","internalType":"uint256"},{"name":"maxLoopsOverride","type":"uint256","internalType":"uint256"},{"name":"userMaxSlippageBps","type":"uint256","internalType":"uint256"},{"name":"swapDeadline","type":"uint256","internalType":"uint256"}],"outputs":[{"name":"totalCollateral","type":"uint256","internalType":"uint256"},{"name":"totalDebt","type":"uint256","internalType":"uint256"},{"name":"loopsExecuted","type":"uint256","internalType":"uint256"}],"stateMutability":"nonpayable"},{"type":"function","name":"pause","inputs":[],"outputs":[],"stateMutability":"nonpayable"},{"type":"function","name":"paused","inputs":[],"outputs":[{"name":"","type":"bool","internalType":"bool"}],"stateMutability":"view"},{"type":"function","name":"positions","inputs":[{"name":"","type":"address","internalType":"address"}],"outputs":[{"name":"collateralToken","type":"address","internalType":"address"},{"name":"initialDeposit","type":"uint256","internalType":"uint256"},{"name":"totalCollateral","type":"uint256","internalType":"uint256"},{"name":"totalDebt","type":"uint256","internalType":"uint256"},{"name":"loopsExecuted","type":"uint256","internalType":"uint256"},{"name":"targetLeverageX10","type":"uint256","internalType":"uint256"},{"name":"openedAt","type":"uint256","internalType":"uint256"}],"stateMutability":"view"},{"type":"function","name":"priceOracle","inputs":[],"outputs":[{"name":"","type":"address","internalType":"contract IPriceOracle"}],"stateMutability":"view"},{"type":"function","name":"proxiableUUID","inputs":[],"outputs":[{"name":"","type":"bytes32","internalType":"bytes32"}],"stateMutability":"view"},{"type":"function","name":"renounceRole","inputs":[{"name":"role","type":"bytes32","internalType":"bytes32"},{"name":"callerConfirmation","type":"address","internalType":"address"}],"outputs":[],"stateMutability":"nonpayable"},{"type":"function","name":"revokeRole","inputs":[{"name":"role","type":"bytes32","internalType":"bytes32"},{"name":"account","type":"address","internalType":"address"}],"outputs":[],"stateMutability":"nonpayable"},{"type":"function","name":"setConfig","inputs":[{"name":"_maxLoops","type":"uint256","internalType":"uint256"},{"name":"_minBorrowPerLoop","type":"uint256","internalType":"uint256"},{"name":"_defaultPoolFee","type":"uint24","internalType":"uint24"},{"name":"_maxSlippageBps","type":"uint256","internalType":"uint256"}],"outputs":[],"stateMutability":"nonpayable"},{"type":"function","name":"setMaxLeverage","inputs":[{"name":"_maxLeverageX10","type":"uint256","internalType":"uint256"}],"outputs":[],"stateMutability":"nonpayable"},{"type":"function","name":"supportsInterface","inputs":[{"name":"interfaceId","type":"bytes4","internalType":"bytes4"}],"outputs":[{"name":"","type":"bool","internalType":"bool"}],"stateMutability":"view"},{"type":"function","name":"swapRouter","inputs":[],"outputs":[{"name":"","type":"address","internalType":"contract ISwapRouter"}],"stateMutability":"view"},{"type":"function","name":"tokenPoolFees","inputs":[{"name":"","type":"address","internalType":"address"}],"outputs":[{"name":"","type":"uint24","internalType":"uint24"}],"stateMutability":"view"},{"type":"function","name":"unpause","inputs":[],"outputs":[],"stateMutability":"nonpayable"},{"type":"function","name":"upgradeToAndCall","inputs":[{"name":"newImplementation","type":"address","internalType":"address"},{"name":"data","type":"bytes","internalType":"bytes"}],"outputs":[],"stateMutability":"payable"},{"type":"event","name":"ConfigUpdated","inputs":[{"name":"maxLoops","type":"uint256","indexed":false,"internalType":"uint256"},{"name":"minBorrowPerLoop","type":"uint256","indexed":false,"internalType":"uint256"},{"name":"defaultPoolFee","type":"uint24","indexed":false,"internalType":"uint24"},{"name":"maxSlippageBps","type":"uint256","indexed":false,"internalType":"uint256"}],"anonymous":false},{"type":"event","name":"EmergencyRepayFailed","inputs":[{"name":"user","type":"address","indexed":true,"internalType":"address"},{"name":"debtAmount","type":"uint256","indexed":false,"internalType":"uint256"},{"name":"musdAvailable","type":"uint256","indexed":false,"internalType":"uint256"}],"anonymous":false},{"type":"event","name":"EmergencyWithdrawExecuted","inputs":[{"name":"token","type":"address","indexed":true,"internalType":"address"},{"name":"amount","type":"uint256","indexed":false,"internalType":"uint256"},{"name":"recipient","type":"address","indexed":true,"internalType":"address"}],"anonymous":false},{"type":"event","name":"Initialized","inputs":[{"name":"version","type":"uint64","indexed":false,"internalType":"uint64"}],"anonymous":false},{"type":"event","name":"LeverageClosed","inputs":[{"name":"user","type":"address","indexed":true,"internalType":"address"},{"name":"collateralToken","type":"address","indexed":true,"internalType":"address"},{"name":"collateralReturned","type":"uint256","indexed":false,"internalType":"uint256"},{"name":"debtRepaid","type":"uint256","indexed":false,"internalType":"uint256"},{"name":"profitOrLoss","type":"uint256","indexed":false,"internalType":"uint256"}],"anonymous":false},{"type":"event","name":"LeverageClosedWithDirectRepay","inputs":[{"name":"user","type":"address","indexed":true,"internalType":"address"},{"name":"collateralToken","type":"address","indexed":true,"internalType":"address"},{"name":"collateralReturned","type":"uint256","indexed":false,"internalType":"uint256"},{"name":"debtRepaid","type":"uint256","indexed":false,"internalType":"uint256"},{"name":"musdProvidedByUser","type":"uint256","indexed":false,"internalType":"uint256"}],"anonymous":false},{"type":"event","name":"LeverageIncreased","inputs":[{"name":"user","type":"address","indexed":true,"internalType":"address"},{"name":"additionalCollateral","type":"uint256","indexed":false,"internalType":"uint256"},{"name":"additionalDebt","type":"uint256","indexed":false,"internalType":"uint256"},{"name":"newLoops","type":"uint256","indexed":false,"internalType":"uint256"}],"anonymous":false},{"type":"event","name":"LeverageOpened","inputs":[{"name":"user","type":"address","indexed":true,"internalType":"address"},{"name":"collateralToken","type":"address","indexed":true,"internalType":"address"},{"name":"initialDeposit","type":"uint256","indexed":false,"internalType":"uint256"},{"name":"totalCollateral","type":"uint256","indexed":false,"internalType":"uint256"},{"name":"totalDebt","type":"uint256","indexed":false,"internalType":"uint256"},{"name":"loopsExecuted","type":"uint256","indexed":false,"internalType":"uint256"},{"name":"effectiveLeverageX10","type":"uint256","indexed":false,"internalType":"uint256"}],"anonymous":false},{"type":"event","name":"MaxLeverageUpdated","inputs":[{"name":"oldMaxLeverageX10","type":"uint256","indexed":false,"internalType":"uint256"},{"name":"newMaxLeverageX10","type":"uint256","indexed":false,"internalType":"uint256"}],"anonymous":false},{"type":"event","name":"Paused","inputs":[{"name":"account","type":"address","indexed":false,"internalType":"address"}],"anonymous":false},{"type":"event","name":"RoleAdminChanged","inputs":[{"name":"role","type":"bytes32","indexed":true,"internalType":"bytes32"},{"name":"previousAdminRole","type":"bytes32","indexed":true,"internalType":"bytes32"},{"name":"newAdminRole","type":"bytes32","indexed":true,"internalType":"bytes32"}],"anonymous":false},{"type":"event","name":"RoleGranted","inputs":[{"name":"role","type":"bytes32","indexed":true,"internalType":"bytes32"},{"name":"account","type":"address","indexed":true,"internalType":"address"},{"name":"sender","type":"address","indexed":true,"internalType":"address"}],"anonymous":false},{"type":"event","name":"RoleRevoked","inputs":[{"name":"role","type":"bytes32","indexed":true,"internalType":"bytes32"},{"name":"account","type":"address","indexed":true,"internalType":"address"},{"name":"sender","type":"address","indexed":true,"internalType":"address"}],"anonymous":false},{"type":"event","name":"TokenDisabled","inputs":[{"name":"token","type":"address","indexed":true,"internalType":"address"}],"anonymous":false},{"type":"event","name":"TokenEnabled","inputs":[{"name":"token","type":"address","indexed":true,"internalType":"address"},{"name":"poolFee","type":"uint24","indexed":false,"internalType":"uint24"}],"anonymous":false},{"type":"event","name":"Unpaused","inputs":[{"name":"account","type":"address","indexed":false,"internalType":"address"}],"anonymous":false},{"type":"event","name":"Upgraded","inputs":[{"name":"implementation","type":"address","indexed":true,"internalType":"address"}],"anonymous":false},{"type":"error","name":"AccessControlBadConfirmation","inputs":[]},{"type":"error","name":"AccessControlUnauthorizedAccount","inputs":[{"name":"account","type":"address","internalType":"address"},{"name":"neededRole","type":"bytes32","internalType":"bytes32"}]},{"type":"error","name":"AddressEmptyCode","inputs":[{"name":"target","type":"address","internalType":"address"}]},{"type":"error","name":"ERC1967InvalidImplementation","inputs":[{"name":"implementation","type":"address","internalType":"address"}]},{"type":"error","name":"ERC1967NonPayable","inputs":[]},{"type":"error","name":"EnforcedPause","inputs":[]},{"type":"error","name":"ExpectedPause","inputs":[]},{"type":"error","name":"FailedCall","inputs":[]},{"type":"error","name":"InvalidInitialization","inputs":[]},{"type":"error","name":"NotInitializing","inputs":[]},{"type":"error","name":"ReentrancyGuardReentrantCall","inputs":[]},{"type":"error","name":"SafeERC20FailedOperation","inputs":[{"name":"token","type":"address","internalType":"address"}]},{"type":"error","name":"UUPSUnauthorizedCallContext","inputs":[]},{"type":"error","name":"UUPSUnsupportedProxiableUUID","inputs":[{"name":"slot","type":"bytes32","internalType":"bytes32"}]}],"bytecode":{"object":"0x60a060405230608052348015610013575f80fd5b5061001c610021565b6100d3565b7ff0c57e16840df040f15088dc2f81fe391c3923bec73e23a9662efc9c229c6a00805468010000000000000000900460ff16156100715760405163f92ee8a960e01b815260040160405180910390fd5b80546001600160401b03908116146100d05780546001600160401b0319166001600160401b0390811782556040519081527fc7f505b2f371ae2175ee4913f4499e1f2633a7b5936321eed1cdaeb6115181d29060200160405180910390a15b50565b6080516144856100f95f395f8181612e9601528181612ebf015261300d01526144855ff3fe608060405260043610610254575f3560e01c80636f60a6dd1161013f578063c272a435116100b3578063d547741f11610078578063d547741f14610815578063e63ab1e914610834578063eb69ec5b14610867578063f288a2e214610886578063f4a695ff146108a6578063f54ab359146108c5575f80fd5b8063c272a43514610785578063c31c9c07146107a4578063c4aa7395146107c2578063cab666d0146107d7578063d3127e63146107f6575f80fd5b8063a26ed59311610104578063a26ed5931461067c578063a2beceaa146106b0578063a61165bf146106d0578063ad3cb1cc1461070a578063ae920b0614610747578063b09789d814610766575f80fd5b80636f60a6dd146105fc5780638456cb591461061757806391d148541461062b5780639eae8aac1461064a578063a217fddf14610669575f80fd5b80632f2ff15d116101d6578063462846431161019b57806346284643146104b05780634f1ef286146104f457806352d1902d14610507578063551512de1461051b57806355f575101461053a5780635c975abb146105d9575f80fd5b80632f2ff15d1461042a578063358764761461044957806336568abe146104685780633f4ba83a146104875780634213bc8f1461049b575f80fd5b80631c1276c31161021c5780631c1276c31461038d57806323e27a64146103ae578063248a9ca3146103cd57806325384fd8146103ec5780632630c12f1461040b575f80fd5b806301ffc9a7146102585780630bece79c1461028c5780630bf7dbb2146102c357806314ffaf3e146102e657806316c1973914610314575b5f80fd5b348015610263575f80fd5b50610277610272366004613cf5565b6108da565b60405190151581526020015b60405180910390f35b348015610297575f80fd5b506001546102ab906001600160a01b031681565b6040516001600160a01b039091168152602001610283565b3480156102ce575f80fd5b506102d860065481565b604051908152602001610283565b3480156102f1575f80fd5b50610277610300366004613d32565b600b6020525f908152604090205460ff1681565b34801561031f575f80fd5b5061033361032e366004613d32565b610910565b604051610283919081516001600160a01b031681526020808301519082015260408083015190820152606080830151908201526080808301519082015260a0828101519082015260c0918201519181019190915260e00190565b348015610398575f80fd5b506103ac6103a7366004613d5d565b6109c0565b005b3480156103b9575f80fd5b506103ac6103c8366004613d32565b610b14565b3480156103d8575f80fd5b506102d86103e7366004613d8e565b610b74565b3480156103f7575f80fd5b506002546102ab906001600160a01b031681565b348015610416575f80fd5b506003546102ab906001600160a01b031681565b348015610435575f80fd5b506103ac610444366004613da5565b610b94565b348015610454575f80fd5b506103ac610463366004613dc6565b610bb6565b348015610473575f80fd5b506103ac610482366004613da5565b610f9f565b348015610492575f80fd5b506103ac610fd7565b3480156104a6575f80fd5b506102d860055481565b3480156104bb575f80fd5b506104e06104ca366004613d32565b600a6020525f908152604090205462ffffff1681565b60405162ffffff9091168152602001610283565b6103ac610502366004613e5b565b610fec565b348015610512575f80fd5b506102d861100b565b348015610526575f80fd5b506103ac610535366004613f1f565b611026565b348015610545575f80fd5b5061059a610554366004613d32565b600c6020525f908152604090208054600182015460028301546003840154600485015460058601546006909601546001600160a01b039095169593949293919290919087565b604080516001600160a01b0390981688526020880196909652948601939093526060850191909152608084015260a083015260c082015260e001610283565b3480156105e4575f80fd5b505f805160206144108339815191525460ff16610277565b348015610607575f80fd5b506007546104e09062ffffff1681565b348015610622575f80fd5b506103ac611171565b348015610636575f80fd5b50610277610645366004613da5565b6111a3565b348015610655575f80fd5b506102d8610664366004613d8e565b6111d9565b348015610674575f80fd5b506102d85f81565b348015610687575f80fd5b5061069b610696366004613f58565b6115bd565b60408051928352602083019190915201610283565b3480156106bb575f80fd5b506102d85f805160206143b083398151915281565b3480156106db575f80fd5b506106ef6106ea366004613f88565b611789565b60408051938452602084019290925290820152606001610283565b348015610715575f80fd5b5061073a604051806040016040528060058152602001640352e302e360dc1b81525081565b6040516102839190613fce565b348015610752575f80fd5b506103ac610761366004614003565b611ce1565b348015610771575f80fd5b506103ac61078036600461402b565b612334565b348015610790575f80fd5b506102d861079f366004613d32565b6124d1565b3480156107af575f80fd5b505f546102ab906001600160a01b031681565b3480156107cd575f80fd5b506102d860085481565b3480156107e2575f80fd5b506004546102ab906001600160a01b031681565b348015610801575f80fd5b506103ac610810366004613d8e565b61253d565b348015610820575f80fd5b506103ac61082f366004613da5565b6125ef565b34801561083f575f80fd5b506102d87f65d7a28e3265b37a6474929f336521b332c1681b933f6cb9f3376673440d862a81565b348015610872575f80fd5b506102d8610881366004613d32565b61260b565b348015610891575f80fd5b506102d85f8051602061439083398151915281565b3480156108b1575f80fd5b506102d86108c0366004614065565b6126aa565b3480156108d0575f80fd5b506102d860095481565b5f6001600160e01b03198216637965db0b60e01b148061090a57506301ffc9a760e01b6001600160e01b03198316145b92915050565b6109526040518060e001604052805f6001600160a01b031681526020015f81526020015f81526020015f81526020015f81526020015f81526020015f81525090565b506001600160a01b039081165f908152600c6020908152604091829020825160e081018452815490941684526001810154918401919091526002810154918301919091526003810154606083015260048101546080830152600581015460a08301526006015460c082015290565b5f805160206143b08339815191526109d781612cbf565b6001600160a01b038316610a225760405162461bcd60e51b815260206004820152600d60248201526c24a72b20a624a22faa27a5a2a760991b60448201526064015b60405180910390fd5b8162ffffff1660641480610a3c57508162ffffff166101f4145b80610a4d57508162ffffff16610bb8145b80610a5e57508162ffffff16612710145b610a9d5760405162461bcd60e51b815260206004820152601060248201526f24a72b20a624a22fa322a2afaa24a2a960811b6044820152606401610a19565b6001600160a01b0383165f818152600b60209081526040808320805460ff19166001179055600a825291829020805462ffffff871662ffffff19909116811790915591519182527f302ef2dc908ca81f40825b1491cc6df1d795f69868c824651c1092c5f79859e7910160405180910390a2505050565b5f805160206143b0833981519152610b2b81612cbf565b6001600160a01b0382165f818152600b6020526040808220805460ff19169055517f1fac2d788f45089e4f2b9e3484b1163143fdeab5eb480ab9a44b459d2dc476a29190a25050565b5f9081525f805160206143f0833981519152602052604090206001015490565b610b9d82610b74565b610ba681612cbf565b610bb08383612cc9565b50505050565b5f610bbf612d71565b805490915060ff600160401b820416159067ffffffffffffffff165f81158015610be65750825b90505f8267ffffffffffffffff166001148015610c025750303b155b905081158015610c10575080155b15610c2e5760405163f92ee8a960e01b815260040160405180910390fd5b845467ffffffffffffffff191660011785558315610c5857845460ff60401b1916600160401b1785555b6001600160a01b038c16610c9f5760405162461bcd60e51b815260206004820152600e60248201526d24a72b20a624a22fa927aaaa22a960911b6044820152606401610a19565b6001600160a01b038b16610ce55760405162461bcd60e51b815260206004820152600d60248201526c1253959053125117d590555315609a1b6044820152606401610a19565b6001600160a01b038a16610d2c5760405162461bcd60e51b815260206004820152600e60248201526d494e56414c49445f424f52524f5760901b6044820152606401610a19565b6001600160a01b038916610d735760405162461bcd60e51b815260206004820152600e60248201526d494e56414c49445f4f5241434c4560901b6044820152606401610a19565b6001600160a01b038816610db85760405162461bcd60e51b815260206004820152600c60248201526b1253959053125117d35554d160a21b6044820152606401610a19565b6001600160a01b038716610dfe5760405162461bcd60e51b815260206004820152600d60248201526c24a72b20a624a22fa0a226a4a760991b6044820152606401610a19565b6001600160a01b038616610e475760405162461bcd60e51b815260206004820152601060248201526f494e56414c49445f54494d454c4f434b60801b6044820152606401610a19565b610e4f612d99565b610e57612da3565b610e5f612d99565b610e67612d99565b5f80546001600160a01b03808f166001600160a01b0319928316178355600180548f8316908416179055600280548e8316908416179055600380548d831690841617905560048054918c1691909216179055600a60055568056bc75e2d631000006006556007805462ffffff1916610bb81790556064600855601e600955610eef9088612cc9565b50610f075f805160206143b083398151915288612cc9565b50610f327f65d7a28e3265b37a6474929f336521b332c1681b933f6cb9f3376673440d862a88612cc9565b50610f4a5f8051602061439083398151915287612cc9565b508315610f9157845460ff60401b19168555604051600181527fc7f505b2f371ae2175ee4913f4499e1f2633a7b5936321eed1cdaeb6115181d29060200160405180910390a15b505050505050505050505050565b6001600160a01b0381163314610fc85760405163334bd91960e11b815260040160405180910390fd5b610fd28282612db3565b505050565b5f610fe181612cbf565b610fe9612e2c565b50565b610ff4612e8b565b610ffd82612f2f565b6110078282612f46565b5050565b5f611014613002565b505f805160206143d083398151915290565b5f8051602061439083398151915261103d81612cbf565b6001600160a01b0384166110835760405162461bcd60e51b815260206004820152600d60248201526c24a72b20a624a22faa27a5a2a760991b6044820152606401610a19565b5f83116110c05760405162461bcd60e51b815260206004820152600b60248201526a16915493d7d05353d5539560aa1b6044820152606401610a19565b6001600160a01b03821661110a5760405162461bcd60e51b81526020600482015260116024820152701253959053125117d49150d25412515395607a1b6044820152606401610a19565b61111e6001600160a01b038516838561304b565b816001600160a01b0316846001600160a01b03167f705bce6bcba14b7258454b7a309606c23fb8bc0fb94ec1765a4c0a12d7c758c78560405161116391815260200190565b60405180910390a350505050565b7f65d7a28e3265b37a6474929f336521b332c1681b933f6cb9f3376673440d862a61119b81612cbf565b610fe96130a3565b5f9182525f805160206143f0833981519152602090815260408084206001600160a01b0393909316845291905290205460ff1690565b5f6111e26130eb565b335f908152600c6020526040902060028101546112115760405162461bcd60e51b8152600401610a199061408e565b8054600254604051631ff517ff60e01b81523360048201526001600160a01b03928316925f921690631ff517ff90602401602060405180830381865afa15801561125d573d5f803e3d5ffd5b505050506040513d601f19601f8201168201806040525081019061128191906140b3565b9050801561139b57808510156112d95760405162461bcd60e51b815260206004820152601a60248201527f494e53554646494349454e545f4d5553445f50524f56494445440000000000006044820152606401610a19565b6004546112f1906001600160a01b0316333088613122565b60025460045461130e916001600160a01b0391821691168361315b565b6002546040516311d13b1160e11b81526001600160a01b03909116906323a276229061134090339085906004016140ca565b5f604051808303815f87803b158015611357575f80fd5b505af1158015611369573d5f803e3d5ffd5b505050505f818661137a91906140f7565b9050801561139957600454611399906001600160a01b0316338361304b565b505b6001546040516347b00fb360e11b81523360048201526001600160a01b0384811660248301525f921690638f601f6690604401602060405180830381865afa1580156113e9573d5f803e3d5ffd5b505050506040513d601f19601f8201168201806040525081019061140d91906140b3565b9050801561147b576001805460405163071ea3e360e01b81526001600160a01b039091169163071ea3e39161144d9133918891879184919060040161410a565b5f604051808303815f87803b158015611464575f80fd5b505af1158015611476573d5f803e3d5ffd5b505050505b6040516370a0823160e01b81523060048201525f906001600160a01b038516906370a0823190602401602060405180830381865afa1580156114bf573d5f803e3d5ffd5b505050506040513d601f19601f820116820180604052508101906114e391906140b3565b905080156114ff576114ff6001600160a01b038516338361304b565b611509818361413d565b60408051828152602081018690529081018990529096506001600160a01b0385169033907f8729f84210551f1aed05435f51e2ccc18780d9ac85446bb7284d553c947e7c809060600160405180910390a35050335f908152600c6020526040812080546001600160a01b03191681556001810182905560028101829055600381018290556004810182905560058101829055600601555050506115b860015f8051602061443083398151915255565b919050565b60015460405163e48a5f7b60e01b81526001600160a01b0385811660048301525f92839283928392169063e48a5f7b90602401608060405180830381865afa15801561160b573d5f803e3d5ffd5b505050506040513d601f19601f8201168201806040525081019061162f9190614150565b50509150915081611647575f80935093505050611781565b80865f805b600554811015611779575f8a61166385600a614190565b61166d91906141a7565b905089811061167c5750611779565b5f60035f9054906101000a90046001600160a01b03166001600160a01b031663b7f876448e876040518363ffffffff1660e01b81526004016116bf9291906140ca565b602060405180830381865afa1580156116da573d5f803e3d5ffd5b505050506040513d601f19601f820116820180604052508101906116fe91906140b3565b90505f8461271061170f8985614190565b61171991906141a7565b61172391906140f7565b905060065481101561173757505050611779565b5f6117428f836131fe565b905061174e818861413d565b965061175a828761413d565b95508b611766816141c6565b9c50506001909401935061164c92505050565b509450505050505b935093915050565b5f805f6117946130eb565b61179c61331a565b4284116117de5760405162461bcd60e51b815260206004820152601060248201526f455850495245445f444541444c494e4560801b6044820152606401610a19565b6001600160a01b0389165f908152600b602052604090205460ff166118395760405162461bcd60e51b81526020600482015260116024820152701513d2d15397d393d517d1539050931151607a1b6044820152606401610a19565b5f88116118795760405162461bcd60e51b815260206004820152600e60248201526d1253959053125117d05353d5539560921b6044820152606401610a19565b600a8710156118bd5760405162461bcd60e51b815260206004820152601060248201526f4c455645524147455f544f4f5f4c4f5760801b6044820152606401610a19565b335f908152600c60205260409020600201541561190e5760405162461bcd60e51b815260206004820152600f60248201526e504f534954494f4e5f45584953545360881b6044820152606401610a19565b60015460405163e48a5f7b60e01b81526001600160a01b038b811660048301525f92839291169063e48a5f7b90602401608060405180830381865afa158015611959573d5f803e3d5ffd5b505050506040513d601f19601f8201168201806040525081019061197d9190614150565b505091509150816119c95760405162461bcd60e51b815260206004820152601660248201527510d3d31310551154905317d393d517d153905093115160521b6044820152606401610a19565b5f6119d6826127106140f7565b6119e390620186a06141a7565b90505f60095482106119f7576009546119f9565b815b9050808b1115611a425760405162461bcd60e51b81526020600482015260146024820152730988aac8aa4828e8abe8ab0868a8a88a6be9a82b60631b6044820152606401610a19565b50611a5c925050506001600160a01b038a1633308b613122565b600154611a76906001600160a01b038b811691168a61315b565b60015460405163b3db428b60e01b81523360048201526001600160a01b038b81166024830152604482018b90529091169063b3db428b906064015f604051808303815f87803b158015611ac7575f80fd5b505af1158015611ad9573d5f803e3d5ffd5b505050505f808711611aed57600554611aef565b865b9050600554811115611b0057506005545b5f8615611b0d5786611b11565b6008545b9050600854811115611b615760405162461bcd60e51b81526020600482015260196024820152780aaa68aa4bea69892a0a0828e8abe8ab0868a8a88a6be9a82b603b1b6044820152606401610a19565b611b70338c8c8c86868c61334a565b8095508196508297505050506040518060e001604052808c6001600160a01b031681526020018b81526020018681526020018581526020018481526020018a815260200142815250600c5f336001600160a01b03166001600160a01b031681526020019081526020015f205f820151815f015f6101000a8154816001600160a01b0302191690836001600160a01b031602179055506020820151816001015560408201518160020155606082015181600301556080820151816004015560a0820151816005015560c082015181600601559050505f8a86600a611c539190614190565b611c5d91906141a7565b604080518d81526020810189905290810187905260608101869052608081018290529091506001600160a01b038d169033907f223299f817ca1801d60b5d9826902fbdced9c1bf1341fa90fe953ec5645503ba9060a00160405180910390a3505050611cd560015f8051602061443083398151915255565b96509650969350505050565b5f611ceb81612cbf565b611cf36130eb565b6107d0821115611d325760405162461bcd60e51b815260206004820152600a60248201526913505617cc8c17d410d560b21b6044820152606401610a19565b6001600160a01b0383165f908152600c602052604090206002810154611d6a5760405162461bcd60e51b8152600401610a199061408e565b80546040516370a0823160e01b81523060048201526001600160a01b03909116905f9082906370a0823190602401602060405180830381865afa158015611db3573d5f803e3d5ffd5b505050506040513d601f19601f82011682018060405250810190611dd791906140b3565b600480546040516370a0823160e01b815230928101929092529192505f916001600160a01b0316906370a0823190602401602060405180830381865afa158015611e23573d5f803e3d5ffd5b505050506040513d601f19601f82011682018060405250810190611e4791906140b3565b6001546040516347b00fb360e11b81526001600160a01b038a8116600483015286811660248301529293505f9290911690638f601f6690604401602060405180830381865afa158015611e9c573d5f803e3d5ffd5b505050506040513d601f19601f82011682018060405250810190611ec091906140b3565b90508015611f2e576001805460405163071ea3e360e01b81526001600160a01b039091169163071ea3e391611f00918c918991879130919060040161410a565b5f604051808303815f87803b158015611f17575f80fd5b505af1158015611f29573d5f803e3d5ffd5b505050505b600254604051631ff517ff60e01b81526001600160a01b038a811660048301525f921690631ff517ff90602401602060405180830381865afa158015611f76573d5f803e3d5ffd5b505050506040513d601f19601f82011682018060405250810190611f9a91906140b3565b90505f8082118015611fab57505f83115b1561211b575f611fc887858c611fc342610e1061413d565b6135c0565b90508015612115575f838210611fde5783611fe0565b815b600254600454919250612000916001600160a01b0390811691168361315b565b6002546040516311d13b1160e11b81526001600160a01b03909116906323a2762290612032908f9085906004016140ca565b5f604051808303815f87803b158015612049575f80fd5b505af192505050801561205a575060015b61210e5760025460405163807d3f1d60e01b81526001600160a01b039091169063807d3f1d90612090908f9085906004016140ca565b5f604051808303815f87803b1580156120a7575f80fd5b505af19250505080156120b8575060015b6121055760408051828152602081018490526001600160a01b038e16917f5313396e11e666f46254aeab0800891795f321d17f68849558f3bda3d7856673910160405180910390a2612113565b60019250612113565b600192505b505b50612126565b815f03612126575060015b8015612277576040516370a0823160e01b81523060048201525f906001600160a01b038816906370a0823190602401602060405180830381865afa158015612170573d5f803e3d5ffd5b505050506040513d601f19601f8201168201806040525081019061219491906140b3565b90505f8682116121a4575f6121ae565b6121ae87836140f7565b905080156121ca576121ca6001600160a01b0389168d8361304b565b600480546040516370a0823160e01b815230928101929092525f916001600160a01b03909116906370a0823190602401602060405180830381865afa158015612215573d5f803e3d5ffd5b505050506040513d601f19601f8201168201806040525081019061223991906140b3565b90505f878211612249575f612253565b61225388836140f7565b9050801561227257600454612272906001600160a01b03168f8361304b565b505050505b856001600160a01b03168a6001600160a01b03167fa50e37d33076a6fe8012434e43b10e680649c52738c9e3e249e336bf5ccd3c1c5f855f6040516122cf939291909283526020830191909152604082015260600190565b60405180910390a35050506001600160a01b0387165f908152600c6020526040812080546001600160a01b031916815560018101829055600281018290556003810182905560048101829055600581018290556006015550610fd292506131eb915050565b5f805160206143b083398151915261234b81612cbf565b5f8511801561235b575060148511155b61239b5760405162461bcd60e51b8152602060048201526011602482015270494e56414c49445f4d41585f4c4f4f505360781b6044820152606401610a19565b6101f48211156123e15760405162461bcd60e51b81526020600482015260116024820152700a69892a0a0828e8abea89e9ebe90928e9607b1b6044820152606401610a19565b8262ffffff16606414806123fb57508262ffffff166101f4145b8061240c57508262ffffff16610bb8145b8061241d57508262ffffff16612710145b61245c5760405162461bcd60e51b815260206004820152601060248201526f24a72b20a624a22fa322a2afaa24a2a960811b6044820152606401610a19565b600585905560068490556007805462ffffff191662ffffff85169081179091556008839055604080518781526020810187905290810191909152606081018390527f5fb8f8a1a7d8752cbcffaa22bf823f658a7b9b9c05f4aa6d682e8eed5c1b56e29060800160405180910390a15050505050565b600254604051631ff517ff60e01b81526001600160a01b0383811660048301525f921690631ff517ff90602401602060405180830381865afa158015612519573d5f803e3d5ffd5b505050506040513d601f19601f8201168201806040525081019061090a91906140b3565b5f805160206143b083398151915261255481612cbf565b600a8210158015612566575060288211155b6125a95760405162461bcd60e51b8152602060048201526014602482015273494e56414c49445f4d41585f4c4556455241474560601b6044820152606401610a19565b600980549083905560408051828152602081018590527fc40265c19866109dc8f33bf7b08b628b97728ad445b658e40153023e3800255c910160405180910390a1505050565b6125f882610b74565b61260181612cbf565b610bb08383612db3565b6001600160a01b038082165f908152600c60209081526040808320815160e0810183528154909516855260018101549285018390526002810154918501919091526003810154606085015260048101546080850152600581015460a08501526006015460c0840152909190820361268457505f92915050565b6020810151604082015161269990600a614190565b6126a391906141a7565b9392505050565b5f6126b36130eb565b4282116126f55760405162461bcd60e51b815260206004820152601060248201526f455850495245445f444541444c494e4560801b6044820152606401610a19565b335f908152600c6020526040902060028101546127245760405162461bcd60e51b8152600401610a199061408e565b8054600254604051631ff517ff60e01b81523360048201526001600160a01b03928316925f921690631ff517ff90602401602060405180830381865afa158015612770573d5f803e3d5ffd5b505050506040513d601f19601f8201168201806040525081019061279491906140b3565b6001546040516347b00fb360e11b81523360048201526001600160a01b0385811660248301529293505f9290911690638f601f6690604401602060405180830381865afa1580156127e7573d5f803e3d5ffd5b505050506040513d601f19601f8201168201806040525081019061280b91906140b3565b90505f871561281a578761281e565b6008545b905060085481111561286e5760405162461bcd60e51b81526020600482015260196024820152780aaa68aa4bea69892a0a0828e8abe8ab0868a8a88a6be9a82b603b1b6044820152606401610a19565b8215612a37575f61287f85856131fe565b905061271061288e838261413d565b6128989083614190565b6128a291906141a7565b9050828111156128af5750815b6001805460405163071ea3e360e01b81526001600160a01b039091169163071ea3e3916128e79133918a91879130919060040161410a565b5f604051808303815f87803b1580156128fe575f80fd5b505af1158015612910573d5f803e3d5ffd5b505050505f6129218683858c6135c0565b9050848110156129735760405162461bcd60e51b815260206004820152601b60248201527f494e53554646494349454e545f4d5553445f46524f4d5f5357415000000000006044820152606401610a19565b600254600454612990916001600160a01b0391821691168761315b565b6002546040516311d13b1160e11b81526001600160a01b03909116906323a27622906129c290339089906004016140ca565b5f604051808303815f87803b1580156129d9575f80fd5b505af11580156129eb573d5f803e3d5ffd5b505050505f85826129fc91906140f7565b90508015612a33575f612a118883878e6137b7565b9050805f03612a3157600454612a31906001600160a01b0316338461304b565b505b5050505b6001546040516347b00fb360e11b81523360048201526001600160a01b0386811660248301525f921690638f601f6690604401602060405180830381865afa158015612a85573d5f803e3d5ffd5b505050506040513d601f19601f82011682018060405250810190612aa991906140b3565b90508015612b17576001805460405163071ea3e360e01b81526001600160a01b039091169163071ea3e391612ae99133918a91879184919060040161410a565b5f604051808303815f87803b158015612b00575f80fd5b505af1158015612b12573d5f803e3d5ffd5b505050505b6040516370a0823160e01b81523060048201525f906001600160a01b038716906370a0823190602401602060405180830381865afa158015612b5b573d5f803e3d5ffd5b505050506040513d601f19601f82011682018060405250810190612b7f91906140b3565b90508015612ba857612b9b6001600160a01b038716338361304b565b612ba5818361413d565b91505b8a821015612bec5760405162461bcd60e51b815260206004820152601160248201527014d31254141051d157d15610d151511151607a1b6044820152606401610a19565b8197505f876001015489612c0091906141de565b90506001600160a01b038716337fa50e37d33076a6fe8012434e43b10e680649c52738c9e3e249e336bf5ccd3c1c8b895f861215612c3e575f612c40565b855b6040805193845260208401929092529082015260600160405180910390a35050335f908152600c6020526040812080546001600160a01b03191681556001810182905560028101829055600381018290556004810182905560058101829055600601555050505050506126a360015f8051602061443083398151915255565b610fe9813361392c565b5f5f805160206143f0833981519152612ce284846111a3565b612d61575f848152602082815260408083206001600160a01b03871684529091529020805460ff19166001179055612d173390565b6001600160a01b0316836001600160a01b0316857f2f8788117e7eff1d82e926ec794901d17c78024a50270940304540a733656f0d60405160405180910390a4600191505061090a565b5f91505061090a565b5092915050565b5f807ff0c57e16840df040f15088dc2f81fe391c3923bec73e23a9662efc9c229c6a0061090a565b612da1613957565b565b612dab613957565b612da161397c565b5f5f805160206143f0833981519152612dcc84846111a3565b15612d61575f848152602082815260408083206001600160a01b0387168085529252808320805460ff1916905551339287917ff6391f5c32d9c69d2a47ea670b442974b53935d1edc7fd64eb21e047a839171b9190a4600191505061090a565b612e34613984565b5f80516020614410833981519152805460ff191681557f5db9ee0a495bf2e6ff9c91a7834c1ba4fdd244a5e8aa4e537bd38aeae4b073aa335b6040516001600160a01b03909116815260200160405180910390a150565b306001600160a01b037f0000000000000000000000000000000000000000000000000000000000000000161480612f1157507f00000000000000000000000000000000000000000000000000000000000000006001600160a01b0316612f055f805160206143d0833981519152546001600160a01b031690565b6001600160a01b031614155b15612da15760405163703e46dd60e11b815260040160405180910390fd5b5f8051602061439083398151915261100781612cbf565b816001600160a01b03166352d1902d6040518163ffffffff1660e01b8152600401602060405180830381865afa925050508015612fa0575060408051601f3d908101601f19168201909252612f9d918101906140b3565b60015b612fc857604051634c9c8ce360e01b81526001600160a01b0383166004820152602401610a19565b5f805160206143d08339815191528114612ff857604051632a87526960e21b815260048101829052602401610a19565b610fd283836139b3565b306001600160a01b037f00000000000000000000000000000000000000000000000000000000000000001614612da15760405163703e46dd60e11b815260040160405180910390fd5b610fd283846001600160a01b031663a9059cbb85856040516024016130719291906140ca565b604051602081830303815290604052915060e01b6020820180516001600160e01b038381831617835250505050613a08565b6130ab61331a565b5f80516020614410833981519152805460ff191660011781557f62e78cea01bee320cd4e420270b5ea74000d11b0c9f74754ebdbfc544b05a25833612e6d565b5f8051602061443083398151915280546001190161311c57604051633ee5aeb560e01b815260040160405180910390fd5b60029055565b6040516001600160a01b038481166024830152838116604483015260648201839052610bb09186918216906323b872dd90608401613071565b5f836001600160a01b031663095ea7b3848460405160240161317e9291906140ca565b604051602081830303815290604052915060e01b6020820180516001600160e01b03838183161783525050505090506131b78482613a74565b610bb0576131e184856001600160a01b031663095ea7b3865f6040516024016130719291906140ca565b610bb08482613a08565b60015f8051602061443083398151915255565b5f80836001600160a01b031663313ce5676040518163ffffffff1660e01b8152600401602060405180830381865afa15801561323c573d5f803e3d5ffd5b505050506040513d601f19601f8201168201806040525081019061326091906141fd565b60ff1690505f61327182600a6142f8565b600354604051632dfe1d9160e21b81529192505f916001600160a01b039091169063b7f87644906132a890899086906004016140ca565b602060405180830381865afa1580156132c3573d5f803e3d5ffd5b505050506040513d601f19601f820116820180604052508101906132e791906140b3565b9050805f036132fb575f935050505061090a565b806133068387614190565b61331091906141a7565b9695505050505050565b5f805160206144108339815191525460ff1615612da15760405163d93c066560e01b815260040160405180910390fd5b845f80805b868110156135b257878961336486600a614190565b61336e91906141a7565b10156135b2576002546040516397a9d45760e01b81526001600160a01b038d811660048301525f9283929116906397a9d45790602401602060405180830381865afa1580156133bf573d5f803e3d5ffd5b505050506040513d601f19601f820116820180604052508101906133e391906140b3565b90506006548110156133f65750506135b2565b6134028b878c8f613ab9565b9150848211613411575f61341b565b61341b85836140f7565b915080821115613429578091505b60065482101561343a5750506135b2565b5060025460405163e9a1183d60e01b81526001600160a01b039091169063e9a1183d9061346d908f9085906004016140ca565b5f604051808303815f87803b158015613484575f80fd5b505af1158015613496573d5f803e3d5ffd5b5050505080846134a6919061413d565b93505f6134b58c838a8a6137b7565b90505f81116135065760405162461bcd60e51b815260206004820152601960248201527f535741505f4641494c45445f4f525048414e45445f44454254000000000000006044820152606401610a19565b600154613520906001600160a01b038e811691168361315b565b60015460405163b3db428b60e01b81526001600160a01b038f811660048301528e81166024830152604482018490529091169063b3db428b906064015f604051808303815f87803b158015613573575f80fd5b505af1158015613585573d5f803e3d5ffd5b505050508086613595919061413d565b9550836135a1816141c6565b9450506001909201915061334f9050565b509750975097945050505050565b5f835f036135cf57505f6137af565b600354604051632dfe1d9160e21b81525f916001600160a01b03169063b7f876449061360190899089906004016140ca565b602060405180830381865afa15801561361c573d5f803e3d5ffd5b505050506040513d601f19601f8201168201806040525081019061364091906140b3565b90505f61271061365086826140f7565b61365a9084614190565b61366491906141a7565b5f54909150613680906001600160a01b0389811691168861315b565b6001600160a01b0387165f908152600a602052604081205462ffffff16908190036136af575060075462ffffff165b5f805460408051610100810182526001600160a01b038c81168252600480548216602084015262ffffff871683850152306060840152608083018b905260a083018d905260c0830188905260e0830195909552915163414bf38960e01b8152919092169263414bf3899261372592909101614303565b6020604051808303815f875af1158015613741573d5f803e3d5ffd5b505050506040513d601f19601f8201168201806040525081019061376591906140b3565b93505f84116137ab5760405162461bcd60e51b8152602060048201526012602482015271535741505f52455455524e45445f5a45524f60701b6044820152606401610a19565b5050505b949350505050565b5f835f036137c657505f6137af565b5f6137d186866131fe565b90505f6127106137e186826140f7565b6137eb9084614190565b6137f591906141a7565b5f54600454919250613814916001600160a01b0390811691168861315b565b6001600160a01b0387165f908152600a602052604081205462ffffff1690819003613843575060075462ffffff165b5f80546040805161010081018252600480546001600160a01b0390811683528d8116602084015262ffffff871683850152306060840152608083018b905260a083018d905260c0830188905260e0830195909552915163414bf38960e01b8152939092169263414bf389926138ba92909101614303565b6020604051808303815f875af19250505080156138f4575060408051601f3d908101601f191682019092526138f1918101906140b3565b60015b613920575f8054600454613918926001600160a01b0391821692919091169061315b565b5f93506137ab565b98975050505050505050565b61393682826111a3565b61100757808260405163e2517d3f60e01b8152600401610a199291906140ca565b61395f613b64565b612da157604051631afcd79f60e31b815260040160405180910390fd5b6131eb613957565b5f805160206144108339815191525460ff16612da157604051638dfc202b60e01b815260040160405180910390fd5b6139bc82613b7d565b6040516001600160a01b038316907fbc7cd75a20ee27fd9adebab32041f755214dbc6bffa90cc0225b39da2e5c2d3b905f90a2805115613a0057610fd28282613be0565b611007613c52565b5f8060205f8451602086015f885af180613a27576040513d5f823e3d81fd5b50505f513d91508115613a3e578060011415613a4b565b6001600160a01b0384163b155b15610bb057604051635274afe760e01b81526001600160a01b0385166004820152602401610a19565b5f805f8060205f8651602088015f8a5af192503d91505f51905082801561331057508115613aa55780600114613310565b50505050506001600160a01b03163b151590565b5f80600a613ac78588614190565b613ad191906141a7565b9050808510613ae3575f9150506137af565b5f613aee86836140f7565b600354604051632dfe1d9160e21b81529192505f916001600160a01b039091169063b7f8764490613b2590889086906004016140ca565b602060405180830381865afa158015613b40573d5f803e3d5ffd5b505050506040513d601f19601f8201168201806040525081019061392091906140b3565b5f613b6d612d71565b54600160401b900460ff16919050565b806001600160a01b03163b5f03613bb257604051634c9c8ce360e01b81526001600160a01b0382166004820152602401610a19565b5f805160206143d083398151915280546001600160a01b0319166001600160a01b0392909216919091179055565b60605f80846001600160a01b031684604051613bfc9190614379565b5f60405180830381855af49150503d805f8114613c34576040519150601f19603f3d011682016040523d82523d5f602084013e613c39565b606091505b5091509150613c49858383613c71565b95945050505050565b3415612da15760405163b398979f60e01b815260040160405180910390fd5b606082613c8657613c8182613ccd565b6126a3565b8151158015613c9d57506001600160a01b0384163b155b15613cc657604051639996b31560e01b81526001600160a01b0385166004820152602401610a19565b50806126a3565b805115613cdc57805160208201fd5b60405163d6bda27560e01b815260040160405180910390fd5b5f60208284031215613d05575f80fd5b81356001600160e01b0319811681146126a3575f80fd5b80356001600160a01b03811681146115b8575f80fd5b5f60208284031215613d42575f80fd5b6126a382613d1c565b803562ffffff811681146115b8575f80fd5b5f8060408385031215613d6e575f80fd5b613d7783613d1c565b9150613d8560208401613d4b565b90509250929050565b5f60208284031215613d9e575f80fd5b5035919050565b5f8060408385031215613db6575f80fd5b82359150613d8560208401613d1c565b5f805f805f805f60e0888a031215613ddc575f80fd5b613de588613d1c565b9650613df360208901613d1c565b9550613e0160408901613d1c565b9450613e0f60608901613d1c565b9350613e1d60808901613d1c565b9250613e2b60a08901613d1c565b9150613e3960c08901613d1c565b905092959891949750929550565b634e487b7160e01b5f52604160045260245ffd5b5f8060408385031215613e6c575f80fd5b613e7583613d1c565b9150602083013567ffffffffffffffff811115613e90575f80fd5b8301601f81018513613ea0575f80fd5b803567ffffffffffffffff811115613eba57613eba613e47565b604051601f8201601f19908116603f0116810167ffffffffffffffff81118282101715613ee957613ee9613e47565b604052818152828201602001871015613f00575f80fd5b816020840160208301375f602083830101528093505050509250929050565b5f805f60608486031215613f31575f80fd5b613f3a84613d1c565b925060208401359150613f4f60408501613d1c565b90509250925092565b5f805f60608486031215613f6a575f80fd5b613f7384613d1c565b95602085013595506040909401359392505050565b5f805f805f8060c08789031215613f9d575f80fd5b613fa687613d1c565b9860208801359850604088013597606081013597506080810135965060a00135945092505050565b602081525f82518060208401528060208501604085015e5f604082850101526040601f19601f83011684010191505092915050565b5f8060408385031215614014575f80fd5b61401d83613d1c565b946020939093013593505050565b5f805f806080858703121561403e575f80fd5b843593506020850135925061405560408601613d4b565b9396929550929360600135925050565b5f805f60608486031215614077575f80fd5b505081359360208301359350604090920135919050565b6020808252600b908201526a2727afa827a9a4aa24a7a760a91b604082015260600190565b5f602082840312156140c3575f80fd5b5051919050565b6001600160a01b03929092168252602082015260400190565b634e487b7160e01b5f52601160045260245ffd5b8181038181111561090a5761090a6140e3565b6001600160a01b039586168152938516602085015260408401929092529092166060820152901515608082015260a00190565b8082018082111561090a5761090a6140e3565b5f805f8060808587031215614163575f80fd5b84518015158114614172575f80fd5b60208601516040870151606090970151919890975090945092505050565b808202811582820484141761090a5761090a6140e3565b5f826141c157634e487b7160e01b5f52601260045260245ffd5b500490565b5f600182016141d7576141d76140e3565b5060010190565b8181035f831280158383131683831282161715612d6a57612d6a6140e3565b5f6020828403121561420d575f80fd5b815160ff811681146126a3575f80fd5b6001815b60018411156117815780850481111561423c5761423c6140e3565b600184161561424a57908102905b60019390931c928002614221565b5f826142665750600161090a565b8161427257505f61090a565b81600181146142885760028114614292576142ae565b600191505061090a565b60ff8411156142a3576142a36140e3565b50506001821b61090a565b5060208310610133831016604e8410600b84101617156142d1575081810a61090a565b6142dd5f19848461421d565b805f19048211156142f0576142f06140e3565b029392505050565b5f6126a38383614258565b81516001600160a01b03908116825260208084015182169083015260408084015162ffffff169083015260608084015191821690830152610100820190506080830151608083015260a083015160a083015260c083015160c083015260e0830151612d6a60e08401826001600160a01b03169052565b5f82518060208501845e5f92019182525091905056fef66846415d2bf9eabda9e84793ff9c0ea96d87f50fc41e66aa16469c6a442f05427855f733824e80f1903e866c2bc2b809f56d807872951b042888b504f9cbb1360894a13ba1a3210667c828492db98dca3e2076cc3735a920a3ca505d382bbc02dd7bc7dec4dceedda775e58dd541e08a116c6c53815c0bd028192f7b626800cd5ed15c6e187e77e9aee88184c21f4f2182ab5827cb3b7e07fbedcd63f033009b779b17422d0df92223018b32b4d1fa46e071723d6817e2486d003becc55f00a26469706673582212204b9902c6920b640ecf9261726579295cab7b4fdf68046c61b61fe58cb2e4ffe164736f6c634300081a0033","linkReferences":{}},"methodIdentifiers":{"DEFAULT_ADMIN_ROLE()":"a217fddf","LEVERAGE_ADMIN_ROLE()":"a2beceaa","PAUSER_ROLE()":"e63ab1e9","TIMELOCK_ROLE()":"f288a2e2","UPGRADE_INTERFACE_VERSION()":"ad3cb1cc","borrowModule()":"25384fd8","closeLeveragedPosition(uint256,uint256,uint256)":"f4a695ff","closeLeveragedPositionWithMusd(uint256)":"9eae8aac","collateralVault()":"0bece79c","defaultPoolFee()":"6f60a6dd","disableToken(address)":"23e27a64","emergencyClosePosition(address,uint256)":"ae920b06","emergencyWithdraw(address,uint256,address)":"551512de","enableToken(address,uint24)":"1c1276c3","estimateLoops(address,uint256,uint256)":"a26ed593","getEffectiveLeverage(address)":"eb69ec5b","getMusdNeededToClose(address)":"c272a435","getPosition(address)":"16c19739","getRoleAdmin(bytes32)":"248a9ca3","grantRole(bytes32,address)":"2f2ff15d","hasRole(bytes32,address)":"91d14854","initialize(address,address,address,address,address,address,address)":"35876476","leverageEnabled(address)":"14ffaf3e","maxLeverageX10()":"f54ab359","maxLoops()":"4213bc8f","maxSlippageBps()":"c4aa7395","minBorrowPerLoop()":"0bf7dbb2","musd()":"cab666d0","openLeveragedPosition(address,uint256,uint256,uint256,uint256,uint256)":"a61165bf","pause()":"8456cb59","paused()":"5c975abb","positions(address)":"55f57510","priceOracle()":"2630c12f","proxiableUUID()":"52d1902d","renounceRole(bytes32,address)":"36568abe","revokeRole(bytes32,address)":"d547741f","setConfig(uint256,uint256,uint24,uint256)":"b09789d8","setMaxLeverage(uint256)":"d3127e63","supportsInterface(bytes4)":"01ffc9a7","swapRouter()":"c31c9c07","tokenPoolFees(address)":"46284643","unpause()":"3f4ba83a","upgradeToAndCall(address,bytes)":"4f1ef286"},"id":65}