{"abi":[{"type":"constructor","inputs":[],"stateMutability":"nonpayable"},{"type":"function","name":"ADMIN_DELAY","inputs":[],"outputs":[{"name":"","type":"uint256","internalType":"uint256"}],"stateMutability":"view"},{"type":"function","name":"CIRCUIT_BREAKER_COOLDOWN","inputs":[],"outputs":[{"name":"","type":"uint256","internalType":"uint256"}],"stateMutability":"view"},{"type":"function","name":"DEFAULT_ADMIN_ROLE","inputs":[],"outputs":[{"name":"","type":"bytes32","internalType":"bytes32"}],"stateMutability":"view"},{"type":"function","name":"MAX_STALE_PERIOD","inputs":[],"outputs":[{"name":"","type":"uint256","internalType":"uint256"}],"stateMutability":"view"},{"type":"function","name":"ORACLE_ADMIN_ROLE","inputs":[],"outputs":[{"name":"","type":"bytes32","internalType":"bytes32"}],"stateMutability":"view"},{"type":"function","name":"cancelRemoveFeed","inputs":[],"outputs":[],"stateMutability":"nonpayable"},{"type":"function","name":"cancelSetCircuitBreakerEnabled","inputs":[],"outputs":[],"stateMutability":"nonpayable"},{"type":"function","name":"cancelSetFeed","inputs":[],"outputs":[],"stateMutability":"nonpayable"},{"type":"function","name":"cancelSetMaxDeviation","inputs":[],"outputs":[],"stateMutability":"nonpayable"},{"type":"function","name":"circuitBreakerEnabled","inputs":[],"outputs":[{"name":"","type":"bool","internalType":"bool"}],"stateMutability":"view"},{"type":"function","name":"executeRemoveFeed","inputs":[],"outputs":[],"stateMutability":"nonpayable"},{"type":"function","name":"executeSetCircuitBreakerEnabled","inputs":[],"outputs":[],"stateMutability":"nonpayable"},{"type":"function","name":"executeSetFeed","inputs":[],"outputs":[],"stateMutability":"nonpayable"},{"type":"function","name":"executeSetMaxDeviation","inputs":[],"outputs":[],"stateMutability":"nonpayable"},{"type":"function","name":"feeds","inputs":[{"name":"","type":"address","internalType":"address"}],"outputs":[{"name":"feed","type":"address","internalType":"contract IAggregatorV3"},{"name":"stalePeriod","type":"uint256","internalType":"uint256"},{"name":"tokenDecimals","type":"uint8","internalType":"uint8"},{"name":"enabled","type":"bool","internalType":"bool"}],"stateMutability":"view"},{"type":"function","name":"getPrice","inputs":[{"name":"token","type":"address","internalType":"address"}],"outputs":[{"name":"price","type":"uint256","internalType":"uint256"}],"stateMutability":"view"},{"type":"function","name":"getPriceUnsafe","inputs":[{"name":"token","type":"address","internalType":"address"}],"outputs":[{"name":"price","type":"uint256","internalType":"uint256"}],"stateMutability":"view"},{"type":"function","name":"getRoleAdmin","inputs":[{"name":"role","type":"bytes32","internalType":"bytes32"}],"outputs":[{"name":"","type":"bytes32","internalType":"bytes32"}],"stateMutability":"view"},{"type":"function","name":"getValueUsd","inputs":[{"name":"token","type":"address","internalType":"address"},{"name":"amount","type":"uint256","internalType":"uint256"}],"outputs":[{"name":"valueUsd","type":"uint256","internalType":"uint256"}],"stateMutability":"view"},{"type":"function","name":"getValueUsdUnsafe","inputs":[{"name":"token","type":"address","internalType":"address"},{"name":"amount","type":"uint256","internalType":"uint256"}],"outputs":[{"name":"valueUsd","type":"uint256","internalType":"uint256"}],"stateMutability":"view"},{"type":"function","name":"grantRole","inputs":[{"name":"role","type":"bytes32","internalType":"bytes32"},{"name":"account","type":"address","internalType":"address"}],"outputs":[],"stateMutability":"nonpayable"},{"type":"function","name":"hasRole","inputs":[{"name":"role","type":"bytes32","internalType":"bytes32"},{"name":"account","type":"address","internalType":"address"}],"outputs":[{"name":"","type":"bool","internalType":"bool"}],"stateMutability":"view"},{"type":"function","name":"isFeedHealthy","inputs":[{"name":"token","type":"address","internalType":"address"}],"outputs":[{"name":"","type":"bool","internalType":"bool"}],"stateMutability":"view"},{"type":"function","name":"lastCircuitBreakerToggle","inputs":[],"outputs":[{"name":"","type":"uint256","internalType":"uint256"}],"stateMutability":"view"},{"type":"function","name":"lastKnownPrice","inputs":[{"name":"","type":"address","internalType":"address"}],"outputs":[{"name":"","type":"uint256","internalType":"uint256"}],"stateMutability":"view"},{"type":"function","name":"maxDeviationBps","inputs":[],"outputs":[{"name":"","type":"uint256","internalType":"uint256"}],"stateMutability":"view"},{"type":"function","name":"pendingCircuitBreakerSet","inputs":[],"outputs":[{"name":"","type":"bool","internalType":"bool"}],"stateMutability":"view"},{"type":"function","name":"pendingCircuitBreakerTime","inputs":[],"outputs":[{"name":"","type":"uint256","internalType":"uint256"}],"stateMutability":"view"},{"type":"function","name":"pendingCircuitBreakerValue","inputs":[],"outputs":[{"name":"","type":"bool","internalType":"bool"}],"stateMutability":"view"},{"type":"function","name":"pendingMaxDeviationBps","inputs":[],"outputs":[{"name":"","type":"uint256","internalType":"uint256"}],"stateMutability":"view"},{"type":"function","name":"pendingMaxDeviationSet","inputs":[],"outputs":[{"name":"","type":"bool","internalType":"bool"}],"stateMutability":"view"},{"type":"function","name":"pendingMaxDeviationTime","inputs":[],"outputs":[{"name":"","type":"uint256","internalType":"uint256"}],"stateMutability":"view"},{"type":"function","name":"pendingRemoveFeedTime","inputs":[],"outputs":[{"name":"","type":"uint256","internalType":"uint256"}],"stateMutability":"view"},{"type":"function","name":"pendingRemoveFeedToken","inputs":[],"outputs":[{"name":"","type":"address","internalType":"address"}],"stateMutability":"view"},{"type":"function","name":"pendingSetFeed","inputs":[],"outputs":[{"name":"token","type":"address","internalType":"address"},{"name":"feed","type":"address","internalType":"address"},{"name":"stalePeriod","type":"uint256","internalType":"uint256"},{"name":"tokenDecimals","type":"uint8","internalType":"uint8"},{"name":"requestTime","type":"uint256","internalType":"uint256"}],"stateMutability":"view"},{"type":"function","name":"refreshPrice","inputs":[{"name":"token","type":"address","internalType":"address"}],"outputs":[],"stateMutability":"nonpayable"},{"type":"function","name":"renounceRole","inputs":[{"name":"role","type":"bytes32","internalType":"bytes32"},{"name":"callerConfirmation","type":"address","internalType":"address"}],"outputs":[],"stateMutability":"nonpayable"},{"type":"function","name":"requestRemoveFeed","inputs":[{"name":"token","type":"address","internalType":"address"}],"outputs":[],"stateMutability":"nonpayable"},{"type":"function","name":"requestSetCircuitBreakerEnabled","inputs":[{"name":"_enabled","type":"bool","internalType":"bool"}],"outputs":[],"stateMutability":"nonpayable"},{"type":"function","name":"requestSetFeed","inputs":[{"name":"token","type":"address","internalType":"address"},{"name":"feed","type":"address","internalType":"address"},{"name":"stalePeriod","type":"uint256","internalType":"uint256"},{"name":"tokenDecimals","type":"uint8","internalType":"uint8"}],"outputs":[],"stateMutability":"nonpayable"},{"type":"function","name":"requestSetMaxDeviation","inputs":[{"name":"_maxDeviationBps","type":"uint256","internalType":"uint256"}],"outputs":[],"stateMutability":"nonpayable"},{"type":"function","name":"resetLastKnownPrice","inputs":[{"name":"token","type":"address","internalType":"address"}],"outputs":[],"stateMutability":"nonpayable"},{"type":"function","name":"revokeRole","inputs":[{"name":"role","type":"bytes32","internalType":"bytes32"},{"name":"account","type":"address","internalType":"address"}],"outputs":[],"stateMutability":"nonpayable"},{"type":"function","name":"supportsInterface","inputs":[{"name":"interfaceId","type":"bytes4","internalType":"bytes4"}],"outputs":[{"name":"","type":"bool","internalType":"bool"}],"stateMutability":"view"},{"type":"function","name":"updatePrice","inputs":[{"name":"token","type":"address","internalType":"address"}],"outputs":[],"stateMutability":"nonpayable"},{"type":"event","name":"CircuitBreakerToggleCancelled","inputs":[],"anonymous":false},{"type":"event","name":"CircuitBreakerToggleRequested","inputs":[{"name":"enabled","type":"bool","indexed":false,"internalType":"bool"},{"name":"readyAt","type":"uint256","indexed":false,"internalType":"uint256"}],"anonymous":false},{"type":"event","name":"CircuitBreakerToggled","inputs":[{"name":"enabled","type":"bool","indexed":false,"internalType":"bool"}],"anonymous":false},{"type":"event","name":"CircuitBreakerTriggered","inputs":[{"name":"token","type":"address","indexed":true,"internalType":"address"},{"name":"oldPrice","type":"uint256","indexed":false,"internalType":"uint256"},{"name":"newPrice","type":"uint256","indexed":false,"internalType":"uint256"},{"name":"deviationBps","type":"uint256","indexed":false,"internalType":"uint256"}],"anonymous":false},{"type":"event","name":"FeedChangeCancelled","inputs":[{"name":"token","type":"address","indexed":true,"internalType":"address"}],"anonymous":false},{"type":"event","name":"FeedChangeRequested","inputs":[{"name":"token","type":"address","indexed":true,"internalType":"address"},{"name":"feed","type":"address","indexed":false,"internalType":"address"},{"name":"readyAt","type":"uint256","indexed":false,"internalType":"uint256"}],"anonymous":false},{"type":"event","name":"FeedRemoveCancelled","inputs":[{"name":"token","type":"address","indexed":true,"internalType":"address"}],"anonymous":false},{"type":"event","name":"FeedRemoveRequested","inputs":[{"name":"token","type":"address","indexed":true,"internalType":"address"},{"name":"readyAt","type":"uint256","indexed":false,"internalType":"uint256"}],"anonymous":false},{"type":"event","name":"FeedRemoved","inputs":[{"name":"token","type":"address","indexed":true,"internalType":"address"}],"anonymous":false},{"type":"event","name":"FeedUpdated","inputs":[{"name":"token","type":"address","indexed":true,"internalType":"address"},{"name":"feed","type":"address","indexed":false,"internalType":"address"},{"name":"stalePeriod","type":"uint256","indexed":false,"internalType":"uint256"},{"name":"tokenDecimals","type":"uint8","indexed":false,"internalType":"uint8"}],"anonymous":false},{"type":"event","name":"MaxDeviationChangeCancelled","inputs":[{"name":"cancelledBps","type":"uint256","indexed":false,"internalType":"uint256"}],"anonymous":false},{"type":"event","name":"MaxDeviationChangeRequested","inputs":[{"name":"newBps","type":"uint256","indexed":false,"internalType":"uint256"},{"name":"readyAt","type":"uint256","indexed":false,"internalType":"uint256"}],"anonymous":false},{"type":"event","name":"MaxDeviationUpdated","inputs":[{"name":"oldBps","type":"uint256","indexed":false,"internalType":"uint256"},{"name":"newBps","type":"uint256","indexed":false,"internalType":"uint256"}],"anonymous":false},{"type":"event","name":"PriceRefreshed","inputs":[{"name":"token","type":"address","indexed":true,"internalType":"address"},{"name":"oldPrice","type":"uint256","indexed":false,"internalType":"uint256"},{"name":"newPrice","type":"uint256","indexed":false,"internalType":"uint256"}],"anonymous":false},{"type":"event","name":"RoleAdminChanged","inputs":[{"name":"role","type":"bytes32","indexed":true,"internalType":"bytes32"},{"name":"previousAdminRole","type":"bytes32","indexed":true,"internalType":"bytes32"},{"name":"newAdminRole","type":"bytes32","indexed":true,"internalType":"bytes32"}],"anonymous":false},{"type":"event","name":"RoleGranted","inputs":[{"name":"role","type":"bytes32","indexed":true,"internalType":"bytes32"},{"name":"account","type":"address","indexed":true,"internalType":"address"},{"name":"sender","type":"address","indexed":true,"internalType":"address"}],"anonymous":false},{"type":"event","name":"RoleRevoked","inputs":[{"name":"role","type":"bytes32","indexed":true,"internalType":"bytes32"},{"name":"account","type":"address","indexed":true,"internalType":"address"},{"name":"sender","type":"address","indexed":true,"internalType":"address"}],"anonymous":false},{"type":"error","name":"AccessControlBadConfirmation","inputs":[]},{"type":"error","name":"AccessControlUnauthorizedAccount","inputs":[{"name":"account","type":"address","internalType":"address"},{"name":"neededRole","type":"bytes32","internalType":"bytes32"}]}],"bytecode":{"object":"0x60806040526107d06003556004805460ff19166001179055348015610022575f80fd5b5061002d5f3361005e565b506100587fc307c44629779eb8fc0b85f224c3d22f5876a6c84de0ee42d481eb7814f0d3a83361005e565b50610107565b5f828152602081815260408083206001600160a01b038516845290915281205460ff166100fe575f838152602081815260408083206001600160a01b03861684529091529020805460ff191660011790556100b63390565b6001600160a01b0316826001600160a01b0316847f2f8788117e7eff1d82e926ec794901d17c78024a50270940304540a733656f0d60405160405180910390a4506001610101565b505f5b92915050565b612a05806101145f395ff3fe608060405234801561000f575f80fd5b5060043610610276575f3560e01c80636835b0331161015657806396e85ced116100ca578063bb8a8b2711610084578063bb8a8b27146105a6578063d3b1d6f0146105b9578063d547741f146105c1578063f989568d146105d4578063fa6d6b20146105e7578063face5053146105fa575f80fd5b806396e85ced146105505780639ea28ac714610563578063a217fddf14610576578063a63ffddd1461057d578063ab9068fa14610586578063b7f8764414610593575f80fd5b806380b500761161011b57806380b50076146104cd57806384fcfa66146104d65780638bd9d3a2146104f55780638cf49d9b1461050857806391d148541461053357806392ffacac14610546575f80fd5b80636835b033146104745780637206c22b1461048157806374d51160146104945780637f3e27b4146104a75780638003a94f146104b9575f80fd5b806333a67949116101ed5780633ee7a701116101b25780633ee7a7011461043257806341976e091461043b57806341fe70b11461044e5780634afd2142146104565780634c3114231461045e5780635dbe40d814610467575f80fd5b806333a67949146103f357806333c6999514610406578063354634251461040e57806336568abe146104165780633ec2c3f614610429575f80fd5b806320d4c9351161023e57806320d4c935146102d5578063248a9ca3146102de5780632da8247d146103005780632f2ff15d146103085780632fba4aa91461031b57806331abd59914610394575f80fd5b806301ffc9a71461027a578063064b914f146102a257806316ec4e08146102ba578063175fb601146102c45780631d641772146102cd575b5f80fd5b61028d610288366004612511565b61060d565b60405190151581526020015b60405180910390f35b6102ac6201518081565b604051908152602001610299565b6102c2610643565b005b6102ac600d5481565b6102c2610717565b6102ac60105481565b6102ac6102ec36600461253f565b5f9081526020819052604090206001015490565b6102c2610866565b6102c2610316366004612571565b610948565b61036061032936600461259b565b600160208190525f91825260409091208054918101546002909101546001600160a01b039092169160ff8082169161010090041684565b604080516001600160a01b039095168552602085019390935260ff9091169183019190915215156060820152608001610299565b600654600754600854600954600a546103bd946001600160a01b039081169416929160ff169085565b604080516001600160a01b0396871681529590941660208601529284019190915260ff166060830152608082015260a001610299565b6102c261040136600461259b565b610972565b6102c2610c65565b6102c2610cc1565b6102c2610424366004612571565b610d28565b6102ac610e1081565b6102ac60035481565b6102ac61044936600461259b565b610d60565b6102c261102d565b6102c26110ae565b6102ac600e5481565b600f5461028d9060ff1681565b60115461028d9060ff1681565b6102ac61048f3660046125b4565b611397565b6102c26104a236600461259b565b611590565b600f5461028d90610100900460ff1681565b6102ac5f805160206129b083398151915281565b6102ac600c5481565b6102ac6104e436600461259b565b60026020525f908152604090205481565b6102c26105033660046125ea565b61178f565b600b5461051b906001600160a01b031681565b6040516001600160a01b039091168152602001610299565b61028d610541366004612571565b611ab8565b6102ac6202a30081565b6102c261055e36600461259b565b611ae0565b6102c2610571366004612636565b611d60565b6102ac5f81565b6102ac60055481565b60045461028d9060ff1681565b6102ac6105a13660046125b4565b611e70565b61028d6105b436600461259b565b611ec3565b6102c2611f8c565b6102c26105cf366004612571565b611fec565b6102ac6105e236600461259b565b612010565b6102c26105f536600461253f565b6121dc565b6102c261060836600461259b565b6122cd565b5f6001600160e01b03198216637965db0b60e01b148061063d57506301ffc9a760e01b6001600160e01b03198316145b92915050565b5f805160206129b083398151915261065a816123cf565b600f5460ff166106855760405162461bcd60e51b815260040161067c90612655565b60405180910390fd5b6202a300600e54610696919061268d565b4210156106b55760405162461bcd60e51b815260040161067c906126a0565b7fea7b0359048504e79474eaaa05294b49265fc4e7b0a0c3737aaa22412e90f16e600354600d546040516106f3929190918252602082015260400190565b60405180910390a150600d80546003555f90819055600e55600f805460ff19169055565b5f805160206129b083398151915261072e816123cf565b600b546001600160a01b0316806107575760405162461bcd60e51b815260040161067c90612655565b6202a300600c54610768919061268d565b4210156107875760405162461bcd60e51b815260040161067c906126a0565b6001600160a01b0381165f90815260016020526040902060020154610100900460ff166107e75760405162461bcd60e51b815260206004820152600e60248201526d1191515117d393d517d193d5539160921b604482015260640161067c565b6001600160a01b0381165f81815260016020818152604080842080546001600160a01b031990811682559381018590556002908101805461ffff19169055909152808320839055600b8054909216909155600c829055517f80502f8484874852e0b4f9360dc6004a3fc5a00fa2b3339ebfdc1a419ceb7dac9190a25050565b5f805160206129b083398151915261087d816123cf565b60115460ff1661089f5760405162461bcd60e51b815260040161067c90612655565b6202a3006010546108b0919061268d565b4210156108cf5760405162461bcd60e51b815260040161067c906126a0565b600f80546004805460ff61010084048116151560ff1992831681179093554260055561ff00199093169093555f601055601180549093169092556040517fd54e260c48d23339d5c29a5c474aecd018822c155cb3624f2012203665da42b59261093d92161515815260200190565b60405180910390a150565b5f82815260208190526040902060010154610962816123cf565b61096c83836123dc565b50505050565b6001600160a01b0381165f9081526001602052604090206002810154610100900460ff166109b25760405162461bcd60e51b815260040161067c906126c9565b805460408051633fabe5a360e21b815290515f928392839283926001600160a01b03169163feaf968c9160048083019260a09291908290030181865afa1580156109fe573d5f803e3d5ffd5b505050506040513d601f19601f82011682018060405250810190610a229190612709565b9450945050935093505f8313610a4a5760405162461bcd60e51b815260040161067c90612757565b6001850154610a59834261277e565b1115610a775760405162461bcd60e51b815260040161067c90612791565b836001600160501b0316816001600160501b03161015610aa95760405162461bcd60e51b815260040161067c906127b6565b84546040805163313ce56760e01b815290515f926001600160a01b03169163313ce5679160048083019260209291908290030181865afa158015610aef573d5f803e3d5ffd5b505050506040513d601f19601f82011682018060405250810190610b1391906127db565b90505f610b218260126127f6565b610b2c90600a6128f2565b610b369086612900565b60045490915060ff168015610b6157506001600160a01b0388165f9081526002602052604090205415155b15610c07576001600160a01b0388165f9081526002602052604081205490818311610b9557610b90838361277e565b610b9f565b610b9f828461277e565b90505f82610baf83612710612900565b610bb99190612917565b9050600354811115610c035760405162461bcd60e51b8152602060048201526013602482015272444556494154494f4e5f544f4f5f4c4152474560681b604482015260640161067c565b5050505b6001600160a01b0388165f8181526002602090815260409182902084905581518481529081018490527f05153c38a2a56c564175438526bd4e0a50c927d95d920fcd9a0c272e3e54c37b910160405180910390a25050505050505050565b5f805160206129b0833981519152610c7c816123cf565b600f805461ff00191690555f60108190556011805460ff191690556040517fe9d7cd8b3f8d60fdf7cada83f616f5a4d47cd5d0d67bf1d780dcd70bb0ad66099190a150565b5f805160206129b0833981519152610cd8816123cf565b600b80546001600160a01b031981169091555f600c8190556040516001600160a01b039092169182917f562923505e7367bc7251826c37c7dbc5285157c1631744a151912c1ac191be3291a25050565b6001600160a01b0381163314610d515760405163334bd91960e11b815260040160405180910390fd5b610d5b828261246b565b505050565b6001600160a01b0381165f9081526001602052604081206002810154610100900460ff16610da05760405162461bcd60e51b815260040161067c906126c9565b805460408051633fabe5a360e21b815290515f928392839283926001600160a01b03169163feaf968c9160048083019260a09291908290030181865afa158015610dec573d5f803e3d5ffd5b505050506040513d601f19601f82011682018060405250810190610e109190612709565b9450945050935093505f8313610e385760405162461bcd60e51b815260040161067c90612757565b6001850154610e47834261277e565b1115610e655760405162461bcd60e51b815260040161067c90612791565b836001600160501b0316816001600160501b03161015610e975760405162461bcd60e51b815260040161067c906127b6565b84546040805163313ce56760e01b815290515f926001600160a01b03169163313ce5679160048083019260209291908290030181865afa158015610edd573d5f803e3d5ffd5b505050506040513d601f19601f82011682018060405250810190610f0191906127db565b905060128160ff161115610f275760405162461bcd60e51b815260040161067c90612936565b610f328160126127f6565b610f3d90600a6128f2565b610f479085612900565b60045490975060ff168015610f7257506001600160a01b0388165f9081526002602052604090205415155b15611022576001600160a01b0388165f9081526002602052604081205490818911610fa657610fa1898361277e565b610fb0565b610fb0828a61277e565b90505f82610fc083612710612900565b610fca9190612917565b905060035481111561101e5760405162461bcd60e51b815260206004820152601960248201527f434952435549545f425245414b45525f54524947474552454400000000000000604482015260640161067c565b5050505b505050505050919050565b5f805160206129b0833981519152611044816123cf565b600680546001600160a01b0319808216909255600780549092169091555f60088190556009805460ff19169055600a8190556040516001600160a01b039092169182917f838da1381da451074eb4b5316b7fa33634730653333f9ffdb4f9f023c6c837a191a25050565b5f805160206129b08339815191526110c5816123cf565b6040805160a0810182526006546001600160a01b0390811680835260075490911660208301526008549282019290925260095460ff166060820152600a546080820152906111255760405162461bcd60e51b815260040161067c90612655565b6202a3008160800151611138919061268d565b4210156111575760405162461bcd60e51b815260040161067c906126a0565b60408051608081018252602080840180516001600160a01b0390811684528585015183850190815260608088015160ff90811687890190815260019288018381528a5186165f9081529784905296899020975188549086166001600160a01b0319909116178855925191870191909155905160029095018054945115156101000261ffff1990951695909116949094179290921790925590518251633fabe5a360e21b8152925191169163feaf968c9160048083019260a09291908290030181865afa925050508015611247575060408051601f3d908101601f1916820190925261124491810190612709565b60015b156112ff575f8413156112f9575f86602001516001600160a01b031663313ce5676040518163ffffffff1660e01b8152600401602060405180830381865afa158015611295573d5f803e3d5ffd5b505050506040513d601f19601f820116820180604052508101906112b991906127db565b60ff1690506112c981601261277e565b6112d490600a61296d565b6112de9086612900565b87516001600160a01b03165f90815260026020526040902055505b50505050505b600680546001600160a01b03199081169091556007805490911690555f60088190556009805460ff19169055600a55805160208083015160408085015160608087015183516001600160a01b0395861681529586019290925260ff909116918401919091529216917f64775658ac05d9d9e25f6759c7643165d607f142e5ad258fcac5d9ee35d8d3c391015b60405180910390a25050565b6001600160a01b0382165f9081526001602052604081206002810154610100900460ff166113d75760405162461bcd60e51b815260040161067c906126c9565b5f805f835f015f9054906101000a90046001600160a01b03166001600160a01b031663feaf968c6040518163ffffffff1660e01b815260040160a060405180830381865afa15801561142b573d5f803e3d5ffd5b505050506040513d601f19601f8201168201806040525081019061144f9190612709565b94505050925092505f82136114765760405162461bcd60e51b815260040161067c90612757565b826001600160501b0316816001600160501b031610156114a85760405162461bcd60e51b815260040161067c906127b6565b83546040805163313ce56760e01b815290515f926001600160a01b03169163313ce5679160048083019260209291908290030181865afa1580156114ee573d5f803e3d5ffd5b505050506040513d601f19601f8201168201806040525081019061151291906127db565b905060128160ff1611156115385760405162461bcd60e51b815260040161067c90612936565b5f6115448260126127f6565b61154f90600a6128f2565b6115599085612900565b600287015490915061156f9060ff16600a6128f2565b611579828a612900565b6115839190612917565b9998505050505050505050565b5f805160206129b08339815191526115a7816123cf565b6001600160a01b0382165f9081526001602052604090206002810154610100900460ff166115e75760405162461bcd60e51b815260040161067c906126c9565b805460408051633fabe5a360e21b815290515f928392839283926001600160a01b03169163feaf968c9160048083019260a09291908290030181865afa158015611633573d5f803e3d5ffd5b505050506040513d601f19601f820116820180604052508101906116579190612709565b9450945050935093505f831361167f5760405162461bcd60e51b815260040161067c90612757565b600185015461168e834261277e565b11156116ac5760405162461bcd60e51b815260040161067c90612791565b836001600160501b0316816001600160501b031610156116de5760405162461bcd60e51b815260040161067c906127b6565b84546040805163313ce56760e01b815290515f926001600160a01b03169163313ce5679160048083019260209291908290030181865afa158015611724573d5f803e3d5ffd5b505050506040513d601f19601f8201168201806040525081019061174891906127db565b90506117558160126127f6565b61176090600a6128f2565b61176a9085612900565b6001600160a01b039098165f9081526002602052604090209790975550505050505050565b5f805160206129b08339815191526117a6816123cf565b6001600160a01b0385166117ec5760405162461bcd60e51b815260206004820152600d60248201526c24a72b20a624a22faa27a5a2a760991b604482015260640161067c565b600a541561180c5760405162461bcd60e51b815260040161067c90612978565b6001600160a01b0384166118515760405162461bcd60e51b815260206004820152600c60248201526b1253959053125117d191515160a21b604482015260640161067c565b5f83116118975760405162461bcd60e51b81526020600482015260146024820152731253959053125117d4d510531157d411549253d160621b604482015260640161067c565b620151808311156118e25760405162461bcd60e51b81526020600482015260156024820152740a6a882988abea08aa4929e88bea89e9ebe90928e9605b1b604482015260640161067c565b60128260ff1611156119365760405162461bcd60e51b815260206004820152601760248201527f544f4b454e5f444543494d414c535f544f4f5f48494748000000000000000000604482015260640161067c565b5f846001600160a01b031663313ce5676040518163ffffffff1660e01b8152600401602060405180830381865afa158015611973573d5f803e3d5ffd5b505050506040513d601f19601f8201168201806040525081019061199791906127db565b905060128160ff1611156119e65760405162461bcd60e51b815260206004820152601660248201527508c8a8a88be888a86929a8298a6bea89e9ebe90928e960531b604482015260640161067c565b506040805160a0810182526001600160a01b038088168083529087166020830181905292820186905260ff851660608301819052426080909301839052600680546001600160a01b031990811684179091556007805490911690941790935560088690556009805460ff1916909317909255600a8190557f7f68efa491d051b89ce45cfcb6f8b79cd03a80aba361da05657244abc4d82044908690611a8f906202a3009061268d565b604080516001600160a01b03909316835260208301919091520160405180910390a25050505050565b5f918252602082815260408084206001600160a01b0393909316845291905290205460ff1690565b5f805160206129b0833981519152611af7816123cf565b6001600160a01b0382165f9081526001602052604090206002810154610100900460ff16611b375760405162461bcd60e51b815260040161067c906126c9565b5f80825f015f9054906101000a90046001600160a01b03166001600160a01b031663feaf968c6040518163ffffffff1660e01b815260040160a060405180830381865afa158015611b8a573d5f803e3d5ffd5b505050506040513d601f19601f82011682018060405250810190611bae9190612709565b509350509250505f8213611bd45760405162461bcd60e51b815260040161067c90612757565b6001830154611be3824261277e565b1115611c015760405162461bcd60e51b815260040161067c90612791565b82546040805163313ce56760e01b815290515f926001600160a01b03169163313ce5679160048083019260209291908290030181865afa158015611c47573d5f803e3d5ffd5b505050506040513d601f19601f82011682018060405250810190611c6b91906127db565b90505f611c798260126127f6565b611c8490600a6128f2565b611c8e9085612900565b6001600160a01b0388165f908152600260205260409020549091508015611d3c575f818311611cc657611cc1838361277e565b611cd0565b611cd0828461277e565b90505f82611ce083612710612900565b611cea9190612917565b60408051858152602081018790529081018290529091506001600160a01b038b16907f546b3e8dc7dbea0ddeb6c521dd6761749f4a7a5daac53a26a8389a761c624e429060600160405180910390a250505b506001600160a01b039096165f908152600260205260409020959095555050505050565b5f805160206129b0833981519152611d77816123cf565b610e10600554611d87919061268d565b421015611dd65760405162461bcd60e51b815260206004820152601f60248201527f434952435549545f425245414b45525f434f4f4c444f574e5f41435449564500604482015260640161067c565b60115460ff1615611df95760405162461bcd60e51b815260040161067c90612978565b600f805461ff001916610100841515021790554260108190556011805460ff191660011790557f70eef08535b01dfdc3321f60780fd2514f112107a40ec5e9d6f45a34c986944b908390611e51906202a3009061268d565b6040805192151583526020830191909152015b60405180910390a15050565b5f80611e7b84610d60565b6001600160a01b0385165f90815260016020526040902060020154909150611ea79060ff16600a6128f2565b611eb18285612900565b611ebb9190612917565b949350505050565b6001600160a01b0381165f9081526001602052604081206002810154610100900460ff16611ef357505f92915050565b805460408051633fabe5a360e21b815290516001600160a01b039092169163feaf968c9160048082019260a0929091908290030181865afa925050508015611f58575060408051601f3d908101601f19168201909252611f5591810190612709565b60015b611f6457505f92915050565b5f84138015611f8057506001860154611f7d834261277e565b11155b98975050505050505050565b5f805160206129b0833981519152611fa3816123cf565b600d80545f91829055600e91909155600f805460ff191690556040518181527f66cc4b8c050b3166b573885e9a1599e75aad0ecfd0e047cfbcc45b6226378ae190602001611e64565b5f82815260208190526040902060010154612006816123cf565b61096c838361246b565b6001600160a01b0381165f9081526001602052604081206002810154610100900460ff166120505760405162461bcd60e51b815260040161067c906126c9565b5f805f835f015f9054906101000a90046001600160a01b03166001600160a01b031663feaf968c6040518163ffffffff1660e01b815260040160a060405180830381865afa1580156120a4573d5f803e3d5ffd5b505050506040513d601f19601f820116820180604052508101906120c89190612709565b94505050925092505f82136120ef5760405162461bcd60e51b815260040161067c90612757565b826001600160501b0316816001600160501b031610156121215760405162461bcd60e51b815260040161067c906127b6565b83546040805163313ce56760e01b815290515f926001600160a01b03169163313ce5679160048083019260209291908290030181865afa158015612167573d5f803e3d5ffd5b505050506040513d601f19601f8201168201806040525081019061218b91906127db565b905060128160ff1611156121b15760405162461bcd60e51b815260040161067c90612936565b6121bc8160126127f6565b6121c790600a6128f2565b6121d19084612900565b979650505050505050565b5f805160206129b08339815191526121f3816123cf565b6064821015801561220657506113888211155b61224b5760405162461bcd60e51b8152602060048201526016602482015275444556494154494f4e5f4f55545f4f465f52414e474560501b604482015260640161067c565b600f5460ff161561226e5760405162461bcd60e51b815260040161067c90612978565b600d82905542600e819055600f805460ff191660011790557f0684bfccf740fabe624d85a45cc7f74048d8268901649d646ebe3af31b498f339083906122b8906202a3009061268d565b60408051928352602083019190915201611e64565b5f805160206129b08339815191526122e4816123cf565b6001600160a01b0382165f90815260016020526040902060020154610100900460ff166123445760405162461bcd60e51b815260206004820152600e60248201526d1191515117d393d517d193d5539160921b604482015260640161067c565b600b546001600160a01b03161561236d5760405162461bcd60e51b815260040161067c90612978565b600b80546001600160a01b0319166001600160a01b03841690811790915542600c8190557fd5894b63b3a66b52c75753bb061ff81d09059f91d7d1877127b87c37d7bdbb23906123c1906202a3009061268d565b60405190815260200161138b565b6123d981336124d4565b50565b5f6123e78383611ab8565b612464575f838152602081815260408083206001600160a01b03861684529091529020805460ff1916600117905561241c3390565b6001600160a01b0316826001600160a01b0316847f2f8788117e7eff1d82e926ec794901d17c78024a50270940304540a733656f0d60405160405180910390a450600161063d565b505f61063d565b5f6124768383611ab8565b15612464575f838152602081815260408083206001600160a01b0386168085529252808320805460ff1916905551339286917ff6391f5c32d9c69d2a47ea670b442974b53935d1edc7fd64eb21e047a839171b9190a450600161063d565b6124de8282611ab8565b61250d5760405163e2517d3f60e01b81526001600160a01b03821660048201526024810183905260440161067c565b5050565b5f60208284031215612521575f80fd5b81356001600160e01b031981168114612538575f80fd5b9392505050565b5f6020828403121561254f575f80fd5b5035919050565b80356001600160a01b038116811461256c575f80fd5b919050565b5f8060408385031215612582575f80fd5b8235915061259260208401612556565b90509250929050565b5f602082840312156125ab575f80fd5b61253882612556565b5f80604083850312156125c5575f80fd5b6125ce83612556565b946020939093013593505050565b60ff811681146123d9575f80fd5b5f805f80608085870312156125fd575f80fd5b61260685612556565b935061261460208601612556565b925060408501359150606085013561262b816125dc565b939692955090935050565b5f60208284031215612646575f80fd5b81358015158114612538575f80fd5b6020808252600a90820152694e4f5f50454e44494e4760b01b604082015260600190565b634e487b7160e01b5f52601160045260245ffd5b8082018082111561063d5761063d612679565b6020808252600f908201526e54494d454c4f434b5f41435449564560881b604082015260600190565b60208082526010908201526f1191515117d393d517d153905093115160821b604082015260600190565b80516001600160501b038116811461256c575f80fd5b5f805f805f60a0868803121561271d575f80fd5b612726866126f3565b6020870151604088015160608901519297509095509350915061274b608087016126f3565b90509295509295909350565b6020808252600d908201526c494e56414c49445f505249434560981b604082015260600190565b8181038181111561063d5761063d612679565b6020808252600b908201526a5354414c455f505249434560a81b604082015260600190565b6020808252600b908201526a14d510531157d493d5539160aa1b604082015260600190565b5f602082840312156127eb575f80fd5b8151612538816125dc565b60ff828116828216039081111561063d5761063d612679565b6001815b600184111561284a5780850481111561282e5761282e612679565b600184161561283c57908102905b60019390931c928002612813565b935093915050565b5f826128605750600161063d565b8161286c57505f61063d565b8160018114612882576002811461288c576128a8565b600191505061063d565b60ff84111561289d5761289d612679565b50506001821b61063d565b5060208310610133831016604e8410600b84101617156128cb575081810a61063d565b6128d75f19848461280f565b805f19048211156128ea576128ea612679565b029392505050565b5f61253860ff841683612852565b808202811582820484141761063d5761063d612679565b5f8261293157634e487b7160e01b5f52601260045260245ffd5b500490565b60208082526019908201527f554e535550504f525445445f464545445f444543494d414c5300000000000000604082015260600190565b5f6125388383612852565b60208082526018908201527f50524f504f53414c5f414c52454144595f50454e44494e47000000000000000060408201526060019056fec307c44629779eb8fc0b85f224c3d22f5876a6c84de0ee42d481eb7814f0d3a8a2646970667358221220d6d703a837d545b8a05417a3c2590dad2f29cb0df2371206387aaef0742f13d464736f6c634300081a0033","linkReferences":{}},"methodIdentifiers":{"ADMIN_DELAY()":"92ffacac","CIRCUIT_BREAKER_COOLDOWN()":"3ec2c3f6","DEFAULT_ADMIN_ROLE()":"a217fddf","MAX_STALE_PERIOD()":"064b914f","ORACLE_ADMIN_ROLE()":"8003a94f","cancelRemoveFeed()":"35463425","cancelSetCircuitBreakerEnabled()":"33c69995","cancelSetFeed()":"41fe70b1","cancelSetMaxDeviation()":"d3b1d6f0","circuitBreakerEnabled()":"ab9068fa","executeRemoveFeed()":"1d641772","executeSetCircuitBreakerEnabled()":"2da8247d","executeSetFeed()":"4afd2142","executeSetMaxDeviation()":"16ec4e08","feeds(address)":"2fba4aa9","getPrice(address)":"41976e09","getPriceUnsafe(address)":"f989568d","getRoleAdmin(bytes32)":"248a9ca3","getValueUsd(address,uint256)":"b7f87644","getValueUsdUnsafe(address,uint256)":"7206c22b","grantRole(bytes32,address)":"2f2ff15d","hasRole(bytes32,address)":"91d14854","isFeedHealthy(address)":"bb8a8b27","lastCircuitBreakerToggle()":"a63ffddd","lastKnownPrice(address)":"84fcfa66","maxDeviationBps()":"3ee7a701","pendingCircuitBreakerSet()":"6835b033","pendingCircuitBreakerTime()":"20d4c935","pendingCircuitBreakerValue()":"7f3e27b4","pendingMaxDeviationBps()":"175fb601","pendingMaxDeviationSet()":"5dbe40d8","pendingMaxDeviationTime()":"4c311423","pendingRemoveFeedTime()":"80b50076","pendingRemoveFeedToken()":"8cf49d9b","pendingSetFeed()":"31abd599","refreshPrice(address)":"33a67949","renounceRole(bytes32,address)":"36568abe","requestRemoveFeed(address)":"face5053","requestSetCircuitBreakerEnabled(bool)":"9ea28ac7","requestSetFeed(address,address,uint256,uint8)":"8bd9d3a2","requestSetMaxDeviation(uint256)":"fa6d6b20","resetLastKnownPrice(address)":"74d51160","revokeRole(bytes32,address)":"d547741f","supportsInterface(bytes4)":"01ffc9a7","updatePrice(address)":"96e85ced"},"id":6}