{"abi":[{"type":"constructor","inputs":[{"name":"_timelock","type":"address","internalType":"address"}],"stateMutability":"nonpayable"},{"type":"function","name":"CIRCUIT_BREAKER_COOLDOWN","inputs":[],"outputs":[{"name":"","type":"uint256","internalType":"uint256"}],"stateMutability":"view"},{"type":"function","name":"DEFAULT_ADMIN_ROLE","inputs":[],"outputs":[{"name":"","type":"bytes32","internalType":"bytes32"}],"stateMutability":"view"},{"type":"function","name":"MAX_STALE_PERIOD","inputs":[],"outputs":[{"name":"","type":"uint256","internalType":"uint256"}],"stateMutability":"view"},{"type":"function","name":"ORACLE_ADMIN_ROLE","inputs":[],"outputs":[{"name":"","type":"bytes32","internalType":"bytes32"}],"stateMutability":"view"},{"type":"function","name":"SEQUENCER_GRACE_PERIOD","inputs":[],"outputs":[{"name":"","type":"uint256","internalType":"uint256"}],"stateMutability":"view"},{"type":"function","name":"circuitBreakerEnabled","inputs":[],"outputs":[{"name":"","type":"bool","internalType":"bool"}],"stateMutability":"view"},{"type":"function","name":"feeds","inputs":[{"name":"","type":"address","internalType":"address"}],"outputs":[{"name":"feed","type":"address","internalType":"contract IAggregatorV3"},{"name":"stalePeriod","type":"uint256","internalType":"uint256"},{"name":"tokenDecimals","type":"uint8","internalType":"uint8"},{"name":"enabled","type":"bool","internalType":"bool"}],"stateMutability":"view"},{"type":"function","name":"getPrice","inputs":[{"name":"token","type":"address","internalType":"address"}],"outputs":[{"name":"price","type":"uint256","internalType":"uint256"}],"stateMutability":"view"},{"type":"function","name":"getPriceUnsafe","inputs":[{"name":"token","type":"address","internalType":"address"}],"outputs":[{"name":"price","type":"uint256","internalType":"uint256"}],"stateMutability":"view"},{"type":"function","name":"getRoleAdmin","inputs":[{"name":"role","type":"bytes32","internalType":"bytes32"}],"outputs":[{"name":"","type":"bytes32","internalType":"bytes32"}],"stateMutability":"view"},{"type":"function","name":"getValueUsd","inputs":[{"name":"token","type":"address","internalType":"address"},{"name":"amount","type":"uint256","internalType":"uint256"}],"outputs":[{"name":"valueUsd","type":"uint256","internalType":"uint256"}],"stateMutability":"view"},{"type":"function","name":"getValueUsdUnsafe","inputs":[{"name":"token","type":"address","internalType":"address"},{"name":"amount","type":"uint256","internalType":"uint256"}],"outputs":[{"name":"valueUsd","type":"uint256","internalType":"uint256"}],"stateMutability":"view"},{"type":"function","name":"grantRole","inputs":[{"name":"role","type":"bytes32","internalType":"bytes32"},{"name":"account","type":"address","internalType":"address"}],"outputs":[],"stateMutability":"nonpayable"},{"type":"function","name":"hasRole","inputs":[{"name":"role","type":"bytes32","internalType":"bytes32"},{"name":"account","type":"address","internalType":"address"}],"outputs":[{"name":"","type":"bool","internalType":"bool"}],"stateMutability":"view"},{"type":"function","name":"isFeedHealthy","inputs":[{"name":"token","type":"address","internalType":"address"}],"outputs":[{"name":"","type":"bool","internalType":"bool"}],"stateMutability":"view"},{"type":"function","name":"lastCircuitBreakerToggle","inputs":[],"outputs":[{"name":"","type":"uint256","internalType":"uint256"}],"stateMutability":"view"},{"type":"function","name":"lastKnownPrice","inputs":[{"name":"","type":"address","internalType":"address"}],"outputs":[{"name":"","type":"uint256","internalType":"uint256"}],"stateMutability":"view"},{"type":"function","name":"maxDeviationBps","inputs":[],"outputs":[{"name":"","type":"uint256","internalType":"uint256"}],"stateMutability":"view"},{"type":"function","name":"refreshPrice","inputs":[{"name":"token","type":"address","internalType":"address"}],"outputs":[],"stateMutability":"nonpayable"},{"type":"function","name":"removeFeed","inputs":[{"name":"token","type":"address","internalType":"address"}],"outputs":[],"stateMutability":"nonpayable"},{"type":"function","name":"renounceRole","inputs":[{"name":"role","type":"bytes32","internalType":"bytes32"},{"name":"callerConfirmation","type":"address","internalType":"address"}],"outputs":[],"stateMutability":"nonpayable"},{"type":"function","name":"resetLastKnownPrice","inputs":[{"name":"token","type":"address","internalType":"address"}],"outputs":[],"stateMutability":"nonpayable"},{"type":"function","name":"revokeRole","inputs":[{"name":"role","type":"bytes32","internalType":"bytes32"},{"name":"account","type":"address","internalType":"address"}],"outputs":[],"stateMutability":"nonpayable"},{"type":"function","name":"sequencerUptimeFeed","inputs":[],"outputs":[{"name":"","type":"address","internalType":"contract IAggregatorV3"}],"stateMutability":"view"},{"type":"function","name":"setCircuitBreakerEnabled","inputs":[{"name":"_enabled","type":"bool","internalType":"bool"}],"outputs":[],"stateMutability":"nonpayable"},{"type":"function","name":"setFeed","inputs":[{"name":"token","type":"address","internalType":"address"},{"name":"feed","type":"address","internalType":"address"},{"name":"stalePeriod","type":"uint256","internalType":"uint256"},{"name":"tokenDecimals","type":"uint8","internalType":"uint8"}],"outputs":[],"stateMutability":"nonpayable"},{"type":"function","name":"setMaxDeviation","inputs":[{"name":"_maxDeviationBps","type":"uint256","internalType":"uint256"}],"outputs":[],"stateMutability":"nonpayable"},{"type":"function","name":"setSequencerUptimeFeed","inputs":[{"name":"_feed","type":"address","internalType":"address"}],"outputs":[],"stateMutability":"nonpayable"},{"type":"function","name":"setTimelock","inputs":[{"name":"_timelock","type":"address","internalType":"address"}],"outputs":[],"stateMutability":"nonpayable"},{"type":"function","name":"supportsInterface","inputs":[{"name":"interfaceId","type":"bytes4","internalType":"bytes4"}],"outputs":[{"name":"","type":"bool","internalType":"bool"}],"stateMutability":"view"},{"type":"function","name":"timelock","inputs":[],"outputs":[{"name":"","type":"address","internalType":"address"}],"stateMutability":"view"},{"type":"function","name":"updatePrice","inputs":[{"name":"token","type":"address","internalType":"address"}],"outputs":[],"stateMutability":"nonpayable"},{"type":"event","name":"CircuitBreakerToggled","inputs":[{"name":"enabled","type":"bool","indexed":false,"internalType":"bool"}],"anonymous":false},{"type":"event","name":"CircuitBreakerTriggered","inputs":[{"name":"token","type":"address","indexed":true,"internalType":"address"},{"name":"oldPrice","type":"uint256","indexed":false,"internalType":"uint256"},{"name":"newPrice","type":"uint256","indexed":false,"internalType":"uint256"},{"name":"deviationBps","type":"uint256","indexed":false,"internalType":"uint256"}],"anonymous":false},{"type":"event","name":"FeedRemoved","inputs":[{"name":"token","type":"address","indexed":true,"internalType":"address"}],"anonymous":false},{"type":"event","name":"FeedUpdated","inputs":[{"name":"token","type":"address","indexed":true,"internalType":"address"},{"name":"feed","type":"address","indexed":false,"internalType":"address"},{"name":"stalePeriod","type":"uint256","indexed":false,"internalType":"uint256"},{"name":"tokenDecimals","type":"uint8","indexed":false,"internalType":"uint8"}],"anonymous":false},{"type":"event","name":"MaxDeviationUpdated","inputs":[{"name":"oldBps","type":"uint256","indexed":false,"internalType":"uint256"},{"name":"newBps","type":"uint256","indexed":false,"internalType":"uint256"}],"anonymous":false},{"type":"event","name":"PriceRefreshed","inputs":[{"name":"token","type":"address","indexed":true,"internalType":"address"},{"name":"oldPrice","type":"uint256","indexed":false,"internalType":"uint256"},{"name":"newPrice","type":"uint256","indexed":false,"internalType":"uint256"}],"anonymous":false},{"type":"event","name":"RoleAdminChanged","inputs":[{"name":"role","type":"bytes32","indexed":true,"internalType":"bytes32"},{"name":"previousAdminRole","type":"bytes32","indexed":true,"internalType":"bytes32"},{"name":"newAdminRole","type":"bytes32","indexed":true,"internalType":"bytes32"}],"anonymous":false},{"type":"event","name":"RoleGranted","inputs":[{"name":"role","type":"bytes32","indexed":true,"internalType":"bytes32"},{"name":"account","type":"address","indexed":true,"internalType":"address"},{"name":"sender","type":"address","indexed":true,"internalType":"address"}],"anonymous":false},{"type":"event","name":"RoleRevoked","inputs":[{"name":"role","type":"bytes32","indexed":true,"internalType":"bytes32"},{"name":"account","type":"address","indexed":true,"internalType":"address"},{"name":"sender","type":"address","indexed":true,"internalType":"address"}],"anonymous":false},{"type":"event","name":"SequencerUptimeFeedUpdated","inputs":[{"name":"oldFeed","type":"address","indexed":true,"internalType":"address"},{"name":"newFeed","type":"address","indexed":true,"internalType":"address"}],"anonymous":false},{"type":"event","name":"TimelockUpdated","inputs":[{"name":"oldTimelock","type":"address","indexed":true,"internalType":"address"},{"name":"newTimelock","type":"address","indexed":true,"internalType":"address"}],"anonymous":false},{"type":"error","name":"AccessControlBadConfirmation","inputs":[]},{"type":"error","name":"AccessControlUnauthorizedAccount","inputs":[{"name":"account","type":"address","internalType":"address"},{"name":"neededRole","type":"bytes32","internalType":"bytes32"}]},{"type":"error","name":"OnlyTimelock","inputs":[]},{"type":"error","name":"ZeroTimelock","inputs":[]}],"bytecode":{"object":"0x60806040526107d06004556005805460ff19166001179055348015610022575f80fd5b506040516125a93803806125a9833981016040819052610041916101a1565b61004a81610086565b6100545f336100f8565b5061007f7fc307c44629779eb8fc0b85f224c3d22f5876a6c84de0ee42d481eb7814f0d3a8336100f8565b50506101ce565b6001600160a01b0381166100ad576040516350c0eb2960e11b815260040160405180910390fd5b600180546001600160a01b0319166001600160a01b0383169081179091556040515f907fae97011a27b5efe7b1d76fe38e75cc498fd64cc24e407a9c6b2185d27f611f7e908290a350565b5f828152602081815260408083206001600160a01b038516845290915281205460ff16610198575f838152602081815260408083206001600160a01b03861684529091529020805460ff191660011790556101503390565b6001600160a01b0316826001600160a01b0316847f2f8788117e7eff1d82e926ec794901d17c78024a50270940304540a733656f0d60405160405180910390a450600161019b565b505f5b92915050565b5f602082840312156101b1575f80fd5b81516001600160a01b03811681146101c7575f80fd5b9392505050565b6123ce806101db5f395ff3fe608060405234801561000f575f80fd5b50600436106101e7575f3560e01c806391d1485411610109578063b8f449631161009e578063d33219b41161006e578063d33219b414610485578063d547741f14610498578063dddbc049146104ab578063f989568d146104be575f80fd5b8063b8f449631461044c578063bb8a8b271461045f578063bdacb30314610472578063d307b6db14610301575f80fd5b8063a63ffddd116100d9578063a63ffddd146103f8578063a726470514610401578063ab9068fa1461042c578063b7f8764414610439575f80fd5b806391d14854146103b857806396e85ced146103cb5780639dd906b1146103de578063a217fddf146103f1575f80fd5b80633ee7a7011161017f57806374d511601161014f57806374d511601461034c5780637aa448211461035f5780638003a94f1461037257806384fcfa6614610399575f80fd5b80633ee7a7011461030a57806341976e09146103135780634b90fd69146103265780637206c22b14610339575f80fd5b80632fba4aa9116101ba5780632fba4aa91461026257806333a67949146102db57806336568abe146102ee5780633ec2c3f614610301575f80fd5b806301ffc9a7146101eb578063064b914f14610213578063248a9ca31461022b5780632f2ff15d1461024d575b5f80fd5b6101fe6101f9366004611f7e565b6104d1565b60405190151581526020015b60405180910390f35b61021d6201518081565b60405190815260200161020a565b61021d610239366004611fac565b5f9081526020819052604090206001015490565b61026061025b366004611fde565b610507565b005b6102a7610270366004612008565b600260208190525f91825260409091208054600182015491909201546001600160a01b039092169160ff8082169161010090041684565b604080516001600160a01b039095168552602085019390935260ff909116918301919091521515606082015260800161020a565b6102606102e9366004612008565b610531565b6102606102fc366004611fde565b610837565b61021d610e1081565b61021d60045481565b61021d610321366004612008565b61086f565b610260610334366004612008565b610b47565b61021d610347366004612021565b610c40565b61026061035a366004612008565b610e3a565b61026061036d366004612057565b61104e565b61021d7fc307c44629779eb8fc0b85f224c3d22f5876a6c84de0ee42d481eb7814f0d3a881565b61021d6103a7366004612008565b60036020525f908152604090205481565b6101fe6103c6366004611fde565b611484565b6102606103d9366004612008565b6114ac565b6102606103ec3660046120a3565b611741565b61021d5f81565b61021d60065481565b600754610414906001600160a01b031681565b6040516001600160a01b03909116815260200161020a565b6005546101fe9060ff1681565b61021d610447366004612021565b611816565b61026061045a366004612008565b61186a565b6101fe61046d366004612008565b6118e6565b610260610480366004612008565b6119b0565b600154610414906001600160a01b031681565b6102606104a6366004611fde565b611a5d565b6102606104b9366004611fac565b611a81565b61021d6104cc366004612008565b611b45565b5f6001600160e01b03198216637965db0b60e01b148061050157506301ffc9a760e01b6001600160e01b03198316145b92915050565b5f8281526020819052604090206001015461052181611d12565b61052b8383611d1f565b50505050565b610539611dae565b6001600160a01b0381165f90815260026020819052604090912090810154610100900460ff166105845760405162461bcd60e51b815260040161057b906120c2565b60405180910390fd5b805460408051633fabe5a360e21b815290515f928392839283926001600160a01b03169163feaf968c9160048083019260a09291908290030181865afa1580156105d0573d5f803e3d5ffd5b505050506040513d601f19601f820116820180604052508101906105f49190612102565b9450945050935093505f831361061c5760405162461bcd60e51b815260040161057b90612150565b600185015461062b834261218b565b11156106495760405162461bcd60e51b815260040161057b9061219e565b836001600160501b0316816001600160501b0316101561067b5760405162461bcd60e51b815260040161057b906121c3565b84546040805163313ce56760e01b815290515f926001600160a01b03169163313ce5679160048083019260209291908290030181865afa1580156106c1573d5f803e3d5ffd5b505050506040513d601f19601f820116820180604052508101906106e591906121e8565b90505f6106f3826012612203565b6106fe90600a6122ff565b610708908661230d565b60055490915060ff16801561073357506001600160a01b0388165f9081526003602052604090205415155b156107d9576001600160a01b0388165f908152600360205260408120549081831161076757610762838361218b565b610771565b610771828461218b565b90505f826107818361271061230d565b61078b9190612324565b90506004548111156107d55760405162461bcd60e51b8152602060048201526013602482015272444556494154494f4e5f544f4f5f4c4152474560681b604482015260640161057b565b5050505b6001600160a01b0388165f8181526003602090815260409182902084905581518481529081018490527f05153c38a2a56c564175438526bd4e0a50c927d95d920fcd9a0c272e3e54c37b910160405180910390a25050505050505050565b6001600160a01b03811633146108605760405163334bd91960e11b815260040160405180910390fd5b61086a8282611edc565b505050565b5f610878611dae565b6001600160a01b0382165f90815260026020819052604090912090810154610100900460ff166108ba5760405162461bcd60e51b815260040161057b906120c2565b805460408051633fabe5a360e21b815290515f928392839283926001600160a01b03169163feaf968c9160048083019260a09291908290030181865afa158015610906573d5f803e3d5ffd5b505050506040513d601f19601f8201168201806040525081019061092a9190612102565b9450945050935093505f83136109525760405162461bcd60e51b815260040161057b90612150565b6001850154610961834261218b565b111561097f5760405162461bcd60e51b815260040161057b9061219e565b836001600160501b0316816001600160501b031610156109b15760405162461bcd60e51b815260040161057b906121c3565b84546040805163313ce56760e01b815290515f926001600160a01b03169163313ce5679160048083019260209291908290030181865afa1580156109f7573d5f803e3d5ffd5b505050506040513d601f19601f82011682018060405250810190610a1b91906121e8565b905060128160ff161115610a415760405162461bcd60e51b815260040161057b90612343565b610a4c816012612203565b610a5790600a6122ff565b610a61908561230d565b60055490975060ff168015610a8c57506001600160a01b0388165f9081526003602052604090205415155b15610b3c576001600160a01b0388165f9081526003602052604081205490818911610ac057610abb898361218b565b610aca565b610aca828a61218b565b90505f82610ada8361271061230d565b610ae49190612324565b9050600454811115610b385760405162461bcd60e51b815260206004820152601960248201527f434952435549545f425245414b45525f54524947474552454400000000000000604482015260640161057b565b5050505b505050505050919050565b6001546001600160a01b03163314610b7257604051630e05f48560e11b815260040160405180910390fd5b6001600160a01b0381165f9081526002602081905260409091200154610100900460ff16610bd35760405162461bcd60e51b815260206004820152600e60248201526d1191515117d393d517d193d5539160921b604482015260640161057b565b6001600160a01b0381165f81815260026020818152604080842080546001600160a01b031916815560018101859055909201805461ffff1916905560039052808220829055517f80502f8484874852e0b4f9360dc6004a3fc5a00fa2b3339ebfdc1a419ceb7dac9190a250565b6001600160a01b0382165f908152600260208190526040822090810154610100900460ff16610c815760405162461bcd60e51b815260040161057b906120c2565b5f805f835f015f9054906101000a90046001600160a01b03166001600160a01b031663feaf968c6040518163ffffffff1660e01b815260040160a060405180830381865afa158015610cd5573d5f803e3d5ffd5b505050506040513d601f19601f82011682018060405250810190610cf99190612102565b94505050925092505f8213610d205760405162461bcd60e51b815260040161057b90612150565b826001600160501b0316816001600160501b03161015610d525760405162461bcd60e51b815260040161057b906121c3565b83546040805163313ce56760e01b815290515f926001600160a01b03169163313ce5679160048083019260209291908290030181865afa158015610d98573d5f803e3d5ffd5b505050506040513d601f19601f82011682018060405250810190610dbc91906121e8565b905060128160ff161115610de25760405162461bcd60e51b815260040161057b90612343565b5f610dee826012612203565b610df990600a6122ff565b610e03908561230d565b6002870154909150610e199060ff16600a6122ff565b610e23828a61230d565b610e2d9190612324565b9998505050505050505050565b7fc307c44629779eb8fc0b85f224c3d22f5876a6c84de0ee42d481eb7814f0d3a8610e6481611d12565b6001600160a01b0382165f90815260026020819052604090912090810154610100900460ff16610ea65760405162461bcd60e51b815260040161057b906120c2565b805460408051633fabe5a360e21b815290515f928392839283926001600160a01b03169163feaf968c9160048083019260a09291908290030181865afa158015610ef2573d5f803e3d5ffd5b505050506040513d601f19601f82011682018060405250810190610f169190612102565b9450945050935093505f8313610f3e5760405162461bcd60e51b815260040161057b90612150565b6001850154610f4d834261218b565b1115610f6b5760405162461bcd60e51b815260040161057b9061219e565b836001600160501b0316816001600160501b03161015610f9d5760405162461bcd60e51b815260040161057b906121c3565b84546040805163313ce56760e01b815290515f926001600160a01b03169163313ce5679160048083019260209291908290030181865afa158015610fe3573d5f803e3d5ffd5b505050506040513d601f19601f8201168201806040525081019061100791906121e8565b9050611014816012612203565b61101f90600a6122ff565b611029908561230d565b6001600160a01b039098165f9081526003602052604090209790975550505050505050565b6001546001600160a01b0316331461107957604051630e05f48560e11b815260040160405180910390fd5b6001600160a01b0384166110bf5760405162461bcd60e51b815260206004820152600d60248201526c24a72b20a624a22faa27a5a2a760991b604482015260640161057b565b6001600160a01b0383166111045760405162461bcd60e51b815260206004820152600c60248201526b1253959053125117d191515160a21b604482015260640161057b565b5f821161114a5760405162461bcd60e51b81526020600482015260146024820152731253959053125117d4d510531157d411549253d160621b604482015260640161057b565b620151808211156111955760405162461bcd60e51b81526020600482015260156024820152740a6a882988abea08aa4929e88bea89e9ebe90928e9605b1b604482015260640161057b565b60128160ff1611156111e95760405162461bcd60e51b815260206004820152601760248201527f544f4b454e5f444543494d414c535f544f4f5f48494748000000000000000000604482015260640161057b565b5f836001600160a01b031663313ce5676040518163ffffffff1660e01b8152600401602060405180830381865afa158015611226573d5f803e3d5ffd5b505050506040513d601f19601f8201168201806040525081019061124a91906121e8565b905060128160ff1611156112995760405162461bcd60e51b815260206004820152601660248201527508c8a8a88be888a86929a8298a6bea89e9ebe90928e960531b604482015260640161057b565b50604080516080810182526001600160a01b03808616808352602080840187815260ff8088168688019081526001606088018181528d88165f9081526002968790528a90209851895498166001600160a01b03199098169790971788559251928701929092559051949091018054935115156101000261ffff199094169490911693909317919091179091558151633fabe5a360e21b81529151909163feaf968c9160048083019260a09291908290030181865afa92505050801561137b575060408051601f3d908101601f1916820190925261137891810190612102565b60015b1561142e575f841315611428575f886001600160a01b031663313ce5676040518163ffffffff1660e01b8152600401602060405180830381865afa1580156113c5573d5f803e3d5ffd5b505050506040513d601f19601f820116820180604052508101906113e991906121e8565b60ff1690506113f981601261218b565b61140490600a61237a565b61140e908661230d565b6001600160a01b038b165f90815260036020526040902055505b50505050505b604080516001600160a01b0385811682526020820185905260ff8416828401529151918616917f64775658ac05d9d9e25f6759c7643165d607f142e5ad258fcac5d9ee35d8d3c39181900360600190a250505050565b5f918252602082815260408084206001600160a01b0393909316845291905290205460ff1690565b7fc307c44629779eb8fc0b85f224c3d22f5876a6c84de0ee42d481eb7814f0d3a86114d681611d12565b6001600160a01b0382165f90815260026020819052604090912090810154610100900460ff166115185760405162461bcd60e51b815260040161057b906120c2565b5f80825f015f9054906101000a90046001600160a01b03166001600160a01b031663feaf968c6040518163ffffffff1660e01b815260040160a060405180830381865afa15801561156b573d5f803e3d5ffd5b505050506040513d601f19601f8201168201806040525081019061158f9190612102565b509350509250505f82136115b55760405162461bcd60e51b815260040161057b90612150565b60018301546115c4824261218b565b11156115e25760405162461bcd60e51b815260040161057b9061219e565b82546040805163313ce56760e01b815290515f926001600160a01b03169163313ce5679160048083019260209291908290030181865afa158015611628573d5f803e3d5ffd5b505050506040513d601f19601f8201168201806040525081019061164c91906121e8565b90505f61165a826012612203565b61166590600a6122ff565b61166f908561230d565b6001600160a01b0388165f90815260036020526040902054909150801561171d575f8183116116a7576116a2838361218b565b6116b1565b6116b1828461218b565b90505f826116c18361271061230d565b6116cb9190612324565b60408051858152602081018790529081018290529091506001600160a01b038b16907f546b3e8dc7dbea0ddeb6c521dd6761749f4a7a5daac53a26a8389a761c624e429060600160405180910390a250505b506001600160a01b039096165f908152600360205260409020959095555050505050565b6001546001600160a01b0316331461176c57604051630e05f48560e11b815260040160405180910390fd5b610e1060065461177c9190612385565b4210156117cb5760405162461bcd60e51b815260206004820152601f60248201527f434952435549545f425245414b45525f434f4f4c444f574e5f41435449564500604482015260640161057b565b6005805460ff1916821515908117909155426006556040519081527fd54e260c48d23339d5c29a5c474aecd018822c155cb3624f2012203665da42b59060200160405180910390a150565b5f806118218461086f565b6001600160a01b0385165f908152600260208190526040909120015490915061184e9060ff16600a6122ff565b611858828561230d565b6118629190612324565b949350505050565b6001546001600160a01b0316331461189557604051630e05f48560e11b815260040160405180910390fd5b600780546001600160a01b038381166001600160a01b0319831681179093556040519116919082907ff5e7feeb674560747cbc6aab16c483de37d61373674f9c1a8854fa8b5c815bbc905f90a35050565b6001600160a01b0381165f908152600260208190526040822090810154610100900460ff1661191757505f92915050565b805460408051633fabe5a360e21b815290516001600160a01b039092169163feaf968c9160048082019260a0929091908290030181865afa92505050801561197c575060408051601f3d908101601f1916820190925261197991810190612102565b60015b61198857505f92915050565b5f841380156119a4575060018601546119a1834261218b565b11155b98975050505050505050565b6001546001600160a01b031633146119db57604051630e05f48560e11b815260040160405180910390fd5b6001600160a01b038116611a02576040516350c0eb2960e11b815260040160405180910390fd5b6001546040516001600160a01b038084169216907fae97011a27b5efe7b1d76fe38e75cc498fd64cc24e407a9c6b2185d27f611f7e905f90a3600180546001600160a01b0319166001600160a01b0392909216919091179055565b5f82815260208190526040902060010154611a7781611d12565b61052b8383611edc565b6001546001600160a01b03163314611aac57604051630e05f48560e11b815260040160405180910390fd5b60648110158015611abf57506113888111155b611b045760405162461bcd60e51b8152602060048201526016602482015275444556494154494f4e5f4f55545f4f465f52414e474560501b604482015260640161057b565b60045460408051918252602082018390527fea7b0359048504e79474eaaa05294b49265fc4e7b0a0c3737aaa22412e90f16e910160405180910390a1600455565b6001600160a01b0381165f908152600260208190526040822090810154610100900460ff16611b865760405162461bcd60e51b815260040161057b906120c2565b5f805f835f015f9054906101000a90046001600160a01b03166001600160a01b031663feaf968c6040518163ffffffff1660e01b815260040160a060405180830381865afa158015611bda573d5f803e3d5ffd5b505050506040513d601f19601f82011682018060405250810190611bfe9190612102565b94505050925092505f8213611c255760405162461bcd60e51b815260040161057b90612150565b826001600160501b0316816001600160501b03161015611c575760405162461bcd60e51b815260040161057b906121c3565b83546040805163313ce56760e01b815290515f926001600160a01b03169163313ce5679160048083019260209291908290030181865afa158015611c9d573d5f803e3d5ffd5b505050506040513d601f19601f82011682018060405250810190611cc191906121e8565b905060128160ff161115611ce75760405162461bcd60e51b815260040161057b90612343565b611cf2816012612203565b611cfd90600a6122ff565b611d07908461230d565b979650505050505050565b611d1c8133611f45565b50565b5f611d2a8383611484565b611da7575f838152602081815260408083206001600160a01b03861684529091529020805460ff19166001179055611d5f3390565b6001600160a01b0316826001600160a01b0316847f2f8788117e7eff1d82e926ec794901d17c78024a50270940304540a733656f0d60405160405180910390a4506001610501565b505f610501565b6007546001600160a01b0316611dc057565b5f8060075f9054906101000a90046001600160a01b03166001600160a01b031663feaf968c6040518163ffffffff1660e01b815260040160a060405180830381865afa158015611e12573d5f803e3d5ffd5b505050506040513d601f19601f82011682018060405250810190611e369190612102565b50935050925050815f14611e7d5760405162461bcd60e51b815260206004820152600e60248201526d29a2a8aaa2a721a2a92fa227aba760911b604482015260640161057b565b610e10611e8a824261218b565b1015611ed85760405162461bcd60e51b815260206004820152601f60248201527f53455155454e4345525f47524143455f504552494f445f4e4f545f4f56455200604482015260640161057b565b5050565b5f611ee78383611484565b15611da7575f838152602081815260408083206001600160a01b0386168085529252808320805460ff1916905551339286917ff6391f5c32d9c69d2a47ea670b442974b53935d1edc7fd64eb21e047a839171b9190a4506001610501565b611f4f8282611484565b611ed85760405163e2517d3f60e01b81526001600160a01b03821660048201526024810183905260440161057b565b5f60208284031215611f8e575f80fd5b81356001600160e01b031981168114611fa5575f80fd5b9392505050565b5f60208284031215611fbc575f80fd5b5035919050565b80356001600160a01b0381168114611fd9575f80fd5b919050565b5f8060408385031215611fef575f80fd5b82359150611fff60208401611fc3565b90509250929050565b5f60208284031215612018575f80fd5b611fa582611fc3565b5f8060408385031215612032575f80fd5b61203b83611fc3565b946020939093013593505050565b60ff81168114611d1c575f80fd5b5f805f806080858703121561206a575f80fd5b61207385611fc3565b935061208160208601611fc3565b925060408501359150606085013561209881612049565b939692955090935050565b5f602082840312156120b3575f80fd5b81358015158114611fa5575f80fd5b60208082526010908201526f1191515117d393d517d153905093115160821b604082015260600190565b80516001600160501b0381168114611fd9575f80fd5b5f805f805f60a08688031215612116575f80fd5b61211f866120ec565b60208701516040880151606089015192975090955093509150612144608087016120ec565b90509295509295909350565b6020808252600d908201526c494e56414c49445f505249434560981b604082015260600190565b634e487b7160e01b5f52601160045260245ffd5b8181038181111561050157610501612177565b6020808252600b908201526a5354414c455f505249434560a81b604082015260600190565b6020808252600b908201526a14d510531157d493d5539160aa1b604082015260600190565b5f602082840312156121f8575f80fd5b8151611fa581612049565b60ff828116828216039081111561050157610501612177565b6001815b60018411156122575780850481111561223b5761223b612177565b600184161561224957908102905b60019390931c928002612220565b935093915050565b5f8261226d57506001610501565b8161227957505f610501565b816001811461228f5760028114612299576122b5565b6001915050610501565b60ff8411156122aa576122aa612177565b50506001821b610501565b5060208310610133831016604e8410600b84101617156122d8575081810a610501565b6122e45f19848461221c565b805f19048211156122f7576122f7612177565b029392505050565b5f611fa560ff84168361225f565b808202811582820484141761050157610501612177565b5f8261233e57634e487b7160e01b5f52601260045260245ffd5b500490565b60208082526019908201527f554e535550504f525445445f464545445f444543494d414c5300000000000000604082015260600190565b5f611fa5838361225f565b808201808211156105015761050161217756fea2646970667358221220c483bcc8660c8d46a1b44290c075c5463004e3dfc3ec030361129ad1f60c4ade64736f6c634300081a0033","linkReferences":{}},"methodIdentifiers":{"CIRCUIT_BREAKER_COOLDOWN()":"3ec2c3f6","DEFAULT_ADMIN_ROLE()":"a217fddf","MAX_STALE_PERIOD()":"064b914f","ORACLE_ADMIN_ROLE()":"8003a94f","SEQUENCER_GRACE_PERIOD()":"d307b6db","circuitBreakerEnabled()":"ab9068fa","feeds(address)":"2fba4aa9","getPrice(address)":"41976e09","getPriceUnsafe(address)":"f989568d","getRoleAdmin(bytes32)":"248a9ca3","getValueUsd(address,uint256)":"b7f87644","getValueUsdUnsafe(address,uint256)":"7206c22b","grantRole(bytes32,address)":"2f2ff15d","hasRole(bytes32,address)":"91d14854","isFeedHealthy(address)":"bb8a8b27","lastCircuitBreakerToggle()":"a63ffddd","lastKnownPrice(address)":"84fcfa66","maxDeviationBps()":"3ee7a701","refreshPrice(address)":"33a67949","removeFeed(address)":"4b90fd69","renounceRole(bytes32,address)":"36568abe","resetLastKnownPrice(address)":"74d51160","revokeRole(bytes32,address)":"d547741f","sequencerUptimeFeed()":"a7264705","setCircuitBreakerEnabled(bool)":"9dd906b1","setFeed(address,address,uint256,uint8)":"7aa44821","setMaxDeviation(uint256)":"dddbc049","setSequencerUptimeFeed(address)":"b8f44963","setTimelock(address)":"bdacb303","supportsInterface(bytes4)":"01ffc9a7","timelock()":"d33219b4","updatePrice(address)":"96e85ced"},"id":10}