{"abi":[{"type":"constructor","inputs":[],"stateMutability":"nonpayable"},{"type":"function","name":"DEFAULT_ADMIN_ROLE","inputs":[],"outputs":[{"name":"","type":"bytes32","internalType":"bytes32"}],"stateMutability":"view"},{"type":"function","name":"KEEPER_ROLE","inputs":[],"outputs":[{"name":"","type":"bytes32","internalType":"bytes32"}],"stateMutability":"view"},{"type":"function","name":"ORACLE_ADMIN_ROLE","inputs":[],"outputs":[{"name":"","type":"bytes32","internalType":"bytes32"}],"stateMutability":"view"},{"type":"function","name":"circuitBreakerCooldown","inputs":[],"outputs":[{"name":"","type":"uint256","internalType":"uint256"}],"stateMutability":"view"},{"type":"function","name":"circuitBreakerEnabled","inputs":[],"outputs":[{"name":"","type":"bool","internalType":"bool"}],"stateMutability":"view"},{"type":"function","name":"circuitBreakerTrippedAt","inputs":[{"name":"","type":"address","internalType":"address"}],"outputs":[{"name":"","type":"uint256","internalType":"uint256"}],"stateMutability":"view"},{"type":"function","name":"feeds","inputs":[{"name":"","type":"address","internalType":"address"}],"outputs":[{"name":"feed","type":"address","internalType":"contract IAggregatorV3"},{"name":"stalePeriod","type":"uint256","internalType":"uint256"},{"name":"tokenDecimals","type":"uint8","internalType":"uint8"},{"name":"enabled","type":"bool","internalType":"bool"}],"stateMutability":"view"},{"type":"function","name":"getPrice","inputs":[{"name":"token","type":"address","internalType":"address"}],"outputs":[{"name":"price","type":"uint256","internalType":"uint256"}],"stateMutability":"view"},{"type":"function","name":"getPriceUnsafe","inputs":[{"name":"token","type":"address","internalType":"address"}],"outputs":[{"name":"price","type":"uint256","internalType":"uint256"}],"stateMutability":"view"},{"type":"function","name":"getRoleAdmin","inputs":[{"name":"role","type":"bytes32","internalType":"bytes32"}],"outputs":[{"name":"","type":"bytes32","internalType":"bytes32"}],"stateMutability":"view"},{"type":"function","name":"getValueUsd","inputs":[{"name":"token","type":"address","internalType":"address"},{"name":"amount","type":"uint256","internalType":"uint256"}],"outputs":[{"name":"valueUsd","type":"uint256","internalType":"uint256"}],"stateMutability":"view"},{"type":"function","name":"getValueUsdUnsafe","inputs":[{"name":"token","type":"address","internalType":"address"},{"name":"amount","type":"uint256","internalType":"uint256"}],"outputs":[{"name":"valueUsd","type":"uint256","internalType":"uint256"}],"stateMutability":"view"},{"type":"function","name":"grantRole","inputs":[{"name":"role","type":"bytes32","internalType":"bytes32"},{"name":"account","type":"address","internalType":"address"}],"outputs":[],"stateMutability":"nonpayable"},{"type":"function","name":"hasRole","inputs":[{"name":"role","type":"bytes32","internalType":"bytes32"},{"name":"account","type":"address","internalType":"address"}],"outputs":[{"name":"","type":"bool","internalType":"bool"}],"stateMutability":"view"},{"type":"function","name":"isFeedHealthy","inputs":[{"name":"token","type":"address","internalType":"address"}],"outputs":[{"name":"","type":"bool","internalType":"bool"}],"stateMutability":"view"},{"type":"function","name":"keeperResetPrice","inputs":[{"name":"token","type":"address","internalType":"address"}],"outputs":[],"stateMutability":"nonpayable"},{"type":"function","name":"lastKnownPrice","inputs":[{"name":"","type":"address","internalType":"address"}],"outputs":[{"name":"","type":"uint256","internalType":"uint256"}],"stateMutability":"view"},{"type":"function","name":"maxDeviationBps","inputs":[],"outputs":[{"name":"","type":"uint256","internalType":"uint256"}],"stateMutability":"view"},{"type":"function","name":"removeFeed","inputs":[{"name":"token","type":"address","internalType":"address"}],"outputs":[],"stateMutability":"nonpayable"},{"type":"function","name":"renounceRole","inputs":[{"name":"role","type":"bytes32","internalType":"bytes32"},{"name":"callerConfirmation","type":"address","internalType":"address"}],"outputs":[],"stateMutability":"nonpayable"},{"type":"function","name":"resetLastKnownPrice","inputs":[{"name":"token","type":"address","internalType":"address"}],"outputs":[],"stateMutability":"nonpayable"},{"type":"function","name":"revokeRole","inputs":[{"name":"role","type":"bytes32","internalType":"bytes32"},{"name":"account","type":"address","internalType":"address"}],"outputs":[],"stateMutability":"nonpayable"},{"type":"function","name":"setCircuitBreakerCooldown","inputs":[{"name":"_cooldown","type":"uint256","internalType":"uint256"}],"outputs":[],"stateMutability":"nonpayable"},{"type":"function","name":"setCircuitBreakerEnabled","inputs":[{"name":"_enabled","type":"bool","internalType":"bool"}],"outputs":[],"stateMutability":"nonpayable"},{"type":"function","name":"setFeed","inputs":[{"name":"token","type":"address","internalType":"address"},{"name":"feed","type":"address","internalType":"address"},{"name":"stalePeriod","type":"uint256","internalType":"uint256"},{"name":"tokenDecimals","type":"uint8","internalType":"uint8"}],"outputs":[],"stateMutability":"nonpayable"},{"type":"function","name":"setMaxDeviation","inputs":[{"name":"_maxDeviationBps","type":"uint256","internalType":"uint256"}],"outputs":[],"stateMutability":"nonpayable"},{"type":"function","name":"supportsInterface","inputs":[{"name":"interfaceId","type":"bytes4","internalType":"bytes4"}],"outputs":[{"name":"","type":"bool","internalType":"bool"}],"stateMutability":"view"},{"type":"function","name":"updatePrice","inputs":[{"name":"token","type":"address","internalType":"address"}],"outputs":[],"stateMutability":"nonpayable"},{"type":"event","name":"CircuitBreakerAutoRecovered","inputs":[{"name":"token","type":"address","indexed":true,"internalType":"address"},{"name":"newPrice","type":"uint256","indexed":false,"internalType":"uint256"}],"anonymous":false},{"type":"event","name":"CircuitBreakerCooldownUpdated","inputs":[{"name":"oldCooldown","type":"uint256","indexed":false,"internalType":"uint256"},{"name":"newCooldown","type":"uint256","indexed":false,"internalType":"uint256"}],"anonymous":false},{"type":"event","name":"CircuitBreakerToggled","inputs":[{"name":"enabled","type":"bool","indexed":false,"internalType":"bool"}],"anonymous":false},{"type":"event","name":"CircuitBreakerTriggered","inputs":[{"name":"token","type":"address","indexed":true,"internalType":"address"},{"name":"oldPrice","type":"uint256","indexed":false,"internalType":"uint256"},{"name":"newPrice","type":"uint256","indexed":false,"internalType":"uint256"},{"name":"deviationBps","type":"uint256","indexed":false,"internalType":"uint256"}],"anonymous":false},{"type":"event","name":"FeedRemoved","inputs":[{"name":"token","type":"address","indexed":true,"internalType":"address"}],"anonymous":false},{"type":"event","name":"FeedUpdated","inputs":[{"name":"token","type":"address","indexed":true,"internalType":"address"},{"name":"feed","type":"address","indexed":false,"internalType":"address"},{"name":"stalePeriod","type":"uint256","indexed":false,"internalType":"uint256"},{"name":"tokenDecimals","type":"uint8","indexed":false,"internalType":"uint8"}],"anonymous":false},{"type":"event","name":"KeeperRecovery","inputs":[{"name":"token","type":"address","indexed":true,"internalType":"address"},{"name":"keeper","type":"address","indexed":true,"internalType":"address"},{"name":"newPrice","type":"uint256","indexed":false,"internalType":"uint256"}],"anonymous":false},{"type":"event","name":"MaxDeviationUpdated","inputs":[{"name":"oldBps","type":"uint256","indexed":false,"internalType":"uint256"},{"name":"newBps","type":"uint256","indexed":false,"internalType":"uint256"}],"anonymous":false},{"type":"event","name":"RoleAdminChanged","inputs":[{"name":"role","type":"bytes32","indexed":true,"internalType":"bytes32"},{"name":"previousAdminRole","type":"bytes32","indexed":true,"internalType":"bytes32"},{"name":"newAdminRole","type":"bytes32","indexed":true,"internalType":"bytes32"}],"anonymous":false},{"type":"event","name":"RoleGranted","inputs":[{"name":"role","type":"bytes32","indexed":true,"internalType":"bytes32"},{"name":"account","type":"address","indexed":true,"internalType":"address"},{"name":"sender","type":"address","indexed":true,"internalType":"address"}],"anonymous":false},{"type":"event","name":"RoleRevoked","inputs":[{"name":"role","type":"bytes32","indexed":true,"internalType":"bytes32"},{"name":"account","type":"address","indexed":true,"internalType":"address"},{"name":"sender","type":"address","indexed":true,"internalType":"address"}],"anonymous":false},{"type":"error","name":"AccessControlBadConfirmation","inputs":[]},{"type":"error","name":"AccessControlUnauthorizedAccount","inputs":[{"name":"account","type":"address","internalType":"address"},{"name":"neededRole","type":"bytes32","internalType":"bytes32"}]}],"bytecode":{"object":"0x60806040526107d06003556004805460ff19166001179055610e10600655348015610028575f80fd5b506100335f3361008f565b5061005e7fc307c44629779eb8fc0b85f224c3d22f5876a6c84de0ee42d481eb7814f0d3a83361008f565b506100897ffc8737ab85eb45125971625a9ebdb75cc78e01d5c1fa80c4c6e5203f47bc4fab3361008f565b50610138565b5f828152602081815260408083206001600160a01b038516845290915281205460ff1661012f575f838152602081815260408083206001600160a01b03861684529091529020805460ff191660011790556100e73390565b6001600160a01b0316826001600160a01b0316847f2f8788117e7eff1d82e926ec794901d17c78024a50270940304540a733656f0d60405160405180910390a4506001610132565b505f5b92915050565b6121cf806101455f395ff3fe608060405234801561000f575f80fd5b50600436106101bb575f3560e01c806384fcfa66116100f3578063bb8a8b2711610093578063d99f6d671161006e578063d99f6d6714610426578063dddbc0491461042f578063e6c8efe414610442578063f989568d14610461575f80fd5b8063bb8a8b27146103ed578063bca4424c14610400578063d547741f14610413575f80fd5b80639dd906b1116100ce5780639dd906b1146103b3578063a217fddf146103c6578063ab9068fa146103cd578063b7f87644146103da575f80fd5b806384fcfa661461036e57806391d148541461038d57806396e85ced146103a0575f80fd5b80633ee7a7011161015e5780637206c22b116101395780637206c22b1461032157806374d51160146103345780637aa44821146103475780638003a94f1461035a575f80fd5b80633ee7a701146102f257806341976e09146102fb5780634b90fd691461030e575f80fd5b80632f2ff15d116101995780632f2ff15d1461022c5780632fba4aa91461023f578063364bc15a146102b857806336568abe146102df575f80fd5b806301ffc9a7146101bf5780630cc6d5c2146101e7578063248a9ca3146101fc575b5f80fd5b6101d26101cd366004611d48565b610474565b60405190151581526020015b60405180910390f35b6101fa6101f5366004611d76565b6104aa565b005b61021e61020a366004611d76565b5f9081526020819052604090206001015490565b6040519081526020016101de565b6101fa61023a366004611da8565b610561565b61028461024d366004611dd2565b600160208190525f91825260409091208054918101546002909101546001600160a01b039092169160ff8082169161010090041684565b604080516001600160a01b039095168552602085019390935260ff90911691830191909152151560608201526080016101de565b61021e7ffc8737ab85eb45125971625a9ebdb75cc78e01d5c1fa80c4c6e5203f47bc4fab81565b6101fa6102ed366004611da8565b61058b565b61021e60035481565b61021e610309366004611dd2565b6105c3565b6101fa61031c366004611dd2565b6108de565b61021e61032f366004611deb565b6109c3565b6101fa610342366004611dd2565b610be3565b6101fa610355366004611e21565b610d77565b61021e5f8051602061217a83398151915281565b61021e61037c366004611dd2565b60026020525f908152604090205481565b6101d261039b366004611da8565b61118d565b6101fa6103ae366004611dd2565b6111b5565b6101fa6103c1366004611e6d565b611489565b61021e5f81565b6004546101d29060ff1681565b61021e6103e8366004611deb565b6114e8565b6101d26103fb366004611dd2565b61159a565b6101fa61040e366004611dd2565b611663565b6101fa610421366004611da8565b61194a565b61021e60065481565b6101fa61043d366004611d76565b61196e565b61021e610450366004611dd2565b60056020525f908152604090205481565b61021e61046f366004611dd2565b611a1f565b5f6001600160e01b03198216637965db0b60e01b14806104a457506301ffc9a760e01b6001600160e01b03198316145b92915050565b5f8051602061217a8339815191526104c181611c06565b61038482101580156104d65750620151808211155b61051f5760405162461bcd60e51b8152602060048201526015602482015274434f4f4c444f574e5f4f55545f4f465f52414e474560581b60448201526064015b60405180910390fd5b60065460408051918252602082018490527f593e1a1b8e5f3b521b3a53239489ec74837b8c46b25509fc15082fe654c394c4910160405180910390a150600655565b5f8281526020819052604090206001015461057b81611c06565b6105858383611c13565b50505050565b6001600160a01b03811633146105b45760405163334bd91960e11b815260040160405180910390fd5b6105be8282611ca2565b505050565b6001600160a01b0381165f9081526001602052604081206002810154610100900460ff166106035760405162461bcd60e51b815260040161051690611e8c565b805460408051633fabe5a360e21b815290515f928392839283926001600160a01b03169163feaf968c9160048083019260a09291908290030181865afa15801561064f573d5f803e3d5ffd5b505050506040513d601f19601f820116820180604052508101906106739190611ecc565b9450945050935093505f831361069b5760405162461bcd60e51b815260040161051690611f1a565b60018501546106aa8342611f55565b11156106c85760405162461bcd60e51b815260040161051690611f68565b836001600160501b0316816001600160501b031610156106fa5760405162461bcd60e51b815260040161051690611f8d565b84546040805163313ce56760e01b815290515f926001600160a01b03169163313ce5679160048083019260209291908290030181865afa158015610740573d5f803e3d5ffd5b505050506040513d601f19601f820116820180604052508101906107649190611fb2565b905060128160ff16111561078a5760405162461bcd60e51b815260040161051690611fcd565b610795816012612004565b6107a090600a612100565b6107aa908561210e565b60045490975060ff1680156107d557506001600160a01b0388165f9081526002602052604090205415155b156108d3576001600160a01b0388165f9081526002602052604081205490818911610809576108048983611f55565b610813565b610813828a611f55565b90505f826108238361271061210e565b61082d9190612125565b90506003548111156108cf576001600160a01b038b165f908152600560205260409020541580159061088357506006546001600160a01b038c165f9081526005602052604090205461087f9190612144565b4210155b6108cf5760405162461bcd60e51b815260206004820152601960248201527f434952435549545f425245414b45525f545249474745524544000000000000006044820152606401610516565b5050505b505050505050919050565b5f8051602061217a8339815191526108f581611c06565b6001600160a01b0382165f90815260016020526040902060020154610100900460ff166109555760405162461bcd60e51b815260206004820152600e60248201526d1191515117d393d517d193d5539160921b6044820152606401610516565b6001600160a01b0382165f81815260016020818152604080842080546001600160a01b03191681559283018490556002928301805461ffff19169055919052808220829055517f80502f8484874852e0b4f9360dc6004a3fc5a00fa2b3339ebfdc1a419ceb7dac9190a25050565b6001600160a01b0382165f9081526001602052604081206002810154610100900460ff16610a035760405162461bcd60e51b815260040161051690611e8c565b805460408051633fabe5a360e21b815290515f928392839283926001600160a01b03169163feaf968c9160048083019260a09291908290030181865afa158015610a4f573d5f803e3d5ffd5b505050506040513d601f19601f82011682018060405250810190610a739190611ecc565b9450945050935093505f8313610a9b5760405162461bcd60e51b815260040161051690611f1a565b6001850154610aaa8342611f55565b1115610ac85760405162461bcd60e51b815260040161051690611f68565b836001600160501b0316816001600160501b03161015610afa5760405162461bcd60e51b815260040161051690611f8d565b84546040805163313ce56760e01b815290515f926001600160a01b03169163313ce5679160048083019260209291908290030181865afa158015610b40573d5f803e3d5ffd5b505050506040513d601f19601f82011682018060405250810190610b649190611fb2565b905060128160ff161115610b8a5760405162461bcd60e51b815260040161051690611fcd565b5f610b96826012612004565b610ba190600a612100565b610bab908661210e565b6002880154909150610bc19060ff16600a612100565b610bcb828b61210e565b610bd59190612125565b9a9950505050505050505050565b5f8051602061217a833981519152610bfa81611c06565b6001600160a01b0382165f9081526001602052604090206002810154610100900460ff16610c3a5760405162461bcd60e51b815260040161051690611e8c565b805460408051633fabe5a360e21b815290515f926001600160a01b03169163feaf968c9160048083019260a09291908290030181865afa158015610c80573d5f803e3d5ffd5b505050506040513d601f19601f82011682018060405250810190610ca49190611ecc565b5050509150505f8113610cc95760405162461bcd60e51b815260040161051690611f1a565b81546040805163313ce56760e01b815290515f926001600160a01b03169163313ce5679160048083019260209291908290030181865afa158015610d0f573d5f803e3d5ffd5b505050506040513d601f19601f82011682018060405250810190610d339190611fb2565b9050610d40816012612004565b610d4b90600a612100565b610d55908361210e565b6001600160a01b039095165f9081526002602052604090209490945550505050565b5f8051602061217a833981519152610d8e81611c06565b6001600160a01b038516610dd45760405162461bcd60e51b815260206004820152600d60248201526c24a72b20a624a22faa27a5a2a760991b6044820152606401610516565b6001600160a01b038416610e195760405162461bcd60e51b815260206004820152600c60248201526b1253959053125117d191515160a21b6044820152606401610516565b5f8311610e5f5760405162461bcd60e51b81526020600482015260146024820152731253959053125117d4d510531157d411549253d160621b6044820152606401610516565b6202a300831115610eaa5760405162461bcd60e51b81526020600482015260156024820152745354414c455f504552494f445f544f4f5f4c4f4e4760581b6044820152606401610516565b60128260ff161115610efe5760405162461bcd60e51b815260206004820152601760248201527f544f4b454e5f444543494d414c535f544f4f5f484947480000000000000000006044820152606401610516565b604080516080810182526001600160a01b03808716808352602080840188815260ff8089168688019081526001606088018181528e88165f9081528287528a812099518a5499166001600160a01b03199099169890981789559351908801555160029096018054925115156101000261ffff19909316969091169590951717909355835163313ce56760e01b815293519193909263313ce567926004808401938290030181865afa158015610fb5573d5f803e3d5ffd5b505050506040513d601f19601f82011682018060405250810190610fd99190611fb2565b905060128160ff1611156110285760405162461bcd60e51b815260206004820152601660248201527508c8a8a88be888a86929a8298a6bea89e9ebe90928e960531b6044820152606401610516565b50836001600160a01b031663feaf968c6040518163ffffffff1660e01b815260040160a060405180830381865afa925050508015611083575060408051601f3d908101601f1916820190925261108091810190611ecc565b60015b15611136575f841315611130575f896001600160a01b031663313ce5676040518163ffffffff1660e01b8152600401602060405180830381865afa1580156110cd573d5f803e3d5ffd5b505050506040513d601f19601f820116820180604052508101906110f19190611fb2565b60ff169050611101816012611f55565b61110c90600a612157565b611116908661210e565b6001600160a01b038c165f90815260026020526040902055505b50505050505b604080516001600160a01b0386811682526020820186905260ff8516828401529151918716917f64775658ac05d9d9e25f6759c7643165d607f142e5ad258fcac5d9ee35d8d3c39181900360600190a25050505050565b5f918252602082815260408084206001600160a01b0393909316845291905290205460ff1690565b5f8051602061217a8339815191526111cc81611c06565b6001600160a01b0382165f9081526001602052604090206002810154610100900460ff1661120c5760405162461bcd60e51b815260040161051690611e8c565b5f80825f015f9054906101000a90046001600160a01b03166001600160a01b031663feaf968c6040518163ffffffff1660e01b815260040160a060405180830381865afa15801561125f573d5f803e3d5ffd5b505050506040513d601f19601f820116820180604052508101906112839190611ecc565b509350509250505f82136112a95760405162461bcd60e51b815260040161051690611f1a565b60018301546112b88242611f55565b11156112d65760405162461bcd60e51b815260040161051690611f68565b82546040805163313ce56760e01b815290515f926001600160a01b03169163313ce5679160048083019260209291908290030181865afa15801561131c573d5f803e3d5ffd5b505050506040513d601f19601f820116820180604052508101906113409190611fb2565b90505f61134e826012612004565b61135990600a612100565b611363908561210e565b6001600160a01b0388165f908152600260205260409020549091508015611457575f81831161139b576113968383611f55565b6113a5565b6113a58284611f55565b90505f826113b58361271061210e565b6113bf9190612125565b60408051858152602081018790529081018290529091506001600160a01b038b16907f546b3e8dc7dbea0ddeb6c521dd6761749f4a7a5daac53a26a8389a761c624e429060600160405180910390a26003548111801561143457506001600160a01b038a165f90815260056020526040902054155b15611454576001600160a01b038a165f9081526005602052604090204290555b50505b506001600160a01b039096165f9081526002602090815260408083209890985560059052958620959095555050505050565b5f8051602061217a8339815191526114a081611c06565b6004805460ff19168315159081179091556040519081527fd54e260c48d23339d5c29a5c474aecd018822c155cb3624f2012203665da42b59060200160405180910390a15050565b6040516341976e0960e01b81526001600160a01b03831660048201525f90819030906341976e0990602401602060405180830381865afa15801561152e573d5f803e3d5ffd5b505050506040513d601f19601f820116820180604052508101906115529190612162565b6001600160a01b0385165f9081526001602052604090206002015490915061157e9060ff16600a612100565b611588828561210e565b6115929190612125565b949350505050565b6001600160a01b0381165f9081526001602052604081206002810154610100900460ff166115ca57505f92915050565b805460408051633fabe5a360e21b815290516001600160a01b039092169163feaf968c9160048082019260a0929091908290030181865afa92505050801561162f575060408051601f3d908101601f1916820190925261162c91810190611ecc565b60015b61163b57505f92915050565b5f84138015611657575060018601546116548342611f55565b11155b98975050505050505050565b7ffc8737ab85eb45125971625a9ebdb75cc78e01d5c1fa80c4c6e5203f47bc4fab61168d81611c06565b6001600160a01b0382165f908152600560205260409020546116e25760405162461bcd60e51b815260206004820152600e60248201526d10d097d393d517d514925414115160921b6044820152606401610516565b6006546001600160a01b0383165f908152600560205260409020546117079190612144565b42101561174d5760405162461bcd60e51b815260206004820152601460248201527310d3d3d31113d5d397d393d517d153105414d15160621b6044820152606401610516565b6001600160a01b0382165f9081526001602052604090206002810154610100900460ff1661178d5760405162461bcd60e51b815260040161051690611e8c565b5f80825f015f9054906101000a90046001600160a01b03166001600160a01b031663feaf968c6040518163ffffffff1660e01b815260040160a060405180830381865afa1580156117e0573d5f803e3d5ffd5b505050506040513d601f19601f820116820180604052508101906118049190611ecc565b509350509250505f821361182a5760405162461bcd60e51b815260040161051690611f1a565b60018301546118398242611f55565b11156118575760405162461bcd60e51b815260040161051690611f68565b82546040805163313ce56760e01b815290515f926001600160a01b03169163313ce5679160048083019260209291908290030181865afa15801561189d573d5f803e3d5ffd5b505050506040513d601f19601f820116820180604052508101906118c19190611fb2565b90505f6118cf826012612004565b6118da90600a612100565b6118e4908561210e565b6001600160a01b0388165f8181526002602090815260408083208590556005825280832092909255905183815292935033927f7a43027c2f288b127d31fd4fefa0254f42687f3a668d775a03d92ff223db875e910160405180910390a350505050505050565b5f8281526020819052604090206001015461196481611c06565b6105858383611ca2565b5f8051602061217a83398151915261198581611c06565b6064821015801561199857506113888211155b6119dd5760405162461bcd60e51b8152602060048201526016602482015275444556494154494f4e5f4f55545f4f465f52414e474560501b6044820152606401610516565b60035460408051918252602082018490527fea7b0359048504e79474eaaa05294b49265fc4e7b0a0c3737aaa22412e90f16e910160405180910390a150600355565b6001600160a01b0381165f9081526001602052604081206002810154610100900460ff16611a5f5760405162461bcd60e51b815260040161051690611e8c565b805460408051633fabe5a360e21b815290515f928392839283926001600160a01b03169163feaf968c9160048083019260a09291908290030181865afa158015611aab573d5f803e3d5ffd5b505050506040513d601f19601f82011682018060405250810190611acf9190611ecc565b9450945050935093505f8313611af75760405162461bcd60e51b815260040161051690611f1a565b6001850154611b068342611f55565b1115611b245760405162461bcd60e51b815260040161051690611f68565b836001600160501b0316816001600160501b03161015611b565760405162461bcd60e51b815260040161051690611f8d565b84546040805163313ce56760e01b815290515f926001600160a01b03169163313ce5679160048083019260209291908290030181865afa158015611b9c573d5f803e3d5ffd5b505050506040513d601f19601f82011682018060405250810190611bc09190611fb2565b905060128160ff161115611be65760405162461bcd60e51b815260040161051690611fcd565b611bf1816012612004565b611bfc90600a612100565b611657908561210e565b611c108133611d0b565b50565b5f611c1e838361118d565b611c9b575f838152602081815260408083206001600160a01b03861684529091529020805460ff19166001179055611c533390565b6001600160a01b0316826001600160a01b0316847f2f8788117e7eff1d82e926ec794901d17c78024a50270940304540a733656f0d60405160405180910390a45060016104a4565b505f6104a4565b5f611cad838361118d565b15611c9b575f838152602081815260408083206001600160a01b0386168085529252808320805460ff1916905551339286917ff6391f5c32d9c69d2a47ea670b442974b53935d1edc7fd64eb21e047a839171b9190a45060016104a4565b611d15828261118d565b611d445760405163e2517d3f60e01b81526001600160a01b038216600482015260248101839052604401610516565b5050565b5f60208284031215611d58575f80fd5b81356001600160e01b031981168114611d6f575f80fd5b9392505050565b5f60208284031215611d86575f80fd5b5035919050565b80356001600160a01b0381168114611da3575f80fd5b919050565b5f8060408385031215611db9575f80fd5b82359150611dc960208401611d8d565b90509250929050565b5f60208284031215611de2575f80fd5b611d6f82611d8d565b5f8060408385031215611dfc575f80fd5b611e0583611d8d565b946020939093013593505050565b60ff81168114611c10575f80fd5b5f805f8060808587031215611e34575f80fd5b611e3d85611d8d565b9350611e4b60208601611d8d565b9250604085013591506060850135611e6281611e13565b939692955090935050565b5f60208284031215611e7d575f80fd5b81358015158114611d6f575f80fd5b60208082526010908201526f1191515117d393d517d153905093115160821b604082015260600190565b80516001600160501b0381168114611da3575f80fd5b5f805f805f60a08688031215611ee0575f80fd5b611ee986611eb6565b60208701516040880151606089015192975090955093509150611f0e60808701611eb6565b90509295509295909350565b6020808252600d908201526c494e56414c49445f505249434560981b604082015260600190565b634e487b7160e01b5f52601160045260245ffd5b818103818111156104a4576104a4611f41565b6020808252600b908201526a5354414c455f505249434560a81b604082015260600190565b6020808252600b908201526a14d510531157d493d5539160aa1b604082015260600190565b5f60208284031215611fc2575f80fd5b8151611d6f81611e13565b60208082526019908201527f554e535550504f525445445f464545445f444543494d414c5300000000000000604082015260600190565b60ff82811682821603908111156104a4576104a4611f41565b6001815b60018411156120585780850481111561203c5761203c611f41565b600184161561204a57908102905b60019390931c928002612021565b935093915050565b5f8261206e575060016104a4565b8161207a57505f6104a4565b8160018114612090576002811461209a576120b6565b60019150506104a4565b60ff8411156120ab576120ab611f41565b50506001821b6104a4565b5060208310610133831016604e8410600b84101617156120d9575081810a6104a4565b6120e55f19848461201d565b805f19048211156120f8576120f8611f41565b029392505050565b5f611d6f60ff841683612060565b80820281158282048414176104a4576104a4611f41565b5f8261213f57634e487b7160e01b5f52601260045260245ffd5b500490565b808201808211156104a4576104a4611f41565b5f611d6f8383612060565b5f60208284031215612172575f80fd5b505191905056fec307c44629779eb8fc0b85f224c3d22f5876a6c84de0ee42d481eb7814f0d3a8a26469706673582212207d184b8f9a55699d6c1cc48b7f33939b0358503f4f3a4766a36a63fda4df2c9964736f6c634300081a0033","linkReferences":{}},"methodIdentifiers":{"DEFAULT_ADMIN_ROLE()":"a217fddf","KEEPER_ROLE()":"364bc15a","ORACLE_ADMIN_ROLE()":"8003a94f","circuitBreakerCooldown()":"d99f6d67","circuitBreakerEnabled()":"ab9068fa","circuitBreakerTrippedAt(address)":"e6c8efe4","feeds(address)":"2fba4aa9","getPrice(address)":"41976e09","getPriceUnsafe(address)":"f989568d","getRoleAdmin(bytes32)":"248a9ca3","getValueUsd(address,uint256)":"b7f87644","getValueUsdUnsafe(address,uint256)":"7206c22b","grantRole(bytes32,address)":"2f2ff15d","hasRole(bytes32,address)":"91d14854","isFeedHealthy(address)":"bb8a8b27","keeperResetPrice(address)":"bca4424c","lastKnownPrice(address)":"84fcfa66","maxDeviationBps()":"3ee7a701","removeFeed(address)":"4b90fd69","renounceRole(bytes32,address)":"36568abe","resetLastKnownPrice(address)":"74d51160","revokeRole(bytes32,address)":"d547741f","setCircuitBreakerCooldown(uint256)":"0cc6d5c2","setCircuitBreakerEnabled(bool)":"9dd906b1","setFeed(address,address,uint256,uint8)":"7aa44821","setMaxDeviation(uint256)":"dddbc049","supportsInterface(bytes4)":"01ffc9a7","updatePrice(address)":"96e85ced"},"id":11}