{"abi":[{"type":"constructor","inputs":[{"name":"_vault","type":"address","internalType":"address"},{"name":"_borrowModule","type":"address","internalType":"address"},{"name":"_oracle","type":"address","internalType":"address"},{"name":"_musd","type":"address","internalType":"address"},{"name":"_closeFactorBps","type":"uint256","internalType":"uint256"},{"name":"_timelock","type":"address","internalType":"address"}],"stateMutability":"nonpayable"},{"type":"function","name":"DEFAULT_ADMIN_ROLE","inputs":[],"outputs":[{"name":"","type":"bytes32","internalType":"bytes32"}],"stateMutability":"view"},{"type":"function","name":"ENGINE_ADMIN_ROLE","inputs":[],"outputs":[{"name":"","type":"bytes32","internalType":"bytes32"}],"stateMutability":"view"},{"type":"function","name":"MIN_LIQUIDATION_AMOUNT","inputs":[],"outputs":[{"name":"","type":"uint256","internalType":"uint256"}],"stateMutability":"view"},{"type":"function","name":"PAUSER_ROLE","inputs":[],"outputs":[{"name":"","type":"bytes32","internalType":"bytes32"}],"stateMutability":"view"},{"type":"function","name":"borrowModule","inputs":[],"outputs":[{"name":"","type":"address","internalType":"contract IBorrowModule"}],"stateMutability":"view"},{"type":"function","name":"closeFactorBps","inputs":[],"outputs":[{"name":"","type":"uint256","internalType":"uint256"}],"stateMutability":"view"},{"type":"function","name":"estimateSeize","inputs":[{"name":"borrower","type":"address","internalType":"address"},{"name":"collateralToken","type":"address","internalType":"address"},{"name":"debtToRepay","type":"uint256","internalType":"uint256"}],"outputs":[{"name":"collateralAmount","type":"uint256","internalType":"uint256"}],"stateMutability":"view"},{"type":"function","name":"fullLiquidationThreshold","inputs":[],"outputs":[{"name":"","type":"uint256","internalType":"uint256"}],"stateMutability":"view"},{"type":"function","name":"getRoleAdmin","inputs":[{"name":"role","type":"bytes32","internalType":"bytes32"}],"outputs":[{"name":"","type":"bytes32","internalType":"bytes32"}],"stateMutability":"view"},{"type":"function","name":"grantRole","inputs":[{"name":"role","type":"bytes32","internalType":"bytes32"},{"name":"account","type":"address","internalType":"address"}],"outputs":[],"stateMutability":"nonpayable"},{"type":"function","name":"hasRole","inputs":[{"name":"role","type":"bytes32","internalType":"bytes32"},{"name":"account","type":"address","internalType":"address"}],"outputs":[{"name":"","type":"bool","internalType":"bool"}],"stateMutability":"view"},{"type":"function","name":"isLiquidatable","inputs":[{"name":"borrower","type":"address","internalType":"address"}],"outputs":[{"name":"","type":"bool","internalType":"bool"}],"stateMutability":"view"},{"type":"function","name":"liquidate","inputs":[{"name":"borrower","type":"address","internalType":"address"},{"name":"collateralToken","type":"address","internalType":"address"},{"name":"debtToRepay","type":"uint256","internalType":"uint256"}],"outputs":[],"stateMutability":"nonpayable"},{"type":"function","name":"musd","inputs":[],"outputs":[{"name":"","type":"address","internalType":"contract IMUSD"}],"stateMutability":"view"},{"type":"function","name":"oracle","inputs":[],"outputs":[{"name":"","type":"address","internalType":"contract IPriceOracle"}],"stateMutability":"view"},{"type":"function","name":"pause","inputs":[],"outputs":[],"stateMutability":"nonpayable"},{"type":"function","name":"paused","inputs":[],"outputs":[{"name":"","type":"bool","internalType":"bool"}],"stateMutability":"view"},{"type":"function","name":"renounceRole","inputs":[{"name":"role","type":"bytes32","internalType":"bytes32"},{"name":"callerConfirmation","type":"address","internalType":"address"}],"outputs":[],"stateMutability":"nonpayable"},{"type":"function","name":"revokeRole","inputs":[{"name":"role","type":"bytes32","internalType":"bytes32"},{"name":"account","type":"address","internalType":"address"}],"outputs":[],"stateMutability":"nonpayable"},{"type":"function","name":"setCloseFactor","inputs":[{"name":"_bps","type":"uint256","internalType":"uint256"}],"outputs":[],"stateMutability":"nonpayable"},{"type":"function","name":"setFullLiquidationThreshold","inputs":[{"name":"_bps","type":"uint256","internalType":"uint256"}],"outputs":[],"stateMutability":"nonpayable"},{"type":"function","name":"setTimelock","inputs":[{"name":"_timelock","type":"address","internalType":"address"}],"outputs":[],"stateMutability":"nonpayable"},{"type":"function","name":"supportsInterface","inputs":[{"name":"interfaceId","type":"bytes4","internalType":"bytes4"}],"outputs":[{"name":"","type":"bool","internalType":"bool"}],"stateMutability":"view"},{"type":"function","name":"timelock","inputs":[],"outputs":[{"name":"","type":"address","internalType":"address"}],"stateMutability":"view"},{"type":"function","name":"unpause","inputs":[],"outputs":[],"stateMutability":"nonpayable"},{"type":"function","name":"vault","inputs":[],"outputs":[{"name":"","type":"address","internalType":"contract ICollateralVault"}],"stateMutability":"view"},{"type":"event","name":"BadDebtDetected","inputs":[{"name":"borrower","type":"address","indexed":true,"internalType":"address"},{"name":"residualDebt","type":"uint256","indexed":false,"internalType":"uint256"},{"name":"debtRepaid","type":"uint256","indexed":false,"internalType":"uint256"},{"name":"collateralSeized","type":"uint256","indexed":false,"internalType":"uint256"}],"anonymous":false},{"type":"event","name":"CloseFactorUpdated","inputs":[{"name":"oldFactor","type":"uint256","indexed":false,"internalType":"uint256"},{"name":"newFactor","type":"uint256","indexed":false,"internalType":"uint256"}],"anonymous":false},{"type":"event","name":"FullLiquidationThresholdUpdated","inputs":[{"name":"oldThreshold","type":"uint256","indexed":false,"internalType":"uint256"},{"name":"newThreshold","type":"uint256","indexed":false,"internalType":"uint256"}],"anonymous":false},{"type":"event","name":"Liquidation","inputs":[{"name":"liquidator","type":"address","indexed":true,"internalType":"address"},{"name":"borrower","type":"address","indexed":true,"internalType":"address"},{"name":"collateralToken","type":"address","indexed":true,"internalType":"address"},{"name":"debtRepaid","type":"uint256","indexed":false,"internalType":"uint256"},{"name":"collateralSeized","type":"uint256","indexed":false,"internalType":"uint256"}],"anonymous":false},{"type":"event","name":"Paused","inputs":[{"name":"account","type":"address","indexed":false,"internalType":"address"}],"anonymous":false},{"type":"event","name":"RoleAdminChanged","inputs":[{"name":"role","type":"bytes32","indexed":true,"internalType":"bytes32"},{"name":"previousAdminRole","type":"bytes32","indexed":true,"internalType":"bytes32"},{"name":"newAdminRole","type":"bytes32","indexed":true,"internalType":"bytes32"}],"anonymous":false},{"type":"event","name":"RoleGranted","inputs":[{"name":"role","type":"bytes32","indexed":true,"internalType":"bytes32"},{"name":"account","type":"address","indexed":true,"internalType":"address"},{"name":"sender","type":"address","indexed":true,"internalType":"address"}],"anonymous":false},{"type":"event","name":"RoleRevoked","inputs":[{"name":"role","type":"bytes32","indexed":true,"internalType":"bytes32"},{"name":"account","type":"address","indexed":true,"internalType":"address"},{"name":"sender","type":"address","indexed":true,"internalType":"address"}],"anonymous":false},{"type":"event","name":"TimelockUpdated","inputs":[{"name":"oldTimelock","type":"address","indexed":true,"internalType":"address"},{"name":"newTimelock","type":"address","indexed":true,"internalType":"address"}],"anonymous":false},{"type":"event","name":"Unpaused","inputs":[{"name":"account","type":"address","indexed":false,"internalType":"address"}],"anonymous":false},{"type":"error","name":"AccessControlBadConfirmation","inputs":[]},{"type":"error","name":"AccessControlUnauthorizedAccount","inputs":[{"name":"account","type":"address","internalType":"address"},{"name":"neededRole","type":"bytes32","internalType":"bytes32"}]},{"type":"error","name":"EnforcedPause","inputs":[]},{"type":"error","name":"ExpectedPause","inputs":[]},{"type":"error","name":"OnlyTimelock","inputs":[]},{"type":"error","name":"ReentrancyGuardReentrantCall","inputs":[]},{"type":"error","name":"SafeERC20FailedOperation","inputs":[{"name":"token","type":"address","internalType":"address"}]},{"type":"error","name":"ZeroTimelock","inputs":[]}],"bytecode":{"object":"0x610100604052348015610010575f80fd5b506040516121d23803806121d283398101604081905261002f9161036f565b600180556001600160a01b03861661007e5760405162461bcd60e51b815260206004820152600d60248201526c1253959053125117d590555315609a1b60448201526064015b60405180910390fd5b6001600160a01b0385166100d45760405162461bcd60e51b815260206004820152601560248201527f494e56414c49445f424f52524f575f4d4f44554c4500000000000000000000006044820152606401610075565b6001600160a01b03841661011b5760405162461bcd60e51b815260206004820152600e60248201526d494e56414c49445f4f5241434c4560901b6044820152606401610075565b6001600160a01b0383166101605760405162461bcd60e51b815260206004820152600c60248201526b1253959053125117d35554d160a21b6044820152606401610075565b5f8211801561017157506127108211155b6101bd5760405162461bcd60e51b815260206004820152601460248201527f494e56414c49445f434c4f53455f464143544f520000000000000000000000006044820152606401610075565b6001600160a01b0380871660805285811660a05284811660c052831660e05260038290556113886004556101f081610231565b6101fa5f336102ab565b506102257f63969a580f710a0b87a9a89ed03da3ab3878a3f881ea24ec39d5e06a54f156e5336102ab565b505050505050506103d8565b6001600160a01b038116610258576040516350c0eb2960e11b815260040160405180910390fd5b60028054610100600160a81b0319166101006001600160a01b038416908102919091179091556040515f907fae97011a27b5efe7b1d76fe38e75cc498fd64cc24e407a9c6b2185d27f611f7e908290a350565b5f828152602081815260408083206001600160a01b038516845290915281205460ff1661034b575f838152602081815260408083206001600160a01b03861684529091529020805460ff191660011790556103033390565b6001600160a01b0316826001600160a01b0316847f2f8788117e7eff1d82e926ec794901d17c78024a50270940304540a733656f0d60405160405180910390a450600161034e565b505f5b92915050565b80516001600160a01b038116811461036a575f80fd5b919050565b5f805f805f8060c08789031215610384575f80fd5b61038d87610354565b955061039b60208801610354565b94506103a960408801610354565b93506103b760608801610354565b9250608087015191506103cc60a08801610354565b90509295509295509295565b60805160a05160c05160e051611d426104905f395f818161035d01528181610c770152610cbb01525f81816102ee0152818161097601528181610b9501526110e901525f81816102100152818161045a015281816104f7015281816107450152818161081701528181610dc90152818161146801526116b001525f81816103d6015281816108e801528181610af501528181610d4c0152818161105b01528181611239015281816114e501526115750152611d425ff3fe608060405234801561000f575f80fd5b5060043610610187575f3560e01c80635c975abb116100d9578063bdacb30311610093578063d547741f1161006e578063d547741f14610397578063e63ab1e9146103aa578063fbfa77cf146103d1578063fcc2602a146103f8575f80fd5b8063bdacb30314610345578063cab666d014610358578063d33219b41461037f575f80fd5b80635c975abb146102de5780637dc0d1d0146102e95780638456cb591461031057806391d1485414610318578063a217fddf1461032b578063b564e1ba14610332575f80fd5b806328e58601116101445780633957b2e61161011f5780633957b2e6146102aa5780633f4ba83a146102ba5780634654440b146102c257806359aefc9e146102cb575f80fd5b806328e586011461025d5780632f2ff15d1461028457806336568abe14610297575f80fd5b806301ffc9a71461018b578063042e02cf146101b357806312348e96146101c6578063248a9ca3146101db57806325384fd81461020b57806326c013031461024a575b5f80fd5b61019e61019936600461196b565b610401565b60405190151581526020015b60405180910390f35b61019e6101c13660046119a6565b610437565b6101d96101d43660046119c1565b61056a565b005b6101fd6101e93660046119c1565b5f9081526020819052604090206001015490565b6040519081526020016101aa565b6102327f000000000000000000000000000000000000000000000000000000000000000081565b6040516001600160a01b0390911681526020016101aa565b6101d96102583660046119d8565b610638565b6101fd7f63969a580f710a0b87a9a89ed03da3ab3878a3f881ea24ec39d5e06a54f156e581565b6101d9610292366004611a16565b610eab565b6101d96102a5366004611a16565b610ed5565b6101fd68056bc75e2d6310000081565b6101d9610f08565b6101fd60035481565b6101d96102d93660046119c1565b610f1d565b60025460ff1661019e565b6102327f000000000000000000000000000000000000000000000000000000000000000081565b6101d9610fde565b61019e610326366004611a16565b611010565b6101fd5f81565b6101fd6103403660046119d8565b611038565b6101d96103533660046119a6565b6112bc565b6102327f000000000000000000000000000000000000000000000000000000000000000081565b6002546102329061010090046001600160a01b031681565b6101d96103a5366004611a16565b611379565b6101fd7f65d7a28e3265b37a6474929f336521b332c1681b933f6cb9f3376673440d862a81565b6102327f000000000000000000000000000000000000000000000000000000000000000081565b6101fd60045481565b5f6001600160e01b03198216637965db0b60e01b148061043157506301ffc9a760e01b6001600160e01b03198316145b92915050565b604051631ff517ff60e01b81526001600160a01b0382811660048301525f9182917f00000000000000000000000000000000000000000000000000000000000000001690631ff517ff90602401602060405180830381865afa15801561049f573d5f803e3d5ffd5b505050506040513d601f19601f820116820180604052508101906104c39190611a44565b9050805f036104d457505f92915050565b604051634474a77b60e11b81526001600160a01b038481166004830152612710917f0000000000000000000000000000000000000000000000000000000000000000909116906388e94ef690602401602060405180830381865afa15801561053e573d5f803e3d5ffd5b505050506040513d601f19601f820116820180604052508101906105629190611a44565b109392505050565b60025461010090046001600160a01b0316331461059a57604051630e05f48560e11b815260040160405180910390fd5b5f811180156105ab57506127108111155b6105f35760405162461bcd60e51b815260206004820152601460248201527324a72b20a624a22fa1a627a9a2afa320a1aa27a960611b60448201526064015b60405180910390fd5b600380549082905560408051828152602081018490527f9513087cf6a295ac6bc4dd929e6d065efed0b89b0def991a2d20701415243ecc910160405180910390a15050565b61064061139d565b6106486113c7565b336001600160a01b038416036106985760405162461bcd60e51b815260206004820152601560248201527443414e4e4f545f53454c465f4c495155494441544560581b60448201526064016105ea565b5f81116106d85760405162461bcd60e51b815260206004820152600e60248201526d1253959053125117d05353d5539560921b60448201526064016105ea565b68056bc75e2d631000008110156107245760405162461bcd60e51b815260206004820152601060248201526f222aa9aa2fa624a8aaa4a220aa24a7a760811b60448201526064016105ea565b604051634474a77b60e11b81526001600160a01b0384811660048301525f917f0000000000000000000000000000000000000000000000000000000000000000909116906388e94ef690602401602060405180830381865afa15801561078c573d5f803e3d5ffd5b505050506040513d601f19601f820116820180604052508101906107b09190611a44565b905061271081106107f65760405162461bcd60e51b815260206004820152601060248201526f504f534954494f4e5f4845414c54485960801b60448201526064016105ea565b604051631ff517ff60e01b81526001600160a01b0385811660048301525f917f000000000000000000000000000000000000000000000000000000000000000090911690631ff517ff90602401602060405180830381865afa15801561085e573d5f803e3d5ffd5b505050506040513d601f19601f820116820180604052508101906108829190611a44565b90505f6004548310156108965750806108b4565b612710600354836108a79190611a6f565b6108b19190611a86565b90505b5f8185116108c257846108c4565b815b60405163e48a5f7b60e01b81526001600160a01b0388811660048301529192505f917f0000000000000000000000000000000000000000000000000000000000000000169063e48a5f7b90602401608060405180830381865afa15801561092d573d5f803e3d5ffd5b505050506040513d601f19601f820116820180604052508101906109519190611aa5565b60405163f989568d60e01b81526001600160a01b038c811660048301529195505f94507f0000000000000000000000000000000000000000000000000000000000000000909116925063f989568d9150602401602060405180830381865afa1580156109bf573d5f803e3d5ffd5b505050506040513d601f19601f820116820180604052508101906109e39190611a44565b90505f8111610a245760405162461bcd60e51b815260206004820152600d60248201526c494e56414c49445f505249434560981b60448201526064016105ea565b5f886001600160a01b031663313ce5676040518163ffffffff1660e01b8152600401602060405180830381865afa158015610a61573d5f803e3d5ffd5b505050506040513d601f19601f82011682018060405250810190610a859190611ae5565b90505f610a9483612710611a6f565b610a9f83600a611be8565b610aab86612710611bf6565b610ab59088611a6f565b610abf9190611a6f565b610ac99190611a86565b6040516347b00fb360e11b81526001600160a01b038d811660048301528c811660248301529192505f917f00000000000000000000000000000000000000000000000000000000000000001690638f601f6690604401602060405180830381865afa158015610b3a573d5f803e3d5ffd5b505050506040513d601f19601f82011682018060405250810190610b5e9190611a44565b905080821115610c2857604051637206c22b60e01b81526001600160a01b038c811660048301526024820183905291925082915f917f000000000000000000000000000000000000000000000000000000000000000090911690637206c22b90604401602060405180830381865afa158015610bdc573d5f803e3d5ffd5b505050506040513d601f19601f82011682018060405250810190610c009190611a44565b9050610c0e86612710611bf6565b610c1a82612710611a6f565b610c249190611a86565b9650505b5f8211610c6a5760405162461bcd60e51b815260206004820152601060248201526f4e4f5448494e475f544f5f5345495a4560801b60448201526064016105ea565b610c9f6001600160a01b037f0000000000000000000000000000000000000000000000000000000000000000163330896113ed565b604051632770a7eb60e21b8152306004820152602481018790527f00000000000000000000000000000000000000000000000000000000000000006001600160a01b031690639dc29fac906044015f604051808303815f87803b158015610d04575f80fd5b505af1158015610d16573d5f803e3d5ffd5b5050604051631461023960e31b81526001600160a01b038f811660048301528e81166024830152604482018690523360648301527f000000000000000000000000000000000000000000000000000000000000000016925063a30811c891506084015f604051808303815f87803b158015610d8f575f80fd5b505af1158015610da1573d5f803e3d5ffd5b505060405163807d3f1d60e01b81526001600160a01b038f81166004830152602482018a90527f000000000000000000000000000000000000000000000000000000000000000016925063807d3f1d91506044015f604051808303815f87803b158015610e0c575f80fd5b505af1158015610e1e573d5f803e3d5ffd5b505050508a6001600160a01b03168c6001600160a01b0316336001600160a01b03167fd58706648644be277f6999c826f65f98128c29c6846a892b929a304a7f19e3eb8986604051610e7a929190918252602082015260400190565b60405180910390a4808203610e9457610e948c8784611447565b505050505050505050610ea660018055565b505050565b5f82815260208190526040902060010154610ec58161170e565b610ecf8383611718565b50505050565b6001600160a01b0381163314610efe5760405163334bd91960e11b815260040160405180910390fd5b610ea682826117a7565b5f610f128161170e565b610f1a611810565b50565b60025461010090046001600160a01b03163314610f4d57604051630e05f48560e11b815260040160405180910390fd5b5f81118015610f5d575061271081105b610f9d5760405162461bcd60e51b81526020600482015260116024820152701253959053125117d512149154d213d311607a1b60448201526064016105ea565b60045460408051918252602082018390527fd4512c8fc0416d1af5dcff0a86560e415c67211fe021027b22b4c2ec07d08b14910160405180910390a1600455565b7f65d7a28e3265b37a6474929f336521b332c1681b933f6cb9f3376673440d862a6110088161170e565b610f1a611862565b5f918252602082815260408084206001600160a01b0393909316845291905290205460ff1690565b60405163e48a5f7b60e01b81526001600160a01b0383811660048301525f9182917f0000000000000000000000000000000000000000000000000000000000000000169063e48a5f7b90602401608060405180830381865afa1580156110a0573d5f803e3d5ffd5b505050506040513d601f19601f820116820180604052508101906110c49190611aa5565b60405163f989568d60e01b81526001600160a01b0389811660048301529195505f94507f0000000000000000000000000000000000000000000000000000000000000000909116925063f989568d9150602401602060405180830381865afa158015611132573d5f803e3d5ffd5b505050506040513d601f19601f820116820180604052508101906111569190611a44565b9050805f03611169575f925050506112b5565b5f856001600160a01b031663313ce5676040518163ffffffff1660e01b8152600401602060405180830381865afa1580156111a6573d5f803e3d5ffd5b505050506040513d601f19601f820116820180604052508101906111ca9190611ae5565b90506111d882612710611a6f565b6111e382600a611be8565b6111ef85612710611bf6565b6111f99088611a6f565b6112039190611a6f565b61120d9190611a86565b6040516347b00fb360e11b81526001600160a01b03898116600483015288811660248301529195505f917f00000000000000000000000000000000000000000000000000000000000000001690638f601f6690604401602060405180830381865afa15801561127e573d5f803e3d5ffd5b505050506040513d601f19601f820116820180604052508101906112a29190611a44565b9050808511156112b0578094505b505050505b9392505050565b60025461010090046001600160a01b031633146112ec57604051630e05f48560e11b815260040160405180910390fd5b6001600160a01b038116611313576040516350c0eb2960e11b815260040160405180910390fd5b6002546040516001600160a01b0380841692610100900416907fae97011a27b5efe7b1d76fe38e75cc498fd64cc24e407a9c6b2185d27f611f7e905f90a3600280546001600160a01b0390921661010002610100600160a81b0319909216919091179055565b5f828152602081905260409020600101546113938161170e565b610ecf83836117a7565b6002600154036113c057604051633ee5aeb560e01b815260040160405180910390fd5b6002600155565b60025460ff16156113eb5760405163d93c066560e01b815260040160405180910390fd5b565b604080516001600160a01b0385811660248301528416604482015260648082018490528251808303909101815260849091019091526020810180516001600160e01b03166323b872dd60e01b179052610ecf90859061189f565b604051631ff517ff60e01b81526001600160a01b0384811660048301525f917f000000000000000000000000000000000000000000000000000000000000000090911690631ff517ff90602401602060405180830381865afa1580156114af573d5f803e3d5ffd5b505050506040513d601f19601f820116820180604052508101906114d39190611a44565b9050805f036114e25750505050565b5f7f00000000000000000000000000000000000000000000000000000000000000006001600160a01b031663d3c7c2c76040518163ffffffff1660e01b81526004015f60405180830381865afa15801561153e573d5f803e3d5ffd5b505050506040513d5f823e601f3d908101601f191682016040526115659190810190611c2d565b90505f5b8151811015611644575f7f00000000000000000000000000000000000000000000000000000000000000006001600160a01b0316638f601f66888585815181106115b5576115b5611cf8565b60200260200101516040518363ffffffff1660e01b81526004016115ef9291906001600160a01b0392831681529116602082015260400190565b602060405180830381865afa15801561160a573d5f803e3d5ffd5b505050506040513d601f19601f8201168201806040525081019061162e9190611a44565b111561163c57505050505050565b600101611569565b5060408051838152602081018690529081018490526001600160a01b038616907f7a3801d8b8e541abc95a3a8dd65329e6c81a31c5289ca299eca17315505fd0f29060600160405180910390a260405163122b3c7160e01b81526001600160a01b0386811660048301527f0000000000000000000000000000000000000000000000000000000000000000169063122b3c71906024015f604051808303815f87803b1580156116f1575f80fd5b505af1158015611703573d5f803e3d5ffd5b505050505050505050565b610f1a813361190b565b5f6117238383611010565b6117a0575f838152602081815260408083206001600160a01b03861684529091529020805460ff191660011790556117583390565b6001600160a01b0316826001600160a01b0316847f2f8788117e7eff1d82e926ec794901d17c78024a50270940304540a733656f0d60405160405180910390a4506001610431565b505f610431565b5f6117b28383611010565b156117a0575f838152602081815260408083206001600160a01b0386168085529252808320805460ff1916905551339286917ff6391f5c32d9c69d2a47ea670b442974b53935d1edc7fd64eb21e047a839171b9190a4506001610431565b611818611948565b6002805460ff191690557f5db9ee0a495bf2e6ff9c91a7834c1ba4fdd244a5e8aa4e537bd38aeae4b073aa335b6040516001600160a01b03909116815260200160405180910390a1565b61186a6113c7565b6002805460ff191660011790557f62e78cea01bee320cd4e420270b5ea74000d11b0c9f74754ebdbfc544b05a2586118453390565b5f8060205f8451602086015f885af1806118be576040513d5f823e3d81fd5b50505f513d915081156118d55780600114156118e2565b6001600160a01b0384163b155b15610ecf57604051635274afe760e01b81526001600160a01b03851660048201526024016105ea565b6119158282611010565b6119445760405163e2517d3f60e01b81526001600160a01b0382166004820152602481018390526044016105ea565b5050565b60025460ff166113eb57604051638dfc202b60e01b815260040160405180910390fd5b5f6020828403121561197b575f80fd5b81356001600160e01b0319811681146112b5575f80fd5b6001600160a01b0381168114610f1a575f80fd5b5f602082840312156119b6575f80fd5b81356112b581611992565b5f602082840312156119d1575f80fd5b5035919050565b5f805f606084860312156119ea575f80fd5b83356119f581611992565b92506020840135611a0581611992565b929592945050506040919091013590565b5f8060408385031215611a27575f80fd5b823591506020830135611a3981611992565b809150509250929050565b5f60208284031215611a54575f80fd5b5051919050565b634e487b7160e01b5f52601160045260245ffd5b808202811582820484141761043157610431611a5b565b5f82611aa057634e487b7160e01b5f52601260045260245ffd5b500490565b5f805f8060808587031215611ab8575f80fd5b84518015158114611ac7575f80fd5b60208601516040870151606090970151919890975090945092505050565b5f60208284031215611af5575f80fd5b815160ff811681146112b5575f80fd5b6001815b6001841115611b4057808504811115611b2457611b24611a5b565b6001841615611b3257908102905b60019390931c928002611b09565b935093915050565b5f82611b5657506001610431565b81611b6257505f610431565b8160018114611b785760028114611b8257611b9e565b6001915050610431565b60ff841115611b9357611b93611a5b565b50506001821b610431565b5060208310610133831016604e8410600b8410161715611bc1575081810a610431565b611bcd5f198484611b05565b805f1904821115611be057611be0611a5b565b029392505050565b5f6112b560ff841683611b48565b8082018082111561043157610431611a5b565b634e487b7160e01b5f52604160045260245ffd5b8051611c2881611992565b919050565b5f60208284031215611c3d575f80fd5b815167ffffffffffffffff811115611c53575f80fd5b8201601f81018413611c63575f80fd5b805167ffffffffffffffff811115611c7d57611c7d611c09565b8060051b604051601f19603f830116810181811067ffffffffffffffff82111715611caa57611caa611c09565b604052918252602081840181019290810187841115611cc7575f80fd5b6020850194505b83851015611ced57611cdf85611c1d565b815260209485019401611cce565b509695505050505050565b634e487b7160e01b5f52603260045260245ffdfea2646970667358221220f7987851eefe7c8745fe0181aab79e85595e65109335f2ddfce097befb616e7764736f6c634300081a0033","linkReferences":{}},"methodIdentifiers":{"DEFAULT_ADMIN_ROLE()":"a217fddf","ENGINE_ADMIN_ROLE()":"28e58601","MIN_LIQUIDATION_AMOUNT()":"3957b2e6","PAUSER_ROLE()":"e63ab1e9","borrowModule()":"25384fd8","closeFactorBps()":"4654440b","estimateSeize(address,address,uint256)":"b564e1ba","fullLiquidationThreshold()":"fcc2602a","getRoleAdmin(bytes32)":"248a9ca3","grantRole(bytes32,address)":"2f2ff15d","hasRole(bytes32,address)":"91d14854","isLiquidatable(address)":"042e02cf","liquidate(address,address,uint256)":"26c01303","musd()":"cab666d0","oracle()":"7dc0d1d0","pause()":"8456cb59","paused()":"5c975abb","renounceRole(bytes32,address)":"36568abe","revokeRole(bytes32,address)":"d547741f","setCloseFactor(uint256)":"12348e96","setFullLiquidationThreshold(uint256)":"59aefc9e","setTimelock(address)":"bdacb303","supportsInterface(bytes4)":"01ffc9a7","timelock()":"d33219b4","unpause()":"3f4ba83a","vault()":"fbfa77cf"},"id":7}