{"abi":[{"type":"constructor","inputs":[{"name":"_vault","type":"address","internalType":"address"},{"name":"_borrowModule","type":"address","internalType":"address"},{"name":"_oracle","type":"address","internalType":"address"},{"name":"_musd","type":"address","internalType":"address"},{"name":"_closeFactorBps","type":"uint256","internalType":"uint256"}],"stateMutability":"nonpayable"},{"type":"function","name":"ADMIN_DELAY","inputs":[],"outputs":[{"name":"","type":"uint256","internalType":"uint256"}],"stateMutability":"view"},{"type":"function","name":"DEFAULT_ADMIN_ROLE","inputs":[],"outputs":[{"name":"","type":"bytes32","internalType":"bytes32"}],"stateMutability":"view"},{"type":"function","name":"ENGINE_ADMIN_ROLE","inputs":[],"outputs":[{"name":"","type":"bytes32","internalType":"bytes32"}],"stateMutability":"view"},{"type":"function","name":"MIN_LIQUIDATION_AMOUNT","inputs":[],"outputs":[{"name":"","type":"uint256","internalType":"uint256"}],"stateMutability":"view"},{"type":"function","name":"PAUSER_ROLE","inputs":[],"outputs":[{"name":"","type":"bytes32","internalType":"bytes32"}],"stateMutability":"view"},{"type":"function","name":"borrowModule","inputs":[],"outputs":[{"name":"","type":"address","internalType":"contract IBorrowModule"}],"stateMutability":"view"},{"type":"function","name":"cancelCloseFactor","inputs":[],"outputs":[],"stateMutability":"nonpayable"},{"type":"function","name":"cancelFullLiquidationThreshold","inputs":[],"outputs":[],"stateMutability":"nonpayable"},{"type":"function","name":"closeFactorBps","inputs":[],"outputs":[{"name":"","type":"uint256","internalType":"uint256"}],"stateMutability":"view"},{"type":"function","name":"estimateSeize","inputs":[{"name":"borrower","type":"address","internalType":"address"},{"name":"collateralToken","type":"address","internalType":"address"},{"name":"debtToRepay","type":"uint256","internalType":"uint256"}],"outputs":[{"name":"collateralAmount","type":"uint256","internalType":"uint256"}],"stateMutability":"view"},{"type":"function","name":"executeCloseFactor","inputs":[],"outputs":[],"stateMutability":"nonpayable"},{"type":"function","name":"executeFullLiquidationThreshold","inputs":[],"outputs":[],"stateMutability":"nonpayable"},{"type":"function","name":"fullLiquidationThreshold","inputs":[],"outputs":[{"name":"","type":"uint256","internalType":"uint256"}],"stateMutability":"view"},{"type":"function","name":"getRoleAdmin","inputs":[{"name":"role","type":"bytes32","internalType":"bytes32"}],"outputs":[{"name":"","type":"bytes32","internalType":"bytes32"}],"stateMutability":"view"},{"type":"function","name":"grantRole","inputs":[{"name":"role","type":"bytes32","internalType":"bytes32"},{"name":"account","type":"address","internalType":"address"}],"outputs":[],"stateMutability":"nonpayable"},{"type":"function","name":"hasRole","inputs":[{"name":"role","type":"bytes32","internalType":"bytes32"},{"name":"account","type":"address","internalType":"address"}],"outputs":[{"name":"","type":"bool","internalType":"bool"}],"stateMutability":"view"},{"type":"function","name":"isLiquidatable","inputs":[{"name":"borrower","type":"address","internalType":"address"}],"outputs":[{"name":"","type":"bool","internalType":"bool"}],"stateMutability":"view"},{"type":"function","name":"liquidate","inputs":[{"name":"borrower","type":"address","internalType":"address"},{"name":"collateralToken","type":"address","internalType":"address"},{"name":"debtToRepay","type":"uint256","internalType":"uint256"}],"outputs":[],"stateMutability":"nonpayable"},{"type":"function","name":"musd","inputs":[],"outputs":[{"name":"","type":"address","internalType":"contract IMUSD"}],"stateMutability":"view"},{"type":"function","name":"oracle","inputs":[],"outputs":[{"name":"","type":"address","internalType":"contract IPriceOracle"}],"stateMutability":"view"},{"type":"function","name":"pause","inputs":[],"outputs":[],"stateMutability":"nonpayable"},{"type":"function","name":"paused","inputs":[],"outputs":[{"name":"","type":"bool","internalType":"bool"}],"stateMutability":"view"},{"type":"function","name":"pendingCloseFactor","inputs":[],"outputs":[{"name":"","type":"uint256","internalType":"uint256"}],"stateMutability":"view"},{"type":"function","name":"pendingCloseFactorTime","inputs":[],"outputs":[{"name":"","type":"uint256","internalType":"uint256"}],"stateMutability":"view"},{"type":"function","name":"pendingFullLiqThreshold","inputs":[],"outputs":[{"name":"","type":"uint256","internalType":"uint256"}],"stateMutability":"view"},{"type":"function","name":"pendingFullLiqThresholdTime","inputs":[],"outputs":[{"name":"","type":"uint256","internalType":"uint256"}],"stateMutability":"view"},{"type":"function","name":"renounceRole","inputs":[{"name":"role","type":"bytes32","internalType":"bytes32"},{"name":"callerConfirmation","type":"address","internalType":"address"}],"outputs":[],"stateMutability":"nonpayable"},{"type":"function","name":"requestCloseFactor","inputs":[{"name":"_bps","type":"uint256","internalType":"uint256"}],"outputs":[],"stateMutability":"nonpayable"},{"type":"function","name":"requestFullLiquidationThreshold","inputs":[{"name":"_bps","type":"uint256","internalType":"uint256"}],"outputs":[],"stateMutability":"nonpayable"},{"type":"function","name":"revokeRole","inputs":[{"name":"role","type":"bytes32","internalType":"bytes32"},{"name":"account","type":"address","internalType":"address"}],"outputs":[],"stateMutability":"nonpayable"},{"type":"function","name":"supportsInterface","inputs":[{"name":"interfaceId","type":"bytes4","internalType":"bytes4"}],"outputs":[{"name":"","type":"bool","internalType":"bool"}],"stateMutability":"view"},{"type":"function","name":"unpause","inputs":[],"outputs":[],"stateMutability":"nonpayable"},{"type":"function","name":"vault","inputs":[],"outputs":[{"name":"","type":"address","internalType":"contract ICollateralVault"}],"stateMutability":"view"},{"type":"event","name":"BadDebtDetected","inputs":[{"name":"borrower","type":"address","indexed":true,"internalType":"address"},{"name":"residualDebt","type":"uint256","indexed":false,"internalType":"uint256"},{"name":"debtRepaid","type":"uint256","indexed":false,"internalType":"uint256"},{"name":"collateralSeized","type":"uint256","indexed":false,"internalType":"uint256"}],"anonymous":false},{"type":"event","name":"CloseFactorChangeCancelled","inputs":[{"name":"bps","type":"uint256","indexed":false,"internalType":"uint256"}],"anonymous":false},{"type":"event","name":"CloseFactorChangeRequested","inputs":[{"name":"bps","type":"uint256","indexed":false,"internalType":"uint256"},{"name":"readyAt","type":"uint256","indexed":false,"internalType":"uint256"}],"anonymous":false},{"type":"event","name":"CloseFactorUpdated","inputs":[{"name":"oldFactor","type":"uint256","indexed":false,"internalType":"uint256"},{"name":"newFactor","type":"uint256","indexed":false,"internalType":"uint256"}],"anonymous":false},{"type":"event","name":"FullLiqThresholdChangeCancelled","inputs":[{"name":"bps","type":"uint256","indexed":false,"internalType":"uint256"}],"anonymous":false},{"type":"event","name":"FullLiqThresholdChangeRequested","inputs":[{"name":"bps","type":"uint256","indexed":false,"internalType":"uint256"},{"name":"readyAt","type":"uint256","indexed":false,"internalType":"uint256"}],"anonymous":false},{"type":"event","name":"FullLiquidationThresholdUpdated","inputs":[{"name":"oldThreshold","type":"uint256","indexed":false,"internalType":"uint256"},{"name":"newThreshold","type":"uint256","indexed":false,"internalType":"uint256"}],"anonymous":false},{"type":"event","name":"Liquidation","inputs":[{"name":"liquidator","type":"address","indexed":true,"internalType":"address"},{"name":"borrower","type":"address","indexed":true,"internalType":"address"},{"name":"collateralToken","type":"address","indexed":true,"internalType":"address"},{"name":"debtRepaid","type":"uint256","indexed":false,"internalType":"uint256"},{"name":"collateralSeized","type":"uint256","indexed":false,"internalType":"uint256"}],"anonymous":false},{"type":"event","name":"Paused","inputs":[{"name":"account","type":"address","indexed":false,"internalType":"address"}],"anonymous":false},{"type":"event","name":"RoleAdminChanged","inputs":[{"name":"role","type":"bytes32","indexed":true,"internalType":"bytes32"},{"name":"previousAdminRole","type":"bytes32","indexed":true,"internalType":"bytes32"},{"name":"newAdminRole","type":"bytes32","indexed":true,"internalType":"bytes32"}],"anonymous":false},{"type":"event","name":"RoleGranted","inputs":[{"name":"role","type":"bytes32","indexed":true,"internalType":"bytes32"},{"name":"account","type":"address","indexed":true,"internalType":"address"},{"name":"sender","type":"address","indexed":true,"internalType":"address"}],"anonymous":false},{"type":"event","name":"RoleRevoked","inputs":[{"name":"role","type":"bytes32","indexed":true,"internalType":"bytes32"},{"name":"account","type":"address","indexed":true,"internalType":"address"},{"name":"sender","type":"address","indexed":true,"internalType":"address"}],"anonymous":false},{"type":"event","name":"Unpaused","inputs":[{"name":"account","type":"address","indexed":false,"internalType":"address"}],"anonymous":false},{"type":"error","name":"AccessControlBadConfirmation","inputs":[]},{"type":"error","name":"AccessControlUnauthorizedAccount","inputs":[{"name":"account","type":"address","internalType":"address"},{"name":"neededRole","type":"bytes32","internalType":"bytes32"}]},{"type":"error","name":"EnforcedPause","inputs":[]},{"type":"error","name":"ExpectedPause","inputs":[]},{"type":"error","name":"ReentrancyGuardReentrantCall","inputs":[]},{"type":"error","name":"SafeERC20FailedOperation","inputs":[{"name":"token","type":"address","internalType":"address"}]}],"bytecode":{"object":"0x610100604052348015610010575f80fd5b5060405161243138038061243183398101604081905261002f916102eb565b600180556001600160a01b03851661007e5760405162461bcd60e51b815260206004820152600d60248201526c1253959053125117d590555315609a1b60448201526064015b60405180910390fd5b6001600160a01b0384166100d45760405162461bcd60e51b815260206004820152601560248201527f494e56414c49445f424f52524f575f4d4f44554c4500000000000000000000006044820152606401610075565b6001600160a01b03831661011b5760405162461bcd60e51b815260206004820152600e60248201526d494e56414c49445f4f5241434c4560901b6044820152606401610075565b6001600160a01b0382166101605760405162461bcd60e51b815260206004820152600c60248201526b1253959053125117d35554d160a21b6044820152606401610075565b5f8111801561017157506127108111155b6101bd5760405162461bcd60e51b815260206004820152601460248201527f494e56414c49445f434c4f53455f464143544f520000000000000000000000006044820152606401610075565b6001600160a01b0380861660805284811660a05283811660c052821660e05260038190556113886004556101f15f33610227565b5061021c7f63969a580f710a0b87a9a89ed03da3ab3878a3f881ea24ec39d5e06a54f156e533610227565b505050505050610345565b5f828152602081815260408083206001600160a01b038516845290915281205460ff166102c7575f838152602081815260408083206001600160a01b03861684529091529020805460ff1916600117905561027f3390565b6001600160a01b0316826001600160a01b0316847f2f8788117e7eff1d82e926ec794901d17c78024a50270940304540a733656f0d60405160405180910390a45060016102ca565b505f5b92915050565b80516001600160a01b03811681146102e6575f80fd5b919050565b5f805f805f60a086880312156102ff575f80fd5b610308866102d0565b9450610316602087016102d0565b9350610324604087016102d0565b9250610332606087016102d0565b9150608086015190509295509295909350565b60805160a05160c05160e0516120346103fd5f395f81816103df01528181610c290152610c6d01525f818161034c0152818161092801528181610b47015261142201525f818161026f015281816104d501528181610572015281816106f7015281816107c901528181610d7b0152818161173a015261198201525f81816104510152818161089a01528181610aa701528181610cfe0152818161139401528181611572015281816117b7015261184701526120345ff3fe608060405234801561000f575f80fd5b50600436106101f2575f3560e01c80637dc0d1d011610114578063a8f6e9ee116100a9578063d547741f11610079578063d547741f1461040a578063d89150821461041d578063e63ab1e914610425578063fbfa77cf1461044c578063fcc2602a14610473575f80fd5b8063a8f6e9ee146103b4578063b564e1ba146103c7578063cab666d0146103da578063ce699b3114610401575f80fd5b806392ffacac116100e457806392ffacac146103915780639c2c61e61461039b578063a217fddf146103a4578063a76a5f83146103ab575f80fd5b80637dc0d1d0146103475780638456cb591461036e57806391d1485414610376578063921a392614610389575f80fd5b806336568abe1161018a5780634095a46e1161015a5780634095a46e146103235780634654440b1461032b5780635c975abb1461033457806371ebcdc51461033f575f80fd5b806336568abe146102e55780633957b2e6146102f85780633e1f2223146103085780633f4ba83a1461031b575f80fd5b806325384fd8116101c557806325384fd81461026a57806326c01303146102a957806328e58601146102be5780632f2ff15d146102d2575f80fd5b806301ffc9a7146101f6578063042e02cf1461021e5780631158416f14610231578063248a9ca314610248575b5f80fd5b610209610204366004611c3d565b61047c565b60405190151581526020015b60405180910390f35b61020961022c366004611c78565b6104b2565b61023a60085481565b604051908152602001610215565b61023a610256366004611c93565b5f9081526020819052604090206001015490565b6102917f000000000000000000000000000000000000000000000000000000000000000081565b6040516001600160a01b039091168152602001610215565b6102bc6102b7366004611caa565b6105e5565b005b61023a5f80516020611fdf83398151915281565b6102bc6102e0366004611ce8565b610e5d565b6102bc6102f3366004611ce8565b610e87565b61023a68056bc75e2d6310000081565b6102bc610316366004611c93565b610eba565b6102bc610fc6565b6102bc610fdb565b61023a60035481565b60025460ff16610209565b6102bc6110cf565b6102917f000000000000000000000000000000000000000000000000000000000000000081565b6102bc6111ce565b610209610384366004611ce8565b611200565b6102bc611228565b61023a6202a30081565b61023a60075481565b61023a5f81565b61023a60055481565b6102bc6103c2366004611c93565b61127e565b61023a6103d5366004611caa565b611371565b6102917f000000000000000000000000000000000000000000000000000000000000000081565b61023a60065481565b6102bc610418366004611ce8565b6115f5565b6102bc611619565b61023a7f65d7a28e3265b37a6474929f336521b332c1681b933f6cb9f3376673440d862a81565b6102917f000000000000000000000000000000000000000000000000000000000000000081565b61023a60045481565b5f6001600160e01b03198216637965db0b60e01b14806104ac57506301ffc9a760e01b6001600160e01b03198316145b92915050565b604051631ff517ff60e01b81526001600160a01b0382811660048301525f9182917f00000000000000000000000000000000000000000000000000000000000000001690631ff517ff90602401602060405180830381865afa15801561051a573d5f803e3d5ffd5b505050506040513d601f19601f8201168201806040525081019061053e9190611d16565b9050805f0361054f57505f92915050565b604051634474a77b60e11b81526001600160a01b038481166004830152612710917f0000000000000000000000000000000000000000000000000000000000000000909116906388e94ef690602401602060405180830381865afa1580156105b9573d5f803e3d5ffd5b505050506040513d601f19601f820116820180604052508101906105dd9190611d16565b109392505050565b6105ed61166f565b6105f5611699565b336001600160a01b0384160361064a5760405162461bcd60e51b815260206004820152601560248201527443414e4e4f545f53454c465f4c495155494441544560581b60448201526064015b60405180910390fd5b5f811161068a5760405162461bcd60e51b815260206004820152600e60248201526d1253959053125117d05353d5539560921b6044820152606401610641565b68056bc75e2d631000008110156106d65760405162461bcd60e51b815260206004820152601060248201526f222aa9aa2fa624a8aaa4a220aa24a7a760811b6044820152606401610641565b604051634474a77b60e11b81526001600160a01b0384811660048301525f917f0000000000000000000000000000000000000000000000000000000000000000909116906388e94ef690602401602060405180830381865afa15801561073e573d5f803e3d5ffd5b505050506040513d601f19601f820116820180604052508101906107629190611d16565b905061271081106107a85760405162461bcd60e51b815260206004820152601060248201526f504f534954494f4e5f4845414c54485960801b6044820152606401610641565b604051631ff517ff60e01b81526001600160a01b0385811660048301525f917f000000000000000000000000000000000000000000000000000000000000000090911690631ff517ff90602401602060405180830381865afa158015610810573d5f803e3d5ffd5b505050506040513d601f19601f820116820180604052508101906108349190611d16565b90505f600454831015610848575080610866565b612710600354836108599190611d41565b6108639190611d58565b90505b5f8185116108745784610876565b815b60405163e48a5f7b60e01b81526001600160a01b0388811660048301529192505f917f0000000000000000000000000000000000000000000000000000000000000000169063e48a5f7b90602401608060405180830381865afa1580156108df573d5f803e3d5ffd5b505050506040513d601f19601f820116820180604052508101906109039190611d77565b60405163f989568d60e01b81526001600160a01b038c811660048301529195505f94507f0000000000000000000000000000000000000000000000000000000000000000909116925063f989568d9150602401602060405180830381865afa158015610971573d5f803e3d5ffd5b505050506040513d601f19601f820116820180604052508101906109959190611d16565b90505f81116109d65760405162461bcd60e51b815260206004820152600d60248201526c494e56414c49445f505249434560981b6044820152606401610641565b5f886001600160a01b031663313ce5676040518163ffffffff1660e01b8152600401602060405180830381865afa158015610a13573d5f803e3d5ffd5b505050506040513d601f19601f82011682018060405250810190610a379190611db7565b90505f610a4683612710611d41565b610a5183600a611eba565b610a5d86612710611ec8565b610a679088611d41565b610a719190611d41565b610a7b9190611d58565b6040516347b00fb360e11b81526001600160a01b038d811660048301528c811660248301529192505f917f00000000000000000000000000000000000000000000000000000000000000001690638f601f6690604401602060405180830381865afa158015610aec573d5f803e3d5ffd5b505050506040513d601f19601f82011682018060405250810190610b109190611d16565b905080821115610bda57604051637206c22b60e01b81526001600160a01b038c811660048301526024820183905291925082915f917f000000000000000000000000000000000000000000000000000000000000000090911690637206c22b90604401602060405180830381865afa158015610b8e573d5f803e3d5ffd5b505050506040513d601f19601f82011682018060405250810190610bb29190611d16565b9050610bc086612710611ec8565b610bcc82612710611d41565b610bd69190611d58565b9650505b5f8211610c1c5760405162461bcd60e51b815260206004820152601060248201526f4e4f5448494e475f544f5f5345495a4560801b6044820152606401610641565b610c516001600160a01b037f0000000000000000000000000000000000000000000000000000000000000000163330896116bf565b604051632770a7eb60e21b8152306004820152602481018790527f00000000000000000000000000000000000000000000000000000000000000006001600160a01b031690639dc29fac906044015f604051808303815f87803b158015610cb6575f80fd5b505af1158015610cc8573d5f803e3d5ffd5b5050604051631461023960e31b81526001600160a01b038f811660048301528e81166024830152604482018690523360648301527f000000000000000000000000000000000000000000000000000000000000000016925063a30811c891506084015f604051808303815f87803b158015610d41575f80fd5b505af1158015610d53573d5f803e3d5ffd5b505060405163807d3f1d60e01b81526001600160a01b038f81166004830152602482018a90527f000000000000000000000000000000000000000000000000000000000000000016925063807d3f1d91506044015f604051808303815f87803b158015610dbe575f80fd5b505af1158015610dd0573d5f803e3d5ffd5b505050508a6001600160a01b03168c6001600160a01b0316336001600160a01b03167fd58706648644be277f6999c826f65f98128c29c6846a892b929a304a7f19e3eb8986604051610e2c929190918252602082015260400190565b60405180910390a4808203610e4657610e468c8784611719565b505050505050505050610e5860018055565b505050565b5f82815260208190526040902060010154610e77816119e0565b610e8183836119ea565b50505050565b6001600160a01b0381163314610eb05760405163334bd91960e11b815260040160405180910390fd5b610e588282611a79565b5f80516020611fdf833981519152610ed1816119e0565b5f82118015610ee1575061271082105b610f215760405162461bcd60e51b81526020600482015260116024820152701253959053125117d512149154d213d311607a1b6044820152606401610641565b60085415610f6c5760405162461bcd60e51b815260206004820152601860248201527750524f504f53414c5f414c52454144595f50454e44494e4760401b6044820152606401610641565b60078290554260088190557f6bd095d4d2a2fedc55285b3d61ae6f3fb3c26281bb61d2ab05febb1c86b8537c908390610fa9906202a30090611ec8565b604080519283526020830191909152015b60405180910390a15050565b5f610fd0816119e0565b610fd8611ae2565b50565b5f80516020611fdf833981519152610ff2816119e0565b5f600554116110305760405162461bcd60e51b815260206004820152600a6024820152694e4f5f50454e44494e4760b01b6044820152606401610641565b6202a3006006546110419190611ec8565b4210156110825760405162461bcd60e51b815260206004820152600f60248201526e54494d454c4f434b5f41435449564560881b6044820152606401610641565b6003805460058054928390555f9081905560065560405190917f9513087cf6a295ac6bc4dd929e6d065efed0b89b0def991a2d20701415243ecc91610fba91848252602082015260400190565b5f80516020611fdf8339815191526110e6816119e0565b5f600754116111245760405162461bcd60e51b815260206004820152600a6024820152694e4f5f50454e44494e4760b01b6044820152606401610641565b6202a3006008546111359190611ec8565b4210156111765760405162461bcd60e51b815260206004820152600f60248201526e54494d454c4f434b5f41435449564560881b6044820152606401610641565b7fd4512c8fc0416d1af5dcff0a86560e415c67211fe021027b22b4c2ec07d08b146004546007546040516111b4929190918252602082015260400190565b60405180910390a150600780546004555f90819055600855565b7f65d7a28e3265b37a6474929f336521b332c1681b933f6cb9f3376673440d862a6111f8816119e0565b610fd8611b34565b5f918252602082815260408084206001600160a01b0393909316845291905290205460ff1690565b5f80516020611fdf83398151915261123f816119e0565b600780545f918290556008919091556040518181527f193c03efccfa7ece4d78cee8b1e5f1868a16be38575956d77a5b9678252c0f4b90602001610fba565b5f80516020611fdf833981519152611295816119e0565b5f821180156112a657506127108211155b6112e95760405162461bcd60e51b815260206004820152601460248201527324a72b20a624a22fa1a627a9a2afa320a1aa27a960611b6044820152606401610641565b600654156113345760405162461bcd60e51b815260206004820152601860248201527750524f504f53414c5f414c52454144595f50454e44494e4760401b6044820152606401610641565b60058290554260068190557f0d525c7eed2b8166b2083e2abae4eee27977f80d88e1b39129dae240a25e74fe908390610fa9906202a30090611ec8565b60405163e48a5f7b60e01b81526001600160a01b0383811660048301525f9182917f0000000000000000000000000000000000000000000000000000000000000000169063e48a5f7b90602401608060405180830381865afa1580156113d9573d5f803e3d5ffd5b505050506040513d601f19601f820116820180604052508101906113fd9190611d77565b60405163f989568d60e01b81526001600160a01b0389811660048301529195505f94507f0000000000000000000000000000000000000000000000000000000000000000909116925063f989568d9150602401602060405180830381865afa15801561146b573d5f803e3d5ffd5b505050506040513d601f19601f8201168201806040525081019061148f9190611d16565b9050805f036114a2575f925050506115ee565b5f856001600160a01b031663313ce5676040518163ffffffff1660e01b8152600401602060405180830381865afa1580156114df573d5f803e3d5ffd5b505050506040513d601f19601f820116820180604052508101906115039190611db7565b905061151182612710611d41565b61151c82600a611eba565b61152885612710611ec8565b6115329088611d41565b61153c9190611d41565b6115469190611d58565b6040516347b00fb360e11b81526001600160a01b03898116600483015288811660248301529195505f917f00000000000000000000000000000000000000000000000000000000000000001690638f601f6690604401602060405180830381865afa1580156115b7573d5f803e3d5ffd5b505050506040513d601f19601f820116820180604052508101906115db9190611d16565b9050808511156115e9578094505b505050505b9392505050565b5f8281526020819052604090206001015461160f816119e0565b610e818383611a79565b5f80516020611fdf833981519152611630816119e0565b600580545f918290556006919091556040518181527f58e68fa992fcdcc8eb171045fa63630d2272399e34efbae71f86ab5eb47253fd90602001610fba565b60026001540361169257604051633ee5aeb560e01b815260040160405180910390fd5b6002600155565b60025460ff16156116bd5760405163d93c066560e01b815260040160405180910390fd5b565b604080516001600160a01b0385811660248301528416604482015260648082018490528251808303909101815260849091019091526020810180516001600160e01b03166323b872dd60e01b179052610e81908590611b71565b604051631ff517ff60e01b81526001600160a01b0384811660048301525f917f000000000000000000000000000000000000000000000000000000000000000090911690631ff517ff90602401602060405180830381865afa158015611781573d5f803e3d5ffd5b505050506040513d601f19601f820116820180604052508101906117a59190611d16565b9050805f036117b45750505050565b5f7f00000000000000000000000000000000000000000000000000000000000000006001600160a01b031663d3c7c2c76040518163ffffffff1660e01b81526004015f60405180830381865afa158015611810573d5f803e3d5ffd5b505050506040513d5f823e601f3d908101601f191682016040526118379190810190611eff565b90505f5b8151811015611916575f7f00000000000000000000000000000000000000000000000000000000000000006001600160a01b0316638f601f668885858151811061188757611887611fca565b60200260200101516040518363ffffffff1660e01b81526004016118c19291906001600160a01b0392831681529116602082015260400190565b602060405180830381865afa1580156118dc573d5f803e3d5ffd5b505050506040513d601f19601f820116820180604052508101906119009190611d16565b111561190e57505050505050565b60010161183b565b5060408051838152602081018690529081018490526001600160a01b038616907f7a3801d8b8e541abc95a3a8dd65329e6c81a31c5289ca299eca17315505fd0f29060600160405180910390a260405163122b3c7160e01b81526001600160a01b0386811660048301527f0000000000000000000000000000000000000000000000000000000000000000169063122b3c71906024015f604051808303815f87803b1580156119c3575f80fd5b505af11580156119d5573d5f803e3d5ffd5b505050505050505050565b610fd88133611bdd565b5f6119f58383611200565b611a72575f838152602081815260408083206001600160a01b03861684529091529020805460ff19166001179055611a2a3390565b6001600160a01b0316826001600160a01b0316847f2f8788117e7eff1d82e926ec794901d17c78024a50270940304540a733656f0d60405160405180910390a45060016104ac565b505f6104ac565b5f611a848383611200565b15611a72575f838152602081815260408083206001600160a01b0386168085529252808320805460ff1916905551339286917ff6391f5c32d9c69d2a47ea670b442974b53935d1edc7fd64eb21e047a839171b9190a45060016104ac565b611aea611c1a565b6002805460ff191690557f5db9ee0a495bf2e6ff9c91a7834c1ba4fdd244a5e8aa4e537bd38aeae4b073aa335b6040516001600160a01b03909116815260200160405180910390a1565b611b3c611699565b6002805460ff191660011790557f62e78cea01bee320cd4e420270b5ea74000d11b0c9f74754ebdbfc544b05a258611b173390565b5f8060205f8451602086015f885af180611b90576040513d5f823e3d81fd5b50505f513d91508115611ba7578060011415611bb4565b6001600160a01b0384163b155b15610e8157604051635274afe760e01b81526001600160a01b0385166004820152602401610641565b611be78282611200565b611c165760405163e2517d3f60e01b81526001600160a01b038216600482015260248101839052604401610641565b5050565b60025460ff166116bd57604051638dfc202b60e01b815260040160405180910390fd5b5f60208284031215611c4d575f80fd5b81356001600160e01b0319811681146115ee575f80fd5b6001600160a01b0381168114610fd8575f80fd5b5f60208284031215611c88575f80fd5b81356115ee81611c64565b5f60208284031215611ca3575f80fd5b5035919050565b5f805f60608486031215611cbc575f80fd5b8335611cc781611c64565b92506020840135611cd781611c64565b929592945050506040919091013590565b5f8060408385031215611cf9575f80fd5b823591506020830135611d0b81611c64565b809150509250929050565b5f60208284031215611d26575f80fd5b5051919050565b634e487b7160e01b5f52601160045260245ffd5b80820281158282048414176104ac576104ac611d2d565b5f82611d7257634e487b7160e01b5f52601260045260245ffd5b500490565b5f805f8060808587031215611d8a575f80fd5b84518015158114611d99575f80fd5b60208601516040870151606090970151919890975090945092505050565b5f60208284031215611dc7575f80fd5b815160ff811681146115ee575f80fd5b6001815b6001841115611e1257808504811115611df657611df6611d2d565b6001841615611e0457908102905b60019390931c928002611ddb565b935093915050565b5f82611e28575060016104ac565b81611e3457505f6104ac565b8160018114611e4a5760028114611e5457611e70565b60019150506104ac565b60ff841115611e6557611e65611d2d565b50506001821b6104ac565b5060208310610133831016604e8410600b8410161715611e93575081810a6104ac565b611e9f5f198484611dd7565b805f1904821115611eb257611eb2611d2d565b029392505050565b5f6115ee60ff841683611e1a565b808201808211156104ac576104ac611d2d565b634e487b7160e01b5f52604160045260245ffd5b8051611efa81611c64565b919050565b5f60208284031215611f0f575f80fd5b815167ffffffffffffffff811115611f25575f80fd5b8201601f81018413611f35575f80fd5b805167ffffffffffffffff811115611f4f57611f4f611edb565b8060051b604051601f19603f830116810181811067ffffffffffffffff82111715611f7c57611f7c611edb565b604052918252602081840181019290810187841115611f99575f80fd5b6020850194505b83851015611fbf57611fb185611eef565b815260209485019401611fa0565b509695505050505050565b634e487b7160e01b5f52603260045260245ffdfe63969a580f710a0b87a9a89ed03da3ab3878a3f881ea24ec39d5e06a54f156e5a2646970667358221220a738da7532c12bd4ff3b942b42472b87848a9d2e05754bc13a7a1ddd067a97ca64736f6c634300081a0033","linkReferences":{}},"methodIdentifiers":{"ADMIN_DELAY()":"92ffacac","DEFAULT_ADMIN_ROLE()":"a217fddf","ENGINE_ADMIN_ROLE()":"28e58601","MIN_LIQUIDATION_AMOUNT()":"3957b2e6","PAUSER_ROLE()":"e63ab1e9","borrowModule()":"25384fd8","cancelCloseFactor()":"d8915082","cancelFullLiquidationThreshold()":"921a3926","closeFactorBps()":"4654440b","estimateSeize(address,address,uint256)":"b564e1ba","executeCloseFactor()":"4095a46e","executeFullLiquidationThreshold()":"71ebcdc5","fullLiquidationThreshold()":"fcc2602a","getRoleAdmin(bytes32)":"248a9ca3","grantRole(bytes32,address)":"2f2ff15d","hasRole(bytes32,address)":"91d14854","isLiquidatable(address)":"042e02cf","liquidate(address,address,uint256)":"26c01303","musd()":"cab666d0","oracle()":"7dc0d1d0","pause()":"8456cb59","paused()":"5c975abb","pendingCloseFactor()":"a76a5f83","pendingCloseFactorTime()":"ce699b31","pendingFullLiqThreshold()":"9c2c61e6","pendingFullLiqThresholdTime()":"1158416f","renounceRole(bytes32,address)":"36568abe","requestCloseFactor(uint256)":"a8f6e9ee","requestFullLiquidationThreshold(uint256)":"3e1f2223","revokeRole(bytes32,address)":"d547741f","supportsInterface(bytes4)":"01ffc9a7","unpause()":"3f4ba83a","vault()":"fbfa77cf"},"id":4}