{"abi":[{"type":"constructor","inputs":[],"stateMutability":"nonpayable"},{"type":"function","name":"ADMIN_DELAY","inputs":[],"outputs":[{"name":"","type":"uint256","internalType":"uint256"}],"stateMutability":"view"},{"type":"function","name":"BORROW_ADMIN_ROLE","inputs":[],"outputs":[{"name":"","type":"bytes32","internalType":"bytes32"}],"stateMutability":"view"},{"type":"function","name":"DEFAULT_ADMIN_ROLE","inputs":[],"outputs":[{"name":"","type":"bytes32","internalType":"bytes32"}],"stateMutability":"view"},{"type":"function","name":"LEVERAGE_VAULT_ROLE","inputs":[],"outputs":[{"name":"","type":"bytes32","internalType":"bytes32"}],"stateMutability":"view"},{"type":"function","name":"LIQUIDATION_ROLE","inputs":[],"outputs":[{"name":"","type":"bytes32","internalType":"bytes32"}],"stateMutability":"view"},{"type":"function","name":"PAUSER_ROLE","inputs":[],"outputs":[{"name":"","type":"bytes32","internalType":"bytes32"}],"stateMutability":"view"},{"type":"function","name":"TIMELOCK_ROLE","inputs":[],"outputs":[{"name":"","type":"bytes32","internalType":"bytes32"}],"stateMutability":"view"},{"type":"function","name":"UPGRADE_INTERFACE_VERSION","inputs":[],"outputs":[{"name":"","type":"string","internalType":"string"}],"stateMutability":"view"},{"type":"function","name":"badDebt","inputs":[],"outputs":[{"name":"","type":"uint256","internalType":"uint256"}],"stateMutability":"view"},{"type":"function","name":"badDebtCovered","inputs":[],"outputs":[{"name":"","type":"uint256","internalType":"uint256"}],"stateMutability":"view"},{"type":"function","name":"borrow","inputs":[{"name":"amount","type":"uint256","internalType":"uint256"}],"outputs":[],"stateMutability":"nonpayable"},{"type":"function","name":"borrowCapacity","inputs":[{"name":"user","type":"address","internalType":"address"}],"outputs":[{"name":"","type":"uint256","internalType":"uint256"}],"stateMutability":"view"},{"type":"function","name":"borrowFor","inputs":[{"name":"user","type":"address","internalType":"address"},{"name":"amount","type":"uint256","internalType":"uint256"}],"outputs":[],"stateMutability":"nonpayable"},{"type":"function","name":"coverBadDebt","inputs":[{"name":"amount","type":"uint256","internalType":"uint256"}],"outputs":[],"stateMutability":"nonpayable"},{"type":"function","name":"cumulativeBadDebt","inputs":[],"outputs":[{"name":"","type":"uint256","internalType":"uint256"}],"stateMutability":"view"},{"type":"function","name":"drainUnroutedInterest","inputs":[],"outputs":[],"stateMutability":"nonpayable"},{"type":"function","name":"getCurrentBorrowRate","inputs":[],"outputs":[{"name":"","type":"uint256","internalType":"uint256"}],"stateMutability":"view"},{"type":"function","name":"getCurrentSupplyRate","inputs":[],"outputs":[{"name":"","type":"uint256","internalType":"uint256"}],"stateMutability":"view"},{"type":"function","name":"getRoleAdmin","inputs":[{"name":"role","type":"bytes32","internalType":"bytes32"}],"outputs":[{"name":"","type":"bytes32","internalType":"bytes32"}],"stateMutability":"view"},{"type":"function","name":"getTotalSupply","inputs":[],"outputs":[{"name":"","type":"uint256","internalType":"uint256"}],"stateMutability":"view"},{"type":"function","name":"getUtilizationRate","inputs":[],"outputs":[{"name":"","type":"uint256","internalType":"uint256"}],"stateMutability":"view"},{"type":"function","name":"grantRole","inputs":[{"name":"role","type":"bytes32","internalType":"bytes32"},{"name":"account","type":"address","internalType":"address"}],"outputs":[],"stateMutability":"nonpayable"},{"type":"function","name":"hasRole","inputs":[{"name":"role","type":"bytes32","internalType":"bytes32"},{"name":"account","type":"address","internalType":"address"}],"outputs":[{"name":"","type":"bool","internalType":"bool"}],"stateMutability":"view"},{"type":"function","name":"healthFactor","inputs":[{"name":"user","type":"address","internalType":"address"}],"outputs":[{"name":"","type":"uint256","internalType":"uint256"}],"stateMutability":"view"},{"type":"function","name":"healthFactorUnsafe","inputs":[{"name":"user","type":"address","internalType":"address"}],"outputs":[{"name":"","type":"uint256","internalType":"uint256"}],"stateMutability":"view"},{"type":"function","name":"initialize","inputs":[{"name":"_vault","type":"address","internalType":"address"},{"name":"_oracle","type":"address","internalType":"address"},{"name":"_musd","type":"address","internalType":"address"},{"name":"_interestRateBps","type":"uint256","internalType":"uint256"},{"name":"_minDebt","type":"uint256","internalType":"uint256"},{"name":"_admin","type":"address","internalType":"address"},{"name":"_timelockController","type":"address","internalType":"address"}],"outputs":[],"stateMutability":"nonpayable"},{"type":"function","name":"interestRateBps","inputs":[],"outputs":[{"name":"","type":"uint256","internalType":"uint256"}],"stateMutability":"view"},{"type":"function","name":"interestRateModel","inputs":[],"outputs":[{"name":"","type":"address","internalType":"contract IInterestRateModel"}],"stateMutability":"view"},{"type":"function","name":"lastGlobalAccrualTime","inputs":[],"outputs":[{"name":"","type":"uint256","internalType":"uint256"}],"stateMutability":"view"},{"type":"function","name":"maxBorrow","inputs":[{"name":"user","type":"address","internalType":"address"}],"outputs":[{"name":"","type":"uint256","internalType":"uint256"}],"stateMutability":"view"},{"type":"function","name":"minDebt","inputs":[],"outputs":[{"name":"","type":"uint256","internalType":"uint256"}],"stateMutability":"view"},{"type":"function","name":"musd","inputs":[],"outputs":[{"name":"","type":"address","internalType":"contract IMUSD"}],"stateMutability":"view"},{"type":"function","name":"oracle","inputs":[],"outputs":[{"name":"","type":"address","internalType":"contract IPriceOracle"}],"stateMutability":"view"},{"type":"function","name":"pause","inputs":[],"outputs":[],"stateMutability":"nonpayable"},{"type":"function","name":"paused","inputs":[],"outputs":[{"name":"","type":"bool","internalType":"bool"}],"stateMutability":"view"},{"type":"function","name":"pendingInterestRate","inputs":[],"outputs":[{"name":"","type":"uint256","internalType":"uint256"}],"stateMutability":"view"},{"type":"function","name":"pendingInterestRateModel","inputs":[],"outputs":[{"name":"","type":"address","internalType":"address"}],"stateMutability":"view"},{"type":"function","name":"pendingInterestRateModelTime","inputs":[],"outputs":[{"name":"","type":"uint256","internalType":"uint256"}],"stateMutability":"view"},{"type":"function","name":"pendingInterestRateSet","inputs":[],"outputs":[{"name":"","type":"bool","internalType":"bool"}],"stateMutability":"view"},{"type":"function","name":"pendingInterestRateTime","inputs":[],"outputs":[{"name":"","type":"uint256","internalType":"uint256"}],"stateMutability":"view"},{"type":"function","name":"pendingMinDebt","inputs":[],"outputs":[{"name":"","type":"uint256","internalType":"uint256"}],"stateMutability":"view"},{"type":"function","name":"pendingMinDebtTime","inputs":[],"outputs":[{"name":"","type":"uint256","internalType":"uint256"}],"stateMutability":"view"},{"type":"function","name":"pendingSMUSD","inputs":[],"outputs":[{"name":"","type":"address","internalType":"address"}],"stateMutability":"view"},{"type":"function","name":"pendingSMUSDTime","inputs":[],"outputs":[{"name":"","type":"uint256","internalType":"uint256"}],"stateMutability":"view"},{"type":"function","name":"pendingTreasury","inputs":[],"outputs":[{"name":"","type":"address","internalType":"address"}],"stateMutability":"view"},{"type":"function","name":"pendingTreasuryTime","inputs":[],"outputs":[{"name":"","type":"uint256","internalType":"uint256"}],"stateMutability":"view"},{"type":"function","name":"positions","inputs":[{"name":"","type":"address","internalType":"address"}],"outputs":[{"name":"principal","type":"uint256","internalType":"uint256"},{"name":"accruedInterest","type":"uint256","internalType":"uint256"},{"name":"lastAccrualTime","type":"uint256","internalType":"uint256"}],"stateMutability":"view"},{"type":"function","name":"protocolReserves","inputs":[],"outputs":[{"name":"","type":"uint256","internalType":"uint256"}],"stateMutability":"view"},{"type":"function","name":"proxiableUUID","inputs":[],"outputs":[{"name":"","type":"bytes32","internalType":"bytes32"}],"stateMutability":"view"},{"type":"function","name":"recordBadDebt","inputs":[{"name":"user","type":"address","internalType":"address"}],"outputs":[],"stateMutability":"nonpayable"},{"type":"function","name":"reduceDebt","inputs":[{"name":"user","type":"address","internalType":"address"},{"name":"amount","type":"uint256","internalType":"uint256"}],"outputs":[],"stateMutability":"nonpayable"},{"type":"function","name":"renounceRole","inputs":[{"name":"role","type":"bytes32","internalType":"bytes32"},{"name":"callerConfirmation","type":"address","internalType":"address"}],"outputs":[],"stateMutability":"nonpayable"},{"type":"function","name":"repay","inputs":[{"name":"amount","type":"uint256","internalType":"uint256"}],"outputs":[],"stateMutability":"nonpayable"},{"type":"function","name":"repayFor","inputs":[{"name":"user","type":"address","internalType":"address"},{"name":"amount","type":"uint256","internalType":"uint256"}],"outputs":[],"stateMutability":"nonpayable"},{"type":"function","name":"revokeRole","inputs":[{"name":"role","type":"bytes32","internalType":"bytes32"},{"name":"account","type":"address","internalType":"address"}],"outputs":[],"stateMutability":"nonpayable"},{"type":"function","name":"setInterestRate","inputs":[{"name":"_rateBps","type":"uint256","internalType":"uint256"}],"outputs":[],"stateMutability":"nonpayable"},{"type":"function","name":"setInterestRateModel","inputs":[{"name":"_model","type":"address","internalType":"address"}],"outputs":[],"stateMutability":"nonpayable"},{"type":"function","name":"setMinDebt","inputs":[{"name":"_minDebt","type":"uint256","internalType":"uint256"}],"outputs":[],"stateMutability":"nonpayable"},{"type":"function","name":"setSMUSD","inputs":[{"name":"_smusd","type":"address","internalType":"address"}],"outputs":[],"stateMutability":"nonpayable"},{"type":"function","name":"setTreasury","inputs":[{"name":"_treasury","type":"address","internalType":"address"}],"outputs":[],"stateMutability":"nonpayable"},{"type":"function","name":"smusd","inputs":[],"outputs":[{"name":"","type":"address","internalType":"contract ISMUSD"}],"stateMutability":"view"},{"type":"function","name":"socializeBadDebt","inputs":[{"name":"amount","type":"uint256","internalType":"uint256"},{"name":"borrowers","type":"address[]","internalType":"address[]"}],"outputs":[],"stateMutability":"nonpayable"},{"type":"function","name":"supportsInterface","inputs":[{"name":"interfaceId","type":"bytes4","internalType":"bytes4"}],"outputs":[{"name":"","type":"bool","internalType":"bool"}],"stateMutability":"view"},{"type":"function","name":"totalBorrows","inputs":[],"outputs":[{"name":"","type":"uint256","internalType":"uint256"}],"stateMutability":"view"},{"type":"function","name":"totalDebt","inputs":[{"name":"user","type":"address","internalType":"address"}],"outputs":[{"name":"","type":"uint256","internalType":"uint256"}],"stateMutability":"view"},{"type":"function","name":"totalInterestPaidToSuppliers","inputs":[],"outputs":[{"name":"","type":"uint256","internalType":"uint256"}],"stateMutability":"view"},{"type":"function","name":"treasury","inputs":[],"outputs":[{"name":"","type":"address","internalType":"contract ITreasuryV2"}],"stateMutability":"view"},{"type":"function","name":"unpause","inputs":[],"outputs":[],"stateMutability":"nonpayable"},{"type":"function","name":"unroutedInterest","inputs":[],"outputs":[{"name":"","type":"uint256","internalType":"uint256"}],"stateMutability":"view"},{"type":"function","name":"upgradeToAndCall","inputs":[{"name":"newImplementation","type":"address","internalType":"address"},{"name":"data","type":"bytes","internalType":"bytes"}],"outputs":[],"stateMutability":"payable"},{"type":"function","name":"vault","inputs":[],"outputs":[{"name":"","type":"address","internalType":"contract ICollateralVault"}],"stateMutability":"view"},{"type":"function","name":"withdrawCollateral","inputs":[{"name":"token","type":"address","internalType":"address"},{"name":"amount","type":"uint256","internalType":"uint256"}],"outputs":[],"stateMutability":"nonpayable"},{"type":"function","name":"withdrawReserves","inputs":[{"name":"to","type":"address","internalType":"address"},{"name":"amount","type":"uint256","internalType":"uint256"}],"outputs":[],"stateMutability":"nonpayable"},{"type":"event","name":"BadDebtCovered","inputs":[{"name":"amount","type":"uint256","indexed":false,"internalType":"uint256"},{"name":"remainingBadDebt","type":"uint256","indexed":false,"internalType":"uint256"},{"name":"source","type":"string","indexed":false,"internalType":"string"}],"anonymous":false},{"type":"event","name":"BadDebtRecorded","inputs":[{"name":"user","type":"address","indexed":true,"internalType":"address"},{"name":"amount","type":"uint256","indexed":false,"internalType":"uint256"},{"name":"totalBadDebt","type":"uint256","indexed":false,"internalType":"uint256"}],"anonymous":false},{"type":"event","name":"BadDebtSocialized","inputs":[{"name":"amount","type":"uint256","indexed":false,"internalType":"uint256"},{"name":"totalBorrowsBefore","type":"uint256","indexed":false,"internalType":"uint256"},{"name":"totalBorrowsAfter","type":"uint256","indexed":false,"internalType":"uint256"}],"anonymous":false},{"type":"event","name":"Borrowed","inputs":[{"name":"user","type":"address","indexed":true,"internalType":"address"},{"name":"amount","type":"uint256","indexed":false,"internalType":"uint256"},{"name":"totalDebt","type":"uint256","indexed":false,"internalType":"uint256"}],"anonymous":false},{"type":"event","name":"CollateralWithdrawn","inputs":[{"name":"user","type":"address","indexed":true,"internalType":"address"},{"name":"token","type":"address","indexed":true,"internalType":"address"},{"name":"amount","type":"uint256","indexed":false,"internalType":"uint256"}],"anonymous":false},{"type":"event","name":"DebtAdjusted","inputs":[{"name":"user","type":"address","indexed":true,"internalType":"address"},{"name":"newDebt","type":"uint256","indexed":false,"internalType":"uint256"},{"name":"reason","type":"string","indexed":false,"internalType":"string"}],"anonymous":false},{"type":"event","name":"GlobalInterestAccrued","inputs":[{"name":"interest","type":"uint256","indexed":false,"internalType":"uint256"},{"name":"newTotalBorrows","type":"uint256","indexed":false,"internalType":"uint256"},{"name":"utilizationBps","type":"uint256","indexed":false,"internalType":"uint256"}],"anonymous":false},{"type":"event","name":"Initialized","inputs":[{"name":"version","type":"uint64","indexed":false,"internalType":"uint64"}],"anonymous":false},{"type":"event","name":"InterestAccrued","inputs":[{"name":"user","type":"address","indexed":true,"internalType":"address"},{"name":"interest","type":"uint256","indexed":false,"internalType":"uint256"},{"name":"totalDebt","type":"uint256","indexed":false,"internalType":"uint256"}],"anonymous":false},{"type":"event","name":"InterestRateChangeCancelled","inputs":[{"name":"rateBps","type":"uint256","indexed":false,"internalType":"uint256"}],"anonymous":false},{"type":"event","name":"InterestRateChangeRequested","inputs":[{"name":"rateBps","type":"uint256","indexed":false,"internalType":"uint256"},{"name":"readyAt","type":"uint256","indexed":false,"internalType":"uint256"}],"anonymous":false},{"type":"event","name":"InterestRateModelChangeCancelled","inputs":[{"name":"model","type":"address","indexed":true,"internalType":"address"}],"anonymous":false},{"type":"event","name":"InterestRateModelChangeRequested","inputs":[{"name":"model","type":"address","indexed":true,"internalType":"address"},{"name":"readyAt","type":"uint256","indexed":false,"internalType":"uint256"}],"anonymous":false},{"type":"event","name":"InterestRateModelUpdated","inputs":[{"name":"oldModel","type":"address","indexed":true,"internalType":"address"},{"name":"newModel","type":"address","indexed":true,"internalType":"address"}],"anonymous":false},{"type":"event","name":"InterestRateUpdated","inputs":[{"name":"oldRate","type":"uint256","indexed":false,"internalType":"uint256"},{"name":"newRate","type":"uint256","indexed":false,"internalType":"uint256"}],"anonymous":false},{"type":"event","name":"InterestRoutedToSuppliers","inputs":[{"name":"supplierAmount","type":"uint256","indexed":false,"internalType":"uint256"},{"name":"reserveAmount","type":"uint256","indexed":false,"internalType":"uint256"}],"anonymous":false},{"type":"event","name":"InterestRoutingFailed","inputs":[{"name":"supplierAmount","type":"uint256","indexed":false,"internalType":"uint256"},{"name":"reason","type":"bytes","indexed":false,"internalType":"bytes"}],"anonymous":false},{"type":"event","name":"MinDebtChangeCancelled","inputs":[{"name":"minDebt","type":"uint256","indexed":false,"internalType":"uint256"}],"anonymous":false},{"type":"event","name":"MinDebtChangeRequested","inputs":[{"name":"minDebt","type":"uint256","indexed":false,"internalType":"uint256"},{"name":"readyAt","type":"uint256","indexed":false,"internalType":"uint256"}],"anonymous":false},{"type":"event","name":"MinDebtUpdated","inputs":[{"name":"oldMinDebt","type":"uint256","indexed":false,"internalType":"uint256"},{"name":"newMinDebt","type":"uint256","indexed":false,"internalType":"uint256"}],"anonymous":false},{"type":"event","name":"Paused","inputs":[{"name":"account","type":"address","indexed":false,"internalType":"address"}],"anonymous":false},{"type":"event","name":"Repaid","inputs":[{"name":"user","type":"address","indexed":true,"internalType":"address"},{"name":"amount","type":"uint256","indexed":false,"internalType":"uint256"},{"name":"remaining","type":"uint256","indexed":false,"internalType":"uint256"}],"anonymous":false},{"type":"event","name":"ReservesMintFailed","inputs":[{"name":"to","type":"address","indexed":true,"internalType":"address"},{"name":"amount","type":"uint256","indexed":false,"internalType":"uint256"}],"anonymous":false},{"type":"event","name":"ReservesWithdrawn","inputs":[{"name":"to","type":"address","indexed":true,"internalType":"address"},{"name":"amount","type":"uint256","indexed":false,"internalType":"uint256"}],"anonymous":false},{"type":"event","name":"RoleAdminChanged","inputs":[{"name":"role","type":"bytes32","indexed":true,"internalType":"bytes32"},{"name":"previousAdminRole","type":"bytes32","indexed":true,"internalType":"bytes32"},{"name":"newAdminRole","type":"bytes32","indexed":true,"internalType":"bytes32"}],"anonymous":false},{"type":"event","name":"RoleGranted","inputs":[{"name":"role","type":"bytes32","indexed":true,"internalType":"bytes32"},{"name":"account","type":"address","indexed":true,"internalType":"address"},{"name":"sender","type":"address","indexed":true,"internalType":"address"}],"anonymous":false},{"type":"event","name":"RoleRevoked","inputs":[{"name":"role","type":"bytes32","indexed":true,"internalType":"bytes32"},{"name":"account","type":"address","indexed":true,"internalType":"address"},{"name":"sender","type":"address","indexed":true,"internalType":"address"}],"anonymous":false},{"type":"event","name":"SMUSDChangeCancelled","inputs":[{"name":"smusd","type":"address","indexed":true,"internalType":"address"}],"anonymous":false},{"type":"event","name":"SMUSDChangeRequested","inputs":[{"name":"smusd","type":"address","indexed":true,"internalType":"address"},{"name":"readyAt","type":"uint256","indexed":false,"internalType":"uint256"}],"anonymous":false},{"type":"event","name":"SMUSDUpdated","inputs":[{"name":"oldSMUSD","type":"address","indexed":true,"internalType":"address"},{"name":"newSMUSD","type":"address","indexed":true,"internalType":"address"}],"anonymous":false},{"type":"event","name":"TreasuryChangeCancelled","inputs":[{"name":"treasury","type":"address","indexed":true,"internalType":"address"}],"anonymous":false},{"type":"event","name":"TreasuryChangeRequested","inputs":[{"name":"treasury","type":"address","indexed":true,"internalType":"address"},{"name":"readyAt","type":"uint256","indexed":false,"internalType":"uint256"}],"anonymous":false},{"type":"event","name":"TreasuryUpdated","inputs":[{"name":"oldTreasury","type":"address","indexed":true,"internalType":"address"},{"name":"newTreasury","type":"address","indexed":true,"internalType":"address"}],"anonymous":false},{"type":"event","name":"Unpaused","inputs":[{"name":"account","type":"address","indexed":false,"internalType":"address"}],"anonymous":false},{"type":"event","name":"UnroutedInterestDrained","inputs":[{"name":"amount","type":"uint256","indexed":false,"internalType":"uint256"},{"name":"totalBorrowsBefore","type":"uint256","indexed":false,"internalType":"uint256"},{"name":"totalBorrowsAfter","type":"uint256","indexed":false,"internalType":"uint256"}],"anonymous":false},{"type":"event","name":"Upgraded","inputs":[{"name":"implementation","type":"address","indexed":true,"internalType":"address"}],"anonymous":false},{"type":"error","name":"AccessControlBadConfirmation","inputs":[]},{"type":"error","name":"AccessControlUnauthorizedAccount","inputs":[{"name":"account","type":"address","internalType":"address"},{"name":"neededRole","type":"bytes32","internalType":"bytes32"}]},{"type":"error","name":"AddressEmptyCode","inputs":[{"name":"target","type":"address","internalType":"address"}]},{"type":"error","name":"ERC1967InvalidImplementation","inputs":[{"name":"implementation","type":"address","internalType":"address"}]},{"type":"error","name":"ERC1967NonPayable","inputs":[]},{"type":"error","name":"EnforcedPause","inputs":[]},{"type":"error","name":"ExpectedPause","inputs":[]},{"type":"error","name":"FailedCall","inputs":[]},{"type":"error","name":"InvalidInitialization","inputs":[]},{"type":"error","name":"NotInitializing","inputs":[]},{"type":"error","name":"ReentrancyGuardReentrantCall","inputs":[]},{"type":"error","name":"SafeERC20FailedOperation","inputs":[{"name":"token","type":"address","internalType":"address"}]},{"type":"error","name":"UUPSUnauthorizedCallContext","inputs":[]},{"type":"error","name":"UUPSUnsupportedProxiableUUID","inputs":[{"name":"slot","type":"bytes32","internalType":"bytes32"}]}],"bytecode":{"object":"0x60a060405230608052348015610013575f80fd5b5061001c610021565b6100d3565b7ff0c57e16840df040f15088dc2f81fe391c3923bec73e23a9662efc9c229c6a00805468010000000000000000900460ff16156100715760405163f92ee8a960e01b815260040160405180910390fd5b80546001600160401b03908116146100d05780546001600160401b0319166001600160401b0390811782556040519081527fc7f505b2f371ae2175ee4913f4499e1f2633a7b5936321eed1cdaeb6115181d29060200160405180910390a15b50565b60805161547a6100f95f395f8181613d7001528181613d990152613ee7015261547a5ff3fe608060405260043610610416575f3560e01c80638594487c11610220578063c84a208b11610129578063e478795d116100b3578063f17336d711610078578063f17336d714610c09578063f288a2e214610c1e578063f3fdb15a14610c3e578063f99a902014610c5d578063fbfa77cf14610c7c575f80fd5b8063e478795d14610b5a578063e63ab1e914610b79578063e9a1183d14610bac578063ecc6d9ff14610bcb578063f0f4426014610bea575f80fd5b8063d681a449116100f9578063d681a44914610add578063d9c9d33714610af2578063dad70a1014610b07578063dade020514610b26578063dc8b3a3514610b45575f80fd5b8063c84a208b14610a75578063cab666d014610a8a578063d194bdf714610aa9578063d547741f14610abe575f80fd5b8063a496b434116101aa578063b977fc881161017a578063b977fc88146109f9578063bbcac55714610a18578063bfe65f4d14610a2d578063c4e41b2214610a42578063c5ebeaec14610a56575f80fd5b8063a496b43414610956578063a874baf414610975578063ad3cb1cc14610989578063ae0e0125146109c6575f80fd5b806392ffacac116101f057806392ffacac146108e457806395fa4d90146108fa57806397a9d4571461090f5780639b200ec71461092e578063a217fddf14610943575f80fd5b80638594487c1461087257806388e94ef6146108875780638bcd4016146108a657806391d14854146108c5575f80fd5b806346bf96521161032257806361d027b3116102ac5780636c22e8631161027c5780636c22e863146107ce5780637be9b154146108015780637dc0d1d014610820578063807d3f1d1461083f5780638456cb591461085e575f80fd5b806361d027b3146107525780636213b727146107715780636234dc21146107905780636ad9f9df146107af575f80fd5b80634f1ef286116102f25780634f1ef2861461069457806352d1902d146106a757806355f57510146106bb5780635c975abb146107105780635f84f30214610733575f80fd5b806346bf96521461063e57806347bd3718146106575780634a2190a51461066c5780634a417a5314610680575f80fd5b80632ed6b75d116103a3578063371fd8e611610373578063371fd8e6146105c25780633d34e3e4146105e15780633f0c4392146106015780633f4ba83a1461061557806341d8557314610629575f80fd5b80632ed6b75d1461052e5780632f2ff15d14610565578063350c35e91461058457806336568abe146105a3575f80fd5b80631ff517ff116103e95780631ff517ff146104a7578063206abeac146104c657806322006935146104db57806323a27622146104f0578063248a9ca31461050f575f80fd5b806301ffc9a71461041a578063084548031461044e578063122b3c711461047157806314f7db6414610492575b5f80fd5b348015610425575f80fd5b50610439610434366004614e54565b610c9a565b60405190151581526020015b60405180910390f35b348015610459575f80fd5b5061046360165481565b604051908152602001610445565b34801561047c575f80fd5b5061049061048b366004614e8f565b610cd0565b005b34801561049d575f80fd5b5061046360195481565b3480156104b2575f80fd5b506104636104c1366004614e8f565b6110e9565b3480156104d1575f80fd5b5061046360155481565b3480156104e6575f80fd5b5061046360145481565b3480156104fb575f80fd5b5061049061050a366004614eaa565b61124a565b34801561051a575f80fd5b50610463610529366004614ed4565b611514565b348015610539575f80fd5b5060135461054d906001600160a01b031681565b6040516001600160a01b039091168152602001610445565b348015610570575f80fd5b5061049061057f366004614eeb565b611534565b34801561058f575f80fd5b5061049061059e366004614eaa565b611556565b3480156105ae575f80fd5b506104906105bd366004614eeb565b611992565b3480156105cd575f80fd5b506104906105dc366004614ed4565b6119c5565b3480156105ec575f80fd5b506104635f8051602061542583398151915281565b34801561060c575f80fd5b50610463611c08565b348015610620575f80fd5b50610490611c16565b348015610634575f80fd5b5061046360125481565b348015610649575f80fd5b506017546104399060ff1681565b348015610662575f80fd5b5061046360065481565b348015610677575f80fd5b50610490611c28565b34801561068b575f80fd5b50610463611d0f565b6104906106a2366004614f5e565b611ddf565b3480156106b2575f80fd5b50610463611dfa565b3480156106c6575f80fd5b506106f56106d5366004614e8f565b601c6020525f908152604090208054600182015460029092015490919083565b60408051938452602084019290925290820152606001610445565b34801561071b575f80fd5b505f805160206153e58339815191525460ff16610439565b34801561073e575f80fd5b5061049061074d366004614ed4565b611e15565b34801561075d575f80fd5b5060055461054d906001600160a01b031681565b34801561077c575f80fd5b5061049061078b366004615005565b611eac565b34801561079b575f80fd5b506104906107aa366004614ed4565b61220b565b3480156107ba575f80fd5b506104636107c9366004614e8f565b6122f1565b3480156107d9575f80fd5b506104637f292f74ea0b8d002236e65cd2cb76fcf83b8e4d25d2ac18517380a822699e9d0181565b34801561080c575f80fd5b5060045461054d906001600160a01b031681565b34801561082b575f80fd5b5060015461054d906001600160a01b031681565b34801561084a575f80fd5b50610490610859366004614eaa565b612349565b348015610869575f80fd5b50610490612547565b34801561087d575f80fd5b50610463600e5481565b348015610892575f80fd5b506104636108a1366004614e8f565b612579565b3480156108b1575f80fd5b506104906108c0366004614e8f565b6125a0565b3480156108d0575f80fd5b506104396108df366004614eeb565b61262f565b3480156108ef575f80fd5b506104636202a30081565b348015610905575f80fd5b5061046360185481565b34801561091a575f80fd5b50610463610929366004614e8f565b612665565b348015610939575f80fd5b50610463600a5481565b34801561094e575f80fd5b506104635f81565b348015610961575f80fd5b50610490610970366004614e8f565b612695565b348015610980575f80fd5b50610463612724565b348015610994575f80fd5b506109b9604051806040016040528060058152602001640352e302e360dc1b81525081565b60405161044591906150b2565b3480156109d1575f80fd5b506104637f78dee7707521b7c9b92b1070cc1d51daeefd47d09898061ee53bff95426cbe5481565b348015610a04575f80fd5b50610463610a13366004614e8f565b612772565b348015610a23575f80fd5b50610463600c5481565b348015610a38575f80fd5b50610463600b5481565b348015610a4d575f80fd5b5061046361277c565b348015610a61575f80fd5b50610490610a70366004614ed4565b612785565b348015610a80575f80fd5b50610463601a5481565b348015610a95575f80fd5b5060025461054d906001600160a01b031681565b348015610ab4575f80fd5b5061046360095481565b348015610ac9575f80fd5b50610490610ad8366004614eeb565b612955565b348015610ae8575f80fd5b5061046360085481565b348015610afd575f80fd5b50610463600d5481565b348015610b12575f80fd5b5060115461054d906001600160a01b031681565b348015610b31575f80fd5b50610490610b403660046150c4565b612971565b348015610b50575f80fd5b5061046360105481565b348015610b65575f80fd5b50610490610b74366004614eaa565b612eb6565b348015610b84575f80fd5b506104637f65d7a28e3265b37a6474929f336521b332c1681b933f6cb9f3376673440d862a81565b348015610bb7575f80fd5b50610490610bc6366004614eaa565b613078565b348015610bd6575f80fd5b50610490610be5366004614ed4565b6132ad565b348015610bf5575f80fd5b50610490610c04366004614e8f565b61351b565b348015610c14575f80fd5b50610463601b5481565b348015610c29575f80fd5b506104635f8051602061538583398151915281565b348015610c49575f80fd5b5060035461054d906001600160a01b031681565b348015610c68575f80fd5b50600f5461054d906001600160a01b031681565b348015610c87575f80fd5b505f5461054d906001600160a01b031681565b5f6001600160e01b03198216637965db0b60e01b1480610cca57506301ffc9a760e01b6001600160e01b03198316145b92915050565b610cd86135aa565b610d027f78dee7707521b7c9b92b1070cc1d51daeefd47d09898061ee53bff95426cbe543361262f565b610d535760405162461bcd60e51b815260206004820152601c60248201527f554e415554484f52495a45445f5245434f52445f4241445f444542540000000060448201526064015b60405180910390fd5b610d5c816135e1565b6001600160a01b0381165f908152601c6020526040812060018101548154919291610d879190615152565b9050805f03610d975750506110d0565b5f805f9054906101000a90046001600160a01b03166001600160a01b031663d3c7c2c76040518163ffffffff1660e01b81526004015f60405180830381865afa158015610de6573d5f803e3d5ffd5b505050506040513d5f823e601f3d908101601f19168201604052610e0d9190810190615165565b90505f805b8251811015610f6b575f805484516001600160a01b0390911690638f601f66908990879086908110610e4657610e46615219565b60200260200101516040518363ffffffff1660e01b8152600401610e809291906001600160a01b0392831681529116602082015260400190565b602060405180830381865afa158015610e9b573d5f803e3d5ffd5b505050506040513d601f19601f82011682018060405250810190610ebf919061522d565b90508015610f625760015484516001600160a01b0390911690637206c22b90869085908110610ef057610ef0615219565b6020026020010151836040518363ffffffff1660e01b8152600401610f16929190615244565b602060405180830381865afa158015610f31573d5f803e3d5ffd5b505050506040513d601f19601f82011682018060405250810190610f55919061522d565b610f5f9084615152565b92505b50600101610e12565b508015610fb15760405162461bcd60e51b8152602060048201526014602482015273434f4c4c41544552414c5f52454d41494e494e4760601b6044820152606401610d4a565b5f80855560018501556006548311610fdf578260065f828254610fd4919061525d565b90915550610fe49050565b5f6006555b82600c5f828254610ff59190615152565b9250508190555082600d5f82825461100d9190615152565b9091555050600c546040516001600160a01b038716917ff824141b5865c6fe993e72651d58296151858045f63dc2bf611ba62429e3d1d69161105791878252602082015260400190565b60405180910390a2846001600160a01b03167ff073ee549cff52c89736798db7e065360a0f6079de0d91acabb22b8cd51005915f6040516110c3918152604060208201819052601190820152702120a22fa222a12a2faba924aa22a7a32360791b606082015260800190565b60405180910390a2505050505b6110e660015f8051602061540583398151915255565b50565b6001600160a01b0381165f908152601c6020526040812060028101548290611111904261525d565b90505f8260010154835f01546111279190615152565b6003549091505f906001600160a01b031615611200576003546006545f916001600160a01b03169063724dfc92908061115e61380d565b6040516001600160e01b031960e086901b16815260048101939093526024830191909152604482015260648101879052608401602060405180830381865afa1580156111ac573d5f803e3d5ffd5b505050506040513d601f19601f820116820180604052508101906111d0919061522d565b90505f600654116111e1575f6111f8565b6006546111ee8483615270565b6111f89190615287565b915050611236565b6112106301e13380612710615270565b83601a548461121f9190615270565b6112299190615270565b6112339190615287565b90505b6112408183615152565b9695505050505050565b5f80516020615425833981519152611261816138d3565b6112696135aa565b5f82116112885760405162461bcd60e51b8152600401610d4a906152a6565b6001600160a01b0383166112cd5760405162461bcd60e51b815260206004820152600c60248201526b24a72b20a624a22faaa9a2a960a11b6044820152606401610d4a565b6112d6836135e1565b6001600160a01b0383165f908152601c60205260408120600181015481549192916113019190615152565b90505f811161133c5760405162461bcd60e51b81526020600482015260076024820152661393d7d111509560ca1b6044820152606401610d4a565b5f81851161134a578461134c565b815b90505f611359828461525d565b905080156113ae57601b548110156113ae5760405162461bcd60e51b8152602060048201526018602482015277149153505253925391d7d0915313d5d7d3525397d111509560421b6044820152606401610d4a565b836001015482116113d75781846001015f8282546113cc919061525d565b9091555061140c9050565b5f8460010154836113e8919061525d565b90505f856001018190555080855f015f828254611405919061525d565b9091555050505b5f8211801561141d57508160065410155b1561143e578160065f828254611433919061525d565b909155506114499050565b8115611449575f6006555b600254604051632770a7eb60e21b81526001600160a01b0390911690639dc29fac9061147b9033908690600401615244565b5f604051808303815f87803b158015611492575f80fd5b505af11580156114a4573d5f803e3d5ffd5b50505050866001600160a01b03167f1b8cd61ed43bec7c6bdad3a18ffee613f99c853d16c50678d248d879e1b43438836114dd8a6110e9565b6040805192835260208301919091520160405180910390a25050505061150f60015f8051602061540583398151915255565b505050565b5f9081525f805160206153c5833981519152602052604090206001015490565b61153d82611514565b611546816138d3565b61155083836138dd565b50505050565b61155e6135aa565b61156661397e565b5f81116115855760405162461bcd60e51b8152600401610d4a906152a6565b61158e336135e1565b5f611598336110e9565b11156118d2575f80546040516347b00fb360e11b81523360048201526001600160a01b03858116602483015290911690638f601f6690604401602060405180830381865afa1580156115ec573d5f803e3d5ffd5b505050506040513d601f19601f82011682018060405250810190611610919061522d565b9050818110156116595760405162461bcd60e51b8152602060048201526014602482015273125394d551919250d251539517d1115413d4d25560621b6044820152606401610d4a565b5f805460405163e48a5f7b60e01b81526001600160a01b0386811660048301528392169063e48a5f7b90602401608060405180830381865afa1580156116a1573d5f803e3d5ffd5b505050506040513d601f19601f820116820180604052508101906116c591906152ce565b50925050915081806116d657505f81115b6117185760405162461bcd60e51b81526020600482015260136024820152721513d2d15397d393d517d4d5541413d4951151606a1b6044820152606401610d4a565b600154604051632dfe1d9160e21b81525f916001600160a01b03169063b7f876449061174a9089908990600401615244565b602060405180830381865afa925050508015611783575060408051601f3d908101601f191682019092526117809181019061522d565b60015b6117ff57600154604051637206c22b60e01b81526001600160a01b0390911690637206c22b906117b99089908990600401615244565b602060405180830381865afa1580156117d4573d5f803e3d5ffd5b505050506040513d601f19601f820116820180604052508101906117f8919061522d565b9050611802565b90505b5f6127106118108484615270565b61181a9190615287565b90505f611826336139b0565b90505f828211611836575f611840565b611840838361525d565b90505f61184c336110e9565b90505f80821161185d575f19611874565b8161186a84612710615270565b6118749190615287565b90506127108110156118c85760405162461bcd60e51b815260206004820152601a60248201527f5749544844524157414c5f574f554c445f4c49515549444154450000000000006044820152606401610d4a565b5050505050505050505b5f54604051631a4ca37b60e21b81526001600160a01b03848116600483015260248201849052336044830152909116906369328dec906064015f604051808303815f87803b158015611922575f80fd5b505af1158015611934573d5f803e3d5ffd5b50506040518381526001600160a01b03851692503391507f45892a46e6cef329bb642da6d69846d324db43d19008edc141ed82382eda1bee9060200160405180910390a361198e60015f8051602061540583398151915255565b5050565b6001600160a01b03811633146119bb5760405163334bd91960e11b815260040160405180910390fd5b61150f8282613c53565b6119cd6135aa565b5f81116119ec5760405162461bcd60e51b8152600401610d4a906152a6565b6119f5336135e1565b335f908152601c6020526040812060018101548154919291611a179190615152565b90505f8111611a525760405162461bcd60e51b81526020600482015260076024820152661393d7d111509560ca1b6044820152606401610d4a565b5f818411611a605783611a62565b815b90505f611a6f828461525d565b90508015611ac457601b54811015611ac45760405162461bcd60e51b8152602060048201526018602482015277149153505253925391d7d0915313d5d7d3525397d111509560421b6044820152606401610d4a565b83600101548211611aed5781846001015f828254611ae2919061525d565b90915550611b229050565b5f846001015483611afe919061525d565b90505f856001018190555080855f015f828254611b1b919061525d565b9091555050505b5f82118015611b3357508160065410155b15611b54578160065f828254611b49919061525d565b90915550611b5f9050565b8115611b5f575f6006555b600254604051632770a7eb60e21b81526001600160a01b0390911690639dc29fac90611b919033908690600401615244565b5f604051808303815f87803b158015611ba8575f80fd5b505af1158015611bba573d5f803e3d5ffd5b50505050336001600160a01b03167f1b8cd61ed43bec7c6bdad3a18ffee613f99c853d16c50678d248d879e1b4343883611bf3336110e9565b604080519283526020830191909152016110c3565b5f611c11613ccc565b905090565b5f611c20816138d3565b6110e6613d06565b7f292f74ea0b8d002236e65cd2cb76fcf83b8e4d25d2ac18517380a822699e9d01611c52816138d3565b600b5480611c955760405162461bcd60e51b815260206004820152601060248201526f2727aa2424a723afaa27afa22920a4a760811b6044820152606401610d4a565b6006545f600b55818110611cbf578160065f828254611cb4919061525d565b90915550611cc49050565b5f6006555b6006546040805184815260208101849052908101919091527f2ca70acd561450e4a516b059fb9b4d1f7319d5592823844a421a866274d1405f906060015b60405180910390a1505050565b6003545f906001600160a01b031615611da5576003546006546001600160a01b039091169063ec2de40c90611d4261380d565b6040516001600160e01b031960e085901b16815260048101929092526024820152604401602060405180830381865afa158015611d81573d5f803e3d5ffd5b505050506040513d601f19601f82011682018060405250810190611c11919061522d565b5f611dae61380d565b9050805f03611dbe575f91505090565b80612710600654611dcf9190615270565b611dd99190615287565b91505090565b611de7613d65565b611df082613e09565b61198e8282613e20565b5f611e03613edc565b505f805160206153a583398151915290565b5f80516020615385833981519152611e2c816138d3565b611388821115611e6e5760405162461bcd60e51b815260206004820152600d60248201526c0a482a88abea89e9ebe90928e9609b1b6044820152606401610d4a565b601a80549083905560408051828152602081018590527f41e376fd99913dea7fda140f5c0bd997515b1a181acc58737320322548ec6e729101611d02565b5f611eb5613f25565b805490915060ff600160401b820416159067ffffffffffffffff165f81158015611edc5750825b90505f8267ffffffffffffffff166001148015611ef85750303b155b905081158015611f06575080155b15611f245760405163f92ee8a960e01b815260040160405180910390fd5b845467ffffffffffffffff191660011785558315611f4e57845460ff60401b1916600160401b1785555b611f56613f4d565b611f5e613f55565b611f66613f4d565b611f6e613f4d565b6001600160a01b038c16611fb45760405162461bcd60e51b815260206004820152600d60248201526c1253959053125117d590555315609a1b6044820152606401610d4a565b6001600160a01b038b16611ffb5760405162461bcd60e51b815260206004820152600e60248201526d494e56414c49445f4f5241434c4560901b6044820152606401610d4a565b6001600160a01b038a166120405760405162461bcd60e51b815260206004820152600c60248201526b1253959053125117d35554d160a21b6044820152606401610d4a565b6113888911156120825760405162461bcd60e51b815260206004820152600d60248201526c0a482a88abea89e9ebe90928e9609b1b6044820152606401610d4a565b5f8811801561209b575069d3c21bcecceda10000008811155b6120da5760405162461bcd60e51b815260206004820152601060248201526f1253959053125117d3525397d111509560821b6044820152606401610d4a565b6001600160a01b0386166121235760405162461bcd60e51b815260206004820152601060248201526f494e56414c49445f54494d454c4f434b60801b6044820152606401610d4a565b5f80546001600160a01b03808f166001600160a01b0319928316178355600180548f831690841617905560028054918e1691909216179055601a8a9055601b8990554260095561217390886138dd565b5061219e7f292f74ea0b8d002236e65cd2cb76fcf83b8e4d25d2ac18517380a822699e9d01886138dd565b506121b65f80516020615385833981519152876138dd565b5083156121fd57845460ff60401b19168555604051600181527fc7f505b2f371ae2175ee4913f4499e1f2633a7b5936321eed1cdaeb6115181d29060200160405180910390a15b505050505050505050505050565b5f80516020615385833981519152612222816138d3565b5f82116122615760405162461bcd60e51b815260206004820152600d60248201526c4d494e5f444542545f5a45524f60981b6044820152606401610d4a565b69d3c21bcecceda10000008211156122af5760405162461bcd60e51b815260206004820152601160248201527009a929cbe888a84a8bea89e9ebe90928e9607b1b6044820152606401610d4a565b601b5460408051918252602082018490527f7c4eb8004e5bfd89a239033e6c38ca145db0ddd5b523870d9c6a1de14ac5d37f910160405180910390a150601b55565b5f806122fc836110e9565b9050805f0361230e57505f1992915050565b5f612318846139b0565b9050805f0361232a57505f9392505050565b8161233782612710615270565b6123419190615287565b949350505050565b6123516135aa565b61237b7f78dee7707521b7c9b92b1070cc1d51daeefd47d09898061ee53bff95426cbe543361262f565b8061239857506123985f805160206154258339815191523361262f565b6123e45760405162461bcd60e51b815260206004820152601860248201527f554e415554484f52495a45445f5245445543455f4445425400000000000000006044820152606401610d4a565b6123ed826135e1565b6001600160a01b0382165f908152601c60205260408120600181015481549192916124189190615152565b90505f818411612428578361242a565b815b9050826001015481116124555780836001015f82825461244a919061525d565b9091555061248a9050565b5f836001015482612466919061525d565b90505f846001018190555080845f015f828254612483919061525d565b9091555050505b5f8111801561249b57508060065410155b156124bc578060065f8282546124b1919061525d565b909155506124c79050565b80156124c7575f6006555b846001600160a01b03167ff073ee549cff52c89736798db7e065360a0f6079de0d91acabb22b8cd51005916124fb876110e9565b6040805191825260208201819052600b908201526a2624a8aaa4a220aa24a7a760a91b606082015260800160405180910390a250505061198e60015f8051602061540583398151915255565b7f65d7a28e3265b37a6474929f336521b332c1681b933f6cb9f3376673440d862a612571816138d3565b6110e6613f65565b5f80612584836110e9565b9050805f0361259657505f1992915050565b5f61231884613fad565b5f805160206153858339815191526125b7816138d3565b6001600160a01b0382166125dd5760405162461bcd60e51b8152600401610d4a9061530e565b600380546001600160a01b038481166001600160a01b0319831681179093556040519116919082907fdace1576ba731b4c76870b86217414c265c1ae95c55027d50dc19dab5feb9919905f90a3505050565b5f9182525f805160206153c5833981519152602090815260408084206001600160a01b0393909316845291905290205460ff1690565b5f8061267083614248565b90505f61267c846110e9565b905080821161268b575f612341565b612341818361525d565b5f805160206153858339815191526126ac816138d3565b6001600160a01b0382166126d25760405162461bcd60e51b8152600401610d4a9061530e565b600480546001600160a01b038481166001600160a01b0319831681179093556040519116919082907ffe654e270bae2933f0a40f2c174979f717954d0fc789a6b957087fb0f85d9037905f90a3505050565b6003545f906001600160a01b031615612757576003546006546001600160a01b039091169063257d9ef590611d4261380d565b600a601a5460096127689190615270565b611c119190615287565b5f610cca82614248565b5f611c1161380d565b61278d6135aa565b61279561397e565b5f81116127b45760405162461bcd60e51b8152600401610d4a906152a6565b6127bd336135e1565b335f908152601c602052604081206001810154815491929184916127e091615152565b6127ea9190615152565b9050601b5481101561282f5760405162461bcd60e51b815260206004820152600e60248201526d10915313d5d7d3525397d111509560921b6044820152606401610d4a565b82825f015f8282546128419190615152565b925050819055508260065f8282546128599190615152565b909155505f905061286933614248565b90505f612875336110e9565b9050808210156128c15760405162461bcd60e51b8152602060048201526017602482015276455843454544535f424f52524f575f434150414349545960481b6044820152606401610d4a565b6002546040516340c10f1960e01b81526001600160a01b03909116906340c10f19906128f39033908990600401615244565b5f604051808303815f87803b15801561290a575f80fd5b505af115801561291c573d5f803e3d5ffd5b50505050336001600160a01b03167feae9cfbc77fdd40ca899f36b608256063b2bc9d8178b0220f7ad513e178d673086611bf3336110e9565b61295e82611514565b612967816138d3565b6115508383613c53565b6129796135aa565b5f612983816138d3565b5f84116129c05760405162461bcd60e51b815260206004820152600b60248201526a16915493d7d05353d5539560aa1b6044820152606401610d4a565b5f600c54116129ff5760405162461bcd60e51b815260206004820152600b60248201526a1393d7d0905117d111509560aa1b6044820152606401610d4a565b81612a3b5760405162461bcd60e51b815260206004820152600c60248201526b4e4f5f424f52524f5745525360a01b6044820152606401610d4a565b5f600c548511612a4b5784612a4f565b600c545b90505f5b83811015612b22575f805b82811015612adc57868684818110612a7857612a78615219565b9050602002016020810190612a8d9190614e8f565b6001600160a01b0316878783818110612aa857612aa8615219565b9050602002016020810190612abd9190614e8f565b6001600160a01b031603612ad45760019150612adc565b600101612a5e565b508015612ae95750612b1a565b612b18868684818110612afe57612afe615219565b9050602002016020810190612b139190614e8f565b6135e1565b505b600101612a53565b506006545f805b85811015612d75575f805b82811015612bb257888884818110612b4e57612b4e615219565b9050602002016020810190612b639190614e8f565b6001600160a01b0316898983818110612b7e57612b7e615219565b9050602002016020810190612b939190614e8f565b6001600160a01b031603612baa5760019150612bb2565b600101612b34565b508015612bbf5750612d6d565b5f601c5f8a8a86818110612bd557612bd5615219565b9050602002016020810190612bea9190614e8f565b6001600160a01b0316815260208101919091526040015f90812060018101548154919350612c1791615152565b9050805f03612c2857505050612d6d565b5f86612c34838a615270565b612c3e9190615287565b9050805f03612c505750505050612d6d565b81811115612c5b5750805b82600101548111612c845780836001015f828254612c79919061525d565b90915550612cbd9050565b5f836001015482612c95919061525d565b5f600186015584549091508110612cac575f612cb9565b8354612cb990829061525d565b8455505b612cc78187615152565b95508a8a86818110612cdb57612cdb615219565b9050602002016020810190612cf09190614e8f565b6001600160a01b03167ff073ee549cff52c89736798db7e065360a0f6079de0d91acabb22b8cd51005918460010154855f0154612d2d9190615152565b60408051918252602082018190526013908201527210905117d111509517d4d3d0d2505312569151606a1b606082015260800160405180910390a2505050505b600101612b29565b5082811115612d815750815b600c54811115612d905750600c545b80600c5411612d9f575f612dad565b80600c54612dad919061525d565b600c8190555080600e5f828254612dc49190615152565b90915550506006548111612dee578060065f828254612de3919061525d565b90915550612df39050565b5f6006555b600654604080518381526020810185905280820192909252517f6ebcf6a07af16be72fe3a5f107d584c67823dde428ab1287456612054509bee39181900360600190a17f50c9973df34192f257de65ae122c2f20240b469f9673f67e27975d1817157c7881600c54604051612e949291909182526020820152606060408201819052600a908201526914d3d0d250531256915160b21b608082015260a00190565b60405180910390a15050505061150f60015f8051602061540583398151915255565b5f612ec0816138d3565b600854821115612f055760405162461bcd60e51b815260206004820152601060248201526f455843454544535f524553455256455360801b6044820152606401610d4a565b6001600160a01b038316612f2b5760405162461bcd60e51b8152600401610d4a9061530e565b8160085f828254612f3c919061525d565b90915550506002546040516340c10f1960e01b81526001600160a01b03909116906340c10f1990612f739086908690600401615244565b5f604051808303815f87803b158015612f8a575f80fd5b505af1925050508015612f9b575060015b613030578160085f828254612fb09190615152565b90915550506040518281526001600160a01b038416907f6102aab6acabb35b6fb064b6231fa7bc272fce9155f6830295fd0ff6925557a39060200160405180910390a260405162461bcd60e51b815260206004820152601260248201527114d55414131657d0d05417d4915050d2115160721b6044820152606401610d4a565b826001600160a01b03167fc08dc172be702645aed16b77bdd6b526b8be4dab30d20b4caf5285fd59712fe98360405161306b91815260200190565b60405180910390a2505050565b5f8051602061542583398151915261308f816138d3565b6130976135aa565b61309f61397e565b5f82116130be5760405162461bcd60e51b8152600401610d4a906152a6565b6001600160a01b0383166131035760405162461bcd60e51b815260206004820152600c60248201526b24a72b20a624a22faaa9a2a960a11b6044820152606401610d4a565b61310c836135e1565b6001600160a01b0383165f908152601c6020526040812060018101548154919291859161313891615152565b6131429190615152565b9050601b548110156131875760405162461bcd60e51b815260206004820152600e60248201526d10915313d5d7d3525397d111509560921b6044820152606401610d4a565b83825f015f8282546131999190615152565b925050819055508360065f8282546131b19190615152565b909155505f90506131c186614248565b90505f6131cd876110e9565b9050808210156132195760405162461bcd60e51b8152602060048201526017602482015276455843454544535f424f52524f575f434150414349545960481b6044820152606401610d4a565b6002546040516340c10f1960e01b81526001600160a01b03909116906340c10f199061324b9033908a90600401615244565b5f604051808303815f87803b158015613262575f80fd5b505af1158015613274573d5f803e3d5ffd5b50505050866001600160a01b03167feae9cfbc77fdd40ca899f36b608256063b2bc9d8178b0220f7ad513e178d6730876114dd8a6110e9565b6132b56135aa565b5f6132bf816138d3565b5f82116132fc5760405162461bcd60e51b815260206004820152600b60248201526a16915493d7d05353d5539560aa1b6044820152606401610d4a565b5f600c541161333b5760405162461bcd60e51b815260206004820152600b60248201526a1393d7d0905117d111509560aa1b6044820152606401610d4a565b5f600c54831161334b578261334f565b600c545b6002546040516370a0823160e01b81523060048201529192505f916001600160a01b03909116906370a0823190602401602060405180830381865afa15801561339a573d5f803e3d5ffd5b505050506040513d601f19601f820116820180604052508101906133be919061522d565b9050818110156134105760405162461bcd60e51b815260206004820152601960248201527f494e53554646494349454e545f4d5553445f42414c414e4345000000000000006044820152606401610d4a565b600254604051632770a7eb60e21b81526001600160a01b0390911690639dc29fac906134429030908690600401615244565b5f604051808303815f87803b158015613459575f80fd5b505af115801561346b573d5f803e3d5ffd5b5050505081600c5f828254613480919061525d565b9250508190555081600e5f8282546134989190615152565b9091555050600c5460408051848152602081019290925260608282018190526011908301527050524f544f434f4c5f524553455256455360781b6080830152517f50c9973df34192f257de65ae122c2f20240b469f9673f67e27975d1817157c789181900360a00190a15050506110e660015f8051602061540583398151915255565b5f80516020615385833981519152613532816138d3565b6001600160a01b0382166135585760405162461bcd60e51b8152600401610d4a9061530e565b600580546001600160a01b038481166001600160a01b0319831681179093556040519116919082907f4ab5be82436d353e61ca18726e984e561f5c1cc7c6d38b29d2553c790434705a905f90a3505050565b5f805160206154058339815191528054600119016135db57604051633ee5aeb560e01b815260040160405180910390fd5b60029055565b6135e96144e4565b6001600160a01b0381165f908152601c60205260409020805415801561361157506001810154155b15613620574260029091015550565b5f816002015442613631919061525d565b9050805f0361363f57505050565b5f808360010154845f01546136549190615152565b90505f80600754116136685760065461366c565b6007545b90505f8111801561367c57505f82115b15613776576003546001600160a01b031615613740576003545f906001600160a01b031663724dfc9283806136af61380d565b6040516001600160e01b031960e086901b16815260048101939093526024830191909152604482015260648101889052608401602060405180830381865afa1580156136fd573d5f803e3d5ffd5b505050506040513d601f19601f82011682018060405250810190613721919061522d565b90508161372e8483615270565b6137389190615287565b935050613776565b6137506301e13380612710615270565b84601a548461375f9190615270565b6137699190615270565b6137739190615287565b92505b82856001015f8282546137899190615152565b909155505042600286015582156137f257856001600160a01b03167f4557e05caeefc19fe1b4badbbd2996f86791aa6e830e224dc79c20725c38b9c1848760010154885f01546137d99190615152565b6040805192835260208301919091520160405180910390a25b505050505050565b60015f8051602061540583398151915255565b6005545f906001600160a01b0316156138af5760055f9054906101000a90046001600160a01b03166001600160a01b031663d4c3eea06040518163ffffffff1660e01b8152600401602060405180830381865afa92505050801561388e575060408051601f3d908101601f1916820190925261388b9181019061522d565b60015b6138a057600654611c11906002615270565b611dd98164e8d4a51000615270565b5f600654116138c55750670de0b6b3a764000090565b600654611c11906002615270565b6110e68133614a71565b5f5f805160206153c58339815191526138f6848461262f565b613975575f848152602082815260408083206001600160a01b03871684529091529020805460ff1916600117905561392b3390565b6001600160a01b0316836001600160a01b0316857f2f8788117e7eff1d82e926ec794901d17c78024a50270940304540a733656f0d60405160405180910390a46001915050610cca565b5f915050610cca565b5f805160206153e58339815191525460ff16156139ae5760405163d93c066560e01b815260040160405180910390fd5b565b5f80546040805163d3c7c2c760e01b8152905183926001600160a01b03169163d3c7c2c791600480830192869291908290030181865afa1580156139f6573d5f803e3d5ffd5b505050506040513d5f823e601f3d908101601f19168201604052613a1d9190810190615165565b90505f805b8251811015613c4b575f805484516001600160a01b0390911690638f601f66908890879086908110613a5657613a56615219565b60200260200101516040518363ffffffff1660e01b8152600401613a909291906001600160a01b0392831681529116602082015260400190565b602060405180830381865afa158015613aab573d5f803e3d5ffd5b505050506040513d601f19601f82011682018060405250810190613acf919061522d565b9050805f03613ade5750613c43565b5f805485516001600160a01b039091169063e48a5f7b90879086908110613b0757613b07615219565b60200260200101516040518263ffffffff1660e01b8152600401613b3a91906001600160a01b0391909116815260200190565b608060405180830381865afa158015613b55573d5f803e3d5ffd5b505050506040513d601f19601f82011682018060405250810190613b7991906152ce565b5092505050805f03613b8c575050613c43565b60015485515f916001600160a01b03169063b7f8764490889087908110613bb557613bb5615219565b6020026020010151856040518363ffffffff1660e01b8152600401613bdb929190615244565b602060405180830381865afa158015613bf6573d5f803e3d5ffd5b505050506040513d601f19601f82011682018060405250810190613c1a919061522d565b9050612710613c298383615270565b613c339190615287565b613c3d9086615152565b94505050505b600101613a22565b509392505050565b5f5f805160206153c5833981519152613c6c848461262f565b15613975575f848152602082815260408083206001600160a01b0387168085529252808320805460ff1916905551339287917ff6391f5c32d9c69d2a47ea670b442974b53935d1edc7fd64eb21e047a839171b9190a46001915050610cca565b6003545f906001600160a01b031615613cff576003546006546001600160a01b0390911690633ca2462490611d4261380d565b50601a5490565b613d0e614a9c565b5f805160206153e5833981519152805460ff191681557f5db9ee0a495bf2e6ff9c91a7834c1ba4fdd244a5e8aa4e537bd38aeae4b073aa335b6040516001600160a01b03909116815260200160405180910390a150565b306001600160a01b037f0000000000000000000000000000000000000000000000000000000000000000161480613deb57507f00000000000000000000000000000000000000000000000000000000000000006001600160a01b0316613ddf5f805160206153a5833981519152546001600160a01b031690565b6001600160a01b031614155b156139ae5760405163703e46dd60e11b815260040160405180910390fd5b5f8051602061538583398151915261198e816138d3565b816001600160a01b03166352d1902d6040518163ffffffff1660e01b8152600401602060405180830381865afa925050508015613e7a575060408051601f3d908101601f19168201909252613e779181019061522d565b60015b613ea257604051634c9c8ce360e01b81526001600160a01b0383166004820152602401610d4a565b5f805160206153a58339815191528114613ed257604051632a87526960e21b815260048101829052602401610d4a565b61150f8383614acb565b306001600160a01b037f000000000000000000000000000000000000000000000000000000000000000016146139ae5760405163703e46dd60e11b815260040160405180910390fd5b5f807ff0c57e16840df040f15088dc2f81fe391c3923bec73e23a9662efc9c229c6a00610cca565b6139ae614b20565b613f5d614b20565b6139ae614b45565b613f6d61397e565b5f805160206153e5833981519152805460ff191660011781557f62e78cea01bee320cd4e420270b5ea74000d11b0c9f74754ebdbfc544b05a25833613d47565b5f80546040805163d3c7c2c760e01b8152905183926001600160a01b03169163d3c7c2c791600480830192869291908290030181865afa158015613ff3573d5f803e3d5ffd5b505050506040513d5f823e601f3d908101601f1916820160405261401a9190810190615165565b90505f805b8251811015613c4b575f805484516001600160a01b0390911690638f601f6690889087908690811061405357614053615219565b60200260200101516040518363ffffffff1660e01b815260040161408d9291906001600160a01b0392831681529116602082015260400190565b602060405180830381865afa1580156140a8573d5f803e3d5ffd5b505050506040513d601f19601f820116820180604052508101906140cc919061522d565b9050805f036140db5750614240565b5f805485516001600160a01b039091169063e48a5f7b9087908690811061410457614104615219565b60200260200101516040518263ffffffff1660e01b815260040161413791906001600160a01b0391909116815260200190565b608060405180830381865afa158015614152573d5f803e3d5ffd5b505050506040513d601f19601f8201168201806040525081019061417691906152ce565b5092505050805f03614189575050614240565b60015485515f916001600160a01b031690637206c22b908890879081106141b2576141b2615219565b6020026020010151856040518363ffffffff1660e01b81526004016141d8929190615244565b602060405180830381865afa1580156141f3573d5f803e3d5ffd5b505050506040513d601f19601f82011682018060405250810190614217919061522d565b90506127106142268383615270565b6142309190615287565b61423a9086615152565b94505050505b60010161401f565b5f80546040805163d3c7c2c760e01b8152905183926001600160a01b03169163d3c7c2c791600480830192869291908290030181865afa15801561428e573d5f803e3d5ffd5b505050506040513d5f823e601f3d908101601f191682016040526142b59190810190615165565b90505f805b8251811015613c4b575f805484516001600160a01b0390911690638f601f669088908790869081106142ee576142ee615219565b60200260200101516040518363ffffffff1660e01b81526004016143289291906001600160a01b0392831681529116602082015260400190565b602060405180830381865afa158015614343573d5f803e3d5ffd5b505050506040513d601f19601f82011682018060405250810190614367919061522d565b9050805f0361437657506144dc565b5f8054855182916001600160a01b03169063e48a5f7b9088908790811061439f5761439f615219565b60200260200101516040518263ffffffff1660e01b81526004016143d291906001600160a01b0391909116815260200190565b608060405180830381865afa1580156143ed573d5f803e3d5ffd5b505050506040513d601f19601f8201168201806040525081019061441191906152ce565b50509150915081614424575050506144dc565b60015486515f916001600160a01b03169063b7f876449089908890811061444d5761444d615219565b6020026020010151866040518363ffffffff1660e01b8152600401614473929190615244565b602060405180830381865afa15801561448e573d5f803e3d5ffd5b505050506040513d601f19601f820116820180604052508101906144b2919061522d565b90506127106144c18383615270565b6144cb9190615287565b6144d59087615152565b9550505050505b6001016142ba565b5f600954426144f3919061525d565b90508015806145025750600654155b1561450e575042600955565b5f61451761380d565b6003549091505f906001600160a01b0316156145b857600354600654604051633926fe4960e11b815260048101829052602481019190915260448101849052606481018590526001600160a01b039091169063724dfc9290608401602060405180830381865afa15801561458d573d5f803e3d5ffd5b505050506040513d601f19601f820116820180604052508101906145b1919061522d565b90506145f0565b6145c86301e13380612710615270565b83601a546006546145d99190615270565b6145e39190615270565b6145ed9190615287565b90505b5f600a6006546146009190615287565b90508082111561460e578091505b8115614a67576003545f9081906001600160a01b03161561469d57600354604051632354027960e21b8152600481018690526001600160a01b0390911690638d5009e4906024016040805180830381865afa15801561466f573d5f803e3d5ffd5b505050506040513d601f19601f820116820180604052508101906146939190615334565b90925090506146b7565b6146a8600a85615287565b90506146b4818561525d565b91505b8060085f8282546146c89190615152565b909155505081158015906146e657506004546001600160a01b031615155b15614950576002546040516340c10f1960e01b81526001600160a01b03909116906340c10f199061471d9030908690600401615244565b5f604051808303815f87803b158015614734575f80fd5b505af1925050508015614745575060015b6147ce573d808015614772576040519150601f19603f3d011682016040523d82523d5f602084013e614777565b606091505b5082600b5f8282546147899190615152565b90915550506040517fd95507bf24933d495dfb2eb73a1a47f54b9cb559cf4d3e994e5591ee5a0dae6a906147c09085908490615356565b60405180910390a150614950565b6004546002546147eb916001600160a01b03918216911684614b4d565b600480546040516323411fb560e11b81529182018490526001600160a01b0316906346823f6a906024015f604051808303815f87803b15801561482c575f80fd5b505af192505050801561483d575060015b614900573d80801561486a576040519150601f19603f3d011682016040523d82523d5f602084013e61486f565b606091505b50600254604051632770a7eb60e21b81526001600160a01b0390911690639dc29fac906148a29030908790600401615244565b5f604051808303815f87803b1580156148b9575f80fd5b505af11580156148cb573d5f803e3d5ffd5b505050507fd95507bf24933d495dfb2eb73a1a47f54b9cb559cf4d3e994e5591ee5a0dae6a83826040516147c0929190615356565b81600a5f8282546149119190615152565b909155505060408051838152602081018390527f499aa6b2e1c7b18ae34a860de7861e815b71a105cfd88f47a75787d41208a77a910160405180910390a15b6006546007819055508360065f82825461496a9190615152565b90915550506003545f906001600160a01b03166149a157856127106006546149929190615270565b61499c9190615287565b614a1c565b600354600654604051633b0b790360e21b81526001600160a01b039092169163ec2de40c916149dd918a90600401918252602082015260400190565b602060405180830381865afa1580156149f8573d5f803e3d5ffd5b505050506040513d601f19601f82011682018060405250810190614a1c919061522d565b60065460408051888152602081019290925281018290529091507f5b67ff468eb47826f682d445996375571ee237450b508822263621e0a54394579060600160405180910390a15050505b5050426009555050565b614a7b828261262f565b61198e57808260405163e2517d3f60e01b8152600401610d4a929190615244565b5f805160206153e58339815191525460ff166139ae57604051638dfc202b60e01b815260040160405180910390fd5b614ad482614c0f565b6040516001600160a01b038316907fbc7cd75a20ee27fd9adebab32041f755214dbc6bffa90cc0225b39da2e5c2d3b905f90a2805115614b185761150f8282614c72565b61198e614ce4565b614b28614d03565b6139ae57604051631afcd79f60e31b815260040160405180910390fd5b6137fa614b20565b5f836001600160a01b031663095ea7b38484604051602401614b70929190615244565b604051602081830303815290604052915060e01b6020820180516001600160e01b0383818316178352505050509050614ba98482614d1c565b61155057614c0584856001600160a01b031663095ea7b3865f604051602401614bd3929190615244565b604051602081830303815290604052915060e01b6020820180516001600160e01b038381831617835250505050614d61565b6115508482614d61565b806001600160a01b03163b5f03614c4457604051634c9c8ce360e01b81526001600160a01b0382166004820152602401610d4a565b5f805160206153a583398151915280546001600160a01b0319166001600160a01b0392909216919091179055565b60605f80846001600160a01b031684604051614c8e919061536e565b5f60405180830381855af49150503d805f8114614cc6576040519150601f19603f3d011682016040523d82523d5f602084013e614ccb565b606091505b5091509150614cdb858383614dcd565b95945050505050565b34156139ae5760405163b398979f60e01b815260040160405180910390fd5b5f614d0c613f25565b54600160401b900460ff16919050565b5f805f8060205f8651602088015f8a5af192503d91505f51905082801561124057508115614d4d5780600114611240565b50505050506001600160a01b03163b151590565b5f8060205f8451602086015f885af180614d80576040513d5f823e3d81fd5b50505f513d91508115614d97578060011415614da4565b6001600160a01b0384163b155b1561155057604051635274afe760e01b81526001600160a01b0385166004820152602401610d4a565b606082614de257614ddd82614e2c565b614e25565b8151158015614df957506001600160a01b0384163b155b15614e2257604051639996b31560e01b81526001600160a01b0385166004820152602401610d4a565b50805b9392505050565b805115614e3b57805160208201fd5b60405163d6bda27560e01b815260040160405180910390fd5b5f60208284031215614e64575f80fd5b81356001600160e01b031981168114614e25575f80fd5b6001600160a01b03811681146110e6575f80fd5b5f60208284031215614e9f575f80fd5b8135614e2581614e7b565b5f8060408385031215614ebb575f80fd5b8235614ec681614e7b565b946020939093013593505050565b5f60208284031215614ee4575f80fd5b5035919050565b5f8060408385031215614efc575f80fd5b823591506020830135614f0e81614e7b565b809150509250929050565b634e487b7160e01b5f52604160045260245ffd5b604051601f8201601f1916810167ffffffffffffffff81118282101715614f5657614f56614f19565b604052919050565b5f8060408385031215614f6f575f80fd5b8235614f7a81614e7b565b9150602083013567ffffffffffffffff811115614f95575f80fd5b8301601f81018513614fa5575f80fd5b803567ffffffffffffffff811115614fbf57614fbf614f19565b614fd2601f8201601f1916602001614f2d565b818152866020838501011115614fe6575f80fd5b816020840160208301375f602083830101528093505050509250929050565b5f805f805f805f60e0888a03121561501b575f80fd5b873561502681614e7b565b9650602088013561503681614e7b565b9550604088013561504681614e7b565b9450606088013593506080880135925060a088013561506481614e7b565b915060c088013561507481614e7b565b8091505092959891949750929550565b5f81518084528060208401602086015e5f602082860101526020601f19601f83011685010191505092915050565b602081525f614e256020830184615084565b5f805f604084860312156150d6575f80fd5b83359250602084013567ffffffffffffffff8111156150f3575f80fd5b8401601f81018613615103575f80fd5b803567ffffffffffffffff811115615119575f80fd5b8660208260051b840101111561512d575f80fd5b939660209190910195509293505050565b634e487b7160e01b5f52601160045260245ffd5b80820180821115610cca57610cca61513e565b5f60208284031215615175575f80fd5b815167ffffffffffffffff81111561518b575f80fd5b8201601f8101841361519b575f80fd5b805167ffffffffffffffff8111156151b5576151b5614f19565b8060051b6151c560208201614f2d565b918252602081840181019290810190878411156151e0575f80fd5b6020850194505b8385101561520e57845192506151fc83614e7b565b828252602094850194909101906151e7565b979650505050505050565b634e487b7160e01b5f52603260045260245ffd5b5f6020828403121561523d575f80fd5b5051919050565b6001600160a01b03929092168252602082015260400190565b81810381811115610cca57610cca61513e565b8082028115828204841417610cca57610cca61513e565b5f826152a157634e487b7160e01b5f52601260045260245ffd5b500490565b6020808252600e908201526d1253959053125117d05353d5539560921b604082015260600190565b5f805f80608085870312156152e1575f80fd5b845180151581146152f0575f80fd5b60208601516040870151606090970151919890975090945092505050565b6020808252600c908201526b5a45524f5f4144445245535360a01b604082015260600190565b5f8060408385031215615345575f80fd5b505080516020909101519092909150565b828152604060208201525f6123416040830184615084565b5f82518060208501845e5f92019182525091905056fef66846415d2bf9eabda9e84793ff9c0ea96d87f50fc41e66aa16469c6a442f05360894a13ba1a3210667c828492db98dca3e2076cc3735a920a3ca505d382bbc02dd7bc7dec4dceedda775e58dd541e08a116c6c53815c0bd028192f7b626800cd5ed15c6e187e77e9aee88184c21f4f2182ab5827cb3b7e07fbedcd63f033009b779b17422d0df92223018b32b4d1fa46e071723d6817e2486d003becc55f0062f9f791f044a997d2927869f031db85cde39144d6412d7269c2c98c5304326ba26469706673582212202fb91477dc7002a2728dc0e80fedeb7d837a9b32ba696161df7c61d76efd992564736f6c634300081a0033","linkReferences":{}},"methodIdentifiers":{"ADMIN_DELAY()":"92ffacac","BORROW_ADMIN_ROLE()":"6c22e863","DEFAULT_ADMIN_ROLE()":"a217fddf","LEVERAGE_VAULT_ROLE()":"3d34e3e4","LIQUIDATION_ROLE()":"ae0e0125","PAUSER_ROLE()":"e63ab1e9","TIMELOCK_ROLE()":"f288a2e2","UPGRADE_INTERFACE_VERSION()":"ad3cb1cc","badDebt()":"bbcac557","badDebtCovered()":"8594487c","borrow(uint256)":"c5ebeaec","borrowCapacity(address)":"b977fc88","borrowFor(address,uint256)":"e9a1183d","coverBadDebt(uint256)":"ecc6d9ff","cumulativeBadDebt()":"d9c9d337","drainUnroutedInterest()":"4a2190a5","getCurrentBorrowRate()":"3f0c4392","getCurrentSupplyRate()":"a874baf4","getRoleAdmin(bytes32)":"248a9ca3","getTotalSupply()":"c4e41b22","getUtilizationRate()":"4a417a53","grantRole(bytes32,address)":"2f2ff15d","hasRole(bytes32,address)":"91d14854","healthFactor(address)":"6ad9f9df","healthFactorUnsafe(address)":"88e94ef6","initialize(address,address,address,uint256,uint256,address,address)":"6213b727","interestRateBps()":"c84a208b","interestRateModel()":"f3fdb15a","lastGlobalAccrualTime()":"d194bdf7","maxBorrow(address)":"97a9d457","minDebt()":"f17336d7","musd()":"cab666d0","oracle()":"7dc0d1d0","pause()":"8456cb59","paused()":"5c975abb","pendingInterestRate()":"206abeac","pendingInterestRateModel()":"f99a9020","pendingInterestRateModelTime()":"dc8b3a35","pendingInterestRateSet()":"46bf9652","pendingInterestRateTime()":"08454803","pendingMinDebt()":"95fa4d90","pendingMinDebtTime()":"14f7db64","pendingSMUSD()":"dad70a10","pendingSMUSDTime()":"41d85573","pendingTreasury()":"2ed6b75d","pendingTreasuryTime()":"22006935","positions(address)":"55f57510","protocolReserves()":"d681a449","proxiableUUID()":"52d1902d","recordBadDebt(address)":"122b3c71","reduceDebt(address,uint256)":"807d3f1d","renounceRole(bytes32,address)":"36568abe","repay(uint256)":"371fd8e6","repayFor(address,uint256)":"23a27622","revokeRole(bytes32,address)":"d547741f","setInterestRate(uint256)":"5f84f302","setInterestRateModel(address)":"8bcd4016","setMinDebt(uint256)":"6234dc21","setSMUSD(address)":"a496b434","setTreasury(address)":"f0f44260","smusd()":"7be9b154","socializeBadDebt(uint256,address[])":"dade0205","supportsInterface(bytes4)":"01ffc9a7","totalBorrows()":"47bd3718","totalDebt(address)":"1ff517ff","totalInterestPaidToSuppliers()":"9b200ec7","treasury()":"61d027b3","unpause()":"3f4ba83a","unroutedInterest()":"bfe65f4d","upgradeToAndCall(address,bytes)":"4f1ef286","vault()":"fbfa77cf","withdrawCollateral(address,uint256)":"350c35e9","withdrawReserves(address,uint256)":"e478795d"},"id":64}