{"abi":[{"type":"constructor","inputs":[{"name":"_sy","type":"address","internalType":"address"},{"name":"_pt","type":"address","internalType":"address"},{"name":"_yt","type":"address","internalType":"address"},{"name":"_expiry","type":"uint256","internalType":"uint256"}],"stateMutability":"nonpayable"},{"type":"function","name":"_storage","inputs":[],"outputs":[{"name":"","type":"int128","internalType":"int128"},{"name":"","type":"int128","internalType":"int128"},{"name":"","type":"uint96","internalType":"uint96"},{"name":"","type":"uint16","internalType":"uint16"},{"name":"","type":"uint16","internalType":"uint16"},{"name":"","type":"uint16","internalType":"uint16"}],"stateMutability":"view"},{"type":"function","name":"expired","inputs":[],"outputs":[{"name":"","type":"bool","internalType":"bool"}],"stateMutability":"view"},{"type":"function","name":"expiry","inputs":[],"outputs":[{"name":"","type":"uint256","internalType":"uint256"}],"stateMutability":"view"},{"type":"function","name":"isExpired","inputs":[],"outputs":[{"name":"","type":"bool","internalType":"bool"}],"stateMutability":"view"},{"type":"function","name":"lastLnImpliedRate","inputs":[],"outputs":[{"name":"","type":"uint96","internalType":"uint96"}],"stateMutability":"view"},{"type":"function","name":"pt","inputs":[],"outputs":[{"name":"","type":"address","internalType":"address"}],"stateMutability":"view"},{"type":"function","name":"readTokens","inputs":[],"outputs":[{"name":"","type":"address","internalType":"address"},{"name":"","type":"address","internalType":"address"},{"name":"","type":"address","internalType":"address"}],"stateMutability":"view"},{"type":"function","name":"setExpired","inputs":[{"name":"_expired","type":"bool","internalType":"bool"}],"outputs":[],"stateMutability":"nonpayable"},{"type":"function","name":"setExpiry","inputs":[{"name":"_expiry","type":"uint256","internalType":"uint256"}],"outputs":[],"stateMutability":"nonpayable"},{"type":"function","name":"setStorage","inputs":[{"name":"_totalPt","type":"int128","internalType":"int128"},{"name":"_totalSy","type":"int128","internalType":"int128"},{"name":"_lastLnImpliedRate","type":"uint96","internalType":"uint96"}],"outputs":[],"stateMutability":"nonpayable"},{"type":"function","name":"sy","inputs":[],"outputs":[{"name":"","type":"address","internalType":"address"}],"stateMutability":"view"},{"type":"function","name":"totalPt","inputs":[],"outputs":[{"name":"","type":"int128","internalType":"int128"}],"stateMutability":"view"},{"type":"function","name":"totalSy","inputs":[],"outputs":[{"name":"","type":"int128","internalType":"int128"}],"stateMutability":"view"},{"type":"function","name":"yt","inputs":[],"outputs":[{"name":"","type":"address","internalType":"address"}],"stateMutability":"view"}],"bytecode":{"object":"0x608060405234801561000f575f80fd5b5060405161051f38038061051f83398101604081905261002e916100d1565b5f80546001600160a01b03199081166001600160a01b0396871617909155600180548216948616949094179093556002805490931691909316179055600355600480546001600160881b0319166b52b7d2dcc80cd2e400000000179055600580546001600160e01b0319167305f5e100000000000052b7d2dcc80cd2e4000000179055610119565b80516001600160a01b03811681146100cc575f80fd5b919050565b5f805f80608085870312156100e4575f80fd5b6100ed856100b6565b93506100fb602086016100b6565b9250610109604086016100b6565b6060959095015193969295505050565b6103f9806101265f395ff3fe608060405234801561000f575f80fd5b50600436106100e5575f3560e01c8063aeb7d9cc11610088578063c544057011610063578063c5440570146102bd578063c7bfb21e146102d0578063dc263022146102dd578063e184c9be146102f0575f80fd5b8063aeb7d9cc14610227578063b4b9106d14610248578063c3fb90d61461026d575f80fd5b80632f13b60c116100c35780632f13b60c1461015f57806343bf8ab3146101775780634c2067c7146101a95780636a39e882146101b6575f80fd5b806301cceb38146100e9578063181cc05b146100fe5780632c8ce6bc1461012d575b5f80fd5b6100fc6100f7366004610321565b600355565b005b5f54610110906001600160a01b031681565b6040516001600160a01b0390911681526020015b60405180910390f35b5f54600154600254604080516001600160a01b0394851681529284166020840152921691810191909152606001610124565b610167610307565b6040519015158152602001610124565b60055461019190600160801b90046001600160601b031681565b6040516001600160601b039091168152602001610124565b6004546101679060ff1681565b6100fc6101c436600461034e565b600480546fffffffffffffffffffffffffffffffff9485166101000270ffffffffffffffffffffffffffffffff0019909116179055600580546001600160601b03909216600160801b026001600160e01b03199092169290931691909117179055565b6100fc61023536600461039d565b6004805460ff1916911515919091179055565b60045461025a906101009004600f0b81565b604051600f9190910b8152602001610124565b60045460055460408051610100909304600f90810b845282900b6020840152600160801b9091046001600160601b0316908201525f606082018190526080820181905260a082015260c001610124565b600254610110906001600160a01b031681565b60055461025a90600f0b81565b600154610110906001600160a01b031681565b6102f960035481565b604051908152602001610124565b6004545f9060ff168061031c57506003544210155b905090565b5f60208284031215610331575f80fd5b5035919050565b8035600f81900b8114610349575f80fd5b919050565b5f805f60608486031215610360575f80fd5b61036984610338565b925061037760208501610338565b915060408401356001600160601b0381168114610392575f80fd5b809150509250925092565b5f602082840312156103ad575f80fd5b813580151581146103bc575f80fd5b939250505056fea26469706673582212204ad3e8c3725e6295d24c49eb465177152daaabbad8e3f7f272e0f35daa10b6f064736f6c634300081a0033","linkReferences":{}},"methodIdentifiers":{"_storage()":"c3fb90d6","expired()":"4c2067c7","expiry()":"e184c9be","isExpired()":"2f13b60c","lastLnImpliedRate()":"43bf8ab3","pt()":"dc263022","readTokens()":"2c8ce6bc","setExpired(bool)":"aeb7d9cc","setExpiry(uint256)":"01cceb38","setStorage(int128,int128,uint96)":"6a39e882","sy()":"181cc05b","totalPt()":"b4b9106d","totalSy()":"c7bfb21e","yt()":"c5440570"},"id":20}