{"abi":[{"type":"constructor","inputs":[{"name":"minDelay","type":"uint256","internalType":"uint256"},{"name":"proposers","type":"address[]","internalType":"address[]"},{"name":"executors","type":"address[]","internalType":"address[]"},{"name":"admin","type":"address","internalType":"address"}],"stateMutability":"nonpayable"},{"type":"receive","stateMutability":"payable"},{"type":"function","name":"CANCELLER_ROLE","inputs":[],"outputs":[{"name":"","type":"bytes32","internalType":"bytes32"}],"stateMutability":"view"},{"type":"function","name":"DEFAULT_ADMIN_ROLE","inputs":[],"outputs":[{"name":"","type":"bytes32","internalType":"bytes32"}],"stateMutability":"view"},{"type":"function","name":"EXECUTOR_ROLE","inputs":[],"outputs":[{"name":"","type":"bytes32","internalType":"bytes32"}],"stateMutability":"view"},{"type":"function","name":"MIN_CRITICAL_DELAY","inputs":[],"outputs":[{"name":"","type":"uint256","internalType":"uint256"}],"stateMutability":"view"},{"type":"function","name":"MIN_EMERGENCY_DELAY","inputs":[],"outputs":[{"name":"","type":"uint256","internalType":"uint256"}],"stateMutability":"view"},{"type":"function","name":"PROPOSER_ROLE","inputs":[],"outputs":[{"name":"","type":"bytes32","internalType":"bytes32"}],"stateMutability":"view"},{"type":"function","name":"cancel","inputs":[{"name":"id","type":"bytes32","internalType":"bytes32"}],"outputs":[],"stateMutability":"nonpayable"},{"type":"function","name":"execute","inputs":[{"name":"target","type":"address","internalType":"address"},{"name":"value","type":"uint256","internalType":"uint256"},{"name":"payload","type":"bytes","internalType":"bytes"},{"name":"predecessor","type":"bytes32","internalType":"bytes32"},{"name":"salt","type":"bytes32","internalType":"bytes32"}],"outputs":[],"stateMutability":"payable"},{"type":"function","name":"executeBatch","inputs":[{"name":"targets","type":"address[]","internalType":"address[]"},{"name":"values","type":"uint256[]","internalType":"uint256[]"},{"name":"payloads","type":"bytes[]","internalType":"bytes[]"},{"name":"predecessor","type":"bytes32","internalType":"bytes32"},{"name":"salt","type":"bytes32","internalType":"bytes32"}],"outputs":[],"stateMutability":"payable"},{"type":"function","name":"getMinDelay","inputs":[],"outputs":[{"name":"","type":"uint256","internalType":"uint256"}],"stateMutability":"view"},{"type":"function","name":"getOperationState","inputs":[{"name":"id","type":"bytes32","internalType":"bytes32"}],"outputs":[{"name":"","type":"uint8","internalType":"enum TimelockController.OperationState"}],"stateMutability":"view"},{"type":"function","name":"getRoleAdmin","inputs":[{"name":"role","type":"bytes32","internalType":"bytes32"}],"outputs":[{"name":"","type":"bytes32","internalType":"bytes32"}],"stateMutability":"view"},{"type":"function","name":"getTimestamp","inputs":[{"name":"id","type":"bytes32","internalType":"bytes32"}],"outputs":[{"name":"","type":"uint256","internalType":"uint256"}],"stateMutability":"view"},{"type":"function","name":"grantRole","inputs":[{"name":"role","type":"bytes32","internalType":"bytes32"},{"name":"account","type":"address","internalType":"address"}],"outputs":[],"stateMutability":"nonpayable"},{"type":"function","name":"hasRole","inputs":[{"name":"role","type":"bytes32","internalType":"bytes32"},{"name":"account","type":"address","internalType":"address"}],"outputs":[{"name":"","type":"bool","internalType":"bool"}],"stateMutability":"view"},{"type":"function","name":"hashOperation","inputs":[{"name":"target","type":"address","internalType":"address"},{"name":"value","type":"uint256","internalType":"uint256"},{"name":"data","type":"bytes","internalType":"bytes"},{"name":"predecessor","type":"bytes32","internalType":"bytes32"},{"name":"salt","type":"bytes32","internalType":"bytes32"}],"outputs":[{"name":"","type":"bytes32","internalType":"bytes32"}],"stateMutability":"pure"},{"type":"function","name":"hashOperationBatch","inputs":[{"name":"targets","type":"address[]","internalType":"address[]"},{"name":"values","type":"uint256[]","internalType":"uint256[]"},{"name":"payloads","type":"bytes[]","internalType":"bytes[]"},{"name":"predecessor","type":"bytes32","internalType":"bytes32"},{"name":"salt","type":"bytes32","internalType":"bytes32"}],"outputs":[{"name":"","type":"bytes32","internalType":"bytes32"}],"stateMutability":"pure"},{"type":"function","name":"isDone","inputs":[{"name":"id","type":"bytes32","internalType":"bytes32"}],"outputs":[{"name":"","type":"bool","internalType":"bool"}],"stateMutability":"view"},{"type":"function","name":"isOperation","inputs":[{"name":"id","type":"bytes32","internalType":"bytes32"}],"outputs":[{"name":"","type":"bool","internalType":"bool"}],"stateMutability":"view"},{"type":"function","name":"isOperationDone","inputs":[{"name":"id","type":"bytes32","internalType":"bytes32"}],"outputs":[{"name":"","type":"bool","internalType":"bool"}],"stateMutability":"view"},{"type":"function","name":"isOperationPending","inputs":[{"name":"id","type":"bytes32","internalType":"bytes32"}],"outputs":[{"name":"","type":"bool","internalType":"bool"}],"stateMutability":"view"},{"type":"function","name":"isOperationReady","inputs":[{"name":"id","type":"bytes32","internalType":"bytes32"}],"outputs":[{"name":"","type":"bool","internalType":"bool"}],"stateMutability":"view"},{"type":"function","name":"isPending","inputs":[{"name":"id","type":"bytes32","internalType":"bytes32"}],"outputs":[{"name":"","type":"bool","internalType":"bool"}],"stateMutability":"view"},{"type":"function","name":"isReady","inputs":[{"name":"id","type":"bytes32","internalType":"bytes32"}],"outputs":[{"name":"","type":"bool","internalType":"bool"}],"stateMutability":"view"},{"type":"function","name":"onERC1155BatchReceived","inputs":[{"name":"","type":"address","internalType":"address"},{"name":"","type":"address","internalType":"address"},{"name":"","type":"uint256[]","internalType":"uint256[]"},{"name":"","type":"uint256[]","internalType":"uint256[]"},{"name":"","type":"bytes","internalType":"bytes"}],"outputs":[{"name":"","type":"bytes4","internalType":"bytes4"}],"stateMutability":"nonpayable"},{"type":"function","name":"onERC1155Received","inputs":[{"name":"","type":"address","internalType":"address"},{"name":"","type":"address","internalType":"address"},{"name":"","type":"uint256","internalType":"uint256"},{"name":"","type":"uint256","internalType":"uint256"},{"name":"","type":"bytes","internalType":"bytes"}],"outputs":[{"name":"","type":"bytes4","internalType":"bytes4"}],"stateMutability":"nonpayable"},{"type":"function","name":"onERC721Received","inputs":[{"name":"","type":"address","internalType":"address"},{"name":"","type":"address","internalType":"address"},{"name":"","type":"uint256","internalType":"uint256"},{"name":"","type":"bytes","internalType":"bytes"}],"outputs":[{"name":"","type":"bytes4","internalType":"bytes4"}],"stateMutability":"nonpayable"},{"type":"function","name":"readyAt","inputs":[{"name":"id","type":"bytes32","internalType":"bytes32"}],"outputs":[{"name":"","type":"uint256","internalType":"uint256"}],"stateMutability":"view"},{"type":"function","name":"renounceRole","inputs":[{"name":"role","type":"bytes32","internalType":"bytes32"},{"name":"callerConfirmation","type":"address","internalType":"address"}],"outputs":[],"stateMutability":"nonpayable"},{"type":"function","name":"revokeRole","inputs":[{"name":"role","type":"bytes32","internalType":"bytes32"},{"name":"account","type":"address","internalType":"address"}],"outputs":[],"stateMutability":"nonpayable"},{"type":"function","name":"schedule","inputs":[{"name":"target","type":"address","internalType":"address"},{"name":"value","type":"uint256","internalType":"uint256"},{"name":"data","type":"bytes","internalType":"bytes"},{"name":"predecessor","type":"bytes32","internalType":"bytes32"},{"name":"salt","type":"bytes32","internalType":"bytes32"},{"name":"delay","type":"uint256","internalType":"uint256"}],"outputs":[],"stateMutability":"nonpayable"},{"type":"function","name":"scheduleBatch","inputs":[{"name":"targets","type":"address[]","internalType":"address[]"},{"name":"values","type":"uint256[]","internalType":"uint256[]"},{"name":"payloads","type":"bytes[]","internalType":"bytes[]"},{"name":"predecessor","type":"bytes32","internalType":"bytes32"},{"name":"salt","type":"bytes32","internalType":"bytes32"},{"name":"delay","type":"uint256","internalType":"uint256"}],"outputs":[],"stateMutability":"nonpayable"},{"type":"function","name":"supportsInterface","inputs":[{"name":"interfaceId","type":"bytes4","internalType":"bytes4"}],"outputs":[{"name":"","type":"bool","internalType":"bool"}],"stateMutability":"view"},{"type":"function","name":"updateDelay","inputs":[{"name":"newDelay","type":"uint256","internalType":"uint256"}],"outputs":[],"stateMutability":"nonpayable"},{"type":"event","name":"CallExecuted","inputs":[{"name":"id","type":"bytes32","indexed":true,"internalType":"bytes32"},{"name":"index","type":"uint256","indexed":true,"internalType":"uint256"},{"name":"target","type":"address","indexed":false,"internalType":"address"},{"name":"value","type":"uint256","indexed":false,"internalType":"uint256"},{"name":"data","type":"bytes","indexed":false,"internalType":"bytes"}],"anonymous":false},{"type":"event","name":"CallSalt","inputs":[{"name":"id","type":"bytes32","indexed":true,"internalType":"bytes32"},{"name":"salt","type":"bytes32","indexed":false,"internalType":"bytes32"}],"anonymous":false},{"type":"event","name":"CallScheduled","inputs":[{"name":"id","type":"bytes32","indexed":true,"internalType":"bytes32"},{"name":"index","type":"uint256","indexed":true,"internalType":"uint256"},{"name":"target","type":"address","indexed":false,"internalType":"address"},{"name":"value","type":"uint256","indexed":false,"internalType":"uint256"},{"name":"data","type":"bytes","indexed":false,"internalType":"bytes"},{"name":"predecessor","type":"bytes32","indexed":false,"internalType":"bytes32"},{"name":"delay","type":"uint256","indexed":false,"internalType":"uint256"}],"anonymous":false},{"type":"event","name":"Cancelled","inputs":[{"name":"id","type":"bytes32","indexed":true,"internalType":"bytes32"}],"anonymous":false},{"type":"event","name":"MinDelayChange","inputs":[{"name":"oldDuration","type":"uint256","indexed":false,"internalType":"uint256"},{"name":"newDuration","type":"uint256","indexed":false,"internalType":"uint256"}],"anonymous":false},{"type":"event","name":"RoleAdminChanged","inputs":[{"name":"role","type":"bytes32","indexed":true,"internalType":"bytes32"},{"name":"previousAdminRole","type":"bytes32","indexed":true,"internalType":"bytes32"},{"name":"newAdminRole","type":"bytes32","indexed":true,"internalType":"bytes32"}],"anonymous":false},{"type":"event","name":"RoleGranted","inputs":[{"name":"role","type":"bytes32","indexed":true,"internalType":"bytes32"},{"name":"account","type":"address","indexed":true,"internalType":"address"},{"name":"sender","type":"address","indexed":true,"internalType":"address"}],"anonymous":false},{"type":"event","name":"RoleRevoked","inputs":[{"name":"role","type":"bytes32","indexed":true,"internalType":"bytes32"},{"name":"account","type":"address","indexed":true,"internalType":"address"},{"name":"sender","type":"address","indexed":true,"internalType":"address"}],"anonymous":false},{"type":"error","name":"AccessControlBadConfirmation","inputs":[]},{"type":"error","name":"AccessControlUnauthorizedAccount","inputs":[{"name":"account","type":"address","internalType":"address"},{"name":"neededRole","type":"bytes32","internalType":"bytes32"}]},{"type":"error","name":"FailedCall","inputs":[]},{"type":"error","name":"TimelockInsufficientDelay","inputs":[{"name":"delay","type":"uint256","internalType":"uint256"},{"name":"minDelay","type":"uint256","internalType":"uint256"}]},{"type":"error","name":"TimelockInvalidOperationLength","inputs":[{"name":"targets","type":"uint256","internalType":"uint256"},{"name":"payloads","type":"uint256","internalType":"uint256"},{"name":"values","type":"uint256","internalType":"uint256"}]},{"type":"error","name":"TimelockUnauthorizedCaller","inputs":[{"name":"caller","type":"address","internalType":"address"}]},{"type":"error","name":"TimelockUnexecutedPredecessor","inputs":[{"name":"predecessorId","type":"bytes32","internalType":"bytes32"}]},{"type":"error","name":"TimelockUnexpectedOperationState","inputs":[{"name":"operationId","type":"bytes32","internalType":"bytes32"},{"name":"expectedStates","type":"bytes32","internalType":"bytes32"}]}],"bytecode":{"object":"0x608060405234801561000f575f80fd5b50604051611e97380380611e9783398101604081905261002e91610347565b8383838361003c5f306101cc565b506001600160a01b03811615610058576100565f826101cc565b505b5f5b83518110156100ec576100ac7fb09aa5aeb3702cfd50b6b62bc4532604938f21248a27a1d5ca736082b6819cc1858381518110610099576100996103c6565b60200260200101516101cc60201b60201c565b506100e37ffd643c72710c63c0180259aba6b2d05451e3591a24e58b62239378085726f783858381518110610099576100996103c6565b5060010161005a565b505f5b82518110156101375761012e7fd8aa0f3194971a2a116679f7c2090f6939c8d4e01a2a8d7e41d55e5351469e63848381518110610099576100996103c6565b506001016100ef565b506002849055604080515f8152602081018690527f11c24f4ead16507c69ac467fbd5e4eed5fb5c699626d2cc6d66421df253886d5910160405180910390a150505050620151808410156101c35760405162461bcd60e51b815260206004820152600f60248201526e111153105657d513d3d7d4d213d495608a1b604482015260640160405180910390fd5b505050506103da565b5f828152602081815260408083206001600160a01b038516845290915281205460ff1661026c575f838152602081815260408083206001600160a01b03861684529091529020805460ff191660011790556102243390565b6001600160a01b0316826001600160a01b0316847f2f8788117e7eff1d82e926ec794901d17c78024a50270940304540a733656f0d60405160405180910390a450600161026f565b505f5b92915050565b634e487b7160e01b5f52604160045260245ffd5b80516001600160a01b038116811461029f575f80fd5b919050565b5f82601f8301126102b3575f80fd5b81516001600160401b038111156102cc576102cc610275565b604051600582901b90603f8201601f191681016001600160401b03811182821017156102fa576102fa610275565b604052918252602081850181019290810186841115610317575f80fd5b6020860192505b8383101561033d5761032f83610289565b81526020928301920161031e565b5095945050505050565b5f805f806080858703121561035a575f80fd5b845160208601519094506001600160401b03811115610377575f80fd5b610383878288016102a4565b604087015190945090506001600160401b038111156103a0575f80fd5b6103ac878288016102a4565b9250506103bb60608601610289565b905092959194509250565b634e487b7160e01b5f52603260045260245ffd5b611ab0806103e75f395ff3fe6080604052600436106101f4575f3560e01c8063823aba8a11610108578063bea208011161009d578063d547741f1161006d578063d547741f14610611578063e38335e514610630578063e531d8c714610643578063f23a6e6114610662578063f27a0c921461068d575f80fd5b8063bea2080114610589578063c4d252f5146105a8578063d437df8a146105c7578063d45c4435146105e6575f80fd5b8063a217fddf116100d8578063a217fddf146104f9578063b08e51c01461050c578063b1c5f4271461053f578063bc197c811461055e575f80fd5b8063823aba8a146104725780638f2a0bb0146104885780638f61f4f5146104a757806391d14854146104da575f80fd5b80632f2ff15d1161018957806364d623531161015957806364d62353146103d357806364f9ad36146103f2578063762bee0b146104115780637958004c146104275780638065657f14610453575f80fd5b80632f2ff15d1461035757806331d507501461037657806336568abe14610395578063584b153e146103b4575f80fd5b806313bc9f20116101c457806313bc9f20146102a8578063150b7a02146102c7578063248a9ca31461030a5780632ab0f52914610338575f80fd5b806301d5062a146101ff57806301ffc9a71461022057806307bd026514610254578063134008d314610295575f80fd5b366101fb57005b5f80fd5b34801561020a575f80fd5b5061021e61021936600461127d565b6106a1565b005b34801561022b575f80fd5b5061023f61023a3660046112eb565b610775565b60405190151581526020015b60405180910390f35b34801561025f575f80fd5b506102877fd8aa0f3194971a2a116679f7c2090f6939c8d4e01a2a8d7e41d55e5351469e6381565b60405190815260200161024b565b61021e6102a3366004611312565b610785565b3480156102b3575f80fd5b5061023f6102c2366004611378565b610837565b3480156102d2575f80fd5b506102f16102e136600461143e565b630a85bd0160e11b949350505050565b6040516001600160e01b0319909116815260200161024b565b348015610315575f80fd5b50610287610324366004611378565b5f9081526020819052604090206001015490565b348015610343575f80fd5b5061023f610352366004611378565b61085c565b348015610362575f80fd5b5061021e6103713660046114a1565b610864565b348015610381575f80fd5b5061023f610390366004611378565b61088e565b3480156103a0575f80fd5b5061021e6103af3660046114a1565b6108b2565b3480156103bf575f80fd5b5061023f6103ce366004611378565b6108ea565b3480156103de575f80fd5b5061021e6103ed366004611378565b61092f565b3480156103fd575f80fd5b5061023f61040c366004611378565b6109a2565b34801561041c575f80fd5b506102876201518081565b348015610432575f80fd5b50610446610441366004611378565b6109ac565b60405161024b91906114df565b34801561045e575f80fd5b5061028761046d366004611312565b6109f4565b34801561047d575f80fd5b506102876202a30081565b348015610493575f80fd5b5061021e6104a2366004611545565b610a32565b3480156104b2575f80fd5b506102877fb09aa5aeb3702cfd50b6b62bc4532604938f21248a27a1d5ca736082b6819cc181565b3480156104e5575f80fd5b5061023f6104f43660046114a1565b610bbe565b348015610504575f80fd5b506102875f81565b348015610517575f80fd5b506102877ffd643c72710c63c0180259aba6b2d05451e3591a24e58b62239378085726f78381565b34801561054a575f80fd5b506102876105593660046115f7565b610be6565b348015610569575f80fd5b506102f1610578366004611720565b63bc197c8160e01b95945050505050565b348015610594575f80fd5b506102876105a3366004611378565b610c2a565b3480156105b3575f80fd5b5061021e6105c2366004611378565b610c3d565b3480156105d2575f80fd5b5061023f6105e1366004611378565b610ce7565b3480156105f1575f80fd5b50610287610600366004611378565b5f9081526001602052604090205490565b34801561061c575f80fd5b5061021e61062b3660046114a1565b610cf1565b61021e61063e3660046115f7565b610d15565b34801561064e575f80fd5b5061023f61065d366004611378565b610e96565b34801561066d575f80fd5b506102f161067c3660046117cc565b63f23a6e6160e01b95945050505050565b348015610698575f80fd5b50600254610287565b7fb09aa5aeb3702cfd50b6b62bc4532604938f21248a27a1d5ca736082b6819cc16106cb81610ea0565b5f6106da8989898989896109f4565b90506106e68184610ead565b5f817f4cf4410cc57040e44862ef0f45f3dd5a5e02db8eb8add648d4b0e236f1d07dca8b8b8b8b8b8a60405161072196959493929190611847565b60405180910390a3831561076a57807f20fda5fd27a1ea7bf5b9567f143ac5470bb059374a27e8f67cb44f946f6d03878560405161076191815260200190565b60405180910390a25b505050505050505050565b5f61077f82610f3e565b92915050565b7fd8aa0f3194971a2a116679f7c2090f6939c8d4e01a2a8d7e41d55e5351469e636107b0815f610bbe565b6107be576107be8133610f62565b5f6107cd8888888888886109f4565b90506107d98185610f9f565b6107e588888888610fed565b5f817fc2617efa69bab66782fa219543714338489c4e9e178271560a91b82c3f612b588a8a8a8a60405161081c9493929190611883565b60405180910390a361082d81611061565b5050505050505050565b5f60025b610844836109ac565b6003811115610855576108556114cb565b1492915050565b5f600361083b565b5f8281526020819052604090206001015461087e81610ea0565b610888838361108c565b50505050565b5f80610899836109ac565b60038111156108aa576108aa6114cb565b141592915050565b6001600160a01b03811633146108db5760405163334bd91960e11b815260040160405180910390fd5b6108e5828261111b565b505050565b5f806108f5836109ac565b9050600181600381111561090b5761090b6114cb565b148061092857506002816003811115610926576109266114cb565b145b9392505050565b333081146109605760405163e2850c5960e01b81526001600160a01b03821660048201526024015b60405180910390fd5b60025460408051918252602082018490527f11c24f4ead16507c69ac467fbd5e4eed5fb5c699626d2cc6d66421df253886d5910160405180910390a150600255565b5f61077f82610837565b5f81815260016020526040812054805f036109c957505f92915050565b600181036109da5750600392915050565b428111156109eb5750600192915050565b50600292915050565b5f868686868686604051602001610a1096959493929190611847565b6040516020818303038152906040528051906020012090509695505050505050565b7fb09aa5aeb3702cfd50b6b62bc4532604938f21248a27a1d5ca736082b6819cc1610a5c81610ea0565b8887141580610a6b5750888514155b15610a9d576040516001624fcdef60e01b03198152600481018a90526024810186905260448101889052606401610957565b5f610aae8b8b8b8b8b8b8b8b610be6565b9050610aba8184610ead565b5f5b8a811015610b6f5780827f4cf4410cc57040e44862ef0f45f3dd5a5e02db8eb8add648d4b0e236f1d07dca8e8e85818110610af957610af96118aa565b9050602002016020810190610b0e91906118be565b8d8d86818110610b2057610b206118aa565b905060200201358c8c87818110610b3957610b396118aa565b9050602002810190610b4b91906118d7565b8c8b604051610b5f96959493929190611847565b60405180910390a3600101610abc565b508315610bb157807f20fda5fd27a1ea7bf5b9567f143ac5470bb059374a27e8f67cb44f946f6d038785604051610ba891815260200190565b60405180910390a25b5050505050505050505050565b5f918252602082815260408084206001600160a01b0393909316845291905290205460ff1690565b5f8888888888888888604051602001610c069897969594939291906119ad565b60405160208183030381529060405280519060200120905098975050505050505050565b5f8181526001602052604081205461077f565b7ffd643c72710c63c0180259aba6b2d05451e3591a24e58b62239378085726f783610c6781610ea0565b610c70826108ea565b610cac5781610c7f6002611184565b610c896001611184565b604051635ead8eb560e01b81526004810193909352176024820152604401610957565b5f828152600160205260408082208290555183917fbaa1eb22f2a492ba1a5fea61b8df4d27c6c8b5f3971e63bb58fa14ff72eedb7091a25050565b5f61077f8261085c565b5f82815260208190526040902060010154610d0b81610ea0565b610888838361111b565b7fd8aa0f3194971a2a116679f7c2090f6939c8d4e01a2a8d7e41d55e5351469e63610d40815f610bbe565b610d4e57610d4e8133610f62565b8786141580610d5d5750878414155b15610d8f576040516001624fcdef60e01b03198152600481018990526024810185905260448101879052606401610957565b5f610da08a8a8a8a8a8a8a8a610be6565b9050610dac8185610f9f565b5f5b89811015610e80575f8b8b83818110610dc957610dc96118aa565b9050602002016020810190610dde91906118be565b90505f8a8a84818110610df357610df36118aa565b905060200201359050365f8a8a86818110610e1057610e106118aa565b9050602002810190610e2291906118d7565b91509150610e3284848484610fed565b84867fc2617efa69bab66782fa219543714338489c4e9e178271560a91b82c3f612b5886868686604051610e699493929190611883565b60405180910390a350505050806001019050610dae565b50610e8a81611061565b50505050505050505050565b5f61077f826108ea565b610eaa8133610f62565b50565b610eb68261088e565b15610ee75781610ec55f611184565b604051635ead8eb560e01b815260048101929092526024820152604401610957565b5f610ef160025490565b905080821015610f1e57604051635433660960e01b81526004810183905260248101829052604401610957565b610f288242611a4c565b5f93845260016020526040909320929092555050565b5f6001600160e01b03198216630271189760e51b148061077f575061077f826111a6565b610f6c8282610bbe565b610f9b5760405163e2517d3f60e01b81526001600160a01b038216600482015260248101839052604401610957565b5050565b610fa882610837565b610fb75781610ec56002611184565b8015801590610fcc5750610fca8161085c565b155b15610f9b5760405163121534c360e31b815260048101829052602401610957565b5f80856001600160a01b031685858560405161100a929190611a6b565b5f6040518083038185875af1925050503d805f8114611044576040519150601f19603f3d011682016040523d82523d5f602084013e611049565b606091505b509150915061105882826111da565b50505050505050565b61106a81610837565b6110795780610ec56002611184565b5f90815260016020819052604090912055565b5f6110978383610bbe565b611114575f838152602081815260408083206001600160a01b03861684529091529020805460ff191660011790556110cc3390565b6001600160a01b0316826001600160a01b0316847f2f8788117e7eff1d82e926ec794901d17c78024a50270940304540a733656f0d60405160405180910390a450600161077f565b505f61077f565b5f6111268383610bbe565b15611114575f838152602081815260408083206001600160a01b0386168085529252808320805460ff1916905551339286917ff6391f5c32d9c69d2a47ea670b442974b53935d1edc7fd64eb21e047a839171b9190a450600161077f565b5f816003811115611197576111976114cb565b600160ff919091161b92915050565b5f6001600160e01b03198216637965db0b60e01b148061077f57506301ffc9a760e01b6001600160e01b031983161461077f565b6060826111ef576111ea826111f6565b61077f565b508061077f565b80511561120557805160208201fd5b60405163d6bda27560e01b815260040160405180910390fd5b80356001600160a01b0381168114611234575f80fd5b919050565b5f8083601f840112611249575f80fd5b5081356001600160401b0381111561125f575f80fd5b602083019150836020828501011115611276575f80fd5b9250929050565b5f805f805f805f60c0888a031215611293575f80fd5b61129c8861121e565b96506020880135955060408801356001600160401b038111156112bd575f80fd5b6112c98a828b01611239565b989b979a50986060810135976080820135975060a09091013595509350505050565b5f602082840312156112fb575f80fd5b81356001600160e01b031981168114610928575f80fd5b5f805f805f8060a08789031215611327575f80fd5b6113308761121e565b95506020870135945060408701356001600160401b03811115611351575f80fd5b61135d89828a01611239565b979a9699509760608101359660809091013595509350505050565b5f60208284031215611388575f80fd5b5035919050565b634e487b7160e01b5f52604160045260245ffd5b604051601f8201601f191681016001600160401b03811182821017156113cb576113cb61138f565b604052919050565b5f82601f8301126113e2575f80fd5b81356001600160401b038111156113fb576113fb61138f565b61140e601f8201601f19166020016113a3565b818152846020838601011115611422575f80fd5b816020850160208301375f918101602001919091529392505050565b5f805f8060808587031215611451575f80fd5b61145a8561121e565b93506114686020860161121e565b92506040850135915060608501356001600160401b03811115611489575f80fd5b611495878288016113d3565b91505092959194509250565b5f80604083850312156114b2575f80fd5b823591506114c26020840161121e565b90509250929050565b634e487b7160e01b5f52602160045260245ffd5b60208101600483106114ff57634e487b7160e01b5f52602160045260245ffd5b91905290565b5f8083601f840112611515575f80fd5b5081356001600160401b0381111561152b575f80fd5b6020830191508360208260051b8501011115611276575f80fd5b5f805f805f805f805f60c08a8c03121561155d575f80fd5b89356001600160401b03811115611572575f80fd5b61157e8c828d01611505565b909a5098505060208a01356001600160401b0381111561159c575f80fd5b6115a88c828d01611505565b90985096505060408a01356001600160401b038111156115c6575f80fd5b6115d28c828d01611505565b9a9d999c50979a969997986060880135976080810135975060a0013595509350505050565b5f805f805f805f8060a0898b03121561160e575f80fd5b88356001600160401b03811115611623575f80fd5b61162f8b828c01611505565b90995097505060208901356001600160401b0381111561164d575f80fd5b6116598b828c01611505565b90975095505060408901356001600160401b03811115611677575f80fd5b6116838b828c01611505565b999c989b509699959896976060870135966080013595509350505050565b5f82601f8301126116b0575f80fd5b81356001600160401b038111156116c9576116c961138f565b8060051b6116d9602082016113a3565b918252602081850181019290810190868411156116f4575f80fd5b6020860192505b838310156117165782358252602092830192909101906116fb565b9695505050505050565b5f805f805f60a08688031215611734575f80fd5b61173d8661121e565b945061174b6020870161121e565b935060408601356001600160401b03811115611765575f80fd5b611771888289016116a1565b93505060608601356001600160401b0381111561178c575f80fd5b611798888289016116a1565b92505060808601356001600160401b038111156117b3575f80fd5b6117bf888289016113d3565b9150509295509295909350565b5f805f805f60a086880312156117e0575f80fd5b6117e98661121e565b94506117f76020870161121e565b9350604086013592506060860135915060808601356001600160401b038111156117b3575f80fd5b81835281816020850137505f828201602090810191909152601f909101601f19169091010190565b60018060a01b038716815285602082015260a060408201525f61186e60a08301868861181f565b60608301949094525060800152949350505050565b60018060a01b0385168152836020820152606060408201525f61171660608301848661181f565b634e487b7160e01b5f52603260045260245ffd5b5f602082840312156118ce575f80fd5b6109288261121e565b5f808335601e198436030181126118ec575f80fd5b8301803591506001600160401b03821115611905575f80fd5b602001915036819003821315611276575f80fd5b5f8383855260208501945060208460051b820101835f5b868110156119a157838303601f19018852813536879003601e19018112611955575f80fd5b86016020810190356001600160401b03811115611970575f80fd5b80360382131561197e575f80fd5b61198985828461181f565b60209a8b019a90955093909301925050600101611930565b50909695505050505050565b60a080825281018890525f8960c08301825b8b8110156119ed576001600160a01b036119d88461121e565b168252602092830192909101906001016119bf565b5083810360208501528881526001600160fb1b03891115611a0c575f80fd5b8860051b9150818a60208301370182810360209081016040850152611a349082018789611919565b60608401959095525050608001529695505050505050565b8082018082111561077f57634e487b7160e01b5f52601160045260245ffd5b818382375f910190815291905056fea2646970667358221220894db7fb6e62de63d9c22cd655fc86442cf5adfda9c74001b2b03329a1d0ab5764736f6c634300081a0033","linkReferences":{}},"methodIdentifiers":{"CANCELLER_ROLE()":"b08e51c0","DEFAULT_ADMIN_ROLE()":"a217fddf","EXECUTOR_ROLE()":"07bd0265","MIN_CRITICAL_DELAY()":"823aba8a","MIN_EMERGENCY_DELAY()":"762bee0b","PROPOSER_ROLE()":"8f61f4f5","cancel(bytes32)":"c4d252f5","execute(address,uint256,bytes,bytes32,bytes32)":"134008d3","executeBatch(address[],uint256[],bytes[],bytes32,bytes32)":"e38335e5","getMinDelay()":"f27a0c92","getOperationState(bytes32)":"7958004c","getRoleAdmin(bytes32)":"248a9ca3","getTimestamp(bytes32)":"d45c4435","grantRole(bytes32,address)":"2f2ff15d","hasRole(bytes32,address)":"91d14854","hashOperation(address,uint256,bytes,bytes32,bytes32)":"8065657f","hashOperationBatch(address[],uint256[],bytes[],bytes32,bytes32)":"b1c5f427","isDone(bytes32)":"d437df8a","isOperation(bytes32)":"31d50750","isOperationDone(bytes32)":"2ab0f529","isOperationPending(bytes32)":"584b153e","isOperationReady(bytes32)":"13bc9f20","isPending(bytes32)":"e531d8c7","isReady(bytes32)":"64f9ad36","onERC1155BatchReceived(address,address,uint256[],uint256[],bytes)":"bc197c81","onERC1155Received(address,address,uint256,uint256,bytes)":"f23a6e61","onERC721Received(address,address,uint256,bytes)":"150b7a02","readyAt(bytes32)":"bea20801","renounceRole(bytes32,address)":"36568abe","revokeRole(bytes32,address)":"d547741f","schedule(address,uint256,bytes,bytes32,bytes32,uint256)":"01d5062a","scheduleBatch(address[],uint256[],bytes[],bytes32,bytes32,uint256)":"8f2a0bb0","supportsInterface(bytes4)":"01ffc9a7","updateDelay(uint256)":"64d62353"},"id":8}