{"abi":[{"type":"constructor","inputs":[{"name":"_swapRouter","type":"address","internalType":"address"},{"name":"_collateralVault","type":"address","internalType":"address"},{"name":"_borrowModule","type":"address","internalType":"address"},{"name":"_priceOracle","type":"address","internalType":"address"},{"name":"_musd","type":"address","internalType":"address"}],"stateMutability":"nonpayable"},{"type":"function","name":"DEFAULT_ADMIN_ROLE","inputs":[],"outputs":[{"name":"","type":"bytes32","internalType":"bytes32"}],"stateMutability":"view"},{"type":"function","name":"EMERGENCY_WITHDRAW_DELAY","inputs":[],"outputs":[{"name":"","type":"uint256","internalType":"uint256"}],"stateMutability":"view"},{"type":"function","name":"LEVERAGE_ADMIN_ROLE","inputs":[],"outputs":[{"name":"","type":"bytes32","internalType":"bytes32"}],"stateMutability":"view"},{"type":"function","name":"PAUSER_ROLE","inputs":[],"outputs":[{"name":"","type":"bytes32","internalType":"bytes32"}],"stateMutability":"view"},{"type":"function","name":"borrowModule","inputs":[],"outputs":[{"name":"","type":"address","internalType":"contract IBorrowModule"}],"stateMutability":"view"},{"type":"function","name":"cancelEmergencyWithdraw","inputs":[],"outputs":[],"stateMutability":"nonpayable"},{"type":"function","name":"closeLeveragedPosition","inputs":[{"name":"minCollateralOut","type":"uint256","internalType":"uint256"},{"name":"userMaxSlippageBps","type":"uint256","internalType":"uint256"},{"name":"swapDeadline","type":"uint256","internalType":"uint256"}],"outputs":[{"name":"collateralReturned","type":"uint256","internalType":"uint256"}],"stateMutability":"nonpayable"},{"type":"function","name":"closeLeveragedPositionWithMusd","inputs":[{"name":"musdAmount","type":"uint256","internalType":"uint256"}],"outputs":[{"name":"collateralReturned","type":"uint256","internalType":"uint256"}],"stateMutability":"nonpayable"},{"type":"function","name":"collateralVault","inputs":[],"outputs":[{"name":"","type":"address","internalType":"contract ICollateralVault"}],"stateMutability":"view"},{"type":"function","name":"defaultPoolFee","inputs":[],"outputs":[{"name":"","type":"uint24","internalType":"uint24"}],"stateMutability":"view"},{"type":"function","name":"disableToken","inputs":[{"name":"token","type":"address","internalType":"address"}],"outputs":[],"stateMutability":"nonpayable"},{"type":"function","name":"emergencyClosePosition","inputs":[{"name":"user","type":"address","internalType":"address"},{"name":"emergencySlippageBps","type":"uint256","internalType":"uint256"}],"outputs":[],"stateMutability":"nonpayable"},{"type":"function","name":"enableToken","inputs":[{"name":"token","type":"address","internalType":"address"},{"name":"poolFee","type":"uint24","internalType":"uint24"}],"outputs":[],"stateMutability":"nonpayable"},{"type":"function","name":"estimateLoops","inputs":[{"name":"collateralToken","type":"address","internalType":"address"},{"name":"initialAmount","type":"uint256","internalType":"uint256"},{"name":"targetLeverageX10","type":"uint256","internalType":"uint256"}],"outputs":[{"name":"estimatedLoops","type":"uint256","internalType":"uint256"},{"name":"estimatedDebt","type":"uint256","internalType":"uint256"}],"stateMutability":"view"},{"type":"function","name":"executeEmergencyWithdraw","inputs":[],"outputs":[],"stateMutability":"nonpayable"},{"type":"function","name":"getEffectiveLeverage","inputs":[{"name":"user","type":"address","internalType":"address"}],"outputs":[{"name":"leverageX10","type":"uint256","internalType":"uint256"}],"stateMutability":"view"},{"type":"function","name":"getMusdNeededToClose","inputs":[{"name":"user","type":"address","internalType":"address"}],"outputs":[{"name":"musdNeeded","type":"uint256","internalType":"uint256"}],"stateMutability":"view"},{"type":"function","name":"getPosition","inputs":[{"name":"user","type":"address","internalType":"address"}],"outputs":[{"name":"","type":"tuple","internalType":"struct LeverageVault.LeveragePosition","components":[{"name":"collateralToken","type":"address","internalType":"address"},{"name":"initialDeposit","type":"uint256","internalType":"uint256"},{"name":"totalCollateral","type":"uint256","internalType":"uint256"},{"name":"totalDebt","type":"uint256","internalType":"uint256"},{"name":"loopsExecuted","type":"uint256","internalType":"uint256"},{"name":"targetLeverageX10","type":"uint256","internalType":"uint256"},{"name":"openedAt","type":"uint256","internalType":"uint256"}]}],"stateMutability":"view"},{"type":"function","name":"getRoleAdmin","inputs":[{"name":"role","type":"bytes32","internalType":"bytes32"}],"outputs":[{"name":"","type":"bytes32","internalType":"bytes32"}],"stateMutability":"view"},{"type":"function","name":"grantRole","inputs":[{"name":"role","type":"bytes32","internalType":"bytes32"},{"name":"account","type":"address","internalType":"address"}],"outputs":[],"stateMutability":"nonpayable"},{"type":"function","name":"hasRole","inputs":[{"name":"role","type":"bytes32","internalType":"bytes32"},{"name":"account","type":"address","internalType":"address"}],"outputs":[{"name":"","type":"bool","internalType":"bool"}],"stateMutability":"view"},{"type":"function","name":"leverageEnabled","inputs":[{"name":"","type":"address","internalType":"address"}],"outputs":[{"name":"","type":"bool","internalType":"bool"}],"stateMutability":"view"},{"type":"function","name":"maxLeverageX10","inputs":[],"outputs":[{"name":"","type":"uint256","internalType":"uint256"}],"stateMutability":"view"},{"type":"function","name":"maxLoops","inputs":[],"outputs":[{"name":"","type":"uint256","internalType":"uint256"}],"stateMutability":"view"},{"type":"function","name":"maxSlippageBps","inputs":[],"outputs":[{"name":"","type":"uint256","internalType":"uint256"}],"stateMutability":"view"},{"type":"function","name":"minBorrowPerLoop","inputs":[],"outputs":[{"name":"","type":"uint256","internalType":"uint256"}],"stateMutability":"view"},{"type":"function","name":"musd","inputs":[],"outputs":[{"name":"","type":"address","internalType":"contract IERC20"}],"stateMutability":"view"},{"type":"function","name":"openLeveragedPosition","inputs":[{"name":"collateralToken","type":"address","internalType":"address"},{"name":"initialAmount","type":"uint256","internalType":"uint256"},{"name":"targetLeverageX10","type":"uint256","internalType":"uint256"},{"name":"maxLoopsOverride","type":"uint256","internalType":"uint256"},{"name":"userMaxSlippageBps","type":"uint256","internalType":"uint256"},{"name":"swapDeadline","type":"uint256","internalType":"uint256"}],"outputs":[{"name":"totalCollateral","type":"uint256","internalType":"uint256"},{"name":"totalDebt","type":"uint256","internalType":"uint256"},{"name":"loopsExecuted","type":"uint256","internalType":"uint256"}],"stateMutability":"nonpayable"},{"type":"function","name":"pause","inputs":[],"outputs":[],"stateMutability":"nonpayable"},{"type":"function","name":"paused","inputs":[],"outputs":[{"name":"","type":"bool","internalType":"bool"}],"stateMutability":"view"},{"type":"function","name":"pendingEmergencyWithdraw","inputs":[],"outputs":[{"name":"token","type":"address","internalType":"address"},{"name":"amount","type":"uint256","internalType":"uint256"},{"name":"recipient","type":"address","internalType":"address"},{"name":"requestTime","type":"uint256","internalType":"uint256"}],"stateMutability":"view"},{"type":"function","name":"positions","inputs":[{"name":"","type":"address","internalType":"address"}],"outputs":[{"name":"collateralToken","type":"address","internalType":"address"},{"name":"initialDeposit","type":"uint256","internalType":"uint256"},{"name":"totalCollateral","type":"uint256","internalType":"uint256"},{"name":"totalDebt","type":"uint256","internalType":"uint256"},{"name":"loopsExecuted","type":"uint256","internalType":"uint256"},{"name":"targetLeverageX10","type":"uint256","internalType":"uint256"},{"name":"openedAt","type":"uint256","internalType":"uint256"}],"stateMutability":"view"},{"type":"function","name":"priceOracle","inputs":[],"outputs":[{"name":"","type":"address","internalType":"contract IPriceOracle"}],"stateMutability":"view"},{"type":"function","name":"renounceRole","inputs":[{"name":"role","type":"bytes32","internalType":"bytes32"},{"name":"callerConfirmation","type":"address","internalType":"address"}],"outputs":[],"stateMutability":"nonpayable"},{"type":"function","name":"requestEmergencyWithdraw","inputs":[{"name":"token","type":"address","internalType":"address"},{"name":"amount","type":"uint256","internalType":"uint256"}],"outputs":[],"stateMutability":"nonpayable"},{"type":"function","name":"revokeRole","inputs":[{"name":"role","type":"bytes32","internalType":"bytes32"},{"name":"account","type":"address","internalType":"address"}],"outputs":[],"stateMutability":"nonpayable"},{"type":"function","name":"setConfig","inputs":[{"name":"_maxLoops","type":"uint256","internalType":"uint256"},{"name":"_minBorrowPerLoop","type":"uint256","internalType":"uint256"},{"name":"_defaultPoolFee","type":"uint24","internalType":"uint24"},{"name":"_maxSlippageBps","type":"uint256","internalType":"uint256"}],"outputs":[],"stateMutability":"nonpayable"},{"type":"function","name":"setMaxLeverage","inputs":[{"name":"_maxLeverageX10","type":"uint256","internalType":"uint256"}],"outputs":[],"stateMutability":"nonpayable"},{"type":"function","name":"supportsInterface","inputs":[{"name":"interfaceId","type":"bytes4","internalType":"bytes4"}],"outputs":[{"name":"","type":"bool","internalType":"bool"}],"stateMutability":"view"},{"type":"function","name":"swapRouter","inputs":[],"outputs":[{"name":"","type":"address","internalType":"contract ISwapRouter"}],"stateMutability":"view"},{"type":"function","name":"tokenPoolFees","inputs":[{"name":"","type":"address","internalType":"address"}],"outputs":[{"name":"","type":"uint24","internalType":"uint24"}],"stateMutability":"view"},{"type":"function","name":"unpause","inputs":[],"outputs":[],"stateMutability":"nonpayable"},{"type":"event","name":"ConfigUpdated","inputs":[{"name":"maxLoops","type":"uint256","indexed":false,"internalType":"uint256"},{"name":"minBorrowPerLoop","type":"uint256","indexed":false,"internalType":"uint256"},{"name":"defaultPoolFee","type":"uint24","indexed":false,"internalType":"uint24"},{"name":"maxSlippageBps","type":"uint256","indexed":false,"internalType":"uint256"}],"anonymous":false},{"type":"event","name":"EmergencyRepayFailed","inputs":[{"name":"user","type":"address","indexed":true,"internalType":"address"},{"name":"debtAmount","type":"uint256","indexed":false,"internalType":"uint256"},{"name":"musdAvailable","type":"uint256","indexed":false,"internalType":"uint256"}],"anonymous":false},{"type":"event","name":"EmergencyWithdrawCancelled","inputs":[{"name":"token","type":"address","indexed":true,"internalType":"address"},{"name":"amount","type":"uint256","indexed":false,"internalType":"uint256"}],"anonymous":false},{"type":"event","name":"EmergencyWithdrawExecuted","inputs":[{"name":"token","type":"address","indexed":true,"internalType":"address"},{"name":"amount","type":"uint256","indexed":false,"internalType":"uint256"},{"name":"recipient","type":"address","indexed":true,"internalType":"address"}],"anonymous":false},{"type":"event","name":"EmergencyWithdrawRequested","inputs":[{"name":"token","type":"address","indexed":true,"internalType":"address"},{"name":"amount","type":"uint256","indexed":false,"internalType":"uint256"},{"name":"recipient","type":"address","indexed":true,"internalType":"address"},{"name":"executeAfter","type":"uint256","indexed":false,"internalType":"uint256"}],"anonymous":false},{"type":"event","name":"LeverageClosed","inputs":[{"name":"user","type":"address","indexed":true,"internalType":"address"},{"name":"collateralToken","type":"address","indexed":true,"internalType":"address"},{"name":"collateralReturned","type":"uint256","indexed":false,"internalType":"uint256"},{"name":"debtRepaid","type":"uint256","indexed":false,"internalType":"uint256"},{"name":"profitOrLoss","type":"uint256","indexed":false,"internalType":"uint256"}],"anonymous":false},{"type":"event","name":"LeverageClosedWithDirectRepay","inputs":[{"name":"user","type":"address","indexed":true,"internalType":"address"},{"name":"collateralToken","type":"address","indexed":true,"internalType":"address"},{"name":"collateralReturned","type":"uint256","indexed":false,"internalType":"uint256"},{"name":"debtRepaid","type":"uint256","indexed":false,"internalType":"uint256"},{"name":"musdProvidedByUser","type":"uint256","indexed":false,"internalType":"uint256"}],"anonymous":false},{"type":"event","name":"LeverageIncreased","inputs":[{"name":"user","type":"address","indexed":true,"internalType":"address"},{"name":"additionalCollateral","type":"uint256","indexed":false,"internalType":"uint256"},{"name":"additionalDebt","type":"uint256","indexed":false,"internalType":"uint256"},{"name":"newLoops","type":"uint256","indexed":false,"internalType":"uint256"}],"anonymous":false},{"type":"event","name":"LeverageOpened","inputs":[{"name":"user","type":"address","indexed":true,"internalType":"address"},{"name":"collateralToken","type":"address","indexed":true,"internalType":"address"},{"name":"initialDeposit","type":"uint256","indexed":false,"internalType":"uint256"},{"name":"totalCollateral","type":"uint256","indexed":false,"internalType":"uint256"},{"name":"totalDebt","type":"uint256","indexed":false,"internalType":"uint256"},{"name":"loopsExecuted","type":"uint256","indexed":false,"internalType":"uint256"},{"name":"effectiveLeverageX10","type":"uint256","indexed":false,"internalType":"uint256"}],"anonymous":false},{"type":"event","name":"MaxLeverageUpdated","inputs":[{"name":"oldMaxLeverageX10","type":"uint256","indexed":false,"internalType":"uint256"},{"name":"newMaxLeverageX10","type":"uint256","indexed":false,"internalType":"uint256"}],"anonymous":false},{"type":"event","name":"Paused","inputs":[{"name":"account","type":"address","indexed":false,"internalType":"address"}],"anonymous":false},{"type":"event","name":"RoleAdminChanged","inputs":[{"name":"role","type":"bytes32","indexed":true,"internalType":"bytes32"},{"name":"previousAdminRole","type":"bytes32","indexed":true,"internalType":"bytes32"},{"name":"newAdminRole","type":"bytes32","indexed":true,"internalType":"bytes32"}],"anonymous":false},{"type":"event","name":"RoleGranted","inputs":[{"name":"role","type":"bytes32","indexed":true,"internalType":"bytes32"},{"name":"account","type":"address","indexed":true,"internalType":"address"},{"name":"sender","type":"address","indexed":true,"internalType":"address"}],"anonymous":false},{"type":"event","name":"RoleRevoked","inputs":[{"name":"role","type":"bytes32","indexed":true,"internalType":"bytes32"},{"name":"account","type":"address","indexed":true,"internalType":"address"},{"name":"sender","type":"address","indexed":true,"internalType":"address"}],"anonymous":false},{"type":"event","name":"TokenDisabled","inputs":[{"name":"token","type":"address","indexed":true,"internalType":"address"}],"anonymous":false},{"type":"event","name":"TokenEnabled","inputs":[{"name":"token","type":"address","indexed":true,"internalType":"address"},{"name":"poolFee","type":"uint24","indexed":false,"internalType":"uint24"}],"anonymous":false},{"type":"event","name":"Unpaused","inputs":[{"name":"account","type":"address","indexed":false,"internalType":"address"}],"anonymous":false},{"type":"error","name":"AccessControlBadConfirmation","inputs":[]},{"type":"error","name":"AccessControlUnauthorizedAccount","inputs":[{"name":"account","type":"address","internalType":"address"},{"name":"neededRole","type":"bytes32","internalType":"bytes32"}]},{"type":"error","name":"EnforcedPause","inputs":[]},{"type":"error","name":"ExpectedPause","inputs":[]},{"type":"error","name":"ReentrancyGuardReentrantCall","inputs":[]},{"type":"error","name":"SafeERC20FailedOperation","inputs":[{"name":"token","type":"address","internalType":"address"}]}],"bytecode":{"object":"0x610120604052348015610010575f80fd5b5060405161443e38038061443e83398101604081905261002f91610319565b600180556001600160a01b03851661007f5760405162461bcd60e51b815260206004820152600e60248201526d24a72b20a624a22fa927aaaa22a960911b60448201526064015b60405180910390fd5b6001600160a01b0384166100c55760405162461bcd60e51b815260206004820152600d60248201526c1253959053125117d590555315609a1b6044820152606401610076565b6001600160a01b03831661010c5760405162461bcd60e51b815260206004820152600e60248201526d494e56414c49445f424f52524f5760901b6044820152606401610076565b6001600160a01b0382166101535760405162461bcd60e51b815260206004820152600e60248201526d494e56414c49445f4f5241434c4560901b6044820152606401610076565b6001600160a01b0381166101985760405162461bcd60e51b815260206004820152600c60248201526b1253959053125117d35554d160a21b6044820152606401610076565b6001600160a01b0380861660805284811660a05283811660c05282811660e052811661010052600a60035568056bc75e2d631000006004556005805462ffffff1916610bb81790556064600655601e6007556101f45f33610255565b5061021f7f427855f733824e80f1903e866c2bc2b809f56d807872951b042888b504f9cbb133610255565b5061024a7f65d7a28e3265b37a6474929f336521b332c1681b933f6cb9f3376673440d862a33610255565b50505050505061037a565b5f828152602081815260408083206001600160a01b038516845290915281205460ff166102f5575f838152602081815260408083206001600160a01b03861684529091529020805460ff191660011790556102ad3390565b6001600160a01b0316826001600160a01b0316847f2f8788117e7eff1d82e926ec794901d17c78024a50270940304540a733656f0d60405160405180910390a45060016102f8565b505f5b92915050565b80516001600160a01b0381168114610314575f80fd5b919050565b5f805f805f60a0868803121561032d575f80fd5b610336866102fe565b9450610344602087016102fe565b9350610352604087016102fe565b9250610360606087016102fe565b915061036e608087016102fe565b90509295509295909350565b60805160a05160c05160e05161010051613f3061050e5f395f818161065401528181610f6601528181610f9b0152818161107f01528181611ba601528181611e100152818161207001528181612110015281816128ce015281816129c801528181613511015281816136840152818161370f01526137f301525f81816103dc015281816113da0152818161302d015281816133f8015261398b01525f81816103b501528181610e9601528181610fbd01528181610ff901528181611d5001528181611e3201528181611e6e01528181611ee8015281816123b70152818161263e015281816128f00152818161292c01528181613138015261321001525f8181610286015281816110cf015281816111590152818161132101528181611698015281816117ef0152818161184001528181611c3b01528181611cc3015281816126d3015281816127f701528181612a1c01528181612aa6015281816132ef015261334201525f8181610624015281816134a301528181613570015281816136a60152818161377301526138150152613f305ff3fe608060405234801561000f575f80fd5b5060043610610255575f3560e01c80638456cb5911610140578063c272a435116100bf578063d547741f11610084578063d547741f14610689578063e63ab1e91461069c578063eb69ec5b146106c3578063ef2ec4db146106d6578063f4a695ff1461072d578063f54ab35914610740575f80fd5b8063c272a4351461060c578063c31c9c071461061f578063c4aa739514610646578063cab666d01461064f578063d3127e6314610676575f80fd5b8063a2beceaa11610105578063a2beceaa1461059a578063a47b81d8146105ae578063a61165bf146105b8578063ae920b06146105e6578063b09789d8146105f9575f80fd5b80638456cb591461053d57806391d14854146105455780639eae8aac14610558578063a217fddf1461056b578063a26ed59314610572575f80fd5b80632a8821cc116101d7578063462846431161019c578063462846431461043d57806355f57510146104755780635c975abb14610508578063683131c9146105135780636f60a6dd1461051b5780637c7f4ce51461052a575f80fd5b80632a8821cc146103fe5780632f2ff15d1461040657806336568abe146104195780633f4ba83a1461042c5780634213bc8f14610434575f80fd5b80631c1276c31161021d5780631c1276c31461036657806323e27a641461037b578063248a9ca31461038e57806325384fd8146103b05780632630c12f146103d7575f80fd5b806301ffc9a7146102595780630bece79c146102815780630bf7dbb2146102c057806314ffaf3e146102d757806316c19739146102f9575b5f80fd5b61026c610267366004613a16565b610749565b60405190151581526020015b60405180910390f35b6102a87f000000000000000000000000000000000000000000000000000000000000000081565b6040516001600160a01b039091168152602001610278565b6102c960045481565b604051908152602001610278565b61026c6102e5366004613a53565b60096020525f908152604090205460ff1681565b61030c610307366004613a53565b61077f565b604051610278919081516001600160a01b031681526020808301519082015260408083015190820152606080830151908201526080808301519082015260a0828101519082015260c0918201519181019190915260e00190565b610379610374366004613a7e565b61082f565b005b610379610389366004613a53565b610984565b6102c961039c366004613aaf565b5f9081526020819052604090206001015490565b6102a87f000000000000000000000000000000000000000000000000000000000000000081565b6102a87f000000000000000000000000000000000000000000000000000000000000000081565b6103796109e4565b610379610414366004613ac6565b610b60565b610379610427366004613ac6565b610b8a565b610379610bc2565b6102c960035481565b61046161044b366004613a53565b60086020525f908152604090205462ffffff1681565b60405162ffffff9091168152602001610278565b6104c9610483366004613a53565b600a6020525f908152604090208054600182015460028301546003840154600485015460058601546006909601546001600160a01b039095169593949293919290919087565b604080516001600160a01b0390981688526020880196909652948601939093526060850191909152608084015260a083015260c082015260e001610278565b60025460ff1661026c565b610379610bd7565b6005546104619062ffffff1681565b610379610538366004613ae7565b610c49565b610379610dd7565b61026c610553366004613ac6565b610e09565b6102c9610566366004613aaf565b610e31565b6102c95f81565b610585610580366004613b0f565b6112fa565b60408051928352602083019190915201610278565b6102c95f80516020613edb83398151915281565b6102c96202a30081565b6105cb6105c6366004613b3f565b6114f0565b60408051938452602084019290925290820152606001610278565b6103796105f4366004613ae7565b611a8e565b610379610607366004613b85565b6121f9565b6102c961061a366004613a53565b612396565b6102a87f000000000000000000000000000000000000000000000000000000000000000081565b6102c960065481565b6102a87f000000000000000000000000000000000000000000000000000000000000000081565b610379610684366004613aaf565b612422565b610379610697366004613ac6565b6124d4565b6102c97f65d7a28e3265b37a6474929f336521b332c1681b933f6cb9f3376673440d862a81565b6102c96106d1366004613a53565b6124f8565b600b54600c54600d54600e546106f8936001600160a01b039081169392169084565b60405161027894939291906001600160a01b039485168152602081019390935292166040820152606081019190915260800190565b6102c961073b366004613bbf565b612597565b6102c960075481565b5f6001600160e01b03198216637965db0b60e01b148061077957506301ffc9a760e01b6001600160e01b03198316145b92915050565b6107c16040518060e001604052805f6001600160a01b031681526020015f81526020015f81526020015f81526020015f81526020015f81526020015f81525090565b506001600160a01b039081165f908152600a6020908152604091829020825160e081018452815490941684526001810154918401919091526002810154918301919091526003810154606083015260048101546080830152600581015460a08301526006015460c082015290565b5f80516020613edb83398151915261084681612cad565b6001600160a01b0383166108915760405162461bcd60e51b815260206004820152600d60248201526c24a72b20a624a22faa27a5a2a760991b60448201526064015b60405180910390fd5b8162ffffff16606414806108ab57508162ffffff166101f4145b806108bc57508162ffffff16610bb8145b806108cd57508162ffffff16612710145b61090c5760405162461bcd60e51b815260206004820152601060248201526f24a72b20a624a22fa322a2afaa24a2a960811b6044820152606401610888565b6001600160a01b0383165f818152600960209081526040808320805460ff191660011790556008825291829020805462ffffff871662ffffff19909116811790915591519182527f302ef2dc908ca81f40825b1491cc6df1d795f69868c824651c1092c5f79859e791015b60405180910390a2505050565b5f80516020613edb83398151915261099b81612cad565b6001600160a01b0382165f81815260096020526040808220805460ff19169055517f1fac2d788f45089e4f2b9e3484b1163143fdeab5eb480ab9a44b459d2dc476a29190a25050565b5f6109ee81612cad565b60408051608081018252600b546001600160a01b03908116808352600c546020840152600d5490911692820192909252600e54606082015290610a695760405162461bcd60e51b81526020600482015260136024820152724e4f5f50454e44494e475f574954484452415760681b6044820152606401610888565b6202a3008160600151610a7c9190613bfc565b421015610abd5760405162461bcd60e51b815260206004820152600f60248201526e54494d454c4f434b5f41435449564560881b6044820152606401610888565b600b80546001600160a01b03199081169091555f600c819055600d8054909216909155600e55604081015160208201518251610b04926001600160a01b0390911691612cb7565b80604001516001600160a01b0316815f01516001600160a01b03167f705bce6bcba14b7258454b7a309606c23fb8bc0fb94ec1765a4c0a12d7c758c78360200151604051610b5491815260200190565b60405180910390a35050565b5f82815260208190526040902060010154610b7a81612cad565b610b848383612d0f565b50505050565b6001600160a01b0381163314610bb35760405163334bd91960e11b815260040160405180910390fd5b610bbd8282612d9e565b505050565b5f610bcc81612cad565b610bd4612e07565b50565b5f610be181612cad565b600b8054600c80546001600160a01b03198084169094555f91829055600d8054909416909355600e556040518281526001600160a01b03909116919082907f2b536301d6c8050d7b45996ce001fe11c96e1eef0c667be8378985eb7d34b39090602001610977565b5f610c5381612cad565b6001600160a01b038316610c995760405162461bcd60e51b815260206004820152600d60248201526c24a72b20a624a22faa27a5a2a760991b6044820152606401610888565b5f8211610cd65760405162461bcd60e51b815260206004820152600b60248201526a16915493d7d05353d5539560aa1b6044820152606401610888565b600b546001600160a01b031615610d2f5760405162461bcd60e51b815260206004820152601860248201527f57495448445241575f414c52454144595f50454e44494e4700000000000000006044820152606401610888565b604080516080810182526001600160a01b0385168082526020820185905233928201839052426060909201829052600b80546001600160a01b03199081168317909155600c869055600d805490911684179055600e829055907fa75569912c1364339d20786d7c4c842e9a641ef7325d0528f24508307aeb892e908590610dba906202a30090613bfc565b6040805192835260208301919091520160405180910390a3505050565b7f65d7a28e3265b37a6474929f336521b332c1681b933f6cb9f3376673440d862a610e0181612cad565b610bd4612e59565b5f918252602082815260408084206001600160a01b0393909316845291905290205460ff1690565b5f610e3a612e96565b610e42612ec0565b335f908152600a602052604090206002810154610e715760405162461bcd60e51b815260040161088890613c0f565b8054604051631ff517ff60e01b81523360048201526001600160a01b03918216915f917f000000000000000000000000000000000000000000000000000000000000000090911690631ff517ff90602401602060405180830381865afa158015610edd573d5f803e3d5ffd5b505050506040513d601f19601f82011682018060405250810190610f019190613c34565b905080156110a85780851015610f595760405162461bcd60e51b815260206004820152601a60248201527f494e53554646494349454e545f4d5553445f50524f56494445440000000000006044820152606401610888565b610f8e6001600160a01b037f000000000000000000000000000000000000000000000000000000000000000016333088612ee6565b610fe26001600160a01b037f0000000000000000000000000000000000000000000000000000000000000000167f000000000000000000000000000000000000000000000000000000000000000083612f1f565b6040516311d13b1160e11b81526001600160a01b037f000000000000000000000000000000000000000000000000000000000000000016906323a27622906110309033908590600401613c4b565b5f604051808303815f87803b158015611047575f80fd5b505af1158015611059573d5f803e3d5ffd5b505050505f818661106a9190613c64565b905080156110a6576110a66001600160a01b037f0000000000000000000000000000000000000000000000000000000000000000163383612cb7565b505b6040516347b00fb360e11b81523360048201526001600160a01b0383811660248301525f917f000000000000000000000000000000000000000000000000000000000000000090911690638f601f6690604401602060405180830381865afa158015611116573d5f803e3d5ffd5b505050506040513d601f19601f8201168201806040525081019061113a9190613c34565b905080156111c55760405163071ea3e360e01b81526001600160a01b037f0000000000000000000000000000000000000000000000000000000000000000169063071ea3e390611197903390879086908390600190600401613c77565b5f604051808303815f87803b1580156111ae575f80fd5b505af11580156111c0573d5f803e3d5ffd5b505050505b6040516370a0823160e01b81523060048201525f906001600160a01b038516906370a0823190602401602060405180830381865afa158015611209573d5f803e3d5ffd5b505050506040513d601f19601f8201168201806040525081019061122d9190613c34565b90508015611249576112496001600160a01b0385163383612cb7565b6112538183613bfc565b60408051828152602081018690529081018990529096506001600160a01b0385169033907f8729f84210551f1aed05435f51e2ccc18780d9ac85446bb7284d553c947e7c809060600160405180910390a35050335f908152600a6020526040812080546001600160a01b03191681556001810182905560028101829055600381018290556004810182905560058101829055600601555050506112f560018055565b919050565b60405163e48a5f7b60e01b81526001600160a01b0384811660048301525f918291829182917f0000000000000000000000000000000000000000000000000000000000000000169063e48a5f7b90602401608060405180830381865afa158015611366573d5f803e3d5ffd5b505050506040513d601f19601f8201168201806040525081019061138a9190613caa565b505091509150816113a2575f809350935050506114e8565b80865f805b6003548110156114e0575f8a6113be85600a613cea565b6113c89190613d01565b90508981106113d757506114e0565b5f7f00000000000000000000000000000000000000000000000000000000000000006001600160a01b031663b7f876448e876040518363ffffffff1660e01b8152600401611426929190613c4b565b602060405180830381865afa158015611441573d5f803e3d5ffd5b505050506040513d601f19601f820116820180604052508101906114659190613c34565b90505f846127106114768985613cea565b6114809190613d01565b61148a9190613c64565b905060045481101561149e575050506114e0565b5f6114a98f83612fb5565b90506114b58188613bfc565b96506114c18287613bfc565b95508b6114cd81613d20565b9c5050600190940193506113a792505050565b509450505050505b935093915050565b5f805f6114fb612e96565b611503612ec0565b4284116115455760405162461bcd60e51b815260206004820152601060248201526f455850495245445f444541444c494e4560801b6044820152606401610888565b6001600160a01b0389165f9081526009602052604090205460ff166115a05760405162461bcd60e51b81526020600482015260116024820152701513d2d15397d393d517d1539050931151607a1b6044820152606401610888565b5f88116115e05760405162461bcd60e51b815260206004820152600e60248201526d1253959053125117d05353d5539560921b6044820152606401610888565b600a8710156116245760405162461bcd60e51b815260206004820152601060248201526f4c455645524147455f544f4f5f4c4f5760801b6044820152606401610888565b335f908152600a6020526040902060020154156116755760405162461bcd60e51b815260206004820152600f60248201526e504f534954494f4e5f45584953545360881b6044820152606401610888565b60405163e48a5f7b60e01b81526001600160a01b038a811660048301525f9182917f0000000000000000000000000000000000000000000000000000000000000000169063e48a5f7b90602401608060405180830381865afa1580156116dd573d5f803e3d5ffd5b505050506040513d601f19601f820116820180604052508101906117019190613caa565b5050915091508161174d5760405162461bcd60e51b815260206004820152601660248201527510d3d31310551154905317d393d517d153905093115160521b6044820152606401610888565b5f61175a82612710613c64565b61176790620186a0613d01565b90505f600754821061177b5760075461177d565b815b9050808b11156117c65760405162461bcd60e51b81526020600482015260146024820152730988aac8aa4828e8abe8ab0868a8a88a6be9a82b60631b6044820152606401610888565b506117e0925050506001600160a01b038a1633308b612ee6565b6118146001600160a01b038a167f00000000000000000000000000000000000000000000000000000000000000008a612f1f565b60405163b3db428b60e01b81523360048201526001600160a01b038a81166024830152604482018a90527f0000000000000000000000000000000000000000000000000000000000000000169063b3db428b906064015f604051808303815f87803b158015611881575f80fd5b505af1158015611893573d5f803e3d5ffd5b505050505f8087116118a7576003546118a9565b865b90506003548111156118ba57506003545b5f86156118c757866118cb565b6006545b905060065481111561191b5760405162461bcd60e51b81526020600482015260196024820152780aaa68aa4bea69892a0a0828e8abe8ab0868a8a88a6be9a82b603b1b6044820152606401610888565b61192a338c8c8c86868c6130eb565b8095508196508297505050506040518060e001604052808c6001600160a01b031681526020018b81526020018681526020018581526020018481526020018a815260200142815250600a5f336001600160a01b03166001600160a01b031681526020019081526020015f205f820151815f015f6101000a8154816001600160a01b0302191690836001600160a01b031602179055506020820151816001015560408201518160020155606082015181600301556080820151816004015560a0820151816005015560c082015181600601559050505f8a86600a611a0d9190613cea565b611a179190613d01565b604080518d81526020810189905290810187905260608101869052608081018290529091506001600160a01b038d169033907f223299f817ca1801d60b5d9826902fbdced9c1bf1341fa90fe953ec5645503ba9060a00160405180910390a3505050611a8260018055565b96509650969350505050565b5f611a9881612cad565b611aa0612e96565b6107d0821115611adf5760405162461bcd60e51b815260206004820152600a60248201526913505617cc8c17d410d560b21b6044820152606401610888565b6001600160a01b0383165f908152600a602052604090206002810154611b175760405162461bcd60e51b815260040161088890613c0f565b80546040516370a0823160e01b81523060048201526001600160a01b03909116905f9082906370a0823190602401602060405180830381865afa158015611b60573d5f803e3d5ffd5b505050506040513d601f19601f82011682018060405250810190611b849190613c34565b6040516370a0823160e01b81523060048201529091505f906001600160a01b037f000000000000000000000000000000000000000000000000000000000000000016906370a0823190602401602060405180830381865afa158015611beb573d5f803e3d5ffd5b505050506040513d601f19601f82011682018060405250810190611c0f9190613c34565b6040516347b00fb360e11b81526001600160a01b03898116600483015285811660248301529192505f917f00000000000000000000000000000000000000000000000000000000000000001690638f601f6690604401602060405180830381865afa158015611c80573d5f803e3d5ffd5b505050506040513d601f19601f82011682018060405250810190611ca49190613c34565b90508015611d2f5760405163071ea3e360e01b81526001600160a01b037f0000000000000000000000000000000000000000000000000000000000000000169063071ea3e390611d01908b90889086903090600190600401613c77565b5f604051808303815f87803b158015611d18575f80fd5b505af1158015611d2a573d5f803e3d5ffd5b505050505b604051631ff517ff60e01b81526001600160a01b0389811660048301525f917f000000000000000000000000000000000000000000000000000000000000000090911690631ff517ff90602401602060405180830381865afa158015611d97573d5f803e3d5ffd5b505050506040513d601f19601f82011682018060405250810190611dbb9190613c34565b90505f8082118015611dcc57505f83115b15611faa575f611de987858c611de442610e10613bfc565b6133d0565b90508015611fa4575f838210611dff5783611e01565b815b9050611e576001600160a01b037f0000000000000000000000000000000000000000000000000000000000000000167f000000000000000000000000000000000000000000000000000000000000000083612f1f565b6040516311d13b1160e11b81526001600160a01b037f000000000000000000000000000000000000000000000000000000000000000016906323a2762290611ea5908f908590600401613c4b565b5f604051808303815f87803b158015611ebc575f80fd5b505af1925050508015611ecd575060015b611f9d5760405163807d3f1d60e01b81526001600160a01b037f0000000000000000000000000000000000000000000000000000000000000000169063807d3f1d90611f1f908f908590600401613c4b565b5f604051808303815f87803b158015611f36575f80fd5b505af1925050508015611f47575060015b611f945760408051828152602081018490526001600160a01b038e16917f5313396e11e666f46254aeab0800891795f321d17f68849558f3bda3d7856673910160405180910390a2611fa2565b60019250611fa2565b600192505b505b50611fb5565b815f03611fb5575060015b801561213c576040516370a0823160e01b81523060048201525f906001600160a01b038816906370a0823190602401602060405180830381865afa158015611fff573d5f803e3d5ffd5b505050506040513d601f19601f820116820180604052508101906120239190613c34565b90505f868211612033575f61203d565b61203d8783613c64565b90508015612059576120596001600160a01b0389168d83612cb7565b6040516370a0823160e01b81523060048201525f907f00000000000000000000000000000000000000000000000000000000000000006001600160a01b0316906370a0823190602401602060405180830381865afa1580156120bd573d5f803e3d5ffd5b505050506040513d601f19601f820116820180604052508101906120e19190613c34565b90505f8782116120f1575f6120fb565b6120fb8883613c64565b90508015612137576121376001600160a01b037f0000000000000000000000000000000000000000000000000000000000000000168f83612cb7565b505050505b856001600160a01b03168a6001600160a01b03167fa50e37d33076a6fe8012434e43b10e680649c52738c9e3e249e336bf5ccd3c1c5f855f604051612194939291909283526020830191909152604082015260600190565b60405180910390a35050506001600160a01b0387165f908152600a6020526040812080546001600160a01b031916815560018101829055600281018290556003810182905560048101829055600581018290556006015550610bbd9250612faf915050565b5f80516020613edb83398151915261221081612cad565b5f85118015612220575060148511155b6122605760405162461bcd60e51b8152602060048201526011602482015270494e56414c49445f4d41585f4c4f4f505360781b6044820152606401610888565b6101f48211156122a65760405162461bcd60e51b81526020600482015260116024820152700a69892a0a0828e8abea89e9ebe90928e9607b1b6044820152606401610888565b8262ffffff16606414806122c057508262ffffff166101f4145b806122d157508262ffffff16610bb8145b806122e257508262ffffff16612710145b6123215760405162461bcd60e51b815260206004820152601060248201526f24a72b20a624a22fa322a2afaa24a2a960811b6044820152606401610888565b600385905560048490556005805462ffffff191662ffffff85169081179091556006839055604080518781526020810187905290810191909152606081018390527f5fb8f8a1a7d8752cbcffaa22bf823f658a7b9b9c05f4aa6d682e8eed5c1b56e29060800160405180910390a15050505050565b604051631ff517ff60e01b81526001600160a01b0382811660048301525f917f000000000000000000000000000000000000000000000000000000000000000090911690631ff517ff90602401602060405180830381865afa1580156123fe573d5f803e3d5ffd5b505050506040513d601f19601f820116820180604052508101906107799190613c34565b5f80516020613edb83398151915261243981612cad565b600a821015801561244b575060288211155b61248e5760405162461bcd60e51b8152602060048201526014602482015273494e56414c49445f4d41585f4c4556455241474560601b6044820152606401610888565b600780549083905560408051828152602081018590527fc40265c19866109dc8f33bf7b08b628b97728ad445b658e40153023e3800255c910160405180910390a1505050565b5f828152602081905260409020600101546124ee81612cad565b610b848383612d9e565b6001600160a01b038082165f908152600a60209081526040808320815160e0810183528154909516855260018101549285018390526002810154918501919091526003810154606085015260048101546080850152600581015460a08501526006015460c0840152909190820361257157505f92915050565b6020810151604082015161258690600a613cea565b6125909190613d01565b9392505050565b5f6125a0612e96565b6125a8612ec0565b4282116125ea5760405162461bcd60e51b815260206004820152601060248201526f455850495245445f444541444c494e4560801b6044820152606401610888565b335f908152600a6020526040902060028101546126195760405162461bcd60e51b815260040161088890613c0f565b8054604051631ff517ff60e01b81523360048201526001600160a01b03918216915f917f000000000000000000000000000000000000000000000000000000000000000090911690631ff517ff90602401602060405180830381865afa158015612685573d5f803e3d5ffd5b505050506040513d601f19601f820116820180604052508101906126a99190613c34565b6040516347b00fb360e11b81523360048201526001600160a01b0384811660248301529192505f917f00000000000000000000000000000000000000000000000000000000000000001690638f601f6690604401602060405180830381865afa158015612718573d5f803e3d5ffd5b505050506040513d601f19601f8201168201806040525081019061273c9190613c34565b90505f871561274b578761274f565b6006545b905060065481111561279f5760405162461bcd60e51b81526020600482015260196024820152780aaa68aa4bea69892a0a0828e8abe8ab0868a8a88a6be9a82b603b1b6044820152606401610888565b82156129f5575f6127b08585612fb5565b90506127106127bf8382613bfc565b6127c99083613cea565b6127d39190613d01565b9050828111156127e05750815b60405163071ea3e360e01b81526001600160a01b037f0000000000000000000000000000000000000000000000000000000000000000169063071ea3e390612835903390899086903090600190600401613c77565b5f604051808303815f87803b15801561284c575f80fd5b505af115801561285e573d5f803e3d5ffd5b505050505f61286f8683858c6133d0565b9050848110156128c15760405162461bcd60e51b815260206004820152601b60248201527f494e53554646494349454e545f4d5553445f46524f4d5f5357415000000000006044820152606401610888565b6129156001600160a01b037f0000000000000000000000000000000000000000000000000000000000000000167f000000000000000000000000000000000000000000000000000000000000000087612f1f565b6040516311d13b1160e11b81526001600160a01b037f000000000000000000000000000000000000000000000000000000000000000016906323a27622906129639033908990600401613c4b565b5f604051808303815f87803b15801561297a575f80fd5b505af115801561298c573d5f803e3d5ffd5b505050505f858261299d9190613c64565b905080156129f1575f6129b28883878e613637565b9050805f036129ef576129ef6001600160a01b037f0000000000000000000000000000000000000000000000000000000000000000163384612cb7565b505b5050505b6040516347b00fb360e11b81523360048201526001600160a01b0385811660248301525f917f000000000000000000000000000000000000000000000000000000000000000090911690638f601f6690604401602060405180830381865afa158015612a63573d5f803e3d5ffd5b505050506040513d601f19601f82011682018060405250810190612a879190613c34565b90508015612b125760405163071ea3e360e01b81526001600160a01b037f0000000000000000000000000000000000000000000000000000000000000000169063071ea3e390612ae4903390899086908390600190600401613c77565b5f604051808303815f87803b158015612afb575f80fd5b505af1158015612b0d573d5f803e3d5ffd5b505050505b6040516370a0823160e01b81523060048201525f906001600160a01b038716906370a0823190602401602060405180830381865afa158015612b56573d5f803e3d5ffd5b505050506040513d601f19601f82011682018060405250810190612b7a9190613c34565b90508015612ba357612b966001600160a01b0387163383612cb7565b612ba08183613bfc565b91505b8a821015612be75760405162461bcd60e51b815260206004820152601160248201527014d31254141051d157d15610d151511151607a1b6044820152606401610888565b8197505f876001015489612bfb9190613d38565b90506001600160a01b038716337fa50e37d33076a6fe8012434e43b10e680649c52738c9e3e249e336bf5ccd3c1c8b895f861215612c39575f612c3b565b855b6040805193845260208401929092529082015260600160405180910390a35050335f908152600a6020526040812080546001600160a01b031916815560018101829055600281018290556003810182905560048101829055600581018290556006015550505050505061259060018055565b610bd4813361384e565b610bbd83846001600160a01b031663a9059cbb8585604051602401612cdd929190613c4b565b604051602081830303815290604052915060e01b6020820180516001600160e01b03838183161783525050505061387d565b5f612d1a8383610e09565b612d97575f838152602081815260408083206001600160a01b03861684529091529020805460ff19166001179055612d4f3390565b6001600160a01b0316826001600160a01b0316847f2f8788117e7eff1d82e926ec794901d17c78024a50270940304540a733656f0d60405160405180910390a4506001610779565b505f610779565b5f612da98383610e09565b15612d97575f838152602081815260408083206001600160a01b0386168085529252808320805460ff1916905551339286917ff6391f5c32d9c69d2a47ea670b442974b53935d1edc7fd64eb21e047a839171b9190a4506001610779565b612e0f6138e9565b6002805460ff191690557f5db9ee0a495bf2e6ff9c91a7834c1ba4fdd244a5e8aa4e537bd38aeae4b073aa335b6040516001600160a01b03909116815260200160405180910390a1565b612e61612ec0565b6002805460ff191660011790557f62e78cea01bee320cd4e420270b5ea74000d11b0c9f74754ebdbfc544b05a258612e3c3390565b600260015403612eb957604051633ee5aeb560e01b815260040160405180910390fd5b6002600155565b60025460ff1615612ee45760405163d93c066560e01b815260040160405180910390fd5b565b6040516001600160a01b038481166024830152838116604483015260648201839052610b849186918216906323b872dd90608401612cdd565b5f836001600160a01b031663095ea7b38484604051602401612f42929190613c4b565b604051602081830303815290604052915060e01b6020820180516001600160e01b0383818316178352505050509050612f7b848261390c565b610b8457612fa584856001600160a01b031663095ea7b3865f604051602401612cdd929190613c4b565b610b84848261387d565b60018055565b5f80836001600160a01b031663313ce5676040518163ffffffff1660e01b8152600401602060405180830381865afa158015612ff3573d5f803e3d5ffd5b505050506040513d601f19601f820116820180604052508101906130179190613d5e565b60ff1690505f61302882600a613e59565b90505f7f00000000000000000000000000000000000000000000000000000000000000006001600160a01b031663b7f8764487846040518363ffffffff1660e01b8152600401613079929190613c4b565b602060405180830381865afa158015613094573d5f803e3d5ffd5b505050506040513d601f19601f820116820180604052508101906130b89190613c34565b9050805f036130cc575f9350505050610779565b806130d78387613cea565b6130e19190613d01565b9695505050505050565b845f80805b868110156133c257878961310586600a613cea565b61310f9190613d01565b10156133c2576040516397a9d45760e01b81526001600160a01b038c811660048301525f9182917f000000000000000000000000000000000000000000000000000000000000000016906397a9d45790602401602060405180830381865afa15801561317d573d5f803e3d5ffd5b505050506040513d601f19601f820116820180604052508101906131a19190613c34565b90506004548110156131b45750506133c2565b6131c08b878c8f613951565b91508482116131cf575f6131d9565b6131d98583613c64565b9150808211156131e7578091505b6004548210156131f85750506133c2565b5060405163e9a1183d60e01b81526001600160a01b037f0000000000000000000000000000000000000000000000000000000000000000169063e9a1183d90613247908f908590600401613c4b565b5f604051808303815f87803b15801561325e575f80fd5b505af1158015613270573d5f803e3d5ffd5b5050505080846132809190613bfc565b93505f61328f8c838a8a613637565b90505f81116132e05760405162461bcd60e51b815260206004820152601960248201527f535741505f4641494c45445f4f525048414e45445f44454254000000000000006044820152606401610888565b6133146001600160a01b038d167f000000000000000000000000000000000000000000000000000000000000000083612f1f565b60405163b3db428b60e01b81526001600160a01b038e811660048301528d81166024830152604482018390527f0000000000000000000000000000000000000000000000000000000000000000169063b3db428b906064015f604051808303815f87803b158015613383575f80fd5b505af1158015613395573d5f803e3d5ffd5b5050505080866133a59190613bfc565b9550836133b181613d20565b945050600190920191506130f09050565b509750975097945050505050565b5f835f036133df57505f61362f565b604051632dfe1d9160e21b81525f906001600160a01b037f0000000000000000000000000000000000000000000000000000000000000000169063b7f876449061342f9089908990600401613c4b565b602060405180830381865afa15801561344a573d5f803e3d5ffd5b505050506040513d601f19601f8201168201806040525081019061346e9190613c34565b90505f61271061347e8682613c64565b6134889084613cea565b6134929190613d01565b90506134c86001600160a01b0388167f000000000000000000000000000000000000000000000000000000000000000088612f1f565b6001600160a01b0387165f9081526008602052604081205462ffffff16908190036134f7575060055462ffffff165b60408051610100810182526001600160a01b038a811682527f00000000000000000000000000000000000000000000000000000000000000008116602083015262ffffff8416828401523060608301526080820188905260a082018a905260c082018590525f60e0830152915163414bf38960e01b81527f00000000000000000000000000000000000000000000000000000000000000009092169163414bf389916135a591600401613e64565b6020604051808303815f875af11580156135c1573d5f803e3d5ffd5b505050506040513d601f19601f820116820180604052508101906135e59190613c34565b93505f841161362b5760405162461bcd60e51b8152602060048201526012602482015271535741505f52455455524e45445f5a45524f60701b6044820152606401610888565b5050505b949350505050565b5f835f0361364657505f61362f565b5f6136518686612fb5565b90505f6127106136618682613c64565b61366b9084613cea565b6136759190613d01565b90506136cb6001600160a01b037f0000000000000000000000000000000000000000000000000000000000000000167f000000000000000000000000000000000000000000000000000000000000000088612f1f565b6001600160a01b0387165f9081526008602052604081205462ffffff16908190036136fa575060055462ffffff165b60408051610100810182526001600160a01b037f0000000000000000000000000000000000000000000000000000000000000000811682528a8116602083015262ffffff8416828401523060608301526080820188905260a082018a905260c082018590525f60e0830152915163414bf38960e01b81527f00000000000000000000000000000000000000000000000000000000000000009092169163414bf389916137a891600401613e64565b6020604051808303815f875af19250505080156137e2575060408051601f3d908101601f191682019092526137df91810190613c34565b60015b6138425761383a6001600160a01b037f0000000000000000000000000000000000000000000000000000000000000000167f00000000000000000000000000000000000000000000000000000000000000005f612f1f565b5f935061362b565b98975050505050505050565b6138588282610e09565b61387957808260405163e2517d3f60e01b8152600401610888929190613c4b565b5050565b5f8060205f8451602086015f885af18061389c576040513d5f823e3d81fd5b50505f513d915081156138b35780600114156138c0565b6001600160a01b0384163b155b15610b8457604051635274afe760e01b81526001600160a01b0385166004820152602401610888565b60025460ff16612ee457604051638dfc202b60e01b815260040160405180910390fd5b5f805f8060205f8651602088015f8a5af192503d91505f5190508280156130e15750811561393d57806001146130e1565b50505050506001600160a01b03163b151590565b5f80600a61395f8588613cea565b6139699190613d01565b905080851061397b575f91505061362f565b5f6139868683613c64565b90505f7f00000000000000000000000000000000000000000000000000000000000000006001600160a01b031663b7f8764486846040518363ffffffff1660e01b81526004016139d7929190613c4b565b602060405180830381865afa1580156139f2573d5f803e3d5ffd5b505050506040513d601f19601f820116820180604052508101906138429190613c34565b5f60208284031215613a26575f80fd5b81356001600160e01b031981168114612590575f80fd5b80356001600160a01b03811681146112f5575f80fd5b5f60208284031215613a63575f80fd5b61259082613a3d565b803562ffffff811681146112f5575f80fd5b5f8060408385031215613a8f575f80fd5b613a9883613a3d565b9150613aa660208401613a6c565b90509250929050565b5f60208284031215613abf575f80fd5b5035919050565b5f8060408385031215613ad7575f80fd5b82359150613aa660208401613a3d565b5f8060408385031215613af8575f80fd5b613b0183613a3d565b946020939093013593505050565b5f805f60608486031215613b21575f80fd5b613b2a84613a3d565b95602085013595506040909401359392505050565b5f805f805f8060c08789031215613b54575f80fd5b613b5d87613a3d565b9860208801359850604088013597606081013597506080810135965060a00135945092505050565b5f805f8060808587031215613b98575f80fd5b8435935060208501359250613baf60408601613a6c565b9396929550929360600135925050565b5f805f60608486031215613bd1575f80fd5b505081359360208301359350604090920135919050565b634e487b7160e01b5f52601160045260245ffd5b8082018082111561077957610779613be8565b6020808252600b908201526a2727afa827a9a4aa24a7a760a91b604082015260600190565b5f60208284031215613c44575f80fd5b5051919050565b6001600160a01b03929092168252602082015260400190565b8181038181111561077957610779613be8565b6001600160a01b039586168152938516602085015260408401929092529092166060820152901515608082015260a00190565b5f805f8060808587031215613cbd575f80fd5b84518015158114613ccc575f80fd5b60208601516040870151606090970151919890975090945092505050565b808202811582820484141761077957610779613be8565b5f82613d1b57634e487b7160e01b5f52601260045260245ffd5b500490565b5f60018201613d3157613d31613be8565b5060010190565b8181035f831280158383131683831282161715613d5757613d57613be8565b5092915050565b5f60208284031215613d6e575f80fd5b815160ff81168114612590575f80fd5b6001815b60018411156114e857808504811115613d9d57613d9d613be8565b6001841615613dab57908102905b60019390931c928002613d82565b5f82613dc757506001610779565b81613dd357505f610779565b8160018114613de95760028114613df357613e0f565b6001915050610779565b60ff841115613e0457613e04613be8565b50506001821b610779565b5060208310610133831016604e8410600b8410161715613e32575081810a610779565b613e3e5f198484613d7e565b805f1904821115613e5157613e51613be8565b029392505050565b5f6125908383613db9565b81516001600160a01b03908116825260208084015182169083015260408084015162ffffff169083015260608084015191821690830152610100820190506080830151608083015260a083015160a083015260c083015160c083015260e0830151613d5760e08401826001600160a01b0316905256fe427855f733824e80f1903e866c2bc2b809f56d807872951b042888b504f9cbb1a2646970667358221220bfd521bd199e2c234c2de76cceb6592067b178405c9ba7950575d9104eea5b9d64736f6c634300081a0033","linkReferences":{}},"methodIdentifiers":{"DEFAULT_ADMIN_ROLE()":"a217fddf","EMERGENCY_WITHDRAW_DELAY()":"a47b81d8","LEVERAGE_ADMIN_ROLE()":"a2beceaa","PAUSER_ROLE()":"e63ab1e9","borrowModule()":"25384fd8","cancelEmergencyWithdraw()":"683131c9","closeLeveragedPosition(uint256,uint256,uint256)":"f4a695ff","closeLeveragedPositionWithMusd(uint256)":"9eae8aac","collateralVault()":"0bece79c","defaultPoolFee()":"6f60a6dd","disableToken(address)":"23e27a64","emergencyClosePosition(address,uint256)":"ae920b06","enableToken(address,uint24)":"1c1276c3","estimateLoops(address,uint256,uint256)":"a26ed593","executeEmergencyWithdraw()":"2a8821cc","getEffectiveLeverage(address)":"eb69ec5b","getMusdNeededToClose(address)":"c272a435","getPosition(address)":"16c19739","getRoleAdmin(bytes32)":"248a9ca3","grantRole(bytes32,address)":"2f2ff15d","hasRole(bytes32,address)":"91d14854","leverageEnabled(address)":"14ffaf3e","maxLeverageX10()":"f54ab359","maxLoops()":"4213bc8f","maxSlippageBps()":"c4aa7395","minBorrowPerLoop()":"0bf7dbb2","musd()":"cab666d0","openLeveragedPosition(address,uint256,uint256,uint256,uint256,uint256)":"a61165bf","pause()":"8456cb59","paused()":"5c975abb","pendingEmergencyWithdraw()":"ef2ec4db","positions(address)":"55f57510","priceOracle()":"2630c12f","renounceRole(bytes32,address)":"36568abe","requestEmergencyWithdraw(address,uint256)":"7c7f4ce5","revokeRole(bytes32,address)":"d547741f","setConfig(uint256,uint256,uint24,uint256)":"b09789d8","setMaxLeverage(uint256)":"d3127e63","supportsInterface(bytes4)":"01ffc9a7","swapRouter()":"c31c9c07","tokenPoolFees(address)":"46284643","unpause()":"3f4ba83a"},"id":6}