{"abi":[{"type":"constructor","inputs":[{"name":"_swapRouter","type":"address","internalType":"address"},{"name":"_collateralVault","type":"address","internalType":"address"},{"name":"_borrowModule","type":"address","internalType":"address"},{"name":"_priceOracle","type":"address","internalType":"address"},{"name":"_musd","type":"address","internalType":"address"},{"name":"_timelock","type":"address","internalType":"address"}],"stateMutability":"nonpayable"},{"type":"function","name":"DEFAULT_ADMIN_ROLE","inputs":[],"outputs":[{"name":"","type":"bytes32","internalType":"bytes32"}],"stateMutability":"view"},{"type":"function","name":"LEVERAGE_ADMIN_ROLE","inputs":[],"outputs":[{"name":"","type":"bytes32","internalType":"bytes32"}],"stateMutability":"view"},{"type":"function","name":"PAUSER_ROLE","inputs":[],"outputs":[{"name":"","type":"bytes32","internalType":"bytes32"}],"stateMutability":"view"},{"type":"function","name":"borrowModule","inputs":[],"outputs":[{"name":"","type":"address","internalType":"contract IBorrowModule"}],"stateMutability":"view"},{"type":"function","name":"closeLeveragedPosition","inputs":[{"name":"minCollateralOut","type":"uint256","internalType":"uint256"},{"name":"userMaxSlippageBps","type":"uint256","internalType":"uint256"},{"name":"swapDeadline","type":"uint256","internalType":"uint256"}],"outputs":[{"name":"collateralReturned","type":"uint256","internalType":"uint256"}],"stateMutability":"nonpayable"},{"type":"function","name":"closeLeveragedPositionWithMusd","inputs":[{"name":"musdAmount","type":"uint256","internalType":"uint256"}],"outputs":[{"name":"collateralReturned","type":"uint256","internalType":"uint256"}],"stateMutability":"nonpayable"},{"type":"function","name":"collateralVault","inputs":[],"outputs":[{"name":"","type":"address","internalType":"contract ICollateralVault"}],"stateMutability":"view"},{"type":"function","name":"defaultPoolFee","inputs":[],"outputs":[{"name":"","type":"uint24","internalType":"uint24"}],"stateMutability":"view"},{"type":"function","name":"disableToken","inputs":[{"name":"token","type":"address","internalType":"address"}],"outputs":[],"stateMutability":"nonpayable"},{"type":"function","name":"emergencyClosePosition","inputs":[{"name":"user","type":"address","internalType":"address"},{"name":"emergencySlippageBps","type":"uint256","internalType":"uint256"}],"outputs":[],"stateMutability":"nonpayable"},{"type":"function","name":"emergencyWithdraw","inputs":[{"name":"token","type":"address","internalType":"address"},{"name":"amount","type":"uint256","internalType":"uint256"},{"name":"recipient","type":"address","internalType":"address"}],"outputs":[],"stateMutability":"nonpayable"},{"type":"function","name":"enableToken","inputs":[{"name":"token","type":"address","internalType":"address"},{"name":"poolFee","type":"uint24","internalType":"uint24"}],"outputs":[],"stateMutability":"nonpayable"},{"type":"function","name":"estimateLoops","inputs":[{"name":"collateralToken","type":"address","internalType":"address"},{"name":"initialAmount","type":"uint256","internalType":"uint256"},{"name":"targetLeverageX10","type":"uint256","internalType":"uint256"}],"outputs":[{"name":"estimatedLoops","type":"uint256","internalType":"uint256"},{"name":"estimatedDebt","type":"uint256","internalType":"uint256"}],"stateMutability":"view"},{"type":"function","name":"getEffectiveLeverage","inputs":[{"name":"user","type":"address","internalType":"address"}],"outputs":[{"name":"leverageX10","type":"uint256","internalType":"uint256"}],"stateMutability":"view"},{"type":"function","name":"getMusdNeededToClose","inputs":[{"name":"user","type":"address","internalType":"address"}],"outputs":[{"name":"musdNeeded","type":"uint256","internalType":"uint256"}],"stateMutability":"view"},{"type":"function","name":"getPosition","inputs":[{"name":"user","type":"address","internalType":"address"}],"outputs":[{"name":"","type":"tuple","internalType":"struct LeverageVault.LeveragePosition","components":[{"name":"collateralToken","type":"address","internalType":"address"},{"name":"initialDeposit","type":"uint256","internalType":"uint256"},{"name":"totalCollateral","type":"uint256","internalType":"uint256"},{"name":"totalDebt","type":"uint256","internalType":"uint256"},{"name":"loopsExecuted","type":"uint256","internalType":"uint256"},{"name":"targetLeverageX10","type":"uint256","internalType":"uint256"},{"name":"openedAt","type":"uint256","internalType":"uint256"}]}],"stateMutability":"view"},{"type":"function","name":"getRoleAdmin","inputs":[{"name":"role","type":"bytes32","internalType":"bytes32"}],"outputs":[{"name":"","type":"bytes32","internalType":"bytes32"}],"stateMutability":"view"},{"type":"function","name":"grantRole","inputs":[{"name":"role","type":"bytes32","internalType":"bytes32"},{"name":"account","type":"address","internalType":"address"}],"outputs":[],"stateMutability":"nonpayable"},{"type":"function","name":"hasRole","inputs":[{"name":"role","type":"bytes32","internalType":"bytes32"},{"name":"account","type":"address","internalType":"address"}],"outputs":[{"name":"","type":"bool","internalType":"bool"}],"stateMutability":"view"},{"type":"function","name":"leverageEnabled","inputs":[{"name":"","type":"address","internalType":"address"}],"outputs":[{"name":"","type":"bool","internalType":"bool"}],"stateMutability":"view"},{"type":"function","name":"maxLeverageX10","inputs":[],"outputs":[{"name":"","type":"uint256","internalType":"uint256"}],"stateMutability":"view"},{"type":"function","name":"maxLoops","inputs":[],"outputs":[{"name":"","type":"uint256","internalType":"uint256"}],"stateMutability":"view"},{"type":"function","name":"maxSlippageBps","inputs":[],"outputs":[{"name":"","type":"uint256","internalType":"uint256"}],"stateMutability":"view"},{"type":"function","name":"minBorrowPerLoop","inputs":[],"outputs":[{"name":"","type":"uint256","internalType":"uint256"}],"stateMutability":"view"},{"type":"function","name":"musd","inputs":[],"outputs":[{"name":"","type":"address","internalType":"contract IERC20"}],"stateMutability":"view"},{"type":"function","name":"openLeveragedPosition","inputs":[{"name":"collateralToken","type":"address","internalType":"address"},{"name":"initialAmount","type":"uint256","internalType":"uint256"},{"name":"targetLeverageX10","type":"uint256","internalType":"uint256"},{"name":"maxLoopsOverride","type":"uint256","internalType":"uint256"},{"name":"userMaxSlippageBps","type":"uint256","internalType":"uint256"},{"name":"swapDeadline","type":"uint256","internalType":"uint256"}],"outputs":[{"name":"totalCollateral","type":"uint256","internalType":"uint256"},{"name":"totalDebt","type":"uint256","internalType":"uint256"},{"name":"loopsExecuted","type":"uint256","internalType":"uint256"}],"stateMutability":"nonpayable"},{"type":"function","name":"pause","inputs":[],"outputs":[],"stateMutability":"nonpayable"},{"type":"function","name":"paused","inputs":[],"outputs":[{"name":"","type":"bool","internalType":"bool"}],"stateMutability":"view"},{"type":"function","name":"positions","inputs":[{"name":"","type":"address","internalType":"address"}],"outputs":[{"name":"collateralToken","type":"address","internalType":"address"},{"name":"initialDeposit","type":"uint256","internalType":"uint256"},{"name":"totalCollateral","type":"uint256","internalType":"uint256"},{"name":"totalDebt","type":"uint256","internalType":"uint256"},{"name":"loopsExecuted","type":"uint256","internalType":"uint256"},{"name":"targetLeverageX10","type":"uint256","internalType":"uint256"},{"name":"openedAt","type":"uint256","internalType":"uint256"}],"stateMutability":"view"},{"type":"function","name":"priceOracle","inputs":[],"outputs":[{"name":"","type":"address","internalType":"contract IPriceOracle"}],"stateMutability":"view"},{"type":"function","name":"renounceRole","inputs":[{"name":"role","type":"bytes32","internalType":"bytes32"},{"name":"callerConfirmation","type":"address","internalType":"address"}],"outputs":[],"stateMutability":"nonpayable"},{"type":"function","name":"revokeRole","inputs":[{"name":"role","type":"bytes32","internalType":"bytes32"},{"name":"account","type":"address","internalType":"address"}],"outputs":[],"stateMutability":"nonpayable"},{"type":"function","name":"setConfig","inputs":[{"name":"_maxLoops","type":"uint256","internalType":"uint256"},{"name":"_minBorrowPerLoop","type":"uint256","internalType":"uint256"},{"name":"_defaultPoolFee","type":"uint24","internalType":"uint24"},{"name":"_maxSlippageBps","type":"uint256","internalType":"uint256"}],"outputs":[],"stateMutability":"nonpayable"},{"type":"function","name":"setMaxLeverage","inputs":[{"name":"_maxLeverageX10","type":"uint256","internalType":"uint256"}],"outputs":[],"stateMutability":"nonpayable"},{"type":"function","name":"setTimelock","inputs":[{"name":"_timelock","type":"address","internalType":"address"}],"outputs":[],"stateMutability":"nonpayable"},{"type":"function","name":"supportsInterface","inputs":[{"name":"interfaceId","type":"bytes4","internalType":"bytes4"}],"outputs":[{"name":"","type":"bool","internalType":"bool"}],"stateMutability":"view"},{"type":"function","name":"swapRouter","inputs":[],"outputs":[{"name":"","type":"address","internalType":"contract ISwapRouter"}],"stateMutability":"view"},{"type":"function","name":"timelock","inputs":[],"outputs":[{"name":"","type":"address","internalType":"address"}],"stateMutability":"view"},{"type":"function","name":"tokenPoolFees","inputs":[{"name":"","type":"address","internalType":"address"}],"outputs":[{"name":"","type":"uint24","internalType":"uint24"}],"stateMutability":"view"},{"type":"function","name":"unpause","inputs":[],"outputs":[],"stateMutability":"nonpayable"},{"type":"event","name":"ConfigUpdated","inputs":[{"name":"maxLoops","type":"uint256","indexed":false,"internalType":"uint256"},{"name":"minBorrowPerLoop","type":"uint256","indexed":false,"internalType":"uint256"},{"name":"defaultPoolFee","type":"uint24","indexed":false,"internalType":"uint24"},{"name":"maxSlippageBps","type":"uint256","indexed":false,"internalType":"uint256"}],"anonymous":false},{"type":"event","name":"EmergencyRepayFailed","inputs":[{"name":"user","type":"address","indexed":true,"internalType":"address"},{"name":"debtAmount","type":"uint256","indexed":false,"internalType":"uint256"},{"name":"musdAvailable","type":"uint256","indexed":false,"internalType":"uint256"}],"anonymous":false},{"type":"event","name":"EmergencyWithdrawExecuted","inputs":[{"name":"token","type":"address","indexed":true,"internalType":"address"},{"name":"amount","type":"uint256","indexed":false,"internalType":"uint256"},{"name":"recipient","type":"address","indexed":true,"internalType":"address"}],"anonymous":false},{"type":"event","name":"LeverageClosed","inputs":[{"name":"user","type":"address","indexed":true,"internalType":"address"},{"name":"collateralToken","type":"address","indexed":true,"internalType":"address"},{"name":"collateralReturned","type":"uint256","indexed":false,"internalType":"uint256"},{"name":"debtRepaid","type":"uint256","indexed":false,"internalType":"uint256"},{"name":"profitOrLoss","type":"uint256","indexed":false,"internalType":"uint256"}],"anonymous":false},{"type":"event","name":"LeverageClosedWithDirectRepay","inputs":[{"name":"user","type":"address","indexed":true,"internalType":"address"},{"name":"collateralToken","type":"address","indexed":true,"internalType":"address"},{"name":"collateralReturned","type":"uint256","indexed":false,"internalType":"uint256"},{"name":"debtRepaid","type":"uint256","indexed":false,"internalType":"uint256"},{"name":"musdProvidedByUser","type":"uint256","indexed":false,"internalType":"uint256"}],"anonymous":false},{"type":"event","name":"LeverageIncreased","inputs":[{"name":"user","type":"address","indexed":true,"internalType":"address"},{"name":"additionalCollateral","type":"uint256","indexed":false,"internalType":"uint256"},{"name":"additionalDebt","type":"uint256","indexed":false,"internalType":"uint256"},{"name":"newLoops","type":"uint256","indexed":false,"internalType":"uint256"}],"anonymous":false},{"type":"event","name":"LeverageOpened","inputs":[{"name":"user","type":"address","indexed":true,"internalType":"address"},{"name":"collateralToken","type":"address","indexed":true,"internalType":"address"},{"name":"initialDeposit","type":"uint256","indexed":false,"internalType":"uint256"},{"name":"totalCollateral","type":"uint256","indexed":false,"internalType":"uint256"},{"name":"totalDebt","type":"uint256","indexed":false,"internalType":"uint256"},{"name":"loopsExecuted","type":"uint256","indexed":false,"internalType":"uint256"},{"name":"effectiveLeverageX10","type":"uint256","indexed":false,"internalType":"uint256"}],"anonymous":false},{"type":"event","name":"MaxLeverageUpdated","inputs":[{"name":"oldMaxLeverageX10","type":"uint256","indexed":false,"internalType":"uint256"},{"name":"newMaxLeverageX10","type":"uint256","indexed":false,"internalType":"uint256"}],"anonymous":false},{"type":"event","name":"Paused","inputs":[{"name":"account","type":"address","indexed":false,"internalType":"address"}],"anonymous":false},{"type":"event","name":"RoleAdminChanged","inputs":[{"name":"role","type":"bytes32","indexed":true,"internalType":"bytes32"},{"name":"previousAdminRole","type":"bytes32","indexed":true,"internalType":"bytes32"},{"name":"newAdminRole","type":"bytes32","indexed":true,"internalType":"bytes32"}],"anonymous":false},{"type":"event","name":"RoleGranted","inputs":[{"name":"role","type":"bytes32","indexed":true,"internalType":"bytes32"},{"name":"account","type":"address","indexed":true,"internalType":"address"},{"name":"sender","type":"address","indexed":true,"internalType":"address"}],"anonymous":false},{"type":"event","name":"RoleRevoked","inputs":[{"name":"role","type":"bytes32","indexed":true,"internalType":"bytes32"},{"name":"account","type":"address","indexed":true,"internalType":"address"},{"name":"sender","type":"address","indexed":true,"internalType":"address"}],"anonymous":false},{"type":"event","name":"TimelockUpdated","inputs":[{"name":"oldTimelock","type":"address","indexed":true,"internalType":"address"},{"name":"newTimelock","type":"address","indexed":true,"internalType":"address"}],"anonymous":false},{"type":"event","name":"TokenDisabled","inputs":[{"name":"token","type":"address","indexed":true,"internalType":"address"}],"anonymous":false},{"type":"event","name":"TokenEnabled","inputs":[{"name":"token","type":"address","indexed":true,"internalType":"address"},{"name":"poolFee","type":"uint24","indexed":false,"internalType":"uint24"}],"anonymous":false},{"type":"event","name":"Unpaused","inputs":[{"name":"account","type":"address","indexed":false,"internalType":"address"}],"anonymous":false},{"type":"error","name":"AccessControlBadConfirmation","inputs":[]},{"type":"error","name":"AccessControlUnauthorizedAccount","inputs":[{"name":"account","type":"address","internalType":"address"},{"name":"neededRole","type":"bytes32","internalType":"bytes32"}]},{"type":"error","name":"EnforcedPause","inputs":[]},{"type":"error","name":"ExpectedPause","inputs":[]},{"type":"error","name":"OnlyTimelock","inputs":[]},{"type":"error","name":"ReentrancyGuardReentrantCall","inputs":[]},{"type":"error","name":"SafeERC20FailedOperation","inputs":[{"name":"token","type":"address","internalType":"address"}]},{"type":"error","name":"ZeroTimelock","inputs":[]}],"bytecode":{"object":"0x610120604052348015610010575f80fd5b5060405161435138038061435183398101604081905261002f9161039d565b600180556001600160a01b03861661007f5760405162461bcd60e51b815260206004820152600e60248201526d24a72b20a624a22fa927aaaa22a960911b60448201526064015b60405180910390fd5b6001600160a01b0385166100c55760405162461bcd60e51b815260206004820152600d60248201526c1253959053125117d590555315609a1b6044820152606401610076565b6001600160a01b03841661010c5760405162461bcd60e51b815260206004820152600e60248201526d494e56414c49445f424f52524f5760901b6044820152606401610076565b6001600160a01b0383166101535760405162461bcd60e51b815260206004820152600e60248201526d494e56414c49445f4f5241434c4560901b6044820152606401610076565b6001600160a01b0382166101985760405162461bcd60e51b815260206004820152600c60248201526b1253959053125117d35554d160a21b6044820152606401610076565b6001600160a01b0380871660805285811660a05284811660c05283811660e052821661010052600a60035568056bc75e2d631000006004556005805462ffffff1916610bb81790556064600655601e6007556101f38161025f565b6101fd5f336102d9565b506102287f427855f733824e80f1903e866c2bc2b809f56d807872951b042888b504f9cbb1336102d9565b506102537f65d7a28e3265b37a6474929f336521b332c1681b933f6cb9f3376673440d862a336102d9565b5050505050505061040d565b6001600160a01b038116610286576040516350c0eb2960e11b815260040160405180910390fd5b60028054610100600160a81b0319166101006001600160a01b038416908102919091179091556040515f907fae97011a27b5efe7b1d76fe38e75cc498fd64cc24e407a9c6b2185d27f611f7e908290a350565b5f828152602081815260408083206001600160a01b038516845290915281205460ff16610379575f838152602081815260408083206001600160a01b03861684529091529020805460ff191660011790556103313390565b6001600160a01b0316826001600160a01b0316847f2f8788117e7eff1d82e926ec794901d17c78024a50270940304540a733656f0d60405160405180910390a450600161037c565b505f5b92915050565b80516001600160a01b0381168114610398575f80fd5b919050565b5f805f805f8060c087890312156103b2575f80fd5b6103bb87610382565b95506103c960208801610382565b94506103d760408801610382565b93506103e560608801610382565b92506103f360808801610382565b915061040160a08801610382565b90509295509295509295565b60805160a05160c05160e05161010051613db06105a15f395f818161063701528181610cf001528181610d2501528181610e090152818161193001528181611b9a01528181611dfa01528181611e9a015281816127150152818161280f01528181613358015281816134cb01528181613556015261363a01525f81816103c60152818161116401528181612e740152818161323f01526137d201525f818161039f01528181610c2001528181610d4701528181610d8301528181611ada01528181611bbc01528181611bf801528181611c72015281816121fe01528181612485015281816127370152818161277301528181612f7f015261305701525f818161027001528181610e5901528181610ee3015281816110ab0152818161142201528181611579015281816115ca015281816119c501528181611a4d0152818161251a0152818161263e01528181612863015281816128ed01528181613136015261318901525f8181610607015281816132ea015281816133b7015281816134ed015281816135ba015261365c0152613db05ff3fe608060405234801561000f575f80fd5b506004361061023f575f3560e01c806391d1485411610135578063c31c9c07116100b4578063d547741f11610079578063d547741f14610684578063e63ab1e914610697578063eb69ec5b146106be578063f4a695ff146106d1578063f54ab359146106e4575f80fd5b8063c31c9c0714610602578063c4aa739514610629578063cab666d014610632578063d3127e6314610659578063d33219b41461066c575f80fd5b8063a61165bf116100fa578063a61165bf14610588578063ae920b06146105b6578063b09789d8146105c9578063bdacb303146105dc578063c272a435146105ef575f80fd5b806391d148541461051f5780639eae8aac14610532578063a217fddf14610545578063a26ed5931461054c578063a2beceaa14610574575f80fd5b80632f2ff15d116101c1578063551512de11610186578063551512de1461045757806355f575101461046a5780635c975abb146104fd5780636f60a6dd146105085780638456cb5914610517575f80fd5b80632f2ff15d146103e857806336568abe146103fb5780633f4ba83a1461040e5780634213bc8f14610416578063462846431461041f575f80fd5b80631c1276c3116102075780631c1276c31461035057806323e27a6414610365578063248a9ca31461037857806325384fd81461039a5780632630c12f146103c1575f80fd5b806301ffc9a7146102435780630bece79c1461026b5780630bf7dbb2146102aa57806314ffaf3e146102c157806316c19739146102e3575b5f80fd5b61025661025136600461385d565b6106ed565b60405190151581526020015b60405180910390f35b6102927f000000000000000000000000000000000000000000000000000000000000000081565b6040516001600160a01b039091168152602001610262565b6102b360045481565b604051908152602001610262565b6102566102cf36600461389a565b60096020525f908152604090205460ff1681565b6102f66102f136600461389a565b610723565b604051610262919081516001600160a01b031681526020808301519082015260408083015190820152606080830151908201526080808301519082015260a0828101519082015260c0918201519181019190915260e00190565b61036361035e3660046138c5565b6107d3565b005b61036361037336600461389a565b610927565b6102b36103863660046138f6565b5f9081526020819052604090206001015490565b6102927f000000000000000000000000000000000000000000000000000000000000000081565b6102927f000000000000000000000000000000000000000000000000000000000000000081565b6103636103f636600461390d565b610987565b61036361040936600461390d565b6109b1565b6103636109e9565b6102b360035481565b61044361042d36600461389a565b60086020525f908152604090205462ffffff1681565b60405162ffffff9091168152602001610262565b61036361046536600461392e565b6109fe565b6104be61047836600461389a565b600a6020525f908152604090208054600182015460028301546003840154600485015460058601546006909601546001600160a01b039095169593949293919290919087565b604080516001600160a01b0390981688526020880196909652948601939093526060850191909152608084015260a083015260c082015260e001610262565b60025460ff16610256565b6005546104439062ffffff1681565b610363610b61565b61025661052d36600461390d565b610b93565b6102b36105403660046138f6565b610bbb565b6102b35f81565b61055f61055a366004613967565b611084565b60408051928352602083019190915201610262565b6102b35f80516020613d5b83398151915281565b61059b610596366004613997565b61127a565b60408051938452602084019290925290820152606001610262565b6103636105c43660046139dd565b611818565b6103636105d7366004613a05565b611f83565b6103636105ea36600461389a565b612120565b6102b36105fd36600461389a565b6121dd565b6102927f000000000000000000000000000000000000000000000000000000000000000081565b6102b360065481565b6102927f000000000000000000000000000000000000000000000000000000000000000081565b6103636106673660046138f6565b612269565b6002546102929061010090046001600160a01b031681565b61036361069236600461390d565b61231b565b6102b37f65d7a28e3265b37a6474929f336521b332c1681b933f6cb9f3376673440d862a81565b6102b36106cc36600461389a565b61233f565b6102b36106df366004613a3f565b6123de565b6102b360075481565b5f6001600160e01b03198216637965db0b60e01b148061071d57506301ffc9a760e01b6001600160e01b03198316145b92915050565b6107656040518060e001604052805f6001600160a01b031681526020015f81526020015f81526020015f81526020015f81526020015f81526020015f81525090565b506001600160a01b039081165f908152600a6020908152604091829020825160e081018452815490941684526001810154918401919091526002810154918301919091526003810154606083015260048101546080830152600581015460a08301526006015460c082015290565b5f80516020613d5b8339815191526107ea81612af4565b6001600160a01b0383166108355760405162461bcd60e51b815260206004820152600d60248201526c24a72b20a624a22faa27a5a2a760991b60448201526064015b60405180910390fd5b8162ffffff166064148061084f57508162ffffff166101f4145b8061086057508162ffffff16610bb8145b8061087157508162ffffff16612710145b6108b05760405162461bcd60e51b815260206004820152601060248201526f24a72b20a624a22fa322a2afaa24a2a960811b604482015260640161082c565b6001600160a01b0383165f818152600960209081526040808320805460ff191660011790556008825291829020805462ffffff871662ffffff19909116811790915591519182527f302ef2dc908ca81f40825b1491cc6df1d795f69868c824651c1092c5f79859e7910160405180910390a2505050565b5f80516020613d5b83398151915261093e81612af4565b6001600160a01b0382165f81815260096020526040808220805460ff19169055517f1fac2d788f45089e4f2b9e3484b1163143fdeab5eb480ab9a44b459d2dc476a29190a25050565b5f828152602081905260409020600101546109a181612af4565b6109ab8383612afe565b50505050565b6001600160a01b03811633146109da5760405163334bd91960e11b815260040160405180910390fd5b6109e48282612b8d565b505050565b5f6109f381612af4565b6109fb612bf6565b50565b60025461010090046001600160a01b03163314610a2e57604051630e05f48560e11b815260040160405180910390fd5b6001600160a01b038316610a745760405162461bcd60e51b815260206004820152600d60248201526c24a72b20a624a22faa27a5a2a760991b604482015260640161082c565b5f8211610ab15760405162461bcd60e51b815260206004820152600b60248201526a16915493d7d05353d5539560aa1b604482015260640161082c565b6001600160a01b038116610afb5760405162461bcd60e51b81526020600482015260116024820152701253959053125117d49150d25412515395607a1b604482015260640161082c565b610b0f6001600160a01b0384168284612c48565b806001600160a01b0316836001600160a01b03167f705bce6bcba14b7258454b7a309606c23fb8bc0fb94ec1765a4c0a12d7c758c784604051610b5491815260200190565b60405180910390a3505050565b7f65d7a28e3265b37a6474929f336521b332c1681b933f6cb9f3376673440d862a610b8b81612af4565b6109fb612ca0565b5f918252602082815260408084206001600160a01b0393909316845291905290205460ff1690565b5f610bc4612cdd565b610bcc612d07565b335f908152600a602052604090206002810154610bfb5760405162461bcd60e51b815260040161082c90613a68565b8054604051631ff517ff60e01b81523360048201526001600160a01b03918216915f917f000000000000000000000000000000000000000000000000000000000000000090911690631ff517ff90602401602060405180830381865afa158015610c67573d5f803e3d5ffd5b505050506040513d601f19601f82011682018060405250810190610c8b9190613a8d565b90508015610e325780851015610ce35760405162461bcd60e51b815260206004820152601a60248201527f494e53554646494349454e545f4d5553445f50524f5649444544000000000000604482015260640161082c565b610d186001600160a01b037f000000000000000000000000000000000000000000000000000000000000000016333088612d2d565b610d6c6001600160a01b037f0000000000000000000000000000000000000000000000000000000000000000167f000000000000000000000000000000000000000000000000000000000000000083612d66565b6040516311d13b1160e11b81526001600160a01b037f000000000000000000000000000000000000000000000000000000000000000016906323a2762290610dba9033908590600401613aa4565b5f604051808303815f87803b158015610dd1575f80fd5b505af1158015610de3573d5f803e3d5ffd5b505050505f8186610df49190613ad1565b90508015610e3057610e306001600160a01b037f0000000000000000000000000000000000000000000000000000000000000000163383612c48565b505b6040516347b00fb360e11b81523360048201526001600160a01b0383811660248301525f917f000000000000000000000000000000000000000000000000000000000000000090911690638f601f6690604401602060405180830381865afa158015610ea0573d5f803e3d5ffd5b505050506040513d601f19601f82011682018060405250810190610ec49190613a8d565b90508015610f4f5760405163071ea3e360e01b81526001600160a01b037f0000000000000000000000000000000000000000000000000000000000000000169063071ea3e390610f21903390879086908390600190600401613ae4565b5f604051808303815f87803b158015610f38575f80fd5b505af1158015610f4a573d5f803e3d5ffd5b505050505b6040516370a0823160e01b81523060048201525f906001600160a01b038516906370a0823190602401602060405180830381865afa158015610f93573d5f803e3d5ffd5b505050506040513d601f19601f82011682018060405250810190610fb79190613a8d565b90508015610fd357610fd36001600160a01b0385163383612c48565b610fdd8183613b17565b60408051828152602081018690529081018990529096506001600160a01b0385169033907f8729f84210551f1aed05435f51e2ccc18780d9ac85446bb7284d553c947e7c809060600160405180910390a35050335f908152600a6020526040812080546001600160a01b031916815560018101829055600281018290556003810182905560048101829055600581018290556006015550505061107f60018055565b919050565b60405163e48a5f7b60e01b81526001600160a01b0384811660048301525f918291829182917f0000000000000000000000000000000000000000000000000000000000000000169063e48a5f7b90602401608060405180830381865afa1580156110f0573d5f803e3d5ffd5b505050506040513d601f19601f820116820180604052508101906111149190613b2a565b5050915091508161112c575f80935093505050611272565b80865f805b60035481101561126a575f8a61114885600a613b6a565b6111529190613b81565b9050898110611161575061126a565b5f7f00000000000000000000000000000000000000000000000000000000000000006001600160a01b031663b7f876448e876040518363ffffffff1660e01b81526004016111b0929190613aa4565b602060405180830381865afa1580156111cb573d5f803e3d5ffd5b505050506040513d601f19601f820116820180604052508101906111ef9190613a8d565b90505f846127106112008985613b6a565b61120a9190613b81565b6112149190613ad1565b90506004548110156112285750505061126a565b5f6112338f83612dfc565b905061123f8188613b17565b965061124b8287613b17565b95508b61125781613ba0565b9c50506001909401935061113192505050565b509450505050505b935093915050565b5f805f611285612cdd565b61128d612d07565b4284116112cf5760405162461bcd60e51b815260206004820152601060248201526f455850495245445f444541444c494e4560801b604482015260640161082c565b6001600160a01b0389165f9081526009602052604090205460ff1661132a5760405162461bcd60e51b81526020600482015260116024820152701513d2d15397d393d517d1539050931151607a1b604482015260640161082c565b5f881161136a5760405162461bcd60e51b815260206004820152600e60248201526d1253959053125117d05353d5539560921b604482015260640161082c565b600a8710156113ae5760405162461bcd60e51b815260206004820152601060248201526f4c455645524147455f544f4f5f4c4f5760801b604482015260640161082c565b335f908152600a6020526040902060020154156113ff5760405162461bcd60e51b815260206004820152600f60248201526e504f534954494f4e5f45584953545360881b604482015260640161082c565b60405163e48a5f7b60e01b81526001600160a01b038a811660048301525f9182917f0000000000000000000000000000000000000000000000000000000000000000169063e48a5f7b90602401608060405180830381865afa158015611467573d5f803e3d5ffd5b505050506040513d601f19601f8201168201806040525081019061148b9190613b2a565b505091509150816114d75760405162461bcd60e51b815260206004820152601660248201527510d3d31310551154905317d393d517d153905093115160521b604482015260640161082c565b5f6114e482612710613ad1565b6114f190620186a0613b81565b90505f600754821061150557600754611507565b815b9050808b11156115505760405162461bcd60e51b81526020600482015260146024820152730988aac8aa4828e8abe8ab0868a8a88a6be9a82b60631b604482015260640161082c565b5061156a925050506001600160a01b038a1633308b612d2d565b61159e6001600160a01b038a167f00000000000000000000000000000000000000000000000000000000000000008a612d66565b60405163b3db428b60e01b81523360048201526001600160a01b038a81166024830152604482018a90527f0000000000000000000000000000000000000000000000000000000000000000169063b3db428b906064015f604051808303815f87803b15801561160b575f80fd5b505af115801561161d573d5f803e3d5ffd5b505050505f80871161163157600354611633565b865b905060035481111561164457506003545b5f86156116515786611655565b6006545b90506006548111156116a55760405162461bcd60e51b81526020600482015260196024820152780aaa68aa4bea69892a0a0828e8abe8ab0868a8a88a6be9a82b603b1b604482015260640161082c565b6116b4338c8c8c86868c612f32565b8095508196508297505050506040518060e001604052808c6001600160a01b031681526020018b81526020018681526020018581526020018481526020018a815260200142815250600a5f336001600160a01b03166001600160a01b031681526020019081526020015f205f820151815f015f6101000a8154816001600160a01b0302191690836001600160a01b031602179055506020820151816001015560408201518160020155606082015181600301556080820151816004015560a0820151816005015560c082015181600601559050505f8a86600a6117979190613b6a565b6117a19190613b81565b604080518d81526020810189905290810187905260608101869052608081018290529091506001600160a01b038d169033907f223299f817ca1801d60b5d9826902fbdced9c1bf1341fa90fe953ec5645503ba9060a00160405180910390a350505061180c60018055565b96509650969350505050565b5f61182281612af4565b61182a612cdd565b6107d08211156118695760405162461bcd60e51b815260206004820152600a60248201526913505617cc8c17d410d560b21b604482015260640161082c565b6001600160a01b0383165f908152600a6020526040902060028101546118a15760405162461bcd60e51b815260040161082c90613a68565b80546040516370a0823160e01b81523060048201526001600160a01b03909116905f9082906370a0823190602401602060405180830381865afa1580156118ea573d5f803e3d5ffd5b505050506040513d601f19601f8201168201806040525081019061190e9190613a8d565b6040516370a0823160e01b81523060048201529091505f906001600160a01b037f000000000000000000000000000000000000000000000000000000000000000016906370a0823190602401602060405180830381865afa158015611975573d5f803e3d5ffd5b505050506040513d601f19601f820116820180604052508101906119999190613a8d565b6040516347b00fb360e11b81526001600160a01b03898116600483015285811660248301529192505f917f00000000000000000000000000000000000000000000000000000000000000001690638f601f6690604401602060405180830381865afa158015611a0a573d5f803e3d5ffd5b505050506040513d601f19601f82011682018060405250810190611a2e9190613a8d565b90508015611ab95760405163071ea3e360e01b81526001600160a01b037f0000000000000000000000000000000000000000000000000000000000000000169063071ea3e390611a8b908b90889086903090600190600401613ae4565b5f604051808303815f87803b158015611aa2575f80fd5b505af1158015611ab4573d5f803e3d5ffd5b505050505b604051631ff517ff60e01b81526001600160a01b0389811660048301525f917f000000000000000000000000000000000000000000000000000000000000000090911690631ff517ff90602401602060405180830381865afa158015611b21573d5f803e3d5ffd5b505050506040513d601f19601f82011682018060405250810190611b459190613a8d565b90505f8082118015611b5657505f83115b15611d34575f611b7387858c611b6e42610e10613b17565b613217565b90508015611d2e575f838210611b895783611b8b565b815b9050611be16001600160a01b037f0000000000000000000000000000000000000000000000000000000000000000167f000000000000000000000000000000000000000000000000000000000000000083612d66565b6040516311d13b1160e11b81526001600160a01b037f000000000000000000000000000000000000000000000000000000000000000016906323a2762290611c2f908f908590600401613aa4565b5f604051808303815f87803b158015611c46575f80fd5b505af1925050508015611c57575060015b611d275760405163807d3f1d60e01b81526001600160a01b037f0000000000000000000000000000000000000000000000000000000000000000169063807d3f1d90611ca9908f908590600401613aa4565b5f604051808303815f87803b158015611cc0575f80fd5b505af1925050508015611cd1575060015b611d1e5760408051828152602081018490526001600160a01b038e16917f5313396e11e666f46254aeab0800891795f321d17f68849558f3bda3d7856673910160405180910390a2611d2c565b60019250611d2c565b600192505b505b50611d3f565b815f03611d3f575060015b8015611ec6576040516370a0823160e01b81523060048201525f906001600160a01b038816906370a0823190602401602060405180830381865afa158015611d89573d5f803e3d5ffd5b505050506040513d601f19601f82011682018060405250810190611dad9190613a8d565b90505f868211611dbd575f611dc7565b611dc78783613ad1565b90508015611de357611de36001600160a01b0389168d83612c48565b6040516370a0823160e01b81523060048201525f907f00000000000000000000000000000000000000000000000000000000000000006001600160a01b0316906370a0823190602401602060405180830381865afa158015611e47573d5f803e3d5ffd5b505050506040513d601f19601f82011682018060405250810190611e6b9190613a8d565b90505f878211611e7b575f611e85565b611e858883613ad1565b90508015611ec157611ec16001600160a01b037f0000000000000000000000000000000000000000000000000000000000000000168f83612c48565b505050505b856001600160a01b03168a6001600160a01b03167fa50e37d33076a6fe8012434e43b10e680649c52738c9e3e249e336bf5ccd3c1c5f855f604051611f1e939291909283526020830191909152604082015260600190565b60405180910390a35050506001600160a01b0387165f908152600a6020526040812080546001600160a01b0319168155600181018290556002810182905560038101829055600481018290556005810182905560060155506109e49250612df6915050565b5f80516020613d5b833981519152611f9a81612af4565b5f85118015611faa575060148511155b611fea5760405162461bcd60e51b8152602060048201526011602482015270494e56414c49445f4d41585f4c4f4f505360781b604482015260640161082c565b6101f48211156120305760405162461bcd60e51b81526020600482015260116024820152700a69892a0a0828e8abea89e9ebe90928e9607b1b604482015260640161082c565b8262ffffff166064148061204a57508262ffffff166101f4145b8061205b57508262ffffff16610bb8145b8061206c57508262ffffff16612710145b6120ab5760405162461bcd60e51b815260206004820152601060248201526f24a72b20a624a22fa322a2afaa24a2a960811b604482015260640161082c565b600385905560048490556005805462ffffff191662ffffff85169081179091556006839055604080518781526020810187905290810191909152606081018390527f5fb8f8a1a7d8752cbcffaa22bf823f658a7b9b9c05f4aa6d682e8eed5c1b56e29060800160405180910390a15050505050565b60025461010090046001600160a01b0316331461215057604051630e05f48560e11b815260040160405180910390fd5b6001600160a01b038116612177576040516350c0eb2960e11b815260040160405180910390fd5b6002546040516001600160a01b0380841692610100900416907fae97011a27b5efe7b1d76fe38e75cc498fd64cc24e407a9c6b2185d27f611f7e905f90a3600280546001600160a01b0390921661010002610100600160a81b0319909216919091179055565b604051631ff517ff60e01b81526001600160a01b0382811660048301525f917f000000000000000000000000000000000000000000000000000000000000000090911690631ff517ff90602401602060405180830381865afa158015612245573d5f803e3d5ffd5b505050506040513d601f19601f8201168201806040525081019061071d9190613a8d565b5f80516020613d5b83398151915261228081612af4565b600a8210158015612292575060288211155b6122d55760405162461bcd60e51b8152602060048201526014602482015273494e56414c49445f4d41585f4c4556455241474560601b604482015260640161082c565b600780549083905560408051828152602081018590527fc40265c19866109dc8f33bf7b08b628b97728ad445b658e40153023e3800255c910160405180910390a1505050565b5f8281526020819052604090206001015461233581612af4565b6109ab8383612b8d565b6001600160a01b038082165f908152600a60209081526040808320815160e0810183528154909516855260018101549285018390526002810154918501919091526003810154606085015260048101546080850152600581015460a08501526006015460c084015290919082036123b857505f92915050565b602081015160408201516123cd90600a613b6a565b6123d79190613b81565b9392505050565b5f6123e7612cdd565b6123ef612d07565b4282116124315760405162461bcd60e51b815260206004820152601060248201526f455850495245445f444541444c494e4560801b604482015260640161082c565b335f908152600a6020526040902060028101546124605760405162461bcd60e51b815260040161082c90613a68565b8054604051631ff517ff60e01b81523360048201526001600160a01b03918216915f917f000000000000000000000000000000000000000000000000000000000000000090911690631ff517ff90602401602060405180830381865afa1580156124cc573d5f803e3d5ffd5b505050506040513d601f19601f820116820180604052508101906124f09190613a8d565b6040516347b00fb360e11b81523360048201526001600160a01b0384811660248301529192505f917f00000000000000000000000000000000000000000000000000000000000000001690638f601f6690604401602060405180830381865afa15801561255f573d5f803e3d5ffd5b505050506040513d601f19601f820116820180604052508101906125839190613a8d565b90505f87156125925787612596565b6006545b90506006548111156125e65760405162461bcd60e51b81526020600482015260196024820152780aaa68aa4bea69892a0a0828e8abe8ab0868a8a88a6be9a82b603b1b604482015260640161082c565b821561283c575f6125f78585612dfc565b90506127106126068382613b17565b6126109083613b6a565b61261a9190613b81565b9050828111156126275750815b60405163071ea3e360e01b81526001600160a01b037f0000000000000000000000000000000000000000000000000000000000000000169063071ea3e39061267c903390899086903090600190600401613ae4565b5f604051808303815f87803b158015612693575f80fd5b505af11580156126a5573d5f803e3d5ffd5b505050505f6126b68683858c613217565b9050848110156127085760405162461bcd60e51b815260206004820152601b60248201527f494e53554646494349454e545f4d5553445f46524f4d5f535741500000000000604482015260640161082c565b61275c6001600160a01b037f0000000000000000000000000000000000000000000000000000000000000000167f000000000000000000000000000000000000000000000000000000000000000087612d66565b6040516311d13b1160e11b81526001600160a01b037f000000000000000000000000000000000000000000000000000000000000000016906323a27622906127aa9033908990600401613aa4565b5f604051808303815f87803b1580156127c1575f80fd5b505af11580156127d3573d5f803e3d5ffd5b505050505f85826127e49190613ad1565b90508015612838575f6127f98883878e61347e565b9050805f03612836576128366001600160a01b037f0000000000000000000000000000000000000000000000000000000000000000163384612c48565b505b5050505b6040516347b00fb360e11b81523360048201526001600160a01b0385811660248301525f917f000000000000000000000000000000000000000000000000000000000000000090911690638f601f6690604401602060405180830381865afa1580156128aa573d5f803e3d5ffd5b505050506040513d601f19601f820116820180604052508101906128ce9190613a8d565b905080156129595760405163071ea3e360e01b81526001600160a01b037f0000000000000000000000000000000000000000000000000000000000000000169063071ea3e39061292b903390899086908390600190600401613ae4565b5f604051808303815f87803b158015612942575f80fd5b505af1158015612954573d5f803e3d5ffd5b505050505b6040516370a0823160e01b81523060048201525f906001600160a01b038716906370a0823190602401602060405180830381865afa15801561299d573d5f803e3d5ffd5b505050506040513d601f19601f820116820180604052508101906129c19190613a8d565b905080156129ea576129dd6001600160a01b0387163383612c48565b6129e78183613b17565b91505b8a821015612a2e5760405162461bcd60e51b815260206004820152601160248201527014d31254141051d157d15610d151511151607a1b604482015260640161082c565b8197505f876001015489612a429190613bb8565b90506001600160a01b038716337fa50e37d33076a6fe8012434e43b10e680649c52738c9e3e249e336bf5ccd3c1c8b895f861215612a80575f612a82565b855b6040805193845260208401929092529082015260600160405180910390a35050335f908152600a6020526040812080546001600160a01b03191681556001810182905560028101829055600381018290556004810182905560058101829055600601555050505050506123d760018055565b6109fb8133613695565b5f612b098383610b93565b612b86575f838152602081815260408083206001600160a01b03861684529091529020805460ff19166001179055612b3e3390565b6001600160a01b0316826001600160a01b0316847f2f8788117e7eff1d82e926ec794901d17c78024a50270940304540a733656f0d60405160405180910390a450600161071d565b505f61071d565b5f612b988383610b93565b15612b86575f838152602081815260408083206001600160a01b0386168085529252808320805460ff1916905551339286917ff6391f5c32d9c69d2a47ea670b442974b53935d1edc7fd64eb21e047a839171b9190a450600161071d565b612bfe6136c4565b6002805460ff191690557f5db9ee0a495bf2e6ff9c91a7834c1ba4fdd244a5e8aa4e537bd38aeae4b073aa335b6040516001600160a01b03909116815260200160405180910390a1565b6109e483846001600160a01b031663a9059cbb8585604051602401612c6e929190613aa4565b604051602081830303815290604052915060e01b6020820180516001600160e01b0383818316178352505050506136e7565b612ca8612d07565b6002805460ff191660011790557f62e78cea01bee320cd4e420270b5ea74000d11b0c9f74754ebdbfc544b05a258612c2b3390565b600260015403612d0057604051633ee5aeb560e01b815260040160405180910390fd5b6002600155565b60025460ff1615612d2b5760405163d93c066560e01b815260040160405180910390fd5b565b6040516001600160a01b0384811660248301528381166044830152606482018390526109ab9186918216906323b872dd90608401612c6e565b5f836001600160a01b031663095ea7b38484604051602401612d89929190613aa4565b604051602081830303815290604052915060e01b6020820180516001600160e01b0383818316178352505050509050612dc28482613753565b6109ab57612dec84856001600160a01b031663095ea7b3865f604051602401612c6e929190613aa4565b6109ab84826136e7565b60018055565b5f80836001600160a01b031663313ce5676040518163ffffffff1660e01b8152600401602060405180830381865afa158015612e3a573d5f803e3d5ffd5b505050506040513d601f19601f82011682018060405250810190612e5e9190613bde565b60ff1690505f612e6f82600a613cd9565b90505f7f00000000000000000000000000000000000000000000000000000000000000006001600160a01b031663b7f8764487846040518363ffffffff1660e01b8152600401612ec0929190613aa4565b602060405180830381865afa158015612edb573d5f803e3d5ffd5b505050506040513d601f19601f82011682018060405250810190612eff9190613a8d565b9050805f03612f13575f935050505061071d565b80612f1e8387613b6a565b612f289190613b81565b9695505050505050565b845f80805b86811015613209578789612f4c86600a613b6a565b612f569190613b81565b1015613209576040516397a9d45760e01b81526001600160a01b038c811660048301525f9182917f000000000000000000000000000000000000000000000000000000000000000016906397a9d45790602401602060405180830381865afa158015612fc4573d5f803e3d5ffd5b505050506040513d601f19601f82011682018060405250810190612fe89190613a8d565b9050600454811015612ffb575050613209565b6130078b878c8f613798565b9150848211613016575f613020565b6130208583613ad1565b91508082111561302e578091505b60045482101561303f575050613209565b5060405163e9a1183d60e01b81526001600160a01b037f0000000000000000000000000000000000000000000000000000000000000000169063e9a1183d9061308e908f908590600401613aa4565b5f604051808303815f87803b1580156130a5575f80fd5b505af11580156130b7573d5f803e3d5ffd5b5050505080846130c79190613b17565b93505f6130d68c838a8a61347e565b90505f81116131275760405162461bcd60e51b815260206004820152601960248201527f535741505f4641494c45445f4f525048414e45445f4445425400000000000000604482015260640161082c565b61315b6001600160a01b038d167f000000000000000000000000000000000000000000000000000000000000000083612d66565b60405163b3db428b60e01b81526001600160a01b038e811660048301528d81166024830152604482018390527f0000000000000000000000000000000000000000000000000000000000000000169063b3db428b906064015f604051808303815f87803b1580156131ca575f80fd5b505af11580156131dc573d5f803e3d5ffd5b5050505080866131ec9190613b17565b9550836131f881613ba0565b94505060019092019150612f379050565b509750975097945050505050565b5f835f0361322657505f613476565b604051632dfe1d9160e21b81525f906001600160a01b037f0000000000000000000000000000000000000000000000000000000000000000169063b7f87644906132769089908990600401613aa4565b602060405180830381865afa158015613291573d5f803e3d5ffd5b505050506040513d601f19601f820116820180604052508101906132b59190613a8d565b90505f6127106132c58682613ad1565b6132cf9084613b6a565b6132d99190613b81565b905061330f6001600160a01b0388167f000000000000000000000000000000000000000000000000000000000000000088612d66565b6001600160a01b0387165f9081526008602052604081205462ffffff169081900361333e575060055462ffffff165b60408051610100810182526001600160a01b038a811682527f00000000000000000000000000000000000000000000000000000000000000008116602083015262ffffff8416828401523060608301526080820188905260a082018a905260c082018590525f60e0830152915163414bf38960e01b81527f00000000000000000000000000000000000000000000000000000000000000009092169163414bf389916133ec91600401613ce4565b6020604051808303815f875af1158015613408573d5f803e3d5ffd5b505050506040513d601f19601f8201168201806040525081019061342c9190613a8d565b93505f84116134725760405162461bcd60e51b8152602060048201526012602482015271535741505f52455455524e45445f5a45524f60701b604482015260640161082c565b5050505b949350505050565b5f835f0361348d57505f613476565b5f6134988686612dfc565b90505f6127106134a88682613ad1565b6134b29084613b6a565b6134bc9190613b81565b90506135126001600160a01b037f0000000000000000000000000000000000000000000000000000000000000000167f000000000000000000000000000000000000000000000000000000000000000088612d66565b6001600160a01b0387165f9081526008602052604081205462ffffff1690819003613541575060055462ffffff165b60408051610100810182526001600160a01b037f0000000000000000000000000000000000000000000000000000000000000000811682528a8116602083015262ffffff8416828401523060608301526080820188905260a082018a905260c082018590525f60e0830152915163414bf38960e01b81527f00000000000000000000000000000000000000000000000000000000000000009092169163414bf389916135ef91600401613ce4565b6020604051808303815f875af1925050508015613629575060408051601f3d908101601f1916820190925261362691810190613a8d565b60015b613689576136816001600160a01b037f0000000000000000000000000000000000000000000000000000000000000000167f00000000000000000000000000000000000000000000000000000000000000005f612d66565b5f9350613472565b98975050505050505050565b61369f8282610b93565b6136c057808260405163e2517d3f60e01b815260040161082c929190613aa4565b5050565b60025460ff16612d2b57604051638dfc202b60e01b815260040160405180910390fd5b5f8060205f8451602086015f885af180613706576040513d5f823e3d81fd5b50505f513d9150811561371d57806001141561372a565b6001600160a01b0384163b155b156109ab57604051635274afe760e01b81526001600160a01b038516600482015260240161082c565b5f805f8060205f8651602088015f8a5af192503d91505f519050828015612f28575081156137845780600114612f28565b50505050506001600160a01b03163b151590565b5f80600a6137a68588613b6a565b6137b09190613b81565b90508085106137c2575f915050613476565b5f6137cd8683613ad1565b90505f7f00000000000000000000000000000000000000000000000000000000000000006001600160a01b031663b7f8764486846040518363ffffffff1660e01b815260040161381e929190613aa4565b602060405180830381865afa158015613839573d5f803e3d5ffd5b505050506040513d601f19601f820116820180604052508101906136899190613a8d565b5f6020828403121561386d575f80fd5b81356001600160e01b0319811681146123d7575f80fd5b80356001600160a01b038116811461107f575f80fd5b5f602082840312156138aa575f80fd5b6123d782613884565b803562ffffff8116811461107f575f80fd5b5f80604083850312156138d6575f80fd5b6138df83613884565b91506138ed602084016138b3565b90509250929050565b5f60208284031215613906575f80fd5b5035919050565b5f806040838503121561391e575f80fd5b823591506138ed60208401613884565b5f805f60608486031215613940575f80fd5b61394984613884565b92506020840135915061395e60408501613884565b90509250925092565b5f805f60608486031215613979575f80fd5b61398284613884565b95602085013595506040909401359392505050565b5f805f805f8060c087890312156139ac575f80fd5b6139b587613884565b9860208801359850604088013597606081013597506080810135965060a00135945092505050565b5f80604083850312156139ee575f80fd5b6139f783613884565b946020939093013593505050565b5f805f8060808587031215613a18575f80fd5b8435935060208501359250613a2f604086016138b3565b9396929550929360600135925050565b5f805f60608486031215613a51575f80fd5b505081359360208301359350604090920135919050565b6020808252600b908201526a2727afa827a9a4aa24a7a760a91b604082015260600190565b5f60208284031215613a9d575f80fd5b5051919050565b6001600160a01b03929092168252602082015260400190565b634e487b7160e01b5f52601160045260245ffd5b8181038181111561071d5761071d613abd565b6001600160a01b039586168152938516602085015260408401929092529092166060820152901515608082015260a00190565b8082018082111561071d5761071d613abd565b5f805f8060808587031215613b3d575f80fd5b84518015158114613b4c575f80fd5b60208601516040870151606090970151919890975090945092505050565b808202811582820484141761071d5761071d613abd565b5f82613b9b57634e487b7160e01b5f52601260045260245ffd5b500490565b5f60018201613bb157613bb1613abd565b5060010190565b8181035f831280158383131683831282161715613bd757613bd7613abd565b5092915050565b5f60208284031215613bee575f80fd5b815160ff811681146123d7575f80fd5b6001815b600184111561127257808504811115613c1d57613c1d613abd565b6001841615613c2b57908102905b60019390931c928002613c02565b5f82613c475750600161071d565b81613c5357505f61071d565b8160018114613c695760028114613c7357613c8f565b600191505061071d565b60ff841115613c8457613c84613abd565b50506001821b61071d565b5060208310610133831016604e8410600b8410161715613cb2575081810a61071d565b613cbe5f198484613bfe565b805f1904821115613cd157613cd1613abd565b029392505050565b5f6123d78383613c39565b81516001600160a01b03908116825260208084015182169083015260408084015162ffffff169083015260608084015191821690830152610100820190506080830151608083015260a083015160a083015260c083015160c083015260e0830151613bd760e08401826001600160a01b0316905256fe427855f733824e80f1903e866c2bc2b809f56d807872951b042888b504f9cbb1a2646970667358221220fabf0bd357474616a8409844cd49cb638663cc8b3b1d029b43cb6bf60811412164736f6c634300081a0033","linkReferences":{}},"methodIdentifiers":{"DEFAULT_ADMIN_ROLE()":"a217fddf","LEVERAGE_ADMIN_ROLE()":"a2beceaa","PAUSER_ROLE()":"e63ab1e9","borrowModule()":"25384fd8","closeLeveragedPosition(uint256,uint256,uint256)":"f4a695ff","closeLeveragedPositionWithMusd(uint256)":"9eae8aac","collateralVault()":"0bece79c","defaultPoolFee()":"6f60a6dd","disableToken(address)":"23e27a64","emergencyClosePosition(address,uint256)":"ae920b06","emergencyWithdraw(address,uint256,address)":"551512de","enableToken(address,uint24)":"1c1276c3","estimateLoops(address,uint256,uint256)":"a26ed593","getEffectiveLeverage(address)":"eb69ec5b","getMusdNeededToClose(address)":"c272a435","getPosition(address)":"16c19739","getRoleAdmin(bytes32)":"248a9ca3","grantRole(bytes32,address)":"2f2ff15d","hasRole(bytes32,address)":"91d14854","leverageEnabled(address)":"14ffaf3e","maxLeverageX10()":"f54ab359","maxLoops()":"4213bc8f","maxSlippageBps()":"c4aa7395","minBorrowPerLoop()":"0bf7dbb2","musd()":"cab666d0","openLeveragedPosition(address,uint256,uint256,uint256,uint256,uint256)":"a61165bf","pause()":"8456cb59","paused()":"5c975abb","positions(address)":"55f57510","priceOracle()":"2630c12f","renounceRole(bytes32,address)":"36568abe","revokeRole(bytes32,address)":"d547741f","setConfig(uint256,uint256,uint24,uint256)":"b09789d8","setMaxLeverage(uint256)":"d3127e63","setTimelock(address)":"bdacb303","supportsInterface(bytes4)":"01ffc9a7","swapRouter()":"c31c9c07","timelock()":"d33219b4","tokenPoolFees(address)":"46284643","unpause()":"3f4ba83a"},"id":6}