{"abi":[{"type":"constructor","inputs":[{"name":"_swapRouter","type":"address","internalType":"address"},{"name":"_collateralVault","type":"address","internalType":"address"},{"name":"_borrowModule","type":"address","internalType":"address"},{"name":"_priceOracle","type":"address","internalType":"address"},{"name":"_musd","type":"address","internalType":"address"}],"stateMutability":"nonpayable"},{"type":"function","name":"DEFAULT_ADMIN_ROLE","inputs":[],"outputs":[{"name":"","type":"bytes32","internalType":"bytes32"}],"stateMutability":"view"},{"type":"function","name":"LEVERAGE_ADMIN_ROLE","inputs":[],"outputs":[{"name":"","type":"bytes32","internalType":"bytes32"}],"stateMutability":"view"},{"type":"function","name":"PAUSER_ROLE","inputs":[],"outputs":[{"name":"","type":"bytes32","internalType":"bytes32"}],"stateMutability":"view"},{"type":"function","name":"borrowModule","inputs":[],"outputs":[{"name":"","type":"address","internalType":"contract IBorrowModule"}],"stateMutability":"view"},{"type":"function","name":"closeLeveragedPosition","inputs":[{"name":"minCollateralOut","type":"uint256","internalType":"uint256"}],"outputs":[{"name":"collateralReturned","type":"uint256","internalType":"uint256"}],"stateMutability":"nonpayable"},{"type":"function","name":"closeLeveragedPositionWithMusd","inputs":[{"name":"musdAmount","type":"uint256","internalType":"uint256"}],"outputs":[{"name":"collateralReturned","type":"uint256","internalType":"uint256"}],"stateMutability":"nonpayable"},{"type":"function","name":"collateralVault","inputs":[],"outputs":[{"name":"","type":"address","internalType":"contract ICollateralVault"}],"stateMutability":"view"},{"type":"function","name":"defaultPoolFee","inputs":[],"outputs":[{"name":"","type":"uint24","internalType":"uint24"}],"stateMutability":"view"},{"type":"function","name":"disableToken","inputs":[{"name":"token","type":"address","internalType":"address"}],"outputs":[],"stateMutability":"nonpayable"},{"type":"function","name":"emergencyClosePosition","inputs":[{"name":"user","type":"address","internalType":"address"}],"outputs":[],"stateMutability":"nonpayable"},{"type":"function","name":"emergencyWithdraw","inputs":[{"name":"token","type":"address","internalType":"address"},{"name":"amount","type":"uint256","internalType":"uint256"}],"outputs":[],"stateMutability":"nonpayable"},{"type":"function","name":"enableToken","inputs":[{"name":"token","type":"address","internalType":"address"},{"name":"poolFee","type":"uint24","internalType":"uint24"}],"outputs":[],"stateMutability":"nonpayable"},{"type":"function","name":"estimateLoops","inputs":[{"name":"collateralToken","type":"address","internalType":"address"},{"name":"initialAmount","type":"uint256","internalType":"uint256"},{"name":"targetLeverageX10","type":"uint256","internalType":"uint256"}],"outputs":[{"name":"estimatedLoops","type":"uint256","internalType":"uint256"},{"name":"estimatedDebt","type":"uint256","internalType":"uint256"}],"stateMutability":"view"},{"type":"function","name":"getEffectiveLeverage","inputs":[{"name":"user","type":"address","internalType":"address"}],"outputs":[{"name":"leverageX10","type":"uint256","internalType":"uint256"}],"stateMutability":"view"},{"type":"function","name":"getMusdNeededToClose","inputs":[{"name":"user","type":"address","internalType":"address"}],"outputs":[{"name":"musdNeeded","type":"uint256","internalType":"uint256"}],"stateMutability":"view"},{"type":"function","name":"getPosition","inputs":[{"name":"user","type":"address","internalType":"address"}],"outputs":[{"name":"","type":"tuple","internalType":"struct LeverageVault.LeveragePosition","components":[{"name":"collateralToken","type":"address","internalType":"address"},{"name":"initialDeposit","type":"uint256","internalType":"uint256"},{"name":"totalCollateral","type":"uint256","internalType":"uint256"},{"name":"totalDebt","type":"uint256","internalType":"uint256"},{"name":"loopsExecuted","type":"uint256","internalType":"uint256"},{"name":"targetLeverageX10","type":"uint256","internalType":"uint256"},{"name":"openedAt","type":"uint256","internalType":"uint256"}]}],"stateMutability":"view"},{"type":"function","name":"getRoleAdmin","inputs":[{"name":"role","type":"bytes32","internalType":"bytes32"}],"outputs":[{"name":"","type":"bytes32","internalType":"bytes32"}],"stateMutability":"view"},{"type":"function","name":"grantRole","inputs":[{"name":"role","type":"bytes32","internalType":"bytes32"},{"name":"account","type":"address","internalType":"address"}],"outputs":[],"stateMutability":"nonpayable"},{"type":"function","name":"hasRole","inputs":[{"name":"role","type":"bytes32","internalType":"bytes32"},{"name":"account","type":"address","internalType":"address"}],"outputs":[{"name":"","type":"bool","internalType":"bool"}],"stateMutability":"view"},{"type":"function","name":"leverageEnabled","inputs":[{"name":"","type":"address","internalType":"address"}],"outputs":[{"name":"","type":"bool","internalType":"bool"}],"stateMutability":"view"},{"type":"function","name":"maxLeverageX10","inputs":[],"outputs":[{"name":"","type":"uint256","internalType":"uint256"}],"stateMutability":"view"},{"type":"function","name":"maxLoops","inputs":[],"outputs":[{"name":"","type":"uint256","internalType":"uint256"}],"stateMutability":"view"},{"type":"function","name":"maxSlippageBps","inputs":[],"outputs":[{"name":"","type":"uint256","internalType":"uint256"}],"stateMutability":"view"},{"type":"function","name":"minBorrowPerLoop","inputs":[],"outputs":[{"name":"","type":"uint256","internalType":"uint256"}],"stateMutability":"view"},{"type":"function","name":"musd","inputs":[],"outputs":[{"name":"","type":"address","internalType":"contract IERC20"}],"stateMutability":"view"},{"type":"function","name":"openLeveragedPosition","inputs":[{"name":"collateralToken","type":"address","internalType":"address"},{"name":"initialAmount","type":"uint256","internalType":"uint256"},{"name":"targetLeverageX10","type":"uint256","internalType":"uint256"},{"name":"maxLoopsOverride","type":"uint256","internalType":"uint256"}],"outputs":[{"name":"totalCollateral","type":"uint256","internalType":"uint256"},{"name":"totalDebt","type":"uint256","internalType":"uint256"},{"name":"loopsExecuted","type":"uint256","internalType":"uint256"}],"stateMutability":"nonpayable"},{"type":"function","name":"pause","inputs":[],"outputs":[],"stateMutability":"nonpayable"},{"type":"function","name":"paused","inputs":[],"outputs":[{"name":"","type":"bool","internalType":"bool"}],"stateMutability":"view"},{"type":"function","name":"positions","inputs":[{"name":"","type":"address","internalType":"address"}],"outputs":[{"name":"collateralToken","type":"address","internalType":"address"},{"name":"initialDeposit","type":"uint256","internalType":"uint256"},{"name":"totalCollateral","type":"uint256","internalType":"uint256"},{"name":"totalDebt","type":"uint256","internalType":"uint256"},{"name":"loopsExecuted","type":"uint256","internalType":"uint256"},{"name":"targetLeverageX10","type":"uint256","internalType":"uint256"},{"name":"openedAt","type":"uint256","internalType":"uint256"}],"stateMutability":"view"},{"type":"function","name":"priceOracle","inputs":[],"outputs":[{"name":"","type":"address","internalType":"contract IPriceOracle"}],"stateMutability":"view"},{"type":"function","name":"renounceRole","inputs":[{"name":"role","type":"bytes32","internalType":"bytes32"},{"name":"callerConfirmation","type":"address","internalType":"address"}],"outputs":[],"stateMutability":"nonpayable"},{"type":"function","name":"revokeRole","inputs":[{"name":"role","type":"bytes32","internalType":"bytes32"},{"name":"account","type":"address","internalType":"address"}],"outputs":[],"stateMutability":"nonpayable"},{"type":"function","name":"setConfig","inputs":[{"name":"_maxLoops","type":"uint256","internalType":"uint256"},{"name":"_minBorrowPerLoop","type":"uint256","internalType":"uint256"},{"name":"_defaultPoolFee","type":"uint24","internalType":"uint24"},{"name":"_maxSlippageBps","type":"uint256","internalType":"uint256"}],"outputs":[],"stateMutability":"nonpayable"},{"type":"function","name":"setMaxLeverage","inputs":[{"name":"_maxLeverageX10","type":"uint256","internalType":"uint256"}],"outputs":[],"stateMutability":"nonpayable"},{"type":"function","name":"supportsInterface","inputs":[{"name":"interfaceId","type":"bytes4","internalType":"bytes4"}],"outputs":[{"name":"","type":"bool","internalType":"bool"}],"stateMutability":"view"},{"type":"function","name":"swapRouter","inputs":[],"outputs":[{"name":"","type":"address","internalType":"contract ISwapRouter"}],"stateMutability":"view"},{"type":"function","name":"tokenPoolFees","inputs":[{"name":"","type":"address","internalType":"address"}],"outputs":[{"name":"","type":"uint24","internalType":"uint24"}],"stateMutability":"view"},{"type":"function","name":"unpause","inputs":[],"outputs":[],"stateMutability":"nonpayable"},{"type":"event","name":"ConfigUpdated","inputs":[{"name":"maxLoops","type":"uint256","indexed":false,"internalType":"uint256"},{"name":"minBorrowPerLoop","type":"uint256","indexed":false,"internalType":"uint256"},{"name":"defaultPoolFee","type":"uint24","indexed":false,"internalType":"uint24"},{"name":"maxSlippageBps","type":"uint256","indexed":false,"internalType":"uint256"}],"anonymous":false},{"type":"event","name":"EmergencyRepayFailed","inputs":[{"name":"user","type":"address","indexed":true,"internalType":"address"},{"name":"debtAmount","type":"uint256","indexed":false,"internalType":"uint256"},{"name":"musdAvailable","type":"uint256","indexed":false,"internalType":"uint256"}],"anonymous":false},{"type":"event","name":"LeverageClosed","inputs":[{"name":"user","type":"address","indexed":true,"internalType":"address"},{"name":"collateralToken","type":"address","indexed":true,"internalType":"address"},{"name":"collateralReturned","type":"uint256","indexed":false,"internalType":"uint256"},{"name":"debtRepaid","type":"uint256","indexed":false,"internalType":"uint256"},{"name":"profitOrLoss","type":"uint256","indexed":false,"internalType":"uint256"}],"anonymous":false},{"type":"event","name":"LeverageClosedWithDirectRepay","inputs":[{"name":"user","type":"address","indexed":true,"internalType":"address"},{"name":"collateralToken","type":"address","indexed":true,"internalType":"address"},{"name":"collateralReturned","type":"uint256","indexed":false,"internalType":"uint256"},{"name":"debtRepaid","type":"uint256","indexed":false,"internalType":"uint256"},{"name":"musdProvidedByUser","type":"uint256","indexed":false,"internalType":"uint256"}],"anonymous":false},{"type":"event","name":"LeverageIncreased","inputs":[{"name":"user","type":"address","indexed":true,"internalType":"address"},{"name":"additionalCollateral","type":"uint256","indexed":false,"internalType":"uint256"},{"name":"additionalDebt","type":"uint256","indexed":false,"internalType":"uint256"},{"name":"newLoops","type":"uint256","indexed":false,"internalType":"uint256"}],"anonymous":false},{"type":"event","name":"LeverageOpened","inputs":[{"name":"user","type":"address","indexed":true,"internalType":"address"},{"name":"collateralToken","type":"address","indexed":true,"internalType":"address"},{"name":"initialDeposit","type":"uint256","indexed":false,"internalType":"uint256"},{"name":"totalCollateral","type":"uint256","indexed":false,"internalType":"uint256"},{"name":"totalDebt","type":"uint256","indexed":false,"internalType":"uint256"},{"name":"loopsExecuted","type":"uint256","indexed":false,"internalType":"uint256"},{"name":"effectiveLeverageX10","type":"uint256","indexed":false,"internalType":"uint256"}],"anonymous":false},{"type":"event","name":"MaxLeverageUpdated","inputs":[{"name":"oldMaxLeverageX10","type":"uint256","indexed":false,"internalType":"uint256"},{"name":"newMaxLeverageX10","type":"uint256","indexed":false,"internalType":"uint256"}],"anonymous":false},{"type":"event","name":"Paused","inputs":[{"name":"account","type":"address","indexed":false,"internalType":"address"}],"anonymous":false},{"type":"event","name":"RoleAdminChanged","inputs":[{"name":"role","type":"bytes32","indexed":true,"internalType":"bytes32"},{"name":"previousAdminRole","type":"bytes32","indexed":true,"internalType":"bytes32"},{"name":"newAdminRole","type":"bytes32","indexed":true,"internalType":"bytes32"}],"anonymous":false},{"type":"event","name":"RoleGranted","inputs":[{"name":"role","type":"bytes32","indexed":true,"internalType":"bytes32"},{"name":"account","type":"address","indexed":true,"internalType":"address"},{"name":"sender","type":"address","indexed":true,"internalType":"address"}],"anonymous":false},{"type":"event","name":"RoleRevoked","inputs":[{"name":"role","type":"bytes32","indexed":true,"internalType":"bytes32"},{"name":"account","type":"address","indexed":true,"internalType":"address"},{"name":"sender","type":"address","indexed":true,"internalType":"address"}],"anonymous":false},{"type":"event","name":"TokenDisabled","inputs":[{"name":"token","type":"address","indexed":true,"internalType":"address"}],"anonymous":false},{"type":"event","name":"TokenEnabled","inputs":[{"name":"token","type":"address","indexed":true,"internalType":"address"},{"name":"poolFee","type":"uint24","indexed":false,"internalType":"uint24"}],"anonymous":false},{"type":"event","name":"Unpaused","inputs":[{"name":"account","type":"address","indexed":false,"internalType":"address"}],"anonymous":false},{"type":"error","name":"AccessControlBadConfirmation","inputs":[]},{"type":"error","name":"AccessControlUnauthorizedAccount","inputs":[{"name":"account","type":"address","internalType":"address"},{"name":"neededRole","type":"bytes32","internalType":"bytes32"}]},{"type":"error","name":"EnforcedPause","inputs":[]},{"type":"error","name":"ExpectedPause","inputs":[]},{"type":"error","name":"ReentrancyGuardReentrantCall","inputs":[]},{"type":"error","name":"SafeERC20FailedOperation","inputs":[{"name":"token","type":"address","internalType":"address"}]}],"bytecode":{"object":"0x610120604052348015610010575f80fd5b50604051613c82380380613c8283398101604081905261002f91610319565b600180556001600160a01b03851661007f5760405162461bcd60e51b815260206004820152600e60248201526d24a72b20a624a22fa927aaaa22a960911b60448201526064015b60405180910390fd5b6001600160a01b0384166100c55760405162461bcd60e51b815260206004820152600d60248201526c1253959053125117d590555315609a1b6044820152606401610076565b6001600160a01b03831661010c5760405162461bcd60e51b815260206004820152600e60248201526d494e56414c49445f424f52524f5760901b6044820152606401610076565b6001600160a01b0382166101535760405162461bcd60e51b815260206004820152600e60248201526d494e56414c49445f4f5241434c4560901b6044820152606401610076565b6001600160a01b0381166101985760405162461bcd60e51b815260206004820152600c60248201526b1253959053125117d35554d160a21b6044820152606401610076565b6001600160a01b0380861660805284811660a05283811660c05282811660e052811661010052600a60035568056bc75e2d631000006004556005805462ffffff1916610bb81790556064600655601e6007556101f45f33610255565b5061021f7f427855f733824e80f1903e866c2bc2b809f56d807872951b042888b504f9cbb133610255565b5061024a7f65d7a28e3265b37a6474929f336521b332c1681b933f6cb9f3376673440d862a33610255565b50505050505061037a565b5f828152602081815260408083206001600160a01b038516845290915281205460ff166102f5575f838152602081815260408083206001600160a01b03861684529091529020805460ff191660011790556102ad3390565b6001600160a01b0316826001600160a01b0316847f2f8788117e7eff1d82e926ec794901d17c78024a50270940304540a733656f0d60405160405180910390a45060016102f8565b505f5b92915050565b80516001600160a01b0381168114610314575f80fd5b919050565b5f805f805f60a0868803121561032d575f80fd5b610336866102fe565b9450610344602087016102fe565b9350610352604087016102fe565b9250610360606087016102fe565b915061036e608087016102fe565b90509295509295909350565b60805160a05160c05160e051610100516137826105005f395f81816105f301528181610c5501528181610d4d015281816112a90152818161144e015281816114d4015281816117360152818161176b0152818161184f0152818161292601528181612b5901528181612c0c0152612cf501525f81816103b001528181611ba5015281816126ef015281816127d5015261320801525f818161038901528181610a2201528181610c7701528181610cb3015281816110d9015281816112cb01528181611307015281816116660152818161178d015281816117c901528181611dfe01528181612e340152612efb01525f818161025a01528181610ab701528181610b8001528181610da101528181610e2b01528181611170015281816111f80152818161189f0152818161192901528181611aec0152818161214401528181612296015281816122e701528181612fed015261304001525f81816105c301528181612886015281816128dc01528181612b7b01528181612bd10152612d1701526137825ff3fe608060405234801561000f575f80fd5b5060043610610229575f3560e01c80638456cb591161012a578063c272a435116100b4578063d547741f11610079578063d547741f14610628578063e63ab1e91461063b578063eb69ec5b14610662578063f54ab35914610675578063f8f6e5581461067e575f80fd5b8063c272a435146105ab578063c31c9c07146105be578063c4aa7395146105e5578063cab666d0146105ee578063d3127e6314610615575f80fd5b80639eae8aac116100fa5780639eae8aac14610542578063a217fddf14610555578063a26ed5931461055c578063a2beceaa14610584578063b09789d814610598575f80fd5b80638456cb59146105015780638f93616a1461050957806391d148541461051c57806395ccea671461052f575f80fd5b80632630c12f116101b6578063462846431161017b578063462846431461040957806355f57510146104415780635c975abb146104d45780636029714d146104df5780636f60a6dd146104f2575f80fd5b80632630c12f146103ab5780632f2ff15d146103d257806336568abe146103e55780633f4ba83a146103f85780634213bc8f14610400575f80fd5b806316c19739116101fc57806316c19739146102cd5780631c1276c31461033a57806323e27a641461034f578063248a9ca31461036257806325384fd814610384575f80fd5b806301ffc9a71461022d5780630bece79c146102555780630bf7dbb21461029457806314ffaf3e146102ab575b5f80fd5b61024061023b3660046132a1565b6106ac565b60405190151581526020015b60405180910390f35b61027c7f000000000000000000000000000000000000000000000000000000000000000081565b6040516001600160a01b03909116815260200161024c565b61029d60045481565b60405190815260200161024c565b6102406102b93660046132de565b60096020525f908152604090205460ff1681565b6102e06102db3660046132de565b6106e2565b60405161024c919081516001600160a01b031681526020808301519082015260408083015190820152606080830151908201526080808301519082015260a0828101519082015260c0918201519181019190915260e00190565b61034d610348366004613309565b610792565b005b61034d61035d3660046132de565b6108e6565b61029d61037036600461333a565b5f9081526020819052604090206001015490565b61027c7f000000000000000000000000000000000000000000000000000000000000000081565b61027c7f000000000000000000000000000000000000000000000000000000000000000081565b61034d6103e0366004613351565b610946565b61034d6103f3366004613351565b610970565b61034d6109a8565b61029d60035481565b61042d6104173660046132de565b60086020525f908152604090205462ffffff1681565b60405162ffffff909116815260200161024c565b61049561044f3660046132de565b600a6020525f908152604090208054600182015460028301546003840154600485015460058601546006909601546001600160a01b039095169593949293919290919087565b604080516001600160a01b0390981688526020880196909652948601939093526060850191909152608084015260a083015260c082015260e00161024c565b60025460ff16610240565b61029d6104ed36600461333a565b6109bd565b60055461042d9062ffffff1681565b61034d611036565b61034d6105173660046132de565b611068565b61024061052a366004613351565b6115bb565b61034d61053d366004613372565b6115e3565b61029d61055036600461333a565b611601565b61029d5f81565b61056f61056a36600461339a565b611ac5565b6040805192835260208301919091520161024c565b61029d5f8051602061372d83398151915281565b61034d6105a63660046133ca565b611cbb565b61029d6105b93660046132de565b611ddd565b61027c7f000000000000000000000000000000000000000000000000000000000000000081565b61029d60065481565b61027c7f000000000000000000000000000000000000000000000000000000000000000081565b61034d61062336600461333a565b611e69565b61034d610636366004613351565b611f1b565b61029d7f65d7a28e3265b37a6474929f336521b332c1681b933f6cb9f3376673440d862a81565b61029d6106703660046132de565b611f3f565b61029d60075481565b61069161068c366004613404565b611fde565b6040805193845260208401929092529082015260600161024c565b5f6001600160e01b03198216637965db0b60e01b14806106dc57506301ffc9a760e01b6001600160e01b03198316145b92915050565b6107246040518060e001604052805f6001600160a01b031681526020015f81526020015f81526020015f81526020015f81526020015f81526020015f81525090565b506001600160a01b039081165f908152600a6020908152604091829020825160e081018452815490941684526001810154918401919091526002810154918301919091526003810154606083015260048101546080830152600581015460a08301526006015460c082015290565b5f8051602061372d8339815191526107a9816124d3565b6001600160a01b0383166107f45760405162461bcd60e51b815260206004820152600d60248201526c24a72b20a624a22faa27a5a2a760991b60448201526064015b60405180910390fd5b8162ffffff166064148061080e57508162ffffff166101f4145b8061081f57508162ffffff16610bb8145b8061083057508162ffffff16612710145b61086f5760405162461bcd60e51b815260206004820152601060248201526f24a72b20a624a22fa322a2afaa24a2a960811b60448201526064016107eb565b6001600160a01b0383165f818152600960209081526040808320805460ff191660011790556008825291829020805462ffffff871662ffffff19909116811790915591519182527f302ef2dc908ca81f40825b1491cc6df1d795f69868c824651c1092c5f79859e7910160405180910390a2505050565b5f8051602061372d8339815191526108fd816124d3565b6001600160a01b0382165f81815260096020526040808220805460ff19169055517f1fac2d788f45089e4f2b9e3484b1163143fdeab5eb480ab9a44b459d2dc476a29190a25050565b5f82815260208190526040902060010154610960816124d3565b61096a83836124dd565b50505050565b6001600160a01b03811633146109995760405163334bd91960e11b815260040160405180910390fd5b6109a3828261256c565b505050565b5f6109b2816124d3565b6109ba6125d5565b50565b5f6109c6612627565b6109ce612651565b335f908152600a6020526040902060028101546109fd5760405162461bcd60e51b81526004016107eb9061343a565b8054604051631ff517ff60e01b81523360048201526001600160a01b03918216915f917f000000000000000000000000000000000000000000000000000000000000000090911690631ff517ff90602401602060405180830381865afa158015610a69573d5f803e3d5ffd5b505050506040513d601f19601f82011682018060405250810190610a8d919061345f565b6040516347b00fb360e11b81523360048201526001600160a01b0384811660248301529192505f917f00000000000000000000000000000000000000000000000000000000000000001690638f601f6690604401602060405180830381865afa158015610afc573d5f803e3d5ffd5b505050506040513d601f19601f82011682018060405250810190610b20919061345f565b90508115610d7a575f610b338484612677565b9050612710600654612710610b48919061348a565b610b52908361349d565b610b5c91906134b4565b905081811115610b695750805b60405163071ea3e360e01b81526001600160a01b037f0000000000000000000000000000000000000000000000000000000000000000169063071ea3e390610bbe9033908890869030906001906004016134d3565b5f604051808303815f87803b158015610bd5575f80fd5b505af1158015610be7573d5f803e3d5ffd5b505050505f610bf685836127ad565b905083811015610c485760405162461bcd60e51b815260206004820152601b60248201527f494e53554646494349454e545f4d5553445f46524f4d5f53574150000000000060448201526064016107eb565b610c9c6001600160a01b037f0000000000000000000000000000000000000000000000000000000000000000167f000000000000000000000000000000000000000000000000000000000000000086612a44565b6040516311d13b1160e11b81526001600160a01b037f000000000000000000000000000000000000000000000000000000000000000016906323a2762290610cea9033908890600401613506565b5f604051808303815f87803b158015610d01575f80fd5b505af1158015610d13573d5f803e3d5ffd5b505050505f8482610d24919061351f565b90508015610d76575f610d378783612b06565b9050805f03610d7457610d746001600160a01b037f0000000000000000000000000000000000000000000000000000000000000000163384612d44565b505b5050505b6040516347b00fb360e11b81523360048201526001600160a01b0384811660248301525f917f000000000000000000000000000000000000000000000000000000000000000090911690638f601f6690604401602060405180830381865afa158015610de8573d5f803e3d5ffd5b505050506040513d601f19601f82011682018060405250810190610e0c919061345f565b90508015610e975760405163071ea3e360e01b81526001600160a01b037f0000000000000000000000000000000000000000000000000000000000000000169063071ea3e390610e699033908890869083906001906004016134d3565b5f604051808303815f87803b158015610e80575f80fd5b505af1158015610e92573d5f803e3d5ffd5b505050505b6040516370a0823160e01b81523060048201525f906001600160a01b038616906370a0823190602401602060405180830381865afa158015610edb573d5f803e3d5ffd5b505050506040513d601f19601f82011682018060405250810190610eff919061345f565b90508015610f2857610f1b6001600160a01b0386163383612d44565b610f25818361348a565b91505b87821015610f6c5760405162461bcd60e51b815260206004820152601160248201527014d31254141051d157d15610d151511151607a1b60448201526064016107eb565b8196505f866001015488610f809190613532565b90506001600160a01b038616337fa50e37d33076a6fe8012434e43b10e680649c52738c9e3e249e336bf5ccd3c1c8a885f861215610fbe575f610fc0565b855b6040805193845260208401929092529082015260600160405180910390a35050335f908152600a6020526040812080546001600160a01b0319168155600181018290556002810182905560038101829055600481018290556005810182905560060155505050505061103160018055565b919050565b7f65d7a28e3265b37a6474929f336521b332c1681b933f6cb9f3376673440d862a611060816124d3565b6109ba612d6a565b5f611072816124d3565b61107a612627565b6001600160a01b0382165f908152600a6020526040902060028101546110b25760405162461bcd60e51b81526004016107eb9061343a565b8054604051631ff517ff60e01b81526001600160a01b038581166004830152918216915f917f000000000000000000000000000000000000000000000000000000000000000090911690631ff517ff90602401602060405180830381865afa158015611120573d5f803e3d5ffd5b505050506040513d601f19601f82011682018060405250810190611144919061345f565b6040516347b00fb360e11b81526001600160a01b03878116600483015284811660248301529192505f917f00000000000000000000000000000000000000000000000000000000000000001690638f601f6690604401602060405180830381865afa1580156111b5573d5f803e3d5ffd5b505050506040513d601f19601f820116820180604052508101906111d9919061345f565b905080156112645760405163071ea3e360e01b81526001600160a01b037f0000000000000000000000000000000000000000000000000000000000000000169063071ea3e3906112369089908790869030906001906004016134d3565b5f604051808303815f87803b15801561124d575f80fd5b505af115801561125f573d5f803e3d5ffd5b505050505b5f8211801561127257505f81115b156113b3575f61128284836127ad565b905080156113b1575f838210611298578361129a565b815b90506112f06001600160a01b037f0000000000000000000000000000000000000000000000000000000000000000167f000000000000000000000000000000000000000000000000000000000000000083612a44565b6040516311d13b1160e11b81526001600160a01b037f000000000000000000000000000000000000000000000000000000000000000016906323a276229061133e908b908590600401613506565b5f604051808303815f87803b158015611355575f80fd5b505af1925050508015611366575060015b6113af5760408051828152602081018490526001600160a01b038a16917f5313396e11e666f46254aeab0800891795f321d17f68849558f3bda3d7856673910160405180910390a25b505b505b6040516370a0823160e01b81523060048201525f906001600160a01b038516906370a0823190602401602060405180830381865afa1580156113f7573d5f803e3d5ffd5b505050506040513d601f19601f8201168201806040525081019061141b919061345f565b90508015611437576114376001600160a01b0385168883612d44565b6040516370a0823160e01b81523060048201525f907f00000000000000000000000000000000000000000000000000000000000000006001600160a01b0316906370a0823190602401602060405180830381865afa15801561149b573d5f803e3d5ffd5b505050506040513d601f19601f820116820180604052508101906114bf919061345f565b905080156114fb576114fb6001600160a01b037f0000000000000000000000000000000000000000000000000000000000000000168983612d44565b846001600160a01b0316886001600160a01b03167fa50e37d33076a6fe8012434e43b10e680649c52738c9e3e249e336bf5ccd3c1c84875f604051611553939291909283526020830191909152604082015260600190565b60405180910390a3505050506001600160a01b0384165f908152600a6020526040812080546001600160a01b0319168155600181018290556002810182905560038101829055600481018290556005810182905560060155506115b7905060018055565b5050565b5f918252602082815260408084206001600160a01b0393909316845291905290205460ff1690565b5f6115ed816124d3565b6109a36001600160a01b0384163384612d44565b5f61160a612627565b611612612651565b335f908152600a6020526040902060028101546116415760405162461bcd60e51b81526004016107eb9061343a565b8054604051631ff517ff60e01b81523360048201526001600160a01b03918216915f917f000000000000000000000000000000000000000000000000000000000000000090911690631ff517ff90602401602060405180830381865afa1580156116ad573d5f803e3d5ffd5b505050506040513d601f19601f820116820180604052508101906116d1919061345f565b9050801561187857808510156117295760405162461bcd60e51b815260206004820152601a60248201527f494e53554646494349454e545f4d5553445f50524f564944454400000000000060448201526064016107eb565b61175e6001600160a01b037f000000000000000000000000000000000000000000000000000000000000000016333088612da7565b6117b26001600160a01b037f0000000000000000000000000000000000000000000000000000000000000000167f000000000000000000000000000000000000000000000000000000000000000083612a44565b6040516311d13b1160e11b81526001600160a01b037f000000000000000000000000000000000000000000000000000000000000000016906323a27622906118009033908590600401613506565b5f604051808303815f87803b158015611817575f80fd5b505af1158015611829573d5f803e3d5ffd5b505050505f818661183a919061351f565b90508015611876576118766001600160a01b037f0000000000000000000000000000000000000000000000000000000000000000163383612d44565b505b6040516347b00fb360e11b81523360048201526001600160a01b0383811660248301525f917f000000000000000000000000000000000000000000000000000000000000000090911690638f601f6690604401602060405180830381865afa1580156118e6573d5f803e3d5ffd5b505050506040513d601f19601f8201168201806040525081019061190a919061345f565b905080156119955760405163071ea3e360e01b81526001600160a01b037f0000000000000000000000000000000000000000000000000000000000000000169063071ea3e3906119679033908790869083906001906004016134d3565b5f604051808303815f87803b15801561197e575f80fd5b505af1158015611990573d5f803e3d5ffd5b505050505b6040516370a0823160e01b81523060048201525f906001600160a01b038516906370a0823190602401602060405180830381865afa1580156119d9573d5f803e3d5ffd5b505050506040513d601f19601f820116820180604052508101906119fd919061345f565b90508015611a1957611a196001600160a01b0385163383612d44565b611a23818361348a565b60408051828152602081018690529081018990529096506001600160a01b0385169033907f8729f84210551f1aed05435f51e2ccc18780d9ac85446bb7284d553c947e7c809060600160405180910390a35050335f908152600a6020526040812080546001600160a01b031916815560018101829055600281018290556003810182905560048101829055600581018290556006015550505061103160018055565b60405163e48a5f7b60e01b81526001600160a01b0384811660048301525f918291829182917f0000000000000000000000000000000000000000000000000000000000000000169063e48a5f7b90602401608060405180830381865afa158015611b31573d5f803e3d5ffd5b505050506040513d601f19601f82011682018060405250810190611b559190613558565b50509150915081611b6d575f80935093505050611cb3565b80865f805b600354811015611cab575f8a611b8985600a61349d565b611b9391906134b4565b9050898110611ba25750611cab565b5f7f00000000000000000000000000000000000000000000000000000000000000006001600160a01b031663b7f876448e876040518363ffffffff1660e01b8152600401611bf1929190613506565b602060405180830381865afa158015611c0c573d5f803e3d5ffd5b505050506040513d601f19601f82011682018060405250810190611c30919061345f565b90505f84612710611c41898561349d565b611c4b91906134b4565b611c55919061351f565b9050600454811015611c6957505050611cab565b5f611c748f83612677565b9050611c80818861348a565b9650611c8c828761348a565b95508b611c9881613598565b9c505060019094019350611b7292505050565b509450505050505b935093915050565b5f8051602061372d833981519152611cd2816124d3565b5f85118015611ce2575060148511155b611d225760405162461bcd60e51b8152602060048201526011602482015270494e56414c49445f4d41585f4c4f4f505360781b60448201526064016107eb565b6101f4821115611d685760405162461bcd60e51b81526020600482015260116024820152700a69892a0a0828e8abea89e9ebe90928e9607b1b60448201526064016107eb565b600385905560048490556005805462ffffff191662ffffff85169081179091556006839055604080518781526020810187905290810191909152606081018390527f5fb8f8a1a7d8752cbcffaa22bf823f658a7b9b9c05f4aa6d682e8eed5c1b56e29060800160405180910390a15050505050565b604051631ff517ff60e01b81526001600160a01b0382811660048301525f917f000000000000000000000000000000000000000000000000000000000000000090911690631ff517ff90602401602060405180830381865afa158015611e45573d5f803e3d5ffd5b505050506040513d601f19601f820116820180604052508101906106dc919061345f565b5f8051602061372d833981519152611e80816124d3565b600a8210158015611e92575060288211155b611ed55760405162461bcd60e51b8152602060048201526014602482015273494e56414c49445f4d41585f4c4556455241474560601b60448201526064016107eb565b600780549083905560408051828152602081018590527fc40265c19866109dc8f33bf7b08b628b97728ad445b658e40153023e3800255c910160405180910390a1505050565b5f82815260208190526040902060010154611f35816124d3565b61096a838361256c565b6001600160a01b038082165f908152600a60209081526040808320815160e0810183528154909516855260018101549285018390526002810154918501919091526003810154606085015260048101546080850152600581015460a08501526006015460c08401529091908203611fb857505f92915050565b60208101516040820151611fcd90600a61349d565b611fd791906134b4565b9392505050565b5f805f611fe9612627565b611ff1612651565b6001600160a01b0387165f9081526009602052604090205460ff1661204c5760405162461bcd60e51b81526020600482015260116024820152701513d2d15397d393d517d1539050931151607a1b60448201526064016107eb565b5f861161208c5760405162461bcd60e51b815260206004820152600e60248201526d1253959053125117d05353d5539560921b60448201526064016107eb565b600a8510156120d05760405162461bcd60e51b815260206004820152601060248201526f4c455645524147455f544f4f5f4c4f5760801b60448201526064016107eb565b335f908152600a6020526040902060020154156121215760405162461bcd60e51b815260206004820152600f60248201526e504f534954494f4e5f45584953545360881b60448201526064016107eb565b60405163e48a5f7b60e01b81526001600160a01b0388811660048301525f9182917f0000000000000000000000000000000000000000000000000000000000000000169063e48a5f7b90602401608060405180830381865afa158015612189573d5f803e3d5ffd5b505050506040513d601f19601f820116820180604052508101906121ad9190613558565b505091509150816121f95760405162461bcd60e51b815260206004820152601660248201527510d3d31310551154905317d393d517d153905093115160521b60448201526064016107eb565b5f6122068261271061351f565b61221390620186a06134b4565b90505f600754821061222757600754612229565b815b9050808911156122725760405162461bcd60e51b81526020600482015260146024820152730988aac8aa4828e8abe8ab0868a8a88a6be9a82b60631b60448201526064016107eb565b6122876001600160a01b038c1633308d612da7565b6122bb6001600160a01b038c167f00000000000000000000000000000000000000000000000000000000000000008c612a44565b60405163b3db428b60e01b81523360048201526001600160a01b038c81166024830152604482018c90527f0000000000000000000000000000000000000000000000000000000000000000169063b3db428b906064015f604051808303815f87803b158015612328575f80fd5b505af115801561233a573d5f803e3d5ffd5b505050505f80891161234e57600354612350565b885b905060035481111561236157506003545b61236e338d8d8d85612de0565b809850819950829a505050506040518060e001604052808d6001600160a01b031681526020018c81526020018981526020018881526020018781526020018b815260200142815250600a5f336001600160a01b03166001600160a01b031681526020019081526020015f205f820151815f015f6101000a8154816001600160a01b0302191690836001600160a01b031602179055506020820151816001015560408201518160020155606082015181600301556080820151816004015560a0820151816005015560c082015181600601559050505f8b89600a612451919061349d565b61245b91906134b4565b604080518e8152602081018c90529081018a905260608101899052608081018290529091506001600160a01b038e169033907f223299f817ca1801d60b5d9826902fbdced9c1bf1341fa90fe953ec5645503ba9060a00160405180910390a35050505050506124c960018055565b9450945094915050565b6109ba81336130cf565b5f6124e883836115bb565b612565575f838152602081815260408083206001600160a01b03861684529091529020805460ff1916600117905561251d3390565b6001600160a01b0316826001600160a01b0316847f2f8788117e7eff1d82e926ec794901d17c78024a50270940304540a733656f0d60405160405180910390a45060016106dc565b505f6106dc565b5f61257783836115bb565b15612565575f838152602081815260408083206001600160a01b0386168085529252808320805460ff1916905551339286917ff6391f5c32d9c69d2a47ea670b442974b53935d1edc7fd64eb21e047a839171b9190a45060016106dc565b6125dd6130fa565b6002805460ff191690557f5db9ee0a495bf2e6ff9c91a7834c1ba4fdd244a5e8aa4e537bd38aeae4b073aa335b6040516001600160a01b03909116815260200160405180910390a1565b60026001540361264a57604051633ee5aeb560e01b815260040160405180910390fd5b6002600155565b60025460ff16156126755760405163d93c066560e01b815260040160405180910390fd5b565b5f80836001600160a01b031663313ce5676040518163ffffffff1660e01b8152600401602060405180830381865afa1580156126b5573d5f803e3d5ffd5b505050506040513d601f19601f820116820180604052508101906126d991906135b0565b60ff1690505f6126ea82600a6136ab565b90505f7f00000000000000000000000000000000000000000000000000000000000000006001600160a01b031663b7f8764487846040518363ffffffff1660e01b815260040161273b929190613506565b602060405180830381865afa158015612756573d5f803e3d5ffd5b505050506040513d601f19601f8201168201806040525081019061277a919061345f565b9050805f0361278e575f93505050506106dc565b80612799838761349d565b6127a391906134b4565b9695505050505050565b5f815f036127bc57505f6106dc565b604051632dfe1d9160e21b81525f906001600160a01b037f0000000000000000000000000000000000000000000000000000000000000000169063b7f876449061280c9087908790600401613506565b602060405180830381865afa158015612827573d5f803e3d5ffd5b505050506040513d601f19601f8201168201806040525081019061284b919061345f565b90505f612710600654612710612861919061351f565b61286b908461349d565b61287591906134b4565b90506128ab6001600160a01b0386167f000000000000000000000000000000000000000000000000000000000000000086612a44565b6001600160a01b0385165f9081526008602052604081205462ffffff16908190036128da575060055462ffffff165b7f00000000000000000000000000000000000000000000000000000000000000006001600160a01b031663414bf389604051806101000160405280896001600160a01b031681526020017f00000000000000000000000000000000000000000000000000000000000000006001600160a01b031681526020018462ffffff168152602001306001600160a01b031681526020014261012c61297b919061348a565b81526020018881526020018581526020015f6001600160a01b03168152506040518263ffffffff1660e01b81526004016129b591906136b6565b6020604051808303815f875af11580156129d1573d5f803e3d5ffd5b505050506040513d601f19601f820116820180604052508101906129f5919061345f565b93505f8411612a3b5760405162461bcd60e51b8152602060048201526012602482015271535741505f52455455524e45445f5a45524f60701b60448201526064016107eb565b50505092915050565b5f836001600160a01b031663095ea7b38484604051602401612a67929190613506565b604051602081830303815290604052915060e01b6020820180516001600160e01b0383818316178352505050509050612aa0848261311d565b61096a57612afc84856001600160a01b031663095ea7b3865f604051602401612aca929190613506565b604051602081830303815290604052915060e01b6020820180516001600160e01b038381831617835250505050613162565b61096a8482613162565b5f815f03612b1557505f6106dc565b5f612b208484612677565b90505f612710600654612710612b36919061351f565b612b40908461349d565b612b4a91906134b4565b9050612ba06001600160a01b037f0000000000000000000000000000000000000000000000000000000000000000167f000000000000000000000000000000000000000000000000000000000000000086612a44565b6001600160a01b0385165f9081526008602052604081205462ffffff1690819003612bcf575060055462ffffff165b7f00000000000000000000000000000000000000000000000000000000000000006001600160a01b031663414bf3896040518061010001604052807f00000000000000000000000000000000000000000000000000000000000000006001600160a01b03168152602001896001600160a01b031681526020018462ffffff168152602001306001600160a01b031681526020014261012c612c70919061348a565b81526020018881526020018581526020015f6001600160a01b03168152506040518263ffffffff1660e01b8152600401612caa91906136b6565b6020604051808303815f875af1925050508015612ce4575060408051601f3d908101601f19168201909252612ce19181019061345f565b60015b6127a357612d3c6001600160a01b037f0000000000000000000000000000000000000000000000000000000000000000167f00000000000000000000000000000000000000000000000000000000000000005f612a44565b5f9350612a3b565b6109a383846001600160a01b031663a9059cbb8585604051602401612aca929190613506565b612d72612651565b6002805460ff191660011790557f62e78cea01bee320cd4e420270b5ea74000d11b0c9f74754ebdbfc544b05a25861260a3390565b6040516001600160a01b03848116602483015283811660448301526064820183905261096a9186918216906323b872dd90608401612aca565b825f80805b848110156130c3575f87612dfa86600a61349d565b612e0491906134b4565b9050868110612e1357506130c3565b6040516397a9d45760e01b81526001600160a01b038b811660048301525f917f0000000000000000000000000000000000000000000000000000000000000000909116906397a9d45790602401602060405180830381865afa158015612e7b573d5f803e3d5ffd5b505050506040513d601f19601f82011682018060405250810190612e9f919061345f565b9050600454811015612eb25750506130c3565b5f612ebf8a888b8e6131ce565b90505f868211612ecf575f612ed9565b612ed9878361351f565b905082811115612ee65750815b600454811015612ef957505050506130c3565b7f00000000000000000000000000000000000000000000000000000000000000006001600160a01b031663e9a1183d8e836040518363ffffffff1660e01b8152600401612f47929190613506565b5f604051808303815f87803b158015612f5e575f80fd5b505af1158015612f70573d5f803e3d5ffd5b505050508087612f80919061348a565b96505f612f8d8d83612b06565b90505f8111612fde5760405162461bcd60e51b815260206004820152601960248201527f535741505f4641494c45445f4f525048414e45445f444542540000000000000060448201526064016107eb565b6130126001600160a01b038e167f000000000000000000000000000000000000000000000000000000000000000083612a44565b60405163b3db428b60e01b81526001600160a01b038f811660048301528e81166024830152604482018390527f0000000000000000000000000000000000000000000000000000000000000000169063b3db428b906064015f604051808303815f87803b158015613081575f80fd5b505af1158015613093573d5f803e3d5ffd5b5050505080896130a3919061348a565b9850866130af81613598565b97505060019095019450612de59350505050565b50955095509592505050565b6130d982826115bb565b6115b757808260405163e2517d3f60e01b81526004016107eb929190613506565b60025460ff1661267557604051638dfc202b60e01b815260040160405180910390fd5b5f805f8060205f8651602088015f8a5af192503d91505f5190508280156127a35750811561314e57806001146127a3565b50505050506001600160a01b03163b151590565b5f8060205f8451602086015f885af180613181576040513d5f823e3d81fd5b50505f513d915081156131985780600114156131a5565b6001600160a01b0384163b155b1561096a57604051635274afe760e01b81526001600160a01b03851660048201526024016107eb565b5f80600a6131dc858861349d565b6131e691906134b4565b90508085106131f8575f915050613299565b5f613203868361351f565b90505f7f00000000000000000000000000000000000000000000000000000000000000006001600160a01b031663b7f8764486846040518363ffffffff1660e01b8152600401613254929190613506565b602060405180830381865afa15801561326f573d5f803e3d5ffd5b505050506040513d601f19601f82011682018060405250810190613293919061345f565b93505050505b949350505050565b5f602082840312156132b1575f80fd5b81356001600160e01b031981168114611fd7575f80fd5b80356001600160a01b0381168114611031575f80fd5b5f602082840312156132ee575f80fd5b611fd7826132c8565b803562ffffff81168114611031575f80fd5b5f806040838503121561331a575f80fd5b613323836132c8565b9150613331602084016132f7565b90509250929050565b5f6020828403121561334a575f80fd5b5035919050565b5f8060408385031215613362575f80fd5b82359150613331602084016132c8565b5f8060408385031215613383575f80fd5b61338c836132c8565b946020939093013593505050565b5f805f606084860312156133ac575f80fd5b6133b5846132c8565b95602085013595506040909401359392505050565b5f805f80608085870312156133dd575f80fd5b84359350602085013592506133f4604086016132f7565b9396929550929360600135925050565b5f805f8060808587031215613417575f80fd5b613420856132c8565b966020860135965060408601359560600135945092505050565b6020808252600b908201526a2727afa827a9a4aa24a7a760a91b604082015260600190565b5f6020828403121561346f575f80fd5b5051919050565b634e487b7160e01b5f52601160045260245ffd5b808201808211156106dc576106dc613476565b80820281158282048414176106dc576106dc613476565b5f826134ce57634e487b7160e01b5f52601260045260245ffd5b500490565b6001600160a01b039586168152938516602085015260408401929092529092166060820152901515608082015260a00190565b6001600160a01b03929092168252602082015260400190565b818103818111156106dc576106dc613476565b8181035f83128015838313168383128216171561355157613551613476565b5092915050565b5f805f806080858703121561356b575f80fd5b8451801515811461357a575f80fd5b60208601516040870151606090970151919890975090945092505050565b5f600182016135a9576135a9613476565b5060010190565b5f602082840312156135c0575f80fd5b815160ff81168114611fd7575f80fd5b6001815b6001841115611cb3578085048111156135ef576135ef613476565b60018416156135fd57908102905b60019390931c9280026135d4565b5f82613619575060016106dc565b8161362557505f6106dc565b816001811461363b576002811461364557613661565b60019150506106dc565b60ff84111561365657613656613476565b50506001821b6106dc565b5060208310610133831016604e8410600b8410161715613684575081810a6106dc565b6136905f1984846135d0565b805f19048211156136a3576136a3613476565b029392505050565b5f611fd7838361360b565b81516001600160a01b03908116825260208084015182169083015260408084015162ffffff169083015260608084015191821690830152610100820190506080830151608083015260a083015160a083015260c083015160c083015260e083015161355160e08401826001600160a01b0316905256fe427855f733824e80f1903e866c2bc2b809f56d807872951b042888b504f9cbb1a2646970667358221220743ad8f8483fd7a5fecdaeb9641e981975e570a72eeee42369a75b901b4bdc9664736f6c634300081a0033","linkReferences":{}},"methodIdentifiers":{"DEFAULT_ADMIN_ROLE()":"a217fddf","LEVERAGE_ADMIN_ROLE()":"a2beceaa","PAUSER_ROLE()":"e63ab1e9","borrowModule()":"25384fd8","closeLeveragedPosition(uint256)":"6029714d","closeLeveragedPositionWithMusd(uint256)":"9eae8aac","collateralVault()":"0bece79c","defaultPoolFee()":"6f60a6dd","disableToken(address)":"23e27a64","emergencyClosePosition(address)":"8f93616a","emergencyWithdraw(address,uint256)":"95ccea67","enableToken(address,uint24)":"1c1276c3","estimateLoops(address,uint256,uint256)":"a26ed593","getEffectiveLeverage(address)":"eb69ec5b","getMusdNeededToClose(address)":"c272a435","getPosition(address)":"16c19739","getRoleAdmin(bytes32)":"248a9ca3","grantRole(bytes32,address)":"2f2ff15d","hasRole(bytes32,address)":"91d14854","leverageEnabled(address)":"14ffaf3e","maxLeverageX10()":"f54ab359","maxLoops()":"4213bc8f","maxSlippageBps()":"c4aa7395","minBorrowPerLoop()":"0bf7dbb2","musd()":"cab666d0","openLeveragedPosition(address,uint256,uint256,uint256)":"f8f6e558","pause()":"8456cb59","paused()":"5c975abb","positions(address)":"55f57510","priceOracle()":"2630c12f","renounceRole(bytes32,address)":"36568abe","revokeRole(bytes32,address)":"d547741f","setConfig(uint256,uint256,uint24,uint256)":"b09789d8","setMaxLeverage(uint256)":"d3127e63","supportsInterface(bytes4)":"01ffc9a7","swapRouter()":"c31c9c07","tokenPoolFees(address)":"46284643","unpause()":"3f4ba83a"},"id":6}