{"abi":[{"type":"function","name":"configure","inputs":[{"name":"market_","type":"address","internalType":"address"},{"name":"sy_","type":"address","internalType":"address"},{"name":"pt_","type":"address","internalType":"address"},{"name":"expiry_","type":"uint256","internalType":"uint256"}],"outputs":[],"stateMutability":"nonpayable"},{"type":"function","name":"isValidMarket","inputs":[{"name":"market","type":"address","internalType":"address"}],"outputs":[{"name":"","type":"bool","internalType":"bool"}],"stateMutability":"view"},{"type":"function","name":"returnZeroMarket","inputs":[],"outputs":[{"name":"","type":"bool","internalType":"bool"}],"stateMutability":"view"},{"type":"function","name":"returnZeroPt","inputs":[],"outputs":[{"name":"","type":"bool","internalType":"bool"}],"stateMutability":"view"},{"type":"function","name":"selectBestMarket","inputs":[{"name":"","type":"string","internalType":"string"}],"outputs":[{"name":"bestMarket","type":"address","internalType":"address"},{"name":"info","type":"tuple","internalType":"struct IPendleMarketSelector.MarketInfo","components":[{"name":"market","type":"address","internalType":"address"},{"name":"sy","type":"address","internalType":"address"},{"name":"pt","type":"address","internalType":"address"},{"name":"expiry","type":"uint256","internalType":"uint256"},{"name":"timeToExpiry","type":"uint256","internalType":"uint256"},{"name":"totalPt","type":"uint256","internalType":"uint256"},{"name":"totalSy","type":"uint256","internalType":"uint256"},{"name":"tvlSy","type":"uint256","internalType":"uint256"},{"name":"impliedRate","type":"uint256","internalType":"uint256"},{"name":"impliedAPY","type":"uint256","internalType":"uint256"},{"name":"score","type":"uint256","internalType":"uint256"}]}],"stateMutability":"view"},{"type":"function","name":"setReturnZeroMarket","inputs":[{"name":"val","type":"bool","internalType":"bool"}],"outputs":[],"stateMutability":"nonpayable"},{"type":"function","name":"setReturnZeroPt","inputs":[{"name":"val","type":"bool","internalType":"bool"}],"outputs":[],"stateMutability":"nonpayable"}],"bytecode":{"object":"0x6080604052348015600e575f80fd5b506104f68061001c5f395ff3fe608060405234801561000f575f80fd5b506004361061007a575f3560e01c8063769b5d8f11610058578063769b5d8f146101c7578063b7f7927d146101d4578063be39eb0a146101e6578063ed6718e514610207575f80fd5b8063136cc1c31461007e57806358e6309f1461014557806369c868cd14610176575b5f80fd5b61009161008c36600461038b565b61022f565b60405161013c9291906001600160a01b0383811682528251166020820152610180810160208301516001600160a01b03811660408401525060408301516001600160a01b03811660608401525060608301516080830152608083015160a083015260a083015160c083015260c083015160e083015260e08301516101008301526101008301516101208301526101208301516101408301526101408301516101608301529392505050565b60405180910390f35b610166610153366004610414565b5f546001600160a01b0391821691161490565b604051901515815260200161013c565b6101c5610184366004610434565b5f80546001600160a01b03199081166001600160a01b0396871617909155600180548216948616949094179093556002805490931691909316179055600355565b005b6004546101669060ff1681565b60045461016690610100900460ff1681565b6101c56101f436600461047c565b6004805460ff1916911515919091179055565b6101c561021536600461047c565b600480549115156101000261ff0019909216919091179055565b5f61029d6040518061016001604052805f6001600160a01b031681526020015f6001600160a01b031681526020015f6001600160a01b031681526020015f81526020015f81526020015f81526020015f81526020015f81526020015f81526020015f81526020015f81525090565b60045460ff166102b7575f546001600160a01b03166102b9565b5f5b60408051610160810182526001600160a01b0383811682526001541660208201526004549294509190820190610100900460ff16610302576002546001600160a01b0316610304565b5f5b6001600160a01b0316815260200160035481526020014260035411610329575f610337565b42600354610337919061049b565b81526020016a52b7d2dcc80cd2e400000081526020016a52b7d2dcc80cd2e40000008152602001652d79883d200081526020016305f5e10081526020016104b08152602001611f4081525090509250929050565b5f806020838503121561039c575f80fd5b823567ffffffffffffffff8111156103b2575f80fd5b8301601f810185136103c2575f80fd5b803567ffffffffffffffff8111156103d8575f80fd5b8560208284010111156103e9575f80fd5b6020919091019590945092505050565b80356001600160a01b038116811461040f575f80fd5b919050565b5f60208284031215610424575f80fd5b61042d826103f9565b9392505050565b5f805f8060808587031215610447575f80fd5b610450856103f9565b935061045e602086016103f9565b925061046c604086016103f9565b9396929550929360600135925050565b5f6020828403121561048c575f80fd5b8135801515811461042d575f80fd5b818103818111156104ba57634e487b7160e01b5f52601160045260245ffd5b9291505056fea2646970667358221220e57fd2d86922a5d8f2be5de03efba6d721b28ac322a1f83c3ef1098702e5a55d64736f6c634300081a0033","linkReferences":{}},"methodIdentifiers":{"configure(address,address,address,uint256)":"69c868cd","isValidMarket(address)":"58e6309f","returnZeroMarket()":"769b5d8f","returnZeroPt()":"b7f7927d","selectBestMarket(string)":"136cc1c3","setReturnZeroMarket(bool)":"be39eb0a","setReturnZeroPt(bool)":"ed6718e5"},"id":44}