{"abi":[{"type":"function","name":"transferTokens","inputs":[{"name":"","type":"address","internalType":"address"},{"name":"","type":"uint256","internalType":"uint256"},{"name":"","type":"uint16","internalType":"uint16"},{"name":"","type":"bytes32","internalType":"bytes32"},{"name":"","type":"uint256","internalType":"uint256"},{"name":"","type":"uint32","internalType":"uint32"}],"outputs":[{"name":"sequence","type":"uint64","internalType":"uint64"}],"stateMutability":"payable"},{"type":"function","name":"wrappedAsset","inputs":[{"name":"","type":"uint16","internalType":"uint16"},{"name":"","type":"bytes32","internalType":"bytes32"}],"outputs":[{"name":"","type":"address","internalType":"address"}],"stateMutability":"pure"}],"bytecode":{"object":"0x6080604052348015600e575f80fd5b506101fe8061001c5f395ff3fe608060405260043610610028575f3560e01c80630f5287b01461002c5780631ff1e2861461005d575b5f80fd5b61003f61003a3660046100f4565b610096565b60405167ffffffffffffffff90911681526020015b60405180910390f35b348015610068575f80fd5b5061007e610077366004610168565b5f92915050565b6040516001600160a01b039091168152602001610054565b5f805467ffffffffffffffff1681806100ae83610190565b82546101009290920a67ffffffffffffffff8181021990931691831602179091555f541698975050505050505050565b803561ffff811681146100ef575f80fd5b919050565b5f805f805f8060c08789031215610109575f80fd5b86356001600160a01b038116811461011f575f80fd5b955060208701359450610134604088016100de565b9350606087013592506080870135915060a087013563ffffffff8116811461015a575f80fd5b809150509295509295509295565b5f8060408385031215610179575f80fd5b610182836100de565b946020939093013593505050565b5f67ffffffffffffffff821667ffffffffffffffff81036101bf57634e487b7160e01b5f52601160045260245ffd5b6001019291505056fea2646970667358221220bba41364b4a53c3044e9ab80d1956224374b778ba841aa125f2381704c4a178664736f6c634300081a0033","linkReferences":{}},"methodIdentifiers":{"transferTokens(address,uint256,uint16,bytes32,uint256,uint32)":"0f5287b0","wrappedAsset(uint16,bytes32)":"1ff1e286"},"id":56}