{"abi":[{"type":"constructor","inputs":[{"name":"_usdc","type":"address","internalType":"address"},{"name":"_wormholeRelayer","type":"address","internalType":"address"},{"name":"_tokenBridge","type":"address","internalType":"address"},{"name":"_treasuryAddress","type":"address","internalType":"address"},{"name":"_directMintAddress","type":"address","internalType":"address"},{"name":"_feeBps","type":"uint256","internalType":"uint256"},{"name":"_admin","type":"address","internalType":"address"},{"name":"_timelock","type":"address","internalType":"address"}],"stateMutability":"nonpayable"},{"type":"receive","stateMutability":"payable"},{"type":"function","name":"DEFAULT_ADMIN_ROLE","inputs":[],"outputs":[{"name":"","type":"bytes32","internalType":"bytes32"}],"stateMutability":"view"},{"type":"function","name":"ETHEREUM_CHAIN_ID","inputs":[],"outputs":[{"name":"","type":"uint16","internalType":"uint16"}],"stateMutability":"view"},{"type":"function","name":"GAS_LIMIT","inputs":[],"outputs":[{"name":"","type":"uint256","internalType":"uint256"}],"stateMutability":"view"},{"type":"function","name":"MAX_DEPOSIT","inputs":[],"outputs":[{"name":"","type":"uint256","internalType":"uint256"}],"stateMutability":"view"},{"type":"function","name":"MIN_DEPOSIT","inputs":[],"outputs":[{"name":"","type":"uint256","internalType":"uint256"}],"stateMutability":"view"},{"type":"function","name":"PAUSER_ROLE","inputs":[],"outputs":[{"name":"","type":"bytes32","internalType":"bytes32"}],"stateMutability":"view"},{"type":"function","name":"ROUTER_ADMIN_ROLE","inputs":[],"outputs":[{"name":"","type":"bytes32","internalType":"bytes32"}],"stateMutability":"view"},{"type":"function","name":"accumulatedFees","inputs":[],"outputs":[{"name":"","type":"uint256","internalType":"uint256"}],"stateMutability":"view"},{"type":"function","name":"deposit","inputs":[{"name":"amount","type":"uint256","internalType":"uint256"}],"outputs":[{"name":"sequence","type":"uint64","internalType":"uint64"}],"stateMutability":"payable"},{"type":"function","name":"depositFor","inputs":[{"name":"recipient","type":"address","internalType":"address"},{"name":"amount","type":"uint256","internalType":"uint256"}],"outputs":[{"name":"sequence","type":"uint64","internalType":"uint64"}],"stateMutability":"payable"},{"type":"function","name":"directMintAddress","inputs":[],"outputs":[{"name":"","type":"address","internalType":"address"}],"stateMutability":"view"},{"type":"function","name":"emergencyWithdraw","inputs":[{"name":"token","type":"address","internalType":"address"},{"name":"to","type":"address","internalType":"address"},{"name":"amount","type":"uint256","internalType":"uint256"}],"outputs":[],"stateMutability":"nonpayable"},{"type":"function","name":"feeBps","inputs":[],"outputs":[{"name":"","type":"uint256","internalType":"uint256"}],"stateMutability":"view"},{"type":"function","name":"getDeposit","inputs":[{"name":"sequence","type":"uint64","internalType":"uint64"}],"outputs":[{"name":"","type":"tuple","internalType":"struct DepositRouter.PendingDeposit","components":[{"name":"depositor","type":"address","internalType":"address"},{"name":"amount","type":"uint256","internalType":"uint256"},{"name":"fee","type":"uint256","internalType":"uint256"},{"name":"timestamp","type":"uint256","internalType":"uint256"},{"name":"completed","type":"bool","internalType":"bool"}]}],"stateMutability":"view"},{"type":"function","name":"getRoleAdmin","inputs":[{"name":"role","type":"bytes32","internalType":"bytes32"}],"outputs":[{"name":"","type":"bytes32","internalType":"bytes32"}],"stateMutability":"view"},{"type":"function","name":"grantRole","inputs":[{"name":"role","type":"bytes32","internalType":"bytes32"},{"name":"account","type":"address","internalType":"address"}],"outputs":[],"stateMutability":"nonpayable"},{"type":"function","name":"hasRole","inputs":[{"name":"role","type":"bytes32","internalType":"bytes32"},{"name":"account","type":"address","internalType":"address"}],"outputs":[{"name":"","type":"bool","internalType":"bool"}],"stateMutability":"view"},{"type":"function","name":"isDepositComplete","inputs":[{"name":"sequence","type":"uint64","internalType":"uint64"}],"outputs":[{"name":"completed","type":"bool","internalType":"bool"}],"stateMutability":"view"},{"type":"function","name":"markDepositComplete","inputs":[{"name":"sequence","type":"uint64","internalType":"uint64"}],"outputs":[],"stateMutability":"nonpayable"},{"type":"function","name":"markDepositsComplete","inputs":[{"name":"sequences","type":"uint64[]","internalType":"uint64[]"}],"outputs":[],"stateMutability":"nonpayable"},{"type":"function","name":"pause","inputs":[],"outputs":[],"stateMutability":"nonpayable"},{"type":"function","name":"paused","inputs":[],"outputs":[{"name":"","type":"bool","internalType":"bool"}],"stateMutability":"view"},{"type":"function","name":"pendingDeposits","inputs":[{"name":"","type":"uint64","internalType":"uint64"}],"outputs":[{"name":"depositor","type":"address","internalType":"address"},{"name":"amount","type":"uint256","internalType":"uint256"},{"name":"fee","type":"uint256","internalType":"uint256"},{"name":"timestamp","type":"uint256","internalType":"uint256"},{"name":"completed","type":"bool","internalType":"bool"}],"stateMutability":"view"},{"type":"function","name":"previewDeposit","inputs":[{"name":"amount","type":"uint256","internalType":"uint256"}],"outputs":[{"name":"netAmount","type":"uint256","internalType":"uint256"},{"name":"fee","type":"uint256","internalType":"uint256"}],"stateMutability":"view"},{"type":"function","name":"quoteBridgeCost","inputs":[],"outputs":[{"name":"nativeCost","type":"uint256","internalType":"uint256"}],"stateMutability":"view"},{"type":"function","name":"renounceRole","inputs":[{"name":"role","type":"bytes32","internalType":"bytes32"},{"name":"callerConfirmation","type":"address","internalType":"address"}],"outputs":[],"stateMutability":"nonpayable"},{"type":"function","name":"revokeRole","inputs":[{"name":"role","type":"bytes32","internalType":"bytes32"},{"name":"account","type":"address","internalType":"address"}],"outputs":[],"stateMutability":"nonpayable"},{"type":"function","name":"setDirectMint","inputs":[{"name":"newDirectMint","type":"address","internalType":"address"}],"outputs":[],"stateMutability":"nonpayable"},{"type":"function","name":"setFee","inputs":[{"name":"newFeeBps","type":"uint256","internalType":"uint256"}],"outputs":[],"stateMutability":"nonpayable"},{"type":"function","name":"setTimelock","inputs":[{"name":"_timelock","type":"address","internalType":"address"}],"outputs":[],"stateMutability":"nonpayable"},{"type":"function","name":"setTreasury","inputs":[{"name":"newTreasury","type":"address","internalType":"address"}],"outputs":[],"stateMutability":"nonpayable"},{"type":"function","name":"supportsInterface","inputs":[{"name":"interfaceId","type":"bytes4","internalType":"bytes4"}],"outputs":[{"name":"","type":"bool","internalType":"bool"}],"stateMutability":"view"},{"type":"function","name":"timelock","inputs":[],"outputs":[{"name":"","type":"address","internalType":"address"}],"stateMutability":"view"},{"type":"function","name":"tokenBridge","inputs":[],"outputs":[{"name":"","type":"address","internalType":"contract IWormholeTokenBridge"}],"stateMutability":"view"},{"type":"function","name":"treasuryAddress","inputs":[],"outputs":[{"name":"","type":"address","internalType":"address"}],"stateMutability":"view"},{"type":"function","name":"unpause","inputs":[],"outputs":[],"stateMutability":"nonpayable"},{"type":"function","name":"usdc","inputs":[],"outputs":[{"name":"","type":"address","internalType":"contract IERC20"}],"stateMutability":"view"},{"type":"function","name":"withdrawFees","inputs":[{"name":"to","type":"address","internalType":"address"}],"outputs":[],"stateMutability":"nonpayable"},{"type":"function","name":"wormholeRelayer","inputs":[],"outputs":[{"name":"","type":"address","internalType":"contract IWormholeRelayer"}],"stateMutability":"view"},{"type":"event","name":"DepositCompleted","inputs":[{"name":"sequence","type":"uint64","indexed":true,"internalType":"uint64"},{"name":"depositor","type":"address","indexed":true,"internalType":"address"},{"name":"amount","type":"uint256","indexed":false,"internalType":"uint256"}],"anonymous":false},{"type":"event","name":"DepositInitiated","inputs":[{"name":"depositor","type":"address","indexed":true,"internalType":"address"},{"name":"amount","type":"uint256","indexed":false,"internalType":"uint256"},{"name":"fee","type":"uint256","indexed":false,"internalType":"uint256"},{"name":"sequence","type":"uint64","indexed":false,"internalType":"uint64"},{"name":"timestamp","type":"uint256","indexed":false,"internalType":"uint256"}],"anonymous":false},{"type":"event","name":"DirectMintUpdated","inputs":[{"name":"oldDirectMint","type":"address","indexed":false,"internalType":"address"},{"name":"newDirectMint","type":"address","indexed":false,"internalType":"address"}],"anonymous":false},{"type":"event","name":"EmergencyWithdrawal","inputs":[{"name":"token","type":"address","indexed":true,"internalType":"address"},{"name":"to","type":"address","indexed":true,"internalType":"address"},{"name":"amount","type":"uint256","indexed":false,"internalType":"uint256"}],"anonymous":false},{"type":"event","name":"FeeUpdated","inputs":[{"name":"oldFee","type":"uint256","indexed":false,"internalType":"uint256"},{"name":"newFee","type":"uint256","indexed":false,"internalType":"uint256"}],"anonymous":false},{"type":"event","name":"FeesWithdrawn","inputs":[{"name":"to","type":"address","indexed":true,"internalType":"address"},{"name":"amount","type":"uint256","indexed":false,"internalType":"uint256"}],"anonymous":false},{"type":"event","name":"Paused","inputs":[{"name":"account","type":"address","indexed":false,"internalType":"address"}],"anonymous":false},{"type":"event","name":"RoleAdminChanged","inputs":[{"name":"role","type":"bytes32","indexed":true,"internalType":"bytes32"},{"name":"previousAdminRole","type":"bytes32","indexed":true,"internalType":"bytes32"},{"name":"newAdminRole","type":"bytes32","indexed":true,"internalType":"bytes32"}],"anonymous":false},{"type":"event","name":"RoleGranted","inputs":[{"name":"role","type":"bytes32","indexed":true,"internalType":"bytes32"},{"name":"account","type":"address","indexed":true,"internalType":"address"},{"name":"sender","type":"address","indexed":true,"internalType":"address"}],"anonymous":false},{"type":"event","name":"RoleRevoked","inputs":[{"name":"role","type":"bytes32","indexed":true,"internalType":"bytes32"},{"name":"account","type":"address","indexed":true,"internalType":"address"},{"name":"sender","type":"address","indexed":true,"internalType":"address"}],"anonymous":false},{"type":"event","name":"TimelockUpdated","inputs":[{"name":"oldTimelock","type":"address","indexed":true,"internalType":"address"},{"name":"newTimelock","type":"address","indexed":true,"internalType":"address"}],"anonymous":false},{"type":"event","name":"TreasuryUpdated","inputs":[{"name":"oldTreasury","type":"address","indexed":false,"internalType":"address"},{"name":"newTreasury","type":"address","indexed":false,"internalType":"address"}],"anonymous":false},{"type":"event","name":"Unpaused","inputs":[{"name":"account","type":"address","indexed":false,"internalType":"address"}],"anonymous":false},{"type":"error","name":"AccessControlBadConfirmation","inputs":[]},{"type":"error","name":"AccessControlUnauthorizedAccount","inputs":[{"name":"account","type":"address","internalType":"address"},{"name":"neededRole","type":"bytes32","internalType":"bytes32"}]},{"type":"error","name":"AmountAboveMaximum","inputs":[]},{"type":"error","name":"AmountBelowMinimum","inputs":[]},{"type":"error","name":"EnforcedPause","inputs":[]},{"type":"error","name":"ExpectedPause","inputs":[]},{"type":"error","name":"FeeTooHigh","inputs":[]},{"type":"error","name":"InsufficientNativeToken","inputs":[]},{"type":"error","name":"InvalidAddress","inputs":[]},{"type":"error","name":"InvalidAmount","inputs":[]},{"type":"error","name":"OnlyTimelock","inputs":[]},{"type":"error","name":"ReentrancyGuardReentrantCall","inputs":[]},{"type":"error","name":"SafeERC20FailedOperation","inputs":[{"name":"token","type":"address","internalType":"address"}]},{"type":"error","name":"TransferFailed","inputs":[]},{"type":"error","name":"ZeroTimelock","inputs":[]}],"bytecode":{"object":"0x60e060405234801561000f575f80fd5b5060405161225b38038061225b83398101604081905261002e9161033a565b600180556001600160a01b0388166100595760405163e6c4247b60e01b815260040160405180910390fd5b6001600160a01b0387166100805760405163e6c4247b60e01b815260040160405180910390fd5b6001600160a01b0386166100a75760405163e6c4247b60e01b815260040160405180910390fd5b6001600160a01b0385166100ce5760405163e6c4247b60e01b815260040160405180910390fd5b6001600160a01b0384166100f55760405163e6c4247b60e01b815260040160405180910390fd5b6001600160a01b03821661011c5760405163e6c4247b60e01b815260040160405180910390fd5b6101f483111561013f5760405163cd4e616760e01b815260040160405180910390fd5b610148816101fc565b6001600160a01b0388811660805287811660a05286811660c052600380546001600160a01b0319908116888416179091556004805490911691861691909117905560058390556101985f83610276565b506101c37f56623da34b1ec5cb86498f15a28504a6323a0eedfb150423fe6f418d952826ee83610276565b506101ee7f65d7a28e3265b37a6474929f336521b332c1681b933f6cb9f3376673440d862a83610276565b5050505050505050506103c5565b6001600160a01b038116610223576040516350c0eb2960e11b815260040160405180910390fd5b60028054610100600160a81b0319166101006001600160a01b038416908102919091179091556040515f907fae97011a27b5efe7b1d76fe38e75cc498fd64cc24e407a9c6b2185d27f611f7e908290a350565b5f828152602081815260408083206001600160a01b038516845290915281205460ff16610316575f838152602081815260408083206001600160a01b03861684529091529020805460ff191660011790556102ce3390565b6001600160a01b0316826001600160a01b0316847f2f8788117e7eff1d82e926ec794901d17c78024a50270940304540a733656f0d60405160405180910390a4506001610319565b505f5b92915050565b80516001600160a01b0381168114610335575f80fd5b919050565b5f805f805f805f80610100898b031215610352575f80fd5b61035b8961031f565b975061036960208a0161031f565b965061037760408a0161031f565b955061038560608a0161031f565b945061039360808a0161031f565b935060a089015192506103a860c08a0161031f565b91506103b660e08a0161031f565b90509295985092959890939650565b60805160a05160c051611e346104275f395f81816105e801528181611576015261161901525f818161067e0152610a3a01525f8181610394015281816108df01528181610ff4015281816115080152818161155401526116480152611e345ff3fe60806040526004361061022b575f3560e01c806391d1485411610129578063d547741f116100a8578063e63ea4081161006d578063e63ea40814610701578063e6d9ce3d14610720578063e917f0ce146107a9578063ef8b30f7146107c8578063f0f44260146107fc575f80fd5b8063d547741f1461064e578063da25b7251461066d578063dd5967c3146106a0578063e1e158a5146106b8578063e63ab1e9146106ce575f80fd5b8063bf5c95c1116100ee578063bf5c95c114610599578063c5f956af146105b8578063c6328a46146105d7578063d03f078b1461060a578063d33219b41461062a575f80fd5b806391d14854146104ce578063a217fddf146104ed578063ae59a6b214610500578063b6b55f2514610567578063bdacb3031461057a575f80fd5b80633e413bee116101b55780635c975abb1161017a5780635c975abb1461044657806369fe0e2d1461045d5780636a53d6b91461047c5780636f7df9bb1461049b5780638456cb59146104ba575f80fd5b80633e413bee146103835780633f4ba83a146103ce57806351086bc9146103e2578063557d9de31461041d578063587f5ed714610431575f80fd5b8063248a9ca3116101fb578063248a9ca3146102d657806324a9d853146103045780632f2ff15d146103195780632f4f21e21461033857806336568abe14610364575f80fd5b806301ffc9a714610236578063091d27881461026a578063164e68de1461028e5780631dac56d3146102af575f80fd5b3661023257005b5f80fd5b348015610241575f80fd5b50610255610250366004611aee565b61081b565b60405190151581526020015b60405180910390f35b348015610275575f80fd5b506102806203d09081565b604051908152602001610261565b348015610299575f80fd5b506102ad6102a8366004611b32565b610851565b005b3480156102ba575f80fd5b506102c3600281565b60405161ffff9091168152602001610261565b3480156102e1575f80fd5b506102806102f0366004611b4b565b5f9081526020819052604090206001015490565b34801561030f575f80fd5b5061028060055481565b348015610324575f80fd5b506102ad610333366004611b62565b61094e565b61034b610346366004611b8c565b610978565b60405167ffffffffffffffff9091168152602001610261565b34801561036f575f80fd5b506102ad61037e366004611b62565b6109c5565b34801561038e575f80fd5b506103b67f000000000000000000000000000000000000000000000000000000000000000081565b6040516001600160a01b039091168152602001610261565b3480156103d9575f80fd5b506102ad6109fd565b3480156103ed575f80fd5b506102556103fc366004611bc9565b67ffffffffffffffff165f9081526008602052604090206004015460ff1690565b348015610428575f80fd5b50610280610a12565b34801561043c575f80fd5b5061028060065481565b348015610451575f80fd5b5060025460ff16610255565b348015610468575f80fd5b506102ad610477366004611b4b565b610ab0565b348015610487575f80fd5b506102ad610496366004611bc9565b610b49565b3480156104a6575f80fd5b506004546103b6906001600160a01b031681565b3480156104c5575f80fd5b506102ad610c7a565b3480156104d9575f80fd5b506102556104e8366004611b62565b610cac565b3480156104f8575f80fd5b506102805f81565b34801561050b575f80fd5b5061051f61051a366004611bc9565b610cd4565b604051610261919081516001600160a01b0316815260208083015190820152604080830151908201526060808301519082015260809182015115159181019190915260a00190565b61034b610575366004611b4b565b610d72565b348015610585575f80fd5b506102ad610594366004611b32565b610d9d565b3480156105a4575f80fd5b506102ad6105b3366004611be4565b610e5a565b3480156105c3575f80fd5b506003546103b6906001600160a01b031681565b3480156105e2575f80fd5b506103b67f000000000000000000000000000000000000000000000000000000000000000081565b348015610615575f80fd5b506102805f80516020611ddf83398151915281565b348015610635575f80fd5b506002546103b69061010090046001600160a01b031681565b348015610659575f80fd5b506102ad610668366004611b62565b610f77565b348015610678575f80fd5b506103b67f000000000000000000000000000000000000000000000000000000000000000081565b3480156106ab575f80fd5b5061028064e8d4a5100081565b3480156106c3575f80fd5b50610280620f424081565b3480156106d9575f80fd5b506102807f65d7a28e3265b37a6474929f336521b332c1681b933f6cb9f3376673440d862a81565b34801561070c575f80fd5b506102ad61071b366004611c55565b610f9b565b34801561072b575f80fd5b5061077561073a366004611bc9565b60086020525f9081526040902080546001820154600283015460038401546004909401546001600160a01b0390931693919290919060ff1685565b604080516001600160a01b03909616865260208601949094529284019190915260608301521515608082015260a001610261565b3480156107b4575f80fd5b506102ad6107c3366004611b32565b61115f565b3480156107d3575f80fd5b506107e76107e2366004611b4b565b611210565b60408051928352602083019190915201610261565b348015610807575f80fd5b506102ad610816366004611b32565b611240565b5f6001600160e01b03198216637965db0b60e01b148061084b57506301ffc9a760e01b6001600160e01b03198316145b92915050565b5f80516020611ddf833981519152610868816112f1565b6001600160a01b03821661088f5760405163e6c4247b60e01b815260040160405180910390fd5b600654806108ce5760405162461bcd60e51b81526020600482015260076024820152664e4f5f4645455360c81b60448201526064015b60405180910390fd5b5f6006556109066001600160a01b037f00000000000000000000000000000000000000000000000000000000000000001684836112fb565b826001600160a01b03167fc0819c13be868895eb93e40eaceb96de976442fa1d404e5c55f14bb65a8c489a8260405161094191815260200190565b60405180910390a2505050565b5f82815260208190526040902060010154610968816112f1565b610972838361135a565b50505050565b5f6109816113e9565b610989611413565b6001600160a01b0383166109b05760405163e6c4247b60e01b815260040160405180910390fd5b6109ba8383611439565b905061084b60018055565b6001600160a01b03811633146109ee5760405163334bd91960e11b815260040160405180910390fd5b6109f88282611819565b505050565b5f610a07816112f1565b610a0f611882565b50565b60405163c23ee3c360e01b8152600260048201525f602482018190526203d0906044830152907f00000000000000000000000000000000000000000000000000000000000000006001600160a01b03169063c23ee3c3906064016040805180830381865afa158015610a86573d5f803e3d5ffd5b505050506040513d601f19601f82011682018060405250810190610aaa9190611c8f565b50919050565b60025461010090046001600160a01b03163314610ae057604051630e05f48560e11b815260040160405180910390fd5b6101f4811115610b035760405163cd4e616760e01b815260040160405180910390fd5b600580549082905560408051828152602081018490527f528d9479e9f9889a87a3c30c7f7ba537e5e59c4c85a37733b16e57c62df6130291015b60405180910390a15050565b5f80516020611ddf833981519152610b60816112f1565b67ffffffffffffffff82165f90815260086020526040902080546001600160a01b0316610bc35760405162461bcd60e51b815260206004820152601160248201527011115413d4d25517d393d517d193d55391607a1b60448201526064016108c5565b600481015460ff1615610c0c5760405162461bcd60e51b81526020600482015260116024820152701053149150511657d0d3d3541311551151607a1b60448201526064016108c5565b60048101805460ff191660019081179091558154908201546040516001600160a01b039092169167ffffffffffffffff8616917f2276762544f86013121a0fb047a308181db4fdbb350f8d3ff955ba07cdf1eadb91610c6d91815260200190565b60405180910390a3505050565b7f65d7a28e3265b37a6474929f336521b332c1681b933f6cb9f3376673440d862a610ca4816112f1565b610a0f6118d4565b5f918252602082815260408084206001600160a01b0393909316845291905290205460ff1690565b610d0c6040518060a001604052805f6001600160a01b031681526020015f81526020015f81526020015f81526020015f151581525090565b5067ffffffffffffffff165f90815260086020908152604091829020825160a08101845281546001600160a01b031681526001820154928101929092526002810154928201929092526003820154606082015260049091015460ff161515608082015290565b5f610d7b6113e9565b610d83611413565b610d8d3383611439565b9050610d9860018055565b919050565b60025461010090046001600160a01b03163314610dcd57604051630e05f48560e11b815260040160405180910390fd5b6001600160a01b038116610df4576040516350c0eb2960e11b815260040160405180910390fd5b6002546040516001600160a01b0380841692610100900416907fae97011a27b5efe7b1d76fe38e75cc498fd64cc24e407a9c6b2185d27f611f7e905f90a3600280546001600160a01b0390921661010002610100600160a81b0319909216919091179055565b5f80516020611ddf833981519152610e71816112f1565b5f5b82811015610972575f60085f868685818110610e9157610e91611cb1565b9050602002016020810190610ea69190611bc9565b67ffffffffffffffff16815260208101919091526040015f2080549091506001600160a01b031615801590610ee05750600481015460ff16155b15610f6e5760048101805460ff1916600117905580546001600160a01b0316858584818110610f1157610f11611cb1565b9050602002016020810190610f269190611bc9565b67ffffffffffffffff167f2276762544f86013121a0fb047a308181db4fdbb350f8d3ff955ba07cdf1eadb8360010154604051610f6591815260200190565b60405180910390a35b50600101610e73565b5f82815260208190526040902060010154610f91816112f1565b6109728383611819565b60025461010090046001600160a01b03163314610fcb57604051630e05f48560e11b815260040160405180910390fd5b6001600160a01b038216610ff25760405163e6c4247b60e01b815260040160405180910390fd5b7f00000000000000000000000000000000000000000000000000000000000000006001600160a01b0316836001600160a01b0316036110825760025460ff1661107d5760405162461bcd60e51b815260206004820152601e60248201527f555344435f57495448445241575f4f4e4c595f5748454e5f504155534544000060448201526064016108c5565b5f6006555b6001600160a01b038316611106575f826001600160a01b0316826040515f6040518083038185875af1925050503d805f81146110d9576040519150601f19603f3d011682016040523d82523d5f602084013e6110de565b606091505b5050905080611100576040516312171d8360e31b815260040160405180910390fd5b5061111a565b61111a6001600160a01b03841683836112fb565b816001600160a01b0316836001600160a01b03167f9495d03190a79a43e534c9e328ff322f6283261383f5f19c809564f6ad5a57b383604051610c6d91815260200190565b60025461010090046001600160a01b0316331461118f57604051630e05f48560e11b815260040160405180910390fd5b6001600160a01b0381166111b65760405163e6c4247b60e01b815260040160405180910390fd5b600480546001600160a01b038381166001600160a01b031983168117909355604080519190921680825260208201939093527f2934917ef7215887e304b63dda4f079d5b265e26f20aadafcb3143fc2d7c03189101610b3d565b5f80612710600554846112239190611cd9565b61122d9190611cf0565b90506112398184611d0f565b9150915091565b60025461010090046001600160a01b0316331461127057604051630e05f48560e11b815260040160405180910390fd5b6001600160a01b0381166112975760405163e6c4247b60e01b815260040160405180910390fd5b600380546001600160a01b038381166001600160a01b031983168117909355604080519190921680825260208201939093527f4ab5be82436d353e61ca18726e984e561f5c1cc7c6d38b29d2553c790434705a9101610b3d565b610a0f8133611911565b6040516001600160a01b038381166024830152604482018390526109f891859182169063a9059cbb906064015b604051602081830303815290604052915060e01b6020820180516001600160e01b03838183161783525050505061194e565b5f6113658383610cac565b6113e2575f838152602081815260408083206001600160a01b03861684529091529020805460ff1916600117905561139a3390565b6001600160a01b0316826001600160a01b0316847f2f8788117e7eff1d82e926ec794901d17c78024a50270940304540a733656f0d60405160405180910390a450600161084b565b505f61084b565b60026001540361140c57604051633ee5aeb560e01b815260040160405180910390fd5b6002600155565b60025460ff16156114375760405163d93c066560e01b815260040160405180910390fd5b565b5f815f0361145a5760405163162908e360e11b815260040160405180910390fd5b620f424082101561147e57604051632fcd1a0f60e01b815260040160405180910390fd5b64e8d4a510008211156114a45760405163ea5d71ed60e01b815260040160405180910390fd5b5f612710600554846114b69190611cd9565b6114c09190611cf0565b90505f6114cd8285611d0f565b90505f6114d8610a12565b9050803410156114fb576040516332201f6960e11b815260040160405180910390fd5b6115306001600160a01b037f0000000000000000000000000000000000000000000000000000000000000000163330886119ba565b8260065f8282546115419190611d22565b9091555061159b90506001600160a01b037f0000000000000000000000000000000000000000000000000000000000000000167f0000000000000000000000000000000000000000000000000000000000000000846119f3565b6007805463ffffffff16905f6115b083611d35565b825463ffffffff9182166101009390930a928302919092021990911617905550600354604080516001600160a01b038981166020830152909216915f910160408051601f19818403018152908290526007546362d2f5ed60e11b83529092506001600160a01b037f0000000000000000000000000000000000000000000000000000000000000000169163c5a5ebda918691611680917f0000000000000000000000000000000000000000000000000000000000000000918a916002918a9163ffffffff16908a90600401611d59565b60206040518083038185885af115801561169c573d5f803e3d5ffd5b50505050506040513d601f19601f820116820180604052508101906116c19190611dc3565b6040805160a0810182526001600160a01b038b811680835260208084018a81528486018c81524260608088018281525f6080808b0182815267ffffffffffffffff8e1680845260088a52928d90209b518c546001600160a01b0319169b169a909a178b55955160018b0155935160028a015551600389015595516004909701805460ff19169715159790971790965586518c81529283018d90529582019590955291820192909252929850917f5fefd2d9d28c0b993b9fee29b348d011b6f63fb09c8597e17400a0e86d95cb44910160405180910390a28234111561180e575f336117ac8534611d0f565b6040515f81818185875af1925050503d805f81146117e5576040519150601f19603f3d011682016040523d82523d5f602084013e6117ea565b606091505b505090508061180c576040516312171d8360e31b815260040160405180910390fd5b505b505050505092915050565b5f6118248383610cac565b156113e2575f838152602081815260408083206001600160a01b0386168085529252808320805460ff1916905551339286917ff6391f5c32d9c69d2a47ea670b442974b53935d1edc7fd64eb21e047a839171b9190a450600161084b565b61188a611a82565b6002805460ff191690557f5db9ee0a495bf2e6ff9c91a7834c1ba4fdd244a5e8aa4e537bd38aeae4b073aa335b6040516001600160a01b03909116815260200160405180910390a1565b6118dc611413565b6002805460ff191660011790557f62e78cea01bee320cd4e420270b5ea74000d11b0c9f74754ebdbfc544b05a2586118b73390565b61191b8282610cac565b61194a5760405163e2517d3f60e01b81526001600160a01b0382166004820152602481018390526044016108c5565b5050565b5f8060205f8451602086015f885af18061196d576040513d5f823e3d81fd5b50505f513d91508115611984578060011415611991565b6001600160a01b0384163b155b1561097257604051635274afe760e01b81526001600160a01b03851660048201526024016108c5565b6040516001600160a01b0384811660248301528381166044830152606482018390526109729186918216906323b872dd90608401611328565b604080516001600160a01b038416602482015260448082018490528251808303909101815260649091019091526020810180516001600160e01b031663095ea7b360e01b179052611a448482611aa5565b610972576040516001600160a01b0384811660248301525f6044830152611a7891869182169063095ea7b390606401611328565b610972848261194e565b60025460ff1661143757604051638dfc202b60e01b815260040160405180910390fd5b5f805f8060205f8651602088015f8a5af192503d91505f519050828015611ae457508115611ad65780600114611ae4565b5f866001600160a01b03163b115b9695505050505050565b5f60208284031215611afe575f80fd5b81356001600160e01b031981168114611b15575f80fd5b9392505050565b80356001600160a01b0381168114610d98575f80fd5b5f60208284031215611b42575f80fd5b611b1582611b1c565b5f60208284031215611b5b575f80fd5b5035919050565b5f8060408385031215611b73575f80fd5b82359150611b8360208401611b1c565b90509250929050565b5f8060408385031215611b9d575f80fd5b611ba683611b1c565b946020939093013593505050565b67ffffffffffffffff81168114610a0f575f80fd5b5f60208284031215611bd9575f80fd5b8135611b1581611bb4565b5f8060208385031215611bf5575f80fd5b823567ffffffffffffffff811115611c0b575f80fd5b8301601f81018513611c1b575f80fd5b803567ffffffffffffffff811115611c31575f80fd5b8560208260051b8401011115611c45575f80fd5b6020919091019590945092505050565b5f805f60608486031215611c67575f80fd5b611c7084611b1c565b9250611c7e60208501611b1c565b929592945050506040919091013590565b5f8060408385031215611ca0575f80fd5b505080516020909101519092909150565b634e487b7160e01b5f52603260045260245ffd5b634e487b7160e01b5f52601160045260245ffd5b808202811582820484141761084b5761084b611cc5565b5f82611d0a57634e487b7160e01b5f52601260045260245ffd5b500490565b8181038181111561084b5761084b611cc5565b8082018082111561084b5761084b611cc5565b5f63ffffffff821663ffffffff8103611d5057611d50611cc5565b60010192915050565b60018060a01b038716815285602082015261ffff8516604082015283606082015263ffffffff8316608082015260c060a08201525f82518060c0840152806020850160e085015e5f60e0828501015260e0601f19601f830116840101915050979650505050505050565b5f60208284031215611dd3575f80fd5b8151611b1581611bb456fe56623da34b1ec5cb86498f15a28504a6323a0eedfb150423fe6f418d952826eea2646970667358221220451b975610e5d67654f44cd2afa51d7d1b6ba759a51a51c256a24d3802ee2ead64736f6c634300081a0033","linkReferences":{}},"methodIdentifiers":{"DEFAULT_ADMIN_ROLE()":"a217fddf","ETHEREUM_CHAIN_ID()":"1dac56d3","GAS_LIMIT()":"091d2788","MAX_DEPOSIT()":"dd5967c3","MIN_DEPOSIT()":"e1e158a5","PAUSER_ROLE()":"e63ab1e9","ROUTER_ADMIN_ROLE()":"d03f078b","accumulatedFees()":"587f5ed7","deposit(uint256)":"b6b55f25","depositFor(address,uint256)":"2f4f21e2","directMintAddress()":"6f7df9bb","emergencyWithdraw(address,address,uint256)":"e63ea408","feeBps()":"24a9d853","getDeposit(uint64)":"ae59a6b2","getRoleAdmin(bytes32)":"248a9ca3","grantRole(bytes32,address)":"2f2ff15d","hasRole(bytes32,address)":"91d14854","isDepositComplete(uint64)":"51086bc9","markDepositComplete(uint64)":"6a53d6b9","markDepositsComplete(uint64[])":"bf5c95c1","pause()":"8456cb59","paused()":"5c975abb","pendingDeposits(uint64)":"e6d9ce3d","previewDeposit(uint256)":"ef8b30f7","quoteBridgeCost()":"557d9de3","renounceRole(bytes32,address)":"36568abe","revokeRole(bytes32,address)":"d547741f","setDirectMint(address)":"e917f0ce","setFee(uint256)":"69fe0e2d","setTimelock(address)":"bdacb303","setTreasury(address)":"f0f44260","supportsInterface(bytes4)":"01ffc9a7","timelock()":"d33219b4","tokenBridge()":"c6328a46","treasuryAddress()":"c5f956af","unpause()":"3f4ba83a","usdc()":"3e413bee","withdrawFees(address)":"164e68de","wormholeRelayer()":"da25b725"},"id":3}