{"abi":[{"type":"constructor","inputs":[{"name":"_usdc","type":"address","internalType":"address"},{"name":"_wormholeRelayer","type":"address","internalType":"address"},{"name":"_tokenBridge","type":"address","internalType":"address"},{"name":"_treasuryAddress","type":"address","internalType":"address"},{"name":"_directMintAddress","type":"address","internalType":"address"},{"name":"_feeBps","type":"uint256","internalType":"uint256"},{"name":"_admin","type":"address","internalType":"address"}],"stateMutability":"nonpayable"},{"type":"receive","stateMutability":"payable"},{"type":"function","name":"DEFAULT_ADMIN_ROLE","inputs":[],"outputs":[{"name":"","type":"bytes32","internalType":"bytes32"}],"stateMutability":"view"},{"type":"function","name":"ETHEREUM_CHAIN_ID","inputs":[],"outputs":[{"name":"","type":"uint16","internalType":"uint16"}],"stateMutability":"view"},{"type":"function","name":"GAS_LIMIT","inputs":[],"outputs":[{"name":"","type":"uint256","internalType":"uint256"}],"stateMutability":"view"},{"type":"function","name":"MAX_DEPOSIT","inputs":[],"outputs":[{"name":"","type":"uint256","internalType":"uint256"}],"stateMutability":"view"},{"type":"function","name":"MIN_DEPOSIT","inputs":[],"outputs":[{"name":"","type":"uint256","internalType":"uint256"}],"stateMutability":"view"},{"type":"function","name":"PAUSER_ROLE","inputs":[],"outputs":[{"name":"","type":"bytes32","internalType":"bytes32"}],"stateMutability":"view"},{"type":"function","name":"ROUTER_ADMIN_ROLE","inputs":[],"outputs":[{"name":"","type":"bytes32","internalType":"bytes32"}],"stateMutability":"view"},{"type":"function","name":"accumulatedFees","inputs":[],"outputs":[{"name":"","type":"uint256","internalType":"uint256"}],"stateMutability":"view"},{"type":"function","name":"deposit","inputs":[{"name":"amount","type":"uint256","internalType":"uint256"}],"outputs":[{"name":"sequence","type":"uint64","internalType":"uint64"}],"stateMutability":"payable"},{"type":"function","name":"depositFor","inputs":[{"name":"recipient","type":"address","internalType":"address"},{"name":"amount","type":"uint256","internalType":"uint256"}],"outputs":[{"name":"sequence","type":"uint64","internalType":"uint64"}],"stateMutability":"payable"},{"type":"function","name":"directMintAddress","inputs":[],"outputs":[{"name":"","type":"address","internalType":"address"}],"stateMutability":"view"},{"type":"function","name":"emergencyWithdraw","inputs":[{"name":"token","type":"address","internalType":"address"},{"name":"to","type":"address","internalType":"address"},{"name":"amount","type":"uint256","internalType":"uint256"}],"outputs":[],"stateMutability":"nonpayable"},{"type":"function","name":"feeBps","inputs":[],"outputs":[{"name":"","type":"uint256","internalType":"uint256"}],"stateMutability":"view"},{"type":"function","name":"getDeposit","inputs":[{"name":"sequence","type":"uint64","internalType":"uint64"}],"outputs":[{"name":"","type":"tuple","internalType":"struct DepositRouter.PendingDeposit","components":[{"name":"depositor","type":"address","internalType":"address"},{"name":"amount","type":"uint256","internalType":"uint256"},{"name":"fee","type":"uint256","internalType":"uint256"},{"name":"timestamp","type":"uint256","internalType":"uint256"},{"name":"completed","type":"bool","internalType":"bool"}]}],"stateMutability":"view"},{"type":"function","name":"getRoleAdmin","inputs":[{"name":"role","type":"bytes32","internalType":"bytes32"}],"outputs":[{"name":"","type":"bytes32","internalType":"bytes32"}],"stateMutability":"view"},{"type":"function","name":"grantRole","inputs":[{"name":"role","type":"bytes32","internalType":"bytes32"},{"name":"account","type":"address","internalType":"address"}],"outputs":[],"stateMutability":"nonpayable"},{"type":"function","name":"hasRole","inputs":[{"name":"role","type":"bytes32","internalType":"bytes32"},{"name":"account","type":"address","internalType":"address"}],"outputs":[{"name":"","type":"bool","internalType":"bool"}],"stateMutability":"view"},{"type":"function","name":"isDepositComplete","inputs":[{"name":"sequence","type":"uint64","internalType":"uint64"}],"outputs":[{"name":"completed","type":"bool","internalType":"bool"}],"stateMutability":"view"},{"type":"function","name":"markDepositComplete","inputs":[{"name":"sequence","type":"uint64","internalType":"uint64"}],"outputs":[],"stateMutability":"nonpayable"},{"type":"function","name":"markDepositsComplete","inputs":[{"name":"sequences","type":"uint64[]","internalType":"uint64[]"}],"outputs":[],"stateMutability":"nonpayable"},{"type":"function","name":"pause","inputs":[],"outputs":[],"stateMutability":"nonpayable"},{"type":"function","name":"paused","inputs":[],"outputs":[{"name":"","type":"bool","internalType":"bool"}],"stateMutability":"view"},{"type":"function","name":"pendingDeposits","inputs":[{"name":"","type":"uint64","internalType":"uint64"}],"outputs":[{"name":"depositor","type":"address","internalType":"address"},{"name":"amount","type":"uint256","internalType":"uint256"},{"name":"fee","type":"uint256","internalType":"uint256"},{"name":"timestamp","type":"uint256","internalType":"uint256"},{"name":"completed","type":"bool","internalType":"bool"}],"stateMutability":"view"},{"type":"function","name":"previewDeposit","inputs":[{"name":"amount","type":"uint256","internalType":"uint256"}],"outputs":[{"name":"netAmount","type":"uint256","internalType":"uint256"},{"name":"fee","type":"uint256","internalType":"uint256"}],"stateMutability":"view"},{"type":"function","name":"quoteBridgeCost","inputs":[],"outputs":[{"name":"nativeCost","type":"uint256","internalType":"uint256"}],"stateMutability":"view"},{"type":"function","name":"renounceRole","inputs":[{"name":"role","type":"bytes32","internalType":"bytes32"},{"name":"callerConfirmation","type":"address","internalType":"address"}],"outputs":[],"stateMutability":"nonpayable"},{"type":"function","name":"revokeRole","inputs":[{"name":"role","type":"bytes32","internalType":"bytes32"},{"name":"account","type":"address","internalType":"address"}],"outputs":[],"stateMutability":"nonpayable"},{"type":"function","name":"setDirectMint","inputs":[{"name":"newDirectMint","type":"address","internalType":"address"}],"outputs":[],"stateMutability":"nonpayable"},{"type":"function","name":"setFee","inputs":[{"name":"newFeeBps","type":"uint256","internalType":"uint256"}],"outputs":[],"stateMutability":"nonpayable"},{"type":"function","name":"setTreasury","inputs":[{"name":"newTreasury","type":"address","internalType":"address"}],"outputs":[],"stateMutability":"nonpayable"},{"type":"function","name":"supportsInterface","inputs":[{"name":"interfaceId","type":"bytes4","internalType":"bytes4"}],"outputs":[{"name":"","type":"bool","internalType":"bool"}],"stateMutability":"view"},{"type":"function","name":"tokenBridge","inputs":[],"outputs":[{"name":"","type":"address","internalType":"contract IWormholeTokenBridge"}],"stateMutability":"view"},{"type":"function","name":"treasuryAddress","inputs":[],"outputs":[{"name":"","type":"address","internalType":"address"}],"stateMutability":"view"},{"type":"function","name":"unpause","inputs":[],"outputs":[],"stateMutability":"nonpayable"},{"type":"function","name":"usdc","inputs":[],"outputs":[{"name":"","type":"address","internalType":"contract IERC20"}],"stateMutability":"view"},{"type":"function","name":"withdrawFees","inputs":[{"name":"to","type":"address","internalType":"address"}],"outputs":[],"stateMutability":"nonpayable"},{"type":"function","name":"wormholeRelayer","inputs":[],"outputs":[{"name":"","type":"address","internalType":"contract IWormholeRelayer"}],"stateMutability":"view"},{"type":"event","name":"DepositCompleted","inputs":[{"name":"sequence","type":"uint64","indexed":true,"internalType":"uint64"},{"name":"depositor","type":"address","indexed":true,"internalType":"address"},{"name":"amount","type":"uint256","indexed":false,"internalType":"uint256"}],"anonymous":false},{"type":"event","name":"DepositInitiated","inputs":[{"name":"depositor","type":"address","indexed":true,"internalType":"address"},{"name":"amount","type":"uint256","indexed":false,"internalType":"uint256"},{"name":"fee","type":"uint256","indexed":false,"internalType":"uint256"},{"name":"sequence","type":"uint64","indexed":false,"internalType":"uint64"},{"name":"timestamp","type":"uint256","indexed":false,"internalType":"uint256"}],"anonymous":false},{"type":"event","name":"DirectMintUpdated","inputs":[{"name":"oldDirectMint","type":"address","indexed":false,"internalType":"address"},{"name":"newDirectMint","type":"address","indexed":false,"internalType":"address"}],"anonymous":false},{"type":"event","name":"FeeUpdated","inputs":[{"name":"oldFee","type":"uint256","indexed":false,"internalType":"uint256"},{"name":"newFee","type":"uint256","indexed":false,"internalType":"uint256"}],"anonymous":false},{"type":"event","name":"FeesWithdrawn","inputs":[{"name":"to","type":"address","indexed":true,"internalType":"address"},{"name":"amount","type":"uint256","indexed":false,"internalType":"uint256"}],"anonymous":false},{"type":"event","name":"Paused","inputs":[{"name":"account","type":"address","indexed":false,"internalType":"address"}],"anonymous":false},{"type":"event","name":"RoleAdminChanged","inputs":[{"name":"role","type":"bytes32","indexed":true,"internalType":"bytes32"},{"name":"previousAdminRole","type":"bytes32","indexed":true,"internalType":"bytes32"},{"name":"newAdminRole","type":"bytes32","indexed":true,"internalType":"bytes32"}],"anonymous":false},{"type":"event","name":"RoleGranted","inputs":[{"name":"role","type":"bytes32","indexed":true,"internalType":"bytes32"},{"name":"account","type":"address","indexed":true,"internalType":"address"},{"name":"sender","type":"address","indexed":true,"internalType":"address"}],"anonymous":false},{"type":"event","name":"RoleRevoked","inputs":[{"name":"role","type":"bytes32","indexed":true,"internalType":"bytes32"},{"name":"account","type":"address","indexed":true,"internalType":"address"},{"name":"sender","type":"address","indexed":true,"internalType":"address"}],"anonymous":false},{"type":"event","name":"TreasuryUpdated","inputs":[{"name":"oldTreasury","type":"address","indexed":false,"internalType":"address"},{"name":"newTreasury","type":"address","indexed":false,"internalType":"address"}],"anonymous":false},{"type":"event","name":"Unpaused","inputs":[{"name":"account","type":"address","indexed":false,"internalType":"address"}],"anonymous":false},{"type":"error","name":"AccessControlBadConfirmation","inputs":[]},{"type":"error","name":"AccessControlUnauthorizedAccount","inputs":[{"name":"account","type":"address","internalType":"address"},{"name":"neededRole","type":"bytes32","internalType":"bytes32"}]},{"type":"error","name":"AmountAboveMaximum","inputs":[]},{"type":"error","name":"AmountBelowMinimum","inputs":[]},{"type":"error","name":"EnforcedPause","inputs":[]},{"type":"error","name":"ExpectedPause","inputs":[]},{"type":"error","name":"FeeTooHigh","inputs":[]},{"type":"error","name":"InsufficientNativeToken","inputs":[]},{"type":"error","name":"InvalidAddress","inputs":[]},{"type":"error","name":"InvalidAmount","inputs":[]},{"type":"error","name":"ReentrancyGuardReentrantCall","inputs":[]},{"type":"error","name":"SafeERC20FailedOperation","inputs":[{"name":"token","type":"address","internalType":"address"}]},{"type":"error","name":"TransferFailed","inputs":[]}],"bytecode":{"object":"0x60e060405234801561000f575f80fd5b50604051611f63380380611f6383398101604081905261002e916102bf565b600180556001600160a01b0387166100595760405163e6c4247b60e01b815260040160405180910390fd5b6001600160a01b0386166100805760405163e6c4247b60e01b815260040160405180910390fd5b6001600160a01b0385166100a75760405163e6c4247b60e01b815260040160405180910390fd5b6001600160a01b0384166100ce5760405163e6c4247b60e01b815260040160405180910390fd5b6001600160a01b0383166100f55760405163e6c4247b60e01b815260040160405180910390fd5b6001600160a01b03811661011c5760405163e6c4247b60e01b815260040160405180910390fd5b6101f482111561013f5760405163cd4e616760e01b815260040160405180910390fd5b6001600160a01b0387811660805286811660a05285811660c05260028054610100600160a81b03191661010087841602179055600380546001600160a01b03191691851691909117905560048290556101985f826101fb565b506101c37f56623da34b1ec5cb86498f15a28504a6323a0eedfb150423fe6f418d952826ee826101fb565b506101ee7f65d7a28e3265b37a6474929f336521b332c1681b933f6cb9f3376673440d862a826101fb565b5050505050505050610339565b5f828152602081815260408083206001600160a01b038516845290915281205460ff1661029b575f838152602081815260408083206001600160a01b03861684529091529020805460ff191660011790556102533390565b6001600160a01b0316826001600160a01b0316847f2f8788117e7eff1d82e926ec794901d17c78024a50270940304540a733656f0d60405160405180910390a450600161029e565b505f5b92915050565b80516001600160a01b03811681146102ba575f80fd5b919050565b5f805f805f805f60e0888a0312156102d5575f80fd5b6102de886102a4565b96506102ec602089016102a4565b95506102fa604089016102a4565b9450610308606089016102a4565b9350610316608089016102a4565b925060a0880151915061032b60c089016102a4565b905092959891949750929550565b60805160a05160c051611bcf6103945f395f81816105b8015281816112f4015261139701525f818161062a01526109ab01525f818161037e0152818161085001528181611286015281816112d201526113c60152611bcf5ff3fe608060405260043610610215575f3560e01c80638456cb591161011e578063d547741f116100a8578063e63ea4081161006d578063e63ea408146106ad578063e6d9ce3d146106cc578063e917f0ce14610755578063ef8b30f714610774578063f0f44260146107a8575f80fd5b8063d547741f146105fa578063da25b72514610619578063dd5967c31461064c578063e1e158a514610664578063e63ab1e91461067a575f80fd5b8063b6b55f25116100ee578063b6b55f2514610551578063bf5c95c114610564578063c5f956af14610583578063c6328a46146105a7578063d03f078b146105da575f80fd5b80638456cb59146104a457806391d14854146104b8578063a217fddf146104d7578063ae59a6b2146104ea575f80fd5b80633e413bee1161019f578063587f5ed71161016f578063587f5ed71461041b5780635c975abb1461043057806369fe0e2d146104475780636a53d6b9146104665780636f7df9bb14610485575f80fd5b80633e413bee1461036d5780633f4ba83a146103b857806351086bc9146103cc578063557d9de314610407575f80fd5b8063248a9ca3116101e5578063248a9ca3146102c057806324a9d853146102ee5780632f2ff15d146103035780632f4f21e21461032257806336568abe1461034e575f80fd5b806301ffc9a714610220578063091d278814610254578063164e68de146102785780631dac56d314610299575f80fd5b3661021c57005b5f80fd5b34801561022b575f80fd5b5061023f61023a366004611889565b6107c7565b60405190151581526020015b60405180910390f35b34801561025f575f80fd5b5061026a6203d09081565b60405190815260200161024b565b348015610283575f80fd5b506102976102923660046118cd565b6107fd565b005b3480156102a4575f80fd5b506102ad600281565b60405161ffff909116815260200161024b565b3480156102cb575f80fd5b5061026a6102da3660046118e6565b5f9081526020819052604090206001015490565b3480156102f9575f80fd5b5061026a60045481565b34801561030e575f80fd5b5061029761031d3660046118fd565b6108bf565b610335610330366004611927565b6108e9565b60405167ffffffffffffffff909116815260200161024b565b348015610359575f80fd5b506102976103683660046118fd565b610936565b348015610378575f80fd5b506103a07f000000000000000000000000000000000000000000000000000000000000000081565b6040516001600160a01b03909116815260200161024b565b3480156103c3575f80fd5b5061029761096e565b3480156103d7575f80fd5b5061023f6103e6366004611964565b67ffffffffffffffff165f9081526007602052604090206004015460ff1690565b348015610412575f80fd5b5061026a610983565b348015610426575f80fd5b5061026a60055481565b34801561043b575f80fd5b5060025460ff1661023f565b348015610452575f80fd5b506102976104613660046118e6565b610a21565b348015610471575f80fd5b50610297610480366004611964565b610aa2565b348015610490575f80fd5b506003546103a0906001600160a01b031681565b3480156104af575f80fd5b50610297610bd8565b3480156104c3575f80fd5b5061023f6104d23660046118fd565b610c0a565b3480156104e2575f80fd5b5061026a5f81565b3480156104f5575f80fd5b50610509610504366004611964565b610c32565b60405161024b919081516001600160a01b0316815260208083015190820152604080830151908201526060808301519082015260809182015115159181019190915260a00190565b61033561055f3660046118e6565b610cd0565b34801561056f575f80fd5b5061029761057e36600461197f565b610cfb565b34801561058e575f80fd5b506002546103a09061010090046001600160a01b031681565b3480156105b2575f80fd5b506103a07f000000000000000000000000000000000000000000000000000000000000000081565b3480156105e5575f80fd5b5061026a5f80516020611b7a83398151915281565b348015610605575f80fd5b506102976106143660046118fd565b610e18565b348015610624575f80fd5b506103a07f000000000000000000000000000000000000000000000000000000000000000081565b348015610657575f80fd5b5061026a64e8d4a5100081565b34801561066f575f80fd5b5061026a620f424081565b348015610685575f80fd5b5061026a7f65d7a28e3265b37a6474929f336521b332c1681b933f6cb9f3376673440d862a81565b3480156106b8575f80fd5b506102976106c73660046119f0565b610e3c565b3480156106d7575f80fd5b506107216106e6366004611964565b60076020525f9081526040902080546001820154600283015460038401546004909401546001600160a01b0390931693919290919060ff1685565b604080516001600160a01b03909616865260208601949094529284019190915260608301521515608082015260a00161024b565b348015610760575f80fd5b5061029761076f3660046118cd565b610f05565b34801561077f575f80fd5b5061079361078e3660046118e6565b610f9d565b6040805192835260208301919091520161024b565b3480156107b3575f80fd5b506102976107c23660046118cd565b610fcd565b5f6001600160e01b03198216637965db0b60e01b14806107f757506301ffc9a760e01b6001600160e01b03198316145b92915050565b5f80516020611b7a8339815191526108148161106f565b6001600160a01b03821661083b5760405163e6c4247b60e01b815260040160405180910390fd5b600580545f9091556108776001600160a01b037f0000000000000000000000000000000000000000000000000000000000000000168483611079565b826001600160a01b03167fc0819c13be868895eb93e40eaceb96de976442fa1d404e5c55f14bb65a8c489a826040516108b291815260200190565b60405180910390a2505050565b5f828152602081905260409020600101546108d98161106f565b6108e383836110d8565b50505050565b5f6108f2611167565b6108fa611191565b6001600160a01b0383166109215760405163e6c4247b60e01b815260040160405180910390fd5b61092b83836111b7565b90506107f760018055565b6001600160a01b038116331461095f5760405163334bd91960e11b815260040160405180910390fd5b61096982826115b4565b505050565b5f6109788161106f565b61098061161d565b50565b60405163c23ee3c360e01b8152600260048201525f602482018190526203d0906044830152907f00000000000000000000000000000000000000000000000000000000000000006001600160a01b03169063c23ee3c3906064016040805180830381865afa1580156109f7573d5f803e3d5ffd5b505050506040513d601f19601f82011682018060405250810190610a1b9190611a2a565b50919050565b5f80516020611b7a833981519152610a388161106f565b6101f4821115610a5b5760405163cd4e616760e01b815260040160405180910390fd5b600480549083905560408051828152602081018590527f528d9479e9f9889a87a3c30c7f7ba537e5e59c4c85a37733b16e57c62df6130291015b60405180910390a1505050565b5f80516020611b7a833981519152610ab98161106f565b67ffffffffffffffff82165f90815260076020526040902080546001600160a01b0316610b215760405162461bcd60e51b815260206004820152601160248201527011115413d4d25517d393d517d193d55391607a1b60448201526064015b60405180910390fd5b600481015460ff1615610b6a5760405162461bcd60e51b81526020600482015260116024820152701053149150511657d0d3d3541311551151607a1b6044820152606401610b18565b60048101805460ff191660019081179091558154908201546040516001600160a01b039092169167ffffffffffffffff8616917f2276762544f86013121a0fb047a308181db4fdbb350f8d3ff955ba07cdf1eadb91610bcb91815260200190565b60405180910390a3505050565b7f65d7a28e3265b37a6474929f336521b332c1681b933f6cb9f3376673440d862a610c028161106f565b61098061166f565b5f918252602082815260408084206001600160a01b0393909316845291905290205460ff1690565b610c6a6040518060a001604052805f6001600160a01b031681526020015f81526020015f81526020015f81526020015f151581525090565b5067ffffffffffffffff165f90815260076020908152604091829020825160a08101845281546001600160a01b031681526001820154928101929092526002810154928201929092526003820154606082015260049091015460ff161515608082015290565b5f610cd9611167565b610ce1611191565b610ceb33836111b7565b9050610cf660018055565b919050565b5f80516020611b7a833981519152610d128161106f565b5f5b828110156108e3575f60075f868685818110610d3257610d32611a4c565b9050602002016020810190610d479190611964565b67ffffffffffffffff16815260208101919091526040015f2080549091506001600160a01b031615801590610d815750600481015460ff16155b15610e0f5760048101805460ff1916600117905580546001600160a01b0316858584818110610db257610db2611a4c565b9050602002016020810190610dc79190611964565b67ffffffffffffffff167f2276762544f86013121a0fb047a308181db4fdbb350f8d3ff955ba07cdf1eadb8360010154604051610e0691815260200190565b60405180910390a35b50600101610d14565b5f82815260208190526040902060010154610e328161106f565b6108e383836115b4565b5f610e468161106f565b6001600160a01b038316610e6d5760405163e6c4247b60e01b815260040160405180910390fd5b6001600160a01b038416610ef1575f836001600160a01b0316836040515f6040518083038185875af1925050503d805f8114610ec4576040519150601f19603f3d011682016040523d82523d5f602084013e610ec9565b606091505b5050905080610eeb576040516312171d8360e31b815260040160405180910390fd5b506108e3565b6108e36001600160a01b0385168484611079565b5f80516020611b7a833981519152610f1c8161106f565b6001600160a01b038216610f435760405163e6c4247b60e01b815260040160405180910390fd5b600380546001600160a01b038481166001600160a01b031983168117909355604080519190921680825260208201939093527f2934917ef7215887e304b63dda4f079d5b265e26f20aadafcb3143fc2d7c03189101610a95565b5f8061271060045484610fb09190611a74565b610fba9190611a8b565b9050610fc68184611aaa565b9150915091565b5f80516020611b7a833981519152610fe48161106f565b6001600160a01b03821661100b5760405163e6c4247b60e01b815260040160405180910390fd5b600280546001600160a01b03848116610100818102610100600160a81b031985161790945560408051949093049091168084526020840191909152917f4ab5be82436d353e61ca18726e984e561f5c1cc7c6d38b29d2553c790434705a9101610a95565b61098081336116ac565b6040516001600160a01b0383811660248301526044820183905261096991859182169063a9059cbb906064015b604051602081830303815290604052915060e01b6020820180516001600160e01b0383818316178352505050506116e9565b5f6110e38383610c0a565b611160575f838152602081815260408083206001600160a01b03861684529091529020805460ff191660011790556111183390565b6001600160a01b0316826001600160a01b0316847f2f8788117e7eff1d82e926ec794901d17c78024a50270940304540a733656f0d60405160405180910390a45060016107f7565b505f6107f7565b60026001540361118a57604051633ee5aeb560e01b815260040160405180910390fd5b6002600155565b60025460ff16156111b55760405163d93c066560e01b815260040160405180910390fd5b565b5f815f036111d85760405163162908e360e11b815260040160405180910390fd5b620f42408210156111fc57604051632fcd1a0f60e01b815260040160405180910390fd5b64e8d4a510008211156112225760405163ea5d71ed60e01b815260040160405180910390fd5b5f612710600454846112349190611a74565b61123e9190611a8b565b90505f61124b8285611aaa565b90505f611256610983565b905080341015611279576040516332201f6960e11b815260040160405180910390fd5b6112ae6001600160a01b037f000000000000000000000000000000000000000000000000000000000000000016333088611755565b8260055f8282546112bf9190611abd565b9091555061131990506001600160a01b037f0000000000000000000000000000000000000000000000000000000000000000167f00000000000000000000000000000000000000000000000000000000000000008461178e565b6006805463ffffffff16905f61132e83611ad0565b825463ffffffff91821661010093840a9081029202191617909155600254604080516001600160a01b038b811660208301529390920490921692505f910160408051601f19818403018152908290526006546362d2f5ed60e11b83529092506001600160a01b037f0000000000000000000000000000000000000000000000000000000000000000169163c5a5ebda9186916113fe917f0000000000000000000000000000000000000000000000000000000000000000918a916002918a9163ffffffff16908a90600401611af4565b60206040518083038185885af115801561141a573d5f803e3d5ffd5b50505050506040513d601f19601f8201168201806040525081019061143f9190611b5e565b6040805160a0810182526001600160a01b038b811680835260208084018a81528486018c81524260608088018281525f6080808b0182815267ffffffffffffffff8e1680845260078a52928d90209b518c546001600160a01b0319169b169a909a178b55955160018b0155935160028a015551600389015595516004909701805460ff19169715159790971790965586518c81529283018d90529582019590955291820192909252929850917f5fefd2d9d28c0b993b9fee29b348d011b6f63fb09c8597e17400a0e86d95cb44910160405180910390a2823411156115a9575f3361152a8534611aaa565b6040515f81818185875af1925050503d805f8114611563576040519150601f19603f3d011682016040523d82523d5f602084013e611568565b606091505b50509050806115a7576040515f815233907fc0819c13be868895eb93e40eaceb96de976442fa1d404e5c55f14bb65a8c489a9060200160405180910390a25b505b505050505092915050565b5f6115bf8383610c0a565b15611160575f838152602081815260408083206001600160a01b0386168085529252808320805460ff1916905551339286917ff6391f5c32d9c69d2a47ea670b442974b53935d1edc7fd64eb21e047a839171b9190a45060016107f7565b61162561181d565b6002805460ff191690557f5db9ee0a495bf2e6ff9c91a7834c1ba4fdd244a5e8aa4e537bd38aeae4b073aa335b6040516001600160a01b03909116815260200160405180910390a1565b611677611191565b6002805460ff191660011790557f62e78cea01bee320cd4e420270b5ea74000d11b0c9f74754ebdbfc544b05a2586116523390565b6116b68282610c0a565b6116e55760405163e2517d3f60e01b81526001600160a01b038216600482015260248101839052604401610b18565b5050565b5f8060205f8451602086015f885af180611708576040513d5f823e3d81fd5b50505f513d9150811561171f57806001141561172c565b6001600160a01b0384163b155b156108e357604051635274afe760e01b81526001600160a01b0385166004820152602401610b18565b6040516001600160a01b0384811660248301528381166044830152606482018390526108e39186918216906323b872dd906084016110a6565b604080516001600160a01b038416602482015260448082018490528251808303909101815260649091019091526020810180516001600160e01b031663095ea7b360e01b1790526117df8482611840565b6108e3576040516001600160a01b0384811660248301525f604483015261181391869182169063095ea7b3906064016110a6565b6108e384826116e9565b60025460ff166111b557604051638dfc202b60e01b815260040160405180910390fd5b5f805f8060205f8651602088015f8a5af192503d91505f51905082801561187f57508115611871578060011461187f565b5f866001600160a01b03163b115b9695505050505050565b5f60208284031215611899575f80fd5b81356001600160e01b0319811681146118b0575f80fd5b9392505050565b80356001600160a01b0381168114610cf6575f80fd5b5f602082840312156118dd575f80fd5b6118b0826118b7565b5f602082840312156118f6575f80fd5b5035919050565b5f806040838503121561190e575f80fd5b8235915061191e602084016118b7565b90509250929050565b5f8060408385031215611938575f80fd5b611941836118b7565b946020939093013593505050565b67ffffffffffffffff81168114610980575f80fd5b5f60208284031215611974575f80fd5b81356118b08161194f565b5f8060208385031215611990575f80fd5b823567ffffffffffffffff8111156119a6575f80fd5b8301601f810185136119b6575f80fd5b803567ffffffffffffffff8111156119cc575f80fd5b8560208260051b84010111156119e0575f80fd5b6020919091019590945092505050565b5f805f60608486031215611a02575f80fd5b611a0b846118b7565b9250611a19602085016118b7565b929592945050506040919091013590565b5f8060408385031215611a3b575f80fd5b505080516020909101519092909150565b634e487b7160e01b5f52603260045260245ffd5b634e487b7160e01b5f52601160045260245ffd5b80820281158282048414176107f7576107f7611a60565b5f82611aa557634e487b7160e01b5f52601260045260245ffd5b500490565b818103818111156107f7576107f7611a60565b808201808211156107f7576107f7611a60565b5f63ffffffff821663ffffffff8103611aeb57611aeb611a60565b60010192915050565b60018060a01b038716815285602082015261ffff8516604082015283606082015263ffffffff8316608082015260c060a08201525f82518060c0840152806020850160e085015e5f60e0828501015260e0601f19601f830116840101915050979650505050505050565b5f60208284031215611b6e575f80fd5b81516118b08161194f56fe56623da34b1ec5cb86498f15a28504a6323a0eedfb150423fe6f418d952826eea26469706673582212205c1e81dbc77824ff21b5b30d0ed07c7aba91f48a07ce513f93374e53ca0e0ff564736f6c634300081a0033","linkReferences":{}},"methodIdentifiers":{"DEFAULT_ADMIN_ROLE()":"a217fddf","ETHEREUM_CHAIN_ID()":"1dac56d3","GAS_LIMIT()":"091d2788","MAX_DEPOSIT()":"dd5967c3","MIN_DEPOSIT()":"e1e158a5","PAUSER_ROLE()":"e63ab1e9","ROUTER_ADMIN_ROLE()":"d03f078b","accumulatedFees()":"587f5ed7","deposit(uint256)":"b6b55f25","depositFor(address,uint256)":"2f4f21e2","directMintAddress()":"6f7df9bb","emergencyWithdraw(address,address,uint256)":"e63ea408","feeBps()":"24a9d853","getDeposit(uint64)":"ae59a6b2","getRoleAdmin(bytes32)":"248a9ca3","grantRole(bytes32,address)":"2f2ff15d","hasRole(bytes32,address)":"91d14854","isDepositComplete(uint64)":"51086bc9","markDepositComplete(uint64)":"6a53d6b9","markDepositsComplete(uint64[])":"bf5c95c1","pause()":"8456cb59","paused()":"5c975abb","pendingDeposits(uint64)":"e6d9ce3d","previewDeposit(uint256)":"ef8b30f7","quoteBridgeCost()":"557d9de3","renounceRole(bytes32,address)":"36568abe","revokeRole(bytes32,address)":"d547741f","setDirectMint(address)":"e917f0ce","setFee(uint256)":"69fe0e2d","setTreasury(address)":"f0f44260","supportsInterface(bytes4)":"01ffc9a7","tokenBridge()":"c6328a46","treasuryAddress()":"c5f956af","unpause()":"3f4ba83a","usdc()":"3e413bee","withdrawFees(address)":"164e68de","wormholeRelayer()":"da25b725"},"id":3}