{"abi":[{"type":"constructor","inputs":[{"name":"assetsPerShare_","type":"uint256","internalType":"uint256"}],"stateMutability":"nonpayable"},{"type":"function","name":"convertToAssets","inputs":[{"name":"shares","type":"uint256","internalType":"uint256"}],"outputs":[{"name":"","type":"uint256","internalType":"uint256"}],"stateMutability":"view"},{"type":"function","name":"setAssetsPerShare","inputs":[{"name":"assetsPerShare_","type":"uint256","internalType":"uint256"}],"outputs":[],"stateMutability":"nonpayable"},{"type":"function","name":"setTotalAssets","inputs":[{"name":"totalAssets_","type":"uint256","internalType":"uint256"}],"outputs":[],"stateMutability":"nonpayable"},{"type":"function","name":"setTotalSupply","inputs":[{"name":"totalSupply_","type":"uint256","internalType":"uint256"}],"outputs":[],"stateMutability":"nonpayable"},{"type":"function","name":"totalAssets","inputs":[],"outputs":[{"name":"","type":"uint256","internalType":"uint256"}],"stateMutability":"view"},{"type":"function","name":"totalSupply","inputs":[],"outputs":[{"name":"","type":"uint256","internalType":"uint256"}],"stateMutability":"view"}],"bytecode":{"object":"0x6080604052683635c9adc5dea00000600155683635c9adc5dea000006002553480156028575f80fd5b506040516101f33803806101f3833981016040819052604591604b565b5f556061565b5f60208284031215605a575f80fd5b5051919050565b6101858061006e5f395ff3fe608060405234801561000f575f80fd5b5060043610610060575f3560e01c806301e1d1141461006457806307a2d13a1461007a5780631765b3131461008d57806318160ddd146100a2578063c47ed0ea146100aa578063f7ea7a3d146100bc575b5f80fd5b6002545b60405190815260200160405180910390f35b6100686100883660046100f6565b6100cf565b6100a061009b3660046100f6565b600255565b005b600154610068565b6100a06100b83660046100f6565b5f55565b6100a06100ca3660046100f6565b600155565b5f670de0b6b3a7640000825f546100e6919061010d565b6100f09190610130565b92915050565b5f60208284031215610106575f80fd5b5035919050565b80820281158282048414176100f057634e487b7160e01b5f52601160045260245ffd5b5f8261014a57634e487b7160e01b5f52601260045260245ffd5b50049056fea2646970667358221220adcd38640c1e6400ed3684c512e41baa7d5ae0b548cc711343e9eed87836916a64736f6c634300081a0033","linkReferences":{}},"methodIdentifiers":{"convertToAssets(uint256)":"07a2d13a","setAssetsPerShare(uint256)":"c47ed0ea","setTotalAssets(uint256)":"1765b313","setTotalSupply(uint256)":"f7ea7a3d","totalAssets()":"01e1d114","totalSupply()":"18160ddd"},"id":22}