{"abi":[{"type":"constructor","inputs":[{"name":"_vault","type":"address","internalType":"address"},{"name":"_oracle","type":"address","internalType":"address"},{"name":"_musd","type":"address","internalType":"address"},{"name":"_interestRateBps","type":"uint256","internalType":"uint256"},{"name":"_minDebt","type":"uint256","internalType":"uint256"}],"stateMutability":"nonpayable"},{"type":"function","name":"ADMIN_DELAY","inputs":[],"outputs":[{"name":"","type":"uint256","internalType":"uint256"}],"stateMutability":"view"},{"type":"function","name":"BORROW_ADMIN_ROLE","inputs":[],"outputs":[{"name":"","type":"bytes32","internalType":"bytes32"}],"stateMutability":"view"},{"type":"function","name":"DEFAULT_ADMIN_ROLE","inputs":[],"outputs":[{"name":"","type":"bytes32","internalType":"bytes32"}],"stateMutability":"view"},{"type":"function","name":"LEVERAGE_VAULT_ROLE","inputs":[],"outputs":[{"name":"","type":"bytes32","internalType":"bytes32"}],"stateMutability":"view"},{"type":"function","name":"LIQUIDATION_ROLE","inputs":[],"outputs":[{"name":"","type":"bytes32","internalType":"bytes32"}],"stateMutability":"view"},{"type":"function","name":"PAUSER_ROLE","inputs":[],"outputs":[{"name":"","type":"bytes32","internalType":"bytes32"}],"stateMutability":"view"},{"type":"function","name":"badDebt","inputs":[],"outputs":[{"name":"","type":"uint256","internalType":"uint256"}],"stateMutability":"view"},{"type":"function","name":"badDebtCovered","inputs":[],"outputs":[{"name":"","type":"uint256","internalType":"uint256"}],"stateMutability":"view"},{"type":"function","name":"borrow","inputs":[{"name":"amount","type":"uint256","internalType":"uint256"}],"outputs":[],"stateMutability":"nonpayable"},{"type":"function","name":"borrowCapacity","inputs":[{"name":"user","type":"address","internalType":"address"}],"outputs":[{"name":"","type":"uint256","internalType":"uint256"}],"stateMutability":"view"},{"type":"function","name":"borrowFor","inputs":[{"name":"user","type":"address","internalType":"address"},{"name":"amount","type":"uint256","internalType":"uint256"}],"outputs":[],"stateMutability":"nonpayable"},{"type":"function","name":"cancelInterestRate","inputs":[],"outputs":[],"stateMutability":"nonpayable"},{"type":"function","name":"cancelInterestRateModel","inputs":[],"outputs":[],"stateMutability":"nonpayable"},{"type":"function","name":"cancelMinDebt","inputs":[],"outputs":[],"stateMutability":"nonpayable"},{"type":"function","name":"cancelSMUSD","inputs":[],"outputs":[],"stateMutability":"nonpayable"},{"type":"function","name":"cancelTreasury","inputs":[],"outputs":[],"stateMutability":"nonpayable"},{"type":"function","name":"coverBadDebt","inputs":[{"name":"amount","type":"uint256","internalType":"uint256"}],"outputs":[],"stateMutability":"nonpayable"},{"type":"function","name":"cumulativeBadDebt","inputs":[],"outputs":[{"name":"","type":"uint256","internalType":"uint256"}],"stateMutability":"view"},{"type":"function","name":"drainUnroutedInterest","inputs":[],"outputs":[],"stateMutability":"nonpayable"},{"type":"function","name":"executeInterestRate","inputs":[],"outputs":[],"stateMutability":"nonpayable"},{"type":"function","name":"executeInterestRateModel","inputs":[],"outputs":[],"stateMutability":"nonpayable"},{"type":"function","name":"executeMinDebt","inputs":[],"outputs":[],"stateMutability":"nonpayable"},{"type":"function","name":"executeSMUSD","inputs":[],"outputs":[],"stateMutability":"nonpayable"},{"type":"function","name":"executeTreasury","inputs":[],"outputs":[],"stateMutability":"nonpayable"},{"type":"function","name":"getCurrentBorrowRate","inputs":[],"outputs":[{"name":"","type":"uint256","internalType":"uint256"}],"stateMutability":"view"},{"type":"function","name":"getCurrentSupplyRate","inputs":[],"outputs":[{"name":"","type":"uint256","internalType":"uint256"}],"stateMutability":"view"},{"type":"function","name":"getRoleAdmin","inputs":[{"name":"role","type":"bytes32","internalType":"bytes32"}],"outputs":[{"name":"","type":"bytes32","internalType":"bytes32"}],"stateMutability":"view"},{"type":"function","name":"getTotalSupply","inputs":[],"outputs":[{"name":"","type":"uint256","internalType":"uint256"}],"stateMutability":"view"},{"type":"function","name":"getUtilizationRate","inputs":[],"outputs":[{"name":"","type":"uint256","internalType":"uint256"}],"stateMutability":"view"},{"type":"function","name":"grantRole","inputs":[{"name":"role","type":"bytes32","internalType":"bytes32"},{"name":"account","type":"address","internalType":"address"}],"outputs":[],"stateMutability":"nonpayable"},{"type":"function","name":"hasRole","inputs":[{"name":"role","type":"bytes32","internalType":"bytes32"},{"name":"account","type":"address","internalType":"address"}],"outputs":[{"name":"","type":"bool","internalType":"bool"}],"stateMutability":"view"},{"type":"function","name":"healthFactor","inputs":[{"name":"user","type":"address","internalType":"address"}],"outputs":[{"name":"","type":"uint256","internalType":"uint256"}],"stateMutability":"view"},{"type":"function","name":"healthFactorUnsafe","inputs":[{"name":"user","type":"address","internalType":"address"}],"outputs":[{"name":"","type":"uint256","internalType":"uint256"}],"stateMutability":"view"},{"type":"function","name":"interestRateBps","inputs":[],"outputs":[{"name":"","type":"uint256","internalType":"uint256"}],"stateMutability":"view"},{"type":"function","name":"interestRateModel","inputs":[],"outputs":[{"name":"","type":"address","internalType":"contract IInterestRateModel"}],"stateMutability":"view"},{"type":"function","name":"lastGlobalAccrualTime","inputs":[],"outputs":[{"name":"","type":"uint256","internalType":"uint256"}],"stateMutability":"view"},{"type":"function","name":"maxBorrow","inputs":[{"name":"user","type":"address","internalType":"address"}],"outputs":[{"name":"","type":"uint256","internalType":"uint256"}],"stateMutability":"view"},{"type":"function","name":"minDebt","inputs":[],"outputs":[{"name":"","type":"uint256","internalType":"uint256"}],"stateMutability":"view"},{"type":"function","name":"musd","inputs":[],"outputs":[{"name":"","type":"address","internalType":"contract IMUSD"}],"stateMutability":"view"},{"type":"function","name":"oracle","inputs":[],"outputs":[{"name":"","type":"address","internalType":"contract IPriceOracle"}],"stateMutability":"view"},{"type":"function","name":"pause","inputs":[],"outputs":[],"stateMutability":"nonpayable"},{"type":"function","name":"paused","inputs":[],"outputs":[{"name":"","type":"bool","internalType":"bool"}],"stateMutability":"view"},{"type":"function","name":"pendingInterestRate","inputs":[],"outputs":[{"name":"","type":"uint256","internalType":"uint256"}],"stateMutability":"view"},{"type":"function","name":"pendingInterestRateModel","inputs":[],"outputs":[{"name":"","type":"address","internalType":"address"}],"stateMutability":"view"},{"type":"function","name":"pendingInterestRateModelTime","inputs":[],"outputs":[{"name":"","type":"uint256","internalType":"uint256"}],"stateMutability":"view"},{"type":"function","name":"pendingInterestRateSet","inputs":[],"outputs":[{"name":"","type":"bool","internalType":"bool"}],"stateMutability":"view"},{"type":"function","name":"pendingInterestRateTime","inputs":[],"outputs":[{"name":"","type":"uint256","internalType":"uint256"}],"stateMutability":"view"},{"type":"function","name":"pendingMinDebt","inputs":[],"outputs":[{"name":"","type":"uint256","internalType":"uint256"}],"stateMutability":"view"},{"type":"function","name":"pendingMinDebtTime","inputs":[],"outputs":[{"name":"","type":"uint256","internalType":"uint256"}],"stateMutability":"view"},{"type":"function","name":"pendingSMUSD","inputs":[],"outputs":[{"name":"","type":"address","internalType":"address"}],"stateMutability":"view"},{"type":"function","name":"pendingSMUSDTime","inputs":[],"outputs":[{"name":"","type":"uint256","internalType":"uint256"}],"stateMutability":"view"},{"type":"function","name":"pendingTreasury","inputs":[],"outputs":[{"name":"","type":"address","internalType":"address"}],"stateMutability":"view"},{"type":"function","name":"pendingTreasuryTime","inputs":[],"outputs":[{"name":"","type":"uint256","internalType":"uint256"}],"stateMutability":"view"},{"type":"function","name":"positions","inputs":[{"name":"","type":"address","internalType":"address"}],"outputs":[{"name":"principal","type":"uint256","internalType":"uint256"},{"name":"accruedInterest","type":"uint256","internalType":"uint256"},{"name":"lastAccrualTime","type":"uint256","internalType":"uint256"}],"stateMutability":"view"},{"type":"function","name":"protocolReserves","inputs":[],"outputs":[{"name":"","type":"uint256","internalType":"uint256"}],"stateMutability":"view"},{"type":"function","name":"recordBadDebt","inputs":[{"name":"user","type":"address","internalType":"address"}],"outputs":[],"stateMutability":"nonpayable"},{"type":"function","name":"reduceDebt","inputs":[{"name":"user","type":"address","internalType":"address"},{"name":"amount","type":"uint256","internalType":"uint256"}],"outputs":[],"stateMutability":"nonpayable"},{"type":"function","name":"renounceRole","inputs":[{"name":"role","type":"bytes32","internalType":"bytes32"},{"name":"callerConfirmation","type":"address","internalType":"address"}],"outputs":[],"stateMutability":"nonpayable"},{"type":"function","name":"repay","inputs":[{"name":"amount","type":"uint256","internalType":"uint256"}],"outputs":[],"stateMutability":"nonpayable"},{"type":"function","name":"repayFor","inputs":[{"name":"user","type":"address","internalType":"address"},{"name":"amount","type":"uint256","internalType":"uint256"}],"outputs":[],"stateMutability":"nonpayable"},{"type":"function","name":"requestInterestRate","inputs":[{"name":"_rateBps","type":"uint256","internalType":"uint256"}],"outputs":[],"stateMutability":"nonpayable"},{"type":"function","name":"requestInterestRateModel","inputs":[{"name":"_model","type":"address","internalType":"address"}],"outputs":[],"stateMutability":"nonpayable"},{"type":"function","name":"requestMinDebt","inputs":[{"name":"_minDebt","type":"uint256","internalType":"uint256"}],"outputs":[],"stateMutability":"nonpayable"},{"type":"function","name":"requestSMUSD","inputs":[{"name":"_smusd","type":"address","internalType":"address"}],"outputs":[],"stateMutability":"nonpayable"},{"type":"function","name":"requestTreasury","inputs":[{"name":"_treasury","type":"address","internalType":"address"}],"outputs":[],"stateMutability":"nonpayable"},{"type":"function","name":"revokeRole","inputs":[{"name":"role","type":"bytes32","internalType":"bytes32"},{"name":"account","type":"address","internalType":"address"}],"outputs":[],"stateMutability":"nonpayable"},{"type":"function","name":"smusd","inputs":[],"outputs":[{"name":"","type":"address","internalType":"contract ISMUSD"}],"stateMutability":"view"},{"type":"function","name":"socializeBadDebt","inputs":[{"name":"amount","type":"uint256","internalType":"uint256"},{"name":"borrowers","type":"address[]","internalType":"address[]"}],"outputs":[],"stateMutability":"nonpayable"},{"type":"function","name":"supportsInterface","inputs":[{"name":"interfaceId","type":"bytes4","internalType":"bytes4"}],"outputs":[{"name":"","type":"bool","internalType":"bool"}],"stateMutability":"view"},{"type":"function","name":"totalBorrows","inputs":[],"outputs":[{"name":"","type":"uint256","internalType":"uint256"}],"stateMutability":"view"},{"type":"function","name":"totalDebt","inputs":[{"name":"user","type":"address","internalType":"address"}],"outputs":[{"name":"","type":"uint256","internalType":"uint256"}],"stateMutability":"view"},{"type":"function","name":"totalInterestPaidToSuppliers","inputs":[],"outputs":[{"name":"","type":"uint256","internalType":"uint256"}],"stateMutability":"view"},{"type":"function","name":"treasury","inputs":[],"outputs":[{"name":"","type":"address","internalType":"contract ITreasuryV2"}],"stateMutability":"view"},{"type":"function","name":"unpause","inputs":[],"outputs":[],"stateMutability":"nonpayable"},{"type":"function","name":"unroutedInterest","inputs":[],"outputs":[{"name":"","type":"uint256","internalType":"uint256"}],"stateMutability":"view"},{"type":"function","name":"vault","inputs":[],"outputs":[{"name":"","type":"address","internalType":"contract ICollateralVault"}],"stateMutability":"view"},{"type":"function","name":"withdrawCollateral","inputs":[{"name":"token","type":"address","internalType":"address"},{"name":"amount","type":"uint256","internalType":"uint256"}],"outputs":[],"stateMutability":"nonpayable"},{"type":"function","name":"withdrawReserves","inputs":[{"name":"to","type":"address","internalType":"address"},{"name":"amount","type":"uint256","internalType":"uint256"}],"outputs":[],"stateMutability":"nonpayable"},{"type":"event","name":"BadDebtCovered","inputs":[{"name":"amount","type":"uint256","indexed":false,"internalType":"uint256"},{"name":"remainingBadDebt","type":"uint256","indexed":false,"internalType":"uint256"},{"name":"source","type":"string","indexed":false,"internalType":"string"}],"anonymous":false},{"type":"event","name":"BadDebtRecorded","inputs":[{"name":"user","type":"address","indexed":true,"internalType":"address"},{"name":"amount","type":"uint256","indexed":false,"internalType":"uint256"},{"name":"totalBadDebt","type":"uint256","indexed":false,"internalType":"uint256"}],"anonymous":false},{"type":"event","name":"BadDebtSocialized","inputs":[{"name":"amount","type":"uint256","indexed":false,"internalType":"uint256"},{"name":"totalBorrowsBefore","type":"uint256","indexed":false,"internalType":"uint256"},{"name":"totalBorrowsAfter","type":"uint256","indexed":false,"internalType":"uint256"}],"anonymous":false},{"type":"event","name":"Borrowed","inputs":[{"name":"user","type":"address","indexed":true,"internalType":"address"},{"name":"amount","type":"uint256","indexed":false,"internalType":"uint256"},{"name":"totalDebt","type":"uint256","indexed":false,"internalType":"uint256"}],"anonymous":false},{"type":"event","name":"CollateralWithdrawn","inputs":[{"name":"user","type":"address","indexed":true,"internalType":"address"},{"name":"token","type":"address","indexed":true,"internalType":"address"},{"name":"amount","type":"uint256","indexed":false,"internalType":"uint256"}],"anonymous":false},{"type":"event","name":"DebtAdjusted","inputs":[{"name":"user","type":"address","indexed":true,"internalType":"address"},{"name":"newDebt","type":"uint256","indexed":false,"internalType":"uint256"},{"name":"reason","type":"string","indexed":false,"internalType":"string"}],"anonymous":false},{"type":"event","name":"GlobalInterestAccrued","inputs":[{"name":"interest","type":"uint256","indexed":false,"internalType":"uint256"},{"name":"newTotalBorrows","type":"uint256","indexed":false,"internalType":"uint256"},{"name":"utilizationBps","type":"uint256","indexed":false,"internalType":"uint256"}],"anonymous":false},{"type":"event","name":"InterestAccrued","inputs":[{"name":"user","type":"address","indexed":true,"internalType":"address"},{"name":"interest","type":"uint256","indexed":false,"internalType":"uint256"},{"name":"totalDebt","type":"uint256","indexed":false,"internalType":"uint256"}],"anonymous":false},{"type":"event","name":"InterestRateChangeCancelled","inputs":[{"name":"rateBps","type":"uint256","indexed":false,"internalType":"uint256"}],"anonymous":false},{"type":"event","name":"InterestRateChangeRequested","inputs":[{"name":"rateBps","type":"uint256","indexed":false,"internalType":"uint256"},{"name":"readyAt","type":"uint256","indexed":false,"internalType":"uint256"}],"anonymous":false},{"type":"event","name":"InterestRateModelChangeCancelled","inputs":[{"name":"model","type":"address","indexed":true,"internalType":"address"}],"anonymous":false},{"type":"event","name":"InterestRateModelChangeRequested","inputs":[{"name":"model","type":"address","indexed":true,"internalType":"address"},{"name":"readyAt","type":"uint256","indexed":false,"internalType":"uint256"}],"anonymous":false},{"type":"event","name":"InterestRateModelUpdated","inputs":[{"name":"oldModel","type":"address","indexed":true,"internalType":"address"},{"name":"newModel","type":"address","indexed":true,"internalType":"address"}],"anonymous":false},{"type":"event","name":"InterestRateUpdated","inputs":[{"name":"oldRate","type":"uint256","indexed":false,"internalType":"uint256"},{"name":"newRate","type":"uint256","indexed":false,"internalType":"uint256"}],"anonymous":false},{"type":"event","name":"InterestRoutedToSuppliers","inputs":[{"name":"supplierAmount","type":"uint256","indexed":false,"internalType":"uint256"},{"name":"reserveAmount","type":"uint256","indexed":false,"internalType":"uint256"}],"anonymous":false},{"type":"event","name":"InterestRoutingFailed","inputs":[{"name":"supplierAmount","type":"uint256","indexed":false,"internalType":"uint256"},{"name":"reason","type":"bytes","indexed":false,"internalType":"bytes"}],"anonymous":false},{"type":"event","name":"MinDebtChangeCancelled","inputs":[{"name":"minDebt","type":"uint256","indexed":false,"internalType":"uint256"}],"anonymous":false},{"type":"event","name":"MinDebtChangeRequested","inputs":[{"name":"minDebt","type":"uint256","indexed":false,"internalType":"uint256"},{"name":"readyAt","type":"uint256","indexed":false,"internalType":"uint256"}],"anonymous":false},{"type":"event","name":"MinDebtUpdated","inputs":[{"name":"oldMinDebt","type":"uint256","indexed":false,"internalType":"uint256"},{"name":"newMinDebt","type":"uint256","indexed":false,"internalType":"uint256"}],"anonymous":false},{"type":"event","name":"Paused","inputs":[{"name":"account","type":"address","indexed":false,"internalType":"address"}],"anonymous":false},{"type":"event","name":"Repaid","inputs":[{"name":"user","type":"address","indexed":true,"internalType":"address"},{"name":"amount","type":"uint256","indexed":false,"internalType":"uint256"},{"name":"remaining","type":"uint256","indexed":false,"internalType":"uint256"}],"anonymous":false},{"type":"event","name":"ReservesMintFailed","inputs":[{"name":"to","type":"address","indexed":true,"internalType":"address"},{"name":"amount","type":"uint256","indexed":false,"internalType":"uint256"}],"anonymous":false},{"type":"event","name":"ReservesWithdrawn","inputs":[{"name":"to","type":"address","indexed":true,"internalType":"address"},{"name":"amount","type":"uint256","indexed":false,"internalType":"uint256"}],"anonymous":false},{"type":"event","name":"RoleAdminChanged","inputs":[{"name":"role","type":"bytes32","indexed":true,"internalType":"bytes32"},{"name":"previousAdminRole","type":"bytes32","indexed":true,"internalType":"bytes32"},{"name":"newAdminRole","type":"bytes32","indexed":true,"internalType":"bytes32"}],"anonymous":false},{"type":"event","name":"RoleGranted","inputs":[{"name":"role","type":"bytes32","indexed":true,"internalType":"bytes32"},{"name":"account","type":"address","indexed":true,"internalType":"address"},{"name":"sender","type":"address","indexed":true,"internalType":"address"}],"anonymous":false},{"type":"event","name":"RoleRevoked","inputs":[{"name":"role","type":"bytes32","indexed":true,"internalType":"bytes32"},{"name":"account","type":"address","indexed":true,"internalType":"address"},{"name":"sender","type":"address","indexed":true,"internalType":"address"}],"anonymous":false},{"type":"event","name":"SMUSDChangeCancelled","inputs":[{"name":"smusd","type":"address","indexed":true,"internalType":"address"}],"anonymous":false},{"type":"event","name":"SMUSDChangeRequested","inputs":[{"name":"smusd","type":"address","indexed":true,"internalType":"address"},{"name":"readyAt","type":"uint256","indexed":false,"internalType":"uint256"}],"anonymous":false},{"type":"event","name":"SMUSDUpdated","inputs":[{"name":"oldSMUSD","type":"address","indexed":true,"internalType":"address"},{"name":"newSMUSD","type":"address","indexed":true,"internalType":"address"}],"anonymous":false},{"type":"event","name":"TreasuryChangeCancelled","inputs":[{"name":"treasury","type":"address","indexed":true,"internalType":"address"}],"anonymous":false},{"type":"event","name":"TreasuryChangeRequested","inputs":[{"name":"treasury","type":"address","indexed":true,"internalType":"address"},{"name":"readyAt","type":"uint256","indexed":false,"internalType":"uint256"}],"anonymous":false},{"type":"event","name":"TreasuryUpdated","inputs":[{"name":"oldTreasury","type":"address","indexed":true,"internalType":"address"},{"name":"newTreasury","type":"address","indexed":true,"internalType":"address"}],"anonymous":false},{"type":"event","name":"Unpaused","inputs":[{"name":"account","type":"address","indexed":false,"internalType":"address"}],"anonymous":false},{"type":"event","name":"UnroutedInterestDrained","inputs":[{"name":"amount","type":"uint256","indexed":false,"internalType":"uint256"},{"name":"totalBorrowsBefore","type":"uint256","indexed":false,"internalType":"uint256"},{"name":"totalBorrowsAfter","type":"uint256","indexed":false,"internalType":"uint256"}],"anonymous":false},{"type":"error","name":"AccessControlBadConfirmation","inputs":[]},{"type":"error","name":"AccessControlUnauthorizedAccount","inputs":[{"name":"account","type":"address","internalType":"address"},{"name":"neededRole","type":"bytes32","internalType":"bytes32"}]},{"type":"error","name":"EnforcedPause","inputs":[]},{"type":"error","name":"ExpectedPause","inputs":[]},{"type":"error","name":"ReentrancyGuardReentrantCall","inputs":[]},{"type":"error","name":"SafeERC20FailedOperation","inputs":[{"name":"token","type":"address","internalType":"address"}]}],"bytecode":{"object":"0x60e060405234801561000f575f80fd5b5060405161553338038061553383398101604081905261002e916102ce565b600180556001600160a01b03851661007d5760405162461bcd60e51b815260206004820152600d60248201526c1253959053125117d590555315609a1b60448201526064015b60405180910390fd5b6001600160a01b0384166100c45760405162461bcd60e51b815260206004820152600e60248201526d494e56414c49445f4f5241434c4560901b6044820152606401610074565b6001600160a01b0383166101095760405162461bcd60e51b815260206004820152600c60248201526b1253959053125117d35554d160a21b6044820152606401610074565b61138882111561014b5760405162461bcd60e51b815260206004820152600d60248201526c0a482a88abea89e9ebe90928e9609b1b6044820152606401610074565b5f81118015610164575069d3c21bcecceda10000008111155b6101a35760405162461bcd60e51b815260206004820152601060248201526f1253959053125117d3525397d111509560821b6044820152606401610074565b6001600160a01b0380861660805284811660a052831660c0526019829055601a819055426008556101d45f3361020a565b506101ff7f292f74ea0b8d002236e65cd2cb76fcf83b8e4d25d2ac18517380a822699e9d013361020a565b505050505050610320565b5f828152602081815260408083206001600160a01b038516845290915281205460ff166102aa575f838152602081815260408083206001600160a01b03861684529091529020805460ff191660011790556102623390565b6001600160a01b0316826001600160a01b0316847f2f8788117e7eff1d82e926ec794901d17c78024a50270940304540a733656f0d60405160405180910390a45060016102ad565b505f5b92915050565b80516001600160a01b03811681146102c9575f80fd5b919050565b5f805f805f60a086880312156102e2575f80fd5b6102eb866102b3565b94506102f9602087016102b3565b9350610307604087016102b3565b6060870151608090970151959894975095949392505050565b60805160a05160c05161511761041c5f395f81816108370152818161130001528181611b5d015281816128e601528181612f7301528181613267015281816133c401528181613496015281816146e8015281816147e101526148a801525f81816106da01528181610d54015281816116ce0152818161175901528181613c70015281816140ba01526143b701525f818161096a01528181610c0001528181610c9101528181611522015281816115f9015281816118d501528181613a4d01528181613ade01528181613ba901528181613e9701528181613f2801528181613ff3015281816141930152818161422401526142f001526151175ff3fe608060405234801561000f575f80fd5b5060043610610459575f3560e01c80638594487c11610242578063c5ebeaec11610140578063dc8b3a35116100bf578063f17336d711610084578063f17336d714610929578063f3136e3314610932578063f3fdb15a1461093a578063f99a902014610952578063fbfa77cf14610965575f80fd5b8063dc8b3a35146108c0578063e478795d146108c9578063e63ab1e9146108dc578063e9a1183d14610903578063ecc6d9ff14610916575f80fd5b8063d60882e311610105578063d60882e314610875578063d681a44914610888578063d9c9d33714610891578063dad70a101461089a578063dade0205146108ad575f80fd5b8063c5ebeaec14610816578063c84a208b14610829578063cab666d014610832578063d194bdf714610859578063d547741f14610862575f80fd5b8063a217fddf116101cc578063b977fc8811610191578063b977fc88146107e1578063bb2a46d9146107f4578063bbcac557146107fc578063bfe65f4d14610805578063c4e41b221461080e575f80fd5b8063a217fddf14610785578063a874baf41461078c578063a958903114610794578063ae0e0125146107a7578063aec802ad146107ce575f80fd5b806392ffacac1161021257806392ffacac1461074e57806395fa4d9014610758578063972f6bad1461076157806397a9d457146107695780639b200ec71461077c575f80fd5b80638594487c1461071757806386b842471461072057806388e94ef61461072857806391d148541461073b575f80fd5b80633d34e3e41161035a57806355f57510116102d95780636c22e8631161029e5780636c22e863146106ae5780637be9b154146106c25780637dc0d1d0146106d5578063807d3f1d146106fc5780638456cb591461070f575f80fd5b806355f575101461062c5780635c975abb1461067557806361d027b31461068057806367488dd5146106935780636ad9f9df1461069b575f80fd5b806346bf96521161031f57806346bf9652146105fe57806347bd37181461060b5780634a2190a5146106145780634a417a531461061c5780634d19e5ce14610624575f80fd5b80633d34e3e4146105c95780633f0c4392146105dd5780633f4ba83a146105e5578063411e7c1f146105ed57806341d85573146105f5575f80fd5b806323a27622116103e6578063350c35e9116103ab578063350c35e91461058057806336568abe14610593578063371fd8e6146105a6578063381c50db146105b95780633b2711e3146105c1575f80fd5b806323a27622146104fa578063248a9ca31461050d578063250fe6bd1461052f5780632ed6b75d146105425780632f2ff15d1461056d575f80fd5b8063122b3c711161042c578063122b3c71146104b957806314f7db64146104cc5780631ff517ff146104d5578063206abeac146104e857806322006935146104f1575f80fd5b806301ffc9a71461045d578063084548031461048557806309410e711461049c5780630a3ffee2146104b1575b5f80fd5b61047061046b366004614c48565b61098c565b60405190151581526020015b60405180910390f35b61048e60155481565b60405190815260200161047c565b6104af6104aa366004614c76565b6109c2565b005b6104af610ae5565b6104af6104c7366004614ca1565b610b3b565b61048e60185481565b61048e6104e3366004614ca1565b610f7f565b61048e60145481565b61048e60135481565b6104af610508366004614cbc565b6110ea565b61048e61051b366004614c76565b5f9081526020819052604090206001015490565b6104af61053d366004614c76565b6113c3565b601254610555906001600160a01b031681565b6040516001600160a01b03909116815260200161047c565b6104af61057b366004614ce6565b611489565b6104af61058e366004614cbc565b6114b3565b6104af6105a1366004614ce6565b611979565b6104af6105b4366004614c76565b6119ac565b6104af611c0b565b6104af611c72565b61048e5f805160206150a283398151915281565b61048e611d32565b6104af611d40565b6104af611d52565b61048e60115481565b6016546104709060ff1681565b61048e60055481565b6104af611db2565b61048e611e83565b6104af611f67565b61065a61063a366004614ca1565b601b6020525f908152604090208054600182015460029092015490919083565b6040805193845260208401929092529082015260600161047c565b60025460ff16610470565b600454610555906001600160a01b031681565b6104af611fce565b61048e6106a9366004614ca1565b61208e565b61048e5f805160206150c283398151915281565b600354610555906001600160a01b031681565b6105557f000000000000000000000000000000000000000000000000000000000000000081565b6104af61070a366004614cbc565b6120e6565b6104af6122d7565b61048e600d5481565b6104af612309565b61048e610736366004614ca1565b612370565b610470610749366004614ce6565b612397565b61048e6202a30081565b61048e60175481565b6104af6123bf565b61048e610777366004614ca1565b612492565b61048e60095481565b61048e5f81565b61048e6124c2565b6104af6107a2366004614ca1565b612524565b61048e7f78dee7707521b7c9b92b1070cc1d51daeefd47d09898061ee53bff95426cbe5481565b6104af6107dc366004614ca1565b6125f3565b61048e6107ef366004614ca1565b6126ad565b6104af6126b7565b61048e600b5481565b61048e600a5481565b61048e61278a565b6104af610824366004614c76565b612793565b61048e60195481565b6105557f000000000000000000000000000000000000000000000000000000000000000081565b61048e60085481565b6104af610870366004614ce6565b61297f565b6104af610883366004614ca1565b6129a3565b61048e60075481565b61048e600c5481565b601054610555906001600160a01b031681565b6104af6108bb366004614d14565b612a5d565b61048e600f5481565b6104af6108d7366004614cbc565b612ed1565b61048e7f65d7a28e3265b37a6474929f336521b332c1681b933f6cb9f3376673440d862a81565b6104af610911366004614cbc565b6130af565b6104af610924366004614c76565b613300565b61048e601a5481565b6104af613599565b6002546105559061010090046001600160a01b031681565b600e54610555906001600160a01b031681565b6105557f000000000000000000000000000000000000000000000000000000000000000081565b5f6001600160e01b03198216637965db0b60e01b14806109bc57506301ffc9a760e01b6001600160e01b03198316145b92915050565b5f805160206150c28339815191526109d981613682565b5f8211610a1d5760405162461bcd60e51b815260206004820152600d60248201526c4d494e5f444542545f5a45524f60981b60448201526064015b60405180910390fd5b69d3c21bcecceda1000000821115610a6b5760405162461bcd60e51b815260206004820152601160248201527009a929cbe888a84a8bea89e9ebe90928e9607b1b6044820152606401610a14565b60185415610a8b5760405162461bcd60e51b8152600401610a1490614d8e565b60178290554260188190557f5d6324b01758b8398c625106a120bc2200f11bef75c3c78ebfbc6860f9f8f510908390610ac8906202a30090614dd9565b604080519283526020830191909152015b60405180910390a15050565b5f805160206150c2833981519152610afc81613682565b601780545f918290556018919091556040518181527fcf60cf5cb54ccadde467e36b21fbe5a7e58ecbda5a598b7ffd51a82055ec036090602001610ad9565b610b4361368c565b610b6d7f78dee7707521b7c9b92b1070cc1d51daeefd47d09898061ee53bff95426cbe5433612397565b610bb95760405162461bcd60e51b815260206004820152601c60248201527f554e415554484f52495a45445f5245434f52445f4241445f44454254000000006044820152606401610a14565b610bc2816136b6565b6001600160a01b0381165f908152601b6020526040812060018101548154919291610bed9190614dd9565b9050805f03610bfd575050610f73565b5f7f00000000000000000000000000000000000000000000000000000000000000006001600160a01b031663d3c7c2c76040518163ffffffff1660e01b81526004015f60405180830381865afa158015610c59573d5f803e3d5ffd5b505050506040513d5f823e601f3d908101601f19168201604052610c809190810190614e10565b90505f805b8251811015610e0e575f7f00000000000000000000000000000000000000000000000000000000000000006001600160a01b0316638f601f6688868581518110610cd157610cd1614edb565b60200260200101516040518363ffffffff1660e01b8152600401610d0b9291906001600160a01b0392831681529116602082015260400190565b602060405180830381865afa158015610d26573d5f803e3d5ffd5b505050506040513d601f19601f82011682018060405250810190610d4a9190614eef565b90508015610e05577f00000000000000000000000000000000000000000000000000000000000000006001600160a01b0316637206c22b858481518110610d9357610d93614edb565b6020026020010151836040518363ffffffff1660e01b8152600401610db9929190614f06565b602060405180830381865afa158015610dd4573d5f803e3d5ffd5b505050506040513d601f19601f82011682018060405250810190610df89190614eef565b610e029084614dd9565b92505b50600101610c85565b508015610e545760405162461bcd60e51b8152602060048201526014602482015273434f4c4c41544552414c5f52454d41494e494e4760601b6044820152606401610a14565b5f80855560018501556005548311610e82578260055f828254610e779190614f1f565b90915550610e879050565b5f6005555b82600b5f828254610e989190614dd9565b9250508190555082600c5f828254610eb09190614dd9565b9091555050600b546040516001600160a01b038716917ff824141b5865c6fe993e72651d58296151858045f63dc2bf611ba62429e3d1d691610efa91878252602082015260400190565b60405180910390a2846001600160a01b03167ff073ee549cff52c89736798db7e065360a0f6079de0d91acabb22b8cd51005915f604051610f66918152604060208201819052601190820152702120a22fa222a12a2faba924aa22a7a32360791b606082015260800190565b60405180910390a2505050505b610f7c60018055565b50565b6001600160a01b0381165f908152601b6020526040812060028101548290610fa79042614f1f565b90505f8260010154835f0154610fbd9190614dd9565b6002549091505f9061010090046001600160a01b0316156110a0576002546005545f9161010090046001600160a01b03169063724dfc929080610ffe6138d9565b6040516001600160e01b031960e086901b16815260048101939093526024830191909152604482015260648101879052608401602060405180830381865afa15801561104c573d5f803e3d5ffd5b505050506040513d601f19601f820116820180604052508101906110709190614eef565b90505f60055411611081575f611098565b60055461108e8483614f32565b6110989190614f49565b9150506110d6565b6110b06301e13380612710614f32565b83601954846110bf9190614f32565b6110c99190614f32565b6110d39190614f49565b90505b6110e08183614dd9565b9695505050505050565b5f805160206150a283398151915261110181613682565b61110961368c565b5f82116111285760405162461bcd60e51b8152600401610a1490614f68565b6001600160a01b03831661116d5760405162461bcd60e51b815260206004820152600c60248201526b24a72b20a624a22faaa9a2a960a11b6044820152606401610a14565b611176836136b6565b6001600160a01b0383165f908152601b60205260408120600181015481549192916111a19190614dd9565b90505f81116111dc5760405162461bcd60e51b81526020600482015260076024820152661393d7d111509560ca1b6044820152606401610a14565b5f8185116111ea57846111ec565b815b90505f6111f98284614f1f565b9050801561124e57601a5481101561124e5760405162461bcd60e51b8152602060048201526018602482015277149153505253925391d7d0915313d5d7d3525397d111509560421b6044820152606401610a14565b836001015482116112775781846001015f82825461126c9190614f1f565b909155506112ac9050565b5f8460010154836112889190614f1f565b90505f856001018190555080855f015f8282546112a59190614f1f565b9091555050505b5f821180156112bd57508160055410155b156112de578160055f8282546112d39190614f1f565b909155506112e99050565b81156112e9575f6005555b604051632770a7eb60e21b81526001600160a01b037f00000000000000000000000000000000000000000000000000000000000000001690639dc29fac906113379033908690600401614f06565b5f604051808303815f87803b15801561134e575f80fd5b505af1158015611360573d5f803e3d5ffd5b50505050866001600160a01b03167f1b8cd61ed43bec7c6bdad3a18ffee613f99c853d16c50678d248d879e1b43438836113998a610f7f565b6040805192835260208301919091520160405180910390a2505050506113be60018055565b505050565b5f805160206150c28339815191526113da81613682565b61138882111561141c5760405162461bcd60e51b815260206004820152600d60248201526c0a482a88abea89e9ebe90928e9609b1b6044820152606401610a14565b60165460ff161561143f5760405162461bcd60e51b8152600401610a1490614d8e565b60148290554260158190556016805460ff191660011790557f71fb8f8f1653ee5f709e350188bad1e0898fd385bd75d58bb2a23b826376f8c7908390610ac8906202a30090614dd9565b5f828152602081905260409020600101546114a381613682565b6114ad8383613994565b50505050565b6114bb61368c565b6114c3613a23565b5f81116114e25760405162461bcd60e51b8152600401610a1490614f68565b6114eb336136b6565b5f6114f533610f7f565b11156118a9576040516347b00fb360e11b81523360048201526001600160a01b0383811660248301525f917f000000000000000000000000000000000000000000000000000000000000000090911690638f601f6690604401602060405180830381865afa158015611569573d5f803e3d5ffd5b505050506040513d601f19601f8201168201806040525081019061158d9190614eef565b9050818110156115d65760405162461bcd60e51b8152602060048201526014602482015273125394d551919250d251539517d1115413d4d25560621b6044820152606401610a14565b60405163e48a5f7b60e01b81526001600160a01b0384811660048301525f9182917f0000000000000000000000000000000000000000000000000000000000000000169063e48a5f7b90602401608060405180830381865afa15801561163e573d5f803e3d5ffd5b505050506040513d601f19601f820116820180604052508101906116629190614f90565b509250509150818061167357505f81115b6116b55760405162461bcd60e51b81526020600482015260136024820152721513d2d15397d393d517d4d5541413d4951151606a1b6044820152606401610a14565b604051632dfe1d9160e21b81525f906001600160a01b037f0000000000000000000000000000000000000000000000000000000000000000169063b7f87644906117059089908990600401614f06565b602060405180830381865afa92505050801561173e575060408051601f3d908101601f1916820190925261173b91810190614eef565b60015b6117d657604051637206c22b60e01b81526001600160a01b037f00000000000000000000000000000000000000000000000000000000000000001690637206c22b906117909089908990600401614f06565b602060405180830381865afa1580156117ab573d5f803e3d5ffd5b505050506040513d601f19601f820116820180604052508101906117cf9190614eef565b90506117d9565b90505b5f6127106117e78484614f32565b6117f19190614f49565b90505f6117fd33613a49565b90505f82821161180d575f611817565b6118178383614f1f565b90505f61182333610f7f565b90505f808211611834575f1961184b565b8161184184612710614f32565b61184b9190614f49565b905061271081101561189f5760405162461bcd60e51b815260206004820152601a60248201527f5749544844524157414c5f574f554c445f4c49515549444154450000000000006044820152606401610a14565b5050505050505050505b604051631a4ca37b60e21b81526001600160a01b038381166004830152602482018390523360448301527f000000000000000000000000000000000000000000000000000000000000000016906369328dec906064015f604051808303815f87803b158015611916575f80fd5b505af1158015611928573d5f803e3d5ffd5b50506040518381526001600160a01b03851692503391507f45892a46e6cef329bb642da6d69846d324db43d19008edc141ed82382eda1bee9060200160405180910390a361197560018055565b5050565b6001600160a01b03811633146119a25760405163334bd91960e11b815260040160405180910390fd5b6113be8282613d4d565b6119b461368c565b5f81116119d35760405162461bcd60e51b8152600401610a1490614f68565b6119dc336136b6565b335f908152601b60205260408120600181015481549192916119fe9190614dd9565b90505f8111611a395760405162461bcd60e51b81526020600482015260076024820152661393d7d111509560ca1b6044820152606401610a14565b5f818411611a475783611a49565b815b90505f611a568284614f1f565b90508015611aab57601a54811015611aab5760405162461bcd60e51b8152602060048201526018602482015277149153505253925391d7d0915313d5d7d3525397d111509560421b6044820152606401610a14565b83600101548211611ad45781846001015f828254611ac99190614f1f565b90915550611b099050565b5f846001015483611ae59190614f1f565b90505f856001018190555080855f015f828254611b029190614f1f565b9091555050505b5f82118015611b1a57508160055410155b15611b3b578160055f828254611b309190614f1f565b90915550611b469050565b8115611b46575f6005555b604051632770a7eb60e21b81526001600160a01b037f00000000000000000000000000000000000000000000000000000000000000001690639dc29fac90611b949033908690600401614f06565b5f604051808303815f87803b158015611bab575f80fd5b505af1158015611bbd573d5f803e3d5ffd5b50505050336001600160a01b03167f1b8cd61ed43bec7c6bdad3a18ffee613f99c853d16c50678d248d879e1b4343883611bf633610f7f565b60408051928352602083019190915201610f66565b5f805160206150c2833981519152611c2281613682565b601080546001600160a01b031981169091555f60118190556040516001600160a01b039092169182917ff4bb4697f60bf243f2541d81b082096e41ac4199ad16a5d8365bb1cd64c4fdf491a25050565b5f805160206150c2833981519152611c8981613682565b5f60175411611caa5760405162461bcd60e51b8152600401610a1490614fd0565b6202a300601854611cbb9190614dd9565b421015611cda5760405162461bcd60e51b8152600401610a1490614ff4565b7f7c4eb8004e5bfd89a239033e6c38ca145db0ddd5b523870d9c6a1de14ac5d37f601a54601754604051611d18929190918252602082015260400190565b60405180910390a15060178054601a555f90819055601855565b5f611d3b613db6565b905090565b5f611d4a81613682565b610f7c613e04565b5f805160206150c2833981519152611d6981613682565b601480545f918290556015919091556016805460ff191690556040518181527f975188d3d9be0bddf4e1a15c5d288e810dab34d7850d6a02e542f1d943c15d6190602001610ad9565b5f805160206150c2833981519152611dc981613682565b600a5480611e0c5760405162461bcd60e51b815260206004820152601060248201526f2727aa2424a723afaa27afa22920a4a760811b6044820152606401610a14565b6005545f600a55818110611e36578160055f828254611e2b9190614f1f565b90915550611e3b9050565b5f6005555b600554604080518481526020810184905280820192909252517f2ca70acd561450e4a516b059fb9b4d1f7319d5592823844a421a866274d1405f9181900360600190a1505050565b6002545f9061010090046001600160a01b031615611f2d57600260019054906101000a90046001600160a01b03166001600160a01b031663ec2de40c600554611eca6138d9565b6040516001600160e01b031960e085901b16815260048101929092526024820152604401602060405180830381865afa158015611f09573d5f803e3d5ffd5b505050506040513d601f19601f82011682018060405250810190611d3b9190614eef565b5f611f366138d9565b9050805f03611f46575f91505090565b80612710600554611f579190614f32565b611f619190614f49565b91505090565b5f805160206150c2833981519152611f7e81613682565b601280546001600160a01b031981169091555f60138190556040516001600160a01b039092169182917f126edc9f10a40adff641028274713504fd84689745c30ee6ce1a196cc5259bc191a25050565b5f805160206150c2833981519152611fe581613682565b60165460ff166120075760405162461bcd60e51b8152600401610a1490614fd0565b6202a3006015546120189190614dd9565b4210156120375760405162461bcd60e51b8152600401610a1490614ff4565b6019805460148054928390555f908190556015556016805460ff1916905560405190917f41e376fd99913dea7fda140f5c0bd997515b1a181acc58737320322548ec6e7291610ad991848252602082015260400190565b5f8061209983610f7f565b9050805f036120ab57505f1992915050565b5f6120b584613a49565b9050805f036120c757505f9392505050565b816120d482612710614f32565b6120de9190614f49565b949350505050565b6120ee61368c565b6121187f78dee7707521b7c9b92b1070cc1d51daeefd47d09898061ee53bff95426cbe5433612397565b8061213557506121355f805160206150a283398151915233612397565b6121815760405162461bcd60e51b815260206004820152601860248201527f554e415554484f52495a45445f5245445543455f4445425400000000000000006044820152606401610a14565b61218a826136b6565b6001600160a01b0382165f908152601b60205260408120600181015481549192916121b59190614dd9565b90505f8184116121c557836121c7565b815b9050826001015481116121f25780836001015f8282546121e79190614f1f565b909155506122279050565b5f8360010154826122039190614f1f565b90505f846001018190555080845f015f8282546122209190614f1f565b9091555050505b5f8111801561223857508060055410155b15612259578060055f82825461224e9190614f1f565b909155506122649050565b8015612264575f6005555b846001600160a01b03167ff073ee549cff52c89736798db7e065360a0f6079de0d91acabb22b8cd510059161229887610f7f565b6040805191825260208201819052600b908201526a2624a8aaa4a220aa24a7a760a91b606082015260800160405180910390a250505061197560018055565b7f65d7a28e3265b37a6474929f336521b332c1681b933f6cb9f3376673440d862a61230181613682565b610f7c613e56565b5f805160206150c283398151915261232081613682565b600e80546001600160a01b031981169091555f600f8190556040516001600160a01b039092169182917f93c753371f81f63e92a42f859d2c8176deb073f6c217733b963d8f2d2ed89a4a91a25050565b5f8061237b83610f7f565b9050805f0361238d57505f1992915050565b5f6120b584613e93565b5f918252602082815260408084206001600160a01b0393909316845291905290205460ff1690565b5f805160206150c28339815191526123d681613682565b6010546001600160a01b03166123fe5760405162461bcd60e51b8152600401610a1490614fd0565b6202a30060115461240f9190614dd9565b42101561242e5760405162461bcd60e51b8152600401610a1490614ff4565b60038054601080546001600160a01b03198084166001600160a01b0383811691821790965591169091555f60118190556040519390921692909183917ffe654e270bae2933f0a40f2c174979f717954d0fc789a6b957087fb0f85d90379190a35050565b5f8061249d8361418f565b90505f6124a984610f7f565b90508082116124b8575f6120de565b6120de8183614f1f565b6002545f9061010090046001600160a01b03161561250957600260019054906101000a90046001600160a01b03166001600160a01b031663257d9ef5600554611eca6138d9565b600a601954600961251a9190614f32565b611d3b9190614f49565b5f805160206150c283398151915261253b81613682565b6001600160a01b0382166125615760405162461bcd60e51b8152600401610a149061501d565b600e546001600160a01b03161561258a5760405162461bcd60e51b8152600401610a1490614d8e565b600e80546001600160a01b0319166001600160a01b03841690811790915542600f8190557f60c96463a83b810dcd3ea078206d25a9559505476578190f81eedce6c89e966f906125de906202a30090614dd9565b60405190815260200160405180910390a25050565b5f805160206150c283398151915261260a81613682565b6001600160a01b0382166126305760405162461bcd60e51b8152600401610a149061501d565b6012546001600160a01b0316156126595760405162461bcd60e51b8152600401610a1490614d8e565b601280546001600160a01b0319166001600160a01b0384169081179091554260138190557fee4f1f366bdf31af4584ff42488e6c5921267177c34234bcd695c8b00442368f906125de906202a30090614dd9565b5f6109bc8261418f565b5f805160206150c28339815191526126ce81613682565b6012546001600160a01b03166126f65760405162461bcd60e51b8152600401610a1490614fd0565b6202a3006013546127079190614dd9565b4210156127265760405162461bcd60e51b8152600401610a1490614ff4565b60048054601280546001600160a01b03198084166001600160a01b0383811691821790965591169091555f60138190556040519390921692909183917f4ab5be82436d353e61ca18726e984e561f5c1cc7c6d38b29d2553c790434705a9190a35050565b5f611d3b6138d9565b61279b61368c565b6127a3613a23565b5f81116127c25760405162461bcd60e51b8152600401610a1490614f68565b6127cb336136b6565b335f908152601b602052604081206001810154815491929184916127ee91614dd9565b6127f89190614dd9565b9050601a5481101561283d5760405162461bcd60e51b815260206004820152600e60248201526d10915313d5d7d3525397d111509560921b6044820152606401610a14565b82825f015f82825461284f9190614dd9565b925050819055508260055f8282546128679190614dd9565b909155505f90506128773361418f565b90505f61288333610f7f565b9050808210156128cf5760405162461bcd60e51b8152602060048201526017602482015276455843454544535f424f52524f575f434150414349545960481b6044820152606401610a14565b6040516340c10f1960e01b81526001600160a01b037f000000000000000000000000000000000000000000000000000000000000000016906340c10f199061291d9033908990600401614f06565b5f604051808303815f87803b158015612934575f80fd5b505af1158015612946573d5f803e3d5ffd5b50505050336001600160a01b03167feae9cfbc77fdd40ca899f36b608256063b2bc9d8178b0220f7ad513e178d673086611bf633610f7f565b5f8281526020819052604090206001015461299981613682565b6114ad8383613d4d565b5f805160206150c28339815191526129ba81613682565b6001600160a01b0382166129e05760405162461bcd60e51b8152600401610a149061501d565b6010546001600160a01b031615612a095760405162461bcd60e51b8152600401610a1490614d8e565b601080546001600160a01b0319166001600160a01b0384169081179091554260118190557fdea1233445af4f86635d1a123791d156d2a1b22a973741895c50e06ea74c4597906125de906202a30090614dd9565b612a6561368c565b5f612a6f81613682565b5f8411612aac5760405162461bcd60e51b815260206004820152600b60248201526a16915493d7d05353d5539560aa1b6044820152606401610a14565b5f600b5411612aeb5760405162461bcd60e51b815260206004820152600b60248201526a1393d7d0905117d111509560aa1b6044820152606401610a14565b81612b275760405162461bcd60e51b815260206004820152600c60248201526b4e4f5f424f52524f5745525360a01b6044820152606401610a14565b5f600b548511612b375784612b3b565b600b545b90505f600554905081600b5f828254612b549190614f1f565b9250508190555081600d5f828254612b6c9190614dd9565b909155505f9050805b85811015612df0575f805b82811015612bfe57888884818110612b9a57612b9a614edb565b9050602002016020810190612baf9190614ca1565b6001600160a01b0316898983818110612bca57612bca614edb565b9050602002016020810190612bdf9190614ca1565b6001600160a01b031603612bf65760019150612bfe565b600101612b80565b508015612c0b5750612de8565b612c3a888884818110612c2057612c20614edb565b9050602002016020810190612c359190614ca1565b6136b6565b5f601b5f8a8a86818110612c5057612c50614edb565b9050602002016020810190612c659190614ca1565b6001600160a01b0316815260208101919091526040015f90812060018101548154919350612c9291614dd9565b9050805f03612ca357505050612de8565b5f86612caf838a614f32565b612cb99190614f49565b9050805f03612ccb5750505050612de8565b81811115612cd65750805b82600101548111612cff5780836001015f828254612cf49190614f1f565b90915550612d389050565b5f836001015482612d109190614f1f565b5f600186015584549091508110612d27575f612d34565b8354612d34908290614f1f565b8455505b612d428187614dd9565b95508a8a86818110612d5657612d56614edb565b9050602002016020810190612d6b9190614ca1565b6001600160a01b03167ff073ee549cff52c89736798db7e065360a0f6079de0d91acabb22b8cd51005918460010154855f0154612da89190614dd9565b60408051918252602082018190526013908201527210905117d111509517d4d3d0d2505312569151606a1b606082015260800160405180910390a2505050505b600101612b75565b508060055410612e16578060055f828254612e0b9190614f1f565b90915550612e1b9050565b5f6005555b600554604080518581526020810185905280820192909252517f6ebcf6a07af16be72fe3a5f107d584c67823dde428ab1287456612054509bee39181900360600190a17f50c9973df34192f257de65ae122c2f20240b469f9673f67e27975d1817157c7883600b54604051612ebc9291909182526020820152606060408201819052600a908201526914d3d0d250531256915160b21b608082015260a00190565b60405180910390a1505050506113be60018055565b5f612edb81613682565b600754821115612f205760405162461bcd60e51b815260206004820152601060248201526f455843454544535f524553455256455360801b6044820152606401610a14565b6001600160a01b038316612f465760405162461bcd60e51b8152600401610a149061501d565b8160075f828254612f579190614f1f565b90915550506040516340c10f1960e01b81526001600160a01b037f000000000000000000000000000000000000000000000000000000000000000016906340c10f1990612faa9086908690600401614f06565b5f604051808303815f87803b158015612fc1575f80fd5b505af1925050508015612fd2575060015b613067578160075f828254612fe79190614dd9565b90915550506040518281526001600160a01b038416907f6102aab6acabb35b6fb064b6231fa7bc272fce9155f6830295fd0ff6925557a39060200160405180910390a260405162461bcd60e51b815260206004820152601260248201527114d55414131657d0d05417d4915050d2115160721b6044820152606401610a14565b826001600160a01b03167fc08dc172be702645aed16b77bdd6b526b8be4dab30d20b4caf5285fd59712fe9836040516130a291815260200190565b60405180910390a2505050565b5f805160206150a28339815191526130c681613682565b6130ce61368c565b6130d6613a23565b5f82116130f55760405162461bcd60e51b8152600401610a1490614f68565b6001600160a01b03831661313a5760405162461bcd60e51b815260206004820152600c60248201526b24a72b20a624a22faaa9a2a960a11b6044820152606401610a14565b613143836136b6565b6001600160a01b0383165f908152601b6020526040812060018101548154919291859161316f91614dd9565b6131799190614dd9565b9050601a548110156131be5760405162461bcd60e51b815260206004820152600e60248201526d10915313d5d7d3525397d111509560921b6044820152606401610a14565b83825f015f8282546131d09190614dd9565b925050819055508360055f8282546131e89190614dd9565b909155505f90506131f88661418f565b90505f61320487610f7f565b9050808210156132505760405162461bcd60e51b8152602060048201526017602482015276455843454544535f424f52524f575f434150414349545960481b6044820152606401610a14565b6040516340c10f1960e01b81526001600160a01b037f000000000000000000000000000000000000000000000000000000000000000016906340c10f199061329e9033908a90600401614f06565b5f604051808303815f87803b1580156132b5575f80fd5b505af11580156132c7573d5f803e3d5ffd5b50505050866001600160a01b03167feae9cfbc77fdd40ca899f36b608256063b2bc9d8178b0220f7ad513e178d6730876113998a610f7f565b61330861368c565b5f61331281613682565b5f821161334f5760405162461bcd60e51b815260206004820152600b60248201526a16915493d7d05353d5539560aa1b6044820152606401610a14565b5f600b541161338e5760405162461bcd60e51b815260206004820152600b60248201526a1393d7d0905117d111509560aa1b6044820152606401610a14565b5f600b54831161339e57826133a2565b600b545b6040516370a0823160e01b81523060048201529091505f906001600160a01b037f000000000000000000000000000000000000000000000000000000000000000016906370a0823190602401602060405180830381865afa158015613409573d5f803e3d5ffd5b505050506040513d601f19601f8201168201806040525081019061342d9190614eef565b90508181101561347f5760405162461bcd60e51b815260206004820152601960248201527f494e53554646494349454e545f4d5553445f42414c414e4345000000000000006044820152606401610a14565b604051632770a7eb60e21b81526001600160a01b037f00000000000000000000000000000000000000000000000000000000000000001690639dc29fac906134cd9030908690600401614f06565b5f604051808303815f87803b1580156134e4575f80fd5b505af11580156134f6573d5f803e3d5ffd5b5050505081600b5f82825461350b9190614f1f565b9250508190555081600d5f8282546135239190614dd9565b9091555050600b5460408051848152602081019290925260608282018190526011908301527050524f544f434f4c5f524553455256455360781b6080830152517f50c9973df34192f257de65ae122c2f20240b469f9673f67e27975d1817157c789181900360a00190a1505050610f7c60018055565b5f805160206150c28339815191526135b081613682565b600e546001600160a01b03166135d85760405162461bcd60e51b8152600401610a1490614fd0565b6202a300600f546135e99190614dd9565b4210156136085760405162461bcd60e51b8152600401610a1490614ff4565b60028054600e80546001600160a01b03818116610100908102610100600160a81b0319861617958690556001600160a01b03199092169092555f600f81905560405193829004831694919091049091169183917fdace1576ba731b4c76870b86217414c265c1ae95c55027d50dc19dab5feb991991a35050565b610f7c813361448d565b6002600154036136af57604051633ee5aeb560e01b815260040160405180910390fd5b6002600155565b6136be6144b8565b6001600160a01b0381165f908152601b6020526040902080541580156136e657506001810154155b156136f5574260029091015550565b5f8160020154426137069190614f1f565b9050805f0361371457505050565b5f808360010154845f01546137299190614dd9565b90505f806006541161373d57600554613741565b6006545b90505f8111801561375157505f82115b156138555760025461010090046001600160a01b03161561381f576002545f9061010090046001600160a01b031663724dfc92838061378e6138d9565b6040516001600160e01b031960e086901b16815260048101939093526024830191909152604482015260648101889052608401602060405180830381865afa1580156137dc573d5f803e3d5ffd5b505050506040513d601f19601f820116820180604052508101906138009190614eef565b90508161380d8483614f32565b6138179190614f49565b935050613855565b61382f6301e13380612710614f32565b846019548461383e9190614f32565b6138489190614f32565b6138529190614f49565b92505b82856001015f8282546138689190614dd9565b909155505042600286015582156138d157856001600160a01b03167f4557e05caeefc19fe1b4badbbd2996f86791aa6e830e224dc79c20725c38b9c1848760010154885f01546138b89190614dd9565b6040805192835260208301919091520160405180910390a25b505050505050565b6004545f906001600160a01b0316156139705760048054604080516306a61f7560e51b815290516001600160a01b039092169263d4c3eea09282820192602092908290030181865afa92505050801561394f575060408051601f3d908101601f1916820190925261394c91810190614eef565b60015b61396157600554611d3b906002614f32565b611f618164e8d4a51000614f32565b5f600554116139865750670de0b6b3a764000090565b600554611d3b906002614f32565b5f61399f8383612397565b613a1c575f838152602081815260408083206001600160a01b03861684529091529020805460ff191660011790556139d43390565b6001600160a01b0316826001600160a01b0316847f2f8788117e7eff1d82e926ec794901d17c78024a50270940304540a733656f0d60405160405180910390a45060016109bc565b505f6109bc565b60025460ff1615613a475760405163d93c066560e01b815260040160405180910390fd5b565b5f807f00000000000000000000000000000000000000000000000000000000000000006001600160a01b031663d3c7c2c76040518163ffffffff1660e01b81526004015f60405180830381865afa158015613aa6573d5f803e3d5ffd5b505050506040513d5f823e601f3d908101601f19168201604052613acd9190810190614e10565b90505f805b8251811015613d45575f7f00000000000000000000000000000000000000000000000000000000000000006001600160a01b0316638f601f6687868581518110613b1e57613b1e614edb565b60200260200101516040518363ffffffff1660e01b8152600401613b589291906001600160a01b0392831681529116602082015260400190565b602060405180830381865afa158015613b73573d5f803e3d5ffd5b505050506040513d601f19601f82011682018060405250810190613b979190614eef565b9050805f03613ba65750613d3d565b5f7f00000000000000000000000000000000000000000000000000000000000000006001600160a01b031663e48a5f7b868581518110613be857613be8614edb565b60200260200101516040518263ffffffff1660e01b8152600401613c1b91906001600160a01b0391909116815260200190565b608060405180830381865afa158015613c36573d5f803e3d5ffd5b505050506040513d601f19601f82011682018060405250810190613c5a9190614f90565b5092505050805f03613c6d575050613d3d565b5f7f00000000000000000000000000000000000000000000000000000000000000006001600160a01b031663b7f87644878681518110613caf57613caf614edb565b6020026020010151856040518363ffffffff1660e01b8152600401613cd5929190614f06565b602060405180830381865afa158015613cf0573d5f803e3d5ffd5b505050506040513d601f19601f82011682018060405250810190613d149190614eef565b9050612710613d238383614f32565b613d2d9190614f49565b613d379086614dd9565b94505050505b600101613ad2565b509392505050565b5f613d588383612397565b15613a1c575f838152602081815260408083206001600160a01b0386168085529252808320805460ff1916905551339286917ff6391f5c32d9c69d2a47ea670b442974b53935d1edc7fd64eb21e047a839171b9190a45060016109bc565b6002545f9061010090046001600160a01b031615613dfd57600260019054906101000a90046001600160a01b03166001600160a01b0316633ca24624600554611eca6138d9565b5060195490565b613e0c614ab2565b6002805460ff191690557f5db9ee0a495bf2e6ff9c91a7834c1ba4fdd244a5e8aa4e537bd38aeae4b073aa335b6040516001600160a01b03909116815260200160405180910390a1565b613e5e613a23565b6002805460ff191660011790557f62e78cea01bee320cd4e420270b5ea74000d11b0c9f74754ebdbfc544b05a258613e393390565b5f807f00000000000000000000000000000000000000000000000000000000000000006001600160a01b031663d3c7c2c76040518163ffffffff1660e01b81526004015f60405180830381865afa158015613ef0573d5f803e3d5ffd5b505050506040513d5f823e601f3d908101601f19168201604052613f179190810190614e10565b90505f805b8251811015613d45575f7f00000000000000000000000000000000000000000000000000000000000000006001600160a01b0316638f601f6687868581518110613f6857613f68614edb565b60200260200101516040518363ffffffff1660e01b8152600401613fa29291906001600160a01b0392831681529116602082015260400190565b602060405180830381865afa158015613fbd573d5f803e3d5ffd5b505050506040513d601f19601f82011682018060405250810190613fe19190614eef565b9050805f03613ff05750614187565b5f7f00000000000000000000000000000000000000000000000000000000000000006001600160a01b031663e48a5f7b86858151811061403257614032614edb565b60200260200101516040518263ffffffff1660e01b815260040161406591906001600160a01b0391909116815260200190565b608060405180830381865afa158015614080573d5f803e3d5ffd5b505050506040513d601f19601f820116820180604052508101906140a49190614f90565b5092505050805f036140b7575050614187565b5f7f00000000000000000000000000000000000000000000000000000000000000006001600160a01b0316637206c22b8786815181106140f9576140f9614edb565b6020026020010151856040518363ffffffff1660e01b815260040161411f929190614f06565b602060405180830381865afa15801561413a573d5f803e3d5ffd5b505050506040513d601f19601f8201168201806040525081019061415e9190614eef565b905061271061416d8383614f32565b6141779190614f49565b6141819086614dd9565b94505050505b600101613f1c565b5f807f00000000000000000000000000000000000000000000000000000000000000006001600160a01b031663d3c7c2c76040518163ffffffff1660e01b81526004015f60405180830381865afa1580156141ec573d5f803e3d5ffd5b505050506040513d5f823e601f3d908101601f191682016040526142139190810190614e10565b90505f805b8251811015613d45575f7f00000000000000000000000000000000000000000000000000000000000000006001600160a01b0316638f601f668786858151811061426457614264614edb565b60200260200101516040518363ffffffff1660e01b815260040161429e9291906001600160a01b0392831681529116602082015260400190565b602060405180830381865afa1580156142b9573d5f803e3d5ffd5b505050506040513d601f19601f820116820180604052508101906142dd9190614eef565b9050805f036142ec5750614485565b5f807f00000000000000000000000000000000000000000000000000000000000000006001600160a01b031663e48a5f7b87868151811061432f5761432f614edb565b60200260200101516040518263ffffffff1660e01b815260040161436291906001600160a01b0391909116815260200190565b608060405180830381865afa15801561437d573d5f803e3d5ffd5b505050506040513d601f19601f820116820180604052508101906143a19190614f90565b505091509150816143b457505050614485565b5f7f00000000000000000000000000000000000000000000000000000000000000006001600160a01b031663b7f876448887815181106143f6576143f6614edb565b6020026020010151866040518363ffffffff1660e01b815260040161441c929190614f06565b602060405180830381865afa158015614437573d5f803e3d5ffd5b505050506040513d601f19601f8201168201806040525081019061445b9190614eef565b905061271061446a8383614f32565b6144749190614f49565b61447e9087614dd9565b9550505050505b600101614218565b6144978282612397565b61197557808260405163e2517d3f60e01b8152600401610a14929190614f06565b5f600854426144c79190614f1f565b90508015806144d65750600554155b156144e2575042600855565b5f6144eb6138d9565b6002549091505f9061010090046001600160a01b03161561459557600254600554604051633926fe4960e11b815260048101829052602481019190915260448101849052606481018590526101009091046001600160a01b03169063724dfc9290608401602060405180830381865afa15801561456a573d5f803e3d5ffd5b505050506040513d601f19601f8201168201806040525081019061458e9190614eef565b90506145cd565b6145a56301e13380612710614f32565b836019546005546145b69190614f32565b6145c09190614f32565b6145ca9190614f49565b90505b5f600a6005546145dd9190614f49565b9050808211156145eb578091505b8115614aa8576002545f90819061010090046001600160a01b03161561468357600254604051632354027960e21b8152600481018690526101009091046001600160a01b031690638d5009e4906024016040805180830381865afa158015614655573d5f803e3d5ffd5b505050506040513d601f19601f820116820180604052508101906146799190615043565b909250905061469d565b61468e600a85614f49565b905061469a8185614f1f565b91505b8060075f8282546146ae9190614dd9565b909155505081158015906146cc57506003546001600160a01b031615155b1561498d576040516340c10f1960e01b81526001600160a01b037f000000000000000000000000000000000000000000000000000000000000000016906340c10f199061471f9030908690600401614f06565b5f604051808303815f87803b158015614736575f80fd5b505af1925050508015614747575060015b6147d0573d808015614774576040519150601f19603f3d011682016040523d82523d5f602084013e614779565b606091505b5082600a5f82825461478b9190614dd9565b90915550506040517fd95507bf24933d495dfb2eb73a1a47f54b9cb559cf4d3e994e5591ee5a0dae6a906147c29085908490615065565b60405180910390a15061498d565b60035461480a906001600160a01b037f00000000000000000000000000000000000000000000000000000000000000008116911684614ad5565b6003546040516323411fb560e11b8152600481018490526001600160a01b03909116906346823f6a906024015f604051808303815f87803b15801561484d575f80fd5b505af192505050801561485e575060015b61493d573d80801561488b576040519150601f19603f3d011682016040523d82523d5f602084013e614890565b606091505b50604051632770a7eb60e21b81526001600160a01b037f00000000000000000000000000000000000000000000000000000000000000001690639dc29fac906148df9030908790600401614f06565b5f604051808303815f87803b1580156148f6575f80fd5b505af1158015614908573d5f803e3d5ffd5b505050507fd95507bf24933d495dfb2eb73a1a47f54b9cb559cf4d3e994e5591ee5a0dae6a83826040516147c2929190615065565b8160095f82825461494e9190614dd9565b909155505060408051838152602081018390527f499aa6b2e1c7b18ae34a860de7861e815b71a105cfd88f47a75787d41208a77a910160405180910390a15b6005546006819055508360055f8282546149a79190614dd9565b90915550506002545f9061010090046001600160a01b03166149e357856127106005546149d49190614f32565b6149de9190614f49565b614a5d565b600254600554604051633b0b790360e21b81526004810191909152602481018890526101009091046001600160a01b03169063ec2de40c90604401602060405180830381865afa158015614a39573d5f803e3d5ffd5b505050506040513d601f19601f82011682018060405250810190614a5d9190614eef565b60055460408051888152602081019290925281018290529091507f5b67ff468eb47826f682d445996375571ee237450b508822263621e0a54394579060600160405180910390a15050505b5050426008555050565b60025460ff16613a4757604051638dfc202b60e01b815260040160405180910390fd5b5f836001600160a01b031663095ea7b38484604051602401614af8929190614f06565b604051602081830303815290604052915060e01b6020820180516001600160e01b0383818316178352505050509050614b318482614b97565b6114ad57614b8d84856001600160a01b031663095ea7b3865f604051602401614b5b929190614f06565b604051602081830303815290604052915060e01b6020820180516001600160e01b038381831617835250505050614bdc565b6114ad8482614bdc565b5f805f8060205f8651602088015f8a5af192503d91505f5190508280156110e057508115614bc857806001146110e0565b50505050506001600160a01b03163b151590565b5f8060205f8451602086015f885af180614bfb576040513d5f823e3d81fd5b50505f513d91508115614c12578060011415614c1f565b6001600160a01b0384163b155b156114ad57604051635274afe760e01b81526001600160a01b0385166004820152602401610a14565b5f60208284031215614c58575f80fd5b81356001600160e01b031981168114614c6f575f80fd5b9392505050565b5f60208284031215614c86575f80fd5b5035919050565b6001600160a01b0381168114610f7c575f80fd5b5f60208284031215614cb1575f80fd5b8135614c6f81614c8d565b5f8060408385031215614ccd575f80fd5b8235614cd881614c8d565b946020939093013593505050565b5f8060408385031215614cf7575f80fd5b823591506020830135614d0981614c8d565b809150509250929050565b5f805f60408486031215614d26575f80fd5b83359250602084013567ffffffffffffffff811115614d43575f80fd5b8401601f81018613614d53575f80fd5b803567ffffffffffffffff811115614d69575f80fd5b8660208260051b8401011115614d7d575f80fd5b939660209190910195509293505050565b60208082526018908201527f50524f504f53414c5f414c52454144595f50454e44494e470000000000000000604082015260600190565b634e487b7160e01b5f52601160045260245ffd5b808201808211156109bc576109bc614dc5565b634e487b7160e01b5f52604160045260245ffd5b8051614e0b81614c8d565b919050565b5f60208284031215614e20575f80fd5b815167ffffffffffffffff811115614e36575f80fd5b8201601f81018413614e46575f80fd5b805167ffffffffffffffff811115614e6057614e60614dec565b8060051b604051601f19603f830116810181811067ffffffffffffffff82111715614e8d57614e8d614dec565b604052918252602081840181019290810187841115614eaa575f80fd5b6020850194505b83851015614ed057614ec285614e00565b815260209485019401614eb1565b509695505050505050565b634e487b7160e01b5f52603260045260245ffd5b5f60208284031215614eff575f80fd5b5051919050565b6001600160a01b03929092168252602082015260400190565b818103818111156109bc576109bc614dc5565b80820281158282048414176109bc576109bc614dc5565b5f82614f6357634e487b7160e01b5f52601260045260245ffd5b500490565b6020808252600e908201526d1253959053125117d05353d5539560921b604082015260600190565b5f805f8060808587031215614fa3575f80fd5b84518015158114614fb2575f80fd5b60208601516040870151606090970151919890975090945092505050565b6020808252600a90820152694e4f5f50454e44494e4760b01b604082015260600190565b6020808252600f908201526e54494d454c4f434b5f41435449564560881b604082015260600190565b6020808252600c908201526b5a45524f5f4144445245535360a01b604082015260600190565b5f8060408385031215615054575f80fd5b505080516020909101519092909150565b828152604060208201525f82518060408401528060208501606085015e5f606082850101526060601f19601f830116840101915050939250505056fe62f9f791f044a997d2927869f031db85cde39144d6412d7269c2c98c5304326b292f74ea0b8d002236e65cd2cb76fcf83b8e4d25d2ac18517380a822699e9d01a264697066735822122039ae0af1a48a965dec9c72bba18361c73d5faa050a94ed7be13a02a26f9c012c64736f6c634300081a0033","linkReferences":{}},"methodIdentifiers":{"ADMIN_DELAY()":"92ffacac","BORROW_ADMIN_ROLE()":"6c22e863","DEFAULT_ADMIN_ROLE()":"a217fddf","LEVERAGE_VAULT_ROLE()":"3d34e3e4","LIQUIDATION_ROLE()":"ae0e0125","PAUSER_ROLE()":"e63ab1e9","badDebt()":"bbcac557","badDebtCovered()":"8594487c","borrow(uint256)":"c5ebeaec","borrowCapacity(address)":"b977fc88","borrowFor(address,uint256)":"e9a1183d","cancelInterestRate()":"411e7c1f","cancelInterestRateModel()":"86b84247","cancelMinDebt()":"0a3ffee2","cancelSMUSD()":"381c50db","cancelTreasury()":"4d19e5ce","coverBadDebt(uint256)":"ecc6d9ff","cumulativeBadDebt()":"d9c9d337","drainUnroutedInterest()":"4a2190a5","executeInterestRate()":"67488dd5","executeInterestRateModel()":"f3136e33","executeMinDebt()":"3b2711e3","executeSMUSD()":"972f6bad","executeTreasury()":"bb2a46d9","getCurrentBorrowRate()":"3f0c4392","getCurrentSupplyRate()":"a874baf4","getRoleAdmin(bytes32)":"248a9ca3","getTotalSupply()":"c4e41b22","getUtilizationRate()":"4a417a53","grantRole(bytes32,address)":"2f2ff15d","hasRole(bytes32,address)":"91d14854","healthFactor(address)":"6ad9f9df","healthFactorUnsafe(address)":"88e94ef6","interestRateBps()":"c84a208b","interestRateModel()":"f3fdb15a","lastGlobalAccrualTime()":"d194bdf7","maxBorrow(address)":"97a9d457","minDebt()":"f17336d7","musd()":"cab666d0","oracle()":"7dc0d1d0","pause()":"8456cb59","paused()":"5c975abb","pendingInterestRate()":"206abeac","pendingInterestRateModel()":"f99a9020","pendingInterestRateModelTime()":"dc8b3a35","pendingInterestRateSet()":"46bf9652","pendingInterestRateTime()":"08454803","pendingMinDebt()":"95fa4d90","pendingMinDebtTime()":"14f7db64","pendingSMUSD()":"dad70a10","pendingSMUSDTime()":"41d85573","pendingTreasury()":"2ed6b75d","pendingTreasuryTime()":"22006935","positions(address)":"55f57510","protocolReserves()":"d681a449","recordBadDebt(address)":"122b3c71","reduceDebt(address,uint256)":"807d3f1d","renounceRole(bytes32,address)":"36568abe","repay(uint256)":"371fd8e6","repayFor(address,uint256)":"23a27622","requestInterestRate(uint256)":"250fe6bd","requestInterestRateModel(address)":"a9589031","requestMinDebt(uint256)":"09410e71","requestSMUSD(address)":"d60882e3","requestTreasury(address)":"aec802ad","revokeRole(bytes32,address)":"d547741f","smusd()":"7be9b154","socializeBadDebt(uint256,address[])":"dade0205","supportsInterface(bytes4)":"01ffc9a7","totalBorrows()":"47bd3718","totalDebt(address)":"1ff517ff","totalInterestPaidToSuppliers()":"9b200ec7","treasury()":"61d027b3","unpause()":"3f4ba83a","unroutedInterest()":"bfe65f4d","vault()":"fbfa77cf","withdrawCollateral(address,uint256)":"350c35e9","withdrawReserves(address,uint256)":"e478795d"},"id":0}