{"abi":[{"type":"constructor","inputs":[{"name":"_vault","type":"address","internalType":"address"},{"name":"_oracle","type":"address","internalType":"address"},{"name":"_musd","type":"address","internalType":"address"},{"name":"_interestRateBps","type":"uint256","internalType":"uint256"},{"name":"_minDebt","type":"uint256","internalType":"uint256"},{"name":"_timelock","type":"address","internalType":"address"}],"stateMutability":"nonpayable"},{"type":"function","name":"BORROW_ADMIN_ROLE","inputs":[],"outputs":[{"name":"","type":"bytes32","internalType":"bytes32"}],"stateMutability":"view"},{"type":"function","name":"DEFAULT_ADMIN_ROLE","inputs":[],"outputs":[{"name":"","type":"bytes32","internalType":"bytes32"}],"stateMutability":"view"},{"type":"function","name":"LEVERAGE_VAULT_ROLE","inputs":[],"outputs":[{"name":"","type":"bytes32","internalType":"bytes32"}],"stateMutability":"view"},{"type":"function","name":"LIQUIDATION_ROLE","inputs":[],"outputs":[{"name":"","type":"bytes32","internalType":"bytes32"}],"stateMutability":"view"},{"type":"function","name":"PAUSER_ROLE","inputs":[],"outputs":[{"name":"","type":"bytes32","internalType":"bytes32"}],"stateMutability":"view"},{"type":"function","name":"badDebt","inputs":[],"outputs":[{"name":"","type":"uint256","internalType":"uint256"}],"stateMutability":"view"},{"type":"function","name":"badDebtCovered","inputs":[],"outputs":[{"name":"","type":"uint256","internalType":"uint256"}],"stateMutability":"view"},{"type":"function","name":"borrow","inputs":[{"name":"amount","type":"uint256","internalType":"uint256"}],"outputs":[],"stateMutability":"nonpayable"},{"type":"function","name":"borrowCapacity","inputs":[{"name":"user","type":"address","internalType":"address"}],"outputs":[{"name":"","type":"uint256","internalType":"uint256"}],"stateMutability":"view"},{"type":"function","name":"borrowFor","inputs":[{"name":"user","type":"address","internalType":"address"},{"name":"amount","type":"uint256","internalType":"uint256"}],"outputs":[],"stateMutability":"nonpayable"},{"type":"function","name":"coverBadDebt","inputs":[{"name":"amount","type":"uint256","internalType":"uint256"}],"outputs":[],"stateMutability":"nonpayable"},{"type":"function","name":"cumulativeBadDebt","inputs":[],"outputs":[{"name":"","type":"uint256","internalType":"uint256"}],"stateMutability":"view"},{"type":"function","name":"drainUnroutedInterest","inputs":[],"outputs":[],"stateMutability":"nonpayable"},{"type":"function","name":"getCurrentBorrowRate","inputs":[],"outputs":[{"name":"","type":"uint256","internalType":"uint256"}],"stateMutability":"view"},{"type":"function","name":"getCurrentSupplyRate","inputs":[],"outputs":[{"name":"","type":"uint256","internalType":"uint256"}],"stateMutability":"view"},{"type":"function","name":"getRoleAdmin","inputs":[{"name":"role","type":"bytes32","internalType":"bytes32"}],"outputs":[{"name":"","type":"bytes32","internalType":"bytes32"}],"stateMutability":"view"},{"type":"function","name":"getTotalSupply","inputs":[],"outputs":[{"name":"","type":"uint256","internalType":"uint256"}],"stateMutability":"view"},{"type":"function","name":"getUtilizationRate","inputs":[],"outputs":[{"name":"","type":"uint256","internalType":"uint256"}],"stateMutability":"view"},{"type":"function","name":"grantRole","inputs":[{"name":"role","type":"bytes32","internalType":"bytes32"},{"name":"account","type":"address","internalType":"address"}],"outputs":[],"stateMutability":"nonpayable"},{"type":"function","name":"hasRole","inputs":[{"name":"role","type":"bytes32","internalType":"bytes32"},{"name":"account","type":"address","internalType":"address"}],"outputs":[{"name":"","type":"bool","internalType":"bool"}],"stateMutability":"view"},{"type":"function","name":"healthFactor","inputs":[{"name":"user","type":"address","internalType":"address"}],"outputs":[{"name":"","type":"uint256","internalType":"uint256"}],"stateMutability":"view"},{"type":"function","name":"healthFactorUnsafe","inputs":[{"name":"user","type":"address","internalType":"address"}],"outputs":[{"name":"","type":"uint256","internalType":"uint256"}],"stateMutability":"view"},{"type":"function","name":"interestRateBps","inputs":[],"outputs":[{"name":"","type":"uint256","internalType":"uint256"}],"stateMutability":"view"},{"type":"function","name":"interestRateModel","inputs":[],"outputs":[{"name":"","type":"address","internalType":"contract IInterestRateModel"}],"stateMutability":"view"},{"type":"function","name":"lastGlobalAccrualTime","inputs":[],"outputs":[{"name":"","type":"uint256","internalType":"uint256"}],"stateMutability":"view"},{"type":"function","name":"maxBorrow","inputs":[{"name":"user","type":"address","internalType":"address"}],"outputs":[{"name":"","type":"uint256","internalType":"uint256"}],"stateMutability":"view"},{"type":"function","name":"minDebt","inputs":[],"outputs":[{"name":"","type":"uint256","internalType":"uint256"}],"stateMutability":"view"},{"type":"function","name":"musd","inputs":[],"outputs":[{"name":"","type":"address","internalType":"contract IMUSD"}],"stateMutability":"view"},{"type":"function","name":"oracle","inputs":[],"outputs":[{"name":"","type":"address","internalType":"contract IPriceOracle"}],"stateMutability":"view"},{"type":"function","name":"pause","inputs":[],"outputs":[],"stateMutability":"nonpayable"},{"type":"function","name":"paused","inputs":[],"outputs":[{"name":"","type":"bool","internalType":"bool"}],"stateMutability":"view"},{"type":"function","name":"positions","inputs":[{"name":"","type":"address","internalType":"address"}],"outputs":[{"name":"principal","type":"uint256","internalType":"uint256"},{"name":"accruedInterest","type":"uint256","internalType":"uint256"},{"name":"lastAccrualTime","type":"uint256","internalType":"uint256"}],"stateMutability":"view"},{"type":"function","name":"protocolReserves","inputs":[],"outputs":[{"name":"","type":"uint256","internalType":"uint256"}],"stateMutability":"view"},{"type":"function","name":"recordBadDebt","inputs":[{"name":"user","type":"address","internalType":"address"}],"outputs":[],"stateMutability":"nonpayable"},{"type":"function","name":"reduceDebt","inputs":[{"name":"user","type":"address","internalType":"address"},{"name":"amount","type":"uint256","internalType":"uint256"}],"outputs":[],"stateMutability":"nonpayable"},{"type":"function","name":"renounceRole","inputs":[{"name":"role","type":"bytes32","internalType":"bytes32"},{"name":"callerConfirmation","type":"address","internalType":"address"}],"outputs":[],"stateMutability":"nonpayable"},{"type":"function","name":"repay","inputs":[{"name":"amount","type":"uint256","internalType":"uint256"}],"outputs":[],"stateMutability":"nonpayable"},{"type":"function","name":"repayFor","inputs":[{"name":"user","type":"address","internalType":"address"},{"name":"amount","type":"uint256","internalType":"uint256"}],"outputs":[],"stateMutability":"nonpayable"},{"type":"function","name":"revokeRole","inputs":[{"name":"role","type":"bytes32","internalType":"bytes32"},{"name":"account","type":"address","internalType":"address"}],"outputs":[],"stateMutability":"nonpayable"},{"type":"function","name":"setInterestRate","inputs":[{"name":"_rateBps","type":"uint256","internalType":"uint256"}],"outputs":[],"stateMutability":"nonpayable"},{"type":"function","name":"setInterestRateModel","inputs":[{"name":"_model","type":"address","internalType":"address"}],"outputs":[],"stateMutability":"nonpayable"},{"type":"function","name":"setMinDebt","inputs":[{"name":"_minDebt","type":"uint256","internalType":"uint256"}],"outputs":[],"stateMutability":"nonpayable"},{"type":"function","name":"setSMUSD","inputs":[{"name":"_smusd","type":"address","internalType":"address"}],"outputs":[],"stateMutability":"nonpayable"},{"type":"function","name":"setTimelock","inputs":[{"name":"_timelock","type":"address","internalType":"address"}],"outputs":[],"stateMutability":"nonpayable"},{"type":"function","name":"setTreasury","inputs":[{"name":"_treasury","type":"address","internalType":"address"}],"outputs":[],"stateMutability":"nonpayable"},{"type":"function","name":"smusd","inputs":[],"outputs":[{"name":"","type":"address","internalType":"contract ISMUSD"}],"stateMutability":"view"},{"type":"function","name":"socializeBadDebt","inputs":[{"name":"amount","type":"uint256","internalType":"uint256"},{"name":"borrowers","type":"address[]","internalType":"address[]"}],"outputs":[],"stateMutability":"nonpayable"},{"type":"function","name":"supportsInterface","inputs":[{"name":"interfaceId","type":"bytes4","internalType":"bytes4"}],"outputs":[{"name":"","type":"bool","internalType":"bool"}],"stateMutability":"view"},{"type":"function","name":"timelock","inputs":[],"outputs":[{"name":"","type":"address","internalType":"address"}],"stateMutability":"view"},{"type":"function","name":"totalBorrows","inputs":[],"outputs":[{"name":"","type":"uint256","internalType":"uint256"}],"stateMutability":"view"},{"type":"function","name":"totalDebt","inputs":[{"name":"user","type":"address","internalType":"address"}],"outputs":[{"name":"","type":"uint256","internalType":"uint256"}],"stateMutability":"view"},{"type":"function","name":"totalInterestPaidToSuppliers","inputs":[],"outputs":[{"name":"","type":"uint256","internalType":"uint256"}],"stateMutability":"view"},{"type":"function","name":"treasury","inputs":[],"outputs":[{"name":"","type":"address","internalType":"contract ITreasuryV2"}],"stateMutability":"view"},{"type":"function","name":"unpause","inputs":[],"outputs":[],"stateMutability":"nonpayable"},{"type":"function","name":"unroutedInterest","inputs":[],"outputs":[{"name":"","type":"uint256","internalType":"uint256"}],"stateMutability":"view"},{"type":"function","name":"vault","inputs":[],"outputs":[{"name":"","type":"address","internalType":"contract ICollateralVault"}],"stateMutability":"view"},{"type":"function","name":"withdrawCollateral","inputs":[{"name":"token","type":"address","internalType":"address"},{"name":"amount","type":"uint256","internalType":"uint256"}],"outputs":[],"stateMutability":"nonpayable"},{"type":"function","name":"withdrawReserves","inputs":[{"name":"to","type":"address","internalType":"address"},{"name":"amount","type":"uint256","internalType":"uint256"}],"outputs":[],"stateMutability":"nonpayable"},{"type":"event","name":"BadDebtCovered","inputs":[{"name":"amount","type":"uint256","indexed":false,"internalType":"uint256"},{"name":"remainingBadDebt","type":"uint256","indexed":false,"internalType":"uint256"},{"name":"source","type":"string","indexed":false,"internalType":"string"}],"anonymous":false},{"type":"event","name":"BadDebtRecorded","inputs":[{"name":"user","type":"address","indexed":true,"internalType":"address"},{"name":"amount","type":"uint256","indexed":false,"internalType":"uint256"},{"name":"totalBadDebt","type":"uint256","indexed":false,"internalType":"uint256"}],"anonymous":false},{"type":"event","name":"BadDebtSocialized","inputs":[{"name":"amount","type":"uint256","indexed":false,"internalType":"uint256"},{"name":"totalBorrowsBefore","type":"uint256","indexed":false,"internalType":"uint256"},{"name":"totalBorrowsAfter","type":"uint256","indexed":false,"internalType":"uint256"}],"anonymous":false},{"type":"event","name":"Borrowed","inputs":[{"name":"user","type":"address","indexed":true,"internalType":"address"},{"name":"amount","type":"uint256","indexed":false,"internalType":"uint256"},{"name":"totalDebt","type":"uint256","indexed":false,"internalType":"uint256"}],"anonymous":false},{"type":"event","name":"CollateralWithdrawn","inputs":[{"name":"user","type":"address","indexed":true,"internalType":"address"},{"name":"token","type":"address","indexed":true,"internalType":"address"},{"name":"amount","type":"uint256","indexed":false,"internalType":"uint256"}],"anonymous":false},{"type":"event","name":"DebtAdjusted","inputs":[{"name":"user","type":"address","indexed":true,"internalType":"address"},{"name":"newDebt","type":"uint256","indexed":false,"internalType":"uint256"},{"name":"reason","type":"string","indexed":false,"internalType":"string"}],"anonymous":false},{"type":"event","name":"GlobalInterestAccrued","inputs":[{"name":"interest","type":"uint256","indexed":false,"internalType":"uint256"},{"name":"newTotalBorrows","type":"uint256","indexed":false,"internalType":"uint256"},{"name":"utilizationBps","type":"uint256","indexed":false,"internalType":"uint256"}],"anonymous":false},{"type":"event","name":"InterestAccrued","inputs":[{"name":"user","type":"address","indexed":true,"internalType":"address"},{"name":"interest","type":"uint256","indexed":false,"internalType":"uint256"},{"name":"totalDebt","type":"uint256","indexed":false,"internalType":"uint256"}],"anonymous":false},{"type":"event","name":"InterestRateModelUpdated","inputs":[{"name":"oldModel","type":"address","indexed":true,"internalType":"address"},{"name":"newModel","type":"address","indexed":true,"internalType":"address"}],"anonymous":false},{"type":"event","name":"InterestRateUpdated","inputs":[{"name":"oldRate","type":"uint256","indexed":false,"internalType":"uint256"},{"name":"newRate","type":"uint256","indexed":false,"internalType":"uint256"}],"anonymous":false},{"type":"event","name":"InterestRoutedToSuppliers","inputs":[{"name":"supplierAmount","type":"uint256","indexed":false,"internalType":"uint256"},{"name":"reserveAmount","type":"uint256","indexed":false,"internalType":"uint256"}],"anonymous":false},{"type":"event","name":"InterestRoutingFailed","inputs":[{"name":"supplierAmount","type":"uint256","indexed":false,"internalType":"uint256"},{"name":"reason","type":"bytes","indexed":false,"internalType":"bytes"}],"anonymous":false},{"type":"event","name":"MinDebtUpdated","inputs":[{"name":"oldMinDebt","type":"uint256","indexed":false,"internalType":"uint256"},{"name":"newMinDebt","type":"uint256","indexed":false,"internalType":"uint256"}],"anonymous":false},{"type":"event","name":"Paused","inputs":[{"name":"account","type":"address","indexed":false,"internalType":"address"}],"anonymous":false},{"type":"event","name":"Repaid","inputs":[{"name":"user","type":"address","indexed":true,"internalType":"address"},{"name":"amount","type":"uint256","indexed":false,"internalType":"uint256"},{"name":"remaining","type":"uint256","indexed":false,"internalType":"uint256"}],"anonymous":false},{"type":"event","name":"ReservesMintFailed","inputs":[{"name":"to","type":"address","indexed":true,"internalType":"address"},{"name":"amount","type":"uint256","indexed":false,"internalType":"uint256"}],"anonymous":false},{"type":"event","name":"ReservesWithdrawn","inputs":[{"name":"to","type":"address","indexed":true,"internalType":"address"},{"name":"amount","type":"uint256","indexed":false,"internalType":"uint256"}],"anonymous":false},{"type":"event","name":"RoleAdminChanged","inputs":[{"name":"role","type":"bytes32","indexed":true,"internalType":"bytes32"},{"name":"previousAdminRole","type":"bytes32","indexed":true,"internalType":"bytes32"},{"name":"newAdminRole","type":"bytes32","indexed":true,"internalType":"bytes32"}],"anonymous":false},{"type":"event","name":"RoleGranted","inputs":[{"name":"role","type":"bytes32","indexed":true,"internalType":"bytes32"},{"name":"account","type":"address","indexed":true,"internalType":"address"},{"name":"sender","type":"address","indexed":true,"internalType":"address"}],"anonymous":false},{"type":"event","name":"RoleRevoked","inputs":[{"name":"role","type":"bytes32","indexed":true,"internalType":"bytes32"},{"name":"account","type":"address","indexed":true,"internalType":"address"},{"name":"sender","type":"address","indexed":true,"internalType":"address"}],"anonymous":false},{"type":"event","name":"SMUSDUpdated","inputs":[{"name":"oldSMUSD","type":"address","indexed":true,"internalType":"address"},{"name":"newSMUSD","type":"address","indexed":true,"internalType":"address"}],"anonymous":false},{"type":"event","name":"TimelockUpdated","inputs":[{"name":"oldTimelock","type":"address","indexed":true,"internalType":"address"},{"name":"newTimelock","type":"address","indexed":true,"internalType":"address"}],"anonymous":false},{"type":"event","name":"TreasuryUpdated","inputs":[{"name":"oldTreasury","type":"address","indexed":true,"internalType":"address"},{"name":"newTreasury","type":"address","indexed":true,"internalType":"address"}],"anonymous":false},{"type":"event","name":"Unpaused","inputs":[{"name":"account","type":"address","indexed":false,"internalType":"address"}],"anonymous":false},{"type":"event","name":"UnroutedInterestDrained","inputs":[{"name":"amount","type":"uint256","indexed":false,"internalType":"uint256"},{"name":"totalBorrowsBefore","type":"uint256","indexed":false,"internalType":"uint256"},{"name":"totalBorrowsAfter","type":"uint256","indexed":false,"internalType":"uint256"}],"anonymous":false},{"type":"error","name":"AccessControlBadConfirmation","inputs":[]},{"type":"error","name":"AccessControlUnauthorizedAccount","inputs":[{"name":"account","type":"address","internalType":"address"},{"name":"neededRole","type":"bytes32","internalType":"bytes32"}]},{"type":"error","name":"EnforcedPause","inputs":[]},{"type":"error","name":"ExpectedPause","inputs":[]},{"type":"error","name":"OnlyTimelock","inputs":[]},{"type":"error","name":"ReentrancyGuardReentrantCall","inputs":[]},{"type":"error","name":"SafeERC20FailedOperation","inputs":[{"name":"token","type":"address","internalType":"address"}]},{"type":"error","name":"ZeroTimelock","inputs":[]}],"bytecode":{"object":"0x60e060405234801561000f575f80fd5b50604051614ed1380380614ed183398101604081905261002e91610352565b600180556001600160a01b03861661007d5760405162461bcd60e51b815260206004820152600d60248201526c1253959053125117d590555315609a1b60448201526064015b60405180910390fd5b6001600160a01b0385166100c45760405162461bcd60e51b815260206004820152600e60248201526d494e56414c49445f4f5241434c4560901b6044820152606401610074565b6001600160a01b0384166101095760405162461bcd60e51b815260206004820152600c60248201526b1253959053125117d35554d160a21b6044820152606401610074565b61138883111561014b5760405162461bcd60e51b815260206004820152600d60248201526c0a482a88abea89e9ebe90928e9609b1b6044820152606401610074565b5f82118015610164575069d3c21bcecceda10000008211155b6101a35760405162461bcd60e51b815260206004820152601060248201526f1253959053125117d3525397d111509560821b6044820152606401610074565b6001600160a01b0380871660805285811660a052841660c052600f8390556010829055426009556101d381610214565b6101dd5f3361028e565b506102087f292f74ea0b8d002236e65cd2cb76fcf83b8e4d25d2ac18517380a822699e9d013361028e565b505050505050506103b5565b6001600160a01b03811661023b576040516350c0eb2960e11b815260040160405180910390fd5b60028054610100600160a81b0319166101006001600160a01b038416908102919091179091556040515f907fae97011a27b5efe7b1d76fe38e75cc498fd64cc24e407a9c6b2185d27f611f7e908290a350565b5f828152602081815260408083206001600160a01b038516845290915281205460ff1661032e575f838152602081815260408083206001600160a01b03861684529091529020805460ff191660011790556102e63390565b6001600160a01b0316826001600160a01b0316847f2f8788117e7eff1d82e926ec794901d17c78024a50270940304540a733656f0d60405160405180910390a4506001610331565b505f5b92915050565b80516001600160a01b038116811461034d575f80fd5b919050565b5f805f805f8060c08789031215610367575f80fd5b61037087610337565b955061037e60208801610337565b945061038c60408801610337565b60608801516080890151919550935091506103a960a08801610337565b90509295509295509295565b60805160a05160c051614a206104b15f395f81816106d90152818161100001528181611797015281816122870152818161296901528181612c5c01528181612ddf01528181612eb10152818161407001528181614169015261422e01525f818161059401528181610a5e01528181611308015281816113930152818161364901528181613a7f0152613d7c01525f81816107e80152818161090a0152818161099b0152818161115c015281816112330152818161150f01528181613426015281816134b7015281816135820152818161385c015281816138ed015281816139b801528181613b5801528181613be90152613cb50152614a205ff3fe608060405234801561000f575f80fd5b506004361061037d575f3560e01c806391d14854116101d4578063cab666d011610109578063e478795d116100a9578063f0f4426011610079578063f0f44260146107b4578063f17336d7146107c7578063f3fdb15a146107d0578063fbfa77cf146107e3575f80fd5b8063e478795d14610754578063e63ab1e914610767578063e9a1183d1461078e578063ecc6d9ff146107a1575f80fd5b8063d547741f116100e4578063d547741f1461071c578063d681a4491461072f578063d9c9d33714610738578063dade020514610741575f80fd5b8063cab666d0146106d4578063d194bdf7146106fb578063d33219b414610704575f80fd5b8063b977fc8811610174578063bfe65f4d1161014f578063bfe65f4d146106a7578063c4e41b22146106b0578063c5ebeaec146106b8578063c84a208b146106cb575f80fd5b8063b977fc8814610678578063bbcac5571461068b578063bdacb30314610694575f80fd5b8063a217fddf116101af578063a217fddf1461062f578063a496b43414610636578063a874baf414610649578063ae0e012514610651575f80fd5b806391d148541461060057806397a9d457146106135780639b200ec714610626575f80fd5b80634a417a53116102b55780636c22e863116102555780638456cb59116102255780638456cb59146105c95780638594487c146105d157806388e94ef6146105da5780638bcd4016146105ed575f80fd5b80636c22e863146105555780637be9b1541461057c5780637dc0d1d01461058f578063807d3f1d146105b6575f80fd5b80635f84f302116102905780635f84f302146104f157806361d027b3146105045780636234dc211461052f5780636ad9f9df14610542575f80fd5b80634a417a531461049557806355f575101461049d5780635c975abb146104e6575f80fd5b806336568abe116103205780633f0c4392116102fb5780633f0c4392146104745780633f4ba83a1461047c57806347bd3718146104845780634a2190a51461048d575f80fd5b806336568abe1461043a578063371fd8e61461044d5780633d34e3e414610460575f80fd5b806323a276221161035b57806323a27622146103df578063248a9ca3146103f25780632f2ff15d14610414578063350c35e914610427575f80fd5b806301ffc9a714610381578063122b3c71146103a95780631ff517ff146103be575b5f80fd5b61039461038f3660046145f5565b61080a565b60405190151581526020015b60405180910390f35b6103bc6103b7366004614637565b610840565b005b6103d16103cc366004614637565b610c89565b6040519081526020016103a0565b6103bc6103ed366004614652565b610dea565b6103d161040036600461467c565b5f9081526020819052604090206001015490565b6103bc610422366004614693565b6110c3565b6103bc610435366004614652565b6110ed565b6103bc610448366004614693565b6115b3565b6103bc61045b36600461467c565b6115e6565b6103d15f805160206149cb83398151915281565b6103d1611845565b6103bc611853565b6103d160065481565b6103bc611865565b6103d1611949565b6104cb6104ab366004614637565b60116020525f908152604090208054600182015460029092015490919083565b604080519384526020840192909252908201526060016103a0565b60025460ff16610394565b6103bc6104ff36600461467c565b611a19565b600554610517906001600160a01b031681565b6040516001600160a01b0390911681526020016103a0565b6103bc61053d36600461467c565b611ad0565b6103d1610550366004614637565b611bce565b6103d17f292f74ea0b8d002236e65cd2cb76fcf83b8e4d25d2ac18517380a822699e9d0181565b600454610517906001600160a01b031681565b6105177f000000000000000000000000000000000000000000000000000000000000000081565b6103bc6105c4366004614652565b611c26565b6103bc611e17565b6103d1600e5481565b6103d16105e8366004614637565b611e49565b6103bc6105fb366004614637565b611e70565b61039461060e366004614693565b611f17565b6103d1610621366004614637565b611f3f565b6103d1600a5481565b6103d15f81565b6103bc610644366004614637565b611f6f565b6103d1612016565b6103d17f78dee7707521b7c9b92b1070cc1d51daeefd47d09898061ee53bff95426cbe5481565b6103d1610686366004614637565b612064565b6103d1600c5481565b6103bc6106a2366004614637565b61206e565b6103d1600b5481565b6103d161212b565b6103bc6106c636600461467c565b612134565b6103d1600f5481565b6105177f000000000000000000000000000000000000000000000000000000000000000081565b6103d160095481565b6002546105179061010090046001600160a01b031681565b6103bc61072a366004614693565b612320565b6103d160085481565b6103d1600d5481565b6103bc61074f3660046146c1565b612344565b6103bc610762366004614652565b6128a1565b6103d17f65d7a28e3265b37a6474929f336521b332c1681b933f6cb9f3376673440d862a81565b6103bc61079c366004614652565b612aa4565b6103bc6107af36600461467c565b612cf5565b6103bc6107c2366004614637565b612fb3565b6103d160105481565b600354610517906001600160a01b031681565b6105177f000000000000000000000000000000000000000000000000000000000000000081565b5f6001600160e01b03198216637965db0b60e01b148061083a57506301ffc9a760e01b6001600160e01b03198316145b92915050565b61084861305a565b6108727f78dee7707521b7c9b92b1070cc1d51daeefd47d09898061ee53bff95426cbe5433611f17565b6108c35760405162461bcd60e51b815260206004820152601c60248201527f554e415554484f52495a45445f5245434f52445f4241445f444542540000000060448201526064015b60405180910390fd5b6108cc81613084565b6001600160a01b0381165f908152601160205260408120600181015481549192916108f7919061474f565b9050805f03610907575050610c7d565b5f7f00000000000000000000000000000000000000000000000000000000000000006001600160a01b031663d3c7c2c76040518163ffffffff1660e01b81526004015f60405180830381865afa158015610963573d5f803e3d5ffd5b505050506040513d5f823e601f3d908101601f1916820160405261098a9190810190614786565b90505f805b8251811015610b18575f7f00000000000000000000000000000000000000000000000000000000000000006001600160a01b0316638f601f66888685815181106109db576109db614851565b60200260200101516040518363ffffffff1660e01b8152600401610a159291906001600160a01b0392831681529116602082015260400190565b602060405180830381865afa158015610a30573d5f803e3d5ffd5b505050506040513d601f19601f82011682018060405250810190610a549190614865565b90508015610b0f577f00000000000000000000000000000000000000000000000000000000000000006001600160a01b0316637206c22b858481518110610a9d57610a9d614851565b6020026020010151836040518363ffffffff1660e01b8152600401610ac392919061487c565b602060405180830381865afa158015610ade573d5f803e3d5ffd5b505050506040513d601f19601f82011682018060405250810190610b029190614865565b610b0c908461474f565b92505b5060010161098f565b508015610b5e5760405162461bcd60e51b8152602060048201526014602482015273434f4c4c41544552414c5f52454d41494e494e4760601b60448201526064016108ba565b5f80855560018501556006548311610b8c578260065f828254610b819190614895565b90915550610b919050565b5f6006555b82600c5f828254610ba2919061474f565b9250508190555082600d5f828254610bba919061474f565b9091555050600c546040516001600160a01b038716917ff824141b5865c6fe993e72651d58296151858045f63dc2bf611ba62429e3d1d691610c0491878252602082015260400190565b60405180910390a2846001600160a01b03167ff073ee549cff52c89736798db7e065360a0f6079de0d91acabb22b8cd51005915f604051610c70918152604060208201819052601190820152702120a22fa222a12a2faba924aa22a7a32360791b606082015260800190565b60405180910390a2505050505b610c8660018055565b50565b6001600160a01b0381165f90815260116020526040812060028101548290610cb19042614895565b90505f8260010154835f0154610cc7919061474f565b6003549091505f906001600160a01b031615610da0576003546006545f916001600160a01b03169063724dfc929080610cfe61329d565b6040516001600160e01b031960e086901b16815260048101939093526024830191909152604482015260648101879052608401602060405180830381865afa158015610d4c573d5f803e3d5ffd5b505050506040513d601f19601f82011682018060405250810190610d709190614865565b90505f60065411610d81575f610d98565b600654610d8e84836148a8565b610d9891906148bf565b915050610dd6565b610db06301e133806127106148a8565b83600f5484610dbf91906148a8565b610dc991906148a8565b610dd391906148bf565b90505b610de0818361474f565b9695505050505050565b5f805160206149cb833981519152610e0181613363565b610e0961305a565b5f8211610e285760405162461bcd60e51b81526004016108ba906148de565b6001600160a01b038316610e6d5760405162461bcd60e51b815260206004820152600c60248201526b24a72b20a624a22faaa9a2a960a11b60448201526064016108ba565b610e7683613084565b6001600160a01b0383165f90815260116020526040812060018101548154919291610ea1919061474f565b90505f8111610edc5760405162461bcd60e51b81526020600482015260076024820152661393d7d111509560ca1b60448201526064016108ba565b5f818511610eea5784610eec565b815b90505f610ef98284614895565b90508015610f4e57601054811015610f4e5760405162461bcd60e51b8152602060048201526018602482015277149153505253925391d7d0915313d5d7d3525397d111509560421b60448201526064016108ba565b83600101548211610f775781846001015f828254610f6c9190614895565b90915550610fac9050565b5f846001015483610f889190614895565b90505f856001018190555080855f015f828254610fa59190614895565b9091555050505b5f82118015610fbd57508160065410155b15610fde578160065f828254610fd39190614895565b90915550610fe99050565b8115610fe9575f6006555b604051632770a7eb60e21b81526001600160a01b037f00000000000000000000000000000000000000000000000000000000000000001690639dc29fac90611037903390869060040161487c565b5f604051808303815f87803b15801561104e575f80fd5b505af1158015611060573d5f803e3d5ffd5b50505050866001600160a01b03167f1b8cd61ed43bec7c6bdad3a18ffee613f99c853d16c50678d248d879e1b43438836110998a610c89565b6040805192835260208301919091520160405180910390a2505050506110be60018055565b505050565b5f828152602081905260409020600101546110dd81613363565b6110e7838361336d565b50505050565b6110f561305a565b6110fd6133fc565b5f811161111c5760405162461bcd60e51b81526004016108ba906148de565b61112533613084565b5f61112f33610c89565b11156114e3576040516347b00fb360e11b81523360048201526001600160a01b0383811660248301525f917f000000000000000000000000000000000000000000000000000000000000000090911690638f601f6690604401602060405180830381865afa1580156111a3573d5f803e3d5ffd5b505050506040513d601f19601f820116820180604052508101906111c79190614865565b9050818110156112105760405162461bcd60e51b8152602060048201526014602482015273125394d551919250d251539517d1115413d4d25560621b60448201526064016108ba565b60405163e48a5f7b60e01b81526001600160a01b0384811660048301525f9182917f0000000000000000000000000000000000000000000000000000000000000000169063e48a5f7b90602401608060405180830381865afa158015611278573d5f803e3d5ffd5b505050506040513d601f19601f8201168201806040525081019061129c9190614906565b50925050915081806112ad57505f81115b6112ef5760405162461bcd60e51b81526020600482015260136024820152721513d2d15397d393d517d4d5541413d4951151606a1b60448201526064016108ba565b604051632dfe1d9160e21b81525f906001600160a01b037f0000000000000000000000000000000000000000000000000000000000000000169063b7f876449061133f908990899060040161487c565b602060405180830381865afa925050508015611378575060408051601f3d908101601f1916820190925261137591810190614865565b60015b61141057604051637206c22b60e01b81526001600160a01b037f00000000000000000000000000000000000000000000000000000000000000001690637206c22b906113ca908990899060040161487c565b602060405180830381865afa1580156113e5573d5f803e3d5ffd5b505050506040513d601f19601f820116820180604052508101906114099190614865565b9050611413565b90505b5f61271061142184846148a8565b61142b91906148bf565b90505f61143733613422565b90505f828211611447575f611451565b6114518383614895565b90505f61145d33610c89565b90505f80821161146e575f19611485565b8161147b846127106148a8565b61148591906148bf565b90506127108110156114d95760405162461bcd60e51b815260206004820152601a60248201527f5749544844524157414c5f574f554c445f4c495155494441544500000000000060448201526064016108ba565b5050505050505050505b604051631a4ca37b60e21b81526001600160a01b038381166004830152602482018390523360448301527f000000000000000000000000000000000000000000000000000000000000000016906369328dec906064015f604051808303815f87803b158015611550575f80fd5b505af1158015611562573d5f803e3d5ffd5b50506040518381526001600160a01b03851692503391507f45892a46e6cef329bb642da6d69846d324db43d19008edc141ed82382eda1bee9060200160405180910390a36115af60018055565b5050565b6001600160a01b03811633146115dc5760405163334bd91960e11b815260040160405180910390fd5b6110be8282613726565b6115ee61305a565b5f811161160d5760405162461bcd60e51b81526004016108ba906148de565b61161633613084565b335f90815260116020526040812060018101548154919291611638919061474f565b90505f81116116735760405162461bcd60e51b81526020600482015260076024820152661393d7d111509560ca1b60448201526064016108ba565b5f8184116116815783611683565b815b90505f6116908284614895565b905080156116e5576010548110156116e55760405162461bcd60e51b8152602060048201526018602482015277149153505253925391d7d0915313d5d7d3525397d111509560421b60448201526064016108ba565b8360010154821161170e5781846001015f8282546117039190614895565b909155506117439050565b5f84600101548361171f9190614895565b90505f856001018190555080855f015f82825461173c9190614895565b9091555050505b5f8211801561175457508160065410155b15611775578160065f82825461176a9190614895565b909155506117809050565b8115611780575f6006555b604051632770a7eb60e21b81526001600160a01b037f00000000000000000000000000000000000000000000000000000000000000001690639dc29fac906117ce903390869060040161487c565b5f604051808303815f87803b1580156117e5575f80fd5b505af11580156117f7573d5f803e3d5ffd5b50505050336001600160a01b03167f1b8cd61ed43bec7c6bdad3a18ffee613f99c853d16c50678d248d879e1b434388361183033610c89565b60408051928352602083019190915201610c70565b5f61184e61378f565b905090565b5f61185d81613363565b610c866137c9565b7f292f74ea0b8d002236e65cd2cb76fcf83b8e4d25d2ac18517380a822699e9d0161188f81613363565b600b54806118d25760405162461bcd60e51b815260206004820152601060248201526f2727aa2424a723afaa27afa22920a4a760811b60448201526064016108ba565b6006545f600b558181106118fc578160065f8282546118f19190614895565b909155506119019050565b5f6006555b600654604080518481526020810184905280820192909252517f2ca70acd561450e4a516b059fb9b4d1f7319d5592823844a421a866274d1405f9181900360600190a1505050565b6003545f906001600160a01b0316156119df576003546006546001600160a01b039091169063ec2de40c9061197c61329d565b6040516001600160e01b031960e085901b16815260048101929092526024820152604401602060405180830381865afa1580156119bb573d5f803e3d5ffd5b505050506040513d601f19601f8201168201806040525081019061184e9190614865565b5f6119e861329d565b9050805f036119f8575f91505090565b80612710600654611a0991906148a8565b611a1391906148bf565b91505090565b60025461010090046001600160a01b03163314611a4957604051630e05f48560e11b815260040160405180910390fd5b611388811115611a8b5760405162461bcd60e51b815260206004820152600d60248201526c0a482a88abea89e9ebe90928e9609b1b60448201526064016108ba565b600f80549082905560408051828152602081018490527f41e376fd99913dea7fda140f5c0bd997515b1a181acc58737320322548ec6e72910160405180910390a15050565b60025461010090046001600160a01b03163314611b0057604051630e05f48560e11b815260040160405180910390fd5b5f8111611b3f5760405162461bcd60e51b815260206004820152600d60248201526c4d494e5f444542545f5a45524f60981b60448201526064016108ba565b69d3c21bcecceda1000000811115611b8d5760405162461bcd60e51b815260206004820152601160248201527009a929cbe888a84a8bea89e9ebe90928e9607b1b60448201526064016108ba565b60105460408051918252602082018390527f7c4eb8004e5bfd89a239033e6c38ca145db0ddd5b523870d9c6a1de14ac5d37f910160405180910390a1601055565b5f80611bd983610c89565b9050805f03611beb57505f1992915050565b5f611bf584613422565b9050805f03611c0757505f9392505050565b81611c14826127106148a8565b611c1e91906148bf565b949350505050565b611c2e61305a565b611c587f78dee7707521b7c9b92b1070cc1d51daeefd47d09898061ee53bff95426cbe5433611f17565b80611c755750611c755f805160206149cb83398151915233611f17565b611cc15760405162461bcd60e51b815260206004820152601860248201527f554e415554484f52495a45445f5245445543455f44454254000000000000000060448201526064016108ba565b611cca82613084565b6001600160a01b0382165f90815260116020526040812060018101548154919291611cf5919061474f565b90505f818411611d055783611d07565b815b905082600101548111611d325780836001015f828254611d279190614895565b90915550611d679050565b5f836001015482611d439190614895565b90505f846001018190555080845f015f828254611d609190614895565b9091555050505b5f81118015611d7857508060065410155b15611d99578060065f828254611d8e9190614895565b90915550611da49050565b8015611da4575f6006555b846001600160a01b03167ff073ee549cff52c89736798db7e065360a0f6079de0d91acabb22b8cd5100591611dd887610c89565b6040805191825260208201819052600b908201526a2624a8aaa4a220aa24a7a760a91b606082015260800160405180910390a25050506115af60018055565b7f65d7a28e3265b37a6474929f336521b332c1681b933f6cb9f3376673440d862a611e4181613363565b610c8661381b565b5f80611e5483610c89565b9050805f03611e6657505f1992915050565b5f611bf584613858565b60025461010090046001600160a01b03163314611ea057604051630e05f48560e11b815260040160405180910390fd5b6001600160a01b038116611ec65760405162461bcd60e51b81526004016108ba90614946565b600380546001600160a01b038381166001600160a01b0319831681179093556040519116919082907fdace1576ba731b4c76870b86217414c265c1ae95c55027d50dc19dab5feb9919905f90a35050565b5f918252602082815260408084206001600160a01b0393909316845291905290205460ff1690565b5f80611f4a83613b54565b90505f611f5684610c89565b9050808211611f65575f611c1e565b611c1e8183614895565b60025461010090046001600160a01b03163314611f9f57604051630e05f48560e11b815260040160405180910390fd5b6001600160a01b038116611fc55760405162461bcd60e51b81526004016108ba90614946565b600480546001600160a01b038381166001600160a01b0319831681179093556040519116919082907ffe654e270bae2933f0a40f2c174979f717954d0fc789a6b957087fb0f85d9037905f90a35050565b6003545f906001600160a01b031615612049576003546006546001600160a01b039091169063257d9ef59061197c61329d565b600a600f54600961205a91906148a8565b61184e91906148bf565b5f61083a82613b54565b60025461010090046001600160a01b0316331461209e57604051630e05f48560e11b815260040160405180910390fd5b6001600160a01b0381166120c5576040516350c0eb2960e11b815260040160405180910390fd5b6002546040516001600160a01b0380841692610100900416907fae97011a27b5efe7b1d76fe38e75cc498fd64cc24e407a9c6b2185d27f611f7e905f90a3600280546001600160a01b0390921661010002610100600160a81b0319909216919091179055565b5f61184e61329d565b61213c61305a565b6121446133fc565b5f81116121635760405162461bcd60e51b81526004016108ba906148de565b61216c33613084565b335f90815260116020526040812060018101548154919291849161218f9161474f565b612199919061474f565b90506010548110156121de5760405162461bcd60e51b815260206004820152600e60248201526d10915313d5d7d3525397d111509560921b60448201526064016108ba565b82825f015f8282546121f0919061474f565b925050819055508260065f828254612208919061474f565b909155505f905061221833613b54565b90505f61222433610c89565b9050808210156122705760405162461bcd60e51b8152602060048201526017602482015276455843454544535f424f52524f575f434150414349545960481b60448201526064016108ba565b6040516340c10f1960e01b81526001600160a01b037f000000000000000000000000000000000000000000000000000000000000000016906340c10f19906122be903390899060040161487c565b5f604051808303815f87803b1580156122d5575f80fd5b505af11580156122e7573d5f803e3d5ffd5b50505050336001600160a01b03167feae9cfbc77fdd40ca899f36b608256063b2bc9d8178b0220f7ad513e178d67308661183033610c89565b5f8281526020819052604090206001015461233a81613363565b6110e78383613726565b61234c61305a565b60025461010090046001600160a01b0316331461237c57604051630e05f48560e11b815260040160405180910390fd5b5f83116123b95760405162461bcd60e51b815260206004820152600b60248201526a16915493d7d05353d5539560aa1b60448201526064016108ba565b5f600c54116123f85760405162461bcd60e51b815260206004820152600b60248201526a1393d7d0905117d111509560aa1b60448201526064016108ba565b806124345760405162461bcd60e51b815260206004820152600c60248201526b4e4f5f424f52524f5745525360a01b60448201526064016108ba565b5f600c5484116124445783612448565b600c545b90505f5b8281101561251b575f805b828110156124d55785858481811061247157612471614851565b90506020020160208101906124869190614637565b6001600160a01b03168686838181106124a1576124a1614851565b90506020020160208101906124b69190614637565b6001600160a01b0316036124cd57600191506124d5565b600101612457565b5080156124e25750612513565b6125118585848181106124f7576124f7614851565b905060200201602081019061250c9190614637565b613084565b505b60010161244c565b506006545f805b8481101561276e575f805b828110156125ab5787878481811061254757612547614851565b905060200201602081019061255c9190614637565b6001600160a01b031688888381811061257757612577614851565b905060200201602081019061258c9190614637565b6001600160a01b0316036125a357600191506125ab565b60010161252d565b5080156125b85750612766565b5f60115f8989868181106125ce576125ce614851565b90506020020160208101906125e39190614637565b6001600160a01b0316815260208101919091526040015f908120600181015481549193506126109161474f565b9050805f0361262157505050612766565b5f8661262d838a6148a8565b61263791906148bf565b9050805f036126495750505050612766565b818111156126545750805b8260010154811161267d5780836001015f8282546126729190614895565b909155506126b69050565b5f83600101548261268e9190614895565b5f6001860155845490915081106126a5575f6126b2565b83546126b2908290614895565b8455505b6126c0818761474f565b95508989868181106126d4576126d4614851565b90506020020160208101906126e99190614637565b6001600160a01b03167ff073ee549cff52c89736798db7e065360a0f6079de0d91acabb22b8cd51005918460010154855f0154612726919061474f565b60408051918252602082018190526013908201527210905117d111509517d4d3d0d2505312569151606a1b606082015260800160405180910390a2505050505b600101612522565b508281111561277a5750815b600c548111156127895750600c545b80600c5411612798575f6127a6565b80600c546127a69190614895565b600c8190555080600e5f8282546127bd919061474f565b909155505060065481116127e7578060065f8282546127dc9190614895565b909155506127ec9050565b5f6006555b600654604080518381526020810185905280820192909252517f6ebcf6a07af16be72fe3a5f107d584c67823dde428ab1287456612054509bee39181900360600190a17f50c9973df34192f257de65ae122c2f20240b469f9673f67e27975d1817157c7881600c5460405161288d9291909182526020820152606060408201819052600a908201526914d3d0d250531256915160b21b608082015260a00190565b60405180910390a15050506110be60018055565b60025461010090046001600160a01b031633146128d157604051630e05f48560e11b815260040160405180910390fd5b6008548111156129165760405162461bcd60e51b815260206004820152601060248201526f455843454544535f524553455256455360801b60448201526064016108ba565b6001600160a01b03821661293c5760405162461bcd60e51b81526004016108ba90614946565b8060085f82825461294d9190614895565b90915550506040516340c10f1960e01b81526001600160a01b037f000000000000000000000000000000000000000000000000000000000000000016906340c10f19906129a0908590859060040161487c565b5f604051808303815f87803b1580156129b7575f80fd5b505af19250505080156129c8575060015b612a5d578060085f8282546129dd919061474f565b90915550506040518181526001600160a01b038316907f6102aab6acabb35b6fb064b6231fa7bc272fce9155f6830295fd0ff6925557a39060200160405180910390a260405162461bcd60e51b815260206004820152601260248201527114d55414131657d0d05417d4915050d2115160721b60448201526064016108ba565b816001600160a01b03167fc08dc172be702645aed16b77bdd6b526b8be4dab30d20b4caf5285fd59712fe982604051612a9891815260200190565b60405180910390a25050565b5f805160206149cb833981519152612abb81613363565b612ac361305a565b612acb6133fc565b5f8211612aea5760405162461bcd60e51b81526004016108ba906148de565b6001600160a01b038316612b2f5760405162461bcd60e51b815260206004820152600c60248201526b24a72b20a624a22faaa9a2a960a11b60448201526064016108ba565b612b3883613084565b6001600160a01b0383165f908152601160205260408120600181015481549192918591612b649161474f565b612b6e919061474f565b9050601054811015612bb35760405162461bcd60e51b815260206004820152600e60248201526d10915313d5d7d3525397d111509560921b60448201526064016108ba565b83825f015f828254612bc5919061474f565b925050819055508360065f828254612bdd919061474f565b909155505f9050612bed86613b54565b90505f612bf987610c89565b905080821015612c455760405162461bcd60e51b8152602060048201526017602482015276455843454544535f424f52524f575f434150414349545960481b60448201526064016108ba565b6040516340c10f1960e01b81526001600160a01b037f000000000000000000000000000000000000000000000000000000000000000016906340c10f1990612c939033908a9060040161487c565b5f604051808303815f87803b158015612caa575f80fd5b505af1158015612cbc573d5f803e3d5ffd5b50505050866001600160a01b03167feae9cfbc77fdd40ca899f36b608256063b2bc9d8178b0220f7ad513e178d6730876110998a610c89565b612cfd61305a565b60025461010090046001600160a01b03163314612d2d57604051630e05f48560e11b815260040160405180910390fd5b5f8111612d6a5760405162461bcd60e51b815260206004820152600b60248201526a16915493d7d05353d5539560aa1b60448201526064016108ba565b5f600c5411612da95760405162461bcd60e51b815260206004820152600b60248201526a1393d7d0905117d111509560aa1b60448201526064016108ba565b5f600c548211612db95781612dbd565b600c545b6040516370a0823160e01b81523060048201529091505f906001600160a01b037f000000000000000000000000000000000000000000000000000000000000000016906370a0823190602401602060405180830381865afa158015612e24573d5f803e3d5ffd5b505050506040513d601f19601f82011682018060405250810190612e489190614865565b905081811015612e9a5760405162461bcd60e51b815260206004820152601960248201527f494e53554646494349454e545f4d5553445f42414c414e43450000000000000060448201526064016108ba565b604051632770a7eb60e21b81526001600160a01b037f00000000000000000000000000000000000000000000000000000000000000001690639dc29fac90612ee8903090869060040161487c565b5f604051808303815f87803b158015612eff575f80fd5b505af1158015612f11573d5f803e3d5ffd5b5050505081600c5f828254612f269190614895565b9250508190555081600e5f828254612f3e919061474f565b9091555050600c5460408051848152602081019290925260608282018190526011908301527050524f544f434f4c5f524553455256455360781b6080830152517f50c9973df34192f257de65ae122c2f20240b469f9673f67e27975d1817157c789181900360a00190a15050610c8660018055565b60025461010090046001600160a01b03163314612fe357604051630e05f48560e11b815260040160405180910390fd5b6001600160a01b0381166130095760405162461bcd60e51b81526004016108ba90614946565b600580546001600160a01b038381166001600160a01b0319831681179093556040519116919082907f4ab5be82436d353e61ca18726e984e561f5c1cc7c6d38b29d2553c790434705a905f90a35050565b60026001540361307d57604051633ee5aeb560e01b815260040160405180910390fd5b6002600155565b61308c613e52565b6001600160a01b0381165f90815260116020526040902080541580156130b457506001810154155b156130c3574260029091015550565b5f8160020154426130d49190614895565b9050805f036130e257505050565b5f808360010154845f01546130f7919061474f565b90505f806007541161310b5760065461310f565b6007545b90505f8111801561311f57505f82115b15613219576003546001600160a01b0316156131e3576003545f906001600160a01b031663724dfc92838061315261329d565b6040516001600160e01b031960e086901b16815260048101939093526024830191909152604482015260648101889052608401602060405180830381865afa1580156131a0573d5f803e3d5ffd5b505050506040513d601f19601f820116820180604052508101906131c49190614865565b9050816131d184836148a8565b6131db91906148bf565b935050613219565b6131f36301e133806127106148a8565b84600f548461320291906148a8565b61320c91906148a8565b61321691906148bf565b92505b82856001015f82825461322c919061474f565b9091555050426002860155821561329557856001600160a01b03167f4557e05caeefc19fe1b4badbbd2996f86791aa6e830e224dc79c20725c38b9c1848760010154885f015461327c919061474f565b6040805192835260208301919091520160405180910390a25b505050505050565b6005545f906001600160a01b03161561333f5760055f9054906101000a90046001600160a01b03166001600160a01b031663d4c3eea06040518163ffffffff1660e01b8152600401602060405180830381865afa92505050801561331e575060408051601f3d908101601f1916820190925261331b91810190614865565b60015b6133305760065461184e9060026148a8565b611a138164e8d4a510006148a8565b5f600654116133555750670de0b6b3a764000090565b60065461184e9060026148a8565b610c868133614434565b5f6133788383611f17565b6133f5575f838152602081815260408083206001600160a01b03861684529091529020805460ff191660011790556133ad3390565b6001600160a01b0316826001600160a01b0316847f2f8788117e7eff1d82e926ec794901d17c78024a50270940304540a733656f0d60405160405180910390a450600161083a565b505f61083a565b60025460ff16156134205760405163d93c066560e01b815260040160405180910390fd5b565b5f807f00000000000000000000000000000000000000000000000000000000000000006001600160a01b031663d3c7c2c76040518163ffffffff1660e01b81526004015f60405180830381865afa15801561347f573d5f803e3d5ffd5b505050506040513d5f823e601f3d908101601f191682016040526134a69190810190614786565b90505f805b825181101561371e575f7f00000000000000000000000000000000000000000000000000000000000000006001600160a01b0316638f601f66878685815181106134f7576134f7614851565b60200260200101516040518363ffffffff1660e01b81526004016135319291906001600160a01b0392831681529116602082015260400190565b602060405180830381865afa15801561354c573d5f803e3d5ffd5b505050506040513d601f19601f820116820180604052508101906135709190614865565b9050805f0361357f5750613716565b5f7f00000000000000000000000000000000000000000000000000000000000000006001600160a01b031663e48a5f7b8685815181106135c1576135c1614851565b60200260200101516040518263ffffffff1660e01b81526004016135f491906001600160a01b0391909116815260200190565b608060405180830381865afa15801561360f573d5f803e3d5ffd5b505050506040513d601f19601f820116820180604052508101906136339190614906565b5092505050805f03613646575050613716565b5f7f00000000000000000000000000000000000000000000000000000000000000006001600160a01b031663b7f8764487868151811061368857613688614851565b6020026020010151856040518363ffffffff1660e01b81526004016136ae92919061487c565b602060405180830381865afa1580156136c9573d5f803e3d5ffd5b505050506040513d601f19601f820116820180604052508101906136ed9190614865565b90506127106136fc83836148a8565b61370691906148bf565b613710908661474f565b94505050505b6001016134ab565b509392505050565b5f6137318383611f17565b156133f5575f838152602081815260408083206001600160a01b0386168085529252808320805460ff1916905551339286917ff6391f5c32d9c69d2a47ea670b442974b53935d1edc7fd64eb21e047a839171b9190a450600161083a565b6003545f906001600160a01b0316156137c2576003546006546001600160a01b0390911690633ca246249061197c61329d565b50600f5490565b6137d161445f565b6002805460ff191690557f5db9ee0a495bf2e6ff9c91a7834c1ba4fdd244a5e8aa4e537bd38aeae4b073aa335b6040516001600160a01b03909116815260200160405180910390a1565b6138236133fc565b6002805460ff191660011790557f62e78cea01bee320cd4e420270b5ea74000d11b0c9f74754ebdbfc544b05a2586137fe3390565b5f807f00000000000000000000000000000000000000000000000000000000000000006001600160a01b031663d3c7c2c76040518163ffffffff1660e01b81526004015f60405180830381865afa1580156138b5573d5f803e3d5ffd5b505050506040513d5f823e601f3d908101601f191682016040526138dc9190810190614786565b90505f805b825181101561371e575f7f00000000000000000000000000000000000000000000000000000000000000006001600160a01b0316638f601f668786858151811061392d5761392d614851565b60200260200101516040518363ffffffff1660e01b81526004016139679291906001600160a01b0392831681529116602082015260400190565b602060405180830381865afa158015613982573d5f803e3d5ffd5b505050506040513d601f19601f820116820180604052508101906139a69190614865565b9050805f036139b55750613b4c565b5f7f00000000000000000000000000000000000000000000000000000000000000006001600160a01b031663e48a5f7b8685815181106139f7576139f7614851565b60200260200101516040518263ffffffff1660e01b8152600401613a2a91906001600160a01b0391909116815260200190565b608060405180830381865afa158015613a45573d5f803e3d5ffd5b505050506040513d601f19601f82011682018060405250810190613a699190614906565b5092505050805f03613a7c575050613b4c565b5f7f00000000000000000000000000000000000000000000000000000000000000006001600160a01b0316637206c22b878681518110613abe57613abe614851565b6020026020010151856040518363ffffffff1660e01b8152600401613ae492919061487c565b602060405180830381865afa158015613aff573d5f803e3d5ffd5b505050506040513d601f19601f82011682018060405250810190613b239190614865565b9050612710613b3283836148a8565b613b3c91906148bf565b613b46908661474f565b94505050505b6001016138e1565b5f807f00000000000000000000000000000000000000000000000000000000000000006001600160a01b031663d3c7c2c76040518163ffffffff1660e01b81526004015f60405180830381865afa158015613bb1573d5f803e3d5ffd5b505050506040513d5f823e601f3d908101601f19168201604052613bd89190810190614786565b90505f805b825181101561371e575f7f00000000000000000000000000000000000000000000000000000000000000006001600160a01b0316638f601f6687868581518110613c2957613c29614851565b60200260200101516040518363ffffffff1660e01b8152600401613c639291906001600160a01b0392831681529116602082015260400190565b602060405180830381865afa158015613c7e573d5f803e3d5ffd5b505050506040513d601f19601f82011682018060405250810190613ca29190614865565b9050805f03613cb15750613e4a565b5f807f00000000000000000000000000000000000000000000000000000000000000006001600160a01b031663e48a5f7b878681518110613cf457613cf4614851565b60200260200101516040518263ffffffff1660e01b8152600401613d2791906001600160a01b0391909116815260200190565b608060405180830381865afa158015613d42573d5f803e3d5ffd5b505050506040513d601f19601f82011682018060405250810190613d669190614906565b50509150915081613d7957505050613e4a565b5f7f00000000000000000000000000000000000000000000000000000000000000006001600160a01b031663b7f87644888781518110613dbb57613dbb614851565b6020026020010151866040518363ffffffff1660e01b8152600401613de192919061487c565b602060405180830381865afa158015613dfc573d5f803e3d5ffd5b505050506040513d601f19601f82011682018060405250810190613e209190614865565b9050612710613e2f83836148a8565b613e3991906148bf565b613e43908761474f565b9550505050505b600101613bdd565b5f60095442613e619190614895565b9050801580613e705750600654155b15613e7c575042600955565b5f613e8561329d565b6003549091505f906001600160a01b031615613f2657600354600654604051633926fe4960e11b815260048101829052602481019190915260448101849052606481018590526001600160a01b039091169063724dfc9290608401602060405180830381865afa158015613efb573d5f803e3d5ffd5b505050506040513d601f19601f82011682018060405250810190613f1f9190614865565b9050613f5e565b613f366301e133806127106148a8565b83600f54600654613f4791906148a8565b613f5191906148a8565b613f5b91906148bf565b90505b5f600a600654613f6e91906148bf565b905080821115613f7c578091505b811561442a576003545f9081906001600160a01b03161561400b57600354604051632354027960e21b8152600481018690526001600160a01b0390911690638d5009e4906024016040805180830381865afa158015613fdd573d5f803e3d5ffd5b505050506040513d601f19601f82011682018060405250810190614001919061496c565b9092509050614025565b614016600a856148bf565b90506140228185614895565b91505b8060085f828254614036919061474f565b9091555050811580159061405457506004546001600160a01b031615155b15614313576040516340c10f1960e01b81526001600160a01b037f000000000000000000000000000000000000000000000000000000000000000016906340c10f19906140a7903090869060040161487c565b5f604051808303815f87803b1580156140be575f80fd5b505af19250505080156140cf575060015b614158573d8080156140fc576040519150601f19603f3d011682016040523d82523d5f602084013e614101565b606091505b5082600b5f828254614113919061474f565b90915550506040517fd95507bf24933d495dfb2eb73a1a47f54b9cb559cf4d3e994e5591ee5a0dae6a9061414a908590849061498e565b60405180910390a150614313565b600454614192906001600160a01b037f00000000000000000000000000000000000000000000000000000000000000008116911684614482565b600480546040516323411fb560e11b81529182018490526001600160a01b0316906346823f6a906024015f604051808303815f87803b1580156141d3575f80fd5b505af19250505080156141e4575060015b6142c3573d808015614211576040519150601f19603f3d011682016040523d82523d5f602084013e614216565b606091505b50604051632770a7eb60e21b81526001600160a01b037f00000000000000000000000000000000000000000000000000000000000000001690639dc29fac90614265903090879060040161487c565b5f604051808303815f87803b15801561427c575f80fd5b505af115801561428e573d5f803e3d5ffd5b505050507fd95507bf24933d495dfb2eb73a1a47f54b9cb559cf4d3e994e5591ee5a0dae6a838260405161414a92919061498e565b81600a5f8282546142d4919061474f565b909155505060408051838152602081018390527f499aa6b2e1c7b18ae34a860de7861e815b71a105cfd88f47a75787d41208a77a910160405180910390a15b6006546007819055508360065f82825461432d919061474f565b90915550506003545f906001600160a01b0316614364578561271060065461435591906148a8565b61435f91906148bf565b6143df565b600354600654604051633b0b790360e21b81526001600160a01b039092169163ec2de40c916143a0918a90600401918252602082015260400190565b602060405180830381865afa1580156143bb573d5f803e3d5ffd5b505050506040513d601f19601f820116820180604052508101906143df9190614865565b60065460408051888152602081019290925281018290529091507f5b67ff468eb47826f682d445996375571ee237450b508822263621e0a54394579060600160405180910390a15050505b5050426009555050565b61443e8282611f17565b6115af57808260405163e2517d3f60e01b81526004016108ba92919061487c565b60025460ff1661342057604051638dfc202b60e01b815260040160405180910390fd5b5f836001600160a01b031663095ea7b384846040516024016144a592919061487c565b604051602081830303815290604052915060e01b6020820180516001600160e01b03838183161783525050505090506144de8482614544565b6110e75761453a84856001600160a01b031663095ea7b3865f60405160240161450892919061487c565b604051602081830303815290604052915060e01b6020820180516001600160e01b038381831617835250505050614589565b6110e78482614589565b5f805f8060205f8651602088015f8a5af192503d91505f519050828015610de0575081156145755780600114610de0565b50505050506001600160a01b03163b151590565b5f8060205f8451602086015f885af1806145a8576040513d5f823e3d81fd5b50505f513d915081156145bf5780600114156145cc565b6001600160a01b0384163b155b156110e757604051635274afe760e01b81526001600160a01b03851660048201526024016108ba565b5f60208284031215614605575f80fd5b81356001600160e01b03198116811461461c575f80fd5b9392505050565b6001600160a01b0381168114610c86575f80fd5b5f60208284031215614647575f80fd5b813561461c81614623565b5f8060408385031215614663575f80fd5b823561466e81614623565b946020939093013593505050565b5f6020828403121561468c575f80fd5b5035919050565b5f80604083850312156146a4575f80fd5b8235915060208301356146b681614623565b809150509250929050565b5f805f604084860312156146d3575f80fd5b83359250602084013567ffffffffffffffff8111156146f0575f80fd5b8401601f81018613614700575f80fd5b803567ffffffffffffffff811115614716575f80fd5b8660208260051b840101111561472a575f80fd5b939660209190910195509293505050565b634e487b7160e01b5f52601160045260245ffd5b8082018082111561083a5761083a61473b565b634e487b7160e01b5f52604160045260245ffd5b805161478181614623565b919050565b5f60208284031215614796575f80fd5b815167ffffffffffffffff8111156147ac575f80fd5b8201601f810184136147bc575f80fd5b805167ffffffffffffffff8111156147d6576147d6614762565b8060051b604051601f19603f830116810181811067ffffffffffffffff8211171561480357614803614762565b604052918252602081840181019290810187841115614820575f80fd5b6020850194505b838510156148465761483885614776565b815260209485019401614827565b509695505050505050565b634e487b7160e01b5f52603260045260245ffd5b5f60208284031215614875575f80fd5b5051919050565b6001600160a01b03929092168252602082015260400190565b8181038181111561083a5761083a61473b565b808202811582820484141761083a5761083a61473b565b5f826148d957634e487b7160e01b5f52601260045260245ffd5b500490565b6020808252600e908201526d1253959053125117d05353d5539560921b604082015260600190565b5f805f8060808587031215614919575f80fd5b84518015158114614928575f80fd5b60208601516040870151606090970151919890975090945092505050565b6020808252600c908201526b5a45524f5f4144445245535360a01b604082015260600190565b5f806040838503121561497d575f80fd5b505080516020909101519092909150565b828152604060208201525f82518060408401528060208501606085015e5f606082850101526060601f19601f830116840101915050939250505056fe62f9f791f044a997d2927869f031db85cde39144d6412d7269c2c98c5304326ba2646970667358221220afbe4a35fe6dd8c442ec1cf5844488b393a65ea12b4dbad2ad8aa408885c990264736f6c634300081a0033","linkReferences":{}},"methodIdentifiers":{"BORROW_ADMIN_ROLE()":"6c22e863","DEFAULT_ADMIN_ROLE()":"a217fddf","LEVERAGE_VAULT_ROLE()":"3d34e3e4","LIQUIDATION_ROLE()":"ae0e0125","PAUSER_ROLE()":"e63ab1e9","badDebt()":"bbcac557","badDebtCovered()":"8594487c","borrow(uint256)":"c5ebeaec","borrowCapacity(address)":"b977fc88","borrowFor(address,uint256)":"e9a1183d","coverBadDebt(uint256)":"ecc6d9ff","cumulativeBadDebt()":"d9c9d337","drainUnroutedInterest()":"4a2190a5","getCurrentBorrowRate()":"3f0c4392","getCurrentSupplyRate()":"a874baf4","getRoleAdmin(bytes32)":"248a9ca3","getTotalSupply()":"c4e41b22","getUtilizationRate()":"4a417a53","grantRole(bytes32,address)":"2f2ff15d","hasRole(bytes32,address)":"91d14854","healthFactor(address)":"6ad9f9df","healthFactorUnsafe(address)":"88e94ef6","interestRateBps()":"c84a208b","interestRateModel()":"f3fdb15a","lastGlobalAccrualTime()":"d194bdf7","maxBorrow(address)":"97a9d457","minDebt()":"f17336d7","musd()":"cab666d0","oracle()":"7dc0d1d0","pause()":"8456cb59","paused()":"5c975abb","positions(address)":"55f57510","protocolReserves()":"d681a449","recordBadDebt(address)":"122b3c71","reduceDebt(address,uint256)":"807d3f1d","renounceRole(bytes32,address)":"36568abe","repay(uint256)":"371fd8e6","repayFor(address,uint256)":"23a27622","revokeRole(bytes32,address)":"d547741f","setInterestRate(uint256)":"5f84f302","setInterestRateModel(address)":"8bcd4016","setMinDebt(uint256)":"6234dc21","setSMUSD(address)":"a496b434","setTimelock(address)":"bdacb303","setTreasury(address)":"f0f44260","smusd()":"7be9b154","socializeBadDebt(uint256,address[])":"dade0205","supportsInterface(bytes4)":"01ffc9a7","timelock()":"d33219b4","totalBorrows()":"47bd3718","totalDebt(address)":"1ff517ff","totalInterestPaidToSuppliers()":"9b200ec7","treasury()":"61d027b3","unpause()":"3f4ba83a","unroutedInterest()":"bfe65f4d","vault()":"fbfa77cf","withdrawCollateral(address,uint256)":"350c35e9","withdrawReserves(address,uint256)":"e478795d"},"id":1}