{"abi":[{"type":"constructor","inputs":[{"name":"_vault","type":"address","internalType":"address"},{"name":"_oracle","type":"address","internalType":"address"},{"name":"_musd","type":"address","internalType":"address"},{"name":"_interestRateBps","type":"uint256","internalType":"uint256"},{"name":"_minDebt","type":"uint256","internalType":"uint256"}],"stateMutability":"nonpayable"},{"type":"function","name":"BORROW_ADMIN_ROLE","inputs":[],"outputs":[{"name":"","type":"bytes32","internalType":"bytes32"}],"stateMutability":"view"},{"type":"function","name":"DEFAULT_ADMIN_ROLE","inputs":[],"outputs":[{"name":"","type":"bytes32","internalType":"bytes32"}],"stateMutability":"view"},{"type":"function","name":"LEVERAGE_VAULT_ROLE","inputs":[],"outputs":[{"name":"","type":"bytes32","internalType":"bytes32"}],"stateMutability":"view"},{"type":"function","name":"LIQUIDATION_ROLE","inputs":[],"outputs":[{"name":"","type":"bytes32","internalType":"bytes32"}],"stateMutability":"view"},{"type":"function","name":"PAUSER_ROLE","inputs":[],"outputs":[{"name":"","type":"bytes32","internalType":"bytes32"}],"stateMutability":"view"},{"type":"function","name":"accrueInterest","inputs":[{"name":"user","type":"address","internalType":"address"}],"outputs":[],"stateMutability":"nonpayable"},{"type":"function","name":"borrow","inputs":[{"name":"amount","type":"uint256","internalType":"uint256"}],"outputs":[],"stateMutability":"nonpayable"},{"type":"function","name":"borrowCapacity","inputs":[{"name":"user","type":"address","internalType":"address"}],"outputs":[{"name":"","type":"uint256","internalType":"uint256"}],"stateMutability":"view"},{"type":"function","name":"borrowFor","inputs":[{"name":"user","type":"address","internalType":"address"},{"name":"amount","type":"uint256","internalType":"uint256"}],"outputs":[],"stateMutability":"nonpayable"},{"type":"function","name":"getCurrentBorrowRate","inputs":[],"outputs":[{"name":"","type":"uint256","internalType":"uint256"}],"stateMutability":"view"},{"type":"function","name":"getCurrentSupplyRate","inputs":[],"outputs":[{"name":"","type":"uint256","internalType":"uint256"}],"stateMutability":"view"},{"type":"function","name":"getRoleAdmin","inputs":[{"name":"role","type":"bytes32","internalType":"bytes32"}],"outputs":[{"name":"","type":"bytes32","internalType":"bytes32"}],"stateMutability":"view"},{"type":"function","name":"getTotalSupply","inputs":[],"outputs":[{"name":"","type":"uint256","internalType":"uint256"}],"stateMutability":"view"},{"type":"function","name":"getUtilizationRate","inputs":[],"outputs":[{"name":"","type":"uint256","internalType":"uint256"}],"stateMutability":"view"},{"type":"function","name":"grantRole","inputs":[{"name":"role","type":"bytes32","internalType":"bytes32"},{"name":"account","type":"address","internalType":"address"}],"outputs":[],"stateMutability":"nonpayable"},{"type":"function","name":"hasRole","inputs":[{"name":"role","type":"bytes32","internalType":"bytes32"},{"name":"account","type":"address","internalType":"address"}],"outputs":[{"name":"","type":"bool","internalType":"bool"}],"stateMutability":"view"},{"type":"function","name":"healthFactor","inputs":[{"name":"user","type":"address","internalType":"address"}],"outputs":[{"name":"","type":"uint256","internalType":"uint256"}],"stateMutability":"view"},{"type":"function","name":"healthFactorUnsafe","inputs":[{"name":"user","type":"address","internalType":"address"}],"outputs":[{"name":"","type":"uint256","internalType":"uint256"}],"stateMutability":"view"},{"type":"function","name":"interestRateBps","inputs":[],"outputs":[{"name":"","type":"uint256","internalType":"uint256"}],"stateMutability":"view"},{"type":"function","name":"interestRateModel","inputs":[],"outputs":[{"name":"","type":"address","internalType":"contract IInterestRateModel"}],"stateMutability":"view"},{"type":"function","name":"lastGlobalAccrualTime","inputs":[],"outputs":[{"name":"","type":"uint256","internalType":"uint256"}],"stateMutability":"view"},{"type":"function","name":"maxBorrow","inputs":[{"name":"user","type":"address","internalType":"address"}],"outputs":[{"name":"","type":"uint256","internalType":"uint256"}],"stateMutability":"view"},{"type":"function","name":"minDebt","inputs":[],"outputs":[{"name":"","type":"uint256","internalType":"uint256"}],"stateMutability":"view"},{"type":"function","name":"musd","inputs":[],"outputs":[{"name":"","type":"address","internalType":"contract IMUSDMint"}],"stateMutability":"view"},{"type":"function","name":"oracle","inputs":[],"outputs":[{"name":"","type":"address","internalType":"contract IPriceOracle"}],"stateMutability":"view"},{"type":"function","name":"pause","inputs":[],"outputs":[],"stateMutability":"nonpayable"},{"type":"function","name":"paused","inputs":[],"outputs":[{"name":"","type":"bool","internalType":"bool"}],"stateMutability":"view"},{"type":"function","name":"positions","inputs":[{"name":"","type":"address","internalType":"address"}],"outputs":[{"name":"principal","type":"uint256","internalType":"uint256"},{"name":"accruedInterest","type":"uint256","internalType":"uint256"},{"name":"lastAccrualTime","type":"uint256","internalType":"uint256"}],"stateMutability":"view"},{"type":"function","name":"protocolReserves","inputs":[],"outputs":[{"name":"","type":"uint256","internalType":"uint256"}],"stateMutability":"view"},{"type":"function","name":"reduceDebt","inputs":[{"name":"user","type":"address","internalType":"address"},{"name":"amount","type":"uint256","internalType":"uint256"}],"outputs":[],"stateMutability":"nonpayable"},{"type":"function","name":"renounceRole","inputs":[{"name":"role","type":"bytes32","internalType":"bytes32"},{"name":"callerConfirmation","type":"address","internalType":"address"}],"outputs":[],"stateMutability":"nonpayable"},{"type":"function","name":"repay","inputs":[{"name":"amount","type":"uint256","internalType":"uint256"}],"outputs":[],"stateMutability":"nonpayable"},{"type":"function","name":"repayFor","inputs":[{"name":"user","type":"address","internalType":"address"},{"name":"amount","type":"uint256","internalType":"uint256"}],"outputs":[],"stateMutability":"nonpayable"},{"type":"function","name":"revokeRole","inputs":[{"name":"role","type":"bytes32","internalType":"bytes32"},{"name":"account","type":"address","internalType":"address"}],"outputs":[],"stateMutability":"nonpayable"},{"type":"function","name":"setInterestRate","inputs":[{"name":"_rateBps","type":"uint256","internalType":"uint256"}],"outputs":[],"stateMutability":"nonpayable"},{"type":"function","name":"setInterestRateModel","inputs":[{"name":"_model","type":"address","internalType":"address"}],"outputs":[],"stateMutability":"nonpayable"},{"type":"function","name":"setMinDebt","inputs":[{"name":"_minDebt","type":"uint256","internalType":"uint256"}],"outputs":[],"stateMutability":"nonpayable"},{"type":"function","name":"setSMUSD","inputs":[{"name":"_smusd","type":"address","internalType":"address"}],"outputs":[],"stateMutability":"nonpayable"},{"type":"function","name":"setTreasury","inputs":[{"name":"_treasury","type":"address","internalType":"address"}],"outputs":[],"stateMutability":"nonpayable"},{"type":"function","name":"smusd","inputs":[],"outputs":[{"name":"","type":"address","internalType":"contract ISMUSD"}],"stateMutability":"view"},{"type":"function","name":"supportsInterface","inputs":[{"name":"interfaceId","type":"bytes4","internalType":"bytes4"}],"outputs":[{"name":"","type":"bool","internalType":"bool"}],"stateMutability":"view"},{"type":"function","name":"totalBorrows","inputs":[],"outputs":[{"name":"","type":"uint256","internalType":"uint256"}],"stateMutability":"view"},{"type":"function","name":"totalDebt","inputs":[{"name":"user","type":"address","internalType":"address"}],"outputs":[{"name":"","type":"uint256","internalType":"uint256"}],"stateMutability":"view"},{"type":"function","name":"totalInterestPaidToSuppliers","inputs":[],"outputs":[{"name":"","type":"uint256","internalType":"uint256"}],"stateMutability":"view"},{"type":"function","name":"treasury","inputs":[],"outputs":[{"name":"","type":"address","internalType":"contract ITreasury"}],"stateMutability":"view"},{"type":"function","name":"unpause","inputs":[],"outputs":[],"stateMutability":"nonpayable"},{"type":"function","name":"vault","inputs":[],"outputs":[{"name":"","type":"address","internalType":"contract ICollateralVault"}],"stateMutability":"view"},{"type":"function","name":"withdrawCollateral","inputs":[{"name":"token","type":"address","internalType":"address"},{"name":"amount","type":"uint256","internalType":"uint256"}],"outputs":[],"stateMutability":"nonpayable"},{"type":"function","name":"withdrawReserves","inputs":[{"name":"to","type":"address","internalType":"address"},{"name":"amount","type":"uint256","internalType":"uint256"}],"outputs":[],"stateMutability":"nonpayable"},{"type":"event","name":"Borrowed","inputs":[{"name":"user","type":"address","indexed":true,"internalType":"address"},{"name":"amount","type":"uint256","indexed":false,"internalType":"uint256"},{"name":"totalDebt","type":"uint256","indexed":false,"internalType":"uint256"}],"anonymous":false},{"type":"event","name":"CollateralWithdrawn","inputs":[{"name":"user","type":"address","indexed":true,"internalType":"address"},{"name":"token","type":"address","indexed":true,"internalType":"address"},{"name":"amount","type":"uint256","indexed":false,"internalType":"uint256"}],"anonymous":false},{"type":"event","name":"DebtAdjusted","inputs":[{"name":"user","type":"address","indexed":true,"internalType":"address"},{"name":"newDebt","type":"uint256","indexed":false,"internalType":"uint256"},{"name":"reason","type":"string","indexed":false,"internalType":"string"}],"anonymous":false},{"type":"event","name":"GlobalInterestAccrued","inputs":[{"name":"interest","type":"uint256","indexed":false,"internalType":"uint256"},{"name":"newTotalBorrows","type":"uint256","indexed":false,"internalType":"uint256"},{"name":"utilizationBps","type":"uint256","indexed":false,"internalType":"uint256"}],"anonymous":false},{"type":"event","name":"InterestAccrued","inputs":[{"name":"user","type":"address","indexed":true,"internalType":"address"},{"name":"interest","type":"uint256","indexed":false,"internalType":"uint256"},{"name":"totalDebt","type":"uint256","indexed":false,"internalType":"uint256"}],"anonymous":false},{"type":"event","name":"InterestRateModelUpdated","inputs":[{"name":"oldModel","type":"address","indexed":true,"internalType":"address"},{"name":"newModel","type":"address","indexed":true,"internalType":"address"}],"anonymous":false},{"type":"event","name":"InterestRateUpdated","inputs":[{"name":"oldRate","type":"uint256","indexed":false,"internalType":"uint256"},{"name":"newRate","type":"uint256","indexed":false,"internalType":"uint256"}],"anonymous":false},{"type":"event","name":"InterestRoutedToSuppliers","inputs":[{"name":"supplierAmount","type":"uint256","indexed":false,"internalType":"uint256"},{"name":"reserveAmount","type":"uint256","indexed":false,"internalType":"uint256"}],"anonymous":false},{"type":"event","name":"InterestRoutingFailed","inputs":[{"name":"supplierAmount","type":"uint256","indexed":false,"internalType":"uint256"},{"name":"reason","type":"bytes","indexed":false,"internalType":"bytes"}],"anonymous":false},{"type":"event","name":"MinDebtUpdated","inputs":[{"name":"oldMinDebt","type":"uint256","indexed":false,"internalType":"uint256"},{"name":"newMinDebt","type":"uint256","indexed":false,"internalType":"uint256"}],"anonymous":false},{"type":"event","name":"Paused","inputs":[{"name":"account","type":"address","indexed":false,"internalType":"address"}],"anonymous":false},{"type":"event","name":"Repaid","inputs":[{"name":"user","type":"address","indexed":true,"internalType":"address"},{"name":"amount","type":"uint256","indexed":false,"internalType":"uint256"},{"name":"remaining","type":"uint256","indexed":false,"internalType":"uint256"}],"anonymous":false},{"type":"event","name":"ReservesMintFailed","inputs":[{"name":"to","type":"address","indexed":true,"internalType":"address"},{"name":"amount","type":"uint256","indexed":false,"internalType":"uint256"}],"anonymous":false},{"type":"event","name":"ReservesWithdrawn","inputs":[{"name":"to","type":"address","indexed":true,"internalType":"address"},{"name":"amount","type":"uint256","indexed":false,"internalType":"uint256"}],"anonymous":false},{"type":"event","name":"RoleAdminChanged","inputs":[{"name":"role","type":"bytes32","indexed":true,"internalType":"bytes32"},{"name":"previousAdminRole","type":"bytes32","indexed":true,"internalType":"bytes32"},{"name":"newAdminRole","type":"bytes32","indexed":true,"internalType":"bytes32"}],"anonymous":false},{"type":"event","name":"RoleGranted","inputs":[{"name":"role","type":"bytes32","indexed":true,"internalType":"bytes32"},{"name":"account","type":"address","indexed":true,"internalType":"address"},{"name":"sender","type":"address","indexed":true,"internalType":"address"}],"anonymous":false},{"type":"event","name":"RoleRevoked","inputs":[{"name":"role","type":"bytes32","indexed":true,"internalType":"bytes32"},{"name":"account","type":"address","indexed":true,"internalType":"address"},{"name":"sender","type":"address","indexed":true,"internalType":"address"}],"anonymous":false},{"type":"event","name":"SMUSDUpdated","inputs":[{"name":"oldSMUSD","type":"address","indexed":true,"internalType":"address"},{"name":"newSMUSD","type":"address","indexed":true,"internalType":"address"}],"anonymous":false},{"type":"event","name":"TreasuryUpdated","inputs":[{"name":"oldTreasury","type":"address","indexed":true,"internalType":"address"},{"name":"newTreasury","type":"address","indexed":true,"internalType":"address"}],"anonymous":false},{"type":"event","name":"Unpaused","inputs":[{"name":"account","type":"address","indexed":false,"internalType":"address"}],"anonymous":false},{"type":"error","name":"AccessControlBadConfirmation","inputs":[]},{"type":"error","name":"AccessControlUnauthorizedAccount","inputs":[{"name":"account","type":"address","internalType":"address"},{"name":"neededRole","type":"bytes32","internalType":"bytes32"}]},{"type":"error","name":"EnforcedPause","inputs":[]},{"type":"error","name":"ExpectedPause","inputs":[]},{"type":"error","name":"ReentrancyGuardReentrantCall","inputs":[]}],"bytecode":{"object":"0x60e060405234801561000f575f80fd5b50604051613bc9380380613bc983398101604081905261002e91610234565b600180556001600160a01b03851661007d5760405162461bcd60e51b815260206004820152600d60248201526c1253959053125117d590555315609a1b60448201526064015b60405180910390fd5b6001600160a01b0384166100c45760405162461bcd60e51b815260206004820152600e60248201526d494e56414c49445f4f5241434c4560901b6044820152606401610074565b6001600160a01b0383166101095760405162461bcd60e51b815260206004820152600c60248201526b1253959053125117d35554d160a21b6044820152606401610074565b6001600160a01b0380861660805284811660a052831660c0526009829055600a8190554260075561013a5f33610170565b506101657f292f74ea0b8d002236e65cd2cb76fcf83b8e4d25d2ac18517380a822699e9d0133610170565b505050505050610286565b5f828152602081815260408083206001600160a01b038516845290915281205460ff16610210575f838152602081815260408083206001600160a01b03861684529091529020805460ff191660011790556101c83390565b6001600160a01b0316826001600160a01b0316847f2f8788117e7eff1d82e926ec794901d17c78024a50270940304540a733656f0d60405160405180910390a4506001610213565b505f5b92915050565b80516001600160a01b038116811461022f575f80fd5b919050565b5f805f805f60a08688031215610248575f80fd5b61025186610219565b945061025f60208701610219565b935061026d60408701610219565b6060870151608090970151959894975095949392505050565b60805160a05160c0516138716103585f395f81816105d701528181610aa1015281816111ad01528181611a9101528181611bf001528181611ef70152818161307501528181613160015261327a01525f81816104ad01528181610da9015281816125fd01528181612a470152612d4401525f81816106a401528181610bfd01528181610cd401528181610f1d015281816123da0152818161246b0152818161253601528181612824015281816128b50152818161298001528181612b2001528181612bb10152612c7d01526138715ff3fe608060405234801561000f575f80fd5b50600436106102b1575f3560e01c806388e94ef61161017b578063c5ebeaec116100e4578063e478795d1161009e578063f0f4426011610079578063f0f442601461066b578063f17336d71461067e578063f3fdb15a14610687578063fbfa77cf1461069f575f80fd5b8063e478795d1461061e578063e63ab1e914610631578063e9a1183d14610658575f80fd5b8063c5ebeaec146105b6578063c84a208b146105c9578063cab666d0146105d2578063d194bdf7146105f9578063d547741f14610602578063d681a44914610615575f80fd5b8063a217fddf11610135578063a217fddf14610552578063a496b43414610559578063a874baf41461056c578063ae0e012514610574578063b977fc881461059b578063c4e41b22146105ae575f80fd5b806388e94ef6146104ea5780638bcd4016146104fd5780639198e5151461051057806391d148541461052357806397a9d457146105365780639b200ec714610549575f80fd5b80634a417a531161021d5780636ad9f9df116101d75780636ad9f9df1461046e5780636c22e863146104815780637be9b154146104955780637dc0d1d0146104a8578063807d3f1d146104cf5780638456cb59146104e2575f80fd5b80634a417a53146103c157806355f57510146103c95780635c975abb146104125780635f84f3021461041d57806361d027b3146104305780636234dc211461045b575f80fd5b806336568abe1161026e57806336568abe1461035b578063371fd8e61461036e5780633d34e3e4146103815780633f0c4392146103a85780633f4ba83a146103b057806347bd3718146103b8575f80fd5b806301ffc9a7146102b55780631ff517ff146102dd57806323a27622146102fe578063248a9ca3146103135780632f2ff15d14610335578063350c35e914610348575b5f80fd5b6102c86102c336600461349e565b6106c6565b60405190151581526020015b60405180910390f35b6102f06102eb3660046134e0565b6106fc565b6040519081526020016102d4565b61031161030c3660046134fb565b610867565b005b6102f0610321366004613525565b5f9081526020819052604090206001015490565b61031161034336600461353c565b610b64565b6103116103563660046134fb565b610b8e565b61031161036936600461353c565b610fc1565b61031161037c366004613525565b610ff4565b6102f07f62f9f791f044a997d2927869f031db85cde39144d6412d7269c2c98c5304326b81565b6102f061126e565b61031161127c565b6102f060055481565b6102f061128e565b6103f76103d73660046134e0565b600b6020525f908152604090208054600182015460029092015490919083565b604080519384526020840192909252908201526060016102d4565b60025460ff166102c8565b61031161042b366004613525565b611372565b600454610443906001600160a01b031681565b6040516001600160a01b0390911681526020016102d4565b610311610469366004613525565b611411565b6102f061047c3660046134e0565b6114f7565b6102f05f8051602061381c83398151915281565b600354610443906001600160a01b031681565b6104437f000000000000000000000000000000000000000000000000000000000000000081565b6103116104dd3660046134fb565b61154f565b6103116116d8565b6102f06104f83660046134e0565b61170a565b61031161050b3660046134e0565b611731565b61031161051e3660046134e0565b6117c8565b6102c861053136600461353c565b6117e2565b6102f06105443660046134e0565b61180a565b6102f060085481565b6102f05f81565b6103116105673660046134e0565b61183a565b6102f06118c9565b6102f07f78dee7707521b7c9b92b1070cc1d51daeefd47d09898061ee53bff95426cbe5481565b6102f06105a93660046134e0565b61192b565b6102f0611935565b6103116105c4366004613525565b61193e565b6102f060095481565b6104437f000000000000000000000000000000000000000000000000000000000000000081565b6102f060075481565b61031161061036600461353c565b611b2a565b6102f060065481565b61031161062c3660046134fb565b611b4e565b6102f07f65d7a28e3265b37a6474929f336521b332c1681b933f6cb9f3376673440d862a81565b6103116106663660046134fb565b611d2c565b6103116106793660046134e0565b611f90565b6102f0600a5481565b6002546104439061010090046001600160a01b031681565b6104437f000000000000000000000000000000000000000000000000000000000000000081565b5f6001600160e01b03198216637965db0b60e01b14806106f657506301ffc9a760e01b6001600160e01b03198316145b92915050565b6001600160a01b0381165f908152600b6020526040812060028101548290610724904261357e565b90505f8260010154835f015461073a9190613591565b6002549091505f9061010090046001600160a01b03161561081d576002546005545f9161010090046001600160a01b03169063724dfc92908061077b61201f565b6040516001600160e01b031960e086901b16815260048101939093526024830191909152604482015260648101879052608401602060405180830381865afa1580156107c9573d5f803e3d5ffd5b505050506040513d601f19601f820116820180604052508101906107ed91906135a4565b90505f600554116107fe575f610815565b60055461080b84836135bb565b61081591906135d2565b915050610853565b61082d6301e133806127106135bb565b836009548461083c91906135bb565b61084691906135bb565b61085091906135d2565b90505b61085d8183613591565b9695505050505050565b7f62f9f791f044a997d2927869f031db85cde39144d6412d7269c2c98c5304326b610891816120da565b6108996120e4565b6108a161210e565b5f82116108c95760405162461bcd60e51b81526004016108c0906135f1565b60405180910390fd5b6001600160a01b03831661090e5760405162461bcd60e51b815260206004820152600c60248201526b24a72b20a624a22faaa9a2a960a11b60448201526064016108c0565b61091783612134565b6001600160a01b0383165f908152600b60205260408120600181015481549192916109429190613591565b90505f811161097d5760405162461bcd60e51b81526020600482015260076024820152661393d7d111509560ca1b60448201526064016108c0565b5f81851161098b578461098d565b815b90505f61099a828461357e565b905080156109ef57600a548110156109ef5760405162461bcd60e51b8152602060048201526018602482015277149153505253925391d7d0915313d5d7d3525397d111509560421b60448201526064016108c0565b83600101548211610a185781846001015f828254610a0d919061357e565b90915550610a4d9050565b5f846001015483610a29919061357e565b90505f856001018190555080855f015f828254610a46919061357e565b9091555050505b5f82118015610a5e57508160055410155b15610a7f578160055f828254610a74919061357e565b90915550610a8a9050565b8115610a8a575f6005555b604051632770a7eb60e21b81526001600160a01b037f00000000000000000000000000000000000000000000000000000000000000001690639dc29fac90610ad89033908690600401613619565b5f604051808303815f87803b158015610aef575f80fd5b505af1158015610b01573d5f803e3d5ffd5b50505050866001600160a01b03167f1b8cd61ed43bec7c6bdad3a18ffee613f99c853d16c50678d248d879e1b4343883610b3a8a6106fc565b6040805192835260208301919091520160405180910390a250505050610b5f60018055565b505050565b5f82815260208190526040902060010154610b7e816120da565b610b888383612347565b50505050565b610b966120e4565b610b9e61210e565b5f8111610bbd5760405162461bcd60e51b81526004016108c0906135f1565b610bc633612134565b5f610bd0336106fc565b1115610ef1576040516347b00fb360e11b81523360048201526001600160a01b0383811660248301525f917f000000000000000000000000000000000000000000000000000000000000000090911690638f601f6690604401602060405180830381865afa158015610c44573d5f803e3d5ffd5b505050506040513d601f19601f82011682018060405250810190610c6891906135a4565b905081811015610cb15760405162461bcd60e51b8152602060048201526014602482015273125394d551919250d251539517d1115413d4d25560621b60448201526064016108c0565b60405163e48a5f7b60e01b81526001600160a01b0384811660048301525f9182917f0000000000000000000000000000000000000000000000000000000000000000169063e48a5f7b90602401608060405180830381865afa158015610d19573d5f803e3d5ffd5b505050506040513d601f19601f82011682018060405250810190610d3d9190613646565b5092505091508180610d4e57505f81115b610d905760405162461bcd60e51b81526020600482015260136024820152721513d2d15397d393d517d4d5541413d4951151606a1b60448201526064016108c0565b604051632dfe1d9160e21b81525f906001600160a01b037f0000000000000000000000000000000000000000000000000000000000000000169063b7f8764490610de09089908990600401613619565b602060405180830381865afa158015610dfb573d5f803e3d5ffd5b505050506040513d601f19601f82011682018060405250810190610e1f91906135a4565b90505f612710610e2f84846135bb565b610e3991906135d2565b90505f610e45336123d6565b90505f828211610e55575f610e5f565b610e5f838361357e565b90505f610e6b336106fc565b90505f808211610e7c575f19610e93565b81610e89846127106135bb565b610e9391906135d2565b9050612710811015610ee75760405162461bcd60e51b815260206004820152601a60248201527f5749544844524157414c5f574f554c445f4c495155494441544500000000000060448201526064016108c0565b5050505050505050505b604051631a4ca37b60e21b81526001600160a01b038381166004830152602482018390523360448301527f000000000000000000000000000000000000000000000000000000000000000016906369328dec906064015f604051808303815f87803b158015610f5e575f80fd5b505af1158015610f70573d5f803e3d5ffd5b50506040518381526001600160a01b03851692503391507f45892a46e6cef329bb642da6d69846d324db43d19008edc141ed82382eda1bee9060200160405180910390a3610fbd60018055565b5050565b6001600160a01b0381163314610fea5760405163334bd91960e11b815260040160405180910390fd5b610b5f82826126da565b610ffc6120e4565b61100461210e565b5f81116110235760405162461bcd60e51b81526004016108c0906135f1565b61102c33612134565b335f908152600b602052604081206001810154815491929161104e9190613591565b90505f81116110895760405162461bcd60e51b81526020600482015260076024820152661393d7d111509560ca1b60448201526064016108c0565b5f8184116110975783611099565b815b90505f6110a6828461357e565b905080156110fb57600a548110156110fb5760405162461bcd60e51b8152602060048201526018602482015277149153505253925391d7d0915313d5d7d3525397d111509560421b60448201526064016108c0565b836001015482116111245781846001015f828254611119919061357e565b909155506111599050565b5f846001015483611135919061357e565b90505f856001018190555080855f015f828254611152919061357e565b9091555050505b5f8211801561116a57508160055410155b1561118b578160055f828254611180919061357e565b909155506111969050565b8115611196575f6005555b604051632770a7eb60e21b81526001600160a01b037f00000000000000000000000000000000000000000000000000000000000000001690639dc29fac906111e49033908690600401613619565b5f604051808303815f87803b1580156111fb575f80fd5b505af115801561120d573d5f803e3d5ffd5b50505050336001600160a01b03167f1b8cd61ed43bec7c6bdad3a18ffee613f99c853d16c50678d248d879e1b4343883611246336106fc565b6040805192835260208301919091520160405180910390a25050505061126b60018055565b50565b5f611277612743565b905090565b5f611286816120da565b61126b612791565b6002545f9061010090046001600160a01b03161561133857600260019054906101000a90046001600160a01b03166001600160a01b031663ec2de40c6005546112d561201f565b6040516001600160e01b031960e085901b16815260048101929092526024820152604401602060405180830381865afa158015611314573d5f803e3d5ffd5b505050506040513d601f19601f8201168201806040525081019061127791906135a4565b5f61134161201f565b9050805f03611351575f91505090565b8061271060055461136291906135bb565b61136c91906135d2565b91505090565b5f8051602061381c833981519152611389816120da565b6113888211156113cb5760405162461bcd60e51b815260206004820152600d60248201526c0a482a88abea89e9ebe90928e9609b1b60448201526064016108c0565b600980549083905560408051828152602081018590527f41e376fd99913dea7fda140f5c0bd997515b1a181acc58737320322548ec6e72910160405180910390a1505050565b5f8051602061381c833981519152611428816120da565b5f82116114675760405162461bcd60e51b815260206004820152600d60248201526c4d494e5f444542545f5a45524f60981b60448201526064016108c0565b69d3c21bcecceda10000008211156114b55760405162461bcd60e51b815260206004820152601160248201527009a929cbe888a84a8bea89e9ebe90928e9607b1b60448201526064016108c0565b600a5460408051918252602082018490527f7c4eb8004e5bfd89a239033e6c38ca145db0ddd5b523870d9c6a1de14ac5d37f910160405180910390a150600a55565b5f80611502836106fc565b9050805f0361151457505f1992915050565b5f61151e846123d6565b9050805f0361153057505f9392505050565b8161153d826127106135bb565b61154791906135d2565b949350505050565b6115576120e4565b7f78dee7707521b7c9b92b1070cc1d51daeefd47d09898061ee53bff95426cbe54611581816120da565b61158a83612134565b6001600160a01b0383165f908152600b60205260408120600181015481549192916115b59190613591565b90505f8185116115c557846115c7565b815b9050826001015481116115f25780836001015f8282546115e7919061357e565b909155506116279050565b5f836001015482611603919061357e565b90505f846001018190555080845f015f828254611620919061357e565b9091555050505b5f8111801561163857508060055410155b15611659578060055f82825461164e919061357e565b909155506116649050565b8015611664575f6005555b856001600160a01b03167ff073ee549cff52c89736798db7e065360a0f6079de0d91acabb22b8cd5100591611698886106fc565b6040805191825260208201819052600b908201526a2624a8aaa4a220aa24a7a760a91b606082015260800160405180910390a250505050610fbd60018055565b7f65d7a28e3265b37a6474929f336521b332c1681b933f6cb9f3376673440d862a611702816120da565b61126b6127e3565b5f80611715836106fc565b9050805f0361172757505f1992915050565b5f61151e84612820565b5f8051602061381c833981519152611748816120da565b6001600160a01b03821661176e5760405162461bcd60e51b81526004016108c090613680565b600280546001600160a01b03848116610100818102610100600160a81b031985161790945560405193909204169182907fdace1576ba731b4c76870b86217414c265c1ae95c55027d50dc19dab5feb9919905f90a3505050565b6117d06120e4565b6117d981612134565b61126b60018055565b5f918252602082815260408084206001600160a01b0393909316845291905290205460ff1690565b5f8061181583612b1c565b90505f611821846106fc565b9050808211611830575f611547565b611547818361357e565b5f8051602061381c833981519152611851816120da565b6001600160a01b0382166118775760405162461bcd60e51b81526004016108c090613680565b600380546001600160a01b038481166001600160a01b0319831681179093556040519116919082907ffe654e270bae2933f0a40f2c174979f717954d0fc789a6b957087fb0f85d9037905f90a3505050565b6002545f9061010090046001600160a01b03161561191057600260019054906101000a90046001600160a01b03166001600160a01b031663257d9ef56005546112d561201f565b600a600954600961192191906135bb565b61127791906135d2565b5f6106f682612b1c565b5f61127761201f565b6119466120e4565b61194e61210e565b5f811161196d5760405162461bcd60e51b81526004016108c0906135f1565b61197633612134565b335f908152600b6020526040812060018101548154919291849161199991613591565b6119a39190613591565b9050600a548110156119e85760405162461bcd60e51b815260206004820152600e60248201526d10915313d5d7d3525397d111509560921b60448201526064016108c0565b82825f015f8282546119fa9190613591565b925050819055508260055f828254611a129190613591565b909155505f9050611a2233612b1c565b90505f611a2e336106fc565b905080821015611a7a5760405162461bcd60e51b8152602060048201526017602482015276455843454544535f424f52524f575f434150414349545960481b60448201526064016108c0565b6040516340c10f1960e01b81526001600160a01b037f000000000000000000000000000000000000000000000000000000000000000016906340c10f1990611ac89033908990600401613619565b5f604051808303815f87803b158015611adf575f80fd5b505af1158015611af1573d5f803e3d5ffd5b50505050336001600160a01b03167feae9cfbc77fdd40ca899f36b608256063b2bc9d8178b0220f7ad513e178d673086611246336106fc565b5f82815260208190526040902060010154611b44816120da565b610b8883836126da565b5f611b58816120da565b600654821115611b9d5760405162461bcd60e51b815260206004820152601060248201526f455843454544535f524553455256455360801b60448201526064016108c0565b6001600160a01b038316611bc35760405162461bcd60e51b81526004016108c090613680565b8160065f828254611bd4919061357e565b90915550506040516340c10f1960e01b81526001600160a01b037f000000000000000000000000000000000000000000000000000000000000000016906340c10f1990611c279086908690600401613619565b5f604051808303815f87803b158015611c3e575f80fd5b505af1925050508015611c4f575060015b611ce4578160065f828254611c649190613591565b90915550506040518281526001600160a01b038416907f6102aab6acabb35b6fb064b6231fa7bc272fce9155f6830295fd0ff6925557a39060200160405180910390a260405162461bcd60e51b815260206004820152601260248201527114d55414131657d0d05417d4915050d2115160721b60448201526064016108c0565b826001600160a01b03167fc08dc172be702645aed16b77bdd6b526b8be4dab30d20b4caf5285fd59712fe983604051611d1f91815260200190565b60405180910390a2505050565b7f62f9f791f044a997d2927869f031db85cde39144d6412d7269c2c98c5304326b611d56816120da565b611d5e6120e4565b611d6661210e565b5f8211611d855760405162461bcd60e51b81526004016108c0906135f1565b6001600160a01b038316611dca5760405162461bcd60e51b815260206004820152600c60248201526b24a72b20a624a22faaa9a2a960a11b60448201526064016108c0565b611dd383612134565b6001600160a01b0383165f908152600b60205260408120600181015481549192918591611dff91613591565b611e099190613591565b9050600a54811015611e4e5760405162461bcd60e51b815260206004820152600e60248201526d10915313d5d7d3525397d111509560921b60448201526064016108c0565b83825f015f828254611e609190613591565b925050819055508360055f828254611e789190613591565b909155505f9050611e8886612b1c565b90505f611e94876106fc565b905080821015611ee05760405162461bcd60e51b8152602060048201526017602482015276455843454544535f424f52524f575f434150414349545960481b60448201526064016108c0565b6040516340c10f1960e01b81526001600160a01b037f000000000000000000000000000000000000000000000000000000000000000016906340c10f1990611f2e9033908a90600401613619565b5f604051808303815f87803b158015611f45575f80fd5b505af1158015611f57573d5f803e3d5ffd5b50505050866001600160a01b03167feae9cfbc77fdd40ca899f36b608256063b2bc9d8178b0220f7ad513e178d673087610b3a8a6106fc565b5f8051602061381c833981519152611fa7816120da565b6001600160a01b038216611fcd5760405162461bcd60e51b81526004016108c090613680565b600480546001600160a01b038481166001600160a01b0319831681179093556040519116919082907f4ab5be82436d353e61ca18726e984e561f5c1cc7c6d38b29d2553c790434705a905f90a3505050565b6004545f906001600160a01b0316156120b65760048054604080516306a61f7560e51b815290516001600160a01b039092169263d4c3eea09282820192602092908290030181865afa925050508015612095575060408051601f3d908101601f19168201909252612092918101906135a4565b60015b6120a7576005546112779060026135bb565b61136c8164e8d4a510006135bb565b5f600554116120cc5750670de0b6b3a764000090565b6005546112779060026135bb565b61126b8133612e1a565b60026001540361210757604051633ee5aeb560e01b815260040160405180910390fd5b6002600155565b60025460ff16156121325760405163d93c066560e01b815260040160405180910390fd5b565b61213c612e45565b6001600160a01b0381165f908152600b60205260409020805415801561216457506001810154155b15612173574260029091015550565b5f816002015442612184919061357e565b9050805f0361219257505050565b5f808360010154845f01546121a79190613591565b90505f6005541180156121b957505f81115b156122c45760025461010090046001600160a01b03161561228e576002546005545f9161010090046001600160a01b03169063724dfc9290806121fa61201f565b6040516001600160e01b031960e086901b16815260048101939093526024830191909152604482015260648101879052608401602060405180830381865afa158015612248573d5f803e3d5ffd5b505050506040513d601f19601f8201168201806040525081019061226c91906135a4565b60055490915061227c83836135bb565b61228691906135d2565b9250506122c4565b61229e6301e133806127106135bb565b83600954836122ad91906135bb565b6122b791906135bb565b6122c191906135d2565b91505b81846001015f8282546122d79190613591565b9091555050426002850155811561234057846001600160a01b03167f4557e05caeefc19fe1b4badbbd2996f86791aa6e830e224dc79c20725c38b9c1838660010154875f01546123279190613591565b6040805192835260208301919091520160405180910390a25b5050505050565b5f61235283836117e2565b6123cf575f838152602081815260408083206001600160a01b03861684529091529020805460ff191660011790556123873390565b6001600160a01b0316826001600160a01b0316847f2f8788117e7eff1d82e926ec794901d17c78024a50270940304540a733656f0d60405160405180910390a45060016106f6565b505f6106f6565b5f807f00000000000000000000000000000000000000000000000000000000000000006001600160a01b031663d3c7c2c76040518163ffffffff1660e01b81526004015f60405180830381865afa158015612433573d5f803e3d5ffd5b505050506040513d5f823e601f3d908101601f1916820160405261245a91908101906136c5565b90505f805b82518110156126d2575f7f00000000000000000000000000000000000000000000000000000000000000006001600160a01b0316638f601f66878685815181106124ab576124ab613790565b60200260200101516040518363ffffffff1660e01b81526004016124e59291906001600160a01b0392831681529116602082015260400190565b602060405180830381865afa158015612500573d5f803e3d5ffd5b505050506040513d601f19601f8201168201806040525081019061252491906135a4565b9050805f0361253357506126ca565b5f7f00000000000000000000000000000000000000000000000000000000000000006001600160a01b031663e48a5f7b86858151811061257557612575613790565b60200260200101516040518263ffffffff1660e01b81526004016125a891906001600160a01b0391909116815260200190565b608060405180830381865afa1580156125c3573d5f803e3d5ffd5b505050506040513d601f19601f820116820180604052508101906125e79190613646565b5092505050805f036125fa5750506126ca565b5f7f00000000000000000000000000000000000000000000000000000000000000006001600160a01b031663b7f8764487868151811061263c5761263c613790565b6020026020010151856040518363ffffffff1660e01b8152600401612662929190613619565b602060405180830381865afa15801561267d573d5f803e3d5ffd5b505050506040513d601f19601f820116820180604052508101906126a191906135a4565b90506127106126b083836135bb565b6126ba91906135d2565b6126c49086613591565b94505050505b60010161245f565b509392505050565b5f6126e583836117e2565b156123cf575f838152602081815260408083206001600160a01b0386168085529252808320805460ff1916905551339286917ff6391f5c32d9c69d2a47ea670b442974b53935d1edc7fd64eb21e047a839171b9190a45060016106f6565b6002545f9061010090046001600160a01b03161561278a57600260019054906101000a90046001600160a01b03166001600160a01b0316633ca246246005546112d561201f565b5060095490565b61279961347b565b6002805460ff191690557f5db9ee0a495bf2e6ff9c91a7834c1ba4fdd244a5e8aa4e537bd38aeae4b073aa335b6040516001600160a01b03909116815260200160405180910390a1565b6127eb61210e565b6002805460ff191660011790557f62e78cea01bee320cd4e420270b5ea74000d11b0c9f74754ebdbfc544b05a2586127c63390565b5f807f00000000000000000000000000000000000000000000000000000000000000006001600160a01b031663d3c7c2c76040518163ffffffff1660e01b81526004015f60405180830381865afa15801561287d573d5f803e3d5ffd5b505050506040513d5f823e601f3d908101601f191682016040526128a491908101906136c5565b90505f805b82518110156126d2575f7f00000000000000000000000000000000000000000000000000000000000000006001600160a01b0316638f601f66878685815181106128f5576128f5613790565b60200260200101516040518363ffffffff1660e01b815260040161292f9291906001600160a01b0392831681529116602082015260400190565b602060405180830381865afa15801561294a573d5f803e3d5ffd5b505050506040513d601f19601f8201168201806040525081019061296e91906135a4565b9050805f0361297d5750612b14565b5f7f00000000000000000000000000000000000000000000000000000000000000006001600160a01b031663e48a5f7b8685815181106129bf576129bf613790565b60200260200101516040518263ffffffff1660e01b81526004016129f291906001600160a01b0391909116815260200190565b608060405180830381865afa158015612a0d573d5f803e3d5ffd5b505050506040513d601f19601f82011682018060405250810190612a319190613646565b5092505050805f03612a44575050612b14565b5f7f00000000000000000000000000000000000000000000000000000000000000006001600160a01b0316637206c22b878681518110612a8657612a86613790565b6020026020010151856040518363ffffffff1660e01b8152600401612aac929190613619565b602060405180830381865afa158015612ac7573d5f803e3d5ffd5b505050506040513d601f19601f82011682018060405250810190612aeb91906135a4565b9050612710612afa83836135bb565b612b0491906135d2565b612b0e9086613591565b94505050505b6001016128a9565b5f807f00000000000000000000000000000000000000000000000000000000000000006001600160a01b031663d3c7c2c76040518163ffffffff1660e01b81526004015f60405180830381865afa158015612b79573d5f803e3d5ffd5b505050506040513d5f823e601f3d908101601f19168201604052612ba091908101906136c5565b90505f805b82518110156126d2575f7f00000000000000000000000000000000000000000000000000000000000000006001600160a01b0316638f601f6687868581518110612bf157612bf1613790565b60200260200101516040518363ffffffff1660e01b8152600401612c2b9291906001600160a01b0392831681529116602082015260400190565b602060405180830381865afa158015612c46573d5f803e3d5ffd5b505050506040513d601f19601f82011682018060405250810190612c6a91906135a4565b9050805f03612c795750612e12565b5f807f00000000000000000000000000000000000000000000000000000000000000006001600160a01b031663e48a5f7b878681518110612cbc57612cbc613790565b60200260200101516040518263ffffffff1660e01b8152600401612cef91906001600160a01b0391909116815260200190565b608060405180830381865afa158015612d0a573d5f803e3d5ffd5b505050506040513d601f19601f82011682018060405250810190612d2e9190613646565b50509150915081612d4157505050612e12565b5f7f00000000000000000000000000000000000000000000000000000000000000006001600160a01b031663b7f87644888781518110612d8357612d83613790565b6020026020010151866040518363ffffffff1660e01b8152600401612da9929190613619565b602060405180830381865afa158015612dc4573d5f803e3d5ffd5b505050506040513d601f19601f82011682018060405250810190612de891906135a4565b9050612710612df783836135bb565b612e0191906135d2565b612e0b9087613591565b9550505050505b600101612ba5565b612e2482826117e2565b610fbd57808260405163e2517d3f60e01b81526004016108c0929190613619565b5f60075442612e54919061357e565b9050801580612e635750600554155b15612e6f575042600755565b5f612e7861201f565b6002549091505f9061010090046001600160a01b031615612f2257600254600554604051633926fe4960e11b815260048101829052602481019190915260448101849052606481018590526101009091046001600160a01b03169063724dfc9290608401602060405180830381865afa158015612ef7573d5f803e3d5ffd5b505050506040513d601f19601f82011682018060405250810190612f1b91906135a4565b9050612f5a565b612f326301e133806127106135bb565b83600954600554612f4391906135bb565b612f4d91906135bb565b612f5791906135d2565b90505b5f600a600554612f6a91906135d2565b905080821115612f78578091505b8115613471576002545f90819061010090046001600160a01b03161561301057600254604051632354027960e21b8152600481018690526101009091046001600160a01b031690638d5009e4906024016040805180830381865afa158015612fe2573d5f803e3d5ffd5b505050506040513d601f19601f8201168201806040525081019061300691906137a4565b909250905061302a565b61301b600a856135d2565b9050613027818561357e565b91505b8060065f82825461303b9190613591565b9091555050811580159061305957506003546001600160a01b031615155b1561335f576040516340c10f1960e01b81526001600160a01b037f000000000000000000000000000000000000000000000000000000000000000016906340c10f19906130ac9030908690600401613619565b5f604051808303815f87803b1580156130c3575f80fd5b505af19250505080156130d4575060015b613146573d808015613101576040519150601f19603f3d011682016040523d82523d5f602084013e613106565b606091505b507fd95507bf24933d495dfb2eb73a1a47f54b9cb559cf4d3e994e5591ee5a0dae6a83826040516131389291906137c6565b60405180910390a15061335f565b60035460405163095ea7b360e01b81526001600160a01b037f000000000000000000000000000000000000000000000000000000000000000081169263095ea7b39261319b9291909116908690600401613619565b6020604051808303815f875af11580156131b7573d5f803e3d5ffd5b505050506040513d601f19601f820116820180604052508101906131db9190613802565b506003546040516323411fb560e11b8152600481018490526001600160a01b03909116906346823f6a906024015f604051808303815f87803b15801561321f575f80fd5b505af1925050508015613230575060015b61330f573d80801561325d576040519150601f19603f3d011682016040523d82523d5f602084013e613262565b606091505b50604051632770a7eb60e21b81526001600160a01b037f00000000000000000000000000000000000000000000000000000000000000001690639dc29fac906132b19030908790600401613619565b5f604051808303815f87803b1580156132c8575f80fd5b505af11580156132da573d5f803e3d5ffd5b505050507fd95507bf24933d495dfb2eb73a1a47f54b9cb559cf4d3e994e5591ee5a0dae6a83826040516131389291906137c6565b8160085f8282546133209190613591565b909155505060408051838152602081018390527f499aa6b2e1c7b18ae34a860de7861e815b71a105cfd88f47a75787d41208a77a910160405180910390a15b8360055f8282546133709190613591565b90915550506002545f9061010090046001600160a01b03166133ac578561271060055461339d91906135bb565b6133a791906135d2565b613426565b600254600554604051633b0b790360e21b81526004810191909152602481018890526101009091046001600160a01b03169063ec2de40c90604401602060405180830381865afa158015613402573d5f803e3d5ffd5b505050506040513d601f19601f8201168201806040525081019061342691906135a4565b60055460408051888152602081019290925281018290529091507f5b67ff468eb47826f682d445996375571ee237450b508822263621e0a54394579060600160405180910390a15050505b5050426007555050565b60025460ff1661213257604051638dfc202b60e01b815260040160405180910390fd5b5f602082840312156134ae575f80fd5b81356001600160e01b0319811681146134c5575f80fd5b9392505050565b6001600160a01b038116811461126b575f80fd5b5f602082840312156134f0575f80fd5b81356134c5816134cc565b5f806040838503121561350c575f80fd5b8235613517816134cc565b946020939093013593505050565b5f60208284031215613535575f80fd5b5035919050565b5f806040838503121561354d575f80fd5b82359150602083013561355f816134cc565b809150509250929050565b634e487b7160e01b5f52601160045260245ffd5b818103818111156106f6576106f661356a565b808201808211156106f6576106f661356a565b5f602082840312156135b4575f80fd5b5051919050565b80820281158282048414176106f6576106f661356a565b5f826135ec57634e487b7160e01b5f52601260045260245ffd5b500490565b6020808252600e908201526d1253959053125117d05353d5539560921b604082015260600190565b6001600160a01b03929092168252602082015260400190565b80518015158114613641575f80fd5b919050565b5f805f8060808587031215613659575f80fd5b61366285613632565b60208601516040870151606090970151919890975090945092505050565b6020808252600c908201526b5a45524f5f4144445245535360a01b604082015260600190565b634e487b7160e01b5f52604160045260245ffd5b8051613641816134cc565b5f602082840312156136d5575f80fd5b815167ffffffffffffffff8111156136eb575f80fd5b8201601f810184136136fb575f80fd5b805167ffffffffffffffff811115613715576137156136a6565b8060051b604051601f19603f830116810181811067ffffffffffffffff82111715613742576137426136a6565b60405291825260208184018101929081018784111561375f575f80fd5b6020850194505b8385101561378557613777856136ba565b815260209485019401613766565b509695505050505050565b634e487b7160e01b5f52603260045260245ffd5b5f80604083850312156137b5575f80fd5b505080516020909101519092909150565b828152604060208201525f82518060408401528060208501606085015e5f606082850101526060601f19601f8301168401019150509392505050565b5f60208284031215613812575f80fd5b6134c58261363256fe292f74ea0b8d002236e65cd2cb76fcf83b8e4d25d2ac18517380a822699e9d01a26469706673582212201521ba50d1314d1f2f1f8200a282be54e7937cf3f2192e145d960aa842f80e8f64736f6c634300081a0033","linkReferences":{}},"methodIdentifiers":{"BORROW_ADMIN_ROLE()":"6c22e863","DEFAULT_ADMIN_ROLE()":"a217fddf","LEVERAGE_VAULT_ROLE()":"3d34e3e4","LIQUIDATION_ROLE()":"ae0e0125","PAUSER_ROLE()":"e63ab1e9","accrueInterest(address)":"9198e515","borrow(uint256)":"c5ebeaec","borrowCapacity(address)":"b977fc88","borrowFor(address,uint256)":"e9a1183d","getCurrentBorrowRate()":"3f0c4392","getCurrentSupplyRate()":"a874baf4","getRoleAdmin(bytes32)":"248a9ca3","getTotalSupply()":"c4e41b22","getUtilizationRate()":"4a417a53","grantRole(bytes32,address)":"2f2ff15d","hasRole(bytes32,address)":"91d14854","healthFactor(address)":"6ad9f9df","healthFactorUnsafe(address)":"88e94ef6","interestRateBps()":"c84a208b","interestRateModel()":"f3fdb15a","lastGlobalAccrualTime()":"d194bdf7","maxBorrow(address)":"97a9d457","minDebt()":"f17336d7","musd()":"cab666d0","oracle()":"7dc0d1d0","pause()":"8456cb59","paused()":"5c975abb","positions(address)":"55f57510","protocolReserves()":"d681a449","reduceDebt(address,uint256)":"807d3f1d","renounceRole(bytes32,address)":"36568abe","repay(uint256)":"371fd8e6","repayFor(address,uint256)":"23a27622","revokeRole(bytes32,address)":"d547741f","setInterestRate(uint256)":"5f84f302","setInterestRateModel(address)":"8bcd4016","setMinDebt(uint256)":"6234dc21","setSMUSD(address)":"a496b434","setTreasury(address)":"f0f44260","smusd()":"7be9b154","supportsInterface(bytes4)":"01ffc9a7","totalBorrows()":"47bd3718","totalDebt(address)":"1ff517ff","totalInterestPaidToSuppliers()":"9b200ec7","treasury()":"61d027b3","unpause()":"3f4ba83a","vault()":"fbfa77cf","withdrawCollateral(address,uint256)":"350c35e9","withdrawReserves(address,uint256)":"e478795d"},"id":1}