{"contracts/TreasuryV2.sol":{"TreasuryV2":{"abi":[{"type":"constructor","inputs":[],"stateMutability":"nonpayable"},{"type":"function","name":"ALLOCATOR_ROLE","inputs":[],"outputs":[{"name":"","type":"bytes32","internalType":"bytes32"}],"stateMutability":"view"},{"type":"function","name":"BPS","inputs":[],"outputs":[{"name":"","type":"uint256","internalType":"uint256"}],"stateMutability":"view"},{"type":"function","name":"DEFAULT_ADMIN_ROLE","inputs":[],"outputs":[{"name":"","type":"bytes32","internalType":"bytes32"}],"stateMutability":"view"},{"type":"function","name":"GUARDIAN_ROLE","inputs":[],"outputs":[{"name":"","type":"bytes32","internalType":"bytes32"}],"stateMutability":"view"},{"type":"function","name":"MAX_STRATEGIES","inputs":[],"outputs":[{"name":"","type":"uint256","internalType":"uint256"}],"stateMutability":"view"},{"type":"function","name":"MIN_ACCRUAL_INTERVAL","inputs":[],"outputs":[{"name":"","type":"uint256","internalType":"uint256"}],"stateMutability":"view"},{"type":"function","name":"STRATEGIST_ROLE","inputs":[],"outputs":[{"name":"","type":"bytes32","internalType":"bytes32"}],"stateMutability":"view"},{"type":"function","name":"UPGRADE_INTERFACE_VERSION","inputs":[],"outputs":[{"name":"","type":"string","internalType":"string"}],"stateMutability":"view"},{"type":"function","name":"VAULT_ROLE","inputs":[],"outputs":[{"name":"","type":"bytes32","internalType":"bytes32"}],"stateMutability":"view"},{"type":"function","name":"accrueFees","inputs":[],"outputs":[],"stateMutability":"nonpayable"},{"type":"function","name":"addStrategy","inputs":[{"name":"strategy","type":"address","internalType":"address"},{"name":"targetBps","type":"uint256","internalType":"uint256"},{"name":"minBps","type":"uint256","internalType":"uint256"},{"name":"maxBps","type":"uint256","internalType":"uint256"},{"name":"autoAllocate","type":"bool","internalType":"bool"}],"outputs":[],"stateMutability":"nonpayable"},{"type":"function","name":"asset","inputs":[],"outputs":[{"name":"","type":"address","internalType":"contract IERC20"}],"stateMutability":"view"},{"type":"function","name":"availableReserves","inputs":[],"outputs":[{"name":"","type":"uint256","internalType":"uint256"}],"stateMutability":"view"},{"type":"function","name":"claimFees","inputs":[],"outputs":[],"stateMutability":"nonpayable"},{"type":"function","name":"deposit","inputs":[{"name":"from","type":"address","internalType":"address"},{"name":"amount","type":"uint256","internalType":"uint256"}],"outputs":[],"stateMutability":"nonpayable"},{"type":"function","name":"depositFromVault","inputs":[{"name":"amount","type":"uint256","internalType":"uint256"}],"outputs":[{"name":"allocations","type":"uint256[]","internalType":"uint256[]"}],"stateMutability":"nonpayable"},{"type":"function","name":"emergencyWithdrawAll","inputs":[],"outputs":[],"stateMutability":"nonpayable"},{"type":"function","name":"fees","inputs":[],"outputs":[{"name":"performanceFeeBps","type":"uint256","internalType":"uint256"},{"name":"accruedFees","type":"uint256","internalType":"uint256"},{"name":"feeRecipient","type":"address","internalType":"address"}],"stateMutability":"view"},{"type":"function","name":"getAllStrategies","inputs":[],"outputs":[{"name":"","type":"tuple[]","internalType":"struct TreasuryV2.StrategyConfig[]","components":[{"name":"strategy","type":"address","internalType":"address"},{"name":"targetBps","type":"uint256","internalType":"uint256"},{"name":"minBps","type":"uint256","internalType":"uint256"},{"name":"maxBps","type":"uint256","internalType":"uint256"},{"name":"active","type":"bool","internalType":"bool"},{"name":"autoAllocate","type":"bool","internalType":"bool"}]}],"stateMutability":"view"},{"type":"function","name":"getCurrentAllocations","inputs":[],"outputs":[{"name":"strategyAddresses","type":"address[]","internalType":"address[]"},{"name":"currentBps","type":"uint256[]","internalType":"uint256[]"},{"name":"_targetBps","type":"uint256[]","internalType":"uint256[]"}],"stateMutability":"view"},{"type":"function","name":"getRoleAdmin","inputs":[{"name":"role","type":"bytes32","internalType":"bytes32"}],"outputs":[{"name":"","type":"bytes32","internalType":"bytes32"}],"stateMutability":"view"},{"type":"function","name":"grantRole","inputs":[{"name":"role","type":"bytes32","internalType":"bytes32"},{"name":"account","type":"address","internalType":"address"}],"outputs":[],"stateMutability":"nonpayable"},{"type":"function","name":"hasRole","inputs":[{"name":"role","type":"bytes32","internalType":"bytes32"},{"name":"account","type":"address","internalType":"address"}],"outputs":[{"name":"","type":"bool","internalType":"bool"}],"stateMutability":"view"},{"type":"function","name":"initialize","inputs":[{"name":"_asset","type":"address","internalType":"address"},{"name":"_vault","type":"address","internalType":"address"},{"name":"_admin","type":"address","internalType":"address"},{"name":"_feeRecipient","type":"address","internalType":"address"},{"name":"_timelock","type":"address","internalType":"address"}],"outputs":[],"stateMutability":"nonpayable"},{"type":"function","name":"isStrategy","inputs":[{"name":"","type":"address","internalType":"address"}],"outputs":[{"name":"","type":"bool","internalType":"bool"}],"stateMutability":"view"},{"type":"function","name":"lastFeeAccrual","inputs":[],"outputs":[{"name":"","type":"uint256","internalType":"uint256"}],"stateMutability":"view"},{"type":"function","name":"lastRecordedValue","inputs":[],"outputs":[{"name":"","type":"uint256","internalType":"uint256"}],"stateMutability":"view"},{"type":"function","name":"minAutoAllocateAmount","inputs":[],"outputs":[{"name":"","type":"uint256","internalType":"uint256"}],"stateMutability":"view"},{"type":"function","name":"pause","inputs":[],"outputs":[],"stateMutability":"nonpayable"},{"type":"function","name":"paused","inputs":[],"outputs":[{"name":"","type":"bool","internalType":"bool"}],"stateMutability":"view"},{"type":"function","name":"peakRecordedValue","inputs":[],"outputs":[{"name":"","type":"uint256","internalType":"uint256"}],"stateMutability":"view"},{"type":"function","name":"pendingFees","inputs":[],"outputs":[{"name":"","type":"uint256","internalType":"uint256"}],"stateMutability":"view"},{"type":"function","name":"proxiableUUID","inputs":[],"outputs":[{"name":"","type":"bytes32","internalType":"bytes32"}],"stateMutability":"view"},{"type":"function","name":"rebalance","inputs":[],"outputs":[],"stateMutability":"nonpayable"},{"type":"function","name":"recoverToken","inputs":[{"name":"token","type":"address","internalType":"address"},{"name":"amount","type":"uint256","internalType":"uint256"}],"outputs":[],"stateMutability":"nonpayable"},{"type":"function","name":"removeStrategy","inputs":[{"name":"strategy","type":"address","internalType":"address"}],"outputs":[],"stateMutability":"nonpayable"},{"type":"function","name":"renounceRole","inputs":[{"name":"role","type":"bytes32","internalType":"bytes32"},{"name":"callerConfirmation","type":"address","internalType":"address"}],"outputs":[],"stateMutability":"nonpayable"},{"type":"function","name":"reserveBalance","inputs":[],"outputs":[{"name":"","type":"uint256","internalType":"uint256"}],"stateMutability":"view"},{"type":"function","name":"reserveBps","inputs":[],"outputs":[{"name":"","type":"uint256","internalType":"uint256"}],"stateMutability":"view"},{"type":"function","name":"revokeRole","inputs":[{"name":"role","type":"bytes32","internalType":"bytes32"},{"name":"account","type":"address","internalType":"address"}],"outputs":[],"stateMutability":"nonpayable"},{"type":"function","name":"setFeeConfig","inputs":[{"name":"_performanceFeeBps","type":"uint256","internalType":"uint256"},{"name":"_feeRecipient","type":"address","internalType":"address"}],"outputs":[],"stateMutability":"nonpayable"},{"type":"function","name":"setMinAutoAllocate","inputs":[{"name":"_minAmount","type":"uint256","internalType":"uint256"}],"outputs":[],"stateMutability":"nonpayable"},{"type":"function","name":"setReserveBps","inputs":[{"name":"_reserveBps","type":"uint256","internalType":"uint256"}],"outputs":[],"stateMutability":"nonpayable"},{"type":"function","name":"setTimelock","inputs":[{"name":"_timelock","type":"address","internalType":"address"}],"outputs":[],"stateMutability":"nonpayable"},{"type":"function","name":"setVault","inputs":[{"name":"_vault","type":"address","internalType":"address"}],"outputs":[],"stateMutability":"nonpayable"},{"type":"function","name":"strategies","inputs":[{"name":"","type":"uint256","internalType":"uint256"}],"outputs":[{"name":"strategy","type":"address","internalType":"address"},{"name":"targetBps","type":"uint256","internalType":"uint256"},{"name":"minBps","type":"uint256","internalType":"uint256"},{"name":"maxBps","type":"uint256","internalType":"uint256"},{"name":"active","type":"bool","internalType":"bool"},{"name":"autoAllocate","type":"bool","internalType":"bool"}],"stateMutability":"view"},{"type":"function","name":"strategyCount","inputs":[],"outputs":[{"name":"","type":"uint256","internalType":"uint256"}],"stateMutability":"view"},{"type":"function","name":"strategyIndex","inputs":[{"name":"","type":"address","internalType":"address"}],"outputs":[{"name":"","type":"uint256","internalType":"uint256"}],"stateMutability":"view"},{"type":"function","name":"supportsInterface","inputs":[{"name":"interfaceId","type":"bytes4","internalType":"bytes4"}],"outputs":[{"name":"","type":"bool","internalType":"bool"}],"stateMutability":"view"},{"type":"function","name":"targetReserve","inputs":[],"outputs":[{"name":"","type":"uint256","internalType":"uint256"}],"stateMutability":"view"},{"type":"function","name":"timelock","inputs":[],"outputs":[{"name":"","type":"address","internalType":"address"}],"stateMutability":"view"},{"type":"function","name":"totalBacking","inputs":[],"outputs":[{"name":"","type":"uint256","internalType":"uint256"}],"stateMutability":"view"},{"type":"function","name":"totalValue","inputs":[],"outputs":[{"name":"","type":"uint256","internalType":"uint256"}],"stateMutability":"view"},{"type":"function","name":"totalValueNet","inputs":[],"outputs":[{"name":"","type":"uint256","internalType":"uint256"}],"stateMutability":"view"},{"type":"function","name":"unpause","inputs":[],"outputs":[],"stateMutability":"nonpayable"},{"type":"function","name":"updateStrategy","inputs":[{"name":"strategy","type":"address","internalType":"address"},{"name":"targetBps","type":"uint256","internalType":"uint256"},{"name":"minBps","type":"uint256","internalType":"uint256"},{"name":"maxBps","type":"uint256","internalType":"uint256"},{"name":"autoAllocate","type":"bool","internalType":"bool"}],"outputs":[],"stateMutability":"nonpayable"},{"type":"function","name":"upgradeToAndCall","inputs":[{"name":"newImplementation","type":"address","internalType":"address"},{"name":"data","type":"bytes","internalType":"bytes"}],"outputs":[],"stateMutability":"payable"},{"type":"function","name":"vault","inputs":[],"outputs":[{"name":"","type":"address","internalType":"address"}],"stateMutability":"view"},{"type":"function","name":"withdraw","inputs":[{"name":"to","type":"address","internalType":"address"},{"name":"amount","type":"uint256","internalType":"uint256"}],"outputs":[],"stateMutability":"nonpayable"},{"type":"function","name":"withdrawToVault","inputs":[{"name":"amount","type":"uint256","internalType":"uint256"}],"outputs":[{"name":"actualAmount","type":"uint256","internalType":"uint256"}],"stateMutability":"nonpayable"},{"type":"event","name":"Deposited","inputs":[{"name":"from","type":"address","indexed":true,"internalType":"address"},{"name":"amount","type":"uint256","indexed":false,"internalType":"uint256"},{"name":"allocations","type":"uint256[]","indexed":false,"internalType":"uint256[]"}],"anonymous":false},{"type":"event","name":"EmergencyWithdraw","inputs":[{"name":"amount","type":"uint256","indexed":false,"internalType":"uint256"}],"anonymous":false},{"type":"event","name":"FeeConfigUpdated","inputs":[{"name":"performanceFeeBps","type":"uint256","indexed":false,"internalType":"uint256"},{"name":"feeRecipient","type":"address","indexed":false,"internalType":"address"}],"anonymous":false},{"type":"event","name":"FeesAccrued","inputs":[{"name":"yield_","type":"uint256","indexed":false,"internalType":"uint256"},{"name":"protocolFee","type":"uint256","indexed":false,"internalType":"uint256"}],"anonymous":false},{"type":"event","name":"FeesClaimed","inputs":[{"name":"recipient","type":"address","indexed":true,"internalType":"address"},{"name":"amount","type":"uint256","indexed":false,"internalType":"uint256"}],"anonymous":false},{"type":"event","name":"Initialized","inputs":[{"name":"version","type":"uint64","indexed":false,"internalType":"uint64"}],"anonymous":false},{"type":"event","name":"MinAutoAllocateUpdated","inputs":[{"name":"oldAmount","type":"uint256","indexed":false,"internalType":"uint256"},{"name":"newAmount","type":"uint256","indexed":false,"internalType":"uint256"}],"anonymous":false},{"type":"event","name":"Paused","inputs":[{"name":"account","type":"address","indexed":false,"internalType":"address"}],"anonymous":false},{"type":"event","name":"RebalanceDepositFailed","inputs":[{"name":"strategy","type":"address","indexed":true,"internalType":"address"},{"name":"amount","type":"uint256","indexed":false,"internalType":"uint256"}],"anonymous":false},{"type":"event","name":"RebalanceWithdrawFailed","inputs":[{"name":"strategy","type":"address","indexed":true,"internalType":"address"},{"name":"amount","type":"uint256","indexed":false,"internalType":"uint256"}],"anonymous":false},{"type":"event","name":"Rebalanced","inputs":[{"name":"totalValue","type":"uint256","indexed":false,"internalType":"uint256"}],"anonymous":false},{"type":"event","name":"ReserveBpsUpdated","inputs":[{"name":"oldReserveBps","type":"uint256","indexed":false,"internalType":"uint256"},{"name":"newReserveBps","type":"uint256","indexed":false,"internalType":"uint256"}],"anonymous":false},{"type":"event","name":"RoleAdminChanged","inputs":[{"name":"role","type":"bytes32","indexed":true,"internalType":"bytes32"},{"name":"previousAdminRole","type":"bytes32","indexed":true,"internalType":"bytes32"},{"name":"newAdminRole","type":"bytes32","indexed":true,"internalType":"bytes32"}],"anonymous":false},{"type":"event","name":"RoleGranted","inputs":[{"name":"role","type":"bytes32","indexed":true,"internalType":"bytes32"},{"name":"account","type":"address","indexed":true,"internalType":"address"},{"name":"sender","type":"address","indexed":true,"internalType":"address"}],"anonymous":false},{"type":"event","name":"RoleRevoked","inputs":[{"name":"role","type":"bytes32","indexed":true,"internalType":"bytes32"},{"name":"account","type":"address","indexed":true,"internalType":"address"},{"name":"sender","type":"address","indexed":true,"internalType":"address"}],"anonymous":false},{"type":"event","name":"StrategyAdded","inputs":[{"name":"strategy","type":"address","indexed":true,"internalType":"address"},{"name":"targetBps","type":"uint256","indexed":false,"internalType":"uint256"}],"anonymous":false},{"type":"event","name":"StrategyDepositFailed","inputs":[{"name":"strategy","type":"address","indexed":true,"internalType":"address"},{"name":"amount","type":"uint256","indexed":false,"internalType":"uint256"},{"name":"reason","type":"bytes","indexed":false,"internalType":"bytes"}],"anonymous":false},{"type":"event","name":"StrategyForceDeactivated","inputs":[{"name":"strategy","type":"address","indexed":true,"internalType":"address"},{"name":"strandedValue","type":"uint256","indexed":false,"internalType":"uint256"},{"name":"reason","type":"bytes","indexed":false,"internalType":"bytes"}],"anonymous":false},{"type":"event","name":"StrategyRemoved","inputs":[{"name":"strategy","type":"address","indexed":true,"internalType":"address"}],"anonymous":false},{"type":"event","name":"StrategyUpdated","inputs":[{"name":"strategy","type":"address","indexed":true,"internalType":"address"},{"name":"newTargetBps","type":"uint256","indexed":false,"internalType":"uint256"}],"anonymous":false},{"type":"event","name":"StrategyValueQueryFailed","inputs":[{"name":"strategy","type":"address","indexed":true,"internalType":"address"}],"anonymous":false},{"type":"event","name":"StrategyWithdrawFailed","inputs":[{"name":"strategy","type":"address","indexed":true,"internalType":"address"},{"name":"amount","type":"uint256","indexed":false,"internalType":"uint256"},{"name":"reason","type":"bytes","indexed":false,"internalType":"bytes"}],"anonymous":false},{"type":"event","name":"StrategyWithdrawn","inputs":[{"name":"strategy","type":"address","indexed":true,"internalType":"address"},{"name":"amount","type":"uint256","indexed":false,"internalType":"uint256"}],"anonymous":false},{"type":"event","name":"TimelockUpdated","inputs":[{"name":"oldTimelock","type":"address","indexed":true,"internalType":"address"},{"name":"newTimelock","type":"address","indexed":true,"internalType":"address"}],"anonymous":false},{"type":"event","name":"Unpaused","inputs":[{"name":"account","type":"address","indexed":false,"internalType":"address"}],"anonymous":false},{"type":"event","name":"Upgraded","inputs":[{"name":"implementation","type":"address","indexed":true,"internalType":"address"}],"anonymous":false},{"type":"event","name":"Withdrawn","inputs":[{"name":"to","type":"address","indexed":true,"internalType":"address"},{"name":"amount","type":"uint256","indexed":false,"internalType":"uint256"}],"anonymous":false},{"type":"error","name":"AccessControlBadConfirmation","inputs":[]},{"type":"error","name":"AccessControlUnauthorizedAccount","inputs":[{"name":"account","type":"address","internalType":"address"},{"name":"neededRole","type":"bytes32","internalType":"bytes32"}]},{"type":"error","name":"AddressEmptyCode","inputs":[{"name":"target","type":"address","internalType":"address"}]},{"type":"error","name":"AllocationExceedsLimit","inputs":[]},{"type":"error","name":"CannotRecoverAsset","inputs":[]},{"type":"error","name":"ERC1967InvalidImplementation","inputs":[{"name":"implementation","type":"address","internalType":"address"}]},{"type":"error","name":"ERC1967NonPayable","inputs":[]},{"type":"error","name":"EnforcedPause","inputs":[]},{"type":"error","name":"ExpectedPause","inputs":[]},{"type":"error","name":"FailedCall","inputs":[]},{"type":"error","name":"FeeTooHigh","inputs":[]},{"type":"error","name":"InsufficientLiquidity","inputs":[]},{"type":"error","name":"InsufficientReserves","inputs":[]},{"type":"error","name":"InvalidInitialization","inputs":[]},{"type":"error","name":"InvalidRecipient","inputs":[]},{"type":"error","name":"MaxStrategiesReached","inputs":[]},{"type":"error","name":"MustDepositOwnFunds","inputs":[]},{"type":"error","name":"NotInitializing","inputs":[]},{"type":"error","name":"OnlyTimelock","inputs":[]},{"type":"error","name":"OnlyVault","inputs":[]},{"type":"error","name":"ReentrancyGuardReentrantCall","inputs":[]},{"type":"error","name":"ReserveTooHigh","inputs":[]},{"type":"error","name":"SafeERC20FailedOperation","inputs":[{"name":"token","type":"address","internalType":"address"}]},{"type":"error","name":"StrategyExists","inputs":[]},{"type":"error","name":"StrategyNotFound","inputs":[]},{"type":"error","name":"TotalAllocationInvalid","inputs":[]},{"type":"error","name":"UUPSUnauthorizedCallContext","inputs":[]},{"type":"error","name":"UUPSUnsupportedProxiableUUID","inputs":[{"name":"slot","type":"bytes32","internalType":"bytes32"}]},{"type":"error","name":"ZeroAddress","inputs":[]},{"type":"error","name":"ZeroAmount","inputs":[]},{"type":"error","name":"ZeroTimelock","inputs":[]}],"userdoc":{},"devdoc":{},"evm":{"bytecode":{"object":"60a060405230608052348015610013575f80fd5b5061001c610021565b6100d3565b7ff0c57e16840df040f15088dc2f81fe391c3923bec73e23a9662efc9c229c6a00805468010000000000000000900460ff16156100715760405163f92ee8a960e01b815260040160405180910390fd5b80546001600160401b03908116146100d05780546001600160401b0319166001600160401b0390811782556040519081527fc7f505b2f371ae2175ee4913f4499e1f2633a7b5936321eed1cdaeb6115181d29060200160405180910390a15b50565b6080516145986100f95f395f81816136b7015281816136e0015261383d01526145985ff3fe608060405260043610610387575f3560e01c8063767f06ae116101d3578063c3b28864116100fd578063d4c3eea01161009d578063e9308c251161006d578063e9308c2514610a3c578063eb2cd25814610a5b578063f3fef3a314610a6f578063fbfa77cf14610a8e575f80fd5b8063d4c3eea01461099b578063d547741f146109af578063d574ea3d146109ce578063dd19171914610a28575f80fd5b8063ce8c42e8116100d8578063ce8c42e814610935578063d294f09314610954578063d2d4b36b14610968578063d33219b414610987575f80fd5b8063c3b28864146108e0578063c81cbaa114610901578063cd33f2bd14610921575f80fd5b8063a10954fe11610173578063ad3cb1cc11610143578063ad3cb1cc14610850578063b29a81401461088d578063bc0bdf50146108ac578063bdacb303146108c1575f80fd5b8063a10954fe146107f4578063a217fddf14610808578063a378a3241461081b578063aad931161461083b575f80fd5b80638d9e9012116101ae5780638d9e90121461074b57806391d148541461076a57806398c4f1ac146107895780639af1d35a146107a9575f80fd5b8063767f06ae1461070f5780637d7c2a1c146107235780638456cb5914610737575f80fd5b806337a4e834116102b45780634f1ef286116102545780636468af34116102245780636468af34146106905780636817031b146106af5780636edd9259146106ce57806371841882146106fa575f80fd5b80634f1ef2861461062757806352d1902d1461063a57806358c98c161461064e5780635c975abb1461066d575f80fd5b80633f4ba83a1161028f5780633f4ba83a146105bc57806341826c2d146105d057806347e7ef24146105f35780634a165cd914610612575f80fd5b806337a4e8341461055d578063389254491461057157806338d52e0f14610586575f80fd5b8063224438d11161032a5780632e8ebaae116102fa5780632e8ebaae146104dd5780632f2ff15d1461050b57806334365d9a1461052a57806336568abe1461053e575f80fd5b8063224438d114610475578063248a9ca314610489578063249d39e9146104a857806324ea54f4146104bd575f80fd5b8063175188e811610365578063175188e8146104195780631ef90fb0146104385780631fa7c6681461044d57806322068b4414610461575f80fd5b806301ffc9a71461038b57806311451526146103bf5780631459457a146103f8575b5f80fd5b348015610396575f80fd5b506103aa6103a5366004613f78565b610aad565b60405190151581526020015b60405180910390f35b3480156103ca575f80fd5b506103ea6103d9366004613fb5565b60036020525f908152604090205481565b6040519081526020016103b6565b348015610403575f80fd5b50610417610412366004613fce565b610ae3565b005b348015610424575f80fd5b50610417610433366004613fb5565b610d4f565b348015610443575f80fd5b506103ea610e1081565b348015610458575f80fd5b506103ea6110c0565b34801561046c575f80fd5b506002546103ea565b348015610480575f80fd5b506103ea6110ce565b348015610494575f80fd5b506103ea6104a336600461402f565b6110d7565b3480156104b3575f80fd5b506103ea61271081565b3480156104c8575f80fd5b506103ea5f8051602061454383398151915281565b3480156104e8575f80fd5b506103aa6104f7366004613fb5565b60046020525f908152604090205460ff1681565b348015610516575f80fd5b50610417610525366004614046565b6110f7565b348015610535575f80fd5b506103ea611119565b348015610549575f80fd5b50610417610558366004614046565b61114e565b348015610568575f80fd5b50610417611186565b34801561057c575f80fd5b506103ea60055481565b348015610591575f80fd5b505f546105a4906001600160a01b031681565b6040516001600160a01b0390911681526020016103b6565b3480156105c7575f80fd5b506104176111a8565b3480156105db575f80fd5b506105e46111ba565b6040516103b6939291906140aa565b3480156105fe575f80fd5b5061041761060d366004614115565b611474565b34801561061d575f80fd5b506103ea60095481565b610417610635366004614151565b611590565b348015610645575f80fd5b506103ea6115ab565b348015610659575f80fd5b5061041761066836600461402f565b6115c6565b348015610678575f80fd5b505f805160206144e38339815191525460ff166103aa565b34801561069b575f80fd5b506104176106aa366004614046565b611663565b3480156106ba575f80fd5b506104176106c9366004613fb5565b611746565b3480156106d9575f80fd5b506106ed6106e836600461402f565b6117fb565b6040516103b69190614215565b348015610705575f80fd5b506103ea600b5481565b34801561071a575f80fd5b506103ea600a81565b34801561072e575f80fd5b50610417611927565b348015610742575f80fd5b50610417611e44565b348015610756575f80fd5b50610417610765366004614227565b611e63565b348015610775575f80fd5b506103aa610784366004614046565b612197565b348015610794575f80fd5b506103ea5f805160206144a383398151915281565b3480156107b4575f80fd5b506006546007546008546107d09291906001600160a01b031683565b6040805193845260208401929092526001600160a01b0316908201526060016103b6565b3480156107ff575f80fd5b506103ea6121cd565b348015610813575f80fd5b506103ea5f81565b348015610826575f80fd5b506103ea5f8051602061450383398151915281565b348015610846575f80fd5b506103ea600c5481565b34801561085b575f80fd5b50610880604051806040016040528060058152602001640352e302e360dc1b81525081565b6040516103b691906142a9565b348015610898575f80fd5b506104176108a7366004614115565b612237565b3480156108b7575f80fd5b506103ea600a5481565b3480156108cc575f80fd5b506104176108db366004613fb5565b6122b0565b3480156108eb575f80fd5b506108f4612374565b6040516103b691906142bb565b34801561090c575f80fd5b506103ea5f8051602061444383398151915281565b34801561092c575f80fd5b506103ea61241b565b348015610940575f80fd5b506103ea61094f36600461402f565b61243e565b34801561095f575f80fd5b50610417612595565b348015610973575f80fd5b50610417610982366004614227565b612695565b348015610992575f80fd5b506105a46128ad565b3480156109a6575f80fd5b506103ea6128cc565b3480156109ba575f80fd5b506104176109c9366004614046565b6129b4565b3480156109d9575f80fd5b506109ed6109e836600461402f565b6129d0565b604080516001600160a01b039097168752602087019590955293850192909252606084015215156080830152151560a082015260c0016103b6565b348015610a33575f80fd5b50610417612a25565b348015610a47575f80fd5b50610417610a5636600461402f565b612bda565b348015610a66575f80fd5b506103ea612c72565b348015610a7a575f80fd5b50610417610a89366004614115565b612c7b565b348015610a99575f80fd5b506001546105a4906001600160a01b031681565b5f6001600160e01b03198216637965db0b60e01b1480610add57506301ffc9a760e01b6001600160e01b03198316145b92915050565b5f610aec612d94565b805490915060ff600160401b820416159067ffffffffffffffff165f81158015610b135750825b90505f8267ffffffffffffffff166001148015610b2f5750303b155b905081158015610b3d575080155b15610b5b5760405163f92ee8a960e01b815260040160405180910390fd5b845467ffffffffffffffff191660011785558315610b8557845460ff60401b1916600160401b1785555b6001600160a01b038a161580610ba257506001600160a01b038916155b80610bb457506001600160a01b038816155b15610bd25760405163d92e233d60e01b815260040160405180910390fd5b6001600160a01b038616610bf95760405163d92e233d60e01b815260040160405180910390fd5b610c01612dbc565b610c09612dc4565b610c11612dbc565b610c19612dbc565b610c2286612dd4565b5f80546001600160a01b03808d166001600160a01b0319928316178355600180548d831690841617905560408051606081018252610fa080825260208201869052928c1691018190526006919091556007839055600880549092161790556103e8600555633b9aca00600b55610c989089612e52565b50610cb05f8051602061444383398151915289612e52565b50610cc85f8051602061450383398151915289612e52565b50610ce05f8051602061454383398151915289612e52565b50610cf85f805160206144a38339815191528a612e52565b5042600a558315610d4357845460ff60401b19168555604051600181527fc7f505b2f371ae2175ee4913f4499e1f2633a7b5936321eed1cdaeb6115181d29060200160405180910390a15b50505050505050505050565b5f80516020614503833981519152610d6681612ef3565b6001600160a01b0382165f9081526004602052604090205460ff16610d9e57604051632df15a4160e11b815260040160405180910390fd5b6001600160a01b0382165f908152600360205260409020546002805482908110610dca57610dca614341565b5f91825260209091206004600590920201015460ff1615610fed575f836001600160a01b031663d4c3eea06040518163ffffffff1660e01b8152600401602060405180830381865afa925050508015610e40575060408051601f3d908101601f19168201909252610e3d91810190614355565b60015b610e4b57505f610e4e565b90505b8015610feb57836001600160a01b031663853828b66040518163ffffffff1660e01b81526004016020604051808303815f875af1925050508015610eaf575060408051601f3d908101601f19168201909252610eac91810190614355565b60015b610f2b573d808015610edc576040519150601f19603f3d011682016040523d82523d5f602084013e610ee1565b606091505b50846001600160a01b03167f2dc4845fc8e1bc578ad810a4b7169617ea8bec54516442796fa66620795fc9938383604051610f1d92919061436c565b60405180910390a250610feb565b5f6064610f3984605f6143a0565b610f4391906143b7565b9050808210610f9457856001600160a01b03167f47a0288289f9248f1cc731abd5fcd916c55fa1577b883cf69bff73382853523683604051610f8791815260200190565b60405180910390a2610fe8565b6001600160a01b0386167f2dc4845fc8e1bc578ad810a4b7169617ea8bec54516442796fa66620795fc993610fc984866143d6565b60408051918252602082018190525f9082015260600160405180910390a25b50505b505b5f6002828154811061100157611001614341565b5f9182526020822060059190910201600401805460ff191692151592909217909155600280548390811061103757611037614341565b5f9182526020808320600160059093020191909101929092556001600160a01b038086168252600483526040808320805460ff19169055600390935291812081905580546110889216908590612efd565b6040516001600160a01b038416907f09a1db4b80c32706328728508c941a6b954f31eb5affd32f236c1fd405f8fea4905f90a2505050565b5f6110c96121cd565b905090565b5f6110c9612fba565b5f9081525f805160206144c3833981519152602052604090206001015490565b611100826110d7565b61110981612ef3565b6111138383612e52565b50505050565b5f806111236128cc565b90505f61112e612fba565b905080821161113d575f611147565b61114781836143d6565b9250505090565b6001600160a01b03811633146111775760405163334bd91960e11b815260040160405180910390fd5b611181828261301f565b505050565b5f8051602061444383398151915261119d81612ef3565b6111a5613098565b50565b5f6111b281612ef3565b6111a561316f565b60608060605f6111c86128cc565b6002549091508067ffffffffffffffff8111156111e7576111e761413d565b604051908082528060200260200182016040528015611210578160200160208202803683370190505b5094508067ffffffffffffffff81111561122c5761122c61413d565b604051908082528060200260200182016040528015611255578160200160208202803683370190505b5093508067ffffffffffffffff8111156112715761127161413d565b60405190808252806020026020018201604052801561129a578160200160208202803683370190505b5092505f5b8181101561146c57600281815481106112ba576112ba614341565b5f91825260209091206005909102015486516001600160a01b03909116908790839081106112ea576112ea614341565b60200260200101906001600160a01b031690816001600160a01b0316815250506002818154811061131d5761131d614341565b905f5260205f2090600502016001015484828151811061133f5761133f614341565b6020026020010181815250505f8311801561137f57506002818154811061136857611368614341565b5f91825260209091206004600590920201015460ff165b15611464576002818154811061139757611397614341565b5f91825260209182902060059091020154604080516306a61f7560e51b815290516001600160a01b039092169263d4c3eea0926004808401938290030181865afa925050508015611405575060408051601f3d908101601f1916820190925261140291810190614355565b60015b61142d575f85828151811061141c5761141c614341565b602002602001018181525050611464565b8361143a612710836143a0565b61144491906143b7565b86838151811061145657611456614341565b602002602001018181525050505b60010161129f565b505050909192565b61147c6131c8565b6114846131ff565b5f805160206144a383398151915261149b81612ef3565b815f036114bb57604051631f2a200560e01b815260040160405180910390fd5b6001600160a01b03831633146114e457604051630f05794960e31b815260040160405180910390fd5b6114ec613098565b5f54611503906001600160a01b031684308561322f565b600b5482106115175761151582613268565b505b61151f6128cc565b600955604080515f81526020810191829052906001600160a01b038516907fecbade292b10449eeda5afeeebdad84b3e2c5d56548642714fb25876646a15c49061156c90869085906143e9565b60405180910390a2505061158c60015f8051602061452383398151915255565b5050565b6115986136ac565b6115a18261373a565b61158c8282613771565b5f6115b4613832565b505f8051602061448383398151915290565b5f80516020614463833981519152546001600160a01b031633146115fd57604051630e05f48560e11b815260040160405180910390fd5b805f0361161d57604051631f2a200560e01b815260040160405180910390fd5b600b80549082905560408051828152602081018490527f42ad410c029ee3f46ac78f4c8e1d479cc0a85334db57ab6c802d7098f828a0d491015b60405180910390a15050565b5f80516020614463833981519152546001600160a01b0316331461169a57604051630e05f48560e11b815260040160405180910390fd5b6113888211156116bd5760405163cd4e616760e01b815260040160405180910390fd5b6001600160a01b0381166116e457604051634e46966960e11b815260040160405180910390fd5b6116ec613098565b6006829055600880546001600160a01b0319166001600160a01b0383169081179091556040805184815260208101929092527fe125ae54d7ba2b06e6f44852861516acb2dd2692cf41fb127fa03252f15b334e9101611657565b5f80516020614463833981519152546001600160a01b0316331461177d57604051630e05f48560e11b815260040160405180910390fd5b6001600160a01b0381166117a45760405163d92e233d60e01b815260040160405180910390fd5b6001546117c8905f805160206144a3833981519152906001600160a01b031661301f565b50600180546001600160a01b0319166001600160a01b03831617905561158c5f805160206144a383398151915282612e52565b60606118056131c8565b61180d6131ff565b5f805160206144a383398151915261182481612ef3565b825f0361184457604051631f2a200560e01b815260040160405180910390fd5b61184c613098565b5f54611863906001600160a01b031633308661322f565b600b54831061187c5761187583613268565b91506118c4565b60025467ffffffffffffffff8111156118975761189761413d565b6040519080825280602002602001820160405280156118c0578160200160208202803683370190505b5091505b6118cc6128cc565b60095560405133907fecbade292b10449eeda5afeeebdad84b3e2c5d56548642714fb25876646a15c49061190390869086906143e9565b60405180910390a25061192260015f8051602061452383398151915255565b919050565b61192f6131c8565b5f8051602061444383398151915261194681612ef3565b61194e613098565b5f6119576128cc565b9050805f036119665750611e2b565b5f5b600254811015611b40576002818154811061198557611985614341565b5f91825260209091206004600590920201015460ff1615611b38575f600282815481106119b4576119b4614341565b5f9182526020808320600590920290910154604080516306a61f7560e51b815290516001600160a01b039092169450849263d4c3eea0926004808401938290030181865afa158015611a08573d5f803e3d5ffd5b505050506040513d601f19601f82011682018060405250810190611a2c9190614355565b90505f61271060028581548110611a4557611a45614341565b905f5260205f2090600502016001015486611a6091906143a0565b611a6a91906143b7565b905080821115611b34575f611a7f82846143d6565b604051632e1a7d4d60e01b8152600481018290529091506001600160a01b03851690632e1a7d4d906024016020604051808303815f875af1925050508015611ae4575060408051601f3d908101601f19168201909252611ae191810190614355565b60015b611b3057836001600160a01b03167f0826265688fdd8c6da68999eb7941fc0a77b0a70392ca5c3912c4cb57cfa2d2382604051611b2391815260200190565b60405180910390a2611b32565b505b505b5050505b600101611968565b50611b496128cc565b90505f611b546121cd565b90505f61271060055484611b6891906143a0565b611b7291906143b7565b90505f818311611b82575f611b8c565b611b8c82846143d6565b90505f5b60025481108015611ba057505f82115b15611de55760028181548110611bb857611bb8614341565b5f91825260209091206004600590920201015460ff1615611dd3575f60028281548110611be757611be7614341565b5f9182526020808320600590920290910154604080516306a61f7560e51b815290516001600160a01b039092169450849263d4c3eea0926004808401938290030181865afa158015611c3b573d5f803e3d5ffd5b505050506040513d601f19601f82011682018060405250810190611c5f9190614355565b90505f61271060028581548110611c7857611c78614341565b905f5260205f2090600502016001015489611c9391906143a0565b611c9d91906143b7565b905080821015611dcf575f611cb283836143d6565b90505f868210611cc25786611cc4565b815b5f54909150611cdd906001600160a01b03168683612efd565b60405163b6b55f2560e01b8152600481018290526001600160a01b0386169063b6b55f25906024016020604051808303815f875af1925050508015611d3f575060408051601f3d908101601f19168201909252611d3c91810190614355565b60015b611da557846001600160a01b03167fcb5c63317d75df911a08340e9ac3d0423a6d861f8205d37d1be0142b2922da8b82604051611d7e91815260200190565b60405180910390a25f8054611da0916001600160a01b03909116908790612efd565b611dcc565b611daf81896143d6565b5f8054919950611dca916001600160a01b0316908890612efd565b505b50505b5050505b80611ddd81614401565b915050611b90565b50611dee6128cc565b60098190556040519081527fc306af072396b02bf3a9782c10065cc7ff4aa842934a43f0b76f997b291237c89060200160405180910390a1505050505b50611e4260015f8051602061452383398151915255565b565b5f80516020614543833981519152611e5b81612ef3565b6111a561387b565b5f80516020614503833981519152611e7a81612ef3565b6001600160a01b038616611ea15760405163d92e233d60e01b815260040160405180910390fd5b6001600160a01b0386165f9081526004602052604090205460ff1615611eda576040516325a2934b60e21b815260040160405180910390fd5b600254600a11611efd57604051631f62ca4f60e21b815260040160405180910390fd5b82851180611f0a57508484115b15611f2857604051632615e83760e11b815260040160405180910390fd5b5f60055486611f379190614419565b90505f5b600254811015611fac5760028181548110611f5857611f58614341565b5f91825260209091206004600590920201015460ff1615611fa45760028181548110611f8657611f86614341565b905f5260205f2090600502016001015482611fa19190614419565b91505b600101611f3b565b50612710811115611fd057604051631f15009160e11b815260040160405180910390fd5b6040805160c0810182526001600160a01b038981168252602082018981529282018881526060830188815260016080850181815289151560a087019081526002805480850182555f82905297517f405787fa12a823e0f2b7631cc41b3ba8828b3321ca811111fa75cd3aa3bb5ace600590990298890180546001600160a01b031916919098161790965596517f405787fa12a823e0f2b7631cc41b3ba8828b3321ca811111fa75cd3aa3bb5acf87015592517f405787fa12a823e0f2b7631cc41b3ba8828b3321ca811111fa75cd3aa3bb5ad086015590517f405787fa12a823e0f2b7631cc41b3ba8828b3321ca811111fa75cd3aa3bb5ad185015590517f405787fa12a823e0f2b7631cc41b3ba8828b3321ca811111fa75cd3aa3bb5ad29093018054945161ffff1990951693151561ff0019169390931761010094151594909402939093179091555461212591906143d6565b6001600160a01b0388165f8181526003602090815260408083209490945560049052829020805460ff1916600117905590517f2f564a83158ad1831793ad3e69257b52f39ece5d49cb0d8746708ecb9ef964da906121869089815260200190565b60405180910390a250505050505050565b5f9182525f805160206144c3833981519152602090815260408084206001600160a01b0393909316845291905290205460ff1690565b5f80546040516370a0823160e01b81523060048201526001600160a01b03909116906370a0823190602401602060405180830381865afa158015612213573d5f803e3d5ffd5b505050506040513d601f19601f820116820180604052508101906110c99190614355565b5f80516020614463833981519152546001600160a01b0316331461226e57604051630e05f48560e11b815260040160405180910390fd5b5f546001600160a01b039081169083160361229c576040516312ad83e360e11b815260040160405180910390fd5b61158c6001600160a01b03831633836138c3565b5f80516020614463833981519152546001600160a01b031633146122e757604051630e05f48560e11b815260040160405180910390fd5b6001600160a01b03811661230e576040516350c0eb2960e11b815260040160405180910390fd5b5f8051602061446383398151915280546040516001600160a01b038481169216907fae97011a27b5efe7b1d76fe38e75cc498fd64cc24e407a9c6b2185d27f611f7e905f90a380546001600160a01b0319166001600160a01b0392909216919091179055565b60606002805480602002602001604051908101604052809291908181526020015f905b82821015612412575f8481526020908190206040805160c0810182526005860290920180546001600160a01b0316835260018082015484860152600282015492840192909252600381015460608401526004015460ff8082161515608085015261010090910416151560a08301529083529092019101612397565b50505050905090565b5f61271060055461242a6128cc565b61243491906143a0565b6110c991906143b7565b5f6124476131c8565b61244f6131ff565b5f805160206144a383398151915261246681612ef3565b825f0361248657604051631f2a200560e01b815260040160405180910390fd5b61248e613098565b5f6124976121cd565b90508381106124c4576001545f546124bc916001600160a01b039182169116866138c3565b839250612530565b5f6124cf82866143d6565b90506124da816138f4565b506124e36121cd565b9350848411156124f1578493505b848410156125125760405163bb55fd2760e01b815260040160405180910390fd5b6001545f5461252e916001600160a01b039182169116866138c3565b505b6125386128cc565b6009556001546040518481526001600160a01b03909116907f7084f5476618d8e60b11ef0d7d3f06914655adb8793e28ff7f018d4c76d505d59060200160405180910390a2505061192260015f8051602061452383398151915255565b61259d6131c8565b5f6125a781612ef3565b6125af613098565b6007545f8190036125c05750611e2b565b5f6125c96121cd565b9050818110156125e7576125e56125e082846143d6565b6138f4565b505b5f6125f06121cd565b90505f8382106126005783612602565b815b905061260e81856143d6565b6007556008545f5461262d916001600160a01b039182169116836138c3565b6126356128cc565b6009556008546040518281526001600160a01b03909116907f9493e5bbe4e8e0ac67284469a2d677403d0378a85a59e341d3abc433d0d9a2099060200160405180910390a25050505050611e4260015f8051602061452383398151915255565b5f805160206144438339815191526126ac81612ef3565b6001600160a01b0386165f9081526004602052604090205460ff166126e457604051632df15a4160e11b815260040160405180910390fd5b6001600160a01b0386165f9081526003602052604081205460055490919061270c9088614419565b90505f5b60025481101561278d5782811415801561274f57506002818154811061273857612738614341565b5f91825260209091206004600590920201015460ff165b15612785576002818154811061276757612767614341565b905f5260205f20906005020160010154826127829190614419565b91505b600101612710565b506127108111156127b157604051631f15009160e11b815260040160405180910390fd5b86600283815481106127c5576127c5614341565b905f5260205f2090600502016001018190555085600283815481106127ec576127ec614341565b905f5260205f20906005020160020181905550846002838154811061281357612813614341565b905f5260205f20906005020160030181905550836002838154811061283a5761283a614341565b905f5260205f20906005020160040160016101000a81548160ff021916908315150217905550876001600160a01b03167fe2d9b7f1e07c794d9c19cb81343399f288c6d5a7ba85b73669b438836de8c2e38860405161289b91815260200190565b60405180910390a25050505050505050565b5f5f805160206144638339815191525b546001600160a01b0316919050565b5f806128d66121cd565b90505f5b6002548110156129ae57600281815481106128f7576128f7614341565b5f91825260209091206004600590920201015460ff16156129a6576002818154811061292557612925614341565b5f91825260209182902060059091020154604080516306a61f7560e51b815290516001600160a01b039092169263d4c3eea0926004808401938290030181865afa925050508015612993575060408051601f3d908101601f1916820190925261299091810190614355565b60015b156129a6576129a28184614419565b9250505b6001016128da565b50919050565b6129bd826110d7565b6129c681612ef3565b611113838361301f565b600281815481106129df575f80fd5b5f918252602090912060059091020180546001820154600283015460038401546004909401546001600160a01b0390931694509092909160ff8082169161010090041686565b5f80516020614543833981519152612a3c81612ef3565b5f5b600254811015612b905760028181548110612a5b57612a5b614341565b5f91825260209091206004600590920201015460ff1615612b88575f60028281548110612a8a57612a8a614341565b905f5260205f2090600502015f015f9054906101000a90046001600160a01b03169050806001600160a01b031663853828b66040518163ffffffff1660e01b81526004016020604051808303815f875af1925050508015612b08575060408051601f3d908101601f19168201909252612b0591810190614355565b60015b612b84573d808015612b35576040519150601f19603f3d011682016040523d82523d5f602084013e612b3a565b606091505b50816001600160a01b03167f57b4619e49aca895c9a58348cf426a29b8c67dbfbe0e07785d21b715658cdb905f83604051612b7692919061436c565b60405180910390a250612b86565b505b505b600101612a3e565b50612b996128cc565b6009557f99d7f8b71cfb9126984f7a5eed3a40e64a8959e9b0e442221546fb04ec6a489c612bc56121cd565b6040519081526020015b60405180910390a150565b5f80516020614463833981519152546001600160a01b03163314612c1157604051630e05f48560e11b815260040160405180910390fd5b610bb8811115612c345760405163176d057d60e11b815260040160405180910390fd5b600580549082905560408051828152602081018490527fa0e245298634d40c599ec17ea427d106a12b20c9766dd9a7fcc90ac00cb193689101611657565b5f6110c96128cc565b612c836131c8565b612c8b6131ff565b5f805160206144a3833981519152612ca281612ef3565b815f03612cc257604051631f2a200560e01b815260040160405180910390fd5b612cca613098565b5f612cd36121cd565b905082811015612cf6575f612ce882856143d6565b9050612cf3816138f4565b50505b5f612cff6121cd565b905083811015612d225760405163128bd24d60e31b815260040160405180910390fd5b5f54612d38906001600160a01b031686866138c3565b846001600160a01b03167f7084f5476618d8e60b11ef0d7d3f06914655adb8793e28ff7f018d4c76d505d585604051612d7391815260200190565b60405180910390a250505061158c60015f8051602061452383398151915255565b5f807ff0c57e16840df040f15088dc2f81fe391c3923bec73e23a9662efc9c229c6a00610add565b611e42613c31565b612dcc613c31565b611e42613c56565b6001600160a01b038116612dfb576040516350c0eb2960e11b815260040160405180910390fd5b5f8051602061446383398151915280546001600160a01b0319166001600160a01b03831690811782556040515f907fae97011a27b5efe7b1d76fe38e75cc498fd64cc24e407a9c6b2185d27f611f7e908290a35050565b5f5f805160206144c3833981519152612e6b8484612197565b612eea575f848152602082815260408083206001600160a01b03871684529091529020805460ff19166001179055612ea03390565b6001600160a01b0316836001600160a01b0316857f2f8788117e7eff1d82e926ec794901d17c78024a50270940304540a733656f0d60405160405180910390a46001915050610add565b5f915050610add565b6111a58133613c5e565b604080516001600160a01b038416602482015260448082018490528251808303909101815260649091019091526020810180516001600160e01b031663095ea7b360e01b179052612f4e8482613c97565b611113576040516001600160a01b0384811660248301525f6044830152612fb091869182169063095ea7b3906064015b604051602081830303815290604052915060e01b6020820180516001600160e01b038381831617835250505050613ce0565b6111138482613ce0565b5f80612fc46128cc565b90506009548111612fd757505060075490565b5f60095482612fe691906143d6565b90505f61271060065f015483612ffc91906143a0565b61300691906143b7565b600754909150613017908290614419565b935050505090565b5f5f805160206144c38339815191526130388484612197565b15612eea575f848152602082815260408083206001600160a01b0387168085529252808320805460ff1916905551339287917ff6391f5c32d9c69d2a47ea670b442974b53935d1edc7fd64eb21e047a839171b9190a46001915050610add565b610e10600a546130a89190614419565b4210156130b157565b5f6130ba6128cc565b90505f600954600c54116130d0576009546130d4565b600c545b905080821115613165575f6130e982846143d6565b90505f61271060065f0154836130ff91906143a0565b61310991906143b7565b90508060066001015f82825461311f9190614419565b9091555050600c84905560408051838152602081018390527f49086fb5fbe3012e87f1afd31e52bfcb81e75a7804f59744a6eee012b59cd0a0910160405180910390a150505b5060095542600a55565b613177613d4c565b5f805160206144e3833981519152805460ff191681557f5db9ee0a495bf2e6ff9c91a7834c1ba4fdd244a5e8aa4e537bd38aeae4b073aa335b6040516001600160a01b039091168152602001612bcf565b5f805160206145238339815191528054600119016131f957604051633ee5aeb560e01b815260040160405180910390fd5b60029055565b5f805160206144e38339815191525460ff1615611e425760405163d93c066560e01b815260040160405180910390fd5b6040516001600160a01b0384811660248301528381166044830152606482018390526111139186918216906323b872dd90608401612f7e565b60025460609067ffffffffffffffff8111156132865761328661413d565b6040519080825280602002602001820160405280156132af578160200160208202803683370190505b5090505f612710600554846132c491906143a0565b6132ce91906143b7565b90505f6132db82856143d6565b90505f805b60025481101561338957600281815481106132fd576132fd614341565b5f91825260209091206004600590920201015460ff16801561334b57506002818154811061332d5761332d614341565b905f5260205f20906005020160040160019054906101000a900460ff165b15613381576002818154811061336357613363614341565b905f5260205f209060050201600101548261337e9190614419565b91505b6001016132e0565b50805f0361339957505050919050565b5f5f19815b60025481101561341a57600281815481106133bb576133bb614341565b5f91825260209091206004600590920201015460ff1680156134095750600281815481106133eb576133eb614341565b905f5260205f20906005020160040160019054906101000a900460ff165b15613412578091505b60010161339e565b505f5b60025481101561368e576002818154811061343a5761343a614341565b5f91825260209091206004600590920201015460ff16158061348957506002818154811061346a5761346a614341565b905f5260205f20906005020160040160019054906101000a900460ff16155b613686575f8282036134a65761349f84876143d6565b90506134e2565b84600283815481106134ba576134ba614341565b905f5260205f20906005020160010154876134d591906143a0565b6134df91906143b7565b90505b8015613684576134f28185614419565b93505f6002838154811061350857613508614341565b5f918252602082206005909102015490546001600160a01b03918216925061353291168284612efd565b60405163b6b55f2560e01b8152600481018390526001600160a01b0382169063b6b55f25906024016020604051808303815f875af1925050508015613594575060408051601f3d908101601f1916820190925261359191810190614355565b60015b613648573d8080156135c1576040519150601f19603f3d011682016040523d82523d5f602084013e6135c6565b606091505b505f8a85815181106135da576135da614341565b60209081029190910101525f80546135ff916001600160a01b03909116908490612efd565b816001600160a01b03167f70a7bb346d6e67bc583bd557a8f610e563d78af302b6e62d1a2d074be1fa469a848360405161363a92919061436c565b60405180910390a250613682565b808a858151811061365b5761365b614341565b60209081029190910101525f8054613680916001600160a01b03909116908490612efd565b505b505b505b60010161341d565b505050505050919050565b60015f8051602061452383398151915255565b306001600160a01b037f000000000000000000000000000000000000000000000000000000000000000016148061371c57507f00000000000000000000000000000000000000000000000000000000000000006001600160a01b0316613710613d7b565b6001600160a01b031614155b15611e425760405163703e46dd60e11b815260040160405180910390fd5b5f80516020614463833981519152546001600160a01b031633146111a557604051630e05f48560e11b815260040160405180910390fd5b816001600160a01b03166352d1902d6040518163ffffffff1660e01b8152600401602060405180830381865afa9250505080156137cb575060408051601f3d908101601f191682019092526137c891810190614355565b60015b6137f857604051634c9c8ce360e01b81526001600160a01b03831660048201526024015b60405180910390fd5b5f80516020614483833981519152811461382857604051632a87526960e21b8152600481018290526024016137ef565b6111818383613d8f565b306001600160a01b037f00000000000000000000000000000000000000000000000000000000000000001614611e425760405163703e46dd60e11b815260040160405180910390fd5b6138836131ff565b5f805160206144e3833981519152805460ff191660011781557f62e78cea01bee320cd4e420270b5ea74000d11b0c9f74754ebdbfc544b05a258336131b0565b6040516001600160a01b0383811660248301526044820183905261118191859182169063a9059cbb90606401612f7e565b5f81815f19815b6002548110156139d2576002818154811061391857613918614341565b5f91825260209091206004600590920201015460ff16156139ca576002818154811061394657613946614341565b5f91825260209182902060059091020154604080516306a61f7560e51b815290516001600160a01b039092169263d4c3eea0926004808401938290030181865afa9250505080156139b4575060408051601f3d908101601f191682019092526139b191810190614355565b60015b156139ca576139c38185614419565b9350819250505b6001016138fb565b50815f036139e457505f949350505050565b5f5b600254811080156139f657505f84115b15613c285760028181548110613a0e57613a0e614341565b5f91825260209091206004600590920201015460ff1615613c16575f60028281548110613a3d57613a3d614341565b5f9182526020808320600590920290910154604080516306a61f7560e51b815290516001600160a01b039092169450849263d4c3eea0926004808401938290030181865afa925050508015613aaf575060408051601f3d908101601f19168201909252613aac91810190614355565b60015b613aba575050613c16565b9050805f03613aca575050613c16565b5f848403613ad9575085613af1565b85613ae4838b6143a0565b613aee91906143b7565b90505b86811115613afc5750855b81811115613b075750805b8015613c1257604051632e1a7d4d60e01b8152600481018290526001600160a01b03841690632e1a7d4d906024016020604051808303815f875af1925050508015613b6f575060408051601f3d908101601f19168201909252613b6c91810190614355565b60015b613beb573d808015613b9c576040519150601f19603f3d011682016040523d82523d5f602084013e613ba1565b606091505b50836001600160a01b03167f57b4619e49aca895c9a58348cf426a29b8c67dbfbe0e07785d21b715658cdb908383604051613bdd92919061436c565b60405180910390a250613c12565b613bf5818a614419565b9850808811613c04575f613c0e565b613c0e81896143d6565b9750505b5050505b80613c2081614401565b9150506139e6565b50505050919050565b613c39613de4565b611e4257604051631afcd79f60e31b815260040160405180910390fd5b613699613c31565b613c688282612197565b61158c5760405163e2517d3f60e01b81526001600160a01b0382166004820152602481018390526044016137ef565b5f805f8060205f8651602088015f8a5af192503d91505f519050828015613cd657508115613cc85780600114613cd6565b5f866001600160a01b03163b115b9695505050505050565b5f8060205f8451602086015f885af180613cff576040513d5f823e3d81fd5b50505f513d91508115613d16578060011415613d23565b6001600160a01b0384163b155b1561111357604051635274afe760e01b81526001600160a01b03851660048201526024016137ef565b5f805160206144e38339815191525460ff16611e4257604051638dfc202b60e01b815260040160405180910390fd5b5f5f805160206144838339815191526128bd565b613d9882613dfd565b6040516001600160a01b038316907fbc7cd75a20ee27fd9adebab32041f755214dbc6bffa90cc0225b39da2e5c2d3b905f90a2805115613ddc576111818282613e60565b61158c613ed2565b5f613ded612d94565b54600160401b900460ff16919050565b806001600160a01b03163b5f03613e3257604051634c9c8ce360e01b81526001600160a01b03821660048201526024016137ef565b5f8051602061448383398151915280546001600160a01b0319166001600160a01b0392909216919091179055565b60605f80846001600160a01b031684604051613e7c919061442c565b5f60405180830381855af49150503d805f8114613eb4576040519150601f19603f3d011682016040523d82523d5f602084013e613eb9565b606091505b5091509150613ec9858383613ef1565b95945050505050565b3415611e425760405163b398979f60e01b815260040160405180910390fd5b606082613f0657613f0182613f50565b613f49565b8151158015613f1d57506001600160a01b0384163b155b15613f4657604051639996b31560e01b81526001600160a01b03851660048201526024016137ef565b50805b9392505050565b805115613f5f57805160208201fd5b60405163d6bda27560e01b815260040160405180910390fd5b5f60208284031215613f88575f80fd5b81356001600160e01b031981168114613f49575f80fd5b80356001600160a01b0381168114611922575f80fd5b5f60208284031215613fc5575f80fd5b613f4982613f9f565b5f805f805f60a08688031215613fe2575f80fd5b613feb86613f9f565b9450613ff960208701613f9f565b935061400760408701613f9f565b925061401560608701613f9f565b915061402360808701613f9f565b90509295509295909350565b5f6020828403121561403f575f80fd5b5035919050565b5f8060408385031215614057575f80fd5b8235915061406760208401613f9f565b90509250929050565b5f8151808452602084019350602083015f5b828110156140a0578151865260209586019590910190600101614082565b5093949350505050565b606080825284519082018190525f9060208601906080840190835b818110156140ec5783516001600160a01b03168352602093840193909201916001016140c5565b505083810360208501526141008187614070565b9150508281036040840152613cd68185614070565b5f8060408385031215614126575f80fd5b61412f83613f9f565b946020939093013593505050565b634e487b7160e01b5f52604160045260245ffd5b5f8060408385031215614162575f80fd5b61416b83613f9f565b9150602083013567ffffffffffffffff811115614186575f80fd5b8301601f81018513614196575f80fd5b803567ffffffffffffffff8111156141b0576141b061413d565b604051601f8201601f19908116603f0116810167ffffffffffffffff811182821017156141df576141df61413d565b6040528181528282016020018710156141f6575f80fd5b816020840160208301375f602083830101528093505050509250929050565b602081525f613f496020830184614070565b5f805f805f60a0868803121561423b575f80fd5b61424486613f9f565b94506020860135935060408601359250606086013591506080860135801515811461426d575f80fd5b809150509295509295909350565b5f81518084528060208401602086015e5f602082860101526020601f19601f83011685010191505092915050565b602081525f613f49602083018461427b565b602080825282518282018190525f918401906040840190835b8181101561433657835180516001600160a01b0316845260208082015181860152604080830151908601526060808301519086015260808083015115159086015260a0918201511515918501919091529093019260c0909201916001016142d4565b509095945050505050565b634e487b7160e01b5f52603260045260245ffd5b5f60208284031215614365575f80fd5b5051919050565b828152604060208201525f614384604083018461427b565b949350505050565b634e487b7160e01b5f52601160045260245ffd5b8082028115828204841417610add57610add61438c565b5f826143d157634e487b7160e01b5f52601260045260245ffd5b500490565b81810381811115610add57610add61438c565b828152604060208201525f6143846040830184614070565b5f600182016144125761441261438c565b5060010190565b80820180821115610add57610add61438c565b5f82518060208501845e5f92019182525091905056fe68bf109b95a5c15fb2bb99041323c27d15f8675e11bf7420a1cd6ad64c394f4696ec2584f13cbcbf2926bb7c7d24b036ddd15a8842ae5726c96f4a4a3e97cc00360894a13ba1a3210667c828492db98dca3e2076cc3735a920a3ca505d382bbc31e0210044b4f6757ce6aa31f9c6e8d4896d24a755014887391a926c5224d95902dd7bc7dec4dceedda775e58dd541e08a116c6c53815c0bd028192f7b626800cd5ed15c6e187e77e9aee88184c21f4f2182ab5827cb3b7e07fbedcd63f0330017a8e30262c1f919c33056d877a3c22b95c2f5e4dac44683c1c2323cd79fbdb09b779b17422d0df92223018b32b4d1fa46e071723d6817e2486d003becc55f0055435dd261a4b9b3364963f7738a7a662ad9c84396d64be3365284bb7f0a5041a2646970667358221220883066eb061525863d7bf28740ca6cf98712fc201f28221780ea70e44af417fa64736f6c634300081a0033","linkReferences":{}},"methodIdentifiers":{"ALLOCATOR_ROLE()":"c81cbaa1","BPS()":"249d39e9","DEFAULT_ADMIN_ROLE()":"a217fddf","GUARDIAN_ROLE()":"24ea54f4","MAX_STRATEGIES()":"767f06ae","MIN_ACCRUAL_INTERVAL()":"1ef90fb0","STRATEGIST_ROLE()":"a378a324","UPGRADE_INTERFACE_VERSION()":"ad3cb1cc","VAULT_ROLE()":"98c4f1ac","accrueFees()":"37a4e834","addStrategy(address,uint256,uint256,uint256,bool)":"8d9e9012","asset()":"38d52e0f","availableReserves()":"1fa7c668","claimFees()":"d294f093","deposit(address,uint256)":"47e7ef24","depositFromVault(uint256)":"6edd9259","emergencyWithdrawAll()":"dd191719","fees()":"9af1d35a","getAllStrategies()":"c3b28864","getCurrentAllocations()":"41826c2d","getRoleAdmin(bytes32)":"248a9ca3","grantRole(bytes32,address)":"2f2ff15d","hasRole(bytes32,address)":"91d14854","initialize(address,address,address,address,address)":"1459457a","isStrategy(address)":"2e8ebaae","lastFeeAccrual()":"bc0bdf50","lastRecordedValue()":"4a165cd9","minAutoAllocateAmount()":"71841882","pause()":"8456cb59","paused()":"5c975abb","peakRecordedValue()":"aad93116","pendingFees()":"224438d1","proxiableUUID()":"52d1902d","rebalance()":"7d7c2a1c","recoverToken(address,uint256)":"b29a8140","removeStrategy(address)":"175188e8","renounceRole(bytes32,address)":"36568abe","reserveBalance()":"a10954fe","reserveBps()":"38925449","revokeRole(bytes32,address)":"d547741f","setFeeConfig(uint256,address)":"6468af34","setMinAutoAllocate(uint256)":"58c98c16","setReserveBps(uint256)":"e9308c25","setTimelock(address)":"bdacb303","setVault(address)":"6817031b","strategies(uint256)":"d574ea3d","strategyCount()":"22068b44","strategyIndex(address)":"11451526","supportsInterface(bytes4)":"01ffc9a7","targetReserve()":"cd33f2bd","timelock()":"d33219b4","totalBacking()":"eb2cd258","totalValue()":"d4c3eea0","totalValueNet()":"34365d9a","unpause()":"3f4ba83a","updateStrategy(address,uint256,uint256,uint256,bool)":"d2d4b36b","upgradeToAndCall(address,bytes)":"4f1ef286","vault()":"fbfa77cf","withdraw(address,uint256)":"f3fef3a3","withdrawToVault(uint256)":"ce8c42e8"}}}}}