{"abi":[{"type":"constructor","inputs":[],"stateMutability":"nonpayable"},{"type":"function","name":"BPS","inputs":[],"outputs":[{"name":"","type":"uint256","internalType":"uint256"}],"stateMutability":"view"},{"type":"function","name":"DEFAULT_ADMIN_ROLE","inputs":[],"outputs":[{"name":"","type":"bytes32","internalType":"bytes32"}],"stateMutability":"view"},{"type":"function","name":"GUARDIAN_ROLE","inputs":[],"outputs":[{"name":"","type":"bytes32","internalType":"bytes32"}],"stateMutability":"view"},{"type":"function","name":"SCALING_FACTOR","inputs":[],"outputs":[{"name":"","type":"uint256","internalType":"uint256"}],"stateMutability":"view"},{"type":"function","name":"STRATEGIST_ROLE","inputs":[],"outputs":[{"name":"","type":"bytes32","internalType":"bytes32"}],"stateMutability":"view"},{"type":"function","name":"TREASURY_ROLE","inputs":[],"outputs":[{"name":"","type":"bytes32","internalType":"bytes32"}],"stateMutability":"view"},{"type":"function","name":"UPGRADE_DELAY","inputs":[],"outputs":[{"name":"","type":"uint256","internalType":"uint256"}],"stateMutability":"view"},{"type":"function","name":"UPGRADE_INTERFACE_VERSION","inputs":[],"outputs":[{"name":"","type":"string","internalType":"string"}],"stateMutability":"view"},{"type":"function","name":"USDC_DECIMALS","inputs":[],"outputs":[{"name":"","type":"uint256","internalType":"uint256"}],"stateMutability":"view"},{"type":"function","name":"USDS_DECIMALS","inputs":[],"outputs":[{"name":"","type":"uint256","internalType":"uint256"}],"stateMutability":"view"},{"type":"function","name":"activate","inputs":[],"outputs":[],"stateMutability":"nonpayable"},{"type":"function","name":"active","inputs":[],"outputs":[{"name":"","type":"bool","internalType":"bool"}],"stateMutability":"view"},{"type":"function","name":"asset","inputs":[],"outputs":[{"name":"","type":"address","internalType":"address"}],"stateMutability":"view"},{"type":"function","name":"cancelUpgrade","inputs":[],"outputs":[],"stateMutability":"nonpayable"},{"type":"function","name":"deactivate","inputs":[],"outputs":[],"stateMutability":"nonpayable"},{"type":"function","name":"deposit","inputs":[{"name":"amount","type":"uint256","internalType":"uint256"}],"outputs":[{"name":"deposited","type":"uint256","internalType":"uint256"}],"stateMutability":"nonpayable"},{"type":"function","name":"emergencyWithdraw","inputs":[{"name":"recipient","type":"address","internalType":"address"}],"outputs":[],"stateMutability":"nonpayable"},{"type":"function","name":"estimatedAPY","inputs":[],"outputs":[{"name":"","type":"uint256","internalType":"uint256"}],"stateMutability":"view"},{"type":"function","name":"getRoleAdmin","inputs":[{"name":"role","type":"bytes32","internalType":"bytes32"}],"outputs":[{"name":"","type":"bytes32","internalType":"bytes32"}],"stateMutability":"view"},{"type":"function","name":"grantRole","inputs":[{"name":"role","type":"bytes32","internalType":"bytes32"},{"name":"account","type":"address","internalType":"address"}],"outputs":[],"stateMutability":"nonpayable"},{"type":"function","name":"hasRole","inputs":[{"name":"role","type":"bytes32","internalType":"bytes32"},{"name":"account","type":"address","internalType":"address"}],"outputs":[{"name":"","type":"bool","internalType":"bool"}],"stateMutability":"view"},{"type":"function","name":"initialize","inputs":[{"name":"_usdc","type":"address","internalType":"address"},{"name":"_usds","type":"address","internalType":"address"},{"name":"_psm","type":"address","internalType":"address"},{"name":"_sUsdsVault","type":"address","internalType":"address"},{"name":"_treasury","type":"address","internalType":"address"},{"name":"_admin","type":"address","internalType":"address"}],"outputs":[],"stateMutability":"nonpayable"},{"type":"function","name":"isActive","inputs":[],"outputs":[{"name":"","type":"bool","internalType":"bool"}],"stateMutability":"view"},{"type":"function","name":"maxDepositAmount","inputs":[],"outputs":[{"name":"","type":"uint256","internalType":"uint256"}],"stateMutability":"view"},{"type":"function","name":"maxTotalValue","inputs":[],"outputs":[{"name":"","type":"uint256","internalType":"uint256"}],"stateMutability":"view"},{"type":"function","name":"minDepositAmount","inputs":[],"outputs":[{"name":"","type":"uint256","internalType":"uint256"}],"stateMutability":"view"},{"type":"function","name":"pause","inputs":[],"outputs":[],"stateMutability":"nonpayable"},{"type":"function","name":"paused","inputs":[],"outputs":[{"name":"","type":"bool","internalType":"bool"}],"stateMutability":"view"},{"type":"function","name":"pendingImplementation","inputs":[],"outputs":[{"name":"","type":"address","internalType":"address"}],"stateMutability":"view"},{"type":"function","name":"proxiableUUID","inputs":[],"outputs":[{"name":"","type":"bytes32","internalType":"bytes32"}],"stateMutability":"view"},{"type":"function","name":"psm","inputs":[],"outputs":[{"name":"","type":"address","internalType":"contract ISkyPSM"}],"stateMutability":"view"},{"type":"function","name":"psmEntryFee","inputs":[],"outputs":[{"name":"","type":"uint256","internalType":"uint256"}],"stateMutability":"view"},{"type":"function","name":"psmExitFee","inputs":[],"outputs":[{"name":"","type":"uint256","internalType":"uint256"}],"stateMutability":"view"},{"type":"function","name":"renounceRole","inputs":[{"name":"role","type":"bytes32","internalType":"bytes32"},{"name":"callerConfirmation","type":"address","internalType":"address"}],"outputs":[],"stateMutability":"nonpayable"},{"type":"function","name":"requestUpgrade","inputs":[{"name":"newImplementation","type":"address","internalType":"address"}],"outputs":[],"stateMutability":"nonpayable"},{"type":"function","name":"rescueToken","inputs":[{"name":"token","type":"address","internalType":"address"},{"name":"to","type":"address","internalType":"address"},{"name":"amount","type":"uint256","internalType":"uint256"}],"outputs":[],"stateMutability":"nonpayable"},{"type":"function","name":"revokeRole","inputs":[{"name":"role","type":"bytes32","internalType":"bytes32"},{"name":"account","type":"address","internalType":"address"}],"outputs":[],"stateMutability":"nonpayable"},{"type":"function","name":"sUsdsVault","inputs":[],"outputs":[{"name":"","type":"address","internalType":"contract ISUSDSVault"}],"stateMutability":"view"},{"type":"function","name":"setMaxDepositAmount","inputs":[{"name":"_max","type":"uint256","internalType":"uint256"}],"outputs":[],"stateMutability":"nonpayable"},{"type":"function","name":"setMaxTotalValue","inputs":[{"name":"_max","type":"uint256","internalType":"uint256"}],"outputs":[],"stateMutability":"nonpayable"},{"type":"function","name":"setMinDepositAmount","inputs":[{"name":"_min","type":"uint256","internalType":"uint256"}],"outputs":[],"stateMutability":"nonpayable"},{"type":"function","name":"setSlippageTolerance","inputs":[{"name":"_bps","type":"uint256","internalType":"uint256"}],"outputs":[],"stateMutability":"nonpayable"},{"type":"function","name":"sharesHeld","inputs":[],"outputs":[{"name":"","type":"uint256","internalType":"uint256"}],"stateMutability":"view"},{"type":"function","name":"slippageToleranceBps","inputs":[],"outputs":[{"name":"","type":"uint256","internalType":"uint256"}],"stateMutability":"view"},{"type":"function","name":"supportsInterface","inputs":[{"name":"interfaceId","type":"bytes4","internalType":"bytes4"}],"outputs":[{"name":"","type":"bool","internalType":"bool"}],"stateMutability":"view"},{"type":"function","name":"totalPrincipal","inputs":[],"outputs":[{"name":"","type":"uint256","internalType":"uint256"}],"stateMutability":"view"},{"type":"function","name":"totalValue","inputs":[],"outputs":[{"name":"","type":"uint256","internalType":"uint256"}],"stateMutability":"view"},{"type":"function","name":"unpause","inputs":[],"outputs":[],"stateMutability":"nonpayable"},{"type":"function","name":"unrealizedPnL","inputs":[],"outputs":[{"name":"","type":"int256","internalType":"int256"}],"stateMutability":"view"},{"type":"function","name":"upgradeRequestTime","inputs":[],"outputs":[{"name":"","type":"uint256","internalType":"uint256"}],"stateMutability":"view"},{"type":"function","name":"upgradeToAndCall","inputs":[{"name":"newImplementation","type":"address","internalType":"address"},{"name":"data","type":"bytes","internalType":"bytes"}],"outputs":[],"stateMutability":"payable"},{"type":"function","name":"usdc","inputs":[],"outputs":[{"name":"","type":"address","internalType":"contract IERC20"}],"stateMutability":"view"},{"type":"function","name":"usds","inputs":[],"outputs":[{"name":"","type":"address","internalType":"contract IERC20"}],"stateMutability":"view"},{"type":"function","name":"withdraw","inputs":[{"name":"amount","type":"uint256","internalType":"uint256"}],"outputs":[{"name":"withdrawn","type":"uint256","internalType":"uint256"}],"stateMutability":"nonpayable"},{"type":"function","name":"withdrawAll","inputs":[],"outputs":[{"name":"withdrawn","type":"uint256","internalType":"uint256"}],"stateMutability":"nonpayable"},{"type":"event","name":"Deposited","inputs":[{"name":"caller","type":"address","indexed":true,"internalType":"address"},{"name":"usdcAmount","type":"uint256","indexed":false,"internalType":"uint256"},{"name":"usdsConverted","type":"uint256","indexed":false,"internalType":"uint256"},{"name":"sharesReceived","type":"uint256","indexed":false,"internalType":"uint256"}],"anonymous":false},{"type":"event","name":"EmergencyWithdraw","inputs":[{"name":"guardian","type":"address","indexed":true,"internalType":"address"},{"name":"usdcRecovered","type":"uint256","indexed":false,"internalType":"uint256"}],"anonymous":false},{"type":"event","name":"Initialized","inputs":[{"name":"version","type":"uint64","indexed":false,"internalType":"uint64"}],"anonymous":false},{"type":"event","name":"MaxDepositUpdated","inputs":[{"name":"newMax","type":"uint256","indexed":false,"internalType":"uint256"}],"anonymous":false},{"type":"event","name":"MaxTotalValueUpdated","inputs":[{"name":"newMax","type":"uint256","indexed":false,"internalType":"uint256"}],"anonymous":false},{"type":"event","name":"MinDepositUpdated","inputs":[{"name":"newMin","type":"uint256","indexed":false,"internalType":"uint256"}],"anonymous":false},{"type":"event","name":"Paused","inputs":[{"name":"account","type":"address","indexed":false,"internalType":"address"}],"anonymous":false},{"type":"event","name":"RoleAdminChanged","inputs":[{"name":"role","type":"bytes32","indexed":true,"internalType":"bytes32"},{"name":"previousAdminRole","type":"bytes32","indexed":true,"internalType":"bytes32"},{"name":"newAdminRole","type":"bytes32","indexed":true,"internalType":"bytes32"}],"anonymous":false},{"type":"event","name":"RoleGranted","inputs":[{"name":"role","type":"bytes32","indexed":true,"internalType":"bytes32"},{"name":"account","type":"address","indexed":true,"internalType":"address"},{"name":"sender","type":"address","indexed":true,"internalType":"address"}],"anonymous":false},{"type":"event","name":"RoleRevoked","inputs":[{"name":"role","type":"bytes32","indexed":true,"internalType":"bytes32"},{"name":"account","type":"address","indexed":true,"internalType":"address"},{"name":"sender","type":"address","indexed":true,"internalType":"address"}],"anonymous":false},{"type":"event","name":"SlippageUpdated","inputs":[{"name":"newBps","type":"uint256","indexed":false,"internalType":"uint256"}],"anonymous":false},{"type":"event","name":"StrategyActivated","inputs":[],"anonymous":false},{"type":"event","name":"StrategyDeactivated","inputs":[],"anonymous":false},{"type":"event","name":"Unpaused","inputs":[{"name":"account","type":"address","indexed":false,"internalType":"address"}],"anonymous":false},{"type":"event","name":"UpgradeCancelled","inputs":[{"name":"cancelledImplementation","type":"address","indexed":true,"internalType":"address"}],"anonymous":false},{"type":"event","name":"UpgradeRequested","inputs":[{"name":"newImplementation","type":"address","indexed":true,"internalType":"address"},{"name":"executeAfter","type":"uint256","indexed":false,"internalType":"uint256"}],"anonymous":false},{"type":"event","name":"Upgraded","inputs":[{"name":"implementation","type":"address","indexed":true,"internalType":"address"}],"anonymous":false},{"type":"event","name":"Withdrawn","inputs":[{"name":"caller","type":"address","indexed":true,"internalType":"address"},{"name":"sharesRedeemed","type":"uint256","indexed":false,"internalType":"uint256"},{"name":"usdsReceived","type":"uint256","indexed":false,"internalType":"uint256"},{"name":"usdcReturned","type":"uint256","indexed":false,"internalType":"uint256"}],"anonymous":false},{"type":"event","name":"WithdrawnAll","inputs":[{"name":"caller","type":"address","indexed":true,"internalType":"address"},{"name":"totalUsdcReturned","type":"uint256","indexed":false,"internalType":"uint256"}],"anonymous":false},{"type":"error","name":"AccessControlBadConfirmation","inputs":[]},{"type":"error","name":"AccessControlUnauthorizedAccount","inputs":[{"name":"account","type":"address","internalType":"address"},{"name":"neededRole","type":"bytes32","internalType":"bytes32"}]},{"type":"error","name":"AddressEmptyCode","inputs":[{"name":"target","type":"address","internalType":"address"}]},{"type":"error","name":"BelowMinDeposit","inputs":[{"name":"amount","type":"uint256","internalType":"uint256"},{"name":"minimum","type":"uint256","internalType":"uint256"}]},{"type":"error","name":"ERC1967InvalidImplementation","inputs":[{"name":"implementation","type":"address","internalType":"address"}]},{"type":"error","name":"ERC1967NonPayable","inputs":[]},{"type":"error","name":"EnforcedPause","inputs":[]},{"type":"error","name":"ExceedsMaxDeposit","inputs":[{"name":"amount","type":"uint256","internalType":"uint256"},{"name":"maximum","type":"uint256","internalType":"uint256"}]},{"type":"error","name":"ExceedsMaxTotalValue","inputs":[{"name":"newTotal","type":"uint256","internalType":"uint256"},{"name":"maximum","type":"uint256","internalType":"uint256"}]},{"type":"error","name":"ExpectedPause","inputs":[]},{"type":"error","name":"FailedCall","inputs":[]},{"type":"error","name":"InsufficientBalance","inputs":[{"name":"requested","type":"uint256","internalType":"uint256"},{"name":"available","type":"uint256","internalType":"uint256"}]},{"type":"error","name":"InvalidInitialization","inputs":[]},{"type":"error","name":"InvalidSlippage","inputs":[]},{"type":"error","name":"NotInitializing","inputs":[]},{"type":"error","name":"PSMConversionFailed","inputs":[]},{"type":"error","name":"ReentrancyGuardReentrantCall","inputs":[]},{"type":"error","name":"SafeERC20FailedOperation","inputs":[{"name":"token","type":"address","internalType":"address"}]},{"type":"error","name":"SlippageExceeded","inputs":[{"name":"expected","type":"uint256","internalType":"uint256"},{"name":"actual","type":"uint256","internalType":"uint256"}]},{"type":"error","name":"StrategyInactive","inputs":[]},{"type":"error","name":"UUPSUnauthorizedCallContext","inputs":[]},{"type":"error","name":"UUPSUnsupportedProxiableUUID","inputs":[{"name":"slot","type":"bytes32","internalType":"bytes32"}]},{"type":"error","name":"ZeroAmount","inputs":[]}],"bytecode":{"object":"0x60a060405230608052348015610013575f80fd5b5061001c610021565b6100d3565b7ff0c57e16840df040f15088dc2f81fe391c3923bec73e23a9662efc9c229c6a00805468010000000000000000900460ff16156100715760405163f92ee8a960e01b815260040160405180910390fd5b80546001600160401b03908116146100d05780546001600160401b0319166001600160401b0390811782556040519081527fc7f505b2f371ae2175ee4913f4499e1f2633a7b5936321eed1cdaeb6115181d29060200160405180910390a15b50565b60805161350f6100f95f395f8181612a2b01528181612a540152612c64015261350f5ff3fe608060405260043610610341575f3560e01c80635c975abb116101bd578063ac9e42c1116100f2578063d4c3eea011610092578063e5711e8b1161006d578063e5711e8b146108cf578063ef4cadc5146108ee578063f19993d714610906578063f82a3d6f1461091a575f80fd5b8063d4c3eea014610888578063d547741f1461089c578063e4aadf9f146108bb575f80fd5b8063c1419def116100cd578063c1419def14610816578063c4511c6a1461082a578063cc2a9a5b14610849578063d11a57ec14610868575f80fd5b8063ac9e42c1146107a5578063ad3cb1cc146107ba578063b6b55f25146107f7575f80fd5b80638ed832711161015d5780639790782711610138578063979078271461074a578063a217fddf1461075e578063a378a32414610771578063a74456ba14610791575f80fd5b80638ed832711461070257806391d1485414610717578063942f3a2d14610736575f80fd5b80636ff1c9bc116101985780636ff1c9bc1461069c57806375bd2f41146106bb5780638456cb59146106da578063853828b6146106ee575f80fd5b80635c975abb14610645578063645006ca146106685780636b9f97ef1461067d575f80fd5b80632f2ff15d1161029357806347fe8b1d116102335780634f1ef2861161020e5780634f1ef286146105f657806351b42b001461060957806352d1902d1461061d57806355f2916614610631575f80fd5b806347fe8b1d146105ac5780634b1533b2146105c25780634cf282fb146105d7575f80fd5b8063396f7b231161026e578063396f7b231461053c5780633e413bee1461055b5780633f4ba83a146105795780633f7b7d411461058d575f80fd5b80632f2ff15d146104e257806336568abe1461050157806338d52e0f14610520575f80fd5b8063117da1ee116102fe578063249d39e9116102d9578063249d39e91461046f57806324ea54f4146104845780632a80cda3146104a45780632e1a7d4d146104c3575f80fd5b8063117da1ee1461041d57806322f3e2d41461043c578063248a9ca314610450575f80fd5b806301ffc9a71461034557806302fb0c5e1461037957806304bda26214610399578063070cc3f0146103d05780630995fed2146103f35780630f15f4c014610407575b5f80fd5b348015610350575f80fd5b5061036461035f3660046130bc565b61092f565b60405190151581526020015b60405180910390f35b348015610384575f80fd5b5060035461036490600160a01b900460ff1681565b3480156103a4575f80fd5b506002546103b8906001600160a01b031681565b6040516001600160a01b039091168152602001610370565b3480156103db575f80fd5b506103e560085481565b604051908152602001610370565b3480156103fe575f80fd5b506103e5601281565b348015610412575f80fd5b5061041b610965565b005b348015610428575f80fd5b5061041b6104373660046130e3565b6109ba565b348015610447575f80fd5b50610364610a31565b34801561045b575f80fd5b506103e561046a3660046130e3565b610a60565b34801561047a575f80fd5b506103e561271081565b34801561048f575f80fd5b506103e55f805160206134ba83398151915281565b3480156104af575f80fd5b5061041b6104be3660046130e3565b610a80565b3480156104ce575f80fd5b506103e56104dd3660046130e3565b610acc565b3480156104ed575f80fd5b5061041b6104fc36600461310e565b610f61565b34801561050c575f80fd5b5061041b61051b36600461310e565b610f83565b34801561052b575f80fd5b505f546001600160a01b03166103b8565b348015610547575f80fd5b506009546103b8906001600160a01b031681565b348015610566575f80fd5b505f546103b8906001600160a01b031681565b348015610584575f80fd5b5061041b610fbb565b348015610598575f80fd5b506003546103b8906001600160a01b031681565b3480156105b7575f80fd5b506103e56202a30081565b3480156105cd575f80fd5b506103e560045481565b3480156105e2575f80fd5b506001546103b8906001600160a01b031681565b61041b610604366004613150565b610fd0565b348015610614575f80fd5b5061041b610fef565b348015610628575f80fd5b506103e561103e565b34801561063c575f80fd5b5061041b61105a565b348015610650575f80fd5b505f8051602061343a8339815191525460ff16610364565b348015610673575f80fd5b506103e560065481565b348015610688575f80fd5b5061041b610697366004613216565b6110b4565b3480156106a7575f80fd5b5061041b6106b6366004613216565b6111ca565b3480156106c6575f80fd5b5061041b6106d53660046130e3565b61160f565b3480156106e5575f80fd5b5061041b61165b565b3480156106f9575f80fd5b506103e561167a565b34801561070d575f80fd5b506103e560055481565b348015610722575f80fd5b5061036461073136600461310e565b611a35565b348015610741575f80fd5b506103e5611a6b565b348015610755575f80fd5b506103e5611ad6565b348015610769575f80fd5b506103e55f81565b34801561077c575f80fd5b506103e55f8051602061345a83398151915281565b34801561079c575f80fd5b506103e5611b1c565b3480156107b0575f80fd5b506103e5600a5481565b3480156107c5575f80fd5b506107ea604051806040016040528060058152602001640352e302e360dc1b81525081565b6040516103709190613231565b348015610802575f80fd5b506103e56108113660046130e3565b611b32565b348015610821575f80fd5b506103e5600681565b348015610835575f80fd5b5061041b6108443660046130e3565b611f4d565b348015610854575f80fd5b5061041b610863366004613266565b611f99565b348015610873575f80fd5b506103e55f8051602061349a83398151915281565b348015610893575f80fd5b506103e56123af565b3480156108a7575f80fd5b5061041b6108b636600461310e565b612524565b3480156108c6575f80fd5b506103e5612540565b3480156108da575f80fd5b5061041b6108e93660046132e4565b612587565b3480156108f9575f80fd5b506103e564e8d4a5100081565b348015610911575f80fd5b506103e561269e565b348015610925575f80fd5b506103e560075481565b5f6001600160e01b03198216637965db0b60e01b148061095f57506301ffc9a760e01b6001600160e01b03198316145b92915050565b5f8051602061345a83398151915261097c8161275e565b6003805460ff60a01b1916600160a01b1790556040517fa98c47488148c55093b50be14063fbdb84fa17d2c7fa81584964d8c74679005e905f90a150565b5f8051602061345a8339815191526109d18161275e565b6101f48211156109f45760405163334ee9a160e01b815260040160405180910390fd5b60088290556040518281527ff5a802650e0a86db227cc342f06327d2ca0ff5cf2b12e0084fc5d8a7db2c54fd906020015b60405180910390a15050565b6003545f90600160a01b900460ff168015610a5b57505f8051602061343a8339815191525460ff16155b905090565b5f9081525f8051602061341a833981519152602052604090206001015490565b5f8051602061345a833981519152610a978161275e565b60068290556040518281527f96a008f96f1c0ab9fa3d9ddd43cdfc614848c4d054d51f43662ed900e9d094c890602001610a25565b5f610ad5612768565b815f03610af557604051631f2a200560e01b815260040160405180910390fd5b610b0b5f8051602061349a83398151915261275e565b5f610b1b64e8d4a5100084613336565b6003546040516363737ac960e11b8152600481018390529192505f916001600160a01b039091169063c6e6f59290602401602060405180830381865afa158015610b67573d5f803e3d5ffd5b505050506040513d601f19601f82011682018060405250810190610b8b919061334d565b6003546040516370a0823160e01b81523060048201529192505f916001600160a01b03909116906370a0823190602401602060405180830381865afa158015610bd6573d5f803e3d5ffd5b505050506040513d601f19601f82011682018060405250810190610bfa919061334d565b905080821115610c08578091505b600354604051635d043b2960e11b815260048101849052306024820181905260448201525f916001600160a01b03169063ba087652906064016020604051808303815f875af1158015610c5d573d5f803e3d5ffd5b505050506040513d601f19601f82011682018060405250810190610c81919061334d565b90505f60025f9054906101000a90046001600160a01b03166001600160a01b031663fae036d56040518163ffffffff1660e01b8152600401602060405180830381865afa158015610cd4573d5f803e3d5ffd5b505050506040513d601f19601f82011682018060405250810190610cf8919061334d565b90505f8115610d4557610d1382670de0b6b3a7640000613364565b610d229064e8d4a51000613336565b610d3484670de0b6b3a7640000613336565b610d3e9190613377565b9050610d57565b610d5464e8d4a5100084613377565b90505b600254600154610d74916001600160a01b0391821691168561279f565b5f80546040516370a0823160e01b81523060048201526001600160a01b03909116906370a0823190602401602060405180830381865afa158015610dba573d5f803e3d5ffd5b505050506040513d601f19601f82011682018060405250810190610dde919061334d565b600254604051638d7ef9bb60e01b8152306004820152602481018590529192506001600160a01b031690638d7ef9bb906044015f604051808303815f87803b158015610e28575f80fd5b505af1158015610e3a573d5f803e3d5ffd5b50505f80546040516370a0823160e01b81523060048201529193508492506001600160a01b0316906370a0823190602401602060405180830381865afa158015610e86573d5f803e3d5ffd5b505050506040513d601f19601f82011682018060405250810190610eaa919061334d565b610eb49190613396565b5f54909150610ecd906001600160a01b0316338361285c565b6004548110610edf575f600455610ef6565b8060045f828254610ef09190613396565b90915550505b6040805188815260208101879052908101829052909850889033907f75e161b3e824b114fc1a33274bd7091918dd4e639cede50b78b15a4eea956a219060600160405180910390a25050505050505050610f5c60015f8051602061347a83398151915255565b919050565b610f6a82610a60565b610f738161275e565b610f7d83836128a0565b50505050565b6001600160a01b0381163314610fac5760405163334bd91960e11b815260040160405180910390fd5b610fb68282612948565b505050565b5f610fc58161275e565b610fcd6129c1565b50565b610fd8612a20565b610fe182612ac6565b610feb8282612b9d565b5050565b5f8051602061345a8339815191526110068161275e565b6003805460ff60a01b191690556040517ff82141db4260bd315c4143a3791ae7d00593cc834891fadde268d54e2da75c34905f90a150565b5f611047612c59565b505f805160206133fa8339815191525b90565b5f6110648161275e565b600980546001600160a01b031981169091555f600a8190556040516001600160a01b039092169182917f3198dc80249fcfedbd0d06e1ff49a7695a51b006592328ce0b127cdeab77e93691a25050565b5f6110be8161275e565b6001600160a01b0382166111085760405162461bcd60e51b815260206004820152600c60248201526b5a45524f5f4144445245535360a01b60448201526064015b60405180910390fd5b6009546001600160a01b0316156111615760405162461bcd60e51b815260206004820152601760248201527f555047524144455f414c52454144595f50454e44494e4700000000000000000060448201526064016110ff565b600980546001600160a01b0319166001600160a01b03841690811790915542600a8190557f7d4df661563fb5b6b245267960bdc1f0ce81d7027ea6996f19718930dc3cf537906111b5906202a30090613364565b60405190815260200160405180910390a25050565b5f805160206134ba8339815191526111e18161275e565b6001600160a01b0382166112285760405162461bcd60e51b815260206004820152600e60248201526d16995c9bc81c9958da5c1a595b9d60921b60448201526064016110ff565b61123f5f8051602061349a83398151915283611a35565b61128b5760405162461bcd60e51b815260206004820152601a60248201527f524543495049454e545f4d5553545f42455f545245415355525900000000000060448201526064016110ff565b6003546040516370a0823160e01b81523060048201525f916001600160a01b0316906370a0823190602401602060405180830381865afa1580156112d1573d5f803e3d5ffd5b505050506040513d601f19601f820116820180604052508101906112f5919061334d565b9050801561137857600354604051635d043b2960e11b815260048101839052306024820181905260448201526001600160a01b039091169063ba087652906064016020604051808303815f875af1158015611352573d5f803e3d5ffd5b505050506040513d601f19601f82011682018060405250810190611376919061334d565b505b6001546040516370a0823160e01b81523060048201525f916001600160a01b0316906370a0823190602401602060405180830381865afa1580156113be573d5f803e3d5ffd5b505050506040513d601f19601f820116820180604052508101906113e2919061334d565b9050801561153a576002546040805163fae036d560e01b815290515f926001600160a01b03169163fae036d59160048083019260209291908290030181865afa158015611431573d5f803e3d5ffd5b505050506040513d601f19601f82011682018060405250810190611455919061334d565b90505f81156114a25761147082670de0b6b3a7640000613364565b61147f9064e8d4a51000613336565b61149184670de0b6b3a7640000613336565b61149b9190613377565b90506114b4565b6114b164e8d4a5100084613377565b90505b8015611537576002546001546114d7916001600160a01b0391821691168561279f565b600254604051638d7ef9bb60e01b8152306004820152602481018390526001600160a01b0390911690638d7ef9bb906044015f604051808303815f87803b158015611520575f80fd5b505af1158015611532573d5f803e3d5ffd5b505050505b50505b5f80546040516370a0823160e01b81523060048201526001600160a01b03909116906370a0823190602401602060405180830381865afa158015611580573d5f803e3d5ffd5b505050506040513d601f19601f820116820180604052508101906115a4919061334d565b905080156115c2575f546115c2906001600160a01b0316868361285c565b5f6004556003805460ff60a01b1916905560405181815233907f5fafa99d0643513820be26656b45130b01e1c03062e1266bf36f88cbd3bd96959060200160405180910390a25050505050565b5f8051602061345a8339815191526116268161275e565b60078290556040518281527f56a8aeedfcce401fe762e9e9548239a538fec19a0248bb57f0abc0418b37578090602001610a25565b5f805160206134ba8339815191526116728161275e565b610fcd612ca2565b5f611683612768565b6116995f8051602061349a83398151915261275e565b6003546040516370a0823160e01b81523060048201525f916001600160a01b0316906370a0823190602401602060405180830381865afa1580156116df573d5f803e3d5ffd5b505050506040513d601f19601f82011682018060405250810190611703919061334d565b9050805f03611715575f915050611a1f565b600354604051635d043b2960e11b815260048101839052306024820181905260448201525f916001600160a01b03169063ba087652906064016020604051808303815f875af115801561176a573d5f803e3d5ffd5b505050506040513d601f19601f8201168201806040525081019061178e919061334d565b90505f60025f9054906101000a90046001600160a01b03166001600160a01b031663fae036d56040518163ffffffff1660e01b8152600401602060405180830381865afa1580156117e1573d5f803e3d5ffd5b505050506040513d601f19601f82011682018060405250810190611805919061334d565b90505f81156118525761182082670de0b6b3a7640000613364565b61182f9064e8d4a51000613336565b61184184670de0b6b3a7640000613336565b61184b9190613377565b9050611864565b61186164e8d4a5100084613377565b90505b600254600154611881916001600160a01b0391821691168561279f565b5f80546040516370a0823160e01b81523060048201526001600160a01b03909116906370a0823190602401602060405180830381865afa1580156118c7573d5f803e3d5ffd5b505050506040513d601f19601f820116820180604052508101906118eb919061334d565b600254604051638d7ef9bb60e01b8152306004820152602481018590529192506001600160a01b031690638d7ef9bb906044015f604051808303815f87803b158015611935575f80fd5b505af1158015611947573d5f803e3d5ffd5b50505f80546040516370a0823160e01b81523060048201529193508492506001600160a01b0316906370a0823190602401602060405180830381865afa158015611993573d5f803e3d5ffd5b505050506040513d601f19601f820116820180604052508101906119b7919061334d565b6119c19190613396565b5f549091506119da906001600160a01b0316338361285c565b5f600455604051818152909650869033907f9acea1e63773c1b36db05fe8c8a86c1c1324ddd077d7a891e981b51d704919069060200160405180910390a25050505050505b61105760015f8051602061347a83398151915255565b5f9182525f8051602061341a833981519152602090815260408084206001600160a01b0393909316845291905290205460ff1690565b6002546040805163fae036d560e01b815290515f926001600160a01b03169163fae036d59160048083019260209291908290030181865afa158015611ab2573d5f803e3d5ffd5b505050506040513d601f19601f82011682018060405250810190610a5b919061334d565b6003546040516370a0823160e01b81523060048201525f916001600160a01b0316906370a0823190602401602060405180830381865afa158015611ab2573d5f803e3d5ffd5b5f600454611b286123af565b610a5b91906133a9565b5f611b3b612768565b611b43612cea565b600354600160a01b900460ff16611b6d57604051630baddc3d60e11b815260040160405180910390fd5b815f03611b8d57604051631f2a200560e01b815260040160405180910390fd5b600654821015611bbe57600654604051630133e63160e11b81526110ff918491600401918252602082015260400190565b5f600554118015611bd0575060055482115b15611bfc57600554604051637806787760e11b81526110ff918491600401918252602082015260400190565b5f82611c066123af565b611c109190613364565b90505f600754118015611c24575060075481115b15611c5057600754604051632805bd1560e01b81526110ff918391600401918252602082015260400190565b611c665f8051602061349a83398151915261275e565b5f54611c7d906001600160a01b0316333086612d1a565b6002545f54611c99916001600160a01b0391821691168561279f565b6001546040516370a0823160e01b81523060048201525f916001600160a01b0316906370a0823190602401602060405180830381865afa158015611cdf573d5f803e3d5ffd5b505050506040513d601f19601f82011682018060405250810190611d03919061334d565b600254604051634acc893b60e11b8152306004820152602481018790529192506001600160a01b0316906395991276906044015f604051808303815f87803b158015611d4d575f80fd5b505af1158015611d5f573d5f803e3d5ffd5b50506001546040516370a0823160e01b81523060048201525f93508492506001600160a01b03909116906370a0823190602401602060405180830381865afa158015611dad573d5f803e3d5ffd5b505050506040513d601f19601f82011682018060405250810190611dd1919061334d565b611ddb9190613396565b90505f611ded64e8d4a5100087613336565b90505f612710600854612710611e039190613396565b611e0d9084613336565b611e179190613377565b905080831015611e44576040516371c4efed60e01b815260048101829052602481018490526044016110ff565b600354600154611e61916001600160a01b0391821691168561279f565b600354604051636e553f6560e01b8152600481018590523060248201525f916001600160a01b031690636e553f65906044016020604051808303815f875af1158015611eaf573d5f803e3d5ffd5b505050506040513d601f19601f82011682018060405250810190611ed3919061334d565b90508760045f828254611ee69190613364565b9091555050604080518981526020810186905290810182905288975033907f91ede45f04a37a7c170f5c1207df3b6bc748dc1e04ad5e917a241d0f52feada39060600160405180910390a2505050505050610f5c60015f8051602061347a83398151915255565b5f8051602061345a833981519152611f648161275e565b60058290556040518281527fafac316c9b828c7f9e4c7cec10e6bafd148adbac8c3f06f45bbaf9d79276b36290602001610a25565b5f611fa2612d53565b805490915060ff600160401b820416159067ffffffffffffffff165f81158015611fc95750825b90505f8267ffffffffffffffff166001148015611fe55750303b155b905081158015611ff3575080155b156120115760405163f92ee8a960e01b815260040160405180910390fd5b845467ffffffffffffffff19166001178555831561203b57845460ff60401b1916600160401b1785555b612043612d7b565b61204b612d83565b612053612d7b565b61205b612d7b565b6001600160a01b038b1661209d5760405162461bcd60e51b81526020600482015260096024820152685a65726f205553444360b81b60448201526064016110ff565b6001600160a01b038a166120df5760405162461bcd60e51b81526020600482015260096024820152685a65726f205553445360b81b60448201526064016110ff565b6001600160a01b0389166121205760405162461bcd60e51b81526020600482015260086024820152675a65726f2050534d60c01b60448201526064016110ff565b6001600160a01b0388166121695760405162461bcd60e51b815260206004820152601060248201526f16995c9bc81cd554d114c81d985d5b1d60821b60448201526064016110ff565b6001600160a01b0387166121af5760405162461bcd60e51b815260206004820152600d60248201526c5a65726f20747265617375727960981b60448201526064016110ff565b6001600160a01b0386166121f25760405162461bcd60e51b815260206004820152600a6024820152692d32b9379030b236b4b760b11b60448201526064016110ff565b5f80546001600160a01b03808e166001600160a01b031992831617909255600180548d84169083168117909155600280548d851690841617905560038054938c16939092168317909155604080516338d52e0f60e01b815290519192916338d52e0f916004808201926020929091908290030181865afa158015612278573d5f803e3d5ffd5b505050506040513d601f19601f8201168201806040525081019061229c91906133c8565b6001600160a01b0316146122e95760405162461bcd60e51b81526020600482015260146024820152730acc2ead8e840c2e6e6cae840dad2e6dac2e8c6d60631b60448201526064016110ff565b6122f35f876128a0565b5061230b5f8051602061349a833981519152886128a0565b506123235f8051602061345a833981519152876128a0565b5061233b5f805160206134ba833981519152876128a0565b506003805460ff60a01b1916600160a01b179055600a6008556305f5e10060065583156123a257845460ff60401b19168555604051600181527fc7f505b2f371ae2175ee4913f4499e1f2633a7b5936321eed1cdaeb6115181d29060200160405180910390a15b5050505050505050505050565b6003546040516370a0823160e01b81523060048201525f9182916001600160a01b03909116906370a0823190602401602060405180830381865afa1580156123f9573d5f803e3d5ffd5b505050506040513d601f19601f8201168201806040525081019061241d919061334d565b90505f81156124a6576003546040516303d1689d60e11b8152600481018490525f916001600160a01b0316906307a2d13a90602401602060405180830381865afa15801561246d573d5f803e3d5ffd5b505050506040513d601f19601f82011682018060405250810190612491919061334d565b90506124a264e8d4a5100082613377565b9150505b5f80546040516370a0823160e01b81523060048201526001600160a01b03909116906370a0823190602401602060405180830381865afa1580156124ec573d5f803e3d5ffd5b505050506040513d601f19601f82011682018060405250810190612510919061334d565b905061251c8183613364565b935050505090565b61252d82610a60565b6125368161275e565b610f7d8383612948565b6002546040805163568d4b6f60e01b815290515f926001600160a01b03169163568d4b6f9160048083019260209291908290030181865afa158015611ab2573d5f803e3d5ffd5b5f6125918161275e565b5f546001600160a01b03908116908516036125e35760405162461bcd60e51b815260206004820152601260248201527143616e6e6f7420726573637565205553444360701b60448201526064016110ff565b6001546001600160a01b03908116908516036126365760405162461bcd60e51b815260206004820152601260248201527143616e6e6f7420726573637565205553445360701b60448201526064016110ff565b6003546001600160a01b039081169085160361268a5760405162461bcd60e51b815260206004820152601360248201527243616e6e6f742072657363756520735553445360681b60448201526064016110ff565b610f7d6001600160a01b038516848461285c565b6003546040516303d1689d60e11b8152670de0b6b3a764000060048201525f9182916001600160a01b03909116906307a2d13a90602401602060405180830381865afa1580156126f0573d5f803e3d5ffd5b505050506040513d601f19601f82011682018060405250810190612714919061334d565b9050670de0b6b3a7640000811161272c575f91505090565b5f670de0b6b3a76400006127106127438285613396565b61274d9190613336565b6127579190613377565b9392505050565b610fcd8133612d93565b5f8051602061347a83398151915280546001190161279957604051633ee5aeb560e01b815260040160405180910390fd5b60029055565b604080516001600160a01b038416602482015260448082018490528251808303909101815260649091019091526020810180516001600160e01b031663095ea7b360e01b1790526127f08482612dcc565b610f7d576040516001600160a01b0384811660248301525f604483015261285291869182169063095ea7b3906064015b604051602081830303815290604052915060e01b6020820180516001600160e01b038381831617835250505050612e15565b610f7d8482612e15565b6040516001600160a01b03838116602483015260448201839052610fb691859182169063a9059cbb90606401612820565b60015f8051602061347a83398151915255565b5f5f8051602061341a8339815191526128b98484611a35565b612938575f848152602082815260408083206001600160a01b03871684529091529020805460ff191660011790556128ee3390565b6001600160a01b0316836001600160a01b0316857f2f8788117e7eff1d82e926ec794901d17c78024a50270940304540a733656f0d60405160405180910390a4600191505061095f565b5f91505061095f565b5092915050565b5f5f8051602061341a8339815191526129618484611a35565b15612938575f848152602082815260408083206001600160a01b0387168085529252808320805460ff1916905551339287917ff6391f5c32d9c69d2a47ea670b442974b53935d1edc7fd64eb21e047a839171b9190a4600191505061095f565b6129c9612e81565b5f8051602061343a833981519152805460ff191681557f5db9ee0a495bf2e6ff9c91a7834c1ba4fdd244a5e8aa4e537bd38aeae4b073aa335b6040516001600160a01b03909116815260200160405180910390a150565b306001600160a01b037f0000000000000000000000000000000000000000000000000000000000000000161480612aa657507f00000000000000000000000000000000000000000000000000000000000000006001600160a01b0316612a9a5f805160206133fa833981519152546001600160a01b031690565b6001600160a01b031614155b15612ac45760405163703e46dd60e11b815260040160405180910390fd5b565b5f612ad08161275e565b6009546001600160a01b03838116911614612b255760405162461bcd60e51b8152602060048201526015602482015274155411d490511157d393d517d49154555154d51151605a1b60448201526064016110ff565b6202a300600a54612b369190613364565b421015612b855760405162461bcd60e51b815260206004820152601760248201527f555047524144455f54494d454c4f434b5f41435449564500000000000000000060448201526064016110ff565b5050600980546001600160a01b03191690555f600a55565b816001600160a01b03166352d1902d6040518163ffffffff1660e01b8152600401602060405180830381865afa925050508015612bf7575060408051601f3d908101601f19168201909252612bf49181019061334d565b60015b612c1f57604051634c9c8ce360e01b81526001600160a01b03831660048201526024016110ff565b5f805160206133fa8339815191528114612c4f57604051632a87526960e21b8152600481018290526024016110ff565b610fb68383612eb0565b306001600160a01b037f00000000000000000000000000000000000000000000000000000000000000001614612ac45760405163703e46dd60e11b815260040160405180910390fd5b612caa612cea565b5f8051602061343a833981519152805460ff191660011781557f62e78cea01bee320cd4e420270b5ea74000d11b0c9f74754ebdbfc544b05a25833612a02565b5f8051602061343a8339815191525460ff1615612ac45760405163d93c066560e01b815260040160405180910390fd5b6040516001600160a01b038481166024830152838116604483015260648201839052610f7d9186918216906323b872dd90608401612820565b5f807ff0c57e16840df040f15088dc2f81fe391c3923bec73e23a9662efc9c229c6a0061095f565b612ac4612f05565b612d8b612f05565b612ac4612f2a565b612d9d8282611a35565b610feb5760405163e2517d3f60e01b81526001600160a01b0382166004820152602481018390526044016110ff565b5f805f8060205f8651602088015f8a5af192503d91505f519050828015612e0b57508115612dfd5780600114612e0b565b5f866001600160a01b03163b115b9695505050505050565b5f8060205f8451602086015f885af180612e34576040513d5f823e3d81fd5b50505f513d91508115612e4b578060011415612e58565b6001600160a01b0384163b155b15610f7d57604051635274afe760e01b81526001600160a01b03851660048201526024016110ff565b5f8051602061343a8339815191525460ff16612ac457604051638dfc202b60e01b815260040160405180910390fd5b612eb982612f32565b6040516001600160a01b038316907fbc7cd75a20ee27fd9adebab32041f755214dbc6bffa90cc0225b39da2e5c2d3b905f90a2805115612efd57610fb68282612f95565b610feb613007565b612f0d613026565b612ac457604051631afcd79f60e31b815260040160405180910390fd5b61288d612f05565b806001600160a01b03163b5f03612f6757604051634c9c8ce360e01b81526001600160a01b03821660048201526024016110ff565b5f805160206133fa83398151915280546001600160a01b0319166001600160a01b0392909216919091179055565b60605f80846001600160a01b031684604051612fb191906133e3565b5f60405180830381855af49150503d805f8114612fe9576040519150601f19603f3d011682016040523d82523d5f602084013e612fee565b606091505b5091509150612ffe85838361303f565b95945050505050565b3415612ac45760405163b398979f60e01b815260040160405180910390fd5b5f61302f612d53565b54600160401b900460ff16919050565b6060826130545761304f82613094565b612757565b815115801561306b57506001600160a01b0384163b155b1561294157604051639996b31560e01b81526001600160a01b03851660048201526024016110ff565b8051156130a357805160208201fd5b60405163d6bda27560e01b815260040160405180910390fd5b5f602082840312156130cc575f80fd5b81356001600160e01b031981168114612757575f80fd5b5f602082840312156130f3575f80fd5b5035919050565b6001600160a01b0381168114610fcd575f80fd5b5f806040838503121561311f575f80fd5b823591506020830135613131816130fa565b809150509250929050565b634e487b7160e01b5f52604160045260245ffd5b5f8060408385031215613161575f80fd5b823561316c816130fa565b9150602083013567ffffffffffffffff811115613187575f80fd5b8301601f81018513613197575f80fd5b803567ffffffffffffffff8111156131b1576131b161313c565b604051601f8201601f19908116603f0116810167ffffffffffffffff811182821017156131e0576131e061313c565b6040528181528282016020018710156131f7575f80fd5b816020840160208301375f602083830101528093505050509250929050565b5f60208284031215613226575f80fd5b8135612757816130fa565b602081525f82518060208401528060208501604085015e5f604082850101526040601f19601f83011684010191505092915050565b5f805f805f8060c0878903121561327b575f80fd5b8635613286816130fa565b95506020870135613296816130fa565b945060408701356132a6816130fa565b935060608701356132b6816130fa565b925060808701356132c6816130fa565b915060a08701356132d6816130fa565b809150509295509295509295565b5f805f606084860312156132f6575f80fd5b8335613301816130fa565b92506020840135613311816130fa565b929592945050506040919091013590565b634e487b7160e01b5f52601160045260245ffd5b808202811582820484141761095f5761095f613322565b5f6020828403121561335d575f80fd5b5051919050565b8082018082111561095f5761095f613322565b5f8261339157634e487b7160e01b5f52601260045260245ffd5b500490565b8181038181111561095f5761095f613322565b8181035f83128015838313168383128216171561294157612941613322565b5f602082840312156133d8575f80fd5b8151612757816130fa565b5f82518060208501845e5f92019182525091905056fe360894a13ba1a3210667c828492db98dca3e2076cc3735a920a3ca505d382bbc02dd7bc7dec4dceedda775e58dd541e08a116c6c53815c0bd028192f7b626800cd5ed15c6e187e77e9aee88184c21f4f2182ab5827cb3b7e07fbedcd63f0330017a8e30262c1f919c33056d877a3c22b95c2f5e4dac44683c1c2323cd79fbdb09b779b17422d0df92223018b32b4d1fa46e071723d6817e2486d003becc55f00e1dcbdb91df27212a29bc27177c840cf2f819ecf2187432e1fac86c2dd5dfca955435dd261a4b9b3364963f7738a7a662ad9c84396d64be3365284bb7f0a5041a2646970667358221220bd36a4a7fb03eead9118a8b3981a5ae79361368f8149b0c525ccc1d8bbbacd7664736f6c634300081a0033","linkReferences":{}},"methodIdentifiers":{"BPS()":"249d39e9","DEFAULT_ADMIN_ROLE()":"a217fddf","GUARDIAN_ROLE()":"24ea54f4","SCALING_FACTOR()":"ef4cadc5","STRATEGIST_ROLE()":"a378a324","TREASURY_ROLE()":"d11a57ec","UPGRADE_DELAY()":"47fe8b1d","UPGRADE_INTERFACE_VERSION()":"ad3cb1cc","USDC_DECIMALS()":"c1419def","USDS_DECIMALS()":"0995fed2","activate()":"0f15f4c0","active()":"02fb0c5e","asset()":"38d52e0f","cancelUpgrade()":"55f29166","deactivate()":"51b42b00","deposit(uint256)":"b6b55f25","emergencyWithdraw(address)":"6ff1c9bc","estimatedAPY()":"f19993d7","getRoleAdmin(bytes32)":"248a9ca3","grantRole(bytes32,address)":"2f2ff15d","hasRole(bytes32,address)":"91d14854","initialize(address,address,address,address,address,address)":"cc2a9a5b","isActive()":"22f3e2d4","maxDepositAmount()":"8ed83271","maxTotalValue()":"f82a3d6f","minDepositAmount()":"645006ca","pause()":"8456cb59","paused()":"5c975abb","pendingImplementation()":"396f7b23","proxiableUUID()":"52d1902d","psm()":"04bda262","psmEntryFee()":"e4aadf9f","psmExitFee()":"942f3a2d","renounceRole(bytes32,address)":"36568abe","requestUpgrade(address)":"6b9f97ef","rescueToken(address,address,uint256)":"e5711e8b","revokeRole(bytes32,address)":"d547741f","sUsdsVault()":"3f7b7d41","setMaxDepositAmount(uint256)":"c4511c6a","setMaxTotalValue(uint256)":"75bd2f41","setMinDepositAmount(uint256)":"2a80cda3","setSlippageTolerance(uint256)":"117da1ee","sharesHeld()":"97907827","slippageToleranceBps()":"070cc3f0","supportsInterface(bytes4)":"01ffc9a7","totalPrincipal()":"4b1533b2","totalValue()":"d4c3eea0","unpause()":"3f4ba83a","unrealizedPnL()":"a74456ba","upgradeRequestTime()":"ac9e42c1","upgradeToAndCall(address,bytes)":"4f1ef286","usdc()":"3e413bee","usds()":"4cf282fb","withdraw(uint256)":"2e1a7d4d","withdrawAll()":"853828b6"},"id":63}