{"abi":[{"type":"constructor","inputs":[{"name":"_usdc","type":"address","internalType":"address"},{"name":"_musd","type":"address","internalType":"address"},{"name":"_treasury","type":"address","internalType":"address"},{"name":"_feeRecipient","type":"address","internalType":"address"}],"stateMutability":"nonpayable"},{"type":"function","name":"ADMIN_DELAY","inputs":[],"outputs":[{"name":"","type":"uint256","internalType":"uint256"}],"stateMutability":"view"},{"type":"function","name":"DEFAULT_ADMIN_ROLE","inputs":[],"outputs":[{"name":"","type":"bytes32","internalType":"bytes32"}],"stateMutability":"view"},{"type":"function","name":"FEE_MANAGER_ROLE","inputs":[],"outputs":[{"name":"","type":"bytes32","internalType":"bytes32"}],"stateMutability":"view"},{"type":"function","name":"MAX_FEE_BPS","inputs":[],"outputs":[{"name":"","type":"uint256","internalType":"uint256"}],"stateMutability":"view"},{"type":"function","name":"MINTER_ROLE","inputs":[],"outputs":[{"name":"","type":"bytes32","internalType":"bytes32"}],"stateMutability":"view"},{"type":"function","name":"PAUSER_ROLE","inputs":[],"outputs":[{"name":"","type":"bytes32","internalType":"bytes32"}],"stateMutability":"view"},{"type":"function","name":"availableForRedemption","inputs":[],"outputs":[{"name":"","type":"uint256","internalType":"uint256"}],"stateMutability":"view"},{"type":"function","name":"cancelFeeRecipient","inputs":[],"outputs":[],"stateMutability":"nonpayable"},{"type":"function","name":"cancelFees","inputs":[],"outputs":[],"stateMutability":"nonpayable"},{"type":"function","name":"cancelLimits","inputs":[],"outputs":[],"stateMutability":"nonpayable"},{"type":"function","name":"executeFeeRecipient","inputs":[],"outputs":[],"stateMutability":"nonpayable"},{"type":"function","name":"executeFees","inputs":[],"outputs":[],"stateMutability":"nonpayable"},{"type":"function","name":"executeLimits","inputs":[],"outputs":[],"stateMutability":"nonpayable"},{"type":"function","name":"feeRecipient","inputs":[],"outputs":[{"name":"","type":"address","internalType":"address"}],"stateMutability":"view"},{"type":"function","name":"getRoleAdmin","inputs":[{"name":"role","type":"bytes32","internalType":"bytes32"}],"outputs":[{"name":"","type":"bytes32","internalType":"bytes32"}],"stateMutability":"view"},{"type":"function","name":"grantRole","inputs":[{"name":"role","type":"bytes32","internalType":"bytes32"},{"name":"account","type":"address","internalType":"address"}],"outputs":[],"stateMutability":"nonpayable"},{"type":"function","name":"hasRole","inputs":[{"name":"role","type":"bytes32","internalType":"bytes32"},{"name":"account","type":"address","internalType":"address"}],"outputs":[{"name":"","type":"bool","internalType":"bool"}],"stateMutability":"view"},{"type":"function","name":"maxMintAmount","inputs":[],"outputs":[{"name":"","type":"uint256","internalType":"uint256"}],"stateMutability":"view"},{"type":"function","name":"maxRedeemAmount","inputs":[],"outputs":[{"name":"","type":"uint256","internalType":"uint256"}],"stateMutability":"view"},{"type":"function","name":"minMintAmount","inputs":[],"outputs":[{"name":"","type":"uint256","internalType":"uint256"}],"stateMutability":"view"},{"type":"function","name":"minRedeemAmount","inputs":[],"outputs":[{"name":"","type":"uint256","internalType":"uint256"}],"stateMutability":"view"},{"type":"function","name":"mint","inputs":[{"name":"usdcAmount","type":"uint256","internalType":"uint256"}],"outputs":[{"name":"musdOut","type":"uint256","internalType":"uint256"}],"stateMutability":"nonpayable"},{"type":"function","name":"mintFeeBps","inputs":[],"outputs":[{"name":"","type":"uint256","internalType":"uint256"}],"stateMutability":"view"},{"type":"function","name":"mintFees","inputs":[],"outputs":[{"name":"","type":"uint256","internalType":"uint256"}],"stateMutability":"view"},{"type":"function","name":"mintFor","inputs":[{"name":"recipient","type":"address","internalType":"address"},{"name":"usdcAmount","type":"uint256","internalType":"uint256"}],"outputs":[{"name":"musdOut","type":"uint256","internalType":"uint256"}],"stateMutability":"nonpayable"},{"type":"function","name":"musd","inputs":[],"outputs":[{"name":"","type":"address","internalType":"contract IMUSD"}],"stateMutability":"view"},{"type":"function","name":"pause","inputs":[],"outputs":[],"stateMutability":"nonpayable"},{"type":"function","name":"paused","inputs":[],"outputs":[{"name":"","type":"bool","internalType":"bool"}],"stateMutability":"view"},{"type":"function","name":"pendingFeeRecipient","inputs":[],"outputs":[{"name":"","type":"address","internalType":"address"}],"stateMutability":"view"},{"type":"function","name":"pendingFeeRecipientTime","inputs":[],"outputs":[{"name":"","type":"uint256","internalType":"uint256"}],"stateMutability":"view"},{"type":"function","name":"pendingFeesSet","inputs":[],"outputs":[{"name":"","type":"bool","internalType":"bool"}],"stateMutability":"view"},{"type":"function","name":"pendingFeesTime","inputs":[],"outputs":[{"name":"","type":"uint256","internalType":"uint256"}],"stateMutability":"view"},{"type":"function","name":"pendingLimits","inputs":[],"outputs":[{"name":"minMint","type":"uint256","internalType":"uint256"},{"name":"maxMint","type":"uint256","internalType":"uint256"},{"name":"minRedeem","type":"uint256","internalType":"uint256"},{"name":"maxRedeem","type":"uint256","internalType":"uint256"},{"name":"requestTime","type":"uint256","internalType":"uint256"},{"name":"pending","type":"bool","internalType":"bool"}],"stateMutability":"view"},{"type":"function","name":"pendingMintFeeBps","inputs":[],"outputs":[{"name":"","type":"uint256","internalType":"uint256"}],"stateMutability":"view"},{"type":"function","name":"pendingRedeemFeeBps","inputs":[],"outputs":[{"name":"","type":"uint256","internalType":"uint256"}],"stateMutability":"view"},{"type":"function","name":"previewMint","inputs":[{"name":"usdcAmount","type":"uint256","internalType":"uint256"}],"outputs":[{"name":"musdOut","type":"uint256","internalType":"uint256"},{"name":"feeUsdc","type":"uint256","internalType":"uint256"}],"stateMutability":"view"},{"type":"function","name":"previewRedeem","inputs":[{"name":"musdAmount","type":"uint256","internalType":"uint256"}],"outputs":[{"name":"usdcOut","type":"uint256","internalType":"uint256"},{"name":"feeUsdc","type":"uint256","internalType":"uint256"}],"stateMutability":"view"},{"type":"function","name":"recoverToken","inputs":[{"name":"token","type":"address","internalType":"address"},{"name":"amount","type":"uint256","internalType":"uint256"}],"outputs":[],"stateMutability":"nonpayable"},{"type":"function","name":"redeem","inputs":[{"name":"musdAmount","type":"uint256","internalType":"uint256"}],"outputs":[{"name":"usdcOut","type":"uint256","internalType":"uint256"}],"stateMutability":"nonpayable"},{"type":"function","name":"redeemFeeBps","inputs":[],"outputs":[{"name":"","type":"uint256","internalType":"uint256"}],"stateMutability":"view"},{"type":"function","name":"redeemFees","inputs":[],"outputs":[{"name":"","type":"uint256","internalType":"uint256"}],"stateMutability":"view"},{"type":"function","name":"remainingMintable","inputs":[],"outputs":[{"name":"","type":"uint256","internalType":"uint256"}],"stateMutability":"view"},{"type":"function","name":"renounceRole","inputs":[{"name":"role","type":"bytes32","internalType":"bytes32"},{"name":"callerConfirmation","type":"address","internalType":"address"}],"outputs":[],"stateMutability":"nonpayable"},{"type":"function","name":"requestFeeRecipient","inputs":[{"name":"_recipient","type":"address","internalType":"address"}],"outputs":[],"stateMutability":"nonpayable"},{"type":"function","name":"requestFees","inputs":[{"name":"_mintFeeBps","type":"uint256","internalType":"uint256"},{"name":"_redeemFeeBps","type":"uint256","internalType":"uint256"}],"outputs":[],"stateMutability":"nonpayable"},{"type":"function","name":"requestLimits","inputs":[{"name":"_minMint","type":"uint256","internalType":"uint256"},{"name":"_maxMint","type":"uint256","internalType":"uint256"},{"name":"_minRedeem","type":"uint256","internalType":"uint256"},{"name":"_maxRedeem","type":"uint256","internalType":"uint256"}],"outputs":[],"stateMutability":"nonpayable"},{"type":"function","name":"revokeRole","inputs":[{"name":"role","type":"bytes32","internalType":"bytes32"},{"name":"account","type":"address","internalType":"address"}],"outputs":[],"stateMutability":"nonpayable"},{"type":"function","name":"supportsInterface","inputs":[{"name":"interfaceId","type":"bytes4","internalType":"bytes4"}],"outputs":[{"name":"","type":"bool","internalType":"bool"}],"stateMutability":"view"},{"type":"function","name":"totalAccumulatedFees","inputs":[],"outputs":[{"name":"","type":"uint256","internalType":"uint256"}],"stateMutability":"view"},{"type":"function","name":"totalTreasuryValue","inputs":[],"outputs":[{"name":"","type":"uint256","internalType":"uint256"}],"stateMutability":"view"},{"type":"function","name":"treasury","inputs":[],"outputs":[{"name":"","type":"address","internalType":"contract ITreasuryV2"}],"stateMutability":"view"},{"type":"function","name":"unpause","inputs":[],"outputs":[],"stateMutability":"nonpayable"},{"type":"function","name":"usdc","inputs":[],"outputs":[{"name":"","type":"address","internalType":"contract IERC20"}],"stateMutability":"view"},{"type":"function","name":"withdrawFees","inputs":[],"outputs":[],"stateMutability":"nonpayable"},{"type":"function","name":"withdrawRedeemFees","inputs":[],"outputs":[],"stateMutability":"nonpayable"},{"type":"event","name":"FeeRecipientChangeCancelled","inputs":[{"name":"recipient","type":"address","indexed":true,"internalType":"address"}],"anonymous":false},{"type":"event","name":"FeeRecipientChangeRequested","inputs":[{"name":"recipient","type":"address","indexed":true,"internalType":"address"},{"name":"readyAt","type":"uint256","indexed":false,"internalType":"uint256"}],"anonymous":false},{"type":"event","name":"FeeRecipientUpdated","inputs":[{"name":"oldRecipient","type":"address","indexed":true,"internalType":"address"},{"name":"newRecipient","type":"address","indexed":true,"internalType":"address"}],"anonymous":false},{"type":"event","name":"FeesChangeCancelled","inputs":[],"anonymous":false},{"type":"event","name":"FeesChangeRequested","inputs":[{"name":"mintBps","type":"uint256","indexed":false,"internalType":"uint256"},{"name":"redeemBps","type":"uint256","indexed":false,"internalType":"uint256"},{"name":"readyAt","type":"uint256","indexed":false,"internalType":"uint256"}],"anonymous":false},{"type":"event","name":"FeesUpdated","inputs":[{"name":"mintFeeBps","type":"uint256","indexed":false,"internalType":"uint256"},{"name":"redeemFeeBps","type":"uint256","indexed":false,"internalType":"uint256"}],"anonymous":false},{"type":"event","name":"FeesWithdrawn","inputs":[{"name":"to","type":"address","indexed":true,"internalType":"address"},{"name":"amount","type":"uint256","indexed":false,"internalType":"uint256"}],"anonymous":false},{"type":"event","name":"LimitsChangeCancelled","inputs":[],"anonymous":false},{"type":"event","name":"LimitsChangeRequested","inputs":[{"name":"minMint","type":"uint256","indexed":false,"internalType":"uint256"},{"name":"maxMint","type":"uint256","indexed":false,"internalType":"uint256"},{"name":"minRedeem","type":"uint256","indexed":false,"internalType":"uint256"},{"name":"maxRedeem","type":"uint256","indexed":false,"internalType":"uint256"},{"name":"readyAt","type":"uint256","indexed":false,"internalType":"uint256"}],"anonymous":false},{"type":"event","name":"LimitsUpdated","inputs":[{"name":"minMint","type":"uint256","indexed":false,"internalType":"uint256"},{"name":"maxMint","type":"uint256","indexed":false,"internalType":"uint256"},{"name":"minRedeem","type":"uint256","indexed":false,"internalType":"uint256"},{"name":"maxRedeem","type":"uint256","indexed":false,"internalType":"uint256"}],"anonymous":false},{"type":"event","name":"Minted","inputs":[{"name":"user","type":"address","indexed":true,"internalType":"address"},{"name":"usdcIn","type":"uint256","indexed":false,"internalType":"uint256"},{"name":"musdOut","type":"uint256","indexed":false,"internalType":"uint256"},{"name":"fee","type":"uint256","indexed":false,"internalType":"uint256"}],"anonymous":false},{"type":"event","name":"Paused","inputs":[{"name":"account","type":"address","indexed":false,"internalType":"address"}],"anonymous":false},{"type":"event","name":"Redeemed","inputs":[{"name":"user","type":"address","indexed":true,"internalType":"address"},{"name":"musdIn","type":"uint256","indexed":false,"internalType":"uint256"},{"name":"usdcOut","type":"uint256","indexed":false,"internalType":"uint256"},{"name":"fee","type":"uint256","indexed":false,"internalType":"uint256"}],"anonymous":false},{"type":"event","name":"RoleAdminChanged","inputs":[{"name":"role","type":"bytes32","indexed":true,"internalType":"bytes32"},{"name":"previousAdminRole","type":"bytes32","indexed":true,"internalType":"bytes32"},{"name":"newAdminRole","type":"bytes32","indexed":true,"internalType":"bytes32"}],"anonymous":false},{"type":"event","name":"RoleGranted","inputs":[{"name":"role","type":"bytes32","indexed":true,"internalType":"bytes32"},{"name":"account","type":"address","indexed":true,"internalType":"address"},{"name":"sender","type":"address","indexed":true,"internalType":"address"}],"anonymous":false},{"type":"event","name":"RoleRevoked","inputs":[{"name":"role","type":"bytes32","indexed":true,"internalType":"bytes32"},{"name":"account","type":"address","indexed":true,"internalType":"address"},{"name":"sender","type":"address","indexed":true,"internalType":"address"}],"anonymous":false},{"type":"event","name":"Unpaused","inputs":[{"name":"account","type":"address","indexed":false,"internalType":"address"}],"anonymous":false},{"type":"error","name":"AccessControlBadConfirmation","inputs":[]},{"type":"error","name":"AccessControlUnauthorizedAccount","inputs":[{"name":"account","type":"address","internalType":"address"},{"name":"neededRole","type":"bytes32","internalType":"bytes32"}]},{"type":"error","name":"EnforcedPause","inputs":[]},{"type":"error","name":"ExpectedPause","inputs":[]},{"type":"error","name":"ReentrancyGuardReentrantCall","inputs":[]},{"type":"error","name":"SafeERC20FailedOperation","inputs":[{"name":"token","type":"address","internalType":"address"}]}],"bytecode":{"object":"0x60e060405234801561000f575f80fd5b50604051612afb380380612afb83398101604081905261002e916102e1565b600180556001600160a01b03841661007c5760405162461bcd60e51b815260206004820152600c60248201526b494e56414c49445f5553444360a01b60448201526064015b60405180910390fd5b6001600160a01b0383166100c15760405162461bcd60e51b815260206004820152600c60248201526b1253959053125117d35554d160a21b6044820152606401610073565b6001600160a01b03821661010a5760405162461bcd60e51b815260206004820152601060248201526f494e56414c49445f545245415355525960801b6044820152606401610073565b6001600160a01b0381166101605760405162461bcd60e51b815260206004820152601560248201527f494e56414c49445f4645455f524543495049454e5400000000000000000000006044820152606401610073565b6001600160a01b0384811660805283811660a05282811660c052600780546001600160a01b03191691831691909117905561019b5f3361021d565b506101c67f65d7a28e3265b37a6474929f336521b332c1681b933f6cb9f3376673440d862a3361021d565b506101f17f6c0757dc3e6b28b2580c03fd9e96c274acf4f99d91fbec9b418fa1d70604ff1c3361021d565b505060646003555050620f4240600881905564e8d4a510006009819055600a91909155600b5550610332565b5f828152602081815260408083206001600160a01b038516845290915281205460ff166102bd575f838152602081815260408083206001600160a01b03861684529091529020805460ff191660011790556102753390565b6001600160a01b0316826001600160a01b0316847f2f8788117e7eff1d82e926ec794901d17c78024a50270940304540a733656f0d60405160405180910390a45060016102c0565b505f5b92915050565b80516001600160a01b03811681146102dc575f80fd5b919050565b5f805f80608085870312156102f4575f80fd5b6102fd856102c6565b935061030b602086016102c6565b9250610319604086016102c6565b9150610327606086016102c6565b905092959194509250565b60805160a05160c0516126f061040b5f395f81816105080152818161114801528181611184015281816119c901528181611a0501528181611d1601528181611e120152611e9301525f818161062001528181610f98015281816110190152818161121e0152818161142e015281816118190152818161189a01528181611a9f01528181611c9d01528181611ef10152611f7401525f818161044801528181610abf015281816110f101528181611126015281816113b70152818161155f01528181611972015281816119a70152611d8901526126f05ff3fe608060405234801561000f575f80fd5b506004361061034d575f3560e01c80637dc7d4d7116101c9578063d28ff8b4116100fe578063e4dcfa6e1161009e578063e85507de11610079578063e85507de1461070e578063f2adbe5714610716578063f5b37c361461071e578063f76e95e514610727575f80fd5b8063e4dcfa6e146106c6578063e542a134146106de578063e63ab1e9146106e7575f80fd5b8063d547741f116100d9578063d547741f14610684578063d55be8c614610697578063da1919b3146106a0578063db006a75146106b3575f80fd5b8063d28ff8b414610642578063d454cceb14610655578063d53913931461065d575f80fd5b8063a6185a8d11610169578063b3d7f6b911610144578063b3d7f6b9146105f7578063be36970c1461060a578063bfaccf6514610613578063cab666d01461061b575f80fd5b8063a6185a8d146105d3578063b1b3a506146105dc578063b29a8140146105e4575f80fd5b806392ffacac116101a457806392ffacac146105a657806397c8bcc1146105b0578063a0712d68146105b9578063a217fddf146105cc575f80fd5b80637dc7d4d71461053b5780638456cb591461058b57806391d1485414610593575f80fd5b80633a047bb31161029f578063536625b91161023f5780635efc228e1161021a5780635efc228e146104fb57806361d027b314610503578063632d83a41461052a5780636951a8bd14610532575f80fd5b8063536625b9146104d5578063595242a9146104dd5780635c975abb146104f0575f80fd5b806340a8546c1161027a57806340a8546c1461048a5780634690484014610492578063476343ee146104a55780634cdad506146104ad575f80fd5b80633a047bb31461043a5780633e413bee146104435780633f4ba83a14610482575f80fd5b80631cdd9eac1161030a578063248a9ca3116102e5578063248a9ca3146103ea57806326d3d9db1461040c5780632f2ff15d1461041457806336568abe14610427575f80fd5b80631cdd9eac146103bf578063232436c1146103cc578063239c70ae146103e1575f80fd5b806301e9d7571461035157806301ffc9a71461036d57806305db2f41146103905780630912ae6d146103a457806309f6442c146103ad5780630c5c751f146103b6575b5f80fd5b61035a60085481565b6040519081526020015b60405180910390f35b61038061037b36600461241b565b61072f565b6040519015158152602001610364565b61035a5f8051602061269b83398151915281565b61035a600a5481565b61035a60045481565b61035a600d5481565b600f546103809060ff1681565b6103df6103da366004612449565b610765565b005b61035a60095481565b61035a6103f8366004612469565b5f9081526020819052604090206001015490565b6103df6108a6565b6103df610422366004612496565b6109cc565b6103df610435366004612496565b6109f6565b61035a60065481565b61046a7f000000000000000000000000000000000000000000000000000000000000000081565b6040516001600160a01b039091168152602001610364565b6103df610a2e565b61035a610a43565b60075461046a906001600160a01b031681565b6103df610a59565b6104c06104bb366004612469565b610b2f565b60408051928352602083019190915201610364565b6103df610b9b565b6103df6104eb3660046124c0565b610bf6565b60025460ff16610380565b6103df610d75565b61046a7f000000000000000000000000000000000000000000000000000000000000000081565b6103df610dd4565b61035a600c5481565b60115460125460135460145460155460165461055c95949392919060ff1686565b6040805196875260208701959095529385019290925260608401526080830152151560a082015260c001610364565b6103df610eab565b6103806105a1366004612496565b610edd565b61035a6202a30081565b61035a60035481565b61035a6105c7366004612469565b610f05565b61035a5f81565b61035a600e5481565b6103df6112d6565b6103df6105f23660046124ef565b6113ab565b6104c0610605366004612469565b6114b7565b61035a600b5481565b6103df6114f2565b61046a7f000000000000000000000000000000000000000000000000000000000000000081565b6103df610650366004612517565b611588565b6103df611674565b61035a7f9f2df0fed2c77648de5860a4cc508cd0818c85b8b8a1ab4ceeef8d981c8956a681565b6103df610692366004612496565b6116ee565b61035a6101f481565b61035a6106ae3660046124ef565b611712565b61035a6106c1366004612469565b611b5b565b600f5461046a9061010090046001600160a01b031681565b61035a60055481565b61035a7f65d7a28e3265b37a6474929f336521b332c1681b933f6cb9f3376673440d862a81565b61035a611e0f565b61035a611e90565b61035a60105481565b61035a611eed565b5f6001600160e01b03198216637965db0b60e01b148061075f57506301ffc9a760e01b6001600160e01b03198316145b92915050565b5f8051602061269b83398151915261077c81612012565b6101f48311156107c75760405162461bcd60e51b815260206004820152601160248201527009a929ca8be8c8a8abea89e9ebe90928e9607b1b60448201526064015b60405180910390fd5b6101f482111561080f5760405162461bcd60e51b81526020600482015260136024820152720a48a888a8a9abe8c8a8abea89e9ebe90928e9606b1b60448201526064016107be565b600f5460ff16156108325760405162461bcd60e51b81526004016107be90612530565b600c839055600d82905542600e819055600f805460ff191660011790557f876758b9481460857906dd637361739b8e498ed38bbd838c44114c9018d9eb609084908490610883906202a3009061257b565b6040805193845260208401929092529082015260600160405180910390a1505050565b5f6108b081612012565b6040805160c08101825260115481526012546020820152601354918101919091526014546060820152601554608082015260165460ff16151560a0820181905261090c5760405162461bcd60e51b81526004016107be9061258e565b6202a300816080015161091f919061257b565b42101561093e5760405162461bcd60e51b81526004016107be906125b2565b805160088190556020808301516009819055604080850151600a819055606080870151600b8190555f60118190556012819055601381905560148190556015556016805460ff19169055835196875294860193909352908401528201527fe3eb5d4eccdae2d96efa105f65c8db865f9fc72984f2b879a27448fed50d18159060800160405180910390a15050565b5f828152602081905260409020600101546109e681612012565b6109f0838361201c565b50505050565b6001600160a01b0381163314610a1f5760405163334bd91960e11b815260040160405180910390fd5b610a2982826120ab565b505050565b5f610a3881612012565b610a40612114565b50565b5f600654600554610a54919061257b565b905090565b5f8051602061269b833981519152610a7081612012565b60055480610aaa5760405162461bcd60e51b81526020600482015260076024820152664e4f5f4645455360c81b60448201526064016107be565b5f600555600754610ae8906001600160a01b037f00000000000000000000000000000000000000000000000000000000000000008116911683612166565b6007546040518281526001600160a01b03909116907fc0819c13be868895eb93e40eaceb96de976442fa1d404e5c55f14bb65a8c489a906020015b60405180910390a25050565b5f8080610b4164e8d4a51000856125db565b9050662386f26fc1000060045485610b5991906125fa565b610b6391906125db565b91505f600454118015610b74575081155b8015610b7f57505f81115b15610b8957600191505b610b938282612611565b925050915091565b5f8051602061269b833981519152610bb281612012565b5f600c819055600d819055600e819055600f805460ff191690556040517f78da80478f7d164dad2124a37fe39387c4d520093194776697664194ac4c6f869190a150565b5f610c0081612012565b83851115610c465760405162461bcd60e51b8152602060048201526013602482015272494e56414c49445f4d494e545f4c494d49545360681b60448201526064016107be565b81831115610c8e5760405162461bcd60e51b8152602060048201526015602482015274494e56414c49445f52454445454d5f4c494d49545360581b60448201526064016107be565b60165460ff1615610cb15760405162461bcd60e51b81526004016107be90612530565b6040805160c08101825286815260208101869052908101849052606081018390524260808201819052600160a0909201829052601187905560128690556013859055601484905560158190556016805460ff19169092179091557fa7468537bcd0309b4bf15b6d2b4aa77cab4367ae20d3dc6c41f48fda5531d307908690869086908690610d43906202a3009061257b565b604080519586526020860194909452928401919091526060830152608082015260a00160405180910390a15050505050565b5f610d7f81612012565b600f8054610100600160a81b031981169091555f60108190556040516101009092046001600160a01b03169182917f8d8ef62f2539645bb95697640dfb65aa50c47a6be1734759ff8a238ee230c70491a25050565b5f610dde81612012565b600f5461010090046001600160a01b0316610e0b5760405162461bcd60e51b81526004016107be9061258e565b6202a300601054610e1c919061257b565b421015610e3b5760405162461bcd60e51b81526004016107be906125b2565b60078054600f80546001600160a01b03610100820481166001600160a01b031985168117909555610100600160a81b03199091169091555f601081905560405191909216929183917faaebcf1bfa00580e41d966056b48521fa9f202645c86d4ddf28113e617c1b1d39190a35050565b7f65d7a28e3265b37a6474929f336521b332c1681b933f6cb9f3376673440d862a610ed581612012565b610a406121be565b5f918252602082815260408084206001600160a01b0393909316845291905290205460ff1690565b5f610f0e6121fb565b610f16612225565b600854821015610f385760405162461bcd60e51b81526004016107be90612624565b600954821115610f5a5760405162461bcd60e51b81526004016107be90612647565b5f61271060035484610f6c91906125fa565b610f7691906125db565b90505f610f838285612611565b9050610f948164e8d4a510006125fa565b92507f00000000000000000000000000000000000000000000000000000000000000006001600160a01b0316638f770ad06040518163ffffffff1660e01b8152600401602060405180830381865afa158015610ff2573d5f803e3d5ffd5b505050506040513d601f19601f82011682018060405250810190611016919061266a565b837f00000000000000000000000000000000000000000000000000000000000000006001600160a01b03166318160ddd6040518163ffffffff1660e01b8152600401602060405180830381865afa158015611073573d5f803e3d5ffd5b505050506040513d601f19601f82011682018060405250810190611097919061266a565b6110a1919061257b565b11156110e45760405162461bcd60e51b81526020600482015260126024820152710455843454544535f535550504c595f4341560741b60448201526064016107be565b6111196001600160a01b037f00000000000000000000000000000000000000000000000000000000000000001633308761224b565b61116d6001600160a01b037f0000000000000000000000000000000000000000000000000000000000000000167f000000000000000000000000000000000000000000000000000000000000000083612284565b6040516311f9fbc960e21b81526001600160a01b037f000000000000000000000000000000000000000000000000000000000000000016906347e7ef24906111bb9030908590600401612681565b5f604051808303815f87803b1580156111d2575f80fd5b505af11580156111e4573d5f803e3d5ffd5b505050505f821115611207578160055f828254611201919061257b565b90915550505b6040516340c10f1960e01b81526001600160a01b037f000000000000000000000000000000000000000000000000000000000000000016906340c10f19906112559033908790600401612681565b5f604051808303815f87803b15801561126c575f80fd5b505af115801561127e573d5f803e3d5ffd5b505060408051878152602081018790529081018590523392507f5a3358a3d27a5373c0df2604662088d37894d56b7cfd27f315770440f4e0d91991506060015b60405180910390a250506112d160018055565b919050565b5f8051602061269b8339815191526112ed81612012565b600f5460ff1661130f5760405162461bcd60e51b81526004016107be9061258e565b6202a300600e54611320919061257b565b42101561133f5760405162461bcd60e51b81526004016107be906125b2565b600c80546003819055600d805460048190555f9384905590839055600e92909255600f805460ff191690556040517f5c6323bf1c2d7aaea2c091a4751c1c87af7f2864650c336507a77d0557af37a1926113a0928252602082015260400190565b60405180910390a150565b5f6113b581612012565b7f00000000000000000000000000000000000000000000000000000000000000006001600160a01b0316836001600160a01b03160361142c5760405162461bcd60e51b815260206004820152601360248201527243414e4e4f545f5245434f5645525f5553444360681b60448201526064016107be565b7f00000000000000000000000000000000000000000000000000000000000000006001600160a01b0316836001600160a01b0316036114a35760405162461bcd60e51b815260206004820152601360248201527210d0539393d517d49150d3d5915497d35554d1606a1b60448201526064016107be565b610a296001600160a01b0384163384612166565b5f80612710600354846114ca91906125fa565b6114d491906125db565b90505f6114e18285612611565b9050610b938164e8d4a510006125fa565b5f8051602061269b83398151915261150981612012565b6006548061154a5760405162461bcd60e51b815260206004820152600e60248201526d4e4f5f52454445454d5f4645455360901b60448201526064016107be565b5f600655600754610ae8906001600160a01b037f00000000000000000000000000000000000000000000000000000000000000008116911683612166565b5f61159281612012565b6001600160a01b0382166115dc5760405162461bcd60e51b81526020600482015260116024820152701253959053125117d49150d25412515395607a1b60448201526064016107be565b600f5461010090046001600160a01b03161561160a5760405162461bcd60e51b81526004016107be90612530565b600f8054610100600160a81b0319166101006001600160a01b038516908102919091179091554260108190557f1b0d813396157d8c82332226237f3d1623effbc65a3bd01d1560faead51c561f90611666906202a3009061257b565b604051908152602001610b23565b5f61167e81612012565b60165460ff166116a05760405162461bcd60e51b81526004016107be9061258e565b5f601181905560128190556013819055601481905560158190556016805460ff191690556040517f3fb2607f0e87971d9c9483c640023fc101257f3bdabb345841efa43159935e779190a150565b5f8281526020819052604090206001015461170881612012565b6109f083836120ab565b5f61171b6121fb565b611723612225565b7f9f2df0fed2c77648de5860a4cc508cd0818c85b8b8a1ab4ceeef8d981c8956a661174d81612012565b6001600160a01b0384166117975760405162461bcd60e51b81526020600482015260116024820152701253959053125117d49150d25412515395607a1b60448201526064016107be565b6008548310156117b95760405162461bcd60e51b81526004016107be90612624565b6009548311156117db5760405162461bcd60e51b81526004016107be90612647565b5f612710600354856117ed91906125fa565b6117f791906125db565b90505f6118048286612611565b90506118158164e8d4a510006125fa565b93507f00000000000000000000000000000000000000000000000000000000000000006001600160a01b0316638f770ad06040518163ffffffff1660e01b8152600401602060405180830381865afa158015611873573d5f803e3d5ffd5b505050506040513d601f19601f82011682018060405250810190611897919061266a565b847f00000000000000000000000000000000000000000000000000000000000000006001600160a01b03166318160ddd6040518163ffffffff1660e01b8152600401602060405180830381865afa1580156118f4573d5f803e3d5ffd5b505050506040513d601f19601f82011682018060405250810190611918919061266a565b611922919061257b565b11156119655760405162461bcd60e51b81526020600482015260126024820152710455843454544535f535550504c595f4341560741b60448201526064016107be565b61199a6001600160a01b037f00000000000000000000000000000000000000000000000000000000000000001633308861224b565b6119ee6001600160a01b037f0000000000000000000000000000000000000000000000000000000000000000167f000000000000000000000000000000000000000000000000000000000000000083612284565b6040516311f9fbc960e21b81526001600160a01b037f000000000000000000000000000000000000000000000000000000000000000016906347e7ef2490611a3c9030908590600401612681565b5f604051808303815f87803b158015611a53575f80fd5b505af1158015611a65573d5f803e3d5ffd5b505050505f821115611a88578160055f828254611a82919061257b565b90915550505b6040516340c10f1960e01b81526001600160a01b037f000000000000000000000000000000000000000000000000000000000000000016906340c10f1990611ad69089908890600401612681565b5f604051808303815f87803b158015611aed575f80fd5b505af1158015611aff573d5f803e3d5ffd5b505060408051888152602081018890529081018590526001600160a01b03891692507f5a3358a3d27a5373c0df2604662088d37894d56b7cfd27f315770440f4e0d919915060600160405180910390a250505061075f60018055565b5f611b646121fb565b611b6c612225565b5f8211611bac5760405162461bcd60e51b815260206004820152600e60248201526d1253959053125117d05353d5539560921b60448201526064016107be565b5f611bbc64e8d4a51000846125db565b9050600a54811015611be05760405162461bcd60e51b81526004016107be90612624565b600b54811115611c025760405162461bcd60e51b81526004016107be90612647565b5f662386f26fc1000060045485611c1991906125fa565b611c2391906125db565b90505f600454118015611c34575080155b15611c3d575060015b611c478183612611565b92505f8311611c865760405162461bcd60e51b815260206004820152600b60248201526a16915493d7d3d55514155560aa1b60448201526064016107be565b604051632770a7eb60e21b81526001600160a01b037f00000000000000000000000000000000000000000000000000000000000000001690639dc29fac90611cd49033908890600401612681565b5f604051808303815f87803b158015611ceb575f80fd5b505af1158015611cfd573d5f803e3d5ffd5b505060405163f3fef3a360e01b81526001600160a01b037f000000000000000000000000000000000000000000000000000000000000000016925063f3fef3a39150611d4f9030908690600401612681565b5f604051808303815f87803b158015611d66575f80fd5b505af1158015611d78573d5f803e3d5ffd5b50611db29250506001600160a01b037f00000000000000000000000000000000000000000000000000000000000000001690503385612166565b8015611dcf578060065f828254611dc9919061257b565b90915550505b604080518581526020810185905290810182905233907f484c40561359f3e3b8be9101897f8680aa82fbe1df9fd9038e0dbc6284032646906060016112be565b5f7f00000000000000000000000000000000000000000000000000000000000000006001600160a01b031663d4c3eea06040518163ffffffff1660e01b8152600401602060405180830381865afa158015611e6c573d5f803e3d5ffd5b505050506040513d601f19601f82011682018060405250810190610a54919061266a565b5f7f00000000000000000000000000000000000000000000000000000000000000006001600160a01b0316631fa7c6686040518163ffffffff1660e01b8152600401602060405180830381865afa158015611e6c573d5f803e3d5ffd5b5f807f00000000000000000000000000000000000000000000000000000000000000006001600160a01b0316638f770ad06040518163ffffffff1660e01b8152600401602060405180830381865afa158015611f4b573d5f803e3d5ffd5b505050506040513d601f19601f82011682018060405250810190611f6f919061266a565b90505f7f00000000000000000000000000000000000000000000000000000000000000006001600160a01b03166318160ddd6040518163ffffffff1660e01b8152600401602060405180830381865afa158015611fce573d5f803e3d5ffd5b505050506040513d601f19601f82011682018060405250810190611ff2919061266a565b9050808211612001575f61200b565b61200b8183612611565b9250505090565b610a408133612314565b5f6120278383610edd565b6120a4575f838152602081815260408083206001600160a01b03861684529091529020805460ff1916600117905561205c3390565b6001600160a01b0316826001600160a01b0316847f2f8788117e7eff1d82e926ec794901d17c78024a50270940304540a733656f0d60405160405180910390a450600161075f565b505f61075f565b5f6120b68383610edd565b156120a4575f838152602081815260408083206001600160a01b0386168085529252808320805460ff1916905551339286917ff6391f5c32d9c69d2a47ea670b442974b53935d1edc7fd64eb21e047a839171b9190a450600161075f565b61211c612343565b6002805460ff191690557f5db9ee0a495bf2e6ff9c91a7834c1ba4fdd244a5e8aa4e537bd38aeae4b073aa335b6040516001600160a01b03909116815260200160405180910390a1565b610a2983846001600160a01b031663a9059cbb858560405160240161218c929190612681565b604051602081830303815290604052915060e01b6020820180516001600160e01b038381831617835250505050612366565b6121c6612225565b6002805460ff191660011790557f62e78cea01bee320cd4e420270b5ea74000d11b0c9f74754ebdbfc544b05a2586121493390565b60026001540361221e57604051633ee5aeb560e01b815260040160405180910390fd5b6002600155565b60025460ff16156122495760405163d93c066560e01b815260040160405180910390fd5b565b6040516001600160a01b0384811660248301528381166044830152606482018390526109f09186918216906323b872dd9060840161218c565b5f836001600160a01b031663095ea7b384846040516024016122a7929190612681565b604051602081830303815290604052915060e01b6020820180516001600160e01b03838183161783525050505090506122e084826123d2565b6109f05761230a84856001600160a01b031663095ea7b3865f60405160240161218c929190612681565b6109f08482612366565b61231e8282610edd565b61233f57808260405163e2517d3f60e01b81526004016107be929190612681565b5050565b60025460ff1661224957604051638dfc202b60e01b815260040160405180910390fd5b5f8060205f8451602086015f885af180612385576040513d5f823e3d81fd5b50505f513d9150811561239c5780600114156123a9565b6001600160a01b0384163b155b156109f057604051635274afe760e01b81526001600160a01b03851660048201526024016107be565b5f805f8060205f8651602088015f8a5af192503d91505f519050828015612411575081156124035780600114612411565b5f866001600160a01b03163b115b9695505050505050565b5f6020828403121561242b575f80fd5b81356001600160e01b031981168114612442575f80fd5b9392505050565b5f806040838503121561245a575f80fd5b50508035926020909101359150565b5f60208284031215612479575f80fd5b5035919050565b80356001600160a01b03811681146112d1575f80fd5b5f80604083850312156124a7575f80fd5b823591506124b760208401612480565b90509250929050565b5f805f80608085870312156124d3575f80fd5b5050823594602084013594506040840135936060013592509050565b5f8060408385031215612500575f80fd5b61250983612480565b946020939093013593505050565b5f60208284031215612527575f80fd5b61244282612480565b60208082526018908201527f50524f504f53414c5f414c52454144595f50454e44494e470000000000000000604082015260600190565b634e487b7160e01b5f52601160045260245ffd5b8082018082111561075f5761075f612567565b6020808252600a90820152694e4f5f50454e44494e4760b01b604082015260600190565b6020808252600f908201526e54494d454c4f434b5f41435449564560881b604082015260600190565b5f826125f557634e487b7160e01b5f52601260045260245ffd5b500490565b808202811582820484141761075f5761075f612567565b8181038181111561075f5761075f612567565b6020808252600990820152682122a627abafa6a4a760b91b604082015260600190565b602080825260099082015268082849eac8abe9a82b60bb1b604082015260600190565b5f6020828403121561267a575f80fd5b5051919050565b6001600160a01b0392909216825260208201526040019056fe6c0757dc3e6b28b2580c03fd9e96c274acf4f99d91fbec9b418fa1d70604ff1ca2646970667358221220eebebfb0e0cce23aa0c231c140df6496b919af319c47acc8b6b001e3d5f45f8764736f6c634300081a0033","linkReferences":{}},"methodIdentifiers":{"ADMIN_DELAY()":"92ffacac","DEFAULT_ADMIN_ROLE()":"a217fddf","FEE_MANAGER_ROLE()":"05db2f41","MAX_FEE_BPS()":"d55be8c6","MINTER_ROLE()":"d5391393","PAUSER_ROLE()":"e63ab1e9","availableForRedemption()":"f2adbe57","cancelFeeRecipient()":"5efc228e","cancelFees()":"536625b9","cancelLimits()":"d454cceb","executeFeeRecipient()":"632d83a4","executeFees()":"b1b3a506","executeLimits()":"26d3d9db","feeRecipient()":"46904840","getRoleAdmin(bytes32)":"248a9ca3","grantRole(bytes32,address)":"2f2ff15d","hasRole(bytes32,address)":"91d14854","maxMintAmount()":"239c70ae","maxRedeemAmount()":"be36970c","minMintAmount()":"01e9d757","minRedeemAmount()":"0912ae6d","mint(uint256)":"a0712d68","mintFeeBps()":"97c8bcc1","mintFees()":"e542a134","mintFor(address,uint256)":"da1919b3","musd()":"cab666d0","pause()":"8456cb59","paused()":"5c975abb","pendingFeeRecipient()":"e4dcfa6e","pendingFeeRecipientTime()":"f5b37c36","pendingFeesSet()":"1cdd9eac","pendingFeesTime()":"a6185a8d","pendingLimits()":"7dc7d4d7","pendingMintFeeBps()":"6951a8bd","pendingRedeemFeeBps()":"0c5c751f","previewMint(uint256)":"b3d7f6b9","previewRedeem(uint256)":"4cdad506","recoverToken(address,uint256)":"b29a8140","redeem(uint256)":"db006a75","redeemFeeBps()":"09f6442c","redeemFees()":"3a047bb3","remainingMintable()":"f76e95e5","renounceRole(bytes32,address)":"36568abe","requestFeeRecipient(address)":"d28ff8b4","requestFees(uint256,uint256)":"232436c1","requestLimits(uint256,uint256,uint256,uint256)":"595242a9","revokeRole(bytes32,address)":"d547741f","supportsInterface(bytes4)":"01ffc9a7","totalAccumulatedFees()":"40a8546c","totalTreasuryValue()":"e85507de","treasury()":"61d027b3","unpause()":"3f4ba83a","usdc()":"3e413bee","withdrawFees()":"476343ee","withdrawRedeemFees()":"bfaccf65"},"id":2}