{"abi":[{"type":"constructor","inputs":[{"name":"_usdc","type":"address","internalType":"address"},{"name":"_musd","type":"address","internalType":"address"},{"name":"_treasury","type":"address","internalType":"address"},{"name":"_feeRecipient","type":"address","internalType":"address"},{"name":"_timelock","type":"address","internalType":"address"}],"stateMutability":"nonpayable"},{"type":"function","name":"DEFAULT_ADMIN_ROLE","inputs":[],"outputs":[{"name":"","type":"bytes32","internalType":"bytes32"}],"stateMutability":"view"},{"type":"function","name":"FEE_MANAGER_ROLE","inputs":[],"outputs":[{"name":"","type":"bytes32","internalType":"bytes32"}],"stateMutability":"view"},{"type":"function","name":"MAX_FEE_BPS","inputs":[],"outputs":[{"name":"","type":"uint256","internalType":"uint256"}],"stateMutability":"view"},{"type":"function","name":"MINTER_ROLE","inputs":[],"outputs":[{"name":"","type":"bytes32","internalType":"bytes32"}],"stateMutability":"view"},{"type":"function","name":"PAUSER_ROLE","inputs":[],"outputs":[{"name":"","type":"bytes32","internalType":"bytes32"}],"stateMutability":"view"},{"type":"function","name":"availableForRedemption","inputs":[],"outputs":[{"name":"","type":"uint256","internalType":"uint256"}],"stateMutability":"view"},{"type":"function","name":"feeRecipient","inputs":[],"outputs":[{"name":"","type":"address","internalType":"address"}],"stateMutability":"view"},{"type":"function","name":"getRoleAdmin","inputs":[{"name":"role","type":"bytes32","internalType":"bytes32"}],"outputs":[{"name":"","type":"bytes32","internalType":"bytes32"}],"stateMutability":"view"},{"type":"function","name":"grantRole","inputs":[{"name":"role","type":"bytes32","internalType":"bytes32"},{"name":"account","type":"address","internalType":"address"}],"outputs":[],"stateMutability":"nonpayable"},{"type":"function","name":"hasRole","inputs":[{"name":"role","type":"bytes32","internalType":"bytes32"},{"name":"account","type":"address","internalType":"address"}],"outputs":[{"name":"","type":"bool","internalType":"bool"}],"stateMutability":"view"},{"type":"function","name":"maxMintAmount","inputs":[],"outputs":[{"name":"","type":"uint256","internalType":"uint256"}],"stateMutability":"view"},{"type":"function","name":"maxRedeemAmount","inputs":[],"outputs":[{"name":"","type":"uint256","internalType":"uint256"}],"stateMutability":"view"},{"type":"function","name":"minMintAmount","inputs":[],"outputs":[{"name":"","type":"uint256","internalType":"uint256"}],"stateMutability":"view"},{"type":"function","name":"minRedeemAmount","inputs":[],"outputs":[{"name":"","type":"uint256","internalType":"uint256"}],"stateMutability":"view"},{"type":"function","name":"mint","inputs":[{"name":"usdcAmount","type":"uint256","internalType":"uint256"}],"outputs":[{"name":"musdOut","type":"uint256","internalType":"uint256"}],"stateMutability":"nonpayable"},{"type":"function","name":"mintFeeBps","inputs":[],"outputs":[{"name":"","type":"uint256","internalType":"uint256"}],"stateMutability":"view"},{"type":"function","name":"mintFees","inputs":[],"outputs":[{"name":"","type":"uint256","internalType":"uint256"}],"stateMutability":"view"},{"type":"function","name":"mintFor","inputs":[{"name":"recipient","type":"address","internalType":"address"},{"name":"usdcAmount","type":"uint256","internalType":"uint256"}],"outputs":[{"name":"musdOut","type":"uint256","internalType":"uint256"}],"stateMutability":"nonpayable"},{"type":"function","name":"musd","inputs":[],"outputs":[{"name":"","type":"address","internalType":"contract IMUSD"}],"stateMutability":"view"},{"type":"function","name":"pause","inputs":[],"outputs":[],"stateMutability":"nonpayable"},{"type":"function","name":"paused","inputs":[],"outputs":[{"name":"","type":"bool","internalType":"bool"}],"stateMutability":"view"},{"type":"function","name":"previewMint","inputs":[{"name":"usdcAmount","type":"uint256","internalType":"uint256"}],"outputs":[{"name":"musdOut","type":"uint256","internalType":"uint256"},{"name":"feeUsdc","type":"uint256","internalType":"uint256"}],"stateMutability":"view"},{"type":"function","name":"previewRedeem","inputs":[{"name":"musdAmount","type":"uint256","internalType":"uint256"}],"outputs":[{"name":"usdcOut","type":"uint256","internalType":"uint256"},{"name":"feeUsdc","type":"uint256","internalType":"uint256"}],"stateMutability":"view"},{"type":"function","name":"recoverToken","inputs":[{"name":"token","type":"address","internalType":"address"},{"name":"amount","type":"uint256","internalType":"uint256"}],"outputs":[],"stateMutability":"nonpayable"},{"type":"function","name":"redeem","inputs":[{"name":"musdAmount","type":"uint256","internalType":"uint256"}],"outputs":[{"name":"usdcOut","type":"uint256","internalType":"uint256"}],"stateMutability":"nonpayable"},{"type":"function","name":"redeemFeeBps","inputs":[],"outputs":[{"name":"","type":"uint256","internalType":"uint256"}],"stateMutability":"view"},{"type":"function","name":"redeemFees","inputs":[],"outputs":[{"name":"","type":"uint256","internalType":"uint256"}],"stateMutability":"view"},{"type":"function","name":"remainingMintable","inputs":[],"outputs":[{"name":"","type":"uint256","internalType":"uint256"}],"stateMutability":"view"},{"type":"function","name":"renounceRole","inputs":[{"name":"role","type":"bytes32","internalType":"bytes32"},{"name":"callerConfirmation","type":"address","internalType":"address"}],"outputs":[],"stateMutability":"nonpayable"},{"type":"function","name":"revokeRole","inputs":[{"name":"role","type":"bytes32","internalType":"bytes32"},{"name":"account","type":"address","internalType":"address"}],"outputs":[],"stateMutability":"nonpayable"},{"type":"function","name":"setFeeRecipient","inputs":[{"name":"_recipient","type":"address","internalType":"address"}],"outputs":[],"stateMutability":"nonpayable"},{"type":"function","name":"setFees","inputs":[{"name":"_mintFeeBps","type":"uint256","internalType":"uint256"},{"name":"_redeemFeeBps","type":"uint256","internalType":"uint256"}],"outputs":[],"stateMutability":"nonpayable"},{"type":"function","name":"setLimits","inputs":[{"name":"_minMint","type":"uint256","internalType":"uint256"},{"name":"_maxMint","type":"uint256","internalType":"uint256"},{"name":"_minRedeem","type":"uint256","internalType":"uint256"},{"name":"_maxRedeem","type":"uint256","internalType":"uint256"}],"outputs":[],"stateMutability":"nonpayable"},{"type":"function","name":"setTimelock","inputs":[{"name":"_timelock","type":"address","internalType":"address"}],"outputs":[],"stateMutability":"nonpayable"},{"type":"function","name":"supportsInterface","inputs":[{"name":"interfaceId","type":"bytes4","internalType":"bytes4"}],"outputs":[{"name":"","type":"bool","internalType":"bool"}],"stateMutability":"view"},{"type":"function","name":"timelock","inputs":[],"outputs":[{"name":"","type":"address","internalType":"address"}],"stateMutability":"view"},{"type":"function","name":"totalAccumulatedFees","inputs":[],"outputs":[{"name":"","type":"uint256","internalType":"uint256"}],"stateMutability":"view"},{"type":"function","name":"totalTreasuryValue","inputs":[],"outputs":[{"name":"","type":"uint256","internalType":"uint256"}],"stateMutability":"view"},{"type":"function","name":"treasury","inputs":[],"outputs":[{"name":"","type":"address","internalType":"contract ITreasuryV2"}],"stateMutability":"view"},{"type":"function","name":"unpause","inputs":[],"outputs":[],"stateMutability":"nonpayable"},{"type":"function","name":"usdc","inputs":[],"outputs":[{"name":"","type":"address","internalType":"contract IERC20"}],"stateMutability":"view"},{"type":"function","name":"withdrawFees","inputs":[],"outputs":[],"stateMutability":"nonpayable"},{"type":"function","name":"withdrawRedeemFees","inputs":[],"outputs":[],"stateMutability":"nonpayable"},{"type":"event","name":"FeeRecipientUpdated","inputs":[{"name":"oldRecipient","type":"address","indexed":true,"internalType":"address"},{"name":"newRecipient","type":"address","indexed":true,"internalType":"address"}],"anonymous":false},{"type":"event","name":"FeesUpdated","inputs":[{"name":"mintFeeBps","type":"uint256","indexed":false,"internalType":"uint256"},{"name":"redeemFeeBps","type":"uint256","indexed":false,"internalType":"uint256"}],"anonymous":false},{"type":"event","name":"FeesWithdrawn","inputs":[{"name":"to","type":"address","indexed":true,"internalType":"address"},{"name":"amount","type":"uint256","indexed":false,"internalType":"uint256"}],"anonymous":false},{"type":"event","name":"LimitsUpdated","inputs":[{"name":"minMint","type":"uint256","indexed":false,"internalType":"uint256"},{"name":"maxMint","type":"uint256","indexed":false,"internalType":"uint256"},{"name":"minRedeem","type":"uint256","indexed":false,"internalType":"uint256"},{"name":"maxRedeem","type":"uint256","indexed":false,"internalType":"uint256"}],"anonymous":false},{"type":"event","name":"Minted","inputs":[{"name":"user","type":"address","indexed":true,"internalType":"address"},{"name":"usdcIn","type":"uint256","indexed":false,"internalType":"uint256"},{"name":"musdOut","type":"uint256","indexed":false,"internalType":"uint256"},{"name":"fee","type":"uint256","indexed":false,"internalType":"uint256"}],"anonymous":false},{"type":"event","name":"Paused","inputs":[{"name":"account","type":"address","indexed":false,"internalType":"address"}],"anonymous":false},{"type":"event","name":"Redeemed","inputs":[{"name":"user","type":"address","indexed":true,"internalType":"address"},{"name":"musdIn","type":"uint256","indexed":false,"internalType":"uint256"},{"name":"usdcOut","type":"uint256","indexed":false,"internalType":"uint256"},{"name":"fee","type":"uint256","indexed":false,"internalType":"uint256"}],"anonymous":false},{"type":"event","name":"RoleAdminChanged","inputs":[{"name":"role","type":"bytes32","indexed":true,"internalType":"bytes32"},{"name":"previousAdminRole","type":"bytes32","indexed":true,"internalType":"bytes32"},{"name":"newAdminRole","type":"bytes32","indexed":true,"internalType":"bytes32"}],"anonymous":false},{"type":"event","name":"RoleGranted","inputs":[{"name":"role","type":"bytes32","indexed":true,"internalType":"bytes32"},{"name":"account","type":"address","indexed":true,"internalType":"address"},{"name":"sender","type":"address","indexed":true,"internalType":"address"}],"anonymous":false},{"type":"event","name":"RoleRevoked","inputs":[{"name":"role","type":"bytes32","indexed":true,"internalType":"bytes32"},{"name":"account","type":"address","indexed":true,"internalType":"address"},{"name":"sender","type":"address","indexed":true,"internalType":"address"}],"anonymous":false},{"type":"event","name":"TimelockUpdated","inputs":[{"name":"oldTimelock","type":"address","indexed":true,"internalType":"address"},{"name":"newTimelock","type":"address","indexed":true,"internalType":"address"}],"anonymous":false},{"type":"event","name":"Unpaused","inputs":[{"name":"account","type":"address","indexed":false,"internalType":"address"}],"anonymous":false},{"type":"error","name":"AccessControlBadConfirmation","inputs":[]},{"type":"error","name":"AccessControlUnauthorizedAccount","inputs":[{"name":"account","type":"address","internalType":"address"},{"name":"neededRole","type":"bytes32","internalType":"bytes32"}]},{"type":"error","name":"EnforcedPause","inputs":[]},{"type":"error","name":"ExpectedPause","inputs":[]},{"type":"error","name":"OnlyTimelock","inputs":[]},{"type":"error","name":"ReentrancyGuardReentrantCall","inputs":[]},{"type":"error","name":"SafeERC20FailedOperation","inputs":[{"name":"token","type":"address","internalType":"address"}]},{"type":"error","name":"ZeroTimelock","inputs":[]}],"bytecode":{"object":"0x60e060405234801561000f575f80fd5b506040516125e73803806125e783398101604081905261002e9161037d565b600180556001600160a01b03851661007c5760405162461bcd60e51b815260206004820152600c60248201526b494e56414c49445f5553444360a01b60448201526064015b60405180910390fd5b6001600160a01b0384166100c15760405162461bcd60e51b815260206004820152600c60248201526b1253959053125117d35554d160a21b6044820152606401610073565b6001600160a01b03831661010a5760405162461bcd60e51b815260206004820152601060248201526f494e56414c49445f545245415355525960801b6044820152606401610073565b6001600160a01b0382166101605760405162461bcd60e51b815260206004820152601560248201527f494e56414c49445f4645455f524543495049454e5400000000000000000000006044820152606401610073565b6001600160a01b0385811660805284811660a05283811660c052600780546001600160a01b03191691841691909117905561019a81610228565b6101a45f336102b9565b506101cf7f65d7a28e3265b37a6474929f336521b332c1681b933f6cb9f3376673440d862a336102b9565b506101fa7f6c0757dc3e6b28b2580c03fd9e96c274acf4f99d91fbec9b418fa1d70604ff1c336102b9565b505060646003555050620f4240600881905564e8d4a510006009819055600a91909155600b55506103de9050565b6001600160a01b03811661024f576040516350c0eb2960e11b815260040160405180910390fd5b7f96ec2584f13cbcbf2926bb7c7d24b036ddd15a8842ae5726c96f4a4a3e97cc0080546001600160a01b0319166001600160a01b03831690811782556040515f907fae97011a27b5efe7b1d76fe38e75cc498fd64cc24e407a9c6b2185d27f611f7e908290a35050565b5f828152602081815260408083206001600160a01b038516845290915281205460ff16610359575f838152602081815260408083206001600160a01b03861684529091529020805460ff191660011790556103113390565b6001600160a01b0316826001600160a01b0316847f2f8788117e7eff1d82e926ec794901d17c78024a50270940304540a733656f0d60405160405180910390a450600161035c565b505f5b92915050565b80516001600160a01b0381168114610378575f80fd5b919050565b5f805f805f60a08688031215610391575f80fd5b61039a86610362565b94506103a860208701610362565b93506103b660408701610362565b92506103c460608701610362565b91506103d260808701610362565b90509295509295909350565b60805160a05160c0516121306104b75f395f81816103ed01528181610b7701528181610bb3015281816113bb015281816113f701528181611708015281816118d6015261195701525f81816104af015281816109c701528181610a4801528181610c4d01528181610eaf0152818161120b0152818161128c015281816114910152818161168f015281816119b50152611a3801525f8181610350015281816107ff01528181610b2001528181610b5501528181610e38015281816110b70152818161136401528181611399015261177b01526121305ff3fe608060405234801561000f575f80fd5b5060043610610260575f3560e01c806397c8bcc11161014b578063d5391393116100bf578063e542a13411610084578063e542a13414610557578063e63ab1e914610560578063e74b981b14610587578063e85507de1461059a578063f2adbe57146105a2578063f76e95e5146105aa575f80fd5b8063d5391393146104ee578063d547741f14610515578063d55be8c614610528578063da1919b314610531578063db006a7514610544575f80fd5b8063b3d7f6b911610110578063b3d7f6b914610473578063bdacb30314610486578063be36970c14610499578063bfaccf65146104a2578063cab666d0146104aa578063d33219b4146104d1575f80fd5b806397c8bcc11461042a578063a0712d6814610433578063a075b7c714610446578063a217fddf14610459578063b29a814014610460575f80fd5b80633a047bb3116101e2578063476343ee116101a7578063476343ee146103ad5780634cdad506146103b55780635c975abb146103dd57806361d027b3146103e85780638456cb591461040f57806391d1485414610417575f80fd5b80633a047bb3146103425780633e413bee1461034b5780633f4ba83a1461038a57806340a8546c14610392578063469048401461039a575f80fd5b80630b78f9c0116102285780630b78f9c0146102dc578063239c70ae146102f1578063248a9ca3146102fa5780632f2ff15d1461031c57806336568abe1461032f575f80fd5b806301e9d7571461026457806301ffc9a71461028057806305db2f41146102a35780630912ae6d146102ca57806309f6442c146102d3575b5f80fd5b61026d60085481565b6040519081526020015b60405180910390f35b61029361028e366004611edf565b6105b2565b6040519015158152602001610277565b61026d7f6c0757dc3e6b28b2580c03fd9e96c274acf4f99d91fbec9b418fa1d70604ff1c81565b61026d600a5481565b61026d60045481565b6102ef6102ea366004611f0d565b6105e8565b005b61026d60095481565b61026d610308366004611f2d565b5f9081526020819052604090206001015490565b6102ef61032a366004611f5a565b6106f9565b6102ef61033d366004611f5a565b610723565b61026d60065481565b6103727f000000000000000000000000000000000000000000000000000000000000000081565b6040516001600160a01b039091168152602001610277565b6102ef61075b565b61026d610770565b600754610372906001600160a01b031681565b6102ef610786565b6103c86103c3366004611f2d565b61086e565b60408051928352602083019190915201610277565b60025460ff16610293565b6103727f000000000000000000000000000000000000000000000000000000000000000081565b6102ef6108da565b610293610425366004611f5a565b61090c565b61026d60035481565b61026d610441366004611f2d565b610934565b6102ef610454366004611f84565b610d05565b61026d5f81565b6102ef61046e366004611fb3565b610e2c565b6103c8610481366004611f2d565b610f38565b6102ef610494366004611fdb565b610f73565b61026d600b5481565b6102ef611037565b6103727f000000000000000000000000000000000000000000000000000000000000000081565b5f805160206120db833981519152546001600160a01b0316610372565b61026d7f9f2df0fed2c77648de5860a4cc508cd0818c85b8b8a1ab4ceeef8d981c8956a681565b6102ef610523366004611f5a565b6110e0565b61026d6101f481565b61026d61053f366004611fb3565b611104565b61026d610552366004611f2d565b61154d565b61026d60055481565b61026d7f65d7a28e3265b37a6474929f336521b332c1681b933f6cb9f3376673440d862a81565b6102ef610595366004611fdb565b611801565b61026d6118d3565b61026d611954565b61026d6119b1565b5f6001600160e01b03198216637965db0b60e01b14806105e257506301ffc9a760e01b6001600160e01b03198316145b92915050565b5f805160206120db833981519152546001600160a01b0316331461061f57604051630e05f48560e11b815260040160405180910390fd5b6101f482111561066a5760405162461bcd60e51b815260206004820152601160248201527009a929ca8be8c8a8abea89e9ebe90928e9607b1b60448201526064015b60405180910390fd5b6101f48111156106b25760405162461bcd60e51b81526020600482015260136024820152720a48a888a8a9abe8c8a8abea89e9ebe90928e9606b1b6044820152606401610661565b6003829055600481905560408051838152602081018390527f5c6323bf1c2d7aaea2c091a4751c1c87af7f2864650c336507a77d0557af37a1910160405180910390a15050565b5f8281526020819052604090206001015461071381611ad6565b61071d8383611ae0565b50505050565b6001600160a01b038116331461074c5760405163334bd91960e11b815260040160405180910390fd5b6107568282611b6f565b505050565b5f61076581611ad6565b61076d611bd8565b50565b5f6006546005546107819190612008565b905090565b7f6c0757dc3e6b28b2580c03fd9e96c274acf4f99d91fbec9b418fa1d70604ff1c6107b081611ad6565b600554806107ea5760405162461bcd60e51b81526020600482015260076024820152664e4f5f4645455360c81b6044820152606401610661565b5f600555600754610828906001600160a01b037f00000000000000000000000000000000000000000000000000000000000000008116911683611c2a565b6007546040518281526001600160a01b03909116907fc0819c13be868895eb93e40eaceb96de976442fa1d404e5c55f14bb65a8c489a9060200160405180910390a25050565b5f808061088064e8d4a510008561201b565b9050662386f26fc1000060045485610898919061203a565b6108a2919061201b565b91505f6004541180156108b3575081155b80156108be57505f81115b156108c857600191505b6108d28282612051565b925050915091565b7f65d7a28e3265b37a6474929f336521b332c1681b933f6cb9f3376673440d862a61090481611ad6565b61076d611c82565b5f918252602082815260408084206001600160a01b0393909316845291905290205460ff1690565b5f61093d611cbf565b610945611ce9565b6008548210156109675760405162461bcd60e51b815260040161066190612064565b6009548211156109895760405162461bcd60e51b815260040161066190612087565b5f6127106003548461099b919061203a565b6109a5919061201b565b90505f6109b28285612051565b90506109c38164e8d4a5100061203a565b92507f00000000000000000000000000000000000000000000000000000000000000006001600160a01b0316638f770ad06040518163ffffffff1660e01b8152600401602060405180830381865afa158015610a21573d5f803e3d5ffd5b505050506040513d601f19601f82011682018060405250810190610a4591906120aa565b837f00000000000000000000000000000000000000000000000000000000000000006001600160a01b03166318160ddd6040518163ffffffff1660e01b8152600401602060405180830381865afa158015610aa2573d5f803e3d5ffd5b505050506040513d601f19601f82011682018060405250810190610ac691906120aa565b610ad09190612008565b1115610b135760405162461bcd60e51b81526020600482015260126024820152710455843454544535f535550504c595f4341560741b6044820152606401610661565b610b486001600160a01b037f000000000000000000000000000000000000000000000000000000000000000016333087611d0f565b610b9c6001600160a01b037f0000000000000000000000000000000000000000000000000000000000000000167f000000000000000000000000000000000000000000000000000000000000000083611d48565b6040516311f9fbc960e21b81526001600160a01b037f000000000000000000000000000000000000000000000000000000000000000016906347e7ef2490610bea90309085906004016120c1565b5f604051808303815f87803b158015610c01575f80fd5b505af1158015610c13573d5f803e3d5ffd5b505050505f821115610c36578160055f828254610c309190612008565b90915550505b6040516340c10f1960e01b81526001600160a01b037f000000000000000000000000000000000000000000000000000000000000000016906340c10f1990610c8490339087906004016120c1565b5f604051808303815f87803b158015610c9b575f80fd5b505af1158015610cad573d5f803e3d5ffd5b505060408051878152602081018790529081018590523392507f5a3358a3d27a5373c0df2604662088d37894d56b7cfd27f315770440f4e0d91991506060015b60405180910390a25050610d0060018055565b919050565b5f805160206120db833981519152546001600160a01b03163314610d3c57604051630e05f48560e11b815260040160405180910390fd5b82841115610d825760405162461bcd60e51b8152602060048201526013602482015272494e56414c49445f4d494e545f4c494d49545360681b6044820152606401610661565b80821115610dca5760405162461bcd60e51b8152602060048201526015602482015274494e56414c49445f52454445454d5f4c494d49545360581b6044820152606401610661565b60088490556009839055600a829055600b8190556040805185815260208101859052908101839052606081018290527fe3eb5d4eccdae2d96efa105f65c8db865f9fc72984f2b879a27448fed50d18159060800160405180910390a150505050565b5f610e3681611ad6565b7f00000000000000000000000000000000000000000000000000000000000000006001600160a01b0316836001600160a01b031603610ead5760405162461bcd60e51b815260206004820152601360248201527243414e4e4f545f5245434f5645525f5553444360681b6044820152606401610661565b7f00000000000000000000000000000000000000000000000000000000000000006001600160a01b0316836001600160a01b031603610f245760405162461bcd60e51b815260206004820152601360248201527210d0539393d517d49150d3d5915497d35554d1606a1b6044820152606401610661565b6107566001600160a01b0384163384611c2a565b5f8061271060035484610f4b919061203a565b610f55919061201b565b90505f610f628285612051565b90506108d28164e8d4a5100061203a565b5f805160206120db833981519152546001600160a01b03163314610faa57604051630e05f48560e11b815260040160405180910390fd5b6001600160a01b038116610fd1576040516350c0eb2960e11b815260040160405180910390fd5b5f805160206120db83398151915280546040516001600160a01b038481169216907fae97011a27b5efe7b1d76fe38e75cc498fd64cc24e407a9c6b2185d27f611f7e905f90a380546001600160a01b0319166001600160a01b0392909216919091179055565b7f6c0757dc3e6b28b2580c03fd9e96c274acf4f99d91fbec9b418fa1d70604ff1c61106181611ad6565b600654806110a25760405162461bcd60e51b815260206004820152600e60248201526d4e4f5f52454445454d5f4645455360901b6044820152606401610661565b5f600655600754610828906001600160a01b037f00000000000000000000000000000000000000000000000000000000000000008116911683611c2a565b5f828152602081905260409020600101546110fa81611ad6565b61071d8383611b6f565b5f61110d611cbf565b611115611ce9565b7f9f2df0fed2c77648de5860a4cc508cd0818c85b8b8a1ab4ceeef8d981c8956a661113f81611ad6565b6001600160a01b0384166111895760405162461bcd60e51b81526020600482015260116024820152701253959053125117d49150d25412515395607a1b6044820152606401610661565b6008548310156111ab5760405162461bcd60e51b815260040161066190612064565b6009548311156111cd5760405162461bcd60e51b815260040161066190612087565b5f612710600354856111df919061203a565b6111e9919061201b565b90505f6111f68286612051565b90506112078164e8d4a5100061203a565b93507f00000000000000000000000000000000000000000000000000000000000000006001600160a01b0316638f770ad06040518163ffffffff1660e01b8152600401602060405180830381865afa158015611265573d5f803e3d5ffd5b505050506040513d601f19601f8201168201806040525081019061128991906120aa565b847f00000000000000000000000000000000000000000000000000000000000000006001600160a01b03166318160ddd6040518163ffffffff1660e01b8152600401602060405180830381865afa1580156112e6573d5f803e3d5ffd5b505050506040513d601f19601f8201168201806040525081019061130a91906120aa565b6113149190612008565b11156113575760405162461bcd60e51b81526020600482015260126024820152710455843454544535f535550504c595f4341560741b6044820152606401610661565b61138c6001600160a01b037f000000000000000000000000000000000000000000000000000000000000000016333088611d0f565b6113e06001600160a01b037f0000000000000000000000000000000000000000000000000000000000000000167f000000000000000000000000000000000000000000000000000000000000000083611d48565b6040516311f9fbc960e21b81526001600160a01b037f000000000000000000000000000000000000000000000000000000000000000016906347e7ef249061142e90309085906004016120c1565b5f604051808303815f87803b158015611445575f80fd5b505af1158015611457573d5f803e3d5ffd5b505050505f82111561147a578160055f8282546114749190612008565b90915550505b6040516340c10f1960e01b81526001600160a01b037f000000000000000000000000000000000000000000000000000000000000000016906340c10f19906114c890899088906004016120c1565b5f604051808303815f87803b1580156114df575f80fd5b505af11580156114f1573d5f803e3d5ffd5b505060408051888152602081018890529081018590526001600160a01b03891692507f5a3358a3d27a5373c0df2604662088d37894d56b7cfd27f315770440f4e0d919915060600160405180910390a25050506105e260018055565b5f611556611cbf565b61155e611ce9565b5f821161159e5760405162461bcd60e51b815260206004820152600e60248201526d1253959053125117d05353d5539560921b6044820152606401610661565b5f6115ae64e8d4a510008461201b565b9050600a548110156115d25760405162461bcd60e51b815260040161066190612064565b600b548111156115f45760405162461bcd60e51b815260040161066190612087565b5f662386f26fc100006004548561160b919061203a565b611615919061201b565b90505f600454118015611626575080155b1561162f575060015b6116398183612051565b92505f83116116785760405162461bcd60e51b815260206004820152600b60248201526a16915493d7d3d55514155560aa1b6044820152606401610661565b604051632770a7eb60e21b81526001600160a01b037f00000000000000000000000000000000000000000000000000000000000000001690639dc29fac906116c690339088906004016120c1565b5f604051808303815f87803b1580156116dd575f80fd5b505af11580156116ef573d5f803e3d5ffd5b505060405163f3fef3a360e01b81526001600160a01b037f000000000000000000000000000000000000000000000000000000000000000016925063f3fef3a3915061174190309086906004016120c1565b5f604051808303815f87803b158015611758575f80fd5b505af115801561176a573d5f803e3d5ffd5b506117a49250506001600160a01b037f00000000000000000000000000000000000000000000000000000000000000001690503385611c2a565b80156117c1578060065f8282546117bb9190612008565b90915550505b604080518581526020810185905290810182905233907f484c40561359f3e3b8be9101897f8680aa82fbe1df9fd9038e0dbc628403264690606001610ced565b5f805160206120db833981519152546001600160a01b0316331461183857604051630e05f48560e11b815260040160405180910390fd5b6001600160a01b0381166118825760405162461bcd60e51b81526020600482015260116024820152701253959053125117d49150d25412515395607a1b6044820152606401610661565b600780546001600160a01b038381166001600160a01b0319831681179093556040519116919082907faaebcf1bfa00580e41d966056b48521fa9f202645c86d4ddf28113e617c1b1d3905f90a35050565b5f7f00000000000000000000000000000000000000000000000000000000000000006001600160a01b031663d4c3eea06040518163ffffffff1660e01b8152600401602060405180830381865afa158015611930573d5f803e3d5ffd5b505050506040513d601f19601f8201168201806040525081019061078191906120aa565b5f7f00000000000000000000000000000000000000000000000000000000000000006001600160a01b0316631fa7c6686040518163ffffffff1660e01b8152600401602060405180830381865afa158015611930573d5f803e3d5ffd5b5f807f00000000000000000000000000000000000000000000000000000000000000006001600160a01b0316638f770ad06040518163ffffffff1660e01b8152600401602060405180830381865afa158015611a0f573d5f803e3d5ffd5b505050506040513d601f19601f82011682018060405250810190611a3391906120aa565b90505f7f00000000000000000000000000000000000000000000000000000000000000006001600160a01b03166318160ddd6040518163ffffffff1660e01b8152600401602060405180830381865afa158015611a92573d5f803e3d5ffd5b505050506040513d601f19601f82011682018060405250810190611ab691906120aa565b9050808211611ac5575f611acf565b611acf8183612051565b9250505090565b61076d8133611dd8565b5f611aeb838361090c565b611b68575f838152602081815260408083206001600160a01b03861684529091529020805460ff19166001179055611b203390565b6001600160a01b0316826001600160a01b0316847f2f8788117e7eff1d82e926ec794901d17c78024a50270940304540a733656f0d60405160405180910390a45060016105e2565b505f6105e2565b5f611b7a838361090c565b15611b68575f838152602081815260408083206001600160a01b0386168085529252808320805460ff1916905551339286917ff6391f5c32d9c69d2a47ea670b442974b53935d1edc7fd64eb21e047a839171b9190a45060016105e2565b611be0611e07565b6002805460ff191690557f5db9ee0a495bf2e6ff9c91a7834c1ba4fdd244a5e8aa4e537bd38aeae4b073aa335b6040516001600160a01b03909116815260200160405180910390a1565b61075683846001600160a01b031663a9059cbb8585604051602401611c509291906120c1565b604051602081830303815290604052915060e01b6020820180516001600160e01b038381831617835250505050611e2a565b611c8a611ce9565b6002805460ff191660011790557f62e78cea01bee320cd4e420270b5ea74000d11b0c9f74754ebdbfc544b05a258611c0d3390565b600260015403611ce257604051633ee5aeb560e01b815260040160405180910390fd5b6002600155565b60025460ff1615611d0d5760405163d93c066560e01b815260040160405180910390fd5b565b6040516001600160a01b03848116602483015283811660448301526064820183905261071d9186918216906323b872dd90608401611c50565b5f836001600160a01b031663095ea7b38484604051602401611d6b9291906120c1565b604051602081830303815290604052915060e01b6020820180516001600160e01b0383818316178352505050509050611da48482611e96565b61071d57611dce84856001600160a01b031663095ea7b3865f604051602401611c509291906120c1565b61071d8482611e2a565b611de2828261090c565b611e0357808260405163e2517d3f60e01b81526004016106619291906120c1565b5050565b60025460ff16611d0d57604051638dfc202b60e01b815260040160405180910390fd5b5f8060205f8451602086015f885af180611e49576040513d5f823e3d81fd5b50505f513d91508115611e60578060011415611e6d565b6001600160a01b0384163b155b1561071d57604051635274afe760e01b81526001600160a01b0385166004820152602401610661565b5f805f8060205f8651602088015f8a5af192503d91505f519050828015611ed557508115611ec75780600114611ed5565b5f866001600160a01b03163b115b9695505050505050565b5f60208284031215611eef575f80fd5b81356001600160e01b031981168114611f06575f80fd5b9392505050565b5f8060408385031215611f1e575f80fd5b50508035926020909101359150565b5f60208284031215611f3d575f80fd5b5035919050565b80356001600160a01b0381168114610d00575f80fd5b5f8060408385031215611f6b575f80fd5b82359150611f7b60208401611f44565b90509250929050565b5f805f8060808587031215611f97575f80fd5b5050823594602084013594506040840135936060013592509050565b5f8060408385031215611fc4575f80fd5b611fcd83611f44565b946020939093013593505050565b5f60208284031215611feb575f80fd5b611f0682611f44565b634e487b7160e01b5f52601160045260245ffd5b808201808211156105e2576105e2611ff4565b5f8261203557634e487b7160e01b5f52601260045260245ffd5b500490565b80820281158282048414176105e2576105e2611ff4565b818103818111156105e2576105e2611ff4565b6020808252600990820152682122a627abafa6a4a760b91b604082015260600190565b602080825260099082015268082849eac8abe9a82b60bb1b604082015260600190565b5f602082840312156120ba575f80fd5b5051919050565b6001600160a01b0392909216825260208201526040019056fe96ec2584f13cbcbf2926bb7c7d24b036ddd15a8842ae5726c96f4a4a3e97cc00a26469706673582212205dc1c89a489957b0fbdaec8538dda4232ba772fa0146efe8001d681d2817e59d64736f6c634300081a0033","linkReferences":{}},"methodIdentifiers":{"DEFAULT_ADMIN_ROLE()":"a217fddf","FEE_MANAGER_ROLE()":"05db2f41","MAX_FEE_BPS()":"d55be8c6","MINTER_ROLE()":"d5391393","PAUSER_ROLE()":"e63ab1e9","availableForRedemption()":"f2adbe57","feeRecipient()":"46904840","getRoleAdmin(bytes32)":"248a9ca3","grantRole(bytes32,address)":"2f2ff15d","hasRole(bytes32,address)":"91d14854","maxMintAmount()":"239c70ae","maxRedeemAmount()":"be36970c","minMintAmount()":"01e9d757","minRedeemAmount()":"0912ae6d","mint(uint256)":"a0712d68","mintFeeBps()":"97c8bcc1","mintFees()":"e542a134","mintFor(address,uint256)":"da1919b3","musd()":"cab666d0","pause()":"8456cb59","paused()":"5c975abb","previewMint(uint256)":"b3d7f6b9","previewRedeem(uint256)":"4cdad506","recoverToken(address,uint256)":"b29a8140","redeem(uint256)":"db006a75","redeemFeeBps()":"09f6442c","redeemFees()":"3a047bb3","remainingMintable()":"f76e95e5","renounceRole(bytes32,address)":"36568abe","revokeRole(bytes32,address)":"d547741f","setFeeRecipient(address)":"e74b981b","setFees(uint256,uint256)":"0b78f9c0","setLimits(uint256,uint256,uint256,uint256)":"a075b7c7","setTimelock(address)":"bdacb303","supportsInterface(bytes4)":"01ffc9a7","timelock()":"d33219b4","totalAccumulatedFees()":"40a8546c","totalTreasuryValue()":"e85507de","treasury()":"61d027b3","unpause()":"3f4ba83a","usdc()":"3e413bee","withdrawFees()":"476343ee","withdrawRedeemFees()":"bfaccf65"},"id":4}