{"abi":[{"type":"constructor","inputs":[{"name":"_usdc","type":"address","internalType":"address"},{"name":"_musd","type":"address","internalType":"address"},{"name":"_treasury","type":"address","internalType":"address"},{"name":"_feeRecipient","type":"address","internalType":"address"},{"name":"_timelock","type":"address","internalType":"address"}],"stateMutability":"nonpayable"},{"type":"function","name":"DEFAULT_ADMIN_ROLE","inputs":[],"outputs":[{"name":"","type":"bytes32","internalType":"bytes32"}],"stateMutability":"view"},{"type":"function","name":"FEE_MANAGER_ROLE","inputs":[],"outputs":[{"name":"","type":"bytes32","internalType":"bytes32"}],"stateMutability":"view"},{"type":"function","name":"MAX_FEE_BPS","inputs":[],"outputs":[{"name":"","type":"uint256","internalType":"uint256"}],"stateMutability":"view"},{"type":"function","name":"MINTER_ROLE","inputs":[],"outputs":[{"name":"","type":"bytes32","internalType":"bytes32"}],"stateMutability":"view"},{"type":"function","name":"PAUSER_ROLE","inputs":[],"outputs":[{"name":"","type":"bytes32","internalType":"bytes32"}],"stateMutability":"view"},{"type":"function","name":"availableForRedemption","inputs":[],"outputs":[{"name":"","type":"uint256","internalType":"uint256"}],"stateMutability":"view"},{"type":"function","name":"feeRecipient","inputs":[],"outputs":[{"name":"","type":"address","internalType":"address"}],"stateMutability":"view"},{"type":"function","name":"getRoleAdmin","inputs":[{"name":"role","type":"bytes32","internalType":"bytes32"}],"outputs":[{"name":"","type":"bytes32","internalType":"bytes32"}],"stateMutability":"view"},{"type":"function","name":"grantRole","inputs":[{"name":"role","type":"bytes32","internalType":"bytes32"},{"name":"account","type":"address","internalType":"address"}],"outputs":[],"stateMutability":"nonpayable"},{"type":"function","name":"hasRole","inputs":[{"name":"role","type":"bytes32","internalType":"bytes32"},{"name":"account","type":"address","internalType":"address"}],"outputs":[{"name":"","type":"bool","internalType":"bool"}],"stateMutability":"view"},{"type":"function","name":"maxMintAmount","inputs":[],"outputs":[{"name":"","type":"uint256","internalType":"uint256"}],"stateMutability":"view"},{"type":"function","name":"maxRedeemAmount","inputs":[],"outputs":[{"name":"","type":"uint256","internalType":"uint256"}],"stateMutability":"view"},{"type":"function","name":"minMintAmount","inputs":[],"outputs":[{"name":"","type":"uint256","internalType":"uint256"}],"stateMutability":"view"},{"type":"function","name":"minRedeemAmount","inputs":[],"outputs":[{"name":"","type":"uint256","internalType":"uint256"}],"stateMutability":"view"},{"type":"function","name":"mint","inputs":[{"name":"usdcAmount","type":"uint256","internalType":"uint256"}],"outputs":[{"name":"musdOut","type":"uint256","internalType":"uint256"}],"stateMutability":"nonpayable"},{"type":"function","name":"mintFeeBps","inputs":[],"outputs":[{"name":"","type":"uint256","internalType":"uint256"}],"stateMutability":"view"},{"type":"function","name":"mintFees","inputs":[],"outputs":[{"name":"","type":"uint256","internalType":"uint256"}],"stateMutability":"view"},{"type":"function","name":"mintFor","inputs":[{"name":"recipient","type":"address","internalType":"address"},{"name":"usdcAmount","type":"uint256","internalType":"uint256"}],"outputs":[{"name":"musdOut","type":"uint256","internalType":"uint256"}],"stateMutability":"nonpayable"},{"type":"function","name":"musd","inputs":[],"outputs":[{"name":"","type":"address","internalType":"contract IMUSD"}],"stateMutability":"view"},{"type":"function","name":"pause","inputs":[],"outputs":[],"stateMutability":"nonpayable"},{"type":"function","name":"paused","inputs":[],"outputs":[{"name":"","type":"bool","internalType":"bool"}],"stateMutability":"view"},{"type":"function","name":"previewMint","inputs":[{"name":"usdcAmount","type":"uint256","internalType":"uint256"}],"outputs":[{"name":"musdOut","type":"uint256","internalType":"uint256"},{"name":"feeUsdc","type":"uint256","internalType":"uint256"}],"stateMutability":"view"},{"type":"function","name":"previewRedeem","inputs":[{"name":"musdAmount","type":"uint256","internalType":"uint256"}],"outputs":[{"name":"usdcOut","type":"uint256","internalType":"uint256"},{"name":"feeUsdc","type":"uint256","internalType":"uint256"}],"stateMutability":"view"},{"type":"function","name":"recoverToken","inputs":[{"name":"token","type":"address","internalType":"address"},{"name":"amount","type":"uint256","internalType":"uint256"}],"outputs":[],"stateMutability":"nonpayable"},{"type":"function","name":"redeem","inputs":[{"name":"musdAmount","type":"uint256","internalType":"uint256"}],"outputs":[{"name":"usdcOut","type":"uint256","internalType":"uint256"}],"stateMutability":"nonpayable"},{"type":"function","name":"redeemFeeBps","inputs":[],"outputs":[{"name":"","type":"uint256","internalType":"uint256"}],"stateMutability":"view"},{"type":"function","name":"redeemFees","inputs":[],"outputs":[{"name":"","type":"uint256","internalType":"uint256"}],"stateMutability":"view"},{"type":"function","name":"remainingMintable","inputs":[],"outputs":[{"name":"","type":"uint256","internalType":"uint256"}],"stateMutability":"view"},{"type":"function","name":"renounceRole","inputs":[{"name":"role","type":"bytes32","internalType":"bytes32"},{"name":"callerConfirmation","type":"address","internalType":"address"}],"outputs":[],"stateMutability":"nonpayable"},{"type":"function","name":"revokeRole","inputs":[{"name":"role","type":"bytes32","internalType":"bytes32"},{"name":"account","type":"address","internalType":"address"}],"outputs":[],"stateMutability":"nonpayable"},{"type":"function","name":"setFeeRecipient","inputs":[{"name":"_recipient","type":"address","internalType":"address"}],"outputs":[],"stateMutability":"nonpayable"},{"type":"function","name":"setFees","inputs":[{"name":"_mintFeeBps","type":"uint256","internalType":"uint256"},{"name":"_redeemFeeBps","type":"uint256","internalType":"uint256"}],"outputs":[],"stateMutability":"nonpayable"},{"type":"function","name":"setLimits","inputs":[{"name":"_minMint","type":"uint256","internalType":"uint256"},{"name":"_maxMint","type":"uint256","internalType":"uint256"},{"name":"_minRedeem","type":"uint256","internalType":"uint256"},{"name":"_maxRedeem","type":"uint256","internalType":"uint256"}],"outputs":[],"stateMutability":"nonpayable"},{"type":"function","name":"setTimelock","inputs":[{"name":"_timelock","type":"address","internalType":"address"}],"outputs":[],"stateMutability":"nonpayable"},{"type":"function","name":"supportsInterface","inputs":[{"name":"interfaceId","type":"bytes4","internalType":"bytes4"}],"outputs":[{"name":"","type":"bool","internalType":"bool"}],"stateMutability":"view"},{"type":"function","name":"timelock","inputs":[],"outputs":[{"name":"","type":"address","internalType":"address"}],"stateMutability":"view"},{"type":"function","name":"totalAccumulatedFees","inputs":[],"outputs":[{"name":"","type":"uint256","internalType":"uint256"}],"stateMutability":"view"},{"type":"function","name":"totalTreasuryValue","inputs":[],"outputs":[{"name":"","type":"uint256","internalType":"uint256"}],"stateMutability":"view"},{"type":"function","name":"treasury","inputs":[],"outputs":[{"name":"","type":"address","internalType":"contract ITreasuryV2"}],"stateMutability":"view"},{"type":"function","name":"unpause","inputs":[],"outputs":[],"stateMutability":"nonpayable"},{"type":"function","name":"usdc","inputs":[],"outputs":[{"name":"","type":"address","internalType":"contract IERC20"}],"stateMutability":"view"},{"type":"function","name":"withdrawFees","inputs":[],"outputs":[],"stateMutability":"nonpayable"},{"type":"function","name":"withdrawRedeemFees","inputs":[],"outputs":[],"stateMutability":"nonpayable"},{"type":"event","name":"FeeRecipientUpdated","inputs":[{"name":"oldRecipient","type":"address","indexed":true,"internalType":"address"},{"name":"newRecipient","type":"address","indexed":true,"internalType":"address"}],"anonymous":false},{"type":"event","name":"FeesUpdated","inputs":[{"name":"mintFeeBps","type":"uint256","indexed":false,"internalType":"uint256"},{"name":"redeemFeeBps","type":"uint256","indexed":false,"internalType":"uint256"}],"anonymous":false},{"type":"event","name":"FeesWithdrawn","inputs":[{"name":"to","type":"address","indexed":true,"internalType":"address"},{"name":"amount","type":"uint256","indexed":false,"internalType":"uint256"}],"anonymous":false},{"type":"event","name":"LimitsUpdated","inputs":[{"name":"minMint","type":"uint256","indexed":false,"internalType":"uint256"},{"name":"maxMint","type":"uint256","indexed":false,"internalType":"uint256"},{"name":"minRedeem","type":"uint256","indexed":false,"internalType":"uint256"},{"name":"maxRedeem","type":"uint256","indexed":false,"internalType":"uint256"}],"anonymous":false},{"type":"event","name":"Minted","inputs":[{"name":"user","type":"address","indexed":true,"internalType":"address"},{"name":"usdcIn","type":"uint256","indexed":false,"internalType":"uint256"},{"name":"musdOut","type":"uint256","indexed":false,"internalType":"uint256"},{"name":"fee","type":"uint256","indexed":false,"internalType":"uint256"}],"anonymous":false},{"type":"event","name":"Paused","inputs":[{"name":"account","type":"address","indexed":false,"internalType":"address"}],"anonymous":false},{"type":"event","name":"Redeemed","inputs":[{"name":"user","type":"address","indexed":true,"internalType":"address"},{"name":"musdIn","type":"uint256","indexed":false,"internalType":"uint256"},{"name":"usdcOut","type":"uint256","indexed":false,"internalType":"uint256"},{"name":"fee","type":"uint256","indexed":false,"internalType":"uint256"}],"anonymous":false},{"type":"event","name":"RoleAdminChanged","inputs":[{"name":"role","type":"bytes32","indexed":true,"internalType":"bytes32"},{"name":"previousAdminRole","type":"bytes32","indexed":true,"internalType":"bytes32"},{"name":"newAdminRole","type":"bytes32","indexed":true,"internalType":"bytes32"}],"anonymous":false},{"type":"event","name":"RoleGranted","inputs":[{"name":"role","type":"bytes32","indexed":true,"internalType":"bytes32"},{"name":"account","type":"address","indexed":true,"internalType":"address"},{"name":"sender","type":"address","indexed":true,"internalType":"address"}],"anonymous":false},{"type":"event","name":"RoleRevoked","inputs":[{"name":"role","type":"bytes32","indexed":true,"internalType":"bytes32"},{"name":"account","type":"address","indexed":true,"internalType":"address"},{"name":"sender","type":"address","indexed":true,"internalType":"address"}],"anonymous":false},{"type":"event","name":"TimelockUpdated","inputs":[{"name":"oldTimelock","type":"address","indexed":true,"internalType":"address"},{"name":"newTimelock","type":"address","indexed":true,"internalType":"address"}],"anonymous":false},{"type":"event","name":"Unpaused","inputs":[{"name":"account","type":"address","indexed":false,"internalType":"address"}],"anonymous":false},{"type":"error","name":"AccessControlBadConfirmation","inputs":[]},{"type":"error","name":"AccessControlUnauthorizedAccount","inputs":[{"name":"account","type":"address","internalType":"address"},{"name":"neededRole","type":"bytes32","internalType":"bytes32"}]},{"type":"error","name":"EnforcedPause","inputs":[]},{"type":"error","name":"ExpectedPause","inputs":[]},{"type":"error","name":"OnlyTimelock","inputs":[]},{"type":"error","name":"ReentrancyGuardReentrantCall","inputs":[]},{"type":"error","name":"SafeERC20FailedOperation","inputs":[{"name":"token","type":"address","internalType":"address"}]},{"type":"error","name":"ZeroTimelock","inputs":[]}],"bytecode":{"object":"0x60e060405234801561000f575f80fd5b5060405161258f38038061258f83398101604081905261002e91610366565b600180556001600160a01b03851661007c5760405162461bcd60e51b815260206004820152600c60248201526b494e56414c49445f5553444360a01b60448201526064015b60405180910390fd5b6001600160a01b0384166100c15760405162461bcd60e51b815260206004820152600c60248201526b1253959053125117d35554d160a21b6044820152606401610073565b6001600160a01b03831661010a5760405162461bcd60e51b815260206004820152601060248201526f494e56414c49445f545245415355525960801b6044820152606401610073565b6001600160a01b0382166101605760405162461bcd60e51b815260206004820152601560248201527f494e56414c49445f4645455f524543495049454e5400000000000000000000006044820152606401610073565b6001600160a01b0385811660805284811660a05283811660c052600780546001600160a01b03191691841691909117905561019a81610228565b6101a45f336102a2565b506101cf7f65d7a28e3265b37a6474929f336521b332c1681b933f6cb9f3376673440d862a336102a2565b506101fa7f6c0757dc3e6b28b2580c03fd9e96c274acf4f99d91fbec9b418fa1d70604ff1c336102a2565b505060646003555050620f4240600881905564e8d4a510006009819055600a91909155600b55506103c79050565b6001600160a01b03811661024f576040516350c0eb2960e11b815260040160405180910390fd5b60028054610100600160a81b0319166101006001600160a01b038416908102919091179091556040515f907fae97011a27b5efe7b1d76fe38e75cc498fd64cc24e407a9c6b2185d27f611f7e908290a350565b5f828152602081815260408083206001600160a01b038516845290915281205460ff16610342575f838152602081815260408083206001600160a01b03861684529091529020805460ff191660011790556102fa3390565b6001600160a01b0316826001600160a01b0316847f2f8788117e7eff1d82e926ec794901d17c78024a50270940304540a733656f0d60405160405180910390a4506001610345565b505f5b92915050565b80516001600160a01b0381168114610361575f80fd5b919050565b5f805f805f60a0868803121561037a575f80fd5b6103838661034b565b94506103916020870161034b565b935061039f6040870161034b565b92506103ad6060870161034b565b91506103bb6080870161034b565b90509295509295909350565b60805160a05160c0516120ef6104a05f395f81816103ed01528181610b6b01528181610ba7015281816113a1015281816113dd015281816116ee015281816118b5015261193601525f81816104af015281816109bb01528181610a3c01528181610c4101528181610e9c015281816111f1015281816112720152818161147701528181611675015281816119940152611a1701525f8181610350015281816107f301528181610b1401528181610b4901528181610e250152818161109d0152818161134a0152818161137f015261176101526120ef5ff3fe608060405234801561000f575f80fd5b5060043610610260575f3560e01c806397c8bcc11161014b578063d5391393116100bf578063e542a13411610084578063e542a13414610552578063e63ab1e91461055b578063e74b981b14610582578063e85507de14610595578063f2adbe571461059d578063f76e95e5146105a5575f80fd5b8063d5391393146104e9578063d547741f14610510578063d55be8c614610523578063da1919b31461052c578063db006a751461053f575f80fd5b8063b3d7f6b911610110578063b3d7f6b914610473578063bdacb30314610486578063be36970c14610499578063bfaccf65146104a2578063cab666d0146104aa578063d33219b4146104d1575f80fd5b806397c8bcc11461042a578063a0712d6814610433578063a075b7c714610446578063a217fddf14610459578063b29a814014610460575f80fd5b80633a047bb3116101e2578063476343ee116101a7578063476343ee146103ad5780634cdad506146103b55780635c975abb146103dd57806361d027b3146103e85780638456cb591461040f57806391d1485414610417575f80fd5b80633a047bb3146103425780633e413bee1461034b5780633f4ba83a1461038a57806340a8546c14610392578063469048401461039a575f80fd5b80630b78f9c0116102285780630b78f9c0146102dc578063239c70ae146102f1578063248a9ca3146102fa5780632f2ff15d1461031c57806336568abe1461032f575f80fd5b806301e9d7571461026457806301ffc9a71461028057806305db2f41146102a35780630912ae6d146102ca57806309f6442c146102d3575b5f80fd5b61026d60085481565b6040519081526020015b60405180910390f35b61029361028e366004611ebe565b6105ad565b6040519015158152602001610277565b61026d7f6c0757dc3e6b28b2580c03fd9e96c274acf4f99d91fbec9b418fa1d70604ff1c81565b61026d600a5481565b61026d60045481565b6102ef6102ea366004611eec565b6105e3565b005b61026d60095481565b61026d610308366004611f0c565b5f9081526020819052604090206001015490565b6102ef61032a366004611f39565b6106ed565b6102ef61033d366004611f39565b610717565b61026d60065481565b6103727f000000000000000000000000000000000000000000000000000000000000000081565b6040516001600160a01b039091168152602001610277565b6102ef61074f565b61026d610764565b600754610372906001600160a01b031681565b6102ef61077a565b6103c86103c3366004611f0c565b610862565b60408051928352602083019190915201610277565b60025460ff16610293565b6103727f000000000000000000000000000000000000000000000000000000000000000081565b6102ef6108ce565b610293610425366004611f39565b610900565b61026d60035481565b61026d610441366004611f0c565b610928565b6102ef610454366004611f63565b610cf9565b61026d5f81565b6102ef61046e366004611f92565b610e19565b6103c8610481366004611f0c565b610f25565b6102ef610494366004611fba565b610f60565b61026d600b5481565b6102ef61101d565b6103727f000000000000000000000000000000000000000000000000000000000000000081565b6002546103729061010090046001600160a01b031681565b61026d7f9f2df0fed2c77648de5860a4cc508cd0818c85b8b8a1ab4ceeef8d981c8956a681565b6102ef61051e366004611f39565b6110c6565b61026d6101f481565b61026d61053a366004611f92565b6110ea565b61026d61054d366004611f0c565b611533565b61026d60055481565b61026d7f65d7a28e3265b37a6474929f336521b332c1681b933f6cb9f3376673440d862a81565b6102ef610590366004611fba565b6117e7565b61026d6118b2565b61026d611933565b61026d611990565b5f6001600160e01b03198216637965db0b60e01b14806105dd57506301ffc9a760e01b6001600160e01b03198316145b92915050565b60025461010090046001600160a01b0316331461061357604051630e05f48560e11b815260040160405180910390fd5b6101f482111561065e5760405162461bcd60e51b815260206004820152601160248201527009a929ca8be8c8a8abea89e9ebe90928e9607b1b60448201526064015b60405180910390fd5b6101f48111156106a65760405162461bcd60e51b81526020600482015260136024820152720a48a888a8a9abe8c8a8abea89e9ebe90928e9606b1b6044820152606401610655565b6003829055600481905560408051838152602081018390527f5c6323bf1c2d7aaea2c091a4751c1c87af7f2864650c336507a77d0557af37a1910160405180910390a15050565b5f8281526020819052604090206001015461070781611ab5565b6107118383611abf565b50505050565b6001600160a01b03811633146107405760405163334bd91960e11b815260040160405180910390fd5b61074a8282611b4e565b505050565b5f61075981611ab5565b610761611bb7565b50565b5f6006546005546107759190611fe7565b905090565b7f6c0757dc3e6b28b2580c03fd9e96c274acf4f99d91fbec9b418fa1d70604ff1c6107a481611ab5565b600554806107de5760405162461bcd60e51b81526020600482015260076024820152664e4f5f4645455360c81b6044820152606401610655565b5f60055560075461081c906001600160a01b037f00000000000000000000000000000000000000000000000000000000000000008116911683611c09565b6007546040518281526001600160a01b03909116907fc0819c13be868895eb93e40eaceb96de976442fa1d404e5c55f14bb65a8c489a9060200160405180910390a25050565b5f808061087464e8d4a5100085611ffa565b9050662386f26fc100006004548561088c9190612019565b6108969190611ffa565b91505f6004541180156108a7575081155b80156108b257505f81115b156108bc57600191505b6108c68282612030565b925050915091565b7f65d7a28e3265b37a6474929f336521b332c1681b933f6cb9f3376673440d862a6108f881611ab5565b610761611c61565b5f918252602082815260408084206001600160a01b0393909316845291905290205460ff1690565b5f610931611c9e565b610939611cc8565b60085482101561095b5760405162461bcd60e51b815260040161065590612043565b60095482111561097d5760405162461bcd60e51b815260040161065590612066565b5f6127106003548461098f9190612019565b6109999190611ffa565b90505f6109a68285612030565b90506109b78164e8d4a51000612019565b92507f00000000000000000000000000000000000000000000000000000000000000006001600160a01b0316638f770ad06040518163ffffffff1660e01b8152600401602060405180830381865afa158015610a15573d5f803e3d5ffd5b505050506040513d601f19601f82011682018060405250810190610a399190612089565b837f00000000000000000000000000000000000000000000000000000000000000006001600160a01b03166318160ddd6040518163ffffffff1660e01b8152600401602060405180830381865afa158015610a96573d5f803e3d5ffd5b505050506040513d601f19601f82011682018060405250810190610aba9190612089565b610ac49190611fe7565b1115610b075760405162461bcd60e51b81526020600482015260126024820152710455843454544535f535550504c595f4341560741b6044820152606401610655565b610b3c6001600160a01b037f000000000000000000000000000000000000000000000000000000000000000016333087611cee565b610b906001600160a01b037f0000000000000000000000000000000000000000000000000000000000000000167f000000000000000000000000000000000000000000000000000000000000000083611d27565b6040516311f9fbc960e21b81526001600160a01b037f000000000000000000000000000000000000000000000000000000000000000016906347e7ef2490610bde90309085906004016120a0565b5f604051808303815f87803b158015610bf5575f80fd5b505af1158015610c07573d5f803e3d5ffd5b505050505f821115610c2a578160055f828254610c249190611fe7565b90915550505b6040516340c10f1960e01b81526001600160a01b037f000000000000000000000000000000000000000000000000000000000000000016906340c10f1990610c7890339087906004016120a0565b5f604051808303815f87803b158015610c8f575f80fd5b505af1158015610ca1573d5f803e3d5ffd5b505060408051878152602081018790529081018590523392507f5a3358a3d27a5373c0df2604662088d37894d56b7cfd27f315770440f4e0d91991506060015b60405180910390a25050610cf460018055565b919050565b60025461010090046001600160a01b03163314610d2957604051630e05f48560e11b815260040160405180910390fd5b82841115610d6f5760405162461bcd60e51b8152602060048201526013602482015272494e56414c49445f4d494e545f4c494d49545360681b6044820152606401610655565b80821115610db75760405162461bcd60e51b8152602060048201526015602482015274494e56414c49445f52454445454d5f4c494d49545360581b6044820152606401610655565b60088490556009839055600a829055600b8190556040805185815260208101859052908101839052606081018290527fe3eb5d4eccdae2d96efa105f65c8db865f9fc72984f2b879a27448fed50d18159060800160405180910390a150505050565b5f610e2381611ab5565b7f00000000000000000000000000000000000000000000000000000000000000006001600160a01b0316836001600160a01b031603610e9a5760405162461bcd60e51b815260206004820152601360248201527243414e4e4f545f5245434f5645525f5553444360681b6044820152606401610655565b7f00000000000000000000000000000000000000000000000000000000000000006001600160a01b0316836001600160a01b031603610f115760405162461bcd60e51b815260206004820152601360248201527210d0539393d517d49150d3d5915497d35554d1606a1b6044820152606401610655565b61074a6001600160a01b0384163384611c09565b5f8061271060035484610f389190612019565b610f429190611ffa565b90505f610f4f8285612030565b90506108c68164e8d4a51000612019565b60025461010090046001600160a01b03163314610f9057604051630e05f48560e11b815260040160405180910390fd5b6001600160a01b038116610fb7576040516350c0eb2960e11b815260040160405180910390fd5b6002546040516001600160a01b0380841692610100900416907fae97011a27b5efe7b1d76fe38e75cc498fd64cc24e407a9c6b2185d27f611f7e905f90a3600280546001600160a01b0390921661010002610100600160a81b0319909216919091179055565b7f6c0757dc3e6b28b2580c03fd9e96c274acf4f99d91fbec9b418fa1d70604ff1c61104781611ab5565b600654806110885760405162461bcd60e51b815260206004820152600e60248201526d4e4f5f52454445454d5f4645455360901b6044820152606401610655565b5f60065560075461081c906001600160a01b037f00000000000000000000000000000000000000000000000000000000000000008116911683611c09565b5f828152602081905260409020600101546110e081611ab5565b6107118383611b4e565b5f6110f3611c9e565b6110fb611cc8565b7f9f2df0fed2c77648de5860a4cc508cd0818c85b8b8a1ab4ceeef8d981c8956a661112581611ab5565b6001600160a01b03841661116f5760405162461bcd60e51b81526020600482015260116024820152701253959053125117d49150d25412515395607a1b6044820152606401610655565b6008548310156111915760405162461bcd60e51b815260040161065590612043565b6009548311156111b35760405162461bcd60e51b815260040161065590612066565b5f612710600354856111c59190612019565b6111cf9190611ffa565b90505f6111dc8286612030565b90506111ed8164e8d4a51000612019565b93507f00000000000000000000000000000000000000000000000000000000000000006001600160a01b0316638f770ad06040518163ffffffff1660e01b8152600401602060405180830381865afa15801561124b573d5f803e3d5ffd5b505050506040513d601f19601f8201168201806040525081019061126f9190612089565b847f00000000000000000000000000000000000000000000000000000000000000006001600160a01b03166318160ddd6040518163ffffffff1660e01b8152600401602060405180830381865afa1580156112cc573d5f803e3d5ffd5b505050506040513d601f19601f820116820180604052508101906112f09190612089565b6112fa9190611fe7565b111561133d5760405162461bcd60e51b81526020600482015260126024820152710455843454544535f535550504c595f4341560741b6044820152606401610655565b6113726001600160a01b037f000000000000000000000000000000000000000000000000000000000000000016333088611cee565b6113c66001600160a01b037f0000000000000000000000000000000000000000000000000000000000000000167f000000000000000000000000000000000000000000000000000000000000000083611d27565b6040516311f9fbc960e21b81526001600160a01b037f000000000000000000000000000000000000000000000000000000000000000016906347e7ef249061141490309085906004016120a0565b5f604051808303815f87803b15801561142b575f80fd5b505af115801561143d573d5f803e3d5ffd5b505050505f821115611460578160055f82825461145a9190611fe7565b90915550505b6040516340c10f1960e01b81526001600160a01b037f000000000000000000000000000000000000000000000000000000000000000016906340c10f19906114ae90899088906004016120a0565b5f604051808303815f87803b1580156114c5575f80fd5b505af11580156114d7573d5f803e3d5ffd5b505060408051888152602081018890529081018590526001600160a01b03891692507f5a3358a3d27a5373c0df2604662088d37894d56b7cfd27f315770440f4e0d919915060600160405180910390a25050506105dd60018055565b5f61153c611c9e565b611544611cc8565b5f82116115845760405162461bcd60e51b815260206004820152600e60248201526d1253959053125117d05353d5539560921b6044820152606401610655565b5f61159464e8d4a5100084611ffa565b9050600a548110156115b85760405162461bcd60e51b815260040161065590612043565b600b548111156115da5760405162461bcd60e51b815260040161065590612066565b5f662386f26fc10000600454856115f19190612019565b6115fb9190611ffa565b90505f60045411801561160c575080155b15611615575060015b61161f8183612030565b92505f831161165e5760405162461bcd60e51b815260206004820152600b60248201526a16915493d7d3d55514155560aa1b6044820152606401610655565b604051632770a7eb60e21b81526001600160a01b037f00000000000000000000000000000000000000000000000000000000000000001690639dc29fac906116ac90339088906004016120a0565b5f604051808303815f87803b1580156116c3575f80fd5b505af11580156116d5573d5f803e3d5ffd5b505060405163f3fef3a360e01b81526001600160a01b037f000000000000000000000000000000000000000000000000000000000000000016925063f3fef3a3915061172790309086906004016120a0565b5f604051808303815f87803b15801561173e575f80fd5b505af1158015611750573d5f803e3d5ffd5b5061178a9250506001600160a01b037f00000000000000000000000000000000000000000000000000000000000000001690503385611c09565b80156117a7578060065f8282546117a19190611fe7565b90915550505b604080518581526020810185905290810182905233907f484c40561359f3e3b8be9101897f8680aa82fbe1df9fd9038e0dbc628403264690606001610ce1565b60025461010090046001600160a01b0316331461181757604051630e05f48560e11b815260040160405180910390fd5b6001600160a01b0381166118615760405162461bcd60e51b81526020600482015260116024820152701253959053125117d49150d25412515395607a1b6044820152606401610655565b600780546001600160a01b038381166001600160a01b0319831681179093556040519116919082907faaebcf1bfa00580e41d966056b48521fa9f202645c86d4ddf28113e617c1b1d3905f90a35050565b5f7f00000000000000000000000000000000000000000000000000000000000000006001600160a01b031663d4c3eea06040518163ffffffff1660e01b8152600401602060405180830381865afa15801561190f573d5f803e3d5ffd5b505050506040513d601f19601f820116820180604052508101906107759190612089565b5f7f00000000000000000000000000000000000000000000000000000000000000006001600160a01b0316631fa7c6686040518163ffffffff1660e01b8152600401602060405180830381865afa15801561190f573d5f803e3d5ffd5b5f807f00000000000000000000000000000000000000000000000000000000000000006001600160a01b0316638f770ad06040518163ffffffff1660e01b8152600401602060405180830381865afa1580156119ee573d5f803e3d5ffd5b505050506040513d601f19601f82011682018060405250810190611a129190612089565b90505f7f00000000000000000000000000000000000000000000000000000000000000006001600160a01b03166318160ddd6040518163ffffffff1660e01b8152600401602060405180830381865afa158015611a71573d5f803e3d5ffd5b505050506040513d601f19601f82011682018060405250810190611a959190612089565b9050808211611aa4575f611aae565b611aae8183612030565b9250505090565b6107618133611db7565b5f611aca8383610900565b611b47575f838152602081815260408083206001600160a01b03861684529091529020805460ff19166001179055611aff3390565b6001600160a01b0316826001600160a01b0316847f2f8788117e7eff1d82e926ec794901d17c78024a50270940304540a733656f0d60405160405180910390a45060016105dd565b505f6105dd565b5f611b598383610900565b15611b47575f838152602081815260408083206001600160a01b0386168085529252808320805460ff1916905551339286917ff6391f5c32d9c69d2a47ea670b442974b53935d1edc7fd64eb21e047a839171b9190a45060016105dd565b611bbf611de6565b6002805460ff191690557f5db9ee0a495bf2e6ff9c91a7834c1ba4fdd244a5e8aa4e537bd38aeae4b073aa335b6040516001600160a01b03909116815260200160405180910390a1565b61074a83846001600160a01b031663a9059cbb8585604051602401611c2f9291906120a0565b604051602081830303815290604052915060e01b6020820180516001600160e01b038381831617835250505050611e09565b611c69611cc8565b6002805460ff191660011790557f62e78cea01bee320cd4e420270b5ea74000d11b0c9f74754ebdbfc544b05a258611bec3390565b600260015403611cc157604051633ee5aeb560e01b815260040160405180910390fd5b6002600155565b60025460ff1615611cec5760405163d93c066560e01b815260040160405180910390fd5b565b6040516001600160a01b0384811660248301528381166044830152606482018390526107119186918216906323b872dd90608401611c2f565b5f836001600160a01b031663095ea7b38484604051602401611d4a9291906120a0565b604051602081830303815290604052915060e01b6020820180516001600160e01b0383818316178352505050509050611d838482611e75565b61071157611dad84856001600160a01b031663095ea7b3865f604051602401611c2f9291906120a0565b6107118482611e09565b611dc18282610900565b611de257808260405163e2517d3f60e01b81526004016106559291906120a0565b5050565b60025460ff16611cec57604051638dfc202b60e01b815260040160405180910390fd5b5f8060205f8451602086015f885af180611e28576040513d5f823e3d81fd5b50505f513d91508115611e3f578060011415611e4c565b6001600160a01b0384163b155b1561071157604051635274afe760e01b81526001600160a01b0385166004820152602401610655565b5f805f8060205f8651602088015f8a5af192503d91505f519050828015611eb457508115611ea65780600114611eb4565b5f866001600160a01b03163b115b9695505050505050565b5f60208284031215611ece575f80fd5b81356001600160e01b031981168114611ee5575f80fd5b9392505050565b5f8060408385031215611efd575f80fd5b50508035926020909101359150565b5f60208284031215611f1c575f80fd5b5035919050565b80356001600160a01b0381168114610cf4575f80fd5b5f8060408385031215611f4a575f80fd5b82359150611f5a60208401611f23565b90509250929050565b5f805f8060808587031215611f76575f80fd5b5050823594602084013594506040840135936060013592509050565b5f8060408385031215611fa3575f80fd5b611fac83611f23565b946020939093013593505050565b5f60208284031215611fca575f80fd5b611ee582611f23565b634e487b7160e01b5f52601160045260245ffd5b808201808211156105dd576105dd611fd3565b5f8261201457634e487b7160e01b5f52601260045260245ffd5b500490565b80820281158282048414176105dd576105dd611fd3565b818103818111156105dd576105dd611fd3565b6020808252600990820152682122a627abafa6a4a760b91b604082015260600190565b602080825260099082015268082849eac8abe9a82b60bb1b604082015260600190565b5f60208284031215612099575f80fd5b5051919050565b6001600160a01b0392909216825260208201526040019056fea2646970667358221220039719ba22c20157d44811e7b77f0ab79fbd3f0afbd5de6e7650aa16bd68e6c164736f6c634300081a0033","linkReferences":{}},"methodIdentifiers":{"DEFAULT_ADMIN_ROLE()":"a217fddf","FEE_MANAGER_ROLE()":"05db2f41","MAX_FEE_BPS()":"d55be8c6","MINTER_ROLE()":"d5391393","PAUSER_ROLE()":"e63ab1e9","availableForRedemption()":"f2adbe57","feeRecipient()":"46904840","getRoleAdmin(bytes32)":"248a9ca3","grantRole(bytes32,address)":"2f2ff15d","hasRole(bytes32,address)":"91d14854","maxMintAmount()":"239c70ae","maxRedeemAmount()":"be36970c","minMintAmount()":"01e9d757","minRedeemAmount()":"0912ae6d","mint(uint256)":"a0712d68","mintFeeBps()":"97c8bcc1","mintFees()":"e542a134","mintFor(address,uint256)":"da1919b3","musd()":"cab666d0","pause()":"8456cb59","paused()":"5c975abb","previewMint(uint256)":"b3d7f6b9","previewRedeem(uint256)":"4cdad506","recoverToken(address,uint256)":"b29a8140","redeem(uint256)":"db006a75","redeemFeeBps()":"09f6442c","redeemFees()":"3a047bb3","remainingMintable()":"f76e95e5","renounceRole(bytes32,address)":"36568abe","revokeRole(bytes32,address)":"d547741f","setFeeRecipient(address)":"e74b981b","setFees(uint256,uint256)":"0b78f9c0","setLimits(uint256,uint256,uint256,uint256)":"a075b7c7","setTimelock(address)":"bdacb303","supportsInterface(bytes4)":"01ffc9a7","timelock()":"d33219b4","totalAccumulatedFees()":"40a8546c","totalTreasuryValue()":"e85507de","treasury()":"61d027b3","unpause()":"3f4ba83a","usdc()":"3e413bee","withdrawFees()":"476343ee","withdrawRedeemFees()":"bfaccf65"},"id":3}