{"abi":[{"type":"constructor","inputs":[{"name":"_admin","type":"address","internalType":"address"}],"stateMutability":"nonpayable"},{"type":"function","name":"ADMIN_DELAY","inputs":[],"outputs":[{"name":"","type":"uint256","internalType":"uint256"}],"stateMutability":"view"},{"type":"function","name":"DEFAULT_ADMIN_ROLE","inputs":[],"outputs":[{"name":"","type":"bytes32","internalType":"bytes32"}],"stateMutability":"view"},{"type":"function","name":"RATE_ADMIN_ROLE","inputs":[],"outputs":[{"name":"","type":"bytes32","internalType":"bytes32"}],"stateMutability":"view"},{"type":"function","name":"baseRateBps","inputs":[],"outputs":[{"name":"","type":"uint256","internalType":"uint256"}],"stateMutability":"view"},{"type":"function","name":"calculateInterest","inputs":[{"name":"principal","type":"uint256","internalType":"uint256"},{"name":"totalBorrows","type":"uint256","internalType":"uint256"},{"name":"totalSupply","type":"uint256","internalType":"uint256"},{"name":"secondsElapsed","type":"uint256","internalType":"uint256"}],"outputs":[{"name":"","type":"uint256","internalType":"uint256"}],"stateMutability":"view"},{"type":"function","name":"cancelSetParams","inputs":[],"outputs":[],"stateMutability":"nonpayable"},{"type":"function","name":"executeSetParams","inputs":[],"outputs":[],"stateMutability":"nonpayable"},{"type":"function","name":"getBorrowRateAnnual","inputs":[{"name":"totalBorrows","type":"uint256","internalType":"uint256"},{"name":"totalSupply","type":"uint256","internalType":"uint256"}],"outputs":[{"name":"","type":"uint256","internalType":"uint256"}],"stateMutability":"view"},{"type":"function","name":"getBorrowRatePerSecond","inputs":[{"name":"totalBorrows","type":"uint256","internalType":"uint256"},{"name":"totalSupply","type":"uint256","internalType":"uint256"}],"outputs":[{"name":"","type":"uint256","internalType":"uint256"}],"stateMutability":"view"},{"type":"function","name":"getParams","inputs":[],"outputs":[{"name":"_baseRateBps","type":"uint256","internalType":"uint256"},{"name":"_multiplierBps","type":"uint256","internalType":"uint256"},{"name":"_kinkBps","type":"uint256","internalType":"uint256"},{"name":"_jumpMultiplierBps","type":"uint256","internalType":"uint256"},{"name":"_reserveFactorBps","type":"uint256","internalType":"uint256"}],"stateMutability":"view"},{"type":"function","name":"getRateCurve","inputs":[],"outputs":[{"name":"rates","type":"uint256[3][11]","internalType":"uint256[3][11]"}],"stateMutability":"view"},{"type":"function","name":"getRoleAdmin","inputs":[{"name":"role","type":"bytes32","internalType":"bytes32"}],"outputs":[{"name":"","type":"bytes32","internalType":"bytes32"}],"stateMutability":"view"},{"type":"function","name":"getSupplyRateAnnual","inputs":[{"name":"totalBorrows","type":"uint256","internalType":"uint256"},{"name":"totalSupply","type":"uint256","internalType":"uint256"}],"outputs":[{"name":"","type":"uint256","internalType":"uint256"}],"stateMutability":"view"},{"type":"function","name":"getSupplyRatePerSecond","inputs":[{"name":"totalBorrows","type":"uint256","internalType":"uint256"},{"name":"totalSupply","type":"uint256","internalType":"uint256"}],"outputs":[{"name":"","type":"uint256","internalType":"uint256"}],"stateMutability":"view"},{"type":"function","name":"grantRole","inputs":[{"name":"role","type":"bytes32","internalType":"bytes32"},{"name":"account","type":"address","internalType":"address"}],"outputs":[],"stateMutability":"nonpayable"},{"type":"function","name":"hasRole","inputs":[{"name":"role","type":"bytes32","internalType":"bytes32"},{"name":"account","type":"address","internalType":"address"}],"outputs":[{"name":"","type":"bool","internalType":"bool"}],"stateMutability":"view"},{"type":"function","name":"jumpMultiplierBps","inputs":[],"outputs":[{"name":"","type":"uint256","internalType":"uint256"}],"stateMutability":"view"},{"type":"function","name":"kinkBps","inputs":[],"outputs":[{"name":"","type":"uint256","internalType":"uint256"}],"stateMutability":"view"},{"type":"function","name":"multiplierBps","inputs":[],"outputs":[{"name":"","type":"uint256","internalType":"uint256"}],"stateMutability":"view"},{"type":"function","name":"pendingParams","inputs":[],"outputs":[{"name":"baseRateBps","type":"uint256","internalType":"uint256"},{"name":"multiplierBps","type":"uint256","internalType":"uint256"},{"name":"kinkBps","type":"uint256","internalType":"uint256"},{"name":"jumpMultiplierBps","type":"uint256","internalType":"uint256"},{"name":"reserveFactorBps","type":"uint256","internalType":"uint256"},{"name":"requestTime","type":"uint256","internalType":"uint256"},{"name":"pending","type":"bool","internalType":"bool"}],"stateMutability":"view"},{"type":"function","name":"renounceRole","inputs":[{"name":"role","type":"bytes32","internalType":"bytes32"},{"name":"callerConfirmation","type":"address","internalType":"address"}],"outputs":[],"stateMutability":"nonpayable"},{"type":"function","name":"requestSetParams","inputs":[{"name":"_baseRateBps","type":"uint256","internalType":"uint256"},{"name":"_multiplierBps","type":"uint256","internalType":"uint256"},{"name":"_kinkBps","type":"uint256","internalType":"uint256"},{"name":"_jumpMultiplierBps","type":"uint256","internalType":"uint256"},{"name":"_reserveFactorBps","type":"uint256","internalType":"uint256"}],"outputs":[],"stateMutability":"nonpayable"},{"type":"function","name":"reserveFactorBps","inputs":[],"outputs":[{"name":"","type":"uint256","internalType":"uint256"}],"stateMutability":"view"},{"type":"function","name":"revokeRole","inputs":[{"name":"role","type":"bytes32","internalType":"bytes32"},{"name":"account","type":"address","internalType":"address"}],"outputs":[],"stateMutability":"nonpayable"},{"type":"function","name":"splitInterest","inputs":[{"name":"interestAmount","type":"uint256","internalType":"uint256"}],"outputs":[{"name":"supplierAmount","type":"uint256","internalType":"uint256"},{"name":"reserveAmount","type":"uint256","internalType":"uint256"}],"stateMutability":"view"},{"type":"function","name":"supportsInterface","inputs":[{"name":"interfaceId","type":"bytes4","internalType":"bytes4"}],"outputs":[{"name":"","type":"bool","internalType":"bool"}],"stateMutability":"view"},{"type":"function","name":"utilizationRate","inputs":[{"name":"totalBorrows","type":"uint256","internalType":"uint256"},{"name":"totalSupply","type":"uint256","internalType":"uint256"}],"outputs":[{"name":"","type":"uint256","internalType":"uint256"}],"stateMutability":"pure"},{"type":"event","name":"RateParamsChangeCancelled","inputs":[],"anonymous":false},{"type":"event","name":"RateParamsChangeRequested","inputs":[{"name":"baseRateBps","type":"uint256","indexed":false,"internalType":"uint256"},{"name":"multiplierBps","type":"uint256","indexed":false,"internalType":"uint256"},{"name":"kinkBps","type":"uint256","indexed":false,"internalType":"uint256"},{"name":"jumpMultiplierBps","type":"uint256","indexed":false,"internalType":"uint256"},{"name":"reserveFactorBps","type":"uint256","indexed":false,"internalType":"uint256"},{"name":"readyAt","type":"uint256","indexed":false,"internalType":"uint256"}],"anonymous":false},{"type":"event","name":"RateParamsUpdated","inputs":[{"name":"baseRateBps","type":"uint256","indexed":false,"internalType":"uint256"},{"name":"multiplierBps","type":"uint256","indexed":false,"internalType":"uint256"},{"name":"kinkBps","type":"uint256","indexed":false,"internalType":"uint256"},{"name":"jumpMultiplierBps","type":"uint256","indexed":false,"internalType":"uint256"},{"name":"reserveFactorBps","type":"uint256","indexed":false,"internalType":"uint256"}],"anonymous":false},{"type":"event","name":"RoleAdminChanged","inputs":[{"name":"role","type":"bytes32","indexed":true,"internalType":"bytes32"},{"name":"previousAdminRole","type":"bytes32","indexed":true,"internalType":"bytes32"},{"name":"newAdminRole","type":"bytes32","indexed":true,"internalType":"bytes32"}],"anonymous":false},{"type":"event","name":"RoleGranted","inputs":[{"name":"role","type":"bytes32","indexed":true,"internalType":"bytes32"},{"name":"account","type":"address","indexed":true,"internalType":"address"},{"name":"sender","type":"address","indexed":true,"internalType":"address"}],"anonymous":false},{"type":"event","name":"RoleRevoked","inputs":[{"name":"role","type":"bytes32","indexed":true,"internalType":"bytes32"},{"name":"account","type":"address","indexed":true,"internalType":"address"},{"name":"sender","type":"address","indexed":true,"internalType":"address"}],"anonymous":false},{"type":"error","name":"AccessControlBadConfirmation","inputs":[]},{"type":"error","name":"AccessControlUnauthorizedAccount","inputs":[{"name":"account","type":"address","internalType":"address"},{"name":"neededRole","type":"bytes32","internalType":"bytes32"}]},{"type":"error","name":"BaseRateTooHigh","inputs":[]},{"type":"error","name":"InvalidParameter","inputs":[]},{"type":"error","name":"KinkTooHigh","inputs":[]},{"type":"error","name":"KinkTooLow","inputs":[]},{"type":"error","name":"MultiplierZero","inputs":[]},{"type":"error","name":"ReserveFactorTooHigh","inputs":[]}],"bytecode":{"object":"0x608060405234801561000f575f80fd5b506040516111fa3803806111fa83398101604081905261002e91610179565b6001600160a01b0381166100785760405162461bcd60e51b815260206004820152600d60248201526c24a72b20a624a22fa0a226a4a760991b604482015260640160405180910390fd5b60c86001556103e86002819055611f4060035561138860045560055561009e5f826100d0565b506100c97faf977a80e23262c8ff5f86cefbb6a4f6250c151974ee28fb039b0005ddf0d2cd826100d0565b50506101a6565b5f828152602081815260408083206001600160a01b038516845290915281205460ff16610170575f838152602081815260408083206001600160a01b03861684529091529020805460ff191660011790556101283390565b6001600160a01b0316826001600160a01b0316847f2f8788117e7eff1d82e926ec794901d17c78024a50270940304540a733656f0d60405160405180910390a4506001610173565b505f5b92915050565b5f60208284031215610189575f80fd5b81516001600160a01b038116811461019f575f80fd5b9392505050565b611047806101b35f395ff3fe608060405234801561000f575f80fd5b50600436106101a1575f3560e01c80635e615a6b116100f3578063aaa6a39111610093578063c87bed701161006e578063c87bed70146103bf578063d547741f146103c8578063dfe444b0146103db578063ec2de40c146103ef575f80fd5b8063aaa6a39114610351578063ac353e041461035a578063b9bacd0014610363575f80fd5b806391d14854116100ce57806391d148541461031857806392ffacac1461032b578063a217fddf14610335578063a6c9e5c11461033c575f80fd5b80635e615a6b146102a6578063724dfc92146102dd5780638d5009e4146102f0575f80fd5b80632f2ff15d1161015e5780633a989ce9116101395780633a989ce91461026e5780633ca24624146102775780635592f3281461028a578063572c9c5d1461029d575f80fd5b80632f2ff15d1461024057806336568abe146102535780633846b41b14610266575f80fd5b806301ffc9a7146101a55780631941c7dc146101cd5780632385884c146101ee578063248a9ca31461020357806324a849ac14610225578063257d9ef51461022d575b5f80fd5b6101b86101b3366004610e00565b610402565b60405190151581526020015b60405180910390f35b6101e06101db366004610e27565b610438565b6040519081526020016101c4565b6102016101fc366004610e47565b61046f565b005b6101e0610211366004610e7e565b5f9081526020819052604090206001015490565b6102016106f6565b6101e061023b366004610e27565b610886565b61020161024e366004610e95565b6108e9565b610201610261366004610e95565b610913565b61020161094b565b6101e060035481565b6101e0610285366004610e27565b6109f4565b6101e0610298366004610e27565b610aa8565b6101e060045481565b600154600254600354600454600554604080519586526020860194909452928401919091526060830152608082015260a0016101c4565b6101e06102eb366004610ece565b610ab4565b6103036102fe366004610e7e565b610af4565b604080519283526020830191909152016101c4565b6101b8610326366004610e95565b610b24565b6101e06202a30081565b6101e05f81565b610344610b4c565b6040516101c49190610efd565b6101e060015481565b6101e060025481565b600654600754600854600954600a54600b54600c546103889695949392919060ff1687565b604080519788526020880196909652948601939093526060850191909152608084015260a0830152151560c082015260e0016101c4565b6101e060055481565b6102016103d6366004610e95565b610c11565b6101e05f80516020610ff283398151915281565b6101e06103fd366004610e27565b610c35565b5f6001600160e01b03198216637965db0b60e01b148061043257506301ffc9a760e01b6001600160e01b03198316145b92915050565b5f806104448484610886565b90506301e1338061045d670de0b6b3a764000083610f69565b6104679190610f80565b949350505050565b5f80516020610ff283398151915261048681610c72565b600c5460ff16156104de5760405162461bcd60e51b815260206004820152601860248201527f50524f504f53414c5f414c52454144595f50454e44494e47000000000000000060448201526064015b60405180910390fd5b6107d0861115610501576040516307f234c560e31b815260040160405180910390fd5b612710841115610524576040516368f73e7360e11b815260040160405180910390fd5b6103e8841015610547576040516306e9526560e21b815260040160405180910390fd5b845f0361056757604051633e6dc9d560e11b815260040160405180910390fd5b825f0361058757604051633e6dc9d560e11b815260040160405180910390fd5b6113888211156105aa57604051638e27038160e01b815260040160405180910390fd5b5f612710846105b98783610f9f565b6105c39190610f69565b6105cd9190610f80565b6127106105da8888610f69565b6105e49190610f80565b6105ee9089610fb2565b6105f89190610fb2565b905061271081111561061d57604051630309cb8760e51b815260040160405180910390fd5b6040805160e0810182528881526020810188905290810186905260608101859052608081018490524260a08201819052600160c09092018290526006899055600788905560088790556009869055600a859055600b819055600c805460ff19169092179091557f338fae1b52e6840721a06f3392ea86a8d1814a8c1c2b357f0aaa42c2f09de37790889088908890889088906106bd906202a30090610fb2565b604080519687526020870195909552938501929092526060840152608083015260a082015260c00160405180910390a150505050505050565b5f80516020610ff283398151915261070d81610c72565b6040805160e08101825260065481526007546020820152600854918101919091526009546060820152600a546080820152600b5460a0820152600c5460ff16151560c0820181905261078e5760405162461bcd60e51b815260206004820152600a6024820152694e4f5f50454e44494e4760b01b60448201526064016104d5565b6202a3008160a001516107a19190610fb2565b4210156107e25760405162461bcd60e51b815260206004820152600f60248201526e54494d454c4f434b5f41435449564560881b60448201526064016104d5565b8051600181905560208083015160028190556040808501516003819055606080870151600481905560808089015160058190555f6006819055600781905560088190556009819055600a819055600b55600c805460ff19169055855198895296880195909552928601919091528401528201527fb8a41d853fbcd4f9d24f2663e12e272abb53eacc8c43c8012d00d4b4b17aade89060a00160405180910390a15050565b5f8061089284846109f4565b90505f61089f8585610c35565b90505f6005546127106108b29190610f9f565b90506108c061271080610f69565b816108cb8486610f69565b6108d59190610f69565b6108df9190610f80565b9695505050505050565b5f8281526020819052604090206001015461090381610c72565b61090d8383610c7f565b50505050565b6001600160a01b038116331461093c5760405163334bd91960e11b815260040160405180910390fd5b6109468282610d0e565b505050565b5f80516020610ff283398151915261096281610c72565b600c5460ff166109a15760405162461bcd60e51b815260206004820152600a6024820152694e4f5f50454e44494e4760b01b60448201526064016104d5565b5f6006819055600781905560088190556009819055600a819055600b819055600c805460ff191690556040517fb08df1ecf2b6fb2c45a8a42322ad7e0ffcb28280f1d07d6b39c8e00f2ae123999190a150565b5f80610a008484610c35565b90506003548111610a3b5761271060025482610a1c9190610f69565b610a269190610f80565b600154610a339190610fb2565b915050610432565b5f612710600254600354610a4f9190610f69565b610a599190610f80565b600154610a669190610fb2565b90505f60035483610a779190610f9f565b905061271060045482610a8a9190610f69565b610a949190610f80565b610a9e9083610fb2565b9350505050610432565b5f8061044484846109f4565b5f841580610ac0575081155b15610acc57505f610467565b5f610ad785856109f4565b9050610ae96301e13380612710610f69565b836108cb8389610f69565b5f8061271060055484610b079190610f69565b610b119190610f80565b9050610b1d8184610f9f565b9150915091565b5f918252602082815260408084206001600160a01b0393909316845291905290205460ff1690565b610b54610db4565b5f5b600a8111610c0d575f610b6b826103e8610f69565b9050670de0b6b3a76400005f612710610b848484610f69565b610b8e9190610f80565b9050828585600b8110610ba357610ba3610fc5565b602002015152610bb381836109f4565b8585600b8110610bc557610bc5610fc5565b602002015160016020020152610bdb8183610886565b8585600b8110610bed57610bed610fc5565b60200201516040015250829150610c05905081610fd9565b915050610b56565b5090565b5f82815260208190526040902060010154610c2b81610c72565b61090d8383610d0e565b5f815f03610c4457505f610432565b818310610c545750612710610432565b81610c6161271085610f69565b610c6b9190610f80565b9392505050565b610c7c8133610d77565b50565b5f610c8a8383610b24565b610d07575f838152602081815260408083206001600160a01b03861684529091529020805460ff19166001179055610cbf3390565b6001600160a01b0316826001600160a01b0316847f2f8788117e7eff1d82e926ec794901d17c78024a50270940304540a733656f0d60405160405180910390a4506001610432565b505f610432565b5f610d198383610b24565b15610d07575f838152602081815260408083206001600160a01b0386168085529252808320805460ff1916905551339286917ff6391f5c32d9c69d2a47ea670b442974b53935d1edc7fd64eb21e047a839171b9190a4506001610432565b610d818282610b24565b610db05760405163e2517d3f60e01b81526001600160a01b0382166004820152602481018390526044016104d5565b5050565b604051806101600160405280600b905b610dcc610de2565b815260200190600190039081610dc45790505090565b60405180606001604052806003906020820280368337509192915050565b5f60208284031215610e10575f80fd5b81356001600160e01b031981168114610c6b575f80fd5b5f8060408385031215610e38575f80fd5b50508035926020909101359150565b5f805f805f60a08688031215610e5b575f80fd5b505083359560208501359550604085013594606081013594506080013592509050565b5f60208284031215610e8e575f80fd5b5035919050565b5f8060408385031215610ea6575f80fd5b8235915060208301356001600160a01b0381168114610ec3575f80fd5b809150509250929050565b5f805f8060808587031215610ee1575f80fd5b5050823594602084013594506040840135936060013592509050565b610420810181835f5b600b811015610f4c578151835f5b6003811015610f33578251825260209283019290910190600101610f14565b5050506060929092019160209190910190600101610f06565b50505092915050565b634e487b7160e01b5f52601160045260245ffd5b808202811582820484141761043257610432610f55565b5f82610f9a57634e487b7160e01b5f52601260045260245ffd5b500490565b8181038181111561043257610432610f55565b8082018082111561043257610432610f55565b634e487b7160e01b5f52603260045260245ffd5b5f60018201610fea57610fea610f55565b506001019056feaf977a80e23262c8ff5f86cefbb6a4f6250c151974ee28fb039b0005ddf0d2cda2646970667358221220793206677d959e56bbcc06a15a4ec408b9da25bc075927776380c6fe0bd6624664736f6c634300081a0033","linkReferences":{}},"methodIdentifiers":{"ADMIN_DELAY()":"92ffacac","DEFAULT_ADMIN_ROLE()":"a217fddf","RATE_ADMIN_ROLE()":"dfe444b0","baseRateBps()":"aaa6a391","calculateInterest(uint256,uint256,uint256,uint256)":"724dfc92","cancelSetParams()":"3846b41b","executeSetParams()":"24a849ac","getBorrowRateAnnual(uint256,uint256)":"3ca24624","getBorrowRatePerSecond(uint256,uint256)":"5592f328","getParams()":"5e615a6b","getRateCurve()":"a6c9e5c1","getRoleAdmin(bytes32)":"248a9ca3","getSupplyRateAnnual(uint256,uint256)":"257d9ef5","getSupplyRatePerSecond(uint256,uint256)":"1941c7dc","grantRole(bytes32,address)":"2f2ff15d","hasRole(bytes32,address)":"91d14854","jumpMultiplierBps()":"572c9c5d","kinkBps()":"3a989ce9","multiplierBps()":"ac353e04","pendingParams()":"b9bacd00","renounceRole(bytes32,address)":"36568abe","requestSetParams(uint256,uint256,uint256,uint256,uint256)":"2385884c","reserveFactorBps()":"c87bed70","revokeRole(bytes32,address)":"d547741f","splitInterest(uint256)":"8d5009e4","supportsInterface(bytes4)":"01ffc9a7","utilizationRate(uint256,uint256)":"ec2de40c"},"id":3}