{"abi":[{"type":"constructor","inputs":[{"name":"_admin","type":"address","internalType":"address"},{"name":"_timelock","type":"address","internalType":"address"}],"stateMutability":"nonpayable"},{"type":"function","name":"DEFAULT_ADMIN_ROLE","inputs":[],"outputs":[{"name":"","type":"bytes32","internalType":"bytes32"}],"stateMutability":"view"},{"type":"function","name":"RATE_ADMIN_ROLE","inputs":[],"outputs":[{"name":"","type":"bytes32","internalType":"bytes32"}],"stateMutability":"view"},{"type":"function","name":"baseRateBps","inputs":[],"outputs":[{"name":"","type":"uint256","internalType":"uint256"}],"stateMutability":"view"},{"type":"function","name":"calculateInterest","inputs":[{"name":"principal","type":"uint256","internalType":"uint256"},{"name":"totalBorrows","type":"uint256","internalType":"uint256"},{"name":"totalSupply","type":"uint256","internalType":"uint256"},{"name":"secondsElapsed","type":"uint256","internalType":"uint256"}],"outputs":[{"name":"","type":"uint256","internalType":"uint256"}],"stateMutability":"view"},{"type":"function","name":"getBorrowRateAnnual","inputs":[{"name":"totalBorrows","type":"uint256","internalType":"uint256"},{"name":"totalSupply","type":"uint256","internalType":"uint256"}],"outputs":[{"name":"","type":"uint256","internalType":"uint256"}],"stateMutability":"view"},{"type":"function","name":"getBorrowRatePerSecond","inputs":[{"name":"totalBorrows","type":"uint256","internalType":"uint256"},{"name":"totalSupply","type":"uint256","internalType":"uint256"}],"outputs":[{"name":"","type":"uint256","internalType":"uint256"}],"stateMutability":"view"},{"type":"function","name":"getParams","inputs":[],"outputs":[{"name":"_baseRateBps","type":"uint256","internalType":"uint256"},{"name":"_multiplierBps","type":"uint256","internalType":"uint256"},{"name":"_kinkBps","type":"uint256","internalType":"uint256"},{"name":"_jumpMultiplierBps","type":"uint256","internalType":"uint256"},{"name":"_reserveFactorBps","type":"uint256","internalType":"uint256"}],"stateMutability":"view"},{"type":"function","name":"getRateCurve","inputs":[],"outputs":[{"name":"rates","type":"uint256[3][11]","internalType":"uint256[3][11]"}],"stateMutability":"view"},{"type":"function","name":"getRoleAdmin","inputs":[{"name":"role","type":"bytes32","internalType":"bytes32"}],"outputs":[{"name":"","type":"bytes32","internalType":"bytes32"}],"stateMutability":"view"},{"type":"function","name":"getSupplyRateAnnual","inputs":[{"name":"totalBorrows","type":"uint256","internalType":"uint256"},{"name":"totalSupply","type":"uint256","internalType":"uint256"}],"outputs":[{"name":"","type":"uint256","internalType":"uint256"}],"stateMutability":"view"},{"type":"function","name":"getSupplyRatePerSecond","inputs":[{"name":"totalBorrows","type":"uint256","internalType":"uint256"},{"name":"totalSupply","type":"uint256","internalType":"uint256"}],"outputs":[{"name":"","type":"uint256","internalType":"uint256"}],"stateMutability":"view"},{"type":"function","name":"grantRole","inputs":[{"name":"role","type":"bytes32","internalType":"bytes32"},{"name":"account","type":"address","internalType":"address"}],"outputs":[],"stateMutability":"nonpayable"},{"type":"function","name":"hasRole","inputs":[{"name":"role","type":"bytes32","internalType":"bytes32"},{"name":"account","type":"address","internalType":"address"}],"outputs":[{"name":"","type":"bool","internalType":"bool"}],"stateMutability":"view"},{"type":"function","name":"jumpMultiplierBps","inputs":[],"outputs":[{"name":"","type":"uint256","internalType":"uint256"}],"stateMutability":"view"},{"type":"function","name":"kinkBps","inputs":[],"outputs":[{"name":"","type":"uint256","internalType":"uint256"}],"stateMutability":"view"},{"type":"function","name":"multiplierBps","inputs":[],"outputs":[{"name":"","type":"uint256","internalType":"uint256"}],"stateMutability":"view"},{"type":"function","name":"renounceRole","inputs":[{"name":"role","type":"bytes32","internalType":"bytes32"},{"name":"callerConfirmation","type":"address","internalType":"address"}],"outputs":[],"stateMutability":"nonpayable"},{"type":"function","name":"reserveFactorBps","inputs":[],"outputs":[{"name":"","type":"uint256","internalType":"uint256"}],"stateMutability":"view"},{"type":"function","name":"revokeRole","inputs":[{"name":"role","type":"bytes32","internalType":"bytes32"},{"name":"account","type":"address","internalType":"address"}],"outputs":[],"stateMutability":"nonpayable"},{"type":"function","name":"setParams","inputs":[{"name":"_baseRateBps","type":"uint256","internalType":"uint256"},{"name":"_multiplierBps","type":"uint256","internalType":"uint256"},{"name":"_kinkBps","type":"uint256","internalType":"uint256"},{"name":"_jumpMultiplierBps","type":"uint256","internalType":"uint256"},{"name":"_reserveFactorBps","type":"uint256","internalType":"uint256"}],"outputs":[],"stateMutability":"nonpayable"},{"type":"function","name":"setTimelock","inputs":[{"name":"_timelock","type":"address","internalType":"address"}],"outputs":[],"stateMutability":"nonpayable"},{"type":"function","name":"splitInterest","inputs":[{"name":"interestAmount","type":"uint256","internalType":"uint256"}],"outputs":[{"name":"supplierAmount","type":"uint256","internalType":"uint256"},{"name":"reserveAmount","type":"uint256","internalType":"uint256"}],"stateMutability":"view"},{"type":"function","name":"supportsInterface","inputs":[{"name":"interfaceId","type":"bytes4","internalType":"bytes4"}],"outputs":[{"name":"","type":"bool","internalType":"bool"}],"stateMutability":"view"},{"type":"function","name":"timelock","inputs":[],"outputs":[{"name":"","type":"address","internalType":"address"}],"stateMutability":"view"},{"type":"function","name":"utilizationRate","inputs":[{"name":"totalBorrows","type":"uint256","internalType":"uint256"},{"name":"totalSupply","type":"uint256","internalType":"uint256"}],"outputs":[{"name":"","type":"uint256","internalType":"uint256"}],"stateMutability":"pure"},{"type":"event","name":"RateParamsChangeCancelled","inputs":[],"anonymous":false},{"type":"event","name":"RateParamsChangeRequested","inputs":[{"name":"baseRateBps","type":"uint256","indexed":false,"internalType":"uint256"},{"name":"multiplierBps","type":"uint256","indexed":false,"internalType":"uint256"},{"name":"kinkBps","type":"uint256","indexed":false,"internalType":"uint256"},{"name":"jumpMultiplierBps","type":"uint256","indexed":false,"internalType":"uint256"},{"name":"reserveFactorBps","type":"uint256","indexed":false,"internalType":"uint256"},{"name":"readyAt","type":"uint256","indexed":false,"internalType":"uint256"}],"anonymous":false},{"type":"event","name":"RateParamsUpdated","inputs":[{"name":"baseRateBps","type":"uint256","indexed":false,"internalType":"uint256"},{"name":"multiplierBps","type":"uint256","indexed":false,"internalType":"uint256"},{"name":"kinkBps","type":"uint256","indexed":false,"internalType":"uint256"},{"name":"jumpMultiplierBps","type":"uint256","indexed":false,"internalType":"uint256"},{"name":"reserveFactorBps","type":"uint256","indexed":false,"internalType":"uint256"}],"anonymous":false},{"type":"event","name":"RoleAdminChanged","inputs":[{"name":"role","type":"bytes32","indexed":true,"internalType":"bytes32"},{"name":"previousAdminRole","type":"bytes32","indexed":true,"internalType":"bytes32"},{"name":"newAdminRole","type":"bytes32","indexed":true,"internalType":"bytes32"}],"anonymous":false},{"type":"event","name":"RoleGranted","inputs":[{"name":"role","type":"bytes32","indexed":true,"internalType":"bytes32"},{"name":"account","type":"address","indexed":true,"internalType":"address"},{"name":"sender","type":"address","indexed":true,"internalType":"address"}],"anonymous":false},{"type":"event","name":"RoleRevoked","inputs":[{"name":"role","type":"bytes32","indexed":true,"internalType":"bytes32"},{"name":"account","type":"address","indexed":true,"internalType":"address"},{"name":"sender","type":"address","indexed":true,"internalType":"address"}],"anonymous":false},{"type":"event","name":"TimelockUpdated","inputs":[{"name":"oldTimelock","type":"address","indexed":true,"internalType":"address"},{"name":"newTimelock","type":"address","indexed":true,"internalType":"address"}],"anonymous":false},{"type":"error","name":"AccessControlBadConfirmation","inputs":[]},{"type":"error","name":"AccessControlUnauthorizedAccount","inputs":[{"name":"account","type":"address","internalType":"address"},{"name":"neededRole","type":"bytes32","internalType":"bytes32"}]},{"type":"error","name":"BaseRateTooHigh","inputs":[]},{"type":"error","name":"InvalidParameter","inputs":[]},{"type":"error","name":"KinkTooHigh","inputs":[]},{"type":"error","name":"KinkTooLow","inputs":[]},{"type":"error","name":"MultiplierZero","inputs":[]},{"type":"error","name":"OnlyTimelock","inputs":[]},{"type":"error","name":"ReserveFactorTooHigh","inputs":[]},{"type":"error","name":"ZeroTimelock","inputs":[]}],"bytecode":{"object":"0x608060405234801561000f575f80fd5b5060405161100c38038061100c83398101604081905261002e91610210565b6001600160a01b0382166100785760405162461bcd60e51b815260206004820152600d60248201526c24a72b20a624a22fa0a226a4a760991b604482015260640160405180910390fd5b60c86002556103e86003819055611f4060045561138860055560065561009d816100da565b6100a75f8361014c565b506100d27faf977a80e23262c8ff5f86cefbb6a4f6250c151974ee28fb039b0005ddf0d2cd8361014c565b505050610241565b6001600160a01b038116610101576040516350c0eb2960e11b815260040160405180910390fd5b600180546001600160a01b0319166001600160a01b0383169081179091556040515f907fae97011a27b5efe7b1d76fe38e75cc498fd64cc24e407a9c6b2185d27f611f7e908290a350565b5f828152602081815260408083206001600160a01b038516845290915281205460ff166101ec575f838152602081815260408083206001600160a01b03861684529091529020805460ff191660011790556101a43390565b6001600160a01b0316826001600160a01b0316847f2f8788117e7eff1d82e926ec794901d17c78024a50270940304540a733656f0d60405160405180910390a45060016101ef565b505f5b92915050565b80516001600160a01b038116811461020b575f80fd5b919050565b5f8060408385031215610221575f80fd5b61022a836101f5565b9150610238602084016101f5565b90509250929050565b610dbe8061024e5f395ff3fe608060405234801561000f575f80fd5b506004361061016d575f3560e01c80638d5009e4116100d9578063bdacb30311610093578063d547741f1161006e578063d547741f14610349578063d828bb881461035c578063dfe444b01461036f578063ec2de40c14610396575f80fd5b8063bdacb30314610302578063c87bed7014610315578063d33219b41461031e575f80fd5b80638d5009e41461029957806391d14854146102c1578063a217fddf146102d4578063a6c9e5c1146102db578063aaa6a391146102f0578063ac353e04146102f9575f80fd5b80633a989ce91161012a5780633a989ce9146102175780633ca24624146102205780635592f32814610233578063572c9c5d146102465780635e615a6b1461024f578063724dfc9214610286575f80fd5b806301ffc9a7146101715780631941c7dc14610199578063248a9ca3146101ba578063257d9ef5146101dc5780632f2ff15d146101ef57806336568abe14610204575b5f80fd5b61018461017f366004610b72565b6103a9565b60405190151581526020015b60405180910390f35b6101ac6101a7366004610b99565b6103df565b604051908152602001610190565b6101ac6101c8366004610bb9565b5f9081526020819052604090206001015490565b6101ac6101ea366004610b99565b610416565b6102026101fd366004610beb565b610479565b005b610202610212366004610beb565b6104a3565b6101ac60045481565b6101ac61022e366004610b99565b6104db565b6101ac610241366004610b99565b61058f565b6101ac60055481565b600254600354600454600554600654604080519586526020860194909452928401919091526060830152608082015260a001610190565b6101ac610294366004610c15565b61059b565b6102ac6102a7366004610bb9565b6105db565b60408051928352602083019190915201610190565b6101846102cf366004610beb565b61060b565b6101ac5f81565b6102e3610633565b6040516101909190610c44565b6101ac60025481565b6101ac60035481565b610202610310366004610c9c565b6106f8565b6101ac60065481565b600154610331906001600160a01b031681565b6040516001600160a01b039091168152602001610190565b610202610357366004610beb565b6107a5565b61020261036a366004610cb5565b6107c9565b6101ac7faf977a80e23262c8ff5f86cefbb6a4f6250c151974ee28fb039b0005ddf0d2cd81565b6101ac6103a4366004610b99565b6109a3565b5f6001600160e01b03198216637965db0b60e01b14806103d957506301ffc9a760e01b6001600160e01b03198316145b92915050565b5f806103eb8484610416565b90506301e13380610404670de0b6b3a764000083610d00565b61040e9190610d17565b949350505050565b5f8061042284846104db565b90505f61042f85856109a3565b90505f6006546127106104429190610d36565b905061045061271080610d00565b8161045b8486610d00565b6104659190610d00565b61046f9190610d17565b9695505050505050565b5f82815260208190526040902060010154610493816109e0565b61049d83836109ed565b50505050565b6001600160a01b03811633146104cc5760405163334bd91960e11b815260040160405180910390fd5b6104d68282610a7c565b505050565b5f806104e784846109a3565b9050600454811161052257612710600354826105039190610d00565b61050d9190610d17565b60025461051a9190610d49565b9150506103d9565b5f6127106003546004546105369190610d00565b6105409190610d17565b60025461054d9190610d49565b90505f6004548361055e9190610d36565b9050612710600554826105719190610d00565b61057b9190610d17565b6105859083610d49565b93505050506103d9565b5f806103eb84846104db565b5f8415806105a7575081155b156105b357505f61040e565b5f6105be85856104db565b90506105d06301e13380612710610d00565b8361045b8389610d00565b5f80612710600654846105ee9190610d00565b6105f89190610d17565b90506106048184610d36565b9150915091565b5f918252602082815260408084206001600160a01b0393909316845291905290205460ff1690565b61063b610b26565b5f5b600a81116106f4575f610652826103e8610d00565b9050670de0b6b3a76400005f61271061066b8484610d00565b6106759190610d17565b9050828585600b811061068a5761068a610d5c565b60200201515261069a81836104db565b8585600b81106106ac576106ac610d5c565b6020020151600160200201526106c28183610416565b8585600b81106106d4576106d4610d5c565b602002015160400152508291506106ec905081610d70565b91505061063d565b5090565b6001546001600160a01b0316331461072357604051630e05f48560e11b815260040160405180910390fd5b6001600160a01b03811661074a576040516350c0eb2960e11b815260040160405180910390fd5b6001546040516001600160a01b038084169216907fae97011a27b5efe7b1d76fe38e75cc498fd64cc24e407a9c6b2185d27f611f7e905f90a3600180546001600160a01b0319166001600160a01b0392909216919091179055565b5f828152602081905260409020600101546107bf816109e0565b61049d8383610a7c565b6001546001600160a01b031633146107f457604051630e05f48560e11b815260040160405180910390fd5b6107d0851115610817576040516307f234c560e31b815260040160405180910390fd5b61271083111561083a576040516368f73e7360e11b815260040160405180910390fd5b6103e883101561085d576040516306e9526560e21b815260040160405180910390fd5b835f0361087d57604051633e6dc9d560e11b815260040160405180910390fd5b815f0361089d57604051633e6dc9d560e11b815260040160405180910390fd5b6113888111156108c057604051638e27038160e01b815260040160405180910390fd5b5f612710836108cf8683610d36565b6108d99190610d00565b6108e39190610d17565b6127106108f08787610d00565b6108fa9190610d17565b6109049088610d49565b61090e9190610d49565b905061271081111561093357604051630309cb8760e51b815260040160405180910390fd5b60028690556003859055600484905560058390556006829055604080518781526020810187905290810185905260608101849052608081018390527fb8a41d853fbcd4f9d24f2663e12e272abb53eacc8c43c8012d00d4b4b17aade89060a00160405180910390a1505050505050565b5f815f036109b257505f6103d9565b8183106109c257506127106103d9565b816109cf61271085610d00565b6109d99190610d17565b9392505050565b6109ea8133610ae5565b50565b5f6109f8838361060b565b610a75575f838152602081815260408083206001600160a01b03861684529091529020805460ff19166001179055610a2d3390565b6001600160a01b0316826001600160a01b0316847f2f8788117e7eff1d82e926ec794901d17c78024a50270940304540a733656f0d60405160405180910390a45060016103d9565b505f6103d9565b5f610a87838361060b565b15610a75575f838152602081815260408083206001600160a01b0386168085529252808320805460ff1916905551339286917ff6391f5c32d9c69d2a47ea670b442974b53935d1edc7fd64eb21e047a839171b9190a45060016103d9565b610aef828261060b565b610b225760405163e2517d3f60e01b81526001600160a01b03821660048201526024810183905260440160405180910390fd5b5050565b604051806101600160405280600b905b610b3e610b54565b815260200190600190039081610b365790505090565b60405180606001604052806003906020820280368337509192915050565b5f60208284031215610b82575f80fd5b81356001600160e01b0319811681146109d9575f80fd5b5f8060408385031215610baa575f80fd5b50508035926020909101359150565b5f60208284031215610bc9575f80fd5b5035919050565b80356001600160a01b0381168114610be6575f80fd5b919050565b5f8060408385031215610bfc575f80fd5b82359150610c0c60208401610bd0565b90509250929050565b5f805f8060808587031215610c28575f80fd5b5050823594602084013594506040840135936060013592509050565b610420810181835f5b600b811015610c93578151835f5b6003811015610c7a578251825260209283019290910190600101610c5b565b5050506060929092019160209190910190600101610c4d565b50505092915050565b5f60208284031215610cac575f80fd5b6109d982610bd0565b5f805f805f60a08688031215610cc9575f80fd5b505083359560208501359550604085013594606081013594506080013592509050565b634e487b7160e01b5f52601160045260245ffd5b80820281158282048414176103d9576103d9610cec565b5f82610d3157634e487b7160e01b5f52601260045260245ffd5b500490565b818103818111156103d9576103d9610cec565b808201808211156103d9576103d9610cec565b634e487b7160e01b5f52603260045260245ffd5b5f60018201610d8157610d81610cec565b506001019056fea264697066735822122003ebf1eb5d82e097e1bb7f9328011c6925574e6b2eabc626a4b19ec1cf69055164736f6c634300081a0033","linkReferences":{}},"methodIdentifiers":{"DEFAULT_ADMIN_ROLE()":"a217fddf","RATE_ADMIN_ROLE()":"dfe444b0","baseRateBps()":"aaa6a391","calculateInterest(uint256,uint256,uint256,uint256)":"724dfc92","getBorrowRateAnnual(uint256,uint256)":"3ca24624","getBorrowRatePerSecond(uint256,uint256)":"5592f328","getParams()":"5e615a6b","getRateCurve()":"a6c9e5c1","getRoleAdmin(bytes32)":"248a9ca3","getSupplyRateAnnual(uint256,uint256)":"257d9ef5","getSupplyRatePerSecond(uint256,uint256)":"1941c7dc","grantRole(bytes32,address)":"2f2ff15d","hasRole(bytes32,address)":"91d14854","jumpMultiplierBps()":"572c9c5d","kinkBps()":"3a989ce9","multiplierBps()":"ac353e04","renounceRole(bytes32,address)":"36568abe","reserveFactorBps()":"c87bed70","revokeRole(bytes32,address)":"d547741f","setParams(uint256,uint256,uint256,uint256,uint256)":"d828bb88","setTimelock(address)":"bdacb303","splitInterest(uint256)":"8d5009e4","supportsInterface(bytes4)":"01ffc9a7","timelock()":"d33219b4","utilizationRate(uint256,uint256)":"ec2de40c"},"id":4}