{"abi":[{"type":"constructor","inputs":[{"name":"_admin","type":"address","internalType":"address"},{"name":"_timelock","type":"address","internalType":"address"}],"stateMutability":"nonpayable"},{"type":"function","name":"DEFAULT_ADMIN_ROLE","inputs":[],"outputs":[{"name":"","type":"bytes32","internalType":"bytes32"}],"stateMutability":"view"},{"type":"function","name":"RATE_ADMIN_ROLE","inputs":[],"outputs":[{"name":"","type":"bytes32","internalType":"bytes32"}],"stateMutability":"view"},{"type":"function","name":"baseRateBps","inputs":[],"outputs":[{"name":"","type":"uint256","internalType":"uint256"}],"stateMutability":"view"},{"type":"function","name":"calculateInterest","inputs":[{"name":"principal","type":"uint256","internalType":"uint256"},{"name":"totalBorrows","type":"uint256","internalType":"uint256"},{"name":"totalSupply","type":"uint256","internalType":"uint256"},{"name":"secondsElapsed","type":"uint256","internalType":"uint256"}],"outputs":[{"name":"","type":"uint256","internalType":"uint256"}],"stateMutability":"view"},{"type":"function","name":"getBorrowRateAnnual","inputs":[{"name":"totalBorrows","type":"uint256","internalType":"uint256"},{"name":"totalSupply","type":"uint256","internalType":"uint256"}],"outputs":[{"name":"","type":"uint256","internalType":"uint256"}],"stateMutability":"view"},{"type":"function","name":"getBorrowRatePerSecond","inputs":[{"name":"totalBorrows","type":"uint256","internalType":"uint256"},{"name":"totalSupply","type":"uint256","internalType":"uint256"}],"outputs":[{"name":"","type":"uint256","internalType":"uint256"}],"stateMutability":"view"},{"type":"function","name":"getParams","inputs":[],"outputs":[{"name":"_baseRateBps","type":"uint256","internalType":"uint256"},{"name":"_multiplierBps","type":"uint256","internalType":"uint256"},{"name":"_kinkBps","type":"uint256","internalType":"uint256"},{"name":"_jumpMultiplierBps","type":"uint256","internalType":"uint256"},{"name":"_reserveFactorBps","type":"uint256","internalType":"uint256"}],"stateMutability":"view"},{"type":"function","name":"getRateCurve","inputs":[],"outputs":[{"name":"rates","type":"uint256[3][11]","internalType":"uint256[3][11]"}],"stateMutability":"view"},{"type":"function","name":"getRoleAdmin","inputs":[{"name":"role","type":"bytes32","internalType":"bytes32"}],"outputs":[{"name":"","type":"bytes32","internalType":"bytes32"}],"stateMutability":"view"},{"type":"function","name":"getSupplyRateAnnual","inputs":[{"name":"totalBorrows","type":"uint256","internalType":"uint256"},{"name":"totalSupply","type":"uint256","internalType":"uint256"}],"outputs":[{"name":"","type":"uint256","internalType":"uint256"}],"stateMutability":"view"},{"type":"function","name":"getSupplyRatePerSecond","inputs":[{"name":"totalBorrows","type":"uint256","internalType":"uint256"},{"name":"totalSupply","type":"uint256","internalType":"uint256"}],"outputs":[{"name":"","type":"uint256","internalType":"uint256"}],"stateMutability":"view"},{"type":"function","name":"grantRole","inputs":[{"name":"role","type":"bytes32","internalType":"bytes32"},{"name":"account","type":"address","internalType":"address"}],"outputs":[],"stateMutability":"nonpayable"},{"type":"function","name":"hasRole","inputs":[{"name":"role","type":"bytes32","internalType":"bytes32"},{"name":"account","type":"address","internalType":"address"}],"outputs":[{"name":"","type":"bool","internalType":"bool"}],"stateMutability":"view"},{"type":"function","name":"jumpMultiplierBps","inputs":[],"outputs":[{"name":"","type":"uint256","internalType":"uint256"}],"stateMutability":"view"},{"type":"function","name":"kinkBps","inputs":[],"outputs":[{"name":"","type":"uint256","internalType":"uint256"}],"stateMutability":"view"},{"type":"function","name":"multiplierBps","inputs":[],"outputs":[{"name":"","type":"uint256","internalType":"uint256"}],"stateMutability":"view"},{"type":"function","name":"renounceRole","inputs":[{"name":"role","type":"bytes32","internalType":"bytes32"},{"name":"callerConfirmation","type":"address","internalType":"address"}],"outputs":[],"stateMutability":"nonpayable"},{"type":"function","name":"reserveFactorBps","inputs":[],"outputs":[{"name":"","type":"uint256","internalType":"uint256"}],"stateMutability":"view"},{"type":"function","name":"revokeRole","inputs":[{"name":"role","type":"bytes32","internalType":"bytes32"},{"name":"account","type":"address","internalType":"address"}],"outputs":[],"stateMutability":"nonpayable"},{"type":"function","name":"setParams","inputs":[{"name":"_baseRateBps","type":"uint256","internalType":"uint256"},{"name":"_multiplierBps","type":"uint256","internalType":"uint256"},{"name":"_kinkBps","type":"uint256","internalType":"uint256"},{"name":"_jumpMultiplierBps","type":"uint256","internalType":"uint256"},{"name":"_reserveFactorBps","type":"uint256","internalType":"uint256"}],"outputs":[],"stateMutability":"nonpayable"},{"type":"function","name":"setTimelock","inputs":[{"name":"_timelock","type":"address","internalType":"address"}],"outputs":[],"stateMutability":"nonpayable"},{"type":"function","name":"splitInterest","inputs":[{"name":"interestAmount","type":"uint256","internalType":"uint256"}],"outputs":[{"name":"supplierAmount","type":"uint256","internalType":"uint256"},{"name":"reserveAmount","type":"uint256","internalType":"uint256"}],"stateMutability":"view"},{"type":"function","name":"supportsInterface","inputs":[{"name":"interfaceId","type":"bytes4","internalType":"bytes4"}],"outputs":[{"name":"","type":"bool","internalType":"bool"}],"stateMutability":"view"},{"type":"function","name":"timelock","inputs":[],"outputs":[{"name":"","type":"address","internalType":"address"}],"stateMutability":"view"},{"type":"function","name":"utilizationRate","inputs":[{"name":"totalBorrows","type":"uint256","internalType":"uint256"},{"name":"totalSupply","type":"uint256","internalType":"uint256"}],"outputs":[{"name":"","type":"uint256","internalType":"uint256"}],"stateMutability":"pure"},{"type":"event","name":"RateParamsChangeCancelled","inputs":[],"anonymous":false},{"type":"event","name":"RateParamsChangeRequested","inputs":[{"name":"baseRateBps","type":"uint256","indexed":false,"internalType":"uint256"},{"name":"multiplierBps","type":"uint256","indexed":false,"internalType":"uint256"},{"name":"kinkBps","type":"uint256","indexed":false,"internalType":"uint256"},{"name":"jumpMultiplierBps","type":"uint256","indexed":false,"internalType":"uint256"},{"name":"reserveFactorBps","type":"uint256","indexed":false,"internalType":"uint256"},{"name":"readyAt","type":"uint256","indexed":false,"internalType":"uint256"}],"anonymous":false},{"type":"event","name":"RateParamsUpdated","inputs":[{"name":"baseRateBps","type":"uint256","indexed":false,"internalType":"uint256"},{"name":"multiplierBps","type":"uint256","indexed":false,"internalType":"uint256"},{"name":"kinkBps","type":"uint256","indexed":false,"internalType":"uint256"},{"name":"jumpMultiplierBps","type":"uint256","indexed":false,"internalType":"uint256"},{"name":"reserveFactorBps","type":"uint256","indexed":false,"internalType":"uint256"}],"anonymous":false},{"type":"event","name":"RoleAdminChanged","inputs":[{"name":"role","type":"bytes32","indexed":true,"internalType":"bytes32"},{"name":"previousAdminRole","type":"bytes32","indexed":true,"internalType":"bytes32"},{"name":"newAdminRole","type":"bytes32","indexed":true,"internalType":"bytes32"}],"anonymous":false},{"type":"event","name":"RoleGranted","inputs":[{"name":"role","type":"bytes32","indexed":true,"internalType":"bytes32"},{"name":"account","type":"address","indexed":true,"internalType":"address"},{"name":"sender","type":"address","indexed":true,"internalType":"address"}],"anonymous":false},{"type":"event","name":"RoleRevoked","inputs":[{"name":"role","type":"bytes32","indexed":true,"internalType":"bytes32"},{"name":"account","type":"address","indexed":true,"internalType":"address"},{"name":"sender","type":"address","indexed":true,"internalType":"address"}],"anonymous":false},{"type":"event","name":"TimelockUpdated","inputs":[{"name":"oldTimelock","type":"address","indexed":true,"internalType":"address"},{"name":"newTimelock","type":"address","indexed":true,"internalType":"address"}],"anonymous":false},{"type":"error","name":"AccessControlBadConfirmation","inputs":[]},{"type":"error","name":"AccessControlUnauthorizedAccount","inputs":[{"name":"account","type":"address","internalType":"address"},{"name":"neededRole","type":"bytes32","internalType":"bytes32"}]},{"type":"error","name":"BaseRateTooHigh","inputs":[]},{"type":"error","name":"InvalidParameter","inputs":[]},{"type":"error","name":"KinkTooHigh","inputs":[]},{"type":"error","name":"KinkTooLow","inputs":[]},{"type":"error","name":"MultiplierZero","inputs":[]},{"type":"error","name":"OnlyTimelock","inputs":[]},{"type":"error","name":"ReserveFactorTooHigh","inputs":[]},{"type":"error","name":"ZeroTimelock","inputs":[]}],"bytecode":{"object":"0x608060405234801561000f575f80fd5b5060405161106a38038061106a83398101604081905261002e9161022f565b6001600160a01b0382166100785760405162461bcd60e51b815260206004820152600d60248201526c24a72b20a624a22fa0a226a4a760991b604482015260640160405180910390fd5b60c86001556103e86002819055611f4060035561138860045560055561009d816100da565b6100a75f8361016b565b506100d27faf977a80e23262c8ff5f86cefbb6a4f6250c151974ee28fb039b0005ddf0d2cd8361016b565b505050610260565b6001600160a01b038116610101576040516350c0eb2960e11b815260040160405180910390fd5b7f96ec2584f13cbcbf2926bb7c7d24b036ddd15a8842ae5726c96f4a4a3e97cc0080546001600160a01b0319166001600160a01b03831690811782556040515f907fae97011a27b5efe7b1d76fe38e75cc498fd64cc24e407a9c6b2185d27f611f7e908290a35050565b5f828152602081815260408083206001600160a01b038516845290915281205460ff1661020b575f838152602081815260408083206001600160a01b03861684529091529020805460ff191660011790556101c33390565b6001600160a01b0316826001600160a01b0316847f2f8788117e7eff1d82e926ec794901d17c78024a50270940304540a733656f0d60405160405180910390a450600161020e565b505f5b92915050565b80516001600160a01b038116811461022a575f80fd5b919050565b5f8060408385031215610240575f80fd5b61024983610214565b915061025760208401610214565b90509250929050565b610dfd8061026d5f395ff3fe608060405234801561000f575f80fd5b506004361061016d575f3560e01c80638d5009e4116100d9578063bdacb30311610093578063d547741f1161006e578063d547741f14610345578063d828bb8814610358578063dfe444b01461036b578063ec2de40c14610392575f80fd5b8063bdacb30314610302578063c87bed7014610315578063d33219b41461031e575f80fd5b80638d5009e41461029957806391d14854146102c1578063a217fddf146102d4578063a6c9e5c1146102db578063aaa6a391146102f0578063ac353e04146102f9575f80fd5b80633a989ce91161012a5780633a989ce9146102175780633ca24624146102205780635592f32814610233578063572c9c5d146102465780635e615a6b1461024f578063724dfc9214610286575f80fd5b806301ffc9a7146101715780631941c7dc14610199578063248a9ca3146101ba578063257d9ef5146101dc5780632f2ff15d146101ef57806336568abe14610204575b5f80fd5b61018461017f366004610b91565b6103a5565b60405190151581526020015b60405180910390f35b6101ac6101a7366004610bb8565b6103db565b604051908152602001610190565b6101ac6101c8366004610bd8565b5f9081526020819052604090206001015490565b6101ac6101ea366004610bb8565b610412565b6102026101fd366004610c0a565b610475565b005b610202610212366004610c0a565b61049f565b6101ac60035481565b6101ac61022e366004610bb8565b6104d7565b6101ac610241366004610bb8565b61058b565b6101ac60045481565b600154600254600354600454600554604080519586526020860194909452928401919091526060830152608082015260a001610190565b6101ac610294366004610c34565b610597565b6102ac6102a7366004610bd8565b6105d7565b60408051928352602083019190915201610190565b6101846102cf366004610c0a565b610607565b6101ac5f81565b6102e361062f565b6040516101909190610c63565b6101ac60015481565b6101ac60025481565b610202610310366004610cbb565b6106f4565b6101ac60055481565b5f80516020610da8833981519152546040516001600160a01b039091168152602001610190565b610202610353366004610c0a565b6107b8565b610202610366366004610cd4565b6107dc565b6101ac7faf977a80e23262c8ff5f86cefbb6a4f6250c151974ee28fb039b0005ddf0d2cd81565b6101ac6103a0366004610bb8565b6109c2565b5f6001600160e01b03198216637965db0b60e01b14806103d557506301ffc9a760e01b6001600160e01b03198316145b92915050565b5f806103e78484610412565b90506301e13380610400670de0b6b3a764000083610d1f565b61040a9190610d36565b949350505050565b5f8061041e84846104d7565b90505f61042b85856109c2565b90505f60055461271061043e9190610d55565b905061044c61271080610d1f565b816104578486610d1f565b6104619190610d1f565b61046b9190610d36565b9695505050505050565b5f8281526020819052604090206001015461048f816109ff565b6104998383610a0c565b50505050565b6001600160a01b03811633146104c85760405163334bd91960e11b815260040160405180910390fd5b6104d28282610a9b565b505050565b5f806104e384846109c2565b9050600354811161051e57612710600254826104ff9190610d1f565b6105099190610d36565b6001546105169190610d68565b9150506103d5565b5f6127106002546003546105329190610d1f565b61053c9190610d36565b6001546105499190610d68565b90505f6003548361055a9190610d55565b90506127106004548261056d9190610d1f565b6105779190610d36565b6105819083610d68565b93505050506103d5565b5f806103e784846104d7565b5f8415806105a3575081155b156105af57505f61040a565b5f6105ba85856104d7565b90506105cc6301e13380612710610d1f565b836104578389610d1f565b5f80612710600554846105ea9190610d1f565b6105f49190610d36565b90506106008184610d55565b9150915091565b5f918252602082815260408084206001600160a01b0393909316845291905290205460ff1690565b610637610b45565b5f5b600a81116106f0575f61064e826103e8610d1f565b9050670de0b6b3a76400005f6127106106678484610d1f565b6106719190610d36565b9050828585600b811061068657610686610d7b565b60200201515261069681836104d7565b8585600b81106106a8576106a8610d7b565b6020020151600160200201526106be8183610412565b8585600b81106106d0576106d0610d7b565b602002015160400152508291506106e8905081610d8f565b915050610639565b5090565b5f80516020610da8833981519152546001600160a01b0316331461072b57604051630e05f48560e11b815260040160405180910390fd5b6001600160a01b038116610752576040516350c0eb2960e11b815260040160405180910390fd5b5f80516020610da883398151915280546040516001600160a01b038481169216907fae97011a27b5efe7b1d76fe38e75cc498fd64cc24e407a9c6b2185d27f611f7e905f90a380546001600160a01b0319166001600160a01b0392909216919091179055565b5f828152602081905260409020600101546107d2816109ff565b6104998383610a9b565b5f80516020610da8833981519152546001600160a01b0316331461081357604051630e05f48560e11b815260040160405180910390fd5b6107d0851115610836576040516307f234c560e31b815260040160405180910390fd5b612710831115610859576040516368f73e7360e11b815260040160405180910390fd5b6103e883101561087c576040516306e9526560e21b815260040160405180910390fd5b835f0361089c57604051633e6dc9d560e11b815260040160405180910390fd5b815f036108bc57604051633e6dc9d560e11b815260040160405180910390fd5b6113888111156108df57604051638e27038160e01b815260040160405180910390fd5b5f612710836108ee8683610d55565b6108f89190610d1f565b6109029190610d36565b61271061090f8787610d1f565b6109199190610d36565b6109239088610d68565b61092d9190610d68565b905061271081111561095257604051630309cb8760e51b815260040160405180910390fd5b60018690556002859055600384905560048390556005829055604080518781526020810187905290810185905260608101849052608081018390527fb8a41d853fbcd4f9d24f2663e12e272abb53eacc8c43c8012d00d4b4b17aade89060a00160405180910390a1505050505050565b5f815f036109d157505f6103d5565b8183106109e157506127106103d5565b816109ee61271085610d1f565b6109f89190610d36565b9392505050565b610a098133610b04565b50565b5f610a178383610607565b610a94575f838152602081815260408083206001600160a01b03861684529091529020805460ff19166001179055610a4c3390565b6001600160a01b0316826001600160a01b0316847f2f8788117e7eff1d82e926ec794901d17c78024a50270940304540a733656f0d60405160405180910390a45060016103d5565b505f6103d5565b5f610aa68383610607565b15610a94575f838152602081815260408083206001600160a01b0386168085529252808320805460ff1916905551339286917ff6391f5c32d9c69d2a47ea670b442974b53935d1edc7fd64eb21e047a839171b9190a45060016103d5565b610b0e8282610607565b610b415760405163e2517d3f60e01b81526001600160a01b03821660048201526024810183905260440160405180910390fd5b5050565b604051806101600160405280600b905b610b5d610b73565b815260200190600190039081610b555790505090565b60405180606001604052806003906020820280368337509192915050565b5f60208284031215610ba1575f80fd5b81356001600160e01b0319811681146109f8575f80fd5b5f8060408385031215610bc9575f80fd5b50508035926020909101359150565b5f60208284031215610be8575f80fd5b5035919050565b80356001600160a01b0381168114610c05575f80fd5b919050565b5f8060408385031215610c1b575f80fd5b82359150610c2b60208401610bef565b90509250929050565b5f805f8060808587031215610c47575f80fd5b5050823594602084013594506040840135936060013592509050565b610420810181835f5b600b811015610cb2578151835f5b6003811015610c99578251825260209283019290910190600101610c7a565b5050506060929092019160209190910190600101610c6c565b50505092915050565b5f60208284031215610ccb575f80fd5b6109f882610bef565b5f805f805f60a08688031215610ce8575f80fd5b505083359560208501359550604085013594606081013594506080013592509050565b634e487b7160e01b5f52601160045260245ffd5b80820281158282048414176103d5576103d5610d0b565b5f82610d5057634e487b7160e01b5f52601260045260245ffd5b500490565b818103818111156103d5576103d5610d0b565b808201808211156103d5576103d5610d0b565b634e487b7160e01b5f52603260045260245ffd5b5f60018201610da057610da0610d0b565b506001019056fe96ec2584f13cbcbf2926bb7c7d24b036ddd15a8842ae5726c96f4a4a3e97cc00a264697066735822122067745d0a72688f5740bd3867479981ed44d5890a9bc56df631ea03f7aa82615b64736f6c634300081a0033","linkReferences":{}},"methodIdentifiers":{"DEFAULT_ADMIN_ROLE()":"a217fddf","RATE_ADMIN_ROLE()":"dfe444b0","baseRateBps()":"aaa6a391","calculateInterest(uint256,uint256,uint256,uint256)":"724dfc92","getBorrowRateAnnual(uint256,uint256)":"3ca24624","getBorrowRatePerSecond(uint256,uint256)":"5592f328","getParams()":"5e615a6b","getRateCurve()":"a6c9e5c1","getRoleAdmin(bytes32)":"248a9ca3","getSupplyRateAnnual(uint256,uint256)":"257d9ef5","getSupplyRatePerSecond(uint256,uint256)":"1941c7dc","grantRole(bytes32,address)":"2f2ff15d","hasRole(bytes32,address)":"91d14854","jumpMultiplierBps()":"572c9c5d","kinkBps()":"3a989ce9","multiplierBps()":"ac353e04","renounceRole(bytes32,address)":"36568abe","reserveFactorBps()":"c87bed70","revokeRole(bytes32,address)":"d547741f","setParams(uint256,uint256,uint256,uint256,uint256)":"d828bb88","setTimelock(address)":"bdacb303","splitInterest(uint256)":"8d5009e4","supportsInterface(bytes4)":"01ffc9a7","timelock()":"d33219b4","utilizationRate(uint256,uint256)":"ec2de40c"},"id":5}