{"abi":[{"type":"constructor","inputs":[{"name":"_initialSupplyCap","type":"uint256","internalType":"uint256"}],"stateMutability":"nonpayable"},{"type":"function","name":"BRIDGE_ROLE","inputs":[],"outputs":[{"name":"","type":"bytes32","internalType":"bytes32"}],"stateMutability":"view"},{"type":"function","name":"CAP_MANAGER_ROLE","inputs":[],"outputs":[{"name":"","type":"bytes32","internalType":"bytes32"}],"stateMutability":"view"},{"type":"function","name":"COMPLIANCE_ROLE","inputs":[],"outputs":[{"name":"","type":"bytes32","internalType":"bytes32"}],"stateMutability":"view"},{"type":"function","name":"DEFAULT_ADMIN_ROLE","inputs":[],"outputs":[{"name":"","type":"bytes32","internalType":"bytes32"}],"stateMutability":"view"},{"type":"function","name":"EMERGENCY_ROLE","inputs":[],"outputs":[{"name":"","type":"bytes32","internalType":"bytes32"}],"stateMutability":"view"},{"type":"function","name":"LIQUIDATOR_ROLE","inputs":[],"outputs":[{"name":"","type":"bytes32","internalType":"bytes32"}],"stateMutability":"view"},{"type":"function","name":"allowance","inputs":[{"name":"owner","type":"address","internalType":"address"},{"name":"spender","type":"address","internalType":"address"}],"outputs":[{"name":"","type":"uint256","internalType":"uint256"}],"stateMutability":"view"},{"type":"function","name":"approve","inputs":[{"name":"spender","type":"address","internalType":"address"},{"name":"value","type":"uint256","internalType":"uint256"}],"outputs":[{"name":"","type":"bool","internalType":"bool"}],"stateMutability":"nonpayable"},{"type":"function","name":"balanceOf","inputs":[{"name":"account","type":"address","internalType":"address"}],"outputs":[{"name":"","type":"uint256","internalType":"uint256"}],"stateMutability":"view"},{"type":"function","name":"burn","inputs":[{"name":"from","type":"address","internalType":"address"},{"name":"amount","type":"uint256","internalType":"uint256"}],"outputs":[],"stateMutability":"nonpayable"},{"type":"function","name":"decimals","inputs":[],"outputs":[{"name":"","type":"uint8","internalType":"uint8"}],"stateMutability":"view"},{"type":"function","name":"getRoleAdmin","inputs":[{"name":"role","type":"bytes32","internalType":"bytes32"}],"outputs":[{"name":"","type":"bytes32","internalType":"bytes32"}],"stateMutability":"view"},{"type":"function","name":"grantRole","inputs":[{"name":"role","type":"bytes32","internalType":"bytes32"},{"name":"account","type":"address","internalType":"address"}],"outputs":[],"stateMutability":"nonpayable"},{"type":"function","name":"hasRole","inputs":[{"name":"role","type":"bytes32","internalType":"bytes32"},{"name":"account","type":"address","internalType":"address"}],"outputs":[{"name":"","type":"bool","internalType":"bool"}],"stateMutability":"view"},{"type":"function","name":"isBlacklisted","inputs":[{"name":"","type":"address","internalType":"address"}],"outputs":[{"name":"","type":"bool","internalType":"bool"}],"stateMutability":"view"},{"type":"function","name":"mint","inputs":[{"name":"to","type":"address","internalType":"address"},{"name":"amount","type":"uint256","internalType":"uint256"}],"outputs":[],"stateMutability":"nonpayable"},{"type":"function","name":"name","inputs":[],"outputs":[{"name":"","type":"string","internalType":"string"}],"stateMutability":"view"},{"type":"function","name":"pause","inputs":[],"outputs":[],"stateMutability":"nonpayable"},{"type":"function","name":"paused","inputs":[],"outputs":[{"name":"","type":"bool","internalType":"bool"}],"stateMutability":"view"},{"type":"function","name":"renounceRole","inputs":[{"name":"role","type":"bytes32","internalType":"bytes32"},{"name":"callerConfirmation","type":"address","internalType":"address"}],"outputs":[],"stateMutability":"nonpayable"},{"type":"function","name":"revokeRole","inputs":[{"name":"role","type":"bytes32","internalType":"bytes32"},{"name":"account","type":"address","internalType":"address"}],"outputs":[],"stateMutability":"nonpayable"},{"type":"function","name":"setBlacklist","inputs":[{"name":"account","type":"address","internalType":"address"},{"name":"status","type":"bool","internalType":"bool"}],"outputs":[],"stateMutability":"nonpayable"},{"type":"function","name":"setSupplyCap","inputs":[{"name":"_cap","type":"uint256","internalType":"uint256"}],"outputs":[],"stateMutability":"nonpayable"},{"type":"function","name":"supplyCap","inputs":[],"outputs":[{"name":"","type":"uint256","internalType":"uint256"}],"stateMutability":"view"},{"type":"function","name":"supportsInterface","inputs":[{"name":"interfaceId","type":"bytes4","internalType":"bytes4"}],"outputs":[{"name":"","type":"bool","internalType":"bool"}],"stateMutability":"view"},{"type":"function","name":"symbol","inputs":[],"outputs":[{"name":"","type":"string","internalType":"string"}],"stateMutability":"view"},{"type":"function","name":"totalSupply","inputs":[],"outputs":[{"name":"","type":"uint256","internalType":"uint256"}],"stateMutability":"view"},{"type":"function","name":"transfer","inputs":[{"name":"to","type":"address","internalType":"address"},{"name":"value","type":"uint256","internalType":"uint256"}],"outputs":[{"name":"","type":"bool","internalType":"bool"}],"stateMutability":"nonpayable"},{"type":"function","name":"transferFrom","inputs":[{"name":"from","type":"address","internalType":"address"},{"name":"to","type":"address","internalType":"address"},{"name":"value","type":"uint256","internalType":"uint256"}],"outputs":[{"name":"","type":"bool","internalType":"bool"}],"stateMutability":"nonpayable"},{"type":"function","name":"unpause","inputs":[],"outputs":[],"stateMutability":"nonpayable"},{"type":"event","name":"Approval","inputs":[{"name":"owner","type":"address","indexed":true,"internalType":"address"},{"name":"spender","type":"address","indexed":true,"internalType":"address"},{"name":"value","type":"uint256","indexed":false,"internalType":"uint256"}],"anonymous":false},{"type":"event","name":"BlacklistUpdated","inputs":[{"name":"account","type":"address","indexed":true,"internalType":"address"},{"name":"status","type":"bool","indexed":false,"internalType":"bool"}],"anonymous":false},{"type":"event","name":"Burn","inputs":[{"name":"from","type":"address","indexed":true,"internalType":"address"},{"name":"amount","type":"uint256","indexed":false,"internalType":"uint256"}],"anonymous":false},{"type":"event","name":"Mint","inputs":[{"name":"to","type":"address","indexed":true,"internalType":"address"},{"name":"amount","type":"uint256","indexed":false,"internalType":"uint256"}],"anonymous":false},{"type":"event","name":"Paused","inputs":[{"name":"account","type":"address","indexed":false,"internalType":"address"}],"anonymous":false},{"type":"event","name":"RoleAdminChanged","inputs":[{"name":"role","type":"bytes32","indexed":true,"internalType":"bytes32"},{"name":"previousAdminRole","type":"bytes32","indexed":true,"internalType":"bytes32"},{"name":"newAdminRole","type":"bytes32","indexed":true,"internalType":"bytes32"}],"anonymous":false},{"type":"event","name":"RoleGranted","inputs":[{"name":"role","type":"bytes32","indexed":true,"internalType":"bytes32"},{"name":"account","type":"address","indexed":true,"internalType":"address"},{"name":"sender","type":"address","indexed":true,"internalType":"address"}],"anonymous":false},{"type":"event","name":"RoleRevoked","inputs":[{"name":"role","type":"bytes32","indexed":true,"internalType":"bytes32"},{"name":"account","type":"address","indexed":true,"internalType":"address"},{"name":"sender","type":"address","indexed":true,"internalType":"address"}],"anonymous":false},{"type":"event","name":"SupplyCapBelowSupply","inputs":[{"name":"newCap","type":"uint256","indexed":false,"internalType":"uint256"},{"name":"currentSupply","type":"uint256","indexed":false,"internalType":"uint256"}],"anonymous":false},{"type":"event","name":"SupplyCapUpdated","inputs":[{"name":"oldCap","type":"uint256","indexed":false,"internalType":"uint256"},{"name":"newCap","type":"uint256","indexed":false,"internalType":"uint256"}],"anonymous":false},{"type":"event","name":"Transfer","inputs":[{"name":"from","type":"address","indexed":true,"internalType":"address"},{"name":"to","type":"address","indexed":true,"internalType":"address"},{"name":"value","type":"uint256","indexed":false,"internalType":"uint256"}],"anonymous":false},{"type":"event","name":"Unpaused","inputs":[{"name":"account","type":"address","indexed":false,"internalType":"address"}],"anonymous":false},{"type":"error","name":"AccessControlBadConfirmation","inputs":[]},{"type":"error","name":"AccessControlUnauthorizedAccount","inputs":[{"name":"account","type":"address","internalType":"address"},{"name":"neededRole","type":"bytes32","internalType":"bytes32"}]},{"type":"error","name":"ERC20InsufficientAllowance","inputs":[{"name":"spender","type":"address","internalType":"address"},{"name":"allowance","type":"uint256","internalType":"uint256"},{"name":"needed","type":"uint256","internalType":"uint256"}]},{"type":"error","name":"ERC20InsufficientBalance","inputs":[{"name":"sender","type":"address","internalType":"address"},{"name":"balance","type":"uint256","internalType":"uint256"},{"name":"needed","type":"uint256","internalType":"uint256"}]},{"type":"error","name":"ERC20InvalidApprover","inputs":[{"name":"approver","type":"address","internalType":"address"}]},{"type":"error","name":"ERC20InvalidReceiver","inputs":[{"name":"receiver","type":"address","internalType":"address"}]},{"type":"error","name":"ERC20InvalidSender","inputs":[{"name":"sender","type":"address","internalType":"address"}]},{"type":"error","name":"ERC20InvalidSpender","inputs":[{"name":"spender","type":"address","internalType":"address"}]},{"type":"error","name":"EnforcedPause","inputs":[]},{"type":"error","name":"ExpectedPause","inputs":[]}],"bytecode":{"object":"0x608060405234801561000f575f80fd5b5060405161170f38038061170f83398101604081905261002e916101d3565b6040518060400160405280600a815260200169135a5b9d1959081554d160b21b815250604051806040016040528060048152602001631b5554d160e21b815250816003908161007d9190610282565b50600461008a8282610282565b5061009991505f905033610126565b505f81116100e25760405162461bcd60e51b81526020600482015260126024820152710494e56414c49445f535550504c595f4341560741b604482015260640160405180910390fd5b6007819055604080515f8152602081018390527fb4d96b3a6638191d0f6aefa0fdc4d99af3592f4c97480e31feeb977723c63b53910160405180910390a15061033c565b5f8281526005602090815260408083206001600160a01b038516845290915281205460ff166101ca575f8381526005602090815260408083206001600160a01b03861684529091529020805460ff191660011790556101823390565b6001600160a01b0316826001600160a01b0316847f2f8788117e7eff1d82e926ec794901d17c78024a50270940304540a733656f0d60405160405180910390a45060016101cd565b505f5b92915050565b5f602082840312156101e3575f80fd5b5051919050565b634e487b7160e01b5f52604160045260245ffd5b600181811c9082168061021257607f821691505b60208210810361023057634e487b7160e01b5f52602260045260245ffd5b50919050565b601f82111561027d57805f5260205f20601f840160051c8101602085101561025b5750805b601f840160051c820191505b8181101561027a575f8155600101610267565b50505b505050565b81516001600160401b0381111561029b5761029b6101ea565b6102af816102a984546101fe565b84610236565b6020601f8211600181146102e1575f83156102ca5750848201515b5f19600385901b1c1916600184901b17845561027a565b5f84815260208120601f198516915b8281101561031057878501518255602094850194600190920191016102f0565b508482101561032d57868401515f19600387901b60f8161c191681555b50505050600190811b01905550565b6113c6806103495f395ff3fe608060405234801561000f575f80fd5b50600436106101d1575f3560e01c80635c975abb116100fe5780639dc29fac1161009e578063b6a3f59a1161006e578063b6a3f59a14610411578063d547741f14610424578063dd62ed3e14610437578063fe575a871461046f575f80fd5b80639dc29fac146103d0578063a217fddf146103e3578063a9059cbb146103ea578063b5bfddea146103fd575f80fd5b80638e141c75116100d95780638e141c75146103855780638f770ad0146103ac57806391d14854146103b557806395d89b41146103c8575f80fd5b80635c975abb1461034a57806370a08231146103555780638456cb591461037d575f80fd5b806320df435911610174578063313ce56711610144578063313ce5671461030d57806336568abe1461031c5780633f4ba83a1461032f57806340c10f1914610337575f80fd5b806320df43591461029e57806323b872dd146102c5578063248a9ca3146102d85780632f2ff15d146102fa575f80fd5b8063095ea7b3116101af578063095ea7b314610247578063153b0d1e1461025a57806316d8887a1461026f57806318160ddd14610296575f80fd5b806301ffc9a7146101d5578063062d3bd7146101fd57806306fdde0314610232575b5f80fd5b6101e86101e336600461117e565b610491565b60405190151581526020015b60405180910390f35b6102247f442a94f1a1fac79af32856af2a64f63648cfa2ef3b98610a5bb7cbec4cee698581565b6040519081526020016101f4565b61023a6104c7565b6040516101f491906111ac565b6101e86102553660046111fc565b610557565b61026d610268366004611224565b61056e565b005b6102247f5e17fc5225d4a099df75359ce1f405503ca79498a8dc46a7d583235a0ee45c1681565b600254610224565b6102247fbf233dd2aafeb4d50879c4aa5c81e96d92f6e6945c906a58f9f2d1c1631b4b2681565b6101e86102d336600461125d565b610726565b6102246102e6366004611297565b5f9081526005602052604090206001015490565b61026d6103083660046112ae565b610749565b604051601281526020016101f4565b61026d61032a3660046112ae565b610773565b61026d6107ab565b61026d6103453660046111fc565b6107c0565b60065460ff166101e8565b6102246103633660046112d8565b6001600160a01b03165f9081526020819052604090205490565b61026d6108b4565b6102247f027f9f680a0c6704fd9796b55c67fe885252243966ecb05a88f3e7873c845d9a81565b61022460075481565b6101e86103c33660046112ae565b6108e6565b61023a610910565b61026d6103de3660046111fc565b61091f565b6102245f81565b6101e86103f83660046111fc565b610a12565b6102245f8051602061137183398151915281565b61026d61041f366004611297565b610a1f565b61026d6104323660046112ae565b610b6c565b6102246104453660046112f1565b6001600160a01b039182165f90815260016020908152604080832093909416825291909152205490565b6101e861047d3660046112d8565b60086020525f908152604090205460ff1681565b5f6001600160e01b03198216637965db0b60e01b14806104c157506301ffc9a760e01b6001600160e01b03198316145b92915050565b6060600380546104d690611319565b80601f016020809104026020016040519081016040528092919081815260200182805461050290611319565b801561054d5780601f106105245761010080835404028352916020019161054d565b820191905f5260205f20905b81548152906001019060200180831161053057829003601f168201915b5050505050905090565b5f33610564818585610b90565b5060019392505050565b7f442a94f1a1fac79af32856af2a64f63648cfa2ef3b98610a5bb7cbec4cee698561059881610b9d565b6001600160a01b0383166105e55760405162461bcd60e51b815260206004820152600f60248201526e494e56414c49445f4144445245535360881b60448201526064015b60405180910390fd5b81156106c6576106025f80516020611371833981519152846108e6565b1561064f5760405162461bcd60e51b815260206004820152601760248201527f43414e4e4f545f424c41434b4c4953545f42524944474500000000000000000060448201526064016105dc565b6106797f5e17fc5225d4a099df75359ce1f405503ca79498a8dc46a7d583235a0ee45c16846108e6565b156106c65760405162461bcd60e51b815260206004820152601b60248201527f43414e4e4f545f424c41434b4c4953545f4c495155494441544f52000000000060448201526064016105dc565b6001600160a01b0383165f81815260086020908152604091829020805460ff191686151590811790915591519182527f6a12b3df6cba4203bd7fd06b816789f87de8c594299aed5717ae070fac781bac91015b60405180910390a2505050565b5f33610733858285610ba7565b61073e858585610c1d565b506001949350505050565b5f8281526005602052604090206001015461076381610b9d565b61076d8383610c7a565b50505050565b6001600160a01b038116331461079c5760405163334bd91960e11b815260040160405180910390fd5b6107a68282610d0b565b505050565b5f6107b581610b9d565b6107bd610d76565b50565b5f805160206113718339815191526107d781610b9d565b6001600160a01b03831661081c5760405162461bcd60e51b815260206004820152600c60248201526b4d494e545f544f5f5a45524f60a01b60448201526064016105dc565b6007548261082960025490565b6108339190611351565b111561086f5760405162461bcd60e51b815260206004820152600b60248201526a0455843454544535f4341560ac1b60448201526064016105dc565b6108798383610dc8565b826001600160a01b03167f0f6798a560793a54c3bcfe86a93cde1e73087d944c0ea20544137d41213968858360405161071991815260200190565b7fbf233dd2aafeb4d50879c4aa5c81e96d92f6e6945c906a58f9f2d1c1631b4b266108de81610b9d565b6107bd610e00565b5f9182526005602090815260408084206001600160a01b0393909316845291905290205460ff1690565b6060600480546104d690611319565b6109365f80516020611371833981519152336108e6565b8061096657506109667f5e17fc5225d4a099df75359ce1f405503ca79498a8dc46a7d583235a0ee45c16336108e6565b6109a65760405162461bcd60e51b81526020600482015260116024820152702aa720aaaa2427a924ad22a22fa12aa92760791b60448201526064016105dc565b6001600160a01b03821633146109c1576109c1823383610ba7565b6109cb8282610e3d565b816001600160a01b03167fcc16f5dbb4873280815c1ee09dbd06736cffcc184412cf7a71a0fdb75d397ca582604051610a0691815260200190565b60405180910390a25050565b5f33610564818585610c1d565b610a295f336108e6565b80610a595750610a597f027f9f680a0c6704fd9796b55c67fe885252243966ecb05a88f3e7873c845d9a336108e6565b610a945760405162461bcd60e51b815260206004820152600c60248201526b15539055551213d49256915160a21b60448201526064016105dc565b5f8111610ad85760405162461bcd60e51b81526020600482015260126024820152710494e56414c49445f535550504c595f4341560741b60448201526064016105dc565b6007545f610ae560025490565b905080831015610b295760408051848152602081018390527fdc925b1ce757f7abda0f31c01cdf107e8fad4dd7c047756a4786e9bd640adca6910160405180910390a15b600783905560408051838152602081018590527fb4d96b3a6638191d0f6aefa0fdc4d99af3592f4c97480e31feeb977723c63b53910160405180910390a1505050565b5f82815260056020526040902060010154610b8681610b9d565b61076d8383610d0b565b6107a68383836001610e71565b6107bd8133610f43565b6001600160a01b038381165f908152600160209081526040808320938616835292905220545f1981101561076d5781811015610c0f57604051637dc7a0d960e11b81526001600160a01b038416600482015260248101829052604481018390526064016105dc565b61076d84848484035f610e71565b6001600160a01b038316610c4657604051634b637e8f60e11b81525f60048201526024016105dc565b6001600160a01b038216610c6f5760405163ec442f0560e01b81525f60048201526024016105dc565b6107a6838383610f7c565b5f610c8583836108e6565b610d04575f8381526005602090815260408083206001600160a01b03861684529091529020805460ff19166001179055610cbc3390565b6001600160a01b0316826001600160a01b0316847f2f8788117e7eff1d82e926ec794901d17c78024a50270940304540a733656f0d60405160405180910390a45060016104c1565b505f6104c1565b5f610d1683836108e6565b15610d04575f8381526005602090815260408083206001600160a01b0386168085529252808320805460ff1916905551339286917ff6391f5c32d9c69d2a47ea670b442974b53935d1edc7fd64eb21e047a839171b9190a45060016104c1565b610d7e61100f565b6006805460ff191690557f5db9ee0a495bf2e6ff9c91a7834c1ba4fdd244a5e8aa4e537bd38aeae4b073aa335b6040516001600160a01b03909116815260200160405180910390a1565b6001600160a01b038216610df15760405163ec442f0560e01b81525f60048201526024016105dc565b610dfc5f8383610f7c565b5050565b610e08611034565b6006805460ff191660011790557f62e78cea01bee320cd4e420270b5ea74000d11b0c9f74754ebdbfc544b05a258610dab3390565b6001600160a01b038216610e6657604051634b637e8f60e11b81525f60048201526024016105dc565b610dfc825f83610f7c565b6001600160a01b038416610e9a5760405163e602df0560e01b81525f60048201526024016105dc565b6001600160a01b038316610ec357604051634a1406b160e11b81525f60048201526024016105dc565b6001600160a01b038085165f908152600160209081526040808320938716835292905220829055801561076d57826001600160a01b0316846001600160a01b03167f8c5be1e5ebec7d5bd14f71427d1e84f3dd0314c0f7b2291e5b200ac8c7c3b92584604051610f3591815260200190565b60405180910390a350505050565b610f4d82826108e6565b610dfc5760405163e2517d3f60e01b81526001600160a01b0382166004820152602481018390526044016105dc565b610f84611034565b6001600160a01b0383165f9081526008602052604090205460ff16158015610fc457506001600160a01b0382165f9081526008602052604090205460ff16155b6110045760405162461bcd60e51b815260206004820152601160248201527010d3d3541312505390d157d491529150d5607a1b60448201526064016105dc565b6107a6838383611058565b60065460ff1661103257604051638dfc202b60e01b815260040160405180910390fd5b565b60065460ff16156110325760405163d93c066560e01b815260040160405180910390fd5b6001600160a01b038316611082578060025f8282546110779190611351565b909155506110f29050565b6001600160a01b0383165f90815260208190526040902054818110156110d45760405163391434e360e21b81526001600160a01b038516600482015260248101829052604481018390526064016105dc565b6001600160a01b0384165f9081526020819052604090209082900390555b6001600160a01b03821661110e5760028054829003905561112c565b6001600160a01b0382165f9081526020819052604090208054820190555b816001600160a01b0316836001600160a01b03167fddf252ad1be2c89b69c2b068fc378daa952ba7f163c4a11628f55a4df523b3ef8360405161117191815260200190565b60405180910390a3505050565b5f6020828403121561118e575f80fd5b81356001600160e01b0319811681146111a5575f80fd5b9392505050565b602081525f82518060208401528060208501604085015e5f604082850101526040601f19601f83011684010191505092915050565b80356001600160a01b03811681146111f7575f80fd5b919050565b5f806040838503121561120d575f80fd5b611216836111e1565b946020939093013593505050565b5f8060408385031215611235575f80fd5b61123e836111e1565b915060208301358015158114611252575f80fd5b809150509250929050565b5f805f6060848603121561126f575f80fd5b611278846111e1565b9250611286602085016111e1565b929592945050506040919091013590565b5f602082840312156112a7575f80fd5b5035919050565b5f80604083850312156112bf575f80fd5b823591506112cf602084016111e1565b90509250929050565b5f602082840312156112e8575f80fd5b6111a5826111e1565b5f8060408385031215611302575f80fd5b61130b836111e1565b91506112cf602084016111e1565b600181811c9082168061132d57607f821691505b60208210810361134b57634e487b7160e01b5f52602260045260245ffd5b50919050565b808201808211156104c157634e487b7160e01b5f52601160045260245ffdfe52ba824bfabc2bcfcdf7f0edbb486ebb05e1836c90e78047efeb949990f72e5fa264697066735822122050f1ee2e937f53185ea86dab01370674be6bde72d082729fd0321f1f5692a74864736f6c634300081a0033","linkReferences":{}},"methodIdentifiers":{"BRIDGE_ROLE()":"b5bfddea","CAP_MANAGER_ROLE()":"8e141c75","COMPLIANCE_ROLE()":"062d3bd7","DEFAULT_ADMIN_ROLE()":"a217fddf","EMERGENCY_ROLE()":"20df4359","LIQUIDATOR_ROLE()":"16d8887a","allowance(address,address)":"dd62ed3e","approve(address,uint256)":"095ea7b3","balanceOf(address)":"70a08231","burn(address,uint256)":"9dc29fac","decimals()":"313ce567","getRoleAdmin(bytes32)":"248a9ca3","grantRole(bytes32,address)":"2f2ff15d","hasRole(bytes32,address)":"91d14854","isBlacklisted(address)":"fe575a87","mint(address,uint256)":"40c10f19","name()":"06fdde03","pause()":"8456cb59","paused()":"5c975abb","renounceRole(bytes32,address)":"36568abe","revokeRole(bytes32,address)":"d547741f","setBlacklist(address,bool)":"153b0d1e","setSupplyCap(uint256)":"b6a3f59a","supplyCap()":"8f770ad0","supportsInterface(bytes4)":"01ffc9a7","symbol()":"95d89b41","totalSupply()":"18160ddd","transfer(address,uint256)":"a9059cbb","transferFrom(address,address,uint256)":"23b872dd","unpause()":"3f4ba83a"},"id":8}