{"abi":[{"type":"constructor","inputs":[],"stateMutability":"nonpayable"},{"type":"function","name":"BPS","inputs":[],"outputs":[{"name":"","type":"uint256","internalType":"uint256"}],"stateMutability":"view"},{"type":"function","name":"DEFAULT_ADMIN_ROLE","inputs":[],"outputs":[{"name":"","type":"bytes32","internalType":"bytes32"}],"stateMutability":"view"},{"type":"function","name":"DEFAULT_ROLLOVER_THRESHOLD","inputs":[],"outputs":[{"name":"","type":"uint256","internalType":"uint256"}],"stateMutability":"view"},{"type":"function","name":"GUARDIAN_ROLE","inputs":[],"outputs":[{"name":"","type":"bytes32","internalType":"bytes32"}],"stateMutability":"view"},{"type":"function","name":"MAX_SLIPPAGE_BPS","inputs":[],"outputs":[{"name":"","type":"uint256","internalType":"uint256"}],"stateMutability":"view"},{"type":"function","name":"PENDLE_ROUTER","inputs":[],"outputs":[{"name":"","type":"address","internalType":"address"}],"stateMutability":"view"},{"type":"function","name":"STRATEGIST_ROLE","inputs":[],"outputs":[{"name":"","type":"bytes32","internalType":"bytes32"}],"stateMutability":"view"},{"type":"function","name":"TREASURY_ROLE","inputs":[],"outputs":[{"name":"","type":"bytes32","internalType":"bytes32"}],"stateMutability":"view"},{"type":"function","name":"UPGRADE_DELAY","inputs":[],"outputs":[{"name":"","type":"uint256","internalType":"uint256"}],"stateMutability":"view"},{"type":"function","name":"UPGRADE_INTERFACE_VERSION","inputs":[],"outputs":[{"name":"","type":"string","internalType":"string"}],"stateMutability":"view"},{"type":"function","name":"active","inputs":[],"outputs":[{"name":"","type":"bool","internalType":"bool"}],"stateMutability":"view"},{"type":"function","name":"asset","inputs":[],"outputs":[{"name":"","type":"address","internalType":"address"}],"stateMutability":"view"},{"type":"function","name":"cancelUpgrade","inputs":[],"outputs":[],"stateMutability":"nonpayable"},{"type":"function","name":"currentExpiry","inputs":[],"outputs":[{"name":"","type":"uint256","internalType":"uint256"}],"stateMutability":"view"},{"type":"function","name":"currentMarket","inputs":[],"outputs":[{"name":"","type":"address","internalType":"address"}],"stateMutability":"view"},{"type":"function","name":"currentPT","inputs":[],"outputs":[{"name":"","type":"address","internalType":"address"}],"stateMutability":"view"},{"type":"function","name":"currentSY","inputs":[],"outputs":[{"name":"","type":"address","internalType":"address"}],"stateMutability":"view"},{"type":"function","name":"currentYT","inputs":[],"outputs":[{"name":"","type":"address","internalType":"address"}],"stateMutability":"view"},{"type":"function","name":"deposit","inputs":[{"name":"amount","type":"uint256","internalType":"uint256"}],"outputs":[{"name":"deposited","type":"uint256","internalType":"uint256"}],"stateMutability":"nonpayable"},{"type":"function","name":"emergencyWithdraw","inputs":[{"name":"recipient","type":"address","internalType":"address"}],"outputs":[],"stateMutability":"nonpayable"},{"type":"function","name":"getRoleAdmin","inputs":[{"name":"role","type":"bytes32","internalType":"bytes32"}],"outputs":[{"name":"","type":"bytes32","internalType":"bytes32"}],"stateMutability":"view"},{"type":"function","name":"grantRole","inputs":[{"name":"role","type":"bytes32","internalType":"bytes32"},{"name":"account","type":"address","internalType":"address"}],"outputs":[],"stateMutability":"nonpayable"},{"type":"function","name":"hasRole","inputs":[{"name":"role","type":"bytes32","internalType":"bytes32"},{"name":"account","type":"address","internalType":"address"}],"outputs":[{"name":"","type":"bool","internalType":"bool"}],"stateMutability":"view"},{"type":"function","name":"initialize","inputs":[{"name":"_usdc","type":"address","internalType":"address"},{"name":"_marketSelector","type":"address","internalType":"address"},{"name":"_treasury","type":"address","internalType":"address"},{"name":"_admin","type":"address","internalType":"address"},{"name":"_category","type":"string","internalType":"string"}],"outputs":[],"stateMutability":"nonpayable"},{"type":"function","name":"isActive","inputs":[],"outputs":[{"name":"","type":"bool","internalType":"bool"}],"stateMutability":"view"},{"type":"function","name":"marketCategory","inputs":[],"outputs":[{"name":"","type":"string","internalType":"string"}],"stateMutability":"view"},{"type":"function","name":"marketSelector","inputs":[],"outputs":[{"name":"","type":"address","internalType":"contract IPendleMarketSelector"}],"stateMutability":"view"},{"type":"function","name":"pause","inputs":[],"outputs":[],"stateMutability":"nonpayable"},{"type":"function","name":"paused","inputs":[],"outputs":[{"name":"","type":"bool","internalType":"bool"}],"stateMutability":"view"},{"type":"function","name":"pendingImplementation","inputs":[],"outputs":[{"name":"","type":"address","internalType":"address"}],"stateMutability":"view"},{"type":"function","name":"proxiableUUID","inputs":[],"outputs":[{"name":"","type":"bytes32","internalType":"bytes32"}],"stateMutability":"view"},{"type":"function","name":"ptBalance","inputs":[],"outputs":[{"name":"","type":"uint256","internalType":"uint256"}],"stateMutability":"view"},{"type":"function","name":"ptDiscountRateBps","inputs":[],"outputs":[{"name":"","type":"uint256","internalType":"uint256"}],"stateMutability":"view"},{"type":"function","name":"recoverToken","inputs":[{"name":"token","type":"address","internalType":"address"},{"name":"to","type":"address","internalType":"address"}],"outputs":[],"stateMutability":"nonpayable"},{"type":"function","name":"renounceRole","inputs":[{"name":"role","type":"bytes32","internalType":"bytes32"},{"name":"callerConfirmation","type":"address","internalType":"address"}],"outputs":[],"stateMutability":"nonpayable"},{"type":"function","name":"requestUpgrade","inputs":[{"name":"newImplementation","type":"address","internalType":"address"}],"outputs":[],"stateMutability":"nonpayable"},{"type":"function","name":"revokeRole","inputs":[{"name":"role","type":"bytes32","internalType":"bytes32"},{"name":"account","type":"address","internalType":"address"}],"outputs":[],"stateMutability":"nonpayable"},{"type":"function","name":"rollToNewMarket","inputs":[],"outputs":[],"stateMutability":"nonpayable"},{"type":"function","name":"rolloverThreshold","inputs":[],"outputs":[{"name":"","type":"uint256","internalType":"uint256"}],"stateMutability":"view"},{"type":"function","name":"setActive","inputs":[{"name":"_active","type":"bool","internalType":"bool"}],"outputs":[],"stateMutability":"nonpayable"},{"type":"function","name":"setMarketSelector","inputs":[{"name":"_selector","type":"address","internalType":"address"}],"outputs":[],"stateMutability":"nonpayable"},{"type":"function","name":"setPtDiscountRate","inputs":[{"name":"_discountBps","type":"uint256","internalType":"uint256"}],"outputs":[],"stateMutability":"nonpayable"},{"type":"function","name":"setRolloverThreshold","inputs":[{"name":"_threshold","type":"uint256","internalType":"uint256"}],"outputs":[],"stateMutability":"nonpayable"},{"type":"function","name":"setSlippage","inputs":[{"name":"_slippageBps","type":"uint256","internalType":"uint256"}],"outputs":[],"stateMutability":"nonpayable"},{"type":"function","name":"shouldRollover","inputs":[],"outputs":[{"name":"","type":"bool","internalType":"bool"}],"stateMutability":"view"},{"type":"function","name":"slippageBps","inputs":[],"outputs":[{"name":"","type":"uint256","internalType":"uint256"}],"stateMutability":"view"},{"type":"function","name":"supportsInterface","inputs":[{"name":"interfaceId","type":"bytes4","internalType":"bytes4"}],"outputs":[{"name":"","type":"bool","internalType":"bool"}],"stateMutability":"view"},{"type":"function","name":"timeToExpiry","inputs":[],"outputs":[{"name":"","type":"uint256","internalType":"uint256"}],"stateMutability":"view"},{"type":"function","name":"totalValue","inputs":[],"outputs":[{"name":"","type":"uint256","internalType":"uint256"}],"stateMutability":"view"},{"type":"function","name":"triggerRollover","inputs":[],"outputs":[],"stateMutability":"nonpayable"},{"type":"function","name":"unpause","inputs":[],"outputs":[],"stateMutability":"nonpayable"},{"type":"function","name":"upgradeRequestTime","inputs":[],"outputs":[{"name":"","type":"uint256","internalType":"uint256"}],"stateMutability":"view"},{"type":"function","name":"upgradeToAndCall","inputs":[{"name":"newImplementation","type":"address","internalType":"address"},{"name":"data","type":"bytes","internalType":"bytes"}],"outputs":[],"stateMutability":"payable"},{"type":"function","name":"usdc","inputs":[],"outputs":[{"name":"","type":"address","internalType":"contract IERC20"}],"stateMutability":"view"},{"type":"function","name":"withdraw","inputs":[{"name":"amount","type":"uint256","internalType":"uint256"}],"outputs":[{"name":"withdrawn","type":"uint256","internalType":"uint256"}],"stateMutability":"nonpayable"},{"type":"function","name":"withdrawAll","inputs":[],"outputs":[{"name":"withdrawn","type":"uint256","internalType":"uint256"}],"stateMutability":"nonpayable"},{"type":"event","name":"Deposited","inputs":[{"name":"market","type":"address","indexed":true,"internalType":"address"},{"name":"usdcIn","type":"uint256","indexed":false,"internalType":"uint256"},{"name":"ptOut","type":"uint256","indexed":false,"internalType":"uint256"}],"anonymous":false},{"type":"event","name":"EmergencyWithdraw","inputs":[{"name":"ptRedeemed","type":"uint256","indexed":false,"internalType":"uint256"},{"name":"usdcOut","type":"uint256","indexed":false,"internalType":"uint256"}],"anonymous":false},{"type":"event","name":"Initialized","inputs":[{"name":"version","type":"uint64","indexed":false,"internalType":"uint64"}],"anonymous":false},{"type":"event","name":"MarketRolled","inputs":[{"name":"oldMarket","type":"address","indexed":true,"internalType":"address"},{"name":"newMarket","type":"address","indexed":true,"internalType":"address"},{"name":"amount","type":"uint256","indexed":false,"internalType":"uint256"},{"name":"newExpiry","type":"uint256","indexed":false,"internalType":"uint256"}],"anonymous":false},{"type":"event","name":"Paused","inputs":[{"name":"account","type":"address","indexed":false,"internalType":"address"}],"anonymous":false},{"type":"event","name":"PtDiscountRateUpdated","inputs":[{"name":"oldRate","type":"uint256","indexed":false,"internalType":"uint256"},{"name":"newRate","type":"uint256","indexed":false,"internalType":"uint256"}],"anonymous":false},{"type":"event","name":"RoleAdminChanged","inputs":[{"name":"role","type":"bytes32","indexed":true,"internalType":"bytes32"},{"name":"previousAdminRole","type":"bytes32","indexed":true,"internalType":"bytes32"},{"name":"newAdminRole","type":"bytes32","indexed":true,"internalType":"bytes32"}],"anonymous":false},{"type":"event","name":"RoleGranted","inputs":[{"name":"role","type":"bytes32","indexed":true,"internalType":"bytes32"},{"name":"account","type":"address","indexed":true,"internalType":"address"},{"name":"sender","type":"address","indexed":true,"internalType":"address"}],"anonymous":false},{"type":"event","name":"RoleRevoked","inputs":[{"name":"role","type":"bytes32","indexed":true,"internalType":"bytes32"},{"name":"account","type":"address","indexed":true,"internalType":"address"},{"name":"sender","type":"address","indexed":true,"internalType":"address"}],"anonymous":false},{"type":"event","name":"RolloverThresholdUpdated","inputs":[{"name":"oldThreshold","type":"uint256","indexed":false,"internalType":"uint256"},{"name":"newThreshold","type":"uint256","indexed":false,"internalType":"uint256"}],"anonymous":false},{"type":"event","name":"RolloverTriggered","inputs":[{"name":"triggeredBy","type":"address","indexed":true,"internalType":"address"},{"name":"daysToExpiry","type":"uint256","indexed":false,"internalType":"uint256"}],"anonymous":false},{"type":"event","name":"SlippageUpdated","inputs":[{"name":"oldSlippage","type":"uint256","indexed":false,"internalType":"uint256"},{"name":"newSlippage","type":"uint256","indexed":false,"internalType":"uint256"}],"anonymous":false},{"type":"event","name":"Unpaused","inputs":[{"name":"account","type":"address","indexed":false,"internalType":"address"}],"anonymous":false},{"type":"event","name":"UpgradeCancelled","inputs":[{"name":"cancelledImplementation","type":"address","indexed":true,"internalType":"address"}],"anonymous":false},{"type":"event","name":"UpgradeRequested","inputs":[{"name":"newImplementation","type":"address","indexed":true,"internalType":"address"},{"name":"executeAfter","type":"uint256","indexed":false,"internalType":"uint256"}],"anonymous":false},{"type":"event","name":"Upgraded","inputs":[{"name":"implementation","type":"address","indexed":true,"internalType":"address"}],"anonymous":false},{"type":"event","name":"Withdrawn","inputs":[{"name":"market","type":"address","indexed":true,"internalType":"address"},{"name":"ptIn","type":"uint256","indexed":false,"internalType":"uint256"},{"name":"usdcOut","type":"uint256","indexed":false,"internalType":"uint256"}],"anonymous":false},{"type":"error","name":"AccessControlBadConfirmation","inputs":[]},{"type":"error","name":"AccessControlUnauthorizedAccount","inputs":[{"name":"account","type":"address","internalType":"address"},{"name":"neededRole","type":"bytes32","internalType":"bytes32"}]},{"type":"error","name":"AddressEmptyCode","inputs":[{"name":"target","type":"address","internalType":"address"}]},{"type":"error","name":"ERC1967InvalidImplementation","inputs":[{"name":"implementation","type":"address","internalType":"address"}]},{"type":"error","name":"ERC1967NonPayable","inputs":[]},{"type":"error","name":"EnforcedPause","inputs":[]},{"type":"error","name":"ExpectedPause","inputs":[]},{"type":"error","name":"FailedCall","inputs":[]},{"type":"error","name":"InvalidInitialization","inputs":[]},{"type":"error","name":"InvalidSlippage","inputs":[]},{"type":"error","name":"MarketNotExpired","inputs":[]},{"type":"error","name":"NoMarketSet","inputs":[]},{"type":"error","name":"NotActive","inputs":[]},{"type":"error","name":"NotInitializing","inputs":[]},{"type":"error","name":"ReentrancyGuardReentrantCall","inputs":[]},{"type":"error","name":"RolloverNotNeeded","inputs":[]},{"type":"error","name":"SafeERC20FailedOperation","inputs":[{"name":"token","type":"address","internalType":"address"}]},{"type":"error","name":"SlippageExceeded","inputs":[]},{"type":"error","name":"UUPSUnauthorizedCallContext","inputs":[]},{"type":"error","name":"UUPSUnsupportedProxiableUUID","inputs":[{"name":"slot","type":"bytes32","internalType":"bytes32"}]},{"type":"error","name":"ZeroAddress","inputs":[]},{"type":"error","name":"ZeroAmount","inputs":[]}],"bytecode":{"object":"0x60a060405230608052348015610013575f80fd5b5061001c610021565b6100d3565b7ff0c57e16840df040f15088dc2f81fe391c3923bec73e23a9662efc9c229c6a00805468010000000000000000900460ff16156100715760405163f92ee8a960e01b815260040160405180910390fd5b80546001600160401b03908116146100d05780546001600160401b0319166001600160401b0390811782556040519081527fc7f505b2f371ae2175ee4913f4499e1f2633a7b5936321eed1cdaeb6115181d29060200160405180910390a15b50565b608051613b406100f95f395f81816126ae015281816126d701526128e50152613b405ff3fe60806040526004361061035b575f3560e01c8063578c71d9116101bd578063acec338a116100f2578063d4c3eea011610092578063e229cd761161006d578063e229cd761461091d578063f0fa55a914610931578063fbc3b2e914610950578063feaea58614610965575f80fd5b8063d4c3eea0146108d5578063d547741f146108e9578063e05a369f14610908575f80fd5b8063b6b55f25116100cd578063b6b55f2514610858578063b9ec2c9814610877578063c6675cc914610896578063d11a57ec146108b5575f80fd5b8063acec338a146107ea578063ad3cb1cc14610809578063b3e62d5114610839575f80fd5b8063853828b61161015d578063a213357411610138578063a213357414610783578063a217fddf146107a2578063a378a324146107b5578063ac9e42c1146107d5575f80fd5b8063853828b61461073157806391d14854146107455780639e56791514610764575f80fd5b806368c60ea81161019857806368c60ea8146106c05780636b9f97ef146106df5780636ff1c9bc146106fe5780638456cb591461071d575f80fd5b8063578c71d9146106725780635c975abb1461068757806360ea76b7146106aa575f80fd5b80632e1a7d4d116102935780633e413bee1161023357806347fe8b1d1161020e57806347fe8b1d146106215780634f1ef2861461063757806352d1902d1461064a57806355f291661461065e575f80fd5b80633e413bee146105db5780633e84531c146105f95780633f4ba83a1461060d575f80fd5b806336568abe1161026e57806336568abe1461054657806338d52e0f14610565578063396f7b23146105955780633c97b00d146105b4575f80fd5b80632e1a7d4d146104e95780632f2ff15d146105085780632fb3b36114610527575f80fd5b80630ea67860116102fe57806322f3e2d4116102d957806322f3e2d414610481578063248a9ca314610495578063249d39e9146104b457806324ea54f4146104c9575f80fd5b80630ea678601461043757806321b72d8c14610458578063227917941461046d575f80fd5b8063044c3eec11610339578063044c3eec146103cf5780630915bba0146103e35780630aaf1e72146104045780630bfbbe6b14610418575f80fd5b806301ffc9a71461035f57806302fb0c5e14610393578063036cba24146103ac575b5f80fd5b34801561036a575f80fd5b5061037e610379366004612fb0565b610984565b60405190151581526020015b60405180910390f35b34801561039e575f80fd5b50600a5461037e9060ff1681565b3480156103b7575f80fd5b506103c160085481565b60405190815260200161038a565b3480156103da575f80fd5b5061037e6109ba565b3480156103ee575f80fd5b506104026103fd366004612fd7565b6109c8565b005b34801561040f575f80fd5b50610402610a6c565b348015610423575f80fd5b50610402610432366004613002565b610bbd565b348015610442575f80fd5b5061044b610c11565b60405161038a919061304b565b348015610463575f80fd5b506103c160065481565b348015610478575f80fd5b50610402610c9d565b34801561048c575f80fd5b5061037e610da4565b3480156104a0575f80fd5b506103c16104af366004612fd7565b610dca565b3480156104bf575f80fd5b506103c161271081565b3480156104d4575f80fd5b506103c15f80516020613aeb83398151915281565b3480156104f4575f80fd5b506103c1610503366004612fd7565b610dea565b348015610513575f80fd5b5061040261052236600461305d565b610ef5565b348015610532575f80fd5b5061040261054136600461308b565b610f17565b348015610551575f80fd5b5061040261056036600461305d565b61113a565b348015610570575f80fd5b505f546001600160a01b03165b6040516001600160a01b03909116815260200161038a565b3480156105a0575f80fd5b50600d5461057d906001600160a01b031681565b3480156105bf575f80fd5b5061057d73888888888889758f76e7103c6cbf23abbf58f94681565b3480156105e6575f80fd5b505f5461057d906001600160a01b031681565b348015610604575f80fd5b506103c1611172565b348015610618575f80fd5b5061040261119d565b34801561062c575f80fd5b506103c16202a30081565b6104026106453660046131b1565b6111b2565b348015610655575f80fd5b506103c16111d1565b348015610669575f80fd5b506104026111ed565b34801561067d575f80fd5b506103c1600b5481565b348015610692575f80fd5b505f80516020613a6b8339815191525460ff1661037e565b3480156106b5575f80fd5b506103c162093a8081565b3480156106cb575f80fd5b5060045461057d906001600160a01b031681565b3480156106ea575f80fd5b506104026106f9366004613002565b611247565b348015610709575f80fd5b50610402610718366004613002565b611358565b348015610728575f80fd5b50610402611500565b34801561073c575f80fd5b506103c161151f565b348015610750575f80fd5b5061037e61075f36600461305d565b611657565b34801561076f575f80fd5b5060035461057d906001600160a01b031681565b34801561078e575f80fd5b5060055461057d906001600160a01b031681565b3480156107ad575f80fd5b506103c15f81565b3480156107c0575f80fd5b506103c15f80516020613a8b83398151915281565b3480156107e0575f80fd5b506103c1600e5481565b3480156107f5575f80fd5b50610402610804366004613265565b61168d565b348015610814575f80fd5b5061044b604051806040016040528060058152602001640352e302e360dc1b81525081565b348015610844575f80fd5b50610402610853366004612fd7565b6116b8565b348015610863575f80fd5b506103c1610872366004612fd7565b611767565b348015610882575f80fd5b5060015461057d906001600160a01b031681565b3480156108a1575f80fd5b5060025461057d906001600160a01b031681565b3480156108c0575f80fd5b506103c15f80516020613acb83398151915281565b3480156108e0575f80fd5b506103c1611a50565b3480156108f4575f80fd5b5061040261090336600461305d565b611b5e565b348015610913575f80fd5b506103c160075481565b348015610928575f80fd5b506103c1606481565b34801561093c575f80fd5b5061040261094b366004612fd7565b611b7a565b34801561095b575f80fd5b506103c1600c5481565b348015610970575f80fd5b5061040261097f366004613280565b611bf5565b5f6001600160e01b03198216637965db0b60e01b14806109b457506301ffc9a760e01b6001600160e01b03198316145b92915050565b5f6109c3611d22565b905090565b5f80516020613a8b8339815191526109df81611d78565b611388821115610a2a5760405162461bcd60e51b815260206004820152601160248201527008892a6869eaa9ca8bea89e9ebe90928e9607b1b60448201526064015b60405180910390fd5b600c5460408051918252602082018490527f2fa1e127b9bd55344f6e09f19852aa7390cb6a4c5edcc782a3df0b031c8baff1910160405180910390a150600c55565b610a74611d82565b5f80516020613a8b833981519152610a8b81611d78565b610a93611d22565b610ab057604051635951f7c760e11b815260040160405180910390fd5b5f426006541115610ada576201518042600654610acd91906132c0565b610ad791906132d3565b90505b60405181815233907f78b67ef2861784c8bc397dbe8cdcadd6481b15dfb7985dd1fb7b1bde7e16bec29060200160405180910390a26002546007546001600160a01b03909116905f9015610b3657610b33600754611db9565b90505b610b3e61205b565b8015610b4d57610b4d8161223d565b6002546006546040516001600160a01b03928316928516917fe0aa5ec02f35ec377fada53966d5d41784339da101ae8d209878fd9dedbbfaed91610b9991868252602082015260400190565b60405180910390a350505050610bbb60015f80516020613aab83398151915255565b565b5f610bc781611d78565b6001600160a01b038216610bee5760405163d92e233d60e01b815260040160405180910390fd5b50600180546001600160a01b0319166001600160a01b0392909216919091179055565b60098054610c1e906132f2565b80601f0160208091040260200160405190810160405280929190818152602001828054610c4a906132f2565b8015610c955780601f10610c6c57610100808354040283529160200191610c95565b820191905f5260205f20905b815481529060010190602001808311610c7857829003601f168201915b505050505081565b610ca5611d82565b5f80516020613a8b833981519152610cbc81611d78565b610cc4611d22565b158015610cdb57506002546001600160a01b031615155b15610cf957604051635951f7c760e11b815260040160405180910390fd5b6002546007546001600160a01b03909116905f9015610d2057610d1d600754611db9565b90505b610d2861205b565b8015610d3757610d378161223d565b6002546006546040516001600160a01b03928316928516917fe0aa5ec02f35ec377fada53966d5d41784339da101ae8d209878fd9dedbbfaed91610d8391868252602082015260400190565b60405180910390a3505050610bbb60015f80516020613aab83398151915255565b600a545f9060ff1680156109c35750505f80516020613a6b8339815191525460ff161590565b5f9081525f80516020613a4b833981519152602052604090206001015490565b5f610df3611d82565b5f80516020613acb833981519152610e0a81611d78565b825f03610e2a57604051631f2a200560e01b815260040160405180910390fd5b6002546001600160a01b0316610e5357604051633544293160e01b815260040160405180910390fd5b5f610e5d846123f4565b9050600754811115610e6e57506007545b610e7781611db9565b5f54909350610e90906001600160a01b0316338561248b565b60025460408051838152602081018690526001600160a01b03909216917f92ccf450a286a957af52509bc1c9939d1a6a481783e142e41e2499f0bb66ebc6910160405180910390a25050610ef060015f80516020613aab83398151915255565b919050565b610efe82610dca565b610f0781611d78565b610f1183836124ea565b50505050565b5f610f2061258b565b805490915060ff600160401b820416159067ffffffffffffffff165f81158015610f475750825b90505f8267ffffffffffffffff166001148015610f635750303b155b905081158015610f71575080155b15610f8f5760405163f92ee8a960e01b815260040160405180910390fd5b845467ffffffffffffffff191660011785558315610fb957845460ff60401b1916600160401b1785555b6001600160a01b038b161580610fd657506001600160a01b038a16155b80610fe857506001600160a01b038916155b80610ffa57506001600160a01b038816155b156110185760405163d92e233d60e01b815260040160405180910390fd5b6110206125b3565b6110286125bb565b6110306125b3565b6110386125b3565b5f80546001600160a01b03808e166001600160a01b03199283161790925560018054928d1692909116919091179055600961107487898361336e565b5062093a806008556032600b556103e8600c55600a805460ff1916600117905561109e5f896124ea565b506110b65f80516020613acb8339815191528a6124ea565b506110ce5f80516020613a8b833981519152896124ea565b506110e65f80516020613aeb833981519152896124ea565b50831561112d57845460ff60401b19168555604051600181527fc7f505b2f371ae2175ee4913f4499e1f2633a7b5936321eed1cdaeb6115181d29060200160405180910390a15b5050505050505050505050565b6001600160a01b03811633146111635760405163334bd91960e11b815260040160405180910390fd5b61116d82826125cb565b505050565b5f6006545f148061118557504260065411155b1561118f57505f90565b426006546109c391906132c0565b5f6111a781611d78565b6111af612644565b50565b6111ba6126a3565b6111c382612747565b6111cd828261281e565b5050565b5f6111da6128da565b505f80516020613a2b8339815191525b90565b5f6111f781611d78565b600d80546001600160a01b031981169091555f600e8190556040516001600160a01b039092169182917f3198dc80249fcfedbd0d06e1ff49a7695a51b006592328ce0b127cdeab77e93691a25050565b5f61125181611d78565b6001600160a01b0382166112965760405162461bcd60e51b815260206004820152600c60248201526b5a45524f5f4144445245535360a01b6044820152606401610a21565b600d546001600160a01b0316156112ef5760405162461bcd60e51b815260206004820152601760248201527f555047524144455f414c52454144595f50454e44494e470000000000000000006044820152606401610a21565b600d80546001600160a01b0319166001600160a01b03841690811790915542600e8190557f7d4df661563fb5b6b245267960bdc1f0ce81d7027ea6996f19718930dc3cf53790611343906202a30090613428565b60405190815260200160405180910390a25050565b5f80516020613aeb83398151915261136f81611d78565b6001600160a01b0382166113b65760405162461bcd60e51b815260206004820152600e60248201526d16915493d7d49150d2541251539560921b6044820152606401610a21565b6113cd5f80516020613acb83398151915283611657565b6114195760405162461bcd60e51b815260206004820152601a60248201527f524543495049454e545f4d5553545f42455f54524541535552590000000000006044820152606401610a21565b611421612923565b6007545f81156114375761143482611db9565b90505b5f80546040516370a0823160e01b81523060048201526001600160a01b03909116906370a0823190602401602060405180830381865afa15801561147d573d5f803e3d5ffd5b505050506040513d601f19601f820116820180604052508101906114a1919061343b565b60408051858152602081018390529192507fb073e6fbd06d7557d2c82f414fee57de28e7fb517ecc0afdd6b1fc57034a9cb8910160405180910390a180156114f9575f546114f9906001600160a01b0316868361248b565b5050505050565b5f80516020613aeb83398151915261151781611d78565b6111af612923565b5f611528611d82565b5f80516020613acb83398151915261153f81611d78565b6007545f03611550575f9150611640565b60075461155c81611db9565b5f80546040516370a0823160e01b815230600482015292955090916001600160a01b03909116906370a0823190602401602060405180830381865afa1580156115a7573d5f803e3d5ffd5b505050506040513d601f19601f820116820180604052508101906115cb919061343b565b9050838111156115d9578093505b80156115f5575f546115f5906001600160a01b0316338361248b565b60025460408051848152602081018790526001600160a01b03909216917f92ccf450a286a957af52509bc1c9939d1a6a481783e142e41e2499f0bb66ebc6910160405180910390a250505b506111ea60015f80516020613aab83398151915255565b5f9182525f80516020613a4b833981519152602090815260408084206001600160a01b0393909316845291905290205460ff1690565b5f80516020613aeb8339815191526116a481611d78565b50600a805460ff1916911515919091179055565b5f80516020613a8b8339815191526116cf81611d78565b6201518082101580156116e5575062278d008211155b6117255760405162461bcd60e51b81526020600482015260116024820152701253959053125117d512149154d213d311607a1b6044820152606401610a21565b60085460408051918252602082018490527f6019850ae7beff348d74465d8f0073f0b97dbd7c6dbcce579372d92024913d0f910160405180910390a150600855565b5f611770611d82565b61177861296b565b5f80516020613acb83398151915261178f81611d78565b600a5460ff166117b257604051634065aaf160e11b815260040160405180910390fd5b825f036117d257604051631f2a200560e01b815260040160405180910390fd5b6002546001600160a01b031615806117ed57506117ed611d22565b1561180f576007541561180757611805600754611db9565b505b61180f61205b565b5f54611826906001600160a01b031633308661299b565b5f54611850906001600160a01b031673888888888889758f76e7103c6cbf23abbf58f946856129d4565b5f612710600b5461271061186491906132c0565b61186e9086613452565b61187891906132d3565b90505f6040518060a001604052808381526020018660026118999190613452565b81525f6020808301829052610100604080850191909152655af3107a4000606094850152805160a08101825283546001600160a01b03168082528184018c90528183015280850184905281516080808201845285825281850186905283519485018452858552928101939093529382018390528301529192509061191b612a63565b60025460405163640fc23d60e11b81529192505f9173888888888889758f76e7103c6cbf23abbf58f9469163c81f847a9161196e9130916001600160a01b03909116908a908a908a908a906004016136ec565b6060604051808303815f875af115801561198a573d5f803e3d5ffd5b505050506040513d601f19601f820116820180604052508101906119ae9190613772565b50509050848110156119d357604051638199f5f360e01b815260040160405180910390fd5b8060075f8282546119e49190613428565b9091555050600254604080518a8152602081018490528a99506001600160a01b03909216917f73a19dd210f1a7f902193214c0ee91dd35ee5b4d920cba8d519eca65a7b488ca910160405180910390a2505050505050610ef060015f80516020613aab83398151915255565b5f6007545f1480611a6a57506002546001600160a01b0316155b15611ad8575f546040516370a0823160e01b81523060048201526001600160a01b03909116906370a0823190602401602060405180830381865afa158015611ab4573d5f803e3d5ffd5b505050506040513d601f19601f820116820180604052508101906109c3919061343b565b5f611ae4600754612b3c565b5f546040516370a0823160e01b81523060048201529192506001600160a01b0316906370a0823190602401602060405180830381865afa158015611b2a573d5f803e3d5ffd5b505050506040513d601f19601f82011682018060405250810190611b4e919061343b565b611b589082613428565b91505090565b611b6782610dca565b611b7081611d78565b610f1183836125cb565b5f80516020613a8b833981519152611b9181611d78565b6064821115611bb35760405163334ee9a160e01b815260040160405180910390fd5b600b5460408051918252602082018490527f07af09e2b23ebab5dd29fa2271d6ca4795031f308caf26ca605f4a719ffeed61910160405180910390a150600b55565b5f611bff81611d78565b5f546001600160a01b0390811690841603611c525760405162461bcd60e51b815260206004820152601360248201527243616e6e6f74207265636f766572205553444360681b6044820152606401610a21565b6003546001600160a01b0390811690841603611ca45760405162461bcd60e51b815260206004820152601160248201527010d85b9b9bdd081c9958dbdd995c881415607a1b6044820152606401610a21565b6040516370a0823160e01b81523060048201525f906001600160a01b038516906370a0823190602401602060405180830381865afa158015611ce8573d5f803e3d5ffd5b505050506040513d601f19601f82011682018060405250810190611d0c919061343b565b9050610f116001600160a01b038516848361248b565b6002545f906001600160a01b0316611d3a5750600190565b6006545f03611d495750600190565b6006544210611d585750600190565b600654600854611d689042613428565b10611d735750600190565b505f90565b6111af8133612bd0565b5f80516020613aab833981519152805460011901611db357604051633ee5aeb560e01b815260040160405180910390fd5b60029055565b5f815f03611dc857505f919050565b600354611df3906001600160a01b031673888888888889758f76e7103c6cbf23abbf58f946846129d4565b60025460408051630bc4ed8360e21b815290516001600160a01b03909216915f918391632f13b60c916004808201926020929091908290030181865afa158015611e3f573d5f803e3d5ffd5b505050506040513d601f19601f82011682018060405250810190611e63919061379d565b90505f81611e7957611e7485612b3c565b611e7b565b845b90505f612710600b54612710611e9191906132c0565b611e9b9084613452565b611ea591906132d3565b6040805160a0810182525f80546001600160a01b031680835260208301859052828401526060820181905282516080818101909452939450929091820190808481525f6020808301829052604080519182018152828252830152606090910152905290508315611fa0576005546040516323f8ef1160e11b815273888888888889758f76e7103c6cbf23abbf58f946916347f1de2291611f599130916001600160a01b03909116908c9087906004016137b8565b60408051808303815f875af1158015611f74573d5f803e3d5ffd5b505050506040513d601f19601f82011682018060405250810190611f9891906137ea565b50955061203a565b60025473888888888889758f76e7103c6cbf23abbf58f9469063594a88cc9030906001600160a01b03168a85611fd4612a63565b6040518663ffffffff1660e01b8152600401611ff495949392919061380c565b6060604051808303815f875af1158015612010573d5f803e3d5ffd5b505050506040513d601f19601f820116820180604052508101906120349190613772565b50909650505b8660075f82825461204b91906132c0565b9091555095979650505050505050565b60015460405163136cc1c360e01b81525f9182916001600160a01b039091169063136cc1c3906120909060099060040161385c565b61018060405180830381865afa1580156120ac573d5f803e3d5ffd5b505050506040513d601f19601f820116820180604052508101906120d091906138ee565b90925090506001600160a01b03821661211d5760405162461bcd60e51b815260206004820152600f60248201526e1393d7d59053125117d3505492d155608a1b6044820152606401610a21565b60408101516001600160a01b031661216a5760405162461bcd60e51b815260206004820152601060248201526f24a72b20a624a22fa82a2faa27a5a2a760811b6044820152606401610a21565b600280546001600160a01b038085166001600160a01b03199283168117909355604080850151600380549184169185169190911790556020850151600480549190931693169290921781556060808501516006558251630b2339af60e21b815292515f9493632c8ce6bc938181019392918290030181865afa1580156121f2573d5f803e3d5ffd5b505050506040513d601f19601f8201168201806040525081019061221691906139ca565b600580546001600160a01b0319166001600160a01b03929092169190911790555050505050565b5f54612267906001600160a01b031673888888888889758f76e7103c6cbf23abbf58f946836129d4565b5f612710600b5461271061227b91906132c0565b6122859084613452565b61228f91906132d3565b90505f6040518060a001604052808381526020018460026122b09190613452565b81525f6020808301829052610100604080850191909152655af3107a4000606094850152805160a08101825283546001600160a01b039081168083528285018b90528284015281860185905282516080808201855286825281860187905284519586018552868652938101949094529483018490529081019190915260025493945092909173888888888889758f76e7103c6cbf23abbf58f9469163c81f847a9130911687878761235f612a63565b6040518763ffffffff1660e01b8152600401612380969594939291906136ec565b6060604051808303815f875af115801561239c573d5f803e3d5ffd5b505050506040513d601f19601f820116820180604052508101906123c09190613772565b505090508060075f8282546123d59190613428565b90915550505050505050565b60015f80516020613aab83398151915255565b5f815f0361240357505f919050565b600654158061241457506006544210155b1561241d575090565b5f4260065461242c91906132c0565b90506301e133808082111561243f578091505b5f8183600c5461244f9190613452565b61245991906132d3565b90505f61246882612710613428565b90506127106124778288613452565b61248191906132d3565b9695505050505050565b6040516001600160a01b0383811660248301526044820183905261116d91859182169063a9059cbb906064015b604051602081830303815290604052915060e01b6020820180516001600160e01b038381831617835250505050612c09565b5f5f80516020613a4b8339815191526125038484611657565b612582575f848152602082815260408083206001600160a01b03871684529091529020805460ff191660011790556125383390565b6001600160a01b0316836001600160a01b0316857f2f8788117e7eff1d82e926ec794901d17c78024a50270940304540a733656f0d60405160405180910390a460019150506109b4565b5f9150506109b4565b5f807ff0c57e16840df040f15088dc2f81fe391c3923bec73e23a9662efc9c229c6a006109b4565b610bbb612c75565b6125c3612c75565b610bbb612c9a565b5f5f80516020613a4b8339815191526125e48484611657565b15612582575f848152602082815260408083206001600160a01b0387168085529252808320805460ff1916905551339287917ff6391f5c32d9c69d2a47ea670b442974b53935d1edc7fd64eb21e047a839171b9190a460019150506109b4565b61264c612ca2565b5f80516020613a6b833981519152805460ff191681557f5db9ee0a495bf2e6ff9c91a7834c1ba4fdd244a5e8aa4e537bd38aeae4b073aa335b6040516001600160a01b03909116815260200160405180910390a150565b306001600160a01b037f000000000000000000000000000000000000000000000000000000000000000016148061272957507f00000000000000000000000000000000000000000000000000000000000000006001600160a01b031661271d5f80516020613a2b833981519152546001600160a01b031690565b6001600160a01b031614155b15610bbb5760405163703e46dd60e11b815260040160405180910390fd5b5f61275181611d78565b600d546001600160a01b038381169116146127a65760405162461bcd60e51b8152602060048201526015602482015274155411d490511157d393d517d49154555154d51151605a1b6044820152606401610a21565b6202a300600e546127b79190613428565b4210156128065760405162461bcd60e51b815260206004820152601760248201527f555047524144455f54494d454c4f434b5f4143544956450000000000000000006044820152606401610a21565b5050600d80546001600160a01b03191690555f600e55565b816001600160a01b03166352d1902d6040518163ffffffff1660e01b8152600401602060405180830381865afa925050508015612878575060408051601f3d908101601f191682019092526128759181019061343b565b60015b6128a057604051634c9c8ce360e01b81526001600160a01b0383166004820152602401610a21565b5f80516020613a2b83398151915281146128d057604051632a87526960e21b815260048101829052602401610a21565b61116d8383612cd1565b306001600160a01b037f00000000000000000000000000000000000000000000000000000000000000001614610bbb5760405163703e46dd60e11b815260040160405180910390fd5b61292b61296b565b5f80516020613a6b833981519152805460ff191660011781557f62e78cea01bee320cd4e420270b5ea74000d11b0c9f74754ebdbfc544b05a25833612685565b5f80516020613a6b8339815191525460ff1615610bbb5760405163d93c066560e01b815260040160405180910390fd5b6040516001600160a01b038481166024830152838116604483015260648201839052610f119186918216906323b872dd906084016124b8565b604080516001600160a01b038416602482015260448082018490528251808303909101815260649091019091526020810180516001600160e01b031663095ea7b360e01b179052612a258482612d26565b610f11576040516001600160a01b0384811660248301525f6044830152612a5991869182169063095ea7b3906064016124b8565b610f118482612c09565b612a9c6040518060a001604052805f6001600160a01b031681526020015f81526020016060815260200160608152602001606081525090565b6040805160a0810182525f808252602080830182905283518281529081018452919283019190612ae2565b612acf612eff565b815260200190600190039081612ac75790505b5081526020015f604051908082528060200260200182016040528015612b2257816020015b612b0f612eff565b815260200190600190039081612b075790505b5081526040805160208181019092525f8152910152919050565b5f815f03612b4b57505f919050565b6006541580612b5c57506006544210155b15612b65575090565b5f42600654612b7491906132c0565b90506301e1338080821115612b87578091505b5f8183600c54612b979190613452565b612ba191906132d3565b90505f612bb082612710613428565b9050805f03612bc3575093949350505050565b8061247761271088613452565b612bda8282611657565b6111cd5760405163e2517d3f60e01b81526001600160a01b038216600482015260248101839052604401610a21565b5f8060205f8451602086015f885af180612c28576040513d5f823e3d81fd5b50505f513d91508115612c3f578060011415612c4c565b6001600160a01b0384163b155b15610f1157604051635274afe760e01b81526001600160a01b0385166004820152602401610a21565b612c7d612d6b565b610bbb57604051631afcd79f60e31b815260040160405180910390fd5b6123e1612c75565b5f80516020613a6b8339815191525460ff16610bbb57604051638dfc202b60e01b815260040160405180910390fd5b612cda82612d84565b6040516001600160a01b038316907fbc7cd75a20ee27fd9adebab32041f755214dbc6bffa90cc0225b39da2e5c2d3b905f90a2805115612d1e5761116d8282612de7565b6111cd612e59565b5f805f8060205f8651602088015f8a5af192503d91505f51905082801561248157508115612d575780600114612481565b50505050506001600160a01b03163b151590565b5f612d7461258b565b54600160401b900460ff16919050565b806001600160a01b03163b5f03612db957604051634c9c8ce360e01b81526001600160a01b0382166004820152602401610a21565b5f80516020613a2b83398151915280546001600160a01b0319166001600160a01b0392909216919091179055565b60605f80846001600160a01b031684604051612e039190613a14565b5f60405180830381855af49150503d805f8114612e3b576040519150601f19603f3d011682016040523d82523d5f602084013e612e40565b606091505b5091509150612e50858383612e78565b95945050505050565b3415610bbb5760405163b398979f60e01b815260040160405180910390fd5b606082612e8d57612e8882612ed7565b612ed0565b8151158015612ea457506001600160a01b0384163b155b15612ecd57604051639996b31560e01b81526001600160a01b0385166004820152602401610a21565b50805b9392505050565b805115612ee657805160208201fd5b60405163d6bda27560e01b815260040160405180910390fd5b6040518060600160405280612f12612f25565b8152602001606081526020015f81525090565b6040518061018001604052805f81526020015f81526020015f81526020015f6003811115612f5557612f55613469565b81526020015f6001600160a01b031681526020015f6001600160a01b031681526020015f6001600160a01b031681526020015f6001600160a01b031681526020015f81526020015f81526020015f8152602001606081525090565b5f60208284031215612fc0575f80fd5b81356001600160e01b031981168114612ed0575f80fd5b5f60208284031215612fe7575f80fd5b5035919050565b6001600160a01b03811681146111af575f80fd5b5f60208284031215613012575f80fd5b8135612ed081612fee565b5f81518084528060208401602086015e5f602082860101526020601f19601f83011685010191505092915050565b602081525f612ed0602083018461301d565b5f806040838503121561306e575f80fd5b82359150602083013561308081612fee565b809150509250929050565b5f805f805f8060a087890312156130a0575f80fd5b86356130ab81612fee565b955060208701356130bb81612fee565b945060408701356130cb81612fee565b935060608701356130db81612fee565b9250608087013567ffffffffffffffff8111156130f6575f80fd5b8701601f81018913613106575f80fd5b803567ffffffffffffffff81111561311c575f80fd5b89602082840101111561312d575f80fd5b60208201935080925050509295509295509295565b634e487b7160e01b5f52604160045260245ffd5b604051610160810167ffffffffffffffff8111828210171561317a5761317a613142565b60405290565b604051601f8201601f1916810167ffffffffffffffff811182821017156131a9576131a9613142565b604052919050565b5f80604083850312156131c2575f80fd5b82356131cd81612fee565b9150602083013567ffffffffffffffff8111156131e8575f80fd5b8301601f810185136131f8575f80fd5b803567ffffffffffffffff81111561321257613212613142565b613225601f8201601f1916602001613180565b818152866020838501011115613239575f80fd5b816020840160208301375f602083830101528093505050509250929050565b80151581146111af575f80fd5b5f60208284031215613275575f80fd5b8135612ed081613258565b5f8060408385031215613291575f80fd5b823561329c81612fee565b9150602083013561308081612fee565b634e487b7160e01b5f52601160045260245ffd5b818103818111156109b4576109b46132ac565b5f826132ed57634e487b7160e01b5f52601260045260245ffd5b500490565b600181811c9082168061330657607f821691505b60208210810361332457634e487b7160e01b5f52602260045260245ffd5b50919050565b601f82111561116d57805f5260205f20601f840160051c8101602085101561334f5750805b601f840160051c820191505b818110156114f9575f815560010161335b565b67ffffffffffffffff83111561338657613386613142565b61339a8361339483546132f2565b8361332a565b5f601f8411600181146133cb575f85156133b45750838201355b5f19600387901b1c1916600186901b1783556114f9565b5f83815260208120601f198716915b828110156133fa57868501358255602094850194600190920191016133da565b5086821015613416575f1960f88860031b161c19848701351681555b505060018560011b0183555050505050565b808201808211156109b4576109b46132ac565b5f6020828403121561344b575f80fd5b5051919050565b80820281158282048414176109b4576109b46132ac565b634e487b7160e01b5f52602160045260245ffd5b600481106111af57634e487b7160e01b5f52602160045260245ffd5b60018060a01b0381511682526020810151602083015260018060a01b03604082015116604083015260018060a01b0360608201511660608301525f608082015160a0608085015280516134eb8161347d565b60a085015260208101516001600160a01b031660c08501526040810151608060e086015261351d61012086018261301d565b905060608201511515610100860152809250505092915050565b6135408161347d565b9052565b5f82825180855260208501945060208160051b830101602085015f5b8381101561367d57848303601f1901885281518051606080865281518187015260208201516080870152604082015160a08701528101516135a460c0870182613537565b5060808101516001600160a01b03811660e08701525060a08101516001600160a01b0381166101008701525060c08101516001600160a01b0381166101208701525060e08101516001600160a01b038116610140870152506101008101516101608601526101208101516101808601526101408101516101a086015261016081015190506101806101c086015261363f6101e086018261301d565b905060208201518582036020870152613658828261301d565b6040938401519690930195909552506020988901989093509190910190600101613560565b50909695505050505050565b60018060a01b038151168252602081015160208301525f604082015160a060408501526136b960a0850182613544565b9050606083015184820360608601526136d28282613544565b91505060808301518482036080860152612e50828261301d565b60018060a01b038716815260018060a01b03861660208201528460408201528351606082015260208401516080820152604084015160a0820152606084015160c0820152608084015160e08201526101406101008201525f613752610140830185613499565b8281036101208401526137658185613689565b9998505050505050505050565b5f805f60608486031215613784575f80fd5b5050815160208301516040909301519094929350919050565b5f602082840312156137ad575f80fd5b8151612ed081613258565b6001600160a01b03858116825284166020820152604081018390526080606082018190525f9061248190830184613499565b5f80604083850312156137fb575f80fd5b505080516020909101519092909150565b6001600160a01b038681168252851660208201526040810184905260a0606082018190525f9061383e90830185613499565b82810360808401526138508185613689565b98975050505050505050565b602081525f80835461386d816132f2565b806020860152600182165f811461388b57600181146138a7576138d8565b60ff1983166040870152604082151560051b87010193506138d8565b865f5260205f205f5b838110156138cf578154888201604001526001909101906020016138b0565b87016040019450505b509195945050505050565b8051610ef081612fee565b5f80828403610180811215613901575f80fd5b835161390c81612fee565b9250610160601f1982011215613920575f80fd5b50613929613156565b613935602085016138e3565b8152613943604085016138e3565b6020820152613954606085016138e3565b6040820152608084810151606083015260a0808601519183019190915260c0808601519183019190915260e0808601519183019190915261010080860151918301919091526101208086015191830191909152610140808601519183019190915261016090940151938101939093525092909150565b5f805f606084860312156139dc575f80fd5b83516139e781612fee565b60208501519093506139f881612fee565b6040850151909250613a0981612fee565b809150509250925092565b5f82518060208501845e5f92019182525091905056fe360894a13ba1a3210667c828492db98dca3e2076cc3735a920a3ca505d382bbc02dd7bc7dec4dceedda775e58dd541e08a116c6c53815c0bd028192f7b626800cd5ed15c6e187e77e9aee88184c21f4f2182ab5827cb3b7e07fbedcd63f0330017a8e30262c1f919c33056d877a3c22b95c2f5e4dac44683c1c2323cd79fbdb09b779b17422d0df92223018b32b4d1fa46e071723d6817e2486d003becc55f00e1dcbdb91df27212a29bc27177c840cf2f819ecf2187432e1fac86c2dd5dfca955435dd261a4b9b3364963f7738a7a662ad9c84396d64be3365284bb7f0a5041a2646970667358221220f5d1ad8c19da6beae7557cc12b3a8cfb5f36d06ba9027d89fc9052640e85583864736f6c634300081a0033","linkReferences":{}},"methodIdentifiers":{"BPS()":"249d39e9","DEFAULT_ADMIN_ROLE()":"a217fddf","DEFAULT_ROLLOVER_THRESHOLD()":"60ea76b7","GUARDIAN_ROLE()":"24ea54f4","MAX_SLIPPAGE_BPS()":"e229cd76","PENDLE_ROUTER()":"3c97b00d","STRATEGIST_ROLE()":"a378a324","TREASURY_ROLE()":"d11a57ec","UPGRADE_DELAY()":"47fe8b1d","UPGRADE_INTERFACE_VERSION()":"ad3cb1cc","active()":"02fb0c5e","asset()":"38d52e0f","cancelUpgrade()":"55f29166","currentExpiry()":"21b72d8c","currentMarket()":"c6675cc9","currentPT()":"9e567915","currentSY()":"68c60ea8","currentYT()":"a2133574","deposit(uint256)":"b6b55f25","emergencyWithdraw(address)":"6ff1c9bc","getRoleAdmin(bytes32)":"248a9ca3","grantRole(bytes32,address)":"2f2ff15d","hasRole(bytes32,address)":"91d14854","initialize(address,address,address,address,string)":"2fb3b361","isActive()":"22f3e2d4","marketCategory()":"0ea67860","marketSelector()":"b9ec2c98","pause()":"8456cb59","paused()":"5c975abb","pendingImplementation()":"396f7b23","proxiableUUID()":"52d1902d","ptBalance()":"e05a369f","ptDiscountRateBps()":"fbc3b2e9","recoverToken(address,address)":"feaea586","renounceRole(bytes32,address)":"36568abe","requestUpgrade(address)":"6b9f97ef","revokeRole(bytes32,address)":"d547741f","rollToNewMarket()":"22791794","rolloverThreshold()":"036cba24","setActive(bool)":"acec338a","setMarketSelector(address)":"0bfbbe6b","setPtDiscountRate(uint256)":"0915bba0","setRolloverThreshold(uint256)":"b3e62d51","setSlippage(uint256)":"f0fa55a9","shouldRollover()":"044c3eec","slippageBps()":"578c71d9","supportsInterface(bytes4)":"01ffc9a7","timeToExpiry()":"3e84531c","totalValue()":"d4c3eea0","triggerRollover()":"0aaf1e72","unpause()":"3f4ba83a","upgradeRequestTime()":"ac9e42c1","upgradeToAndCall(address,bytes)":"4f1ef286","usdc()":"3e413bee","withdraw(uint256)":"2e1a7d4d","withdrawAll()":"853828b6"},"id":61}