{"abi":[{"type":"constructor","inputs":[],"stateMutability":"nonpayable"},{"type":"function","name":"BPS","inputs":[],"outputs":[{"name":"","type":"uint256","internalType":"uint256"}],"stateMutability":"view"},{"type":"function","name":"DEFAULT_ADMIN_ROLE","inputs":[],"outputs":[{"name":"","type":"bytes32","internalType":"bytes32"}],"stateMutability":"view"},{"type":"function","name":"GUARDIAN_ROLE","inputs":[],"outputs":[{"name":"","type":"bytes32","internalType":"bytes32"}],"stateMutability":"view"},{"type":"function","name":"MAX_LOOPS","inputs":[],"outputs":[{"name":"","type":"uint256","internalType":"uint256"}],"stateMutability":"view"},{"type":"function","name":"MIN_HEALTH_FACTOR","inputs":[],"outputs":[{"name":"","type":"uint256","internalType":"uint256"}],"stateMutability":"view"},{"type":"function","name":"STRATEGIST_ROLE","inputs":[],"outputs":[{"name":"","type":"bytes32","internalType":"bytes32"}],"stateMutability":"view"},{"type":"function","name":"TREASURY_ROLE","inputs":[],"outputs":[{"name":"","type":"bytes32","internalType":"bytes32"}],"stateMutability":"view"},{"type":"function","name":"UPGRADE_DELAY","inputs":[],"outputs":[{"name":"","type":"uint256","internalType":"uint256"}],"stateMutability":"view"},{"type":"function","name":"UPGRADE_INTERFACE_VERSION","inputs":[],"outputs":[{"name":"","type":"string","internalType":"string"}],"stateMutability":"view"},{"type":"function","name":"WAD","inputs":[],"outputs":[{"name":"","type":"uint256","internalType":"uint256"}],"stateMutability":"view"},{"type":"function","name":"active","inputs":[],"outputs":[{"name":"","type":"bool","internalType":"bool"}],"stateMutability":"view"},{"type":"function","name":"asset","inputs":[],"outputs":[{"name":"","type":"address","internalType":"address"}],"stateMutability":"view"},{"type":"function","name":"cancelUpgrade","inputs":[],"outputs":[],"stateMutability":"nonpayable"},{"type":"function","name":"checkProfitability","inputs":[],"outputs":[{"name":"isProfitable","type":"bool","internalType":"bool"},{"name":"currentBorrowRate","type":"uint256","internalType":"uint256"},{"name":"maxAllowedRate","type":"uint256","internalType":"uint256"}],"stateMutability":"view"},{"type":"function","name":"deposit","inputs":[{"name":"amount","type":"uint256","internalType":"uint256"}],"outputs":[{"name":"deposited","type":"uint256","internalType":"uint256"}],"stateMutability":"nonpayable"},{"type":"function","name":"emergencyDeleverage","inputs":[],"outputs":[],"stateMutability":"nonpayable"},{"type":"function","name":"getCurrentLeverage","inputs":[],"outputs":[{"name":"leverageX100","type":"uint256","internalType":"uint256"}],"stateMutability":"view"},{"type":"function","name":"getHealthFactor","inputs":[],"outputs":[{"name":"healthFactor","type":"uint256","internalType":"uint256"}],"stateMutability":"view"},{"type":"function","name":"getPosition","inputs":[],"outputs":[{"name":"collateral","type":"uint256","internalType":"uint256"},{"name":"borrowed","type":"uint256","internalType":"uint256"},{"name":"principal","type":"uint256","internalType":"uint256"},{"name":"netValue","type":"uint256","internalType":"uint256"}],"stateMutability":"view"},{"type":"function","name":"getRoleAdmin","inputs":[{"name":"role","type":"bytes32","internalType":"bytes32"}],"outputs":[{"name":"","type":"bytes32","internalType":"bytes32"}],"stateMutability":"view"},{"type":"function","name":"grantRole","inputs":[{"name":"role","type":"bytes32","internalType":"bytes32"},{"name":"account","type":"address","internalType":"address"}],"outputs":[],"stateMutability":"nonpayable"},{"type":"function","name":"hasRole","inputs":[{"name":"role","type":"bytes32","internalType":"bytes32"},{"name":"account","type":"address","internalType":"address"}],"outputs":[{"name":"","type":"bool","internalType":"bool"}],"stateMutability":"view"},{"type":"function","name":"initialize","inputs":[{"name":"_usdc","type":"address","internalType":"address"},{"name":"_morpho","type":"address","internalType":"address"},{"name":"_marketId","type":"bytes32","internalType":"bytes32"},{"name":"_treasury","type":"address","internalType":"address"},{"name":"_admin","type":"address","internalType":"address"}],"outputs":[],"stateMutability":"nonpayable"},{"type":"function","name":"isActive","inputs":[],"outputs":[{"name":"","type":"bool","internalType":"bool"}],"stateMutability":"view"},{"type":"function","name":"marketId","inputs":[],"outputs":[{"name":"","type":"bytes32","internalType":"bytes32"}],"stateMutability":"view"},{"type":"function","name":"marketParams","inputs":[],"outputs":[{"name":"loanToken","type":"address","internalType":"address"},{"name":"collateralToken","type":"address","internalType":"address"},{"name":"oracle","type":"address","internalType":"address"},{"name":"irm","type":"address","internalType":"address"},{"name":"lltv","type":"uint256","internalType":"uint256"}],"stateMutability":"view"},{"type":"function","name":"maxBorrowRateForProfit","inputs":[],"outputs":[{"name":"","type":"uint256","internalType":"uint256"}],"stateMutability":"view"},{"type":"function","name":"minSupplyRateRequired","inputs":[],"outputs":[{"name":"","type":"uint256","internalType":"uint256"}],"stateMutability":"view"},{"type":"function","name":"morpho","inputs":[],"outputs":[{"name":"","type":"address","internalType":"contract IMorphoBlue"}],"stateMutability":"view"},{"type":"function","name":"pause","inputs":[],"outputs":[],"stateMutability":"nonpayable"},{"type":"function","name":"paused","inputs":[],"outputs":[{"name":"","type":"bool","internalType":"bool"}],"stateMutability":"view"},{"type":"function","name":"pendingImplementation","inputs":[],"outputs":[{"name":"","type":"address","internalType":"address"}],"stateMutability":"view"},{"type":"function","name":"proxiableUUID","inputs":[],"outputs":[{"name":"","type":"bytes32","internalType":"bytes32"}],"stateMutability":"view"},{"type":"function","name":"recoverToken","inputs":[{"name":"token","type":"address","internalType":"address"},{"name":"amount","type":"uint256","internalType":"uint256"}],"outputs":[],"stateMutability":"nonpayable"},{"type":"function","name":"renounceRole","inputs":[{"name":"role","type":"bytes32","internalType":"bytes32"},{"name":"callerConfirmation","type":"address","internalType":"address"}],"outputs":[],"stateMutability":"nonpayable"},{"type":"function","name":"requestUpgrade","inputs":[{"name":"newImplementation","type":"address","internalType":"address"}],"outputs":[],"stateMutability":"nonpayable"},{"type":"function","name":"revokeRole","inputs":[{"name":"role","type":"bytes32","internalType":"bytes32"},{"name":"account","type":"address","internalType":"address"}],"outputs":[],"stateMutability":"nonpayable"},{"type":"function","name":"safetyBufferBps","inputs":[],"outputs":[{"name":"","type":"uint256","internalType":"uint256"}],"stateMutability":"view"},{"type":"function","name":"setActive","inputs":[{"name":"_active","type":"bool","internalType":"bool"}],"outputs":[],"stateMutability":"nonpayable"},{"type":"function","name":"setParameters","inputs":[{"name":"_targetLtvBps","type":"uint256","internalType":"uint256"},{"name":"_targetLoops","type":"uint256","internalType":"uint256"}],"outputs":[],"stateMutability":"nonpayable"},{"type":"function","name":"setProfitabilityParams","inputs":[{"name":"_maxBorrowRate","type":"uint256","internalType":"uint256"},{"name":"_minSupplyRate","type":"uint256","internalType":"uint256"}],"outputs":[],"stateMutability":"nonpayable"},{"type":"function","name":"setSafetyBuffer","inputs":[{"name":"_safetyBufferBps","type":"uint256","internalType":"uint256"}],"outputs":[],"stateMutability":"nonpayable"},{"type":"function","name":"supportsInterface","inputs":[{"name":"interfaceId","type":"bytes4","internalType":"bytes4"}],"outputs":[{"name":"","type":"bool","internalType":"bool"}],"stateMutability":"view"},{"type":"function","name":"targetLoops","inputs":[],"outputs":[{"name":"","type":"uint256","internalType":"uint256"}],"stateMutability":"view"},{"type":"function","name":"targetLtvBps","inputs":[],"outputs":[{"name":"","type":"uint256","internalType":"uint256"}],"stateMutability":"view"},{"type":"function","name":"totalPrincipal","inputs":[],"outputs":[{"name":"","type":"uint256","internalType":"uint256"}],"stateMutability":"view"},{"type":"function","name":"totalValue","inputs":[],"outputs":[{"name":"","type":"uint256","internalType":"uint256"}],"stateMutability":"view"},{"type":"function","name":"unpause","inputs":[],"outputs":[],"stateMutability":"nonpayable"},{"type":"function","name":"upgradeRequestTime","inputs":[],"outputs":[{"name":"","type":"uint256","internalType":"uint256"}],"stateMutability":"view"},{"type":"function","name":"upgradeToAndCall","inputs":[{"name":"newImplementation","type":"address","internalType":"address"},{"name":"data","type":"bytes","internalType":"bytes"}],"outputs":[],"stateMutability":"payable"},{"type":"function","name":"usdc","inputs":[],"outputs":[{"name":"","type":"address","internalType":"contract IERC20"}],"stateMutability":"view"},{"type":"function","name":"withdraw","inputs":[{"name":"amount","type":"uint256","internalType":"uint256"}],"outputs":[{"name":"withdrawn","type":"uint256","internalType":"uint256"}],"stateMutability":"nonpayable"},{"type":"function","name":"withdrawAll","inputs":[],"outputs":[{"name":"withdrawn","type":"uint256","internalType":"uint256"}],"stateMutability":"nonpayable"},{"type":"event","name":"Deleveraged","inputs":[{"name":"repaid","type":"uint256","indexed":false,"internalType":"uint256"},{"name":"withdrawn","type":"uint256","indexed":false,"internalType":"uint256"}],"anonymous":false},{"type":"event","name":"Deposited","inputs":[{"name":"principal","type":"uint256","indexed":false,"internalType":"uint256"},{"name":"totalSupplied","type":"uint256","indexed":false,"internalType":"uint256"},{"name":"loops","type":"uint256","indexed":false,"internalType":"uint256"}],"anonymous":false},{"type":"event","name":"EmergencyDeleverage","inputs":[{"name":"healthFactorBefore","type":"uint256","indexed":false,"internalType":"uint256"},{"name":"healthFactorAfter","type":"uint256","indexed":false,"internalType":"uint256"}],"anonymous":false},{"type":"event","name":"Initialized","inputs":[{"name":"version","type":"uint64","indexed":false,"internalType":"uint64"}],"anonymous":false},{"type":"event","name":"LoopingSkipped","inputs":[{"name":"borrowRate","type":"uint256","indexed":false,"internalType":"uint256"},{"name":"maxAllowed","type":"uint256","indexed":false,"internalType":"uint256"},{"name":"reason","type":"string","indexed":false,"internalType":"string"}],"anonymous":false},{"type":"event","name":"ParametersUpdated","inputs":[{"name":"targetLtvBps","type":"uint256","indexed":false,"internalType":"uint256"},{"name":"targetLoops","type":"uint256","indexed":false,"internalType":"uint256"}],"anonymous":false},{"type":"event","name":"Paused","inputs":[{"name":"account","type":"address","indexed":false,"internalType":"address"}],"anonymous":false},{"type":"event","name":"ProfitabilityParamsUpdated","inputs":[{"name":"maxBorrowRate","type":"uint256","indexed":false,"internalType":"uint256"},{"name":"minSupplyRate","type":"uint256","indexed":false,"internalType":"uint256"}],"anonymous":false},{"type":"event","name":"RoleAdminChanged","inputs":[{"name":"role","type":"bytes32","indexed":true,"internalType":"bytes32"},{"name":"previousAdminRole","type":"bytes32","indexed":true,"internalType":"bytes32"},{"name":"newAdminRole","type":"bytes32","indexed":true,"internalType":"bytes32"}],"anonymous":false},{"type":"event","name":"RoleGranted","inputs":[{"name":"role","type":"bytes32","indexed":true,"internalType":"bytes32"},{"name":"account","type":"address","indexed":true,"internalType":"address"},{"name":"sender","type":"address","indexed":true,"internalType":"address"}],"anonymous":false},{"type":"event","name":"RoleRevoked","inputs":[{"name":"role","type":"bytes32","indexed":true,"internalType":"bytes32"},{"name":"account","type":"address","indexed":true,"internalType":"address"},{"name":"sender","type":"address","indexed":true,"internalType":"address"}],"anonymous":false},{"type":"event","name":"SafetyBufferUpdated","inputs":[{"name":"newBufferBps","type":"uint256","indexed":false,"internalType":"uint256"}],"anonymous":false},{"type":"event","name":"StrategyActiveUpdated","inputs":[{"name":"active","type":"bool","indexed":false,"internalType":"bool"}],"anonymous":false},{"type":"event","name":"Unpaused","inputs":[{"name":"account","type":"address","indexed":false,"internalType":"address"}],"anonymous":false},{"type":"event","name":"UpgradeCancelled","inputs":[{"name":"cancelledImplementation","type":"address","indexed":true,"internalType":"address"}],"anonymous":false},{"type":"event","name":"UpgradeRequested","inputs":[{"name":"newImplementation","type":"address","indexed":true,"internalType":"address"},{"name":"executeAfter","type":"uint256","indexed":false,"internalType":"uint256"}],"anonymous":false},{"type":"event","name":"Upgraded","inputs":[{"name":"implementation","type":"address","indexed":true,"internalType":"address"}],"anonymous":false},{"type":"event","name":"Withdrawn","inputs":[{"name":"requested","type":"uint256","indexed":false,"internalType":"uint256"},{"name":"returned","type":"uint256","indexed":false,"internalType":"uint256"}],"anonymous":false},{"type":"error","name":"AccessControlBadConfirmation","inputs":[]},{"type":"error","name":"AccessControlUnauthorizedAccount","inputs":[{"name":"account","type":"address","internalType":"address"},{"name":"neededRole","type":"bytes32","internalType":"bytes32"}]},{"type":"error","name":"AddressEmptyCode","inputs":[{"name":"target","type":"address","internalType":"address"}]},{"type":"error","name":"ERC1967InvalidImplementation","inputs":[{"name":"implementation","type":"address","internalType":"address"}]},{"type":"error","name":"ERC1967NonPayable","inputs":[]},{"type":"error","name":"EnforcedPause","inputs":[]},{"type":"error","name":"ExcessiveLoops","inputs":[]},{"type":"error","name":"ExpectedPause","inputs":[]},{"type":"error","name":"FailedCall","inputs":[]},{"type":"error","name":"HealthFactorTooLow","inputs":[]},{"type":"error","name":"InsufficientBalance","inputs":[]},{"type":"error","name":"InvalidInitialization","inputs":[]},{"type":"error","name":"InvalidLTV","inputs":[]},{"type":"error","name":"LoopingNotProfitable","inputs":[]},{"type":"error","name":"NotInitializing","inputs":[]},{"type":"error","name":"ReentrancyGuardReentrantCall","inputs":[]},{"type":"error","name":"SafeERC20FailedOperation","inputs":[{"name":"token","type":"address","internalType":"address"}]},{"type":"error","name":"StrategyNotActive","inputs":[]},{"type":"error","name":"UUPSUnauthorizedCallContext","inputs":[]},{"type":"error","name":"UUPSUnsupportedProxiableUUID","inputs":[{"name":"slot","type":"bytes32","internalType":"bytes32"}]},{"type":"error","name":"ZeroAmount","inputs":[]}],"bytecode":{"object":"0x60a060405230608052348015610013575f80fd5b5061001c610021565b6100d3565b7ff0c57e16840df040f15088dc2f81fe391c3923bec73e23a9662efc9c229c6a00805468010000000000000000900460ff16156100715760405163f92ee8a960e01b815260040160405180910390fd5b80546001600160401b03908116146100d05780546001600160401b0319166001600160401b0390811782556040519081527fc7f505b2f371ae2175ee4913f4499e1f2633a7b5936321eed1cdaeb6115181d29060200160405180910390a15b50565b608051613f316100f95f395f81816127440152818161276d015261297d0152613f315ff3fe60806040526004361061030d575f3560e01c80636a146024116101a3578063a6f84afc116100f2578063b5627e4211610092578063d11a57ec1161006d578063d11a57ec146108db578063d4c3eea0146108fb578063d547741f1461090f578063d8fbc8331461092e575f80fd5b8063b5627e421461088c578063b6b55f25146108a7578063c6e14375146108c6575f80fd5b8063ad3cb1cc116100cd578063ad3cb1cc146107fc578063b185d41d14610839578063b293cf9d14610858578063b29a81401461086d575f80fd5b8063a6f84afc146107b4578063ac9e42c1146107c8578063acec338a146107dd575f80fd5b8063853828b61161015d57806391d148541161013857806391d148541461074e578063a217fddf1461076d578063a378a32414610780578063a5f352b7146107a0575f80fd5b8063853828b614610706578063884870c71461071a5780638fd0c11414610739575f80fd5b80636a146024146105fe5780636b9f97ef146106195780636ed71ede146106385780637398ab181461064d5780637b9e68f2146106815780638456cb59146106f2575f80fd5b80633f4ba83a1161025f5780634f1ef2861161021957806355f29166116101f457806355f291661461059e5780635688b8ef146105b25780635bfb92ce146105c75780635c975abb146105db575f80fd5b80634f1ef2861461055857806352d1902d1461056b5780635321b6901461057f575f80fd5b80633f4ba83a146104b457806344df7190146104c857806347fe8b1d146104dd5780634ad60241146104f35780634b1533b2146105125780634e26155e14610527575f80fd5b80632e1a7d4d116102ca57806337a2eb71116102a557806337a2eb711461043357806338d52e0f14610447578063396f7b23146104775780633e413bee14610496575f80fd5b80632e1a7d4d146103d45780632f2ff15d146103f357806336568abe14610414575f80fd5b806301ffc9a71461031157806302fb0c5e1461034557806322f3e2d41461035e578063248a9ca314610372578063249d39e91461039f57806324ea54f4146103b4575b5f80fd5b34801561031c575f80fd5b5061033061032b36600461372c565b61094d565b60405190151581526020015b60405180910390f35b348015610350575f80fd5b50600b546103309060ff1681565b348015610369575f80fd5b50610330610983565b34801561037d575f80fd5b5061039161038c366004613753565b6109ab565b60405190815260200161033c565b3480156103aa575f80fd5b5061039161271081565b3480156103bf575f80fd5b506103915f80516020613edc83398151915281565b3480156103df575f80fd5b506103916103ee366004613753565b6109cb565b3480156103fe575f80fd5b5061041261040d36600461377e565b610acb565b005b34801561041f575f80fd5b5061041261042e36600461377e565b610aed565b34801561043e575f80fd5b50610391600581565b348015610452575f80fd5b505f546001600160a01b03165b6040516001600160a01b03909116815260200161033c565b348015610482575f80fd5b50600f5461045f906001600160a01b031681565b3480156104a1575f80fd5b505f5461045f906001600160a01b031681565b3480156104bf575f80fd5b50610412610b25565b3480156104d3575f80fd5b50610391600e5481565b3480156104e8575f80fd5b506103916202a30081565b3480156104fe575f80fd5b5061041261050d366004613753565b610b3a565b34801561051d575f80fd5b50610391600c5481565b348015610532575f80fd5b5061053b610c34565b60408051931515845260208401929092529082015260600161033c565b6104126105663660046137f1565b610c4e565b348015610576575f80fd5b50610391610c6d565b34801561058a575f80fd5b50610412610599366004613898565b610c88565b3480156105a9575f80fd5b50610412610d98565b3480156105bd575f80fd5b5061039160095481565b3480156105d2575f80fd5b50610391610df2565b3480156105e6575f80fd5b505f80516020613e5c8339815191525460ff16610330565b348015610609575f80fd5b50610391670de0b6b3a764000081565b348015610624575f80fd5b506104126106333660046138b8565b610ea6565b348015610643575f80fd5b5061039160025481565b348015610658575f80fd5b50610661610fb7565b60408051948552602085019390935291830152606082015260800161033c565b34801561068c575f80fd5b506003546004546005546006546007546106b7946001600160a01b0390811694811693811692169085565b604080516001600160a01b0396871681529486166020860152928516928401929092529092166060820152608081019190915260a00161033c565b3480156106fd575f80fd5b50610412611134565b348015610711575f80fd5b50610391611153565b348015610725575f80fd5b50610412610734366004613898565b611263565b348015610744575f80fd5b50610391600a5481565b348015610759575f80fd5b5061033061076836600461377e565b611355565b348015610778575f80fd5b506103915f81565b34801561078b575f80fd5b506103915f80516020613e7c83398151915281565b3480156107ab575f80fd5b5061039161138b565b3480156107bf575f80fd5b5061041261150f565b3480156107d3575f80fd5b5061039160105481565b3480156107e8575f80fd5b506104126107f73660046138d3565b61163d565b348015610807575f80fd5b5061082c604051806040016040528060058152602001640352e302e360dc1b81525081565b60405161033c91906138f2565b348015610844575f80fd5b50610412610853366004613927565b611695565b348015610863575f80fd5b50610391600d5481565b348015610878575f80fd5b5061041261088736600461398b565b611a39565b348015610897575f80fd5b50610391670e92596fd629000081565b3480156108b2575f80fd5b506103916108c1366004613753565b611abf565b3480156108d1575f80fd5b5061039160085481565b3480156108e6575f80fd5b506103915f80516020613ebc83398151915281565b348015610906575f80fd5b50610391611bc0565b34801561091a575f80fd5b5061041261092936600461377e565b611e05565b348015610939575f80fd5b5060015461045f906001600160a01b031681565b5f6001600160e01b03198216637965db0b60e01b148061097d57506301ffc9a760e01b6001600160e01b03198316145b92915050565b600b545f9060ff1680156109a657505f80516020613e5c8339815191525460ff16155b905090565b5f9081525f80516020613e3c833981519152602052604090206001015490565b5f5f80516020613ebc8339815191526109e381611e21565b6109eb611e2b565b825f03610a0b57604051631f2a200560e01b815260040160405180910390fd5b600c548390811115610a1c5750600c545b610a2581611e62565b92505f600c548411610a375783610a3b565b600c545b905081811115610a485750805b80600c5f828254610a5991906139c9565b90915550505f54610a74906001600160a01b031633866123b7565b60408051868152602081018690527f0c875c8d391179c5cf7ad8303d268efd50b8beb78b671f85cd54bfb91eb8ef40910160405180910390a15050610ac560015f80516020613e9c83398151915255565b50919050565b610ad4826109ab565b610add81611e21565b610ae78383612429565b50505050565b6001600160a01b0381163314610b165760405163334bd91960e11b815260040160405180910390fd5b610b2082826124d1565b505050565b5f610b2f81611e21565b610b3761254a565b50565b5f80516020613e7c833981519152610b5181611e21565b60c88210158015610b6457506107d08211155b610ba65760405162461bcd60e51b815260206004820152600e60248201526d24b73b30b634b210313ab33332b960911b60448201526064015b60405180910390fd5b8160085411610bf75760405162461bcd60e51b815260206004820152601860248201527f4255464645525f4d5553545f42455f42454c4f575f4c545600000000000000006044820152606401610b9d565b60098290556040518281527f19eda9ab20c3004861b3c2fd49cfeb6b12ad828ec9a1ed5702c0deceed66fbc7906020015b60405180910390a15050565b5f805f610c3f6125a9565b600d5491959094509092509050565b610c56612739565b610c5f826127df565b610c6982826128b6565b5050565b5f610c76612972565b505f80516020613e1c83398151915290565b5f80516020613e7c833981519152610c9f81611e21565b6706f05b59d3b20000831115610cf75760405162461bcd60e51b815260206004820152601860248201527f4d617820626f72726f77207261746520746f6f206869676800000000000000006044820152606401610b9d565b6706f05b59d3b20000821115610d4f5760405162461bcd60e51b815260206004820152601860248201527f4d696e20737570706c79207261746520746f6f206869676800000000000000006044820152606401610b9d565b600d839055600e82905560408051848152602081018490527fc14e2592aea518ed5b0443f7347c157b4766906abef492d3922e058308ecdbc791015b60405180910390a1505050565b5f610da281611e21565b600f80546001600160a01b031981169091555f60108190556040516001600160a01b039092169182917f3198dc80249fcfedbd0d06e1ff49a7695a51b006592328ce0b127cdeab77e93691a25050565b5f600c545f03610e025750606490565b6001546002546040516349e2903160e11b815260048101919091523060248201525f916001600160a01b0316906393c5206290604401606060405180830381865afa158015610e53573d5f803e3d5ffd5b505050506040513d601f19601f82011682018060405250810190610e7791906139f7565b9050600c5481604001516064610e8d9190613a5c565b6001600160801b0316610ea09190613a7e565b91505090565b5f610eb081611e21565b6001600160a01b038216610ef55760405162461bcd60e51b815260206004820152600c60248201526b5a45524f5f4144445245535360a01b6044820152606401610b9d565b600f546001600160a01b031615610f4e5760405162461bcd60e51b815260206004820152601760248201527f555047524144455f414c52454144595f50454e44494e470000000000000000006044820152606401610b9d565b600f80546001600160a01b0319166001600160a01b0384169081179091554260108190557f7d4df661563fb5b6b245267960bdc1f0ce81d7027ea6996f19718930dc3cf53790610fa2906202a30090613a9d565b60405190815260200160405180910390a25050565b6001546002546040516349e2903160e11b815260048101919091523060248201525f9182918291829182916001600160a01b0316906393c5206290604401606060405180830381865afa158015611010573d5f803e3d5ffd5b505050506040513d601f19601f8201168201806040525081019061103491906139f7565b600154600254604051632e3071cd60e11b815260048101919091529192505f9182916001600160a01b031690635c60e39a9060240160c060405180830381865afa158015611084573d5f803e3d5ffd5b505050506040513d601f19601f820116820180604052508101906110a89190613ab0565b505093509350505082604001516001600160801b031696505f95505f816001600160801b0316111561110d57806001600160801b0316826001600160801b031684602001516001600160801b03166111009190613b20565b61110a9190613a7e565b95505b600c54945085871161111f575f611129565b61112986886139c9565b935050505090919293565b5f80516020613edc83398151915261114b81611e21565b610b376129bb565b5f5f80516020613ebc83398151915261116b81611e21565b611173611e2b565b61117b612a03565b505f600c81905580546040516370a0823160e01b81523060048201526001600160a01b03909116906370a0823190602401602060405180830381865afa1580156111c7573d5f803e3d5ffd5b505050506040513d601f19601f820116820180604052508101906111eb9190613b37565b90508015611209575f54611209906001600160a01b031633836123b7565b604080515f1981526020810183905291935083917f0c875c8d391179c5cf7ad8303d268efd50b8beb78b671f85cd54bfb91eb8ef40910160405180910390a15061125f60015f80516020613e9c83398151915255565b5090565b5f80516020613e7c83398151915261127a81611e21565b61213483118061128b575061138883105b156112a957604051632f2a24a960e11b815260040160405180910390fd5b60058211156112cb5760405163235d4ee760e21b815260040160405180910390fd5b60095483116113155760405162461bcd60e51b8152602060048201526016602482015275262a2b2fa6aaa9aa2fa2ac21a2a2a22fa12aa32322a960511b6044820152606401610b9d565b6008839055600a82905560408051848152602081018490527ffaccb0639ff7851e0e24f3b2d9ab03cd62ffb63f5b4d90aaeff85bb078c1fa489101610d8b565b5f9182525f80516020613e3c833981519152602090815260408084206001600160a01b0393909316845291905290205460ff1690565b6001546002546040516349e2903160e11b815260048101919091523060248201525f9182916001600160a01b03909116906393c5206290604401606060405180830381865afa1580156113e0573d5f803e3d5ffd5b505050506040513d601f19601f8201168201806040525081019061140491906139f7565b600154600254604051632e3071cd60e11b815260048101919091529192505f9182916001600160a01b031690635c60e39a9060240160c060405180830381865afa158015611454573d5f803e3d5ffd5b505050506040513d601f19601f820116820180604052508101906114789190613ab0565b50509350935050505f80826001600160801b031611156114cb57816001600160801b0316836001600160801b031685602001516001600160801b03166114be9190613b20565b6114c89190613a7e565b90505b805f036114dd575f1994505050505090565b600754604085015182906114fb9083906001600160801b0316613b20565b6115059190613a7e565b9550505050505090565b5f80516020613edc83398151915261152681611e21565b5f306001600160a01b031663a5f352b76040518163ffffffff1660e01b8152600401602060405180830381865afa158015611563573d5f803e3d5ffd5b505050506040513d601f19601f820116820180604052508101906115879190613b37565b9050611591612a03565b505f306001600160a01b031663a5f352b76040518163ffffffff1660e01b8152600401602060405180830381865afa1580156115cf573d5f803e3d5ffd5b505050506040513d601f19601f820116820180604052508101906115f39190613b37565b600b805460ff1916905590506116076129bb565b60408051838152602081018390527f465a853b1a9b2f2b2d44c41472ec1d94df63716be56b4d3d6afd65521e2f71229101610d8b565b5f80516020613e7c83398151915261165481611e21565b600b805460ff19168315159081179091556040519081527fa8f3ed60b317ca2eb506e594c5b9fb318da02bbbe3f709b1a6c9af33e287af6a90602001610c28565b5f61169e612e7a565b805490915060ff600160401b820416159067ffffffffffffffff165f811580156116c55750825b90505f8267ffffffffffffffff1660011480156116e15750303b155b9050811580156116ef575080155b1561170d5760405163f92ee8a960e01b815260040160405180910390fd5b845467ffffffffffffffff19166001178555831561173757845460ff60401b1916600160401b1785555b6001600160a01b038a166117795760405162461bcd60e51b81526020600482015260096024820152685a65726f205553444360b81b6044820152606401610b9d565b6001600160a01b0389166117bd5760405162461bcd60e51b815260206004820152600b60248201526a5a65726f204d6f7270686f60a81b6044820152606401610b9d565b6001600160a01b0387166118035760405162461bcd60e51b815260206004820152600d60248201526c5a65726f20747265617375727960981b6044820152606401610b9d565b6001600160a01b0386166118465760405162461bcd60e51b815260206004820152600a6024820152692d32b9379030b236b4b760b11b6044820152606401610b9d565b61184e612ea2565b611856612eaa565b61185e612ea2565b611866612ea2565b5f80546001600160a01b03808d166001600160a01b03199283161790925560018054928c1692909116821790556002899055604051632c3c915760e01b8152632c3c9157906118bd908b9060040190815260200190565b60a060405180830381865afa1580156118d8573d5f803e3d5ffd5b505050506040513d601f19601f820116820180604052508101906118fc9190613b4e565b8051600380546001600160a01b03199081166001600160a01b0393841617909155602083015160048054831691841691909117815560408401516005805484169185169190911790556060840151600680549093169316929092179055608090910151600755611b586008556101f4600955600a55600b805460ff19166001179055666a94d74f430000600d55662386f26fc10000600e5561199e5f87612429565b506119b65f80516020613ebc83398151915288612429565b506119ce5f80516020613e7c83398151915287612429565b506119e65f80516020613edc83398151915287612429565b508315611a2d57845460ff60401b19168555604051600181527fc7f505b2f371ae2175ee4913f4499e1f2633a7b5936321eed1cdaeb6115181d29060200160405180910390a15b50505050505050505050565b5f611a4381611e21565b5f546001600160a01b038481169116141580611a5f5750600c54155b611aab5760405162461bcd60e51b815260206004820152601a60248201527f43616e6e6f74207265636f7665722061637469766520555344430000000000006044820152606401610b9d565b610b206001600160a01b03841633846123b7565b5f5f80516020613ebc833981519152611ad781611e21565b611adf611e2b565b611ae7612eba565b825f03611b0757604051631f2a200560e01b815260040160405180910390fd5b600b5460ff16611b2a57604051631b92e95360e31b815260040160405180910390fd5b5f54611b41906001600160a01b0316333086612eea565b5f611b4b84612f23565b905083600c5f828254611b5e9190613a9d565b9091555050600a54604080518681526020810184905280820192909252518594507f1ca606821992e3b34613b5b29c0bbade3a907b2969d7f9f2927f726fa4baccfb9181900360600190a150610ac560015f80516020613e9c83398151915255565b6001546002546040516349e2903160e11b815260048101919091523060248201525f9182916001600160a01b03909116906393c5206290604401606060405180830381865afa158015611c15573d5f803e3d5ffd5b505050506040513d601f19601f82011682018060405250810190611c3991906139f7565b600154600254604051632e3071cd60e11b815260048101919091529192505f918291829182916001600160a01b031690635c60e39a9060240160c060405180830381865afa158015611c8d573d5f803e3d5ffd5b505050506040513d601f19601f82011682018060405250810190611cb19190613ab0565b505093509350935093505f80846001600160801b03161115611cf45785516001600160801b0380861691611ce791881690613b20565b611cf19190613a7e565b90505b5f6001600160801b03831615611d3d57826001600160801b0316846001600160801b031688602001516001600160801b0316611d309190613b20565b611d3a9190613a7e565b90505b6040878101515f805492516370a0823160e01b81523060048201526001600160801b039092169290916001600160a01b03909116906370a0823190602401602060405180830381865afa158015611d96573d5f803e3d5ffd5b505050506040513d601f19601f82011682018060405250810190611dba9190613b37565b90505f81611dc88487613a9d565b611dd29190613a9d565b905083811115611df557611de684826139c9565b9a505050505050505050505090565b5f9a505050505050505050505090565b611e0e826109ab565b611e1781611e21565b610ae783836124d1565b610b37813361319c565b5f80516020613e9c833981519152805460011901611e5c57604051633ee5aeb560e01b815260040160405180910390fd5b60029055565b5f80546040516370a0823160e01b815230600482015282916001600160a01b0316906370a0823190602401602060405180830381865afa158015611ea8573d5f803e3d5ffd5b505050506040513d601f19601f82011682018060405250810190611ecc9190613b37565b90505f5b611edc60056002613b20565b81101561232b576001546002546040516349e2903160e11b815260048101919091523060248201525f916001600160a01b0316906393c5206290604401606060405180830381865afa158015611f34573d5f803e3d5ffd5b505050506040513d601f19601f82011682018060405250810190611f5891906139f7565b600154600254604051632e3071cd60e11b815260048101919091529192505f9182916001600160a01b031690635c60e39a9060240160c060405180830381865afa158015611fa8573d5f803e3d5ffd5b505050506040513d601f19601f82011682018060405250810190611fcc9190613ab0565b50509350935050505f80826001600160801b0316111561201f57816001600160801b0316836001600160801b031685602001516001600160801b03166120129190613b20565b61201c9190613a7e565b90505b805f036120c7575f84604001516001600160801b031689116120415788612050565b84604001516001600160801b03165b905080156120bd57600154604051638720316d60e01b81526001600160a01b0390911690638720316d9061208f90600390859030908190600401613c1d565b5f604051808303815f87803b1580156120a6575f80fd5b505af11580156120b8573d5f803e3d5ffd5b505050505b505050505061232b565b5f80546040516370a0823160e01b81523060048201526001600160a01b03909116906370a0823190602401602060405180830381865afa15801561210d573d5f803e3d5ffd5b505050506040513d601f19601f820116820180604052508101906121319190613b37565b90505f8111801561214157505f82115b156121fc575f8282116121545781612156565b825b6001545f54919250612175916001600160a01b039081169116836131d5565b6001546040516320b76e8160e01b81526001600160a01b03909116906320b76e81906121ac9060039085905f903090600401613c51565b60408051808303815f875af11580156121c7573d5f803e3d5ffd5b505050506040513d601f19601f820116820180604052508101906121eb9190613c92565b506121f8905081846139c9565b9250505b5f612205613264565b9050805f036122195750505050505061232b565b5f8a82116122275781612229565b8a5b600154604051638720316d60e01b81529192506001600160a01b031690638720316d9061226190600390859030908190600401613c1d565b5f604051808303815f87803b158015612278575f80fd5b505af115801561228a573d5f803e3d5ffd5b50505f80546040516370a0823160e01b81523060048201529193506001600160a01b031691506370a0823190602401602060405180830381865afa1580156122d4573d5f803e3d5ffd5b505050506040513d601f19601f820116820180604052508101906122f89190613b37565b90506123048c8b613a9d565b811061231757505050505050505061232b565b505060019096019550611ed0945050505050565b505f80546040516370a0823160e01b81523060048201526001600160a01b03909116906370a0823190602401602060405180830381865afa158015612372573d5f803e3d5ffd5b505050506040513d601f19601f820116820180604052508101906123969190613b37565b90508181116123a5575f6123af565b6123af82826139c9565b949350505050565b6040516001600160a01b03838116602483015260448201839052610b2091859182169063a9059cbb906064015b604051602081830303815290604052915060e01b6020820180516001600160e01b038381831617835250505050613432565b60015f80516020613e9c83398151915255565b5f5f80516020613e3c8339815191526124428484611355565b6124c1575f848152602082815260408083206001600160a01b03871684529091529020805460ff191660011790556124773390565b6001600160a01b0316836001600160a01b0316857f2f8788117e7eff1d82e926ec794901d17c78024a50270940304540a733656f0d60405160405180910390a4600191505061097d565b5f91505061097d565b5092915050565b5f5f80516020613e3c8339815191526124ea8484611355565b156124c1575f848152602082815260408083206001600160a01b0387168085529252808320805460ff1916905551339287917ff6391f5c32d9c69d2a47ea670b442974b53935d1edc7fd64eb21e047a839171b9190a4600191505061097d565b61255261349e565b5f80516020613e5c833981519152805460ff191681557f5db9ee0a495bf2e6ff9c91a7834c1ba4fdd244a5e8aa4e537bd38aeae4b073aa335b6040516001600160a01b03909116815260200160405180910390a150565b600154600254604051632e3071cd60e11b81525f9283928392839283928392839283926001600160a01b0390911691635c60e39a916125ee9160040190815260200190565b60c060405180830381865afa158015612609573d5f803e3d5ffd5b505050506040513d601f19601f8201168201806040525081019061262d9190613ab0565b6040805160c0810182526001600160801b0380891682528088166020830152808716928201929092528185166060820152818416608082015290821660a0820152600654969c50949a5092985090965094509250906001600160a01b0316806126a257506001995f9950975050505050505050565b604051638c00bf6b60e01b81525f906001600160a01b03831690638c00bf6b906126d3906003908790600401613cb4565b602060405180830381865afa1580156126ee573d5f803e3d5ffd5b505050506040513d601f19601f820116820180604052508101906127129190613b37565b9050612722816301e13380613b20565b9950600d548a11159a505050505050505050509091565b306001600160a01b037f00000000000000000000000000000000000000000000000000000000000000001614806127bf57507f00000000000000000000000000000000000000000000000000000000000000006001600160a01b03166127b35f80516020613e1c833981519152546001600160a01b031690565b6001600160a01b031614155b156127dd5760405163703e46dd60e11b815260040160405180910390fd5b565b5f6127e981611e21565b600f546001600160a01b0383811691161461283e5760405162461bcd60e51b8152602060048201526015602482015274155411d490511157d393d517d49154555154d51151605a1b6044820152606401610b9d565b6202a30060105461284f9190613a9d565b42101561289e5760405162461bcd60e51b815260206004820152601760248201527f555047524144455f54494d454c4f434b5f4143544956450000000000000000006044820152606401610b9d565b5050600f80546001600160a01b03191690555f601055565b816001600160a01b03166352d1902d6040518163ffffffff1660e01b8152600401602060405180830381865afa925050508015612910575060408051601f3d908101601f1916820190925261290d91810190613b37565b60015b61293857604051634c9c8ce360e01b81526001600160a01b0383166004820152602401610b9d565b5f80516020613e1c833981519152811461296857604051632a87526960e21b815260048101829052602401610b9d565b610b2083836134cd565b306001600160a01b037f000000000000000000000000000000000000000000000000000000000000000016146127dd5760405163703e46dd60e11b815260040160405180910390fd5b6129c3612eba565b5f80516020613e5c833981519152805460ff191660011781557f62e78cea01bee320cd4e420270b5ea74000d11b0c9f74754ebdbfc544b05a2583361258b565b5f80546040516370a0823160e01b815230600482015282916001600160a01b0316906370a0823190602401602060405180830381865afa158015612a49573d5f803e3d5ffd5b505050506040513d601f19601f82011682018060405250810190612a6d9190613b37565b90505f5b612a7d60056003613b20565b811015612def576001546002546040516349e2903160e11b815260048101919091523060248201525f916001600160a01b0316906393c5206290604401606060405180830381865afa158015612ad5573d5f803e3d5ffd5b505050506040513d601f19601f82011682018060405250810190612af991906139f7565b600154600254604051632e3071cd60e11b815260048101919091529192505f9182916001600160a01b031690635c60e39a9060240160c060405180830381865afa158015612b49573d5f803e3d5ffd5b505050506040513d601f19601f82011682018060405250810190612b6d9190613ab0565b50509350935050505f80826001600160801b03161115612bc057816001600160801b0316836001600160801b031685602001516001600160801b0316612bb39190613b20565b612bbd9190613a7e565b90505b805f03612c4c5760408401516001600160801b031615612c43576001546040808601519051638720316d60e01b81526001600160a01b0390921691638720316d91612c15916003919030908190600401613d3c565b5f604051808303815f87803b158015612c2c575f80fd5b505af1158015612c3e573d5f803e3d5ffd5b505050505b50505050612def565b5f612c55613264565b90508015612cc257600154604051638720316d60e01b81526001600160a01b0390911690638720316d90612c9490600390859030908190600401613c1d565b5f604051808303815f87803b158015612cab575f80fd5b505af1158015612cbd573d5f803e3d5ffd5b505050505b5f80546040516370a0823160e01b81523060048201526001600160a01b03909116906370a0823190602401602060405180830381865afa158015612d08573d5f803e3d5ffd5b505050506040513d601f19601f82011682018060405250810190612d2c9190613b37565b90508015612ddd575f838211612d425781612d44565b835b6001545f54919250612d63916001600160a01b039081169116836131d5565b6001546040516320b76e8160e01b81526001600160a01b03909116906320b76e8190612d9a9060039085905f903090600401613c51565b60408051808303815f875af1158015612db5573d5f803e3d5ffd5b505050506040513d601f19601f82011682018060405250810190612dd99190613c92565b5050505b505060019094019350612a7192505050565b505f80546040516370a0823160e01b81523060048201526001600160a01b03909116906370a0823190602401602060405180830381865afa158015612e36573d5f803e3d5ffd5b505050506040513d601f19601f82011682018060405250810190612e5a9190613b37565b9050818111612e69575f612e73565b612e7382826139c9565b9250505090565b5f807ff0c57e16840df040f15088dc2f81fe391c3923bec73e23a9662efc9c229c6a0061097d565b6127dd613522565b612eb2613522565b6127dd613547565b5f80516020613e5c8339815191525460ff16156127dd5760405163d93c066560e01b815260040160405180910390fd5b6040516001600160a01b038481166024830152838116604483015260648201839052610ae79186918216906323b872dd906084016123e4565b5f818180612f2f6125a9565b915091508161302f577ff52b88db10d5735f8306724697e7648ba584aceee398afebc9a3553075dc660481600d54604051612fa0929190918252602082015260606040820181905260149082015273084dee4e4deee40e4c2e8ca40e8dede40d0d2ced60631b608082015260a00190565b60405180910390a16001545f54612fc4916001600160a01b039182169116876131d5565b60015460405163238d657960e01b81526001600160a01b039091169063238d657990612ff99060039089903090600401613d79565b5f604051808303815f87803b158015613010575f80fd5b505af1158015613022573d5f803e3d5ffd5b5096979650505050505050565b5f5b600a5481108015613043575061271084115b15613193576001545f54613064916001600160a01b039182169116866131d5565b60015460405163238d657960e01b81526001600160a01b039091169063238d6579906130999060039088903090600401613d79565b5f604051808303815f87803b1580156130b0575f80fd5b505af11580156130c2573d5f803e3d5ffd5b5050505083856130d29190613a9d565b94505f612710600854866130e69190613b20565b6130f09190613a7e565b90506127108110156131025750613193565b6001546040516350d8cd4b60e01b81525f916001600160a01b0316906350d8cd4b9061313b906003908690869030908190600401613db1565b60408051808303815f875af1158015613156573d5f803e3d5ffd5b505050506040513d601f19601f8201168201806040525081019061317a9190613c92565b50955082915061318b905081613ded565b915050613031565b50505050919050565b6131a68282611355565b610c695760405163e2517d3f60e01b81526001600160a01b038216600482015260248101839052604401610b9d565b604080516001600160a01b038416602482015260448082018490528251808303909101815260649091019091526020810180516001600160e01b031663095ea7b360e01b179052613226848261354f565b610ae7576040516001600160a01b0384811660248301525f604483015261325a91869182169063095ea7b3906064016123e4565b610ae78482613432565b6001546002546040516349e2903160e11b815260048101919091523060248201525f9182916001600160a01b03909116906393c5206290604401606060405180830381865afa1580156132b9573d5f803e3d5ffd5b505050506040513d601f19601f820116820180604052508101906132dd91906139f7565b600154600254604051632e3071cd60e11b815260048101919091529192505f9182916001600160a01b031690635c60e39a9060240160c060405180830381865afa15801561332d573d5f803e3d5ffd5b505050506040513d601f19601f820116820180604052508101906133519190613ab0565b50509350935050505f80826001600160801b031611156133a457816001600160801b0316836001600160801b031685602001516001600160801b03166133979190613b20565b6133a19190613a7e565b90505b805f036133c057505050604001516001600160801b0316919050565b5f6009546008546133d191906139c9565b90505f816133e161271085613b20565b6133eb9190613a7e565b90508086604001516001600160801b03161115613426578086604001516001600160801b031661341b91906139c9565b965050505050505090565b5f965050505050505090565b5f8060205f8451602086015f885af180613451576040513d5f823e3d81fd5b50505f513d91508115613468578060011415613475565b6001600160a01b0384163b155b15610ae757604051635274afe760e01b81526001600160a01b0385166004820152602401610b9d565b5f80516020613e5c8339815191525460ff166127dd57604051638dfc202b60e01b815260040160405180910390fd5b6134d682613598565b6040516001600160a01b038316907fbc7cd75a20ee27fd9adebab32041f755214dbc6bffa90cc0225b39da2e5c2d3b905f90a280511561351a57610b2082826135fb565b610c6961366d565b61352a61368c565b6127dd57604051631afcd79f60e31b815260040160405180910390fd5b612416613522565b5f805f8060205f8651602088015f8a5af192503d91505f51905082801561358e57508115613580578060011461358e565b5f866001600160a01b03163b115b9695505050505050565b806001600160a01b03163b5f036135cd57604051634c9c8ce360e01b81526001600160a01b0382166004820152602401610b9d565b5f80516020613e1c83398151915280546001600160a01b0319166001600160a01b0392909216919091179055565b60605f80846001600160a01b0316846040516136179190613e05565b5f60405180830381855af49150503d805f811461364f576040519150601f19603f3d011682016040523d82523d5f602084013e613654565b606091505b50915091506136648583836136a5565b95945050505050565b34156127dd5760405163b398979f60e01b815260040160405180910390fd5b5f613695612e7a565b54600160401b900460ff16919050565b6060826136ba576136b582613704565b6136fd565b81511580156136d157506001600160a01b0384163b155b156136fa57604051639996b31560e01b81526001600160a01b0385166004820152602401610b9d565b50805b9392505050565b80511561371357805160208201fd5b60405163d6bda27560e01b815260040160405180910390fd5b5f6020828403121561373c575f80fd5b81356001600160e01b0319811681146136fd575f80fd5b5f60208284031215613763575f80fd5b5035919050565b6001600160a01b0381168114610b37575f80fd5b5f806040838503121561378f575f80fd5b8235915060208301356137a18161376a565b809150509250929050565b634e487b7160e01b5f52604160045260245ffd5b604051601f8201601f1916810167ffffffffffffffff811182821017156137e9576137e96137ac565b604052919050565b5f8060408385031215613802575f80fd5b823561380d8161376a565b9150602083013567ffffffffffffffff811115613828575f80fd5b8301601f81018513613838575f80fd5b803567ffffffffffffffff811115613852576138526137ac565b613865601f8201601f19166020016137c0565b818152866020838501011115613879575f80fd5b816020840160208301375f602083830101528093505050509250929050565b5f80604083850312156138a9575f80fd5b50508035926020909101359150565b5f602082840312156138c8575f80fd5b81356136fd8161376a565b5f602082840312156138e3575f80fd5b813580151581146136fd575f80fd5b602081525f82518060208401528060208501604085015e5f604082850101526040601f19601f83011684010191505092915050565b5f805f805f60a0868803121561393b575f80fd5b85356139468161376a565b945060208601356139568161376a565b935060408601359250606086013561396d8161376a565b9150608086013561397d8161376a565b809150509295509295909350565b5f806040838503121561399c575f80fd5b82356139a78161376a565b946020939093013593505050565b634e487b7160e01b5f52601160045260245ffd5b8181038181111561097d5761097d6139b5565b80516001600160801b03811681146139f2575f80fd5b919050565b5f6060828403128015613a08575f80fd5b506040516060810167ffffffffffffffff81118282101715613a2c57613a2c6137ac565b60405282518152613a3f602084016139dc565b6020820152613a50604084016139dc565b60408201529392505050565b6001600160801b0381811683821602908116908181146124ca576124ca6139b5565b5f82613a9857634e487b7160e01b5f52601260045260245ffd5b500490565b8082018082111561097d5761097d6139b5565b5f805f805f8060c08789031215613ac5575f80fd5b613ace876139dc565b9550613adc602088016139dc565b9450613aea604088016139dc565b9350613af8606088016139dc565b9250613b06608088016139dc565b9150613b1460a088016139dc565b90509295509295509295565b808202811582820484141761097d5761097d6139b5565b5f60208284031215613b47575f80fd5b5051919050565b5f60a0828403128015613b5f575f80fd5b5060405160a0810167ffffffffffffffff81118282101715613b8357613b836137ac565b6040528251613b918161376a565b81526020830151613ba18161376a565b60208201526040830151613bb48161376a565b60408201526060830151613bc78161376a565b60608201526080928301519281019290925250919050565b80546001600160a01b039081168352600182015481166020840152600282015481166040840152600382015416606083015260040154608090910152565b6101008101613c2c8287613bdf565b60a08201949094526001600160a01b0392831660c0820152911660e090910152919050565b613c5b8186613bdf565b60a081019390935260c08301919091526001600160a01b031660e082015261012061010082018190525f9082015261014001919050565b5f8060408385031215613ca3575f80fd5b505080516020909101519092909150565b6101608101613cc38285613bdf565b6001600160801b0383511660a08301526001600160801b0360208401511660c08301526001600160801b0360408401511660e08301526001600160801b036060840151166101008301526001600160801b036080840151166101208301526001600160801b0360a0840151166101408301529392505050565b6101008101613d4b8287613bdf565b6001600160801b039490941660a08201526001600160a01b0392831660c0820152911660e090910152919050565b613d838185613bdf565b60a08101929092526001600160a01b031660c082015261010060e082018190525f9082015261012001919050565b6101208101613dc08288613bdf565b60a082019590955260c08101939093526001600160a01b0391821660e08401521661010090910152919050565b5f60018201613dfe57613dfe6139b5565b5060010190565b5f82518060208501845e5f92019182525091905056fe360894a13ba1a3210667c828492db98dca3e2076cc3735a920a3ca505d382bbc02dd7bc7dec4dceedda775e58dd541e08a116c6c53815c0bd028192f7b626800cd5ed15c6e187e77e9aee88184c21f4f2182ab5827cb3b7e07fbedcd63f0330017a8e30262c1f919c33056d877a3c22b95c2f5e4dac44683c1c2323cd79fbdb09b779b17422d0df92223018b32b4d1fa46e071723d6817e2486d003becc55f00e1dcbdb91df27212a29bc27177c840cf2f819ecf2187432e1fac86c2dd5dfca955435dd261a4b9b3364963f7738a7a662ad9c84396d64be3365284bb7f0a5041a26469706673582212204ec99f32cf2c6b0608e31ae106326b2adb3aee06f737bb03d031a066189ea9e964736f6c634300081a0033","linkReferences":{}},"methodIdentifiers":{"BPS()":"249d39e9","DEFAULT_ADMIN_ROLE()":"a217fddf","GUARDIAN_ROLE()":"24ea54f4","MAX_LOOPS()":"37a2eb71","MIN_HEALTH_FACTOR()":"b5627e42","STRATEGIST_ROLE()":"a378a324","TREASURY_ROLE()":"d11a57ec","UPGRADE_DELAY()":"47fe8b1d","UPGRADE_INTERFACE_VERSION()":"ad3cb1cc","WAD()":"6a146024","active()":"02fb0c5e","asset()":"38d52e0f","cancelUpgrade()":"55f29166","checkProfitability()":"4e26155e","deposit(uint256)":"b6b55f25","emergencyDeleverage()":"a6f84afc","getCurrentLeverage()":"5bfb92ce","getHealthFactor()":"a5f352b7","getPosition()":"7398ab18","getRoleAdmin(bytes32)":"248a9ca3","grantRole(bytes32,address)":"2f2ff15d","hasRole(bytes32,address)":"91d14854","initialize(address,address,bytes32,address,address)":"b185d41d","isActive()":"22f3e2d4","marketId()":"6ed71ede","marketParams()":"7b9e68f2","maxBorrowRateForProfit()":"b293cf9d","minSupplyRateRequired()":"44df7190","morpho()":"d8fbc833","pause()":"8456cb59","paused()":"5c975abb","pendingImplementation()":"396f7b23","proxiableUUID()":"52d1902d","recoverToken(address,uint256)":"b29a8140","renounceRole(bytes32,address)":"36568abe","requestUpgrade(address)":"6b9f97ef","revokeRole(bytes32,address)":"d547741f","safetyBufferBps()":"5688b8ef","setActive(bool)":"acec338a","setParameters(uint256,uint256)":"884870c7","setProfitabilityParams(uint256,uint256)":"5321b690","setSafetyBuffer(uint256)":"4ad60241","supportsInterface(bytes4)":"01ffc9a7","targetLoops()":"8fd0c114","targetLtvBps()":"c6e14375","totalPrincipal()":"4b1533b2","totalValue()":"d4c3eea0","unpause()":"3f4ba83a","upgradeRequestTime()":"ac9e42c1","upgradeToAndCall(address,bytes)":"4f1ef286","usdc()":"3e413bee","withdraw(uint256)":"2e1a7d4d","withdrawAll()":"853828b6"},"id":47}