{"abi":[{"type":"constructor","inputs":[{"name":"_usdc","type":"address","internalType":"address"},{"name":"_wormhole","type":"address","internalType":"address"},{"name":"_tokenBridge","type":"address","internalType":"address"},{"name":"_directMint","type":"address","internalType":"address"},{"name":"_treasury","type":"address","internalType":"address"},{"name":"_timelock","type":"address","internalType":"address"}],"stateMutability":"nonpayable"},{"type":"function","name":"ARBITRUM_CHAIN_ID","inputs":[],"outputs":[{"name":"","type":"uint16","internalType":"uint16"}],"stateMutability":"view"},{"type":"function","name":"BASE_CHAIN_ID","inputs":[],"outputs":[{"name":"","type":"uint16","internalType":"uint16"}],"stateMutability":"view"},{"type":"function","name":"BRIDGE_ADMIN_ROLE","inputs":[],"outputs":[{"name":"","type":"bytes32","internalType":"bytes32"}],"stateMutability":"view"},{"type":"function","name":"DEFAULT_ADMIN_ROLE","inputs":[],"outputs":[{"name":"","type":"bytes32","internalType":"bytes32"}],"stateMutability":"view"},{"type":"function","name":"MAX_FAILED_MINTS","inputs":[],"outputs":[{"name":"","type":"uint256","internalType":"uint256"}],"stateMutability":"view"},{"type":"function","name":"PAUSER_ROLE","inputs":[],"outputs":[{"name":"","type":"bytes32","internalType":"bytes32"}],"stateMutability":"view"},{"type":"function","name":"SOLANA_CHAIN_ID","inputs":[],"outputs":[{"name":"","type":"uint16","internalType":"uint16"}],"stateMutability":"view"},{"type":"function","name":"authorizeRouter","inputs":[{"name":"chainId","type":"uint16","internalType":"uint16"},{"name":"routerAddress","type":"bytes32","internalType":"bytes32"}],"outputs":[],"stateMutability":"nonpayable"},{"type":"function","name":"authorizedRouters","inputs":[{"name":"","type":"uint16","internalType":"uint16"}],"outputs":[{"name":"","type":"bytes32","internalType":"bytes32"}],"stateMutability":"view"},{"type":"function","name":"directMint","inputs":[],"outputs":[{"name":"","type":"address","internalType":"address"}],"stateMutability":"view"},{"type":"function","name":"emergencyWithdraw","inputs":[{"name":"token","type":"address","internalType":"address"},{"name":"to","type":"address","internalType":"address"},{"name":"amount","type":"uint256","internalType":"uint256"}],"outputs":[],"stateMutability":"nonpayable"},{"type":"function","name":"failedMintIds","inputs":[{"name":"","type":"uint256","internalType":"uint256"}],"outputs":[{"name":"","type":"bytes32","internalType":"bytes32"}],"stateMutability":"view"},{"type":"function","name":"failedMints","inputs":[{"name":"","type":"bytes32","internalType":"bytes32"}],"outputs":[{"name":"recipient","type":"address","internalType":"address"},{"name":"amount","type":"uint256","internalType":"uint256"},{"name":"timestamp","type":"uint256","internalType":"uint256"}],"stateMutability":"view"},{"type":"function","name":"getRoleAdmin","inputs":[{"name":"role","type":"bytes32","internalType":"bytes32"}],"outputs":[{"name":"","type":"bytes32","internalType":"bytes32"}],"stateMutability":"view"},{"type":"function","name":"grantRole","inputs":[{"name":"role","type":"bytes32","internalType":"bytes32"},{"name":"account","type":"address","internalType":"address"}],"outputs":[],"stateMutability":"nonpayable"},{"type":"function","name":"hasRole","inputs":[{"name":"role","type":"bytes32","internalType":"bytes32"},{"name":"account","type":"address","internalType":"address"}],"outputs":[{"name":"","type":"bool","internalType":"bool"}],"stateMutability":"view"},{"type":"function","name":"isVAAProcessed","inputs":[{"name":"vaaHash","type":"bytes32","internalType":"bytes32"}],"outputs":[{"name":"processed","type":"bool","internalType":"bool"}],"stateMutability":"view"},{"type":"function","name":"pause","inputs":[],"outputs":[],"stateMutability":"nonpayable"},{"type":"function","name":"paused","inputs":[],"outputs":[{"name":"","type":"bool","internalType":"bool"}],"stateMutability":"view"},{"type":"function","name":"processedVAAs","inputs":[{"name":"","type":"bytes32","internalType":"bytes32"}],"outputs":[{"name":"","type":"bool","internalType":"bool"}],"stateMutability":"view"},{"type":"function","name":"receiveAndMint","inputs":[{"name":"encodedVAA","type":"bytes","internalType":"bytes"}],"outputs":[],"stateMutability":"nonpayable"},{"type":"function","name":"renounceRole","inputs":[{"name":"role","type":"bytes32","internalType":"bytes32"},{"name":"callerConfirmation","type":"address","internalType":"address"}],"outputs":[],"stateMutability":"nonpayable"},{"type":"function","name":"retryFailedMint","inputs":[{"name":"vaaHash","type":"bytes32","internalType":"bytes32"}],"outputs":[],"stateMutability":"nonpayable"},{"type":"function","name":"revokeRole","inputs":[{"name":"role","type":"bytes32","internalType":"bytes32"},{"name":"account","type":"address","internalType":"address"}],"outputs":[],"stateMutability":"nonpayable"},{"type":"function","name":"revokeRouter","inputs":[{"name":"chainId","type":"uint16","internalType":"uint16"}],"outputs":[],"stateMutability":"nonpayable"},{"type":"function","name":"setDirectMint","inputs":[{"name":"newDirectMint","type":"address","internalType":"address"}],"outputs":[],"stateMutability":"nonpayable"},{"type":"function","name":"setTimelock","inputs":[{"name":"_timelock","type":"address","internalType":"address"}],"outputs":[],"stateMutability":"nonpayable"},{"type":"function","name":"setTreasury","inputs":[{"name":"newTreasury","type":"address","internalType":"address"}],"outputs":[],"stateMutability":"nonpayable"},{"type":"function","name":"supportsInterface","inputs":[{"name":"interfaceId","type":"bytes4","internalType":"bytes4"}],"outputs":[{"name":"","type":"bool","internalType":"bool"}],"stateMutability":"view"},{"type":"function","name":"timelock","inputs":[],"outputs":[{"name":"","type":"address","internalType":"address"}],"stateMutability":"view"},{"type":"function","name":"tokenBridge","inputs":[],"outputs":[{"name":"","type":"address","internalType":"contract ITokenBridge"}],"stateMutability":"view"},{"type":"function","name":"treasury","inputs":[],"outputs":[{"name":"","type":"address","internalType":"address"}],"stateMutability":"view"},{"type":"function","name":"unpause","inputs":[],"outputs":[],"stateMutability":"nonpayable"},{"type":"function","name":"usdc","inputs":[],"outputs":[{"name":"","type":"address","internalType":"contract IERC20"}],"stateMutability":"view"},{"type":"function","name":"wormhole","inputs":[],"outputs":[{"name":"","type":"address","internalType":"contract IWormhole"}],"stateMutability":"view"},{"type":"event","name":"DepositReceived","inputs":[{"name":"sourceChain","type":"uint16","indexed":false,"internalType":"uint16"},{"name":"sourceRouter","type":"bytes32","indexed":false,"internalType":"bytes32"},{"name":"recipient","type":"address","indexed":true,"internalType":"address"},{"name":"amount","type":"uint256","indexed":false,"internalType":"uint256"},{"name":"vaaHash","type":"bytes32","indexed":false,"internalType":"bytes32"}],"anonymous":false},{"type":"event","name":"DirectMintUpdated","inputs":[{"name":"oldDirectMint","type":"address","indexed":false,"internalType":"address"},{"name":"newDirectMint","type":"address","indexed":false,"internalType":"address"}],"anonymous":false},{"type":"event","name":"EmergencyWithdrawal","inputs":[{"name":"token","type":"address","indexed":true,"internalType":"address"},{"name":"to","type":"address","indexed":true,"internalType":"address"},{"name":"amount","type":"uint256","indexed":false,"internalType":"uint256"}],"anonymous":false},{"type":"event","name":"FailedMintRetried","inputs":[{"name":"recipient","type":"address","indexed":true,"internalType":"address"},{"name":"amount","type":"uint256","indexed":false,"internalType":"uint256"},{"name":"musdMinted","type":"uint256","indexed":false,"internalType":"uint256"}],"anonymous":false},{"type":"event","name":"MUSDMinted","inputs":[{"name":"recipient","type":"address","indexed":true,"internalType":"address"},{"name":"usdcAmount","type":"uint256","indexed":false,"internalType":"uint256"},{"name":"musdAmount","type":"uint256","indexed":false,"internalType":"uint256"},{"name":"vaaHash","type":"bytes32","indexed":false,"internalType":"bytes32"}],"anonymous":false},{"type":"event","name":"MintFallbackToTreasury","inputs":[{"name":"recipient","type":"address","indexed":true,"internalType":"address"},{"name":"usdcAmount","type":"uint256","indexed":false,"internalType":"uint256"},{"name":"vaaHash","type":"bytes32","indexed":false,"internalType":"bytes32"}],"anonymous":false},{"type":"event","name":"Paused","inputs":[{"name":"account","type":"address","indexed":false,"internalType":"address"}],"anonymous":false},{"type":"event","name":"RoleAdminChanged","inputs":[{"name":"role","type":"bytes32","indexed":true,"internalType":"bytes32"},{"name":"previousAdminRole","type":"bytes32","indexed":true,"internalType":"bytes32"},{"name":"newAdminRole","type":"bytes32","indexed":true,"internalType":"bytes32"}],"anonymous":false},{"type":"event","name":"RoleGranted","inputs":[{"name":"role","type":"bytes32","indexed":true,"internalType":"bytes32"},{"name":"account","type":"address","indexed":true,"internalType":"address"},{"name":"sender","type":"address","indexed":true,"internalType":"address"}],"anonymous":false},{"type":"event","name":"RoleRevoked","inputs":[{"name":"role","type":"bytes32","indexed":true,"internalType":"bytes32"},{"name":"account","type":"address","indexed":true,"internalType":"address"},{"name":"sender","type":"address","indexed":true,"internalType":"address"}],"anonymous":false},{"type":"event","name":"RouterAuthorized","inputs":[{"name":"chainId","type":"uint16","indexed":false,"internalType":"uint16"},{"name":"routerAddress","type":"bytes32","indexed":false,"internalType":"bytes32"}],"anonymous":false},{"type":"event","name":"RouterRevoked","inputs":[{"name":"chainId","type":"uint16","indexed":false,"internalType":"uint16"}],"anonymous":false},{"type":"event","name":"TimelockUpdated","inputs":[{"name":"oldTimelock","type":"address","indexed":true,"internalType":"address"},{"name":"newTimelock","type":"address","indexed":true,"internalType":"address"}],"anonymous":false},{"type":"event","name":"TreasuryUpdated","inputs":[{"name":"oldTreasury","type":"address","indexed":false,"internalType":"address"},{"name":"newTreasury","type":"address","indexed":false,"internalType":"address"}],"anonymous":false},{"type":"event","name":"Unpaused","inputs":[{"name":"account","type":"address","indexed":false,"internalType":"address"}],"anonymous":false},{"type":"error","name":"AccessControlBadConfirmation","inputs":[]},{"type":"error","name":"AccessControlUnauthorizedAccount","inputs":[{"name":"account","type":"address","internalType":"address"},{"name":"neededRole","type":"bytes32","internalType":"bytes32"}]},{"type":"error","name":"EnforcedPause","inputs":[]},{"type":"error","name":"ExpectedPause","inputs":[]},{"type":"error","name":"InvalidAddress","inputs":[]},{"type":"error","name":"InvalidVAA","inputs":[]},{"type":"error","name":"MintFailed","inputs":[]},{"type":"error","name":"OnlyTimelock","inputs":[]},{"type":"error","name":"ReentrancyGuardReentrantCall","inputs":[]},{"type":"error","name":"SafeERC20FailedOperation","inputs":[{"name":"token","type":"address","internalType":"address"}]},{"type":"error","name":"UnauthorizedRouter","inputs":[]},{"type":"error","name":"VAAAlreadyProcessed","inputs":[]},{"type":"error","name":"ZeroTimelock","inputs":[]}],"bytecode":{"object":"0x60e060405234801561000f575f80fd5b5060405161229a38038061229a83398101604081905261002e916102e9565b600180556001600160a01b0386166100595760405163e6c4247b60e01b815260040160405180910390fd5b6001600160a01b0385166100805760405163e6c4247b60e01b815260040160405180910390fd5b6001600160a01b0384166100a75760405163e6c4247b60e01b815260040160405180910390fd5b6001600160a01b0383166100ce5760405163e6c4247b60e01b815260040160405180910390fd5b6001600160a01b0382166100f55760405163e6c4247b60e01b815260040160405180910390fd5b6100fe816101ab565b6001600160a01b0386811660805285811660a05284811660c052600380546001600160a01b031990811686841617909155600480549091169184169190911790556101495f33610225565b506101747f751b795d24b92e3d92d1d0d8f2885f4e9c9c269da350af36ae6b49069babf4bf33610225565b5061019f7f65d7a28e3265b37a6474929f336521b332c1681b933f6cb9f3376673440d862a33610225565b50505050505050610359565b6001600160a01b0381166101d2576040516350c0eb2960e11b815260040160405180910390fd5b60028054610100600160a81b0319166101006001600160a01b038416908102919091179091556040515f907fae97011a27b5efe7b1d76fe38e75cc498fd64cc24e407a9c6b2185d27f611f7e908290a350565b5f828152602081815260408083206001600160a01b038516845290915281205460ff166102c5575f838152602081815260408083206001600160a01b03861684529091529020805460ff1916600117905561027d3390565b6001600160a01b0316826001600160a01b0316847f2f8788117e7eff1d82e926ec794901d17c78024a50270940304540a733656f0d60405160405180910390a45060016102c8565b505f5b92915050565b80516001600160a01b03811681146102e4575f80fd5b919050565b5f805f805f8060c087890312156102fe575f80fd5b610307876102ce565b9550610315602088016102ce565b9450610323604088016102ce565b9350610331606088016102ce565b925061033f608088016102ce565b915061034d60a088016102ce565b90509295509295509295565b60805160a05160c051611ed86103c25f395f81816104850152610ce301525f818161040f0152610b1601525f8181610337015281816108d101528181610c5801528181610d6801528181610fc801528181611074015281816110ae01526113c90152611ed85ff3fe608060405234801561000f575f80fd5b5060043610610207575f3560e01c80638456cb591161011f578063d547741f116100a9578063e63ab1e911610079578063e63ab1e914610522578063e63ea40814610549578063e917f0ce1461055c578063efc21e3f1461056f578063f0f4426014610577575f80fd5b8063d547741f146104c7578063dcb2ee3c146104da578063e02c792c146104fc578063e10030ab1461050f575f80fd5b8063a217fddf116100ef578063a217fddf14610466578063bdacb3031461046d578063c6328a4614610480578063cdcdd548146104a7578063d33219b4146104af575f80fd5b80638456cb591461040257806384acd1bb1461040a57806391d14854146104315780639886cdcd14610444575f80fd5b80632f2ff15d116101a05780635c975abb116101705780635c975abb1461036157806361d027b31461036c57806369242d461461037f578063728c7f6d14610392578063805a9d7f146103ef575f80fd5b80632f2ff15d1461030a57806336568abe1461031f5780633e413bee146103325780633f4ba83a14610359575f80fd5b80631d173064116101db5780631d17306414610296578063248a9ca3146102b5578063252653aa146102d757806327146b6e146102df575f80fd5b80621c47361461020b57806301ffc9a714610231578063067bd07a14610254578063118c38c71461026f575b5f80fd5b61021e6102193660046119b2565b61058a565b6040519081526020015b60405180910390f35b61024461023f3660046119c9565b6105a9565b6040519015158152602001610228565b61025c600181565b60405161ffff9091168152602001610228565b61021e7f751b795d24b92e3d92d1d0d8f2885f4e9c9c269da350af36ae6b49069babf4bf81565b61021e6102a4366004611a06565b60066020525f908152604090205481565b61021e6102c33660046119b2565b5f9081526020819052604090206001015490565b61021e606481565b6003546102f2906001600160a01b031681565b6040516001600160a01b039091168152602001610228565b61031d610318366004611a35565b6105df565b005b61031d61032d366004611a35565b610609565b6102f27f000000000000000000000000000000000000000000000000000000000000000081565b61031d610641565b60025460ff16610244565b6004546102f2906001600160a01b031681565b61031d61038d366004611a63565b610656565b6103ca6103a03660046119b2565b60076020525f90815260409020805460018201546002909201546001600160a01b03909116919083565b604080516001600160a01b039094168452602084019290925290820152606001610228565b61031d6103fd3660046119b2565b61071c565b61031d6109c7565b6102f27f000000000000000000000000000000000000000000000000000000000000000081565b61024461043f366004611a35565b6109f9565b6102446104523660046119b2565b60056020525f908152604090205460ff1681565b61021e5f81565b61031d61047b366004611a8d565b610a21565b6102f27f000000000000000000000000000000000000000000000000000000000000000081565b61025c601781565b6002546102f29061010090046001600160a01b031681565b61031d6104d5366004611a35565b610ade565b6102446104e83660046119b2565b5f9081526005602052604090205460ff1690565b61031d61050a366004611aa8565b610b02565b61031d61051d366004611a06565b6112f9565b61021e7f65d7a28e3265b37a6474929f336521b332c1681b933f6cb9f3376673440d862a81565b61031d610557366004611b16565b611370565b61031d61056a366004611a8d565b6114bc565b61025c601e81565b61031d610585366004611a8d565b611547565b60088181548110610599575f80fd5b5f91825260209091200154905081565b5f6001600160e01b03198216637965db0b60e01b14806105d957506301ffc9a760e01b6001600160e01b03198316145b92915050565b5f828152602081905260409020600101546105f9816115d2565b61060383836115dc565b50505050565b6001600160a01b03811633146106325760405163334bd91960e11b815260040160405180910390fd5b61063c828261166b565b505050565b5f61064b816115d2565b6106536116d4565b50565b7f751b795d24b92e3d92d1d0d8f2885f4e9c9c269da350af36ae6b49069babf4bf610680816115d2565b816106c85760405162461bcd60e51b81526020600482015260136024820152725a45524f5f524f555445525f4144445245535360681b60448201526064015b60405180910390fd5b61ffff83165f81815260066020908152604091829020859055815192835282018490527f17a87d7d3465093636bb93fe83e351386985b865a9d4748fbc07d336e5d4328991015b60405180910390a1505050565b5f610726816115d2565b61072e611726565b5f828152600760205260409020600181015461077d5760405162461bcd60e51b815260206004820152600e60248201526d1393d7d1905253115117d352539560921b60448201526064016106bf565b80546001808301545f86815260076020526040812080546001600160a01b031916815592830181905560029092018290556001600160a01b0390921691905b6008548110156108605785600882815481106107da576107da611b54565b905f5260205f2001540361085857600880546107f890600190611b7c565b8154811061080857610808611b54565b905f5260205f2001546008828154811061082457610824611b54565b5f91825260209091200155600880548061084057610840611b8f565b600190038181905f5260205f20015f90559055610860565b6001016107bc565b506004805460405163f3fef3a360e01b81523092810192909252602482018390526001600160a01b03169063f3fef3a3906044015f604051808303815f87803b1580156108ab575f80fd5b505af11580156108bd573d5f803e3d5ffd5b50506003546108fb92506001600160a01b037f0000000000000000000000000000000000000000000000000000000000000000811692501683611750565b60035460405163da1919b360e01b81526001600160a01b038481166004830152602482018490525f92169063da1919b3906044016020604051808303815f875af115801561094b573d5f803e3d5ffd5b505050506040513d601f19601f8201168201806040525081019061096f9190611ba3565b60408051848152602081018390529192506001600160a01b038516917f0735d2083d327ff9ed9ed771f88f6ce37cff815ed490ef4fd5a08c21fcc111ef910160405180910390a2505050506109c360018055565b5050565b7f65d7a28e3265b37a6474929f336521b332c1681b933f6cb9f3376673440d862a6109f1816115d2565b61065361180d565b5f918252602082815260408084206001600160a01b0393909316845291905290205460ff1690565b60025461010090046001600160a01b03163314610a5157604051630e05f48560e11b815260040160405180910390fd5b6001600160a01b038116610a78576040516350c0eb2960e11b815260040160405180910390fd5b6002546040516001600160a01b0380841692610100900416907fae97011a27b5efe7b1d76fe38e75cc498fd64cc24e407a9c6b2185d27f611f7e905f90a3600280546001600160a01b0390921661010002610100600160a81b0319909216919091179055565b5f82815260208190526040902060010154610af8816115d2565b610603838361166b565b610b0a611726565b610b1261184a565b5f807f00000000000000000000000000000000000000000000000000000000000000006001600160a01b031663c0fd8bde85856040518363ffffffff1660e01b8152600401610b62929190611bba565b5f60405180830381865afa158015610b7c573d5f803e3d5ffd5b505050506040513d5f823e601f3d908101601f19168201604052610ba39190810190611d10565b509150915080610bc65760405163f9a6d57f60e01b815260040160405180910390fd5b6101408201515f9081526005602052604090205460ff1615610bfb57604051635b4e108160e11b815260040160405180910390fd5b606082015161ffff165f90815260066020526040902054801580610c23575082608001518114155b15610c4157604051636fdfe14160e01b815260040160405180910390fd5b6040516370a0823160e01b81523060048201525f907f00000000000000000000000000000000000000000000000000000000000000006001600160a01b0316906370a0823190602401602060405180830381865afa158015610ca5573d5f803e3d5ffd5b505050506040513d601f19601f82011682018060405250810190610cc99190611ba3565b60405163c687851960e01b81529091506001600160a01b037f0000000000000000000000000000000000000000000000000000000000000000169063c687851990610d1a9089908990600401611bba565b5f604051808303815f87803b158015610d31575f80fd5b505af1158015610d43573d5f803e3d5ffd5b50506040516370a0823160e01b81523060048201525f92508391506001600160a01b037f000000000000000000000000000000000000000000000000000000000000000016906370a0823190602401602060405180830381865afa158015610dad573d5f803e3d5ffd5b505050506040513d601f19601f82011682018060405250810190610dd19190611ba3565b610ddb9190611b7c565b90505f8111610e235760405162461bcd60e51b815260206004820152601460248201527316915493d7d05353d5539517d49150d15255915160621b60448201526064016106bf565b60a58560e00151511015610e725760405162461bcd60e51b81526020600482015260166024820152750929cac82989288bea082b2989e8288be988a9c8ea8960531b60448201526064016106bf565b8460e001515f81518110610e8857610e88611b54565b60209101015160f81c600314610ee05760405162461bcd60e51b815260206004820152601960248201527f4e4f545f5452414e534645525f574954485f5041594c4f41440000000000000060448201526064016106bf565b5f60858660e0015151610ef39190611b7c565b67ffffffffffffffff811115610f0b57610f0b611be8565b6040519080825280601f01601f191660200182016040528015610f35576020820181803683370190505b5090505f5b8151811015610f9e5760e0870151610f53826085611e74565b81518110610f6357610f63611b54565b602001015160f81c60f81b828281518110610f8057610f80611b54565b60200101906001600160f81b03191690815f1a905350600101610f3a565b505f81806020019051810190610fb49190611e87565b600354909150610ff1906001600160a01b037f00000000000000000000000000000000000000000000000000000000000000008116911685611750565b60035460405163da1919b360e01b81526001600160a01b038381166004830152602482018690529091169063da1919b3906044016020604051808303815f875af192505050801561105f575060408051601f3d908101601f1916820190925261105c91810190611ba3565b60015b61120b5760035461109d906001600160a01b037f0000000000000000000000000000000000000000000000000000000000000000811691165f611750565b6004546110d7906001600160a01b037f00000000000000000000000000000000000000000000000000000000000000008116911685611870565b6008546064116111215760405162461bcd60e51b8152602060048201526015602482015274544f4f5f4d414e595f4641494c45445f4d494e545360581b60448201526064016106bf565b604080516060810182526001600160a01b038381168083526020808401888152428587019081526101408e0180515f90815260078552888120975188546001600160a01b03191697169690961787559151600180880191909155905160029096019590955580516008805480880182559086527ff3f7a9fe364faab93b216da50a3214154f22a0a2b415b23a84c8169e8b636ee30155805184526005825292859020805460ff19169094179093559051835187815292830152917f2eb7d3ff389d0123778ae8b5a625997ab4d035a987df96094fba9916868f7be3910160405180910390a2611279565b610140880180515f90815260056020908152604091829020805460ff1916600117905591518151878152928301849052908201526001600160a01b038316907f2a918fef5c22ace574a9c1dfcee17a770fee80f34ab1df7098303166cd00fb1b9060600160405180910390a2505b806001600160a01b03167fa3d32fcd4a62500b8543c4da38de08f74b53cbb079b002f4e23077dbc7ecb16688606001518960800151868b61014001516040516112e1949392919061ffff94909416845260208401929092526040830152606082015260800190565b60405180910390a2505050505050506109c360018055565b7f751b795d24b92e3d92d1d0d8f2885f4e9c9c269da350af36ae6b49069babf4bf611323816115d2565b61ffff82165f8181526006602090815260408083209290925590519182527f7e0aa9f43078af04c562e85e422facc6c797105fe7cc20004c25c0966fff0769910160405180910390a15050565b60025461010090046001600160a01b031633146113a057604051630e05f48560e11b815260040160405180910390fd5b6001600160a01b0382166113c75760405163e6c4247b60e01b815260040160405180910390fd5b7f00000000000000000000000000000000000000000000000000000000000000006001600160a01b0316836001600160a01b031614158061140a575060025460ff165b6114565760405162461bcd60e51b815260206004820152601e60248201527f555344435f57495448445241575f4f4e4c595f5748454e5f504155534544000060448201526064016106bf565b61146a6001600160a01b0384168383611870565b816001600160a01b0316836001600160a01b03167f9495d03190a79a43e534c9e328ff322f6283261383f5f19c809564f6ad5a57b3836040516114af91815260200190565b60405180910390a3505050565b5f6114c6816115d2565b6001600160a01b0382166114ed5760405163e6c4247b60e01b815260040160405180910390fd5b600380546001600160a01b038481166001600160a01b031983168117909355604080519190921680825260208201939093527f2934917ef7215887e304b63dda4f079d5b265e26f20aadafcb3143fc2d7c0318910161070f565b5f611551816115d2565b6001600160a01b0382166115785760405163e6c4247b60e01b815260040160405180910390fd5b600480546001600160a01b038481166001600160a01b031983168117909355604080519190921680825260208201939093527f4ab5be82436d353e61ca18726e984e561f5c1cc7c6d38b29d2553c790434705a910161070f565b61065381336118a1565b5f6115e783836109f9565b611664575f838152602081815260408083206001600160a01b03861684529091529020805460ff1916600117905561161c3390565b6001600160a01b0316826001600160a01b0316847f2f8788117e7eff1d82e926ec794901d17c78024a50270940304540a733656f0d60405160405180910390a45060016105d9565b505f6105d9565b5f61167683836109f9565b15611664575f838152602081815260408083206001600160a01b0386168085529252808320805460ff1916905551339286917ff6391f5c32d9c69d2a47ea670b442974b53935d1edc7fd64eb21e047a839171b9190a45060016105d9565b6116dc6118da565b6002805460ff191690557f5db9ee0a495bf2e6ff9c91a7834c1ba4fdd244a5e8aa4e537bd38aeae4b073aa335b6040516001600160a01b03909116815260200160405180910390a1565b60026001540361174957604051633ee5aeb560e01b815260040160405180910390fd5b6002600155565b604080516001600160a01b038416602482015260448082018490528251808303909101815260649091019091526020810180516001600160e01b031663095ea7b360e01b1790526117a184826118fd565b610603576040516001600160a01b0384811660248301525f604483015261180391869182169063095ea7b3906064015b604051602081830303815290604052915060e01b6020820180516001600160e01b038381831617835250505050611946565b6106038482611946565b61181561184a565b6002805460ff191660011790557f62e78cea01bee320cd4e420270b5ea74000d11b0c9f74754ebdbfc544b05a2586117093390565b60025460ff161561186e5760405163d93c066560e01b815260040160405180910390fd5b565b6040516001600160a01b0383811660248301526044820183905261063c91859182169063a9059cbb906064016117d1565b6118ab82826109f9565b6109c35760405163e2517d3f60e01b81526001600160a01b0382166004820152602481018390526044016106bf565b60025460ff1661186e57604051638dfc202b60e01b815260040160405180910390fd5b5f805f8060205f8651602088015f8a5af192503d91505f51905082801561193c5750811561192e578060011461193c565b5f866001600160a01b03163b115b9695505050505050565b5f8060205f8451602086015f885af180611965576040513d5f823e3d81fd5b50505f513d9150811561197c578060011415611989565b6001600160a01b0384163b155b1561060357604051635274afe760e01b81526001600160a01b03851660048201526024016106bf565b5f602082840312156119c2575f80fd5b5035919050565b5f602082840312156119d9575f80fd5b81356001600160e01b0319811681146119f0575f80fd5b9392505050565b61ffff81168114610653575f80fd5b5f60208284031215611a16575f80fd5b81356119f0816119f7565b6001600160a01b0381168114610653575f80fd5b5f8060408385031215611a46575f80fd5b823591506020830135611a5881611a21565b809150509250929050565b5f8060408385031215611a74575f80fd5b8235611a7f816119f7565b946020939093013593505050565b5f60208284031215611a9d575f80fd5b81356119f081611a21565b5f8060208385031215611ab9575f80fd5b823567ffffffffffffffff811115611acf575f80fd5b8301601f81018513611adf575f80fd5b803567ffffffffffffffff811115611af5575f80fd5b856020828401011115611b06575f80fd5b6020919091019590945092505050565b5f805f60608486031215611b28575f80fd5b8335611b3381611a21565b92506020840135611b4381611a21565b929592945050506040919091013590565b634e487b7160e01b5f52603260045260245ffd5b634e487b7160e01b5f52601160045260245ffd5b818103818111156105d9576105d9611b68565b634e487b7160e01b5f52603160045260245ffd5b5f60208284031215611bb3575f80fd5b5051919050565b60208152816020820152818360408301375f818301604090810191909152601f909201601f19160101919050565b634e487b7160e01b5f52604160045260245ffd5b604051610160810167ffffffffffffffff81118282101715611c2057611c20611be8565b60405290565b805160ff81168114611c36575f80fd5b919050565b805163ffffffff81168114611c36575f80fd5b8051611c36816119f7565b805167ffffffffffffffff81168114611c36575f80fd5b5f82601f830112611c7f575f80fd5b8151602083015f8067ffffffffffffffff841115611c9f57611c9f611be8565b50604051601f19601f85018116603f0116810181811067ffffffffffffffff82111715611cce57611cce611be8565b604052838152905080828401871015611ce5575f80fd5b8383602083015e5f602085830101528094505050505092915050565b80518015158114611c36575f80fd5b5f805f60608486031215611d22575f80fd5b835167ffffffffffffffff811115611d38575f80fd5b84016101608187031215611d4a575f80fd5b611d52611bfc565b611d5b82611c26565b8152611d6960208301611c3b565b6020820152611d7a60408301611c3b565b6040820152611d8b60608301611c4e565b606082015260808281015190820152611da660a08301611c59565b60a0820152611db760c08301611c26565b60c082015260e082015167ffffffffffffffff811115611dd5575f80fd5b611de188828501611c70565b60e083015250611df46101008301611c3b565b61010082015261012082015167ffffffffffffffff811115611e14575f80fd5b611e2088828501611c70565b6101208301525061014091820151918101919091529250611e4360208501611d01565b9150604084015167ffffffffffffffff811115611e5e575f80fd5b611e6a86828701611c70565b9150509250925092565b808201808211156105d9576105d9611b68565b5f60208284031215611e97575f80fd5b81516119f081611a2156fea26469706673582212203069def9a2bd0b03b21a03b709c77935348ad777935966410dac8ac7cdba55f864736f6c634300081a0033","linkReferences":{}},"methodIdentifiers":{"ARBITRUM_CHAIN_ID()":"cdcdd548","BASE_CHAIN_ID()":"efc21e3f","BRIDGE_ADMIN_ROLE()":"118c38c7","DEFAULT_ADMIN_ROLE()":"a217fddf","MAX_FAILED_MINTS()":"252653aa","PAUSER_ROLE()":"e63ab1e9","SOLANA_CHAIN_ID()":"067bd07a","authorizeRouter(uint16,bytes32)":"69242d46","authorizedRouters(uint16)":"1d173064","directMint()":"27146b6e","emergencyWithdraw(address,address,uint256)":"e63ea408","failedMintIds(uint256)":"001c4736","failedMints(bytes32)":"728c7f6d","getRoleAdmin(bytes32)":"248a9ca3","grantRole(bytes32,address)":"2f2ff15d","hasRole(bytes32,address)":"91d14854","isVAAProcessed(bytes32)":"dcb2ee3c","pause()":"8456cb59","paused()":"5c975abb","processedVAAs(bytes32)":"9886cdcd","receiveAndMint(bytes)":"e02c792c","renounceRole(bytes32,address)":"36568abe","retryFailedMint(bytes32)":"805a9d7f","revokeRole(bytes32,address)":"d547741f","revokeRouter(uint16)":"e10030ab","setDirectMint(address)":"e917f0ce","setTimelock(address)":"bdacb303","setTreasury(address)":"f0f44260","supportsInterface(bytes4)":"01ffc9a7","timelock()":"d33219b4","tokenBridge()":"c6328a46","treasury()":"61d027b3","unpause()":"3f4ba83a","usdc()":"3e413bee","wormhole()":"84acd1bb"},"id":14}