{"abi":[{"type":"constructor","inputs":[{"name":"_usdc","type":"address","internalType":"address"},{"name":"_wormhole","type":"address","internalType":"address"},{"name":"_tokenBridge","type":"address","internalType":"address"},{"name":"_directMint","type":"address","internalType":"address"},{"name":"_treasury","type":"address","internalType":"address"}],"stateMutability":"nonpayable"},{"type":"function","name":"ARBITRUM_CHAIN_ID","inputs":[],"outputs":[{"name":"","type":"uint16","internalType":"uint16"}],"stateMutability":"view"},{"type":"function","name":"BASE_CHAIN_ID","inputs":[],"outputs":[{"name":"","type":"uint16","internalType":"uint16"}],"stateMutability":"view"},{"type":"function","name":"BRIDGE_ADMIN_ROLE","inputs":[],"outputs":[{"name":"","type":"bytes32","internalType":"bytes32"}],"stateMutability":"view"},{"type":"function","name":"DEFAULT_ADMIN_ROLE","inputs":[],"outputs":[{"name":"","type":"bytes32","internalType":"bytes32"}],"stateMutability":"view"},{"type":"function","name":"MAX_FAILED_MINTS","inputs":[],"outputs":[{"name":"","type":"uint256","internalType":"uint256"}],"stateMutability":"view"},{"type":"function","name":"PAUSER_ROLE","inputs":[],"outputs":[{"name":"","type":"bytes32","internalType":"bytes32"}],"stateMutability":"view"},{"type":"function","name":"SOLANA_CHAIN_ID","inputs":[],"outputs":[{"name":"","type":"uint16","internalType":"uint16"}],"stateMutability":"view"},{"type":"function","name":"authorizeRouter","inputs":[{"name":"chainId","type":"uint16","internalType":"uint16"},{"name":"routerAddress","type":"bytes32","internalType":"bytes32"}],"outputs":[],"stateMutability":"nonpayable"},{"type":"function","name":"authorizedRouters","inputs":[{"name":"","type":"uint16","internalType":"uint16"}],"outputs":[{"name":"","type":"bytes32","internalType":"bytes32"}],"stateMutability":"view"},{"type":"function","name":"directMint","inputs":[],"outputs":[{"name":"","type":"address","internalType":"address"}],"stateMutability":"view"},{"type":"function","name":"emergencyWithdraw","inputs":[{"name":"token","type":"address","internalType":"address"},{"name":"to","type":"address","internalType":"address"},{"name":"amount","type":"uint256","internalType":"uint256"}],"outputs":[],"stateMutability":"nonpayable"},{"type":"function","name":"failedMintIds","inputs":[{"name":"","type":"uint256","internalType":"uint256"}],"outputs":[{"name":"","type":"bytes32","internalType":"bytes32"}],"stateMutability":"view"},{"type":"function","name":"failedMints","inputs":[{"name":"","type":"bytes32","internalType":"bytes32"}],"outputs":[{"name":"recipient","type":"address","internalType":"address"},{"name":"amount","type":"uint256","internalType":"uint256"},{"name":"timestamp","type":"uint256","internalType":"uint256"}],"stateMutability":"view"},{"type":"function","name":"getRoleAdmin","inputs":[{"name":"role","type":"bytes32","internalType":"bytes32"}],"outputs":[{"name":"","type":"bytes32","internalType":"bytes32"}],"stateMutability":"view"},{"type":"function","name":"grantRole","inputs":[{"name":"role","type":"bytes32","internalType":"bytes32"},{"name":"account","type":"address","internalType":"address"}],"outputs":[],"stateMutability":"nonpayable"},{"type":"function","name":"hasRole","inputs":[{"name":"role","type":"bytes32","internalType":"bytes32"},{"name":"account","type":"address","internalType":"address"}],"outputs":[{"name":"","type":"bool","internalType":"bool"}],"stateMutability":"view"},{"type":"function","name":"isVAAProcessed","inputs":[{"name":"vaaHash","type":"bytes32","internalType":"bytes32"}],"outputs":[{"name":"processed","type":"bool","internalType":"bool"}],"stateMutability":"view"},{"type":"function","name":"pause","inputs":[],"outputs":[],"stateMutability":"nonpayable"},{"type":"function","name":"paused","inputs":[],"outputs":[{"name":"","type":"bool","internalType":"bool"}],"stateMutability":"view"},{"type":"function","name":"processedVAAs","inputs":[{"name":"","type":"bytes32","internalType":"bytes32"}],"outputs":[{"name":"","type":"bool","internalType":"bool"}],"stateMutability":"view"},{"type":"function","name":"receiveAndMint","inputs":[{"name":"encodedVAA","type":"bytes","internalType":"bytes"}],"outputs":[],"stateMutability":"nonpayable"},{"type":"function","name":"renounceRole","inputs":[{"name":"role","type":"bytes32","internalType":"bytes32"},{"name":"callerConfirmation","type":"address","internalType":"address"}],"outputs":[],"stateMutability":"nonpayable"},{"type":"function","name":"retryFailedMint","inputs":[{"name":"vaaHash","type":"bytes32","internalType":"bytes32"}],"outputs":[],"stateMutability":"nonpayable"},{"type":"function","name":"revokeRole","inputs":[{"name":"role","type":"bytes32","internalType":"bytes32"},{"name":"account","type":"address","internalType":"address"}],"outputs":[],"stateMutability":"nonpayable"},{"type":"function","name":"revokeRouter","inputs":[{"name":"chainId","type":"uint16","internalType":"uint16"}],"outputs":[],"stateMutability":"nonpayable"},{"type":"function","name":"setDirectMint","inputs":[{"name":"newDirectMint","type":"address","internalType":"address"}],"outputs":[],"stateMutability":"nonpayable"},{"type":"function","name":"setTreasury","inputs":[{"name":"newTreasury","type":"address","internalType":"address"}],"outputs":[],"stateMutability":"nonpayable"},{"type":"function","name":"supportsInterface","inputs":[{"name":"interfaceId","type":"bytes4","internalType":"bytes4"}],"outputs":[{"name":"","type":"bool","internalType":"bool"}],"stateMutability":"view"},{"type":"function","name":"tokenBridge","inputs":[],"outputs":[{"name":"","type":"address","internalType":"contract ITokenBridge"}],"stateMutability":"view"},{"type":"function","name":"treasury","inputs":[],"outputs":[{"name":"","type":"address","internalType":"address"}],"stateMutability":"view"},{"type":"function","name":"unpause","inputs":[],"outputs":[],"stateMutability":"nonpayable"},{"type":"function","name":"usdc","inputs":[],"outputs":[{"name":"","type":"address","internalType":"contract IERC20"}],"stateMutability":"view"},{"type":"function","name":"wormhole","inputs":[],"outputs":[{"name":"","type":"address","internalType":"contract IWormhole"}],"stateMutability":"view"},{"type":"event","name":"DepositReceived","inputs":[{"name":"sourceChain","type":"uint16","indexed":false,"internalType":"uint16"},{"name":"sourceRouter","type":"bytes32","indexed":false,"internalType":"bytes32"},{"name":"recipient","type":"address","indexed":true,"internalType":"address"},{"name":"amount","type":"uint256","indexed":false,"internalType":"uint256"},{"name":"vaaHash","type":"bytes32","indexed":false,"internalType":"bytes32"}],"anonymous":false},{"type":"event","name":"DirectMintUpdated","inputs":[{"name":"oldDirectMint","type":"address","indexed":false,"internalType":"address"},{"name":"newDirectMint","type":"address","indexed":false,"internalType":"address"}],"anonymous":false},{"type":"event","name":"EmergencyWithdrawal","inputs":[{"name":"token","type":"address","indexed":true,"internalType":"address"},{"name":"to","type":"address","indexed":true,"internalType":"address"},{"name":"amount","type":"uint256","indexed":false,"internalType":"uint256"}],"anonymous":false},{"type":"event","name":"FailedMintRetried","inputs":[{"name":"recipient","type":"address","indexed":true,"internalType":"address"},{"name":"amount","type":"uint256","indexed":false,"internalType":"uint256"},{"name":"musdMinted","type":"uint256","indexed":false,"internalType":"uint256"}],"anonymous":false},{"type":"event","name":"MUSDMinted","inputs":[{"name":"recipient","type":"address","indexed":true,"internalType":"address"},{"name":"usdcAmount","type":"uint256","indexed":false,"internalType":"uint256"},{"name":"musdAmount","type":"uint256","indexed":false,"internalType":"uint256"},{"name":"vaaHash","type":"bytes32","indexed":false,"internalType":"bytes32"}],"anonymous":false},{"type":"event","name":"MintFallbackToTreasury","inputs":[{"name":"recipient","type":"address","indexed":true,"internalType":"address"},{"name":"usdcAmount","type":"uint256","indexed":false,"internalType":"uint256"},{"name":"vaaHash","type":"bytes32","indexed":false,"internalType":"bytes32"}],"anonymous":false},{"type":"event","name":"Paused","inputs":[{"name":"account","type":"address","indexed":false,"internalType":"address"}],"anonymous":false},{"type":"event","name":"RoleAdminChanged","inputs":[{"name":"role","type":"bytes32","indexed":true,"internalType":"bytes32"},{"name":"previousAdminRole","type":"bytes32","indexed":true,"internalType":"bytes32"},{"name":"newAdminRole","type":"bytes32","indexed":true,"internalType":"bytes32"}],"anonymous":false},{"type":"event","name":"RoleGranted","inputs":[{"name":"role","type":"bytes32","indexed":true,"internalType":"bytes32"},{"name":"account","type":"address","indexed":true,"internalType":"address"},{"name":"sender","type":"address","indexed":true,"internalType":"address"}],"anonymous":false},{"type":"event","name":"RoleRevoked","inputs":[{"name":"role","type":"bytes32","indexed":true,"internalType":"bytes32"},{"name":"account","type":"address","indexed":true,"internalType":"address"},{"name":"sender","type":"address","indexed":true,"internalType":"address"}],"anonymous":false},{"type":"event","name":"RouterAuthorized","inputs":[{"name":"chainId","type":"uint16","indexed":false,"internalType":"uint16"},{"name":"routerAddress","type":"bytes32","indexed":false,"internalType":"bytes32"}],"anonymous":false},{"type":"event","name":"RouterRevoked","inputs":[{"name":"chainId","type":"uint16","indexed":false,"internalType":"uint16"}],"anonymous":false},{"type":"event","name":"TreasuryUpdated","inputs":[{"name":"oldTreasury","type":"address","indexed":false,"internalType":"address"},{"name":"newTreasury","type":"address","indexed":false,"internalType":"address"}],"anonymous":false},{"type":"event","name":"Unpaused","inputs":[{"name":"account","type":"address","indexed":false,"internalType":"address"}],"anonymous":false},{"type":"error","name":"AccessControlBadConfirmation","inputs":[]},{"type":"error","name":"AccessControlUnauthorizedAccount","inputs":[{"name":"account","type":"address","internalType":"address"},{"name":"neededRole","type":"bytes32","internalType":"bytes32"}]},{"type":"error","name":"EnforcedPause","inputs":[]},{"type":"error","name":"ExpectedPause","inputs":[]},{"type":"error","name":"InvalidAddress","inputs":[]},{"type":"error","name":"InvalidVAA","inputs":[]},{"type":"error","name":"MintFailed","inputs":[]},{"type":"error","name":"ReentrancyGuardReentrantCall","inputs":[]},{"type":"error","name":"SafeERC20FailedOperation","inputs":[{"name":"token","type":"address","internalType":"address"}]},{"type":"error","name":"UnauthorizedRouter","inputs":[]},{"type":"error","name":"VAAAlreadyProcessed","inputs":[]}],"bytecode":{"object":"0x60e060405234801561000f575f80fd5b5060405161211638038061211683398101604081905261002e9161026e565b600180556001600160a01b0385166100595760405163e6c4247b60e01b815260040160405180910390fd5b6001600160a01b0384166100805760405163e6c4247b60e01b815260040160405180910390fd5b6001600160a01b0383166100a75760405163e6c4247b60e01b815260040160405180910390fd5b6001600160a01b0382166100ce5760405163e6c4247b60e01b815260040160405180910390fd5b6001600160a01b0381166100f55760405163e6c4247b60e01b815260040160405180910390fd5b6001600160a01b0385811660805284811660a05283811660c05260028054610100600160a81b03191661010085841602179055600380546001600160a01b0319169183169190911790556101495f336101aa565b506101747f751b795d24b92e3d92d1d0d8f2885f4e9c9c269da350af36ae6b49069babf4bf336101aa565b5061019f7f65d7a28e3265b37a6474929f336521b332c1681b933f6cb9f3376673440d862a336101aa565b5050505050506102cf565b5f828152602081815260408083206001600160a01b038516845290915281205460ff1661024a575f838152602081815260408083206001600160a01b03861684529091529020805460ff191660011790556102023390565b6001600160a01b0316826001600160a01b0316847f2f8788117e7eff1d82e926ec794901d17c78024a50270940304540a733656f0d60405160405180910390a450600161024d565b505f5b92915050565b80516001600160a01b0381168114610269575f80fd5b919050565b5f805f805f60a08688031215610282575f80fd5b61028b86610253565b945061029960208701610253565b93506102a760408701610253565b92506102b560608701610253565b91506102c360808701610253565b90509295509295909350565b60805160a05160c051611dde6103385f395f81816104610152610bf401525f81816103fe0152610a2701525f81816103260152818161089401528181610b6901528181610c7901528181610ed901528181610f9001528181610fcf01526112c40152611dde5ff3fe608060405234801561000f575f80fd5b50600436106101f1575f3560e01c8063805a9d7f11610114578063d547741f116100a9578063e63ab1e911610079578063e63ab1e9146104e6578063e63ea4081461050d578063e917f0ce14610520578063efc21e3f14610533578063f0f442601461053b575f80fd5b8063d547741f1461048b578063dcb2ee3c1461049e578063e02c792c146104c0578063e10030ab146104d3575f80fd5b80639886cdcd116100e45780639886cdcd14610433578063a217fddf14610455578063c6328a461461045c578063cdcdd54814610483575f80fd5b8063805a9d7f146103de5780638456cb59146103f157806384acd1bb146103f957806391d1485414610420575f80fd5b80632f2ff15d1161018a5780635c975abb1161015a5780635c975abb1461035057806361d027b31461035b57806369242d461461036e578063728c7f6d14610381575f80fd5b80632f2ff15d146102f957806336568abe1461030e5780633e413bee146103215780633f4ba83a14610348575f80fd5b80631d173064116101c55780631d17306414610280578063248a9ca31461029f578063252653aa146102c157806327146b6e146102c9575f80fd5b80621c4736146101f557806301ffc9a71461021b578063067bd07a1461023e578063118c38c714610259575b5f80fd5b6102086102033660046118b8565b61054e565b6040519081526020015b60405180910390f35b61022e6102293660046118cf565b61056d565b6040519015158152602001610212565b610246600181565b60405161ffff9091168152602001610212565b6102087f751b795d24b92e3d92d1d0d8f2885f4e9c9c269da350af36ae6b49069babf4bf81565b61020861028e36600461190c565b60056020525f908152604090205481565b6102086102ad3660046118b8565b5f9081526020819052604090206001015490565b610208606481565b6002546102e19061010090046001600160a01b031681565b6040516001600160a01b039091168152602001610212565b61030c61030736600461193b565b6105a3565b005b61030c61031c36600461193b565b6105cd565b6102e17f000000000000000000000000000000000000000000000000000000000000000081565b61030c610605565b60025460ff1661022e565b6003546102e1906001600160a01b031681565b61030c61037c366004611969565b61061a565b6103b961038f3660046118b8565b60066020525f90815260409020805460018201546002909201546001600160a01b03909116919083565b604080516001600160a01b039094168452602084019290925290820152606001610212565b61030c6103ec3660046118b8565b6106e0565b61030c610995565b6102e17f000000000000000000000000000000000000000000000000000000000000000081565b61022e61042e36600461193b565b6109c7565b61022e6104413660046118b8565b60046020525f908152604090205460ff1681565b6102085f81565b6102e17f000000000000000000000000000000000000000000000000000000000000000081565b610246601781565b61030c61049936600461193b565b6109ef565b61022e6104ac3660046118b8565b5f9081526004602052604090205460ff1690565b61030c6104ce366004611993565b610a13565b61030c6104e136600461190c565b61121a565b6102087f65d7a28e3265b37a6474929f336521b332c1681b933f6cb9f3376673440d862a81565b61030c61051b366004611a01565b611291565b61030c61052e366004611a3f565b6113b8565b610246601e81565b61030c610549366004611a3f565b61144d565b6007818154811061055d575f80fd5b5f91825260209091200154905081565b5f6001600160e01b03198216637965db0b60e01b148061059d57506301ffc9a760e01b6001600160e01b03198316145b92915050565b5f828152602081905260409020600101546105bd816114d8565b6105c783836114e2565b50505050565b6001600160a01b03811633146105f65760405163334bd91960e11b815260040160405180910390fd5b6106008282611571565b505050565b5f61060f816114d8565b6106176115da565b50565b7f751b795d24b92e3d92d1d0d8f2885f4e9c9c269da350af36ae6b49069babf4bf610644816114d8565b8161068c5760405162461bcd60e51b81526020600482015260136024820152725a45524f5f524f555445525f4144445245535360681b60448201526064015b60405180910390fd5b61ffff83165f81815260056020908152604091829020859055815192835282018490527f17a87d7d3465093636bb93fe83e351386985b865a9d4748fbc07d336e5d4328991015b60405180910390a1505050565b5f6106ea816114d8565b6106f261162c565b5f82815260066020526040902060018101546107415760405162461bcd60e51b815260206004820152600e60248201526d1393d7d1905253115117d352539560921b6044820152606401610683565b80546001808301545f86815260066020526040812080546001600160a01b031916815592830181905560029092018290556001600160a01b0390921691905b60075481101561082457856007828154811061079e5761079e611a5a565b905f5260205f2001540361081c57600780546107bc90600190611a82565b815481106107cc576107cc611a5a565b905f5260205f200154600782815481106107e8576107e8611a5a565b5f91825260209091200155600780548061080457610804611a95565b600190038181905f5260205f20015f90559055610824565b600101610780565b5060035460405163f3fef3a360e01b8152306004820152602481018390526001600160a01b039091169063f3fef3a3906044015f604051808303815f87803b15801561086e575f80fd5b505af1158015610880573d5f803e3d5ffd5b50506002546108c492506001600160a01b037f0000000000000000000000000000000000000000000000000000000000000000811692506101009091041683611656565b60025460405163da1919b360e01b81526001600160a01b038481166004830152602482018490525f926101009004169063da1919b3906044016020604051808303815f875af1158015610919573d5f803e3d5ffd5b505050506040513d601f19601f8201168201806040525081019061093d9190611aa9565b60408051848152602081018390529192506001600160a01b038516917f0735d2083d327ff9ed9ed771f88f6ce37cff815ed490ef4fd5a08c21fcc111ef910160405180910390a25050505061099160018055565b5050565b7f65d7a28e3265b37a6474929f336521b332c1681b933f6cb9f3376673440d862a6109bf816114d8565b610617611713565b5f918252602082815260408084206001600160a01b0393909316845291905290205460ff1690565b5f82815260208190526040902060010154610a09816114d8565b6105c78383611571565b610a1b61162c565b610a23611750565b5f807f00000000000000000000000000000000000000000000000000000000000000006001600160a01b031663c0fd8bde85856040518363ffffffff1660e01b8152600401610a73929190611ac0565b5f60405180830381865afa158015610a8d573d5f803e3d5ffd5b505050506040513d5f823e601f3d908101601f19168201604052610ab49190810190611c16565b509150915080610ad75760405163f9a6d57f60e01b815260040160405180910390fd5b6101408201515f9081526004602052604090205460ff1615610b0c57604051635b4e108160e11b815260040160405180910390fd5b606082015161ffff165f90815260056020526040902054801580610b34575082608001518114155b15610b5257604051636fdfe14160e01b815260040160405180910390fd5b6040516370a0823160e01b81523060048201525f907f00000000000000000000000000000000000000000000000000000000000000006001600160a01b0316906370a0823190602401602060405180830381865afa158015610bb6573d5f803e3d5ffd5b505050506040513d601f19601f82011682018060405250810190610bda9190611aa9565b60405163c687851960e01b81529091506001600160a01b037f0000000000000000000000000000000000000000000000000000000000000000169063c687851990610c2b9089908990600401611ac0565b5f604051808303815f87803b158015610c42575f80fd5b505af1158015610c54573d5f803e3d5ffd5b50506040516370a0823160e01b81523060048201525f92508391506001600160a01b037f000000000000000000000000000000000000000000000000000000000000000016906370a0823190602401602060405180830381865afa158015610cbe573d5f803e3d5ffd5b505050506040513d601f19601f82011682018060405250810190610ce29190611aa9565b610cec9190611a82565b90505f8111610d345760405162461bcd60e51b815260206004820152601460248201527316915493d7d05353d5539517d49150d15255915160621b6044820152606401610683565b60a58560e00151511015610d835760405162461bcd60e51b81526020600482015260166024820152750929cac82989288bea082b2989e8288be988a9c8ea8960531b6044820152606401610683565b8460e001515f81518110610d9957610d99611a5a565b60209101015160f81c600314610df15760405162461bcd60e51b815260206004820152601960248201527f4e4f545f5452414e534645525f574954485f5041594c4f4144000000000000006044820152606401610683565b5f60858660e0015151610e049190611a82565b67ffffffffffffffff811115610e1c57610e1c611aee565b6040519080825280601f01601f191660200182016040528015610e46576020820181803683370190505b5090505f5b8151811015610eaf5760e0870151610e64826085611d7a565b81518110610e7457610e74611a5a565b602001015160f81c60f81b828281518110610e9157610e91611a5a565b60200101906001600160f81b03191690815f1a905350600101610e4b565b505f81806020019051810190610ec59190611d8d565b600254909150610f07906001600160a01b037f000000000000000000000000000000000000000000000000000000000000000081169161010090041685611656565b60025460405163da1919b360e01b81526001600160a01b038381166004830152602482018690526101009092049091169063da1919b3906044016020604051808303815f875af1925050508015610f7b575060408051601f3d908101601f19168201909252610f7891810190611aa9565b60015b61112c57600254610fbe906001600160a01b037f00000000000000000000000000000000000000000000000000000000000000008116916101009004165f611656565b600354610ff8906001600160a01b037f00000000000000000000000000000000000000000000000000000000000000008116911685611776565b6007546064116110425760405162461bcd60e51b8152602060048201526015602482015274544f4f5f4d414e595f4641494c45445f4d494e545360581b6044820152606401610683565b604080516060810182526001600160a01b038381168083526020808401888152428587019081526101408e0180515f90815260068552888120975188546001600160a01b03191697169690961787559151600180880191909155905160029096019590955580516007805480880182559086527fa66cc928b5edb82af9bd49922954155ab7b0942694bea4ce44661d9a8736c6880155805184526004825292859020805460ff19169094179093559051835187815292830152917f2eb7d3ff389d0123778ae8b5a625997ab4d035a987df96094fba9916868f7be3910160405180910390a261119a565b610140880180515f90815260046020908152604091829020805460ff1916600117905591518151878152928301849052908201526001600160a01b038316907f2a918fef5c22ace574a9c1dfcee17a770fee80f34ab1df7098303166cd00fb1b9060600160405180910390a2505b806001600160a01b03167fa3d32fcd4a62500b8543c4da38de08f74b53cbb079b002f4e23077dbc7ecb16688606001518960800151868b6101400151604051611202949392919061ffff94909416845260208401929092526040830152606082015260800190565b60405180910390a25050505050505061099160018055565b7f751b795d24b92e3d92d1d0d8f2885f4e9c9c269da350af36ae6b49069babf4bf611244816114d8565b61ffff82165f8181526005602090815260408083209290925590519182527f7e0aa9f43078af04c562e85e422facc6c797105fe7cc20004c25c0966fff0769910160405180910390a15050565b5f61129b816114d8565b6001600160a01b0383166112c25760405163e6c4247b60e01b815260040160405180910390fd5b7f00000000000000000000000000000000000000000000000000000000000000006001600160a01b0316846001600160a01b0316141580611305575060025460ff165b6113515760405162461bcd60e51b815260206004820152601e60248201527f555344435f57495448445241575f4f4e4c595f5748454e5f50415553454400006044820152606401610683565b6113656001600160a01b0385168484611776565b826001600160a01b0316846001600160a01b03167f9495d03190a79a43e534c9e328ff322f6283261383f5f19c809564f6ad5a57b3846040516113aa91815260200190565b60405180910390a350505050565b5f6113c2816114d8565b6001600160a01b0382166113e95760405163e6c4247b60e01b815260040160405180910390fd5b600280546001600160a01b03848116610100818102610100600160a81b031985161790945560408051949093049091168084526020840191909152917f2934917ef7215887e304b63dda4f079d5b265e26f20aadafcb3143fc2d7c031891016106d3565b5f611457816114d8565b6001600160a01b03821661147e5760405163e6c4247b60e01b815260040160405180910390fd5b600380546001600160a01b038481166001600160a01b031983168117909355604080519190921680825260208201939093527f4ab5be82436d353e61ca18726e984e561f5c1cc7c6d38b29d2553c790434705a91016106d3565b61061781336117a7565b5f6114ed83836109c7565b61156a575f838152602081815260408083206001600160a01b03861684529091529020805460ff191660011790556115223390565b6001600160a01b0316826001600160a01b0316847f2f8788117e7eff1d82e926ec794901d17c78024a50270940304540a733656f0d60405160405180910390a450600161059d565b505f61059d565b5f61157c83836109c7565b1561156a575f838152602081815260408083206001600160a01b0386168085529252808320805460ff1916905551339286917ff6391f5c32d9c69d2a47ea670b442974b53935d1edc7fd64eb21e047a839171b9190a450600161059d565b6115e26117e0565b6002805460ff191690557f5db9ee0a495bf2e6ff9c91a7834c1ba4fdd244a5e8aa4e537bd38aeae4b073aa335b6040516001600160a01b03909116815260200160405180910390a1565b60026001540361164f57604051633ee5aeb560e01b815260040160405180910390fd5b6002600155565b604080516001600160a01b038416602482015260448082018490528251808303909101815260649091019091526020810180516001600160e01b031663095ea7b360e01b1790526116a78482611803565b6105c7576040516001600160a01b0384811660248301525f604483015261170991869182169063095ea7b3906064015b604051602081830303815290604052915060e01b6020820180516001600160e01b03838183161783525050505061184c565b6105c7848261184c565b61171b611750565b6002805460ff191660011790557f62e78cea01bee320cd4e420270b5ea74000d11b0c9f74754ebdbfc544b05a25861160f3390565b60025460ff16156117745760405163d93c066560e01b815260040160405180910390fd5b565b6040516001600160a01b0383811660248301526044820183905261060091859182169063a9059cbb906064016116d7565b6117b182826109c7565b6109915760405163e2517d3f60e01b81526001600160a01b038216600482015260248101839052604401610683565b60025460ff1661177457604051638dfc202b60e01b815260040160405180910390fd5b5f805f8060205f8651602088015f8a5af192503d91505f519050828015611842575081156118345780600114611842565b5f866001600160a01b03163b115b9695505050505050565b5f8060205f8451602086015f885af18061186b576040513d5f823e3d81fd5b50505f513d9150811561188257806001141561188f565b6001600160a01b0384163b155b156105c757604051635274afe760e01b81526001600160a01b0385166004820152602401610683565b5f602082840312156118c8575f80fd5b5035919050565b5f602082840312156118df575f80fd5b81356001600160e01b0319811681146118f6575f80fd5b9392505050565b61ffff81168114610617575f80fd5b5f6020828403121561191c575f80fd5b81356118f6816118fd565b6001600160a01b0381168114610617575f80fd5b5f806040838503121561194c575f80fd5b82359150602083013561195e81611927565b809150509250929050565b5f806040838503121561197a575f80fd5b8235611985816118fd565b946020939093013593505050565b5f80602083850312156119a4575f80fd5b823567ffffffffffffffff8111156119ba575f80fd5b8301601f810185136119ca575f80fd5b803567ffffffffffffffff8111156119e0575f80fd5b8560208284010111156119f1575f80fd5b6020919091019590945092505050565b5f805f60608486031215611a13575f80fd5b8335611a1e81611927565b92506020840135611a2e81611927565b929592945050506040919091013590565b5f60208284031215611a4f575f80fd5b81356118f681611927565b634e487b7160e01b5f52603260045260245ffd5b634e487b7160e01b5f52601160045260245ffd5b8181038181111561059d5761059d611a6e565b634e487b7160e01b5f52603160045260245ffd5b5f60208284031215611ab9575f80fd5b5051919050565b60208152816020820152818360408301375f818301604090810191909152601f909201601f19160101919050565b634e487b7160e01b5f52604160045260245ffd5b604051610160810167ffffffffffffffff81118282101715611b2657611b26611aee565b60405290565b805160ff81168114611b3c575f80fd5b919050565b805163ffffffff81168114611b3c575f80fd5b8051611b3c816118fd565b805167ffffffffffffffff81168114611b3c575f80fd5b5f82601f830112611b85575f80fd5b8151602083015f8067ffffffffffffffff841115611ba557611ba5611aee565b50604051601f19601f85018116603f0116810181811067ffffffffffffffff82111715611bd457611bd4611aee565b604052838152905080828401871015611beb575f80fd5b8383602083015e5f602085830101528094505050505092915050565b80518015158114611b3c575f80fd5b5f805f60608486031215611c28575f80fd5b835167ffffffffffffffff811115611c3e575f80fd5b84016101608187031215611c50575f80fd5b611c58611b02565b611c6182611b2c565b8152611c6f60208301611b41565b6020820152611c8060408301611b41565b6040820152611c9160608301611b54565b606082015260808281015190820152611cac60a08301611b5f565b60a0820152611cbd60c08301611b2c565b60c082015260e082015167ffffffffffffffff811115611cdb575f80fd5b611ce788828501611b76565b60e083015250611cfa6101008301611b41565b61010082015261012082015167ffffffffffffffff811115611d1a575f80fd5b611d2688828501611b76565b6101208301525061014091820151918101919091529250611d4960208501611c07565b9150604084015167ffffffffffffffff811115611d64575f80fd5b611d7086828701611b76565b9150509250925092565b8082018082111561059d5761059d611a6e565b5f60208284031215611d9d575f80fd5b81516118f68161192756fea264697066735822122028a6e5bc66c2ce104642f346bb97c29106563289cfff13dc32b3e796165dd97f64736f6c634300081a0033","linkReferences":{}},"methodIdentifiers":{"ARBITRUM_CHAIN_ID()":"cdcdd548","BASE_CHAIN_ID()":"efc21e3f","BRIDGE_ADMIN_ROLE()":"118c38c7","DEFAULT_ADMIN_ROLE()":"a217fddf","MAX_FAILED_MINTS()":"252653aa","PAUSER_ROLE()":"e63ab1e9","SOLANA_CHAIN_ID()":"067bd07a","authorizeRouter(uint16,bytes32)":"69242d46","authorizedRouters(uint16)":"1d173064","directMint()":"27146b6e","emergencyWithdraw(address,address,uint256)":"e63ea408","failedMintIds(uint256)":"001c4736","failedMints(bytes32)":"728c7f6d","getRoleAdmin(bytes32)":"248a9ca3","grantRole(bytes32,address)":"2f2ff15d","hasRole(bytes32,address)":"91d14854","isVAAProcessed(bytes32)":"dcb2ee3c","pause()":"8456cb59","paused()":"5c975abb","processedVAAs(bytes32)":"9886cdcd","receiveAndMint(bytes)":"e02c792c","renounceRole(bytes32,address)":"36568abe","retryFailedMint(bytes32)":"805a9d7f","revokeRole(bytes32,address)":"d547741f","revokeRouter(uint16)":"e10030ab","setDirectMint(address)":"e917f0ce","setTreasury(address)":"f0f44260","supportsInterface(bytes4)":"01ffc9a7","tokenBridge()":"c6328a46","treasury()":"61d027b3","unpause()":"3f4ba83a","usdc()":"3e413bee","wormhole()":"84acd1bb"},"id":14}