{"abi":[{"type":"constructor","inputs":[],"stateMutability":"nonpayable"},{"type":"function","name":"ADMIN_DELAY","inputs":[],"outputs":[{"name":"","type":"uint256","internalType":"uint256"}],"stateMutability":"view"},{"type":"function","name":"BORROW_MODULE_ROLE","inputs":[],"outputs":[{"name":"","type":"bytes32","internalType":"bytes32"}],"stateMutability":"view"},{"type":"function","name":"DEFAULT_ADMIN_ROLE","inputs":[],"outputs":[{"name":"","type":"bytes32","internalType":"bytes32"}],"stateMutability":"view"},{"type":"function","name":"LEVERAGE_VAULT_ROLE","inputs":[],"outputs":[{"name":"","type":"bytes32","internalType":"bytes32"}],"stateMutability":"view"},{"type":"function","name":"LIQUIDATION_ROLE","inputs":[],"outputs":[{"name":"","type":"bytes32","internalType":"bytes32"}],"stateMutability":"view"},{"type":"function","name":"PAUSER_ROLE","inputs":[],"outputs":[{"name":"","type":"bytes32","internalType":"bytes32"}],"stateMutability":"view"},{"type":"function","name":"UPGRADE_INTERFACE_VERSION","inputs":[],"outputs":[{"name":"","type":"string","internalType":"string"}],"stateMutability":"view"},{"type":"function","name":"VAULT_ADMIN_ROLE","inputs":[],"outputs":[{"name":"","type":"bytes32","internalType":"bytes32"}],"stateMutability":"view"},{"type":"function","name":"borrowModule","inputs":[],"outputs":[{"name":"","type":"address","internalType":"address"}],"stateMutability":"view"},{"type":"function","name":"cancelAddCollateral","inputs":[],"outputs":[],"stateMutability":"nonpayable"},{"type":"function","name":"cancelBorrowModule","inputs":[],"outputs":[],"stateMutability":"nonpayable"},{"type":"function","name":"cancelUpdateCollateral","inputs":[],"outputs":[],"stateMutability":"nonpayable"},{"type":"function","name":"collateralConfigs","inputs":[{"name":"","type":"address","internalType":"address"}],"outputs":[{"name":"enabled","type":"bool","internalType":"bool"},{"name":"collateralFactorBps","type":"uint256","internalType":"uint256"},{"name":"liquidationThresholdBps","type":"uint256","internalType":"uint256"},{"name":"liquidationPenaltyBps","type":"uint256","internalType":"uint256"}],"stateMutability":"view"},{"type":"function","name":"deposit","inputs":[{"name":"token","type":"address","internalType":"address"},{"name":"amount","type":"uint256","internalType":"uint256"}],"outputs":[],"stateMutability":"nonpayable"},{"type":"function","name":"depositFor","inputs":[{"name":"user","type":"address","internalType":"address"},{"name":"token","type":"address","internalType":"address"},{"name":"amount","type":"uint256","internalType":"uint256"}],"outputs":[],"stateMutability":"nonpayable"},{"type":"function","name":"deposits","inputs":[{"name":"","type":"address","internalType":"address"},{"name":"","type":"address","internalType":"address"}],"outputs":[{"name":"","type":"uint256","internalType":"uint256"}],"stateMutability":"view"},{"type":"function","name":"executeAddCollateral","inputs":[],"outputs":[],"stateMutability":"nonpayable"},{"type":"function","name":"executeBorrowModule","inputs":[],"outputs":[],"stateMutability":"nonpayable"},{"type":"function","name":"executeUpdateCollateral","inputs":[],"outputs":[],"stateMutability":"nonpayable"},{"type":"function","name":"getConfig","inputs":[{"name":"token","type":"address","internalType":"address"}],"outputs":[{"name":"enabled","type":"bool","internalType":"bool"},{"name":"collateralFactorBps","type":"uint256","internalType":"uint256"},{"name":"liquidationThresholdBps","type":"uint256","internalType":"uint256"},{"name":"liquidationPenaltyBps","type":"uint256","internalType":"uint256"}],"stateMutability":"view"},{"type":"function","name":"getRoleAdmin","inputs":[{"name":"role","type":"bytes32","internalType":"bytes32"}],"outputs":[{"name":"","type":"bytes32","internalType":"bytes32"}],"stateMutability":"view"},{"type":"function","name":"getSupportedTokens","inputs":[],"outputs":[{"name":"","type":"address[]","internalType":"address[]"}],"stateMutability":"view"},{"type":"function","name":"grantRole","inputs":[{"name":"role","type":"bytes32","internalType":"bytes32"},{"name":"account","type":"address","internalType":"address"}],"outputs":[],"stateMutability":"nonpayable"},{"type":"function","name":"hasRole","inputs":[{"name":"role","type":"bytes32","internalType":"bytes32"},{"name":"account","type":"address","internalType":"address"}],"outputs":[{"name":"","type":"bool","internalType":"bool"}],"stateMutability":"view"},{"type":"function","name":"initialize","inputs":[],"outputs":[],"stateMutability":"nonpayable"},{"type":"function","name":"pause","inputs":[],"outputs":[],"stateMutability":"nonpayable"},{"type":"function","name":"paused","inputs":[],"outputs":[{"name":"","type":"bool","internalType":"bool"}],"stateMutability":"view"},{"type":"function","name":"pendingAddCollateral","inputs":[],"outputs":[{"name":"token","type":"address","internalType":"address"},{"name":"collateralFactorBps","type":"uint256","internalType":"uint256"},{"name":"liquidationThresholdBps","type":"uint256","internalType":"uint256"},{"name":"liquidationPenaltyBps","type":"uint256","internalType":"uint256"},{"name":"requestTime","type":"uint256","internalType":"uint256"}],"stateMutability":"view"},{"type":"function","name":"pendingBorrowModule","inputs":[],"outputs":[{"name":"","type":"address","internalType":"address"}],"stateMutability":"view"},{"type":"function","name":"pendingBorrowModuleTime","inputs":[],"outputs":[{"name":"","type":"uint256","internalType":"uint256"}],"stateMutability":"view"},{"type":"function","name":"pendingUpdateCollateral","inputs":[],"outputs":[{"name":"token","type":"address","internalType":"address"},{"name":"collateralFactorBps","type":"uint256","internalType":"uint256"},{"name":"liquidationThresholdBps","type":"uint256","internalType":"uint256"},{"name":"liquidationPenaltyBps","type":"uint256","internalType":"uint256"},{"name":"requestTime","type":"uint256","internalType":"uint256"}],"stateMutability":"view"},{"type":"function","name":"proxiableUUID","inputs":[],"outputs":[{"name":"","type":"bytes32","internalType":"bytes32"}],"stateMutability":"view"},{"type":"function","name":"renounceRole","inputs":[{"name":"role","type":"bytes32","internalType":"bytes32"},{"name":"callerConfirmation","type":"address","internalType":"address"}],"outputs":[],"stateMutability":"nonpayable"},{"type":"function","name":"requestAddCollateral","inputs":[{"name":"token","type":"address","internalType":"address"},{"name":"collateralFactorBps","type":"uint256","internalType":"uint256"},{"name":"liquidationThresholdBps","type":"uint256","internalType":"uint256"},{"name":"liquidationPenaltyBps","type":"uint256","internalType":"uint256"}],"outputs":[],"stateMutability":"nonpayable"},{"type":"function","name":"requestBorrowModule","inputs":[{"name":"_borrowModule","type":"address","internalType":"address"}],"outputs":[],"stateMutability":"nonpayable"},{"type":"function","name":"requestUpdateCollateral","inputs":[{"name":"token","type":"address","internalType":"address"},{"name":"collateralFactorBps","type":"uint256","internalType":"uint256"},{"name":"liquidationThresholdBps","type":"uint256","internalType":"uint256"},{"name":"liquidationPenaltyBps","type":"uint256","internalType":"uint256"}],"outputs":[],"stateMutability":"nonpayable"},{"type":"function","name":"revokeRole","inputs":[{"name":"role","type":"bytes32","internalType":"bytes32"},{"name":"account","type":"address","internalType":"address"}],"outputs":[],"stateMutability":"nonpayable"},{"type":"function","name":"seize","inputs":[{"name":"user","type":"address","internalType":"address"},{"name":"token","type":"address","internalType":"address"},{"name":"amount","type":"uint256","internalType":"uint256"},{"name":"liquidator","type":"address","internalType":"address"}],"outputs":[],"stateMutability":"nonpayable"},{"type":"function","name":"supportedTokens","inputs":[{"name":"","type":"uint256","internalType":"uint256"}],"outputs":[{"name":"","type":"address","internalType":"address"}],"stateMutability":"view"},{"type":"function","name":"supportsInterface","inputs":[{"name":"interfaceId","type":"bytes4","internalType":"bytes4"}],"outputs":[{"name":"","type":"bool","internalType":"bool"}],"stateMutability":"view"},{"type":"function","name":"unpause","inputs":[],"outputs":[],"stateMutability":"nonpayable"},{"type":"function","name":"upgradeToAndCall","inputs":[{"name":"newImplementation","type":"address","internalType":"address"},{"name":"data","type":"bytes","internalType":"bytes"}],"outputs":[],"stateMutability":"payable"},{"type":"function","name":"withdraw","inputs":[{"name":"token","type":"address","internalType":"address"},{"name":"amount","type":"uint256","internalType":"uint256"},{"name":"user","type":"address","internalType":"address"}],"outputs":[],"stateMutability":"nonpayable"},{"type":"function","name":"withdrawFor","inputs":[{"name":"user","type":"address","internalType":"address"},{"name":"token","type":"address","internalType":"address"},{"name":"amount","type":"uint256","internalType":"uint256"},{"name":"recipient","type":"address","internalType":"address"},{"name":"skipHealthCheck","type":"bool","internalType":"bool"}],"outputs":[],"stateMutability":"nonpayable"},{"type":"event","name":"BorrowModuleChangeCancelled","inputs":[{"name":"module","type":"address","indexed":true,"internalType":"address"}],"anonymous":false},{"type":"event","name":"BorrowModuleChangeRequested","inputs":[{"name":"module","type":"address","indexed":true,"internalType":"address"},{"name":"readyAt","type":"uint256","indexed":false,"internalType":"uint256"}],"anonymous":false},{"type":"event","name":"BorrowModuleUpdated","inputs":[{"name":"oldModule","type":"address","indexed":true,"internalType":"address"},{"name":"newModule","type":"address","indexed":true,"internalType":"address"}],"anonymous":false},{"type":"event","name":"CollateralAddCancelled","inputs":[{"name":"token","type":"address","indexed":true,"internalType":"address"}],"anonymous":false},{"type":"event","name":"CollateralAddRequested","inputs":[{"name":"token","type":"address","indexed":true,"internalType":"address"},{"name":"factorBps","type":"uint256","indexed":false,"internalType":"uint256"},{"name":"liqThreshold","type":"uint256","indexed":false,"internalType":"uint256"},{"name":"readyAt","type":"uint256","indexed":false,"internalType":"uint256"}],"anonymous":false},{"type":"event","name":"CollateralAdded","inputs":[{"name":"token","type":"address","indexed":true,"internalType":"address"},{"name":"collateralFactorBps","type":"uint256","indexed":false,"internalType":"uint256"},{"name":"liquidationThresholdBps","type":"uint256","indexed":false,"internalType":"uint256"}],"anonymous":false},{"type":"event","name":"CollateralDisabled","inputs":[{"name":"token","type":"address","indexed":true,"internalType":"address"}],"anonymous":false},{"type":"event","name":"CollateralEnabled","inputs":[{"name":"token","type":"address","indexed":true,"internalType":"address"}],"anonymous":false},{"type":"event","name":"CollateralUpdateCancelled","inputs":[{"name":"token","type":"address","indexed":true,"internalType":"address"}],"anonymous":false},{"type":"event","name":"CollateralUpdateRequested","inputs":[{"name":"token","type":"address","indexed":true,"internalType":"address"},{"name":"factorBps","type":"uint256","indexed":false,"internalType":"uint256"},{"name":"liqThreshold","type":"uint256","indexed":false,"internalType":"uint256"},{"name":"readyAt","type":"uint256","indexed":false,"internalType":"uint256"}],"anonymous":false},{"type":"event","name":"CollateralUpdated","inputs":[{"name":"token","type":"address","indexed":true,"internalType":"address"},{"name":"collateralFactorBps","type":"uint256","indexed":false,"internalType":"uint256"},{"name":"liquidationThresholdBps","type":"uint256","indexed":false,"internalType":"uint256"}],"anonymous":false},{"type":"event","name":"Deposited","inputs":[{"name":"user","type":"address","indexed":true,"internalType":"address"},{"name":"token","type":"address","indexed":true,"internalType":"address"},{"name":"amount","type":"uint256","indexed":false,"internalType":"uint256"}],"anonymous":false},{"type":"event","name":"Initialized","inputs":[{"name":"version","type":"uint64","indexed":false,"internalType":"uint64"}],"anonymous":false},{"type":"event","name":"Paused","inputs":[{"name":"account","type":"address","indexed":false,"internalType":"address"}],"anonymous":false},{"type":"event","name":"RoleAdminChanged","inputs":[{"name":"role","type":"bytes32","indexed":true,"internalType":"bytes32"},{"name":"previousAdminRole","type":"bytes32","indexed":true,"internalType":"bytes32"},{"name":"newAdminRole","type":"bytes32","indexed":true,"internalType":"bytes32"}],"anonymous":false},{"type":"event","name":"RoleGranted","inputs":[{"name":"role","type":"bytes32","indexed":true,"internalType":"bytes32"},{"name":"account","type":"address","indexed":true,"internalType":"address"},{"name":"sender","type":"address","indexed":true,"internalType":"address"}],"anonymous":false},{"type":"event","name":"RoleRevoked","inputs":[{"name":"role","type":"bytes32","indexed":true,"internalType":"bytes32"},{"name":"account","type":"address","indexed":true,"internalType":"address"},{"name":"sender","type":"address","indexed":true,"internalType":"address"}],"anonymous":false},{"type":"event","name":"Seized","inputs":[{"name":"user","type":"address","indexed":true,"internalType":"address"},{"name":"token","type":"address","indexed":true,"internalType":"address"},{"name":"amount","type":"uint256","indexed":false,"internalType":"uint256"},{"name":"liquidator","type":"address","indexed":true,"internalType":"address"}],"anonymous":false},{"type":"event","name":"Unpaused","inputs":[{"name":"account","type":"address","indexed":false,"internalType":"address"}],"anonymous":false},{"type":"event","name":"Upgraded","inputs":[{"name":"implementation","type":"address","indexed":true,"internalType":"address"}],"anonymous":false},{"type":"event","name":"Withdrawn","inputs":[{"name":"user","type":"address","indexed":true,"internalType":"address"},{"name":"token","type":"address","indexed":true,"internalType":"address"},{"name":"amount","type":"uint256","indexed":false,"internalType":"uint256"}],"anonymous":false},{"type":"error","name":"AccessControlBadConfirmation","inputs":[]},{"type":"error","name":"AccessControlUnauthorizedAccount","inputs":[{"name":"account","type":"address","internalType":"address"},{"name":"neededRole","type":"bytes32","internalType":"bytes32"}]},{"type":"error","name":"AddressEmptyCode","inputs":[{"name":"target","type":"address","internalType":"address"}]},{"type":"error","name":"ERC1967InvalidImplementation","inputs":[{"name":"implementation","type":"address","internalType":"address"}]},{"type":"error","name":"ERC1967NonPayable","inputs":[]},{"type":"error","name":"EnforcedPause","inputs":[]},{"type":"error","name":"ExpectedPause","inputs":[]},{"type":"error","name":"FailedCall","inputs":[]},{"type":"error","name":"InvalidInitialization","inputs":[]},{"type":"error","name":"NotInitializing","inputs":[]},{"type":"error","name":"ReentrancyGuardReentrantCall","inputs":[]},{"type":"error","name":"SafeERC20FailedOperation","inputs":[{"name":"token","type":"address","internalType":"address"}]},{"type":"error","name":"UUPSUnauthorizedCallContext","inputs":[]},{"type":"error","name":"UUPSUnsupportedProxiableUUID","inputs":[{"name":"slot","type":"bytes32","internalType":"bytes32"}]}],"bytecode":{"object":"0x60a060405230608052348015610013575f80fd5b5061001c610021565b6100d3565b7ff0c57e16840df040f15088dc2f81fe391c3923bec73e23a9662efc9c229c6a00805468010000000000000000900460ff16156100715760405163f92ee8a960e01b815260040160405180910390fd5b80546001600160401b03908116146100d05780546001600160401b0319166001600160401b0390811782556040519081527fc7f505b2f371ae2175ee4913f4499e1f2633a7b5936321eed1cdaeb6115181d29060200160405180910390a15b50565b608051612d376100f95f395f81816122f001528181612319015261245a0152612d375ff3fe60806040526004361061025f575f3560e01c80638cf18e641161013f578063b8da004b116100b3578063d3c7c2c711610078578063d3c7c2c7146107bd578063d547741f146107de578063e48a5f7b146107fd578063e63ab1e91461086e578063e9115a9d146108a1578063f17a8e8a146108b5575f80fd5b8063b8da004b14610738578063c62556261461074c578063c8491cda1461076b578063cb0694a11461078a578063cb1b7ac11461079e575f80fd5b8063a217fddf11610104578063a217fddf14610648578063a30811c81461065b578063ad3cb1cc1461067a578063ae0e0125146106b7578063b3165950146106ea578063b3db428b14610719575f80fd5b80638cf18e64146105545780638f601f66146105bd57806391d14854146105f357806392ffacac146106125780639e34111914610628575f80fd5b80635283e72f116101d6578063684c3b591161019b578063684c3b59146104c657806369328dec146104e55780636d881314146105045780637956cd0c146105185780638129fc1c1461052c5780638456cb5914610540575f80fd5b80635283e72f1461040557806352d1902d1461046657806358dedee31461047a57806359b986741461048e5780635c975abb146104a3575f80fd5b80632f2ff15d116102275780632f2ff15d1461034e57806336568abe1461036d5780633d34e3e41461038c5780633f4ba83a146103bf57806347e7ef24146103d35780634f1ef286146103f2575f80fd5b806301ffc9a714610263578063071ea3e31461029757806319833dd1146102b8578063248a9ca3146102f957806325384fd814610318575b5f80fd5b34801561026e575f80fd5b5061028261027d36600461280a565b6108d4565b60405190151581526020015b60405180910390f35b3480156102a2575f80fd5b506102b66102b136600461284c565b61090a565b005b3480156102c3575f80fd5b506102eb7fed5c12ee051a37a1c77138a0efb16a50dc2d175d59f2b1373c4195c4721cf9cb81565b60405190815260200161028e565b348015610304575f80fd5b506102eb6103133660046128ae565b610a7d565b348015610323575f80fd5b505f54610336906001600160a01b031681565b6040516001600160a01b03909116815260200161028e565b348015610359575f80fd5b506102b66103683660046128c5565b610a9d565b348015610378575f80fd5b506102b66103873660046128c5565b610abf565b348015610397575f80fd5b506102eb7f62f9f791f044a997d2927869f031db85cde39144d6412d7269c2c98c5304326b81565b3480156103ca575f80fd5b506102b6610af7565b3480156103de575f80fd5b506102b66103ed3660046128ef565b610b0c565b6102b661040036600461292b565b610c5d565b348015610410575f80fd5b50600b54600c54600d54600e54600f54610434946001600160a01b03169392919085565b604080516001600160a01b0390961686526020860194909452928401919091526060830152608082015260a00161028e565b348015610471575f80fd5b506102eb610c78565b348015610485575f80fd5b506102b6610c93565b348015610499575f80fd5b506102eb60055481565b3480156104ae575f80fd5b505f80516020612cc28339815191525460ff16610282565b3480156104d1575f80fd5b506102b66104e03660046129ef565b610e4e565b3480156104f0575f80fd5b506102b66104ff366004612a25565b6110e3565b34801561050f575f80fd5b506102b6611291565b348015610523575f80fd5b506102b661135f565b348015610537575f80fd5b506102b66114d0565b34801561054b575f80fd5b506102b6611601565b34801561055f575f80fd5b5061059b61056e366004612a5e565b600160208190525f9182526040909120805491810154600282015460039092015460ff9093169290919084565b604080519415158552602085019390935291830152606082015260800161028e565b3480156105c8575f80fd5b506102eb6105d7366004612a77565b600360209081525f928352604080842090915290825290205481565b3480156105fe575f80fd5b5061028261060d3660046128c5565b611633565b34801561061d575f80fd5b506102eb6202a30081565b348015610633575f80fd5b506102eb5f80516020612c6283398151915281565b348015610653575f80fd5b506102eb5f81565b348015610666575f80fd5b506102b6610675366004612a9f565b611669565b348015610685575f80fd5b506106aa604051806040016040528060058152602001640352e302e360dc1b81525081565b60405161028e9190612ae9565b3480156106c2575f80fd5b506102eb7f78dee7707521b7c9b92b1070cc1d51daeefd47d09898061ee53bff95426cbe5481565b3480156106f5575f80fd5b50600654600754600854600954600a54610434946001600160a01b03169392919085565b348015610724575f80fd5b506102b6610733366004612b1e565b6117cd565b348015610743575f80fd5b506102b6611956565b348015610757575f80fd5b506103366107663660046128ae565b6119cc565b348015610776575f80fd5b50600454610336906001600160a01b031681565b348015610795575f80fd5b506102b66119f4565b3480156107a9575f80fd5b506102b66107b83660046129ef565b611a6a565b3480156107c8575f80fd5b506107d1611d1d565b60405161028e9190612b58565b3480156107e9575f80fd5b506102b66107f83660046128c5565b611d7d565b348015610808575f80fd5b5061059b610817366004612a5e565b6001600160a01b03165f908152600160208181526040928390208351608081018552815460ff1615158082529382015492810183905260028201549481018590526003909101546060909101819052919390929190565b348015610879575f80fd5b506102eb7f65d7a28e3265b37a6474929f336521b332c1681b933f6cb9f3376673440d862a81565b3480156108ac575f80fd5b506102b6611d99565b3480156108c0575f80fd5b506102b66108cf366004612a5e565b611e00565b5f6001600160e01b03198216637965db0b60e01b148061090457506301ffc9a760e01b6001600160e01b03198316145b92915050565b610912611f12565b61091a611f49565b7f62f9f791f044a997d2927869f031db85cde39144d6412d7269c2c98c5304326b61094481611f7b565b6001600160a01b038087165f908152600360209081526040808320938916835292905220548411156109b45760405162461bcd60e51b8152602060048201526014602482015273494e53554646494349454e545f42414c414e434560601b60448201526064015b60405180910390fd5b6001600160a01b038087165f908152600360209081526040808320938916835292905290812080548692906109ea908490612bb7565b90915550610a0490506001600160a01b0386168486611f85565b846001600160a01b0316866001600160a01b03167fd1c19fbcd4551a5edfb66d43d2e337c04837afda3482b42bdf569a8fccdae5fb86604051610a4991815260200190565b60405180910390a381610a5f57610a5f86611fe4565b50610a7660015f80516020612ce283398151915255565b5050505050565b5f9081525f80516020612ca2833981519152602052604090206001015490565b610aa682610a7d565b610aaf81611f7b565b610ab98383612133565b50505050565b6001600160a01b0381163314610ae85760405163334bd91960e11b815260040160405180910390fd5b610af282826121d4565b505050565b5f610b0181611f7b565b610b0961224d565b50565b610b14611f12565b610b1c611f49565b6001600160a01b0382165f9081526001602052604090205460ff16610b795760405162461bcd60e51b81526020600482015260136024820152721513d2d15397d393d517d4d5541413d4951151606a1b60448201526064016109ab565b5f8111610bb65760405162461bcd60e51b815260206004820152600b60248201526a16915493d7d05353d5539560aa1b60448201526064016109ab565b335f9081526003602090815260408083206001600160a01b038616845290915281208054839290610be8908490612bca565b90915550610c0390506001600160a01b0383163330846122ac565b6040518181526001600160a01b0383169033907f8752a472e571a816aea92eec8dae9baf628e840f4929fbcc2d155e6233ff68a79060200160405180910390a3610c5960015f80516020612ce283398151915255565b5050565b610c656122e5565b610c6e82612389565b610c598282612393565b5f610c8161244f565b505f80516020612c8283398151915290565b5f80516020612c62833981519152610caa81611f7b565b6040805160a0810182526006546001600160a01b03168082526007546020830152600854928201929092526009546060820152600a54608082015290610d025760405162461bcd60e51b81526004016109ab90612bdd565b6202a3008160800151610d159190612bca565b421015610d345760405162461bcd60e51b81526004016109ab90612c06565b6040805160808101825260018082526020848101805182850190815286860180518688019081526060808a015190880190815289516001600160a01b039081165f9081528888528a812099518a5490151560ff19909116178a5594518989015591516002808a019190915590516003909801979097558851875496870188559683527f405787fa12a823e0f2b7631cc41b3ba8828b3321ca811111fa75cd3aa3bb5ace90950180549686166001600160a01b031997881617905560068054909616909555600781905560088190556009819055600a5585519051935185519485529184019190915216917f11f8990ac38271f23dea447d5728e9914fca7cea2edda43af6c43c415f8bc30b91015b60405180910390a25050565b5f80516020612c62833981519152610e6581611f7b565b6001600160a01b0385165f9081526001602052604090205460ff16610ebf5760405162461bcd60e51b815260206004820152601060248201526f544f4b454e5f4e4f545f41435449564560801b60448201526064016109ab565b612328841115610f035760405162461bcd60e51b815260206004820152600f60248201526e08c8286a89ea4bea89e9ebe90928e9608b1b60448201526064016109ab565b838311610f525760405162461bcd60e51b815260206004820152601c60248201527f5448524553484f4c445f4d5553545f4558434545445f464143544f520000000060448201526064016109ab565b61251c831115610f995760405162461bcd60e51b81526020600482015260126024820152710a890a48aa6909e9888bea89e9ebe90928e960731b60448201526064016109ab565b6107d0821115610fde5760405162461bcd60e51b815260206004820152601060248201526f0a08a9c8298a8b2bea89e9ebe90928e960831b60448201526064016109ab565b600b546001600160a01b0316156110305760405162461bcd60e51b81526020600482015260166024820152755550444154455f414c52454144595f50454e44494e4760501b60448201526064016109ab565b6040805160a0810182526001600160a01b0387168082526020820187905291810185905260608101849052426080909101819052600b80546001600160a01b03191683179055600c869055600d859055600e849055600f8190557ff5ac7efdc1928d83f1c532265b49124fa134d95307bdb67b3590348ec950f4d590869086906110be906202a30090612bca565b6040805193845260208401929092529082015260600160405180910390a25050505050565b6110eb611f12565b6110f3611f49565b336001600160a01b038216148061112f575061112f7fed5c12ee051a37a1c77138a0efb16a50dc2d175d59f2b1373c4195c4721cf9cb33611633565b61116a5760405162461bcd60e51b815260206004820152600c60248201526b15539055551213d49256915160a21b60448201526064016109ab565b6001600160a01b038082165f908152600360209081526040808320938716835292905220548211156111d55760405162461bcd60e51b8152602060048201526014602482015273494e53554646494349454e545f42414c414e434560601b60448201526064016109ab565b6001600160a01b038082165f9081526003602090815260408083209387168352929052908120805484929061120b908490612bb7565b9091555061122590506001600160a01b0384168284611f85565b826001600160a01b0316816001600160a01b03167fd1c19fbcd4551a5edfb66d43d2e337c04837afda3482b42bdf569a8fccdae5fb8460405161126a91815260200190565b60405180910390a361127b81611fe4565b610af260015f80516020612ce283398151915255565b5f80516020612c628339815191526112a881611f7b565b6004546001600160a01b03166112d05760405162461bcd60e51b81526004016109ab90612bdd565b6202a3006005546112e19190612bca565b4210156113005760405162461bcd60e51b81526004016109ab90612c06565b5f8054600480546001600160a01b038082166001600160a01b0319808616821787559092169092556005849055604051919092169283917fd52c1ecbae4ae409c118e97f7f64527e33c3611531cb0c5d8a0e58088656b2399190a35050565b5f80516020612c6283398151915261137681611f7b565b6040805160a081018252600b546001600160a01b0316808252600c546020830152600d5492820192909252600e546060820152600f546080820152906113ce5760405162461bcd60e51b81526004016109ab90612bdd565b6202a30081608001516113e19190612bca565b4210156114005760405162461bcd60e51b81526004016109ab90612c06565b6040805160808101825260018082526020848101805182850190815286860180518688019081526060808a015190880190815289516001600160a01b039081165f9081528888528a812099518a5460ff1916901515178a559451978901979097559051600288015551600390960195909555600b80546001600160a01b0319169055600c819055600d819055600e819055600f5585519051935185519485529184019190915216917f3644d2a390eea00a34467e13ab98e7f12fef446495d773df2d880d49cda51f909101610e42565b5f6114d9612498565b805490915060ff600160401b820416159067ffffffffffffffff165f811580156115005750825b90505f8267ffffffffffffffff16600114801561151c5750303b155b90508115801561152a575080155b156115485760405163f92ee8a960e01b815260040160405180910390fd5b845467ffffffffffffffff19166001178555831561157257845460ff60401b1916600160401b1785555b61157a6124c0565b6115826124c8565b61158a6124c0565b6115926124c0565b61159c5f33612133565b506115b45f80516020612c6283398151915233612133565b508315610a7657845460ff60401b19168555604051600181527fc7f505b2f371ae2175ee4913f4499e1f2633a7b5936321eed1cdaeb6115181d29060200160405180910390a15050505050565b7f65d7a28e3265b37a6474929f336521b332c1681b933f6cb9f3376673440d862a61162b81611f7b565b610b096124d8565b5f9182525f80516020612ca2833981519152602090815260408084206001600160a01b0393909316845291905290205460ff1690565b611671611f12565b7f78dee7707521b7c9b92b1070cc1d51daeefd47d09898061ee53bff95426cbe5461169b81611f7b565b6001600160a01b038086165f9081526003602090815260408083209388168352929052205483111561170f5760405162461bcd60e51b815260206004820152601760248201527f494e53554646494349454e545f434f4c4c41544552414c00000000000000000060448201526064016109ab565b6001600160a01b038086165f90815260036020908152604080832093881683529290529081208054859290611745908490612bb7565b9091555061175f90506001600160a01b0385168385611f85565b816001600160a01b0316846001600160a01b0316866001600160a01b03167ff413511b5d4c6faecbce9894d2b68fa3eb45529cb2186cd2e07e638fc41a94da866040516117ae91815260200190565b60405180910390a450610ab960015f80516020612ce283398151915255565b6117d5611f12565b6117dd611f49565b7f62f9f791f044a997d2927869f031db85cde39144d6412d7269c2c98c5304326b61180781611f7b565b6001600160a01b0383165f9081526001602052604090205460ff166118645760405162461bcd60e51b81526020600482015260136024820152721513d2d15397d393d517d4d5541413d4951151606a1b60448201526064016109ab565b5f82116118a15760405162461bcd60e51b815260206004820152600b60248201526a16915493d7d05353d5539560aa1b60448201526064016109ab565b6001600160a01b038085165f908152600360209081526040808320938716835292905290812080548492906118d7908490612bca565b909155506118f290506001600160a01b0384163330856122ac565b826001600160a01b0316846001600160a01b03167f8752a472e571a816aea92eec8dae9baf628e840f4929fbcc2d155e6233ff68a78460405161193791815260200190565b60405180910390a350610af260015f80516020612ce283398151915255565b5f80516020612c6283398151915261196d81611f7b565b600680546001600160a01b031981169091555f600781905560088190556009819055600a8190556040516001600160a01b039092169182917f47ecf13c48ac7abe6942c40e74a85de9348d3bef572a448080d7f9b30db8288391a25050565b600281815481106119db575f80fd5b5f918252602090912001546001600160a01b0316905081565b5f80516020612c62833981519152611a0b81611f7b565b600b80546001600160a01b031981169091555f600c819055600d819055600e819055600f8190556040516001600160a01b039092169182917fe26325141857cbdb5bdf7499680d63926af6a26db53b2c620fd50cb606eb4c1091a25050565b5f80516020612c62833981519152611a8181611f7b565b6001600160a01b038516611ac75760405162461bcd60e51b815260206004820152600d60248201526c24a72b20a624a22faa27a5a2a760991b60448201526064016109ab565b6001600160a01b0385165f9081526001602052604090205460ff1615611b215760405162461bcd60e51b815260206004820152600f60248201526e1053149150511657d1539050931151608a1b60448201526064016109ab565b612328841115611b655760405162461bcd60e51b815260206004820152600f60248201526e08c8286a89ea4bea89e9ebe90928e9608b1b60448201526064016109ab565b838311611bb45760405162461bcd60e51b815260206004820152601c60248201527f5448524553484f4c445f4d5553545f4558434545445f464143544f520000000060448201526064016109ab565b61251c831115611bfb5760405162461bcd60e51b81526020600482015260126024820152710a890a48aa6909e9888bea89e9ebe90928e960731b60448201526064016109ab565b6107d0821115611c405760405162461bcd60e51b815260206004820152601060248201526f0a08a9c8298a8b2bea89e9ebe90928e960831b60448201526064016109ab565b6006546001600160a01b031615611c8f5760405162461bcd60e51b81526020600482015260136024820152724144445f414c52454144595f50454e44494e4760681b60448201526064016109ab565b6040805160a0810182526001600160a01b0387168082526020820187905291810185905260608101849052426080909101819052600680546001600160a01b03191683179055600786905560088590556009849055600a8190557f17a1dcae3aaa4cff6e64615f6eca63d68783329b82d385d1feaa64f1c8f9450390869086906110be906202a30090612bca565b60606002805480602002602001604051908101604052809291908181526020018280548015611d7357602002820191905f5260205f20905b81546001600160a01b03168152600190910190602001808311611d55575b5050505050905090565b611d8682610a7d565b611d8f81611f7b565b610ab983836121d4565b5f80516020612c62833981519152611db081611f7b565b600480546001600160a01b031981169091555f60058190556040516001600160a01b039092169182917f3cd6b4e7357bdfdf504c889756d478991cf538ac37bdce76cc170135dfa036ef91a25050565b5f80516020612c62833981519152611e1781611f7b565b6001600160a01b038216611e5e5760405162461bcd60e51b815260206004820152600e60248201526d494e56414c49445f4d4f44554c4560901b60448201526064016109ab565b6004546001600160a01b031615611eb05760405162461bcd60e51b81526020600482015260166024820152754348414e47455f414c52454144595f50454e44494e4760501b60448201526064016109ab565b600480546001600160a01b0319166001600160a01b0384169081179091554260058190557f86e7ac9e014c8941d553a14a002e2ff6da38af1d82ac50fd5e7de94c4f9977a990611f04906202a30090612bca565b604051908152602001610e42565b5f80516020612ce2833981519152805460011901611f4357604051633ee5aeb560e01b815260040160405180910390fd5b60029055565b5f80516020612cc28339815191525460ff1615611f795760405163d93c066560e01b815260040160405180910390fd5b565b610b098133612520565b6040516001600160a01b03838116602483015260448201839052610af291859182169063a9059cbb906064015b604051602081830303815290604052915060e01b6020820180516001600160e01b038381831617835250505050612559565b5f546001600160a01b031615610b09575f8054604051631ff517ff60e01b81526001600160a01b03848116600483015290911690631ff517ff90602401602060405180830381865afa15801561203c573d5f803e3d5ffd5b505050506040513d601f19601f820116820180604052508101906120609190612c34565b90508015610c59575f8054604051636ad9f9df60e01b81526001600160a01b03858116600483015290911690636ad9f9df90602401602060405180830381865afa1580156120b0573d5f803e3d5ffd5b505050506040513d601f19601f820116820180604052508101906120d49190612c34565b9050612710811015610af25760405162461bcd60e51b81526020600482015260156024820152744845414c54485f464143544f525f544f4f5f4c4f5760581b60448201526064016109ab565b60015f80516020612ce283398151915255565b5f5f80516020612ca283398151915261214c8484611633565b6121cb575f848152602082815260408083206001600160a01b03871684529091529020805460ff191660011790556121813390565b6001600160a01b0316836001600160a01b0316857f2f8788117e7eff1d82e926ec794901d17c78024a50270940304540a733656f0d60405160405180910390a46001915050610904565b5f915050610904565b5f5f80516020612ca28339815191526121ed8484611633565b156121cb575f848152602082815260408083206001600160a01b0387168085529252808320805460ff1916905551339287917ff6391f5c32d9c69d2a47ea670b442974b53935d1edc7fd64eb21e047a839171b9190a46001915050610904565b6122556125c5565b5f80516020612cc2833981519152805460ff191681557f5db9ee0a495bf2e6ff9c91a7834c1ba4fdd244a5e8aa4e537bd38aeae4b073aa335b6040516001600160a01b03909116815260200160405180910390a150565b6040516001600160a01b038481166024830152838116604483015260648201839052610ab99186918216906323b872dd90608401611fb2565b306001600160a01b037f000000000000000000000000000000000000000000000000000000000000000016148061236b57507f00000000000000000000000000000000000000000000000000000000000000006001600160a01b031661235f5f80516020612c82833981519152546001600160a01b031690565b6001600160a01b031614155b15611f795760405163703e46dd60e11b815260040160405180910390fd5b5f610c5981611f7b565b816001600160a01b03166352d1902d6040518163ffffffff1660e01b8152600401602060405180830381865afa9250505080156123ed575060408051601f3d908101601f191682019092526123ea91810190612c34565b60015b61241557604051634c9c8ce360e01b81526001600160a01b03831660048201526024016109ab565b5f80516020612c82833981519152811461244557604051632a87526960e21b8152600481018290526024016109ab565b610af283836125f4565b306001600160a01b037f00000000000000000000000000000000000000000000000000000000000000001614611f795760405163703e46dd60e11b815260040160405180910390fd5b5f807ff0c57e16840df040f15088dc2f81fe391c3923bec73e23a9662efc9c229c6a00610904565b611f79612649565b6124d0612649565b611f7961266e565b6124e0611f49565b5f80516020612cc2833981519152805460ff191660011781557f62e78cea01bee320cd4e420270b5ea74000d11b0c9f74754ebdbfc544b05a2583361228e565b61252a8282611633565b610c595760405163e2517d3f60e01b81526001600160a01b0382166004820152602481018390526044016109ab565b5f8060205f8451602086015f885af180612578576040513d5f823e3d81fd5b50505f513d9150811561258f57806001141561259c565b6001600160a01b0384163b155b15610ab957604051635274afe760e01b81526001600160a01b03851660048201526024016109ab565b5f80516020612cc28339815191525460ff16611f7957604051638dfc202b60e01b815260040160405180910390fd5b6125fd82612676565b6040516001600160a01b038316907fbc7cd75a20ee27fd9adebab32041f755214dbc6bffa90cc0225b39da2e5c2d3b905f90a280511561264157610af282826126d9565b610c5961274b565b61265161276a565b611f7957604051631afcd79f60e31b815260040160405180910390fd5b612120612649565b806001600160a01b03163b5f036126ab57604051634c9c8ce360e01b81526001600160a01b03821660048201526024016109ab565b5f80516020612c8283398151915280546001600160a01b0319166001600160a01b0392909216919091179055565b60605f80846001600160a01b0316846040516126f59190612c4b565b5f60405180830381855af49150503d805f811461272d576040519150601f19603f3d011682016040523d82523d5f602084013e612732565b606091505b5091509150612742858383612783565b95945050505050565b3415611f795760405163b398979f60e01b815260040160405180910390fd5b5f612773612498565b54600160401b900460ff16919050565b60608261279857612793826127e2565b6127db565b81511580156127af57506001600160a01b0384163b155b156127d857604051639996b31560e01b81526001600160a01b03851660048201526024016109ab565b50805b9392505050565b8051156127f157805160208201fd5b60405163d6bda27560e01b815260040160405180910390fd5b5f6020828403121561281a575f80fd5b81356001600160e01b0319811681146127db575f80fd5b80356001600160a01b0381168114612847575f80fd5b919050565b5f805f805f60a08688031215612860575f80fd5b61286986612831565b945061287760208701612831565b93506040860135925061288c60608701612831565b9150608086013580151581146128a0575f80fd5b809150509295509295909350565b5f602082840312156128be575f80fd5b5035919050565b5f80604083850312156128d6575f80fd5b823591506128e660208401612831565b90509250929050565b5f8060408385031215612900575f80fd5b61290983612831565b946020939093013593505050565b634e487b7160e01b5f52604160045260245ffd5b5f806040838503121561293c575f80fd5b61294583612831565b9150602083013567ffffffffffffffff811115612960575f80fd5b8301601f81018513612970575f80fd5b803567ffffffffffffffff81111561298a5761298a612917565b604051601f8201601f19908116603f0116810167ffffffffffffffff811182821017156129b9576129b9612917565b6040528181528282016020018710156129d0575f80fd5b816020840160208301375f602083830101528093505050509250929050565b5f805f8060808587031215612a02575f80fd5b612a0b85612831565b966020860135965060408601359560600135945092505050565b5f805f60608486031215612a37575f80fd5b612a4084612831565b925060208401359150612a5560408501612831565b90509250925092565b5f60208284031215612a6e575f80fd5b6127db82612831565b5f8060408385031215612a88575f80fd5b612a9183612831565b91506128e660208401612831565b5f805f8060808587031215612ab2575f80fd5b612abb85612831565b9350612ac960208601612831565b925060408501359150612ade60608601612831565b905092959194509250565b602081525f82518060208401528060208501604085015e5f604082850101526040601f19601f83011684010191505092915050565b5f805f60608486031215612b30575f80fd5b612b3984612831565b9250612b4760208501612831565b929592945050506040919091013590565b602080825282518282018190525f918401906040840190835b81811015612b985783516001600160a01b0316835260209384019390920191600101612b71565b509095945050505050565b634e487b7160e01b5f52601160045260245ffd5b8181038181111561090457610904612ba3565b8082018082111561090457610904612ba3565b6020808252600f908201526e4e4f5448494e475f50454e44494e4760881b604082015260600190565b602080825260149082015273151253515313d0d2d7d393d517d153105414d15160621b604082015260600190565b5f60208284031215612c44575f80fd5b5051919050565b5f82518060208501845e5f92019182525091905056fe7edcee67725a77bfa311b39349d7e96df9b23fbdbdcb328dfc17d77926920c13360894a13ba1a3210667c828492db98dca3e2076cc3735a920a3ca505d382bbc02dd7bc7dec4dceedda775e58dd541e08a116c6c53815c0bd028192f7b626800cd5ed15c6e187e77e9aee88184c21f4f2182ab5827cb3b7e07fbedcd63f033009b779b17422d0df92223018b32b4d1fa46e071723d6817e2486d003becc55f00a2646970667358221220d08d3f06c0d180e9f55fa02c84bcaeeb793118773bb5a7b88c300978b296f83364736f6c634300081a0033","linkReferences":{}},"methodIdentifiers":{"ADMIN_DELAY()":"92ffacac","BORROW_MODULE_ROLE()":"19833dd1","DEFAULT_ADMIN_ROLE()":"a217fddf","LEVERAGE_VAULT_ROLE()":"3d34e3e4","LIQUIDATION_ROLE()":"ae0e0125","PAUSER_ROLE()":"e63ab1e9","UPGRADE_INTERFACE_VERSION()":"ad3cb1cc","VAULT_ADMIN_ROLE()":"9e341119","borrowModule()":"25384fd8","cancelAddCollateral()":"b8da004b","cancelBorrowModule()":"e9115a9d","cancelUpdateCollateral()":"cb0694a1","collateralConfigs(address)":"8cf18e64","deposit(address,uint256)":"47e7ef24","depositFor(address,address,uint256)":"b3db428b","deposits(address,address)":"8f601f66","executeAddCollateral()":"58dedee3","executeBorrowModule()":"6d881314","executeUpdateCollateral()":"7956cd0c","getConfig(address)":"e48a5f7b","getRoleAdmin(bytes32)":"248a9ca3","getSupportedTokens()":"d3c7c2c7","grantRole(bytes32,address)":"2f2ff15d","hasRole(bytes32,address)":"91d14854","initialize()":"8129fc1c","pause()":"8456cb59","paused()":"5c975abb","pendingAddCollateral()":"b3165950","pendingBorrowModule()":"c8491cda","pendingBorrowModuleTime()":"59b98674","pendingUpdateCollateral()":"5283e72f","proxiableUUID()":"52d1902d","renounceRole(bytes32,address)":"36568abe","requestAddCollateral(address,uint256,uint256,uint256)":"cb1b7ac1","requestBorrowModule(address)":"f17a8e8a","requestUpdateCollateral(address,uint256,uint256,uint256)":"684c3b59","revokeRole(bytes32,address)":"d547741f","seize(address,address,uint256,address)":"a30811c8","supportedTokens(uint256)":"c6255626","supportsInterface(bytes4)":"01ffc9a7","unpause()":"3f4ba83a","upgradeToAndCall(address,bytes)":"4f1ef286","withdraw(address,uint256,address)":"69328dec","withdrawFor(address,address,uint256,address,bool)":"071ea3e3"},"id":50}