{"abi":[{"type":"constructor","inputs":[],"stateMutability":"nonpayable"},{"type":"function","name":"BORROW_MODULE_ROLE","inputs":[],"outputs":[{"name":"","type":"bytes32","internalType":"bytes32"}],"stateMutability":"view"},{"type":"function","name":"DEFAULT_ADMIN_ROLE","inputs":[],"outputs":[{"name":"","type":"bytes32","internalType":"bytes32"}],"stateMutability":"view"},{"type":"function","name":"LEVERAGE_VAULT_ROLE","inputs":[],"outputs":[{"name":"","type":"bytes32","internalType":"bytes32"}],"stateMutability":"view"},{"type":"function","name":"LIQUIDATION_ROLE","inputs":[],"outputs":[{"name":"","type":"bytes32","internalType":"bytes32"}],"stateMutability":"view"},{"type":"function","name":"PAUSER_ROLE","inputs":[],"outputs":[{"name":"","type":"bytes32","internalType":"bytes32"}],"stateMutability":"view"},{"type":"function","name":"TIMELOCK_ROLE","inputs":[],"outputs":[{"name":"","type":"bytes32","internalType":"bytes32"}],"stateMutability":"view"},{"type":"function","name":"UPGRADE_INTERFACE_VERSION","inputs":[],"outputs":[{"name":"","type":"string","internalType":"string"}],"stateMutability":"view"},{"type":"function","name":"VAULT_ADMIN_ROLE","inputs":[],"outputs":[{"name":"","type":"bytes32","internalType":"bytes32"}],"stateMutability":"view"},{"type":"function","name":"addCollateral","inputs":[{"name":"token","type":"address","internalType":"address"},{"name":"collateralFactorBps","type":"uint256","internalType":"uint256"},{"name":"liquidationThresholdBps","type":"uint256","internalType":"uint256"},{"name":"liquidationPenaltyBps","type":"uint256","internalType":"uint256"}],"outputs":[],"stateMutability":"nonpayable"},{"type":"function","name":"borrowModule","inputs":[],"outputs":[{"name":"","type":"address","internalType":"address"}],"stateMutability":"view"},{"type":"function","name":"collateralConfigs","inputs":[{"name":"","type":"address","internalType":"address"}],"outputs":[{"name":"enabled","type":"bool","internalType":"bool"},{"name":"collateralFactorBps","type":"uint256","internalType":"uint256"},{"name":"liquidationThresholdBps","type":"uint256","internalType":"uint256"},{"name":"liquidationPenaltyBps","type":"uint256","internalType":"uint256"}],"stateMutability":"view"},{"type":"function","name":"deposit","inputs":[{"name":"token","type":"address","internalType":"address"},{"name":"amount","type":"uint256","internalType":"uint256"}],"outputs":[],"stateMutability":"nonpayable"},{"type":"function","name":"depositFor","inputs":[{"name":"user","type":"address","internalType":"address"},{"name":"token","type":"address","internalType":"address"},{"name":"amount","type":"uint256","internalType":"uint256"}],"outputs":[],"stateMutability":"nonpayable"},{"type":"function","name":"deposits","inputs":[{"name":"","type":"address","internalType":"address"},{"name":"","type":"address","internalType":"address"}],"outputs":[{"name":"","type":"uint256","internalType":"uint256"}],"stateMutability":"view"},{"type":"function","name":"getConfig","inputs":[{"name":"token","type":"address","internalType":"address"}],"outputs":[{"name":"enabled","type":"bool","internalType":"bool"},{"name":"collateralFactorBps","type":"uint256","internalType":"uint256"},{"name":"liquidationThresholdBps","type":"uint256","internalType":"uint256"},{"name":"liquidationPenaltyBps","type":"uint256","internalType":"uint256"}],"stateMutability":"view"},{"type":"function","name":"getRoleAdmin","inputs":[{"name":"role","type":"bytes32","internalType":"bytes32"}],"outputs":[{"name":"","type":"bytes32","internalType":"bytes32"}],"stateMutability":"view"},{"type":"function","name":"getSupportedTokens","inputs":[],"outputs":[{"name":"","type":"address[]","internalType":"address[]"}],"stateMutability":"view"},{"type":"function","name":"grantRole","inputs":[{"name":"role","type":"bytes32","internalType":"bytes32"},{"name":"account","type":"address","internalType":"address"}],"outputs":[],"stateMutability":"nonpayable"},{"type":"function","name":"hasRole","inputs":[{"name":"role","type":"bytes32","internalType":"bytes32"},{"name":"account","type":"address","internalType":"address"}],"outputs":[{"name":"","type":"bool","internalType":"bool"}],"stateMutability":"view"},{"type":"function","name":"initialize","inputs":[{"name":"_timelockController","type":"address","internalType":"address"}],"outputs":[],"stateMutability":"nonpayable"},{"type":"function","name":"pause","inputs":[],"outputs":[],"stateMutability":"nonpayable"},{"type":"function","name":"paused","inputs":[],"outputs":[{"name":"","type":"bool","internalType":"bool"}],"stateMutability":"view"},{"type":"function","name":"proxiableUUID","inputs":[],"outputs":[{"name":"","type":"bytes32","internalType":"bytes32"}],"stateMutability":"view"},{"type":"function","name":"renounceRole","inputs":[{"name":"role","type":"bytes32","internalType":"bytes32"},{"name":"callerConfirmation","type":"address","internalType":"address"}],"outputs":[],"stateMutability":"nonpayable"},{"type":"function","name":"revokeRole","inputs":[{"name":"role","type":"bytes32","internalType":"bytes32"},{"name":"account","type":"address","internalType":"address"}],"outputs":[],"stateMutability":"nonpayable"},{"type":"function","name":"seize","inputs":[{"name":"user","type":"address","internalType":"address"},{"name":"token","type":"address","internalType":"address"},{"name":"amount","type":"uint256","internalType":"uint256"},{"name":"liquidator","type":"address","internalType":"address"}],"outputs":[],"stateMutability":"nonpayable"},{"type":"function","name":"setBorrowModule","inputs":[{"name":"_borrowModule","type":"address","internalType":"address"}],"outputs":[],"stateMutability":"nonpayable"},{"type":"function","name":"supportedTokens","inputs":[{"name":"","type":"uint256","internalType":"uint256"}],"outputs":[{"name":"","type":"address","internalType":"address"}],"stateMutability":"view"},{"type":"function","name":"supportsInterface","inputs":[{"name":"interfaceId","type":"bytes4","internalType":"bytes4"}],"outputs":[{"name":"","type":"bool","internalType":"bool"}],"stateMutability":"view"},{"type":"function","name":"unpause","inputs":[],"outputs":[],"stateMutability":"nonpayable"},{"type":"function","name":"updateCollateral","inputs":[{"name":"token","type":"address","internalType":"address"},{"name":"collateralFactorBps","type":"uint256","internalType":"uint256"},{"name":"liquidationThresholdBps","type":"uint256","internalType":"uint256"},{"name":"liquidationPenaltyBps","type":"uint256","internalType":"uint256"}],"outputs":[],"stateMutability":"nonpayable"},{"type":"function","name":"upgradeToAndCall","inputs":[{"name":"newImplementation","type":"address","internalType":"address"},{"name":"data","type":"bytes","internalType":"bytes"}],"outputs":[],"stateMutability":"payable"},{"type":"function","name":"withdraw","inputs":[{"name":"token","type":"address","internalType":"address"},{"name":"amount","type":"uint256","internalType":"uint256"},{"name":"user","type":"address","internalType":"address"}],"outputs":[],"stateMutability":"nonpayable"},{"type":"function","name":"withdrawFor","inputs":[{"name":"user","type":"address","internalType":"address"},{"name":"token","type":"address","internalType":"address"},{"name":"amount","type":"uint256","internalType":"uint256"},{"name":"recipient","type":"address","internalType":"address"},{"name":"skipHealthCheck","type":"bool","internalType":"bool"}],"outputs":[],"stateMutability":"nonpayable"},{"type":"event","name":"BorrowModuleUpdated","inputs":[{"name":"oldModule","type":"address","indexed":true,"internalType":"address"},{"name":"newModule","type":"address","indexed":true,"internalType":"address"}],"anonymous":false},{"type":"event","name":"CollateralAdded","inputs":[{"name":"token","type":"address","indexed":true,"internalType":"address"},{"name":"collateralFactorBps","type":"uint256","indexed":false,"internalType":"uint256"},{"name":"liquidationThresholdBps","type":"uint256","indexed":false,"internalType":"uint256"}],"anonymous":false},{"type":"event","name":"CollateralDisabled","inputs":[{"name":"token","type":"address","indexed":true,"internalType":"address"}],"anonymous":false},{"type":"event","name":"CollateralEnabled","inputs":[{"name":"token","type":"address","indexed":true,"internalType":"address"}],"anonymous":false},{"type":"event","name":"CollateralUpdated","inputs":[{"name":"token","type":"address","indexed":true,"internalType":"address"},{"name":"collateralFactorBps","type":"uint256","indexed":false,"internalType":"uint256"},{"name":"liquidationThresholdBps","type":"uint256","indexed":false,"internalType":"uint256"}],"anonymous":false},{"type":"event","name":"Deposited","inputs":[{"name":"user","type":"address","indexed":true,"internalType":"address"},{"name":"token","type":"address","indexed":true,"internalType":"address"},{"name":"amount","type":"uint256","indexed":false,"internalType":"uint256"}],"anonymous":false},{"type":"event","name":"Initialized","inputs":[{"name":"version","type":"uint64","indexed":false,"internalType":"uint64"}],"anonymous":false},{"type":"event","name":"Paused","inputs":[{"name":"account","type":"address","indexed":false,"internalType":"address"}],"anonymous":false},{"type":"event","name":"RoleAdminChanged","inputs":[{"name":"role","type":"bytes32","indexed":true,"internalType":"bytes32"},{"name":"previousAdminRole","type":"bytes32","indexed":true,"internalType":"bytes32"},{"name":"newAdminRole","type":"bytes32","indexed":true,"internalType":"bytes32"}],"anonymous":false},{"type":"event","name":"RoleGranted","inputs":[{"name":"role","type":"bytes32","indexed":true,"internalType":"bytes32"},{"name":"account","type":"address","indexed":true,"internalType":"address"},{"name":"sender","type":"address","indexed":true,"internalType":"address"}],"anonymous":false},{"type":"event","name":"RoleRevoked","inputs":[{"name":"role","type":"bytes32","indexed":true,"internalType":"bytes32"},{"name":"account","type":"address","indexed":true,"internalType":"address"},{"name":"sender","type":"address","indexed":true,"internalType":"address"}],"anonymous":false},{"type":"event","name":"Seized","inputs":[{"name":"user","type":"address","indexed":true,"internalType":"address"},{"name":"token","type":"address","indexed":true,"internalType":"address"},{"name":"amount","type":"uint256","indexed":false,"internalType":"uint256"},{"name":"liquidator","type":"address","indexed":true,"internalType":"address"}],"anonymous":false},{"type":"event","name":"Unpaused","inputs":[{"name":"account","type":"address","indexed":false,"internalType":"address"}],"anonymous":false},{"type":"event","name":"Upgraded","inputs":[{"name":"implementation","type":"address","indexed":true,"internalType":"address"}],"anonymous":false},{"type":"event","name":"Withdrawn","inputs":[{"name":"user","type":"address","indexed":true,"internalType":"address"},{"name":"token","type":"address","indexed":true,"internalType":"address"},{"name":"amount","type":"uint256","indexed":false,"internalType":"uint256"}],"anonymous":false},{"type":"error","name":"AccessControlBadConfirmation","inputs":[]},{"type":"error","name":"AccessControlUnauthorizedAccount","inputs":[{"name":"account","type":"address","internalType":"address"},{"name":"neededRole","type":"bytes32","internalType":"bytes32"}]},{"type":"error","name":"AddressEmptyCode","inputs":[{"name":"target","type":"address","internalType":"address"}]},{"type":"error","name":"ERC1967InvalidImplementation","inputs":[{"name":"implementation","type":"address","internalType":"address"}]},{"type":"error","name":"ERC1967NonPayable","inputs":[]},{"type":"error","name":"EnforcedPause","inputs":[]},{"type":"error","name":"ExpectedPause","inputs":[]},{"type":"error","name":"FailedCall","inputs":[]},{"type":"error","name":"InvalidInitialization","inputs":[]},{"type":"error","name":"NotInitializing","inputs":[]},{"type":"error","name":"ReentrancyGuardReentrantCall","inputs":[]},{"type":"error","name":"SafeERC20FailedOperation","inputs":[{"name":"token","type":"address","internalType":"address"}]},{"type":"error","name":"UUPSUnauthorizedCallContext","inputs":[]},{"type":"error","name":"UUPSUnsupportedProxiableUUID","inputs":[{"name":"slot","type":"bytes32","internalType":"bytes32"}]}],"bytecode":{"object":"0x60a060405230608052348015610013575f80fd5b5061001c610021565b6100d3565b7ff0c57e16840df040f15088dc2f81fe391c3923bec73e23a9662efc9c229c6a00805468010000000000000000900460ff16156100715760405163f92ee8a960e01b815260040160405180910390fd5b80546001600160401b03908116146100d05780546001600160401b0319166001600160401b0390811782556040519081527fc7f505b2f371ae2175ee4913f4499e1f2633a7b5936321eed1cdaeb6115181d29060200160405180910390a15b50565b6080516125c26100f95f395f8181611bc501528181611bee0152611d3c01526125c25ff3fe6080604052600436106101f1575f3560e01c806391d1485411610108578063b3db428b1161009d578063d547741f1161006d578063d547741f14610650578063e48a5f7b1461066f578063e5eecf68146106e0578063e63ab1e9146106ff578063f288a2e214610732575f80fd5b8063b3db428b146105d2578063c4d66de8146105f1578063c625562614610610578063d3c7c2c71461062f575f80fd5b8063a87dcf5f116100d8578063a87dcf5f14610524578063ab12448614610543578063ad3cb1cc14610562578063ae0e01251461059f575f80fd5b806391d14854146104a05780639e341119146104bf578063a217fddf146104f2578063a30811c814610505575f80fd5b80633f4ba83a116101895780635c975abb116101595780635c975abb146103ab57806369328dec146103ce5780638456cb59146103ed5780638cf18e64146104015780638f601f661461046a575f80fd5b80633f4ba83a1461035157806347e7ef24146103655780634f1ef2861461038457806352d1902d14610397575f80fd5b806325384fd8116101c457806325384fd8146102aa5780632f2ff15d146102e057806336568abe146102ff5780633d34e3e41461031e575f80fd5b806301ffc9a7146101f5578063071ea3e31461022957806319833dd11461024a578063248a9ca31461028b575b5f80fd5b348015610200575f80fd5b5061021461020f3660046120ec565b610752565b60405190151581526020015b60405180910390f35b348015610234575f80fd5b5061024861024336600461212e565b610788565b005b348015610255575f80fd5b5061027d7fed5c12ee051a37a1c77138a0efb16a50dc2d175d59f2b1373c4195c4721cf9cb81565b604051908152602001610220565b348015610296575f80fd5b5061027d6102a5366004612190565b6108fb565b3480156102b5575f80fd5b505f546102c8906001600160a01b031681565b6040516001600160a01b039091168152602001610220565b3480156102eb575f80fd5b506102486102fa3660046121a7565b61091b565b34801561030a575f80fd5b506102486103193660046121a7565b61093d565b348015610329575f80fd5b5061027d7f62f9f791f044a997d2927869f031db85cde39144d6412d7269c2c98c5304326b81565b34801561035c575f80fd5b50610248610975565b348015610370575f80fd5b5061024861037f3660046121d1565b61098a565b61024861039236600461220d565b610adb565b3480156103a2575f80fd5b5061027d610af6565b3480156103b6575f80fd5b505f8051602061254d8339815191525460ff16610214565b3480156103d9575f80fd5b506102486103e83660046122d1565b610b11565b3480156103f8575f80fd5b50610248610cbf565b34801561040c575f80fd5b5061044861041b36600461230a565b600160208190525f9182526040909120805491810154600282015460039092015460ff9093169290919084565b6040805194151585526020850193909352918301526060820152608001610220565b348015610475575f80fd5b5061027d610484366004612323565b600360209081525f928352604080842090915290825290205481565b3480156104ab575f80fd5b506102146104ba3660046121a7565b610cf1565b3480156104ca575f80fd5b5061027d7f7edcee67725a77bfa311b39349d7e96df9b23fbdbdcb328dfc17d77926920c1381565b3480156104fd575f80fd5b5061027d5f81565b348015610510575f80fd5b5061024861051f36600461234b565b610d27565b34801561052f575f80fd5b5061024861053e366004612395565b610e8b565b34801561054e575f80fd5b5061024861055d36600461230a565b6110ba565b34801561056d575f80fd5b50610592604051806040016040528060058152602001640352e302e360dc1b81525081565b60405161022091906123cb565b3480156105aa575f80fd5b5061027d7f78dee7707521b7c9b92b1070cc1d51daeefd47d09898061ee53bff95426cbe5481565b3480156105dd575f80fd5b506102486105ec366004612400565b611168565b3480156105fc575f80fd5b5061024861060b36600461230a565b6112f1565b34801561061b575f80fd5b506102c861062a366004612190565b611498565b34801561063a575f80fd5b506106436114c0565b604051610220919061243a565b34801561065b575f80fd5b5061024861066a3660046121a7565b611520565b34801561067a575f80fd5b5061044861068936600461230a565b6001600160a01b03165f908152600160208181526040928390208351608081018552815460ff1615158082529382015492810183905260028201549481018590526003909101546060909101819052919390929190565b3480156106eb575f80fd5b506102486106fa366004612395565b61153c565b34801561070a575f80fd5b5061027d7f65d7a28e3265b37a6474929f336521b332c1681b933f6cb9f3376673440d862a81565b34801561073d575f80fd5b5061027d5f805160206124ed83398151915281565b5f6001600160e01b03198216637965db0b60e01b148061078257506301ffc9a760e01b6001600160e01b03198316145b92915050565b6107906117e7565b61079861181e565b7f62f9f791f044a997d2927869f031db85cde39144d6412d7269c2c98c5304326b6107c281611850565b6001600160a01b038087165f908152600360209081526040808320938916835292905220548411156108325760405162461bcd60e51b8152602060048201526014602482015273494e53554646494349454e545f42414c414e434560601b60448201526064015b60405180910390fd5b6001600160a01b038087165f90815260036020908152604080832093891683529290529081208054869290610868908490612499565b9091555061088290506001600160a01b038616848661185a565b846001600160a01b0316866001600160a01b03167fd1c19fbcd4551a5edfb66d43d2e337c04837afda3482b42bdf569a8fccdae5fb866040516108c791815260200190565b60405180910390a3816108dd576108dd866118b9565b506108f460015f8051602061256d83398151915255565b5050505050565b5f9081525f8051602061252d833981519152602052604090206001015490565b610924826108fb565b61092d81611850565b6109378383611a08565b50505050565b6001600160a01b03811633146109665760405163334bd91960e11b815260040160405180910390fd5b6109708282611aa9565b505050565b5f61097f81611850565b610987611b22565b50565b6109926117e7565b61099a61181e565b6001600160a01b0382165f9081526001602052604090205460ff166109f75760405162461bcd60e51b81526020600482015260136024820152721513d2d15397d393d517d4d5541413d4951151606a1b6044820152606401610829565b5f8111610a345760405162461bcd60e51b815260206004820152600b60248201526a16915493d7d05353d5539560aa1b6044820152606401610829565b335f9081526003602090815260408083206001600160a01b038616845290915281208054839290610a669084906124ac565b90915550610a8190506001600160a01b038316333084611b81565b6040518181526001600160a01b0383169033907f8752a472e571a816aea92eec8dae9baf628e840f4929fbcc2d155e6233ff68a79060200160405180910390a3610ad760015f8051602061256d83398151915255565b5050565b610ae3611bba565b610aec82611c5e565b610ad78282611c75565b5f610aff611d31565b505f8051602061250d83398151915290565b610b196117e7565b610b2161181e565b336001600160a01b0382161480610b5d5750610b5d7fed5c12ee051a37a1c77138a0efb16a50dc2d175d59f2b1373c4195c4721cf9cb33610cf1565b610b985760405162461bcd60e51b815260206004820152600c60248201526b15539055551213d49256915160a21b6044820152606401610829565b6001600160a01b038082165f90815260036020908152604080832093871683529290522054821115610c035760405162461bcd60e51b8152602060048201526014602482015273494e53554646494349454e545f42414c414e434560601b6044820152606401610829565b6001600160a01b038082165f90815260036020908152604080832093871683529290529081208054849290610c39908490612499565b90915550610c5390506001600160a01b038416828461185a565b826001600160a01b0316816001600160a01b03167fd1c19fbcd4551a5edfb66d43d2e337c04837afda3482b42bdf569a8fccdae5fb84604051610c9891815260200190565b60405180910390a3610ca9816118b9565b61097060015f8051602061256d83398151915255565b7f65d7a28e3265b37a6474929f336521b332c1681b933f6cb9f3376673440d862a610ce981611850565b610987611d7a565b5f9182525f8051602061252d833981519152602090815260408084206001600160a01b0393909316845291905290205460ff1690565b610d2f6117e7565b7f78dee7707521b7c9b92b1070cc1d51daeefd47d09898061ee53bff95426cbe54610d5981611850565b6001600160a01b038086165f90815260036020908152604080832093881683529290522054831115610dcd5760405162461bcd60e51b815260206004820152601760248201527f494e53554646494349454e545f434f4c4c41544552414c0000000000000000006044820152606401610829565b6001600160a01b038086165f90815260036020908152604080832093881683529290529081208054859290610e03908490612499565b90915550610e1d90506001600160a01b038516838561185a565b816001600160a01b0316846001600160a01b0316866001600160a01b03167ff413511b5d4c6faecbce9894d2b68fa3eb45529cb2186cd2e07e638fc41a94da86604051610e6c91815260200190565b60405180910390a45061093760015f8051602061256d83398151915255565b5f805160206124ed833981519152610ea281611850565b6001600160a01b0385165f9081526001602052604090205460ff16610efc5760405162461bcd60e51b815260206004820152601060248201526f544f4b454e5f4e4f545f41435449564560801b6044820152606401610829565b612328841115610f405760405162461bcd60e51b815260206004820152600f60248201526e08c8286a89ea4bea89e9ebe90928e9608b1b6044820152606401610829565b838311610f8f5760405162461bcd60e51b815260206004820152601c60248201527f5448524553484f4c445f4d5553545f4558434545445f464143544f52000000006044820152606401610829565b61251c831115610fd65760405162461bcd60e51b81526020600482015260126024820152710a890a48aa6909e9888bea89e9ebe90928e960731b6044820152606401610829565b6107d082111561101b5760405162461bcd60e51b815260206004820152601060248201526f0a08a9c8298a8b2bea89e9ebe90928e960831b6044820152606401610829565b6040805160808101825260018082526020808301888152838501888152606085018881526001600160a01b038c165f8181528686528890209651875460ff191690151517875592519486019490945551600285015591516003909301929092558251878152918201869052917f3644d2a390eea00a34467e13ab98e7f12fef446495d773df2d880d49cda51f9091015b60405180910390a25050505050565b5f805160206124ed8339815191526110d181611850565b6001600160a01b0382166111185760405162461bcd60e51b815260206004820152600e60248201526d494e56414c49445f4d4f44554c4560901b6044820152606401610829565b5f80546001600160a01b038481166001600160a01b0319831681178455604051919092169283917fd52c1ecbae4ae409c118e97f7f64527e33c3611531cb0c5d8a0e58088656b2399190a3505050565b6111706117e7565b61117861181e565b7f62f9f791f044a997d2927869f031db85cde39144d6412d7269c2c98c5304326b6111a281611850565b6001600160a01b0383165f9081526001602052604090205460ff166111ff5760405162461bcd60e51b81526020600482015260136024820152721513d2d15397d393d517d4d5541413d4951151606a1b6044820152606401610829565b5f821161123c5760405162461bcd60e51b815260206004820152600b60248201526a16915493d7d05353d5539560aa1b6044820152606401610829565b6001600160a01b038085165f908152600360209081526040808320938716835292905290812080548492906112729084906124ac565b9091555061128d90506001600160a01b038416333085611b81565b826001600160a01b0316846001600160a01b03167f8752a472e571a816aea92eec8dae9baf628e840f4929fbcc2d155e6233ff68a7846040516112d291815260200190565b60405180910390a35061097060015f8051602061256d83398151915255565b5f6112fa611dc2565b805490915060ff600160401b820416159067ffffffffffffffff165f811580156113215750825b90505f8267ffffffffffffffff16600114801561133d5750303b155b90508115801561134b575080155b156113695760405163f92ee8a960e01b815260040160405180910390fd5b845467ffffffffffffffff19166001178555831561139357845460ff60401b1916600160401b1785555b6001600160a01b0386166113dc5760405162461bcd60e51b815260206004820152601060248201526f494e56414c49445f54494d454c4f434b60801b6044820152606401610829565b6113e4611dea565b6113ec611df2565b6113f4611dea565b6113fc611dea565b6114065f33611a08565b506114317f7edcee67725a77bfa311b39349d7e96df9b23fbdbdcb328dfc17d77926920c1333611a08565b506114495f805160206124ed83398151915287611a08565b50831561149057845460ff60401b19168555604051600181527fc7f505b2f371ae2175ee4913f4499e1f2633a7b5936321eed1cdaeb6115181d29060200160405180910390a15b505050505050565b600281815481106114a7575f80fd5b5f918252602090912001546001600160a01b0316905081565b6060600280548060200260200160405190810160405280929190818152602001828054801561151657602002820191905f5260205f20905b81546001600160a01b031681526001909101906020018083116114f8575b5050505050905090565b611529826108fb565b61153281611850565b6109378383611aa9565b5f805160206124ed83398151915261155381611850565b6001600160a01b0385166115995760405162461bcd60e51b815260206004820152600d60248201526c24a72b20a624a22faa27a5a2a760991b6044820152606401610829565b6001600160a01b0385165f9081526001602052604090205460ff16156115f35760405162461bcd60e51b815260206004820152600f60248201526e1053149150511657d1539050931151608a1b6044820152606401610829565b6123288411156116375760405162461bcd60e51b815260206004820152600f60248201526e08c8286a89ea4bea89e9ebe90928e9608b1b6044820152606401610829565b8383116116865760405162461bcd60e51b815260206004820152601c60248201527f5448524553484f4c445f4d5553545f4558434545445f464143544f52000000006044820152606401610829565b61251c8311156116cd5760405162461bcd60e51b81526020600482015260126024820152710a890a48aa6909e9888bea89e9ebe90928e960731b6044820152606401610829565b6107d08211156117125760405162461bcd60e51b815260206004820152601060248201526f0a08a9c8298a8b2bea89e9ebe90928e960831b6044820152606401610829565b6040805160808101825260018082526020808301888152838501888152606085018881526001600160a01b038c165f8181528686528881209751885460ff191690151517885593518787015591516002808801919091559051600390960195909555845493840185559390527f405787fa12a823e0f2b7631cc41b3ba8828b3321ca811111fa75cd3aa3bb5ace90910180546001600160a01b03191683179055825187815290810186905290917f11f8990ac38271f23dea447d5728e9914fca7cea2edda43af6c43c415f8bc30b91016110ab565b5f8051602061256d83398151915280546001190161181857604051633ee5aeb560e01b815260040160405180910390fd5b60029055565b5f8051602061254d8339815191525460ff161561184e5760405163d93c066560e01b815260040160405180910390fd5b565b6109878133611e02565b6040516001600160a01b0383811660248301526044820183905261097091859182169063a9059cbb906064015b604051602081830303815290604052915060e01b6020820180516001600160e01b038381831617835250505050611e3b565b5f546001600160a01b031615610987575f8054604051631ff517ff60e01b81526001600160a01b03848116600483015290911690631ff517ff90602401602060405180830381865afa158015611911573d5f803e3d5ffd5b505050506040513d601f19601f8201168201806040525081019061193591906124bf565b90508015610ad7575f8054604051636ad9f9df60e01b81526001600160a01b03858116600483015290911690636ad9f9df90602401602060405180830381865afa158015611985573d5f803e3d5ffd5b505050506040513d601f19601f820116820180604052508101906119a991906124bf565b90506127108110156109705760405162461bcd60e51b81526020600482015260156024820152744845414c54485f464143544f525f544f4f5f4c4f5760581b6044820152606401610829565b60015f8051602061256d83398151915255565b5f5f8051602061252d833981519152611a218484610cf1565b611aa0575f848152602082815260408083206001600160a01b03871684529091529020805460ff19166001179055611a563390565b6001600160a01b0316836001600160a01b0316857f2f8788117e7eff1d82e926ec794901d17c78024a50270940304540a733656f0d60405160405180910390a46001915050610782565b5f915050610782565b5f5f8051602061252d833981519152611ac28484610cf1565b15611aa0575f848152602082815260408083206001600160a01b0387168085529252808320805460ff1916905551339287917ff6391f5c32d9c69d2a47ea670b442974b53935d1edc7fd64eb21e047a839171b9190a46001915050610782565b611b2a611ea7565b5f8051602061254d833981519152805460ff191681557f5db9ee0a495bf2e6ff9c91a7834c1ba4fdd244a5e8aa4e537bd38aeae4b073aa335b6040516001600160a01b03909116815260200160405180910390a150565b6040516001600160a01b0384811660248301528381166044830152606482018390526109379186918216906323b872dd90608401611887565b306001600160a01b037f0000000000000000000000000000000000000000000000000000000000000000161480611c4057507f00000000000000000000000000000000000000000000000000000000000000006001600160a01b0316611c345f8051602061250d833981519152546001600160a01b031690565b6001600160a01b031614155b1561184e5760405163703e46dd60e11b815260040160405180910390fd5b5f805160206124ed833981519152610ad781611850565b816001600160a01b03166352d1902d6040518163ffffffff1660e01b8152600401602060405180830381865afa925050508015611ccf575060408051601f3d908101601f19168201909252611ccc918101906124bf565b60015b611cf757604051634c9c8ce360e01b81526001600160a01b0383166004820152602401610829565b5f8051602061250d8339815191528114611d2757604051632a87526960e21b815260048101829052602401610829565b6109708383611ed6565b306001600160a01b037f0000000000000000000000000000000000000000000000000000000000000000161461184e5760405163703e46dd60e11b815260040160405180910390fd5b611d8261181e565b5f8051602061254d833981519152805460ff191660011781557f62e78cea01bee320cd4e420270b5ea74000d11b0c9f74754ebdbfc544b05a25833611b63565b5f807ff0c57e16840df040f15088dc2f81fe391c3923bec73e23a9662efc9c229c6a00610782565b61184e611f2b565b611dfa611f2b565b61184e611f50565b611e0c8282610cf1565b610ad75760405163e2517d3f60e01b81526001600160a01b038216600482015260248101839052604401610829565b5f8060205f8451602086015f885af180611e5a576040513d5f823e3d81fd5b50505f513d91508115611e71578060011415611e7e565b6001600160a01b0384163b155b1561093757604051635274afe760e01b81526001600160a01b0385166004820152602401610829565b5f8051602061254d8339815191525460ff1661184e57604051638dfc202b60e01b815260040160405180910390fd5b611edf82611f58565b6040516001600160a01b038316907fbc7cd75a20ee27fd9adebab32041f755214dbc6bffa90cc0225b39da2e5c2d3b905f90a2805115611f23576109708282611fbb565b610ad761202d565b611f3361204c565b61184e57604051631afcd79f60e31b815260040160405180910390fd5b6119f5611f2b565b806001600160a01b03163b5f03611f8d57604051634c9c8ce360e01b81526001600160a01b0382166004820152602401610829565b5f8051602061250d83398151915280546001600160a01b0319166001600160a01b0392909216919091179055565b60605f80846001600160a01b031684604051611fd791906124d6565b5f60405180830381855af49150503d805f811461200f576040519150601f19603f3d011682016040523d82523d5f602084013e612014565b606091505b5091509150612024858383612065565b95945050505050565b341561184e5760405163b398979f60e01b815260040160405180910390fd5b5f612055611dc2565b54600160401b900460ff16919050565b60608261207a57612075826120c4565b6120bd565b815115801561209157506001600160a01b0384163b155b156120ba57604051639996b31560e01b81526001600160a01b0385166004820152602401610829565b50805b9392505050565b8051156120d357805160208201fd5b60405163d6bda27560e01b815260040160405180910390fd5b5f602082840312156120fc575f80fd5b81356001600160e01b0319811681146120bd575f80fd5b80356001600160a01b0381168114612129575f80fd5b919050565b5f805f805f60a08688031215612142575f80fd5b61214b86612113565b945061215960208701612113565b93506040860135925061216e60608701612113565b915060808601358015158114612182575f80fd5b809150509295509295909350565b5f602082840312156121a0575f80fd5b5035919050565b5f80604083850312156121b8575f80fd5b823591506121c860208401612113565b90509250929050565b5f80604083850312156121e2575f80fd5b6121eb83612113565b946020939093013593505050565b634e487b7160e01b5f52604160045260245ffd5b5f806040838503121561221e575f80fd5b61222783612113565b9150602083013567ffffffffffffffff811115612242575f80fd5b8301601f81018513612252575f80fd5b803567ffffffffffffffff81111561226c5761226c6121f9565b604051601f8201601f19908116603f0116810167ffffffffffffffff8111828210171561229b5761229b6121f9565b6040528181528282016020018710156122b2575f80fd5b816020840160208301375f602083830101528093505050509250929050565b5f805f606084860312156122e3575f80fd5b6122ec84612113565b92506020840135915061230160408501612113565b90509250925092565b5f6020828403121561231a575f80fd5b6120bd82612113565b5f8060408385031215612334575f80fd5b61233d83612113565b91506121c860208401612113565b5f805f806080858703121561235e575f80fd5b61236785612113565b935061237560208601612113565b92506040850135915061238a60608601612113565b905092959194509250565b5f805f80608085870312156123a8575f80fd5b6123b185612113565b966020860135965060408601359560600135945092505050565b602081525f82518060208401528060208501604085015e5f604082850101526040601f19601f83011684010191505092915050565b5f805f60608486031215612412575f80fd5b61241b84612113565b925061242960208501612113565b929592945050506040919091013590565b602080825282518282018190525f918401906040840190835b8181101561247a5783516001600160a01b0316835260209384019390920191600101612453565b509095945050505050565b634e487b7160e01b5f52601160045260245ffd5b8181038181111561078257610782612485565b8082018082111561078257610782612485565b5f602082840312156124cf575f80fd5b5051919050565b5f82518060208501845e5f92019182525091905056fef66846415d2bf9eabda9e84793ff9c0ea96d87f50fc41e66aa16469c6a442f05360894a13ba1a3210667c828492db98dca3e2076cc3735a920a3ca505d382bbc02dd7bc7dec4dceedda775e58dd541e08a116c6c53815c0bd028192f7b626800cd5ed15c6e187e77e9aee88184c21f4f2182ab5827cb3b7e07fbedcd63f033009b779b17422d0df92223018b32b4d1fa46e071723d6817e2486d003becc55f00a2646970667358221220a5e464416cc1e4f20d361a41e6cc5cea0b95f3a87c6858388d20a001b02cb6e464736f6c634300081a0033","linkReferences":{}},"methodIdentifiers":{"BORROW_MODULE_ROLE()":"19833dd1","DEFAULT_ADMIN_ROLE()":"a217fddf","LEVERAGE_VAULT_ROLE()":"3d34e3e4","LIQUIDATION_ROLE()":"ae0e0125","PAUSER_ROLE()":"e63ab1e9","TIMELOCK_ROLE()":"f288a2e2","UPGRADE_INTERFACE_VERSION()":"ad3cb1cc","VAULT_ADMIN_ROLE()":"9e341119","addCollateral(address,uint256,uint256,uint256)":"e5eecf68","borrowModule()":"25384fd8","collateralConfigs(address)":"8cf18e64","deposit(address,uint256)":"47e7ef24","depositFor(address,address,uint256)":"b3db428b","deposits(address,address)":"8f601f66","getConfig(address)":"e48a5f7b","getRoleAdmin(bytes32)":"248a9ca3","getSupportedTokens()":"d3c7c2c7","grantRole(bytes32,address)":"2f2ff15d","hasRole(bytes32,address)":"91d14854","initialize(address)":"c4d66de8","pause()":"8456cb59","paused()":"5c975abb","proxiableUUID()":"52d1902d","renounceRole(bytes32,address)":"36568abe","revokeRole(bytes32,address)":"d547741f","seize(address,address,uint256,address)":"a30811c8","setBorrowModule(address)":"ab124486","supportedTokens(uint256)":"c6255626","supportsInterface(bytes4)":"01ffc9a7","unpause()":"3f4ba83a","updateCollateral(address,uint256,uint256,uint256)":"a87dcf5f","upgradeToAndCall(address,bytes)":"4f1ef286","withdraw(address,uint256,address)":"69328dec","withdrawFor(address,address,uint256,address,bool)":"071ea3e3"},"id":64}