{"abi":[{"type":"constructor","inputs":[{"name":"_musd","type":"address","internalType":"address"},{"name":"_weth","type":"address","internalType":"address"},{"name":"_oracle","type":"address","internalType":"address"}],"stateMutability":"nonpayable"},{"type":"function","name":"exactInputSingle","inputs":[{"name":"params","type":"tuple","internalType":"struct MockSwapRouter.ExactInputSingleParams","components":[{"name":"tokenIn","type":"address","internalType":"address"},{"name":"tokenOut","type":"address","internalType":"address"},{"name":"fee","type":"uint24","internalType":"uint24"},{"name":"recipient","type":"address","internalType":"address"},{"name":"deadline","type":"uint256","internalType":"uint256"},{"name":"amountIn","type":"uint256","internalType":"uint256"},{"name":"amountOutMinimum","type":"uint256","internalType":"uint256"},{"name":"sqrtPriceLimitX96","type":"uint160","internalType":"uint160"}]}],"outputs":[{"name":"amountOut","type":"uint256","internalType":"uint256"}],"stateMutability":"payable"},{"type":"function","name":"musd","inputs":[],"outputs":[{"name":"","type":"address","internalType":"contract IERC20"}],"stateMutability":"view"},{"type":"function","name":"oracle","inputs":[],"outputs":[{"name":"","type":"address","internalType":"contract IPriceOracle"}],"stateMutability":"view"},{"type":"function","name":"weth","inputs":[],"outputs":[{"name":"","type":"address","internalType":"contract IERC20"}],"stateMutability":"view"},{"type":"error","name":"SafeERC20FailedOperation","inputs":[{"name":"token","type":"address","internalType":"address"}]}],"bytecode":{"object":"0x60e060405234801561000f575f80fd5b5060405161078038038061078083398101604081905261002e91610066565b6001600160a01b0392831660805290821660a0521660c0526100a6565b80516001600160a01b0381168114610061575f80fd5b919050565b5f805f60608486031215610078575f80fd5b6100818461004b565b925061008f6020850161004b565b915061009d6040850161004b565b90509250925092565b60805160a05160c0516106976100e95f395f818160c4015281816101de01526102ae01525f605301525f818160f70152818161018f01526103a701526106975ff3fe60806040526004361061003e575f3560e01c80633fc8cef314610042578063414bf389146100925780637dc0d1d0146100b3578063cab666d0146100e6575b5f80fd5b34801561004d575f80fd5b506100757f000000000000000000000000000000000000000000000000000000000000000081565b6040516001600160a01b0390911681526020015b60405180910390f35b6100a56100a03660046105bb565b610119565b604051908152602001610089565b3480156100be575f80fd5b506100757f000000000000000000000000000000000000000000000000000000000000000081565b3480156100f1575f80fd5b506100757f000000000000000000000000000000000000000000000000000000000000000081565b5f816080013542111561015d5760405162461bcd60e51b81526020600482015260076024820152661156141254915160ca1b60448201526064015b60405180910390fd5b610185333060a085013561017460208701876105d5565b6001600160a01b03169291906104ac565b6001600160a01b037f0000000000000000000000000000000000000000000000000000000000000000166101bc60208401846105d5565b6001600160a01b0316036102a457670de0b6b3a76400005f6001600160a01b037f00000000000000000000000000000000000000000000000000000000000000001663b7f8764461021360408701602088016105d5565b6040516001600160e01b031960e084901b1681526001600160a01b03909116600482015260248101859052604401602060405180830381865afa15801561025c573d5f803e3d5ffd5b505050506040513d601f19601f820116820180604052508101906102809190610602565b9050806102918360a0870135610619565b61029b9190610642565b92505050610353565b6001600160a01b037f00000000000000000000000000000000000000000000000000000000000000001663b7f876446102e060208501856105d5565b6040516001600160e01b031960e084901b1681526001600160a01b03909116600482015260a08501356024820152604401602060405180830381865afa15801561032c573d5f803e3d5ffd5b505050506040513d601f19601f820116820180604052508101906103509190610602565b90505b8160c0013581101561039d5760405162461bcd60e51b8152602060048201526013602482015272125394d551919250d251539517d3d555141555606a1b6044820152606401610154565b6001600160a01b037f0000000000000000000000000000000000000000000000000000000000000000166103d760408401602085016105d5565b6001600160a01b031603610473576103f560408301602084016105d5565b6001600160a01b03166340c10f1961041360808501606086016105d5565b6040516001600160e01b031960e084901b1681526001600160a01b039091166004820152602481018490526044015f604051808303815f87803b158015610458575f80fd5b505af115801561046a573d5f803e3d5ffd5b50505050919050565b6104a761048660808401606085016105d5565b8261049760408601602087016105d5565b6001600160a01b03169190610519565b919050565b6040516001600160a01b0384811660248301528381166044830152606482018390526105139186918216906323b872dd906084015b604051602081830303815290604052915060e01b6020820180516001600160e01b03838183161783525050505061054f565b50505050565b6040516001600160a01b0383811660248301526044820183905261054a91859182169063a9059cbb906064016104e1565b505050565b5f8060205f8451602086015f885af18061056e576040513d5f823e3d81fd5b50505f513d91508115610585578060011415610592565b6001600160a01b0384163b155b1561051357604051635274afe760e01b81526001600160a01b0385166004820152602401610154565b5f6101008284031280156105cd575f80fd5b509092915050565b5f602082840312156105e5575f80fd5b81356001600160a01b03811681146105fb575f80fd5b9392505050565b5f60208284031215610612575f80fd5b5051919050565b808202811582820484141761063c57634e487b7160e01b5f52601160045260245ffd5b92915050565b5f8261065c57634e487b7160e01b5f52601260045260245ffd5b50049056fea2646970667358221220835abf6da739b91f493caca77fd2e9f87b4dcf67936a8c34d1d18bb32228ebee64736f6c634300081a0033","linkReferences":{}},"methodIdentifiers":{"exactInputSingle((address,address,uint24,address,uint256,uint256,uint256,uint160))":"414bf389","musd()":"cab666d0","oracle()":"7dc0d1d0","weth()":"3fc8cef3"},"id":55}