{"abi":[{"type":"constructor","inputs":[{"name":"_usds","type":"address","internalType":"address"}],"stateMutability":"nonpayable"},{"type":"function","name":"allowance","inputs":[{"name":"owner","type":"address","internalType":"address"},{"name":"spender","type":"address","internalType":"address"}],"outputs":[{"name":"","type":"uint256","internalType":"uint256"}],"stateMutability":"view"},{"type":"function","name":"approve","inputs":[{"name":"spender","type":"address","internalType":"address"},{"name":"value","type":"uint256","internalType":"uint256"}],"outputs":[{"name":"","type":"bool","internalType":"bool"}],"stateMutability":"nonpayable"},{"type":"function","name":"asset","inputs":[],"outputs":[{"name":"","type":"address","internalType":"address"}],"stateMutability":"view"},{"type":"function","name":"balanceOf","inputs":[{"name":"account","type":"address","internalType":"address"}],"outputs":[{"name":"","type":"uint256","internalType":"uint256"}],"stateMutability":"view"},{"type":"function","name":"convertToAssets","inputs":[{"name":"shares","type":"uint256","internalType":"uint256"}],"outputs":[{"name":"","type":"uint256","internalType":"uint256"}],"stateMutability":"view"},{"type":"function","name":"convertToShares","inputs":[{"name":"assets","type":"uint256","internalType":"uint256"}],"outputs":[{"name":"","type":"uint256","internalType":"uint256"}],"stateMutability":"view"},{"type":"function","name":"decimals","inputs":[],"outputs":[{"name":"","type":"uint8","internalType":"uint8"}],"stateMutability":"view"},{"type":"function","name":"deposit","inputs":[{"name":"assets","type":"uint256","internalType":"uint256"},{"name":"receiver","type":"address","internalType":"address"}],"outputs":[{"name":"shares","type":"uint256","internalType":"uint256"}],"stateMutability":"nonpayable"},{"type":"function","name":"maxDeposit","inputs":[{"name":"","type":"address","internalType":"address"}],"outputs":[{"name":"","type":"uint256","internalType":"uint256"}],"stateMutability":"pure"},{"type":"function","name":"maxRedeem","inputs":[{"name":"owner","type":"address","internalType":"address"}],"outputs":[{"name":"","type":"uint256","internalType":"uint256"}],"stateMutability":"view"},{"type":"function","name":"name","inputs":[],"outputs":[{"name":"","type":"string","internalType":"string"}],"stateMutability":"view"},{"type":"function","name":"previewDeposit","inputs":[{"name":"assets","type":"uint256","internalType":"uint256"}],"outputs":[{"name":"","type":"uint256","internalType":"uint256"}],"stateMutability":"view"},{"type":"function","name":"previewRedeem","inputs":[{"name":"shares","type":"uint256","internalType":"uint256"}],"outputs":[{"name":"","type":"uint256","internalType":"uint256"}],"stateMutability":"view"},{"type":"function","name":"redeem","inputs":[{"name":"shares","type":"uint256","internalType":"uint256"},{"name":"receiver","type":"address","internalType":"address"},{"name":"owner","type":"address","internalType":"address"}],"outputs":[{"name":"assets","type":"uint256","internalType":"uint256"}],"stateMutability":"nonpayable"},{"type":"function","name":"setSharePrice","inputs":[{"name":"_price","type":"uint256","internalType":"uint256"}],"outputs":[],"stateMutability":"nonpayable"},{"type":"function","name":"sharePrice","inputs":[],"outputs":[{"name":"","type":"uint256","internalType":"uint256"}],"stateMutability":"view"},{"type":"function","name":"simulateYield","inputs":[{"name":"amount","type":"uint256","internalType":"uint256"}],"outputs":[],"stateMutability":"nonpayable"},{"type":"function","name":"symbol","inputs":[],"outputs":[{"name":"","type":"string","internalType":"string"}],"stateMutability":"view"},{"type":"function","name":"totalAssets","inputs":[],"outputs":[{"name":"","type":"uint256","internalType":"uint256"}],"stateMutability":"view"},{"type":"function","name":"totalSupply","inputs":[],"outputs":[{"name":"","type":"uint256","internalType":"uint256"}],"stateMutability":"view"},{"type":"function","name":"transfer","inputs":[{"name":"to","type":"address","internalType":"address"},{"name":"value","type":"uint256","internalType":"uint256"}],"outputs":[{"name":"","type":"bool","internalType":"bool"}],"stateMutability":"nonpayable"},{"type":"function","name":"transferFrom","inputs":[{"name":"from","type":"address","internalType":"address"},{"name":"to","type":"address","internalType":"address"},{"name":"value","type":"uint256","internalType":"uint256"}],"outputs":[{"name":"","type":"bool","internalType":"bool"}],"stateMutability":"nonpayable"},{"type":"function","name":"usdsToken","inputs":[],"outputs":[{"name":"","type":"address","internalType":"contract IERC20"}],"stateMutability":"view"},{"type":"function","name":"withdraw","inputs":[{"name":"assets","type":"uint256","internalType":"uint256"},{"name":"receiver","type":"address","internalType":"address"},{"name":"owner","type":"address","internalType":"address"}],"outputs":[{"name":"shares","type":"uint256","internalType":"uint256"}],"stateMutability":"nonpayable"},{"type":"event","name":"Approval","inputs":[{"name":"owner","type":"address","indexed":true,"internalType":"address"},{"name":"spender","type":"address","indexed":true,"internalType":"address"},{"name":"value","type":"uint256","indexed":false,"internalType":"uint256"}],"anonymous":false},{"type":"event","name":"Transfer","inputs":[{"name":"from","type":"address","indexed":true,"internalType":"address"},{"name":"to","type":"address","indexed":true,"internalType":"address"},{"name":"value","type":"uint256","indexed":false,"internalType":"uint256"}],"anonymous":false},{"type":"error","name":"ERC20InsufficientAllowance","inputs":[{"name":"spender","type":"address","internalType":"address"},{"name":"allowance","type":"uint256","internalType":"uint256"},{"name":"needed","type":"uint256","internalType":"uint256"}]},{"type":"error","name":"ERC20InsufficientBalance","inputs":[{"name":"sender","type":"address","internalType":"address"},{"name":"balance","type":"uint256","internalType":"uint256"},{"name":"needed","type":"uint256","internalType":"uint256"}]},{"type":"error","name":"ERC20InvalidApprover","inputs":[{"name":"approver","type":"address","internalType":"address"}]},{"type":"error","name":"ERC20InvalidReceiver","inputs":[{"name":"receiver","type":"address","internalType":"address"}]},{"type":"error","name":"ERC20InvalidSender","inputs":[{"name":"sender","type":"address","internalType":"address"}]},{"type":"error","name":"ERC20InvalidSpender","inputs":[{"name":"spender","type":"address","internalType":"address"}]},{"type":"error","name":"SafeERC20FailedOperation","inputs":[{"name":"token","type":"address","internalType":"address"}]}],"bytecode":{"object":"0x60a060405234801561000f575f80fd5b5060405161121638038061121683398101604081905261002e916100b1565b6040518060400160405280601081526020016f4d6f636b205374616b6564205553445360801b81525060405180604001604052806005815260200164735553445360d81b81525081600390816100849190610176565b5060046100918282610176565b5050506001600160a01b0316608052670de0b6b3a7640000600555610230565b5f602082840312156100c1575f80fd5b81516001600160a01b03811681146100d7575f80fd5b9392505050565b634e487b7160e01b5f52604160045260245ffd5b600181811c9082168061010657607f821691505b60208210810361012457634e487b7160e01b5f52602260045260245ffd5b50919050565b601f82111561017157805f5260205f20601f840160051c8101602085101561014f5750805b601f840160051c820191505b8181101561016e575f815560010161015b565b50505b505050565b81516001600160401b0381111561018f5761018f6100de565b6101a38161019d84546100f2565b8461012a565b6020601f8211600181146101d5575f83156101be5750848201515b5f19600385901b1c1916600184901b17845561016e565b5f84815260208120601f198516915b8281101561020457878501518255602094850194600190920191016101e4565b508482101561022157868401515f19600387901b60f8161c191681555b50505050600190811b01905550565b608051610f9d6102795f395f81816101fe015281816103460152818161037f01528181610501015281816106610152818161077e0152818161081001526108610152610f9d5ff3fe608060405234801561000f575f80fd5b5060043610610153575f3560e01c806370a08231116100bf578063c6e6f59211610079578063c6e6f592146102e2578063d905777e146102f5578063dd62ed3e14610308578063e7ca856d1461031b578063ef8b30f71461032e578063f8f8d17414610341575f80fd5b806370a0823114610270578063872697291461029857806395d89b41146102a1578063a9059cbb146102a9578063b460af94146102bc578063ba087652146102cf575f80fd5b806323b872dd1161011057806323b872dd146101da578063313ce567146101ed57806338d52e0f146101fc578063402d267d146102365780634cdad5061461024a5780636e553f651461025d575f80fd5b806301e1d1141461015757806306fdde031461017257806307a2d13a14610187578063095ea7b31461019a57806316b60249146101bd57806318160ddd146101d2575b5f80fd5b61015f610368565b6040519081526020015b60405180910390f35b61017a6103f5565b6040516101699190610d3b565b61015f610195366004610d70565b610485565b6101ad6101a8366004610da2565b6104ad565b6040519015158152602001610169565b6101d06101cb366004610d70565b600555565b005b60025461015f565b6101ad6101e8366004610dca565b6104c4565b60405160128152602001610169565b7f00000000000000000000000000000000000000000000000000000000000000005b6040516001600160a01b039091168152602001610169565b61015f610244366004610e04565b505f1990565b61015f610258366004610d70565b6104e9565b61015f61026b366004610e1d565b6104f3565b61015f61027e366004610e04565b6001600160a01b03165f9081526020819052604090205490565b61015f60055481565b61017a61053e565b6101ad6102b7366004610da2565b61054d565b61015f6102ca366004610e47565b61055a565b61015f6102dd366004610e47565b610688565b61015f6102f0366004610d70565b6107a5565b61015f610303366004610e04565b6107bc565b61015f610316366004610e80565b6107d9565b6101d0610329366004610d70565b610803565b61015f61033c366004610d70565b6108fa565b61021e7f000000000000000000000000000000000000000000000000000000000000000081565b6040516370a0823160e01b81523060048201525f907f00000000000000000000000000000000000000000000000000000000000000006001600160a01b0316906370a0823190602401602060405180830381865afa1580156103cc573d5f803e3d5ffd5b505050506040513d601f19601f820116820180604052508101906103f09190610ea8565b905090565b60606003805461040490610ebf565b80601f016020809104026020016040519081016040528092919081815260200182805461043090610ebf565b801561047b5780601f106104525761010080835404028352916020019161047b565b820191905f5260205f20905b81548152906001019060200180831161045e57829003601f168201915b5050505050905090565b5f670de0b6b3a76400006005548361049d9190610f0b565b6104a79190610f22565b92915050565b5f336104ba818585610904565b5060019392505050565b5f336104d1858285610916565b6104dc85858561097a565b60019150505b9392505050565b5f6104a782610485565b5f6105296001600160a01b037f0000000000000000000000000000000000000000000000000000000000000000163330866109d7565b610532836107a5565b90506104a78282610a3e565b60606004805461040490610ebf565b5f336104ba81858561097a565b5f610564846107a5565b905080610585836001600160a01b03165f9081526020819052604090205490565b10156105ce5760405162461bcd60e51b8152602060048201526013602482015272496e73756666696369656e742073686172657360681b60448201526064015b60405180910390fd5b336001600160a01b0383161461064a575f6105e983336107d9565b9050818110156106345760405162461bcd60e51b8152602060048201526016602482015275496e73756666696369656e7420616c6c6f77616e636560501b60448201526064016105c5565b61064883336106438585610f41565b610904565b505b6106548282610a72565b6104e26001600160a01b037f0000000000000000000000000000000000000000000000000000000000000000168486610aa6565b6001600160a01b0381165f908152602081905260408120548411156106e55760405162461bcd60e51b8152602060048201526013602482015272496e73756666696369656e742073686172657360681b60448201526064016105c5565b336001600160a01b0383161461075c575f61070083336107d9565b90508481101561074b5760405162461bcd60e51b8152602060048201526016602482015275496e73756666696369656e7420616c6c6f77616e636560501b60448201526064016105c5565b61075a83336106438885610f41565b505b61076584610485565b90506107718285610a72565b6104e26001600160a01b037f0000000000000000000000000000000000000000000000000000000000000000168483610aa6565b6005545f9061049d83670de0b6b3a7640000610f0b565b6001600160a01b0381165f908152602081905260408120546104a7565b6001600160a01b039182165f90815260016020908152604080832093909416825291909152205490565b6108386001600160a01b037f0000000000000000000000000000000000000000000000000000000000000000163330846109d7565b5f61084260025490565b905080156108f6576040516370a0823160e01b81523060048201525f907f00000000000000000000000000000000000000000000000000000000000000006001600160a01b0316906370a0823190602401602060405180830381865afa1580156108ae573d5f803e3d5ffd5b505050506040513d601f19601f820116820180604052508101906108d29190610ea8565b9050816108e782670de0b6b3a7640000610f0b565b6108f19190610f22565b600555505b5050565b5f6104a7826107a5565b6109118383836001610ad7565b505050565b5f61092184846107d9565b90505f19811015610974578181101561096657604051637dc7a0d960e11b81526001600160a01b038416600482015260248101829052604481018390526064016105c5565b61097484848484035f610ad7565b50505050565b6001600160a01b0383166109a357604051634b637e8f60e11b81525f60048201526024016105c5565b6001600160a01b0382166109cc5760405163ec442f0560e01b81525f60048201526024016105c5565b610911838383610ba9565b6040516001600160a01b0384811660248301528381166044830152606482018390526109749186918216906323b872dd906084015b604051602081830303815290604052915060e01b6020820180516001600160e01b038381831617835250505050610ccf565b6001600160a01b038216610a675760405163ec442f0560e01b81525f60048201526024016105c5565b6108f65f8383610ba9565b6001600160a01b038216610a9b57604051634b637e8f60e11b81525f60048201526024016105c5565b6108f6825f83610ba9565b6040516001600160a01b0383811660248301526044820183905261091191859182169063a9059cbb90606401610a0c565b6001600160a01b038416610b005760405163e602df0560e01b81525f60048201526024016105c5565b6001600160a01b038316610b2957604051634a1406b160e11b81525f60048201526024016105c5565b6001600160a01b038085165f908152600160209081526040808320938716835292905220829055801561097457826001600160a01b0316846001600160a01b03167f8c5be1e5ebec7d5bd14f71427d1e84f3dd0314c0f7b2291e5b200ac8c7c3b92584604051610b9b91815260200190565b60405180910390a350505050565b6001600160a01b038316610bd3578060025f828254610bc89190610f54565b90915550610c439050565b6001600160a01b0383165f9081526020819052604090205481811015610c255760405163391434e360e21b81526001600160a01b038516600482015260248101829052604481018390526064016105c5565b6001600160a01b0384165f9081526020819052604090209082900390555b6001600160a01b038216610c5f57600280548290039055610c7d565b6001600160a01b0382165f9081526020819052604090208054820190555b816001600160a01b0316836001600160a01b03167fddf252ad1be2c89b69c2b068fc378daa952ba7f163c4a11628f55a4df523b3ef83604051610cc291815260200190565b60405180910390a3505050565b5f8060205f8451602086015f885af180610cee576040513d5f823e3d81fd5b50505f513d91508115610d05578060011415610d12565b6001600160a01b0384163b155b1561097457604051635274afe760e01b81526001600160a01b03851660048201526024016105c5565b602081525f82518060208401528060208501604085015e5f604082850101526040601f19601f83011684010191505092915050565b5f60208284031215610d80575f80fd5b5035919050565b80356001600160a01b0381168114610d9d575f80fd5b919050565b5f8060408385031215610db3575f80fd5b610dbc83610d87565b946020939093013593505050565b5f805f60608486031215610ddc575f80fd5b610de584610d87565b9250610df360208501610d87565b929592945050506040919091013590565b5f60208284031215610e14575f80fd5b6104e282610d87565b5f8060408385031215610e2e575f80fd5b82359150610e3e60208401610d87565b90509250929050565b5f805f60608486031215610e59575f80fd5b83359250610e6960208501610d87565b9150610e7760408501610d87565b90509250925092565b5f8060408385031215610e91575f80fd5b610e9a83610d87565b9150610e3e60208401610d87565b5f60208284031215610eb8575f80fd5b5051919050565b600181811c90821680610ed357607f821691505b602082108103610ef157634e487b7160e01b5f52602260045260245ffd5b50919050565b634e487b7160e01b5f52601160045260245ffd5b80820281158282048414176104a7576104a7610ef7565b5f82610f3c57634e487b7160e01b5f52601260045260245ffd5b500490565b818103818111156104a7576104a7610ef7565b808201808211156104a7576104a7610ef756fea2646970667358221220ff07acf14e276fbda1758e96f1bd7dd1a969fc735233e5f3cdc4c2548d169c0d64736f6c634300081a0033","linkReferences":{}},"methodIdentifiers":{"allowance(address,address)":"dd62ed3e","approve(address,uint256)":"095ea7b3","asset()":"38d52e0f","balanceOf(address)":"70a08231","convertToAssets(uint256)":"07a2d13a","convertToShares(uint256)":"c6e6f592","decimals()":"313ce567","deposit(uint256,address)":"6e553f65","maxDeposit(address)":"402d267d","maxRedeem(address)":"d905777e","name()":"06fdde03","previewDeposit(uint256)":"ef8b30f7","previewRedeem(uint256)":"4cdad506","redeem(uint256,address,address)":"ba087652","setSharePrice(uint256)":"16b60249","sharePrice()":"87269729","simulateYield(uint256)":"e7ca856d","symbol()":"95d89b41","totalAssets()":"01e1d114","totalSupply()":"18160ddd","transfer(address,uint256)":"a9059cbb","transferFrom(address,address,uint256)":"23b872dd","usdsToken()":"f8f8d174","withdraw(uint256,address,address)":"b460af94"},"id":52}