{"abi":[{"type":"constructor","inputs":[],"stateMutability":"nonpayable"},{"type":"fallback","stateMutability":"payable"},{"type":"receive","stateMutability":"payable"},{"type":"function","name":"amount","inputs":[],"outputs":[{"name":"","type":"uint256","internalType":"uint256"}],"stateMutability":"view"},{"type":"function","name":"approve","inputs":[{"name":"_token","type":"address","internalType":"address"},{"name":"spender","type":"address","internalType":"address"},{"name":"_amount","type":"uint256","internalType":"uint256"}],"outputs":[],"stateMutability":"nonpayable"},{"type":"function","name":"attackCount","inputs":[],"outputs":[{"name":"","type":"uint256","internalType":"uint256"}],"stateMutability":"view"},{"type":"function","name":"attackSucceeded","inputs":[],"outputs":[{"name":"","type":"bool","internalType":"bool"}],"stateMutability":"view"},{"type":"function","name":"attackType","inputs":[],"outputs":[{"name":"","type":"uint8","internalType":"enum MockReentrantAttacker.AttackType"}],"stateMutability":"view"},{"type":"function","name":"executeAttack","inputs":[{"name":"data","type":"bytes","internalType":"bytes"}],"outputs":[{"name":"success","type":"bool","internalType":"bool"},{"name":"result","type":"bytes","internalType":"bytes"}],"stateMutability":"nonpayable"},{"type":"function","name":"maxAttacks","inputs":[],"outputs":[{"name":"","type":"uint256","internalType":"uint256"}],"stateMutability":"view"},{"type":"function","name":"onTransferReceived","inputs":[{"name":"","type":"address","internalType":"address"},{"name":"","type":"address","internalType":"address"},{"name":"","type":"uint256","internalType":"uint256"},{"name":"","type":"bytes","internalType":"bytes"}],"outputs":[{"name":"","type":"bytes4","internalType":"bytes4"}],"stateMutability":"nonpayable"},{"type":"function","name":"setAttack","inputs":[{"name":"_target","type":"address","internalType":"address"},{"name":"_type","type":"uint8","internalType":"enum MockReentrantAttacker.AttackType"},{"name":"_token","type":"address","internalType":"address"},{"name":"_amount","type":"uint256","internalType":"uint256"}],"outputs":[],"stateMutability":"nonpayable"},{"type":"function","name":"target","inputs":[],"outputs":[{"name":"","type":"address","internalType":"address"}],"stateMutability":"view"},{"type":"function","name":"token","inputs":[],"outputs":[{"name":"","type":"address","internalType":"address"}],"stateMutability":"view"},{"type":"function","name":"tokensReceived","inputs":[{"name":"","type":"address","internalType":"address"},{"name":"","type":"address","internalType":"address"},{"name":"","type":"address","internalType":"address"},{"name":"","type":"uint256","internalType":"uint256"},{"name":"","type":"bytes","internalType":"bytes"},{"name":"","type":"bytes","internalType":"bytes"}],"outputs":[],"stateMutability":"nonpayable"},{"type":"event","name":"AttackAttempted","inputs":[{"name":"attackType","type":"uint8","indexed":false,"internalType":"enum MockReentrantAttacker.AttackType"},{"name":"count","type":"uint256","indexed":false,"internalType":"uint256"},{"name":"reverted","type":"bool","indexed":false,"internalType":"bool"}],"anonymous":false}],"bytecode":{"object":"0x6080604052348015600e575f80fd5b506001600455610bef806100215f395ff3fe6080604052600436106100a9575f3560e01c8063a37573d611610063578063a37573d6146101b8578063aa8c217c146101cd578063ad0b523f146101e2578063d4b839921461020e578063e1f21c6714610244578063fc0c546a14610263576100b8565b806223de29146100c0578063277e73ac146100df578063407c282114610115578063538ca650146101385780638833dc271461015757806388a7ca5c14610180576100b8565b366100b8576100b6610282565b005b6100b6610282565b3480156100cb575f80fd5b506100b66100da3660046108c7565b6106de565b3480156100ea575f80fd5b506100fe6100f9366004610970565b6106f0565b60405161010c9291906109af565b60405180910390f35b348015610120575f80fd5b5061012a60035481565b60405190815260200161010c565b348015610143575f80fd5b506100b66101523660046109ed565b61075a565b348015610162575f80fd5b506005546101709060ff1681565b604051901515815260200161010c565b34801561018b575f80fd5b5061019f61019a366004610a3a565b6107d6565b6040516001600160e01b0319909116815260200161010c565b3480156101c3575f80fd5b5061012a60045481565b3480156101d8575f80fd5b5061012a60025481565b3480156101ed575f80fd5b505f5461020190600160a01b900460ff1681565b60405161010c9190610ad8565b348015610219575f80fd5b505f5461022c906001600160a01b031681565b6040516001600160a01b03909116815260200161010c565b34801561024f575f80fd5b506100b661025e366004610aec565b6107f1565b34801561026e575f80fd5b5060015461022c906001600160a01b031681565b6004546003541061028f57565b60038054905f61029e83610b26565b909155505f9050606060015f54600160a01b900460ff1660088111156102c6576102c6610aa4565b0361031d576001546002546040516001600160a01b039092166024830152604482015260640160408051601f198184030181529190526020810180516001600160e01b03166311f9fbc960e21b179052905061061e565b60025f54600160a01b900460ff16600881111561033c5761033c610aa4565b03610393576001546002546040516001600160a01b039092166024830152604482015260640160408051601f198184030181529190526020810180516001600160e01b031663350c35e960e01b179052905061061e565b60035f54600160a01b900460ff1660088111156103b2576103b2610aa4565b036103fd576002546040516024016103cc91815260200190565b60408051601f198184030181529190526020810180516001600160e01b031663317afabb60e21b179052905061061e565b60045f54600160a01b900460ff16600881111561041c5761041c610aa4565b036104675760025460405160240161043691815260200190565b60408051601f198184030181529190526020810180516001600160e01b0316631b8fec7360e11b179052905061061e565b60055f54600160a01b900460ff16600881111561048657610486610aa4565b036104d357600254604051602481019190915230604482015260640160408051601f198184030181529190526020810180516001600160e01b0316636e553f6560e01b179052905061061e565b60065f54600160a01b900460ff1660088111156104f2576104f2610aa4565b036105465760025460405160248101919091523060448201819052606482015260840160408051601f198184030181529190526020810180516001600160e01b0316635d043b2960e11b179052905061061e565b60075f54600160a01b900460ff16600881111561056557610565610aa4565b036105b05760025460405160240161057f91815260200190565b60408051601f198184030181529190526020810180516001600160e01b031663140e25ad60e31b179052905061061e565b60085f54600160a01b900460ff1660088111156105cf576105cf610aa4565b0361061a576002546040516024016105e991815260200190565b60408051601f198184030181529190526020810180516001600160e01b031663db006a7560e01b179052905061061e565b5050565b5f546040516001600160a01b039091169061063a908390610b4a565b5f604051808303815f865af19150503d805f8114610673576040519150601f19603f3d011682016040523d82523d5f602084013e610678565b606091505b5050600580548215801560ff19909216919091179091555f546003546040519395507f2deef4ccd1ea1daef24844476bfb24d21f66f91c8da2e1bf8df697878749cf1e936106d293600160a01b90930460ff169290610b60565b60405180910390a15050565b6106e6610282565b5050505050505050565b5f80546040516060916001600160a01b0316906107109086908690610b84565b5f604051808303815f865af19150503d805f8114610749576040519150601f19603f3d011682016040523d82523d5f602084013e61074e565b606091505b50909590945092505050565b5f80546001600160a01b0386166001600160a01b03198216811783558592916001600160a81b03191617600160a01b83600881111561079b5761079b610aa4565b0217905550600180546001600160a01b0319166001600160a01b03939093169290921790915560025550505f6003556005805460ff19169055565b5f6107df610282565b50632229f29760e21b95945050505050565b60405163095ea7b360e01b81526001600160a01b0383811660048301526024820183905284169063095ea7b3906044016020604051808303815f875af115801561083d573d5f803e3d5ffd5b505050506040513d601f19601f820116820180604052508101906108619190610b93565b50505050565b80356001600160a01b038116811461087d575f80fd5b919050565b5f8083601f840112610892575f80fd5b50813567ffffffffffffffff8111156108a9575f80fd5b6020830191508360208285010111156108c0575f80fd5b9250929050565b5f805f805f805f8060c0898b0312156108de575f80fd5b6108e789610867565b97506108f560208a01610867565b965061090360408a01610867565b955060608901359450608089013567ffffffffffffffff811115610925575f80fd5b6109318b828c01610882565b90955093505060a089013567ffffffffffffffff811115610950575f80fd5b61095c8b828c01610882565b999c989b5096995094979396929594505050565b5f8060208385031215610981575f80fd5b823567ffffffffffffffff811115610997575f80fd5b6109a385828601610882565b90969095509350505050565b8215158152604060208201525f82518060408401528060208501606085015e5f606082850101526060601f19601f8301168401019150509392505050565b5f805f8060808587031215610a00575f80fd5b610a0985610867565b9350602085013560098110610a1c575f80fd5b9250610a2a60408601610867565b9396929550929360600135925050565b5f805f805f60808688031215610a4e575f80fd5b610a5786610867565b9450610a6560208701610867565b935060408601359250606086013567ffffffffffffffff811115610a87575f80fd5b610a9388828901610882565b969995985093965092949392505050565b634e487b7160e01b5f52602160045260245ffd5b60098110610ad457634e487b7160e01b5f52602160045260245ffd5b9052565b60208101610ae68284610ab8565b92915050565b5f805f60608486031215610afe575f80fd5b610b0784610867565b9250610b1560208501610867565b929592945050506040919091013590565b5f60018201610b4357634e487b7160e01b5f52601160045260245ffd5b5060010190565b5f82518060208501845e5f920191825250919050565b60608101610b6e8286610ab8565b8360208301528215156040830152949350505050565b818382375f9101908152919050565b5f60208284031215610ba3575f80fd5b81518015158114610bb2575f80fd5b939250505056fea26469706673582212208614bb8793288b2f14c513c987c1373a56a725f79fff8291617e6d7feb3c255864736f6c634300081a0033","linkReferences":{}},"methodIdentifiers":{"amount()":"aa8c217c","approve(address,address,uint256)":"e1f21c67","attackCount()":"407c2821","attackSucceeded()":"8833dc27","attackType()":"ad0b523f","executeAttack(bytes)":"277e73ac","maxAttacks()":"a37573d6","onTransferReceived(address,address,uint256,bytes)":"88a7ca5c","setAttack(address,uint8,address,uint256)":"538ca650","target()":"d4b83992","token()":"fc0c546a","tokensReceived(address,address,address,uint256,bytes,bytes)":"0023de29"},"id":49}