{"abi":[{"type":"constructor","inputs":[{"name":"_usdc","type":"address","internalType":"address"},{"name":"_musd","type":"address","internalType":"address"}],"stateMutability":"nonpayable"},{"type":"function","name":"mintFor","inputs":[{"name":"","type":"address","internalType":"address"},{"name":"usdcAmount","type":"uint256","internalType":"uint256"}],"outputs":[{"name":"musdMinted","type":"uint256","internalType":"uint256"}],"stateMutability":"nonpayable"},{"type":"function","name":"musd","inputs":[],"outputs":[{"name":"","type":"address","internalType":"contract IERC20"}],"stateMutability":"view"},{"type":"function","name":"setShouldFail","inputs":[{"name":"_shouldFail","type":"bool","internalType":"bool"}],"outputs":[],"stateMutability":"nonpayable"},{"type":"function","name":"shouldFail","inputs":[],"outputs":[{"name":"","type":"bool","internalType":"bool"}],"stateMutability":"view"},{"type":"function","name":"usdc","inputs":[],"outputs":[{"name":"","type":"address","internalType":"contract IERC20"}],"stateMutability":"view"},{"type":"error","name":"SafeERC20FailedOperation","inputs":[{"name":"token","type":"address","internalType":"address"}]}],"bytecode":{"object":"0x6080604052348015600e575f80fd5b506040516103b93803806103b9833981016040819052602b916074565b5f80546001600160a01b039384166001600160a01b0319918216179091556001805492909316911617905560a0565b80516001600160a01b0381168114606f575f80fd5b919050565b5f80604083850312156084575f80fd5b608b83605a565b9150609760208401605a565b90509250929050565b61030c806100ad5f395ff3fe608060405234801561000f575f80fd5b5060043610610055575f3560e01c80633e413bee14610059578063678d220414610088578063a5aa5c12146100ac578063cab666d0146100da578063da1919b3146100ed575b5f80fd5b5f5461006b906001600160a01b031681565b6040516001600160a01b0390911681526020015b60405180910390f35b60015461009c90600160a01b900460ff1681565b604051901515815260200161007f565b6100d86100ba366004610258565b60018054911515600160a01b0260ff60a01b19909216919091179055565b005b60015461006b906001600160a01b031681565b6101006100fb36600461027e565b61010e565b60405190815260200161007f565b6001545f90600160a01b900460ff161561015d5760405162461bcd60e51b815260206004820152600b60248201526a1352539517d1905253115160aa1b60448201526064015b60405180910390fd5b5f54610174906001600160a01b031633308561018c565b6101838264e8d4a510006102b3565b90505b92915050565b604080516001600160a01b0385811660248301528416604482015260648082018490528251808303909101815260849091019091526020810180516001600160e01b03166323b872dd60e01b1790526101e69085906101ec565b50505050565b5f8060205f8451602086015f885af18061020b576040513d5f823e3d81fd5b50505f513d9150811561022257806001141561022f565b6001600160a01b0384163b155b156101e657604051635274afe760e01b81526001600160a01b0385166004820152602401610154565b5f60208284031215610268575f80fd5b81358015158114610277575f80fd5b9392505050565b5f806040838503121561028f575f80fd5b82356001600160a01b03811681146102a5575f80fd5b946020939093013593505050565b808202811582820484141761018657634e487b7160e01b5f52601160045260245ffdfea26469706673582212204b121605fd31795a2b221bd14344b6ec2b4836f8ecf72d526f00ebca38817ad664736f6c634300081a0033","linkReferences":{}},"methodIdentifiers":{"mintFor(address,uint256)":"da1919b3","musd()":"cab666d0","setShouldFail(bool)":"a5aa5c12","shouldFail()":"678d2204","usdc()":"3e413bee"},"id":44}