{"abi":[{"type":"constructor","inputs":[],"stateMutability":"nonpayable"},{"type":"function","name":"getPtToSyRate","inputs":[{"name":"market","type":"address","internalType":"address"},{"name":"","type":"uint32","internalType":"uint32"}],"outputs":[{"name":"","type":"uint256","internalType":"uint256"}],"stateMutability":"view"},{"type":"function","name":"getYtToSyRate","inputs":[{"name":"","type":"address","internalType":"address"},{"name":"","type":"uint32","internalType":"uint32"}],"outputs":[{"name":"","type":"uint256","internalType":"uint256"}],"stateMutability":"pure"},{"type":"function","name":"ptToSyRates","inputs":[{"name":"","type":"address","internalType":"address"}],"outputs":[{"name":"","type":"uint256","internalType":"uint256"}],"stateMutability":"view"},{"type":"function","name":"setPtToSyRate","inputs":[{"name":"market","type":"address","internalType":"address"},{"name":"rate","type":"uint256","internalType":"uint256"}],"outputs":[],"stateMutability":"nonpayable"},{"type":"function","name":"setSyToAssetRate","inputs":[{"name":"market","type":"address","internalType":"address"},{"name":"rate","type":"uint256","internalType":"uint256"}],"outputs":[],"stateMutability":"nonpayable"},{"type":"function","name":"syToAssetRates","inputs":[{"name":"","type":"address","internalType":"address"}],"outputs":[{"name":"","type":"uint256","internalType":"uint256"}],"stateMutability":"view"}],"bytecode":{"object":"0x6080604052348015600e575f80fd5b506102448061001c5f395ff3fe608060405234801561000f575f80fd5b5060043610610060575f3560e01c806318b60ad8146100645780633f3cccce1461008f578063a31426d1146100b8578063fda76d84146100dd578063ff0f570f146100fc578063ffec44071461011b575b5f80fd5b61008d610072366004610189565b6001600160a01b039091165f90815260016020526040902055565b005b61008d61009d366004610189565b6001600160a01b039091165f90815260208190526040902055565b6100cb6100c63660046101b1565b610138565b60405190815260200160405180910390f35b6100cb6100eb3660046101ee565b5f6020819052908152604090205481565b6100cb61010a3660046101ee565b60016020525f908152604090205481565b6100cb6101293660046101b1565b670de0b6b3a764000092915050565b6001600160a01b0382165f90815260208190526040812054801561015c5780610166565b670de0b6b3a76400005b949350505050565b80356001600160a01b0381168114610184575f80fd5b919050565b5f806040838503121561019a575f80fd5b6101a38361016e565b946020939093013593505050565b5f80604083850312156101c2575f80fd5b6101cb8361016e565b9150602083013563ffffffff811681146101e3575f80fd5b809150509250929050565b5f602082840312156101fe575f80fd5b6102078261016e565b939250505056fea26469706673582212202616752fab08918db4ff34934213f79f30b0ecce7a6d9715b464c78f35ce72e064736f6c634300081a0033","linkReferences":{}},"methodIdentifiers":{"getPtToSyRate(address,uint32)":"a31426d1","getYtToSyRate(address,uint32)":"ffec4407","ptToSyRates(address)":"fda76d84","setPtToSyRate(address,uint256)":"3f3cccce","setSyToAssetRate(address,uint256)":"18b60ad8","syToAssetRates(address)":"ff0f570f"},"id":48}