{"abi":[{"type":"constructor","inputs":[{"name":"_smusd","type":"address","internalType":"address"},{"name":"_admin","type":"address","internalType":"address"}],"stateMutability":"nonpayable"},{"type":"function","name":"ADAPTER_ADMIN_ROLE","inputs":[],"outputs":[{"name":"","type":"bytes32","internalType":"bytes32"}],"stateMutability":"view"},{"type":"function","name":"DECIMALS","inputs":[],"outputs":[{"name":"","type":"uint8","internalType":"uint8"}],"stateMutability":"view"},{"type":"function","name":"DEFAULT_ADMIN_ROLE","inputs":[],"outputs":[{"name":"","type":"bytes32","internalType":"bytes32"}],"stateMutability":"view"},{"type":"function","name":"decimals","inputs":[],"outputs":[{"name":"","type":"uint8","internalType":"uint8"}],"stateMutability":"pure"},{"type":"function","name":"description","inputs":[],"outputs":[{"name":"","type":"string","internalType":"string"}],"stateMutability":"pure"},{"type":"function","name":"getRoleAdmin","inputs":[{"name":"role","type":"bytes32","internalType":"bytes32"}],"outputs":[{"name":"","type":"bytes32","internalType":"bytes32"}],"stateMutability":"view"},{"type":"function","name":"getRoundData","inputs":[{"name":"","type":"uint80","internalType":"uint80"}],"outputs":[{"name":"roundId","type":"uint80","internalType":"uint80"},{"name":"answer","type":"int256","internalType":"int256"},{"name":"startedAt","type":"uint256","internalType":"uint256"},{"name":"updatedAt","type":"uint256","internalType":"uint256"},{"name":"answeredInRound","type":"uint80","internalType":"uint80"}],"stateMutability":"view"},{"type":"function","name":"grantRole","inputs":[{"name":"role","type":"bytes32","internalType":"bytes32"},{"name":"account","type":"address","internalType":"address"}],"outputs":[],"stateMutability":"nonpayable"},{"type":"function","name":"hasRole","inputs":[{"name":"role","type":"bytes32","internalType":"bytes32"},{"name":"account","type":"address","internalType":"address"}],"outputs":[{"name":"","type":"bool","internalType":"bool"}],"stateMutability":"view"},{"type":"function","name":"incrementRound","inputs":[],"outputs":[],"stateMutability":"nonpayable"},{"type":"function","name":"latestRoundData","inputs":[],"outputs":[{"name":"roundId","type":"uint80","internalType":"uint80"},{"name":"answer","type":"int256","internalType":"int256"},{"name":"startedAt","type":"uint256","internalType":"uint256"},{"name":"updatedAt","type":"uint256","internalType":"uint256"},{"name":"answeredInRound","type":"uint80","internalType":"uint80"}],"stateMutability":"view"},{"type":"function","name":"maxPriceChangePerBlock","inputs":[],"outputs":[{"name":"","type":"uint256","internalType":"uint256"}],"stateMutability":"view"},{"type":"function","name":"maxSharePrice","inputs":[],"outputs":[{"name":"","type":"uint256","internalType":"uint256"}],"stateMutability":"view"},{"type":"function","name":"minSharePrice","inputs":[],"outputs":[{"name":"","type":"uint256","internalType":"uint256"}],"stateMutability":"view"},{"type":"function","name":"minTotalSupply","inputs":[],"outputs":[{"name":"","type":"uint256","internalType":"uint256"}],"stateMutability":"view"},{"type":"function","name":"renounceRole","inputs":[{"name":"role","type":"bytes32","internalType":"bytes32"},{"name":"callerConfirmation","type":"address","internalType":"address"}],"outputs":[],"stateMutability":"nonpayable"},{"type":"function","name":"revokeRole","inputs":[{"name":"role","type":"bytes32","internalType":"bytes32"},{"name":"account","type":"address","internalType":"address"}],"outputs":[],"stateMutability":"nonpayable"},{"type":"function","name":"setDonationProtection","inputs":[{"name":"_minTotalSupply","type":"uint256","internalType":"uint256"},{"name":"_maxPriceChangePerBlock","type":"uint256","internalType":"uint256"}],"outputs":[],"stateMutability":"nonpayable"},{"type":"function","name":"setSharePriceBounds","inputs":[{"name":"_minPrice","type":"uint256","internalType":"uint256"},{"name":"_maxPrice","type":"uint256","internalType":"uint256"}],"outputs":[],"stateMutability":"nonpayable"},{"type":"function","name":"smusd","inputs":[],"outputs":[{"name":"","type":"address","internalType":"address"}],"stateMutability":"view"},{"type":"function","name":"supportsInterface","inputs":[{"name":"interfaceId","type":"bytes4","internalType":"bytes4"}],"outputs":[{"name":"","type":"bool","internalType":"bool"}],"stateMutability":"view"},{"type":"function","name":"updateCachedPrice","inputs":[],"outputs":[],"stateMutability":"nonpayable"},{"type":"function","name":"version","inputs":[],"outputs":[{"name":"","type":"uint256","internalType":"uint256"}],"stateMutability":"pure"},{"type":"event","name":"DonationProtectionUpdated","inputs":[{"name":"minTotalSupply","type":"uint256","indexed":false,"internalType":"uint256"},{"name":"maxPriceChangePerBlock","type":"uint256","indexed":false,"internalType":"uint256"}],"anonymous":false},{"type":"event","name":"RoleAdminChanged","inputs":[{"name":"role","type":"bytes32","indexed":true,"internalType":"bytes32"},{"name":"previousAdminRole","type":"bytes32","indexed":true,"internalType":"bytes32"},{"name":"newAdminRole","type":"bytes32","indexed":true,"internalType":"bytes32"}],"anonymous":false},{"type":"event","name":"RoleGranted","inputs":[{"name":"role","type":"bytes32","indexed":true,"internalType":"bytes32"},{"name":"account","type":"address","indexed":true,"internalType":"address"},{"name":"sender","type":"address","indexed":true,"internalType":"address"}],"anonymous":false},{"type":"event","name":"RoleRevoked","inputs":[{"name":"role","type":"bytes32","indexed":true,"internalType":"bytes32"},{"name":"account","type":"address","indexed":true,"internalType":"address"},{"name":"sender","type":"address","indexed":true,"internalType":"address"}],"anonymous":false},{"type":"event","name":"SharePriceBoundsUpdated","inputs":[{"name":"minPrice","type":"uint256","indexed":false,"internalType":"uint256"},{"name":"maxPrice","type":"uint256","indexed":false,"internalType":"uint256"}],"anonymous":false},{"type":"event","name":"SharePriceClamped","inputs":[{"name":"rawPrice","type":"uint256","indexed":false,"internalType":"uint256"},{"name":"clampedPrice","type":"uint256","indexed":false,"internalType":"uint256"}],"anonymous":false},{"type":"error","name":"AccessControlBadConfirmation","inputs":[]},{"type":"error","name":"AccessControlUnauthorizedAccount","inputs":[{"name":"account","type":"address","internalType":"address"},{"name":"neededRole","type":"bytes32","internalType":"bytes32"}]},{"type":"error","name":"InvalidSharePrice","inputs":[{"name":"price","type":"uint256","internalType":"uint256"}]},{"type":"error","name":"SMUSDZeroAddress","inputs":[]},{"type":"error","name":"VaultTotalSupplyTooLow","inputs":[{"name":"totalSupply","type":"uint256","internalType":"uint256"},{"name":"minRequired","type":"uint256","internalType":"uint256"}]}],"bytecode":{"object":"0x60a06040526305a995c0600155630bebc200600255683635c9adc5dea00000600355624c4b40600455348015610033575f80fd5b50604051610ed9380380610ed98339810160408190526100529161019a565b6001600160a01b03821661007957604051635483d20360e01b815260040160405180910390fd5b6001600160a01b038216608052600780546001600160501b03191660011790556100a35f826100d6565b506100ce7fff1caafc278d8010b87413e5554326356456ef79fb703a8ea4451fd5d9024e31826100d6565b5050506101cb565b5f828152602081815260408083206001600160a01b038516845290915281205460ff16610176575f838152602081815260408083206001600160a01b03861684529091529020805460ff1916600117905561012e3390565b6001600160a01b0316826001600160a01b0316847f2f8788117e7eff1d82e926ec794901d17c78024a50270940304540a733656f0d60405160405180910390a4506001610179565b505f5b92915050565b80516001600160a01b0381168114610195575f80fd5b919050565b5f80604083850312156101ab575f80fd5b6101b48361017f565b91506101c26020840161017f565b90509250929050565b608051610ce86101f15f395f818161025601528181610898015261095c0152610ce85ff3fe608060405234801561000f575f80fd5b5060043610610148575f3560e01c80637be9b154116100bf578063a217fddf11610079578063a217fddf1461030f578063a916068a14610316578063ad24c0971461031f578063d547741f14610327578063e1d5a2c81461033a578063feaf968c14610342575f80fd5b80637be9b1541461025157806391d14854146102905780639531b94d146102a357806398141edb146102ac5780639a6fc8f5146102b5578063a010540f146102fc575f80fd5b8063313ce56711610110578063313ce567146101e657806336568abe146101ed57806354fd4d501461020057806356a94110146102075780637284e4161461021b57806379db634614610248575f80fd5b806301ffc9a71461014c5780630ec2fd1714610174578063248a9ca3146101895780632e0f2625146101b95780632f2ff15d146101d3575b5f80fd5b61015f61015a366004610aef565b61034a565b60405190151581526020015b60405180910390f35b610187610182366004610b16565b610380565b005b6101ab610197366004610b36565b5f9081526020819052604090206001015490565b60405190815260200161016b565b6101c1600881565b60405160ff909116815260200161016b565b6101876101e1366004610b4d565b61049f565b60086101c1565b6101876101fb366004610b4d565b6104c9565b60016101ab565b6101ab5f80516020610c9383398151915281565b604080518082018252600b81526a1cd35554d1080bc81554d160aa1b6020820152905161016b9190610b86565b6101ab60035481565b6102787f000000000000000000000000000000000000000000000000000000000000000081565b6040516001600160a01b03909116815260200161016b565b61015f61029e366004610b4d565b610501565b6101ab60015481565b6101ab60025481565b6102c86102c3366004610bbb565b610529565b604080516001600160501b03968716815260208101959095528401929092526060830152909116608082015260a00161016b565b61018761030a366004610b16565b610556565b6101ab5f81565b6101ab60045481565b610187610679565b610187610335366004610b4d565b6106e8565b61018761070c565b6102c8610763565b5f6001600160e01b03198216637965db0b60e01b148061037a57506301ffc9a760e01b6001600160e01b03198316145b92915050565b5f80516020610c938339815191526103978161078f565b5f83116103d65760405162461bcd60e51b81526020600482015260086024820152674d494e5f5a45524f60c01b60448201526064015b60405180910390fd5b8282116104135760405162461bcd60e51b815260206004820152600b60248201526a26a0ac2fa62a22afa6a4a760a91b60448201526064016103cd565b633b9aca008211156104565760405162461bcd60e51b815260206004820152600c60248201526b09a82b0bea89e9ebe90928e960a31b60448201526064016103cd565b6001839055600282905560408051848152602081018490527f7a0f32238f9e7ba4c81f916b0f4b71a8a58a801e18a398066aaf28bb8873dc9291015b60405180910390a1505050565b5f828152602081905260409020600101546104b98161078f565b6104c3838361079c565b50505050565b6001600160a01b03811633146104f25760405163334bd91960e11b815260040160405180910390fd5b6104fc828261082b565b505050565b5f918252602082815260408084206001600160a01b0393909316845291905290205460ff1690565b5f805f805f80610537610894565b6007546001600160501b03169890975042965086955088945092505050565b5f80516020610c9383398151915261056d8161078f565b5f83116105ae5760405162461bcd60e51b815260206004820152600f60248201526e4d494e5f535550504c595f5a45524f60881b60448201526064016103cd565b5f82116105ef5760405162461bcd60e51b815260206004820152600f60248201526e4d41585f4348414e47455f5a45524f60881b60448201526064016103cd565b6302faf0808211156106395760405162461bcd60e51b815260206004820152601360248201527209a82b0be8690829c8e8abea89e9ebe90928e9606b1b60448201526064016103cd565b6003839055600482905560408051848152602081018490527f837f8c428fe172d4ce07f9cf7ebb1770a80e99fba93cc38ca92f96614ea35f499101610492565b5f80516020610c938339815191526106908161078f565b5f610699610894565b600581905543600655600780549192506001600160501b03909116905f6106bf83610bf5565b91906101000a8154816001600160501b0302191690836001600160501b03160217905550505050565b5f828152602081905260409020600101546107028161078f565b6104c3838361082b565b5f80516020610c938339815191526107238161078f565b600780546001600160501b0316905f61073b83610bf5565b91906101000a8154816001600160501b0302191690836001600160501b031602179055505050565b5f805f805f80610771610894565b6007546001600160501b031697909650429550859450879350915050565b6107998133610ab2565b50565b5f6107a78383610501565b610824575f838152602081815260408083206001600160a01b03861684529091529020805460ff191660011790556107dc3390565b6001600160a01b0316826001600160a01b0316847f2f8788117e7eff1d82e926ec794901d17c78024a50270940304540a733656f0d60405160405180910390a450600161037a565b505f61037a565b5f6108368383610501565b15610824575f838152602081815260408083206001600160a01b0386168085529252808320805460ff1916905551339286917ff6391f5c32d9c69d2a47ea670b442974b53935d1edc7fd64eb21e047a839171b9190a450600161037a565b5f807f00000000000000000000000000000000000000000000000000000000000000006001600160a01b03166318160ddd6040518163ffffffff1660e01b8152600401602060405180830381865afa1580156108f2573d5f803e3d5ffd5b505050506040513d601f19601f820116820180604052508101906109169190610c1f565b905060035481101561093d575f6005541161093357600154610937565b6005545b91505090565b6040516303d1689d60e11b8152670de0b6b3a764000060048201525f907f00000000000000000000000000000000000000000000000000000000000000006001600160a01b0316906307a2d13a90602401602060405180830381865afa1580156109a9573d5f803e3d5ffd5b505050506040513d601f19601f820116820180604052508101906109cd9190610c1f565b90505f6109df6402540be40083610c36565b90506001548110156109f45750600154610a03565b600254811115610a0357506002545b5f600554118015610a15575043600654105b15610aab575f60065443610a299190610c55565b905061012c811115610a3a575061012c5b5f81600454610a499190610c68565b905080600554610a599190610c7f565b831115610a755780600554610a6e9190610c7f565b9250610aa8565b80600554118015610a92575080600554610a8f9190610c55565b83105b15610aa85780600554610aa59190610c55565b92505b50505b9392505050565b610abc8282610501565b610aeb5760405163e2517d3f60e01b81526001600160a01b0382166004820152602481018390526044016103cd565b5050565b5f60208284031215610aff575f80fd5b81356001600160e01b031981168114610aab575f80fd5b5f8060408385031215610b27575f80fd5b50508035926020909101359150565b5f60208284031215610b46575f80fd5b5035919050565b5f8060408385031215610b5e575f80fd5b8235915060208301356001600160a01b0381168114610b7b575f80fd5b809150509250929050565b602081525f82518060208401528060208501604085015e5f604082850101526040601f19601f83011684010191505092915050565b5f60208284031215610bcb575f80fd5b81356001600160501b0381168114610aab575f80fd5b634e487b7160e01b5f52601160045260245ffd5b5f6001600160501b0382166001600160501b038103610c1657610c16610be1565b60010192915050565b5f60208284031215610c2f575f80fd5b5051919050565b5f82610c5057634e487b7160e01b5f52601260045260245ffd5b500490565b8181038181111561037a5761037a610be1565b808202811582820484141761037a5761037a610be1565b8082018082111561037a5761037a610be156feff1caafc278d8010b87413e5554326356456ef79fb703a8ea4451fd5d9024e31a26469706673582212200798b46212564c016b1bba4b4a43ffaf1f5c40957825ed6a6ccd0866753033d064736f6c634300081a0033","linkReferences":{}},"methodIdentifiers":{"ADAPTER_ADMIN_ROLE()":"56a94110","DECIMALS()":"2e0f2625","DEFAULT_ADMIN_ROLE()":"a217fddf","decimals()":"313ce567","description()":"7284e416","getRoleAdmin(bytes32)":"248a9ca3","getRoundData(uint80)":"9a6fc8f5","grantRole(bytes32,address)":"2f2ff15d","hasRole(bytes32,address)":"91d14854","incrementRound()":"e1d5a2c8","latestRoundData()":"feaf968c","maxPriceChangePerBlock()":"a916068a","maxSharePrice()":"98141edb","minSharePrice()":"9531b94d","minTotalSupply()":"79db6346","renounceRole(bytes32,address)":"36568abe","revokeRole(bytes32,address)":"d547741f","setDonationProtection(uint256,uint256)":"a010540f","setSharePriceBounds(uint256,uint256)":"0ec2fd17","smusd()":"7be9b154","supportsInterface(bytes4)":"01ffc9a7","updateCachedPrice()":"ad24c097","version()":"54fd4d50"},"id":13}