{"abi":[{"type":"constructor","inputs":[{"name":"_musd","type":"address","internalType":"contract IERC20"},{"name":"_timelock","type":"address","internalType":"address"}],"stateMutability":"nonpayable"},{"type":"function","name":"BRIDGE_ROLE","inputs":[],"outputs":[{"name":"","type":"bytes32","internalType":"bytes32"}],"stateMutability":"view"},{"type":"function","name":"DEFAULT_ADMIN_ROLE","inputs":[],"outputs":[{"name":"","type":"bytes32","internalType":"bytes32"}],"stateMutability":"view"},{"type":"function","name":"INTEREST_ROUTER_ROLE","inputs":[],"outputs":[{"name":"","type":"bytes32","internalType":"bytes32"}],"stateMutability":"view"},{"type":"function","name":"MAX_GLOBAL_ASSETS_GROWTH_BPS","inputs":[],"outputs":[{"name":"","type":"uint256","internalType":"uint256"}],"stateMutability":"view"},{"type":"function","name":"MAX_SHARE_CHANGE_BPS","inputs":[],"outputs":[{"name":"","type":"uint256","internalType":"uint256"}],"stateMutability":"view"},{"type":"function","name":"MAX_YIELD_BPS","inputs":[],"outputs":[{"name":"","type":"uint256","internalType":"uint256"}],"stateMutability":"view"},{"type":"function","name":"MIN_SYNC_INTERVAL","inputs":[],"outputs":[{"name":"","type":"uint256","internalType":"uint256"}],"stateMutability":"view"},{"type":"function","name":"PAUSER_ROLE","inputs":[],"outputs":[{"name":"","type":"bytes32","internalType":"bytes32"}],"stateMutability":"view"},{"type":"function","name":"WITHDRAW_COOLDOWN","inputs":[],"outputs":[{"name":"","type":"uint256","internalType":"uint256"}],"stateMutability":"view"},{"type":"function","name":"YIELD_MANAGER_ROLE","inputs":[],"outputs":[{"name":"","type":"bytes32","internalType":"bytes32"}],"stateMutability":"view"},{"type":"function","name":"allowance","inputs":[{"name":"owner","type":"address","internalType":"address"},{"name":"spender","type":"address","internalType":"address"}],"outputs":[{"name":"","type":"uint256","internalType":"uint256"}],"stateMutability":"view"},{"type":"function","name":"approve","inputs":[{"name":"spender","type":"address","internalType":"address"},{"name":"value","type":"uint256","internalType":"uint256"}],"outputs":[{"name":"","type":"bool","internalType":"bool"}],"stateMutability":"nonpayable"},{"type":"function","name":"asset","inputs":[],"outputs":[{"name":"","type":"address","internalType":"address"}],"stateMutability":"view"},{"type":"function","name":"balanceOf","inputs":[{"name":"account","type":"address","internalType":"address"}],"outputs":[{"name":"","type":"uint256","internalType":"uint256"}],"stateMutability":"view"},{"type":"function","name":"canWithdraw","inputs":[{"name":"account","type":"address","internalType":"address"}],"outputs":[{"name":"","type":"bool","internalType":"bool"}],"stateMutability":"view"},{"type":"function","name":"cantonTotalShares","inputs":[],"outputs":[{"name":"","type":"uint256","internalType":"uint256"}],"stateMutability":"view"},{"type":"function","name":"convertToAssets","inputs":[{"name":"shares","type":"uint256","internalType":"uint256"}],"outputs":[{"name":"","type":"uint256","internalType":"uint256"}],"stateMutability":"view"},{"type":"function","name":"convertToShares","inputs":[{"name":"assets","type":"uint256","internalType":"uint256"}],"outputs":[{"name":"","type":"uint256","internalType":"uint256"}],"stateMutability":"view"},{"type":"function","name":"decimals","inputs":[],"outputs":[{"name":"","type":"uint8","internalType":"uint8"}],"stateMutability":"view"},{"type":"function","name":"deposit","inputs":[{"name":"assets","type":"uint256","internalType":"uint256"},{"name":"receiver","type":"address","internalType":"address"}],"outputs":[{"name":"","type":"uint256","internalType":"uint256"}],"stateMutability":"nonpayable"},{"type":"function","name":"distributeYield","inputs":[{"name":"amount","type":"uint256","internalType":"uint256"}],"outputs":[],"stateMutability":"nonpayable"},{"type":"function","name":"ethereumTotalShares","inputs":[],"outputs":[{"name":"","type":"uint256","internalType":"uint256"}],"stateMutability":"view"},{"type":"function","name":"getRemainingCooldown","inputs":[{"name":"account","type":"address","internalType":"address"}],"outputs":[{"name":"","type":"uint256","internalType":"uint256"}],"stateMutability":"view"},{"type":"function","name":"getRoleAdmin","inputs":[{"name":"role","type":"bytes32","internalType":"bytes32"}],"outputs":[{"name":"","type":"bytes32","internalType":"bytes32"}],"stateMutability":"view"},{"type":"function","name":"globalSharePrice","inputs":[],"outputs":[{"name":"","type":"uint256","internalType":"uint256"}],"stateMutability":"view"},{"type":"function","name":"globalTotalAssets","inputs":[],"outputs":[{"name":"","type":"uint256","internalType":"uint256"}],"stateMutability":"view"},{"type":"function","name":"globalTotalShares","inputs":[],"outputs":[{"name":"","type":"uint256","internalType":"uint256"}],"stateMutability":"view"},{"type":"function","name":"grantRole","inputs":[{"name":"role","type":"bytes32","internalType":"bytes32"},{"name":"account","type":"address","internalType":"address"}],"outputs":[],"stateMutability":"nonpayable"},{"type":"function","name":"hasRole","inputs":[{"name":"role","type":"bytes32","internalType":"bytes32"},{"name":"account","type":"address","internalType":"address"}],"outputs":[{"name":"","type":"bool","internalType":"bool"}],"stateMutability":"view"},{"type":"function","name":"lastCantonSyncEpoch","inputs":[],"outputs":[{"name":"","type":"uint256","internalType":"uint256"}],"stateMutability":"view"},{"type":"function","name":"lastCantonSyncTime","inputs":[],"outputs":[{"name":"","type":"uint256","internalType":"uint256"}],"stateMutability":"view"},{"type":"function","name":"lastDeposit","inputs":[{"name":"","type":"address","internalType":"address"}],"outputs":[{"name":"","type":"uint256","internalType":"uint256"}],"stateMutability":"view"},{"type":"function","name":"lastInterestReceiptTime","inputs":[],"outputs":[{"name":"","type":"uint256","internalType":"uint256"}],"stateMutability":"view"},{"type":"function","name":"lastKnownGlobalAssets","inputs":[],"outputs":[{"name":"","type":"uint256","internalType":"uint256"}],"stateMutability":"view"},{"type":"function","name":"maxDeposit","inputs":[{"name":"","type":"address","internalType":"address"}],"outputs":[{"name":"","type":"uint256","internalType":"uint256"}],"stateMutability":"view"},{"type":"function","name":"maxMint","inputs":[{"name":"","type":"address","internalType":"address"}],"outputs":[{"name":"","type":"uint256","internalType":"uint256"}],"stateMutability":"view"},{"type":"function","name":"maxRedeem","inputs":[{"name":"owner","type":"address","internalType":"address"}],"outputs":[{"name":"","type":"uint256","internalType":"uint256"}],"stateMutability":"view"},{"type":"function","name":"maxWithdraw","inputs":[{"name":"owner","type":"address","internalType":"address"}],"outputs":[{"name":"","type":"uint256","internalType":"uint256"}],"stateMutability":"view"},{"type":"function","name":"mint","inputs":[{"name":"shares","type":"uint256","internalType":"uint256"},{"name":"receiver","type":"address","internalType":"address"}],"outputs":[{"name":"","type":"uint256","internalType":"uint256"}],"stateMutability":"nonpayable"},{"type":"function","name":"name","inputs":[],"outputs":[{"name":"","type":"string","internalType":"string"}],"stateMutability":"view"},{"type":"function","name":"pause","inputs":[],"outputs":[],"stateMutability":"nonpayable"},{"type":"function","name":"paused","inputs":[],"outputs":[{"name":"","type":"bool","internalType":"bool"}],"stateMutability":"view"},{"type":"function","name":"previewDeposit","inputs":[{"name":"assets","type":"uint256","internalType":"uint256"}],"outputs":[{"name":"","type":"uint256","internalType":"uint256"}],"stateMutability":"view"},{"type":"function","name":"previewMint","inputs":[{"name":"shares","type":"uint256","internalType":"uint256"}],"outputs":[{"name":"","type":"uint256","internalType":"uint256"}],"stateMutability":"view"},{"type":"function","name":"previewRedeem","inputs":[{"name":"shares","type":"uint256","internalType":"uint256"}],"outputs":[{"name":"","type":"uint256","internalType":"uint256"}],"stateMutability":"view"},{"type":"function","name":"previewWithdraw","inputs":[{"name":"assets","type":"uint256","internalType":"uint256"}],"outputs":[{"name":"","type":"uint256","internalType":"uint256"}],"stateMutability":"view"},{"type":"function","name":"receiveInterest","inputs":[{"name":"amount","type":"uint256","internalType":"uint256"}],"outputs":[],"stateMutability":"nonpayable"},{"type":"function","name":"redeem","inputs":[{"name":"shares","type":"uint256","internalType":"uint256"},{"name":"receiver","type":"address","internalType":"address"},{"name":"owner","type":"address","internalType":"address"}],"outputs":[{"name":"","type":"uint256","internalType":"uint256"}],"stateMutability":"nonpayable"},{"type":"function","name":"refreshGlobalAssets","inputs":[],"outputs":[],"stateMutability":"nonpayable"},{"type":"function","name":"renounceRole","inputs":[{"name":"role","type":"bytes32","internalType":"bytes32"},{"name":"callerConfirmation","type":"address","internalType":"address"}],"outputs":[],"stateMutability":"nonpayable"},{"type":"function","name":"revokeRole","inputs":[{"name":"role","type":"bytes32","internalType":"bytes32"},{"name":"account","type":"address","internalType":"address"}],"outputs":[],"stateMutability":"nonpayable"},{"type":"function","name":"setTimelock","inputs":[{"name":"_timelock","type":"address","internalType":"address"}],"outputs":[],"stateMutability":"nonpayable"},{"type":"function","name":"setTreasury","inputs":[{"name":"_treasury","type":"address","internalType":"address"}],"outputs":[],"stateMutability":"nonpayable"},{"type":"function","name":"setTreasuryTimelocked","inputs":[{"name":"_treasury","type":"address","internalType":"address"}],"outputs":[],"stateMutability":"nonpayable"},{"type":"function","name":"supportsInterface","inputs":[{"name":"interfaceId","type":"bytes4","internalType":"bytes4"}],"outputs":[{"name":"","type":"bool","internalType":"bool"}],"stateMutability":"view"},{"type":"function","name":"symbol","inputs":[],"outputs":[{"name":"","type":"string","internalType":"string"}],"stateMutability":"view"},{"type":"function","name":"syncCantonShares","inputs":[{"name":"_cantonShares","type":"uint256","internalType":"uint256"},{"name":"epoch","type":"uint256","internalType":"uint256"}],"outputs":[],"stateMutability":"nonpayable"},{"type":"function","name":"timelock","inputs":[],"outputs":[{"name":"","type":"address","internalType":"address"}],"stateMutability":"view"},{"type":"function","name":"totalAssets","inputs":[],"outputs":[{"name":"","type":"uint256","internalType":"uint256"}],"stateMutability":"view"},{"type":"function","name":"totalInterestReceived","inputs":[],"outputs":[{"name":"","type":"uint256","internalType":"uint256"}],"stateMutability":"view"},{"type":"function","name":"totalSupply","inputs":[],"outputs":[{"name":"","type":"uint256","internalType":"uint256"}],"stateMutability":"view"},{"type":"function","name":"transfer","inputs":[{"name":"to","type":"address","internalType":"address"},{"name":"value","type":"uint256","internalType":"uint256"}],"outputs":[{"name":"","type":"bool","internalType":"bool"}],"stateMutability":"nonpayable"},{"type":"function","name":"transferFrom","inputs":[{"name":"from","type":"address","internalType":"address"},{"name":"to","type":"address","internalType":"address"},{"name":"value","type":"uint256","internalType":"uint256"}],"outputs":[{"name":"","type":"bool","internalType":"bool"}],"stateMutability":"nonpayable"},{"type":"function","name":"treasury","inputs":[],"outputs":[{"name":"","type":"address","internalType":"address"}],"stateMutability":"view"},{"type":"function","name":"unpause","inputs":[],"outputs":[],"stateMutability":"nonpayable"},{"type":"function","name":"withdraw","inputs":[{"name":"assets","type":"uint256","internalType":"uint256"},{"name":"receiver","type":"address","internalType":"address"},{"name":"owner","type":"address","internalType":"address"}],"outputs":[{"name":"","type":"uint256","internalType":"uint256"}],"stateMutability":"nonpayable"},{"type":"event","name":"Approval","inputs":[{"name":"owner","type":"address","indexed":true,"internalType":"address"},{"name":"spender","type":"address","indexed":true,"internalType":"address"},{"name":"value","type":"uint256","indexed":false,"internalType":"uint256"}],"anonymous":false},{"type":"event","name":"CantonSharesSynced","inputs":[{"name":"cantonShares","type":"uint256","indexed":false,"internalType":"uint256"},{"name":"epoch","type":"uint256","indexed":false,"internalType":"uint256"},{"name":"globalSharePrice","type":"uint256","indexed":false,"internalType":"uint256"}],"anonymous":false},{"type":"event","name":"CooldownUpdated","inputs":[{"name":"account","type":"address","indexed":true,"internalType":"address"},{"name":"timestamp","type":"uint256","indexed":false,"internalType":"uint256"}],"anonymous":false},{"type":"event","name":"Deposit","inputs":[{"name":"sender","type":"address","indexed":true,"internalType":"address"},{"name":"owner","type":"address","indexed":true,"internalType":"address"},{"name":"assets","type":"uint256","indexed":false,"internalType":"uint256"},{"name":"shares","type":"uint256","indexed":false,"internalType":"uint256"}],"anonymous":false},{"type":"event","name":"GlobalAssetsRefreshed","inputs":[{"name":"newGlobalAssets","type":"uint256","indexed":false,"internalType":"uint256"},{"name":"usdcValue","type":"uint256","indexed":false,"internalType":"uint256"}],"anonymous":false},{"type":"event","name":"InterestReceived","inputs":[{"name":"from","type":"address","indexed":true,"internalType":"address"},{"name":"amount","type":"uint256","indexed":false,"internalType":"uint256"},{"name":"totalReceived","type":"uint256","indexed":false,"internalType":"uint256"}],"anonymous":false},{"type":"event","name":"Paused","inputs":[{"name":"account","type":"address","indexed":false,"internalType":"address"}],"anonymous":false},{"type":"event","name":"RoleAdminChanged","inputs":[{"name":"role","type":"bytes32","indexed":true,"internalType":"bytes32"},{"name":"previousAdminRole","type":"bytes32","indexed":true,"internalType":"bytes32"},{"name":"newAdminRole","type":"bytes32","indexed":true,"internalType":"bytes32"}],"anonymous":false},{"type":"event","name":"RoleGranted","inputs":[{"name":"role","type":"bytes32","indexed":true,"internalType":"bytes32"},{"name":"account","type":"address","indexed":true,"internalType":"address"},{"name":"sender","type":"address","indexed":true,"internalType":"address"}],"anonymous":false},{"type":"event","name":"RoleRevoked","inputs":[{"name":"role","type":"bytes32","indexed":true,"internalType":"bytes32"},{"name":"account","type":"address","indexed":true,"internalType":"address"},{"name":"sender","type":"address","indexed":true,"internalType":"address"}],"anonymous":false},{"type":"event","name":"TimelockUpdated","inputs":[{"name":"oldTimelock","type":"address","indexed":true,"internalType":"address"},{"name":"newTimelock","type":"address","indexed":true,"internalType":"address"}],"anonymous":false},{"type":"event","name":"Transfer","inputs":[{"name":"from","type":"address","indexed":true,"internalType":"address"},{"name":"to","type":"address","indexed":true,"internalType":"address"},{"name":"value","type":"uint256","indexed":false,"internalType":"uint256"}],"anonymous":false},{"type":"event","name":"TreasuryUpdated","inputs":[{"name":"oldTreasury","type":"address","indexed":true,"internalType":"address"},{"name":"newTreasury","type":"address","indexed":true,"internalType":"address"}],"anonymous":false},{"type":"event","name":"Unpaused","inputs":[{"name":"account","type":"address","indexed":false,"internalType":"address"}],"anonymous":false},{"type":"event","name":"Withdraw","inputs":[{"name":"sender","type":"address","indexed":true,"internalType":"address"},{"name":"receiver","type":"address","indexed":true,"internalType":"address"},{"name":"owner","type":"address","indexed":true,"internalType":"address"},{"name":"assets","type":"uint256","indexed":false,"internalType":"uint256"},{"name":"shares","type":"uint256","indexed":false,"internalType":"uint256"}],"anonymous":false},{"type":"event","name":"YieldDistributed","inputs":[{"name":"from","type":"address","indexed":true,"internalType":"address"},{"name":"amount","type":"uint256","indexed":false,"internalType":"uint256"}],"anonymous":false},{"type":"error","name":"AccessControlBadConfirmation","inputs":[]},{"type":"error","name":"AccessControlUnauthorizedAccount","inputs":[{"name":"account","type":"address","internalType":"address"},{"name":"neededRole","type":"bytes32","internalType":"bytes32"}]},{"type":"error","name":"ERC20InsufficientAllowance","inputs":[{"name":"spender","type":"address","internalType":"address"},{"name":"allowance","type":"uint256","internalType":"uint256"},{"name":"needed","type":"uint256","internalType":"uint256"}]},{"type":"error","name":"ERC20InsufficientBalance","inputs":[{"name":"sender","type":"address","internalType":"address"},{"name":"balance","type":"uint256","internalType":"uint256"},{"name":"needed","type":"uint256","internalType":"uint256"}]},{"type":"error","name":"ERC20InvalidApprover","inputs":[{"name":"approver","type":"address","internalType":"address"}]},{"type":"error","name":"ERC20InvalidReceiver","inputs":[{"name":"receiver","type":"address","internalType":"address"}]},{"type":"error","name":"ERC20InvalidSender","inputs":[{"name":"sender","type":"address","internalType":"address"}]},{"type":"error","name":"ERC20InvalidSpender","inputs":[{"name":"spender","type":"address","internalType":"address"}]},{"type":"error","name":"ERC4626ExceededMaxDeposit","inputs":[{"name":"receiver","type":"address","internalType":"address"},{"name":"assets","type":"uint256","internalType":"uint256"},{"name":"max","type":"uint256","internalType":"uint256"}]},{"type":"error","name":"ERC4626ExceededMaxMint","inputs":[{"name":"receiver","type":"address","internalType":"address"},{"name":"shares","type":"uint256","internalType":"uint256"},{"name":"max","type":"uint256","internalType":"uint256"}]},{"type":"error","name":"ERC4626ExceededMaxRedeem","inputs":[{"name":"owner","type":"address","internalType":"address"},{"name":"shares","type":"uint256","internalType":"uint256"},{"name":"max","type":"uint256","internalType":"uint256"}]},{"type":"error","name":"ERC4626ExceededMaxWithdraw","inputs":[{"name":"owner","type":"address","internalType":"address"},{"name":"assets","type":"uint256","internalType":"uint256"},{"name":"max","type":"uint256","internalType":"uint256"}]},{"type":"error","name":"EnforcedPause","inputs":[]},{"type":"error","name":"ExpectedPause","inputs":[]},{"type":"error","name":"OnlyTimelock","inputs":[]},{"type":"error","name":"ReentrancyGuardReentrantCall","inputs":[]},{"type":"error","name":"SafeERC20FailedOperation","inputs":[{"name":"token","type":"address","internalType":"address"}]},{"type":"error","name":"ZeroTimelock","inputs":[]}],"bytecode":{"object":"0x60c060405234801561000f575f80fd5b506040516133aa3803806133aa83398101604081905261002e91610326565b816040518060400160405280600b81526020016a14dd185ad959081b5554d160aa1b815250604051806040016040528060058152602001641cdb5554d160da1b815250816003908161008091906103f6565b50600461008d82826103f6565b5050505f806100a18361011260201b60201c565b91509150816100b15760126100b3565b805b60ff1660a05250506001600160a01b031660805260016006556100d5816101e8565b6100df5f33610262565b5061010a7f65d7a28e3265b37a6474929f336521b332c1681b933f6cb9f3376673440d862a33610262565b5050506104dd565b60408051600481526024810182526020810180516001600160e01b031663313ce56760e01b17905290515f918291829182916001600160a01b03871691610158916104b0565b5f60405180830381855afa9150503d805f8114610190576040519150601f19603f3d011682016040523d82523d5f602084013e610195565b606091505b50915091508180156101a957506020815110155b156101dc575f818060200190518101906101c391906104c6565b905060ff81116101da576001969095509350505050565b505b505f9485945092505050565b6001600160a01b03811661020f576040516350c0eb2960e11b815260040160405180910390fd5b60078054610100600160a81b0319166101006001600160a01b038416908102919091179091556040515f907fae97011a27b5efe7b1d76fe38e75cc498fd64cc24e407a9c6b2185d27f611f7e908290a350565b5f8281526005602090815260408083206001600160a01b038516845290915281205460ff16610306575f8381526005602090815260408083206001600160a01b03861684529091529020805460ff191660011790556102be3390565b6001600160a01b0316826001600160a01b0316847f2f8788117e7eff1d82e926ec794901d17c78024a50270940304540a733656f0d60405160405180910390a4506001610309565b505f5b92915050565b6001600160a01b0381168114610323575f80fd5b50565b5f8060408385031215610337575f80fd5b82516103428161030f565b60208401519092506103538161030f565b809150509250929050565b634e487b7160e01b5f52604160045260245ffd5b600181811c9082168061038657607f821691505b6020821081036103a457634e487b7160e01b5f52602260045260245ffd5b50919050565b601f8211156103f157805f5260205f20601f840160051c810160208510156103cf5750805b601f840160051c820191505b818110156103ee575f81556001016103db565b50505b505050565b81516001600160401b0381111561040f5761040f61035e565b6104238161041d8454610372565b846103aa565b6020601f821160018114610455575f831561043e5750848201515b5f19600385901b1c1916600184901b1784556103ee565b5f84815260208120601f198516915b828110156104845787850151825560209485019460019092019101610464565b50848210156104a157868401515f19600387901b60f8161c191681555b50505050600190811b01905550565b5f82518060208501845e5f920191825250919050565b5f602082840312156104d6575f80fd5b5051919050565b60805160a051612e6d61053d5f395f610aa901525f818161052a015281816108a301528181610b3601528181610d530152818161169a01528181611a4501528181611b0f01528181611c3d0152818161263f01526126f10152612e6d5ff3fe608060405234801561000f575f80fd5b50600436106103d5575f3560e01c806391d1485411610200578063ce96cb771161011f578063e44dc7a3116100b4578063f0f4426011610084578063f0f442601461082d578063f38bb07314610840578063f3e3064f14610867578063f7a54f8914610870578063fe9e964014610879575f80fd5b8063e44dc7a3146107ea578063e63ab1e9146107f3578063e6f3e0041461081a578063ef8b30f714610716575f80fd5b8063da7f0065116100ef578063da7f00651461078d578063daef17c314610796578063dd62ed3e1461079f578063e3db6075146107d7575f80fd5b8063ce96cb771461073c578063d33219b41461074f578063d547741f14610767578063d905777e1461077a575f80fd5b8063b460af9411610195578063c63d75b611610165578063c63d75b6146106fb578063c683602c1461070e578063c6e6f59214610716578063c8cc5cd814610729575f80fd5b8063b460af941461069b578063b5bfddea146106ae578063ba087652146106d5578063bdacb303146106e8575f80fd5b8063a217fddf116101d0578063a217fddf14610665578063a9059cbb1461066c578063b1b3f4671461067f578063b3d7f6b914610688575f80fd5b806391d148541461062d57806394bf804d14610640578063950d91e91461065357806395d89b411461065d575f80fd5b806338d52e0f116102f75780635c975abb1161028c5780636e553f651161025c5780636e553f65146105d957806370a08231146105ec5780638456cb591461061457806387f5769e1461061c5780638fb3a94a14610625575f80fd5b80635c975abb146105ab57806361d027b3146105b657806367799a43146105c9578063691e4e46146105d1575f80fd5b806346823f6a116102c757806346823f6a146105855780634b606951146104895780634cdad506146104355780635840aa2814610598575f80fd5b806338d52e0f146105285780633f4ba83a14610562578063402d267d1461056a57806344fd5ab61461057d575f80fd5b806319262d301161036d57806329d16ee81161033d57806329d16ee8146104c75780632f2ff15d146104e6578063313ce567146104fb57806336568abe14610515575f80fd5b806319262d3014610476578063205fc5d31461048957806323b872dd14610492578063248a9ca3146104a5575f80fd5b806307a2d13a116103a857806307a2d13a14610435578063095ea7b3146104485780630a28a4771461045b57806318160ddd1461046e575f80fd5b806301e1d114146103d957806301ffc9a7146103f457806303d330fa1461041757806306fdde0314610420575b5f80fd5b6103e16108a0565b6040519081526020015b60405180910390f35b610407610402366004612a33565b61092f565b60405190151581526020016103eb565b6103e16103e881565b610428610965565b6040516103eb9190612a5a565b6103e1610443366004612a8f565b6109f5565b610407610456366004612ac1565b610a00565b6103e1610469366004612a8f565b610a17565b6002546103e1565b610407610484366004612ae9565b610a23565b6103e16101f481565b6104076104a0366004612b02565b610a52565b6103e16104b3366004612a8f565b5f9081526005602052604090206001015490565b6103e16104d5366004612ae9565b60086020525f908152604090205481565b6104f96104f4366004612b3c565b610a77565b005b610503610aa1565b60405160ff90911681526020016103eb565b6104f9610523366004612b3c565b610acd565b7f00000000000000000000000000000000000000000000000000000000000000005b6040516001600160a01b0390911681526020016103eb565b6104f9610b05565b6103e1610578366004612ae9565b610b1a565b6103e1610c41565b6104f9610593366004612a8f565b610c4b565b6104f96105a6366004612b66565b610de6565b60075460ff16610407565b600b5461054a906001600160a01b031681565b6103e161108d565b6103e16110db565b6103e16105e7366004612b3c565b6111d8565b6103e16105fa366004612ae9565b6001600160a01b03165f9081526020819052604090205490565b6104f96112fc565b6103e1600d5481565b6103e161132e565b61040761063b366004612b3c565b611345565b6103e161064e366004612b3c565b61136f565b6103e16201518081565b610428611487565b6103e15f81565b61040761067a366004612ac1565b611496565b6103e1600c5481565b6103e1610696366004612a8f565b6114a3565b6103e16106a9366004612b86565b6114af565b6103e17f52ba824bfabc2bcfcdf7f0edbb486ebb05e1836c90e78047efeb949990f72e5f81565b6103e16106e3366004612b86565b61153e565b6104f96106f6366004612ae9565b6115c1565b6103e1610709366004612ae9565b61167e565b6104f961179f565b6103e1610724366004612a8f565b611936565b6104f9610737366004612a8f565b611941565b6103e161074a366004612ae9565b611a9b565b60075461054a9061010090046001600160a01b031681565b6104f9610775366004612b3c565b611baf565b6103e1610788366004612ae9565b611bd3565b6103e1600a5481565b6103e160095481565b6103e16107ad366004612bbf565b6001600160a01b039182165f90815260016020908152604080832093909416825291909152205490565b6104f96107e5366004612ae9565b611ce9565b6103e1600f5481565b6103e17f65d7a28e3265b37a6474929f336521b332c1681b933f6cb9f3376673440d862a81565b6103e1610828366004612ae9565b611daf565b6104f961083b366004612ae9565b611df2565b6103e17ff22f9b856fefc8d979ef1bf362d6312dd0309a47aad9c5feee517fa2e8d8902381565b6103e1600e5481565b6103e1610e1081565b6103e17f470f4f1717679395b6a9e0700797bfeeaa970f1643e72f5684d687c0be10fe2781565b5f7f00000000000000000000000000000000000000000000000000000000000000006040516370a0823160e01b81523060048201526001600160a01b0391909116906370a0823190602401602060405180830381865afa158015610906573d5f803e3d5ffd5b505050506040513d601f19601f8201168201806040525081019061092a9190612be7565b905090565b5f6001600160e01b03198216637965db0b60e01b148061095f57506301ffc9a760e01b6001600160e01b03198316145b92915050565b60606003805461097490612bfe565b80601f01602080910402602001604051908101604052809291908181526020018280546109a090612bfe565b80156109eb5780601f106109c2576101008083540402835291602001916109eb565b820191905f5260205f20905b8154815290600101906020018083116109ce57829003601f168201915b5050505050905090565b5f61095f825f611ee4565b5f33610a0d818585611f25565b5060019392505050565b5f61095f826001611f32565b6001600160a01b0381165f90815260086020526040812054610a49906201518090612c4a565b42101592915050565b5f33610a5f858285611f6a565b610a6a858585611fcd565b60019150505b9392505050565b5f82815260056020526040902060010154610a918161202a565b610a9b8383612034565b50505050565b5f61092a60037f0000000000000000000000000000000000000000000000000000000000000000612c5d565b6001600160a01b0381163314610af65760405163334bd91960e11b815260040160405180910390fd5b610b0082826120c5565b505050565b5f610b0f8161202a565b610b17612130565b50565b5f610b2760075460ff1690565b15610b3357505f919050565b5f7f000000000000000000000000000000000000000000000000000000000000000090505f816001600160a01b0316638f770ad06040518163ffffffff1660e01b8152600401602060405180830381865afa158015610b94573d5f803e3d5ffd5b505050506040513d601f19601f82011682018060405250810190610bb89190612be7565b90505f826001600160a01b03166318160ddd6040518163ffffffff1660e01b8152600401602060405180830381865afa158015610bf7573d5f803e3d5ffd5b505050506040513d601f19601f82011682018060405250810190610c1b9190612be7565b9050818110610c2e57505f949350505050565b610c388183612c76565b95945050505050565b5f61092a60025490565b7ff22f9b856fefc8d979ef1bf362d6312dd0309a47aad9c5feee517fa2e8d89023610c758161202a565b5f8211610cb75760405162461bcd60e51b815260206004820152600b60248201526a16915493d7d05353d5539560aa1b60448201526064015b60405180910390fd5b5f610cc061132e565b11610cdd5760405162461bcd60e51b8152600401610cae90612c89565b5f610ce66110db565b90505f612710610cf86103e884612cb2565b610d029190612cdd565b905080841115610d4b5760405162461bcd60e51b81526020600482015260146024820152730494e5445524553545f455843454544535f4341560641b6044820152606401610cae565b610d843330867f00000000000000000000000000000000000000000000000000000000000000005b6001600160a01b0316929190612182565b600d5480850190811015610d9657505f195b600d81905542600e5560405133917fdfbb5ccbe498d34d6a5497c62226d673740ea3d4ca57b496dff91b36922c971291610dd891888252602082015260400190565b60405180910390a250505050565b7f52ba824bfabc2bcfcdf7f0edbb486ebb05e1836c90e78047efeb949990f72e5f610e108161202a565b600a548211610e585760405162461bcd60e51b8152602060048201526014602482015273115413d0d217d393d517d4d1545551539512505360621b6044820152606401610cae565b610e10600c54610e689190612c4a565b421015610eab5760405162461bcd60e51b815260206004820152601160248201527014d65390d7d513d3d7d194915455515395607a1b6044820152606401610cae565b6009545f03610f3c575f610ebe60025490565b90505f808211610ed85769d3c21bcecceda1000000610ee3565b610ee3826002612cb2565b905080851115610f355760405162461bcd60e51b815260206004820152601860248201527f494e495449414c5f5348415245535f544f4f5f4c4152474500000000000000006044820152606401610cae565b5050611031565b5f612710610f4c6101f482612c4a565b600954610f599190612cb2565b610f639190612cdd565b90505f612710610f756101f482612c76565b600954610f829190612cb2565b610f8c9190612cdd565b905081851115610fde5760405162461bcd60e51b815260206004820152601860248201527f53484152455f494e4352454153455f544f4f5f4c4152474500000000000000006044820152606401610cae565b8085101561102e5760405162461bcd60e51b815260206004820152601860248201527f53484152455f44454352454153455f544f4f5f4c4152474500000000000000006044820152606401610cae565b50505b6009839055600a82905542600c557f81fc726eb84a1225fa236b15eb2fcdbc39f58e3b81c548f9d27b955dd1954f7c838361106a61108d565b6040805193845260208401929092529082015260600160405180910390a1505050565b5f8061109761132e565b9050805f036110b2576110ac6003600a612dd3565b91505090565b806110bf6003600a612dd3565b6110c76110db565b6110d19190612cb2565b6110ac9190612cdd565b600b545f906001600160a01b03166110f55761092a6108a0565b600b5f9054906101000a90046001600160a01b03166001600160a01b031663d4c3eea06040518163ffffffff1660e01b8152600401602060405180830381865afa925050508015611163575060408051601f3d908101601f1916820190925261116091810190612be7565b60015b61117d57600f54801561117557919050565b6110ac6108a0565b5f61118d8264e8d4a51000612cb2565b600f5490915080156111d1575f6127106111a96101f484612cb2565b6111b39190612cdd565b6111bd9083612c4a565b9050808311156111cf57949350505050565b505b5092915050565b5f6111e16121e9565b6111e9612213565b600b546001600160a01b0316158015906112035750600f54155b801561121057505f600954115b1561129657600b54604080516306a61f7560e51b815290515f926001600160a01b03169163d4c3eea09160048083019260209291908290030181865afa15801561125c573d5f803e3d5ffd5b505050506040513d601f19601f820116820180604052508101906112809190612be7565b90506112918164e8d4a51000612cb2565b600f55505b6001600160a01b0382165f81815260086020908152604091829020429081905591519182527f7631df1cb61560709ebf9092a96d321b993513e844760f08c3f827be3b349d14910160405180910390a26112f08383612239565b905061095f6001600655565b7f65d7a28e3265b37a6474929f336521b332c1681b933f6cb9f3376673440d862a6113268161202a565b610b17612285565b5f60095461133b60025490565b61092a9190612c4a565b5f9182526005602090815260408084206001600160a01b0393909316845291905290205460ff1690565b5f6113786121e9565b611380612213565b600b546001600160a01b03161580159061139a5750600f54155b80156113a757505f600954115b1561142d57600b54604080516306a61f7560e51b815290515f926001600160a01b03169163d4c3eea09160048083019260209291908290030181865afa1580156113f3573d5f803e3d5ffd5b505050506040513d601f19601f820116820180604052508101906114179190612be7565b90506114288164e8d4a51000612cb2565b600f55505b6001600160a01b0382165f81815260086020908152604091829020429081905591519182527f7631df1cb61560709ebf9092a96d321b993513e844760f08c3f827be3b349d14910160405180910390a26112f083836122c2565b60606004805461097490612bfe565b5f33610a0d818585611fcd565b5f61095f826001611ee4565b5f6114b86121e9565b6114c0612213565b6001600160a01b0382165f908152600860205260409020546114e6906201518090612c4a565b4210156115275760405162461bcd60e51b815260206004820152600f60248201526e434f4f4c444f574e5f41435449564560881b6044820152606401610cae565b61153284848461230e565b9050610a706001600655565b5f6115476121e9565b61154f612213565b6001600160a01b0382165f90815260086020526040902054611575906201518090612c4a565b4210156115b65760405162461bcd60e51b815260206004820152600f60248201526e434f4f4c444f574e5f41435449564560881b6044820152606401610cae565b61153284848461235b565b60075461010090046001600160a01b031633146115f157604051630e05f48560e11b815260040160405180910390fd5b6001600160a01b038116611618576040516350c0eb2960e11b815260040160405180910390fd5b6007546040516001600160a01b0380841692610100900416907fae97011a27b5efe7b1d76fe38e75cc498fd64cc24e407a9c6b2185d27f611f7e905f90a3600780546001600160a01b0390921661010002610100600160a81b0319909216919091179055565b5f61168b60075460ff1690565b1561169757505f919050565b5f7f000000000000000000000000000000000000000000000000000000000000000090505f816001600160a01b0316638f770ad06040518163ffffffff1660e01b8152600401602060405180830381865afa1580156116f8573d5f803e3d5ffd5b505050506040513d601f19601f8201168201806040525081019061171c9190612be7565b90505f826001600160a01b03166318160ddd6040518163ffffffff1660e01b8152600401602060405180830381865afa15801561175b573d5f803e3d5ffd5b505050506040513d601f19601f8201168201806040525081019061177f9190612be7565b905081811061179257505f949350505050565b610c386107248284612c76565b7f470f4f1717679395b6a9e0700797bfeeaa970f1643e72f5684d687c0be10fe276117c98161202a565b600b546001600160a01b031661180f5760405162461bcd60e51b815260206004820152600b60248201526a4e4f5f545245415355525960a81b6044820152606401610cae565b5f61181861132e565b116118355760405162461bcd60e51b8152600401610cae90612c89565b600b54604080516306a61f7560e51b815290515f926001600160a01b03169163d4c3eea09160048083019260209291908290030181865afa15801561187c573d5f803e3d5ffd5b505050506040513d601f19601f820116820180604052508101906118a09190612be7565b90505f6118b28264e8d4a51000612cb2565b600f5490915080156118f2575f6127106118ce6101f484612cb2565b6118d89190612cdd565b6118e29083612c4a565b9050808311156118f0578092505b505b600f82905560408051838152602081018590527f7966b2d8c057d8459ba60321634fb3be7411c62374efe7fadcc0e94869a0d88f910160405180910390a150505050565b5f61095f825f611f32565b7f470f4f1717679395b6a9e0700797bfeeaa970f1643e72f5684d687c0be10fe2761196b8161202a565b5f61197560025490565b116119925760405162461bcd60e51b8152600401610cae90612c89565b5f82116119d25760405162461bcd60e51b815260206004820152600e60248201526d1253959053125117d05353d5539560921b6044820152606401610cae565b5f6119db6110db565b90505f6127106119ed6103e884612cb2565b6119f79190612cdd565b905080841115611a3d5760405162461bcd60e51b815260206004820152601160248201527005949454c445f455843454544535f43415607c1b6044820152606401610cae565b611a693330867f0000000000000000000000000000000000000000000000000000000000000000610d73565b60405184815233907f9d315883dbfe38532083c1e42c0d10fbf89ad1cabaa0c269f78b3beb892c101d90602001610dd8565b5f611aa860075460ff1690565b15611ab457505f919050565b6001600160a01b0382165f90815260086020526040902054611ada906201518090612c4a565b421015611ae857505f919050565b6001600160a01b0382165f90815260208190526040812054611b0a905f611ee4565b90505f7f00000000000000000000000000000000000000000000000000000000000000006040516370a0823160e01b81523060048201526001600160a01b0391909116906370a0823190602401602060405180830381865afa158015611b72573d5f803e3d5ffd5b505050506040513d601f19601f82011682018060405250810190611b969190612be7565b9050808210611ba55780611ba7565b815b949350505050565b5f82815260056020526040902060010154611bc98161202a565b610a9b83836120c5565b5f611be060075460ff1690565b15611bec57505f919050565b6001600160a01b0382165f90815260086020526040902054611c12906201518090612c4a565b421015611c2057505f919050565b6001600160a01b0382165f9081526020819052604081205490505f7f00000000000000000000000000000000000000000000000000000000000000006040516370a0823160e01b81523060048201526001600160a01b0391909116906370a0823190602401602060405180830381865afa158015611ca0573d5f803e3d5ffd5b505050506040513d601f19601f82011682018060405250810190611cc49190612be7565b90505f611cd1825f611f32565b9050808310611ce05780610c38565b50909392505050565b60075461010090046001600160a01b03163314611d1957604051630e05f48560e11b815260040160405180910390fd5b6001600160a01b038116611d5e5760405162461bcd60e51b815260206004820152600c60248201526b5a45524f5f4144445245535360a01b6044820152606401610cae565b600b80546001600160a01b038381166001600160a01b0319831681179093556040519116919082907f4ab5be82436d353e61ca18726e984e561f5c1cc7c6d38b29d2553c790434705a905f90a35050565b6001600160a01b0381165f908152600860205260408120548190611dd7906201518090612c4a565b9050804210611de857505f92915050565b610a704282612c76565b5f611dfc8161202a565b6001600160a01b038216611e415760405162461bcd60e51b815260206004820152600c60248201526b5a45524f5f4144445245535360a01b6044820152606401610cae565b600b546001600160a01b031615611e925760405162461bcd60e51b81526020600482015260156024820152742aa9a2afaa24a6a2a627a1a5a2a22fa9a2aa2a22a960591b6044820152606401610cae565b600b80546001600160a01b038481166001600160a01b0319831681179093556040519116919082907f4ab5be82436d353e61ca18726e984e561f5c1cc7c6d38b29d2553c790434705a905f90a3505050565b5f80611eee61132e565b9050611ba7611efb6110db565b611f06906001612c4a565b611f126003600a612dd3565b611f1c9084612c4a565b869190866123a8565b610b0083838360016123ea565b5f80611f3c61132e565b9050611ba7611f4d6003600a612dd3565b611f579083612c4a565b611f5f6110db565b611f1c906001612c4a565b6001600160a01b038381165f908152600160209081526040808320938616835292905220545f19811015610a9b5781811015611fbf57828183604051637dc7a0d960e11b8152600401610cae93929190612de1565b610a9b84848484035f6123ea565b6001600160a01b038316611ff657604051634b637e8f60e11b81525f6004820152602401610cae565b6001600160a01b03821661201f5760405163ec442f0560e01b81525f6004820152602401610cae565b610b008383836124bc565b610b17813361256e565b5f61203f8383611345565b6120be575f8381526005602090815260408083206001600160a01b03861684529091529020805460ff191660011790556120763390565b6001600160a01b0316826001600160a01b0316847f2f8788117e7eff1d82e926ec794901d17c78024a50270940304540a733656f0d60405160405180910390a450600161095f565b505f61095f565b5f6120d08383611345565b156120be575f8381526005602090815260408083206001600160a01b0386168085529252808320805460ff1916905551339286917ff6391f5c32d9c69d2a47ea670b442974b53935d1edc7fd64eb21e047a839171b9190a450600161095f565b6121386125ab565b6007805460ff191690557f5db9ee0a495bf2e6ff9c91a7834c1ba4fdd244a5e8aa4e537bd38aeae4b073aa335b6040516001600160a01b03909116815260200160405180910390a1565b6040516001600160a01b038481166024830152838116604483015260648201839052610a9b9186918216906323b872dd906084015b604051602081830303815290604052915060e01b6020820180516001600160e01b0383818316178352505050506125ce565b60026006540361220c57604051633ee5aeb560e01b815260040160405180910390fd5b6002600655565b60075460ff16156122375760405163d93c066560e01b815260040160405180910390fd5b565b5f8061224483610b1a565b90508084111561226d57828482604051633c8097d960e11b8152600401610cae93929190612de1565b5f61227785611936565b9050611ba73385878461263a565b61228d612213565b6007805460ff191660011790557f62e78cea01bee320cd4e420270b5ea74000d11b0c9f74754ebdbfc544b05a2586121653390565b5f806122cd8361167e565b9050808411156122f65782848260405163284ff66760e01b8152600401610cae93929190612de1565b5f612300856114a3565b9050611ba73385838861263a565b5f8061231983611a9b565b90508085111561234257828582604051633fa733bb60e21b8152600401610cae93929190612de1565b5f61234c86610a17565b9050610c3833868689856126be565b5f8061236683611bd3565b90508085111561238f57828582604051632e52afbb60e21b8152600401610cae93929190612de1565b5f612399866109f5565b9050610c38338686848a6126be565b5f6123d56123b58361277e565b80156123d057505f84806123cb576123cb612cc9565b868809115b151590565b6123e08686866127aa565b610c389190612c4a565b6001600160a01b0384166124135760405163e602df0560e01b81525f6004820152602401610cae565b6001600160a01b03831661243c57604051634a1406b160e11b81525f6004820152602401610cae565b6001600160a01b038085165f9081526001602090815260408083209387168352929052208290558015610a9b57826001600160a01b0316846001600160a01b03167f8c5be1e5ebec7d5bd14f71427d1e84f3dd0314c0f7b2291e5b200ac8c7c3b925846040516124ae91815260200190565b60405180910390a350505050565b6001600160a01b038316158015906124dc57506001600160a01b03821615155b15612563576001600160a01b038084165f9081526008602052604080822054928516825290205480821115612560576001600160a01b0384165f8181526008602052604090819020849055517f7631df1cb61560709ebf9092a96d321b993513e844760f08c3f827be3b349d14906125579085815260200190565b60405180910390a25b50505b610b0083838361285a565b6125788282611345565b6125a75760405163e2517d3f60e01b81526001600160a01b038216600482015260248101839052604401610cae565b5050565b60075460ff1661223757604051638dfc202b60e01b815260040160405180910390fd5b5f8060205f8451602086015f885af1806125ed576040513d5f823e3d81fd5b50505f513d91508115612604578060011415612611565b6001600160a01b0384163b155b15610a9b57604051635274afe760e01b81526001600160a01b0385166004820152602401610cae565b6126667f0000000000000000000000000000000000000000000000000000000000000000853085612182565b612670838261296d565b826001600160a01b0316846001600160a01b03167fdcbc1c05240f31ff3ad067ef1ee35ce4997762752e3a095284754544f4c709d784846040516124ae929190918252602082015260400190565b826001600160a01b0316856001600160a01b0316146126e2576126e2838683611f6a565b6126ec83826129a1565b6127177f000000000000000000000000000000000000000000000000000000000000000085846129d5565b826001600160a01b0316846001600160a01b0316866001600160a01b03167ffbde797d201c681b91056529119e0b02407c7bb96a4a2c75c01fc9667232c8db858560405161276f929190918252602082015260400190565b60405180910390a45050505050565b5f600282600381111561279357612793612e02565b61279d9190612e16565b60ff166001149050919050565b5f805f6127b78686612a06565b91509150815f036127db578381816127d1576127d1612cc9565b0492505050610a70565b8184116127f2576127f26003851502601118612a22565b5f848688095f868103871696879004966002600389028118808a02820302808a02820302808a02820302808a02820302808a02820302808a02909103029181900381900460010185841190960395909502919093039390930492909217029150509392505050565b6001600160a01b038316612884578060025f8282546128799190612c4a565b909155506128e19050565b6001600160a01b0383165f90815260208190526040902054818110156128c35783818360405163391434e360e21b8152600401610cae93929190612de1565b6001600160a01b0384165f9081526020819052604090209082900390555b6001600160a01b0382166128fd5760028054829003905561291b565b6001600160a01b0382165f9081526020819052604090208054820190555b816001600160a01b0316836001600160a01b03167fddf252ad1be2c89b69c2b068fc378daa952ba7f163c4a11628f55a4df523b3ef8360405161296091815260200190565b60405180910390a3505050565b6001600160a01b0382166129965760405163ec442f0560e01b81525f6004820152602401610cae565b6125a75f83836124bc565b6001600160a01b0382166129ca57604051634b637e8f60e11b81525f6004820152602401610cae565b6125a7825f836124bc565b6040516001600160a01b03838116602483015260448201839052610b0091859182169063a9059cbb906064016121b7565b5f805f1983850993909202808410938190039390930393915050565b634e487b715f52806020526024601cfd5b5f60208284031215612a43575f80fd5b81356001600160e01b031981168114610a70575f80fd5b602081525f82518060208401528060208501604085015e5f604082850101526040601f19601f83011684010191505092915050565b5f60208284031215612a9f575f80fd5b5035919050565b80356001600160a01b0381168114612abc575f80fd5b919050565b5f8060408385031215612ad2575f80fd5b612adb83612aa6565b946020939093013593505050565b5f60208284031215612af9575f80fd5b610a7082612aa6565b5f805f60608486031215612b14575f80fd5b612b1d84612aa6565b9250612b2b60208501612aa6565b929592945050506040919091013590565b5f8060408385031215612b4d575f80fd5b82359150612b5d60208401612aa6565b90509250929050565b5f8060408385031215612b77575f80fd5b50508035926020909101359150565b5f805f60608486031215612b98575f80fd5b83359250612ba860208501612aa6565b9150612bb660408501612aa6565b90509250925092565b5f8060408385031215612bd0575f80fd5b612bd983612aa6565b9150612b5d60208401612aa6565b5f60208284031215612bf7575f80fd5b5051919050565b600181811c90821680612c1257607f821691505b602082108103612c3057634e487b7160e01b5f52602260045260245ffd5b50919050565b634e487b7160e01b5f52601160045260245ffd5b8082018082111561095f5761095f612c36565b60ff818116838216019081111561095f5761095f612c36565b8181038181111561095f5761095f612c36565b6020808252600f908201526e1393d7d4d210549154d7d1561254d5608a1b604082015260600190565b808202811582820484141761095f5761095f612c36565b634e487b7160e01b5f52601260045260245ffd5b5f82612ceb57612ceb612cc9565b500490565b6001815b6001841115612d2b57808504811115612d0f57612d0f612c36565b6001841615612d1d57908102905b60019390931c928002612cf4565b935093915050565b5f82612d415750600161095f565b81612d4d57505f61095f565b8160018114612d635760028114612d6d57612d89565b600191505061095f565b60ff841115612d7e57612d7e612c36565b50506001821b61095f565b5060208310610133831016604e8410600b8410161715612dac575081810a61095f565b612db85f198484612cf0565b805f1904821115612dcb57612dcb612c36565b029392505050565b5f610a7060ff841683612d33565b6001600160a01b039390931683526020830191909152604082015260600190565b634e487b7160e01b5f52602160045260245ffd5b5f60ff831680612e2857612e28612cc9565b8060ff8416069150509291505056fea2646970667358221220097cc3e69cfd3af075830315a730dee82d7c89b3c6c6745a4180f5880d18980e64736f6c634300081a0033","linkReferences":{}},"methodIdentifiers":{"BRIDGE_ROLE()":"b5bfddea","DEFAULT_ADMIN_ROLE()":"a217fddf","INTEREST_ROUTER_ROLE()":"f38bb073","MAX_GLOBAL_ASSETS_GROWTH_BPS()":"4b606951","MAX_SHARE_CHANGE_BPS()":"205fc5d3","MAX_YIELD_BPS()":"03d330fa","MIN_SYNC_INTERVAL()":"f7a54f89","PAUSER_ROLE()":"e63ab1e9","WITHDRAW_COOLDOWN()":"950d91e9","YIELD_MANAGER_ROLE()":"fe9e9640","allowance(address,address)":"dd62ed3e","approve(address,uint256)":"095ea7b3","asset()":"38d52e0f","balanceOf(address)":"70a08231","canWithdraw(address)":"19262d30","cantonTotalShares()":"daef17c3","convertToAssets(uint256)":"07a2d13a","convertToShares(uint256)":"c6e6f592","decimals()":"313ce567","deposit(uint256,address)":"6e553f65","distributeYield(uint256)":"c8cc5cd8","ethereumTotalShares()":"44fd5ab6","getRemainingCooldown(address)":"e6f3e004","getRoleAdmin(bytes32)":"248a9ca3","globalSharePrice()":"67799a43","globalTotalAssets()":"691e4e46","globalTotalShares()":"8fb3a94a","grantRole(bytes32,address)":"2f2ff15d","hasRole(bytes32,address)":"91d14854","lastCantonSyncEpoch()":"da7f0065","lastCantonSyncTime()":"b1b3f467","lastDeposit(address)":"29d16ee8","lastInterestReceiptTime()":"f3e3064f","lastKnownGlobalAssets()":"e44dc7a3","maxDeposit(address)":"402d267d","maxMint(address)":"c63d75b6","maxRedeem(address)":"d905777e","maxWithdraw(address)":"ce96cb77","mint(uint256,address)":"94bf804d","name()":"06fdde03","pause()":"8456cb59","paused()":"5c975abb","previewDeposit(uint256)":"ef8b30f7","previewMint(uint256)":"b3d7f6b9","previewRedeem(uint256)":"4cdad506","previewWithdraw(uint256)":"0a28a477","receiveInterest(uint256)":"46823f6a","redeem(uint256,address,address)":"ba087652","refreshGlobalAssets()":"c683602c","renounceRole(bytes32,address)":"36568abe","revokeRole(bytes32,address)":"d547741f","setTimelock(address)":"bdacb303","setTreasury(address)":"f0f44260","setTreasuryTimelocked(address)":"e3db6075","supportsInterface(bytes4)":"01ffc9a7","symbol()":"95d89b41","syncCantonShares(uint256,uint256)":"5840aa28","timelock()":"d33219b4","totalAssets()":"01e1d114","totalInterestReceived()":"87f5769e","totalSupply()":"18160ddd","transfer(address,uint256)":"a9059cbb","transferFrom(address,address,uint256)":"23b872dd","treasury()":"61d027b3","unpause()":"3f4ba83a","withdraw(uint256,address,address)":"b460af94"},"id":11}