{"abi":[{"type":"constructor","inputs":[{"name":"_musd","type":"address","internalType":"contract IERC20"}],"stateMutability":"nonpayable"},{"type":"function","name":"BRIDGE_ROLE","inputs":[],"outputs":[{"name":"","type":"bytes32","internalType":"bytes32"}],"stateMutability":"view"},{"type":"function","name":"DEFAULT_ADMIN_ROLE","inputs":[],"outputs":[{"name":"","type":"bytes32","internalType":"bytes32"}],"stateMutability":"view"},{"type":"function","name":"INTEREST_ROUTER_ROLE","inputs":[],"outputs":[{"name":"","type":"bytes32","internalType":"bytes32"}],"stateMutability":"view"},{"type":"function","name":"MAX_SHARE_CHANGE_BPS","inputs":[],"outputs":[{"name":"","type":"uint256","internalType":"uint256"}],"stateMutability":"view"},{"type":"function","name":"MAX_YIELD_BPS","inputs":[],"outputs":[{"name":"","type":"uint256","internalType":"uint256"}],"stateMutability":"view"},{"type":"function","name":"MIN_SYNC_INTERVAL","inputs":[],"outputs":[{"name":"","type":"uint256","internalType":"uint256"}],"stateMutability":"view"},{"type":"function","name":"PAUSER_ROLE","inputs":[],"outputs":[{"name":"","type":"bytes32","internalType":"bytes32"}],"stateMutability":"view"},{"type":"function","name":"WITHDRAW_COOLDOWN","inputs":[],"outputs":[{"name":"","type":"uint256","internalType":"uint256"}],"stateMutability":"view"},{"type":"function","name":"YIELD_MANAGER_ROLE","inputs":[],"outputs":[{"name":"","type":"bytes32","internalType":"bytes32"}],"stateMutability":"view"},{"type":"function","name":"allowance","inputs":[{"name":"owner","type":"address","internalType":"address"},{"name":"spender","type":"address","internalType":"address"}],"outputs":[{"name":"","type":"uint256","internalType":"uint256"}],"stateMutability":"view"},{"type":"function","name":"approve","inputs":[{"name":"spender","type":"address","internalType":"address"},{"name":"value","type":"uint256","internalType":"uint256"}],"outputs":[{"name":"","type":"bool","internalType":"bool"}],"stateMutability":"nonpayable"},{"type":"function","name":"asset","inputs":[],"outputs":[{"name":"","type":"address","internalType":"address"}],"stateMutability":"view"},{"type":"function","name":"balanceOf","inputs":[{"name":"account","type":"address","internalType":"address"}],"outputs":[{"name":"","type":"uint256","internalType":"uint256"}],"stateMutability":"view"},{"type":"function","name":"canWithdraw","inputs":[{"name":"account","type":"address","internalType":"address"}],"outputs":[{"name":"","type":"bool","internalType":"bool"}],"stateMutability":"view"},{"type":"function","name":"cantonTotalShares","inputs":[],"outputs":[{"name":"","type":"uint256","internalType":"uint256"}],"stateMutability":"view"},{"type":"function","name":"convertToAssets","inputs":[{"name":"shares","type":"uint256","internalType":"uint256"}],"outputs":[{"name":"","type":"uint256","internalType":"uint256"}],"stateMutability":"view"},{"type":"function","name":"convertToShares","inputs":[{"name":"assets","type":"uint256","internalType":"uint256"}],"outputs":[{"name":"","type":"uint256","internalType":"uint256"}],"stateMutability":"view"},{"type":"function","name":"decimals","inputs":[],"outputs":[{"name":"","type":"uint8","internalType":"uint8"}],"stateMutability":"view"},{"type":"function","name":"deposit","inputs":[{"name":"assets","type":"uint256","internalType":"uint256"},{"name":"receiver","type":"address","internalType":"address"}],"outputs":[{"name":"","type":"uint256","internalType":"uint256"}],"stateMutability":"nonpayable"},{"type":"function","name":"distributeYield","inputs":[{"name":"amount","type":"uint256","internalType":"uint256"}],"outputs":[],"stateMutability":"nonpayable"},{"type":"function","name":"ethereumTotalShares","inputs":[],"outputs":[{"name":"","type":"uint256","internalType":"uint256"}],"stateMutability":"view"},{"type":"function","name":"getRemainingCooldown","inputs":[{"name":"account","type":"address","internalType":"address"}],"outputs":[{"name":"","type":"uint256","internalType":"uint256"}],"stateMutability":"view"},{"type":"function","name":"getRoleAdmin","inputs":[{"name":"role","type":"bytes32","internalType":"bytes32"}],"outputs":[{"name":"","type":"bytes32","internalType":"bytes32"}],"stateMutability":"view"},{"type":"function","name":"globalSharePrice","inputs":[],"outputs":[{"name":"","type":"uint256","internalType":"uint256"}],"stateMutability":"view"},{"type":"function","name":"globalTotalAssets","inputs":[],"outputs":[{"name":"","type":"uint256","internalType":"uint256"}],"stateMutability":"view"},{"type":"function","name":"globalTotalShares","inputs":[],"outputs":[{"name":"","type":"uint256","internalType":"uint256"}],"stateMutability":"view"},{"type":"function","name":"grantRole","inputs":[{"name":"role","type":"bytes32","internalType":"bytes32"},{"name":"account","type":"address","internalType":"address"}],"outputs":[],"stateMutability":"nonpayable"},{"type":"function","name":"hasRole","inputs":[{"name":"role","type":"bytes32","internalType":"bytes32"},{"name":"account","type":"address","internalType":"address"}],"outputs":[{"name":"","type":"bool","internalType":"bool"}],"stateMutability":"view"},{"type":"function","name":"lastCantonSyncEpoch","inputs":[],"outputs":[{"name":"","type":"uint256","internalType":"uint256"}],"stateMutability":"view"},{"type":"function","name":"lastCantonSyncTime","inputs":[],"outputs":[{"name":"","type":"uint256","internalType":"uint256"}],"stateMutability":"view"},{"type":"function","name":"lastDeposit","inputs":[{"name":"","type":"address","internalType":"address"}],"outputs":[{"name":"","type":"uint256","internalType":"uint256"}],"stateMutability":"view"},{"type":"function","name":"lastInterestReceiptTime","inputs":[],"outputs":[{"name":"","type":"uint256","internalType":"uint256"}],"stateMutability":"view"},{"type":"function","name":"maxDeposit","inputs":[{"name":"","type":"address","internalType":"address"}],"outputs":[{"name":"","type":"uint256","internalType":"uint256"}],"stateMutability":"view"},{"type":"function","name":"maxMint","inputs":[{"name":"","type":"address","internalType":"address"}],"outputs":[{"name":"","type":"uint256","internalType":"uint256"}],"stateMutability":"view"},{"type":"function","name":"maxRedeem","inputs":[{"name":"owner","type":"address","internalType":"address"}],"outputs":[{"name":"","type":"uint256","internalType":"uint256"}],"stateMutability":"view"},{"type":"function","name":"maxWithdraw","inputs":[{"name":"owner","type":"address","internalType":"address"}],"outputs":[{"name":"","type":"uint256","internalType":"uint256"}],"stateMutability":"view"},{"type":"function","name":"mint","inputs":[{"name":"shares","type":"uint256","internalType":"uint256"},{"name":"receiver","type":"address","internalType":"address"}],"outputs":[{"name":"","type":"uint256","internalType":"uint256"}],"stateMutability":"nonpayable"},{"type":"function","name":"name","inputs":[],"outputs":[{"name":"","type":"string","internalType":"string"}],"stateMutability":"view"},{"type":"function","name":"pause","inputs":[],"outputs":[],"stateMutability":"nonpayable"},{"type":"function","name":"paused","inputs":[],"outputs":[{"name":"","type":"bool","internalType":"bool"}],"stateMutability":"view"},{"type":"function","name":"previewDeposit","inputs":[{"name":"assets","type":"uint256","internalType":"uint256"}],"outputs":[{"name":"","type":"uint256","internalType":"uint256"}],"stateMutability":"view"},{"type":"function","name":"previewMint","inputs":[{"name":"shares","type":"uint256","internalType":"uint256"}],"outputs":[{"name":"","type":"uint256","internalType":"uint256"}],"stateMutability":"view"},{"type":"function","name":"previewRedeem","inputs":[{"name":"shares","type":"uint256","internalType":"uint256"}],"outputs":[{"name":"","type":"uint256","internalType":"uint256"}],"stateMutability":"view"},{"type":"function","name":"previewWithdraw","inputs":[{"name":"assets","type":"uint256","internalType":"uint256"}],"outputs":[{"name":"","type":"uint256","internalType":"uint256"}],"stateMutability":"view"},{"type":"function","name":"receiveInterest","inputs":[{"name":"amount","type":"uint256","internalType":"uint256"}],"outputs":[],"stateMutability":"nonpayable"},{"type":"function","name":"redeem","inputs":[{"name":"shares","type":"uint256","internalType":"uint256"},{"name":"receiver","type":"address","internalType":"address"},{"name":"owner","type":"address","internalType":"address"}],"outputs":[{"name":"","type":"uint256","internalType":"uint256"}],"stateMutability":"nonpayable"},{"type":"function","name":"renounceRole","inputs":[{"name":"role","type":"bytes32","internalType":"bytes32"},{"name":"callerConfirmation","type":"address","internalType":"address"}],"outputs":[],"stateMutability":"nonpayable"},{"type":"function","name":"revokeRole","inputs":[{"name":"role","type":"bytes32","internalType":"bytes32"},{"name":"account","type":"address","internalType":"address"}],"outputs":[],"stateMutability":"nonpayable"},{"type":"function","name":"setTreasury","inputs":[{"name":"_treasury","type":"address","internalType":"address"}],"outputs":[],"stateMutability":"nonpayable"},{"type":"function","name":"supportsInterface","inputs":[{"name":"interfaceId","type":"bytes4","internalType":"bytes4"}],"outputs":[{"name":"","type":"bool","internalType":"bool"}],"stateMutability":"view"},{"type":"function","name":"symbol","inputs":[],"outputs":[{"name":"","type":"string","internalType":"string"}],"stateMutability":"view"},{"type":"function","name":"syncCantonShares","inputs":[{"name":"_cantonShares","type":"uint256","internalType":"uint256"},{"name":"epoch","type":"uint256","internalType":"uint256"}],"outputs":[],"stateMutability":"nonpayable"},{"type":"function","name":"totalAssets","inputs":[],"outputs":[{"name":"","type":"uint256","internalType":"uint256"}],"stateMutability":"view"},{"type":"function","name":"totalInterestReceived","inputs":[],"outputs":[{"name":"","type":"uint256","internalType":"uint256"}],"stateMutability":"view"},{"type":"function","name":"totalSupply","inputs":[],"outputs":[{"name":"","type":"uint256","internalType":"uint256"}],"stateMutability":"view"},{"type":"function","name":"transfer","inputs":[{"name":"to","type":"address","internalType":"address"},{"name":"value","type":"uint256","internalType":"uint256"}],"outputs":[{"name":"","type":"bool","internalType":"bool"}],"stateMutability":"nonpayable"},{"type":"function","name":"transferFrom","inputs":[{"name":"from","type":"address","internalType":"address"},{"name":"to","type":"address","internalType":"address"},{"name":"value","type":"uint256","internalType":"uint256"}],"outputs":[{"name":"","type":"bool","internalType":"bool"}],"stateMutability":"nonpayable"},{"type":"function","name":"treasury","inputs":[],"outputs":[{"name":"","type":"address","internalType":"address"}],"stateMutability":"view"},{"type":"function","name":"unpause","inputs":[],"outputs":[],"stateMutability":"nonpayable"},{"type":"function","name":"withdraw","inputs":[{"name":"assets","type":"uint256","internalType":"uint256"},{"name":"receiver","type":"address","internalType":"address"},{"name":"owner","type":"address","internalType":"address"}],"outputs":[{"name":"","type":"uint256","internalType":"uint256"}],"stateMutability":"nonpayable"},{"type":"event","name":"Approval","inputs":[{"name":"owner","type":"address","indexed":true,"internalType":"address"},{"name":"spender","type":"address","indexed":true,"internalType":"address"},{"name":"value","type":"uint256","indexed":false,"internalType":"uint256"}],"anonymous":false},{"type":"event","name":"CantonSharesSynced","inputs":[{"name":"cantonShares","type":"uint256","indexed":false,"internalType":"uint256"},{"name":"epoch","type":"uint256","indexed":false,"internalType":"uint256"},{"name":"globalSharePrice","type":"uint256","indexed":false,"internalType":"uint256"}],"anonymous":false},{"type":"event","name":"CooldownUpdated","inputs":[{"name":"account","type":"address","indexed":true,"internalType":"address"},{"name":"timestamp","type":"uint256","indexed":false,"internalType":"uint256"}],"anonymous":false},{"type":"event","name":"Deposit","inputs":[{"name":"sender","type":"address","indexed":true,"internalType":"address"},{"name":"owner","type":"address","indexed":true,"internalType":"address"},{"name":"assets","type":"uint256","indexed":false,"internalType":"uint256"},{"name":"shares","type":"uint256","indexed":false,"internalType":"uint256"}],"anonymous":false},{"type":"event","name":"InterestReceived","inputs":[{"name":"from","type":"address","indexed":true,"internalType":"address"},{"name":"amount","type":"uint256","indexed":false,"internalType":"uint256"},{"name":"totalReceived","type":"uint256","indexed":false,"internalType":"uint256"}],"anonymous":false},{"type":"event","name":"Paused","inputs":[{"name":"account","type":"address","indexed":false,"internalType":"address"}],"anonymous":false},{"type":"event","name":"RoleAdminChanged","inputs":[{"name":"role","type":"bytes32","indexed":true,"internalType":"bytes32"},{"name":"previousAdminRole","type":"bytes32","indexed":true,"internalType":"bytes32"},{"name":"newAdminRole","type":"bytes32","indexed":true,"internalType":"bytes32"}],"anonymous":false},{"type":"event","name":"RoleGranted","inputs":[{"name":"role","type":"bytes32","indexed":true,"internalType":"bytes32"},{"name":"account","type":"address","indexed":true,"internalType":"address"},{"name":"sender","type":"address","indexed":true,"internalType":"address"}],"anonymous":false},{"type":"event","name":"RoleRevoked","inputs":[{"name":"role","type":"bytes32","indexed":true,"internalType":"bytes32"},{"name":"account","type":"address","indexed":true,"internalType":"address"},{"name":"sender","type":"address","indexed":true,"internalType":"address"}],"anonymous":false},{"type":"event","name":"Transfer","inputs":[{"name":"from","type":"address","indexed":true,"internalType":"address"},{"name":"to","type":"address","indexed":true,"internalType":"address"},{"name":"value","type":"uint256","indexed":false,"internalType":"uint256"}],"anonymous":false},{"type":"event","name":"TreasuryUpdated","inputs":[{"name":"oldTreasury","type":"address","indexed":true,"internalType":"address"},{"name":"newTreasury","type":"address","indexed":true,"internalType":"address"}],"anonymous":false},{"type":"event","name":"Unpaused","inputs":[{"name":"account","type":"address","indexed":false,"internalType":"address"}],"anonymous":false},{"type":"event","name":"Withdraw","inputs":[{"name":"sender","type":"address","indexed":true,"internalType":"address"},{"name":"receiver","type":"address","indexed":true,"internalType":"address"},{"name":"owner","type":"address","indexed":true,"internalType":"address"},{"name":"assets","type":"uint256","indexed":false,"internalType":"uint256"},{"name":"shares","type":"uint256","indexed":false,"internalType":"uint256"}],"anonymous":false},{"type":"event","name":"YieldDistributed","inputs":[{"name":"from","type":"address","indexed":true,"internalType":"address"},{"name":"amount","type":"uint256","indexed":false,"internalType":"uint256"}],"anonymous":false},{"type":"error","name":"AccessControlBadConfirmation","inputs":[]},{"type":"error","name":"AccessControlUnauthorizedAccount","inputs":[{"name":"account","type":"address","internalType":"address"},{"name":"neededRole","type":"bytes32","internalType":"bytes32"}]},{"type":"error","name":"ERC20InsufficientAllowance","inputs":[{"name":"spender","type":"address","internalType":"address"},{"name":"allowance","type":"uint256","internalType":"uint256"},{"name":"needed","type":"uint256","internalType":"uint256"}]},{"type":"error","name":"ERC20InsufficientBalance","inputs":[{"name":"sender","type":"address","internalType":"address"},{"name":"balance","type":"uint256","internalType":"uint256"},{"name":"needed","type":"uint256","internalType":"uint256"}]},{"type":"error","name":"ERC20InvalidApprover","inputs":[{"name":"approver","type":"address","internalType":"address"}]},{"type":"error","name":"ERC20InvalidReceiver","inputs":[{"name":"receiver","type":"address","internalType":"address"}]},{"type":"error","name":"ERC20InvalidSender","inputs":[{"name":"sender","type":"address","internalType":"address"}]},{"type":"error","name":"ERC20InvalidSpender","inputs":[{"name":"spender","type":"address","internalType":"address"}]},{"type":"error","name":"ERC4626ExceededMaxDeposit","inputs":[{"name":"receiver","type":"address","internalType":"address"},{"name":"assets","type":"uint256","internalType":"uint256"},{"name":"max","type":"uint256","internalType":"uint256"}]},{"type":"error","name":"ERC4626ExceededMaxMint","inputs":[{"name":"receiver","type":"address","internalType":"address"},{"name":"shares","type":"uint256","internalType":"uint256"},{"name":"max","type":"uint256","internalType":"uint256"}]},{"type":"error","name":"ERC4626ExceededMaxRedeem","inputs":[{"name":"owner","type":"address","internalType":"address"},{"name":"shares","type":"uint256","internalType":"uint256"},{"name":"max","type":"uint256","internalType":"uint256"}]},{"type":"error","name":"ERC4626ExceededMaxWithdraw","inputs":[{"name":"owner","type":"address","internalType":"address"},{"name":"assets","type":"uint256","internalType":"uint256"},{"name":"max","type":"uint256","internalType":"uint256"}]},{"type":"error","name":"EnforcedPause","inputs":[]},{"type":"error","name":"ExpectedPause","inputs":[]},{"type":"error","name":"ReentrancyGuardReentrantCall","inputs":[]},{"type":"error","name":"SafeERC20FailedOperation","inputs":[{"name":"token","type":"address","internalType":"address"}]}],"bytecode":{"object":"0x60c060405234801561000f575f80fd5b506040516128fc3803806128fc83398101604081905261002e9161028b565b806040518060400160405280600b81526020016a14dd185ad959081b5554d160aa1b815250604051806040016040528060058152602001641cdb5554d160da1b81525081600390816100809190610350565b50600461008d8282610350565b5050505f806100a18361010860201b60201c565b91509150816100b15760126100b3565b805b60ff1660a05250506001600160a01b031660805260016006556100d65f336101de565b506101017f65d7a28e3265b37a6474929f336521b332c1681b933f6cb9f3376673440d862a336101de565b5050610437565b60408051600481526024810182526020810180516001600160e01b031663313ce56760e01b17905290515f918291829182916001600160a01b0387169161014e9161040a565b5f60405180830381855afa9150503d805f8114610186576040519150601f19603f3d011682016040523d82523d5f602084013e61018b565b606091505b509150915081801561019f57506020815110155b156101d2575f818060200190518101906101b99190610420565b905060ff81116101d0576001969095509350505050565b505b505f9485945092505050565b5f8281526005602090815260408083206001600160a01b038516845290915281205460ff16610282575f8381526005602090815260408083206001600160a01b03861684529091529020805460ff1916600117905561023a3390565b6001600160a01b0316826001600160a01b0316847f2f8788117e7eff1d82e926ec794901d17c78024a50270940304540a733656f0d60405160405180910390a4506001610285565b505f5b92915050565b5f6020828403121561029b575f80fd5b81516001600160a01b03811681146102b1575f80fd5b9392505050565b634e487b7160e01b5f52604160045260245ffd5b600181811c908216806102e057607f821691505b6020821081036102fe57634e487b7160e01b5f52602260045260245ffd5b50919050565b601f82111561034b57805f5260205f20601f840160051c810160208510156103295750805b601f840160051c820191505b81811015610348575f8155600101610335565b50505b505050565b81516001600160401b03811115610369576103696102b8565b61037d8161037784546102cc565b84610304565b6020601f8211600181146103af575f83156103985750848201515b5f19600385901b1c1916600184901b178455610348565b5f84815260208120601f198516915b828110156103de57878501518255602094850194600190920191016103be565b50848210156103fb57868401515f19600387901b60f8161c191681555b50505050600190811b01905550565b5f82518060208501845e5f920191825250919050565b5f60208284031215610430575f80fd5b5051919050565b60805160a05161248161047b5f395f610a0601525f81816104e80152818161080001528181610bab015281816113d501528181611c7c0152611d2e01526124815ff3fe608060405234801561000f575f80fd5b5060043610610393575f3560e01c806387f5769e116101df578063c8cc5cd811610109578063e63ab1e9116100a9578063f38bb07311610079578063f38bb0731461079d578063f3e3064f146107c4578063f7a54f89146107cd578063fe9e9640146107d6575f80fd5b8063e63ab1e914610750578063e6f3e00414610777578063ef8b30f7146106a7578063f0f442601461078a575f80fd5b8063d905777e116100e4578063d905777e146106f3578063da7f006514610706578063daef17c31461070f578063dd62ed3e14610718575f80fd5b8063c8cc5cd8146106ba578063ce96cb77146106cd578063d547741f146106e0575f80fd5b8063a9059cbb1161017f578063b5bfddea1161014f578063b5bfddea1461066d578063ba08765214610694578063c63d75b614610528578063c6e6f592146106a7575f80fd5b8063a9059cbb1461062b578063b1b3f4671461063e578063b3d7f6b914610647578063b460af941461065a575f80fd5b806394bf804d116101ba57806394bf804d146105ff578063950d91e91461061257806395d89b411461061c578063a217fddf14610624575f80fd5b806387f5769e146105db5780638fb3a94a146105e457806391d14854146105ec575f80fd5b806336568abe116102c05780635840aa2811610260578063691e4e4611610230578063691e4e46146105905780636e553f651461059857806370a08231146105ab5780638456cb59146105d3575f80fd5b80635840aa28146105575780635c975abb1461056a57806361d027b31461057557806367799a4314610588575f80fd5b8063402d267d1161029b578063402d267d1461052857806344fd5ab61461053c57806346823f6a146105445780634cdad506146103f3575f80fd5b806336568abe146104d357806338d52e0f146104e65780633f4ba83a14610520575f80fd5b806318160ddd11610336578063248a9ca311610306578063248a9ca31461046357806329d16ee8146104855780632f2ff15d146104a4578063313ce567146104b9575f80fd5b806318160ddd1461042c57806319262d3014610434578063205fc5d31461044757806323b872dd14610450575f80fd5b806306fdde031161037157806306fdde03146103de57806307a2d13a146103f3578063095ea7b3146104065780630a28a47714610419575f80fd5b806301e1d1141461039757806301ffc9a7146103b257806303d330fa146103d5575b5f80fd5b61039f6107fd565b6040519081526020015b60405180910390f35b6103c56103c0366004612070565b61088c565b60405190151581526020016103a9565b61039f6103e881565b6103e66108c2565b6040516103a99190612097565b61039f6104013660046120cc565b610952565b6103c56104143660046120fe565b61095d565b61039f6104273660046120cc565b610974565b60025461039f565b6103c5610442366004612126565b610980565b61039f6101f481565b6103c561045e36600461213f565b6109af565b61039f6104713660046120cc565b5f9081526005602052604090206001015490565b61039f610493366004612126565b60086020525f908152604090205481565b6104b76104b2366004612179565b6109d4565b005b6104c16109fe565b60405160ff90911681526020016103a9565b6104b76104e1366004612179565b610a2a565b7f00000000000000000000000000000000000000000000000000000000000000005b6040516001600160a01b0390911681526020016103a9565b6104b7610a62565b61039f610536366004612126565b505f1990565b61039f610a77565b6104b76105523660046120cc565b610a81565b6104b76105653660046121a3565b610c40565b60075460ff166103c5565b600b54610508906001600160a01b031681565b61039f610edd565b61039f610f2b565b61039f6105a6366004612179565b611015565b61039f6105b9366004612126565b6001600160a01b03165f9081526020819052604090205490565b6104b761108c565b61039f600d5481565b61039f6110be565b6103c56105fa366004612179565b6110d5565b61039f61060d366004612179565b6110ff565b61039f6201518081565b6103e661116a565b61039f5f81565b6103c56106393660046120fe565b611179565b61039f600c5481565b61039f6106553660046120cc565b611186565b61039f6106683660046121c3565b611192565b61039f7f52ba824bfabc2bcfcdf7f0edbb486ebb05e1836c90e78047efeb949990f72e5f81565b61039f6106a23660046121c3565b611221565b61039f6106b53660046120cc565b6112a4565b6104b76106c83660046120cc565b6112af565b61039f6106db366004612126565b61142b565b6104b76106ee366004612179565b61144d565b61039f610701366004612126565b611471565b61039f600a5481565b61039f60095481565b61039f6107263660046121fc565b6001600160a01b039182165f90815260016020908152604080832093909416825291909152205490565b61039f7f65d7a28e3265b37a6474929f336521b332c1681b933f6cb9f3376673440d862a81565b61039f610785366004612126565b61148e565b6104b7610798366004612126565b6114d1565b61039f7ff22f9b856fefc8d979ef1bf362d6312dd0309a47aad9c5feee517fa2e8d8902381565b61039f600e5481565b61039f610e1081565b61039f7f470f4f1717679395b6a9e0700797bfeeaa970f1643e72f5684d687c0be10fe2781565b5f7f00000000000000000000000000000000000000000000000000000000000000006040516370a0823160e01b81523060048201526001600160a01b0391909116906370a0823190602401602060405180830381865afa158015610863573d5f803e3d5ffd5b505050506040513d601f19601f820116820180604052508101906108879190612224565b905090565b5f6001600160e01b03198216637965db0b60e01b14806108bc57506301ffc9a760e01b6001600160e01b03198316145b92915050565b6060600380546108d19061223b565b80601f01602080910402602001604051908101604052809291908181526020018280546108fd9061223b565b80156109485780601f1061091f57610100808354040283529160200191610948565b820191905f5260205f20905b81548152906001019060200180831161092b57829003601f168201915b5050505050905090565b5f6108bc825f611572565b5f3361096a8185856115bb565b5060019392505050565b5f6108bc8260016115c8565b6001600160a01b0381165f908152600860205260408120546109a6906201518090612287565b42101592915050565b5f336109bc858285611600565b6109c7858585611663565b60019150505b9392505050565b5f828152600560205260409020600101546109ee816116c0565b6109f883836116ca565b50505050565b5f61088760037f000000000000000000000000000000000000000000000000000000000000000061229a565b6001600160a01b0381163314610a535760405163334bd91960e11b815260040160405180910390fd5b610a5d828261175b565b505050565b5f610a6c816116c0565b610a746117c6565b50565b5f61088760025490565b7ff22f9b856fefc8d979ef1bf362d6312dd0309a47aad9c5feee517fa2e8d89023610aab816116c0565b5f8211610aed5760405162461bcd60e51b815260206004820152600b60248201526a16915493d7d05353d5539560aa1b60448201526064015b60405180910390fd5b5f610af66110be565b11610b355760405162461bcd60e51b815260206004820152600f60248201526e1393d7d4d210549154d7d1561254d5608a1b6044820152606401610ae4565b5f610b3e610f2b565b90505f612710610b506103e8846122b3565b610b5a91906122de565b905080841115610ba35760405162461bcd60e51b81526020600482015260146024820152730494e5445524553545f455843454544535f4341560641b6044820152606401610ae4565b610bdc3330867f00000000000000000000000000000000000000000000000000000000000000005b6001600160a01b0316929190611818565b83600d5f828254610bed9190612287565b909155505042600e55600d5460405133917fdfbb5ccbe498d34d6a5497c62226d673740ea3d4ca57b496dff91b36922c971291610c3291888252602082015260400190565b60405180910390a250505050565b7f52ba824bfabc2bcfcdf7f0edbb486ebb05e1836c90e78047efeb949990f72e5f610c6a816116c0565b600a548211610cb25760405162461bcd60e51b8152602060048201526014602482015273115413d0d217d393d517d4d1545551539512505360621b6044820152606401610ae4565b610e10600c54610cc29190612287565b421015610d055760405162461bcd60e51b815260206004820152601160248201527014d65390d7d513d3d7d194915455515395607a1b6044820152606401610ae4565b6009545f03610d8c575f610d1860025490565b90505f808211610d285784610d33565b610d338260026122b3565b905080851115610d855760405162461bcd60e51b815260206004820152601860248201527f494e495449414c5f5348415245535f544f4f5f4c4152474500000000000000006044820152606401610ae4565b5050610e81565b5f612710610d9c6101f482612287565b600954610da991906122b3565b610db391906122de565b90505f612710610dc56101f4826122f1565b600954610dd291906122b3565b610ddc91906122de565b905081851115610e2e5760405162461bcd60e51b815260206004820152601860248201527f53484152455f494e4352454153455f544f4f5f4c4152474500000000000000006044820152606401610ae4565b80851015610e7e5760405162461bcd60e51b815260206004820152601860248201527f53484152455f44454352454153455f544f4f5f4c4152474500000000000000006044820152606401610ae4565b50505b6009839055600a82905542600c557f81fc726eb84a1225fa236b15eb2fcdbc39f58e3b81c548f9d27b955dd1954f7c8383610eba610edd565b6040805193845260208401929092529082015260600160405180910390a1505050565b5f80610ee76110be565b9050805f03610f0257610efc6003600a6123e7565b91505090565b80610f0f6003600a6123e7565b610f17610f2b565b610f2191906122b3565b610efc91906122de565b600b545f906001600160a01b0316610f45576108876107fd565b600b5f9054906101000a90046001600160a01b03166001600160a01b031663d4c3eea06040518163ffffffff1660e01b8152600401602060405180830381865afa925050508015610fb3575060408051601f3d908101601f19168201909252610fb091810190612224565b60015b6110065760095415610ffe5760405162461bcd60e51b815260206004820152601460248201527354524541535552595f554e524541434841424c4560601b6044820152606401610ae4565b6108876107fd565b610efc8164e8d4a510006122b3565b5f61101e61187f565b6110266118a9565b6001600160a01b0382165f81815260086020908152604091829020429081905591519182527f7631df1cb61560709ebf9092a96d321b993513e844760f08c3f827be3b349d14910160405180910390a261108083836118cf565b90506108bc6001600655565b7f65d7a28e3265b37a6474929f336521b332c1681b933f6cb9f3376673440d862a6110b6816116c0565b610a746118ea565b5f6009546110cb60025490565b6108879190612287565b5f9182526005602090815260408084206001600160a01b0393909316845291905290205460ff1690565b5f61110861187f565b6111106118a9565b6001600160a01b0382165f81815260086020908152604091829020429081905591519182527f7631df1cb61560709ebf9092a96d321b993513e844760f08c3f827be3b349d14910160405180910390a26110808383611927565b6060600480546108d19061223b565b5f3361096a818585611663565b5f6108bc826001611572565b5f61119b61187f565b6111a36118a9565b6001600160a01b0382165f908152600860205260409020546111c9906201518090612287565b42101561120a5760405162461bcd60e51b815260206004820152600f60248201526e434f4f4c444f574e5f41435449564560881b6044820152606401610ae4565b611215848484611942565b90506109cd6001600655565b5f61122a61187f565b6112326118a9565b6001600160a01b0382165f90815260086020526040902054611258906201518090612287565b4210156112995760405162461bcd60e51b815260206004820152600f60248201526e434f4f4c444f574e5f41435449564560881b6044820152606401610ae4565b611215848484611998565b5f6108bc825f6115c8565b7f470f4f1717679395b6a9e0700797bfeeaa970f1643e72f5684d687c0be10fe276112d9816116c0565b5f6112e360025490565b116113225760405162461bcd60e51b815260206004820152600f60248201526e1393d7d4d210549154d7d1561254d5608a1b6044820152606401610ae4565b5f82116113625760405162461bcd60e51b815260206004820152600e60248201526d1253959053125117d05353d5539560921b6044820152606401610ae4565b5f61136b610f2b565b90505f61271061137d6103e8846122b3565b61138791906122de565b9050808411156113cd5760405162461bcd60e51b815260206004820152601160248201527005949454c445f455843454544535f43415607c1b6044820152606401610ae4565b6113f93330867f0000000000000000000000000000000000000000000000000000000000000000610bcb565b60405184815233907f9d315883dbfe38532083c1e42c0d10fbf89ad1cabaa0c269f78b3beb892c101d90602001610c32565b6001600160a01b0381165f908152602081905260408120546108bc905f611572565b5f82815260056020526040902060010154611467816116c0565b6109f8838361175b565b6001600160a01b0381165f908152602081905260408120546108bc565b6001600160a01b0381165f9081526008602052604081205481906114b6906201518090612287565b90508042106114c757505f92915050565b6109cd42826122f1565b5f6114db816116c0565b6001600160a01b0382166115205760405162461bcd60e51b815260206004820152600c60248201526b5a45524f5f4144445245535360a01b6044820152606401610ae4565b600b80546001600160a01b038481166001600160a01b0319831681179093556040519116919082907f4ab5be82436d353e61ca18726e984e561f5c1cc7c6d38b29d2553c790434705a905f90a3505050565b5f8061157c6110be565b90506115b3611589610f2b565b611594906001612287565b6115a06003600a6123e7565b6115aa9084612287565b869190866119e5565b949350505050565b610a5d8383836001611a27565b5f806115d26110be565b90506115b36115e36003600a6123e7565b6115ed9083612287565b6115f5610f2b565b6115aa906001612287565b6001600160a01b038381165f908152600160209081526040808320938616835292905220545f198110156109f8578181101561165557828183604051637dc7a0d960e11b8152600401610ae4939291906123f5565b6109f884848484035f611a27565b6001600160a01b03831661168c57604051634b637e8f60e11b81525f6004820152602401610ae4565b6001600160a01b0382166116b55760405163ec442f0560e01b81525f6004820152602401610ae4565b610a5d838383611af9565b610a748133611bab565b5f6116d583836110d5565b611754575f8381526005602090815260408083206001600160a01b03861684529091529020805460ff1916600117905561170c3390565b6001600160a01b0316826001600160a01b0316847f2f8788117e7eff1d82e926ec794901d17c78024a50270940304540a733656f0d60405160405180910390a45060016108bc565b505f6108bc565b5f61176683836110d5565b15611754575f8381526005602090815260408083206001600160a01b0386168085529252808320805460ff1916905551339286917ff6391f5c32d9c69d2a47ea670b442974b53935d1edc7fd64eb21e047a839171b9190a45060016108bc565b6117ce611be8565b6007805460ff191690557f5db9ee0a495bf2e6ff9c91a7834c1ba4fdd244a5e8aa4e537bd38aeae4b073aa335b6040516001600160a01b03909116815260200160405180910390a1565b6040516001600160a01b0384811660248301528381166044830152606482018390526109f89186918216906323b872dd906084015b604051602081830303815290604052915060e01b6020820180516001600160e01b038381831617835250505050611c0b565b6002600654036118a257604051633ee5aeb560e01b815260040160405180910390fd5b6002600655565b60075460ff16156118cd5760405163d93c066560e01b815260040160405180910390fd5b565b5f5f195f6118dc856112a4565b90506115b333858784611c77565b6118f26118a9565b6007805460ff191660011790557f62e78cea01bee320cd4e420270b5ea74000d11b0c9f74754ebdbfc544b05a2586117fb3390565b5f5f195f61193485611186565b90506115b333858388611c77565b5f8061194d8361142b565b90508085111561197657828582604051633fa733bb60e21b8152600401610ae4939291906123f5565b5f61198086610974565b905061198f3386868985611cfb565b95945050505050565b5f806119a383611471565b9050808511156119cc57828582604051632e52afbb60e21b8152600401610ae4939291906123f5565b5f6119d686610952565b905061198f338686848a611cfb565b5f611a126119f283611dbb565b8015611a0d57505f8480611a0857611a086122ca565b868809115b151590565b611a1d868686611de7565b61198f9190612287565b6001600160a01b038416611a505760405163e602df0560e01b81525f6004820152602401610ae4565b6001600160a01b038316611a7957604051634a1406b160e11b81525f6004820152602401610ae4565b6001600160a01b038085165f90815260016020908152604080832093871683529290522082905580156109f857826001600160a01b0316846001600160a01b03167f8c5be1e5ebec7d5bd14f71427d1e84f3dd0314c0f7b2291e5b200ac8c7c3b92584604051611aeb91815260200190565b60405180910390a350505050565b6001600160a01b03831615801590611b1957506001600160a01b03821615155b15611ba0576001600160a01b038084165f9081526008602052604080822054928516825290205480821115611b9d576001600160a01b0384165f8181526008602052604090819020849055517f7631df1cb61560709ebf9092a96d321b993513e844760f08c3f827be3b349d1490611b949085815260200190565b60405180910390a25b50505b610a5d838383611e97565b611bb582826110d5565b611be45760405163e2517d3f60e01b81526001600160a01b038216600482015260248101839052604401610ae4565b5050565b60075460ff166118cd57604051638dfc202b60e01b815260040160405180910390fd5b5f8060205f8451602086015f885af180611c2a576040513d5f823e3d81fd5b50505f513d91508115611c41578060011415611c4e565b6001600160a01b0384163b155b156109f857604051635274afe760e01b81526001600160a01b0385166004820152602401610ae4565b611ca37f0000000000000000000000000000000000000000000000000000000000000000853085611818565b611cad8382611faa565b826001600160a01b0316846001600160a01b03167fdcbc1c05240f31ff3ad067ef1ee35ce4997762752e3a095284754544f4c709d78484604051611aeb929190918252602082015260400190565b826001600160a01b0316856001600160a01b031614611d1f57611d1f838683611600565b611d298382611fde565b611d547f00000000000000000000000000000000000000000000000000000000000000008584612012565b826001600160a01b0316846001600160a01b0316866001600160a01b03167ffbde797d201c681b91056529119e0b02407c7bb96a4a2c75c01fc9667232c8db8585604051611dac929190918252602082015260400190565b60405180910390a45050505050565b5f6002826003811115611dd057611dd0612416565b611dda919061242a565b60ff166001149050919050565b5f805f611df48686612043565b91509150815f03611e1857838181611e0e57611e0e6122ca565b04925050506109cd565b818411611e2f57611e2f600385150260111861205f565b5f848688095f868103871696879004966002600389028118808a02820302808a02820302808a02820302808a02820302808a02820302808a02909103029181900381900460010185841190960395909502919093039390930492909217029150509392505050565b6001600160a01b038316611ec1578060025f828254611eb69190612287565b90915550611f1e9050565b6001600160a01b0383165f9081526020819052604090205481811015611f005783818360405163391434e360e21b8152600401610ae4939291906123f5565b6001600160a01b0384165f9081526020819052604090209082900390555b6001600160a01b038216611f3a57600280548290039055611f58565b6001600160a01b0382165f9081526020819052604090208054820190555b816001600160a01b0316836001600160a01b03167fddf252ad1be2c89b69c2b068fc378daa952ba7f163c4a11628f55a4df523b3ef83604051611f9d91815260200190565b60405180910390a3505050565b6001600160a01b038216611fd35760405163ec442f0560e01b81525f6004820152602401610ae4565b611be45f8383611af9565b6001600160a01b03821661200757604051634b637e8f60e11b81525f6004820152602401610ae4565b611be4825f83611af9565b6040516001600160a01b03838116602483015260448201839052610a5d91859182169063a9059cbb9060640161184d565b5f805f1983850993909202808410938190039390930393915050565b634e487b715f52806020526024601cfd5b5f60208284031215612080575f80fd5b81356001600160e01b0319811681146109cd575f80fd5b602081525f82518060208401528060208501604085015e5f604082850101526040601f19601f83011684010191505092915050565b5f602082840312156120dc575f80fd5b5035919050565b80356001600160a01b03811681146120f9575f80fd5b919050565b5f806040838503121561210f575f80fd5b612118836120e3565b946020939093013593505050565b5f60208284031215612136575f80fd5b6109cd826120e3565b5f805f60608486031215612151575f80fd5b61215a846120e3565b9250612168602085016120e3565b929592945050506040919091013590565b5f806040838503121561218a575f80fd5b8235915061219a602084016120e3565b90509250929050565b5f80604083850312156121b4575f80fd5b50508035926020909101359150565b5f805f606084860312156121d5575f80fd5b833592506121e5602085016120e3565b91506121f3604085016120e3565b90509250925092565b5f806040838503121561220d575f80fd5b612216836120e3565b915061219a602084016120e3565b5f60208284031215612234575f80fd5b5051919050565b600181811c9082168061224f57607f821691505b60208210810361226d57634e487b7160e01b5f52602260045260245ffd5b50919050565b634e487b7160e01b5f52601160045260245ffd5b808201808211156108bc576108bc612273565b60ff81811683821601908111156108bc576108bc612273565b80820281158282048414176108bc576108bc612273565b634e487b7160e01b5f52601260045260245ffd5b5f826122ec576122ec6122ca565b500490565b818103818111156108bc576108bc612273565b6001815b600184111561233f5780850481111561232357612323612273565b600184161561233157908102905b60019390931c928002612308565b935093915050565b5f82612355575060016108bc565b8161236157505f6108bc565b816001811461237757600281146123815761239d565b60019150506108bc565b60ff84111561239257612392612273565b50506001821b6108bc565b5060208310610133831016604e8410600b84101617156123c0575081810a6108bc565b6123cc5f198484612304565b805f19048211156123df576123df612273565b029392505050565b5f6109cd60ff841683612347565b6001600160a01b039390931683526020830191909152604082015260600190565b634e487b7160e01b5f52602160045260245ffd5b5f60ff83168061243c5761243c6122ca565b8060ff8416069150509291505056fea264697066735822122048f850fc5203ac29ec96f5119101cf26080df549095461c51857cdf724e0b5f364736f6c634300081a0033","linkReferences":{}},"methodIdentifiers":{"BRIDGE_ROLE()":"b5bfddea","DEFAULT_ADMIN_ROLE()":"a217fddf","INTEREST_ROUTER_ROLE()":"f38bb073","MAX_SHARE_CHANGE_BPS()":"205fc5d3","MAX_YIELD_BPS()":"03d330fa","MIN_SYNC_INTERVAL()":"f7a54f89","PAUSER_ROLE()":"e63ab1e9","WITHDRAW_COOLDOWN()":"950d91e9","YIELD_MANAGER_ROLE()":"fe9e9640","allowance(address,address)":"dd62ed3e","approve(address,uint256)":"095ea7b3","asset()":"38d52e0f","balanceOf(address)":"70a08231","canWithdraw(address)":"19262d30","cantonTotalShares()":"daef17c3","convertToAssets(uint256)":"07a2d13a","convertToShares(uint256)":"c6e6f592","decimals()":"313ce567","deposit(uint256,address)":"6e553f65","distributeYield(uint256)":"c8cc5cd8","ethereumTotalShares()":"44fd5ab6","getRemainingCooldown(address)":"e6f3e004","getRoleAdmin(bytes32)":"248a9ca3","globalSharePrice()":"67799a43","globalTotalAssets()":"691e4e46","globalTotalShares()":"8fb3a94a","grantRole(bytes32,address)":"2f2ff15d","hasRole(bytes32,address)":"91d14854","lastCantonSyncEpoch()":"da7f0065","lastCantonSyncTime()":"b1b3f467","lastDeposit(address)":"29d16ee8","lastInterestReceiptTime()":"f3e3064f","maxDeposit(address)":"402d267d","maxMint(address)":"c63d75b6","maxRedeem(address)":"d905777e","maxWithdraw(address)":"ce96cb77","mint(uint256,address)":"94bf804d","name()":"06fdde03","pause()":"8456cb59","paused()":"5c975abb","previewDeposit(uint256)":"ef8b30f7","previewMint(uint256)":"b3d7f6b9","previewRedeem(uint256)":"4cdad506","previewWithdraw(uint256)":"0a28a477","receiveInterest(uint256)":"46823f6a","redeem(uint256,address,address)":"ba087652","renounceRole(bytes32,address)":"36568abe","revokeRole(bytes32,address)":"d547741f","setTreasury(address)":"f0f44260","supportsInterface(bytes4)":"01ffc9a7","symbol()":"95d89b41","syncCantonShares(uint256,uint256)":"5840aa28","totalAssets()":"01e1d114","totalInterestReceived()":"87f5769e","totalSupply()":"18160ddd","transfer(address,uint256)":"a9059cbb","transferFrom(address,address,uint256)":"23b872dd","treasury()":"61d027b3","unpause()":"3f4ba83a","withdraw(uint256,address,address)":"b460af94"},"id":12}