{"abi":[{"type":"constructor","inputs":[{"name":"_musd","type":"address","internalType":"contract IERC20"}],"stateMutability":"nonpayable"},{"type":"function","name":"BRIDGE_ROLE","inputs":[],"outputs":[{"name":"","type":"bytes32","internalType":"bytes32"}],"stateMutability":"view"},{"type":"function","name":"DEFAULT_ADMIN_ROLE","inputs":[],"outputs":[{"name":"","type":"bytes32","internalType":"bytes32"}],"stateMutability":"view"},{"type":"function","name":"INTEREST_ROUTER_ROLE","inputs":[],"outputs":[{"name":"","type":"bytes32","internalType":"bytes32"}],"stateMutability":"view"},{"type":"function","name":"MAX_GLOBAL_ASSETS_GROWTH_BPS","inputs":[],"outputs":[{"name":"","type":"uint256","internalType":"uint256"}],"stateMutability":"view"},{"type":"function","name":"MAX_SHARE_CHANGE_BPS","inputs":[],"outputs":[{"name":"","type":"uint256","internalType":"uint256"}],"stateMutability":"view"},{"type":"function","name":"MAX_YIELD_BPS","inputs":[],"outputs":[{"name":"","type":"uint256","internalType":"uint256"}],"stateMutability":"view"},{"type":"function","name":"MIN_SYNC_INTERVAL","inputs":[],"outputs":[{"name":"","type":"uint256","internalType":"uint256"}],"stateMutability":"view"},{"type":"function","name":"PAUSER_ROLE","inputs":[],"outputs":[{"name":"","type":"bytes32","internalType":"bytes32"}],"stateMutability":"view"},{"type":"function","name":"TREASURY_CHANGE_DELAY","inputs":[],"outputs":[{"name":"","type":"uint256","internalType":"uint256"}],"stateMutability":"view"},{"type":"function","name":"WITHDRAW_COOLDOWN","inputs":[],"outputs":[{"name":"","type":"uint256","internalType":"uint256"}],"stateMutability":"view"},{"type":"function","name":"YIELD_MANAGER_ROLE","inputs":[],"outputs":[{"name":"","type":"bytes32","internalType":"bytes32"}],"stateMutability":"view"},{"type":"function","name":"allowance","inputs":[{"name":"owner","type":"address","internalType":"address"},{"name":"spender","type":"address","internalType":"address"}],"outputs":[{"name":"","type":"uint256","internalType":"uint256"}],"stateMutability":"view"},{"type":"function","name":"approve","inputs":[{"name":"spender","type":"address","internalType":"address"},{"name":"value","type":"uint256","internalType":"uint256"}],"outputs":[{"name":"","type":"bool","internalType":"bool"}],"stateMutability":"nonpayable"},{"type":"function","name":"asset","inputs":[],"outputs":[{"name":"","type":"address","internalType":"address"}],"stateMutability":"view"},{"type":"function","name":"balanceOf","inputs":[{"name":"account","type":"address","internalType":"address"}],"outputs":[{"name":"","type":"uint256","internalType":"uint256"}],"stateMutability":"view"},{"type":"function","name":"canWithdraw","inputs":[{"name":"account","type":"address","internalType":"address"}],"outputs":[{"name":"","type":"bool","internalType":"bool"}],"stateMutability":"view"},{"type":"function","name":"cancelSetTreasury","inputs":[],"outputs":[],"stateMutability":"nonpayable"},{"type":"function","name":"cantonTotalShares","inputs":[],"outputs":[{"name":"","type":"uint256","internalType":"uint256"}],"stateMutability":"view"},{"type":"function","name":"convertToAssets","inputs":[{"name":"shares","type":"uint256","internalType":"uint256"}],"outputs":[{"name":"","type":"uint256","internalType":"uint256"}],"stateMutability":"view"},{"type":"function","name":"convertToShares","inputs":[{"name":"assets","type":"uint256","internalType":"uint256"}],"outputs":[{"name":"","type":"uint256","internalType":"uint256"}],"stateMutability":"view"},{"type":"function","name":"decimals","inputs":[],"outputs":[{"name":"","type":"uint8","internalType":"uint8"}],"stateMutability":"view"},{"type":"function","name":"deposit","inputs":[{"name":"assets","type":"uint256","internalType":"uint256"},{"name":"receiver","type":"address","internalType":"address"}],"outputs":[{"name":"","type":"uint256","internalType":"uint256"}],"stateMutability":"nonpayable"},{"type":"function","name":"distributeYield","inputs":[{"name":"amount","type":"uint256","internalType":"uint256"}],"outputs":[],"stateMutability":"nonpayable"},{"type":"function","name":"ethereumTotalShares","inputs":[],"outputs":[{"name":"","type":"uint256","internalType":"uint256"}],"stateMutability":"view"},{"type":"function","name":"executeSetTreasury","inputs":[],"outputs":[],"stateMutability":"nonpayable"},{"type":"function","name":"getRemainingCooldown","inputs":[{"name":"account","type":"address","internalType":"address"}],"outputs":[{"name":"","type":"uint256","internalType":"uint256"}],"stateMutability":"view"},{"type":"function","name":"getRoleAdmin","inputs":[{"name":"role","type":"bytes32","internalType":"bytes32"}],"outputs":[{"name":"","type":"bytes32","internalType":"bytes32"}],"stateMutability":"view"},{"type":"function","name":"globalSharePrice","inputs":[],"outputs":[{"name":"","type":"uint256","internalType":"uint256"}],"stateMutability":"view"},{"type":"function","name":"globalTotalAssets","inputs":[],"outputs":[{"name":"","type":"uint256","internalType":"uint256"}],"stateMutability":"view"},{"type":"function","name":"globalTotalShares","inputs":[],"outputs":[{"name":"","type":"uint256","internalType":"uint256"}],"stateMutability":"view"},{"type":"function","name":"grantRole","inputs":[{"name":"role","type":"bytes32","internalType":"bytes32"},{"name":"account","type":"address","internalType":"address"}],"outputs":[],"stateMutability":"nonpayable"},{"type":"function","name":"hasRole","inputs":[{"name":"role","type":"bytes32","internalType":"bytes32"},{"name":"account","type":"address","internalType":"address"}],"outputs":[{"name":"","type":"bool","internalType":"bool"}],"stateMutability":"view"},{"type":"function","name":"lastCantonSyncEpoch","inputs":[],"outputs":[{"name":"","type":"uint256","internalType":"uint256"}],"stateMutability":"view"},{"type":"function","name":"lastCantonSyncTime","inputs":[],"outputs":[{"name":"","type":"uint256","internalType":"uint256"}],"stateMutability":"view"},{"type":"function","name":"lastDeposit","inputs":[{"name":"","type":"address","internalType":"address"}],"outputs":[{"name":"","type":"uint256","internalType":"uint256"}],"stateMutability":"view"},{"type":"function","name":"lastInterestReceiptTime","inputs":[],"outputs":[{"name":"","type":"uint256","internalType":"uint256"}],"stateMutability":"view"},{"type":"function","name":"lastKnownGlobalAssets","inputs":[],"outputs":[{"name":"","type":"uint256","internalType":"uint256"}],"stateMutability":"view"},{"type":"function","name":"maxDeposit","inputs":[{"name":"","type":"address","internalType":"address"}],"outputs":[{"name":"","type":"uint256","internalType":"uint256"}],"stateMutability":"view"},{"type":"function","name":"maxMint","inputs":[{"name":"","type":"address","internalType":"address"}],"outputs":[{"name":"","type":"uint256","internalType":"uint256"}],"stateMutability":"view"},{"type":"function","name":"maxRedeem","inputs":[{"name":"owner","type":"address","internalType":"address"}],"outputs":[{"name":"","type":"uint256","internalType":"uint256"}],"stateMutability":"view"},{"type":"function","name":"maxWithdraw","inputs":[{"name":"owner","type":"address","internalType":"address"}],"outputs":[{"name":"","type":"uint256","internalType":"uint256"}],"stateMutability":"view"},{"type":"function","name":"mint","inputs":[{"name":"shares","type":"uint256","internalType":"uint256"},{"name":"receiver","type":"address","internalType":"address"}],"outputs":[{"name":"","type":"uint256","internalType":"uint256"}],"stateMutability":"nonpayable"},{"type":"function","name":"name","inputs":[],"outputs":[{"name":"","type":"string","internalType":"string"}],"stateMutability":"view"},{"type":"function","name":"pause","inputs":[],"outputs":[],"stateMutability":"nonpayable"},{"type":"function","name":"paused","inputs":[],"outputs":[{"name":"","type":"bool","internalType":"bool"}],"stateMutability":"view"},{"type":"function","name":"pendingTreasury","inputs":[],"outputs":[{"name":"","type":"address","internalType":"address"}],"stateMutability":"view"},{"type":"function","name":"pendingTreasuryTime","inputs":[],"outputs":[{"name":"","type":"uint256","internalType":"uint256"}],"stateMutability":"view"},{"type":"function","name":"previewDeposit","inputs":[{"name":"assets","type":"uint256","internalType":"uint256"}],"outputs":[{"name":"","type":"uint256","internalType":"uint256"}],"stateMutability":"view"},{"type":"function","name":"previewMint","inputs":[{"name":"shares","type":"uint256","internalType":"uint256"}],"outputs":[{"name":"","type":"uint256","internalType":"uint256"}],"stateMutability":"view"},{"type":"function","name":"previewRedeem","inputs":[{"name":"shares","type":"uint256","internalType":"uint256"}],"outputs":[{"name":"","type":"uint256","internalType":"uint256"}],"stateMutability":"view"},{"type":"function","name":"previewWithdraw","inputs":[{"name":"assets","type":"uint256","internalType":"uint256"}],"outputs":[{"name":"","type":"uint256","internalType":"uint256"}],"stateMutability":"view"},{"type":"function","name":"receiveInterest","inputs":[{"name":"amount","type":"uint256","internalType":"uint256"}],"outputs":[],"stateMutability":"nonpayable"},{"type":"function","name":"redeem","inputs":[{"name":"shares","type":"uint256","internalType":"uint256"},{"name":"receiver","type":"address","internalType":"address"},{"name":"owner","type":"address","internalType":"address"}],"outputs":[{"name":"","type":"uint256","internalType":"uint256"}],"stateMutability":"nonpayable"},{"type":"function","name":"refreshGlobalAssets","inputs":[],"outputs":[],"stateMutability":"nonpayable"},{"type":"function","name":"renounceRole","inputs":[{"name":"role","type":"bytes32","internalType":"bytes32"},{"name":"callerConfirmation","type":"address","internalType":"address"}],"outputs":[],"stateMutability":"nonpayable"},{"type":"function","name":"requestSetTreasury","inputs":[{"name":"_treasury","type":"address","internalType":"address"}],"outputs":[],"stateMutability":"nonpayable"},{"type":"function","name":"revokeRole","inputs":[{"name":"role","type":"bytes32","internalType":"bytes32"},{"name":"account","type":"address","internalType":"address"}],"outputs":[],"stateMutability":"nonpayable"},{"type":"function","name":"setTreasury","inputs":[{"name":"_treasury","type":"address","internalType":"address"}],"outputs":[],"stateMutability":"nonpayable"},{"type":"function","name":"supportsInterface","inputs":[{"name":"interfaceId","type":"bytes4","internalType":"bytes4"}],"outputs":[{"name":"","type":"bool","internalType":"bool"}],"stateMutability":"view"},{"type":"function","name":"symbol","inputs":[],"outputs":[{"name":"","type":"string","internalType":"string"}],"stateMutability":"view"},{"type":"function","name":"syncCantonShares","inputs":[{"name":"_cantonShares","type":"uint256","internalType":"uint256"},{"name":"epoch","type":"uint256","internalType":"uint256"}],"outputs":[],"stateMutability":"nonpayable"},{"type":"function","name":"totalAssets","inputs":[],"outputs":[{"name":"","type":"uint256","internalType":"uint256"}],"stateMutability":"view"},{"type":"function","name":"totalInterestReceived","inputs":[],"outputs":[{"name":"","type":"uint256","internalType":"uint256"}],"stateMutability":"view"},{"type":"function","name":"totalSupply","inputs":[],"outputs":[{"name":"","type":"uint256","internalType":"uint256"}],"stateMutability":"view"},{"type":"function","name":"transfer","inputs":[{"name":"to","type":"address","internalType":"address"},{"name":"value","type":"uint256","internalType":"uint256"}],"outputs":[{"name":"","type":"bool","internalType":"bool"}],"stateMutability":"nonpayable"},{"type":"function","name":"transferFrom","inputs":[{"name":"from","type":"address","internalType":"address"},{"name":"to","type":"address","internalType":"address"},{"name":"value","type":"uint256","internalType":"uint256"}],"outputs":[{"name":"","type":"bool","internalType":"bool"}],"stateMutability":"nonpayable"},{"type":"function","name":"treasury","inputs":[],"outputs":[{"name":"","type":"address","internalType":"address"}],"stateMutability":"view"},{"type":"function","name":"unpause","inputs":[],"outputs":[],"stateMutability":"nonpayable"},{"type":"function","name":"withdraw","inputs":[{"name":"assets","type":"uint256","internalType":"uint256"},{"name":"receiver","type":"address","internalType":"address"},{"name":"owner","type":"address","internalType":"address"}],"outputs":[{"name":"","type":"uint256","internalType":"uint256"}],"stateMutability":"nonpayable"},{"type":"event","name":"Approval","inputs":[{"name":"owner","type":"address","indexed":true,"internalType":"address"},{"name":"spender","type":"address","indexed":true,"internalType":"address"},{"name":"value","type":"uint256","indexed":false,"internalType":"uint256"}],"anonymous":false},{"type":"event","name":"CantonSharesSynced","inputs":[{"name":"cantonShares","type":"uint256","indexed":false,"internalType":"uint256"},{"name":"epoch","type":"uint256","indexed":false,"internalType":"uint256"},{"name":"globalSharePrice","type":"uint256","indexed":false,"internalType":"uint256"}],"anonymous":false},{"type":"event","name":"CooldownUpdated","inputs":[{"name":"account","type":"address","indexed":true,"internalType":"address"},{"name":"timestamp","type":"uint256","indexed":false,"internalType":"uint256"}],"anonymous":false},{"type":"event","name":"Deposit","inputs":[{"name":"sender","type":"address","indexed":true,"internalType":"address"},{"name":"owner","type":"address","indexed":true,"internalType":"address"},{"name":"assets","type":"uint256","indexed":false,"internalType":"uint256"},{"name":"shares","type":"uint256","indexed":false,"internalType":"uint256"}],"anonymous":false},{"type":"event","name":"GlobalAssetsRefreshed","inputs":[{"name":"newGlobalAssets","type":"uint256","indexed":false,"internalType":"uint256"},{"name":"usdcValue","type":"uint256","indexed":false,"internalType":"uint256"}],"anonymous":false},{"type":"event","name":"InterestReceived","inputs":[{"name":"from","type":"address","indexed":true,"internalType":"address"},{"name":"amount","type":"uint256","indexed":false,"internalType":"uint256"},{"name":"totalReceived","type":"uint256","indexed":false,"internalType":"uint256"}],"anonymous":false},{"type":"event","name":"Paused","inputs":[{"name":"account","type":"address","indexed":false,"internalType":"address"}],"anonymous":false},{"type":"event","name":"RoleAdminChanged","inputs":[{"name":"role","type":"bytes32","indexed":true,"internalType":"bytes32"},{"name":"previousAdminRole","type":"bytes32","indexed":true,"internalType":"bytes32"},{"name":"newAdminRole","type":"bytes32","indexed":true,"internalType":"bytes32"}],"anonymous":false},{"type":"event","name":"RoleGranted","inputs":[{"name":"role","type":"bytes32","indexed":true,"internalType":"bytes32"},{"name":"account","type":"address","indexed":true,"internalType":"address"},{"name":"sender","type":"address","indexed":true,"internalType":"address"}],"anonymous":false},{"type":"event","name":"RoleRevoked","inputs":[{"name":"role","type":"bytes32","indexed":true,"internalType":"bytes32"},{"name":"account","type":"address","indexed":true,"internalType":"address"},{"name":"sender","type":"address","indexed":true,"internalType":"address"}],"anonymous":false},{"type":"event","name":"Transfer","inputs":[{"name":"from","type":"address","indexed":true,"internalType":"address"},{"name":"to","type":"address","indexed":true,"internalType":"address"},{"name":"value","type":"uint256","indexed":false,"internalType":"uint256"}],"anonymous":false},{"type":"event","name":"TreasuryChangeCancelled","inputs":[{"name":"cancelledTreasury","type":"address","indexed":true,"internalType":"address"}],"anonymous":false},{"type":"event","name":"TreasuryChangeRequested","inputs":[{"name":"newTreasury","type":"address","indexed":true,"internalType":"address"},{"name":"readyAt","type":"uint256","indexed":false,"internalType":"uint256"}],"anonymous":false},{"type":"event","name":"TreasuryUpdated","inputs":[{"name":"oldTreasury","type":"address","indexed":true,"internalType":"address"},{"name":"newTreasury","type":"address","indexed":true,"internalType":"address"}],"anonymous":false},{"type":"event","name":"Unpaused","inputs":[{"name":"account","type":"address","indexed":false,"internalType":"address"}],"anonymous":false},{"type":"event","name":"Withdraw","inputs":[{"name":"sender","type":"address","indexed":true,"internalType":"address"},{"name":"receiver","type":"address","indexed":true,"internalType":"address"},{"name":"owner","type":"address","indexed":true,"internalType":"address"},{"name":"assets","type":"uint256","indexed":false,"internalType":"uint256"},{"name":"shares","type":"uint256","indexed":false,"internalType":"uint256"}],"anonymous":false},{"type":"event","name":"YieldDistributed","inputs":[{"name":"from","type":"address","indexed":true,"internalType":"address"},{"name":"amount","type":"uint256","indexed":false,"internalType":"uint256"}],"anonymous":false},{"type":"error","name":"AccessControlBadConfirmation","inputs":[]},{"type":"error","name":"AccessControlUnauthorizedAccount","inputs":[{"name":"account","type":"address","internalType":"address"},{"name":"neededRole","type":"bytes32","internalType":"bytes32"}]},{"type":"error","name":"ERC20InsufficientAllowance","inputs":[{"name":"spender","type":"address","internalType":"address"},{"name":"allowance","type":"uint256","internalType":"uint256"},{"name":"needed","type":"uint256","internalType":"uint256"}]},{"type":"error","name":"ERC20InsufficientBalance","inputs":[{"name":"sender","type":"address","internalType":"address"},{"name":"balance","type":"uint256","internalType":"uint256"},{"name":"needed","type":"uint256","internalType":"uint256"}]},{"type":"error","name":"ERC20InvalidApprover","inputs":[{"name":"approver","type":"address","internalType":"address"}]},{"type":"error","name":"ERC20InvalidReceiver","inputs":[{"name":"receiver","type":"address","internalType":"address"}]},{"type":"error","name":"ERC20InvalidSender","inputs":[{"name":"sender","type":"address","internalType":"address"}]},{"type":"error","name":"ERC20InvalidSpender","inputs":[{"name":"spender","type":"address","internalType":"address"}]},{"type":"error","name":"ERC4626ExceededMaxDeposit","inputs":[{"name":"receiver","type":"address","internalType":"address"},{"name":"assets","type":"uint256","internalType":"uint256"},{"name":"max","type":"uint256","internalType":"uint256"}]},{"type":"error","name":"ERC4626ExceededMaxMint","inputs":[{"name":"receiver","type":"address","internalType":"address"},{"name":"shares","type":"uint256","internalType":"uint256"},{"name":"max","type":"uint256","internalType":"uint256"}]},{"type":"error","name":"ERC4626ExceededMaxRedeem","inputs":[{"name":"owner","type":"address","internalType":"address"},{"name":"shares","type":"uint256","internalType":"uint256"},{"name":"max","type":"uint256","internalType":"uint256"}]},{"type":"error","name":"ERC4626ExceededMaxWithdraw","inputs":[{"name":"owner","type":"address","internalType":"address"},{"name":"assets","type":"uint256","internalType":"uint256"},{"name":"max","type":"uint256","internalType":"uint256"}]},{"type":"error","name":"EnforcedPause","inputs":[]},{"type":"error","name":"ExpectedPause","inputs":[]},{"type":"error","name":"ReentrancyGuardReentrantCall","inputs":[]},{"type":"error","name":"SafeERC20FailedOperation","inputs":[{"name":"token","type":"address","internalType":"address"}]}],"bytecode":{"object":"0x60c060405234801561000f575f80fd5b506040516131d43803806131d483398101604081905261002e9161028b565b806040518060400160405280600b81526020016a14dd185ad959081b5554d160aa1b815250604051806040016040528060058152602001641cdb5554d160da1b81525081600390816100809190610350565b50600461008d8282610350565b5050505f806100a18361010860201b60201c565b91509150816100b15760126100b3565b805b60ff1660a05250506001600160a01b031660805260016006556100d65f336101de565b506101017f65d7a28e3265b37a6474929f336521b332c1681b933f6cb9f3376673440d862a336101de565b5050610437565b60408051600481526024810182526020810180516001600160e01b031663313ce56760e01b17905290515f918291829182916001600160a01b0387169161014e9161040a565b5f60405180830381855afa9150503d805f8114610186576040519150601f19603f3d011682016040523d82523d5f602084013e61018b565b606091505b509150915081801561019f57506020815110155b156101d2575f818060200190518101906101b99190610420565b905060ff81116101d0576001969095509350505050565b505b505f9485945092505050565b5f8281526005602090815260408083206001600160a01b038516845290915281205460ff16610282575f8381526005602090815260408083206001600160a01b03861684529091529020805460ff1916600117905561023a3390565b6001600160a01b0316826001600160a01b0316847f2f8788117e7eff1d82e926ec794901d17c78024a50270940304540a733656f0d60405160405180910390a4506001610285565b505f5b92915050565b5f6020828403121561029b575f80fd5b81516001600160a01b03811681146102b1575f80fd5b9392505050565b634e487b7160e01b5f52604160045260245ffd5b600181811c908216806102e057607f821691505b6020821081036102fe57634e487b7160e01b5f52602260045260245ffd5b50919050565b601f82111561034b57805f5260205f20601f840160051c810160208510156103295750805b601f840160051c820191505b81811015610348575f8155600101610335565b50505b505050565b81516001600160401b03811115610369576103696102b8565b61037d8161037784546102cc565b84610304565b6020601f8211600181146103af575f83156103985750848201515b5f19600385901b1c1916600184901b178455610348565b5f84815260208120601f198516915b828110156103de57878501518255602094850194600190920191016103be565b50848210156103fb57868401515f19600387901b60f8161c191681555b50505050600190811b01905550565b5f82518060208501845e5f920191825250919050565b5f60208284031215610430575f80fd5b5051919050565b60805160a051612d4b6104895f395f610b2001525f8181610587015281816108c001528181610cc4015281816119e701528181611ab101528181611bdf0152818161251d01526125cf0152612d4b5ff3fe608060405234801561000f575f80fd5b50600436106103f6575f3560e01c80637d4aebbf11610216578063c683602c1161012a578063e44dc7a3116100b4578063f0f4426011610084578063f0f442601461084a578063f38bb0731461085d578063f3e3064f14610884578063f7a54f891461088d578063fe9e964014610896575f80fd5b8063e44dc7a314610807578063e63ab1e914610810578063e6f3e00414610837578063ef8b30f71461075e575f80fd5b8063d547741f116100fa578063d547741f14610797578063d905777e146107aa578063da7f0065146107bd578063daef17c3146107c6578063dd62ed3e146107cf575f80fd5b8063c683602c14610756578063c6e6f5921461075e578063c8cc5cd814610771578063ce96cb7714610784575f80fd5b8063a217fddf116101ab578063b3d7f6b91161017b578063b3d7f6b9146106f6578063b460af9414610709578063b5bfddea1461071c578063ba08765214610743578063c63d75b6146105b3575f80fd5b8063a217fddf146106c0578063a9059cbb146106c7578063ad861b2a146106da578063b1b3f467146106ed575f80fd5b806391d14854116101e657806391d148541461068857806394bf804d1461069b578063950d91e9146106ae57806395d89b41146106b8575f80fd5b80637d4aebbf146106675780638456cb591461066f57806387f5769e146106775780638fb3a94a14610680575f80fd5b8063313ce5671161030d5780634cdad506116102a257806361d027b31161027257806361d027b31461060957806367799a431461061c578063691e4e46146106245780636e553f651461062c57806370a082311461063f575f80fd5b80634cdad506146104565780635840aa28146105e15780635be0a5bb146105f45780635c975abb146105fe575f80fd5b8063402d267d116102dd578063402d267d146105b357806344fd5ab6146105c657806346823f6a146105ce5780634b606951146104b4575f80fd5b8063313ce5671461055857806336568abe1461057257806338d52e0f146105855780633f4ba83a146105ab575f80fd5b806318160ddd1161038e57806323b872dd1161035e57806323b872dd146104c6578063248a9ca3146104d957806329d16ee8146104fb5780632ed6b75d1461051a5780632f2ff15d14610545575f80fd5b806318160ddd1461049957806319262d30146104a1578063205fc5d3146104b457806322006935146104bd575f80fd5b806307a2d13a116103c957806307a2d13a14610456578063095ea7b3146104695780630a28a4771461047c578063139298a31461048f575f80fd5b806301e1d114146103fa57806301ffc9a71461041557806303d330fa1461043857806306fdde0314610441575b5f80fd5b6104026108bd565b6040519081526020015b60405180910390f35b610428610423366004612911565b61094c565b604051901515815260200161040c565b6104026103e881565b610449610982565b60405161040c9190612938565b61040261046436600461296d565b610a12565b61042861047736600461299f565b610a1d565b61040261048a36600461296d565b610a34565b610497610a40565b005b600254610402565b6104286104af3660046129c7565b610a9a565b6104026101f481565b61040260115481565b6104286104d43660046129e0565b610ac9565b6104026104e736600461296d565b5f9081526005602052604090206001015490565b6104026105093660046129c7565b60086020525f908152604090205481565b60105461052d906001600160a01b031681565b6040516001600160a01b03909116815260200161040c565b610497610553366004612a1a565b610aee565b610560610b18565b60405160ff909116815260200161040c565b610497610580366004612a1a565b610b44565b7f000000000000000000000000000000000000000000000000000000000000000061052d565b610497610b7c565b6104026105c13660046129c7565b610b91565b610402610bb2565b6104976105dc36600461296d565b610bbc565b6104976105ef366004612a44565b610d57565b6104026202a30081565b60075460ff16610428565b600b5461052d906001600160a01b031681565b610402610ffe565b61040261104c565b61040261063a366004612a1a565b611149565b61040261064d3660046129c7565b6001600160a01b03165f9081526020819052604090205490565b61049761126d565b610497611372565b610402600d5481565b6104026113a4565b610428610696366004612a1a565b6113bb565b6104026106a9366004612a1a565b6113e5565b6104026201518081565b6104496114fd565b6104025f81565b6104286106d536600461299f565b61150c565b6104976106e83660046129c7565b611519565b610402600c5481565b61040261070436600461296d565b611623565b610402610717366004612a64565b61162f565b6104027f52ba824bfabc2bcfcdf7f0edbb486ebb05e1836c90e78047efeb949990f72e5f81565b610402610751366004612a64565b6116be565b610497611741565b61040261076c36600461296d565b6118d8565b61049761077f36600461296d565b6118e3565b6104026107923660046129c7565b611a3d565b6104976107a5366004612a1a565b611b51565b6104026107b83660046129c7565b611b75565b610402600a5481565b61040260095481565b6104026107dd366004612a9d565b6001600160a01b039182165f90815260016020908152604080832093909416825291909152205490565b610402600f5481565b6104027f65d7a28e3265b37a6474929f336521b332c1681b933f6cb9f3376673440d862a81565b6104026108453660046129c7565b611c8d565b6104976108583660046129c7565b611cd0565b6104027ff22f9b856fefc8d979ef1bf362d6312dd0309a47aad9c5feee517fa2e8d8902381565b610402600e5481565b610402610e1081565b6104027f470f4f1717679395b6a9e0700797bfeeaa970f1643e72f5684d687c0be10fe2781565b5f7f00000000000000000000000000000000000000000000000000000000000000006040516370a0823160e01b81523060048201526001600160a01b0391909116906370a0823190602401602060405180830381865afa158015610923573d5f803e3d5ffd5b505050506040513d601f19601f820116820180604052508101906109479190612ac5565b905090565b5f6001600160e01b03198216637965db0b60e01b148061097c57506301ffc9a760e01b6001600160e01b03198316145b92915050565b60606003805461099190612adc565b80601f01602080910402602001604051908101604052809291908181526020018280546109bd90612adc565b8015610a085780601f106109df57610100808354040283529160200191610a08565b820191905f5260205f20905b8154815290600101906020018083116109eb57829003601f168201915b5050505050905090565b5f61097c825f611dc2565b5f33610a2a818585611e03565b5060019392505050565b5f61097c826001611e10565b5f610a4a81611e48565b601080546001600160a01b031981169091555f60118190556040516001600160a01b039092169182917f126edc9f10a40adff641028274713504fd84689745c30ee6ce1a196cc5259bc191a25050565b6001600160a01b0381165f90815260086020526040812054610ac0906201518090612b28565b42101592915050565b5f33610ad6858285611e52565b610ae1858585611eb5565b60019150505b9392505050565b5f82815260056020526040902060010154610b0881611e48565b610b128383611f12565b50505050565b5f61094760037f0000000000000000000000000000000000000000000000000000000000000000612b3b565b6001600160a01b0381163314610b6d5760405163334bd91960e11b815260040160405180910390fd5b610b778282611fa3565b505050565b5f610b8681611e48565b610b8e61200e565b50565b5f610b9e60075460ff1690565b15610baa57505f919050565b505f19919050565b5f61094760025490565b7ff22f9b856fefc8d979ef1bf362d6312dd0309a47aad9c5feee517fa2e8d89023610be681611e48565b5f8211610c285760405162461bcd60e51b815260206004820152600b60248201526a16915493d7d05353d5539560aa1b60448201526064015b60405180910390fd5b5f610c316113a4565b11610c4e5760405162461bcd60e51b8152600401610c1f90612b54565b5f610c5761104c565b90505f612710610c696103e884612b7d565b610c739190612ba8565b905080841115610cbc5760405162461bcd60e51b81526020600482015260146024820152730494e5445524553545f455843454544535f4341560641b6044820152606401610c1f565b610cf53330867f00000000000000000000000000000000000000000000000000000000000000005b6001600160a01b0316929190612060565b600d5480850190811015610d0757505f195b600d81905542600e5560405133917fdfbb5ccbe498d34d6a5497c62226d673740ea3d4ca57b496dff91b36922c971291610d4991888252602082015260400190565b60405180910390a250505050565b7f52ba824bfabc2bcfcdf7f0edbb486ebb05e1836c90e78047efeb949990f72e5f610d8181611e48565b600a548211610dc95760405162461bcd60e51b8152602060048201526014602482015273115413d0d217d393d517d4d1545551539512505360621b6044820152606401610c1f565b610e10600c54610dd99190612b28565b421015610e1c5760405162461bcd60e51b815260206004820152601160248201527014d65390d7d513d3d7d194915455515395607a1b6044820152606401610c1f565b6009545f03610ead575f610e2f60025490565b90505f808211610e495769d3c21bcecceda1000000610e54565b610e54826002612b7d565b905080851115610ea65760405162461bcd60e51b815260206004820152601860248201527f494e495449414c5f5348415245535f544f4f5f4c4152474500000000000000006044820152606401610c1f565b5050610fa2565b5f612710610ebd6101f482612b28565b600954610eca9190612b7d565b610ed49190612ba8565b90505f612710610ee66101f482612bbb565b600954610ef39190612b7d565b610efd9190612ba8565b905081851115610f4f5760405162461bcd60e51b815260206004820152601860248201527f53484152455f494e4352454153455f544f4f5f4c4152474500000000000000006044820152606401610c1f565b80851015610f9f5760405162461bcd60e51b815260206004820152601860248201527f53484152455f44454352454153455f544f4f5f4c4152474500000000000000006044820152606401610c1f565b50505b6009839055600a82905542600c557f81fc726eb84a1225fa236b15eb2fcdbc39f58e3b81c548f9d27b955dd1954f7c8383610fdb610ffe565b6040805193845260208401929092529082015260600160405180910390a1505050565b5f806110086113a4565b9050805f036110235761101d6003600a612cb1565b91505090565b806110306003600a612cb1565b61103861104c565b6110429190612b7d565b61101d9190612ba8565b600b545f906001600160a01b0316611066576109476108bd565b600b5f9054906101000a90046001600160a01b03166001600160a01b031663d4c3eea06040518163ffffffff1660e01b8152600401602060405180830381865afa9250505080156110d4575060408051601f3d908101601f191682019092526110d191810190612ac5565b60015b6110ee57600f5480156110e657919050565b61101d6108bd565b5f6110fe8264e8d4a51000612b7d565b600f549091508015611142575f61271061111a6101f484612b7d565b6111249190612ba8565b61112e9083612b28565b90508083111561114057949350505050565b505b5092915050565b5f6111526120c7565b61115a6120f1565b600b546001600160a01b0316158015906111745750600f54155b801561118157505f600954115b1561120757600b54604080516306a61f7560e51b815290515f926001600160a01b03169163d4c3eea09160048083019260209291908290030181865afa1580156111cd573d5f803e3d5ffd5b505050506040513d601f19601f820116820180604052508101906111f19190612ac5565b90506112028164e8d4a51000612b7d565b600f55505b6001600160a01b0382165f81815260086020908152604091829020429081905591519182527f7631df1cb61560709ebf9092a96d321b993513e844760f08c3f827be3b349d14910160405180910390a26112618383612117565b905061097c6001600655565b5f61127781611e48565b6010546001600160a01b03166112bc5760405162461bcd60e51b815260206004820152600a6024820152694e4f5f50454e44494e4760b01b6044820152606401610c1f565b6202a3006011546112cd9190612b28565b42101561130e5760405162461bcd60e51b815260206004820152600f60248201526e54494d454c4f434b5f41435449564560881b6044820152606401610c1f565b600b8054601080546001600160a01b03198084166001600160a01b0383811691821790965591169091555f60118190556040519390921692909183917f4ab5be82436d353e61ca18726e984e561f5c1cc7c6d38b29d2553c790434705a9190a35050565b7f65d7a28e3265b37a6474929f336521b332c1681b933f6cb9f3376673440d862a61139c81611e48565b610b8e612163565b5f6009546113b160025490565b6109479190612b28565b5f9182526005602090815260408084206001600160a01b0393909316845291905290205460ff1690565b5f6113ee6120c7565b6113f66120f1565b600b546001600160a01b0316158015906114105750600f54155b801561141d57505f600954115b156114a357600b54604080516306a61f7560e51b815290515f926001600160a01b03169163d4c3eea09160048083019260209291908290030181865afa158015611469573d5f803e3d5ffd5b505050506040513d601f19601f8201168201806040525081019061148d9190612ac5565b905061149e8164e8d4a51000612b7d565b600f55505b6001600160a01b0382165f81815260086020908152604091829020429081905591519182527f7631df1cb61560709ebf9092a96d321b993513e844760f08c3f827be3b349d14910160405180910390a261126183836121a0565b60606004805461099190612adc565b5f33610a2a818585611eb5565b5f61152381611e48565b6001600160a01b0382166115685760405162461bcd60e51b815260206004820152600c60248201526b5a45524f5f4144445245535360a01b6044820152606401610c1f565b6010546001600160a01b0316156115ba5760405162461bcd60e51b81526020600482015260166024820152754348414e47455f414c52454144595f50454e44494e4760501b6044820152606401610c1f565b601080546001600160a01b0319166001600160a01b0384169081179091554260118190557fee4f1f366bdf31af4584ff42488e6c5921267177c34234bcd695c8b00442368f9061160e906202a30090612b28565b60405190815260200160405180910390a25050565b5f61097c826001611dc2565b5f6116386120c7565b6116406120f1565b6001600160a01b0382165f90815260086020526040902054611666906201518090612b28565b4210156116a75760405162461bcd60e51b815260206004820152600f60248201526e434f4f4c444f574e5f41435449564560881b6044820152606401610c1f565b6116b28484846121ec565b9050610ae76001600655565b5f6116c76120c7565b6116cf6120f1565b6001600160a01b0382165f908152600860205260409020546116f5906201518090612b28565b4210156117365760405162461bcd60e51b815260206004820152600f60248201526e434f4f4c444f574e5f41435449564560881b6044820152606401610c1f565b6116b2848484612239565b7f470f4f1717679395b6a9e0700797bfeeaa970f1643e72f5684d687c0be10fe2761176b81611e48565b600b546001600160a01b03166117b15760405162461bcd60e51b815260206004820152600b60248201526a4e4f5f545245415355525960a81b6044820152606401610c1f565b5f6117ba6113a4565b116117d75760405162461bcd60e51b8152600401610c1f90612b54565b600b54604080516306a61f7560e51b815290515f926001600160a01b03169163d4c3eea09160048083019260209291908290030181865afa15801561181e573d5f803e3d5ffd5b505050506040513d601f19601f820116820180604052508101906118429190612ac5565b90505f6118548264e8d4a51000612b7d565b600f549091508015611894575f6127106118706101f484612b7d565b61187a9190612ba8565b6118849083612b28565b905080831115611892578092505b505b600f82905560408051838152602081018590527f7966b2d8c057d8459ba60321634fb3be7411c62374efe7fadcc0e94869a0d88f910160405180910390a150505050565b5f61097c825f611e10565b7f470f4f1717679395b6a9e0700797bfeeaa970f1643e72f5684d687c0be10fe2761190d81611e48565b5f61191760025490565b116119345760405162461bcd60e51b8152600401610c1f90612b54565b5f82116119745760405162461bcd60e51b815260206004820152600e60248201526d1253959053125117d05353d5539560921b6044820152606401610c1f565b5f61197d61104c565b90505f61271061198f6103e884612b7d565b6119999190612ba8565b9050808411156119df5760405162461bcd60e51b815260206004820152601160248201527005949454c445f455843454544535f43415607c1b6044820152606401610c1f565b611a0b3330867f0000000000000000000000000000000000000000000000000000000000000000610ce4565b60405184815233907f9d315883dbfe38532083c1e42c0d10fbf89ad1cabaa0c269f78b3beb892c101d90602001610d49565b5f611a4a60075460ff1690565b15611a5657505f919050565b6001600160a01b0382165f90815260086020526040902054611a7c906201518090612b28565b421015611a8a57505f919050565b6001600160a01b0382165f90815260208190526040812054611aac905f611dc2565b90505f7f00000000000000000000000000000000000000000000000000000000000000006040516370a0823160e01b81523060048201526001600160a01b0391909116906370a0823190602401602060405180830381865afa158015611b14573d5f803e3d5ffd5b505050506040513d601f19601f82011682018060405250810190611b389190612ac5565b9050808210611b475780611b49565b815b949350505050565b5f82815260056020526040902060010154611b6b81611e48565b610b128383611fa3565b5f611b8260075460ff1690565b15611b8e57505f919050565b6001600160a01b0382165f90815260086020526040902054611bb4906201518090612b28565b421015611bc257505f919050565b6001600160a01b0382165f9081526020819052604081205490505f7f00000000000000000000000000000000000000000000000000000000000000006040516370a0823160e01b81523060048201526001600160a01b0391909116906370a0823190602401602060405180830381865afa158015611c42573d5f803e3d5ffd5b505050506040513d601f19601f82011682018060405250810190611c669190612ac5565b90505f611c73825f611e10565b9050808310611c825780611c84565b825b95945050505050565b6001600160a01b0381165f908152600860205260408120548190611cb5906201518090612b28565b9050804210611cc657505f92915050565b610ae74282612bbb565b5f611cda81611e48565b6001600160a01b038216611d1f5760405162461bcd60e51b815260206004820152600c60248201526b5a45524f5f4144445245535360a01b6044820152606401610c1f565b600b546001600160a01b031615611d705760405162461bcd60e51b81526020600482015260156024820152742aa9a2afaa24a6a2a627a1a5a2a22fa9a2aa2a22a960591b6044820152606401610c1f565b600b80546001600160a01b038481166001600160a01b0319831681179093556040519116919082907f4ab5be82436d353e61ca18726e984e561f5c1cc7c6d38b29d2553c790434705a905f90a3505050565b5f80611dcc6113a4565b9050611b49611dd961104c565b611de4906001612b28565b611df06003600a612cb1565b611dfa9084612b28565b86919086612286565b610b7783838360016122c8565b5f80611e1a6113a4565b9050611b49611e2b6003600a612cb1565b611e359083612b28565b611e3d61104c565b611dfa906001612b28565b610b8e813361239a565b6001600160a01b038381165f908152600160209081526040808320938616835292905220545f19811015610b125781811015611ea757828183604051637dc7a0d960e11b8152600401610c1f93929190612cbf565b610b1284848484035f6122c8565b6001600160a01b038316611ede57604051634b637e8f60e11b81525f6004820152602401610c1f565b6001600160a01b038216611f075760405163ec442f0560e01b81525f6004820152602401610c1f565b610b778383836123d7565b5f611f1d83836113bb565b611f9c575f8381526005602090815260408083206001600160a01b03861684529091529020805460ff19166001179055611f543390565b6001600160a01b0316826001600160a01b0316847f2f8788117e7eff1d82e926ec794901d17c78024a50270940304540a733656f0d60405160405180910390a450600161097c565b505f61097c565b5f611fae83836113bb565b15611f9c575f8381526005602090815260408083206001600160a01b0386168085529252808320805460ff1916905551339286917ff6391f5c32d9c69d2a47ea670b442974b53935d1edc7fd64eb21e047a839171b9190a450600161097c565b612016612489565b6007805460ff191690557f5db9ee0a495bf2e6ff9c91a7834c1ba4fdd244a5e8aa4e537bd38aeae4b073aa335b6040516001600160a01b03909116815260200160405180910390a1565b6040516001600160a01b038481166024830152838116604483015260648201839052610b129186918216906323b872dd906084015b604051602081830303815290604052915060e01b6020820180516001600160e01b0383818316178352505050506124ac565b6002600654036120ea57604051633ee5aeb560e01b815260040160405180910390fd5b6002600655565b60075460ff16156121155760405163d93c066560e01b815260040160405180910390fd5b565b5f8061212283610b91565b90508084111561214b57828482604051633c8097d960e11b8152600401610c1f93929190612cbf565b5f612155856118d8565b9050611b4933858784612518565b61216b6120f1565b6007805460ff191660011790557f62e78cea01bee320cd4e420270b5ea74000d11b0c9f74754ebdbfc544b05a2586120433390565b5f806121ab83610b91565b9050808411156121d45782848260405163284ff66760e01b8152600401610c1f93929190612cbf565b5f6121de85611623565b9050611b4933858388612518565b5f806121f783611a3d565b90508085111561222057828582604051633fa733bb60e21b8152600401610c1f93929190612cbf565b5f61222a86610a34565b9050611c84338686898561259c565b5f8061224483611b75565b90508085111561226d57828582604051632e52afbb60e21b8152600401610c1f93929190612cbf565b5f61227786610a12565b9050611c84338686848a61259c565b5f6122b36122938361265c565b80156122ae57505f84806122a9576122a9612b94565b868809115b151590565b6122be868686612688565b611c849190612b28565b6001600160a01b0384166122f15760405163e602df0560e01b81525f6004820152602401610c1f565b6001600160a01b03831661231a57604051634a1406b160e11b81525f6004820152602401610c1f565b6001600160a01b038085165f9081526001602090815260408083209387168352929052208290558015610b1257826001600160a01b0316846001600160a01b03167f8c5be1e5ebec7d5bd14f71427d1e84f3dd0314c0f7b2291e5b200ac8c7c3b9258460405161238c91815260200190565b60405180910390a350505050565b6123a482826113bb565b6123d35760405163e2517d3f60e01b81526001600160a01b038216600482015260248101839052604401610c1f565b5050565b6001600160a01b038316158015906123f757506001600160a01b03821615155b1561247e576001600160a01b038084165f908152600860205260408082205492851682529020548082111561247b576001600160a01b0384165f8181526008602052604090819020849055517f7631df1cb61560709ebf9092a96d321b993513e844760f08c3f827be3b349d14906124729085815260200190565b60405180910390a25b50505b610b77838383612738565b60075460ff1661211557604051638dfc202b60e01b815260040160405180910390fd5b5f8060205f8451602086015f885af1806124cb576040513d5f823e3d81fd5b50505f513d915081156124e25780600114156124ef565b6001600160a01b0384163b155b15610b1257604051635274afe760e01b81526001600160a01b0385166004820152602401610c1f565b6125447f0000000000000000000000000000000000000000000000000000000000000000853085612060565b61254e838261284b565b826001600160a01b0316846001600160a01b03167fdcbc1c05240f31ff3ad067ef1ee35ce4997762752e3a095284754544f4c709d7848460405161238c929190918252602082015260400190565b826001600160a01b0316856001600160a01b0316146125c0576125c0838683611e52565b6125ca838261287f565b6125f57f000000000000000000000000000000000000000000000000000000000000000085846128b3565b826001600160a01b0316846001600160a01b0316866001600160a01b03167ffbde797d201c681b91056529119e0b02407c7bb96a4a2c75c01fc9667232c8db858560405161264d929190918252602082015260400190565b60405180910390a45050505050565b5f600282600381111561267157612671612ce0565b61267b9190612cf4565b60ff166001149050919050565b5f805f61269586866128e4565b91509150815f036126b9578381816126af576126af612b94565b0492505050610ae7565b8184116126d0576126d06003851502601118612900565b5f848688095f868103871696879004966002600389028118808a02820302808a02820302808a02820302808a02820302808a02820302808a02909103029181900381900460010185841190960395909502919093039390930492909217029150509392505050565b6001600160a01b038316612762578060025f8282546127579190612b28565b909155506127bf9050565b6001600160a01b0383165f90815260208190526040902054818110156127a15783818360405163391434e360e21b8152600401610c1f93929190612cbf565b6001600160a01b0384165f9081526020819052604090209082900390555b6001600160a01b0382166127db576002805482900390556127f9565b6001600160a01b0382165f9081526020819052604090208054820190555b816001600160a01b0316836001600160a01b03167fddf252ad1be2c89b69c2b068fc378daa952ba7f163c4a11628f55a4df523b3ef8360405161283e91815260200190565b60405180910390a3505050565b6001600160a01b0382166128745760405163ec442f0560e01b81525f6004820152602401610c1f565b6123d35f83836123d7565b6001600160a01b0382166128a857604051634b637e8f60e11b81525f6004820152602401610c1f565b6123d3825f836123d7565b6040516001600160a01b03838116602483015260448201839052610b7791859182169063a9059cbb90606401612095565b5f805f1983850993909202808410938190039390930393915050565b634e487b715f52806020526024601cfd5b5f60208284031215612921575f80fd5b81356001600160e01b031981168114610ae7575f80fd5b602081525f82518060208401528060208501604085015e5f604082850101526040601f19601f83011684010191505092915050565b5f6020828403121561297d575f80fd5b5035919050565b80356001600160a01b038116811461299a575f80fd5b919050565b5f80604083850312156129b0575f80fd5b6129b983612984565b946020939093013593505050565b5f602082840312156129d7575f80fd5b610ae782612984565b5f805f606084860312156129f2575f80fd5b6129fb84612984565b9250612a0960208501612984565b929592945050506040919091013590565b5f8060408385031215612a2b575f80fd5b82359150612a3b60208401612984565b90509250929050565b5f8060408385031215612a55575f80fd5b50508035926020909101359150565b5f805f60608486031215612a76575f80fd5b83359250612a8660208501612984565b9150612a9460408501612984565b90509250925092565b5f8060408385031215612aae575f80fd5b612ab783612984565b9150612a3b60208401612984565b5f60208284031215612ad5575f80fd5b5051919050565b600181811c90821680612af057607f821691505b602082108103612b0e57634e487b7160e01b5f52602260045260245ffd5b50919050565b634e487b7160e01b5f52601160045260245ffd5b8082018082111561097c5761097c612b14565b60ff818116838216019081111561097c5761097c612b14565b6020808252600f908201526e1393d7d4d210549154d7d1561254d5608a1b604082015260600190565b808202811582820484141761097c5761097c612b14565b634e487b7160e01b5f52601260045260245ffd5b5f82612bb657612bb6612b94565b500490565b8181038181111561097c5761097c612b14565b6001815b6001841115612c0957808504811115612bed57612bed612b14565b6001841615612bfb57908102905b60019390931c928002612bd2565b935093915050565b5f82612c1f5750600161097c565b81612c2b57505f61097c565b8160018114612c415760028114612c4b57612c67565b600191505061097c565b60ff841115612c5c57612c5c612b14565b50506001821b61097c565b5060208310610133831016604e8410600b8410161715612c8a575081810a61097c565b612c965f198484612bce565b805f1904821115612ca957612ca9612b14565b029392505050565b5f610ae760ff841683612c11565b6001600160a01b039390931683526020830191909152604082015260600190565b634e487b7160e01b5f52602160045260245ffd5b5f60ff831680612d0657612d06612b94565b8060ff8416069150509291505056fea264697066735822122000e9352e3e4162f84ad5bf90a2223ae1f808f97bd8ebc9bfca4b030cc05fa6a464736f6c634300081a0033","linkReferences":{}},"methodIdentifiers":{"BRIDGE_ROLE()":"b5bfddea","DEFAULT_ADMIN_ROLE()":"a217fddf","INTEREST_ROUTER_ROLE()":"f38bb073","MAX_GLOBAL_ASSETS_GROWTH_BPS()":"4b606951","MAX_SHARE_CHANGE_BPS()":"205fc5d3","MAX_YIELD_BPS()":"03d330fa","MIN_SYNC_INTERVAL()":"f7a54f89","PAUSER_ROLE()":"e63ab1e9","TREASURY_CHANGE_DELAY()":"5be0a5bb","WITHDRAW_COOLDOWN()":"950d91e9","YIELD_MANAGER_ROLE()":"fe9e9640","allowance(address,address)":"dd62ed3e","approve(address,uint256)":"095ea7b3","asset()":"38d52e0f","balanceOf(address)":"70a08231","canWithdraw(address)":"19262d30","cancelSetTreasury()":"139298a3","cantonTotalShares()":"daef17c3","convertToAssets(uint256)":"07a2d13a","convertToShares(uint256)":"c6e6f592","decimals()":"313ce567","deposit(uint256,address)":"6e553f65","distributeYield(uint256)":"c8cc5cd8","ethereumTotalShares()":"44fd5ab6","executeSetTreasury()":"7d4aebbf","getRemainingCooldown(address)":"e6f3e004","getRoleAdmin(bytes32)":"248a9ca3","globalSharePrice()":"67799a43","globalTotalAssets()":"691e4e46","globalTotalShares()":"8fb3a94a","grantRole(bytes32,address)":"2f2ff15d","hasRole(bytes32,address)":"91d14854","lastCantonSyncEpoch()":"da7f0065","lastCantonSyncTime()":"b1b3f467","lastDeposit(address)":"29d16ee8","lastInterestReceiptTime()":"f3e3064f","lastKnownGlobalAssets()":"e44dc7a3","maxDeposit(address)":"402d267d","maxMint(address)":"c63d75b6","maxRedeem(address)":"d905777e","maxWithdraw(address)":"ce96cb77","mint(uint256,address)":"94bf804d","name()":"06fdde03","pause()":"8456cb59","paused()":"5c975abb","pendingTreasury()":"2ed6b75d","pendingTreasuryTime()":"22006935","previewDeposit(uint256)":"ef8b30f7","previewMint(uint256)":"b3d7f6b9","previewRedeem(uint256)":"4cdad506","previewWithdraw(uint256)":"0a28a477","receiveInterest(uint256)":"46823f6a","redeem(uint256,address,address)":"ba087652","refreshGlobalAssets()":"c683602c","renounceRole(bytes32,address)":"36568abe","requestSetTreasury(address)":"ad861b2a","revokeRole(bytes32,address)":"d547741f","setTreasury(address)":"f0f44260","supportsInterface(bytes4)":"01ffc9a7","symbol()":"95d89b41","syncCantonShares(uint256,uint256)":"5840aa28","totalAssets()":"01e1d114","totalInterestReceived()":"87f5769e","totalSupply()":"18160ddd","transfer(address,uint256)":"a9059cbb","transferFrom(address,address,uint256)":"23b872dd","treasury()":"61d027b3","unpause()":"3f4ba83a","withdraw(uint256,address,address)":"b460af94"},"id":12}