{"abi":[{"type":"constructor","inputs":[],"stateMutability":"nonpayable"},{"type":"function","name":"BRIDGE_ROLE","inputs":[],"outputs":[{"name":"","type":"bytes32","internalType":"bytes32"}],"stateMutability":"view"},{"type":"function","name":"DEFAULT_ADMIN_ROLE","inputs":[],"outputs":[{"name":"","type":"bytes32","internalType":"bytes32"}],"stateMutability":"view"},{"type":"function","name":"INTEREST_ROUTER_ROLE","inputs":[],"outputs":[{"name":"","type":"bytes32","internalType":"bytes32"}],"stateMutability":"view"},{"type":"function","name":"MAX_GLOBAL_ASSETS_GROWTH_BPS","inputs":[],"outputs":[{"name":"","type":"uint256","internalType":"uint256"}],"stateMutability":"view"},{"type":"function","name":"MAX_SHARE_CHANGE_BPS","inputs":[],"outputs":[{"name":"","type":"uint256","internalType":"uint256"}],"stateMutability":"view"},{"type":"function","name":"MAX_YIELD_BPS","inputs":[],"outputs":[{"name":"","type":"uint256","internalType":"uint256"}],"stateMutability":"view"},{"type":"function","name":"MIN_REFRESH_INTERVAL","inputs":[],"outputs":[{"name":"","type":"uint256","internalType":"uint256"}],"stateMutability":"view"},{"type":"function","name":"MIN_SYNC_INTERVAL","inputs":[],"outputs":[{"name":"","type":"uint256","internalType":"uint256"}],"stateMutability":"view"},{"type":"function","name":"PAUSER_ROLE","inputs":[],"outputs":[{"name":"","type":"bytes32","internalType":"bytes32"}],"stateMutability":"view"},{"type":"function","name":"TIMELOCK_ROLE","inputs":[],"outputs":[{"name":"","type":"bytes32","internalType":"bytes32"}],"stateMutability":"view"},{"type":"function","name":"UPGRADE_INTERFACE_VERSION","inputs":[],"outputs":[{"name":"","type":"string","internalType":"string"}],"stateMutability":"view"},{"type":"function","name":"WITHDRAW_COOLDOWN","inputs":[],"outputs":[{"name":"","type":"uint256","internalType":"uint256"}],"stateMutability":"view"},{"type":"function","name":"YIELD_MANAGER_ROLE","inputs":[],"outputs":[{"name":"","type":"bytes32","internalType":"bytes32"}],"stateMutability":"view"},{"type":"function","name":"allowance","inputs":[{"name":"owner","type":"address","internalType":"address"},{"name":"spender","type":"address","internalType":"address"}],"outputs":[{"name":"","type":"uint256","internalType":"uint256"}],"stateMutability":"view"},{"type":"function","name":"approve","inputs":[{"name":"spender","type":"address","internalType":"address"},{"name":"value","type":"uint256","internalType":"uint256"}],"outputs":[{"name":"","type":"bool","internalType":"bool"}],"stateMutability":"nonpayable"},{"type":"function","name":"asset","inputs":[],"outputs":[{"name":"","type":"address","internalType":"address"}],"stateMutability":"view"},{"type":"function","name":"balanceOf","inputs":[{"name":"account","type":"address","internalType":"address"}],"outputs":[{"name":"","type":"uint256","internalType":"uint256"}],"stateMutability":"view"},{"type":"function","name":"canWithdraw","inputs":[{"name":"account","type":"address","internalType":"address"}],"outputs":[{"name":"","type":"bool","internalType":"bool"}],"stateMutability":"view"},{"type":"function","name":"cantonTotalShares","inputs":[],"outputs":[{"name":"","type":"uint256","internalType":"uint256"}],"stateMutability":"view"},{"type":"function","name":"convertToAssets","inputs":[{"name":"shares","type":"uint256","internalType":"uint256"}],"outputs":[{"name":"","type":"uint256","internalType":"uint256"}],"stateMutability":"view"},{"type":"function","name":"convertToShares","inputs":[{"name":"assets","type":"uint256","internalType":"uint256"}],"outputs":[{"name":"","type":"uint256","internalType":"uint256"}],"stateMutability":"view"},{"type":"function","name":"decimals","inputs":[],"outputs":[{"name":"","type":"uint8","internalType":"uint8"}],"stateMutability":"view"},{"type":"function","name":"deposit","inputs":[{"name":"assets","type":"uint256","internalType":"uint256"},{"name":"receiver","type":"address","internalType":"address"}],"outputs":[{"name":"","type":"uint256","internalType":"uint256"}],"stateMutability":"nonpayable"},{"type":"function","name":"distributeYield","inputs":[{"name":"amount","type":"uint256","internalType":"uint256"}],"outputs":[],"stateMutability":"nonpayable"},{"type":"function","name":"ethereumTotalShares","inputs":[],"outputs":[{"name":"","type":"uint256","internalType":"uint256"}],"stateMutability":"view"},{"type":"function","name":"getRemainingCooldown","inputs":[{"name":"account","type":"address","internalType":"address"}],"outputs":[{"name":"","type":"uint256","internalType":"uint256"}],"stateMutability":"view"},{"type":"function","name":"getRoleAdmin","inputs":[{"name":"role","type":"bytes32","internalType":"bytes32"}],"outputs":[{"name":"","type":"bytes32","internalType":"bytes32"}],"stateMutability":"view"},{"type":"function","name":"globalSharePrice","inputs":[],"outputs":[{"name":"","type":"uint256","internalType":"uint256"}],"stateMutability":"view"},{"type":"function","name":"globalTotalAssets","inputs":[],"outputs":[{"name":"","type":"uint256","internalType":"uint256"}],"stateMutability":"view"},{"type":"function","name":"globalTotalShares","inputs":[],"outputs":[{"name":"","type":"uint256","internalType":"uint256"}],"stateMutability":"view"},{"type":"function","name":"grantRole","inputs":[{"name":"role","type":"bytes32","internalType":"bytes32"},{"name":"account","type":"address","internalType":"address"}],"outputs":[],"stateMutability":"nonpayable"},{"type":"function","name":"hasRole","inputs":[{"name":"role","type":"bytes32","internalType":"bytes32"},{"name":"account","type":"address","internalType":"address"}],"outputs":[{"name":"","type":"bool","internalType":"bool"}],"stateMutability":"view"},{"type":"function","name":"initialize","inputs":[{"name":"_asset","type":"address","internalType":"contract IERC20"},{"name":"_treasury","type":"address","internalType":"address"},{"name":"_admin","type":"address","internalType":"address"},{"name":"_timelockController","type":"address","internalType":"address"}],"outputs":[],"stateMutability":"nonpayable"},{"type":"function","name":"lastCantonSyncEpoch","inputs":[],"outputs":[{"name":"","type":"uint256","internalType":"uint256"}],"stateMutability":"view"},{"type":"function","name":"lastCantonSyncTime","inputs":[],"outputs":[{"name":"","type":"uint256","internalType":"uint256"}],"stateMutability":"view"},{"type":"function","name":"lastDeposit","inputs":[{"name":"","type":"address","internalType":"address"}],"outputs":[{"name":"","type":"uint256","internalType":"uint256"}],"stateMutability":"view"},{"type":"function","name":"lastInterestReceiptTime","inputs":[],"outputs":[{"name":"","type":"uint256","internalType":"uint256"}],"stateMutability":"view"},{"type":"function","name":"lastKnownGlobalAssets","inputs":[],"outputs":[{"name":"","type":"uint256","internalType":"uint256"}],"stateMutability":"view"},{"type":"function","name":"lastRefreshTime","inputs":[],"outputs":[{"name":"","type":"uint256","internalType":"uint256"}],"stateMutability":"view"},{"type":"function","name":"maxDeposit","inputs":[{"name":"","type":"address","internalType":"address"}],"outputs":[{"name":"","type":"uint256","internalType":"uint256"}],"stateMutability":"view"},{"type":"function","name":"maxMint","inputs":[{"name":"","type":"address","internalType":"address"}],"outputs":[{"name":"","type":"uint256","internalType":"uint256"}],"stateMutability":"view"},{"type":"function","name":"maxRedeem","inputs":[{"name":"owner","type":"address","internalType":"address"}],"outputs":[{"name":"","type":"uint256","internalType":"uint256"}],"stateMutability":"view"},{"type":"function","name":"maxWithdraw","inputs":[{"name":"owner","type":"address","internalType":"address"}],"outputs":[{"name":"","type":"uint256","internalType":"uint256"}],"stateMutability":"view"},{"type":"function","name":"mint","inputs":[{"name":"shares","type":"uint256","internalType":"uint256"},{"name":"receiver","type":"address","internalType":"address"}],"outputs":[{"name":"","type":"uint256","internalType":"uint256"}],"stateMutability":"nonpayable"},{"type":"function","name":"name","inputs":[],"outputs":[{"name":"","type":"string","internalType":"string"}],"stateMutability":"view"},{"type":"function","name":"pause","inputs":[],"outputs":[],"stateMutability":"nonpayable"},{"type":"function","name":"paused","inputs":[],"outputs":[{"name":"","type":"bool","internalType":"bool"}],"stateMutability":"view"},{"type":"function","name":"previewDeposit","inputs":[{"name":"assets","type":"uint256","internalType":"uint256"}],"outputs":[{"name":"","type":"uint256","internalType":"uint256"}],"stateMutability":"view"},{"type":"function","name":"previewMint","inputs":[{"name":"shares","type":"uint256","internalType":"uint256"}],"outputs":[{"name":"","type":"uint256","internalType":"uint256"}],"stateMutability":"view"},{"type":"function","name":"previewRedeem","inputs":[{"name":"shares","type":"uint256","internalType":"uint256"}],"outputs":[{"name":"","type":"uint256","internalType":"uint256"}],"stateMutability":"view"},{"type":"function","name":"previewWithdraw","inputs":[{"name":"assets","type":"uint256","internalType":"uint256"}],"outputs":[{"name":"","type":"uint256","internalType":"uint256"}],"stateMutability":"view"},{"type":"function","name":"proxiableUUID","inputs":[],"outputs":[{"name":"","type":"bytes32","internalType":"bytes32"}],"stateMutability":"view"},{"type":"function","name":"receiveInterest","inputs":[{"name":"amount","type":"uint256","internalType":"uint256"}],"outputs":[],"stateMutability":"nonpayable"},{"type":"function","name":"redeem","inputs":[{"name":"shares","type":"uint256","internalType":"uint256"},{"name":"receiver","type":"address","internalType":"address"},{"name":"owner","type":"address","internalType":"address"}],"outputs":[{"name":"","type":"uint256","internalType":"uint256"}],"stateMutability":"nonpayable"},{"type":"function","name":"refreshGlobalAssets","inputs":[],"outputs":[],"stateMutability":"nonpayable"},{"type":"function","name":"renounceRole","inputs":[{"name":"role","type":"bytes32","internalType":"bytes32"},{"name":"callerConfirmation","type":"address","internalType":"address"}],"outputs":[],"stateMutability":"nonpayable"},{"type":"function","name":"revokeRole","inputs":[{"name":"role","type":"bytes32","internalType":"bytes32"},{"name":"account","type":"address","internalType":"address"}],"outputs":[],"stateMutability":"nonpayable"},{"type":"function","name":"setTreasury","inputs":[{"name":"_treasury","type":"address","internalType":"address"}],"outputs":[],"stateMutability":"nonpayable"},{"type":"function","name":"supportsInterface","inputs":[{"name":"interfaceId","type":"bytes4","internalType":"bytes4"}],"outputs":[{"name":"","type":"bool","internalType":"bool"}],"stateMutability":"view"},{"type":"function","name":"symbol","inputs":[],"outputs":[{"name":"","type":"string","internalType":"string"}],"stateMutability":"view"},{"type":"function","name":"syncCantonShares","inputs":[{"name":"_cantonShares","type":"uint256","internalType":"uint256"},{"name":"epoch","type":"uint256","internalType":"uint256"}],"outputs":[],"stateMutability":"nonpayable"},{"type":"function","name":"totalAssets","inputs":[],"outputs":[{"name":"","type":"uint256","internalType":"uint256"}],"stateMutability":"view"},{"type":"function","name":"totalInterestReceived","inputs":[],"outputs":[{"name":"","type":"uint256","internalType":"uint256"}],"stateMutability":"view"},{"type":"function","name":"totalSupply","inputs":[],"outputs":[{"name":"","type":"uint256","internalType":"uint256"}],"stateMutability":"view"},{"type":"function","name":"transfer","inputs":[{"name":"to","type":"address","internalType":"address"},{"name":"value","type":"uint256","internalType":"uint256"}],"outputs":[{"name":"","type":"bool","internalType":"bool"}],"stateMutability":"nonpayable"},{"type":"function","name":"transferFrom","inputs":[{"name":"from","type":"address","internalType":"address"},{"name":"to","type":"address","internalType":"address"},{"name":"value","type":"uint256","internalType":"uint256"}],"outputs":[{"name":"","type":"bool","internalType":"bool"}],"stateMutability":"nonpayable"},{"type":"function","name":"treasury","inputs":[],"outputs":[{"name":"","type":"address","internalType":"address"}],"stateMutability":"view"},{"type":"function","name":"unpause","inputs":[],"outputs":[],"stateMutability":"nonpayable"},{"type":"function","name":"upgradeToAndCall","inputs":[{"name":"newImplementation","type":"address","internalType":"address"},{"name":"data","type":"bytes","internalType":"bytes"}],"outputs":[],"stateMutability":"payable"},{"type":"function","name":"withdraw","inputs":[{"name":"assets","type":"uint256","internalType":"uint256"},{"name":"receiver","type":"address","internalType":"address"},{"name":"owner","type":"address","internalType":"address"}],"outputs":[{"name":"","type":"uint256","internalType":"uint256"}],"stateMutability":"nonpayable"},{"type":"event","name":"Approval","inputs":[{"name":"owner","type":"address","indexed":true,"internalType":"address"},{"name":"spender","type":"address","indexed":true,"internalType":"address"},{"name":"value","type":"uint256","indexed":false,"internalType":"uint256"}],"anonymous":false},{"type":"event","name":"CantonSharesSynced","inputs":[{"name":"cantonShares","type":"uint256","indexed":false,"internalType":"uint256"},{"name":"epoch","type":"uint256","indexed":false,"internalType":"uint256"},{"name":"globalSharePrice","type":"uint256","indexed":false,"internalType":"uint256"}],"anonymous":false},{"type":"event","name":"CooldownUpdated","inputs":[{"name":"account","type":"address","indexed":true,"internalType":"address"},{"name":"timestamp","type":"uint256","indexed":false,"internalType":"uint256"}],"anonymous":false},{"type":"event","name":"Deposit","inputs":[{"name":"sender","type":"address","indexed":true,"internalType":"address"},{"name":"owner","type":"address","indexed":true,"internalType":"address"},{"name":"assets","type":"uint256","indexed":false,"internalType":"uint256"},{"name":"shares","type":"uint256","indexed":false,"internalType":"uint256"}],"anonymous":false},{"type":"event","name":"GlobalAssetsRefreshed","inputs":[{"name":"newGlobalAssets","type":"uint256","indexed":false,"internalType":"uint256"},{"name":"usdcValue","type":"uint256","indexed":false,"internalType":"uint256"}],"anonymous":false},{"type":"event","name":"Initialized","inputs":[{"name":"version","type":"uint64","indexed":false,"internalType":"uint64"}],"anonymous":false},{"type":"event","name":"InterestReceived","inputs":[{"name":"from","type":"address","indexed":true,"internalType":"address"},{"name":"amount","type":"uint256","indexed":false,"internalType":"uint256"},{"name":"totalReceived","type":"uint256","indexed":false,"internalType":"uint256"}],"anonymous":false},{"type":"event","name":"Paused","inputs":[{"name":"account","type":"address","indexed":false,"internalType":"address"}],"anonymous":false},{"type":"event","name":"RoleAdminChanged","inputs":[{"name":"role","type":"bytes32","indexed":true,"internalType":"bytes32"},{"name":"previousAdminRole","type":"bytes32","indexed":true,"internalType":"bytes32"},{"name":"newAdminRole","type":"bytes32","indexed":true,"internalType":"bytes32"}],"anonymous":false},{"type":"event","name":"RoleGranted","inputs":[{"name":"role","type":"bytes32","indexed":true,"internalType":"bytes32"},{"name":"account","type":"address","indexed":true,"internalType":"address"},{"name":"sender","type":"address","indexed":true,"internalType":"address"}],"anonymous":false},{"type":"event","name":"RoleRevoked","inputs":[{"name":"role","type":"bytes32","indexed":true,"internalType":"bytes32"},{"name":"account","type":"address","indexed":true,"internalType":"address"},{"name":"sender","type":"address","indexed":true,"internalType":"address"}],"anonymous":false},{"type":"event","name":"Transfer","inputs":[{"name":"from","type":"address","indexed":true,"internalType":"address"},{"name":"to","type":"address","indexed":true,"internalType":"address"},{"name":"value","type":"uint256","indexed":false,"internalType":"uint256"}],"anonymous":false},{"type":"event","name":"TreasuryUpdated","inputs":[{"name":"oldTreasury","type":"address","indexed":true,"internalType":"address"},{"name":"newTreasury","type":"address","indexed":true,"internalType":"address"}],"anonymous":false},{"type":"event","name":"Unpaused","inputs":[{"name":"account","type":"address","indexed":false,"internalType":"address"}],"anonymous":false},{"type":"event","name":"Upgraded","inputs":[{"name":"implementation","type":"address","indexed":true,"internalType":"address"}],"anonymous":false},{"type":"event","name":"Withdraw","inputs":[{"name":"sender","type":"address","indexed":true,"internalType":"address"},{"name":"receiver","type":"address","indexed":true,"internalType":"address"},{"name":"owner","type":"address","indexed":true,"internalType":"address"},{"name":"assets","type":"uint256","indexed":false,"internalType":"uint256"},{"name":"shares","type":"uint256","indexed":false,"internalType":"uint256"}],"anonymous":false},{"type":"event","name":"YieldDistributed","inputs":[{"name":"from","type":"address","indexed":true,"internalType":"address"},{"name":"amount","type":"uint256","indexed":false,"internalType":"uint256"}],"anonymous":false},{"type":"error","name":"AccessControlBadConfirmation","inputs":[]},{"type":"error","name":"AccessControlUnauthorizedAccount","inputs":[{"name":"account","type":"address","internalType":"address"},{"name":"neededRole","type":"bytes32","internalType":"bytes32"}]},{"type":"error","name":"AddressEmptyCode","inputs":[{"name":"target","type":"address","internalType":"address"}]},{"type":"error","name":"ERC1967InvalidImplementation","inputs":[{"name":"implementation","type":"address","internalType":"address"}]},{"type":"error","name":"ERC1967NonPayable","inputs":[]},{"type":"error","name":"ERC20InsufficientAllowance","inputs":[{"name":"spender","type":"address","internalType":"address"},{"name":"allowance","type":"uint256","internalType":"uint256"},{"name":"needed","type":"uint256","internalType":"uint256"}]},{"type":"error","name":"ERC20InsufficientBalance","inputs":[{"name":"sender","type":"address","internalType":"address"},{"name":"balance","type":"uint256","internalType":"uint256"},{"name":"needed","type":"uint256","internalType":"uint256"}]},{"type":"error","name":"ERC20InvalidApprover","inputs":[{"name":"approver","type":"address","internalType":"address"}]},{"type":"error","name":"ERC20InvalidReceiver","inputs":[{"name":"receiver","type":"address","internalType":"address"}]},{"type":"error","name":"ERC20InvalidSender","inputs":[{"name":"sender","type":"address","internalType":"address"}]},{"type":"error","name":"ERC20InvalidSpender","inputs":[{"name":"spender","type":"address","internalType":"address"}]},{"type":"error","name":"ERC4626ExceededMaxDeposit","inputs":[{"name":"receiver","type":"address","internalType":"address"},{"name":"assets","type":"uint256","internalType":"uint256"},{"name":"max","type":"uint256","internalType":"uint256"}]},{"type":"error","name":"ERC4626ExceededMaxMint","inputs":[{"name":"receiver","type":"address","internalType":"address"},{"name":"shares","type":"uint256","internalType":"uint256"},{"name":"max","type":"uint256","internalType":"uint256"}]},{"type":"error","name":"ERC4626ExceededMaxRedeem","inputs":[{"name":"owner","type":"address","internalType":"address"},{"name":"shares","type":"uint256","internalType":"uint256"},{"name":"max","type":"uint256","internalType":"uint256"}]},{"type":"error","name":"ERC4626ExceededMaxWithdraw","inputs":[{"name":"owner","type":"address","internalType":"address"},{"name":"assets","type":"uint256","internalType":"uint256"},{"name":"max","type":"uint256","internalType":"uint256"}]},{"type":"error","name":"EnforcedPause","inputs":[]},{"type":"error","name":"ExpectedPause","inputs":[]},{"type":"error","name":"FailedCall","inputs":[]},{"type":"error","name":"InvalidInitialization","inputs":[]},{"type":"error","name":"NotInitializing","inputs":[]},{"type":"error","name":"ReentrancyGuardReentrantCall","inputs":[]},{"type":"error","name":"SafeERC20FailedOperation","inputs":[{"name":"token","type":"address","internalType":"address"}]},{"type":"error","name":"UUPSUnauthorizedCallContext","inputs":[]},{"type":"error","name":"UUPSUnsupportedProxiableUUID","inputs":[{"name":"slot","type":"bytes32","internalType":"bytes32"}]}],"bytecode":{"object":"0x60a060405230608052348015610013575f80fd5b5061001c610021565b6100d3565b7ff0c57e16840df040f15088dc2f81fe391c3923bec73e23a9662efc9c229c6a00805468010000000000000000900460ff16156100715760405163f92ee8a960e01b815260040160405180910390fd5b80546001600160401b03908116146100d05780546001600160401b0319166001600160401b0390811782556040519081527fc7f505b2f371ae2175ee4913f4499e1f2633a7b5936321eed1cdaeb6115181d29060200160405180910390a15b50565b608051613aa46100f95f395f81816124f40152818161251d015261266d0152613aa45ff3fe6080604052600436106103f5575f3560e01c806387f5769e1161020a578063c8cc5cd81161011e578063e6f3e004116100a8578063f38bb07311610078578063f38bb07314610af9578063f3e3064f14610b2c578063f7a54f8914610664578063f8c8765e14610b41578063fe9e964014610b60575f80fd5b8063e6f3e00414610a9b578063ef8b30f71461096f578063f0f4426014610aba578063f288a2e214610ad9575f80fd5b8063da7f0065116100ee578063da7f006514610a0a578063daef17c314610a1f578063dd62ed3e14610a34578063e44dc7a314610a53578063e63ab1e914610a68575f80fd5b8063c8cc5cd81461098e578063ce96cb77146109ad578063d547741f146109cc578063d905777e146109eb575f80fd5b8063ad3cb1cc1161019f578063b5bfddea1161016f578063b5bfddea14610909578063ba0876521461093c578063c63d75b614610645578063c683602c1461095b578063c6e6f5921461096f575f80fd5b8063ad3cb1cc14610886578063b1b3f467146108b6578063b3d7f6b9146108cb578063b460af94146108ea575f80fd5b8063950d91e9116101da578063950d91e91461082a57806395d89b4114610840578063a217fddf14610854578063a9059cbb14610867575f80fd5b806387f5769e146107c35780638fb3a94a146107d857806391d14854146107ec57806394bf804d1461080b575f80fd5b80633f4ba83a1161030c5780635840aa2811610296578063691e4e4611610266578063691e4e46146107485780636d5f0c661461075c5780636e553f651461077157806370a08231146107905780638456cb59146107af575f80fd5b80635840aa28146106d35780635c975abb146106f257806361d027b31461071557806367799a4314610734575f80fd5b806346823f6a116102dc57806346823f6a1461068d5780634b606951146105215780634cdad506146104855780634f1ef286146106ac57806352d1902d146106bf575f80fd5b80633f4ba83a14610631578063402d267d1461064557806342a0abdd1461066457806344fd5ab614610679575f80fd5b806319262d301161038d57806329d16ee81161035d57806329d16ee8146105745780632f2ff15d1461059f578063313ce567146105c057806336568abe146105e657806338d52e0f14610605575f80fd5b806319262d3014610502578063205fc5d31461052157806323b872dd14610536578063248a9ca314610555575f80fd5b806307a2d13a116103c857806307a2d13a14610485578063095ea7b3146104a45780630a28a477146104c357806318160ddd146104e2575f80fd5b806301e1d114146103f957806301ffc9a71461042057806303d330fa1461044f57806306fdde0314610464575b5f80fd5b348015610404575f80fd5b5061040d610b93565b6040519081526020015b60405180910390f35b34801561042b575f80fd5b5061043f61043a366004613333565b610c09565b6040519015158152602001610417565b34801561045a575f80fd5b5061040d6103e881565b34801561046f575f80fd5b50610478610c3f565b604051610417919061335a565b348015610490575f80fd5b5061040d61049f36600461338f565b610cff565b3480156104af575f80fd5b5061043f6104be3660046133ba565b610d0a565b3480156104ce575f80fd5b5061040d6104dd36600461338f565b610d21565b3480156104ed575f80fd5b505f805160206139cf8339815191525461040d565b34801561050d575f80fd5b5061043f61051c3660046133e4565b610d2d565b34801561052c575f80fd5b5061040d6101f481565b348015610541575f80fd5b5061043f6105503660046133ff565b610d5c565b348015610560575f80fd5b5061040d61056f36600461338f565b610d81565b34801561057f575f80fd5b5061040d61058e3660046133e4565b5f6020819052908152604090205481565b3480156105aa575f80fd5b506105be6105b936600461343d565b610da1565b005b3480156105cb575f80fd5b506105d4610dc3565b60405160ff9091168152602001610417565b3480156105f1575f80fd5b506105be61060036600461343d565b610e06565b348015610610575f80fd5b50610619610e3e565b6040516001600160a01b039091168152602001610417565b34801561063c575f80fd5b506105be610e6c565b348015610650575f80fd5b5061040d61065f3660046133e4565b610e81565b34801561066f575f80fd5b5061040d610e1081565b348015610684575f80fd5b5061040d610eae565b348015610698575f80fd5b506105be6106a736600461338f565b610ec4565b6105be6106ba36600461347f565b611045565b3480156106ca575f80fd5b5061040d611064565b3480156106de575f80fd5b506105be6106ed366004613545565b61107f565b3480156106fd575f80fd5b505f80516020613a2f8339815191525460ff1661043f565b348015610720575f80fd5b50600354610619906001600160a01b031681565b34801561073f575f80fd5b5061040d611332565b348015610753575f80fd5b5061040d61137a565b348015610767575f80fd5b5061040d60085481565b34801561077c575f80fd5b5061040d61078b36600461343d565b611477565b34801561079b575f80fd5b5061040d6107aa3660046133e4565b6115ab565b3480156107ba575f80fd5b506105be6115d1565b3480156107ce575f80fd5b5061040d60055481565b3480156107e3575f80fd5b5061040d611603565b3480156107f7575f80fd5b5061043f61080636600461343d565b611626565b348015610816575f80fd5b5061040d61082536600461343d565b61165c565b348015610835575f80fd5b5061040d6201518081565b34801561084b575f80fd5b50610478611778565b34801561085f575f80fd5b5061040d5f81565b348015610872575f80fd5b5061043f6108813660046133ba565b6117b6565b348015610891575f80fd5b50610478604051806040016040528060058152602001640352e302e360dc1b81525081565b3480156108c1575f80fd5b5061040d60045481565b3480156108d6575f80fd5b5061040d6108e536600461338f565b6117c3565b3480156108f5575f80fd5b5061040d610904366004613565565b6117cf565b348015610914575f80fd5b5061040d7f52ba824bfabc2bcfcdf7f0edbb486ebb05e1836c90e78047efeb949990f72e5f81565b348015610947575f80fd5b5061040d610956366004613565565b61186a565b348015610966575f80fd5b506105be6118ed565b34801561097a575f80fd5b5061040d61098936600461338f565b611ade565b348015610999575f80fd5b506105be6109a836600461338f565b611ae9565b3480156109b8575f80fd5b5061040d6109c73660046133e4565b611c31565b3480156109d7575f80fd5b506105be6109e636600461343d565b611d29565b3480156109f6575f80fd5b5061040d610a053660046133e4565b611d45565b348015610a15575f80fd5b5061040d60025481565b348015610a2a575f80fd5b5061040d60015481565b348015610a3f575f80fd5b5061040d610a4e3660046135a4565b611e42565b348015610a5e575f80fd5b5061040d60075481565b348015610a73575f80fd5b5061040d7f65d7a28e3265b37a6474929f336521b332c1681b933f6cb9f3376673440d862a81565b348015610aa6575f80fd5b5061040d610ab53660046133e4565b611e8b565b348015610ac5575f80fd5b506105be610ad43660046133e4565b611ece565b348015610ae4575f80fd5b5061040d5f8051602061398f83398151915281565b348015610b04575f80fd5b5061040d7ff22f9b856fefc8d979ef1bf362d6312dd0309a47aad9c5feee517fa2e8d8902381565b348015610b37575f80fd5b5061040d60065481565b348015610b4c575f80fd5b506105be610b5b3660046135d0565b611f7c565b348015610b6b575f80fd5b5061040d7f470f4f1717679395b6a9e0700797bfeeaa970f1643e72f5684d687c0be10fe2781565b5f610b9c610e3e565b6040516370a0823160e01b81523060048201526001600160a01b0391909116906370a0823190602401602060405180830381865afa158015610be0573d5f803e3d5ffd5b505050506040513d601f19601f82011682018060405250810190610c049190613629565b905090565b5f6001600160e01b03198216637965db0b60e01b1480610c3957506301ffc9a760e01b6001600160e01b03198316145b92915050565b7f52c63247e1f47db19d5ce0460030c497f067ca4cebf71ba98eeadabe20bace0380546060915f805160206139af83398151915291610c7d90613640565b80601f0160208091040260200160405190810160405280929190818152602001828054610ca990613640565b8015610cf45780601f10610ccb57610100808354040283529160200191610cf4565b820191905f5260205f20905b815481529060010190602001808311610cd757829003601f168201915b505050505091505090565b5f610c39825f6121d1565b5f33610d17818585612212565b5060019392505050565b5f610c3982600161221f565b6001600160a01b0381165f90815260208190526040812054610d5390620151809061368c565b42101592915050565b5f33610d69858285612257565b610d748585856122a2565b60019150505b9392505050565b5f9081525f80516020613a0f833981519152602052604090206001015490565b610daa82610d81565b610db3816122ff565b610dbd8383612309565b50505050565b5f807f0773e532dfede91f04b12a73d3d2acd361424f41f76b4fb79f090161e36b4e00905060038154610e009190600160a01b900460ff1661369f565b91505090565b6001600160a01b0381163314610e2f5760405163334bd91960e11b815260040160405180910390fd5b610e3982826123aa565b505050565b7f0773e532dfede91f04b12a73d3d2acd361424f41f76b4fb79f090161e36b4e00546001600160a01b031690565b5f610e76816122ff565b610e7e612423565b50565b5f610e9a5f80516020613a2f8339815191525460ff1690565b15610ea657505f919050565b505f19919050565b5f610c045f805160206139cf8339815191525490565b7ff22f9b856fefc8d979ef1bf362d6312dd0309a47aad9c5feee517fa2e8d89023610eee816122ff565b5f8211610f305760405162461bcd60e51b815260206004820152600b60248201526a16915493d7d05353d5539560aa1b60448201526064015b60405180910390fd5b5f610f39611603565b11610f565760405162461bcd60e51b8152600401610f27906136b8565b5f610f5f61137a565b90505f612710610f716103e8846136e1565b610f7b919061370c565b905080841115610fc45760405162461bcd60e51b81526020600482015260146024820152730494e5445524553545f455843454544535f4341560641b6044820152606401610f27565b610fe3333086610fd2610e3e565b6001600160a01b0316929190612482565b60055480850190811015610ff557505f195b60058190554260065560405133917fdfbb5ccbe498d34d6a5497c62226d673740ea3d4ca57b496dff91b36922c97129161103791888252602082015260400190565b60405180910390a250505050565b61104d6124e9565b6110568261258f565b61106082826125a6565b5050565b5f61106d612662565b505f805160206139ef83398151915290565b7f52ba824bfabc2bcfcdf7f0edbb486ebb05e1836c90e78047efeb949990f72e5f6110a9816122ff565b60025482116110f15760405162461bcd60e51b8152602060048201526014602482015273115413d0d217d393d517d4d1545551539512505360621b6044820152606401610f27565b610e10600454611101919061368c565b4210156111445760405162461bcd60e51b815260206004820152601160248201527014d65390d7d513d3d7d194915455515395607a1b6044820152606401610f27565b6001545f036111e1575f6111635f805160206139cf8339815191525490565b90505f80821161117d5769d3c21bcecceda1000000611188565b6111888260026136e1565b9050808511156111da5760405162461bcd60e51b815260206004820152601860248201527f494e495449414c5f5348415245535f544f4f5f4c4152474500000000000000006044820152606401610f27565b50506112d6565b5f6127106111f16101f48261368c565b6001546111fe91906136e1565b611208919061370c565b90505f61271061121a6101f48261371f565b60015461122791906136e1565b611231919061370c565b9050818511156112835760405162461bcd60e51b815260206004820152601860248201527f53484152455f494e4352454153455f544f4f5f4c4152474500000000000000006044820152606401610f27565b808510156112d35760405162461bcd60e51b815260206004820152601860248201527f53484152455f44454352454153455f544f4f5f4c4152474500000000000000006044820152606401610f27565b50505b60018390556002829055426004557f81fc726eb84a1225fa236b15eb2fcdbc39f58e3b81c548f9d27b955dd1954f7c838361130f611332565b6040805193845260208401929092529082015260600160405180910390a1505050565b5f8061133c611603565b9050805f0361135157610e006003600a613815565b8061135e6003600a613815565b61136661137a565b61137091906136e1565b610e00919061370c565b6003545f906001600160a01b031661139457610c04610b93565b60035f9054906101000a90046001600160a01b03166001600160a01b031663d4c3eea06040518163ffffffff1660e01b8152600401602060405180830381865afa925050508015611402575060408051601f3d908101601f191682019092526113ff91810190613629565b60015b61141c57600754801561141457919050565b610e00610b93565b5f61142c8264e8d4a510006136e1565b6007549091508015611470575f6127106114486101f4846136e1565b611452919061370c565b61145c908361368c565b90508083111561146e57949350505050565b505b5092915050565b5f6114806126ab565b6114886126e2565b6003546001600160a01b0316158015906114a25750600754155b80156114af57505f600154115b1561153b5760035f9054906101000a90046001600160a01b03166001600160a01b031663d4c3eea06040518163ffffffff1660e01b8152600401602060405180830381865afa925050508015611522575060408051601f3d908101601f1916820190925261151f91810190613629565b60015b1561153b576115368164e8d4a510006136e1565b600755505b6001600160a01b0382165f8181526020818152604091829020429081905591519182527f7631df1cb61560709ebf9092a96d321b993513e844760f08c3f827be3b349d14910160405180910390a26115938383612712565b9050610c3960015f80516020613a4f83398151915255565b6001600160a01b03165f9081525f805160206139af833981519152602052604090205490565b7f65d7a28e3265b37a6474929f336521b332c1681b933f6cb9f3376673440d862a6115fb816122ff565b610e7e612771565b5f60015461161c5f805160206139cf8339815191525490565b610c04919061368c565b5f9182525f80516020613a0f833981519152602090815260408084206001600160a01b0393909316845291905290205460ff1690565b5f6116656126ab565b61166d6126e2565b6003546001600160a01b0316158015906116875750600754155b801561169457505f600154115b156117205760035f9054906101000a90046001600160a01b03166001600160a01b031663d4c3eea06040518163ffffffff1660e01b8152600401602060405180830381865afa925050508015611707575060408051601f3d908101601f1916820190925261170491810190613629565b60015b156117205761171b8164e8d4a510006136e1565b600755505b6001600160a01b0382165f8181526020818152604091829020429081905591519182527f7631df1cb61560709ebf9092a96d321b993513e844760f08c3f827be3b349d14910160405180910390a261159383836127b9565b7f52c63247e1f47db19d5ce0460030c497f067ca4cebf71ba98eeadabe20bace0480546060915f805160206139af83398151915291610c7d90613640565b5f33610d178185856122a2565b5f610c398260016121d1565b5f6117d86126ab565b6117e06126e2565b6001600160a01b0382165f9081526020819052604090205461180690620151809061368c565b4210156118475760405162461bcd60e51b815260206004820152600f60248201526e434f4f4c444f574e5f41435449564560881b6044820152606401610f27565b611852848484612805565b9050610d7a60015f80516020613a4f83398151915255565b5f6118736126ab565b61187b6126e2565b6001600160a01b0382165f908152602081905260409020546118a190620151809061368c565b4210156118e25760405162461bcd60e51b815260206004820152600f60248201526e434f4f4c444f574e5f41435449564560881b6044820152606401610f27565b611852848484612852565b7f470f4f1717679395b6a9e0700797bfeeaa970f1643e72f5684d687c0be10fe27611917816122ff565b6003546001600160a01b031661195d5760405162461bcd60e51b815260206004820152600b60248201526a4e4f5f545245415355525960a81b6044820152606401610f27565b5f611966611603565b116119835760405162461bcd60e51b8152600401610f27906136b8565b610e10600854611993919061368c565b4210156119d95760405162461bcd60e51b8152602060048201526014602482015273149151949154d217d513d3d7d19491545551539560621b6044820152606401610f27565b600354604080516306a61f7560e51b815290515f926001600160a01b03169163d4c3eea09160048083019260209291908290030181865afa158015611a20573d5f803e3d5ffd5b505050506040513d601f19601f82011682018060405250810190611a449190613629565b90505f611a568264e8d4a510006136e1565b6007549091508015611a96575f612710611a726101f4846136e1565b611a7c919061370c565b611a86908361368c565b905080831115611a94578092505b505b60078290554260085560408051838152602081018590527f7966b2d8c057d8459ba60321634fb3be7411c62374efe7fadcc0e94869a0d88f910160405180910390a150505050565b5f610c39825f61221f565b7f470f4f1717679395b6a9e0700797bfeeaa970f1643e72f5684d687c0be10fe27611b13816122ff565b5f611b295f805160206139cf8339815191525490565b11611b465760405162461bcd60e51b8152600401610f27906136b8565b5f8211611b865760405162461bcd60e51b815260206004820152600e60248201526d1253959053125117d05353d5539560921b6044820152606401610f27565b5f611b8f61137a565b90505f612710611ba16103e8846136e1565b611bab919061370c565b905080841115611bf15760405162461bcd60e51b815260206004820152601160248201527005949454c445f455843454544535f43415607c1b6044820152606401610f27565b611bff333086610fd2610e3e565b60405184815233907f9d315883dbfe38532083c1e42c0d10fbf89ad1cabaa0c269f78b3beb892c101d90602001611037565b5f611c4a5f80516020613a2f8339815191525460ff1690565b15611c5657505f919050565b6001600160a01b0382165f90815260208190526040902054611c7c90620151809061368c565b421015611c8a57505f919050565b5f611c9d611c97846115ab565b5f6121d1565b90505f611ca8610e3e565b6040516370a0823160e01b81523060048201526001600160a01b0391909116906370a0823190602401602060405180830381865afa158015611cec573d5f803e3d5ffd5b505050506040513d601f19601f82011682018060405250810190611d109190613629565b9050808210611d1f5780611d21565b815b949350505050565b611d3282610d81565b611d3b816122ff565b610dbd83836123aa565b5f611d5e5f80516020613a2f8339815191525460ff1690565b15611d6a57505f919050565b6001600160a01b0382165f90815260208190526040902054611d9090620151809061368c565b421015611d9e57505f919050565b5f611da8836115ab565b90505f611db3610e3e565b6040516370a0823160e01b81523060048201526001600160a01b0391909116906370a0823190602401602060405180830381865afa158015611df7573d5f803e3d5ffd5b505050506040513d601f19601f82011682018060405250810190611e1b9190613629565b90505f611e28825f61221f565b9050808310611e375780611e39565b825b95945050505050565b6001600160a01b039182165f9081527f52c63247e1f47db19d5ce0460030c497f067ca4cebf71ba98eeadabe20bace016020908152604080832093909416825291909152205490565b6001600160a01b0381165f908152602081905260408120548190611eb390620151809061368c565b9050804210611ec457505f92915050565b610d7a428261371f565b5f8051602061398f833981519152611ee5816122ff565b6001600160a01b038216611f2a5760405162461bcd60e51b815260206004820152600c60248201526b5a45524f5f4144445245535360a01b6044820152606401610f27565b600380546001600160a01b038481166001600160a01b0319831681179093556040519116919082907f4ab5be82436d353e61ca18726e984e561f5c1cc7c6d38b29d2553c790434705a905f90a3505050565b5f611f8561289f565b805490915060ff600160401b820416159067ffffffffffffffff165f81158015611fac5750825b90505f8267ffffffffffffffff166001148015611fc85750303b155b905081158015611fd6575080155b15611ff45760405163f92ee8a960e01b815260040160405180910390fd5b845467ffffffffffffffff19166001178555831561201e57845460ff60401b1916600160401b1785555b6001600160a01b0386166120675760405162461bcd60e51b815260206004820152601060248201526f494e56414c49445f54494d454c4f434b60801b6044820152606401610f27565b612070896128c7565b6120ba6040518060400160405280600b81526020016a14dd185ad959081b5554d160aa1b815250604051806040016040528060058152602001641cdb5554d160da1b8152506128d8565b6120c26128ea565b6120ca6128f2565b6120d26128ea565b6120da6128ea565b6120e45f88612309565b5061210f7f65d7a28e3265b37a6474929f336521b332c1681b933f6cb9f3376673440d862a88612309565b506121275f8051602061398f83398151915287612309565b506001600160a01b0388161561218057600380546001600160a01b0319166001600160a01b038a169081179091556040515f907f4ab5be82436d353e61ca18726e984e561f5c1cc7c6d38b29d2553c790434705a908290a35b83156121c657845460ff60401b19168555604051600181527fc7f505b2f371ae2175ee4913f4499e1f2633a7b5936321eed1cdaeb6115181d29060200160405180910390a15b505050505050505050565b5f806121db611603565b9050611d216121e861137a565b6121f390600161368c565b6121ff6003600a613815565b612209908461368c565b86919086612902565b610e398383836001612944565b5f80612229611603565b9050611d2161223a6003600a613815565b612244908361368c565b61224c61137a565b61220990600161368c565b5f6122628484611e42565b90505f19811015610dbd578181101561229457828183604051637dc7a0d960e11b8152600401610f2793929190613823565b610dbd84848484035f612944565b6001600160a01b0383166122cb57604051634b637e8f60e11b81525f6004820152602401610f27565b6001600160a01b0382166122f45760405163ec442f0560e01b81525f6004820152602401610f27565b610e39838383612a28565b610e7e8133612ad2565b5f5f80516020613a0f8339815191526123228484611626565b6123a1575f848152602082815260408083206001600160a01b03871684529091529020805460ff191660011790556123573390565b6001600160a01b0316836001600160a01b0316857f2f8788117e7eff1d82e926ec794901d17c78024a50270940304540a733656f0d60405160405180910390a46001915050610c39565b5f915050610c39565b5f5f80516020613a0f8339815191526123c38484611626565b156123a1575f848152602082815260408083206001600160a01b0387168085529252808320805460ff1916905551339287917ff6391f5c32d9c69d2a47ea670b442974b53935d1edc7fd64eb21e047a839171b9190a46001915050610c39565b61242b612b0b565b5f80516020613a2f833981519152805460ff191681557f5db9ee0a495bf2e6ff9c91a7834c1ba4fdd244a5e8aa4e537bd38aeae4b073aa335b6040516001600160a01b03909116815260200160405180910390a150565b6040516001600160a01b038481166024830152838116604483015260648201839052610dbd9186918216906323b872dd906084015b604051602081830303815290604052915060e01b6020820180516001600160e01b038381831617835250505050612b3a565b306001600160a01b037f000000000000000000000000000000000000000000000000000000000000000016148061256f57507f00000000000000000000000000000000000000000000000000000000000000006001600160a01b03166125635f805160206139ef833981519152546001600160a01b031690565b6001600160a01b031614155b1561258d5760405163703e46dd60e11b815260040160405180910390fd5b565b5f8051602061398f833981519152611060816122ff565b816001600160a01b03166352d1902d6040518163ffffffff1660e01b8152600401602060405180830381865afa925050508015612600575060408051601f3d908101601f191682019092526125fd91810190613629565b60015b61262857604051634c9c8ce360e01b81526001600160a01b0383166004820152602401610f27565b5f805160206139ef833981519152811461265857604051632a87526960e21b815260048101829052602401610f27565b610e398383612ba6565b306001600160a01b037f0000000000000000000000000000000000000000000000000000000000000000161461258d5760405163703e46dd60e11b815260040160405180910390fd5b5f80516020613a4f8339815191528054600119016126dc57604051633ee5aeb560e01b815260040160405180910390fd5b60029055565b5f80516020613a2f8339815191525460ff161561258d5760405163d93c066560e01b815260040160405180910390fd5b5f8061271d83610e81565b90508084111561274657828482604051633c8097d960e11b8152600401610f2793929190613823565b5f61275085611ade565b9050611d2133858784612bfb565b60015f80516020613a4f83398151915255565b6127796126e2565b5f80516020613a2f833981519152805460ff191660011781557f62e78cea01bee320cd4e420270b5ea74000d11b0c9f74754ebdbfc544b05a25833612464565b5f806127c483610e81565b9050808411156127ed5782848260405163284ff66760e01b8152600401610f2793929190613823565b5f6127f7856117c3565b9050611d2133858388612bfb565b5f8061281083611c31565b90508085111561283957828582604051633fa733bb60e21b8152600401610f2793929190613823565b5f61284386610d21565b9050611e393386868985612c74565b5f8061285d83611d45565b90508085111561288657828582604051632e52afbb60e21b8152600401610f2793929190613823565b5f61289086610cff565b9050611e39338686848a612c74565b5f807ff0c57e16840df040f15088dc2f81fe391c3923bec73e23a9662efc9c229c6a00610c39565b6128cf612d1b565b610e7e81612d40565b6128e0612d1b565b6110608282612dc3565b61258d612d1b565b6128fa612d1b565b61258d612e13565b5f61292f61290f83612e1b565b801561292a57505f8480612925576129256136f8565b868809115b151590565b61293a868686612e47565b611e39919061368c565b5f805160206139af8339815191526001600160a01b03851661297b5760405163e602df0560e01b81525f6004820152602401610f27565b6001600160a01b0384166129a457604051634a1406b160e11b81525f6004820152602401610f27565b6001600160a01b038086165f90815260018301602090815260408083209388168352929052208390558115612a2157836001600160a01b0316856001600160a01b03167f8c5be1e5ebec7d5bd14f71427d1e84f3dd0314c0f7b2291e5b200ac8c7c3b92585604051612a1891815260200190565b60405180910390a35b5050505050565b6001600160a01b03831615801590612a4857506001600160a01b03821615155b15612ac7576001600160a01b038084165f9081526020819052604080822054928516825290205480821115612ac4576001600160a01b0384165f818152602081815260409182902085905590518481527f7631df1cb61560709ebf9092a96d321b993513e844760f08c3f827be3b349d14910160405180910390a25b50505b610e39838383612ef7565b612adc8282611626565b6110605760405163e2517d3f60e01b81526001600160a01b038216600482015260248101839052604401610f27565b5f80516020613a2f8339815191525460ff1661258d57604051638dfc202b60e01b815260040160405180910390fd5b5f8060205f8451602086015f885af180612b59576040513d5f823e3d81fd5b50505f513d91508115612b70578060011415612b7d565b6001600160a01b0384163b155b15610dbd57604051635274afe760e01b81526001600160a01b0385166004820152602401610f27565b612baf8261300f565b6040516001600160a01b038316907fbc7cd75a20ee27fd9adebab32041f755214dbc6bffa90cc0225b39da2e5c2d3b905f90a2805115612bf357610e398282613072565b6110606130db565b612c0e612c06610e3e565b853085612482565b612c1883826130fa565b826001600160a01b0316846001600160a01b03167fdcbc1c05240f31ff3ad067ef1ee35ce4997762752e3a095284754544f4c709d78484604051612c66929190918252602082015260400190565b60405180910390a350505050565b826001600160a01b0316856001600160a01b031614612c9857612c98838683612257565b612ca2838261312e565b612cb4612cad610e3e565b8584613162565b826001600160a01b0316846001600160a01b0316866001600160a01b03167ffbde797d201c681b91056529119e0b02407c7bb96a4a2c75c01fc9667232c8db8585604051612d0c929190918252602082015260400190565b60405180910390a45050505050565b612d23613193565b61258d57604051631afcd79f60e31b815260040160405180910390fd5b612d48612d1b565b7f0773e532dfede91f04b12a73d3d2acd361424f41f76b4fb79f090161e36b4e005f80612d74846131ac565b9150915081612d84576012612d86565b805b83546001600160a81b031916600160a01b60ff92909216919091026001600160a01b031916176001600160a01b0394909416939093179091555050565b612dcb612d1b565b5f805160206139af8339815191527f52c63247e1f47db19d5ce0460030c497f067ca4cebf71ba98eeadabe20bace03612e048482613888565b5060048101610dbd8382613888565b61275e612d1b565b5f6002826003811115612e3057612e30613943565b612e3a9190613957565b60ff166001149050919050565b5f805f612e548686613282565b91509150815f03612e7857838181612e6e57612e6e6136f8565b0492505050610d7a565b818411612e8f57612e8f600385150260111861329e565b5f848688095f868103871696879004966002600389028118808a02820302808a02820302808a02820302808a02820302808a02820302808a02909103029181900381900460010185841190960395909502919093039390930492909217029150509392505050565b5f805160206139af8339815191526001600160a01b038416612f315781816002015f828254612f26919061368c565b90915550612f8e9050565b6001600160a01b0384165f9081526020829052604090205482811015612f705784818460405163391434e360e21b8152600401610f2793929190613823565b6001600160a01b0385165f9081526020839052604090209083900390555b6001600160a01b038316612fac576002810180548390039055612fca565b6001600160a01b0383165f9081526020829052604090208054830190555b826001600160a01b0316846001600160a01b03167fddf252ad1be2c89b69c2b068fc378daa952ba7f163c4a11628f55a4df523b3ef84604051612c6691815260200190565b806001600160a01b03163b5f0361304457604051634c9c8ce360e01b81526001600160a01b0382166004820152602401610f27565b5f805160206139ef83398151915280546001600160a01b0319166001600160a01b0392909216919091179055565b60605f80846001600160a01b03168460405161308e9190613978565b5f60405180830381855af49150503d805f81146130c6576040519150601f19603f3d011682016040523d82523d5f602084013e6130cb565b606091505b5091509150611e398583836132af565b341561258d5760405163b398979f60e01b815260040160405180910390fd5b6001600160a01b0382166131235760405163ec442f0560e01b81525f6004820152602401610f27565b6110605f8383612a28565b6001600160a01b03821661315757604051634b637e8f60e11b81525f6004820152602401610f27565b611060825f83612a28565b6040516001600160a01b03838116602483015260448201839052610e3991859182169063a9059cbb906064016124b7565b5f61319c61289f565b54600160401b900460ff16919050565b60408051600481526024810182526020810180516001600160e01b031663313ce56760e01b17905290515f918291829182916001600160a01b038716916131f291613978565b5f60405180830381855afa9150503d805f811461322a576040519150601f19603f3d011682016040523d82523d5f602084013e61322f565b606091505b509150915081801561324357506020815110155b15613276575f8180602001905181019061325d9190613629565b905060ff8111613274576001969095509350505050565b505b505f9485945092505050565b5f805f1983850993909202808410938190039390930393915050565b634e487b715f52806020526024601cfd5b6060826132c4576132bf8261330b565b610d7a565b81511580156132db57506001600160a01b0384163b155b1561330457604051639996b31560e01b81526001600160a01b0385166004820152602401610f27565b5080610d7a565b80511561331a57805160208201fd5b60405163d6bda27560e01b815260040160405180910390fd5b5f60208284031215613343575f80fd5b81356001600160e01b031981168114610d7a575f80fd5b602081525f82518060208401528060208501604085015e5f604082850101526040601f19601f83011684010191505092915050565b5f6020828403121561339f575f80fd5b5035919050565b6001600160a01b0381168114610e7e575f80fd5b5f80604083850312156133cb575f80fd5b82356133d6816133a6565b946020939093013593505050565b5f602082840312156133f4575f80fd5b8135610d7a816133a6565b5f805f60608486031215613411575f80fd5b833561341c816133a6565b9250602084013561342c816133a6565b929592945050506040919091013590565b5f806040838503121561344e575f80fd5b823591506020830135613460816133a6565b809150509250929050565b634e487b7160e01b5f52604160045260245ffd5b5f8060408385031215613490575f80fd5b823561349b816133a6565b9150602083013567ffffffffffffffff8111156134b6575f80fd5b8301601f810185136134c6575f80fd5b803567ffffffffffffffff8111156134e0576134e061346b565b604051601f8201601f19908116603f0116810167ffffffffffffffff8111828210171561350f5761350f61346b565b604052818152828201602001871015613526575f80fd5b816020840160208301375f602083830101528093505050509250929050565b5f8060408385031215613556575f80fd5b50508035926020909101359150565b5f805f60608486031215613577575f80fd5b833592506020840135613589816133a6565b91506040840135613599816133a6565b809150509250925092565b5f80604083850312156135b5575f80fd5b82356135c0816133a6565b91506020830135613460816133a6565b5f805f80608085870312156135e3575f80fd5b84356135ee816133a6565b935060208501356135fe816133a6565b9250604085013561360e816133a6565b9150606085013561361e816133a6565b939692955090935050565b5f60208284031215613639575f80fd5b5051919050565b600181811c9082168061365457607f821691505b60208210810361367257634e487b7160e01b5f52602260045260245ffd5b50919050565b634e487b7160e01b5f52601160045260245ffd5b80820180821115610c3957610c39613678565b60ff8181168382160190811115610c3957610c39613678565b6020808252600f908201526e1393d7d4d210549154d7d1561254d5608a1b604082015260600190565b8082028115828204841417610c3957610c39613678565b634e487b7160e01b5f52601260045260245ffd5b5f8261371a5761371a6136f8565b500490565b81810381811115610c3957610c39613678565b6001815b600184111561376d5780850481111561375157613751613678565b600184161561375f57908102905b60019390931c928002613736565b935093915050565b5f8261378357506001610c39565b8161378f57505f610c39565b81600181146137a557600281146137af576137cb565b6001915050610c39565b60ff8411156137c0576137c0613678565b50506001821b610c39565b5060208310610133831016604e8410600b84101617156137ee575081810a610c39565b6137fa5f198484613732565b805f190482111561380d5761380d613678565b029392505050565b5f610d7a60ff841683613775565b6001600160a01b039390931683526020830191909152604082015260600190565b601f821115610e3957805f5260205f20601f840160051c810160208510156138695750805b601f840160051c820191505b81811015612a21575f8155600101613875565b815167ffffffffffffffff8111156138a2576138a261346b565b6138b6816138b08454613640565b84613844565b6020601f8211600181146138e8575f83156138d15750848201515b5f19600385901b1c1916600184901b178455612a21565b5f84815260208120601f198516915b8281101561391757878501518255602094850194600190920191016138f7565b508482101561393457868401515f19600387901b60f8161c191681555b50505050600190811b01905550565b634e487b7160e01b5f52602160045260245ffd5b5f60ff831680613969576139696136f8565b8060ff84160691505092915050565b5f82518060208501845e5f92019182525091905056fef66846415d2bf9eabda9e84793ff9c0ea96d87f50fc41e66aa16469c6a442f0552c63247e1f47db19d5ce0460030c497f067ca4cebf71ba98eeadabe20bace0052c63247e1f47db19d5ce0460030c497f067ca4cebf71ba98eeadabe20bace02360894a13ba1a3210667c828492db98dca3e2076cc3735a920a3ca505d382bbc02dd7bc7dec4dceedda775e58dd541e08a116c6c53815c0bd028192f7b626800cd5ed15c6e187e77e9aee88184c21f4f2182ab5827cb3b7e07fbedcd63f033009b779b17422d0df92223018b32b4d1fa46e071723d6817e2486d003becc55f00a2646970667358221220990cd4a445d8ba805adc996216d605b524e610668c72da3edde1857af5c0db3d64736f6c634300081a0033","linkReferences":{}},"methodIdentifiers":{"BRIDGE_ROLE()":"b5bfddea","DEFAULT_ADMIN_ROLE()":"a217fddf","INTEREST_ROUTER_ROLE()":"f38bb073","MAX_GLOBAL_ASSETS_GROWTH_BPS()":"4b606951","MAX_SHARE_CHANGE_BPS()":"205fc5d3","MAX_YIELD_BPS()":"03d330fa","MIN_REFRESH_INTERVAL()":"42a0abdd","MIN_SYNC_INTERVAL()":"f7a54f89","PAUSER_ROLE()":"e63ab1e9","TIMELOCK_ROLE()":"f288a2e2","UPGRADE_INTERFACE_VERSION()":"ad3cb1cc","WITHDRAW_COOLDOWN()":"950d91e9","YIELD_MANAGER_ROLE()":"fe9e9640","allowance(address,address)":"dd62ed3e","approve(address,uint256)":"095ea7b3","asset()":"38d52e0f","balanceOf(address)":"70a08231","canWithdraw(address)":"19262d30","cantonTotalShares()":"daef17c3","convertToAssets(uint256)":"07a2d13a","convertToShares(uint256)":"c6e6f592","decimals()":"313ce567","deposit(uint256,address)":"6e553f65","distributeYield(uint256)":"c8cc5cd8","ethereumTotalShares()":"44fd5ab6","getRemainingCooldown(address)":"e6f3e004","getRoleAdmin(bytes32)":"248a9ca3","globalSharePrice()":"67799a43","globalTotalAssets()":"691e4e46","globalTotalShares()":"8fb3a94a","grantRole(bytes32,address)":"2f2ff15d","hasRole(bytes32,address)":"91d14854","initialize(address,address,address,address)":"f8c8765e","lastCantonSyncEpoch()":"da7f0065","lastCantonSyncTime()":"b1b3f467","lastDeposit(address)":"29d16ee8","lastInterestReceiptTime()":"f3e3064f","lastKnownGlobalAssets()":"e44dc7a3","lastRefreshTime()":"6d5f0c66","maxDeposit(address)":"402d267d","maxMint(address)":"c63d75b6","maxRedeem(address)":"d905777e","maxWithdraw(address)":"ce96cb77","mint(uint256,address)":"94bf804d","name()":"06fdde03","pause()":"8456cb59","paused()":"5c975abb","previewDeposit(uint256)":"ef8b30f7","previewMint(uint256)":"b3d7f6b9","previewRedeem(uint256)":"4cdad506","previewWithdraw(uint256)":"0a28a477","proxiableUUID()":"52d1902d","receiveInterest(uint256)":"46823f6a","redeem(uint256,address,address)":"ba087652","refreshGlobalAssets()":"c683602c","renounceRole(bytes32,address)":"36568abe","revokeRole(bytes32,address)":"d547741f","setTreasury(address)":"f0f44260","supportsInterface(bytes4)":"01ffc9a7","symbol()":"95d89b41","syncCantonShares(uint256,uint256)":"5840aa28","totalAssets()":"01e1d114","totalInterestReceived()":"87f5769e","totalSupply()":"18160ddd","transfer(address,uint256)":"a9059cbb","transferFrom(address,address,uint256)":"23b872dd","treasury()":"61d027b3","unpause()":"3f4ba83a","upgradeToAndCall(address,bytes)":"4f1ef286","withdraw(uint256,address,address)":"b460af94"},"id":67}