{"abi":[{"type":"constructor","inputs":[],"stateMutability":"nonpayable"},{"type":"function","name":"BRIDGE_ROLE","inputs":[],"outputs":[{"name":"","type":"bytes32","internalType":"bytes32"}],"stateMutability":"view"},{"type":"function","name":"DEFAULT_ADMIN_ROLE","inputs":[],"outputs":[{"name":"","type":"bytes32","internalType":"bytes32"}],"stateMutability":"view"},{"type":"function","name":"INTEREST_ROUTER_ROLE","inputs":[],"outputs":[{"name":"","type":"bytes32","internalType":"bytes32"}],"stateMutability":"view"},{"type":"function","name":"MAX_GLOBAL_ASSETS_GROWTH_BPS","inputs":[],"outputs":[{"name":"","type":"uint256","internalType":"uint256"}],"stateMutability":"view"},{"type":"function","name":"MAX_SHARE_CHANGE_BPS","inputs":[],"outputs":[{"name":"","type":"uint256","internalType":"uint256"}],"stateMutability":"view"},{"type":"function","name":"MAX_YIELD_BPS","inputs":[],"outputs":[{"name":"","type":"uint256","internalType":"uint256"}],"stateMutability":"view"},{"type":"function","name":"MIN_SYNC_INTERVAL","inputs":[],"outputs":[{"name":"","type":"uint256","internalType":"uint256"}],"stateMutability":"view"},{"type":"function","name":"PAUSER_ROLE","inputs":[],"outputs":[{"name":"","type":"bytes32","internalType":"bytes32"}],"stateMutability":"view"},{"type":"function","name":"TIMELOCK_ROLE","inputs":[],"outputs":[{"name":"","type":"bytes32","internalType":"bytes32"}],"stateMutability":"view"},{"type":"function","name":"UPGRADE_INTERFACE_VERSION","inputs":[],"outputs":[{"name":"","type":"string","internalType":"string"}],"stateMutability":"view"},{"type":"function","name":"WITHDRAW_COOLDOWN","inputs":[],"outputs":[{"name":"","type":"uint256","internalType":"uint256"}],"stateMutability":"view"},{"type":"function","name":"YIELD_MANAGER_ROLE","inputs":[],"outputs":[{"name":"","type":"bytes32","internalType":"bytes32"}],"stateMutability":"view"},{"type":"function","name":"allowance","inputs":[{"name":"owner","type":"address","internalType":"address"},{"name":"spender","type":"address","internalType":"address"}],"outputs":[{"name":"","type":"uint256","internalType":"uint256"}],"stateMutability":"view"},{"type":"function","name":"approve","inputs":[{"name":"spender","type":"address","internalType":"address"},{"name":"value","type":"uint256","internalType":"uint256"}],"outputs":[{"name":"","type":"bool","internalType":"bool"}],"stateMutability":"nonpayable"},{"type":"function","name":"asset","inputs":[],"outputs":[{"name":"","type":"address","internalType":"address"}],"stateMutability":"view"},{"type":"function","name":"balanceOf","inputs":[{"name":"account","type":"address","internalType":"address"}],"outputs":[{"name":"","type":"uint256","internalType":"uint256"}],"stateMutability":"view"},{"type":"function","name":"canWithdraw","inputs":[{"name":"account","type":"address","internalType":"address"}],"outputs":[{"name":"","type":"bool","internalType":"bool"}],"stateMutability":"view"},{"type":"function","name":"cantonTotalShares","inputs":[],"outputs":[{"name":"","type":"uint256","internalType":"uint256"}],"stateMutability":"view"},{"type":"function","name":"convertToAssets","inputs":[{"name":"shares","type":"uint256","internalType":"uint256"}],"outputs":[{"name":"","type":"uint256","internalType":"uint256"}],"stateMutability":"view"},{"type":"function","name":"convertToShares","inputs":[{"name":"assets","type":"uint256","internalType":"uint256"}],"outputs":[{"name":"","type":"uint256","internalType":"uint256"}],"stateMutability":"view"},{"type":"function","name":"decimals","inputs":[],"outputs":[{"name":"","type":"uint8","internalType":"uint8"}],"stateMutability":"view"},{"type":"function","name":"deposit","inputs":[{"name":"assets","type":"uint256","internalType":"uint256"},{"name":"receiver","type":"address","internalType":"address"}],"outputs":[{"name":"","type":"uint256","internalType":"uint256"}],"stateMutability":"nonpayable"},{"type":"function","name":"distributeYield","inputs":[{"name":"amount","type":"uint256","internalType":"uint256"}],"outputs":[],"stateMutability":"nonpayable"},{"type":"function","name":"ethereumTotalShares","inputs":[],"outputs":[{"name":"","type":"uint256","internalType":"uint256"}],"stateMutability":"view"},{"type":"function","name":"getRemainingCooldown","inputs":[{"name":"account","type":"address","internalType":"address"}],"outputs":[{"name":"","type":"uint256","internalType":"uint256"}],"stateMutability":"view"},{"type":"function","name":"getRoleAdmin","inputs":[{"name":"role","type":"bytes32","internalType":"bytes32"}],"outputs":[{"name":"","type":"bytes32","internalType":"bytes32"}],"stateMutability":"view"},{"type":"function","name":"globalSharePrice","inputs":[],"outputs":[{"name":"","type":"uint256","internalType":"uint256"}],"stateMutability":"view"},{"type":"function","name":"globalTotalAssets","inputs":[],"outputs":[{"name":"","type":"uint256","internalType":"uint256"}],"stateMutability":"view"},{"type":"function","name":"globalTotalShares","inputs":[],"outputs":[{"name":"","type":"uint256","internalType":"uint256"}],"stateMutability":"view"},{"type":"function","name":"grantRole","inputs":[{"name":"role","type":"bytes32","internalType":"bytes32"},{"name":"account","type":"address","internalType":"address"}],"outputs":[],"stateMutability":"nonpayable"},{"type":"function","name":"hasRole","inputs":[{"name":"role","type":"bytes32","internalType":"bytes32"},{"name":"account","type":"address","internalType":"address"}],"outputs":[{"name":"","type":"bool","internalType":"bool"}],"stateMutability":"view"},{"type":"function","name":"initialize","inputs":[{"name":"_asset","type":"address","internalType":"contract IERC20"},{"name":"_treasury","type":"address","internalType":"address"},{"name":"_admin","type":"address","internalType":"address"},{"name":"_timelockController","type":"address","internalType":"address"}],"outputs":[],"stateMutability":"nonpayable"},{"type":"function","name":"lastCantonSyncEpoch","inputs":[],"outputs":[{"name":"","type":"uint256","internalType":"uint256"}],"stateMutability":"view"},{"type":"function","name":"lastCantonSyncTime","inputs":[],"outputs":[{"name":"","type":"uint256","internalType":"uint256"}],"stateMutability":"view"},{"type":"function","name":"lastDeposit","inputs":[{"name":"","type":"address","internalType":"address"}],"outputs":[{"name":"","type":"uint256","internalType":"uint256"}],"stateMutability":"view"},{"type":"function","name":"lastInterestReceiptTime","inputs":[],"outputs":[{"name":"","type":"uint256","internalType":"uint256"}],"stateMutability":"view"},{"type":"function","name":"lastKnownGlobalAssets","inputs":[],"outputs":[{"name":"","type":"uint256","internalType":"uint256"}],"stateMutability":"view"},{"type":"function","name":"maxDeposit","inputs":[{"name":"","type":"address","internalType":"address"}],"outputs":[{"name":"","type":"uint256","internalType":"uint256"}],"stateMutability":"view"},{"type":"function","name":"maxMint","inputs":[{"name":"","type":"address","internalType":"address"}],"outputs":[{"name":"","type":"uint256","internalType":"uint256"}],"stateMutability":"view"},{"type":"function","name":"maxRedeem","inputs":[{"name":"owner","type":"address","internalType":"address"}],"outputs":[{"name":"","type":"uint256","internalType":"uint256"}],"stateMutability":"view"},{"type":"function","name":"maxWithdraw","inputs":[{"name":"owner","type":"address","internalType":"address"}],"outputs":[{"name":"","type":"uint256","internalType":"uint256"}],"stateMutability":"view"},{"type":"function","name":"mint","inputs":[{"name":"shares","type":"uint256","internalType":"uint256"},{"name":"receiver","type":"address","internalType":"address"}],"outputs":[{"name":"","type":"uint256","internalType":"uint256"}],"stateMutability":"nonpayable"},{"type":"function","name":"name","inputs":[],"outputs":[{"name":"","type":"string","internalType":"string"}],"stateMutability":"view"},{"type":"function","name":"pause","inputs":[],"outputs":[],"stateMutability":"nonpayable"},{"type":"function","name":"paused","inputs":[],"outputs":[{"name":"","type":"bool","internalType":"bool"}],"stateMutability":"view"},{"type":"function","name":"previewDeposit","inputs":[{"name":"assets","type":"uint256","internalType":"uint256"}],"outputs":[{"name":"","type":"uint256","internalType":"uint256"}],"stateMutability":"view"},{"type":"function","name":"previewMint","inputs":[{"name":"shares","type":"uint256","internalType":"uint256"}],"outputs":[{"name":"","type":"uint256","internalType":"uint256"}],"stateMutability":"view"},{"type":"function","name":"previewRedeem","inputs":[{"name":"shares","type":"uint256","internalType":"uint256"}],"outputs":[{"name":"","type":"uint256","internalType":"uint256"}],"stateMutability":"view"},{"type":"function","name":"previewWithdraw","inputs":[{"name":"assets","type":"uint256","internalType":"uint256"}],"outputs":[{"name":"","type":"uint256","internalType":"uint256"}],"stateMutability":"view"},{"type":"function","name":"proxiableUUID","inputs":[],"outputs":[{"name":"","type":"bytes32","internalType":"bytes32"}],"stateMutability":"view"},{"type":"function","name":"receiveInterest","inputs":[{"name":"amount","type":"uint256","internalType":"uint256"}],"outputs":[],"stateMutability":"nonpayable"},{"type":"function","name":"redeem","inputs":[{"name":"shares","type":"uint256","internalType":"uint256"},{"name":"receiver","type":"address","internalType":"address"},{"name":"owner","type":"address","internalType":"address"}],"outputs":[{"name":"","type":"uint256","internalType":"uint256"}],"stateMutability":"nonpayable"},{"type":"function","name":"refreshGlobalAssets","inputs":[],"outputs":[],"stateMutability":"nonpayable"},{"type":"function","name":"renounceRole","inputs":[{"name":"role","type":"bytes32","internalType":"bytes32"},{"name":"callerConfirmation","type":"address","internalType":"address"}],"outputs":[],"stateMutability":"nonpayable"},{"type":"function","name":"revokeRole","inputs":[{"name":"role","type":"bytes32","internalType":"bytes32"},{"name":"account","type":"address","internalType":"address"}],"outputs":[],"stateMutability":"nonpayable"},{"type":"function","name":"setTreasury","inputs":[{"name":"_treasury","type":"address","internalType":"address"}],"outputs":[],"stateMutability":"nonpayable"},{"type":"function","name":"supportsInterface","inputs":[{"name":"interfaceId","type":"bytes4","internalType":"bytes4"}],"outputs":[{"name":"","type":"bool","internalType":"bool"}],"stateMutability":"view"},{"type":"function","name":"symbol","inputs":[],"outputs":[{"name":"","type":"string","internalType":"string"}],"stateMutability":"view"},{"type":"function","name":"syncCantonShares","inputs":[{"name":"_cantonShares","type":"uint256","internalType":"uint256"},{"name":"epoch","type":"uint256","internalType":"uint256"}],"outputs":[],"stateMutability":"nonpayable"},{"type":"function","name":"totalAssets","inputs":[],"outputs":[{"name":"","type":"uint256","internalType":"uint256"}],"stateMutability":"view"},{"type":"function","name":"totalInterestReceived","inputs":[],"outputs":[{"name":"","type":"uint256","internalType":"uint256"}],"stateMutability":"view"},{"type":"function","name":"totalSupply","inputs":[],"outputs":[{"name":"","type":"uint256","internalType":"uint256"}],"stateMutability":"view"},{"type":"function","name":"transfer","inputs":[{"name":"to","type":"address","internalType":"address"},{"name":"value","type":"uint256","internalType":"uint256"}],"outputs":[{"name":"","type":"bool","internalType":"bool"}],"stateMutability":"nonpayable"},{"type":"function","name":"transferFrom","inputs":[{"name":"from","type":"address","internalType":"address"},{"name":"to","type":"address","internalType":"address"},{"name":"value","type":"uint256","internalType":"uint256"}],"outputs":[{"name":"","type":"bool","internalType":"bool"}],"stateMutability":"nonpayable"},{"type":"function","name":"treasury","inputs":[],"outputs":[{"name":"","type":"address","internalType":"address"}],"stateMutability":"view"},{"type":"function","name":"unpause","inputs":[],"outputs":[],"stateMutability":"nonpayable"},{"type":"function","name":"upgradeToAndCall","inputs":[{"name":"newImplementation","type":"address","internalType":"address"},{"name":"data","type":"bytes","internalType":"bytes"}],"outputs":[],"stateMutability":"payable"},{"type":"function","name":"withdraw","inputs":[{"name":"assets","type":"uint256","internalType":"uint256"},{"name":"receiver","type":"address","internalType":"address"},{"name":"owner","type":"address","internalType":"address"}],"outputs":[{"name":"","type":"uint256","internalType":"uint256"}],"stateMutability":"nonpayable"},{"type":"event","name":"Approval","inputs":[{"name":"owner","type":"address","indexed":true,"internalType":"address"},{"name":"spender","type":"address","indexed":true,"internalType":"address"},{"name":"value","type":"uint256","indexed":false,"internalType":"uint256"}],"anonymous":false},{"type":"event","name":"CantonSharesSynced","inputs":[{"name":"cantonShares","type":"uint256","indexed":false,"internalType":"uint256"},{"name":"epoch","type":"uint256","indexed":false,"internalType":"uint256"},{"name":"globalSharePrice","type":"uint256","indexed":false,"internalType":"uint256"}],"anonymous":false},{"type":"event","name":"CooldownUpdated","inputs":[{"name":"account","type":"address","indexed":true,"internalType":"address"},{"name":"timestamp","type":"uint256","indexed":false,"internalType":"uint256"}],"anonymous":false},{"type":"event","name":"Deposit","inputs":[{"name":"sender","type":"address","indexed":true,"internalType":"address"},{"name":"owner","type":"address","indexed":true,"internalType":"address"},{"name":"assets","type":"uint256","indexed":false,"internalType":"uint256"},{"name":"shares","type":"uint256","indexed":false,"internalType":"uint256"}],"anonymous":false},{"type":"event","name":"GlobalAssetsRefreshed","inputs":[{"name":"newGlobalAssets","type":"uint256","indexed":false,"internalType":"uint256"},{"name":"usdcValue","type":"uint256","indexed":false,"internalType":"uint256"}],"anonymous":false},{"type":"event","name":"Initialized","inputs":[{"name":"version","type":"uint64","indexed":false,"internalType":"uint64"}],"anonymous":false},{"type":"event","name":"InterestReceived","inputs":[{"name":"from","type":"address","indexed":true,"internalType":"address"},{"name":"amount","type":"uint256","indexed":false,"internalType":"uint256"},{"name":"totalReceived","type":"uint256","indexed":false,"internalType":"uint256"}],"anonymous":false},{"type":"event","name":"Paused","inputs":[{"name":"account","type":"address","indexed":false,"internalType":"address"}],"anonymous":false},{"type":"event","name":"RoleAdminChanged","inputs":[{"name":"role","type":"bytes32","indexed":true,"internalType":"bytes32"},{"name":"previousAdminRole","type":"bytes32","indexed":true,"internalType":"bytes32"},{"name":"newAdminRole","type":"bytes32","indexed":true,"internalType":"bytes32"}],"anonymous":false},{"type":"event","name":"RoleGranted","inputs":[{"name":"role","type":"bytes32","indexed":true,"internalType":"bytes32"},{"name":"account","type":"address","indexed":true,"internalType":"address"},{"name":"sender","type":"address","indexed":true,"internalType":"address"}],"anonymous":false},{"type":"event","name":"RoleRevoked","inputs":[{"name":"role","type":"bytes32","indexed":true,"internalType":"bytes32"},{"name":"account","type":"address","indexed":true,"internalType":"address"},{"name":"sender","type":"address","indexed":true,"internalType":"address"}],"anonymous":false},{"type":"event","name":"Transfer","inputs":[{"name":"from","type":"address","indexed":true,"internalType":"address"},{"name":"to","type":"address","indexed":true,"internalType":"address"},{"name":"value","type":"uint256","indexed":false,"internalType":"uint256"}],"anonymous":false},{"type":"event","name":"TreasuryUpdated","inputs":[{"name":"oldTreasury","type":"address","indexed":true,"internalType":"address"},{"name":"newTreasury","type":"address","indexed":true,"internalType":"address"}],"anonymous":false},{"type":"event","name":"Unpaused","inputs":[{"name":"account","type":"address","indexed":false,"internalType":"address"}],"anonymous":false},{"type":"event","name":"Upgraded","inputs":[{"name":"implementation","type":"address","indexed":true,"internalType":"address"}],"anonymous":false},{"type":"event","name":"Withdraw","inputs":[{"name":"sender","type":"address","indexed":true,"internalType":"address"},{"name":"receiver","type":"address","indexed":true,"internalType":"address"},{"name":"owner","type":"address","indexed":true,"internalType":"address"},{"name":"assets","type":"uint256","indexed":false,"internalType":"uint256"},{"name":"shares","type":"uint256","indexed":false,"internalType":"uint256"}],"anonymous":false},{"type":"event","name":"YieldDistributed","inputs":[{"name":"from","type":"address","indexed":true,"internalType":"address"},{"name":"amount","type":"uint256","indexed":false,"internalType":"uint256"}],"anonymous":false},{"type":"error","name":"AccessControlBadConfirmation","inputs":[]},{"type":"error","name":"AccessControlUnauthorizedAccount","inputs":[{"name":"account","type":"address","internalType":"address"},{"name":"neededRole","type":"bytes32","internalType":"bytes32"}]},{"type":"error","name":"AddressEmptyCode","inputs":[{"name":"target","type":"address","internalType":"address"}]},{"type":"error","name":"ERC1967InvalidImplementation","inputs":[{"name":"implementation","type":"address","internalType":"address"}]},{"type":"error","name":"ERC1967NonPayable","inputs":[]},{"type":"error","name":"ERC20InsufficientAllowance","inputs":[{"name":"spender","type":"address","internalType":"address"},{"name":"allowance","type":"uint256","internalType":"uint256"},{"name":"needed","type":"uint256","internalType":"uint256"}]},{"type":"error","name":"ERC20InsufficientBalance","inputs":[{"name":"sender","type":"address","internalType":"address"},{"name":"balance","type":"uint256","internalType":"uint256"},{"name":"needed","type":"uint256","internalType":"uint256"}]},{"type":"error","name":"ERC20InvalidApprover","inputs":[{"name":"approver","type":"address","internalType":"address"}]},{"type":"error","name":"ERC20InvalidReceiver","inputs":[{"name":"receiver","type":"address","internalType":"address"}]},{"type":"error","name":"ERC20InvalidSender","inputs":[{"name":"sender","type":"address","internalType":"address"}]},{"type":"error","name":"ERC20InvalidSpender","inputs":[{"name":"spender","type":"address","internalType":"address"}]},{"type":"error","name":"ERC4626ExceededMaxDeposit","inputs":[{"name":"receiver","type":"address","internalType":"address"},{"name":"assets","type":"uint256","internalType":"uint256"},{"name":"max","type":"uint256","internalType":"uint256"}]},{"type":"error","name":"ERC4626ExceededMaxMint","inputs":[{"name":"receiver","type":"address","internalType":"address"},{"name":"shares","type":"uint256","internalType":"uint256"},{"name":"max","type":"uint256","internalType":"uint256"}]},{"type":"error","name":"ERC4626ExceededMaxRedeem","inputs":[{"name":"owner","type":"address","internalType":"address"},{"name":"shares","type":"uint256","internalType":"uint256"},{"name":"max","type":"uint256","internalType":"uint256"}]},{"type":"error","name":"ERC4626ExceededMaxWithdraw","inputs":[{"name":"owner","type":"address","internalType":"address"},{"name":"assets","type":"uint256","internalType":"uint256"},{"name":"max","type":"uint256","internalType":"uint256"}]},{"type":"error","name":"EnforcedPause","inputs":[]},{"type":"error","name":"ExpectedPause","inputs":[]},{"type":"error","name":"FailedCall","inputs":[]},{"type":"error","name":"InvalidInitialization","inputs":[]},{"type":"error","name":"NotInitializing","inputs":[]},{"type":"error","name":"ReentrancyGuardReentrantCall","inputs":[]},{"type":"error","name":"SafeERC20FailedOperation","inputs":[{"name":"token","type":"address","internalType":"address"}]},{"type":"error","name":"UUPSUnauthorizedCallContext","inputs":[]},{"type":"error","name":"UUPSUnsupportedProxiableUUID","inputs":[{"name":"slot","type":"bytes32","internalType":"bytes32"}]}],"bytecode":{"object":"0x60a060405230608052348015610013575f80fd5b5061001c610021565b6100d3565b7ff0c57e16840df040f15088dc2f81fe391c3923bec73e23a9662efc9c229c6a00805468010000000000000000900460ff16156100715760405163f92ee8a960e01b815260040160405180910390fd5b80546001600160401b03908116146100d05780546001600160401b0319166001600160401b0390811782556040519081527fc7f505b2f371ae2175ee4913f4499e1f2633a7b5936321eed1cdaeb6115181d29060200160405180910390a15b50565b608051613a136100f95f395f81816124630152818161248c01526125dc0152613a135ff3fe6080604052600436106103df575f3560e01c80638fb3a94a116101ff578063ce96cb7711610113578063e6f3e004116100a8578063f38bb07311610078578063f38bb07314610ab9578063f3e3064f14610aec578063f7a54f8914610b01578063f8c8765e14610b16578063fe9e964014610b35575f80fd5b8063e6f3e00414610a5b578063ef8b30f71461092f578063f0f4426014610a7a578063f288a2e214610a99575f80fd5b8063daef17c3116100e3578063daef17c3146109df578063dd62ed3e146109f4578063e44dc7a314610a13578063e63ab1e914610a28575f80fd5b8063ce96cb771461096d578063d547741f1461098c578063d905777e146109ab578063da7f0065146109ca575f80fd5b8063b1b3f46711610194578063ba08765211610164578063ba087652146108fc578063c63d75b61461062f578063c683602c1461091b578063c6e6f5921461092f578063c8cc5cd81461094e575f80fd5b8063b1b3f46714610876578063b3d7f6b91461088b578063b460af94146108aa578063b5bfddea146108c9575f80fd5b806395d89b41116101cf57806395d89b4114610800578063a217fddf14610814578063a9059cbb14610827578063ad3cb1cc14610846575f80fd5b80638fb3a94a1461079857806391d14854146107ac57806394bf804d146107cb578063950d91e9146107ea575f80fd5b80633f4ba83a116102f65780635840aa281161028b578063691e4e461161025b578063691e4e461461071d5780636e553f651461073157806370a08231146107505780638456cb591461076f57806387f5769e14610783575f80fd5b80635840aa28146106a85780635c975abb146106c757806361d027b3146106ea57806367799a4314610709575f80fd5b80634b606951116102c65780634b6069511461050b5780634cdad5061461046f5780634f1ef2861461068157806352d1902d14610694575f80fd5b80633f4ba83a1461061b578063402d267d1461062f57806344fd5ab61461064e57806346823f6a14610662575f80fd5b806319262d301161037757806329d16ee81161034757806329d16ee81461055e5780632f2ff15d14610589578063313ce567146105aa57806336568abe146105d057806338d52e0f146105ef575f80fd5b806319262d30146104ec578063205fc5d31461050b57806323b872dd14610520578063248a9ca31461053f575f80fd5b806307a2d13a116103b257806307a2d13a1461046f578063095ea7b31461048e5780630a28a477146104ad57806318160ddd146104cc575f80fd5b806301e1d114146103e357806301ffc9a71461040a57806303d330fa1461043957806306fdde031461044e575b5f80fd5b3480156103ee575f80fd5b506103f7610b68565b6040519081526020015b60405180910390f35b348015610415575f80fd5b506104296104243660046132a2565b610bde565b6040519015158152602001610401565b348015610444575f80fd5b506103f76103e881565b348015610459575f80fd5b50610462610c14565b60405161040191906132c9565b34801561047a575f80fd5b506103f76104893660046132fe565b610cd4565b348015610499575f80fd5b506104296104a8366004613329565b610cdf565b3480156104b8575f80fd5b506103f76104c73660046132fe565b610cf6565b3480156104d7575f80fd5b505f8051602061393e833981519152546103f7565b3480156104f7575f80fd5b50610429610506366004613353565b610d02565b348015610516575f80fd5b506103f76101f481565b34801561052b575f80fd5b5061042961053a36600461336e565b610d31565b34801561054a575f80fd5b506103f76105593660046132fe565b610d56565b348015610569575f80fd5b506103f7610578366004613353565b5f6020819052908152604090205481565b348015610594575f80fd5b506105a86105a33660046133ac565b610d76565b005b3480156105b5575f80fd5b506105be610d98565b60405160ff9091168152602001610401565b3480156105db575f80fd5b506105a86105ea3660046133ac565b610ddb565b3480156105fa575f80fd5b50610603610e13565b6040516001600160a01b039091168152602001610401565b348015610626575f80fd5b506105a8610e41565b34801561063a575f80fd5b506103f7610649366004613353565b610e56565b348015610659575f80fd5b506103f7610e83565b34801561066d575f80fd5b506105a861067c3660046132fe565b610e99565b6105a861068f3660046133ee565b61101a565b34801561069f575f80fd5b506103f7611039565b3480156106b3575f80fd5b506105a86106c23660046134b4565b611054565b3480156106d2575f80fd5b505f8051602061399e8339815191525460ff16610429565b3480156106f5575f80fd5b50600354610603906001600160a01b031681565b348015610714575f80fd5b506103f7611307565b348015610728575f80fd5b506103f761134f565b34801561073c575f80fd5b506103f761074b3660046133ac565b61144c565b34801561075b575f80fd5b506103f761076a366004613353565b61157a565b34801561077a575f80fd5b506105a86115a0565b34801561078e575f80fd5b506103f760055481565b3480156107a3575f80fd5b506103f76115d2565b3480156107b7575f80fd5b506104296107c63660046133ac565b6115f5565b3480156107d6575f80fd5b506103f76107e53660046133ac565b61162b565b3480156107f5575f80fd5b506103f76201518081565b34801561080b575f80fd5b50610462611741565b34801561081f575f80fd5b506103f75f81565b348015610832575f80fd5b50610429610841366004613329565b61177f565b348015610851575f80fd5b50610462604051806040016040528060058152602001640352e302e360dc1b81525081565b348015610881575f80fd5b506103f760045481565b348015610896575f80fd5b506103f76108a53660046132fe565b61178c565b3480156108b5575f80fd5b506103f76108c43660046134d4565b611798565b3480156108d4575f80fd5b506103f77f52ba824bfabc2bcfcdf7f0edbb486ebb05e1836c90e78047efeb949990f72e5f81565b348015610907575f80fd5b506103f76109163660046134d4565b611833565b348015610926575f80fd5b506105a86118b6565b34801561093a575f80fd5b506103f76109493660046132fe565b611a4d565b348015610959575f80fd5b506105a86109683660046132fe565b611a58565b348015610978575f80fd5b506103f7610987366004613353565b611ba0565b348015610997575f80fd5b506105a86109a63660046133ac565b611c98565b3480156109b6575f80fd5b506103f76109c5366004613353565b611cb4565b3480156109d5575f80fd5b506103f760025481565b3480156109ea575f80fd5b506103f760015481565b3480156109ff575f80fd5b506103f7610a0e366004613513565b611db1565b348015610a1e575f80fd5b506103f760075481565b348015610a33575f80fd5b506103f77f65d7a28e3265b37a6474929f336521b332c1681b933f6cb9f3376673440d862a81565b348015610a66575f80fd5b506103f7610a75366004613353565b611dfa565b348015610a85575f80fd5b506105a8610a94366004613353565b611e3d565b348015610aa4575f80fd5b506103f75f805160206138fe83398151915281565b348015610ac4575f80fd5b506103f77ff22f9b856fefc8d979ef1bf362d6312dd0309a47aad9c5feee517fa2e8d8902381565b348015610af7575f80fd5b506103f760065481565b348015610b0c575f80fd5b506103f7610e1081565b348015610b21575f80fd5b506105a8610b3036600461353f565b611eeb565b348015610b40575f80fd5b506103f77f470f4f1717679395b6a9e0700797bfeeaa970f1643e72f5684d687c0be10fe2781565b5f610b71610e13565b6040516370a0823160e01b81523060048201526001600160a01b0391909116906370a0823190602401602060405180830381865afa158015610bb5573d5f803e3d5ffd5b505050506040513d601f19601f82011682018060405250810190610bd99190613598565b905090565b5f6001600160e01b03198216637965db0b60e01b1480610c0e57506301ffc9a760e01b6001600160e01b03198316145b92915050565b7f52c63247e1f47db19d5ce0460030c497f067ca4cebf71ba98eeadabe20bace0380546060915f8051602061391e83398151915291610c52906135af565b80601f0160208091040260200160405190810160405280929190818152602001828054610c7e906135af565b8015610cc95780601f10610ca057610100808354040283529160200191610cc9565b820191905f5260205f20905b815481529060010190602001808311610cac57829003601f168201915b505050505091505090565b5f610c0e825f612140565b5f33610cec818585612181565b5060019392505050565b5f610c0e82600161218e565b6001600160a01b0381165f90815260208190526040812054610d289062015180906135fb565b42101592915050565b5f33610d3e8582856121c6565b610d49858585612211565b60019150505b9392505050565b5f9081525f8051602061397e833981519152602052604090206001015490565b610d7f82610d56565b610d888161226e565b610d928383612278565b50505050565b5f807f0773e532dfede91f04b12a73d3d2acd361424f41f76b4fb79f090161e36b4e00905060038154610dd59190600160a01b900460ff1661360e565b91505090565b6001600160a01b0381163314610e045760405163334bd91960e11b815260040160405180910390fd5b610e0e8282612319565b505050565b7f0773e532dfede91f04b12a73d3d2acd361424f41f76b4fb79f090161e36b4e00546001600160a01b031690565b5f610e4b8161226e565b610e53612392565b50565b5f610e6f5f8051602061399e8339815191525460ff1690565b15610e7b57505f919050565b505f19919050565b5f610bd95f8051602061393e8339815191525490565b7ff22f9b856fefc8d979ef1bf362d6312dd0309a47aad9c5feee517fa2e8d89023610ec38161226e565b5f8211610f055760405162461bcd60e51b815260206004820152600b60248201526a16915493d7d05353d5539560aa1b60448201526064015b60405180910390fd5b5f610f0e6115d2565b11610f2b5760405162461bcd60e51b8152600401610efc90613627565b5f610f3461134f565b90505f612710610f466103e884613650565b610f50919061367b565b905080841115610f995760405162461bcd60e51b81526020600482015260146024820152730494e5445524553545f455843454544535f4341560641b6044820152606401610efc565b610fb8333086610fa7610e13565b6001600160a01b03169291906123f1565b60055480850190811015610fca57505f195b60058190554260065560405133917fdfbb5ccbe498d34d6a5497c62226d673740ea3d4ca57b496dff91b36922c97129161100c91888252602082015260400190565b60405180910390a250505050565b611022612458565b61102b826124fe565b6110358282612515565b5050565b5f6110426125d1565b505f8051602061395e83398151915290565b7f52ba824bfabc2bcfcdf7f0edbb486ebb05e1836c90e78047efeb949990f72e5f61107e8161226e565b60025482116110c65760405162461bcd60e51b8152602060048201526014602482015273115413d0d217d393d517d4d1545551539512505360621b6044820152606401610efc565b610e106004546110d691906135fb565b4210156111195760405162461bcd60e51b815260206004820152601160248201527014d65390d7d513d3d7d194915455515395607a1b6044820152606401610efc565b6001545f036111b6575f6111385f8051602061393e8339815191525490565b90505f8082116111525769d3c21bcecceda100000061115d565b61115d826002613650565b9050808511156111af5760405162461bcd60e51b815260206004820152601860248201527f494e495449414c5f5348415245535f544f4f5f4c4152474500000000000000006044820152606401610efc565b50506112ab565b5f6127106111c66101f4826135fb565b6001546111d39190613650565b6111dd919061367b565b90505f6127106111ef6101f48261368e565b6001546111fc9190613650565b611206919061367b565b9050818511156112585760405162461bcd60e51b815260206004820152601860248201527f53484152455f494e4352454153455f544f4f5f4c4152474500000000000000006044820152606401610efc565b808510156112a85760405162461bcd60e51b815260206004820152601860248201527f53484152455f44454352454153455f544f4f5f4c4152474500000000000000006044820152606401610efc565b50505b60018390556002829055426004557f81fc726eb84a1225fa236b15eb2fcdbc39f58e3b81c548f9d27b955dd1954f7c83836112e4611307565b6040805193845260208401929092529082015260600160405180910390a1505050565b5f806113116115d2565b9050805f0361132657610dd56003600a613784565b806113336003600a613784565b61133b61134f565b6113459190613650565b610dd5919061367b565b6003545f906001600160a01b031661136957610bd9610b68565b60035f9054906101000a90046001600160a01b03166001600160a01b031663d4c3eea06040518163ffffffff1660e01b8152600401602060405180830381865afa9250505080156113d7575060408051601f3d908101601f191682019092526113d491810190613598565b60015b6113f15760075480156113e957919050565b610dd5610b68565b5f6114018264e8d4a51000613650565b6007549091508015611445575f61271061141d6101f484613650565b611427919061367b565b61143190836135fb565b90508083111561144357949350505050565b505b5092915050565b5f61145561261a565b61145d612651565b6003546001600160a01b0316158015906114775750600754155b801561148457505f600154115b1561150a57600354604080516306a61f7560e51b815290515f926001600160a01b03169163d4c3eea09160048083019260209291908290030181865afa1580156114d0573d5f803e3d5ffd5b505050506040513d601f19601f820116820180604052508101906114f49190613598565b90506115058164e8d4a51000613650565b600755505b6001600160a01b0382165f8181526020818152604091829020429081905591519182527f7631df1cb61560709ebf9092a96d321b993513e844760f08c3f827be3b349d14910160405180910390a26115628383612681565b9050610c0e60015f805160206139be83398151915255565b6001600160a01b03165f9081525f8051602061391e833981519152602052604090205490565b7f65d7a28e3265b37a6474929f336521b332c1681b933f6cb9f3376673440d862a6115ca8161226e565b610e536126e0565b5f6001546115eb5f8051602061393e8339815191525490565b610bd991906135fb565b5f9182525f8051602061397e833981519152602090815260408084206001600160a01b0393909316845291905290205460ff1690565b5f61163461261a565b61163c612651565b6003546001600160a01b0316158015906116565750600754155b801561166357505f600154115b156116e957600354604080516306a61f7560e51b815290515f926001600160a01b03169163d4c3eea09160048083019260209291908290030181865afa1580156116af573d5f803e3d5ffd5b505050506040513d601f19601f820116820180604052508101906116d39190613598565b90506116e48164e8d4a51000613650565b600755505b6001600160a01b0382165f8181526020818152604091829020429081905591519182527f7631df1cb61560709ebf9092a96d321b993513e844760f08c3f827be3b349d14910160405180910390a26115628383612728565b7f52c63247e1f47db19d5ce0460030c497f067ca4cebf71ba98eeadabe20bace0480546060915f8051602061391e83398151915291610c52906135af565b5f33610cec818585612211565b5f610c0e826001612140565b5f6117a161261a565b6117a9612651565b6001600160a01b0382165f908152602081905260409020546117cf9062015180906135fb565b4210156118105760405162461bcd60e51b815260206004820152600f60248201526e434f4f4c444f574e5f41435449564560881b6044820152606401610efc565b61181b848484612774565b9050610d4f60015f805160206139be83398151915255565b5f61183c61261a565b611844612651565b6001600160a01b0382165f9081526020819052604090205461186a9062015180906135fb565b4210156118ab5760405162461bcd60e51b815260206004820152600f60248201526e434f4f4c444f574e5f41435449564560881b6044820152606401610efc565b61181b8484846127c1565b7f470f4f1717679395b6a9e0700797bfeeaa970f1643e72f5684d687c0be10fe276118e08161226e565b6003546001600160a01b03166119265760405162461bcd60e51b815260206004820152600b60248201526a4e4f5f545245415355525960a81b6044820152606401610efc565b5f61192f6115d2565b1161194c5760405162461bcd60e51b8152600401610efc90613627565b600354604080516306a61f7560e51b815290515f926001600160a01b03169163d4c3eea09160048083019260209291908290030181865afa158015611993573d5f803e3d5ffd5b505050506040513d601f19601f820116820180604052508101906119b79190613598565b90505f6119c98264e8d4a51000613650565b6007549091508015611a09575f6127106119e56101f484613650565b6119ef919061367b565b6119f990836135fb565b905080831115611a07578092505b505b600782905560408051838152602081018590527f7966b2d8c057d8459ba60321634fb3be7411c62374efe7fadcc0e94869a0d88f910160405180910390a150505050565b5f610c0e825f61218e565b7f470f4f1717679395b6a9e0700797bfeeaa970f1643e72f5684d687c0be10fe27611a828161226e565b5f611a985f8051602061393e8339815191525490565b11611ab55760405162461bcd60e51b8152600401610efc90613627565b5f8211611af55760405162461bcd60e51b815260206004820152600e60248201526d1253959053125117d05353d5539560921b6044820152606401610efc565b5f611afe61134f565b90505f612710611b106103e884613650565b611b1a919061367b565b905080841115611b605760405162461bcd60e51b815260206004820152601160248201527005949454c445f455843454544535f43415607c1b6044820152606401610efc565b611b6e333086610fa7610e13565b60405184815233907f9d315883dbfe38532083c1e42c0d10fbf89ad1cabaa0c269f78b3beb892c101d9060200161100c565b5f611bb95f8051602061399e8339815191525460ff1690565b15611bc557505f919050565b6001600160a01b0382165f90815260208190526040902054611beb9062015180906135fb565b421015611bf957505f919050565b5f611c0c611c068461157a565b5f612140565b90505f611c17610e13565b6040516370a0823160e01b81523060048201526001600160a01b0391909116906370a0823190602401602060405180830381865afa158015611c5b573d5f803e3d5ffd5b505050506040513d601f19601f82011682018060405250810190611c7f9190613598565b9050808210611c8e5780611c90565b815b949350505050565b611ca182610d56565b611caa8161226e565b610d928383612319565b5f611ccd5f8051602061399e8339815191525460ff1690565b15611cd957505f919050565b6001600160a01b0382165f90815260208190526040902054611cff9062015180906135fb565b421015611d0d57505f919050565b5f611d178361157a565b90505f611d22610e13565b6040516370a0823160e01b81523060048201526001600160a01b0391909116906370a0823190602401602060405180830381865afa158015611d66573d5f803e3d5ffd5b505050506040513d601f19601f82011682018060405250810190611d8a9190613598565b90505f611d97825f61218e565b9050808310611da65780611da8565b825b95945050505050565b6001600160a01b039182165f9081527f52c63247e1f47db19d5ce0460030c497f067ca4cebf71ba98eeadabe20bace016020908152604080832093909416825291909152205490565b6001600160a01b0381165f908152602081905260408120548190611e229062015180906135fb565b9050804210611e3357505f92915050565b610d4f428261368e565b5f805160206138fe833981519152611e548161226e565b6001600160a01b038216611e995760405162461bcd60e51b815260206004820152600c60248201526b5a45524f5f4144445245535360a01b6044820152606401610efc565b600380546001600160a01b038481166001600160a01b0319831681179093556040519116919082907f4ab5be82436d353e61ca18726e984e561f5c1cc7c6d38b29d2553c790434705a905f90a3505050565b5f611ef461280e565b805490915060ff600160401b820416159067ffffffffffffffff165f81158015611f1b5750825b90505f8267ffffffffffffffff166001148015611f375750303b155b905081158015611f45575080155b15611f635760405163f92ee8a960e01b815260040160405180910390fd5b845467ffffffffffffffff191660011785558315611f8d57845460ff60401b1916600160401b1785555b6001600160a01b038616611fd65760405162461bcd60e51b815260206004820152601060248201526f494e56414c49445f54494d454c4f434b60801b6044820152606401610efc565b611fdf89612836565b6120296040518060400160405280600b81526020016a14dd185ad959081b5554d160aa1b815250604051806040016040528060058152602001641cdb5554d160da1b815250612847565b612031612859565b612039612861565b612041612859565b612049612859565b6120535f88612278565b5061207e7f65d7a28e3265b37a6474929f336521b332c1681b933f6cb9f3376673440d862a88612278565b506120965f805160206138fe83398151915287612278565b506001600160a01b038816156120ef57600380546001600160a01b0319166001600160a01b038a169081179091556040515f907f4ab5be82436d353e61ca18726e984e561f5c1cc7c6d38b29d2553c790434705a908290a35b831561213557845460ff60401b19168555604051600181527fc7f505b2f371ae2175ee4913f4499e1f2633a7b5936321eed1cdaeb6115181d29060200160405180910390a15b505050505050505050565b5f8061214a6115d2565b9050611c9061215761134f565b6121629060016135fb565b61216e6003600a613784565b61217890846135fb565b86919086612871565b610e0e83838360016128b3565b5f806121986115d2565b9050611c906121a96003600a613784565b6121b390836135fb565b6121bb61134f565b6121789060016135fb565b5f6121d18484611db1565b90505f19811015610d92578181101561220357828183604051637dc7a0d960e11b8152600401610efc93929190613792565b610d9284848484035f6128b3565b6001600160a01b03831661223a57604051634b637e8f60e11b81525f6004820152602401610efc565b6001600160a01b0382166122635760405163ec442f0560e01b81525f6004820152602401610efc565b610e0e838383612997565b610e538133612a41565b5f5f8051602061397e83398151915261229184846115f5565b612310575f848152602082815260408083206001600160a01b03871684529091529020805460ff191660011790556122c63390565b6001600160a01b0316836001600160a01b0316857f2f8788117e7eff1d82e926ec794901d17c78024a50270940304540a733656f0d60405160405180910390a46001915050610c0e565b5f915050610c0e565b5f5f8051602061397e83398151915261233284846115f5565b15612310575f848152602082815260408083206001600160a01b0387168085529252808320805460ff1916905551339287917ff6391f5c32d9c69d2a47ea670b442974b53935d1edc7fd64eb21e047a839171b9190a46001915050610c0e565b61239a612a7a565b5f8051602061399e833981519152805460ff191681557f5db9ee0a495bf2e6ff9c91a7834c1ba4fdd244a5e8aa4e537bd38aeae4b073aa335b6040516001600160a01b03909116815260200160405180910390a150565b6040516001600160a01b038481166024830152838116604483015260648201839052610d929186918216906323b872dd906084015b604051602081830303815290604052915060e01b6020820180516001600160e01b038381831617835250505050612aa9565b306001600160a01b037f00000000000000000000000000000000000000000000000000000000000000001614806124de57507f00000000000000000000000000000000000000000000000000000000000000006001600160a01b03166124d25f8051602061395e833981519152546001600160a01b031690565b6001600160a01b031614155b156124fc5760405163703e46dd60e11b815260040160405180910390fd5b565b5f805160206138fe8339815191526110358161226e565b816001600160a01b03166352d1902d6040518163ffffffff1660e01b8152600401602060405180830381865afa92505050801561256f575060408051601f3d908101601f1916820190925261256c91810190613598565b60015b61259757604051634c9c8ce360e01b81526001600160a01b0383166004820152602401610efc565b5f8051602061395e83398151915281146125c757604051632a87526960e21b815260048101829052602401610efc565b610e0e8383612b15565b306001600160a01b037f000000000000000000000000000000000000000000000000000000000000000016146124fc5760405163703e46dd60e11b815260040160405180910390fd5b5f805160206139be83398151915280546001190161264b57604051633ee5aeb560e01b815260040160405180910390fd5b60029055565b5f8051602061399e8339815191525460ff16156124fc5760405163d93c066560e01b815260040160405180910390fd5b5f8061268c83610e56565b9050808411156126b557828482604051633c8097d960e11b8152600401610efc93929190613792565b5f6126bf85611a4d565b9050611c9033858784612b6a565b60015f805160206139be83398151915255565b6126e8612651565b5f8051602061399e833981519152805460ff191660011781557f62e78cea01bee320cd4e420270b5ea74000d11b0c9f74754ebdbfc544b05a258336123d3565b5f8061273383610e56565b90508084111561275c5782848260405163284ff66760e01b8152600401610efc93929190613792565b5f6127668561178c565b9050611c9033858388612b6a565b5f8061277f83611ba0565b9050808511156127a857828582604051633fa733bb60e21b8152600401610efc93929190613792565b5f6127b286610cf6565b9050611da83386868985612be3565b5f806127cc83611cb4565b9050808511156127f557828582604051632e52afbb60e21b8152600401610efc93929190613792565b5f6127ff86610cd4565b9050611da8338686848a612be3565b5f807ff0c57e16840df040f15088dc2f81fe391c3923bec73e23a9662efc9c229c6a00610c0e565b61283e612c8a565b610e5381612caf565b61284f612c8a565b6110358282612d32565b6124fc612c8a565b612869612c8a565b6124fc612d82565b5f61289e61287e83612d8a565b801561289957505f848061289457612894613667565b868809115b151590565b6128a9868686612db6565b611da891906135fb565b5f8051602061391e8339815191526001600160a01b0385166128ea5760405163e602df0560e01b81525f6004820152602401610efc565b6001600160a01b03841661291357604051634a1406b160e11b81525f6004820152602401610efc565b6001600160a01b038086165f9081526001830160209081526040808320938816835292905220839055811561299057836001600160a01b0316856001600160a01b03167f8c5be1e5ebec7d5bd14f71427d1e84f3dd0314c0f7b2291e5b200ac8c7c3b9258560405161298791815260200190565b60405180910390a35b5050505050565b6001600160a01b038316158015906129b757506001600160a01b03821615155b15612a36576001600160a01b038084165f9081526020819052604080822054928516825290205480821115612a33576001600160a01b0384165f818152602081815260409182902085905590518481527f7631df1cb61560709ebf9092a96d321b993513e844760f08c3f827be3b349d14910160405180910390a25b50505b610e0e838383612e66565b612a4b82826115f5565b6110355760405163e2517d3f60e01b81526001600160a01b038216600482015260248101839052604401610efc565b5f8051602061399e8339815191525460ff166124fc57604051638dfc202b60e01b815260040160405180910390fd5b5f8060205f8451602086015f885af180612ac8576040513d5f823e3d81fd5b50505f513d91508115612adf578060011415612aec565b6001600160a01b0384163b155b15610d9257604051635274afe760e01b81526001600160a01b0385166004820152602401610efc565b612b1e82612f7e565b6040516001600160a01b038316907fbc7cd75a20ee27fd9adebab32041f755214dbc6bffa90cc0225b39da2e5c2d3b905f90a2805115612b6257610e0e8282612fe1565b61103561304a565b612b7d612b75610e13565b8530856123f1565b612b878382613069565b826001600160a01b0316846001600160a01b03167fdcbc1c05240f31ff3ad067ef1ee35ce4997762752e3a095284754544f4c709d78484604051612bd5929190918252602082015260400190565b60405180910390a350505050565b826001600160a01b0316856001600160a01b031614612c0757612c078386836121c6565b612c11838261309d565b612c23612c1c610e13565b85846130d1565b826001600160a01b0316846001600160a01b0316866001600160a01b03167ffbde797d201c681b91056529119e0b02407c7bb96a4a2c75c01fc9667232c8db8585604051612c7b929190918252602082015260400190565b60405180910390a45050505050565b612c92613102565b6124fc57604051631afcd79f60e31b815260040160405180910390fd5b612cb7612c8a565b7f0773e532dfede91f04b12a73d3d2acd361424f41f76b4fb79f090161e36b4e005f80612ce38461311b565b9150915081612cf3576012612cf5565b805b83546001600160a81b031916600160a01b60ff92909216919091026001600160a01b031916176001600160a01b0394909416939093179091555050565b612d3a612c8a565b5f8051602061391e8339815191527f52c63247e1f47db19d5ce0460030c497f067ca4cebf71ba98eeadabe20bace03612d7384826137f7565b5060048101610d9283826137f7565b6126cd612c8a565b5f6002826003811115612d9f57612d9f6138b2565b612da991906138c6565b60ff166001149050919050565b5f805f612dc386866131f1565b91509150815f03612de757838181612ddd57612ddd613667565b0492505050610d4f565b818411612dfe57612dfe600385150260111861320d565b5f848688095f868103871696879004966002600389028118808a02820302808a02820302808a02820302808a02820302808a02820302808a02909103029181900381900460010185841190960395909502919093039390930492909217029150509392505050565b5f8051602061391e8339815191526001600160a01b038416612ea05781816002015f828254612e9591906135fb565b90915550612efd9050565b6001600160a01b0384165f9081526020829052604090205482811015612edf5784818460405163391434e360e21b8152600401610efc93929190613792565b6001600160a01b0385165f9081526020839052604090209083900390555b6001600160a01b038316612f1b576002810180548390039055612f39565b6001600160a01b0383165f9081526020829052604090208054830190555b826001600160a01b0316846001600160a01b03167fddf252ad1be2c89b69c2b068fc378daa952ba7f163c4a11628f55a4df523b3ef84604051612bd591815260200190565b806001600160a01b03163b5f03612fb357604051634c9c8ce360e01b81526001600160a01b0382166004820152602401610efc565b5f8051602061395e83398151915280546001600160a01b0319166001600160a01b0392909216919091179055565b60605f80846001600160a01b031684604051612ffd91906138e7565b5f60405180830381855af49150503d805f8114613035576040519150601f19603f3d011682016040523d82523d5f602084013e61303a565b606091505b5091509150611da885838361321e565b34156124fc5760405163b398979f60e01b815260040160405180910390fd5b6001600160a01b0382166130925760405163ec442f0560e01b81525f6004820152602401610efc565b6110355f8383612997565b6001600160a01b0382166130c657604051634b637e8f60e11b81525f6004820152602401610efc565b611035825f83612997565b6040516001600160a01b03838116602483015260448201839052610e0e91859182169063a9059cbb90606401612426565b5f61310b61280e565b54600160401b900460ff16919050565b60408051600481526024810182526020810180516001600160e01b031663313ce56760e01b17905290515f918291829182916001600160a01b03871691613161916138e7565b5f60405180830381855afa9150503d805f8114613199576040519150601f19603f3d011682016040523d82523d5f602084013e61319e565b606091505b50915091508180156131b257506020815110155b156131e5575f818060200190518101906131cc9190613598565b905060ff81116131e3576001969095509350505050565b505b505f9485945092505050565b5f805f1983850993909202808410938190039390930393915050565b634e487b715f52806020526024601cfd5b6060826132335761322e8261327a565b610d4f565b815115801561324a57506001600160a01b0384163b155b1561327357604051639996b31560e01b81526001600160a01b0385166004820152602401610efc565b5080610d4f565b80511561328957805160208201fd5b60405163d6bda27560e01b815260040160405180910390fd5b5f602082840312156132b2575f80fd5b81356001600160e01b031981168114610d4f575f80fd5b602081525f82518060208401528060208501604085015e5f604082850101526040601f19601f83011684010191505092915050565b5f6020828403121561330e575f80fd5b5035919050565b6001600160a01b0381168114610e53575f80fd5b5f806040838503121561333a575f80fd5b823561334581613315565b946020939093013593505050565b5f60208284031215613363575f80fd5b8135610d4f81613315565b5f805f60608486031215613380575f80fd5b833561338b81613315565b9250602084013561339b81613315565b929592945050506040919091013590565b5f80604083850312156133bd575f80fd5b8235915060208301356133cf81613315565b809150509250929050565b634e487b7160e01b5f52604160045260245ffd5b5f80604083850312156133ff575f80fd5b823561340a81613315565b9150602083013567ffffffffffffffff811115613425575f80fd5b8301601f81018513613435575f80fd5b803567ffffffffffffffff81111561344f5761344f6133da565b604051601f8201601f19908116603f0116810167ffffffffffffffff8111828210171561347e5761347e6133da565b604052818152828201602001871015613495575f80fd5b816020840160208301375f602083830101528093505050509250929050565b5f80604083850312156134c5575f80fd5b50508035926020909101359150565b5f805f606084860312156134e6575f80fd5b8335925060208401356134f881613315565b9150604084013561350881613315565b809150509250925092565b5f8060408385031215613524575f80fd5b823561352f81613315565b915060208301356133cf81613315565b5f805f8060808587031215613552575f80fd5b843561355d81613315565b9350602085013561356d81613315565b9250604085013561357d81613315565b9150606085013561358d81613315565b939692955090935050565b5f602082840312156135a8575f80fd5b5051919050565b600181811c908216806135c357607f821691505b6020821081036135e157634e487b7160e01b5f52602260045260245ffd5b50919050565b634e487b7160e01b5f52601160045260245ffd5b80820180821115610c0e57610c0e6135e7565b60ff8181168382160190811115610c0e57610c0e6135e7565b6020808252600f908201526e1393d7d4d210549154d7d1561254d5608a1b604082015260600190565b8082028115828204841417610c0e57610c0e6135e7565b634e487b7160e01b5f52601260045260245ffd5b5f8261368957613689613667565b500490565b81810381811115610c0e57610c0e6135e7565b6001815b60018411156136dc578085048111156136c0576136c06135e7565b60018416156136ce57908102905b60019390931c9280026136a5565b935093915050565b5f826136f257506001610c0e565b816136fe57505f610c0e565b8160018114613714576002811461371e5761373a565b6001915050610c0e565b60ff84111561372f5761372f6135e7565b50506001821b610c0e565b5060208310610133831016604e8410600b841016171561375d575081810a610c0e565b6137695f1984846136a1565b805f190482111561377c5761377c6135e7565b029392505050565b5f610d4f60ff8416836136e4565b6001600160a01b039390931683526020830191909152604082015260600190565b601f821115610e0e57805f5260205f20601f840160051c810160208510156137d85750805b601f840160051c820191505b81811015612990575f81556001016137e4565b815167ffffffffffffffff811115613811576138116133da565b6138258161381f84546135af565b846137b3565b6020601f821160018114613857575f83156138405750848201515b5f19600385901b1c1916600184901b178455612990565b5f84815260208120601f198516915b828110156138865787850151825560209485019460019092019101613866565b50848210156138a357868401515f19600387901b60f8161c191681555b50505050600190811b01905550565b634e487b7160e01b5f52602160045260245ffd5b5f60ff8316806138d8576138d8613667565b8060ff84160691505092915050565b5f82518060208501845e5f92019182525091905056fef66846415d2bf9eabda9e84793ff9c0ea96d87f50fc41e66aa16469c6a442f0552c63247e1f47db19d5ce0460030c497f067ca4cebf71ba98eeadabe20bace0052c63247e1f47db19d5ce0460030c497f067ca4cebf71ba98eeadabe20bace02360894a13ba1a3210667c828492db98dca3e2076cc3735a920a3ca505d382bbc02dd7bc7dec4dceedda775e58dd541e08a116c6c53815c0bd028192f7b626800cd5ed15c6e187e77e9aee88184c21f4f2182ab5827cb3b7e07fbedcd63f033009b779b17422d0df92223018b32b4d1fa46e071723d6817e2486d003becc55f00a26469706673582212203dccf4681b99ce6813d06a12184051c6f33d841593d765f9a6c279a218b1ce8764736f6c634300081a0033","linkReferences":{}},"methodIdentifiers":{"BRIDGE_ROLE()":"b5bfddea","DEFAULT_ADMIN_ROLE()":"a217fddf","INTEREST_ROUTER_ROLE()":"f38bb073","MAX_GLOBAL_ASSETS_GROWTH_BPS()":"4b606951","MAX_SHARE_CHANGE_BPS()":"205fc5d3","MAX_YIELD_BPS()":"03d330fa","MIN_SYNC_INTERVAL()":"f7a54f89","PAUSER_ROLE()":"e63ab1e9","TIMELOCK_ROLE()":"f288a2e2","UPGRADE_INTERFACE_VERSION()":"ad3cb1cc","WITHDRAW_COOLDOWN()":"950d91e9","YIELD_MANAGER_ROLE()":"fe9e9640","allowance(address,address)":"dd62ed3e","approve(address,uint256)":"095ea7b3","asset()":"38d52e0f","balanceOf(address)":"70a08231","canWithdraw(address)":"19262d30","cantonTotalShares()":"daef17c3","convertToAssets(uint256)":"07a2d13a","convertToShares(uint256)":"c6e6f592","decimals()":"313ce567","deposit(uint256,address)":"6e553f65","distributeYield(uint256)":"c8cc5cd8","ethereumTotalShares()":"44fd5ab6","getRemainingCooldown(address)":"e6f3e004","getRoleAdmin(bytes32)":"248a9ca3","globalSharePrice()":"67799a43","globalTotalAssets()":"691e4e46","globalTotalShares()":"8fb3a94a","grantRole(bytes32,address)":"2f2ff15d","hasRole(bytes32,address)":"91d14854","initialize(address,address,address,address)":"f8c8765e","lastCantonSyncEpoch()":"da7f0065","lastCantonSyncTime()":"b1b3f467","lastDeposit(address)":"29d16ee8","lastInterestReceiptTime()":"f3e3064f","lastKnownGlobalAssets()":"e44dc7a3","maxDeposit(address)":"402d267d","maxMint(address)":"c63d75b6","maxRedeem(address)":"d905777e","maxWithdraw(address)":"ce96cb77","mint(uint256,address)":"94bf804d","name()":"06fdde03","pause()":"8456cb59","paused()":"5c975abb","previewDeposit(uint256)":"ef8b30f7","previewMint(uint256)":"b3d7f6b9","previewRedeem(uint256)":"4cdad506","previewWithdraw(uint256)":"0a28a477","proxiableUUID()":"52d1902d","receiveInterest(uint256)":"46823f6a","redeem(uint256,address,address)":"ba087652","refreshGlobalAssets()":"c683602c","renounceRole(bytes32,address)":"36568abe","revokeRole(bytes32,address)":"d547741f","setTreasury(address)":"f0f44260","supportsInterface(bytes4)":"01ffc9a7","symbol()":"95d89b41","syncCantonShares(uint256,uint256)":"5840aa28","totalAssets()":"01e1d114","totalInterestReceived()":"87f5769e","totalSupply()":"18160ddd","transfer(address,uint256)":"a9059cbb","transferFrom(address,address,uint256)":"23b872dd","treasury()":"61d027b3","unpause()":"3f4ba83a","upgradeToAndCall(address,bytes)":"4f1ef286","withdraw(uint256,address,address)":"b460af94"},"id":68}