{"abi":[{"type":"constructor","inputs":[{"name":"asset_","type":"address","internalType":"address"},{"name":"treasury_","type":"address","internalType":"address"}],"stateMutability":"nonpayable"},{"type":"function","name":"_asset","inputs":[],"outputs":[{"name":"","type":"address","internalType":"contract IERC20"}],"stateMutability":"view"},{"type":"function","name":"active","inputs":[],"outputs":[{"name":"","type":"bool","internalType":"bool"}],"stateMutability":"view"},{"type":"function","name":"asset","inputs":[],"outputs":[{"name":"","type":"address","internalType":"address"}],"stateMutability":"view"},{"type":"function","name":"deposit","inputs":[{"name":"amount","type":"uint256","internalType":"uint256"}],"outputs":[{"name":"","type":"uint256","internalType":"uint256"}],"stateMutability":"nonpayable"},{"type":"function","name":"depositShouldFail","inputs":[],"outputs":[{"name":"","type":"bool","internalType":"bool"}],"stateMutability":"view"},{"type":"function","name":"deposited","inputs":[],"outputs":[{"name":"","type":"uint256","internalType":"uint256"}],"stateMutability":"view"},{"type":"function","name":"isActive","inputs":[],"outputs":[{"name":"","type":"bool","internalType":"bool"}],"stateMutability":"view"},{"type":"function","name":"setActive","inputs":[{"name":"_active","type":"bool","internalType":"bool"}],"outputs":[],"stateMutability":"nonpayable"},{"type":"function","name":"setDepositShouldFail","inputs":[{"name":"_fail","type":"bool","internalType":"bool"}],"outputs":[],"stateMutability":"nonpayable"},{"type":"function","name":"setWithdrawShouldFail","inputs":[{"name":"_fail","type":"bool","internalType":"bool"}],"outputs":[],"stateMutability":"nonpayable"},{"type":"function","name":"simulateLoss","inputs":[{"name":"amount","type":"uint256","internalType":"uint256"}],"outputs":[],"stateMutability":"nonpayable"},{"type":"function","name":"simulateYield","inputs":[{"name":"amount","type":"uint256","internalType":"uint256"}],"outputs":[],"stateMutability":"nonpayable"},{"type":"function","name":"totalValue","inputs":[],"outputs":[{"name":"","type":"uint256","internalType":"uint256"}],"stateMutability":"view"},{"type":"function","name":"treasury","inputs":[],"outputs":[{"name":"","type":"address","internalType":"address"}],"stateMutability":"view"},{"type":"function","name":"withdraw","inputs":[{"name":"amount","type":"uint256","internalType":"uint256"}],"outputs":[{"name":"","type":"uint256","internalType":"uint256"}],"stateMutability":"nonpayable"},{"type":"function","name":"withdrawAll","inputs":[],"outputs":[{"name":"","type":"uint256","internalType":"uint256"}],"stateMutability":"nonpayable"},{"type":"function","name":"withdrawShouldFail","inputs":[],"outputs":[{"name":"","type":"bool","internalType":"bool"}],"stateMutability":"view"},{"type":"error","name":"SafeERC20FailedOperation","inputs":[{"name":"token","type":"address","internalType":"address"}]}],"bytecode":{"object":"0x60c060405234801561000f575f80fd5b506040516109e53803806109e583398101604081905261002e9161006c565b6001600160a01b039182166080521660a0526001805460ff19168117905561009d565b80516001600160a01b0381168114610067575f80fd5b919050565b5f806040838503121561007d575f80fd5b61008683610051565b915061009460208401610051565b90509250929050565b60805160a0516108ef6100f65f395f6101c301525f8181610186015281816102a901528181610347015281816103d901528181610476015281816105070152818161059001528181610614015261068e01526108ef5ff3fe608060405234801561000f575f80fd5b5060043610610106575f3560e01c8063b6b55f251161009e578063e4280ed31161006e578063e4280ed31461024e578063e7ca856d14610276578063eef49ee314610289578063fc3b120314610291578063fcea5e29146102a4575f80fd5b8063b6b55f251461020e578063bd0140f914610221578063c5abea6a14610233578063d4c3eea014610246575f80fd5b806338d52e0f116100d957806338d52e0f1461018457806361d027b3146101be578063853828b6146101e5578063acec338a146101ed575f80fd5b806302fb0c5e1461010a57806321a032021461012c57806322f3e2d4146101585780632e1a7d4d14610163575b5f80fd5b6001546101179060ff1681565b60405190151581526020015b60405180910390f35b61015661013a36600461082b565b60018054911515620100000262ff000019909216919091179055565b005b60015460ff16610117565b610176610171366004610851565b6102cb565b604051908152602001610123565b7f00000000000000000000000000000000000000000000000000000000000000005b6040516001600160a01b039091168152602001610123565b6101a67f000000000000000000000000000000000000000000000000000000000000000081565b6101766104a3565b6101566101fb36600461082b565b6001805460ff1916911515919091179055565b61017661021c366004610851565b6105bc565b60015461011790610100900460ff1681565b610156610241366004610851565b610657565b610176610677565b61015661025c36600461082b565b600180549115156101000261ff0019909216919091179055565b610156610284366004610851565b610704565b6101765f5481565b6001546101179062010000900460ff1681565b6101a67f000000000000000000000000000000000000000000000000000000000000000081565b6001545f9062010000900460ff161561031d5760405162461bcd60e51b815260206004820152600f60248201526e15d2551211149055d7d19052531151608a1b60448201526064015b60405180910390fd5b5f8054831161032c578261032f565b5f545b6040516370a0823160e01b81523060048201529091507f00000000000000000000000000000000000000000000000000000000000000006001600160a01b0316906370a0823190602401602060405180830381865afa158015610394573d5f803e3d5ffd5b505050506040513d601f19601f820116820180604052508101906103b89190610868565b81116103c4578061044a565b6040516370a0823160e01b81523060048201527f00000000000000000000000000000000000000000000000000000000000000006001600160a01b0316906370a0823190602401602060405180830381865afa158015610426573d5f803e3d5ffd5b505050506040513d601f19601f8201168201806040525081019061044a9190610868565b9050805f541161045a575f610467565b805f546104679190610893565b5f5561049d6001600160a01b037f000000000000000000000000000000000000000000000000000000000000000016338361071c565b92915050565b6001545f9062010000900460ff16156104f05760405162461bcd60e51b815260206004820152600f60248201526e15d2551211149055d7d19052531151608a1b6044820152606401610314565b6040516370a0823160e01b81523060048201525f907f00000000000000000000000000000000000000000000000000000000000000006001600160a01b0316906370a0823190602401602060405180830381865afa158015610554573d5f803e3d5ffd5b505050506040513d601f19601f820116820180604052508101906105789190610868565b5f8055905080156105b7576105b76001600160a01b037f000000000000000000000000000000000000000000000000000000000000000016338361071c565b919050565b6001545f90610100900460ff16156106075760405162461bcd60e51b815260206004820152600e60248201526d11115413d4d25517d1905253115160921b6044820152606401610314565b61063c6001600160a01b037f000000000000000000000000000000000000000000000000000000000000000016333085610780565b815f8082825461064c91906108a6565b909155509192915050565b805f5411610665575f610672565b805f546106729190610893565b5f5550565b6040516370a0823160e01b81523060048201525f907f00000000000000000000000000000000000000000000000000000000000000006001600160a01b0316906370a0823190602401602060405180830381865afa1580156106db573d5f803e3d5ffd5b505050506040513d601f19601f820116820180604052508101906106ff9190610868565b905090565b805f8082825461071491906108a6565b909155505050565b6040516001600160a01b0383811660248301526044820183905261077b91859182169063a9059cbb906064015b604051602081830303815290604052915060e01b6020820180516001600160e01b0383818316178352505050506107bf565b505050565b6040516001600160a01b0384811660248301528381166044830152606482018390526107b99186918216906323b872dd90608401610749565b50505050565b5f8060205f8451602086015f885af1806107de576040513d5f823e3d81fd5b50505f513d915081156107f5578060011415610802565b6001600160a01b0384163b155b156107b957604051635274afe760e01b81526001600160a01b0385166004820152602401610314565b5f6020828403121561083b575f80fd5b8135801515811461084a575f80fd5b9392505050565b5f60208284031215610861575f80fd5b5035919050565b5f60208284031215610878575f80fd5b5051919050565b634e487b7160e01b5f52601160045260245ffd5b8181038181111561049d5761049d61087f565b8082018082111561049d5761049d61087f56fea264697066735822122081affbd6721d46b133e07aac4e90c533c82e2c35cc99596573ce2ae2ba2fa0f864736f6c634300081a0033","linkReferences":{}},"methodIdentifiers":{"_asset()":"fcea5e29","active()":"02fb0c5e","asset()":"38d52e0f","deposit(uint256)":"b6b55f25","depositShouldFail()":"bd0140f9","deposited()":"eef49ee3","isActive()":"22f3e2d4","setActive(bool)":"acec338a","setDepositShouldFail(bool)":"e4280ed3","setWithdrawShouldFail(bool)":"21a03202","simulateLoss(uint256)":"c5abea6a","simulateYield(uint256)":"e7ca856d","totalValue()":"d4c3eea0","treasury()":"61d027b3","withdraw(uint256)":"2e1a7d4d","withdrawAll()":"853828b6","withdrawShouldFail()":"fc3b1203"},"id":54}