{"abi":[{"type":"constructor","inputs":[],"stateMutability":"nonpayable"},{"type":"function","name":"completeTransfer","inputs":[{"name":"","type":"bytes","internalType":"bytes"}],"outputs":[],"stateMutability":"nonpayable"},{"type":"function","name":"completeTransferAndUnwrapETH","inputs":[{"name":"","type":"bytes","internalType":"bytes"}],"outputs":[],"stateMutability":"nonpayable"},{"type":"function","name":"setTransferAmount","inputs":[{"name":"amount","type":"uint256","internalType":"uint256"}],"outputs":[],"stateMutability":"nonpayable"},{"type":"function","name":"setTransferRecipient","inputs":[{"name":"recipient","type":"address","internalType":"address"}],"outputs":[],"stateMutability":"nonpayable"},{"type":"function","name":"setUsdc","inputs":[{"name":"_usdc","type":"address","internalType":"address"}],"outputs":[],"stateMutability":"nonpayable"},{"type":"function","name":"transferAmount","inputs":[],"outputs":[{"name":"","type":"uint256","internalType":"uint256"}],"stateMutability":"view"},{"type":"function","name":"transferRecipient","inputs":[],"outputs":[{"name":"","type":"address","internalType":"address"}],"stateMutability":"view"},{"type":"function","name":"transferTokens","inputs":[{"name":"token","type":"address","internalType":"address"},{"name":"amount","type":"uint256","internalType":"uint256"},{"name":"","type":"uint16","internalType":"uint16"},{"name":"","type":"bytes32","internalType":"bytes32"},{"name":"","type":"uint256","internalType":"uint256"},{"name":"","type":"uint32","internalType":"uint32"}],"outputs":[{"name":"sequence","type":"uint64","internalType":"uint64"}],"stateMutability":"payable"},{"type":"function","name":"transferTokensWithPayload","inputs":[{"name":"token","type":"address","internalType":"address"},{"name":"amount","type":"uint256","internalType":"uint256"},{"name":"","type":"uint16","internalType":"uint16"},{"name":"","type":"bytes32","internalType":"bytes32"},{"name":"","type":"uint32","internalType":"uint32"},{"name":"","type":"bytes","internalType":"bytes"}],"outputs":[{"name":"sequence","type":"uint64","internalType":"uint64"}],"stateMutability":"payable"},{"type":"function","name":"usdc","inputs":[],"outputs":[{"name":"","type":"address","internalType":"contract IERC20"}],"stateMutability":"view"},{"type":"function","name":"wrappedAsset","inputs":[{"name":"","type":"uint16","internalType":"uint16"},{"name":"","type":"bytes32","internalType":"bytes32"}],"outputs":[{"name":"","type":"address","internalType":"address"}],"stateMutability":"view"},{"type":"error","name":"SafeERC20FailedOperation","inputs":[{"name":"token","type":"address","internalType":"address"}]}],"bytecode":{"object":"0x6080604052348015600e575f80fd5b5061078b8061001c5f395ff3fe60806040526004361061009a575f3560e01c80637b8e80bd116100625780637b8e80bd1461017157806381c82233146101af578063c5a5ebda146101ce578063c6878519146101dc578063cb146879146101fb578063ff200cde14610236575f80fd5b80630f5287b01461009e5780631248454c146100cf5780631ff1e286146101065780633e413bee14610130578063504d27fd1461014e575b5f80fd5b6100b16100ac3660046104d8565b610253565b60405167ffffffffffffffff90911681526020015b60405180910390f35b3480156100da575f80fd5b506002546100ee906001600160a01b031681565b6040516001600160a01b0390911681526020016100c6565b348015610111575f80fd5b506100ee610120366004610533565b50505f546001600160a01b031690565b34801561013b575f80fd5b505f546100ee906001600160a01b031681565b348015610159575f80fd5b5061016360015481565b6040519081526020016100c6565b34801561017c575f80fd5b506101ad61018b36600461055b565b600280546001600160a01b0319166001600160a01b0392909216919091179055565b005b3480156101ba575f80fd5b506101ad6101c936600461057b565b600155565b6100b16100ac366004610631565b3480156101e7575f80fd5b506101ad6101f63660046106ad565b610335565b348015610206575f80fd5b506101ad61021536600461055b565b5f80546001600160a01b0319166001600160a01b0392909216919091179055565b348015610241575f80fd5b506101ad6102503660046106ad565b50565b6040516323b872dd60e01b8152336004820152306024820152604481018690525f906001600160a01b038816906323b872dd906064016020604051808303815f875af11580156102a5573d5f803e3d5ffd5b505050506040513d601f19601f820116820180604052508101906102c991906106e7565b5060028054600160a01b900467ffffffffffffffff169060146102eb83610706565b91906101000a81548167ffffffffffffffff021916908367ffffffffffffffff16021790555050600260149054906101000a900467ffffffffffffffff1690509695505050505050565b5f6001541180156103b057506001545f546040516370a0823160e01b81523060048201526001600160a01b03909116906370a0823190602401602060405180830381865afa158015610389573d5f803e3d5ffd5b505050506040513d601f19601f820116820180604052508101906103ad919061073e565b10155b15610250576001545f54610250916001600160a01b03909116903390604080516001600160a01b038416602482015260448082018490528251808303909101815260649091019091526020810180516001600160e01b031663a9059cbb60e01b17905261041e908490610423565b505050565b5f8060205f8451602086015f885af180610442576040513d5f823e3d81fd5b50505f513d91508115610459578060011415610466565b6001600160a01b0384163b155b1561049357604051635274afe760e01b81526001600160a01b038516600482015260240160405180910390fd5b50505050565b80356001600160a01b03811681146104af575f80fd5b919050565b803561ffff811681146104af575f80fd5b803563ffffffff811681146104af575f80fd5b5f805f805f8060c087890312156104ed575f80fd5b6104f687610499565b95506020870135945061050b604088016104b4565b9350606087013592506080870135915061052760a088016104c5565b90509295509295509295565b5f8060408385031215610544575f80fd5b61054d836104b4565b946020939093013593505050565b5f6020828403121561056b575f80fd5b61057482610499565b9392505050565b5f6020828403121561058b575f80fd5b5035919050565b634e487b7160e01b5f52604160045260245ffd5b5f82601f8301126105b5575f80fd5b813567ffffffffffffffff8111156105cf576105cf610592565b604051601f8201601f19908116603f0116810167ffffffffffffffff811182821017156105fe576105fe610592565b604052818152838201602001851015610615575f80fd5b816020850160208301375f918101602001919091529392505050565b5f805f805f8060c08789031215610646575f80fd5b61064f87610499565b955060208701359450610664604088016104b4565b935060608701359250610679608088016104c5565b915060a087013567ffffffffffffffff811115610694575f80fd5b6106a089828a016105a6565b9150509295509295509295565b5f602082840312156106bd575f80fd5b813567ffffffffffffffff8111156106d3575f80fd5b6106df848285016105a6565b949350505050565b5f602082840312156106f7575f80fd5b81518015158114610574575f80fd5b5f67ffffffffffffffff821667ffffffffffffffff810361073557634e487b7160e01b5f52601160045260245ffd5b60010192915050565b5f6020828403121561074e575f80fd5b505191905056fea2646970667358221220bcf9e4ad797f018834abe50903b1d3478025e70d0828f68afa52386afaa10eb664736f6c634300081a0033","linkReferences":{}},"methodIdentifiers":{"completeTransfer(bytes)":"c6878519","completeTransferAndUnwrapETH(bytes)":"ff200cde","setTransferAmount(uint256)":"81c82233","setTransferRecipient(address)":"7b8e80bd","setUsdc(address)":"cb146879","transferAmount()":"504d27fd","transferRecipient()":"1248454c","transferTokens(address,uint256,uint16,bytes32,uint256,uint32)":"0f5287b0","transferTokensWithPayload(address,uint256,uint16,bytes32,uint32,bytes)":"c5a5ebda","usdc()":"3e413bee","wrappedAsset(uint16,bytes32)":"1ff1e286"},"id":60}