{"abi":[{"type":"constructor","inputs":[{"name":"_bridgeCost","type":"uint256","internalType":"uint256"}],"stateMutability":"nonpayable"},{"type":"function","name":"bridgeCost","inputs":[],"outputs":[{"name":"","type":"uint256","internalType":"uint256"}],"stateMutability":"view"},{"type":"function","name":"quoteEVMDeliveryPrice","inputs":[{"name":"","type":"uint16","internalType":"uint16"},{"name":"","type":"uint256","internalType":"uint256"},{"name":"","type":"uint256","internalType":"uint256"}],"outputs":[{"name":"nativePriceQuote","type":"uint256","internalType":"uint256"},{"name":"targetChainRefundPerGasUnused","type":"uint256","internalType":"uint256"}],"stateMutability":"view"},{"type":"function","name":"sendPayloadToEvm","inputs":[{"name":"","type":"uint16","internalType":"uint16"},{"name":"","type":"address","internalType":"address"},{"name":"","type":"bytes","internalType":"bytes"},{"name":"","type":"uint256","internalType":"uint256"},{"name":"","type":"uint256","internalType":"uint256"}],"outputs":[{"name":"sequence","type":"uint64","internalType":"uint64"}],"stateMutability":"payable"}],"bytecode":{"object":"0x6080604052348015600e575f80fd5b5060405161031a38038061031a833981016040819052602b916032565b6001556048565b5f602082840312156041575f80fd5b5051919050565b6102c5806100555f395ff3fe608060405260043610610033575f3560e01c8063751ffb2d146100375780638fecdd021461005f578063c23ee3c31461008b575b5f80fd5b348015610042575f80fd5b5061004c60015481565b6040519081526020015b60405180910390f35b61007261006d366004610136565b6100c5565b60405167ffffffffffffffff9091168152602001610056565b348015610096575f80fd5b506100b06100a5366004610227565b5050600154915f9150565b60408051928352602083019190915201610056565b5f805467ffffffffffffffff1681806100dd83610257565b82546101009290920a67ffffffffffffffff8181021990931691831602179091555f5416979650505050505050565b803561ffff8116811461011d575f80fd5b919050565b634e487b7160e01b5f52604160045260245ffd5b5f805f805f60a0868803121561014a575f80fd5b6101538661010c565b945060208601356001600160a01b038116811461016e575f80fd5b9350604086013567ffffffffffffffff811115610189575f80fd5b8601601f81018813610199575f80fd5b803567ffffffffffffffff8111156101b3576101b3610122565b604051601f8201601f19908116603f0116810167ffffffffffffffff811182821017156101e2576101e2610122565b6040528181528282016020018a10156101f9575f80fd5b816020840160208301375f918101602001919091529598949750949560608101359550608001359392505050565b5f805f60608486031215610239575f80fd5b6102428461010c565b95602085013595506040909401359392505050565b5f67ffffffffffffffff821667ffffffffffffffff810361028657634e487b7160e01b5f52601160045260245ffd5b6001019291505056fea264697066735822122039089081c6d59be87851f4fda7702182f59ca5e25f639ae3d91d449805ab63c764736f6c634300081a0033","linkReferences":{}},"methodIdentifiers":{"bridgeCost()":"751ffb2d","quoteEVMDeliveryPrice(uint16,uint256,uint256)":"c23ee3c3","sendPayloadToEvm(uint16,address,bytes,uint256,uint256)":"8fecdd02"},"id":58}