{"abi":[{"type":"constructor","inputs":[{"name":"_yieldToken","type":"address","internalType":"address"}],"stateMutability":"nonpayable"},{"type":"function","name":"addTokenIn","inputs":[{"name":"token","type":"address","internalType":"address"}],"outputs":[],"stateMutability":"nonpayable"},{"type":"function","name":"addTokenOut","inputs":[{"name":"token","type":"address","internalType":"address"}],"outputs":[],"stateMutability":"nonpayable"},{"type":"function","name":"exchangeRate","inputs":[],"outputs":[{"name":"","type":"uint256","internalType":"uint256"}],"stateMutability":"view"},{"type":"function","name":"getTokensIn","inputs":[],"outputs":[{"name":"","type":"address[]","internalType":"address[]"}],"stateMutability":"view"},{"type":"function","name":"getTokensOut","inputs":[],"outputs":[{"name":"","type":"address[]","internalType":"address[]"}],"stateMutability":"view"},{"type":"function","name":"setExchangeRate","inputs":[{"name":"_rate","type":"uint256","internalType":"uint256"}],"outputs":[],"stateMutability":"nonpayable"},{"type":"function","name":"yieldToken","inputs":[],"outputs":[{"name":"","type":"address","internalType":"address"}],"stateMutability":"view"}],"bytecode":{"object":"0x608060405234801561000f575f80fd5b5060405161043c38038061043c83398101604081905261002e916100c8565b5f80546001600160a01b039092166001600160a01b031992831681178255670de0b6b3a76400006003556001805480820182557fb10e2d527612073b26eecdfd717e6a320cf44b4afac2b0732d9fcbe2b7fa0cf60180548516831790556002805491820181559092527f405787fa12a823e0f2b7631cc41b3ba8828b3321ca811111fa75cd3aa3bb5ace90910180549092161790556100f5565b5f602082840312156100d8575f80fd5b81516001600160a01b03811681146100ee575f80fd5b9392505050565b61033a806101025f395ff3fe608060405234801561000f575f80fd5b506004361061007a575f3560e01c80636737449e116100585780636737449e146100bb57806376d5de851461011b578063827034d214610145578063db068e0e146101a4575f80fd5b8063071bc3c91461007e578063213cae631461009c5780633ba0b9a9146100a4575b5f80fd5b6100866101b7565b6040516100939190610275565b60405180910390f35b610086610217565b6100ad60035481565b604051908152602001610093565b6101196100c93660046102c0565b6001805480820182555f919091527fb10e2d527612073b26eecdfd717e6a320cf44b4afac2b0732d9fcbe2b7fa0cf60180546001600160a01b0319166001600160a01b0392909216919091179055565b005b5f5461012d906001600160a01b031681565b6040516001600160a01b039091168152602001610093565b6101196101533660046102c0565b600280546001810182555f919091527f405787fa12a823e0f2b7631cc41b3ba8828b3321ca811111fa75cd3aa3bb5ace0180546001600160a01b0319166001600160a01b0392909216919091179055565b6101196101b23660046102ed565b600355565b6060600280548060200260200160405190810160405280929190818152602001828054801561020d57602002820191905f5260205f20905b81546001600160a01b031681526001909101906020018083116101ef575b5050505050905090565b6060600180548060200260200160405190810160405280929190818152602001828054801561020d57602002820191905f5260205f209081546001600160a01b031681526001909101906020018083116101ef575050505050905090565b602080825282518282018190525f918401906040840190835b818110156102b55783516001600160a01b031683526020938401939092019160010161028e565b509095945050505050565b5f602082840312156102d0575f80fd5b81356001600160a01b03811681146102e6575f80fd5b9392505050565b5f602082840312156102fd575f80fd5b503591905056fea2646970667358221220b91ec2b656ee6a6154bc2c6a1cceeb2389ca1000625778a71f37e8e58918e77764736f6c634300081a0033","linkReferences":{}},"methodIdentifiers":{"addTokenIn(address)":"6737449e","addTokenOut(address)":"827034d2","exchangeRate()":"3ba0b9a9","getTokensIn()":"213cae63","getTokensOut()":"071bc3c9","setExchangeRate(uint256)":"db068e0e","yieldToken()":"76d5de85"},"id":53}