{"abi":[{"type":"constructor","inputs":[{"name":"_usdc","type":"address","internalType":"address"},{"name":"_ptToken","type":"address","internalType":"address"}],"stateMutability":"nonpayable"},{"type":"function","name":"ptPerUsdc","inputs":[],"outputs":[{"name":"","type":"uint256","internalType":"uint256"}],"stateMutability":"view"},{"type":"function","name":"ptToken","inputs":[],"outputs":[{"name":"","type":"address","internalType":"address"}],"stateMutability":"view"},{"type":"function","name":"redeemPyToToken","inputs":[{"name":"receiver","type":"address","internalType":"address"},{"name":"","type":"address","internalType":"address"},{"name":"netPyIn","type":"uint256","internalType":"uint256"},{"name":"","type":"tuple","internalType":"struct IPendleRouter.TokenOutput","components":[{"name":"tokenOut","type":"address","internalType":"address"},{"name":"minTokenOut","type":"uint256","internalType":"uint256"},{"name":"tokenRedeemSy","type":"address","internalType":"address"},{"name":"pendleSwap","type":"address","internalType":"address"},{"name":"swapData","type":"tuple","internalType":"struct IPendleRouter.SwapData","components":[{"name":"swapType","type":"uint8","internalType":"enum IPendleRouter.SwapType"},{"name":"extRouter","type":"address","internalType":"address"},{"name":"extCalldata","type":"bytes","internalType":"bytes"},{"name":"needScale","type":"bool","internalType":"bool"}]}]}],"outputs":[{"name":"netTokenOut","type":"uint256","internalType":"uint256"},{"name":"netSyFee","type":"uint256","internalType":"uint256"}],"stateMutability":"nonpayable"},{"type":"function","name":"revertReason","inputs":[],"outputs":[{"name":"","type":"string","internalType":"string"}],"stateMutability":"view"},{"type":"function","name":"setRates","inputs":[{"name":"_ptPerUsdc","type":"uint256","internalType":"uint256"},{"name":"_usdcPerPt","type":"uint256","internalType":"uint256"}],"outputs":[],"stateMutability":"nonpayable"},{"type":"function","name":"setShouldRevert","inputs":[{"name":"_shouldRevert","type":"bool","internalType":"bool"},{"name":"_reason","type":"string","internalType":"string"}],"outputs":[],"stateMutability":"nonpayable"},{"type":"function","name":"shouldRevert","inputs":[],"outputs":[{"name":"","type":"bool","internalType":"bool"}],"stateMutability":"view"},{"type":"function","name":"swapExactPtForToken","inputs":[{"name":"receiver","type":"address","internalType":"address"},{"name":"","type":"address","internalType":"address"},{"name":"exactPtIn","type":"uint256","internalType":"uint256"},{"name":"","type":"tuple","internalType":"struct IPendleRouter.TokenOutput","components":[{"name":"tokenOut","type":"address","internalType":"address"},{"name":"minTokenOut","type":"uint256","internalType":"uint256"},{"name":"tokenRedeemSy","type":"address","internalType":"address"},{"name":"pendleSwap","type":"address","internalType":"address"},{"name":"swapData","type":"tuple","internalType":"struct IPendleRouter.SwapData","components":[{"name":"swapType","type":"uint8","internalType":"enum IPendleRouter.SwapType"},{"name":"extRouter","type":"address","internalType":"address"},{"name":"extCalldata","type":"bytes","internalType":"bytes"},{"name":"needScale","type":"bool","internalType":"bool"}]}]},{"name":"","type":"tuple","internalType":"struct IPendleRouter.LimitOrderData","components":[{"name":"limitRouter","type":"address","internalType":"address"},{"name":"epsSkipMarket","type":"uint256","internalType":"uint256"},{"name":"normalFills","type":"tuple[]","internalType":"struct IPendleRouter.FillOrderParams[]","components":[{"name":"order","type":"tuple","internalType":"struct IPendleRouter.Order","components":[{"name":"salt","type":"uint256","internalType":"uint256"},{"name":"expiry","type":"uint256","internalType":"uint256"},{"name":"nonce","type":"uint256","internalType":"uint256"},{"name":"orderType","type":"uint8","internalType":"enum IPendleRouter.OrderType"},{"name":"token","type":"address","internalType":"address"},{"name":"YT","type":"address","internalType":"address"},{"name":"maker","type":"address","internalType":"address"},{"name":"receiver","type":"address","internalType":"address"},{"name":"makingAmount","type":"uint256","internalType":"uint256"},{"name":"lnImpliedRate","type":"uint256","internalType":"uint256"},{"name":"failSafeRate","type":"uint256","internalType":"uint256"},{"name":"permit","type":"bytes","internalType":"bytes"}]},{"name":"signature","type":"bytes","internalType":"bytes"},{"name":"makingAmount","type":"uint256","internalType":"uint256"}]},{"name":"flashFills","type":"tuple[]","internalType":"struct IPendleRouter.FillOrderParams[]","components":[{"name":"order","type":"tuple","internalType":"struct IPendleRouter.Order","components":[{"name":"salt","type":"uint256","internalType":"uint256"},{"name":"expiry","type":"uint256","internalType":"uint256"},{"name":"nonce","type":"uint256","internalType":"uint256"},{"name":"orderType","type":"uint8","internalType":"enum IPendleRouter.OrderType"},{"name":"token","type":"address","internalType":"address"},{"name":"YT","type":"address","internalType":"address"},{"name":"maker","type":"address","internalType":"address"},{"name":"receiver","type":"address","internalType":"address"},{"name":"makingAmount","type":"uint256","internalType":"uint256"},{"name":"lnImpliedRate","type":"uint256","internalType":"uint256"},{"name":"failSafeRate","type":"uint256","internalType":"uint256"},{"name":"permit","type":"bytes","internalType":"bytes"}]},{"name":"signature","type":"bytes","internalType":"bytes"},{"name":"makingAmount","type":"uint256","internalType":"uint256"}]},{"name":"optData","type":"bytes","internalType":"bytes"}]}],"outputs":[{"name":"netTokenOut","type":"uint256","internalType":"uint256"},{"name":"netSyFee","type":"uint256","internalType":"uint256"},{"name":"netSyInterm","type":"uint256","internalType":"uint256"}],"stateMutability":"nonpayable"},{"type":"function","name":"swapExactTokenForPt","inputs":[{"name":"receiver","type":"address","internalType":"address"},{"name":"","type":"address","internalType":"address"},{"name":"","type":"uint256","internalType":"uint256"},{"name":"","type":"tuple","internalType":"struct IPendleRouter.ApproxParams","components":[{"name":"guessMin","type":"uint256","internalType":"uint256"},{"name":"guessMax","type":"uint256","internalType":"uint256"},{"name":"guessOffchain","type":"uint256","internalType":"uint256"},{"name":"maxIteration","type":"uint256","internalType":"uint256"},{"name":"eps","type":"uint256","internalType":"uint256"}]},{"name":"input","type":"tuple","internalType":"struct IPendleRouter.TokenInput","components":[{"name":"tokenIn","type":"address","internalType":"address"},{"name":"netTokenIn","type":"uint256","internalType":"uint256"},{"name":"tokenMintSy","type":"address","internalType":"address"},{"name":"pendleSwap","type":"address","internalType":"address"},{"name":"swapData","type":"tuple","internalType":"struct IPendleRouter.SwapData","components":[{"name":"swapType","type":"uint8","internalType":"enum IPendleRouter.SwapType"},{"name":"extRouter","type":"address","internalType":"address"},{"name":"extCalldata","type":"bytes","internalType":"bytes"},{"name":"needScale","type":"bool","internalType":"bool"}]}]},{"name":"","type":"tuple","internalType":"struct IPendleRouter.LimitOrderData","components":[{"name":"limitRouter","type":"address","internalType":"address"},{"name":"epsSkipMarket","type":"uint256","internalType":"uint256"},{"name":"normalFills","type":"tuple[]","internalType":"struct IPendleRouter.FillOrderParams[]","components":[{"name":"order","type":"tuple","internalType":"struct IPendleRouter.Order","components":[{"name":"salt","type":"uint256","internalType":"uint256"},{"name":"expiry","type":"uint256","internalType":"uint256"},{"name":"nonce","type":"uint256","internalType":"uint256"},{"name":"orderType","type":"uint8","internalType":"enum IPendleRouter.OrderType"},{"name":"token","type":"address","internalType":"address"},{"name":"YT","type":"address","internalType":"address"},{"name":"maker","type":"address","internalType":"address"},{"name":"receiver","type":"address","internalType":"address"},{"name":"makingAmount","type":"uint256","internalType":"uint256"},{"name":"lnImpliedRate","type":"uint256","internalType":"uint256"},{"name":"failSafeRate","type":"uint256","internalType":"uint256"},{"name":"permit","type":"bytes","internalType":"bytes"}]},{"name":"signature","type":"bytes","internalType":"bytes"},{"name":"makingAmount","type":"uint256","internalType":"uint256"}]},{"name":"flashFills","type":"tuple[]","internalType":"struct IPendleRouter.FillOrderParams[]","components":[{"name":"order","type":"tuple","internalType":"struct IPendleRouter.Order","components":[{"name":"salt","type":"uint256","internalType":"uint256"},{"name":"expiry","type":"uint256","internalType":"uint256"},{"name":"nonce","type":"uint256","internalType":"uint256"},{"name":"orderType","type":"uint8","internalType":"enum IPendleRouter.OrderType"},{"name":"token","type":"address","internalType":"address"},{"name":"YT","type":"address","internalType":"address"},{"name":"maker","type":"address","internalType":"address"},{"name":"receiver","type":"address","internalType":"address"},{"name":"makingAmount","type":"uint256","internalType":"uint256"},{"name":"lnImpliedRate","type":"uint256","internalType":"uint256"},{"name":"failSafeRate","type":"uint256","internalType":"uint256"},{"name":"permit","type":"bytes","internalType":"bytes"}]},{"name":"signature","type":"bytes","internalType":"bytes"},{"name":"makingAmount","type":"uint256","internalType":"uint256"}]},{"name":"optData","type":"bytes","internalType":"bytes"}]}],"outputs":[{"name":"netPtOut","type":"uint256","internalType":"uint256"},{"name":"netSyFee","type":"uint256","internalType":"uint256"},{"name":"netSyInterm","type":"uint256","internalType":"uint256"}],"stateMutability":"payable"},{"type":"function","name":"usdc","inputs":[],"outputs":[{"name":"","type":"address","internalType":"address"}],"stateMutability":"view"},{"type":"function","name":"usdcPerPt","inputs":[],"outputs":[{"name":"","type":"uint256","internalType":"uint256"}],"stateMutability":"view"},{"type":"error","name":"SafeERC20FailedOperation","inputs":[{"name":"token","type":"address","internalType":"address"}]}],"bytecode":{"object":"0x6080604052620f4240600255620f4240600355348015601c575f80fd5b50604051610c99380380610c998339810160408190526039916082565b5f80546001600160a01b039384166001600160a01b0319918216179091556001805492909316911617905560ae565b80516001600160a01b0381168114607d575f80fd5b919050565b5f80604083850312156092575f80fd5b6099836068565b915060a5602084016068565b90509250929050565b610bde806100bb5f395ff3fe60806040526004361061009a575f3560e01c806367c63ed31161006257806367c63ed3146101895780636f3f3a58146101ac578063ac6af280146101c1578063c81f847a146101e6578063d3072d82146101f9578063e018b0ef14610222575f80fd5b8063054cabe01461009e5780633e413bee146100bf57806347f1de22146100fa578063594a88cc1461012e57806361b5b63614610168575b5f80fd5b3480156100a9575f80fd5b506100bd6100b83660046106f0565b610241565b005b3480156100ca575f80fd5b505f546100dd906001600160a01b031681565b6040516001600160a01b0390911681526020015b60405180910390f35b348015610105575f80fd5b506101196101143660046107a5565b610262565b604080519283526020830191909152016100f1565b348015610139575f80fd5b5061014d610148366004610809565b610396565b604080519384526020840192909252908201526060016100f1565b348015610173575f80fd5b5061017c6104c7565b6040516100f19190610897565b348015610194575f80fd5b5061019e60025481565b6040519081526020016100f1565b3480156101b7575f80fd5b5061019e60035481565b3480156101cc575f80fd5b506100bd6101db3660046108cc565b600291909155600355565b61014d6101f43660046108ec565b610553565b348015610204575f80fd5b506004546102129060ff1681565b60405190151581526020016100f1565b34801561022d575f80fd5b506001546100dd906001600160a01b031681565b6004805460ff1916841515179055600561025c828483610a1f565b50505050565b6004545f90819060ff161561029557600560405162461bcd60e51b815260040161028c9190610ad9565b60405180910390fd5b6001546102ad906001600160a01b031633308761062d565b600154604051632770a7eb60e21b8152306004820152602481018690526001600160a01b0390911690639dc29fac906044015f604051808303815f87803b1580156102f6575f80fd5b505af1158015610308573d5f803e3d5ffd5b50505050620f42406003548561031e9190610b60565b6103289190610b89565b5f546040516340c10f1960e01b81526001600160a01b038981166004830152602482018490529294509116906340c10f19906044015f604051808303815f87803b158015610374575f80fd5b505af1158015610386573d5f803e3d5ffd5b505050505f905094509492505050565b6004545f908190819060ff16156103c257600560405162461bcd60e51b815260040161028c9190610ad9565b6001546103da906001600160a01b031633308961062d565b600154604051632770a7eb60e21b8152306004820152602481018890526001600160a01b0390911690639dc29fac906044015f604051808303815f87803b158015610423575f80fd5b505af1158015610435573d5f803e3d5ffd5b50505050620f42406003548761044b9190610b60565b6104559190610b89565b5f546040516340c10f1960e01b81526001600160a01b038b81166004830152602482018490529295509116906340c10f19906044015f604051808303815f87803b1580156104a1575f80fd5b505af11580156104b3573d5f803e3d5ffd5b50949a5f9a508a9950975050505050505050565b600580546104d4906109a1565b80601f0160208091040260200160405190810160405280929190818152602001828054610500906109a1565b801561054b5780601f106105225761010080835404028352916020019161054b565b820191905f5260205f20905b81548152906001019060200180831161052e57829003601f168201915b505050505081565b6004545f908190819060ff161561057f57600560405162461bcd60e51b815260040161028c9190610ad9565b5f5460208601359061059c906001600160a01b031633308461062d565b620f4240600254826105ae9190610b60565b6105b89190610b89565b6001546040516340c10f1960e01b81526001600160a01b038d81166004830152602482018490529296509116906340c10f19906044015f604051808303815f87803b158015610605575f80fd5b505af1158015610617573d5f803e3d5ffd5b50959c5f9c508c9b509950505050505050505050565b604080516001600160a01b038581166024830152841660448201526064808201849052825180830390910181526084909101909152602080820180516001600160e01b03166323b872dd60e01b178152825161025c93889390925f9283929183919082885af1806106a3576040513d5f823e3d81fd5b50505f513d915081156106ba5780600114156106c7565b6001600160a01b0384163b155b1561025c57604051635274afe760e01b81526001600160a01b038516600482015260240161028c565b5f805f60408486031215610702575f80fd5b83358015158114610711575f80fd5b9250602084013567ffffffffffffffff81111561072c575f80fd5b8401601f8101861361073c575f80fd5b803567ffffffffffffffff811115610752575f80fd5b866020828401011115610763575f80fd5b939660209190910195509293505050565b80356001600160a01b038116811461078a575f80fd5b919050565b5f60a0828403121561079f575f80fd5b50919050565b5f805f80608085870312156107b8575f80fd5b6107c185610774565b93506107cf60208601610774565b925060408501359150606085013567ffffffffffffffff8111156107f1575f80fd5b6107fd8782880161078f565b91505092959194509250565b5f805f805f60a0868803121561081d575f80fd5b61082686610774565b945061083460208701610774565b935060408601359250606086013567ffffffffffffffff811115610856575f80fd5b6108628882890161078f565b925050608086013567ffffffffffffffff81111561087e575f80fd5b61088a8882890161078f565b9150509295509295909350565b602081525f82518060208401528060208501604085015e5f604082850101526040601f19601f83011684010191505092915050565b5f80604083850312156108dd575f80fd5b50508035926020909101359150565b5f805f805f806101408789031215610902575f80fd5b61090b87610774565b955061091960208801610774565b94506040870135935061092f886060890161078f565b925061010087013567ffffffffffffffff81111561094b575f80fd5b61095789828a0161078f565b92505061012087013567ffffffffffffffff811115610974575f80fd5b61098089828a0161078f565b9150509295509295509295565b634e487b7160e01b5f52604160045260245ffd5b600181811c908216806109b557607f821691505b60208210810361079f57634e487b7160e01b5f52602260045260245ffd5b601f821115610a1a57805f5260205f20601f840160051c810160208510156109f85750805b601f840160051c820191505b81811015610a17575f8155600101610a04565b50505b505050565b67ffffffffffffffff831115610a3757610a3761098d565b610a4b83610a4583546109a1565b836109d3565b5f601f841160018114610a7c575f8515610a655750838201355b5f19600387901b1c1916600186901b178355610a17565b5f83815260208120601f198716915b82811015610aab5786850135825560209485019460019092019101610a8b565b5086821015610ac7575f1960f88860031b161c19848701351681555b505060018560011b0183555050505050565b602081525f808354610aea816109a1565b806020860152600182165f8114610b085760018114610b2457610b55565b60ff1983166040870152604082151560051b8701019350610b55565b865f5260205f205f5b83811015610b4c57815488820160400152600190910190602001610b2d565b87016040019450505b509195945050505050565b8082028115828204841417610b8357634e487b7160e01b5f52601160045260245ffd5b92915050565b5f82610ba357634e487b7160e01b5f52601260045260245ffd5b50049056fea2646970667358221220c0b15a6090c19e8d355ab7e23343dd922301468a3613a2ff28af675dcd5988f764736f6c634300081a0033","linkReferences":{}},"methodIdentifiers":{"ptPerUsdc()":"67c63ed3","ptToken()":"e018b0ef","redeemPyToToken(address,address,uint256,(address,uint256,address,address,(uint8,address,bytes,bool)))":"47f1de22","revertReason()":"61b5b636","setRates(uint256,uint256)":"ac6af280","setShouldRevert(bool,string)":"054cabe0","shouldRevert()":"d3072d82","swapExactPtForToken(address,address,uint256,(address,uint256,address,address,(uint8,address,bytes,bool)),(address,uint256,((uint256,uint256,uint256,uint8,address,address,address,address,uint256,uint256,uint256,bytes),bytes,uint256)[],((uint256,uint256,uint256,uint8,address,address,address,address,uint256,uint256,uint256,bytes),bytes,uint256)[],bytes))":"594a88cc","swapExactTokenForPt(address,address,uint256,(uint256,uint256,uint256,uint256,uint256),(address,uint256,address,address,(uint8,address,bytes,bool)),(address,uint256,((uint256,uint256,uint256,uint8,address,address,address,address,uint256,uint256,uint256,bytes),bytes,uint256)[],((uint256,uint256,uint256,uint8,address,address,address,address,uint256,uint256,uint256,bytes),bytes,uint256)[],bytes))":"c81f847a","usdc()":"3e413bee","usdcPerPt()":"6f3f3a58"},"id":50}