{"abi":[{"type":"constructor","inputs":[],"stateMutability":"nonpayable"},{"type":"function","name":"ADMIN_DELAY","inputs":[],"outputs":[{"name":"","type":"uint256","internalType":"uint256"}],"stateMutability":"view"},{"type":"function","name":"BORROW_MODULE_ROLE","inputs":[],"outputs":[{"name":"","type":"bytes32","internalType":"bytes32"}],"stateMutability":"view"},{"type":"function","name":"DEFAULT_ADMIN_ROLE","inputs":[],"outputs":[{"name":"","type":"bytes32","internalType":"bytes32"}],"stateMutability":"view"},{"type":"function","name":"LEVERAGE_VAULT_ROLE","inputs":[],"outputs":[{"name":"","type":"bytes32","internalType":"bytes32"}],"stateMutability":"view"},{"type":"function","name":"LIQUIDATION_ROLE","inputs":[],"outputs":[{"name":"","type":"bytes32","internalType":"bytes32"}],"stateMutability":"view"},{"type":"function","name":"PAUSER_ROLE","inputs":[],"outputs":[{"name":"","type":"bytes32","internalType":"bytes32"}],"stateMutability":"view"},{"type":"function","name":"VAULT_ADMIN_ROLE","inputs":[],"outputs":[{"name":"","type":"bytes32","internalType":"bytes32"}],"stateMutability":"view"},{"type":"function","name":"borrowModule","inputs":[],"outputs":[{"name":"","type":"address","internalType":"address"}],"stateMutability":"view"},{"type":"function","name":"cancelAddCollateral","inputs":[],"outputs":[],"stateMutability":"nonpayable"},{"type":"function","name":"cancelBorrowModule","inputs":[],"outputs":[],"stateMutability":"nonpayable"},{"type":"function","name":"cancelUpdateCollateral","inputs":[],"outputs":[],"stateMutability":"nonpayable"},{"type":"function","name":"collateralConfigs","inputs":[{"name":"","type":"address","internalType":"address"}],"outputs":[{"name":"enabled","type":"bool","internalType":"bool"},{"name":"collateralFactorBps","type":"uint256","internalType":"uint256"},{"name":"liquidationThresholdBps","type":"uint256","internalType":"uint256"},{"name":"liquidationPenaltyBps","type":"uint256","internalType":"uint256"}],"stateMutability":"view"},{"type":"function","name":"deposit","inputs":[{"name":"token","type":"address","internalType":"address"},{"name":"amount","type":"uint256","internalType":"uint256"}],"outputs":[],"stateMutability":"nonpayable"},{"type":"function","name":"depositFor","inputs":[{"name":"user","type":"address","internalType":"address"},{"name":"token","type":"address","internalType":"address"},{"name":"amount","type":"uint256","internalType":"uint256"}],"outputs":[],"stateMutability":"nonpayable"},{"type":"function","name":"deposits","inputs":[{"name":"","type":"address","internalType":"address"},{"name":"","type":"address","internalType":"address"}],"outputs":[{"name":"","type":"uint256","internalType":"uint256"}],"stateMutability":"view"},{"type":"function","name":"disableCollateral","inputs":[{"name":"token","type":"address","internalType":"address"}],"outputs":[],"stateMutability":"nonpayable"},{"type":"function","name":"enableCollateral","inputs":[{"name":"token","type":"address","internalType":"address"}],"outputs":[],"stateMutability":"nonpayable"},{"type":"function","name":"executeAddCollateral","inputs":[],"outputs":[],"stateMutability":"nonpayable"},{"type":"function","name":"executeBorrowModule","inputs":[],"outputs":[],"stateMutability":"nonpayable"},{"type":"function","name":"executeUpdateCollateral","inputs":[],"outputs":[],"stateMutability":"nonpayable"},{"type":"function","name":"getConfig","inputs":[{"name":"token","type":"address","internalType":"address"}],"outputs":[{"name":"enabled","type":"bool","internalType":"bool"},{"name":"collateralFactorBps","type":"uint256","internalType":"uint256"},{"name":"liquidationThresholdBps","type":"uint256","internalType":"uint256"},{"name":"liquidationPenaltyBps","type":"uint256","internalType":"uint256"}],"stateMutability":"view"},{"type":"function","name":"getDeposit","inputs":[{"name":"user","type":"address","internalType":"address"},{"name":"token","type":"address","internalType":"address"}],"outputs":[{"name":"","type":"uint256","internalType":"uint256"}],"stateMutability":"view"},{"type":"function","name":"getRoleAdmin","inputs":[{"name":"role","type":"bytes32","internalType":"bytes32"}],"outputs":[{"name":"","type":"bytes32","internalType":"bytes32"}],"stateMutability":"view"},{"type":"function","name":"getSupportedTokens","inputs":[],"outputs":[{"name":"","type":"address[]","internalType":"address[]"}],"stateMutability":"view"},{"type":"function","name":"grantRole","inputs":[{"name":"role","type":"bytes32","internalType":"bytes32"},{"name":"account","type":"address","internalType":"address"}],"outputs":[],"stateMutability":"nonpayable"},{"type":"function","name":"hasRole","inputs":[{"name":"role","type":"bytes32","internalType":"bytes32"},{"name":"account","type":"address","internalType":"address"}],"outputs":[{"name":"","type":"bool","internalType":"bool"}],"stateMutability":"view"},{"type":"function","name":"pause","inputs":[],"outputs":[],"stateMutability":"nonpayable"},{"type":"function","name":"paused","inputs":[],"outputs":[{"name":"","type":"bool","internalType":"bool"}],"stateMutability":"view"},{"type":"function","name":"pendingAddCollateral","inputs":[],"outputs":[{"name":"token","type":"address","internalType":"address"},{"name":"collateralFactorBps","type":"uint256","internalType":"uint256"},{"name":"liquidationThresholdBps","type":"uint256","internalType":"uint256"},{"name":"liquidationPenaltyBps","type":"uint256","internalType":"uint256"},{"name":"requestTime","type":"uint256","internalType":"uint256"}],"stateMutability":"view"},{"type":"function","name":"pendingBorrowModule","inputs":[],"outputs":[{"name":"","type":"address","internalType":"address"}],"stateMutability":"view"},{"type":"function","name":"pendingBorrowModuleTime","inputs":[],"outputs":[{"name":"","type":"uint256","internalType":"uint256"}],"stateMutability":"view"},{"type":"function","name":"pendingUpdateCollateral","inputs":[],"outputs":[{"name":"token","type":"address","internalType":"address"},{"name":"collateralFactorBps","type":"uint256","internalType":"uint256"},{"name":"liquidationThresholdBps","type":"uint256","internalType":"uint256"},{"name":"liquidationPenaltyBps","type":"uint256","internalType":"uint256"},{"name":"requestTime","type":"uint256","internalType":"uint256"}],"stateMutability":"view"},{"type":"function","name":"renounceRole","inputs":[{"name":"role","type":"bytes32","internalType":"bytes32"},{"name":"callerConfirmation","type":"address","internalType":"address"}],"outputs":[],"stateMutability":"nonpayable"},{"type":"function","name":"requestAddCollateral","inputs":[{"name":"token","type":"address","internalType":"address"},{"name":"collateralFactorBps","type":"uint256","internalType":"uint256"},{"name":"liquidationThresholdBps","type":"uint256","internalType":"uint256"},{"name":"liquidationPenaltyBps","type":"uint256","internalType":"uint256"}],"outputs":[],"stateMutability":"nonpayable"},{"type":"function","name":"requestBorrowModule","inputs":[{"name":"_borrowModule","type":"address","internalType":"address"}],"outputs":[],"stateMutability":"nonpayable"},{"type":"function","name":"requestUpdateCollateral","inputs":[{"name":"token","type":"address","internalType":"address"},{"name":"collateralFactorBps","type":"uint256","internalType":"uint256"},{"name":"liquidationThresholdBps","type":"uint256","internalType":"uint256"},{"name":"liquidationPenaltyBps","type":"uint256","internalType":"uint256"}],"outputs":[],"stateMutability":"nonpayable"},{"type":"function","name":"revokeRole","inputs":[{"name":"role","type":"bytes32","internalType":"bytes32"},{"name":"account","type":"address","internalType":"address"}],"outputs":[],"stateMutability":"nonpayable"},{"type":"function","name":"seize","inputs":[{"name":"user","type":"address","internalType":"address"},{"name":"token","type":"address","internalType":"address"},{"name":"amount","type":"uint256","internalType":"uint256"},{"name":"liquidator","type":"address","internalType":"address"}],"outputs":[],"stateMutability":"nonpayable"},{"type":"function","name":"supportedTokens","inputs":[{"name":"","type":"uint256","internalType":"uint256"}],"outputs":[{"name":"","type":"address","internalType":"address"}],"stateMutability":"view"},{"type":"function","name":"supportsInterface","inputs":[{"name":"interfaceId","type":"bytes4","internalType":"bytes4"}],"outputs":[{"name":"","type":"bool","internalType":"bool"}],"stateMutability":"view"},{"type":"function","name":"unpause","inputs":[],"outputs":[],"stateMutability":"nonpayable"},{"type":"function","name":"withdraw","inputs":[{"name":"token","type":"address","internalType":"address"},{"name":"amount","type":"uint256","internalType":"uint256"},{"name":"user","type":"address","internalType":"address"}],"outputs":[],"stateMutability":"nonpayable"},{"type":"function","name":"withdrawFor","inputs":[{"name":"user","type":"address","internalType":"address"},{"name":"token","type":"address","internalType":"address"},{"name":"amount","type":"uint256","internalType":"uint256"},{"name":"recipient","type":"address","internalType":"address"},{"name":"skipHealthCheck","type":"bool","internalType":"bool"}],"outputs":[],"stateMutability":"nonpayable"},{"type":"event","name":"BorrowModuleChangeCancelled","inputs":[{"name":"module","type":"address","indexed":true,"internalType":"address"}],"anonymous":false},{"type":"event","name":"BorrowModuleChangeRequested","inputs":[{"name":"module","type":"address","indexed":true,"internalType":"address"},{"name":"readyAt","type":"uint256","indexed":false,"internalType":"uint256"}],"anonymous":false},{"type":"event","name":"BorrowModuleUpdated","inputs":[{"name":"oldModule","type":"address","indexed":true,"internalType":"address"},{"name":"newModule","type":"address","indexed":true,"internalType":"address"}],"anonymous":false},{"type":"event","name":"CollateralAddCancelled","inputs":[{"name":"token","type":"address","indexed":true,"internalType":"address"}],"anonymous":false},{"type":"event","name":"CollateralAddRequested","inputs":[{"name":"token","type":"address","indexed":true,"internalType":"address"},{"name":"factorBps","type":"uint256","indexed":false,"internalType":"uint256"},{"name":"liqThreshold","type":"uint256","indexed":false,"internalType":"uint256"},{"name":"readyAt","type":"uint256","indexed":false,"internalType":"uint256"}],"anonymous":false},{"type":"event","name":"CollateralAdded","inputs":[{"name":"token","type":"address","indexed":true,"internalType":"address"},{"name":"collateralFactorBps","type":"uint256","indexed":false,"internalType":"uint256"},{"name":"liquidationThresholdBps","type":"uint256","indexed":false,"internalType":"uint256"}],"anonymous":false},{"type":"event","name":"CollateralDisabled","inputs":[{"name":"token","type":"address","indexed":true,"internalType":"address"}],"anonymous":false},{"type":"event","name":"CollateralEnabled","inputs":[{"name":"token","type":"address","indexed":true,"internalType":"address"}],"anonymous":false},{"type":"event","name":"CollateralUpdateCancelled","inputs":[{"name":"token","type":"address","indexed":true,"internalType":"address"}],"anonymous":false},{"type":"event","name":"CollateralUpdateRequested","inputs":[{"name":"token","type":"address","indexed":true,"internalType":"address"},{"name":"factorBps","type":"uint256","indexed":false,"internalType":"uint256"},{"name":"liqThreshold","type":"uint256","indexed":false,"internalType":"uint256"},{"name":"readyAt","type":"uint256","indexed":false,"internalType":"uint256"}],"anonymous":false},{"type":"event","name":"CollateralUpdated","inputs":[{"name":"token","type":"address","indexed":true,"internalType":"address"},{"name":"collateralFactorBps","type":"uint256","indexed":false,"internalType":"uint256"},{"name":"liquidationThresholdBps","type":"uint256","indexed":false,"internalType":"uint256"}],"anonymous":false},{"type":"event","name":"Deposited","inputs":[{"name":"user","type":"address","indexed":true,"internalType":"address"},{"name":"token","type":"address","indexed":true,"internalType":"address"},{"name":"amount","type":"uint256","indexed":false,"internalType":"uint256"}],"anonymous":false},{"type":"event","name":"Paused","inputs":[{"name":"account","type":"address","indexed":false,"internalType":"address"}],"anonymous":false},{"type":"event","name":"RoleAdminChanged","inputs":[{"name":"role","type":"bytes32","indexed":true,"internalType":"bytes32"},{"name":"previousAdminRole","type":"bytes32","indexed":true,"internalType":"bytes32"},{"name":"newAdminRole","type":"bytes32","indexed":true,"internalType":"bytes32"}],"anonymous":false},{"type":"event","name":"RoleGranted","inputs":[{"name":"role","type":"bytes32","indexed":true,"internalType":"bytes32"},{"name":"account","type":"address","indexed":true,"internalType":"address"},{"name":"sender","type":"address","indexed":true,"internalType":"address"}],"anonymous":false},{"type":"event","name":"RoleRevoked","inputs":[{"name":"role","type":"bytes32","indexed":true,"internalType":"bytes32"},{"name":"account","type":"address","indexed":true,"internalType":"address"},{"name":"sender","type":"address","indexed":true,"internalType":"address"}],"anonymous":false},{"type":"event","name":"Seized","inputs":[{"name":"user","type":"address","indexed":true,"internalType":"address"},{"name":"token","type":"address","indexed":true,"internalType":"address"},{"name":"amount","type":"uint256","indexed":false,"internalType":"uint256"},{"name":"liquidator","type":"address","indexed":true,"internalType":"address"}],"anonymous":false},{"type":"event","name":"Unpaused","inputs":[{"name":"account","type":"address","indexed":false,"internalType":"address"}],"anonymous":false},{"type":"event","name":"Withdrawn","inputs":[{"name":"user","type":"address","indexed":true,"internalType":"address"},{"name":"token","type":"address","indexed":true,"internalType":"address"},{"name":"amount","type":"uint256","indexed":false,"internalType":"uint256"}],"anonymous":false},{"type":"error","name":"AccessControlBadConfirmation","inputs":[]},{"type":"error","name":"AccessControlUnauthorizedAccount","inputs":[{"name":"account","type":"address","internalType":"address"},{"name":"neededRole","type":"bytes32","internalType":"bytes32"}]},{"type":"error","name":"EnforcedPause","inputs":[]},{"type":"error","name":"ExpectedPause","inputs":[]},{"type":"error","name":"ReentrancyGuardReentrantCall","inputs":[]},{"type":"error","name":"SafeERC20FailedOperation","inputs":[{"name":"token","type":"address","internalType":"address"}]}],"bytecode":{"object":"0x608060405234801561000f575f80fd5b506001805561001e5f3361004f565b506100497f7edcee67725a77bfa311b39349d7e96df9b23fbdbdcb328dfc17d77926920c133361004f565b506100f8565b5f828152602081815260408083206001600160a01b038516845290915281205460ff166100ef575f838152602081815260408083206001600160a01b03861684529091529020805460ff191660011790556100a73390565b6001600160a01b0316826001600160a01b0316847f2f8788117e7eff1d82e926ec794901d17c78024a50270940304540a733656f0d60405160405180910390a45060016100f2565b505f5b92915050565b612762806101055f395ff3fe608060405234801561000f575f80fd5b5060043610610260575f3560e01c80638cf18e641161014b578063c35082a9116100bf578063d3c7c2c711610084578063d3c7c2c714610614578063d547741f14610629578063e48a5f7b1461063c578063e63ab1e91461067c578063e9115a9d146106a3578063f17a8e8a146106ab575f80fd5b8063c35082a91461059b578063c6255626146105d3578063c8491cda146105e6578063cb0694a1146105f9578063cb1b7ac114610601575f80fd5b8063a217fddf11610110578063a217fddf1461051c578063a30811c814610523578063ae0e012514610536578063b31659501461055d578063b3db428b14610580578063b8da004b14610593575f80fd5b80638cf18e64146104655780638f601f66146104c157806391d14854146104eb57806392ffacac146104fe5780639e34111914610508575f80fd5b806347e7ef24116101e2578063684c3b59116101a7578063684c3b591461041457806369328dec146104275780636d8813141461043a57806375c038b7146104425780637956cd0c146104555780638456cb591461045d575f80fd5b806347e7ef24146103905780635283e72f146103a357806358dedee3146103f857806359b98674146104005780635c975abb14610409575f80fd5b806325384fd81161022857806325384fd81461030b5780632f2ff15d1461033b57806336568abe1461034e5780633d34e3e4146103615780633f4ba83a14610388575f80fd5b806301ffc9a714610264578063071ea3e31461028c57806311be0de5146102a157806319833dd1146102b4578063248a9ca3146102e9575b5f80fd5b61027761027236600461237d565b6106be565b60405190151581526020015b60405180910390f35b61029f61029a3660046123c6565b6106f4565b005b61029f6102af366004612428565b6109fe565b6102db7fed5c12ee051a37a1c77138a0efb16a50dc2d175d59f2b1373c4195c4721cf9cb81565b604051908152602001610283565b6102db6102f7366004612441565b5f9081526020819052604090206001015490565b6002546103239061010090046001600160a01b031681565b6040516001600160a01b039091168152602001610283565b61029f610349366004612458565b610b19565b61029f61035c366004612458565b610b43565b6102db7f62f9f791f044a997d2927869f031db85cde39144d6412d7269c2c98c5304326b81565b61029f610b7b565b61029f61039e366004612482565b610b90565b600d54600e54600f546010546011546103c6946001600160a01b03169392919085565b604080516001600160a01b0390961686526020860194909452928401919091526060830152608082015260a001610283565b61029f610dbb565b6102db60075481565b60025460ff16610277565b61029f6104223660046124aa565b611016565b61029f6104353660046124e0565b61121a565b61029f61135d565b61029f610450366004612428565b611447565b61029f6114de565b61029f61166a565b61049f610473366004612428565b600360208190525f9182526040909120805460018201546002830154929093015460ff90911692919084565b6040805194151585526020850193909352918301526060820152608001610283565b6102db6104cf366004612519565b600560209081525f928352604080842090915290825290205481565b6102776104f9366004612458565b61169c565b6102db6202a30081565b6102db5f8051602061270d83398151915281565b6102db5f81565b61029f610531366004612541565b6116c4565b6102db7f78dee7707521b7c9b92b1070cc1d51daeefd47d09898061ee53bff95426cbe5481565b600854600954600a54600b54600c546103c6946001600160a01b03169392919085565b61029f61058e36600461258b565b611821565b61029f611aca565b6102db6105a9366004612519565b6001600160a01b039182165f90815260056020908152604080832093909416825291909152205490565b6103236105e1366004612441565b611b40565b600654610323906001600160a01b031681565b61029f611b68565b61029f61060f3660046124aa565b611bde565b61061c611e68565b60405161028391906125c5565b61029f610637366004612458565b611ec8565b61049f61064a366004612428565b6001600160a01b03165f908152600360208190526040909120805460018201546002830154929093015460ff90911693565b6102db7f65d7a28e3265b37a6474929f336521b332c1681b933f6cb9f3376673440d862a81565b61029f611eec565b61029f6106b9366004612428565b611f53565b5f6001600160e01b03198216637965db0b60e01b14806106ee57506301ffc9a760e01b6001600160e01b03198316145b92915050565b7f62f9f791f044a997d2927869f031db85cde39144d6412d7269c2c98c5304326b61071e8161203c565b610726612046565b6001600160a01b038087165f908152600560209081526040808320938916835292905220548411156107965760405162461bcd60e51b8152602060048201526014602482015273125394d551919250d251539517d1115413d4d25560621b60448201526064015b60405180910390fd5b6001600160a01b0383166107e05760405162461bcd60e51b81526020600482015260116024820152701253959053125117d49150d25412515395607a1b604482015260640161078d565b6001600160a01b038087165f90815260056020908152604080832093891683529290529081208054869290610816908490612624565b9091555061083090506001600160a01b0386168486612070565b8115801561084d575060025461010090046001600160a01b031615155b156109a057600254604051631ff517ff60e01b81526001600160a01b0388811660048301525f9261010090041690631ff517ff90602401602060405180830381865afa15801561089f573d5f803e3d5ffd5b505050506040513d601f19601f820116820180604052508101906108c39190612637565b9050801561099e57600254604051636ad9f9df60e01b81526001600160a01b0389811660048301525f9261010090041690636ad9f9df90602401602060405180830381865afa158015610918573d5f803e3d5ffd5b505050506040513d601f19601f8201168201806040525081019061093c9190612637565b905061271081101561099c5760405162461bcd60e51b815260206004820152602360248201527f504f53545f5749544844524157414c5f554e444552434f4c4c41544552414c4960448201526216915160ea1b606482015260840161078d565b505b505b846001600160a01b0316866001600160a01b03167fd1c19fbcd4551a5edfb66d43d2e337c04837afda3482b42bdf569a8fccdae5fb866040516109e591815260200190565b60405180910390a36109f660018055565b505050505050565b5f8051602061270d833981519152610a158161203c565b6001600160a01b0382165f90815260036020526040902060010154610a735760405162461bcd60e51b81526020600482015260146024820152731393d517d41491559253d554d31657d05111115160621b604482015260640161078d565b6001600160a01b0382165f9081526003602052604090205460ff1615610acd5760405162461bcd60e51b815260206004820152600f60248201526e1053149150511657d1539050931151608a1b604482015260640161078d565b6001600160a01b0382165f81815260036020526040808220805460ff19166001179055517f689fa3f4fd14b3753d33c934f2648d75824d79933d875ed4ae8feb3e8622aea09190a25050565b5f82815260208190526040902060010154610b338161203c565b610b3d83836120cf565b50505050565b6001600160a01b0381163314610b6c5760405163334bd91960e11b815260040160405180910390fd5b610b76828261215e565b505050565b5f610b858161203c565b610b8d6121c7565b50565b610b98612046565b610ba0612219565b6001600160a01b0382165f9081526003602052604090205460ff16610bfd5760405162461bcd60e51b81526020600482015260136024820152721513d2d15397d393d517d4d5541413d4951151606a1b604482015260640161078d565b5f8111610c3d5760405162461bcd60e51b815260206004820152600e60248201526d1253959053125117d05353d5539560921b604482015260640161078d565b6040516370a0823160e01b81523060048201525f906001600160a01b038416906370a0823190602401602060405180830381865afa158015610c81573d5f803e3d5ffd5b505050506040513d601f19601f82011682018060405250810190610ca59190612637565b9050610cbc6001600160a01b03841633308561223f565b6040516370a0823160e01b81523060048201525f9082906001600160a01b038616906370a0823190602401602060405180830381865afa158015610d02573d5f803e3d5ffd5b505050506040513d601f19601f82011682018060405250810190610d269190612637565b610d309190612624565b335f9081526005602090815260408083206001600160a01b0389168452909152812080549293508392909190610d6790849061264e565b90915550506040518181526001600160a01b0385169033907f8752a472e571a816aea92eec8dae9baf628e840f4929fbcc2d155e6233ff68a79060200160405180910390a35050610db760018055565b5050565b5f8051602061270d833981519152610dd28161203c565b6040805160a0810182526008546001600160a01b03168082526009546020830152600a5492820192909252600b546060820152600c54608082015290610e2a5760405162461bcd60e51b815260040161078d90612661565b6202a3008160800151610e3d919061264e565b421015610e5c5760405162461bcd60e51b815260040161078d90612685565b80516001600160a01b03165f9081526003602052604090206001015415610eb55760405162461bcd60e51b815260206004820152600d60248201526c1053149150511657d051111151609a1b604482015260640161078d565b600454603211610ef95760405162461bcd60e51b815260206004820152600f60248201526e544f4f5f4d414e595f544f4b454e5360881b604482015260640161078d565b6040805160808101825260018082526020848101805182850190815286860180518688019081526060808a015190880190815289516001600160a01b039081165f90815260038089528b82209a518b5490151560ff19909116178b5595518a8a0155925160028a015590519790930196909655875160048054968701815587527f8a35acfbc15ff81a39ae7d344fd709f28e8600b4aa8c65c6b64bfe7fe36bd19b90950180549583166001600160a01b0319968716179055600880549095169094556009859055600a859055600b859055600c94909455855190519251855193845291830191909152909116917f11f8990ac38271f23dea447d5728e9914fca7cea2edda43af6c43c415f8bc30b91015b60405180910390a25050565b5f8051602061270d83398151915261102d8161203c565b6001600160a01b0385165f9081526003602052604090205460ff166110645760405162461bcd60e51b815260040161078d906126ae565b601154156110845760405162461bcd60e51b815260040161078d906126d5565b5f8411801561109257508284105b6110cf5760405162461bcd60e51b815260206004820152600e60248201526d24a72b20a624a22fa320a1aa27a960911b604482015260640161078d565b61251c8311156111165760405162461bcd60e51b81526020600482015260126024820152710a890a48aa6909e9888bea89e9ebe90928e960731b604482015260640161078d565b6064821015801561112957506107d08211155b6111675760405162461bcd60e51b815260206004820152600f60248201526e494e56414c49445f50454e414c545960881b604482015260640161078d565b6040805160a0810182526001600160a01b0387168082526020820187905291810185905260608101849052426080909101819052600d80546001600160a01b03191683179055600e869055600f859055601084905560118190557ff5ac7efdc1928d83f1c532265b49124fa134d95307bdb67b3590348ec950f4d590869086906111f5906202a3009061264e565b6040805193845260208401929092529082015260600160405180910390a25050505050565b7fed5c12ee051a37a1c77138a0efb16a50dc2d175d59f2b1373c4195c4721cf9cb6112448161203c565b61124c612046565b6001600160a01b038083165f908152600560209081526040808320938816835292905220548311156112b75760405162461bcd60e51b8152602060048201526014602482015273125394d551919250d251539517d1115413d4d25560621b604482015260640161078d565b6001600160a01b038083165f908152600560209081526040808320938816835292905290812080548592906112ed908490612624565b9091555061130790506001600160a01b0385168385612070565b836001600160a01b0316826001600160a01b03167fd1c19fbcd4551a5edfb66d43d2e337c04837afda3482b42bdf569a8fccdae5fb8560405161134c91815260200190565b60405180910390a3610b3d60018055565b5f8051602061270d8339815191526113748161203c565b6006546001600160a01b031661139c5760405162461bcd60e51b815260040161078d90612661565b6202a3006007546113ad919061264e565b4210156113cc5760405162461bcd60e51b815260040161078d90612685565b6006546002546040516001600160a01b0392831692610100909204909116907fd52c1ecbae4ae409c118e97f7f64527e33c3611531cb0c5d8a0e58088656b239905f90a3506006805460028054610100600160a81b0319166101006001600160a01b038416021790556001600160a01b03191690555f600755565b5f8051602061270d83398151915261145e8161203c565b6001600160a01b0382165f9081526003602052604090205460ff166114955760405162461bcd60e51b815260040161078d906126ae565b6001600160a01b0382165f81815260036020526040808220805460ff19169055517f192895f9a14975ce177e9612fd4f4459e31169d79cb650596bcce0622bd70a929190a25050565b5f8051602061270d8339815191526114f58161203c565b6040805160a081018252600d546001600160a01b0316808252600e546020830152600f5492820192909252601054606082015260115460808201529061154d5760405162461bcd60e51b815260040161078d90612661565b6202a3008160800151611560919061264e565b42101561157f5760405162461bcd60e51b815260040161078d90612685565b80516001600160a01b03165f9081526003602052604090205460ff166115b75760405162461bcd60e51b815260040161078d906126ae565b6020808201805183516001600160a01b039081165f908152600394859052604080822060010193909355828601805187518416835284832060020155606087015187518416835284832090960195909555600d80546001600160a01b0319169055600e819055600f819055601081905560115584519251935191519216927f3644d2a390eea00a34467e13ab98e7f12fef446495d773df2d880d49cda51f909261100a9290918252602082015260400190565b7f65d7a28e3265b37a6474929f336521b332c1681b933f6cb9f3376673440d862a6116948161203c565b610b8d612278565b5f918252602082815260408084206001600160a01b0393909316845291905290205460ff1690565b7f78dee7707521b7c9b92b1070cc1d51daeefd47d09898061ee53bff95426cbe546116ee8161203c565b6116f6612046565b6001600160a01b038086165f9081526005602090815260408083209388168352929052205483111561176a5760405162461bcd60e51b815260206004820152601760248201527f494e53554646494349454e545f434f4c4c41544552414c000000000000000000604482015260640161078d565b6001600160a01b038086165f908152600560209081526040808320938816835292905290812080548592906117a0908490612624565b909155506117ba90506001600160a01b0385168385612070565b816001600160a01b0316846001600160a01b0316866001600160a01b03167ff413511b5d4c6faecbce9894d2b68fa3eb45529cb2186cd2e07e638fc41a94da8660405161180991815260200190565b60405180910390a461181a60018055565b5050505050565b7f62f9f791f044a997d2927869f031db85cde39144d6412d7269c2c98c5304326b61184b8161203c565b611853612046565b61185b612219565b6001600160a01b0383165f9081526003602052604090205460ff166118b85760405162461bcd60e51b81526020600482015260136024820152721513d2d15397d393d517d4d5541413d4951151606a1b604482015260640161078d565b5f82116118f85760405162461bcd60e51b815260206004820152600e60248201526d1253959053125117d05353d5539560921b604482015260640161078d565b6001600160a01b03841661193d5760405162461bcd60e51b815260206004820152600c60248201526b24a72b20a624a22faaa9a2a960a11b604482015260640161078d565b6040516370a0823160e01b81523060048201525f906001600160a01b038516906370a0823190602401602060405180830381865afa158015611981573d5f803e3d5ffd5b505050506040513d601f19601f820116820180604052508101906119a59190612637565b90506119bc6001600160a01b03851633308661223f565b6040516370a0823160e01b81523060048201525f9082906001600160a01b038716906370a0823190602401602060405180830381865afa158015611a02573d5f803e3d5ffd5b505050506040513d601f19601f82011682018060405250810190611a269190612637565b611a309190612624565b6001600160a01b038088165f908152600560209081526040808320938a16835292905290812080549293508392909190611a6b90849061264e565b92505081905550846001600160a01b0316866001600160a01b03167f8752a472e571a816aea92eec8dae9baf628e840f4929fbcc2d155e6233ff68a783604051611ab791815260200190565b60405180910390a35050610b3d60018055565b5f8051602061270d833981519152611ae18161203c565b600880546001600160a01b031981169091555f6009819055600a819055600b819055600c8190556040516001600160a01b039092169182917f47ecf13c48ac7abe6942c40e74a85de9348d3bef572a448080d7f9b30db8288391a25050565b60048181548110611b4f575f80fd5b5f918252602090912001546001600160a01b0316905081565b5f8051602061270d833981519152611b7f8161203c565b600d80546001600160a01b031981169091555f600e819055600f819055601081905560118190556040516001600160a01b039092169182917fe26325141857cbdb5bdf7499680d63926af6a26db53b2c620fd50cb606eb4c1091a25050565b5f8051602061270d833981519152611bf58161203c565b6001600160a01b038516611c3b5760405162461bcd60e51b815260206004820152600d60248201526c24a72b20a624a22faa27a5a2a760991b604482015260640161078d565b600c5415611c5b5760405162461bcd60e51b815260040161078d906126d5565b6001600160a01b0385165f9081526003602052604090206001015415611cb35760405162461bcd60e51b815260206004820152600d60248201526c1053149150511657d051111151609a1b604482015260640161078d565b600454603211611cf75760405162461bcd60e51b815260206004820152600f60248201526e544f4f5f4d414e595f544f4b454e5360881b604482015260640161078d565b5f84118015611d0557508284105b611d425760405162461bcd60e51b815260206004820152600e60248201526d24a72b20a624a22fa320a1aa27a960911b604482015260640161078d565b61251c831115611d895760405162461bcd60e51b81526020600482015260126024820152710a890a48aa6909e9888bea89e9ebe90928e960731b604482015260640161078d565b60648210158015611d9c57506107d08211155b611dda5760405162461bcd60e51b815260206004820152600f60248201526e494e56414c49445f50454e414c545960881b604482015260640161078d565b6040805160a0810182526001600160a01b0387168082526020820187905291810185905260608101849052426080909101819052600880546001600160a01b031916831790556009869055600a859055600b849055600c8190557f17a1dcae3aaa4cff6e64615f6eca63d68783329b82d385d1feaa64f1c8f9450390869086906111f5906202a3009061264e565b60606004805480602002602001604051908101604052809291908181526020018280548015611ebe57602002820191905f5260205f20905b81546001600160a01b03168152600190910190602001808311611ea0575b5050505050905090565b5f82815260208190526040902060010154611ee28161203c565b610b3d838361215e565b5f8051602061270d833981519152611f038161203c565b600680546001600160a01b031981169091555f60078190556040516001600160a01b039092169182917f3cd6b4e7357bdfdf504c889756d478991cf538ac37bdce76cc170135dfa036ef91a25050565b5f8051602061270d833981519152611f6a8161203c565b6001600160a01b038216611fb15760405162461bcd60e51b815260206004820152600e60248201526d494e56414c49445f4d4f44554c4560901b604482015260640161078d565b6006546001600160a01b031615611fda5760405162461bcd60e51b815260040161078d906126d5565b600680546001600160a01b0319166001600160a01b0384169081179091554260078190557f86e7ac9e014c8941d553a14a002e2ff6da38af1d82ac50fd5e7de94c4f9977a99061202e906202a3009061264e565b60405190815260200161100a565b610b8d81336122b5565b60026001540361206957604051633ee5aeb560e01b815260040160405180910390fd5b6002600155565b6040516001600160a01b03838116602483015260448201839052610b7691859182169063a9059cbb906064015b604051602081830303815290604052915060e01b6020820180516001600160e01b0383818316178352505050506122ee565b5f6120da838361169c565b612157575f838152602081815260408083206001600160a01b03861684529091529020805460ff1916600117905561210f3390565b6001600160a01b0316826001600160a01b0316847f2f8788117e7eff1d82e926ec794901d17c78024a50270940304540a733656f0d60405160405180910390a45060016106ee565b505f6106ee565b5f612169838361169c565b15612157575f838152602081815260408083206001600160a01b0386168085529252808320805460ff1916905551339286917ff6391f5c32d9c69d2a47ea670b442974b53935d1edc7fd64eb21e047a839171b9190a45060016106ee565b6121cf61235a565b6002805460ff191690557f5db9ee0a495bf2e6ff9c91a7834c1ba4fdd244a5e8aa4e537bd38aeae4b073aa335b6040516001600160a01b03909116815260200160405180910390a1565b60025460ff161561223d5760405163d93c066560e01b815260040160405180910390fd5b565b6040516001600160a01b038481166024830152838116604483015260648201839052610b3d9186918216906323b872dd9060840161209d565b612280612219565b6002805460ff191660011790557f62e78cea01bee320cd4e420270b5ea74000d11b0c9f74754ebdbfc544b05a2586121fc3390565b6122bf828261169c565b610db75760405163e2517d3f60e01b81526001600160a01b03821660048201526024810183905260440161078d565b5f8060205f8451602086015f885af18061230d576040513d5f823e3d81fd5b50505f513d91508115612324578060011415612331565b6001600160a01b0384163b155b15610b3d57604051635274afe760e01b81526001600160a01b038516600482015260240161078d565b60025460ff1661223d57604051638dfc202b60e01b815260040160405180910390fd5b5f6020828403121561238d575f80fd5b81356001600160e01b0319811681146123a4575f80fd5b9392505050565b80356001600160a01b03811681146123c1575f80fd5b919050565b5f805f805f60a086880312156123da575f80fd5b6123e3866123ab565b94506123f1602087016123ab565b935060408601359250612406606087016123ab565b91506080860135801515811461241a575f80fd5b809150509295509295909350565b5f60208284031215612438575f80fd5b6123a4826123ab565b5f60208284031215612451575f80fd5b5035919050565b5f8060408385031215612469575f80fd5b82359150612479602084016123ab565b90509250929050565b5f8060408385031215612493575f80fd5b61249c836123ab565b946020939093013593505050565b5f805f80608085870312156124bd575f80fd5b6124c6856123ab565b966020860135965060408601359560600135945092505050565b5f805f606084860312156124f2575f80fd5b6124fb846123ab565b925060208401359150612510604085016123ab565b90509250925092565b5f806040838503121561252a575f80fd5b612533836123ab565b9150612479602084016123ab565b5f805f8060808587031215612554575f80fd5b61255d856123ab565b935061256b602086016123ab565b925060408501359150612580606086016123ab565b905092959194509250565b5f805f6060848603121561259d575f80fd5b6125a6846123ab565b92506125b4602085016123ab565b929592945050506040919091013590565b602080825282518282018190525f918401906040840190835b818110156126055783516001600160a01b03168352602093840193909201916001016125de565b509095945050505050565b634e487b7160e01b5f52601160045260245ffd5b818103818111156106ee576106ee612610565b5f60208284031215612647575f80fd5b5051919050565b808201808211156106ee576106ee612610565b6020808252600a90820152694e4f5f50454e44494e4760b01b604082015260600190565b6020808252600f908201526e54494d454c4f434b5f41435449564560881b604082015260600190565b6020808252600d908201526c1393d517d4d5541413d4951151609a1b604082015260600190565b60208082526018908201527f50524f504f53414c5f414c52454144595f50454e44494e47000000000000000060408201526060019056fe7edcee67725a77bfa311b39349d7e96df9b23fbdbdcb328dfc17d77926920c13a26469706673582212206e35ac16bcaa8a257569d8c6c0c8eb1efeb6f152ddb4a08bce175871387e1bb564736f6c634300081a0033","linkReferences":{}},"methodIdentifiers":{"ADMIN_DELAY()":"92ffacac","BORROW_MODULE_ROLE()":"19833dd1","DEFAULT_ADMIN_ROLE()":"a217fddf","LEVERAGE_VAULT_ROLE()":"3d34e3e4","LIQUIDATION_ROLE()":"ae0e0125","PAUSER_ROLE()":"e63ab1e9","VAULT_ADMIN_ROLE()":"9e341119","borrowModule()":"25384fd8","cancelAddCollateral()":"b8da004b","cancelBorrowModule()":"e9115a9d","cancelUpdateCollateral()":"cb0694a1","collateralConfigs(address)":"8cf18e64","deposit(address,uint256)":"47e7ef24","depositFor(address,address,uint256)":"b3db428b","deposits(address,address)":"8f601f66","disableCollateral(address)":"75c038b7","enableCollateral(address)":"11be0de5","executeAddCollateral()":"58dedee3","executeBorrowModule()":"6d881314","executeUpdateCollateral()":"7956cd0c","getConfig(address)":"e48a5f7b","getDeposit(address,address)":"c35082a9","getRoleAdmin(bytes32)":"248a9ca3","getSupportedTokens()":"d3c7c2c7","grantRole(bytes32,address)":"2f2ff15d","hasRole(bytes32,address)":"91d14854","pause()":"8456cb59","paused()":"5c975abb","pendingAddCollateral()":"b3165950","pendingBorrowModule()":"c8491cda","pendingBorrowModuleTime()":"59b98674","pendingUpdateCollateral()":"5283e72f","renounceRole(bytes32,address)":"36568abe","requestAddCollateral(address,uint256,uint256,uint256)":"cb1b7ac1","requestBorrowModule(address)":"f17a8e8a","requestUpdateCollateral(address,uint256,uint256,uint256)":"684c3b59","revokeRole(bytes32,address)":"d547741f","seize(address,address,uint256,address)":"a30811c8","supportedTokens(uint256)":"c6255626","supportsInterface(bytes4)":"01ffc9a7","unpause()":"3f4ba83a","withdraw(address,uint256,address)":"69328dec","withdrawFor(address,address,uint256,address,bool)":"071ea3e3"},"id":1}