{"abi":[{"type":"constructor","inputs":[{"name":"_timelock","type":"address","internalType":"address"}],"stateMutability":"nonpayable"},{"type":"function","name":"BORROW_MODULE_ROLE","inputs":[],"outputs":[{"name":"","type":"bytes32","internalType":"bytes32"}],"stateMutability":"view"},{"type":"function","name":"DEFAULT_ADMIN_ROLE","inputs":[],"outputs":[{"name":"","type":"bytes32","internalType":"bytes32"}],"stateMutability":"view"},{"type":"function","name":"LEVERAGE_VAULT_ROLE","inputs":[],"outputs":[{"name":"","type":"bytes32","internalType":"bytes32"}],"stateMutability":"view"},{"type":"function","name":"LIQUIDATION_ROLE","inputs":[],"outputs":[{"name":"","type":"bytes32","internalType":"bytes32"}],"stateMutability":"view"},{"type":"function","name":"PAUSER_ROLE","inputs":[],"outputs":[{"name":"","type":"bytes32","internalType":"bytes32"}],"stateMutability":"view"},{"type":"function","name":"VAULT_ADMIN_ROLE","inputs":[],"outputs":[{"name":"","type":"bytes32","internalType":"bytes32"}],"stateMutability":"view"},{"type":"function","name":"addCollateral","inputs":[{"name":"token","type":"address","internalType":"address"},{"name":"collateralFactorBps","type":"uint256","internalType":"uint256"},{"name":"liquidationThresholdBps","type":"uint256","internalType":"uint256"},{"name":"liquidationPenaltyBps","type":"uint256","internalType":"uint256"}],"outputs":[],"stateMutability":"nonpayable"},{"type":"function","name":"borrowModule","inputs":[],"outputs":[{"name":"","type":"address","internalType":"address"}],"stateMutability":"view"},{"type":"function","name":"collateralConfigs","inputs":[{"name":"","type":"address","internalType":"address"}],"outputs":[{"name":"enabled","type":"bool","internalType":"bool"},{"name":"collateralFactorBps","type":"uint256","internalType":"uint256"},{"name":"liquidationThresholdBps","type":"uint256","internalType":"uint256"},{"name":"liquidationPenaltyBps","type":"uint256","internalType":"uint256"}],"stateMutability":"view"},{"type":"function","name":"deposit","inputs":[{"name":"token","type":"address","internalType":"address"},{"name":"amount","type":"uint256","internalType":"uint256"}],"outputs":[],"stateMutability":"nonpayable"},{"type":"function","name":"depositFor","inputs":[{"name":"user","type":"address","internalType":"address"},{"name":"token","type":"address","internalType":"address"},{"name":"amount","type":"uint256","internalType":"uint256"}],"outputs":[],"stateMutability":"nonpayable"},{"type":"function","name":"deposits","inputs":[{"name":"","type":"address","internalType":"address"},{"name":"","type":"address","internalType":"address"}],"outputs":[{"name":"","type":"uint256","internalType":"uint256"}],"stateMutability":"view"},{"type":"function","name":"disableCollateral","inputs":[{"name":"token","type":"address","internalType":"address"}],"outputs":[],"stateMutability":"nonpayable"},{"type":"function","name":"enableCollateral","inputs":[{"name":"token","type":"address","internalType":"address"}],"outputs":[],"stateMutability":"nonpayable"},{"type":"function","name":"getConfig","inputs":[{"name":"token","type":"address","internalType":"address"}],"outputs":[{"name":"enabled","type":"bool","internalType":"bool"},{"name":"collateralFactorBps","type":"uint256","internalType":"uint256"},{"name":"liquidationThresholdBps","type":"uint256","internalType":"uint256"},{"name":"liquidationPenaltyBps","type":"uint256","internalType":"uint256"}],"stateMutability":"view"},{"type":"function","name":"getDeposit","inputs":[{"name":"user","type":"address","internalType":"address"},{"name":"token","type":"address","internalType":"address"}],"outputs":[{"name":"","type":"uint256","internalType":"uint256"}],"stateMutability":"view"},{"type":"function","name":"getRoleAdmin","inputs":[{"name":"role","type":"bytes32","internalType":"bytes32"}],"outputs":[{"name":"","type":"bytes32","internalType":"bytes32"}],"stateMutability":"view"},{"type":"function","name":"getSupportedTokens","inputs":[],"outputs":[{"name":"","type":"address[]","internalType":"address[]"}],"stateMutability":"view"},{"type":"function","name":"grantRole","inputs":[{"name":"role","type":"bytes32","internalType":"bytes32"},{"name":"account","type":"address","internalType":"address"}],"outputs":[],"stateMutability":"nonpayable"},{"type":"function","name":"hasRole","inputs":[{"name":"role","type":"bytes32","internalType":"bytes32"},{"name":"account","type":"address","internalType":"address"}],"outputs":[{"name":"","type":"bool","internalType":"bool"}],"stateMutability":"view"},{"type":"function","name":"pause","inputs":[],"outputs":[],"stateMutability":"nonpayable"},{"type":"function","name":"paused","inputs":[],"outputs":[{"name":"","type":"bool","internalType":"bool"}],"stateMutability":"view"},{"type":"function","name":"renounceRole","inputs":[{"name":"role","type":"bytes32","internalType":"bytes32"},{"name":"callerConfirmation","type":"address","internalType":"address"}],"outputs":[],"stateMutability":"nonpayable"},{"type":"function","name":"revokeRole","inputs":[{"name":"role","type":"bytes32","internalType":"bytes32"},{"name":"account","type":"address","internalType":"address"}],"outputs":[],"stateMutability":"nonpayable"},{"type":"function","name":"seize","inputs":[{"name":"user","type":"address","internalType":"address"},{"name":"token","type":"address","internalType":"address"},{"name":"amount","type":"uint256","internalType":"uint256"},{"name":"liquidator","type":"address","internalType":"address"}],"outputs":[],"stateMutability":"nonpayable"},{"type":"function","name":"setBorrowModule","inputs":[{"name":"_borrowModule","type":"address","internalType":"address"}],"outputs":[],"stateMutability":"nonpayable"},{"type":"function","name":"setTimelock","inputs":[{"name":"_timelock","type":"address","internalType":"address"}],"outputs":[],"stateMutability":"nonpayable"},{"type":"function","name":"supportedTokens","inputs":[{"name":"","type":"uint256","internalType":"uint256"}],"outputs":[{"name":"","type":"address","internalType":"address"}],"stateMutability":"view"},{"type":"function","name":"supportsInterface","inputs":[{"name":"interfaceId","type":"bytes4","internalType":"bytes4"}],"outputs":[{"name":"","type":"bool","internalType":"bool"}],"stateMutability":"view"},{"type":"function","name":"timelock","inputs":[],"outputs":[{"name":"","type":"address","internalType":"address"}],"stateMutability":"view"},{"type":"function","name":"unpause","inputs":[],"outputs":[],"stateMutability":"nonpayable"},{"type":"function","name":"updateCollateral","inputs":[{"name":"token","type":"address","internalType":"address"},{"name":"collateralFactorBps","type":"uint256","internalType":"uint256"},{"name":"liquidationThresholdBps","type":"uint256","internalType":"uint256"},{"name":"liquidationPenaltyBps","type":"uint256","internalType":"uint256"}],"outputs":[],"stateMutability":"nonpayable"},{"type":"function","name":"withdraw","inputs":[{"name":"token","type":"address","internalType":"address"},{"name":"amount","type":"uint256","internalType":"uint256"},{"name":"user","type":"address","internalType":"address"}],"outputs":[],"stateMutability":"nonpayable"},{"type":"function","name":"withdrawFor","inputs":[{"name":"user","type":"address","internalType":"address"},{"name":"token","type":"address","internalType":"address"},{"name":"amount","type":"uint256","internalType":"uint256"},{"name":"recipient","type":"address","internalType":"address"},{"name":"skipHealthCheck","type":"bool","internalType":"bool"}],"outputs":[],"stateMutability":"nonpayable"},{"type":"event","name":"BorrowModuleUpdated","inputs":[{"name":"oldModule","type":"address","indexed":true,"internalType":"address"},{"name":"newModule","type":"address","indexed":true,"internalType":"address"}],"anonymous":false},{"type":"event","name":"CollateralAdded","inputs":[{"name":"token","type":"address","indexed":true,"internalType":"address"},{"name":"collateralFactorBps","type":"uint256","indexed":false,"internalType":"uint256"},{"name":"liquidationThresholdBps","type":"uint256","indexed":false,"internalType":"uint256"}],"anonymous":false},{"type":"event","name":"CollateralDisabled","inputs":[{"name":"token","type":"address","indexed":true,"internalType":"address"}],"anonymous":false},{"type":"event","name":"CollateralEnabled","inputs":[{"name":"token","type":"address","indexed":true,"internalType":"address"}],"anonymous":false},{"type":"event","name":"CollateralUpdated","inputs":[{"name":"token","type":"address","indexed":true,"internalType":"address"},{"name":"collateralFactorBps","type":"uint256","indexed":false,"internalType":"uint256"},{"name":"liquidationThresholdBps","type":"uint256","indexed":false,"internalType":"uint256"}],"anonymous":false},{"type":"event","name":"Deposited","inputs":[{"name":"user","type":"address","indexed":true,"internalType":"address"},{"name":"token","type":"address","indexed":true,"internalType":"address"},{"name":"amount","type":"uint256","indexed":false,"internalType":"uint256"}],"anonymous":false},{"type":"event","name":"Paused","inputs":[{"name":"account","type":"address","indexed":false,"internalType":"address"}],"anonymous":false},{"type":"event","name":"RoleAdminChanged","inputs":[{"name":"role","type":"bytes32","indexed":true,"internalType":"bytes32"},{"name":"previousAdminRole","type":"bytes32","indexed":true,"internalType":"bytes32"},{"name":"newAdminRole","type":"bytes32","indexed":true,"internalType":"bytes32"}],"anonymous":false},{"type":"event","name":"RoleGranted","inputs":[{"name":"role","type":"bytes32","indexed":true,"internalType":"bytes32"},{"name":"account","type":"address","indexed":true,"internalType":"address"},{"name":"sender","type":"address","indexed":true,"internalType":"address"}],"anonymous":false},{"type":"event","name":"RoleRevoked","inputs":[{"name":"role","type":"bytes32","indexed":true,"internalType":"bytes32"},{"name":"account","type":"address","indexed":true,"internalType":"address"},{"name":"sender","type":"address","indexed":true,"internalType":"address"}],"anonymous":false},{"type":"event","name":"Seized","inputs":[{"name":"user","type":"address","indexed":true,"internalType":"address"},{"name":"token","type":"address","indexed":true,"internalType":"address"},{"name":"amount","type":"uint256","indexed":false,"internalType":"uint256"},{"name":"liquidator","type":"address","indexed":true,"internalType":"address"}],"anonymous":false},{"type":"event","name":"TimelockUpdated","inputs":[{"name":"oldTimelock","type":"address","indexed":true,"internalType":"address"},{"name":"newTimelock","type":"address","indexed":true,"internalType":"address"}],"anonymous":false},{"type":"event","name":"Unpaused","inputs":[{"name":"account","type":"address","indexed":false,"internalType":"address"}],"anonymous":false},{"type":"event","name":"Withdrawn","inputs":[{"name":"user","type":"address","indexed":true,"internalType":"address"},{"name":"token","type":"address","indexed":true,"internalType":"address"},{"name":"amount","type":"uint256","indexed":false,"internalType":"uint256"}],"anonymous":false},{"type":"error","name":"AccessControlBadConfirmation","inputs":[]},{"type":"error","name":"AccessControlUnauthorizedAccount","inputs":[{"name":"account","type":"address","internalType":"address"},{"name":"neededRole","type":"bytes32","internalType":"bytes32"}]},{"type":"error","name":"EnforcedPause","inputs":[]},{"type":"error","name":"ExpectedPause","inputs":[]},{"type":"error","name":"OnlyTimelock","inputs":[]},{"type":"error","name":"ReentrancyGuardReentrantCall","inputs":[]},{"type":"error","name":"SafeERC20FailedOperation","inputs":[{"name":"token","type":"address","internalType":"address"}]},{"type":"error","name":"ZeroTimelock","inputs":[]}],"bytecode":{"object":"0x608060405234801561000f575f80fd5b506040516122b43803806122b483398101604081905261002e916101b1565b6001805561003b81610077565b6100455f33610108565b506100707f7edcee67725a77bfa311b39349d7e96df9b23fbdbdcb328dfc17d77926920c1333610108565b50506101de565b6001600160a01b03811661009e576040516350c0eb2960e11b815260040160405180910390fd5b7f96ec2584f13cbcbf2926bb7c7d24b036ddd15a8842ae5726c96f4a4a3e97cc0080546001600160a01b0319166001600160a01b03831690811782556040515f907fae97011a27b5efe7b1d76fe38e75cc498fd64cc24e407a9c6b2185d27f611f7e908290a35050565b5f828152602081815260408083206001600160a01b038516845290915281205460ff166101a8575f838152602081815260408083206001600160a01b03861684529091529020805460ff191660011790556101603390565b6001600160a01b0316826001600160a01b0316847f2f8788117e7eff1d82e926ec794901d17c78024a50270940304540a733656f0d60405160405180910390a45060016101ab565b505f5b92915050565b5f602082840312156101c1575f80fd5b81516001600160a01b03811681146101d7575f80fd5b9392505050565b6120c9806101eb5f395ff3fe608060405234801561000f575f80fd5b50600436106101fd575f3560e01c806391d1485411610114578063bdacb303116100a9578063d3c7c2c711610079578063d3c7c2c71461052e578063d547741f14610543578063e48a5f7b14610556578063e5eecf6814610596578063e63ab1e9146105a9575f80fd5b8063bdacb303146104b3578063c35082a9146104c6578063c6255626146104fe578063d33219b414610511575f80fd5b8063a87dcf5f116100e4578063a87dcf5f14610453578063ab12448614610466578063ae0e012514610479578063b3db428b146104a0575f80fd5b806391d14854146103ff5780639e34111914610412578063a217fddf14610439578063a30811c814610440575f80fd5b80633d34e3e41161019557806369328dec1161016557806369328dec1461034b57806375c038b71461035e5780638456cb59146103715780638cf18e64146103795780638f601f66146103d5575f80fd5b80633d34e3e4146102fe5780633f4ba83a1461032557806347e7ef241461032d5780635c975abb14610340575f80fd5b8063248a9ca3116101d0578063248a9ca31461028657806325384fd8146102a85780632f2ff15d146102d857806336568abe146102eb575f80fd5b806301ffc9a714610201578063071ea3e31461022957806311be0de51461023e57806319833dd114610251575b5f80fd5b61021461020f366004611d8f565b6105d0565b60405190151581526020015b60405180910390f35b61023c610237366004611dd8565b610606565b005b61023c61024c366004611e3a565b610910565b6102787fed5c12ee051a37a1c77138a0efb16a50dc2d175d59f2b1373c4195c4721cf9cb81565b604051908152602001610220565b610278610294366004611e53565b5f9081526020819052604090206001015490565b6002546102c09061010090046001600160a01b031681565b6040516001600160a01b039091168152602001610220565b61023c6102e6366004611e6a565b610a3e565b61023c6102f9366004611e6a565b610a68565b6102787f62f9f791f044a997d2927869f031db85cde39144d6412d7269c2c98c5304326b81565b61023c610aa0565b61023c61033b366004611e94565b610ab5565b60025460ff16610214565b61023c610359366004611ebc565b610ce0565b61023c61036c366004611e3a565b610e23565b61023c610eed565b6103b3610387366004611e3a565b600360208190525f9182526040909120805460018201546002830154929093015460ff90911692919084565b6040805194151585526020850193909352918301526060820152608001610220565b6102786103e3366004611ef5565b600560209081525f928352604080842090915290825290205481565b61021461040d366004611e6a565b610f1f565b6102787f7edcee67725a77bfa311b39349d7e96df9b23fbdbdcb328dfc17d77926920c1381565b6102785f81565b61023c61044e366004611f1d565b610f47565b61023c610461366004611f67565b6110a4565b61023c610474366004611e3a565b611281565b6102787f78dee7707521b7c9b92b1070cc1d51daeefd47d09898061ee53bff95426cbe5481565b61023c6104ae366004611f9d565b611365565b61023c6104c1366004611e3a565b61160e565b6102786104d4366004611ef5565b6001600160a01b039182165f90815260056020908152604080832093909416825291909152205490565b6102c061050c366004611e53565b6116d2565b5f80516020612074833981519152546001600160a01b03166102c0565b6105366116fa565b6040516102209190611fd7565b61023c610551366004611e6a565b61175a565b6103b3610564366004611e3a565b6001600160a01b03165f908152600360208190526040909120805460018201546002830154929093015460ff90911693565b61023c6105a4366004611f67565b61177e565b6102787f65d7a28e3265b37a6474929f336521b332c1681b933f6cb9f3376673440d862a81565b5f6001600160e01b03198216637965db0b60e01b148061060057506301ffc9a760e01b6001600160e01b03198316145b92915050565b7f62f9f791f044a997d2927869f031db85cde39144d6412d7269c2c98c5304326b61063081611a4e565b610638611a58565b6001600160a01b038087165f908152600560209081526040808320938916835292905220548411156106a85760405162461bcd60e51b8152602060048201526014602482015273125394d551919250d251539517d1115413d4d25560621b60448201526064015b60405180910390fd5b6001600160a01b0383166106f25760405162461bcd60e51b81526020600482015260116024820152701253959053125117d49150d25412515395607a1b604482015260640161069f565b6001600160a01b038087165f90815260056020908152604080832093891683529290529081208054869290610728908490612036565b9091555061074290506001600160a01b0386168486611a82565b8115801561075f575060025461010090046001600160a01b031615155b156108b257600254604051631ff517ff60e01b81526001600160a01b0388811660048301525f9261010090041690631ff517ff90602401602060405180830381865afa1580156107b1573d5f803e3d5ffd5b505050506040513d601f19601f820116820180604052508101906107d59190612049565b905080156108b057600254604051636ad9f9df60e01b81526001600160a01b0389811660048301525f9261010090041690636ad9f9df90602401602060405180830381865afa15801561082a573d5f803e3d5ffd5b505050506040513d601f19601f8201168201806040525081019061084e9190612049565b90506127108110156108ae5760405162461bcd60e51b815260206004820152602360248201527f504f53545f5749544844524157414c5f554e444552434f4c4c41544552414c4960448201526216915160ea1b606482015260840161069f565b505b505b846001600160a01b0316866001600160a01b03167fd1c19fbcd4551a5edfb66d43d2e337c04837afda3482b42bdf569a8fccdae5fb866040516108f791815260200190565b60405180910390a361090860018055565b505050505050565b7f7edcee67725a77bfa311b39349d7e96df9b23fbdbdcb328dfc17d77926920c1361093a81611a4e565b6001600160a01b0382165f908152600360205260409020600101546109985760405162461bcd60e51b81526020600482015260146024820152731393d517d41491559253d554d31657d05111115160621b604482015260640161069f565b6001600160a01b0382165f9081526003602052604090205460ff16156109f25760405162461bcd60e51b815260206004820152600f60248201526e1053149150511657d1539050931151608a1b604482015260640161069f565b6001600160a01b0382165f81815260036020526040808220805460ff19166001179055517f689fa3f4fd14b3753d33c934f2648d75824d79933d875ed4ae8feb3e8622aea09190a25050565b5f82815260208190526040902060010154610a5881611a4e565b610a628383611ae1565b50505050565b6001600160a01b0381163314610a915760405163334bd91960e11b815260040160405180910390fd5b610a9b8282611b70565b505050565b5f610aaa81611a4e565b610ab2611bd9565b50565b610abd611a58565b610ac5611c2b565b6001600160a01b0382165f9081526003602052604090205460ff16610b225760405162461bcd60e51b81526020600482015260136024820152721513d2d15397d393d517d4d5541413d4951151606a1b604482015260640161069f565b5f8111610b625760405162461bcd60e51b815260206004820152600e60248201526d1253959053125117d05353d5539560921b604482015260640161069f565b6040516370a0823160e01b81523060048201525f906001600160a01b038416906370a0823190602401602060405180830381865afa158015610ba6573d5f803e3d5ffd5b505050506040513d601f19601f82011682018060405250810190610bca9190612049565b9050610be16001600160a01b038416333085611c51565b6040516370a0823160e01b81523060048201525f9082906001600160a01b038616906370a0823190602401602060405180830381865afa158015610c27573d5f803e3d5ffd5b505050506040513d601f19601f82011682018060405250810190610c4b9190612049565b610c559190612036565b335f9081526005602090815260408083206001600160a01b0389168452909152812080549293508392909190610c8c908490612060565b90915550506040518181526001600160a01b0385169033907f8752a472e571a816aea92eec8dae9baf628e840f4929fbcc2d155e6233ff68a79060200160405180910390a35050610cdc60018055565b5050565b7fed5c12ee051a37a1c77138a0efb16a50dc2d175d59f2b1373c4195c4721cf9cb610d0a81611a4e565b610d12611a58565b6001600160a01b038083165f90815260056020908152604080832093881683529290522054831115610d7d5760405162461bcd60e51b8152602060048201526014602482015273125394d551919250d251539517d1115413d4d25560621b604482015260640161069f565b6001600160a01b038083165f90815260056020908152604080832093881683529290529081208054859290610db3908490612036565b90915550610dcd90506001600160a01b0385168385611a82565b836001600160a01b0316826001600160a01b03167fd1c19fbcd4551a5edfb66d43d2e337c04837afda3482b42bdf569a8fccdae5fb85604051610e1291815260200190565b60405180910390a3610a6260018055565b7f7edcee67725a77bfa311b39349d7e96df9b23fbdbdcb328dfc17d77926920c13610e4d81611a4e565b6001600160a01b0382165f9081526003602052604090205460ff16610ea45760405162461bcd60e51b815260206004820152600d60248201526c1393d517d4d5541413d4951151609a1b604482015260640161069f565b6001600160a01b0382165f81815260036020526040808220805460ff19169055517f192895f9a14975ce177e9612fd4f4459e31169d79cb650596bcce0622bd70a929190a25050565b7f65d7a28e3265b37a6474929f336521b332c1681b933f6cb9f3376673440d862a610f1781611a4e565b610ab2611c8a565b5f918252602082815260408084206001600160a01b0393909316845291905290205460ff1690565b7f78dee7707521b7c9b92b1070cc1d51daeefd47d09898061ee53bff95426cbe54610f7181611a4e565b610f79611a58565b6001600160a01b038086165f90815260056020908152604080832093881683529290522054831115610fed5760405162461bcd60e51b815260206004820152601760248201527f494e53554646494349454e545f434f4c4c41544552414c000000000000000000604482015260640161069f565b6001600160a01b038086165f90815260056020908152604080832093881683529290529081208054859290611023908490612036565b9091555061103d90506001600160a01b0385168385611a82565b816001600160a01b0316846001600160a01b0316866001600160a01b03167ff413511b5d4c6faecbce9894d2b68fa3eb45529cb2186cd2e07e638fc41a94da8660405161108c91815260200190565b60405180910390a461109d60018055565b5050505050565b5f80516020612074833981519152546001600160a01b031633146110db57604051630e05f48560e11b815260040160405180910390fd5b6001600160a01b0384165f9081526003602052604090205460ff166111325760405162461bcd60e51b815260206004820152600d60248201526c1393d517d4d5541413d4951151609a1b604482015260640161069f565b5f8311801561114057508183105b61117d5760405162461bcd60e51b815260206004820152600e60248201526d24a72b20a624a22fa320a1aa27a960911b604482015260640161069f565b61251c8211156111c45760405162461bcd60e51b81526020600482015260126024820152710a890a48aa6909e9888bea89e9ebe90928e960731b604482015260640161069f565b606481101580156111d757506107d08111155b6112155760405162461bcd60e51b815260206004820152600f60248201526e494e56414c49445f50454e414c545960881b604482015260640161069f565b6001600160a01b0384165f81815260036020818152604092839020600181018890556002810187905590910184905581518681529081018590527f3644d2a390eea00a34467e13ab98e7f12fef446495d773df2d880d49cda51f9091015b60405180910390a250505050565b5f80516020612074833981519152546001600160a01b031633146112b857604051630e05f48560e11b815260040160405180910390fd5b6001600160a01b0381166112ff5760405162461bcd60e51b815260206004820152600e60248201526d494e56414c49445f4d4f44554c4560901b604482015260640161069f565b6002546040516001600160a01b0380841692610100900416907fd52c1ecbae4ae409c118e97f7f64527e33c3611531cb0c5d8a0e58088656b239905f90a3600280546001600160a01b0390921661010002610100600160a81b0319909216919091179055565b7f62f9f791f044a997d2927869f031db85cde39144d6412d7269c2c98c5304326b61138f81611a4e565b611397611a58565b61139f611c2b565b6001600160a01b0383165f9081526003602052604090205460ff166113fc5760405162461bcd60e51b81526020600482015260136024820152721513d2d15397d393d517d4d5541413d4951151606a1b604482015260640161069f565b5f821161143c5760405162461bcd60e51b815260206004820152600e60248201526d1253959053125117d05353d5539560921b604482015260640161069f565b6001600160a01b0384166114815760405162461bcd60e51b815260206004820152600c60248201526b24a72b20a624a22faaa9a2a960a11b604482015260640161069f565b6040516370a0823160e01b81523060048201525f906001600160a01b038516906370a0823190602401602060405180830381865afa1580156114c5573d5f803e3d5ffd5b505050506040513d601f19601f820116820180604052508101906114e99190612049565b90506115006001600160a01b038516333086611c51565b6040516370a0823160e01b81523060048201525f9082906001600160a01b038716906370a0823190602401602060405180830381865afa158015611546573d5f803e3d5ffd5b505050506040513d601f19601f8201168201806040525081019061156a9190612049565b6115749190612036565b6001600160a01b038088165f908152600560209081526040808320938a168352929052908120805492935083929091906115af908490612060565b92505081905550846001600160a01b0316866001600160a01b03167f8752a472e571a816aea92eec8dae9baf628e840f4929fbcc2d155e6233ff68a7836040516115fb91815260200190565b60405180910390a35050610a6260018055565b5f80516020612074833981519152546001600160a01b0316331461164557604051630e05f48560e11b815260040160405180910390fd5b6001600160a01b03811661166c576040516350c0eb2960e11b815260040160405180910390fd5b5f8051602061207483398151915280546040516001600160a01b038481169216907fae97011a27b5efe7b1d76fe38e75cc498fd64cc24e407a9c6b2185d27f611f7e905f90a380546001600160a01b0319166001600160a01b0392909216919091179055565b600481815481106116e1575f80fd5b5f918252602090912001546001600160a01b0316905081565b6060600480548060200260200160405190810160405280929190818152602001828054801561175057602002820191905f5260205f20905b81546001600160a01b03168152600190910190602001808311611732575b5050505050905090565b5f8281526020819052604090206001015461177481611a4e565b610a628383611b70565b5f80516020612074833981519152546001600160a01b031633146117b557604051630e05f48560e11b815260040160405180910390fd5b6001600160a01b0384166117fb5760405162461bcd60e51b815260206004820152600d60248201526c24a72b20a624a22faa27a5a2a760991b604482015260640161069f565b6001600160a01b0384165f90815260036020526040902060010154156118535760405162461bcd60e51b815260206004820152600d60248201526c1053149150511657d051111151609a1b604482015260640161069f565b6004546032116118975760405162461bcd60e51b815260206004820152600f60248201526e544f4f5f4d414e595f544f4b454e5360881b604482015260640161069f565b5f831180156118a557508183105b6118e25760405162461bcd60e51b815260206004820152600e60248201526d24a72b20a624a22fa320a1aa27a960911b604482015260640161069f565b61251c8211156119295760405162461bcd60e51b81526020600482015260126024820152710a890a48aa6909e9888bea89e9ebe90928e960731b604482015260640161069f565b6064811015801561193c57506107d08111155b61197a5760405162461bcd60e51b815260206004820152600f60248201526e494e56414c49445f50454e414c545960881b604482015260640161069f565b6040805160808101825260018082526020808301878152838501878152606085018781526001600160a01b038b165f81815260038087528982209851895460ff191690151517895594518888015592516002880155905195909201949094556004805493840181559093527f8a35acfbc15ff81a39ae7d344fd709f28e8600b4aa8c65c6b64bfe7fe36bd19b90910180546001600160a01b03191683179055825186815290810185905290917f11f8990ac38271f23dea447d5728e9914fca7cea2edda43af6c43c415f8bc30b9101611273565b610ab28133611cc7565b600260015403611a7b57604051633ee5aeb560e01b815260040160405180910390fd5b6002600155565b6040516001600160a01b03838116602483015260448201839052610a9b91859182169063a9059cbb906064015b604051602081830303815290604052915060e01b6020820180516001600160e01b038381831617835250505050611d00565b5f611aec8383610f1f565b611b69575f838152602081815260408083206001600160a01b03861684529091529020805460ff19166001179055611b213390565b6001600160a01b0316826001600160a01b0316847f2f8788117e7eff1d82e926ec794901d17c78024a50270940304540a733656f0d60405160405180910390a4506001610600565b505f610600565b5f611b7b8383610f1f565b15611b69575f838152602081815260408083206001600160a01b0386168085529252808320805460ff1916905551339286917ff6391f5c32d9c69d2a47ea670b442974b53935d1edc7fd64eb21e047a839171b9190a4506001610600565b611be1611d6c565b6002805460ff191690557f5db9ee0a495bf2e6ff9c91a7834c1ba4fdd244a5e8aa4e537bd38aeae4b073aa335b6040516001600160a01b03909116815260200160405180910390a1565b60025460ff1615611c4f5760405163d93c066560e01b815260040160405180910390fd5b565b6040516001600160a01b038481166024830152838116604483015260648201839052610a629186918216906323b872dd90608401611aaf565b611c92611c2b565b6002805460ff191660011790557f62e78cea01bee320cd4e420270b5ea74000d11b0c9f74754ebdbfc544b05a258611c0e3390565b611cd18282610f1f565b610cdc5760405163e2517d3f60e01b81526001600160a01b03821660048201526024810183905260440161069f565b5f8060205f8451602086015f885af180611d1f576040513d5f823e3d81fd5b50505f513d91508115611d36578060011415611d43565b6001600160a01b0384163b155b15610a6257604051635274afe760e01b81526001600160a01b038516600482015260240161069f565b60025460ff16611c4f57604051638dfc202b60e01b815260040160405180910390fd5b5f60208284031215611d9f575f80fd5b81356001600160e01b031981168114611db6575f80fd5b9392505050565b80356001600160a01b0381168114611dd3575f80fd5b919050565b5f805f805f60a08688031215611dec575f80fd5b611df586611dbd565b9450611e0360208701611dbd565b935060408601359250611e1860608701611dbd565b915060808601358015158114611e2c575f80fd5b809150509295509295909350565b5f60208284031215611e4a575f80fd5b611db682611dbd565b5f60208284031215611e63575f80fd5b5035919050565b5f8060408385031215611e7b575f80fd5b82359150611e8b60208401611dbd565b90509250929050565b5f8060408385031215611ea5575f80fd5b611eae83611dbd565b946020939093013593505050565b5f805f60608486031215611ece575f80fd5b611ed784611dbd565b925060208401359150611eec60408501611dbd565b90509250925092565b5f8060408385031215611f06575f80fd5b611f0f83611dbd565b9150611e8b60208401611dbd565b5f805f8060808587031215611f30575f80fd5b611f3985611dbd565b9350611f4760208601611dbd565b925060408501359150611f5c60608601611dbd565b905092959194509250565b5f805f8060808587031215611f7a575f80fd5b611f8385611dbd565b966020860135965060408601359560600135945092505050565b5f805f60608486031215611faf575f80fd5b611fb884611dbd565b9250611fc660208501611dbd565b929592945050506040919091013590565b602080825282518282018190525f918401906040840190835b818110156120175783516001600160a01b0316835260209384019390920191600101611ff0565b509095945050505050565b634e487b7160e01b5f52601160045260245ffd5b8181038181111561060057610600612022565b5f60208284031215612059575f80fd5b5051919050565b808201808211156106005761060061202256fe96ec2584f13cbcbf2926bb7c7d24b036ddd15a8842ae5726c96f4a4a3e97cc00a2646970667358221220ce950f48e11194f4ac567c677364e010e80bfded7dec5d23bdc03954f39fc4bd64736f6c634300081a0033","linkReferences":{}},"methodIdentifiers":{"BORROW_MODULE_ROLE()":"19833dd1","DEFAULT_ADMIN_ROLE()":"a217fddf","LEVERAGE_VAULT_ROLE()":"3d34e3e4","LIQUIDATION_ROLE()":"ae0e0125","PAUSER_ROLE()":"e63ab1e9","VAULT_ADMIN_ROLE()":"9e341119","addCollateral(address,uint256,uint256,uint256)":"e5eecf68","borrowModule()":"25384fd8","collateralConfigs(address)":"8cf18e64","deposit(address,uint256)":"47e7ef24","depositFor(address,address,uint256)":"b3db428b","deposits(address,address)":"8f601f66","disableCollateral(address)":"75c038b7","enableCollateral(address)":"11be0de5","getConfig(address)":"e48a5f7b","getDeposit(address,address)":"c35082a9","getRoleAdmin(bytes32)":"248a9ca3","getSupportedTokens()":"d3c7c2c7","grantRole(bytes32,address)":"2f2ff15d","hasRole(bytes32,address)":"91d14854","pause()":"8456cb59","paused()":"5c975abb","renounceRole(bytes32,address)":"36568abe","revokeRole(bytes32,address)":"d547741f","seize(address,address,uint256,address)":"a30811c8","setBorrowModule(address)":"ab124486","setTimelock(address)":"bdacb303","supportedTokens(uint256)":"c6255626","supportsInterface(bytes4)":"01ffc9a7","timelock()":"d33219b4","unpause()":"3f4ba83a","updateCollateral(address,uint256,uint256,uint256)":"a87dcf5f","withdraw(address,uint256,address)":"69328dec","withdrawFor(address,address,uint256,address,bool)":"071ea3e3"},"id":2}